{
	"contracts/17_ReceiveTokenContract.sol": {
		"ReceiveTokenContract": {
			"abi": [
				{
					"inputs": [
						{
							"internalType": "address",
							"name": "_tokenAddress",
							"type": "address"
						}
					],
					"stateMutability": "nonpayable",
					"type": "constructor"
				},
				{
					"inputs": [
						{
							"internalType": "address",
							"name": "_address",
							"type": "address"
						}
					],
					"name": "getBalance",
					"outputs": [
						{
							"internalType": "uint256",
							"name": "",
							"type": "uint256"
						}
					],
					"stateMutability": "view",
					"type": "function"
				},
				{
					"inputs": [
						{
							"internalType": "uint256",
							"name": "_amount",
							"type": "uint256"
						}
					],
					"name": "transferFrom",
					"outputs": [],
					"stateMutability": "nonpayable",
					"type": "function"
				}
			],
			"devdoc": {
				"kind": "dev",
				"methods": {},
				"version": 1
			},
			"evm": {
				"assembly": "    /* \"contracts/17_ReceiveTokenContract.sol\":128:734  contract ReceiveTokenContract{... */\n  mstore(0x40, 0x80)\n    /* \"contracts/17_ReceiveTokenContract.sol\":184:317  constructor(address _tokenAddress){... */\n  callvalue\n  dup1\n  iszero\n  tag_1\n  jumpi\n  0x00\n  dup1\n  revert\ntag_1:\n  pop\n  mload(0x40)\n  sub(codesize, bytecodeSize)\n  dup1\n  bytecodeSize\n  dup4\n  codecopy\n  dup2\n  dup2\n  add\n  0x40\n  mstore\n  dup2\n  add\n  swap1\n  tag_2\n  swap2\n  swap1\n  tag_3\n  jump\t// in\ntag_2:\n    /* \"contracts/17_ReceiveTokenContract.sol\":243:256  _tokenAddress */\n  dup1\n    /* \"contracts/17_ReceiveTokenContract.sol\":228:235  myToken */\n  0x00\n  dup1\n    /* \"contracts/17_ReceiveTokenContract.sol\":228:257  myToken=IERC20(_tokenAddress) */\n  0x0100\n  exp\n  dup2\n  sload\n  dup2\n  0xffffffffffffffffffffffffffffffffffffffff\n  mul\n  not\n  and\n  swap1\n  dup4\n  0xffffffffffffffffffffffffffffffffffffffff\n  and\n  mul\n  or\n  swap1\n  sstore\n  pop\n    /* \"contracts/17_ReceiveTokenContract.sol\":184:317  constructor(address _tokenAddress){... */\n  pop\n    /* \"contracts/17_ReceiveTokenContract.sol\":128:734  contract ReceiveTokenContract{... */\n  jump(tag_6)\n    /* \"#utility.yul\":88:205   */\ntag_8:\n    /* \"#utility.yul\":197:198   */\n  0x00\n    /* \"#utility.yul\":194:195   */\n  dup1\n    /* \"#utility.yul\":187:199   */\n  revert\n    /* \"#utility.yul\":334:460   */\ntag_10:\n    /* \"#utility.yul\":371:378   */\n  0x00\n    /* \"#utility.yul\":411:453   */\n  0xffffffffffffffffffffffffffffffffffffffff\n    /* \"#utility.yul\":404:409   */\n  dup3\n    /* \"#utility.yul\":400:454   */\n  and\n    /* \"#utility.yul\":389:454   */\n  swap1\n  pop\n    /* \"#utility.yul\":334:460   */\n  swap2\n  swap1\n  pop\n  jump\t// out\n    /* \"#utility.yul\":466:562   */\ntag_11:\n    /* \"#utility.yul\":503:510   */\n  0x00\n    /* \"#utility.yul\":532:556   */\n  tag_20\n    /* \"#utility.yul\":550:555   */\n  dup3\n    /* \"#utility.yul\":532:556   */\n  tag_10\n  jump\t// in\ntag_20:\n    /* \"#utility.yul\":521:556   */\n  swap1\n  pop\n    /* \"#utility.yul\":466:562   */\n  swap2\n  swap1\n  pop\n  jump\t// out\n    /* \"#utility.yul\":568:690   */\ntag_12:\n    /* \"#utility.yul\":641:665   */\n  tag_22\n    /* \"#utility.yul\":659:664   */\n  dup2\n    /* \"#utility.yul\":641:665   */\n  tag_11\n  jump\t// in\ntag_22:\n    /* \"#utility.yul\":634:639   */\n  dup2\n    /* \"#utility.yul\":631:666   */\n  eq\n    /* \"#utility.yul\":621:684   */\n  tag_23\n  jumpi\n    /* \"#utility.yul\":680:681   */\n  0x00\n    /* \"#utility.yul\":677:678   */\n  dup1\n    /* \"#utility.yul\":670:682   */\n  revert\n    /* \"#utility.yul\":621:684   */\ntag_23:\n    /* \"#utility.yul\":568:690   */\n  pop\n  jump\t// out\n    /* \"#utility.yul\":696:839   */\ntag_13:\n    /* \"#utility.yul\":753:758   */\n  0x00\n    /* \"#utility.yul\":784:790   */\n  dup2\n    /* \"#utility.yul\":778:791   */\n  mload\n    /* \"#utility.yul\":769:791   */\n  swap1\n  pop\n    /* \"#utility.yul\":800:833   */\n  tag_25\n    /* \"#utility.yul\":827:832   */\n  dup2\n    /* \"#utility.yul\":800:833   */\n  tag_12\n  jump\t// in\ntag_25:\n    /* \"#utility.yul\":696:839   */\n  swap3\n  swap2\n  pop\n  pop\n  jump\t// out\n    /* \"#utility.yul\":845:1196   */\ntag_3:\n    /* \"#utility.yul\":915:921   */\n  0x00\n    /* \"#utility.yul\":964:966   */\n  0x20\n    /* \"#utility.yul\":952:961   */\n  dup3\n    /* \"#utility.yul\":943:950   */\n  dup5\n    /* \"#utility.yul\":939:962   */\n  sub\n    /* \"#utility.yul\":935:967   */\n  slt\n    /* \"#utility.yul\":932:1051   */\n  iszero\n  tag_27\n  jumpi\n    /* \"#utility.yul\":970:1049   */\n  tag_28\n  tag_8\n  jump\t// in\ntag_28:\n    /* \"#utility.yul\":932:1051   */\ntag_27:\n    /* \"#utility.yul\":1090:1091   */\n  0x00\n    /* \"#utility.yul\":1115:1179   */\n  tag_29\n    /* \"#utility.yul\":1171:1178   */\n  dup5\n    /* \"#utility.yul\":1162:1168   */\n  dup3\n    /* \"#utility.yul\":1151:1160   */\n  dup6\n    /* \"#utility.yul\":1147:1169   */\n  add\n    /* \"#utility.yul\":1115:1179   */\n  tag_13\n  jump\t// in\ntag_29:\n    /* \"#utility.yul\":1105:1179   */\n  swap2\n  pop\n    /* \"#utility.yul\":1061:1189   */\n  pop\n    /* \"#utility.yul\":845:1196   */\n  swap3\n  swap2\n  pop\n  pop\n  jump\t// out\n    /* \"contracts/17_ReceiveTokenContract.sol\":128:734  contract ReceiveTokenContract{... */\ntag_6:\n  dataSize(sub_0)\n  dup1\n  dataOffset(sub_0)\n  0x00\n  codecopy\n  0x00\n  return\nstop\n\nsub_0: assembly {\n        /* \"contracts/17_ReceiveTokenContract.sol\":128:734  contract ReceiveTokenContract{... */\n      mstore(0x40, 0x80)\n      callvalue\n      dup1\n      iszero\n      tag_1\n      jumpi\n      0x00\n      dup1\n      revert\n    tag_1:\n      pop\n      jumpi(tag_2, lt(calldatasize, 0x04))\n      shr(0xe0, calldataload(0x00))\n      dup1\n      0x77a11f7e\n      eq\n      tag_3\n      jumpi\n      dup1\n      0xf8b2cb4f\n      eq\n      tag_4\n      jumpi\n    tag_2:\n      0x00\n      dup1\n      revert\n        /* \"contracts/17_ReceiveTokenContract.sol\":499:612  function transferFrom(uint _amount) public{... */\n    tag_3:\n      tag_5\n      0x04\n      dup1\n      calldatasize\n      sub\n      dup2\n      add\n      swap1\n      tag_6\n      swap2\n      swap1\n      tag_7\n      jump\t// in\n    tag_6:\n      tag_8\n      jump\t// in\n    tag_5:\n      stop\n        /* \"contracts/17_ReceiveTokenContract.sol\":618:732  function getBalance(address _address) public view returns(uint){... */\n    tag_4:\n      tag_9\n      0x04\n      dup1\n      calldatasize\n      sub\n      dup2\n      add\n      swap1\n      tag_10\n      swap2\n      swap1\n      tag_11\n      jump\t// in\n    tag_10:\n      tag_12\n      jump\t// in\n    tag_9:\n      mload(0x40)\n      tag_13\n      swap2\n      swap1\n      tag_14\n      jump\t// in\n    tag_13:\n      mload(0x40)\n      dup1\n      swap2\n      sub\n      swap1\n      return\n        /* \"contracts/17_ReceiveTokenContract.sol\":499:612  function transferFrom(uint _amount) public{... */\n    tag_8:\n        /* \"contracts/17_ReceiveTokenContract.sol\":551:558  myToken */\n      0x00\n      dup1\n      sload\n      swap1\n      0x0100\n      exp\n      swap1\n      div\n      0xffffffffffffffffffffffffffffffffffffffff\n      and\n        /* \"contracts/17_ReceiveTokenContract.sol\":551:571  myToken.transferFrom */\n      0xffffffffffffffffffffffffffffffffffffffff\n      and\n      0x23b872dd\n        /* \"contracts/17_ReceiveTokenContract.sol\":572:582  msg.sender */\n      caller\n        /* \"contracts/17_ReceiveTokenContract.sol\":591:595  this */\n      address\n        /* \"contracts/17_ReceiveTokenContract.sol\":597:604  _amount */\n      dup5\n        /* \"contracts/17_ReceiveTokenContract.sol\":551:605  myToken.transferFrom(msg.sender,address(this),_amount) */\n      mload(0x40)\n      dup5\n      0xffffffff\n      and\n      0xe0\n      shl\n      dup2\n      mstore\n      0x04\n      add\n      tag_16\n      swap4\n      swap3\n      swap2\n      swap1\n      tag_17\n      jump\t// in\n    tag_16:\n      0x20\n      mload(0x40)\n      dup1\n      dup4\n      sub\n      dup2\n      0x00\n      dup8\n      gas\n      call\n      iszero\n      dup1\n      iszero\n      tag_19\n      jumpi\n      returndatasize\n      0x00\n      dup1\n      returndatacopy\n      revert(0x00, returndatasize)\n    tag_19:\n      pop\n      pop\n      pop\n      pop\n      mload(0x40)\n      returndatasize\n      not(0x1f)\n      0x1f\n      dup3\n      add\n      and\n      dup3\n      add\n      dup1\n      0x40\n      mstore\n      pop\n      dup2\n      add\n      swap1\n      tag_20\n      swap2\n      swap1\n      tag_21\n      jump\t// in\n    tag_20:\n      pop\n        /* \"contracts/17_ReceiveTokenContract.sol\":499:612  function transferFrom(uint _amount) public{... */\n      pop\n      jump\t// out\n        /* \"contracts/17_ReceiveTokenContract.sol\":618:732  function getBalance(address _address) public view returns(uint){... */\n    tag_12:\n        /* \"contracts/17_ReceiveTokenContract.sol\":676:680  uint */\n      0x00\n        /* \"contracts/17_ReceiveTokenContract.sol\":698:705  myToken */\n      dup1\n      0x00\n      swap1\n      sload\n      swap1\n      0x0100\n      exp\n      swap1\n      div\n      0xffffffffffffffffffffffffffffffffffffffff\n      and\n        /* \"contracts/17_ReceiveTokenContract.sol\":698:715  myToken.balanceOf */\n      0xffffffffffffffffffffffffffffffffffffffff\n      and\n      0x70a08231\n        /* \"contracts/17_ReceiveTokenContract.sol\":716:724  _address */\n      dup4\n        /* \"contracts/17_ReceiveTokenContract.sol\":698:725  myToken.balanceOf(_address) */\n      mload(0x40)\n      dup3\n      0xffffffff\n      and\n      0xe0\n      shl\n      dup2\n      mstore\n      0x04\n      add\n      tag_23\n      swap2\n      swap1\n      tag_24\n      jump\t// in\n    tag_23:\n      0x20\n      mload(0x40)\n      dup1\n      dup4\n      sub\n      dup2\n      dup7\n      gas\n      staticcall\n      iszero\n      dup1\n      iszero\n      tag_26\n      jumpi\n      returndatasize\n      0x00\n      dup1\n      returndatacopy\n      revert(0x00, returndatasize)\n    tag_26:\n      pop\n      pop\n      pop\n      pop\n      mload(0x40)\n      returndatasize\n      not(0x1f)\n      0x1f\n      dup3\n      add\n      and\n      dup3\n      add\n      dup1\n      0x40\n      mstore\n      pop\n      dup2\n      add\n      swap1\n      tag_27\n      swap2\n      swap1\n      tag_28\n      jump\t// in\n    tag_27:\n        /* \"contracts/17_ReceiveTokenContract.sol\":691:725  return myToken.balanceOf(_address) */\n      swap1\n      pop\n        /* \"contracts/17_ReceiveTokenContract.sol\":618:732  function getBalance(address _address) public view returns(uint){... */\n      swap2\n      swap1\n      pop\n      jump\t// out\n        /* \"#utility.yul\":88:205   */\n    tag_30:\n        /* \"#utility.yul\":197:198   */\n      0x00\n        /* \"#utility.yul\":194:195   */\n      dup1\n        /* \"#utility.yul\":187:199   */\n      revert\n        /* \"#utility.yul\":334:411   */\n    tag_32:\n        /* \"#utility.yul\":371:378   */\n      0x00\n        /* \"#utility.yul\":400:405   */\n      dup2\n        /* \"#utility.yul\":389:405   */\n      swap1\n      pop\n        /* \"#utility.yul\":334:411   */\n      swap2\n      swap1\n      pop\n      jump\t// out\n        /* \"#utility.yul\":417:539   */\n    tag_33:\n        /* \"#utility.yul\":490:514   */\n      tag_51\n        /* \"#utility.yul\":508:513   */\n      dup2\n        /* \"#utility.yul\":490:514   */\n      tag_32\n      jump\t// in\n    tag_51:\n        /* \"#utility.yul\":483:488   */\n      dup2\n        /* \"#utility.yul\":480:515   */\n      eq\n        /* \"#utility.yul\":470:533   */\n      tag_52\n      jumpi\n        /* \"#utility.yul\":529:530   */\n      0x00\n        /* \"#utility.yul\":526:527   */\n      dup1\n        /* \"#utility.yul\":519:531   */\n      revert\n        /* \"#utility.yul\":470:533   */\n    tag_52:\n        /* \"#utility.yul\":417:539   */\n      pop\n      jump\t// out\n        /* \"#utility.yul\":545:684   */\n    tag_34:\n        /* \"#utility.yul\":591:596   */\n      0x00\n        /* \"#utility.yul\":629:635   */\n      dup2\n        /* \"#utility.yul\":616:636   */\n      calldataload\n        /* \"#utility.yul\":607:636   */\n      swap1\n      pop\n        /* \"#utility.yul\":645:678   */\n      tag_54\n        /* \"#utility.yul\":672:677   */\n      dup2\n        /* \"#utility.yul\":645:678   */\n      tag_33\n      jump\t// in\n    tag_54:\n        /* \"#utility.yul\":545:684   */\n      swap3\n      swap2\n      pop\n      pop\n      jump\t// out\n        /* \"#utility.yul\":690:1019   */\n    tag_7:\n        /* \"#utility.yul\":749:755   */\n      0x00\n        /* \"#utility.yul\":798:800   */\n      0x20\n        /* \"#utility.yul\":786:795   */\n      dup3\n        /* \"#utility.yul\":777:784   */\n      dup5\n        /* \"#utility.yul\":773:796   */\n      sub\n        /* \"#utility.yul\":769:801   */\n      slt\n        /* \"#utility.yul\":766:885   */\n      iszero\n      tag_56\n      jumpi\n        /* \"#utility.yul\":804:883   */\n      tag_57\n      tag_30\n      jump\t// in\n    tag_57:\n        /* \"#utility.yul\":766:885   */\n    tag_56:\n        /* \"#utility.yul\":924:925   */\n      0x00\n        /* \"#utility.yul\":949:1002   */\n      tag_58\n        /* \"#utility.yul\":994:1001   */\n      dup5\n        /* \"#utility.yul\":985:991   */\n      dup3\n        /* \"#utility.yul\":974:983   */\n      dup6\n        /* \"#utility.yul\":970:992   */\n      add\n        /* \"#utility.yul\":949:1002   */\n      tag_34\n      jump\t// in\n    tag_58:\n        /* \"#utility.yul\":939:1002   */\n      swap2\n      pop\n        /* \"#utility.yul\":895:1012   */\n      pop\n        /* \"#utility.yul\":690:1019   */\n      swap3\n      swap2\n      pop\n      pop\n      jump\t// out\n        /* \"#utility.yul\":1025:1151   */\n    tag_35:\n        /* \"#utility.yul\":1062:1069   */\n      0x00\n        /* \"#utility.yul\":1102:1144   */\n      0xffffffffffffffffffffffffffffffffffffffff\n        /* \"#utility.yul\":1095:1100   */\n      dup3\n        /* \"#utility.yul\":1091:1145   */\n      and\n        /* \"#utility.yul\":1080:1145   */\n      swap1\n      pop\n        /* \"#utility.yul\":1025:1151   */\n      swap2\n      swap1\n      pop\n      jump\t// out\n        /* \"#utility.yul\":1157:1253   */\n    tag_36:\n        /* \"#utility.yul\":1194:1201   */\n      0x00\n        /* \"#utility.yul\":1223:1247   */\n      tag_61\n        /* \"#utility.yul\":1241:1246   */\n      dup3\n        /* \"#utility.yul\":1223:1247   */\n      tag_35\n      jump\t// in\n    tag_61:\n        /* \"#utility.yul\":1212:1247   */\n      swap1\n      pop\n        /* \"#utility.yul\":1157:1253   */\n      swap2\n      swap1\n      pop\n      jump\t// out\n        /* \"#utility.yul\":1259:1381   */\n    tag_37:\n        /* \"#utility.yul\":1332:1356   */\n      tag_63\n        /* \"#utility.yul\":1350:1355   */\n      dup2\n        /* \"#utility.yul\":1332:1356   */\n      tag_36\n      jump\t// in\n    tag_63:\n        /* \"#utility.yul\":1325:1330   */\n      dup2\n        /* \"#utility.yul\":1322:1357   */\n      eq\n        /* \"#utility.yul\":1312:1375   */\n      tag_64\n      jumpi\n        /* \"#utility.yul\":1371:1372   */\n      0x00\n        /* \"#utility.yul\":1368:1369   */\n      dup1\n        /* \"#utility.yul\":1361:1373   */\n      revert\n        /* \"#utility.yul\":1312:1375   */\n    tag_64:\n        /* \"#utility.yul\":1259:1381   */\n      pop\n      jump\t// out\n        /* \"#utility.yul\":1387:1526   */\n    tag_38:\n        /* \"#utility.yul\":1433:1438   */\n      0x00\n        /* \"#utility.yul\":1471:1477   */\n      dup2\n        /* \"#utility.yul\":1458:1478   */\n      calldataload\n        /* \"#utility.yul\":1449:1478   */\n      swap1\n      pop\n        /* \"#utility.yul\":1487:1520   */\n      tag_66\n        /* \"#utility.yul\":1514:1519   */\n      dup2\n        /* \"#utility.yul\":1487:1520   */\n      tag_37\n      jump\t// in\n    tag_66:\n        /* \"#utility.yul\":1387:1526   */\n      swap3\n      swap2\n      pop\n      pop\n      jump\t// out\n        /* \"#utility.yul\":1532:1861   */\n    tag_11:\n        /* \"#utility.yul\":1591:1597   */\n      0x00\n        /* \"#utility.yul\":1640:1642   */\n      0x20\n        /* \"#utility.yul\":1628:1637   */\n      dup3\n        /* \"#utility.yul\":1619:1626   */\n      dup5\n        /* \"#utility.yul\":1615:1638   */\n      sub\n        /* \"#utility.yul\":1611:1643   */\n      slt\n        /* \"#utility.yul\":1608:1727   */\n      iszero\n      tag_68\n      jumpi\n        /* \"#utility.yul\":1646:1725   */\n      tag_69\n      tag_30\n      jump\t// in\n    tag_69:\n        /* \"#utility.yul\":1608:1727   */\n    tag_68:\n        /* \"#utility.yul\":1766:1767   */\n      0x00\n        /* \"#utility.yul\":1791:1844   */\n      tag_70\n        /* \"#utility.yul\":1836:1843   */\n      dup5\n        /* \"#utility.yul\":1827:1833   */\n      dup3\n        /* \"#utility.yul\":1816:1825   */\n      dup6\n        /* \"#utility.yul\":1812:1834   */\n      add\n        /* \"#utility.yul\":1791:1844   */\n      tag_38\n      jump\t// in\n    tag_70:\n        /* \"#utility.yul\":1781:1844   */\n      swap2\n      pop\n        /* \"#utility.yul\":1737:1854   */\n      pop\n        /* \"#utility.yul\":1532:1861   */\n      swap3\n      swap2\n      pop\n      pop\n      jump\t// out\n        /* \"#utility.yul\":1867:1985   */\n    tag_39:\n        /* \"#utility.yul\":1954:1978   */\n      tag_72\n        /* \"#utility.yul\":1972:1977   */\n      dup2\n        /* \"#utility.yul\":1954:1978   */\n      tag_32\n      jump\t// in\n    tag_72:\n        /* \"#utility.yul\":1949:1952   */\n      dup3\n        /* \"#utility.yul\":1942:1979   */\n      mstore\n        /* \"#utility.yul\":1867:1985   */\n      pop\n      pop\n      jump\t// out\n        /* \"#utility.yul\":1991:2213   */\n    tag_14:\n        /* \"#utility.yul\":2084:2088   */\n      0x00\n        /* \"#utility.yul\":2122:2124   */\n      0x20\n        /* \"#utility.yul\":2111:2120   */\n      dup3\n        /* \"#utility.yul\":2107:2125   */\n      add\n        /* \"#utility.yul\":2099:2125   */\n      swap1\n      pop\n        /* \"#utility.yul\":2135:2206   */\n      tag_74\n        /* \"#utility.yul\":2203:2204   */\n      0x00\n        /* \"#utility.yul\":2192:2201   */\n      dup4\n        /* \"#utility.yul\":2188:2205   */\n      add\n        /* \"#utility.yul\":2179:2185   */\n      dup5\n        /* \"#utility.yul\":2135:2206   */\n      tag_39\n      jump\t// in\n    tag_74:\n        /* \"#utility.yul\":1991:2213   */\n      swap3\n      swap2\n      pop\n      pop\n      jump\t// out\n        /* \"#utility.yul\":2219:2337   */\n    tag_40:\n        /* \"#utility.yul\":2306:2330   */\n      tag_76\n        /* \"#utility.yul\":2324:2329   */\n      dup2\n        /* \"#utility.yul\":2306:2330   */\n      tag_36\n      jump\t// in\n    tag_76:\n        /* \"#utility.yul\":2301:2304   */\n      dup3\n        /* \"#utility.yul\":2294:2331   */\n      mstore\n        /* \"#utility.yul\":2219:2337   */\n      pop\n      pop\n      jump\t// out\n        /* \"#utility.yul\":2343:2785   */\n    tag_17:\n        /* \"#utility.yul\":2492:2496   */\n      0x00\n        /* \"#utility.yul\":2530:2532   */\n      0x60\n        /* \"#utility.yul\":2519:2528   */\n      dup3\n        /* \"#utility.yul\":2515:2533   */\n      add\n        /* \"#utility.yul\":2507:2533   */\n      swap1\n      pop\n        /* \"#utility.yul\":2543:2614   */\n      tag_78\n        /* \"#utility.yul\":2611:2612   */\n      0x00\n        /* \"#utility.yul\":2600:2609   */\n      dup4\n        /* \"#utility.yul\":2596:2613   */\n      add\n        /* \"#utility.yul\":2587:2593   */\n      dup7\n        /* \"#utility.yul\":2543:2614   */\n      tag_40\n      jump\t// in\n    tag_78:\n        /* \"#utility.yul\":2624:2696   */\n      tag_79\n        /* \"#utility.yul\":2692:2694   */\n      0x20\n        /* \"#utility.yul\":2681:2690   */\n      dup4\n        /* \"#utility.yul\":2677:2695   */\n      add\n        /* \"#utility.yul\":2668:2674   */\n      dup6\n        /* \"#utility.yul\":2624:2696   */\n      tag_40\n      jump\t// in\n    tag_79:\n        /* \"#utility.yul\":2706:2778   */\n      tag_80\n        /* \"#utility.yul\":2774:2776   */\n      0x40\n        /* \"#utility.yul\":2763:2772   */\n      dup4\n        /* \"#utility.yul\":2759:2777   */\n      add\n        /* \"#utility.yul\":2750:2756   */\n      dup5\n        /* \"#utility.yul\":2706:2778   */\n      tag_39\n      jump\t// in\n    tag_80:\n        /* \"#utility.yul\":2343:2785   */\n      swap5\n      swap4\n      pop\n      pop\n      pop\n      pop\n      jump\t// out\n        /* \"#utility.yul\":2791:2881   */\n    tag_41:\n        /* \"#utility.yul\":2825:2832   */\n      0x00\n        /* \"#utility.yul\":2868:2873   */\n      dup2\n        /* \"#utility.yul\":2861:2874   */\n      iszero\n        /* \"#utility.yul\":2854:2875   */\n      iszero\n        /* \"#utility.yul\":2843:2875   */\n      swap1\n      pop\n        /* \"#utility.yul\":2791:2881   */\n      swap2\n      swap1\n      pop\n      jump\t// out\n        /* \"#utility.yul\":2887:3003   */\n    tag_42:\n        /* \"#utility.yul\":2957:2978   */\n      tag_83\n        /* \"#utility.yul\":2972:2977   */\n      dup2\n        /* \"#utility.yul\":2957:2978   */\n      tag_41\n      jump\t// in\n    tag_83:\n        /* \"#utility.yul\":2950:2955   */\n      dup2\n        /* \"#utility.yul\":2947:2979   */\n      eq\n        /* \"#utility.yul\":2937:2997   */\n      tag_84\n      jumpi\n        /* \"#utility.yul\":2993:2994   */\n      0x00\n        /* \"#utility.yul\":2990:2991   */\n      dup1\n        /* \"#utility.yul\":2983:2995   */\n      revert\n        /* \"#utility.yul\":2937:2997   */\n    tag_84:\n        /* \"#utility.yul\":2887:3003   */\n      pop\n      jump\t// out\n        /* \"#utility.yul\":3009:3146   */\n    tag_43:\n        /* \"#utility.yul\":3063:3068   */\n      0x00\n        /* \"#utility.yul\":3094:3100   */\n      dup2\n        /* \"#utility.yul\":3088:3101   */\n      mload\n        /* \"#utility.yul\":3079:3101   */\n      swap1\n      pop\n        /* \"#utility.yul\":3110:3140   */\n      tag_86\n        /* \"#utility.yul\":3134:3139   */\n      dup2\n        /* \"#utility.yul\":3110:3140   */\n      tag_42\n      jump\t// in\n    tag_86:\n        /* \"#utility.yul\":3009:3146   */\n      swap3\n      swap2\n      pop\n      pop\n      jump\t// out\n        /* \"#utility.yul\":3152:3497   */\n    tag_21:\n        /* \"#utility.yul\":3219:3225   */\n      0x00\n        /* \"#utility.yul\":3268:3270   */\n      0x20\n        /* \"#utility.yul\":3256:3265   */\n      dup3\n        /* \"#utility.yul\":3247:3254   */\n      dup5\n        /* \"#utility.yul\":3243:3266   */\n      sub\n        /* \"#utility.yul\":3239:3271   */\n      slt\n        /* \"#utility.yul\":3236:3355   */\n      iszero\n      tag_88\n      jumpi\n        /* \"#utility.yul\":3274:3353   */\n      tag_89\n      tag_30\n      jump\t// in\n    tag_89:\n        /* \"#utility.yul\":3236:3355   */\n    tag_88:\n        /* \"#utility.yul\":3394:3395   */\n      0x00\n        /* \"#utility.yul\":3419:3480   */\n      tag_90\n        /* \"#utility.yul\":3472:3479   */\n      dup5\n        /* \"#utility.yul\":3463:3469   */\n      dup3\n        /* \"#utility.yul\":3452:3461   */\n      dup6\n        /* \"#utility.yul\":3448:3470   */\n      add\n        /* \"#utility.yul\":3419:3480   */\n      tag_43\n      jump\t// in\n    tag_90:\n        /* \"#utility.yul\":3409:3480   */\n      swap2\n      pop\n        /* \"#utility.yul\":3365:3490   */\n      pop\n        /* \"#utility.yul\":3152:3497   */\n      swap3\n      swap2\n      pop\n      pop\n      jump\t// out\n        /* \"#utility.yul\":3503:3725   */\n    tag_24:\n        /* \"#utility.yul\":3596:3600   */\n      0x00\n        /* \"#utility.yul\":3634:3636   */\n      0x20\n        /* \"#utility.yul\":3623:3632   */\n      dup3\n        /* \"#utility.yul\":3619:3637   */\n      add\n        /* \"#utility.yul\":3611:3637   */\n      swap1\n      pop\n        /* \"#utility.yul\":3647:3718   */\n      tag_92\n        /* \"#utility.yul\":3715:3716   */\n      0x00\n        /* \"#utility.yul\":3704:3713   */\n      dup4\n        /* \"#utility.yul\":3700:3717   */\n      add\n        /* \"#utility.yul\":3691:3697   */\n      dup5\n        /* \"#utility.yul\":3647:3718   */\n      tag_40\n      jump\t// in\n    tag_92:\n        /* \"#utility.yul\":3503:3725   */\n      swap3\n      swap2\n      pop\n      pop\n      jump\t// out\n        /* \"#utility.yul\":3731:3874   */\n    tag_44:\n        /* \"#utility.yul\":3788:3793   */\n      0x00\n        /* \"#utility.yul\":3819:3825   */\n      dup2\n        /* \"#utility.yul\":3813:3826   */\n      mload\n        /* \"#utility.yul\":3804:3826   */\n      swap1\n      pop\n        /* \"#utility.yul\":3835:3868   */\n      tag_94\n        /* \"#utility.yul\":3862:3867   */\n      dup2\n        /* \"#utility.yul\":3835:3868   */\n      tag_33\n      jump\t// in\n    tag_94:\n        /* \"#utility.yul\":3731:3874   */\n      swap3\n      swap2\n      pop\n      pop\n      jump\t// out\n        /* \"#utility.yul\":3880:4231   */\n    tag_28:\n        /* \"#utility.yul\":3950:3956   */\n      0x00\n        /* \"#utility.yul\":3999:4001   */\n      0x20\n        /* \"#utility.yul\":3987:3996   */\n      dup3\n        /* \"#utility.yul\":3978:3985   */\n      dup5\n        /* \"#utility.yul\":3974:3997   */\n      sub\n        /* \"#utility.yul\":3970:4002   */\n      slt\n        /* \"#utility.yul\":3967:4086   */\n      iszero\n      tag_96\n      jumpi\n        /* \"#utility.yul\":4005:4084   */\n      tag_97\n      tag_30\n      jump\t// in\n    tag_97:\n        /* \"#utility.yul\":3967:4086   */\n    tag_96:\n        /* \"#utility.yul\":4125:4126   */\n      0x00\n        /* \"#utility.yul\":4150:4214   */\n      tag_98\n        /* \"#utility.yul\":4206:4213   */\n      dup5\n        /* \"#utility.yul\":4197:4203   */\n      dup3\n        /* \"#utility.yul\":4186:4195   */\n      dup6\n        /* \"#utility.yul\":4182:4204   */\n      add\n        /* \"#utility.yul\":4150:4214   */\n      tag_44\n      jump\t// in\n    tag_98:\n        /* \"#utility.yul\":4140:4214   */\n      swap2\n      pop\n        /* \"#utility.yul\":4096:4224   */\n      pop\n        /* \"#utility.yul\":3880:4231   */\n      swap3\n      swap2\n      pop\n      pop\n      jump\t// out\n\n    auxdata: 0xa26469706673582212202b00666b44003baf6b446bba689d03d8d20266995982c1d74d12901004956d7264736f6c634300080b0033\n}\n",
				"bytecode": {
					"linkReferences": {},
					"object": "608060405234801561001057600080fd5b50604051610541380380610541833981810160405281019061003291906100db565b806000806101000a81548173ffffffffffffffffffffffffffffffffffffffff021916908373ffffffffffffffffffffffffffffffffffffffff16021790555050610108565b600080fd5b600073ffffffffffffffffffffffffffffffffffffffff82169050919050565b60006100a88261007d565b9050919050565b6100b88161009d565b81146100c357600080fd5b50565b6000815190506100d5816100af565b92915050565b6000602082840312156100f1576100f0610078565b5b60006100ff848285016100c6565b91505092915050565b61042a806101176000396000f3fe608060405234801561001057600080fd5b50600436106100365760003560e01c806377a11f7e1461003b578063f8b2cb4f14610057575b600080fd5b6100556004803603810190610050919061020a565b610087565b005b610071600480360381019061006c9190610295565b61012b565b60405161007e91906102d1565b60405180910390f35b60008054906101000a900473ffffffffffffffffffffffffffffffffffffffff1673ffffffffffffffffffffffffffffffffffffffff166323b872dd3330846040518463ffffffff1660e01b81526004016100e4939291906102fb565b6020604051808303816000875af1158015610103573d6000803e3d6000fd5b505050506040513d601f19601f82011682018060405250810190610127919061036a565b5050565b60008060009054906101000a900473ffffffffffffffffffffffffffffffffffffffff1673ffffffffffffffffffffffffffffffffffffffff166370a08231836040518263ffffffff1660e01b81526004016101879190610397565b602060405180830381865afa1580156101a4573d6000803e3d6000fd5b505050506040513d601f19601f820116820180604052508101906101c891906103c7565b9050919050565b600080fd5b6000819050919050565b6101e7816101d4565b81146101f257600080fd5b50565b600081359050610204816101de565b92915050565b6000602082840312156102205761021f6101cf565b5b600061022e848285016101f5565b91505092915050565b600073ffffffffffffffffffffffffffffffffffffffff82169050919050565b600061026282610237565b9050919050565b61027281610257565b811461027d57600080fd5b50565b60008135905061028f81610269565b92915050565b6000602082840312156102ab576102aa6101cf565b5b60006102b984828501610280565b91505092915050565b6102cb816101d4565b82525050565b60006020820190506102e660008301846102c2565b92915050565b6102f581610257565b82525050565b600060608201905061031060008301866102ec565b61031d60208301856102ec565b61032a60408301846102c2565b949350505050565b60008115159050919050565b61034781610332565b811461035257600080fd5b50565b6000815190506103648161033e565b92915050565b6000602082840312156103805761037f6101cf565b5b600061038e84828501610355565b91505092915050565b60006020820190506103ac60008301846102ec565b92915050565b6000815190506103c1816101de565b92915050565b6000602082840312156103dd576103dc6101cf565b5b60006103eb848285016103b2565b9150509291505056fea26469706673582212202b00666b44003baf6b446bba689d03d8d20266995982c1d74d12901004956d7264736f6c634300080b0033",
					"opcodes": "PUSH1 0x80 PUSH1 0x40 MSTORE CALLVALUE DUP1 ISZERO PUSH2 0x10 JUMPI PUSH1 0x0 DUP1 REVERT JUMPDEST POP PUSH1 0x40 MLOAD PUSH2 0x541 CODESIZE SUB DUP1 PUSH2 0x541 DUP4 CODECOPY DUP2 DUP2 ADD PUSH1 0x40 MSTORE DUP2 ADD SWAP1 PUSH2 0x32 SWAP2 SWAP1 PUSH2 0xDB JUMP JUMPDEST DUP1 PUSH1 0x0 DUP1 PUSH2 0x100 EXP DUP2 SLOAD DUP2 PUSH20 0xFFFFFFFFFFFFFFFFFFFFFFFFFFFFFFFFFFFFFFFF MUL NOT AND SWAP1 DUP4 PUSH20 0xFFFFFFFFFFFFFFFFFFFFFFFFFFFFFFFFFFFFFFFF AND MUL OR SWAP1 SSTORE POP POP PUSH2 0x108 JUMP JUMPDEST PUSH1 0x0 DUP1 REVERT JUMPDEST PUSH1 0x0 PUSH20 0xFFFFFFFFFFFFFFFFFFFFFFFFFFFFFFFFFFFFFFFF DUP3 AND SWAP1 POP SWAP2 SWAP1 POP JUMP JUMPDEST PUSH1 0x0 PUSH2 0xA8 DUP3 PUSH2 0x7D JUMP JUMPDEST SWAP1 POP SWAP2 SWAP1 POP JUMP JUMPDEST PUSH2 0xB8 DUP2 PUSH2 0x9D JUMP JUMPDEST DUP2 EQ PUSH2 0xC3 JUMPI PUSH1 0x0 DUP1 REVERT JUMPDEST POP JUMP JUMPDEST PUSH1 0x0 DUP2 MLOAD SWAP1 POP PUSH2 0xD5 DUP2 PUSH2 0xAF JUMP JUMPDEST SWAP3 SWAP2 POP POP JUMP JUMPDEST PUSH1 0x0 PUSH1 0x20 DUP3 DUP5 SUB SLT ISZERO PUSH2 0xF1 JUMPI PUSH2 0xF0 PUSH2 0x78 JUMP JUMPDEST JUMPDEST PUSH1 0x0 PUSH2 0xFF DUP5 DUP3 DUP6 ADD PUSH2 0xC6 JUMP JUMPDEST SWAP2 POP POP SWAP3 SWAP2 POP POP JUMP JUMPDEST PUSH2 0x42A DUP1 PUSH2 0x117 PUSH1 0x0 CODECOPY PUSH1 0x0 RETURN INVALID PUSH1 0x80 PUSH1 0x40 MSTORE CALLVALUE DUP1 ISZERO PUSH2 0x10 JUMPI PUSH1 0x0 DUP1 REVERT JUMPDEST POP PUSH1 0x4 CALLDATASIZE LT PUSH2 0x36 JUMPI PUSH1 0x0 CALLDATALOAD PUSH1 0xE0 SHR DUP1 PUSH4 0x77A11F7E EQ PUSH2 0x3B JUMPI DUP1 PUSH4 0xF8B2CB4F EQ PUSH2 0x57 JUMPI JUMPDEST PUSH1 0x0 DUP1 REVERT JUMPDEST PUSH2 0x55 PUSH1 0x4 DUP1 CALLDATASIZE SUB DUP2 ADD SWAP1 PUSH2 0x50 SWAP2 SWAP1 PUSH2 0x20A JUMP JUMPDEST PUSH2 0x87 JUMP JUMPDEST STOP JUMPDEST PUSH2 0x71 PUSH1 0x4 DUP1 CALLDATASIZE SUB DUP2 ADD SWAP1 PUSH2 0x6C SWAP2 SWAP1 PUSH2 0x295 JUMP JUMPDEST PUSH2 0x12B JUMP JUMPDEST PUSH1 0x40 MLOAD PUSH2 0x7E SWAP2 SWAP1 PUSH2 0x2D1 JUMP JUMPDEST PUSH1 0x40 MLOAD DUP1 SWAP2 SUB SWAP1 RETURN JUMPDEST PUSH1 0x0 DUP1 SLOAD SWAP1 PUSH2 0x100 EXP SWAP1 DIV PUSH20 0xFFFFFFFFFFFFFFFFFFFFFFFFFFFFFFFFFFFFFFFF AND PUSH20 0xFFFFFFFFFFFFFFFFFFFFFFFFFFFFFFFFFFFFFFFF AND PUSH4 0x23B872DD CALLER ADDRESS DUP5 PUSH1 0x40 MLOAD DUP5 PUSH4 0xFFFFFFFF AND PUSH1 0xE0 SHL DUP2 MSTORE PUSH1 0x4 ADD PUSH2 0xE4 SWAP4 SWAP3 SWAP2 SWAP1 PUSH2 0x2FB JUMP JUMPDEST PUSH1 0x20 PUSH1 0x40 MLOAD DUP1 DUP4 SUB DUP2 PUSH1 0x0 DUP8 GAS CALL ISZERO DUP1 ISZERO PUSH2 0x103 JUMPI RETURNDATASIZE PUSH1 0x0 DUP1 RETURNDATACOPY RETURNDATASIZE PUSH1 0x0 REVERT JUMPDEST POP POP POP POP PUSH1 0x40 MLOAD RETURNDATASIZE PUSH1 0x1F NOT PUSH1 0x1F DUP3 ADD AND DUP3 ADD DUP1 PUSH1 0x40 MSTORE POP DUP2 ADD SWAP1 PUSH2 0x127 SWAP2 SWAP1 PUSH2 0x36A JUMP JUMPDEST POP POP JUMP JUMPDEST PUSH1 0x0 DUP1 PUSH1 0x0 SWAP1 SLOAD SWAP1 PUSH2 0x100 EXP SWAP1 DIV PUSH20 0xFFFFFFFFFFFFFFFFFFFFFFFFFFFFFFFFFFFFFFFF AND PUSH20 0xFFFFFFFFFFFFFFFFFFFFFFFFFFFFFFFFFFFFFFFF AND PUSH4 0x70A08231 DUP4 PUSH1 0x40 MLOAD DUP3 PUSH4 0xFFFFFFFF AND PUSH1 0xE0 SHL DUP2 MSTORE PUSH1 0x4 ADD PUSH2 0x187 SWAP2 SWAP1 PUSH2 0x397 JUMP JUMPDEST PUSH1 0x20 PUSH1 0x40 MLOAD DUP1 DUP4 SUB DUP2 DUP7 GAS STATICCALL ISZERO DUP1 ISZERO PUSH2 0x1A4 JUMPI RETURNDATASIZE PUSH1 0x0 DUP1 RETURNDATACOPY RETURNDATASIZE PUSH1 0x0 REVERT JUMPDEST POP POP POP POP PUSH1 0x40 MLOAD RETURNDATASIZE PUSH1 0x1F NOT PUSH1 0x1F DUP3 ADD AND DUP3 ADD DUP1 PUSH1 0x40 MSTORE POP DUP2 ADD SWAP1 PUSH2 0x1C8 SWAP2 SWAP1 PUSH2 0x3C7 JUMP JUMPDEST SWAP1 POP SWAP2 SWAP1 POP JUMP JUMPDEST PUSH1 0x0 DUP1 REVERT JUMPDEST PUSH1 0x0 DUP2 SWAP1 POP SWAP2 SWAP1 POP JUMP JUMPDEST PUSH2 0x1E7 DUP2 PUSH2 0x1D4 JUMP JUMPDEST DUP2 EQ PUSH2 0x1F2 JUMPI PUSH1 0x0 DUP1 REVERT JUMPDEST POP JUMP JUMPDEST PUSH1 0x0 DUP2 CALLDATALOAD SWAP1 POP PUSH2 0x204 DUP2 PUSH2 0x1DE JUMP JUMPDEST SWAP3 SWAP2 POP POP JUMP JUMPDEST PUSH1 0x0 PUSH1 0x20 DUP3 DUP5 SUB SLT ISZERO PUSH2 0x220 JUMPI PUSH2 0x21F PUSH2 0x1CF JUMP JUMPDEST JUMPDEST PUSH1 0x0 PUSH2 0x22E DUP5 DUP3 DUP6 ADD PUSH2 0x1F5 JUMP JUMPDEST SWAP2 POP POP SWAP3 SWAP2 POP POP JUMP JUMPDEST PUSH1 0x0 PUSH20 0xFFFFFFFFFFFFFFFFFFFFFFFFFFFFFFFFFFFFFFFF DUP3 AND SWAP1 POP SWAP2 SWAP1 POP JUMP JUMPDEST PUSH1 0x0 PUSH2 0x262 DUP3 PUSH2 0x237 JUMP JUMPDEST SWAP1 POP SWAP2 SWAP1 POP JUMP JUMPDEST PUSH2 0x272 DUP2 PUSH2 0x257 JUMP JUMPDEST DUP2 EQ PUSH2 0x27D JUMPI PUSH1 0x0 DUP1 REVERT JUMPDEST POP JUMP JUMPDEST PUSH1 0x0 DUP2 CALLDATALOAD SWAP1 POP PUSH2 0x28F DUP2 PUSH2 0x269 JUMP JUMPDEST SWAP3 SWAP2 POP POP JUMP JUMPDEST PUSH1 0x0 PUSH1 0x20 DUP3 DUP5 SUB SLT ISZERO PUSH2 0x2AB JUMPI PUSH2 0x2AA PUSH2 0x1CF JUMP JUMPDEST JUMPDEST PUSH1 0x0 PUSH2 0x2B9 DUP5 DUP3 DUP6 ADD PUSH2 0x280 JUMP JUMPDEST SWAP2 POP POP SWAP3 SWAP2 POP POP JUMP JUMPDEST PUSH2 0x2CB DUP2 PUSH2 0x1D4 JUMP JUMPDEST DUP3 MSTORE POP POP JUMP JUMPDEST PUSH1 0x0 PUSH1 0x20 DUP3 ADD SWAP1 POP PUSH2 0x2E6 PUSH1 0x0 DUP4 ADD DUP5 PUSH2 0x2C2 JUMP JUMPDEST SWAP3 SWAP2 POP POP JUMP JUMPDEST PUSH2 0x2F5 DUP2 PUSH2 0x257 JUMP JUMPDEST DUP3 MSTORE POP POP JUMP JUMPDEST PUSH1 0x0 PUSH1 0x60 DUP3 ADD SWAP1 POP PUSH2 0x310 PUSH1 0x0 DUP4 ADD DUP7 PUSH2 0x2EC JUMP JUMPDEST PUSH2 0x31D PUSH1 0x20 DUP4 ADD DUP6 PUSH2 0x2EC JUMP JUMPDEST PUSH2 0x32A PUSH1 0x40 DUP4 ADD DUP5 PUSH2 0x2C2 JUMP JUMPDEST SWAP5 SWAP4 POP POP POP POP JUMP JUMPDEST PUSH1 0x0 DUP2 ISZERO ISZERO SWAP1 POP SWAP2 SWAP1 POP JUMP JUMPDEST PUSH2 0x347 DUP2 PUSH2 0x332 JUMP JUMPDEST DUP2 EQ PUSH2 0x352 JUMPI PUSH1 0x0 DUP1 REVERT JUMPDEST POP JUMP JUMPDEST PUSH1 0x0 DUP2 MLOAD SWAP1 POP PUSH2 0x364 DUP2 PUSH2 0x33E JUMP JUMPDEST SWAP3 SWAP2 POP POP JUMP JUMPDEST PUSH1 0x0 PUSH1 0x20 DUP3 DUP5 SUB SLT ISZERO PUSH2 0x380 JUMPI PUSH2 0x37F PUSH2 0x1CF JUMP JUMPDEST JUMPDEST PUSH1 0x0 PUSH2 0x38E DUP5 DUP3 DUP6 ADD PUSH2 0x355 JUMP JUMPDEST SWAP2 POP POP SWAP3 SWAP2 POP POP JUMP JUMPDEST PUSH1 0x0 PUSH1 0x20 DUP3 ADD SWAP1 POP PUSH2 0x3AC PUSH1 0x0 DUP4 ADD DUP5 PUSH2 0x2EC JUMP JUMPDEST SWAP3 SWAP2 POP POP JUMP JUMPDEST PUSH1 0x0 DUP2 MLOAD SWAP1 POP PUSH2 0x3C1 DUP2 PUSH2 0x1DE JUMP JUMPDEST SWAP3 SWAP2 POP POP JUMP JUMPDEST PUSH1 0x0 PUSH1 0x20 DUP3 DUP5 SUB SLT ISZERO PUSH2 0x3DD JUMPI PUSH2 0x3DC PUSH2 0x1CF JUMP JUMPDEST JUMPDEST PUSH1 0x0 PUSH2 0x3EB DUP5 DUP3 DUP6 ADD PUSH2 0x3B2 JUMP JUMPDEST SWAP2 POP POP SWAP3 SWAP2 POP POP JUMP INVALID LOG2 PUSH5 0x6970667358 0x22 SLT KECCAK256 0x2B STOP PUSH7 0x6B44003BAF6B44 PUSH12 0xBA689D03D8D20266995982C1 0xD7 0x4D SLT SWAP1 LT DIV SWAP6 PUSH14 0x7264736F6C634300080B00330000 "
				},
				"gasEstimates": {
					"creation": {
						"codeDepositCost": "213200",
						"executionCost": "infinite",
						"totalCost": "infinite"
					},
					"external": {
						"getBalance(address)": "infinite",
						"transferFrom(uint256)": "infinite"
					}
				},
				"methodIdentifiers": {
					"getBalance(address)": "f8b2cb4f",
					"transferFrom(uint256)": "77a11f7e"
				}
			},
			"storageLayout": {
				"storage": [
					{
						"astId": 83,
						"contract": "contracts/17_ReceiveTokenContract.sol:ReceiveTokenContract",
						"label": "myToken",
						"offset": 0,
						"slot": "0",
						"type": "t_contract(IERC20)77"
					}
				],
				"types": {
					"t_contract(IERC20)77": {
						"encoding": "inplace",
						"label": "contract IERC20",
						"numberOfBytes": "20"
					}
				}
			},
			"userdoc": {
				"kind": "user",
				"methods": {},
				"version": 1
			}
		}
	}
}