{
	"contracts/7_EnumStudy.sol": {
		"EnumStudy": {
			"abi": [
				{
					"inputs": [],
					"name": "getStatus",
					"outputs": [
						{
							"internalType": "enum EnumStudy.Status",
							"name": "",
							"type": "uint8"
						}
					],
					"stateMutability": "view",
					"type": "function"
				},
				{
					"inputs": [
						{
							"internalType": "enum EnumStudy.Status",
							"name": "_status",
							"type": "uint8"
						}
					],
					"name": "setStatus",
					"outputs": [],
					"stateMutability": "nonpayable",
					"type": "function"
				}
			],
			"devdoc": {
				"kind": "dev",
				"methods": {},
				"version": 1
			},
			"evm": {
				"assembly": "    /* \"contracts/7_EnumStudy.sol\":70:328  contract EnumStudy{... */\n  mstore(0x40, 0x80)\n  callvalue\n  dup1\n  iszero\n  tag_1\n  jumpi\n  0x00\n  dup1\n  revert\ntag_1:\n  pop\n  dataSize(sub_0)\n  dup1\n  dataOffset(sub_0)\n  0x00\n  codecopy\n  0x00\n  return\nstop\n\nsub_0: assembly {\n        /* \"contracts/7_EnumStudy.sol\":70:328  contract EnumStudy{... */\n      mstore(0x40, 0x80)\n      callvalue\n      dup1\n      iszero\n      tag_1\n      jumpi\n      0x00\n      dup1\n      revert\n    tag_1:\n      pop\n      jumpi(tag_2, lt(calldatasize, 0x04))\n      shr(0xe0, calldataload(0x00))\n      dup1\n      0x2e49d78b\n      eq\n      tag_3\n      jumpi\n      dup1\n      0x4e69d560\n      eq\n      tag_4\n      jumpi\n    tag_2:\n      0x00\n      dup1\n      revert\n        /* \"contracts/7_EnumStudy.sol\":249:325  function setStatus(Status _status) external{... */\n    tag_3:\n      tag_5\n      0x04\n      dup1\n      calldatasize\n      sub\n      dup2\n      add\n      swap1\n      tag_6\n      swap2\n      swap1\n      tag_7\n      jump\t// in\n    tag_6:\n      tag_8\n      jump\t// in\n    tag_5:\n      stop\n        /* \"contracts/7_EnumStudy.sol\":163:243  function getStatus() view external returns(Status){... */\n    tag_4:\n      tag_9\n      tag_10\n      jump\t// in\n    tag_9:\n      mload(0x40)\n      tag_11\n      swap2\n      swap1\n      tag_12\n      jump\t// in\n    tag_11:\n      mload(0x40)\n      dup1\n      swap2\n      sub\n      swap1\n      return\n        /* \"contracts/7_EnumStudy.sol\":249:325  function setStatus(Status _status) external{... */\n    tag_8:\n        /* \"contracts/7_EnumStudy.sol\":311:318  _status */\n      dup1\n        /* \"contracts/7_EnumStudy.sol\":302:308  status */\n      0x00\n      dup1\n        /* \"contracts/7_EnumStudy.sol\":302:318  status = _status */\n      0x0100\n      exp\n      dup2\n      sload\n      dup2\n      0xff\n      mul\n      not\n      and\n      swap1\n      dup4\n      0x01\n      dup2\n      gt\n      iszero\n      tag_14\n      jumpi\n      tag_15\n      tag_16\n      jump\t// in\n    tag_15:\n    tag_14:\n      mul\n      or\n      swap1\n      sstore\n      pop\n        /* \"contracts/7_EnumStudy.sol\":249:325  function setStatus(Status _status) external{... */\n      pop\n      jump\t// out\n        /* \"contracts/7_EnumStudy.sol\":163:243  function getStatus() view external returns(Status){... */\n    tag_10:\n        /* \"contracts/7_EnumStudy.sol\":206:212  Status */\n      0x00\n        /* \"contracts/7_EnumStudy.sol\":230:236  status */\n      dup1\n      0x00\n      swap1\n      sload\n      swap1\n      0x0100\n      exp\n      swap1\n      div\n      0xff\n      and\n        /* \"contracts/7_EnumStudy.sol\":223:236  return status */\n      swap1\n      pop\n        /* \"contracts/7_EnumStudy.sol\":163:243  function getStatus() view external returns(Status){... */\n      swap1\n      jump\t// out\n        /* \"#utility.yul\":7:162   */\n    tag_19:\n        /* \"#utility.yul\":61:66   */\n      0x00\n        /* \"#utility.yul\":99:105   */\n      dup2\n        /* \"#utility.yul\":86:106   */\n      calldataload\n        /* \"#utility.yul\":77:106   */\n      swap1\n      pop\n        /* \"#utility.yul\":115:156   */\n      tag_21\n        /* \"#utility.yul\":150:155   */\n      dup2\n        /* \"#utility.yul\":115:156   */\n      tag_22\n      jump\t// in\n    tag_21:\n        /* \"#utility.yul\":7:162   */\n      swap3\n      swap2\n      pop\n      pop\n      jump\t// out\n        /* \"#utility.yul\":168:513   */\n    tag_7:\n        /* \"#utility.yul\":235:241   */\n      0x00\n        /* \"#utility.yul\":284:286   */\n      0x20\n        /* \"#utility.yul\":272:281   */\n      dup3\n        /* \"#utility.yul\":263:270   */\n      dup5\n        /* \"#utility.yul\":259:282   */\n      sub\n        /* \"#utility.yul\":255:287   */\n      slt\n        /* \"#utility.yul\":252:371   */\n      iszero\n      tag_24\n      jumpi\n        /* \"#utility.yul\":290:369   */\n      tag_25\n      tag_26\n      jump\t// in\n    tag_25:\n        /* \"#utility.yul\":252:371   */\n    tag_24:\n        /* \"#utility.yul\":410:411   */\n      0x00\n        /* \"#utility.yul\":435:496   */\n      tag_27\n        /* \"#utility.yul\":488:495   */\n      dup5\n        /* \"#utility.yul\":479:485   */\n      dup3\n        /* \"#utility.yul\":468:477   */\n      dup6\n        /* \"#utility.yul\":464:486   */\n      add\n        /* \"#utility.yul\":435:496   */\n      tag_19\n      jump\t// in\n    tag_27:\n        /* \"#utility.yul\":425:496   */\n      swap2\n      pop\n        /* \"#utility.yul\":381:506   */\n      pop\n        /* \"#utility.yul\":168:513   */\n      swap3\n      swap2\n      pop\n      pop\n      jump\t// out\n        /* \"#utility.yul\":519:662   */\n    tag_28:\n        /* \"#utility.yul\":612:655   */\n      tag_30\n        /* \"#utility.yul\":649:654   */\n      dup2\n        /* \"#utility.yul\":612:655   */\n      tag_31\n      jump\t// in\n    tag_30:\n        /* \"#utility.yul\":607:610   */\n      dup3\n        /* \"#utility.yul\":600:656   */\n      mstore\n        /* \"#utility.yul\":519:662   */\n      pop\n      pop\n      jump\t// out\n        /* \"#utility.yul\":668:902   */\n    tag_12:\n        /* \"#utility.yul\":767:771   */\n      0x00\n        /* \"#utility.yul\":805:807   */\n      0x20\n        /* \"#utility.yul\":794:803   */\n      dup3\n        /* \"#utility.yul\":790:808   */\n      add\n        /* \"#utility.yul\":782:808   */\n      swap1\n      pop\n        /* \"#utility.yul\":818:895   */\n      tag_33\n        /* \"#utility.yul\":892:893   */\n      0x00\n        /* \"#utility.yul\":881:890   */\n      dup4\n        /* \"#utility.yul\":877:894   */\n      add\n        /* \"#utility.yul\":868:874   */\n      dup5\n        /* \"#utility.yul\":818:895   */\n      tag_28\n      jump\t// in\n    tag_33:\n        /* \"#utility.yul\":668:902   */\n      swap3\n      swap2\n      pop\n      pop\n      jump\t// out\n        /* \"#utility.yul\":989:1116   */\n    tag_36:\n        /* \"#utility.yul\":1034:1041   */\n      0x00\n        /* \"#utility.yul\":1063:1068   */\n      dup2\n        /* \"#utility.yul\":1052:1068   */\n      swap1\n      pop\n        /* \"#utility.yul\":1069:1110   */\n      tag_38\n        /* \"#utility.yul\":1104:1109   */\n      dup3\n        /* \"#utility.yul\":1069:1110   */\n      tag_39\n      jump\t// in\n    tag_38:\n        /* \"#utility.yul\":989:1116   */\n      swap2\n      swap1\n      pop\n      jump\t// out\n        /* \"#utility.yul\":1122:1249   */\n    tag_31:\n        /* \"#utility.yul\":1178:1187   */\n      0x00\n        /* \"#utility.yul\":1211:1243   */\n      tag_41\n        /* \"#utility.yul\":1237:1242   */\n      dup3\n        /* \"#utility.yul\":1211:1243   */\n      tag_36\n      jump\t// in\n    tag_41:\n        /* \"#utility.yul\":1198:1243   */\n      swap1\n      pop\n        /* \"#utility.yul\":1122:1249   */\n      swap2\n      swap1\n      pop\n      jump\t// out\n        /* \"#utility.yul\":1255:1435   */\n    tag_16:\n        /* \"#utility.yul\":1303:1380   */\n      0x4e487b7100000000000000000000000000000000000000000000000000000000\n        /* \"#utility.yul\":1300:1301   */\n      0x00\n        /* \"#utility.yul\":1293:1381   */\n      mstore\n        /* \"#utility.yul\":1400:1404   */\n      0x21\n        /* \"#utility.yul\":1397:1398   */\n      0x04\n        /* \"#utility.yul\":1390:1405   */\n      mstore\n        /* \"#utility.yul\":1424:1428   */\n      0x24\n        /* \"#utility.yul\":1421:1422   */\n      0x00\n        /* \"#utility.yul\":1414:1429   */\n      revert\n        /* \"#utility.yul\":1564:1681   */\n    tag_26:\n        /* \"#utility.yul\":1673:1674   */\n      0x00\n        /* \"#utility.yul\":1670:1671   */\n      dup1\n        /* \"#utility.yul\":1663:1675   */\n      revert\n        /* \"#utility.yul\":1687:1800   */\n    tag_39:\n        /* \"#utility.yul\":1768:1769   */\n      0x02\n        /* \"#utility.yul\":1761:1766   */\n      dup2\n        /* \"#utility.yul\":1758:1770   */\n      lt\n        /* \"#utility.yul\":1748:1794   */\n      tag_47\n      jumpi\n        /* \"#utility.yul\":1774:1792   */\n      tag_48\n      tag_16\n      jump\t// in\n    tag_48:\n        /* \"#utility.yul\":1748:1794   */\n    tag_47:\n        /* \"#utility.yul\":1687:1800   */\n      pop\n      jump\t// out\n        /* \"#utility.yul\":1806:1913   */\n    tag_22:\n        /* \"#utility.yul\":1887:1888   */\n      0x02\n        /* \"#utility.yul\":1880:1885   */\n      dup2\n        /* \"#utility.yul\":1877:1889   */\n      lt\n        /* \"#utility.yul\":1867:1907   */\n      tag_50\n      jumpi\n        /* \"#utility.yul\":1903:1904   */\n      0x00\n        /* \"#utility.yul\":1900:1901   */\n      dup1\n        /* \"#utility.yul\":1893:1905   */\n      revert\n        /* \"#utility.yul\":1867:1907   */\n    tag_50:\n        /* \"#utility.yul\":1806:1913   */\n      pop\n      jump\t// out\n\n    auxdata: 0xa26469706673582212209bac14bd860c6b8824205c0249bb8460a5c86c7d1d75eae6e766c3caa4c26ff864736f6c63430008070033\n}\n",
				"bytecode": {
					"linkReferences": {},
					"object": "608060405234801561001057600080fd5b506101d6806100206000396000f3fe608060405234801561001057600080fd5b50600436106100365760003560e01c80632e49d78b1461003b5780634e69d56014610057575b600080fd5b610055600480360381019061005091906100cc565b610075565b005b61005f6100a1565b60405161006c9190610108565b60405180910390f35b806000806101000a81548160ff0219169083600181111561009957610098610148565b5b021790555050565b60008060009054906101000a900460ff16905090565b6000813590506100c681610190565b92915050565b6000602082840312156100e2576100e1610177565b5b60006100f0848285016100b7565b91505092915050565b61010281610136565b82525050565b600060208201905061011d60008301846100f9565b92915050565b60008190506101318261017c565b919050565b600061014182610123565b9050919050565b7f4e487b7100000000000000000000000000000000000000000000000000000000600052602160045260246000fd5b600080fd5b6002811061018d5761018c610148565b5b50565b6002811061019d57600080fd5b5056fea26469706673582212209bac14bd860c6b8824205c0249bb8460a5c86c7d1d75eae6e766c3caa4c26ff864736f6c63430008070033",
					"opcodes": "PUSH1 0x80 PUSH1 0x40 MSTORE CALLVALUE DUP1 ISZERO PUSH2 0x10 JUMPI PUSH1 0x0 DUP1 REVERT JUMPDEST POP PUSH2 0x1D6 DUP1 PUSH2 0x20 PUSH1 0x0 CODECOPY PUSH1 0x0 RETURN INVALID PUSH1 0x80 PUSH1 0x40 MSTORE CALLVALUE DUP1 ISZERO PUSH2 0x10 JUMPI PUSH1 0x0 DUP1 REVERT JUMPDEST POP PUSH1 0x4 CALLDATASIZE LT PUSH2 0x36 JUMPI PUSH1 0x0 CALLDATALOAD PUSH1 0xE0 SHR DUP1 PUSH4 0x2E49D78B EQ PUSH2 0x3B JUMPI DUP1 PUSH4 0x4E69D560 EQ PUSH2 0x57 JUMPI JUMPDEST PUSH1 0x0 DUP1 REVERT JUMPDEST PUSH2 0x55 PUSH1 0x4 DUP1 CALLDATASIZE SUB DUP2 ADD SWAP1 PUSH2 0x50 SWAP2 SWAP1 PUSH2 0xCC JUMP JUMPDEST PUSH2 0x75 JUMP JUMPDEST STOP JUMPDEST PUSH2 0x5F PUSH2 0xA1 JUMP JUMPDEST PUSH1 0x40 MLOAD PUSH2 0x6C SWAP2 SWAP1 PUSH2 0x108 JUMP JUMPDEST PUSH1 0x40 MLOAD DUP1 SWAP2 SUB SWAP1 RETURN JUMPDEST DUP1 PUSH1 0x0 DUP1 PUSH2 0x100 EXP DUP2 SLOAD DUP2 PUSH1 0xFF MUL NOT AND SWAP1 DUP4 PUSH1 0x1 DUP2 GT ISZERO PUSH2 0x99 JUMPI PUSH2 0x98 PUSH2 0x148 JUMP JUMPDEST JUMPDEST MUL OR SWAP1 SSTORE POP POP JUMP JUMPDEST PUSH1 0x0 DUP1 PUSH1 0x0 SWAP1 SLOAD SWAP1 PUSH2 0x100 EXP SWAP1 DIV PUSH1 0xFF AND SWAP1 POP SWAP1 JUMP JUMPDEST PUSH1 0x0 DUP2 CALLDATALOAD SWAP1 POP PUSH2 0xC6 DUP2 PUSH2 0x190 JUMP JUMPDEST SWAP3 SWAP2 POP POP JUMP JUMPDEST PUSH1 0x0 PUSH1 0x20 DUP3 DUP5 SUB SLT ISZERO PUSH2 0xE2 JUMPI PUSH2 0xE1 PUSH2 0x177 JUMP JUMPDEST JUMPDEST PUSH1 0x0 PUSH2 0xF0 DUP5 DUP3 DUP6 ADD PUSH2 0xB7 JUMP JUMPDEST SWAP2 POP POP SWAP3 SWAP2 POP POP JUMP JUMPDEST PUSH2 0x102 DUP2 PUSH2 0x136 JUMP JUMPDEST DUP3 MSTORE POP POP JUMP JUMPDEST PUSH1 0x0 PUSH1 0x20 DUP3 ADD SWAP1 POP PUSH2 0x11D PUSH1 0x0 DUP4 ADD DUP5 PUSH2 0xF9 JUMP JUMPDEST SWAP3 SWAP2 POP POP JUMP JUMPDEST PUSH1 0x0 DUP2 SWAP1 POP PUSH2 0x131 DUP3 PUSH2 0x17C JUMP JUMPDEST SWAP2 SWAP1 POP JUMP JUMPDEST PUSH1 0x0 PUSH2 0x141 DUP3 PUSH2 0x123 JUMP JUMPDEST SWAP1 POP SWAP2 SWAP1 POP JUMP JUMPDEST PUSH32 0x4E487B7100000000000000000000000000000000000000000000000000000000 PUSH1 0x0 MSTORE PUSH1 0x21 PUSH1 0x4 MSTORE PUSH1 0x24 PUSH1 0x0 REVERT JUMPDEST PUSH1 0x0 DUP1 REVERT JUMPDEST PUSH1 0x2 DUP2 LT PUSH2 0x18D JUMPI PUSH2 0x18C PUSH2 0x148 JUMP JUMPDEST JUMPDEST POP JUMP JUMPDEST PUSH1 0x2 DUP2 LT PUSH2 0x19D JUMPI PUSH1 0x0 DUP1 REVERT JUMPDEST POP JUMP INVALID LOG2 PUSH5 0x6970667358 0x22 SLT KECCAK256 SWAP12 0xAC EQ 0xBD DUP7 0xC PUSH12 0x8824205C0249BB8460A5C86C PUSH30 0x1D75EAE6E766C3CAA4C26FF864736F6C6343000807003300000000000000 "
				},
				"gasEstimates": {
					"creation": {
						"codeDepositCost": "94000",
						"executionCost": "141",
						"totalCost": "94141"
					},
					"external": {
						"getStatus()": "2568",
						"setStatus(uint8)": "24628"
					}
				},
				"methodIdentifiers": {
					"getStatus()": "4e69d560",
					"setStatus(uint8)": "2e49d78b"
				}
			},
			"storageLayout": {
				"storage": [
					{
						"astId": 7,
						"contract": "contracts/7_EnumStudy.sol:EnumStudy",
						"label": "status",
						"offset": 0,
						"slot": "0",
						"type": "t_enum(Status)4"
					}
				],
				"types": {
					"t_enum(Status)4": {
						"encoding": "inplace",
						"label": "enum EnumStudy.Status",
						"numberOfBytes": "1"
					}
				}
			},
			"userdoc": {
				"kind": "user",
				"methods": {},
				"version": 1
			}
		}
	}
}