{
	"contracts/16_Dex.sol": {
		"DEX": {
			"abi": [
				{
					"inputs": [],
					"stateMutability": "nonpayable",
					"type": "constructor"
				},
				{
					"anonymous": false,
					"inputs": [
						{
							"indexed": false,
							"internalType": "uint256",
							"name": "amount",
							"type": "uint256"
						}
					],
					"name": "Bought",
					"type": "event"
				},
				{
					"anonymous": false,
					"inputs": [
						{
							"indexed": false,
							"internalType": "uint256",
							"name": "amount",
							"type": "uint256"
						}
					],
					"name": "Sold",
					"type": "event"
				},
				{
					"inputs": [
						{
							"internalType": "uint256",
							"name": "amount",
							"type": "uint256"
						}
					],
					"name": "approve",
					"outputs": [
						{
							"internalType": "bool",
							"name": "",
							"type": "bool"
						}
					],
					"stateMutability": "nonpayable",
					"type": "function"
				},
				{
					"inputs": [],
					"name": "buy",
					"outputs": [],
					"stateMutability": "payable",
					"type": "function"
				},
				{
					"inputs": [],
					"name": "getAddress",
					"outputs": [
						{
							"internalType": "address",
							"name": "",
							"type": "address"
						}
					],
					"stateMutability": "view",
					"type": "function"
				},
				{
					"inputs": [],
					"name": "getAllowance",
					"outputs": [
						{
							"internalType": "uint256",
							"name": "",
							"type": "uint256"
						}
					],
					"stateMutability": "view",
					"type": "function"
				},
				{
					"inputs": [],
					"name": "getDexBalance",
					"outputs": [
						{
							"internalType": "uint256",
							"name": "",
							"type": "uint256"
						}
					],
					"stateMutability": "view",
					"type": "function"
				},
				{
					"inputs": [],
					"name": "getOwnerBalance",
					"outputs": [
						{
							"internalType": "uint256",
							"name": "",
							"type": "uint256"
						}
					],
					"stateMutability": "view",
					"type": "function"
				},
				{
					"inputs": [],
					"name": "getSenderAddress",
					"outputs": [
						{
							"internalType": "address",
							"name": "",
							"type": "address"
						}
					],
					"stateMutability": "view",
					"type": "function"
				},
				{
					"inputs": [],
					"name": "getTokenAddress",
					"outputs": [
						{
							"internalType": "address",
							"name": "",
							"type": "address"
						}
					],
					"stateMutability": "view",
					"type": "function"
				},
				{
					"inputs": [],
					"name": "getTotalSupply",
					"outputs": [
						{
							"internalType": "uint256",
							"name": "",
							"type": "uint256"
						}
					],
					"stateMutability": "view",
					"type": "function"
				},
				{
					"inputs": [
						{
							"internalType": "uint256",
							"name": "amount",
							"type": "uint256"
						}
					],
					"name": "sell",
					"outputs": [],
					"stateMutability": "payable",
					"type": "function"
				},
				{
					"inputs": [],
					"name": "token",
					"outputs": [
						{
							"internalType": "contract IERC20",
							"name": "",
							"type": "address"
						}
					],
					"stateMutability": "view",
					"type": "function"
				}
			],
			"devdoc": {
				"kind": "dev",
				"methods": {},
				"version": 1
			},
			"evm": {
				"assembly": "    /* \"contracts/16_Dex.sol\":3623:5452  contract DEX{... */\n  mstore(0x40, 0x80)\n    /* \"contracts/16_Dex.sol\":3734:3786  constructor(){... */\n  callvalue\n  dup1\n  iszero\n  tag_1\n  jumpi\n  0x00\n  dup1\n  revert\ntag_1:\n  pop\n    /* \"contracts/16_Dex.sol\":3763:3779  new ERC20Basic() */\n  mload(0x40)\n  tag_4\n  swap1\n  tag_5\n  jump\t// in\ntag_4:\n  mload(0x40)\n  dup1\n  swap2\n  sub\n  swap1\n  0x00\n  create\n  dup1\n  iszero\n  dup1\n  iszero\n  tag_6\n  jumpi\n  returndatasize\n  0x00\n  dup1\n  returndatacopy\n  revert(0x00, returndatasize)\ntag_6:\n  pop\n    /* \"contracts/16_Dex.sol\":3757:3762  token */\n  0x00\n  dup1\n    /* \"contracts/16_Dex.sol\":3757:3779  token=new ERC20Basic() */\n  0x0100\n  exp\n  dup2\n  sload\n  dup2\n  0xffffffffffffffffffffffffffffffffffffffff\n  mul\n  not\n  and\n  swap1\n  dup4\n  0xffffffffffffffffffffffffffffffffffffffff\n  and\n  mul\n  or\n  swap1\n  sstore\n  pop\n    /* \"contracts/16_Dex.sol\":3623:5452  contract DEX{... */\n  jump(tag_7)\ntag_5:\n  dataSize(sub_1)\n  dup1\n  dataOffset(sub_1)\n  dup4\n  codecopy\n  add\n  swap1\n  jump\t// out\ntag_7:\n  dataSize(sub_0)\n  dup1\n  dataOffset(sub_0)\n  0x00\n  codecopy\n  0x00\n  return\nstop\n\nsub_0: assembly {\n        /* \"contracts/16_Dex.sol\":3623:5452  contract DEX{... */\n      mstore(0x40, 0x80)\n      jumpi(tag_1, lt(calldatasize, 0x04))\n      shr(0xe0, calldataload(0x00))\n      dup1\n      0x973e9b8b\n      gt\n      tag_13\n      jumpi\n      dup1\n      0x973e9b8b\n      eq\n      tag_7\n      jumpi\n      dup1\n      0xa6f2ae3a\n      eq\n      tag_8\n      jumpi\n      dup1\n      0xb759f954\n      eq\n      tag_9\n      jumpi\n      dup1\n      0xc4e41b22\n      eq\n      tag_10\n      jumpi\n      dup1\n      0xe4849b32\n      eq\n      tag_11\n      jumpi\n      dup1\n      0xfc0c546a\n      eq\n      tag_12\n      jumpi\n      jump(tag_1)\n    tag_13:\n      dup1\n      0x10fe9ae8\n      eq\n      tag_2\n      jumpi\n      dup1\n      0x38cc4831\n      eq\n      tag_3\n      jumpi\n      dup1\n      0x42948e18\n      eq\n      tag_4\n      jumpi\n      dup1\n      0x430f4801\n      eq\n      tag_5\n      jumpi\n      dup1\n      0x590791f2\n      eq\n      tag_6\n      jumpi\n    tag_1:\n      0x00\n      dup1\n      revert\n        /* \"contracts/16_Dex.sol\":4822:4919  function getTokenAddress() public view returns(address){... */\n    tag_2:\n      callvalue\n      dup1\n      iszero\n      tag_14\n      jumpi\n      0x00\n      dup1\n      revert\n    tag_14:\n      pop\n      tag_15\n      tag_16\n      jump\t// in\n    tag_15:\n      mload(0x40)\n      tag_17\n      swap2\n      swap1\n      tag_18\n      jump\t// in\n    tag_17:\n      mload(0x40)\n      dup1\n      swap2\n      sub\n      swap1\n      return\n        /* \"contracts/16_Dex.sol\":4729:4816  function getAddress() public view returns(address){... */\n    tag_3:\n      callvalue\n      dup1\n      iszero\n      tag_19\n      jumpi\n      0x00\n      dup1\n      revert\n    tag_19:\n      pop\n      tag_20\n      tag_21\n      jump\t// in\n    tag_20:\n      mload(0x40)\n      tag_22\n      swap2\n      swap1\n      tag_18\n      jump\t// in\n    tag_22:\n      mload(0x40)\n      dup1\n      swap2\n      sub\n      swap1\n      return\n        /* \"contracts/16_Dex.sol\":5028:5127  function getSenderAddress() public view returns(address){... */\n    tag_4:\n      callvalue\n      dup1\n      iszero\n      tag_23\n      jumpi\n      0x00\n      dup1\n      revert\n    tag_23:\n      pop\n      tag_24\n      tag_25\n      jump\t// in\n    tag_24:\n      mload(0x40)\n      tag_26\n      swap2\n      swap1\n      tag_18\n      jump\t// in\n    tag_26:\n      mload(0x40)\n      dup1\n      swap2\n      sub\n      swap1\n      return\n        /* \"contracts/16_Dex.sol\":4504:4611  function getDexBalance() public view returns(uint256){... */\n    tag_5:\n      callvalue\n      dup1\n      iszero\n      tag_27\n      jumpi\n      0x00\n      dup1\n      revert\n    tag_27:\n      pop\n      tag_28\n      tag_29\n      jump\t// in\n    tag_28:\n      mload(0x40)\n      tag_30\n      swap2\n      swap1\n      tag_31\n      jump\t// in\n    tag_30:\n      mload(0x40)\n      dup1\n      swap2\n      sub\n      swap1\n      return\n        /* \"contracts/16_Dex.sol\":4617:4723  function getOwnerBalance() public view returns(uint256){... */\n    tag_6:\n      callvalue\n      dup1\n      iszero\n      tag_32\n      jumpi\n      0x00\n      dup1\n      revert\n    tag_32:\n      pop\n      tag_33\n      tag_34\n      jump\t// in\n    tag_33:\n      mload(0x40)\n      tag_35\n      swap2\n      swap1\n      tag_31\n      jump\t// in\n    tag_35:\n      mload(0x40)\n      dup1\n      swap2\n      sub\n      swap1\n      return\n        /* \"contracts/16_Dex.sol\":5133:5287  function getAllowance() public view returns(uint256){... */\n    tag_7:\n      callvalue\n      dup1\n      iszero\n      tag_36\n      jumpi\n      0x00\n      dup1\n      revert\n    tag_36:\n      pop\n      tag_37\n      tag_38\n      jump\t// in\n    tag_37:\n      mload(0x40)\n      tag_39\n      swap2\n      swap1\n      tag_31\n      jump\t// in\n    tag_39:\n      mload(0x40)\n      dup1\n      swap2\n      sub\n      swap1\n      return\n        /* \"contracts/16_Dex.sol\":3792:4151  function buy() payable public{... */\n    tag_8:\n      tag_40\n      tag_41\n      jump\t// in\n    tag_40:\n      stop\n        /* \"contracts/16_Dex.sol\":5293:5450  function approve(uint256 amount) public returns(bool){... */\n    tag_9:\n      callvalue\n      dup1\n      iszero\n      tag_42\n      jumpi\n      0x00\n      dup1\n      revert\n    tag_42:\n      pop\n      tag_43\n      0x04\n      dup1\n      calldatasize\n      sub\n      dup2\n      add\n      swap1\n      tag_44\n      swap2\n      swap1\n      tag_45\n      jump\t// in\n    tag_44:\n      tag_46\n      jump\t// in\n    tag_43:\n      mload(0x40)\n      tag_47\n      swap2\n      swap1\n      tag_48\n      jump\t// in\n    tag_47:\n      mload(0x40)\n      dup1\n      swap2\n      sub\n      swap1\n      return\n        /* \"contracts/16_Dex.sol\":4925:5022  function getTotalSupply() public view returns(uint256){... */\n    tag_10:\n      callvalue\n      dup1\n      iszero\n      tag_49\n      jumpi\n      0x00\n      dup1\n      revert\n    tag_49:\n      pop\n      tag_50\n      tag_51\n      jump\t// in\n    tag_50:\n      mload(0x40)\n      tag_52\n      swap2\n      swap1\n      tag_31\n      jump\t// in\n    tag_52:\n      mload(0x40)\n      dup1\n      swap2\n      sub\n      swap1\n      return\n        /* \"contracts/16_Dex.sol\":4157:4498  function sell(uint256 amount) payable public{... */\n    tag_11:\n      tag_53\n      0x04\n      dup1\n      calldatasize\n      sub\n      dup2\n      add\n      swap1\n      tag_54\n      swap2\n      swap1\n      tag_45\n      jump\t// in\n    tag_54:\n      tag_55\n      jump\t// in\n    tag_53:\n      stop\n        /* \"contracts/16_Dex.sol\":3708:3727  IERC20 public token */\n    tag_12:\n      callvalue\n      dup1\n      iszero\n      tag_56\n      jumpi\n      0x00\n      dup1\n      revert\n    tag_56:\n      pop\n      tag_57\n      tag_58\n      jump\t// in\n    tag_57:\n      mload(0x40)\n      tag_59\n      swap2\n      swap1\n      tag_60\n      jump\t// in\n    tag_59:\n      mload(0x40)\n      dup1\n      swap2\n      sub\n      swap1\n      return\n        /* \"contracts/16_Dex.sol\":4822:4919  function getTokenAddress() public view returns(address){... */\n    tag_16:\n        /* \"contracts/16_Dex.sol\":4869:4876  address */\n      0x00\n        /* \"contracts/16_Dex.sol\":4894:4899  token */\n      dup1\n      0x00\n      swap1\n      sload\n      swap1\n      0x0100\n      exp\n      swap1\n      div\n      0xffffffffffffffffffffffffffffffffffffffff\n      and\n        /* \"contracts/16_Dex.sol\":4894:4910  token.getAddress */\n      0xffffffffffffffffffffffffffffffffffffffff\n      and\n      0x38cc4831\n        /* \"contracts/16_Dex.sol\":4894:4912  token.getAddress() */\n      mload(0x40)\n      dup2\n      0xffffffff\n      and\n      0xe0\n      shl\n      dup2\n      mstore\n      0x04\n      add\n      0x20\n      mload(0x40)\n      dup1\n      dup4\n      sub\n      dup2\n      dup7\n      dup1\n      extcodesize\n      iszero\n      dup1\n      iszero\n      tag_62\n      jumpi\n      0x00\n      dup1\n      revert\n    tag_62:\n      pop\n      gas\n      staticcall\n      iszero\n      dup1\n      iszero\n      tag_64\n      jumpi\n      returndatasize\n      0x00\n      dup1\n      returndatacopy\n      revert(0x00, returndatasize)\n    tag_64:\n      pop\n      pop\n      pop\n      pop\n      mload(0x40)\n      returndatasize\n      not(0x1f)\n      0x1f\n      dup3\n      add\n      and\n      dup3\n      add\n      dup1\n      0x40\n      mstore\n      pop\n      dup2\n      add\n      swap1\n      tag_65\n      swap2\n      swap1\n      tag_66\n      jump\t// in\n    tag_65:\n        /* \"contracts/16_Dex.sol\":4887:4912  return token.getAddress() */\n      swap1\n      pop\n        /* \"contracts/16_Dex.sol\":4822:4919  function getTokenAddress() public view returns(address){... */\n      swap1\n      jump\t// out\n        /* \"contracts/16_Dex.sol\":4729:4816  function getAddress() public view returns(address){... */\n    tag_21:\n        /* \"contracts/16_Dex.sol\":4771:4778  address */\n      0x00\n        /* \"contracts/16_Dex.sol\":4804:4808  this */\n      address\n        /* \"contracts/16_Dex.sol\":4789:4809  return address(this) */\n      swap1\n      pop\n        /* \"contracts/16_Dex.sol\":4729:4816  function getAddress() public view returns(address){... */\n      swap1\n      jump\t// out\n        /* \"contracts/16_Dex.sol\":5028:5127  function getSenderAddress() public view returns(address){... */\n    tag_25:\n        /* \"contracts/16_Dex.sol\":5076:5083  address */\n      0x00\n        /* \"contracts/16_Dex.sol\":5109:5119  msg.sender */\n      caller\n        /* \"contracts/16_Dex.sol\":5094:5120  return address(msg.sender) */\n      swap1\n      pop\n        /* \"contracts/16_Dex.sol\":5028:5127  function getSenderAddress() public view returns(address){... */\n      swap1\n      jump\t// out\n        /* \"contracts/16_Dex.sol\":4504:4611  function getDexBalance() public view returns(uint256){... */\n    tag_29:\n        /* \"contracts/16_Dex.sol\":4549:4556  uint256 */\n      0x00\n        /* \"contracts/16_Dex.sol\":4574:4579  token */\n      dup1\n      0x00\n      swap1\n      sload\n      swap1\n      0x0100\n      exp\n      swap1\n      div\n      0xffffffffffffffffffffffffffffffffffffffff\n      and\n        /* \"contracts/16_Dex.sol\":4574:4589  token.balanceOf */\n      0xffffffffffffffffffffffffffffffffffffffff\n      and\n      0x70a08231\n        /* \"contracts/16_Dex.sol\":4598:4602  this */\n      address\n        /* \"contracts/16_Dex.sol\":4574:4604  token.balanceOf(address(this)) */\n      mload(0x40)\n      dup3\n      0xffffffff\n      and\n      0xe0\n      shl\n      dup2\n      mstore\n      0x04\n      add\n      tag_70\n      swap2\n      swap1\n      tag_18\n      jump\t// in\n    tag_70:\n      0x20\n      mload(0x40)\n      dup1\n      dup4\n      sub\n      dup2\n      dup7\n      dup1\n      extcodesize\n      iszero\n      dup1\n      iszero\n      tag_71\n      jumpi\n      0x00\n      dup1\n      revert\n    tag_71:\n      pop\n      gas\n      staticcall\n      iszero\n      dup1\n      iszero\n      tag_73\n      jumpi\n      returndatasize\n      0x00\n      dup1\n      returndatacopy\n      revert(0x00, returndatasize)\n    tag_73:\n      pop\n      pop\n      pop\n      pop\n      mload(0x40)\n      returndatasize\n      not(0x1f)\n      0x1f\n      dup3\n      add\n      and\n      dup3\n      add\n      dup1\n      0x40\n      mstore\n      pop\n      dup2\n      add\n      swap1\n      tag_74\n      swap2\n      swap1\n      tag_75\n      jump\t// in\n    tag_74:\n        /* \"contracts/16_Dex.sol\":4567:4604  return token.balanceOf(address(this)) */\n      swap1\n      pop\n        /* \"contracts/16_Dex.sol\":4504:4611  function getDexBalance() public view returns(uint256){... */\n      swap1\n      jump\t// out\n        /* \"contracts/16_Dex.sol\":4617:4723  function getOwnerBalance() public view returns(uint256){... */\n    tag_34:\n        /* \"contracts/16_Dex.sol\":4664:4671  uint256 */\n      0x00\n        /* \"contracts/16_Dex.sol\":4689:4694  token */\n      dup1\n      0x00\n      swap1\n      sload\n      swap1\n      0x0100\n      exp\n      swap1\n      div\n      0xffffffffffffffffffffffffffffffffffffffff\n      and\n        /* \"contracts/16_Dex.sol\":4689:4704  token.balanceOf */\n      0xffffffffffffffffffffffffffffffffffffffff\n      and\n      0x70a08231\n        /* \"contracts/16_Dex.sol\":4705:4715  msg.sender */\n      caller\n        /* \"contracts/16_Dex.sol\":4689:4716  token.balanceOf(msg.sender) */\n      mload(0x40)\n      dup3\n      0xffffffff\n      and\n      0xe0\n      shl\n      dup2\n      mstore\n      0x04\n      add\n      tag_77\n      swap2\n      swap1\n      tag_18\n      jump\t// in\n    tag_77:\n      0x20\n      mload(0x40)\n      dup1\n      dup4\n      sub\n      dup2\n      dup7\n      dup1\n      extcodesize\n      iszero\n      dup1\n      iszero\n      tag_78\n      jumpi\n      0x00\n      dup1\n      revert\n    tag_78:\n      pop\n      gas\n      staticcall\n      iszero\n      dup1\n      iszero\n      tag_80\n      jumpi\n      returndatasize\n      0x00\n      dup1\n      returndatacopy\n      revert(0x00, returndatasize)\n    tag_80:\n      pop\n      pop\n      pop\n      pop\n      mload(0x40)\n      returndatasize\n      not(0x1f)\n      0x1f\n      dup3\n      add\n      and\n      dup3\n      add\n      dup1\n      0x40\n      mstore\n      pop\n      dup2\n      add\n      swap1\n      tag_81\n      swap2\n      swap1\n      tag_75\n      jump\t// in\n    tag_81:\n        /* \"contracts/16_Dex.sol\":4682:4716  return token.balanceOf(msg.sender) */\n      swap1\n      pop\n        /* \"contracts/16_Dex.sol\":4617:4723  function getOwnerBalance() public view returns(uint256){... */\n      swap1\n      jump\t// out\n        /* \"contracts/16_Dex.sol\":5133:5287  function getAllowance() public view returns(uint256){... */\n    tag_38:\n        /* \"contracts/16_Dex.sol\":5177:5184  uint256 */\n      0x00\n        /* \"contracts/16_Dex.sol\":5195:5212  uint256 allowance */\n      dup1\n        /* \"contracts/16_Dex.sol\":5213:5218  token */\n      0x00\n      dup1\n      sload\n      swap1\n      0x0100\n      exp\n      swap1\n      div\n      0xffffffffffffffffffffffffffffffffffffffff\n      and\n        /* \"contracts/16_Dex.sol\":5213:5228  token.allowance */\n      0xffffffffffffffffffffffffffffffffffffffff\n      and\n      0xdd62ed3e\n        /* \"contracts/16_Dex.sol\":5229:5239  msg.sender */\n      caller\n        /* \"contracts/16_Dex.sol\":5248:5252  this */\n      address\n        /* \"contracts/16_Dex.sol\":5213:5254  token.allowance(msg.sender,address(this)) */\n      mload(0x40)\n      dup4\n      0xffffffff\n      and\n      0xe0\n      shl\n      dup2\n      mstore\n      0x04\n      add\n      tag_83\n      swap3\n      swap2\n      swap1\n      tag_84\n      jump\t// in\n    tag_83:\n      0x20\n      mload(0x40)\n      dup1\n      dup4\n      sub\n      dup2\n      dup7\n      dup1\n      extcodesize\n      iszero\n      dup1\n      iszero\n      tag_85\n      jumpi\n      0x00\n      dup1\n      revert\n    tag_85:\n      pop\n      gas\n      staticcall\n      iszero\n      dup1\n      iszero\n      tag_87\n      jumpi\n      returndatasize\n      0x00\n      dup1\n      returndatacopy\n      revert(0x00, returndatasize)\n    tag_87:\n      pop\n      pop\n      pop\n      pop\n      mload(0x40)\n      returndatasize\n      not(0x1f)\n      0x1f\n      dup3\n      add\n      and\n      dup3\n      add\n      dup1\n      0x40\n      mstore\n      pop\n      dup2\n      add\n      swap1\n      tag_88\n      swap2\n      swap1\n      tag_75\n      jump\t// in\n    tag_88:\n        /* \"contracts/16_Dex.sol\":5195:5254  uint256 allowance=token.allowance(msg.sender,address(this)) */\n      swap1\n      pop\n        /* \"contracts/16_Dex.sol\":5271:5280  allowance */\n      dup1\n        /* \"contracts/16_Dex.sol\":5264:5280  return allowance */\n      swap2\n      pop\n      pop\n        /* \"contracts/16_Dex.sol\":5133:5287  function getAllowance() public view returns(uint256){... */\n      swap1\n      jump\t// out\n        /* \"contracts/16_Dex.sol\":3792:4151  function buy() payable public{... */\n    tag_41:\n        /* \"contracts/16_Dex.sol\":3831:3850  uint256 amountToBuy */\n      0x00\n        /* \"contracts/16_Dex.sol\":3851:3860  msg.value */\n      callvalue\n        /* \"contracts/16_Dex.sol\":3831:3860  uint256 amountToBuy=msg.value */\n      swap1\n      pop\n        /* \"contracts/16_Dex.sol\":3870:3888  uint256 dexBalance */\n      0x00\n        /* \"contracts/16_Dex.sol\":3889:3894  token */\n      dup1\n      0x00\n      swap1\n      sload\n      swap1\n      0x0100\n      exp\n      swap1\n      div\n      0xffffffffffffffffffffffffffffffffffffffff\n      and\n        /* \"contracts/16_Dex.sol\":3889:3904  token.balanceOf */\n      0xffffffffffffffffffffffffffffffffffffffff\n      and\n      0x70a08231\n        /* \"contracts/16_Dex.sol\":3913:3917  this */\n      address\n        /* \"contracts/16_Dex.sol\":3889:3919  token.balanceOf(address(this)) */\n      mload(0x40)\n      dup3\n      0xffffffff\n      and\n      0xe0\n      shl\n      dup2\n      mstore\n      0x04\n      add\n      tag_90\n      swap2\n      swap1\n      tag_18\n      jump\t// in\n    tag_90:\n      0x20\n      mload(0x40)\n      dup1\n      dup4\n      sub\n      dup2\n      dup7\n      dup1\n      extcodesize\n      iszero\n      dup1\n      iszero\n      tag_91\n      jumpi\n      0x00\n      dup1\n      revert\n    tag_91:\n      pop\n      gas\n      staticcall\n      iszero\n      dup1\n      iszero\n      tag_93\n      jumpi\n      returndatasize\n      0x00\n      dup1\n      returndatacopy\n      revert(0x00, returndatasize)\n    tag_93:\n      pop\n      pop\n      pop\n      pop\n      mload(0x40)\n      returndatasize\n      not(0x1f)\n      0x1f\n      dup3\n      add\n      and\n      dup3\n      add\n      dup1\n      0x40\n      mstore\n      pop\n      dup2\n      add\n      swap1\n      tag_94\n      swap2\n      swap1\n      tag_75\n      jump\t// in\n    tag_94:\n        /* \"contracts/16_Dex.sol\":3870:3919  uint256 dexBalance=token.balanceOf(address(this)) */\n      swap1\n      pop\n        /* \"contracts/16_Dex.sol\":3949:3950  0 */\n      0x00\n        /* \"contracts/16_Dex.sol\":3937:3948  amountToBuy */\n      dup3\n        /* \"contracts/16_Dex.sol\":3937:3950  amountToBuy>0 */\n      gt\n        /* \"contracts/16_Dex.sol\":3929:3983  require(amountToBuy>0, \"You need to send some ether!\") */\n      tag_95\n      jumpi\n      mload(0x40)\n      0x08c379a000000000000000000000000000000000000000000000000000000000\n      dup2\n      mstore\n      0x04\n      add\n      tag_96\n      swap1\n      tag_97\n      jump\t// in\n    tag_96:\n      mload(0x40)\n      dup1\n      swap2\n      sub\n      swap1\n      revert\n    tag_95:\n        /* \"contracts/16_Dex.sol\":4014:4024  dexBalance */\n      dup1\n        /* \"contracts/16_Dex.sol\":4001:4012  amountToBuy */\n      dup3\n        /* \"contracts/16_Dex.sol\":4001:4024  amountToBuy<=dexBalance */\n      gt\n      iszero\n        /* \"contracts/16_Dex.sol\":3993:4062  require(amountToBuy<=dexBalance, \"Not enough tokens in the reverse!\") */\n      tag_98\n      jumpi\n      mload(0x40)\n      0x08c379a000000000000000000000000000000000000000000000000000000000\n      dup2\n      mstore\n      0x04\n      add\n      tag_99\n      swap1\n      tag_100\n      jump\t// in\n    tag_99:\n      mload(0x40)\n      dup1\n      swap2\n      sub\n      swap1\n      revert\n    tag_98:\n        /* \"contracts/16_Dex.sol\":4072:4077  token */\n      0x00\n      dup1\n      sload\n      swap1\n      0x0100\n      exp\n      swap1\n      div\n      0xffffffffffffffffffffffffffffffffffffffff\n      and\n        /* \"contracts/16_Dex.sol\":4072:4086  token.transfer */\n      0xffffffffffffffffffffffffffffffffffffffff\n      and\n      0xa9059cbb\n        /* \"contracts/16_Dex.sol\":4087:4097  msg.sender */\n      caller\n        /* \"contracts/16_Dex.sol\":4098:4109  amountToBuy */\n      dup5\n        /* \"contracts/16_Dex.sol\":4072:4110  token.transfer(msg.sender,amountToBuy) */\n      mload(0x40)\n      dup4\n      0xffffffff\n      and\n      0xe0\n      shl\n      dup2\n      mstore\n      0x04\n      add\n      tag_101\n      swap3\n      swap2\n      swap1\n      tag_102\n      jump\t// in\n    tag_101:\n      0x20\n      mload(0x40)\n      dup1\n      dup4\n      sub\n      dup2\n      0x00\n      dup8\n      dup1\n      extcodesize\n      iszero\n      dup1\n      iszero\n      tag_103\n      jumpi\n      0x00\n      dup1\n      revert\n    tag_103:\n      pop\n      gas\n      call\n      iszero\n      dup1\n      iszero\n      tag_105\n      jumpi\n      returndatasize\n      0x00\n      dup1\n      returndatacopy\n      revert(0x00, returndatasize)\n    tag_105:\n      pop\n      pop\n      pop\n      pop\n      mload(0x40)\n      returndatasize\n      not(0x1f)\n      0x1f\n      dup3\n      add\n      and\n      dup3\n      add\n      dup1\n      0x40\n      mstore\n      pop\n      dup2\n      add\n      swap1\n      tag_106\n      swap2\n      swap1\n      tag_107\n      jump\t// in\n    tag_106:\n      pop\n        /* \"contracts/16_Dex.sol\":4125:4144  Bought(amountToBuy) */\n      0x4e08ba899977cf7d4c2964bce71c6b9a7ef76ee5166a4c1249a1e08016e33ef1\n        /* \"contracts/16_Dex.sol\":4132:4143  amountToBuy */\n      dup3\n        /* \"contracts/16_Dex.sol\":4125:4144  Bought(amountToBuy) */\n      mload(0x40)\n      tag_108\n      swap2\n      swap1\n      tag_31\n      jump\t// in\n    tag_108:\n      mload(0x40)\n      dup1\n      swap2\n      sub\n      swap1\n      log1\n        /* \"contracts/16_Dex.sol\":3821:4151  {... */\n      pop\n      pop\n        /* \"contracts/16_Dex.sol\":3792:4151  function buy() payable public{... */\n      jump\t// out\n        /* \"contracts/16_Dex.sol\":5293:5450  function approve(uint256 amount) public returns(bool){... */\n    tag_46:\n        /* \"contracts/16_Dex.sol\":5341:5345  bool */\n      0x00\n        /* \"contracts/16_Dex.sol\":5356:5370  bool isApprove */\n      dup1\n        /* \"contracts/16_Dex.sol\":5371:5376  token */\n      0x00\n      dup1\n      sload\n      swap1\n      0x0100\n      exp\n      swap1\n      div\n      0xffffffffffffffffffffffffffffffffffffffff\n      and\n        /* \"contracts/16_Dex.sol\":5371:5384  token.approve */\n      0xffffffffffffffffffffffffffffffffffffffff\n      and\n      0xe1f21c67\n        /* \"contracts/16_Dex.sol\":5385:5395  msg.sender */\n      caller\n        /* \"contracts/16_Dex.sol\":5404:5408  this */\n      address\n        /* \"contracts/16_Dex.sol\":5410:5416  amount */\n      dup7\n        /* \"contracts/16_Dex.sol\":5371:5417  token.approve(msg.sender,address(this),amount) */\n      mload(0x40)\n      dup5\n      0xffffffff\n      and\n      0xe0\n      shl\n      dup2\n      mstore\n      0x04\n      add\n      tag_110\n      swap4\n      swap3\n      swap2\n      swap1\n      tag_111\n      jump\t// in\n    tag_110:\n      0x20\n      mload(0x40)\n      dup1\n      dup4\n      sub\n      dup2\n      0x00\n      dup8\n      dup1\n      extcodesize\n      iszero\n      dup1\n      iszero\n      tag_112\n      jumpi\n      0x00\n      dup1\n      revert\n    tag_112:\n      pop\n      gas\n      call\n      iszero\n      dup1\n      iszero\n      tag_114\n      jumpi\n      returndatasize\n      0x00\n      dup1\n      returndatacopy\n      revert(0x00, returndatasize)\n    tag_114:\n      pop\n      pop\n      pop\n      pop\n      mload(0x40)\n      returndatasize\n      not(0x1f)\n      0x1f\n      dup3\n      add\n      and\n      dup3\n      add\n      dup1\n      0x40\n      mstore\n      pop\n      dup2\n      add\n      swap1\n      tag_115\n      swap2\n      swap1\n      tag_107\n      jump\t// in\n    tag_115:\n        /* \"contracts/16_Dex.sol\":5356:5417  bool isApprove=token.approve(msg.sender,address(this),amount) */\n      swap1\n      pop\n        /* \"contracts/16_Dex.sol\":5434:5443  isApprove */\n      dup1\n        /* \"contracts/16_Dex.sol\":5427:5443  return isApprove */\n      swap2\n      pop\n      pop\n        /* \"contracts/16_Dex.sol\":5293:5450  function approve(uint256 amount) public returns(bool){... */\n      swap2\n      swap1\n      pop\n      jump\t// out\n        /* \"contracts/16_Dex.sol\":4925:5022  function getTotalSupply() public view returns(uint256){... */\n    tag_51:\n        /* \"contracts/16_Dex.sol\":4971:4978  uint256 */\n      0x00\n        /* \"contracts/16_Dex.sol\":4996:5001  token */\n      dup1\n      0x00\n      swap1\n      sload\n      swap1\n      0x0100\n      exp\n      swap1\n      div\n      0xffffffffffffffffffffffffffffffffffffffff\n      and\n        /* \"contracts/16_Dex.sol\":4996:5013  token.totalSupply */\n      0xffffffffffffffffffffffffffffffffffffffff\n      and\n      0x18160ddd\n        /* \"contracts/16_Dex.sol\":4996:5015  token.totalSupply() */\n      mload(0x40)\n      dup2\n      0xffffffff\n      and\n      0xe0\n      shl\n      dup2\n      mstore\n      0x04\n      add\n      0x20\n      mload(0x40)\n      dup1\n      dup4\n      sub\n      dup2\n      dup7\n      dup1\n      extcodesize\n      iszero\n      dup1\n      iszero\n      tag_117\n      jumpi\n      0x00\n      dup1\n      revert\n    tag_117:\n      pop\n      gas\n      staticcall\n      iszero\n      dup1\n      iszero\n      tag_119\n      jumpi\n      returndatasize\n      0x00\n      dup1\n      returndatacopy\n      revert(0x00, returndatasize)\n    tag_119:\n      pop\n      pop\n      pop\n      pop\n      mload(0x40)\n      returndatasize\n      not(0x1f)\n      0x1f\n      dup3\n      add\n      and\n      dup3\n      add\n      dup1\n      0x40\n      mstore\n      pop\n      dup2\n      add\n      swap1\n      tag_120\n      swap2\n      swap1\n      tag_75\n      jump\t// in\n    tag_120:\n        /* \"contracts/16_Dex.sol\":4989:5015  return token.totalSupply() */\n      swap1\n      pop\n        /* \"contracts/16_Dex.sol\":4925:5022  function getTotalSupply() public view returns(uint256){... */\n      swap1\n      jump\t// out\n        /* \"contracts/16_Dex.sol\":4157:4498  function sell(uint256 amount) payable public{... */\n    tag_55:\n        /* \"contracts/16_Dex.sol\":4226:4227  0 */\n      0x00\n        /* \"contracts/16_Dex.sol\":4219:4225  amount */\n      dup2\n        /* \"contracts/16_Dex.sol\":4219:4227  amount>0 */\n      gt\n        /* \"contracts/16_Dex.sol\":4211:4266  require(amount>0, \"You need to sell at least 1 token!\") */\n      tag_122\n      jumpi\n      mload(0x40)\n      0x08c379a000000000000000000000000000000000000000000000000000000000\n      dup2\n      mstore\n      0x04\n      add\n      tag_123\n      swap1\n      tag_124\n      jump\t// in\n    tag_123:\n      mload(0x40)\n      dup1\n      swap2\n      sub\n      swap1\n      revert\n    tag_122:\n        /* \"contracts/16_Dex.sol\":4277:4294  uint256 allowance */\n      0x00\n        /* \"contracts/16_Dex.sol\":4296:4301  token */\n      dup1\n      0x00\n      swap1\n      sload\n      swap1\n      0x0100\n      exp\n      swap1\n      div\n      0xffffffffffffffffffffffffffffffffffffffff\n      and\n        /* \"contracts/16_Dex.sol\":4296:4311  token.allowance */\n      0xffffffffffffffffffffffffffffffffffffffff\n      and\n      0xdd62ed3e\n        /* \"contracts/16_Dex.sol\":4312:4322  msg.sender */\n      caller\n        /* \"contracts/16_Dex.sol\":4331:4335  this */\n      address\n        /* \"contracts/16_Dex.sol\":4296:4337  token.allowance(msg.sender,address(this)) */\n      mload(0x40)\n      dup4\n      0xffffffff\n      and\n      0xe0\n      shl\n      dup2\n      mstore\n      0x04\n      add\n      tag_125\n      swap3\n      swap2\n      swap1\n      tag_84\n      jump\t// in\n    tag_125:\n      0x20\n      mload(0x40)\n      dup1\n      dup4\n      sub\n      dup2\n      dup7\n      dup1\n      extcodesize\n      iszero\n      dup1\n      iszero\n      tag_126\n      jumpi\n      0x00\n      dup1\n      revert\n    tag_126:\n      pop\n      gas\n      staticcall\n      iszero\n      dup1\n      iszero\n      tag_128\n      jumpi\n      returndatasize\n      0x00\n      dup1\n      returndatacopy\n      revert(0x00, returndatasize)\n    tag_128:\n      pop\n      pop\n      pop\n      pop\n      mload(0x40)\n      returndatasize\n      not(0x1f)\n      0x1f\n      dup3\n      add\n      and\n      dup3\n      add\n      dup1\n      0x40\n      mstore\n      pop\n      dup2\n      add\n      swap1\n      tag_129\n      swap2\n      swap1\n      tag_75\n      jump\t// in\n    tag_129:\n        /* \"contracts/16_Dex.sol\":4277:4337  uint256 allowance =token.allowance(msg.sender,address(this)) */\n      swap1\n      pop\n        /* \"contracts/16_Dex.sol\":4366:4372  amount */\n      dup2\n        /* \"contracts/16_Dex.sol\":4355:4364  allowance */\n      dup2\n        /* \"contracts/16_Dex.sol\":4355:4372  allowance>=amount */\n      lt\n      iszero\n        /* \"contracts/16_Dex.sol\":4347:4402  require(allowance>=amount,\"Check the token allowance!\") */\n      tag_130\n      jumpi\n      mload(0x40)\n      0x08c379a000000000000000000000000000000000000000000000000000000000\n      dup2\n      mstore\n      0x04\n      add\n      tag_131\n      swap1\n      tag_132\n      jump\t// in\n    tag_131:\n      mload(0x40)\n      dup1\n      swap2\n      sub\n      swap1\n      revert\n    tag_130:\n        /* \"contracts/16_Dex.sol\":4413:4418  token */\n      0x00\n      dup1\n      sload\n      swap1\n      0x0100\n      exp\n      swap1\n      div\n      0xffffffffffffffffffffffffffffffffffffffff\n      and\n        /* \"contracts/16_Dex.sol\":4413:4431  token.transferFrom */\n      0xffffffffffffffffffffffffffffffffffffffff\n      and\n      0x23b872dd\n        /* \"contracts/16_Dex.sol\":4432:4442  msg.sender */\n      caller\n        /* \"contracts/16_Dex.sol\":4451:4455  this */\n      address\n        /* \"contracts/16_Dex.sol\":4457:4463  amount */\n      dup6\n        /* \"contracts/16_Dex.sol\":4413:4464  token.transferFrom(msg.sender,address(this),amount) */\n      mload(0x40)\n      dup5\n      0xffffffff\n      and\n      0xe0\n      shl\n      dup2\n      mstore\n      0x04\n      add\n      tag_133\n      swap4\n      swap3\n      swap2\n      swap1\n      tag_111\n      jump\t// in\n    tag_133:\n      0x20\n      mload(0x40)\n      dup1\n      dup4\n      sub\n      dup2\n      0x00\n      dup8\n      dup1\n      extcodesize\n      iszero\n      dup1\n      iszero\n      tag_134\n      jumpi\n      0x00\n      dup1\n      revert\n    tag_134:\n      pop\n      gas\n      call\n      iszero\n      dup1\n      iszero\n      tag_136\n      jumpi\n      returndatasize\n      0x00\n      dup1\n      returndatacopy\n      revert(0x00, returndatasize)\n    tag_136:\n      pop\n      pop\n      pop\n      pop\n      mload(0x40)\n      returndatasize\n      not(0x1f)\n      0x1f\n      dup3\n      add\n      and\n      dup3\n      add\n      dup1\n      0x40\n      mstore\n      pop\n      dup2\n      add\n      swap1\n      tag_137\n      swap2\n      swap1\n      tag_107\n      jump\t// in\n    tag_137:\n      pop\n        /* \"contracts/16_Dex.sol\":4479:4491  Sold(amount) */\n      0x92f64ca637d023f354075a4be751b169c1a8a9ccb6d33cdd0cb3520543995727\n        /* \"contracts/16_Dex.sol\":4484:4490  amount */\n      dup3\n        /* \"contracts/16_Dex.sol\":4479:4491  Sold(amount) */\n      mload(0x40)\n      tag_138\n      swap2\n      swap1\n      tag_31\n      jump\t// in\n    tag_138:\n      mload(0x40)\n      dup1\n      swap2\n      sub\n      swap1\n      log1\n        /* \"contracts/16_Dex.sol\":4201:4498  {... */\n      pop\n        /* \"contracts/16_Dex.sol\":4157:4498  function sell(uint256 amount) payable public{... */\n      pop\n      jump\t// out\n        /* \"contracts/16_Dex.sol\":3708:3727  IERC20 public token */\n    tag_58:\n      0x00\n      dup1\n      sload\n      swap1\n      0x0100\n      exp\n      swap1\n      div\n      0xffffffffffffffffffffffffffffffffffffffff\n      and\n      dup2\n      jump\t// out\n        /* \"#utility.yul\":7:150   */\n    tag_140:\n        /* \"#utility.yul\":64:69   */\n      0x00\n        /* \"#utility.yul\":95:101   */\n      dup2\n        /* \"#utility.yul\":89:102   */\n      mload\n        /* \"#utility.yul\":80:102   */\n      swap1\n      pop\n        /* \"#utility.yul\":111:144   */\n      tag_142\n        /* \"#utility.yul\":138:143   */\n      dup2\n        /* \"#utility.yul\":111:144   */\n      tag_143\n      jump\t// in\n    tag_142:\n        /* \"#utility.yul\":7:150   */\n      swap3\n      swap2\n      pop\n      pop\n      jump\t// out\n        /* \"#utility.yul\":156:293   */\n    tag_144:\n        /* \"#utility.yul\":210:215   */\n      0x00\n        /* \"#utility.yul\":241:247   */\n      dup2\n        /* \"#utility.yul\":235:248   */\n      mload\n        /* \"#utility.yul\":226:248   */\n      swap1\n      pop\n        /* \"#utility.yul\":257:287   */\n      tag_146\n        /* \"#utility.yul\":281:286   */\n      dup2\n        /* \"#utility.yul\":257:287   */\n      tag_147\n      jump\t// in\n    tag_146:\n        /* \"#utility.yul\":156:293   */\n      swap3\n      swap2\n      pop\n      pop\n      jump\t// out\n        /* \"#utility.yul\":299:438   */\n    tag_148:\n        /* \"#utility.yul\":345:350   */\n      0x00\n        /* \"#utility.yul\":383:389   */\n      dup2\n        /* \"#utility.yul\":370:390   */\n      calldataload\n        /* \"#utility.yul\":361:390   */\n      swap1\n      pop\n        /* \"#utility.yul\":399:432   */\n      tag_150\n        /* \"#utility.yul\":426:431   */\n      dup2\n        /* \"#utility.yul\":399:432   */\n      tag_151\n      jump\t// in\n    tag_150:\n        /* \"#utility.yul\":299:438   */\n      swap3\n      swap2\n      pop\n      pop\n      jump\t// out\n        /* \"#utility.yul\":444:587   */\n    tag_152:\n        /* \"#utility.yul\":501:506   */\n      0x00\n        /* \"#utility.yul\":532:538   */\n      dup2\n        /* \"#utility.yul\":526:539   */\n      mload\n        /* \"#utility.yul\":517:539   */\n      swap1\n      pop\n        /* \"#utility.yul\":548:581   */\n      tag_154\n        /* \"#utility.yul\":575:580   */\n      dup2\n        /* \"#utility.yul\":548:581   */\n      tag_151\n      jump\t// in\n    tag_154:\n        /* \"#utility.yul\":444:587   */\n      swap3\n      swap2\n      pop\n      pop\n      jump\t// out\n        /* \"#utility.yul\":593:944   */\n    tag_66:\n        /* \"#utility.yul\":663:669   */\n      0x00\n        /* \"#utility.yul\":712:714   */\n      0x20\n        /* \"#utility.yul\":700:709   */\n      dup3\n        /* \"#utility.yul\":691:698   */\n      dup5\n        /* \"#utility.yul\":687:710   */\n      sub\n        /* \"#utility.yul\":683:715   */\n      slt\n        /* \"#utility.yul\":680:799   */\n      iszero\n      tag_156\n      jumpi\n        /* \"#utility.yul\":718:797   */\n      tag_157\n      tag_158\n      jump\t// in\n    tag_157:\n        /* \"#utility.yul\":680:799   */\n    tag_156:\n        /* \"#utility.yul\":838:839   */\n      0x00\n        /* \"#utility.yul\":863:927   */\n      tag_159\n        /* \"#utility.yul\":919:926   */\n      dup5\n        /* \"#utility.yul\":910:916   */\n      dup3\n        /* \"#utility.yul\":899:908   */\n      dup6\n        /* \"#utility.yul\":895:917   */\n      add\n        /* \"#utility.yul\":863:927   */\n      tag_140\n      jump\t// in\n    tag_159:\n        /* \"#utility.yul\":853:927   */\n      swap2\n      pop\n        /* \"#utility.yul\":809:937   */\n      pop\n        /* \"#utility.yul\":593:944   */\n      swap3\n      swap2\n      pop\n      pop\n      jump\t// out\n        /* \"#utility.yul\":950:1295   */\n    tag_107:\n        /* \"#utility.yul\":1017:1023   */\n      0x00\n        /* \"#utility.yul\":1066:1068   */\n      0x20\n        /* \"#utility.yul\":1054:1063   */\n      dup3\n        /* \"#utility.yul\":1045:1052   */\n      dup5\n        /* \"#utility.yul\":1041:1064   */\n      sub\n        /* \"#utility.yul\":1037:1069   */\n      slt\n        /* \"#utility.yul\":1034:1153   */\n      iszero\n      tag_161\n      jumpi\n        /* \"#utility.yul\":1072:1151   */\n      tag_162\n      tag_158\n      jump\t// in\n    tag_162:\n        /* \"#utility.yul\":1034:1153   */\n    tag_161:\n        /* \"#utility.yul\":1192:1193   */\n      0x00\n        /* \"#utility.yul\":1217:1278   */\n      tag_163\n        /* \"#utility.yul\":1270:1277   */\n      dup5\n        /* \"#utility.yul\":1261:1267   */\n      dup3\n        /* \"#utility.yul\":1250:1259   */\n      dup6\n        /* \"#utility.yul\":1246:1268   */\n      add\n        /* \"#utility.yul\":1217:1278   */\n      tag_144\n      jump\t// in\n    tag_163:\n        /* \"#utility.yul\":1207:1278   */\n      swap2\n      pop\n        /* \"#utility.yul\":1163:1288   */\n      pop\n        /* \"#utility.yul\":950:1295   */\n      swap3\n      swap2\n      pop\n      pop\n      jump\t// out\n        /* \"#utility.yul\":1301:1630   */\n    tag_45:\n        /* \"#utility.yul\":1360:1366   */\n      0x00\n        /* \"#utility.yul\":1409:1411   */\n      0x20\n        /* \"#utility.yul\":1397:1406   */\n      dup3\n        /* \"#utility.yul\":1388:1395   */\n      dup5\n        /* \"#utility.yul\":1384:1407   */\n      sub\n        /* \"#utility.yul\":1380:1412   */\n      slt\n        /* \"#utility.yul\":1377:1496   */\n      iszero\n      tag_165\n      jumpi\n        /* \"#utility.yul\":1415:1494   */\n      tag_166\n      tag_158\n      jump\t// in\n    tag_166:\n        /* \"#utility.yul\":1377:1496   */\n    tag_165:\n        /* \"#utility.yul\":1535:1536   */\n      0x00\n        /* \"#utility.yul\":1560:1613   */\n      tag_167\n        /* \"#utility.yul\":1605:1612   */\n      dup5\n        /* \"#utility.yul\":1596:1602   */\n      dup3\n        /* \"#utility.yul\":1585:1594   */\n      dup6\n        /* \"#utility.yul\":1581:1603   */\n      add\n        /* \"#utility.yul\":1560:1613   */\n      tag_148\n      jump\t// in\n    tag_167:\n        /* \"#utility.yul\":1550:1613   */\n      swap2\n      pop\n        /* \"#utility.yul\":1506:1623   */\n      pop\n        /* \"#utility.yul\":1301:1630   */\n      swap3\n      swap2\n      pop\n      pop\n      jump\t// out\n        /* \"#utility.yul\":1636:1987   */\n    tag_75:\n        /* \"#utility.yul\":1706:1712   */\n      0x00\n        /* \"#utility.yul\":1755:1757   */\n      0x20\n        /* \"#utility.yul\":1743:1752   */\n      dup3\n        /* \"#utility.yul\":1734:1741   */\n      dup5\n        /* \"#utility.yul\":1730:1753   */\n      sub\n        /* \"#utility.yul\":1726:1758   */\n      slt\n        /* \"#utility.yul\":1723:1842   */\n      iszero\n      tag_169\n      jumpi\n        /* \"#utility.yul\":1761:1840   */\n      tag_170\n      tag_158\n      jump\t// in\n    tag_170:\n        /* \"#utility.yul\":1723:1842   */\n    tag_169:\n        /* \"#utility.yul\":1881:1882   */\n      0x00\n        /* \"#utility.yul\":1906:1970   */\n      tag_171\n        /* \"#utility.yul\":1962:1969   */\n      dup5\n        /* \"#utility.yul\":1953:1959   */\n      dup3\n        /* \"#utility.yul\":1942:1951   */\n      dup6\n        /* \"#utility.yul\":1938:1960   */\n      add\n        /* \"#utility.yul\":1906:1970   */\n      tag_152\n      jump\t// in\n    tag_171:\n        /* \"#utility.yul\":1896:1970   */\n      swap2\n      pop\n        /* \"#utility.yul\":1852:1980   */\n      pop\n        /* \"#utility.yul\":1636:1987   */\n      swap3\n      swap2\n      pop\n      pop\n      jump\t// out\n        /* \"#utility.yul\":1993:2111   */\n    tag_172:\n        /* \"#utility.yul\":2080:2104   */\n      tag_174\n        /* \"#utility.yul\":2098:2103   */\n      dup2\n        /* \"#utility.yul\":2080:2104   */\n      tag_175\n      jump\t// in\n    tag_174:\n        /* \"#utility.yul\":2075:2078   */\n      dup3\n        /* \"#utility.yul\":2068:2105   */\n      mstore\n        /* \"#utility.yul\":1993:2111   */\n      pop\n      pop\n      jump\t// out\n        /* \"#utility.yul\":2117:2226   */\n    tag_176:\n        /* \"#utility.yul\":2198:2219   */\n      tag_178\n        /* \"#utility.yul\":2213:2218   */\n      dup2\n        /* \"#utility.yul\":2198:2219   */\n      tag_179\n      jump\t// in\n    tag_178:\n        /* \"#utility.yul\":2193:2196   */\n      dup3\n        /* \"#utility.yul\":2186:2220   */\n      mstore\n        /* \"#utility.yul\":2117:2226   */\n      pop\n      pop\n      jump\t// out\n        /* \"#utility.yul\":2232:2391   */\n    tag_180:\n        /* \"#utility.yul\":2333:2384   */\n      tag_182\n        /* \"#utility.yul\":2378:2383   */\n      dup2\n        /* \"#utility.yul\":2333:2384   */\n      tag_183\n      jump\t// in\n    tag_182:\n        /* \"#utility.yul\":2328:2331   */\n      dup3\n        /* \"#utility.yul\":2321:2385   */\n      mstore\n        /* \"#utility.yul\":2232:2391   */\n      pop\n      pop\n      jump\t// out\n        /* \"#utility.yul\":2397:2763   */\n    tag_184:\n        /* \"#utility.yul\":2539:2542   */\n      0x00\n        /* \"#utility.yul\":2560:2627   */\n      tag_186\n        /* \"#utility.yul\":2624:2626   */\n      0x22\n        /* \"#utility.yul\":2619:2622   */\n      dup4\n        /* \"#utility.yul\":2560:2627   */\n      tag_187\n      jump\t// in\n    tag_186:\n        /* \"#utility.yul\":2553:2627   */\n      swap2\n      pop\n        /* \"#utility.yul\":2636:2729   */\n      tag_188\n        /* \"#utility.yul\":2725:2728   */\n      dup3\n        /* \"#utility.yul\":2636:2729   */\n      tag_189\n      jump\t// in\n    tag_188:\n        /* \"#utility.yul\":2754:2756   */\n      0x40\n        /* \"#utility.yul\":2749:2752   */\n      dup3\n        /* \"#utility.yul\":2745:2757   */\n      add\n        /* \"#utility.yul\":2738:2757   */\n      swap1\n      pop\n        /* \"#utility.yul\":2397:2763   */\n      swap2\n      swap1\n      pop\n      jump\t// out\n        /* \"#utility.yul\":2769:3135   */\n    tag_190:\n        /* \"#utility.yul\":2911:2914   */\n      0x00\n        /* \"#utility.yul\":2932:2999   */\n      tag_192\n        /* \"#utility.yul\":2996:2998   */\n      0x21\n        /* \"#utility.yul\":2991:2994   */\n      dup4\n        /* \"#utility.yul\":2932:2999   */\n      tag_187\n      jump\t// in\n    tag_192:\n        /* \"#utility.yul\":2925:2999   */\n      swap2\n      pop\n        /* \"#utility.yul\":3008:3101   */\n      tag_193\n        /* \"#utility.yul\":3097:3100   */\n      dup3\n        /* \"#utility.yul\":3008:3101   */\n      tag_194\n      jump\t// in\n    tag_193:\n        /* \"#utility.yul\":3126:3128   */\n      0x40\n        /* \"#utility.yul\":3121:3124   */\n      dup3\n        /* \"#utility.yul\":3117:3129   */\n      add\n        /* \"#utility.yul\":3110:3129   */\n      swap1\n      pop\n        /* \"#utility.yul\":2769:3135   */\n      swap2\n      swap1\n      pop\n      jump\t// out\n        /* \"#utility.yul\":3141:3507   */\n    tag_195:\n        /* \"#utility.yul\":3283:3286   */\n      0x00\n        /* \"#utility.yul\":3304:3371   */\n      tag_197\n        /* \"#utility.yul\":3368:3370   */\n      0x1c\n        /* \"#utility.yul\":3363:3366   */\n      dup4\n        /* \"#utility.yul\":3304:3371   */\n      tag_187\n      jump\t// in\n    tag_197:\n        /* \"#utility.yul\":3297:3371   */\n      swap2\n      pop\n        /* \"#utility.yul\":3380:3473   */\n      tag_198\n        /* \"#utility.yul\":3469:3472   */\n      dup3\n        /* \"#utility.yul\":3380:3473   */\n      tag_199\n      jump\t// in\n    tag_198:\n        /* \"#utility.yul\":3498:3500   */\n      0x20\n        /* \"#utility.yul\":3493:3496   */\n      dup3\n        /* \"#utility.yul\":3489:3501   */\n      add\n        /* \"#utility.yul\":3482:3501   */\n      swap1\n      pop\n        /* \"#utility.yul\":3141:3507   */\n      swap2\n      swap1\n      pop\n      jump\t// out\n        /* \"#utility.yul\":3513:3879   */\n    tag_200:\n        /* \"#utility.yul\":3655:3658   */\n      0x00\n        /* \"#utility.yul\":3676:3743   */\n      tag_202\n        /* \"#utility.yul\":3740:3742   */\n      0x1a\n        /* \"#utility.yul\":3735:3738   */\n      dup4\n        /* \"#utility.yul\":3676:3743   */\n      tag_187\n      jump\t// in\n    tag_202:\n        /* \"#utility.yul\":3669:3743   */\n      swap2\n      pop\n        /* \"#utility.yul\":3752:3845   */\n      tag_203\n        /* \"#utility.yul\":3841:3844   */\n      dup3\n        /* \"#utility.yul\":3752:3845   */\n      tag_204\n      jump\t// in\n    tag_203:\n        /* \"#utility.yul\":3870:3872   */\n      0x20\n        /* \"#utility.yul\":3865:3868   */\n      dup3\n        /* \"#utility.yul\":3861:3873   */\n      add\n        /* \"#utility.yul\":3854:3873   */\n      swap1\n      pop\n        /* \"#utility.yul\":3513:3879   */\n      swap2\n      swap1\n      pop\n      jump\t// out\n        /* \"#utility.yul\":3885:4003   */\n    tag_205:\n        /* \"#utility.yul\":3972:3996   */\n      tag_207\n        /* \"#utility.yul\":3990:3995   */\n      dup2\n        /* \"#utility.yul\":3972:3996   */\n      tag_208\n      jump\t// in\n    tag_207:\n        /* \"#utility.yul\":3967:3970   */\n      dup3\n        /* \"#utility.yul\":3960:3997   */\n      mstore\n        /* \"#utility.yul\":3885:4003   */\n      pop\n      pop\n      jump\t// out\n        /* \"#utility.yul\":4009:4231   */\n    tag_18:\n        /* \"#utility.yul\":4102:4106   */\n      0x00\n        /* \"#utility.yul\":4140:4142   */\n      0x20\n        /* \"#utility.yul\":4129:4138   */\n      dup3\n        /* \"#utility.yul\":4125:4143   */\n      add\n        /* \"#utility.yul\":4117:4143   */\n      swap1\n      pop\n        /* \"#utility.yul\":4153:4224   */\n      tag_210\n        /* \"#utility.yul\":4221:4222   */\n      0x00\n        /* \"#utility.yul\":4210:4219   */\n      dup4\n        /* \"#utility.yul\":4206:4223   */\n      add\n        /* \"#utility.yul\":4197:4203   */\n      dup5\n        /* \"#utility.yul\":4153:4224   */\n      tag_172\n      jump\t// in\n    tag_210:\n        /* \"#utility.yul\":4009:4231   */\n      swap3\n      swap2\n      pop\n      pop\n      jump\t// out\n        /* \"#utility.yul\":4237:4569   */\n    tag_84:\n        /* \"#utility.yul\":4358:4362   */\n      0x00\n        /* \"#utility.yul\":4396:4398   */\n      0x40\n        /* \"#utility.yul\":4385:4394   */\n      dup3\n        /* \"#utility.yul\":4381:4399   */\n      add\n        /* \"#utility.yul\":4373:4399   */\n      swap1\n      pop\n        /* \"#utility.yul\":4409:4480   */\n      tag_212\n        /* \"#utility.yul\":4477:4478   */\n      0x00\n        /* \"#utility.yul\":4466:4475   */\n      dup4\n        /* \"#utility.yul\":4462:4479   */\n      add\n        /* \"#utility.yul\":4453:4459   */\n      dup6\n        /* \"#utility.yul\":4409:4480   */\n      tag_172\n      jump\t// in\n    tag_212:\n        /* \"#utility.yul\":4490:4562   */\n      tag_213\n        /* \"#utility.yul\":4558:4560   */\n      0x20\n        /* \"#utility.yul\":4547:4556   */\n      dup4\n        /* \"#utility.yul\":4543:4561   */\n      add\n        /* \"#utility.yul\":4534:4540   */\n      dup5\n        /* \"#utility.yul\":4490:4562   */\n      tag_172\n      jump\t// in\n    tag_213:\n        /* \"#utility.yul\":4237:4569   */\n      swap4\n      swap3\n      pop\n      pop\n      pop\n      jump\t// out\n        /* \"#utility.yul\":4575:5017   */\n    tag_111:\n        /* \"#utility.yul\":4724:4728   */\n      0x00\n        /* \"#utility.yul\":4762:4764   */\n      0x60\n        /* \"#utility.yul\":4751:4760   */\n      dup3\n        /* \"#utility.yul\":4747:4765   */\n      add\n        /* \"#utility.yul\":4739:4765   */\n      swap1\n      pop\n        /* \"#utility.yul\":4775:4846   */\n      tag_215\n        /* \"#utility.yul\":4843:4844   */\n      0x00\n        /* \"#utility.yul\":4832:4841   */\n      dup4\n        /* \"#utility.yul\":4828:4845   */\n      add\n        /* \"#utility.yul\":4819:4825   */\n      dup7\n        /* \"#utility.yul\":4775:4846   */\n      tag_172\n      jump\t// in\n    tag_215:\n        /* \"#utility.yul\":4856:4928   */\n      tag_216\n        /* \"#utility.yul\":4924:4926   */\n      0x20\n        /* \"#utility.yul\":4913:4922   */\n      dup4\n        /* \"#utility.yul\":4909:4927   */\n      add\n        /* \"#utility.yul\":4900:4906   */\n      dup6\n        /* \"#utility.yul\":4856:4928   */\n      tag_172\n      jump\t// in\n    tag_216:\n        /* \"#utility.yul\":4938:5010   */\n      tag_217\n        /* \"#utility.yul\":5006:5008   */\n      0x40\n        /* \"#utility.yul\":4995:5004   */\n      dup4\n        /* \"#utility.yul\":4991:5009   */\n      add\n        /* \"#utility.yul\":4982:4988   */\n      dup5\n        /* \"#utility.yul\":4938:5010   */\n      tag_205\n      jump\t// in\n    tag_217:\n        /* \"#utility.yul\":4575:5017   */\n      swap5\n      swap4\n      pop\n      pop\n      pop\n      pop\n      jump\t// out\n        /* \"#utility.yul\":5023:5355   */\n    tag_102:\n        /* \"#utility.yul\":5144:5148   */\n      0x00\n        /* \"#utility.yul\":5182:5184   */\n      0x40\n        /* \"#utility.yul\":5171:5180   */\n      dup3\n        /* \"#utility.yul\":5167:5185   */\n      add\n        /* \"#utility.yul\":5159:5185   */\n      swap1\n      pop\n        /* \"#utility.yul\":5195:5266   */\n      tag_219\n        /* \"#utility.yul\":5263:5264   */\n      0x00\n        /* \"#utility.yul\":5252:5261   */\n      dup4\n        /* \"#utility.yul\":5248:5265   */\n      add\n        /* \"#utility.yul\":5239:5245   */\n      dup6\n        /* \"#utility.yul\":5195:5266   */\n      tag_172\n      jump\t// in\n    tag_219:\n        /* \"#utility.yul\":5276:5348   */\n      tag_220\n        /* \"#utility.yul\":5344:5346   */\n      0x20\n        /* \"#utility.yul\":5333:5342   */\n      dup4\n        /* \"#utility.yul\":5329:5347   */\n      add\n        /* \"#utility.yul\":5320:5326   */\n      dup5\n        /* \"#utility.yul\":5276:5348   */\n      tag_205\n      jump\t// in\n    tag_220:\n        /* \"#utility.yul\":5023:5355   */\n      swap4\n      swap3\n      pop\n      pop\n      pop\n      jump\t// out\n        /* \"#utility.yul\":5361:5571   */\n    tag_48:\n        /* \"#utility.yul\":5448:5452   */\n      0x00\n        /* \"#utility.yul\":5486:5488   */\n      0x20\n        /* \"#utility.yul\":5475:5484   */\n      dup3\n        /* \"#utility.yul\":5471:5489   */\n      add\n        /* \"#utility.yul\":5463:5489   */\n      swap1\n      pop\n        /* \"#utility.yul\":5499:5564   */\n      tag_222\n        /* \"#utility.yul\":5561:5562   */\n      0x00\n        /* \"#utility.yul\":5550:5559   */\n      dup4\n        /* \"#utility.yul\":5546:5563   */\n      add\n        /* \"#utility.yul\":5537:5543   */\n      dup5\n        /* \"#utility.yul\":5499:5564   */\n      tag_176\n      jump\t// in\n    tag_222:\n        /* \"#utility.yul\":5361:5571   */\n      swap3\n      swap2\n      pop\n      pop\n      jump\t// out\n        /* \"#utility.yul\":5577:5827   */\n    tag_60:\n        /* \"#utility.yul\":5684:5688   */\n      0x00\n        /* \"#utility.yul\":5722:5724   */\n      0x20\n        /* \"#utility.yul\":5711:5720   */\n      dup3\n        /* \"#utility.yul\":5707:5725   */\n      add\n        /* \"#utility.yul\":5699:5725   */\n      swap1\n      pop\n        /* \"#utility.yul\":5735:5820   */\n      tag_224\n        /* \"#utility.yul\":5817:5818   */\n      0x00\n        /* \"#utility.yul\":5806:5815   */\n      dup4\n        /* \"#utility.yul\":5802:5819   */\n      add\n        /* \"#utility.yul\":5793:5799   */\n      dup5\n        /* \"#utility.yul\":5735:5820   */\n      tag_180\n      jump\t// in\n    tag_224:\n        /* \"#utility.yul\":5577:5827   */\n      swap3\n      swap2\n      pop\n      pop\n      jump\t// out\n        /* \"#utility.yul\":5833:6252   */\n    tag_124:\n        /* \"#utility.yul\":5999:6003   */\n      0x00\n        /* \"#utility.yul\":6037:6039   */\n      0x20\n        /* \"#utility.yul\":6026:6035   */\n      dup3\n        /* \"#utility.yul\":6022:6040   */\n      add\n        /* \"#utility.yul\":6014:6040   */\n      swap1\n      pop\n        /* \"#utility.yul\":6086:6095   */\n      dup2\n        /* \"#utility.yul\":6080:6084   */\n      dup2\n        /* \"#utility.yul\":6076:6096   */\n      sub\n        /* \"#utility.yul\":6072:6073   */\n      0x00\n        /* \"#utility.yul\":6061:6070   */\n      dup4\n        /* \"#utility.yul\":6057:6074   */\n      add\n        /* \"#utility.yul\":6050:6097   */\n      mstore\n        /* \"#utility.yul\":6114:6245   */\n      tag_226\n        /* \"#utility.yul\":6240:6244   */\n      dup2\n        /* \"#utility.yul\":6114:6245   */\n      tag_184\n      jump\t// in\n    tag_226:\n        /* \"#utility.yul\":6106:6245   */\n      swap1\n      pop\n        /* \"#utility.yul\":5833:6252   */\n      swap2\n      swap1\n      pop\n      jump\t// out\n        /* \"#utility.yul\":6258:6677   */\n    tag_100:\n        /* \"#utility.yul\":6424:6428   */\n      0x00\n        /* \"#utility.yul\":6462:6464   */\n      0x20\n        /* \"#utility.yul\":6451:6460   */\n      dup3\n        /* \"#utility.yul\":6447:6465   */\n      add\n        /* \"#utility.yul\":6439:6465   */\n      swap1\n      pop\n        /* \"#utility.yul\":6511:6520   */\n      dup2\n        /* \"#utility.yul\":6505:6509   */\n      dup2\n        /* \"#utility.yul\":6501:6521   */\n      sub\n        /* \"#utility.yul\":6497:6498   */\n      0x00\n        /* \"#utility.yul\":6486:6495   */\n      dup4\n        /* \"#utility.yul\":6482:6499   */\n      add\n        /* \"#utility.yul\":6475:6522   */\n      mstore\n        /* \"#utility.yul\":6539:6670   */\n      tag_228\n        /* \"#utility.yul\":6665:6669   */\n      dup2\n        /* \"#utility.yul\":6539:6670   */\n      tag_190\n      jump\t// in\n    tag_228:\n        /* \"#utility.yul\":6531:6670   */\n      swap1\n      pop\n        /* \"#utility.yul\":6258:6677   */\n      swap2\n      swap1\n      pop\n      jump\t// out\n        /* \"#utility.yul\":6683:7102   */\n    tag_97:\n        /* \"#utility.yul\":6849:6853   */\n      0x00\n        /* \"#utility.yul\":6887:6889   */\n      0x20\n        /* \"#utility.yul\":6876:6885   */\n      dup3\n        /* \"#utility.yul\":6872:6890   */\n      add\n        /* \"#utility.yul\":6864:6890   */\n      swap1\n      pop\n        /* \"#utility.yul\":6936:6945   */\n      dup2\n        /* \"#utility.yul\":6930:6934   */\n      dup2\n        /* \"#utility.yul\":6926:6946   */\n      sub\n        /* \"#utility.yul\":6922:6923   */\n      0x00\n        /* \"#utility.yul\":6911:6920   */\n      dup4\n        /* \"#utility.yul\":6907:6924   */\n      add\n        /* \"#utility.yul\":6900:6947   */\n      mstore\n        /* \"#utility.yul\":6964:7095   */\n      tag_230\n        /* \"#utility.yul\":7090:7094   */\n      dup2\n        /* \"#utility.yul\":6964:7095   */\n      tag_195\n      jump\t// in\n    tag_230:\n        /* \"#utility.yul\":6956:7095   */\n      swap1\n      pop\n        /* \"#utility.yul\":6683:7102   */\n      swap2\n      swap1\n      pop\n      jump\t// out\n        /* \"#utility.yul\":7108:7527   */\n    tag_132:\n        /* \"#utility.yul\":7274:7278   */\n      0x00\n        /* \"#utility.yul\":7312:7314   */\n      0x20\n        /* \"#utility.yul\":7301:7310   */\n      dup3\n        /* \"#utility.yul\":7297:7315   */\n      add\n        /* \"#utility.yul\":7289:7315   */\n      swap1\n      pop\n        /* \"#utility.yul\":7361:7370   */\n      dup2\n        /* \"#utility.yul\":7355:7359   */\n      dup2\n        /* \"#utility.yul\":7351:7371   */\n      sub\n        /* \"#utility.yul\":7347:7348   */\n      0x00\n        /* \"#utility.yul\":7336:7345   */\n      dup4\n        /* \"#utility.yul\":7332:7349   */\n      add\n        /* \"#utility.yul\":7325:7372   */\n      mstore\n        /* \"#utility.yul\":7389:7520   */\n      tag_232\n        /* \"#utility.yul\":7515:7519   */\n      dup2\n        /* \"#utility.yul\":7389:7520   */\n      tag_200\n      jump\t// in\n    tag_232:\n        /* \"#utility.yul\":7381:7520   */\n      swap1\n      pop\n        /* \"#utility.yul\":7108:7527   */\n      swap2\n      swap1\n      pop\n      jump\t// out\n        /* \"#utility.yul\":7533:7755   */\n    tag_31:\n        /* \"#utility.yul\":7626:7630   */\n      0x00\n        /* \"#utility.yul\":7664:7666   */\n      0x20\n        /* \"#utility.yul\":7653:7662   */\n      dup3\n        /* \"#utility.yul\":7649:7667   */\n      add\n        /* \"#utility.yul\":7641:7667   */\n      swap1\n      pop\n        /* \"#utility.yul\":7677:7748   */\n      tag_234\n        /* \"#utility.yul\":7745:7746   */\n      0x00\n        /* \"#utility.yul\":7734:7743   */\n      dup4\n        /* \"#utility.yul\":7730:7747   */\n      add\n        /* \"#utility.yul\":7721:7727   */\n      dup5\n        /* \"#utility.yul\":7677:7748   */\n      tag_205\n      jump\t// in\n    tag_234:\n        /* \"#utility.yul\":7533:7755   */\n      swap3\n      swap2\n      pop\n      pop\n      jump\t// out\n        /* \"#utility.yul\":7842:8011   */\n    tag_187:\n        /* \"#utility.yul\":7926:7937   */\n      0x00\n        /* \"#utility.yul\":7960:7966   */\n      dup3\n        /* \"#utility.yul\":7955:7958   */\n      dup3\n        /* \"#utility.yul\":7948:7967   */\n      mstore\n        /* \"#utility.yul\":8000:8004   */\n      0x20\n        /* \"#utility.yul\":7995:7998   */\n      dup3\n        /* \"#utility.yul\":7991:8005   */\n      add\n        /* \"#utility.yul\":7976:8005   */\n      swap1\n      pop\n        /* \"#utility.yul\":7842:8011   */\n      swap3\n      swap2\n      pop\n      pop\n      jump\t// out\n        /* \"#utility.yul\":8017:8113   */\n    tag_175:\n        /* \"#utility.yul\":8054:8061   */\n      0x00\n        /* \"#utility.yul\":8083:8107   */\n      tag_239\n        /* \"#utility.yul\":8101:8106   */\n      dup3\n        /* \"#utility.yul\":8083:8107   */\n      tag_240\n      jump\t// in\n    tag_239:\n        /* \"#utility.yul\":8072:8107   */\n      swap1\n      pop\n        /* \"#utility.yul\":8017:8113   */\n      swap2\n      swap1\n      pop\n      jump\t// out\n        /* \"#utility.yul\":8119:8209   */\n    tag_179:\n        /* \"#utility.yul\":8153:8160   */\n      0x00\n        /* \"#utility.yul\":8196:8201   */\n      dup2\n        /* \"#utility.yul\":8189:8202   */\n      iszero\n        /* \"#utility.yul\":8182:8203   */\n      iszero\n        /* \"#utility.yul\":8171:8203   */\n      swap1\n      pop\n        /* \"#utility.yul\":8119:8209   */\n      swap2\n      swap1\n      pop\n      jump\t// out\n        /* \"#utility.yul\":8215:8341   */\n    tag_240:\n        /* \"#utility.yul\":8252:8259   */\n      0x00\n        /* \"#utility.yul\":8292:8334   */\n      0xffffffffffffffffffffffffffffffffffffffff\n        /* \"#utility.yul\":8285:8290   */\n      dup3\n        /* \"#utility.yul\":8281:8335   */\n      and\n        /* \"#utility.yul\":8270:8335   */\n      swap1\n      pop\n        /* \"#utility.yul\":8215:8341   */\n      swap2\n      swap1\n      pop\n      jump\t// out\n        /* \"#utility.yul\":8347:8424   */\n    tag_208:\n        /* \"#utility.yul\":8384:8391   */\n      0x00\n        /* \"#utility.yul\":8413:8418   */\n      dup2\n        /* \"#utility.yul\":8402:8418   */\n      swap1\n      pop\n        /* \"#utility.yul\":8347:8424   */\n      swap2\n      swap1\n      pop\n      jump\t// out\n        /* \"#utility.yul\":8430:8570   */\n    tag_183:\n        /* \"#utility.yul\":8494:8503   */\n      0x00\n        /* \"#utility.yul\":8527:8564   */\n      tag_245\n        /* \"#utility.yul\":8558:8563   */\n      dup3\n        /* \"#utility.yul\":8527:8564   */\n      tag_246\n      jump\t// in\n    tag_245:\n        /* \"#utility.yul\":8514:8564   */\n      swap1\n      pop\n        /* \"#utility.yul\":8430:8570   */\n      swap2\n      swap1\n      pop\n      jump\t// out\n        /* \"#utility.yul\":8576:8702   */\n    tag_246:\n        /* \"#utility.yul\":8626:8635   */\n      0x00\n        /* \"#utility.yul\":8659:8696   */\n      tag_248\n        /* \"#utility.yul\":8690:8695   */\n      dup3\n        /* \"#utility.yul\":8659:8696   */\n      tag_249\n      jump\t// in\n    tag_248:\n        /* \"#utility.yul\":8646:8696   */\n      swap1\n      pop\n        /* \"#utility.yul\":8576:8702   */\n      swap2\n      swap1\n      pop\n      jump\t// out\n        /* \"#utility.yul\":8708:8821   */\n    tag_249:\n        /* \"#utility.yul\":8758:8767   */\n      0x00\n        /* \"#utility.yul\":8791:8815   */\n      tag_251\n        /* \"#utility.yul\":8809:8814   */\n      dup3\n        /* \"#utility.yul\":8791:8815   */\n      tag_240\n      jump\t// in\n    tag_251:\n        /* \"#utility.yul\":8778:8815   */\n      swap1\n      pop\n        /* \"#utility.yul\":8708:8821   */\n      swap2\n      swap1\n      pop\n      jump\t// out\n        /* \"#utility.yul\":8950:9067   */\n    tag_158:\n        /* \"#utility.yul\":9059:9060   */\n      0x00\n        /* \"#utility.yul\":9056:9057   */\n      dup1\n        /* \"#utility.yul\":9049:9061   */\n      revert\n        /* \"#utility.yul\":9073:9294   */\n    tag_189:\n        /* \"#utility.yul\":9213:9247   */\n      0x596f75206e65656420746f2073656c6c206174206c65617374203120746f6b65\n        /* \"#utility.yul\":9209:9210   */\n      0x00\n        /* \"#utility.yul\":9201:9207   */\n      dup3\n        /* \"#utility.yul\":9197:9211   */\n      add\n        /* \"#utility.yul\":9190:9248   */\n      mstore\n        /* \"#utility.yul\":9282:9286   */\n      0x6e21000000000000000000000000000000000000000000000000000000000000\n        /* \"#utility.yul\":9277:9279   */\n      0x20\n        /* \"#utility.yul\":9269:9275   */\n      dup3\n        /* \"#utility.yul\":9265:9280   */\n      add\n        /* \"#utility.yul\":9258:9287   */\n      mstore\n        /* \"#utility.yul\":9073:9294   */\n      pop\n      jump\t// out\n        /* \"#utility.yul\":9300:9520   */\n    tag_194:\n        /* \"#utility.yul\":9440:9474   */\n      0x4e6f7420656e6f75676820746f6b656e7320696e207468652072657665727365\n        /* \"#utility.yul\":9436:9437   */\n      0x00\n        /* \"#utility.yul\":9428:9434   */\n      dup3\n        /* \"#utility.yul\":9424:9438   */\n      add\n        /* \"#utility.yul\":9417:9475   */\n      mstore\n        /* \"#utility.yul\":9509:9512   */\n      0x2100000000000000000000000000000000000000000000000000000000000000\n        /* \"#utility.yul\":9504:9506   */\n      0x20\n        /* \"#utility.yul\":9496:9502   */\n      dup3\n        /* \"#utility.yul\":9492:9507   */\n      add\n        /* \"#utility.yul\":9485:9513   */\n      mstore\n        /* \"#utility.yul\":9300:9520   */\n      pop\n      jump\t// out\n        /* \"#utility.yul\":9526:9704   */\n    tag_199:\n        /* \"#utility.yul\":9666:9696   */\n      0x596f75206e65656420746f2073656e6420736f6d652065746865722100000000\n        /* \"#utility.yul\":9662:9663   */\n      0x00\n        /* \"#utility.yul\":9654:9660   */\n      dup3\n        /* \"#utility.yul\":9650:9664   */\n      add\n        /* \"#utility.yul\":9643:9697   */\n      mstore\n        /* \"#utility.yul\":9526:9704   */\n      pop\n      jump\t// out\n        /* \"#utility.yul\":9710:9886   */\n    tag_204:\n        /* \"#utility.yul\":9850:9878   */\n      0x436865636b2074686520746f6b656e20616c6c6f77616e636521000000000000\n        /* \"#utility.yul\":9846:9847   */\n      0x00\n        /* \"#utility.yul\":9838:9844   */\n      dup3\n        /* \"#utility.yul\":9834:9848   */\n      add\n        /* \"#utility.yul\":9827:9879   */\n      mstore\n        /* \"#utility.yul\":9710:9886   */\n      pop\n      jump\t// out\n        /* \"#utility.yul\":9892:10014   */\n    tag_143:\n        /* \"#utility.yul\":9965:9989   */\n      tag_260\n        /* \"#utility.yul\":9983:9988   */\n      dup2\n        /* \"#utility.yul\":9965:9989   */\n      tag_175\n      jump\t// in\n    tag_260:\n        /* \"#utility.yul\":9958:9963   */\n      dup2\n        /* \"#utility.yul\":9955:9990   */\n      eq\n        /* \"#utility.yul\":9945:10008   */\n      tag_261\n      jumpi\n        /* \"#utility.yul\":10004:10005   */\n      0x00\n        /* \"#utility.yul\":10001:10002   */\n      dup1\n        /* \"#utility.yul\":9994:10006   */\n      revert\n        /* \"#utility.yul\":9945:10008   */\n    tag_261:\n        /* \"#utility.yul\":9892:10014   */\n      pop\n      jump\t// out\n        /* \"#utility.yul\":10020:10136   */\n    tag_147:\n        /* \"#utility.yul\":10090:10111   */\n      tag_263\n        /* \"#utility.yul\":10105:10110   */\n      dup2\n        /* \"#utility.yul\":10090:10111   */\n      tag_179\n      jump\t// in\n    tag_263:\n        /* \"#utility.yul\":10083:10088   */\n      dup2\n        /* \"#utility.yul\":10080:10112   */\n      eq\n        /* \"#utility.yul\":10070:10130   */\n      tag_264\n      jumpi\n        /* \"#utility.yul\":10126:10127   */\n      0x00\n        /* \"#utility.yul\":10123:10124   */\n      dup1\n        /* \"#utility.yul\":10116:10128   */\n      revert\n        /* \"#utility.yul\":10070:10130   */\n    tag_264:\n        /* \"#utility.yul\":10020:10136   */\n      pop\n      jump\t// out\n        /* \"#utility.yul\":10142:10264   */\n    tag_151:\n        /* \"#utility.yul\":10215:10239   */\n      tag_266\n        /* \"#utility.yul\":10233:10238   */\n      dup2\n        /* \"#utility.yul\":10215:10239   */\n      tag_208\n      jump\t// in\n    tag_266:\n        /* \"#utility.yul\":10208:10213   */\n      dup2\n        /* \"#utility.yul\":10205:10240   */\n      eq\n        /* \"#utility.yul\":10195:10258   */\n      tag_267\n      jumpi\n        /* \"#utility.yul\":10254:10255   */\n      0x00\n        /* \"#utility.yul\":10251:10252   */\n      dup1\n        /* \"#utility.yul\":10244:10256   */\n      revert\n        /* \"#utility.yul\":10195:10258   */\n    tag_267:\n        /* \"#utility.yul\":10142:10264   */\n      pop\n      jump\t// out\n\n    auxdata: 0xa2646970667358221220f2ec8da370f9da5ce95b6dbce9438dca81bf95423e9033f9b8962bbce59fec7a64736f6c63430008070033\n}\n\nsub_1: assembly {\n        /* \"contracts/16_Dex.sol\":1477:3591  contract ERC20Basic is IERC20{... */\n      mstore(0x40, 0x80)\n        /* \"contracts/16_Dex.sol\":1814:1822  10 ether */\n      0x8ac7230489e80000\n        /* \"contracts/16_Dex.sol\":1791:1822  uint256 totalSupply_ = 10 ether */\n      0x02\n      sstore\n        /* \"contracts/16_Dex.sol\":1877:1940  constructor(){... */\n      callvalue\n      dup1\n      iszero\n      tag_1\n      jumpi\n      0x00\n      dup1\n      revert\n    tag_1:\n      pop\n        /* \"contracts/16_Dex.sol\":1921:1933  totalSupply_ */\n      sload(0x02)\n        /* \"contracts/16_Dex.sol\":1900:1908  balances */\n      0x00\n        /* \"contracts/16_Dex.sol\":1900:1920  balances[msg.sender] */\n      dup1\n        /* \"contracts/16_Dex.sol\":1909:1919  msg.sender */\n      caller\n        /* \"contracts/16_Dex.sol\":1900:1920  balances[msg.sender] */\n      0xffffffffffffffffffffffffffffffffffffffff\n      and\n      0xffffffffffffffffffffffffffffffffffffffff\n      and\n      dup2\n      mstore\n      0x20\n      add\n      swap1\n      dup2\n      mstore\n      0x20\n      add\n      0x00\n      keccak256\n        /* \"contracts/16_Dex.sol\":1900:1933  balances[msg.sender]=totalSupply_ */\n      dup2\n      swap1\n      sstore\n      pop\n        /* \"contracts/16_Dex.sol\":1477:3591  contract ERC20Basic is IERC20{... */\n      dataSize(sub_0)\n      dup1\n      dataOffset(sub_0)\n      0x00\n      codecopy\n      0x00\n      return\n    stop\n\n    sub_0: assembly {\n            /* \"contracts/16_Dex.sol\":1477:3591  contract ERC20Basic is IERC20{... */\n          mstore(0x40, 0x80)\n          callvalue\n          dup1\n          iszero\n          tag_1\n          jumpi\n          0x00\n          dup1\n          revert\n        tag_1:\n          pop\n          jumpi(tag_2, lt(calldatasize, 0x04))\n          shr(0xe0, calldataload(0x00))\n          dup1\n          0x70a08231\n          gt\n          tag_13\n          jumpi\n          dup1\n          0x70a08231\n          eq\n          tag_8\n          jumpi\n          dup1\n          0x95d89b41\n          eq\n          tag_9\n          jumpi\n          dup1\n          0xa9059cbb\n          eq\n          tag_10\n          jumpi\n          dup1\n          0xdd62ed3e\n          eq\n          tag_11\n          jumpi\n          dup1\n          0xe1f21c67\n          eq\n          tag_12\n          jumpi\n          jump(tag_2)\n        tag_13:\n          dup1\n          0x06fdde03\n          eq\n          tag_3\n          jumpi\n          dup1\n          0x18160ddd\n          eq\n          tag_4\n          jumpi\n          dup1\n          0x23b872dd\n          eq\n          tag_5\n          jumpi\n          dup1\n          0x313ce567\n          eq\n          tag_6\n          jumpi\n          dup1\n          0x38cc4831\n          eq\n          tag_7\n          jumpi\n        tag_2:\n          0x00\n          dup1\n          revert\n            /* \"contracts/16_Dex.sol\":1512:1560  string public constant name=\"ERC20-XiaochunCoin\" */\n        tag_3:\n          tag_14\n          tag_15\n          jump\t// in\n        tag_14:\n          mload(0x40)\n          tag_16\n          swap2\n          swap1\n          tag_17\n          jump\t// in\n        tag_16:\n          mload(0x40)\n          dup1\n          swap2\n          sub\n          swap1\n          return\n            /* \"contracts/16_Dex.sol\":2048:2144  function totalSupply() public override view returns(uint256){... */\n        tag_4:\n          tag_18\n          tag_19\n          jump\t// in\n        tag_18:\n          mload(0x40)\n          tag_20\n          swap2\n          swap1\n          tag_21\n          jump\t// in\n        tag_20:\n          mload(0x40)\n          dup1\n          swap2\n          sub\n          swap1\n          return\n            /* \"contracts/16_Dex.sol\":3131:3589  function transferFrom(address owner, address buyer, uint256 numTokens) external override returns (bool){... */\n        tag_5:\n          tag_22\n          0x04\n          dup1\n          calldatasize\n          sub\n          dup2\n          add\n          swap1\n          tag_23\n          swap2\n          swap1\n          tag_24\n          jump\t// in\n        tag_23:\n          tag_25\n          jump\t// in\n        tag_22:\n          mload(0x40)\n          tag_26\n          swap2\n          swap1\n          tag_27\n          jump\t// in\n        tag_26:\n          mload(0x40)\n          dup1\n          swap2\n          sub\n          swap1\n          return\n            /* \"contracts/16_Dex.sol\":1639:1672  uint8 public constant decimals=18 */\n        tag_6:\n          tag_28\n          tag_29\n          jump\t// in\n        tag_28:\n          mload(0x40)\n          tag_30\n          swap2\n          swap1\n          tag_31\n          jump\t// in\n        tag_30:\n          mload(0x40)\n          dup1\n          swap2\n          sub\n          swap1\n          return\n            /* \"contracts/16_Dex.sol\":1946:2042  function getAddress() public override view returns(address){... */\n        tag_7:\n          tag_32\n          tag_33\n          jump\t// in\n        tag_32:\n          mload(0x40)\n          tag_34\n          swap2\n          swap1\n          tag_35\n          jump\t// in\n        tag_34:\n          mload(0x40)\n          dup1\n          swap2\n          sub\n          swap1\n          return\n            /* \"contracts/16_Dex.sol\":2150:2270  function balanceOf(address tokenOwner) public override view returns(uint256){... */\n        tag_8:\n          tag_36\n          0x04\n          dup1\n          calldatasize\n          sub\n          dup2\n          add\n          swap1\n          tag_37\n          swap2\n          swap1\n          tag_38\n          jump\t// in\n        tag_37:\n          tag_39\n          jump\t// in\n        tag_36:\n          mload(0x40)\n          tag_40\n          swap2\n          swap1\n          tag_21\n          jump\t// in\n        tag_40:\n          mload(0x40)\n          dup1\n          swap2\n          sub\n          swap1\n          return\n            /* \"contracts/16_Dex.sol\":1580:1619  string public constant symbol=\"ERC-XCC\" */\n        tag_9:\n          tag_41\n          tag_42\n          jump\t// in\n        tag_41:\n          mload(0x40)\n          tag_43\n          swap2\n          swap1\n          tag_17\n          jump\t// in\n        tag_43:\n          mload(0x40)\n          dup1\n          swap2\n          sub\n          swap1\n          return\n            /* \"contracts/16_Dex.sol\":2358:2752  function transfer(address receiver, uint256 numTokens) public override returns(bool){... */\n        tag_10:\n          tag_44\n          0x04\n          dup1\n          calldatasize\n          sub\n          dup2\n          add\n          swap1\n          tag_45\n          swap2\n          swap1\n          tag_46\n          jump\t// in\n        tag_45:\n          tag_47\n          jump\t// in\n        tag_44:\n          mload(0x40)\n          tag_48\n          swap2\n          swap1\n          tag_27\n          jump\t// in\n        tag_48:\n          mload(0x40)\n          dup1\n          swap2\n          sub\n          swap1\n          return\n            /* \"contracts/16_Dex.sol\":2986:3125  function allowance(address owner, address delegate) external override view returns(uint256){... */\n        tag_11:\n          tag_49\n          0x04\n          dup1\n          calldatasize\n          sub\n          dup2\n          add\n          swap1\n          tag_50\n          swap2\n          swap1\n          tag_51\n          jump\t// in\n        tag_50:\n          tag_52\n          jump\t// in\n        tag_49:\n          mload(0x40)\n          tag_53\n          swap2\n          swap1\n          tag_21\n          jump\t// in\n        tag_53:\n          mload(0x40)\n          dup1\n          swap2\n          sub\n          swap1\n          return\n            /* \"contracts/16_Dex.sol\":2758:2980  function approve(address owner, address delegate, uint256 numTokens) external override returns (bool){... */\n        tag_12:\n          tag_54\n          0x04\n          dup1\n          calldatasize\n          sub\n          dup2\n          add\n          swap1\n          tag_55\n          swap2\n          swap1\n          tag_24\n          jump\t// in\n        tag_55:\n          tag_56\n          jump\t// in\n        tag_54:\n          mload(0x40)\n          tag_57\n          swap2\n          swap1\n          tag_27\n          jump\t// in\n        tag_57:\n          mload(0x40)\n          dup1\n          swap2\n          sub\n          swap1\n          return\n            /* \"contracts/16_Dex.sol\":1512:1560  string public constant name=\"ERC20-XiaochunCoin\" */\n        tag_15:\n          mload(0x40)\n          dup1\n          0x40\n          add\n          0x40\n          mstore\n          dup1\n          0x12\n          dup2\n          mstore\n          0x20\n          add\n          0x45524332302d5869616f6368756e436f696e0000000000000000000000000000\n          dup2\n          mstore\n          pop\n          dup2\n          jump\t// out\n            /* \"contracts/16_Dex.sol\":2048:2144  function totalSupply() public override view returns(uint256){... */\n        tag_19:\n            /* \"contracts/16_Dex.sol\":2100:2107  uint256 */\n          0x00\n            /* \"contracts/16_Dex.sol\":2125:2137  totalSupply_ */\n          sload(0x02)\n            /* \"contracts/16_Dex.sol\":2118:2137  return totalSupply_ */\n          swap1\n          pop\n            /* \"contracts/16_Dex.sol\":2048:2144  function totalSupply() public override view returns(uint256){... */\n          swap1\n          jump\t// out\n            /* \"contracts/16_Dex.sol\":3131:3589  function transferFrom(address owner, address buyer, uint256 numTokens) external override returns (bool){... */\n        tag_25:\n            /* \"contracts/16_Dex.sol\":3229:3233  bool */\n          0x00\n            /* \"contracts/16_Dex.sol\":3263:3271  balances */\n          dup1\n            /* \"contracts/16_Dex.sol\":3263:3278  balances[owner] */\n          0x00\n            /* \"contracts/16_Dex.sol\":3272:3277  owner */\n          dup6\n            /* \"contracts/16_Dex.sol\":3263:3278  balances[owner] */\n          0xffffffffffffffffffffffffffffffffffffffff\n          and\n          0xffffffffffffffffffffffffffffffffffffffff\n          and\n          dup2\n          mstore\n          0x20\n          add\n          swap1\n          dup2\n          mstore\n          0x20\n          add\n          0x00\n          keccak256\n          sload\n            /* \"contracts/16_Dex.sol\":3252:3261  numTokens */\n          dup3\n            /* \"contracts/16_Dex.sol\":3252:3278  numTokens<=balances[owner] */\n          gt\n          iszero\n            /* \"contracts/16_Dex.sol\":3244:3279  require(numTokens<=balances[owner]) */\n          tag_60\n          jumpi\n          0x00\n          dup1\n          revert\n        tag_60:\n            /* \"contracts/16_Dex.sol\":3308:3315  allowed */\n          0x01\n            /* \"contracts/16_Dex.sol\":3308:3322  allowed[owner] */\n          0x00\n            /* \"contracts/16_Dex.sol\":3316:3321  owner */\n          dup6\n            /* \"contracts/16_Dex.sol\":3308:3322  allowed[owner] */\n          0xffffffffffffffffffffffffffffffffffffffff\n          and\n          0xffffffffffffffffffffffffffffffffffffffff\n          and\n          dup2\n          mstore\n          0x20\n          add\n          swap1\n          dup2\n          mstore\n          0x20\n          add\n          0x00\n          keccak256\n            /* \"contracts/16_Dex.sol\":3308:3334  allowed[owner][msg.sender] */\n          0x00\n            /* \"contracts/16_Dex.sol\":3323:3333  msg.sender */\n          caller\n            /* \"contracts/16_Dex.sol\":3308:3334  allowed[owner][msg.sender] */\n          0xffffffffffffffffffffffffffffffffffffffff\n          and\n          0xffffffffffffffffffffffffffffffffffffffff\n          and\n          dup2\n          mstore\n          0x20\n          add\n          swap1\n          dup2\n          mstore\n          0x20\n          add\n          0x00\n          keccak256\n          sload\n            /* \"contracts/16_Dex.sol\":3297:3306  numTokens */\n          dup3\n            /* \"contracts/16_Dex.sol\":3297:3334  numTokens<=allowed[owner][msg.sender] */\n          gt\n          iszero\n            /* \"contracts/16_Dex.sol\":3289:3335  require(numTokens<=allowed[owner][msg.sender]) */\n          tag_61\n          jumpi\n          0x00\n          dup1\n          revert\n        tag_61:\n            /* \"contracts/16_Dex.sol\":3362:3392  balances[owner].sub(numTokens) */\n          tag_62\n            /* \"contracts/16_Dex.sol\":3382:3391  numTokens */\n          dup3\n            /* \"contracts/16_Dex.sol\":3362:3370  balances */\n          0x00\n            /* \"contracts/16_Dex.sol\":3362:3377  balances[owner] */\n          dup1\n            /* \"contracts/16_Dex.sol\":3371:3376  owner */\n          dup8\n            /* \"contracts/16_Dex.sol\":3362:3377  balances[owner] */\n          0xffffffffffffffffffffffffffffffffffffffff\n          and\n          0xffffffffffffffffffffffffffffffffffffffff\n          and\n          dup2\n          mstore\n          0x20\n          add\n          swap1\n          dup2\n          mstore\n          0x20\n          add\n          0x00\n          keccak256\n          sload\n            /* \"contracts/16_Dex.sol\":3362:3381  balances[owner].sub */\n          tag_63\n          swap1\n            /* \"contracts/16_Dex.sol\":3362:3392  balances[owner].sub(numTokens) */\n          swap2\n          swap1\n          0xffffffff\n          and\n          jump\t// in\n        tag_62:\n            /* \"contracts/16_Dex.sol\":3346:3354  balances */\n          0x00\n            /* \"contracts/16_Dex.sol\":3346:3361  balances[owner] */\n          dup1\n            /* \"contracts/16_Dex.sol\":3355:3360  owner */\n          dup7\n            /* \"contracts/16_Dex.sol\":3346:3361  balances[owner] */\n          0xffffffffffffffffffffffffffffffffffffffff\n          and\n          0xffffffffffffffffffffffffffffffffffffffff\n          and\n          dup2\n          mstore\n          0x20\n          add\n          swap1\n          dup2\n          mstore\n          0x20\n          add\n          0x00\n          keccak256\n            /* \"contracts/16_Dex.sol\":3346:3392  balances[owner]=balances[owner].sub(numTokens) */\n          dup2\n          swap1\n          sstore\n          pop\n            /* \"contracts/16_Dex.sol\":3424:3460  allowed[owner][buyer].sub(numTokens) */\n          tag_64\n            /* \"contracts/16_Dex.sol\":3450:3459  numTokens */\n          dup3\n            /* \"contracts/16_Dex.sol\":3424:3431  allowed */\n          0x01\n            /* \"contracts/16_Dex.sol\":3424:3438  allowed[owner] */\n          0x00\n            /* \"contracts/16_Dex.sol\":3432:3437  owner */\n          dup8\n            /* \"contracts/16_Dex.sol\":3424:3438  allowed[owner] */\n          0xffffffffffffffffffffffffffffffffffffffff\n          and\n          0xffffffffffffffffffffffffffffffffffffffff\n          and\n          dup2\n          mstore\n          0x20\n          add\n          swap1\n          dup2\n          mstore\n          0x20\n          add\n          0x00\n          keccak256\n            /* \"contracts/16_Dex.sol\":3424:3445  allowed[owner][buyer] */\n          0x00\n            /* \"contracts/16_Dex.sol\":3439:3444  buyer */\n          dup7\n            /* \"contracts/16_Dex.sol\":3424:3445  allowed[owner][buyer] */\n          0xffffffffffffffffffffffffffffffffffffffff\n          and\n          0xffffffffffffffffffffffffffffffffffffffff\n          and\n          dup2\n          mstore\n          0x20\n          add\n          swap1\n          dup2\n          mstore\n          0x20\n          add\n          0x00\n          keccak256\n          sload\n            /* \"contracts/16_Dex.sol\":3424:3449  allowed[owner][buyer].sub */\n          tag_63\n          swap1\n            /* \"contracts/16_Dex.sol\":3424:3460  allowed[owner][buyer].sub(numTokens) */\n          swap2\n          swap1\n          0xffffffff\n          and\n          jump\t// in\n        tag_64:\n            /* \"contracts/16_Dex.sol\":3402:3409  allowed */\n          0x01\n            /* \"contracts/16_Dex.sol\":3402:3416  allowed[owner] */\n          0x00\n            /* \"contracts/16_Dex.sol\":3410:3415  owner */\n          dup7\n            /* \"contracts/16_Dex.sol\":3402:3416  allowed[owner] */\n          0xffffffffffffffffffffffffffffffffffffffff\n          and\n          0xffffffffffffffffffffffffffffffffffffffff\n          and\n          dup2\n          mstore\n          0x20\n          add\n          swap1\n          dup2\n          mstore\n          0x20\n          add\n          0x00\n          keccak256\n            /* \"contracts/16_Dex.sol\":3402:3423  allowed[owner][buyer] */\n          0x00\n            /* \"contracts/16_Dex.sol\":3417:3422  buyer */\n          dup6\n            /* \"contracts/16_Dex.sol\":3402:3423  allowed[owner][buyer] */\n          0xffffffffffffffffffffffffffffffffffffffff\n          and\n          0xffffffffffffffffffffffffffffffffffffffff\n          and\n          dup2\n          mstore\n          0x20\n          add\n          swap1\n          dup2\n          mstore\n          0x20\n          add\n          0x00\n          keccak256\n            /* \"contracts/16_Dex.sol\":3402:3460  allowed[owner][buyer]=allowed[owner][buyer].sub(numTokens) */\n          dup2\n          swap1\n          sstore\n          pop\n            /* \"contracts/16_Dex.sol\":3486:3516  balances[buyer].add(numTokens) */\n          tag_65\n            /* \"contracts/16_Dex.sol\":3506:3515  numTokens */\n          dup3\n            /* \"contracts/16_Dex.sol\":3486:3494  balances */\n          0x00\n            /* \"contracts/16_Dex.sol\":3486:3501  balances[buyer] */\n          dup1\n            /* \"contracts/16_Dex.sol\":3495:3500  buyer */\n          dup7\n            /* \"contracts/16_Dex.sol\":3486:3501  balances[buyer] */\n          0xffffffffffffffffffffffffffffffffffffffff\n          and\n          0xffffffffffffffffffffffffffffffffffffffff\n          and\n          dup2\n          mstore\n          0x20\n          add\n          swap1\n          dup2\n          mstore\n          0x20\n          add\n          0x00\n          keccak256\n          sload\n            /* \"contracts/16_Dex.sol\":3486:3505  balances[buyer].add */\n          tag_66\n          swap1\n            /* \"contracts/16_Dex.sol\":3486:3516  balances[buyer].add(numTokens) */\n          swap2\n          swap1\n          0xffffffff\n          and\n          jump\t// in\n        tag_65:\n            /* \"contracts/16_Dex.sol\":3470:3478  balances */\n          0x00\n            /* \"contracts/16_Dex.sol\":3470:3485  balances[buyer] */\n          dup1\n            /* \"contracts/16_Dex.sol\":3479:3484  buyer */\n          dup6\n            /* \"contracts/16_Dex.sol\":3470:3485  balances[buyer] */\n          0xffffffffffffffffffffffffffffffffffffffff\n          and\n          0xffffffffffffffffffffffffffffffffffffffff\n          and\n          dup2\n          mstore\n          0x20\n          add\n          swap1\n          dup2\n          mstore\n          0x20\n          add\n          0x00\n          keccak256\n            /* \"contracts/16_Dex.sol\":3470:3516  balances[buyer]=balances[buyer].add(numTokens) */\n          dup2\n          swap1\n          sstore\n          pop\n            /* \"contracts/16_Dex.sol\":3545:3550  buyer */\n          dup3\n            /* \"contracts/16_Dex.sol\":3531:3561  Tranfer(owner,buyer,numTokens) */\n          0xffffffffffffffffffffffffffffffffffffffff\n          and\n            /* \"contracts/16_Dex.sol\":3539:3544  owner */\n          dup5\n            /* \"contracts/16_Dex.sol\":3531:3561  Tranfer(owner,buyer,numTokens) */\n          0xffffffffffffffffffffffffffffffffffffffff\n          and\n          0x5225eac2a7facfbeb099c00a4cc7c457701324f1fd84b84b14033f9e911374a4\n            /* \"contracts/16_Dex.sol\":3551:3560  numTokens */\n          dup5\n            /* \"contracts/16_Dex.sol\":3531:3561  Tranfer(owner,buyer,numTokens) */\n          mload(0x40)\n          tag_67\n          swap2\n          swap1\n          tag_21\n          jump\t// in\n        tag_67:\n          mload(0x40)\n          dup1\n          swap2\n          sub\n          swap1\n          log3\n            /* \"contracts/16_Dex.sol\":3578:3582  true */\n          0x01\n            /* \"contracts/16_Dex.sol\":3571:3582  return true */\n          swap1\n          pop\n            /* \"contracts/16_Dex.sol\":3131:3589  function transferFrom(address owner, address buyer, uint256 numTokens) external override returns (bool){... */\n          swap4\n          swap3\n          pop\n          pop\n          pop\n          jump\t// out\n            /* \"contracts/16_Dex.sol\":1639:1672  uint8 public constant decimals=18 */\n        tag_29:\n            /* \"contracts/16_Dex.sol\":1670:1672  18 */\n          0x12\n            /* \"contracts/16_Dex.sol\":1639:1672  uint8 public constant decimals=18 */\n          dup2\n          jump\t// out\n            /* \"contracts/16_Dex.sol\":1946:2042  function getAddress() public override view returns(address){... */\n        tag_33:\n            /* \"contracts/16_Dex.sol\":1997:2004  address */\n          0x00\n            /* \"contracts/16_Dex.sol\":2030:2034  this */\n          address\n            /* \"contracts/16_Dex.sol\":2015:2035  return address(this) */\n          swap1\n          pop\n            /* \"contracts/16_Dex.sol\":1946:2042  function getAddress() public override view returns(address){... */\n          swap1\n          jump\t// out\n            /* \"contracts/16_Dex.sol\":2150:2270  function balanceOf(address tokenOwner) public override view returns(uint256){... */\n        tag_39:\n            /* \"contracts/16_Dex.sol\":2218:2225  uint256 */\n          0x00\n            /* \"contracts/16_Dex.sol\":2243:2251  balances */\n          dup1\n            /* \"contracts/16_Dex.sol\":2243:2263  balances[tokenOwner] */\n          0x00\n            /* \"contracts/16_Dex.sol\":2252:2262  tokenOwner */\n          dup4\n            /* \"contracts/16_Dex.sol\":2243:2263  balances[tokenOwner] */\n          0xffffffffffffffffffffffffffffffffffffffff\n          and\n          0xffffffffffffffffffffffffffffffffffffffff\n          and\n          dup2\n          mstore\n          0x20\n          add\n          swap1\n          dup2\n          mstore\n          0x20\n          add\n          0x00\n          keccak256\n          sload\n            /* \"contracts/16_Dex.sol\":2236:2263  return balances[tokenOwner] */\n          swap1\n          pop\n            /* \"contracts/16_Dex.sol\":2150:2270  function balanceOf(address tokenOwner) public override view returns(uint256){... */\n          swap2\n          swap1\n          pop\n          jump\t// out\n            /* \"contracts/16_Dex.sol\":1580:1619  string public constant symbol=\"ERC-XCC\" */\n        tag_42:\n          mload(0x40)\n          dup1\n          0x40\n          add\n          0x40\n          mstore\n          dup1\n          0x07\n          dup2\n          mstore\n          0x20\n          add\n          0x4552432d58434300000000000000000000000000000000000000000000000000\n          dup2\n          mstore\n          pop\n          dup2\n          jump\t// out\n            /* \"contracts/16_Dex.sol\":2358:2752  function transfer(address receiver, uint256 numTokens) public override returns(bool){... */\n        tag_47:\n            /* \"contracts/16_Dex.sol\":2437:2441  bool */\n          0x00\n            /* \"contracts/16_Dex.sol\":2471:2479  balances */\n          dup1\n            /* \"contracts/16_Dex.sol\":2471:2491  balances[msg.sender] */\n          0x00\n            /* \"contracts/16_Dex.sol\":2480:2490  msg.sender */\n          caller\n            /* \"contracts/16_Dex.sol\":2471:2491  balances[msg.sender] */\n          0xffffffffffffffffffffffffffffffffffffffff\n          and\n          0xffffffffffffffffffffffffffffffffffffffff\n          and\n          dup2\n          mstore\n          0x20\n          add\n          swap1\n          dup2\n          mstore\n          0x20\n          add\n          0x00\n          keccak256\n          sload\n            /* \"contracts/16_Dex.sol\":2460:2469  numTokens */\n          dup3\n            /* \"contracts/16_Dex.sol\":2460:2491  numTokens<=balances[msg.sender] */\n          gt\n          iszero\n            /* \"contracts/16_Dex.sol\":2452:2492  require(numTokens<=balances[msg.sender]) */\n          tag_71\n          jumpi\n          0x00\n          dup1\n          revert\n        tag_71:\n            /* \"contracts/16_Dex.sol\":2523:2558  balances[msg.sender].sub(numTokens) */\n          tag_72\n            /* \"contracts/16_Dex.sol\":2548:2557  numTokens */\n          dup3\n            /* \"contracts/16_Dex.sol\":2523:2531  balances */\n          0x00\n            /* \"contracts/16_Dex.sol\":2523:2543  balances[msg.sender] */\n          dup1\n            /* \"contracts/16_Dex.sol\":2532:2542  msg.sender */\n          caller\n            /* \"contracts/16_Dex.sol\":2523:2543  balances[msg.sender] */\n          0xffffffffffffffffffffffffffffffffffffffff\n          and\n          0xffffffffffffffffffffffffffffffffffffffff\n          and\n          dup2\n          mstore\n          0x20\n          add\n          swap1\n          dup2\n          mstore\n          0x20\n          add\n          0x00\n          keccak256\n          sload\n            /* \"contracts/16_Dex.sol\":2523:2547  balances[msg.sender].sub */\n          tag_63\n          swap1\n            /* \"contracts/16_Dex.sol\":2523:2558  balances[msg.sender].sub(numTokens) */\n          swap2\n          swap1\n          0xffffffff\n          and\n          jump\t// in\n        tag_72:\n            /* \"contracts/16_Dex.sol\":2502:2510  balances */\n          0x00\n            /* \"contracts/16_Dex.sol\":2502:2522  balances[msg.sender] */\n          dup1\n            /* \"contracts/16_Dex.sol\":2511:2521  msg.sender */\n          caller\n            /* \"contracts/16_Dex.sol\":2502:2522  balances[msg.sender] */\n          0xffffffffffffffffffffffffffffffffffffffff\n          and\n          0xffffffffffffffffffffffffffffffffffffffff\n          and\n          dup2\n          mstore\n          0x20\n          add\n          swap1\n          dup2\n          mstore\n          0x20\n          add\n          0x00\n          keccak256\n            /* \"contracts/16_Dex.sol\":2502:2558  balances[msg.sender]=balances[msg.sender].sub(numTokens) */\n          dup2\n          swap1\n          sstore\n          pop\n            /* \"contracts/16_Dex.sol\":2638:2671  balances[receiver].add(numTokens) */\n          tag_73\n            /* \"contracts/16_Dex.sol\":2661:2670  numTokens */\n          dup3\n            /* \"contracts/16_Dex.sol\":2638:2646  balances */\n          0x00\n            /* \"contracts/16_Dex.sol\":2638:2656  balances[receiver] */\n          dup1\n            /* \"contracts/16_Dex.sol\":2647:2655  receiver */\n          dup7\n            /* \"contracts/16_Dex.sol\":2638:2656  balances[receiver] */\n          0xffffffffffffffffffffffffffffffffffffffff\n          and\n          0xffffffffffffffffffffffffffffffffffffffff\n          and\n          dup2\n          mstore\n          0x20\n          add\n          swap1\n          dup2\n          mstore\n          0x20\n          add\n          0x00\n          keccak256\n          sload\n            /* \"contracts/16_Dex.sol\":2638:2660  balances[receiver].add */\n          tag_66\n          swap1\n            /* \"contracts/16_Dex.sol\":2638:2671  balances[receiver].add(numTokens) */\n          swap2\n          swap1\n          0xffffffff\n          and\n          jump\t// in\n        tag_73:\n            /* \"contracts/16_Dex.sol\":2619:2627  balances */\n          0x00\n            /* \"contracts/16_Dex.sol\":2619:2637  balances[receiver] */\n          dup1\n            /* \"contracts/16_Dex.sol\":2628:2636  receiver */\n          dup6\n            /* \"contracts/16_Dex.sol\":2619:2637  balances[receiver] */\n          0xffffffffffffffffffffffffffffffffffffffff\n          and\n          0xffffffffffffffffffffffffffffffffffffffff\n          and\n          dup2\n          mstore\n          0x20\n          add\n          swap1\n          dup2\n          mstore\n          0x20\n          add\n          0x00\n          keccak256\n            /* \"contracts/16_Dex.sol\":2619:2671  balances[receiver]=balances[receiver].add(numTokens) */\n          dup2\n          swap1\n          sstore\n          pop\n            /* \"contracts/16_Dex.sol\":2705:2713  receiver */\n          dup3\n            /* \"contracts/16_Dex.sol\":2686:2724  Tranfer(msg.sender,receiver,numTokens) */\n          0xffffffffffffffffffffffffffffffffffffffff\n          and\n            /* \"contracts/16_Dex.sol\":2694:2704  msg.sender */\n          caller\n            /* \"contracts/16_Dex.sol\":2686:2724  Tranfer(msg.sender,receiver,numTokens) */\n          0xffffffffffffffffffffffffffffffffffffffff\n          and\n          0x5225eac2a7facfbeb099c00a4cc7c457701324f1fd84b84b14033f9e911374a4\n            /* \"contracts/16_Dex.sol\":2714:2723  numTokens */\n          dup5\n            /* \"contracts/16_Dex.sol\":2686:2724  Tranfer(msg.sender,receiver,numTokens) */\n          mload(0x40)\n          tag_74\n          swap2\n          swap1\n          tag_21\n          jump\t// in\n        tag_74:\n          mload(0x40)\n          dup1\n          swap2\n          sub\n          swap1\n          log3\n            /* \"contracts/16_Dex.sol\":2741:2745  true */\n          0x01\n            /* \"contracts/16_Dex.sol\":2734:2745  return true */\n          swap1\n          pop\n            /* \"contracts/16_Dex.sol\":2358:2752  function transfer(address receiver, uint256 numTokens) public override returns(bool){... */\n          swap3\n          swap2\n          pop\n          pop\n          jump\t// out\n            /* \"contracts/16_Dex.sol\":2986:3125  function allowance(address owner, address delegate) external override view returns(uint256){... */\n        tag_52:\n            /* \"contracts/16_Dex.sol\":3069:3076  uint256 */\n          0x00\n            /* \"contracts/16_Dex.sol\":3094:3101  allowed */\n          0x01\n            /* \"contracts/16_Dex.sol\":3094:3108  allowed[owner] */\n          0x00\n            /* \"contracts/16_Dex.sol\":3102:3107  owner */\n          dup5\n            /* \"contracts/16_Dex.sol\":3094:3108  allowed[owner] */\n          0xffffffffffffffffffffffffffffffffffffffff\n          and\n          0xffffffffffffffffffffffffffffffffffffffff\n          and\n          dup2\n          mstore\n          0x20\n          add\n          swap1\n          dup2\n          mstore\n          0x20\n          add\n          0x00\n          keccak256\n            /* \"contracts/16_Dex.sol\":3094:3118  allowed[owner][delegate] */\n          0x00\n            /* \"contracts/16_Dex.sol\":3109:3117  delegate */\n          dup4\n            /* \"contracts/16_Dex.sol\":3094:3118  allowed[owner][delegate] */\n          0xffffffffffffffffffffffffffffffffffffffff\n          and\n          0xffffffffffffffffffffffffffffffffffffffff\n          and\n          dup2\n          mstore\n          0x20\n          add\n          swap1\n          dup2\n          mstore\n          0x20\n          add\n          0x00\n          keccak256\n          sload\n            /* \"contracts/16_Dex.sol\":3087:3118  return allowed[owner][delegate] */\n          swap1\n          pop\n            /* \"contracts/16_Dex.sol\":2986:3125  function allowance(address owner, address delegate) external override view returns(uint256){... */\n          swap3\n          swap2\n          pop\n          pop\n          jump\t// out\n            /* \"contracts/16_Dex.sol\":2758:2980  function approve(address owner, address delegate, uint256 numTokens) external override returns (bool){... */\n        tag_56:\n            /* \"contracts/16_Dex.sol\":2854:2858  bool */\n          0x00\n            /* \"contracts/16_Dex.sol\":2894:2903  numTokens */\n          dup2\n            /* \"contracts/16_Dex.sol\":2869:2876  allowed */\n          0x01\n            /* \"contracts/16_Dex.sol\":2869:2883  allowed[owner] */\n          0x00\n            /* \"contracts/16_Dex.sol\":2877:2882  owner */\n          dup7\n            /* \"contracts/16_Dex.sol\":2869:2883  allowed[owner] */\n          0xffffffffffffffffffffffffffffffffffffffff\n          and\n          0xffffffffffffffffffffffffffffffffffffffff\n          and\n          dup2\n          mstore\n          0x20\n          add\n          swap1\n          dup2\n          mstore\n          0x20\n          add\n          0x00\n          keccak256\n            /* \"contracts/16_Dex.sol\":2869:2893  allowed[owner][delegate] */\n          0x00\n            /* \"contracts/16_Dex.sol\":2884:2892  delegate */\n          dup6\n            /* \"contracts/16_Dex.sol\":2869:2893  allowed[owner][delegate] */\n          0xffffffffffffffffffffffffffffffffffffffff\n          and\n          0xffffffffffffffffffffffffffffffffffffffff\n          and\n          dup2\n          mstore\n          0x20\n          add\n          swap1\n          dup2\n          mstore\n          0x20\n          add\n          0x00\n          keccak256\n            /* \"contracts/16_Dex.sol\":2869:2903  allowed[owner][delegate]=numTokens */\n          dup2\n          swap1\n          sstore\n          pop\n            /* \"contracts/16_Dex.sol\":2933:2941  delegate */\n          dup3\n            /* \"contracts/16_Dex.sol\":2918:2952  Approval(owner,delegate,numTokens) */\n          0xffffffffffffffffffffffffffffffffffffffff\n          and\n            /* \"contracts/16_Dex.sol\":2927:2932  owner */\n          dup5\n            /* \"contracts/16_Dex.sol\":2918:2952  Approval(owner,delegate,numTokens) */\n          0xffffffffffffffffffffffffffffffffffffffff\n          and\n          0x8c5be1e5ebec7d5bd14f71427d1e84f3dd0314c0f7b2291e5b200ac8c7c3b925\n            /* \"contracts/16_Dex.sol\":2942:2951  numTokens */\n          dup5\n            /* \"contracts/16_Dex.sol\":2918:2952  Approval(owner,delegate,numTokens) */\n          mload(0x40)\n          tag_77\n          swap2\n          swap1\n          tag_21\n          jump\t// in\n        tag_77:\n          mload(0x40)\n          dup1\n          swap2\n          sub\n          swap1\n          log3\n            /* \"contracts/16_Dex.sol\":2969:2973  true */\n          0x01\n            /* \"contracts/16_Dex.sol\":2962:2973  return true */\n          swap1\n          pop\n            /* \"contracts/16_Dex.sol\":2758:2980  function approve(address owner, address delegate, uint256 numTokens) external override returns (bool){... */\n          swap4\n          swap3\n          pop\n          pop\n          pop\n          jump\t// out\n            /* \"contracts/16_Dex.sol\":433:547  function sub(uint256 a, uint256 b) internal pure returns(uint256){... */\n        tag_63:\n            /* \"contracts/16_Dex.sol\":490:497  uint256 */\n          0x00\n            /* \"contracts/16_Dex.sol\":518:519  a */\n          dup3\n            /* \"contracts/16_Dex.sol\":515:516  b */\n          dup3\n            /* \"contracts/16_Dex.sol\":515:519  b<=a */\n          gt\n          iszero\n            /* \"contracts/16_Dex.sol\":508:520  assert(b<=a) */\n          tag_79\n          jumpi\n          tag_80\n          tag_81\n          jump\t// in\n        tag_80:\n        tag_79:\n            /* \"contracts/16_Dex.sol\":539:540  b */\n          dup2\n            /* \"contracts/16_Dex.sol\":537:538  a */\n          dup4\n            /* \"contracts/16_Dex.sol\":537:540  a-b */\n          tag_82\n          swap2\n          swap1\n          tag_83\n          jump\t// in\n        tag_82:\n            /* \"contracts/16_Dex.sol\":530:540  return a-b */\n          swap1\n          pop\n            /* \"contracts/16_Dex.sol\":433:547  function sub(uint256 a, uint256 b) internal pure returns(uint256){... */\n          swap3\n          swap2\n          pop\n          pop\n          jump\t// out\n            /* \"contracts/16_Dex.sol\":552:687  function add(uint256 a, uint256 b) internal pure returns(uint256){... */\n        tag_66:\n            /* \"contracts/16_Dex.sol\":609:616  uint256 */\n          0x00\n            /* \"contracts/16_Dex.sol\":627:636  uint256 c */\n          dup1\n            /* \"contracts/16_Dex.sol\":639:640  b */\n          dup3\n            /* \"contracts/16_Dex.sol\":637:638  a */\n          dup5\n            /* \"contracts/16_Dex.sol\":637:640  a+b */\n          tag_85\n          swap2\n          swap1\n          tag_86\n          jump\t// in\n        tag_85:\n            /* \"contracts/16_Dex.sol\":627:640  uint256 c=a+b */\n          swap1\n          pop\n            /* \"contracts/16_Dex.sol\":660:661  a */\n          dup4\n            /* \"contracts/16_Dex.sol\":657:658  c */\n          dup2\n            /* \"contracts/16_Dex.sol\":657:661  c>=a */\n          lt\n          iszero\n            /* \"contracts/16_Dex.sol\":650:662  assert(c>=a) */\n          tag_87\n          jumpi\n          tag_88\n          tag_81\n          jump\t// in\n        tag_88:\n        tag_87:\n            /* \"contracts/16_Dex.sol\":679:680  c */\n          dup1\n            /* \"contracts/16_Dex.sol\":672:680  return c */\n          swap2\n          pop\n          pop\n            /* \"contracts/16_Dex.sol\":552:687  function add(uint256 a, uint256 b) internal pure returns(uint256){... */\n          swap3\n          swap2\n          pop\n          pop\n          jump\t// out\n            /* \"#utility.yul\":7:146   */\n        tag_90:\n            /* \"#utility.yul\":53:58   */\n          0x00\n            /* \"#utility.yul\":91:97   */\n          dup2\n            /* \"#utility.yul\":78:98   */\n          calldataload\n            /* \"#utility.yul\":69:98   */\n          swap1\n          pop\n            /* \"#utility.yul\":107:140   */\n          tag_92\n            /* \"#utility.yul\":134:139   */\n          dup2\n            /* \"#utility.yul\":107:140   */\n          tag_93\n          jump\t// in\n        tag_92:\n            /* \"#utility.yul\":7:146   */\n          swap3\n          swap2\n          pop\n          pop\n          jump\t// out\n            /* \"#utility.yul\":152:291   */\n        tag_94:\n            /* \"#utility.yul\":198:203   */\n          0x00\n            /* \"#utility.yul\":236:242   */\n          dup2\n            /* \"#utility.yul\":223:243   */\n          calldataload\n            /* \"#utility.yul\":214:243   */\n          swap1\n          pop\n            /* \"#utility.yul\":252:285   */\n          tag_96\n            /* \"#utility.yul\":279:284   */\n          dup2\n            /* \"#utility.yul\":252:285   */\n          tag_97\n          jump\t// in\n        tag_96:\n            /* \"#utility.yul\":152:291   */\n          swap3\n          swap2\n          pop\n          pop\n          jump\t// out\n            /* \"#utility.yul\":297:626   */\n        tag_38:\n            /* \"#utility.yul\":356:362   */\n          0x00\n            /* \"#utility.yul\":405:407   */\n          0x20\n            /* \"#utility.yul\":393:402   */\n          dup3\n            /* \"#utility.yul\":384:391   */\n          dup5\n            /* \"#utility.yul\":380:403   */\n          sub\n            /* \"#utility.yul\":376:408   */\n          slt\n            /* \"#utility.yul\":373:492   */\n          iszero\n          tag_99\n          jumpi\n            /* \"#utility.yul\":411:490   */\n          tag_100\n          tag_101\n          jump\t// in\n        tag_100:\n            /* \"#utility.yul\":373:492   */\n        tag_99:\n            /* \"#utility.yul\":531:532   */\n          0x00\n            /* \"#utility.yul\":556:609   */\n          tag_102\n            /* \"#utility.yul\":601:608   */\n          dup5\n            /* \"#utility.yul\":592:598   */\n          dup3\n            /* \"#utility.yul\":581:590   */\n          dup6\n            /* \"#utility.yul\":577:599   */\n          add\n            /* \"#utility.yul\":556:609   */\n          tag_90\n          jump\t// in\n        tag_102:\n            /* \"#utility.yul\":546:609   */\n          swap2\n          pop\n            /* \"#utility.yul\":502:619   */\n          pop\n            /* \"#utility.yul\":297:626   */\n          swap3\n          swap2\n          pop\n          pop\n          jump\t// out\n            /* \"#utility.yul\":632:1106   */\n        tag_51:\n            /* \"#utility.yul\":700:706   */\n          0x00\n            /* \"#utility.yul\":708:714   */\n          dup1\n            /* \"#utility.yul\":757:759   */\n          0x40\n            /* \"#utility.yul\":745:754   */\n          dup4\n            /* \"#utility.yul\":736:743   */\n          dup6\n            /* \"#utility.yul\":732:755   */\n          sub\n            /* \"#utility.yul\":728:760   */\n          slt\n            /* \"#utility.yul\":725:844   */\n          iszero\n          tag_104\n          jumpi\n            /* \"#utility.yul\":763:842   */\n          tag_105\n          tag_101\n          jump\t// in\n        tag_105:\n            /* \"#utility.yul\":725:844   */\n        tag_104:\n            /* \"#utility.yul\":883:884   */\n          0x00\n            /* \"#utility.yul\":908:961   */\n          tag_106\n            /* \"#utility.yul\":953:960   */\n          dup6\n            /* \"#utility.yul\":944:950   */\n          dup3\n            /* \"#utility.yul\":933:942   */\n          dup7\n            /* \"#utility.yul\":929:951   */\n          add\n            /* \"#utility.yul\":908:961   */\n          tag_90\n          jump\t// in\n        tag_106:\n            /* \"#utility.yul\":898:961   */\n          swap3\n          pop\n            /* \"#utility.yul\":854:971   */\n          pop\n            /* \"#utility.yul\":1010:1012   */\n          0x20\n            /* \"#utility.yul\":1036:1089   */\n          tag_107\n            /* \"#utility.yul\":1081:1088   */\n          dup6\n            /* \"#utility.yul\":1072:1078   */\n          dup3\n            /* \"#utility.yul\":1061:1070   */\n          dup7\n            /* \"#utility.yul\":1057:1079   */\n          add\n            /* \"#utility.yul\":1036:1089   */\n          tag_90\n          jump\t// in\n        tag_107:\n            /* \"#utility.yul\":1026:1089   */\n          swap2\n          pop\n            /* \"#utility.yul\":981:1099   */\n          pop\n            /* \"#utility.yul\":632:1106   */\n          swap3\n          pop\n          swap3\n          swap1\n          pop\n          jump\t// out\n            /* \"#utility.yul\":1112:1731   */\n        tag_24:\n            /* \"#utility.yul\":1189:1195   */\n          0x00\n            /* \"#utility.yul\":1197:1203   */\n          dup1\n            /* \"#utility.yul\":1205:1211   */\n          0x00\n            /* \"#utility.yul\":1254:1256   */\n          0x60\n            /* \"#utility.yul\":1242:1251   */\n          dup5\n            /* \"#utility.yul\":1233:1240   */\n          dup7\n            /* \"#utility.yul\":1229:1252   */\n          sub\n            /* \"#utility.yul\":1225:1257   */\n          slt\n            /* \"#utility.yul\":1222:1341   */\n          iszero\n          tag_109\n          jumpi\n            /* \"#utility.yul\":1260:1339   */\n          tag_110\n          tag_101\n          jump\t// in\n        tag_110:\n            /* \"#utility.yul\":1222:1341   */\n        tag_109:\n            /* \"#utility.yul\":1380:1381   */\n          0x00\n            /* \"#utility.yul\":1405:1458   */\n          tag_111\n            /* \"#utility.yul\":1450:1457   */\n          dup7\n            /* \"#utility.yul\":1441:1447   */\n          dup3\n            /* \"#utility.yul\":1430:1439   */\n          dup8\n            /* \"#utility.yul\":1426:1448   */\n          add\n            /* \"#utility.yul\":1405:1458   */\n          tag_90\n          jump\t// in\n        tag_111:\n            /* \"#utility.yul\":1395:1458   */\n          swap4\n          pop\n            /* \"#utility.yul\":1351:1468   */\n          pop\n            /* \"#utility.yul\":1507:1509   */\n          0x20\n            /* \"#utility.yul\":1533:1586   */\n          tag_112\n            /* \"#utility.yul\":1578:1585   */\n          dup7\n            /* \"#utility.yul\":1569:1575   */\n          dup3\n            /* \"#utility.yul\":1558:1567   */\n          dup8\n            /* \"#utility.yul\":1554:1576   */\n          add\n            /* \"#utility.yul\":1533:1586   */\n          tag_90\n          jump\t// in\n        tag_112:\n            /* \"#utility.yul\":1523:1586   */\n          swap3\n          pop\n            /* \"#utility.yul\":1478:1596   */\n          pop\n            /* \"#utility.yul\":1635:1637   */\n          0x40\n            /* \"#utility.yul\":1661:1714   */\n          tag_113\n            /* \"#utility.yul\":1706:1713   */\n          dup7\n            /* \"#utility.yul\":1697:1703   */\n          dup3\n            /* \"#utility.yul\":1686:1695   */\n          dup8\n            /* \"#utility.yul\":1682:1704   */\n          add\n            /* \"#utility.yul\":1661:1714   */\n          tag_94\n          jump\t// in\n        tag_113:\n            /* \"#utility.yul\":1651:1714   */\n          swap2\n          pop\n            /* \"#utility.yul\":1606:1724   */\n          pop\n            /* \"#utility.yul\":1112:1731   */\n          swap3\n          pop\n          swap3\n          pop\n          swap3\n          jump\t// out\n            /* \"#utility.yul\":1737:2211   */\n        tag_46:\n            /* \"#utility.yul\":1805:1811   */\n          0x00\n            /* \"#utility.yul\":1813:1819   */\n          dup1\n            /* \"#utility.yul\":1862:1864   */\n          0x40\n            /* \"#utility.yul\":1850:1859   */\n          dup4\n            /* \"#utility.yul\":1841:1848   */\n          dup6\n            /* \"#utility.yul\":1837:1860   */\n          sub\n            /* \"#utility.yul\":1833:1865   */\n          slt\n            /* \"#utility.yul\":1830:1949   */\n          iszero\n          tag_115\n          jumpi\n            /* \"#utility.yul\":1868:1947   */\n          tag_116\n          tag_101\n          jump\t// in\n        tag_116:\n            /* \"#utility.yul\":1830:1949   */\n        tag_115:\n            /* \"#utility.yul\":1988:1989   */\n          0x00\n            /* \"#utility.yul\":2013:2066   */\n          tag_117\n            /* \"#utility.yul\":2058:2065   */\n          dup6\n            /* \"#utility.yul\":2049:2055   */\n          dup3\n            /* \"#utility.yul\":2038:2047   */\n          dup7\n            /* \"#utility.yul\":2034:2056   */\n          add\n            /* \"#utility.yul\":2013:2066   */\n          tag_90\n          jump\t// in\n        tag_117:\n            /* \"#utility.yul\":2003:2066   */\n          swap3\n          pop\n            /* \"#utility.yul\":1959:2076   */\n          pop\n            /* \"#utility.yul\":2115:2117   */\n          0x20\n            /* \"#utility.yul\":2141:2194   */\n          tag_118\n            /* \"#utility.yul\":2186:2193   */\n          dup6\n            /* \"#utility.yul\":2177:2183   */\n          dup3\n            /* \"#utility.yul\":2166:2175   */\n          dup7\n            /* \"#utility.yul\":2162:2184   */\n          add\n            /* \"#utility.yul\":2141:2194   */\n          tag_94\n          jump\t// in\n        tag_118:\n            /* \"#utility.yul\":2131:2194   */\n          swap2\n          pop\n            /* \"#utility.yul\":2086:2204   */\n          pop\n            /* \"#utility.yul\":1737:2211   */\n          swap3\n          pop\n          swap3\n          swap1\n          pop\n          jump\t// out\n            /* \"#utility.yul\":2217:2335   */\n        tag_119:\n            /* \"#utility.yul\":2304:2328   */\n          tag_121\n            /* \"#utility.yul\":2322:2327   */\n          dup2\n            /* \"#utility.yul\":2304:2328   */\n          tag_122\n          jump\t// in\n        tag_121:\n            /* \"#utility.yul\":2299:2302   */\n          dup3\n            /* \"#utility.yul\":2292:2329   */\n          mstore\n            /* \"#utility.yul\":2217:2335   */\n          pop\n          pop\n          jump\t// out\n            /* \"#utility.yul\":2341:2450   */\n        tag_123:\n            /* \"#utility.yul\":2422:2443   */\n          tag_125\n            /* \"#utility.yul\":2437:2442   */\n          dup2\n            /* \"#utility.yul\":2422:2443   */\n          tag_126\n          jump\t// in\n        tag_125:\n            /* \"#utility.yul\":2417:2420   */\n          dup3\n            /* \"#utility.yul\":2410:2444   */\n          mstore\n            /* \"#utility.yul\":2341:2450   */\n          pop\n          pop\n          jump\t// out\n            /* \"#utility.yul\":2456:2820   */\n        tag_127:\n            /* \"#utility.yul\":2544:2547   */\n          0x00\n            /* \"#utility.yul\":2572:2611   */\n          tag_129\n            /* \"#utility.yul\":2605:2610   */\n          dup3\n            /* \"#utility.yul\":2572:2611   */\n          tag_130\n          jump\t// in\n        tag_129:\n            /* \"#utility.yul\":2627:2698   */\n          tag_131\n            /* \"#utility.yul\":2691:2697   */\n          dup2\n            /* \"#utility.yul\":2686:2689   */\n          dup6\n            /* \"#utility.yul\":2627:2698   */\n          tag_132\n          jump\t// in\n        tag_131:\n            /* \"#utility.yul\":2620:2698   */\n          swap4\n          pop\n            /* \"#utility.yul\":2707:2759   */\n          tag_133\n            /* \"#utility.yul\":2752:2758   */\n          dup2\n            /* \"#utility.yul\":2747:2750   */\n          dup6\n            /* \"#utility.yul\":2740:2744   */\n          0x20\n            /* \"#utility.yul\":2733:2738   */\n          dup7\n            /* \"#utility.yul\":2729:2745   */\n          add\n            /* \"#utility.yul\":2707:2759   */\n          tag_134\n          jump\t// in\n        tag_133:\n            /* \"#utility.yul\":2784:2813   */\n          tag_135\n            /* \"#utility.yul\":2806:2812   */\n          dup2\n            /* \"#utility.yul\":2784:2813   */\n          tag_136\n          jump\t// in\n        tag_135:\n            /* \"#utility.yul\":2779:2782   */\n          dup5\n            /* \"#utility.yul\":2775:2814   */\n          add\n            /* \"#utility.yul\":2768:2814   */\n          swap2\n          pop\n            /* \"#utility.yul\":2548:2820   */\n          pop\n            /* \"#utility.yul\":2456:2820   */\n          swap3\n          swap2\n          pop\n          pop\n          jump\t// out\n            /* \"#utility.yul\":2826:2944   */\n        tag_137:\n            /* \"#utility.yul\":2913:2937   */\n          tag_139\n            /* \"#utility.yul\":2931:2936   */\n          dup2\n            /* \"#utility.yul\":2913:2937   */\n          tag_140\n          jump\t// in\n        tag_139:\n            /* \"#utility.yul\":2908:2911   */\n          dup3\n            /* \"#utility.yul\":2901:2938   */\n          mstore\n            /* \"#utility.yul\":2826:2944   */\n          pop\n          pop\n          jump\t// out\n            /* \"#utility.yul\":2950:3062   */\n        tag_141:\n            /* \"#utility.yul\":3033:3055   */\n          tag_143\n            /* \"#utility.yul\":3049:3054   */\n          dup2\n            /* \"#utility.yul\":3033:3055   */\n          tag_144\n          jump\t// in\n        tag_143:\n            /* \"#utility.yul\":3028:3031   */\n          dup3\n            /* \"#utility.yul\":3021:3056   */\n          mstore\n            /* \"#utility.yul\":2950:3062   */\n          pop\n          pop\n          jump\t// out\n            /* \"#utility.yul\":3068:3290   */\n        tag_35:\n            /* \"#utility.yul\":3161:3165   */\n          0x00\n            /* \"#utility.yul\":3199:3201   */\n          0x20\n            /* \"#utility.yul\":3188:3197   */\n          dup3\n            /* \"#utility.yul\":3184:3202   */\n          add\n            /* \"#utility.yul\":3176:3202   */\n          swap1\n          pop\n            /* \"#utility.yul\":3212:3283   */\n          tag_146\n            /* \"#utility.yul\":3280:3281   */\n          0x00\n            /* \"#utility.yul\":3269:3278   */\n          dup4\n            /* \"#utility.yul\":3265:3282   */\n          add\n            /* \"#utility.yul\":3256:3262   */\n          dup5\n            /* \"#utility.yul\":3212:3283   */\n          tag_119\n          jump\t// in\n        tag_146:\n            /* \"#utility.yul\":3068:3290   */\n          swap3\n          swap2\n          pop\n          pop\n          jump\t// out\n            /* \"#utility.yul\":3296:3506   */\n        tag_27:\n            /* \"#utility.yul\":3383:3387   */\n          0x00\n            /* \"#utility.yul\":3421:3423   */\n          0x20\n            /* \"#utility.yul\":3410:3419   */\n          dup3\n            /* \"#utility.yul\":3406:3424   */\n          add\n            /* \"#utility.yul\":3398:3424   */\n          swap1\n          pop\n            /* \"#utility.yul\":3434:3499   */\n          tag_148\n            /* \"#utility.yul\":3496:3497   */\n          0x00\n            /* \"#utility.yul\":3485:3494   */\n          dup4\n            /* \"#utility.yul\":3481:3498   */\n          add\n            /* \"#utility.yul\":3472:3478   */\n          dup5\n            /* \"#utility.yul\":3434:3499   */\n          tag_123\n          jump\t// in\n        tag_148:\n            /* \"#utility.yul\":3296:3506   */\n          swap3\n          swap2\n          pop\n          pop\n          jump\t// out\n            /* \"#utility.yul\":3512:3825   */\n        tag_17:\n            /* \"#utility.yul\":3625:3629   */\n          0x00\n            /* \"#utility.yul\":3663:3665   */\n          0x20\n            /* \"#utility.yul\":3652:3661   */\n          dup3\n            /* \"#utility.yul\":3648:3666   */\n          add\n            /* \"#utility.yul\":3640:3666   */\n          swap1\n          pop\n            /* \"#utility.yul\":3712:3721   */\n          dup2\n            /* \"#utility.yul\":3706:3710   */\n          dup2\n            /* \"#utility.yul\":3702:3722   */\n          sub\n            /* \"#utility.yul\":3698:3699   */\n          0x00\n            /* \"#utility.yul\":3687:3696   */\n          dup4\n            /* \"#utility.yul\":3683:3700   */\n          add\n            /* \"#utility.yul\":3676:3723   */\n          mstore\n            /* \"#utility.yul\":3740:3818   */\n          tag_150\n            /* \"#utility.yul\":3813:3817   */\n          dup2\n            /* \"#utility.yul\":3804:3810   */\n          dup5\n            /* \"#utility.yul\":3740:3818   */\n          tag_127\n          jump\t// in\n        tag_150:\n            /* \"#utility.yul\":3732:3818   */\n          swap1\n          pop\n            /* \"#utility.yul\":3512:3825   */\n          swap3\n          swap2\n          pop\n          pop\n          jump\t// out\n            /* \"#utility.yul\":3831:4053   */\n        tag_21:\n            /* \"#utility.yul\":3924:3928   */\n          0x00\n            /* \"#utility.yul\":3962:3964   */\n          0x20\n            /* \"#utility.yul\":3951:3960   */\n          dup3\n            /* \"#utility.yul\":3947:3965   */\n          add\n            /* \"#utility.yul\":3939:3965   */\n          swap1\n          pop\n            /* \"#utility.yul\":3975:4046   */\n          tag_152\n            /* \"#utility.yul\":4043:4044   */\n          0x00\n            /* \"#utility.yul\":4032:4041   */\n          dup4\n            /* \"#utility.yul\":4028:4045   */\n          add\n            /* \"#utility.yul\":4019:4025   */\n          dup5\n            /* \"#utility.yul\":3975:4046   */\n          tag_137\n          jump\t// in\n        tag_152:\n            /* \"#utility.yul\":3831:4053   */\n          swap3\n          swap2\n          pop\n          pop\n          jump\t// out\n            /* \"#utility.yul\":4059:4273   */\n        tag_31:\n            /* \"#utility.yul\":4148:4152   */\n          0x00\n            /* \"#utility.yul\":4186:4188   */\n          0x20\n            /* \"#utility.yul\":4175:4184   */\n          dup3\n            /* \"#utility.yul\":4171:4189   */\n          add\n            /* \"#utility.yul\":4163:4189   */\n          swap1\n          pop\n            /* \"#utility.yul\":4199:4266   */\n          tag_154\n            /* \"#utility.yul\":4263:4264   */\n          0x00\n            /* \"#utility.yul\":4252:4261   */\n          dup4\n            /* \"#utility.yul\":4248:4265   */\n          add\n            /* \"#utility.yul\":4239:4245   */\n          dup5\n            /* \"#utility.yul\":4199:4266   */\n          tag_141\n          jump\t// in\n        tag_154:\n            /* \"#utility.yul\":4059:4273   */\n          swap3\n          swap2\n          pop\n          pop\n          jump\t// out\n            /* \"#utility.yul\":4360:4459   */\n        tag_130:\n            /* \"#utility.yul\":4412:4418   */\n          0x00\n            /* \"#utility.yul\":4446:4451   */\n          dup2\n            /* \"#utility.yul\":4440:4452   */\n          mload\n            /* \"#utility.yul\":4430:4452   */\n          swap1\n          pop\n            /* \"#utility.yul\":4360:4459   */\n          swap2\n          swap1\n          pop\n          jump\t// out\n            /* \"#utility.yul\":4465:4634   */\n        tag_132:\n            /* \"#utility.yul\":4549:4560   */\n          0x00\n            /* \"#utility.yul\":4583:4589   */\n          dup3\n            /* \"#utility.yul\":4578:4581   */\n          dup3\n            /* \"#utility.yul\":4571:4590   */\n          mstore\n            /* \"#utility.yul\":4623:4627   */\n          0x20\n            /* \"#utility.yul\":4618:4621   */\n          dup3\n            /* \"#utility.yul\":4614:4628   */\n          add\n            /* \"#utility.yul\":4599:4628   */\n          swap1\n          pop\n            /* \"#utility.yul\":4465:4634   */\n          swap3\n          swap2\n          pop\n          pop\n          jump\t// out\n            /* \"#utility.yul\":4640:4945   */\n        tag_86:\n            /* \"#utility.yul\":4680:4683   */\n          0x00\n            /* \"#utility.yul\":4699:4719   */\n          tag_160\n            /* \"#utility.yul\":4717:4718   */\n          dup3\n            /* \"#utility.yul\":4699:4719   */\n          tag_140\n          jump\t// in\n        tag_160:\n            /* \"#utility.yul\":4694:4719   */\n          swap2\n          pop\n            /* \"#utility.yul\":4733:4753   */\n          tag_161\n            /* \"#utility.yul\":4751:4752   */\n          dup4\n            /* \"#utility.yul\":4733:4753   */\n          tag_140\n          jump\t// in\n        tag_161:\n            /* \"#utility.yul\":4728:4753   */\n          swap3\n          pop\n            /* \"#utility.yul\":4887:4888   */\n          dup3\n            /* \"#utility.yul\":4819:4885   */\n          0xffffffffffffffffffffffffffffffffffffffffffffffffffffffffffffffff\n            /* \"#utility.yul\":4815:4889   */\n          sub\n            /* \"#utility.yul\":4812:4813   */\n          dup3\n            /* \"#utility.yul\":4809:4890   */\n          gt\n            /* \"#utility.yul\":4806:4913   */\n          iszero\n          tag_162\n          jumpi\n            /* \"#utility.yul\":4893:4911   */\n          tag_163\n          tag_164\n          jump\t// in\n        tag_163:\n            /* \"#utility.yul\":4806:4913   */\n        tag_162:\n            /* \"#utility.yul\":4937:4938   */\n          dup3\n            /* \"#utility.yul\":4934:4935   */\n          dup3\n            /* \"#utility.yul\":4930:4939   */\n          add\n            /* \"#utility.yul\":4923:4939   */\n          swap1\n          pop\n            /* \"#utility.yul\":4640:4945   */\n          swap3\n          swap2\n          pop\n          pop\n          jump\t// out\n            /* \"#utility.yul\":4951:5142   */\n        tag_83:\n            /* \"#utility.yul\":4991:4995   */\n          0x00\n            /* \"#utility.yul\":5011:5031   */\n          tag_166\n            /* \"#utility.yul\":5029:5030   */\n          dup3\n            /* \"#utility.yul\":5011:5031   */\n          tag_140\n          jump\t// in\n        tag_166:\n            /* \"#utility.yul\":5006:5031   */\n          swap2\n          pop\n            /* \"#utility.yul\":5045:5065   */\n          tag_167\n            /* \"#utility.yul\":5063:5064   */\n          dup4\n            /* \"#utility.yul\":5045:5065   */\n          tag_140\n          jump\t// in\n        tag_167:\n            /* \"#utility.yul\":5040:5065   */\n          swap3\n          pop\n            /* \"#utility.yul\":5084:5085   */\n          dup3\n            /* \"#utility.yul\":5081:5082   */\n          dup3\n            /* \"#utility.yul\":5078:5086   */\n          lt\n            /* \"#utility.yul\":5075:5109   */\n          iszero\n          tag_168\n          jumpi\n            /* \"#utility.yul\":5089:5107   */\n          tag_169\n          tag_164\n          jump\t// in\n        tag_169:\n            /* \"#utility.yul\":5075:5109   */\n        tag_168:\n            /* \"#utility.yul\":5134:5135   */\n          dup3\n            /* \"#utility.yul\":5131:5132   */\n          dup3\n            /* \"#utility.yul\":5127:5136   */\n          sub\n            /* \"#utility.yul\":5119:5136   */\n          swap1\n          pop\n            /* \"#utility.yul\":4951:5142   */\n          swap3\n          swap2\n          pop\n          pop\n          jump\t// out\n            /* \"#utility.yul\":5148:5244   */\n        tag_122:\n            /* \"#utility.yul\":5185:5192   */\n          0x00\n            /* \"#utility.yul\":5214:5238   */\n          tag_171\n            /* \"#utility.yul\":5232:5237   */\n          dup3\n            /* \"#utility.yul\":5214:5238   */\n          tag_172\n          jump\t// in\n        tag_171:\n            /* \"#utility.yul\":5203:5238   */\n          swap1\n          pop\n            /* \"#utility.yul\":5148:5244   */\n          swap2\n          swap1\n          pop\n          jump\t// out\n            /* \"#utility.yul\":5250:5340   */\n        tag_126:\n            /* \"#utility.yul\":5284:5291   */\n          0x00\n            /* \"#utility.yul\":5327:5332   */\n          dup2\n            /* \"#utility.yul\":5320:5333   */\n          iszero\n            /* \"#utility.yul\":5313:5334   */\n          iszero\n            /* \"#utility.yul\":5302:5334   */\n          swap1\n          pop\n            /* \"#utility.yul\":5250:5340   */\n          swap2\n          swap1\n          pop\n          jump\t// out\n            /* \"#utility.yul\":5346:5472   */\n        tag_172:\n            /* \"#utility.yul\":5383:5390   */\n          0x00\n            /* \"#utility.yul\":5423:5465   */\n          0xffffffffffffffffffffffffffffffffffffffff\n            /* \"#utility.yul\":5416:5421   */\n          dup3\n            /* \"#utility.yul\":5412:5466   */\n          and\n            /* \"#utility.yul\":5401:5466   */\n          swap1\n          pop\n            /* \"#utility.yul\":5346:5472   */\n          swap2\n          swap1\n          pop\n          jump\t// out\n            /* \"#utility.yul\":5478:5555   */\n        tag_140:\n            /* \"#utility.yul\":5515:5522   */\n          0x00\n            /* \"#utility.yul\":5544:5549   */\n          dup2\n            /* \"#utility.yul\":5533:5549   */\n          swap1\n          pop\n            /* \"#utility.yul\":5478:5555   */\n          swap2\n          swap1\n          pop\n          jump\t// out\n            /* \"#utility.yul\":5561:5647   */\n        tag_144:\n            /* \"#utility.yul\":5596:5603   */\n          0x00\n            /* \"#utility.yul\":5636:5640   */\n          0xff\n            /* \"#utility.yul\":5629:5634   */\n          dup3\n            /* \"#utility.yul\":5625:5641   */\n          and\n            /* \"#utility.yul\":5614:5641   */\n          swap1\n          pop\n            /* \"#utility.yul\":5561:5647   */\n          swap2\n          swap1\n          pop\n          jump\t// out\n            /* \"#utility.yul\":5653:5960   */\n        tag_134:\n            /* \"#utility.yul\":5721:5722   */\n          0x00\n            /* \"#utility.yul\":5731:5844   */\n        tag_178:\n            /* \"#utility.yul\":5745:5751   */\n          dup4\n            /* \"#utility.yul\":5742:5743   */\n          dup2\n            /* \"#utility.yul\":5739:5752   */\n          lt\n            /* \"#utility.yul\":5731:5844   */\n          iszero\n          tag_180\n          jumpi\n            /* \"#utility.yul\":5830:5831   */\n          dup1\n            /* \"#utility.yul\":5825:5828   */\n          dup3\n            /* \"#utility.yul\":5821:5832   */\n          add\n            /* \"#utility.yul\":5815:5833   */\n          mload\n            /* \"#utility.yul\":5811:5812   */\n          dup2\n            /* \"#utility.yul\":5806:5809   */\n          dup5\n            /* \"#utility.yul\":5802:5813   */\n          add\n            /* \"#utility.yul\":5795:5834   */\n          mstore\n            /* \"#utility.yul\":5767:5769   */\n          0x20\n            /* \"#utility.yul\":5764:5765   */\n          dup2\n            /* \"#utility.yul\":5760:5770   */\n          add\n            /* \"#utility.yul\":5755:5770   */\n          swap1\n          pop\n            /* \"#utility.yul\":5731:5844   */\n          jump(tag_178)\n        tag_180:\n            /* \"#utility.yul\":5862:5868   */\n          dup4\n            /* \"#utility.yul\":5859:5860   */\n          dup2\n            /* \"#utility.yul\":5856:5869   */\n          gt\n            /* \"#utility.yul\":5853:5954   */\n          iszero\n          tag_181\n          jumpi\n            /* \"#utility.yul\":5942:5943   */\n          0x00\n            /* \"#utility.yul\":5933:5939   */\n          dup5\n            /* \"#utility.yul\":5928:5931   */\n          dup5\n            /* \"#utility.yul\":5924:5940   */\n          add\n            /* \"#utility.yul\":5917:5944   */\n          mstore\n            /* \"#utility.yul\":5853:5954   */\n        tag_181:\n            /* \"#utility.yul\":5702:5960   */\n          pop\n            /* \"#utility.yul\":5653:5960   */\n          pop\n          pop\n          pop\n          jump\t// out\n            /* \"#utility.yul\":5966:6146   */\n        tag_81:\n            /* \"#utility.yul\":6014:6091   */\n          0x4e487b7100000000000000000000000000000000000000000000000000000000\n            /* \"#utility.yul\":6011:6012   */\n          0x00\n            /* \"#utility.yul\":6004:6092   */\n          mstore\n            /* \"#utility.yul\":6111:6115   */\n          0x01\n            /* \"#utility.yul\":6108:6109   */\n          0x04\n            /* \"#utility.yul\":6101:6116   */\n          mstore\n            /* \"#utility.yul\":6135:6139   */\n          0x24\n            /* \"#utility.yul\":6132:6133   */\n          0x00\n            /* \"#utility.yul\":6125:6140   */\n          revert\n            /* \"#utility.yul\":6152:6332   */\n        tag_164:\n            /* \"#utility.yul\":6200:6277   */\n          0x4e487b7100000000000000000000000000000000000000000000000000000000\n            /* \"#utility.yul\":6197:6198   */\n          0x00\n            /* \"#utility.yul\":6190:6278   */\n          mstore\n            /* \"#utility.yul\":6297:6301   */\n          0x11\n            /* \"#utility.yul\":6294:6295   */\n          0x04\n            /* \"#utility.yul\":6287:6302   */\n          mstore\n            /* \"#utility.yul\":6321:6325   */\n          0x24\n            /* \"#utility.yul\":6318:6319   */\n          0x00\n            /* \"#utility.yul\":6311:6326   */\n          revert\n            /* \"#utility.yul\":6461:6578   */\n        tag_101:\n            /* \"#utility.yul\":6570:6571   */\n          0x00\n            /* \"#utility.yul\":6567:6568   */\n          dup1\n            /* \"#utility.yul\":6560:6572   */\n          revert\n            /* \"#utility.yul\":6584:6686   */\n        tag_136:\n            /* \"#utility.yul\":6625:6631   */\n          0x00\n            /* \"#utility.yul\":6676:6678   */\n          0x1f\n            /* \"#utility.yul\":6672:6679   */\n          not\n            /* \"#utility.yul\":6667:6669   */\n          0x1f\n            /* \"#utility.yul\":6660:6665   */\n          dup4\n            /* \"#utility.yul\":6656:6670   */\n          add\n            /* \"#utility.yul\":6652:6680   */\n          and\n            /* \"#utility.yul\":6642:6680   */\n          swap1\n          pop\n            /* \"#utility.yul\":6584:6686   */\n          swap2\n          swap1\n          pop\n          jump\t// out\n            /* \"#utility.yul\":6692:6814   */\n        tag_93:\n            /* \"#utility.yul\":6765:6789   */\n          tag_189\n            /* \"#utility.yul\":6783:6788   */\n          dup2\n            /* \"#utility.yul\":6765:6789   */\n          tag_122\n          jump\t// in\n        tag_189:\n            /* \"#utility.yul\":6758:6763   */\n          dup2\n            /* \"#utility.yul\":6755:6790   */\n          eq\n            /* \"#utility.yul\":6745:6808   */\n          tag_190\n          jumpi\n            /* \"#utility.yul\":6804:6805   */\n          0x00\n            /* \"#utility.yul\":6801:6802   */\n          dup1\n            /* \"#utility.yul\":6794:6806   */\n          revert\n            /* \"#utility.yul\":6745:6808   */\n        tag_190:\n            /* \"#utility.yul\":6692:6814   */\n          pop\n          jump\t// out\n            /* \"#utility.yul\":6820:6942   */\n        tag_97:\n            /* \"#utility.yul\":6893:6917   */\n          tag_192\n            /* \"#utility.yul\":6911:6916   */\n          dup2\n            /* \"#utility.yul\":6893:6917   */\n          tag_140\n          jump\t// in\n        tag_192:\n            /* \"#utility.yul\":6886:6891   */\n          dup2\n            /* \"#utility.yul\":6883:6918   */\n          eq\n            /* \"#utility.yul\":6873:6936   */\n          tag_193\n          jumpi\n            /* \"#utility.yul\":6932:6933   */\n          0x00\n            /* \"#utility.yul\":6929:6930   */\n          dup1\n            /* \"#utility.yul\":6922:6934   */\n          revert\n            /* \"#utility.yul\":6873:6936   */\n        tag_193:\n            /* \"#utility.yul\":6820:6942   */\n          pop\n          jump\t// out\n\n        auxdata: 0xa2646970667358221220fc1f7a11181e89b8f836ab022a7ac4df36dd30686d4c5476ef0faa01836c628e64736f6c63430008070033\n    }\n}\n",
				"bytecode": {
					"linkReferences": {},
					"object": "608060405234801561001057600080fd5b5060405161001d9061007e565b604051809103906000f080158015610039573d6000803e3d6000fd5b506000806101000a81548173ffffffffffffffffffffffffffffffffffffffff021916908373ffffffffffffffffffffffffffffffffffffffff16021790555061008b565b610ec8806110d383390190565b6110398061009a6000396000f3fe60806040526004361061009c5760003560e01c8063973e9b8b11610064578063973e9b8b14610178578063a6f2ae3a146101a3578063b759f954146101ad578063c4e41b22146101ea578063e4849b3214610215578063fc0c546a146102315761009c565b806310fe9ae8146100a157806338cc4831146100cc57806342948e18146100f7578063430f480114610122578063590791f21461014d575b600080fd5b3480156100ad57600080fd5b506100b661025c565b6040516100c39190610cc5565b60405180910390f35b3480156100d857600080fd5b506100e1610302565b6040516100ee9190610cc5565b60405180910390f35b34801561010357600080fd5b5061010c61030a565b6040516101199190610cc5565b60405180910390f35b34801561012e57600080fd5b50610137610312565b6040516101449190610e1f565b60405180910390f35b34801561015957600080fd5b506101626103c3565b60405161016f9190610e1f565b60405180910390f35b34801561018457600080fd5b5061018d610474565b60405161019a9190610e1f565b60405180910390f35b6101ab61052b565b005b3480156101b957600080fd5b506101d460048036038101906101cf9190610ba3565b61074d565b6040516101e19190610d69565b60405180910390f35b3480156101f657600080fd5b506101ff61080a565b60405161020c9190610e1f565b60405180910390f35b61022f600480360381019061022a9190610ba3565b6108b0565b005b34801561023d57600080fd5b50610246610ad1565b6040516102539190610d84565b60405180910390f35b60008060009054906101000a900473ffffffffffffffffffffffffffffffffffffffff1673ffffffffffffffffffffffffffffffffffffffff166338cc48316040518163ffffffff1660e01b815260040160206040518083038186803b1580156102c557600080fd5b505afa1580156102d9573d6000803e3d6000fd5b505050506040513d601f19601f820116820180604052508101906102fd9190610b49565b905090565b600030905090565b600033905090565b60008060009054906101000a900473ffffffffffffffffffffffffffffffffffffffff1673ffffffffffffffffffffffffffffffffffffffff166370a08231306040518263ffffffff1660e01b815260040161036e9190610cc5565b60206040518083038186803b15801561038657600080fd5b505afa15801561039a573d6000803e3d6000fd5b505050506040513d601f19601f820116820180604052508101906103be9190610bd0565b905090565b60008060009054906101000a900473ffffffffffffffffffffffffffffffffffffffff1673ffffffffffffffffffffffffffffffffffffffff166370a08231336040518263ffffffff1660e01b815260040161041f9190610cc5565b60206040518083038186803b15801561043757600080fd5b505afa15801561044b573d6000803e3d6000fd5b505050506040513d601f19601f8201168201806040525081019061046f9190610bd0565b905090565b60008060008054906101000a900473ffffffffffffffffffffffffffffffffffffffff1673ffffffffffffffffffffffffffffffffffffffff1663dd62ed3e33306040518363ffffffff1660e01b81526004016104d2929190610ce0565b60206040518083038186803b1580156104ea57600080fd5b505afa1580156104fe573d6000803e3d6000fd5b505050506040513d601f19601f820116820180604052508101906105229190610bd0565b90508091505090565b600034905060008060009054906101000a900473ffffffffffffffffffffffffffffffffffffffff1673ffffffffffffffffffffffffffffffffffffffff166370a08231306040518263ffffffff1660e01b815260040161058c9190610cc5565b60206040518083038186803b1580156105a457600080fd5b505afa1580156105b8573d6000803e3d6000fd5b505050506040513d601f19601f820116820180604052508101906105dc9190610bd0565b905060008211610621576040517f08c379a000000000000000000000000000000000000000000000000000000000815260040161061890610ddf565b60405180910390fd5b80821115610664576040517f08c379a000000000000000000000000000000000000000000000000000000000815260040161065b90610dbf565b60405180910390fd5b60008054906101000a900473ffffffffffffffffffffffffffffffffffffffff1673ffffffffffffffffffffffffffffffffffffffff1663a9059cbb33846040518363ffffffff1660e01b81526004016106bf929190610d40565b602060405180830381600087803b1580156106d957600080fd5b505af11580156106ed573d6000803e3d6000fd5b505050506040513d601f19601f820116820180604052508101906107119190610b76565b507f4e08ba899977cf7d4c2964bce71c6b9a7ef76ee5166a4c1249a1e08016e33ef1826040516107419190610e1f565b60405180910390a15050565b60008060008054906101000a900473ffffffffffffffffffffffffffffffffffffffff1673ffffffffffffffffffffffffffffffffffffffff1663e1f21c673330866040518463ffffffff1660e01b81526004016107ad93929190610d09565b602060405180830381600087803b1580156107c757600080fd5b505af11580156107db573d6000803e3d6000fd5b505050506040513d601f19601f820116820180604052508101906107ff9190610b76565b905080915050919050565b60008060009054906101000a900473ffffffffffffffffffffffffffffffffffffffff1673ffffffffffffffffffffffffffffffffffffffff166318160ddd6040518163ffffffff1660e01b815260040160206040518083038186803b15801561087357600080fd5b505afa158015610887573d6000803e3d6000fd5b505050506040513d601f19601f820116820180604052508101906108ab9190610bd0565b905090565b600081116108f3576040517f08c379a00000000000000000000000000000000000000000000000000000000081526004016108ea90610d9f565b60405180910390fd5b60008060009054906101000a900473ffffffffffffffffffffffffffffffffffffffff1673ffffffffffffffffffffffffffffffffffffffff1663dd62ed3e33306040518363ffffffff1660e01b8152600401610951929190610ce0565b60206040518083038186803b15801561096957600080fd5b505afa15801561097d573d6000803e3d6000fd5b505050506040513d601f19601f820116820180604052508101906109a19190610bd0565b9050818110156109e6576040517f08c379a00000000000000000000000000000000000000000000000000000000081526004016109dd90610dff565b60405180910390fd5b60008054906101000a900473ffffffffffffffffffffffffffffffffffffffff1673ffffffffffffffffffffffffffffffffffffffff166323b872dd3330856040518463ffffffff1660e01b8152600401610a4393929190610d09565b602060405180830381600087803b158015610a5d57600080fd5b505af1158015610a71573d6000803e3d6000fd5b505050506040513d601f19601f82011682018060405250810190610a959190610b76565b507f92f64ca637d023f354075a4be751b169c1a8a9ccb6d33cdd0cb352054399572782604051610ac59190610e1f565b60405180910390a15050565b60008054906101000a900473ffffffffffffffffffffffffffffffffffffffff1681565b600081519050610b0481610fbe565b92915050565b600081519050610b1981610fd5565b92915050565b600081359050610b2e81610fec565b92915050565b600081519050610b4381610fec565b92915050565b600060208284031215610b5f57610b5e610ec9565b5b6000610b6d84828501610af5565b91505092915050565b600060208284031215610b8c57610b8b610ec9565b5b6000610b9a84828501610b0a565b91505092915050565b600060208284031215610bb957610bb8610ec9565b5b6000610bc784828501610b1f565b91505092915050565b600060208284031215610be657610be5610ec9565b5b6000610bf484828501610b34565b91505092915050565b610c0681610e4b565b82525050565b610c1581610e5d565b82525050565b610c2481610e93565b82525050565b6000610c37602283610e3a565b9150610c4282610ece565b604082019050919050565b6000610c5a602183610e3a565b9150610c6582610f1d565b604082019050919050565b6000610c7d601c83610e3a565b9150610c8882610f6c565b602082019050919050565b6000610ca0601a83610e3a565b9150610cab82610f95565b602082019050919050565b610cbf81610e89565b82525050565b6000602082019050610cda6000830184610bfd565b92915050565b6000604082019050610cf56000830185610bfd565b610d026020830184610bfd565b9392505050565b6000606082019050610d1e6000830186610bfd565b610d2b6020830185610bfd565b610d386040830184610cb6565b949350505050565b6000604082019050610d556000830185610bfd565b610d626020830184610cb6565b9392505050565b6000602082019050610d7e6000830184610c0c565b92915050565b6000602082019050610d996000830184610c1b565b92915050565b60006020820190508181036000830152610db881610c2a565b9050919050565b60006020820190508181036000830152610dd881610c4d565b9050919050565b60006020820190508181036000830152610df881610c70565b9050919050565b60006020820190508181036000830152610e1881610c93565b9050919050565b6000602082019050610e346000830184610cb6565b92915050565b600082825260208201905092915050565b6000610e5682610e69565b9050919050565b60008115159050919050565b600073ffffffffffffffffffffffffffffffffffffffff82169050919050565b6000819050919050565b6000610e9e82610ea5565b9050919050565b6000610eb082610eb7565b9050919050565b6000610ec282610e69565b9050919050565b600080fd5b7f596f75206e65656420746f2073656c6c206174206c65617374203120746f6b6560008201527f6e21000000000000000000000000000000000000000000000000000000000000602082015250565b7f4e6f7420656e6f75676820746f6b656e7320696e20746865207265766572736560008201527f2100000000000000000000000000000000000000000000000000000000000000602082015250565b7f596f75206e65656420746f2073656e6420736f6d652065746865722100000000600082015250565b7f436865636b2074686520746f6b656e20616c6c6f77616e636521000000000000600082015250565b610fc781610e4b565b8114610fd257600080fd5b50565b610fde81610e5d565b8114610fe957600080fd5b50565b610ff581610e89565b811461100057600080fd5b5056fea2646970667358221220f2ec8da370f9da5ce95b6dbce9438dca81bf95423e9033f9b8962bbce59fec7a64736f6c634300080700336080604052678ac7230489e8000060025534801561001c57600080fd5b506002546000803373ffffffffffffffffffffffffffffffffffffffff1673ffffffffffffffffffffffffffffffffffffffff16815260200190815260200160002081905550610e57806100716000396000f3fe608060405234801561001057600080fd5b506004361061009e5760003560e01c806370a082311161006657806370a082311461014b57806395d89b411461017b578063a9059cbb14610199578063dd62ed3e146101c9578063e1f21c67146101f95761009e565b806306fdde03146100a357806318160ddd146100c157806323b872dd146100df578063313ce5671461010f57806338cc48311461012d575b600080fd5b6100ab610229565b6040516100b89190610bf9565b60405180910390f35b6100c9610262565b6040516100d69190610c1b565b60405180910390f35b6100f960048036038101906100f49190610abb565b61026c565b6040516101069190610bde565b60405180910390f35b6101176105e7565b6040516101249190610c36565b60405180910390f35b6101356105ec565b6040516101429190610bc3565b60405180910390f35b61016560048036038101906101609190610a4e565b6105f4565b6040516101729190610c1b565b60405180910390f35b61018361063c565b6040516101909190610bf9565b60405180910390f35b6101b360048036038101906101ae9190610b0e565b610675565b6040516101c09190610bde565b60405180910390f35b6101e360048036038101906101de9190610a7b565b610857565b6040516101f09190610c1b565b60405180910390f35b610213600480360381019061020e9190610abb565b6108de565b6040516102209190610bde565b60405180910390f35b6040518060400160405280601281526020017f45524332302d5869616f6368756e436f696e000000000000000000000000000081525081565b6000600254905090565b60008060008573ffffffffffffffffffffffffffffffffffffffff1673ffffffffffffffffffffffffffffffffffffffff168152602001908152602001600020548211156102b957600080fd5b600160008573ffffffffffffffffffffffffffffffffffffffff1673ffffffffffffffffffffffffffffffffffffffff16815260200190815260200160002060003373ffffffffffffffffffffffffffffffffffffffff1673ffffffffffffffffffffffffffffffffffffffff1681526020019081526020016000205482111561034257600080fd5b610393826000808773ffffffffffffffffffffffffffffffffffffffff1673ffffffffffffffffffffffffffffffffffffffff168152602001908152602001600020546109d190919063ffffffff16565b6000808673ffffffffffffffffffffffffffffffffffffffff1673ffffffffffffffffffffffffffffffffffffffff1681526020019081526020016000208190555061046482600160008773ffffffffffffffffffffffffffffffffffffffff1673ffffffffffffffffffffffffffffffffffffffff16815260200190815260200160002060008673ffffffffffffffffffffffffffffffffffffffff1673ffffffffffffffffffffffffffffffffffffffff168152602001908152602001600020546109d190919063ffffffff16565b600160008673ffffffffffffffffffffffffffffffffffffffff1673ffffffffffffffffffffffffffffffffffffffff16815260200190815260200160002060008573ffffffffffffffffffffffffffffffffffffffff1673ffffffffffffffffffffffffffffffffffffffff16815260200190815260200160002081905550610535826000808673ffffffffffffffffffffffffffffffffffffffff1673ffffffffffffffffffffffffffffffffffffffff168152602001908152602001600020546109f890919063ffffffff16565b6000808573ffffffffffffffffffffffffffffffffffffffff1673ffffffffffffffffffffffffffffffffffffffff168152602001908152602001600020819055508273ffffffffffffffffffffffffffffffffffffffff168473ffffffffffffffffffffffffffffffffffffffff167f5225eac2a7facfbeb099c00a4cc7c457701324f1fd84b84b14033f9e911374a4846040516105d49190610c1b565b60405180910390a3600190509392505050565b601281565b600030905090565b60008060008373ffffffffffffffffffffffffffffffffffffffff1673ffffffffffffffffffffffffffffffffffffffff168152602001908152602001600020549050919050565b6040518060400160405280600781526020017f4552432d5843430000000000000000000000000000000000000000000000000081525081565b60008060003373ffffffffffffffffffffffffffffffffffffffff1673ffffffffffffffffffffffffffffffffffffffff168152602001908152602001600020548211156106c257600080fd5b610713826000803373ffffffffffffffffffffffffffffffffffffffff1673ffffffffffffffffffffffffffffffffffffffff168152602001908152602001600020546109d190919063ffffffff16565b6000803373ffffffffffffffffffffffffffffffffffffffff1673ffffffffffffffffffffffffffffffffffffffff168152602001908152602001600020819055506107a6826000808673ffffffffffffffffffffffffffffffffffffffff1673ffffffffffffffffffffffffffffffffffffffff168152602001908152602001600020546109f890919063ffffffff16565b6000808573ffffffffffffffffffffffffffffffffffffffff1673ffffffffffffffffffffffffffffffffffffffff168152602001908152602001600020819055508273ffffffffffffffffffffffffffffffffffffffff163373ffffffffffffffffffffffffffffffffffffffff167f5225eac2a7facfbeb099c00a4cc7c457701324f1fd84b84b14033f9e911374a4846040516108459190610c1b565b60405180910390a36001905092915050565b6000600160008473ffffffffffffffffffffffffffffffffffffffff1673ffffffffffffffffffffffffffffffffffffffff16815260200190815260200160002060008373ffffffffffffffffffffffffffffffffffffffff1673ffffffffffffffffffffffffffffffffffffffff16815260200190815260200160002054905092915050565b600081600160008673ffffffffffffffffffffffffffffffffffffffff1673ffffffffffffffffffffffffffffffffffffffff16815260200190815260200160002060008573ffffffffffffffffffffffffffffffffffffffff1673ffffffffffffffffffffffffffffffffffffffff168152602001908152602001600020819055508273ffffffffffffffffffffffffffffffffffffffff168473ffffffffffffffffffffffffffffffffffffffff167f8c5be1e5ebec7d5bd14f71427d1e84f3dd0314c0f7b2291e5b200ac8c7c3b925846040516109be9190610c1b565b60405180910390a3600190509392505050565b6000828211156109e4576109e3610d7f565b5b81836109f09190610cc3565b905092915050565b6000808284610a079190610c6d565b905083811015610a1a57610a19610d7f565b5b8091505092915050565b600081359050610a3381610df3565b92915050565b600081359050610a4881610e0a565b92915050565b600060208284031215610a6457610a63610ddd565b5b6000610a7284828501610a24565b91505092915050565b60008060408385031215610a9257610a91610ddd565b5b6000610aa085828601610a24565b9250506020610ab185828601610a24565b9150509250929050565b600080600060608486031215610ad457610ad3610ddd565b5b6000610ae286828701610a24565b9350506020610af386828701610a24565b9250506040610b0486828701610a39565b9150509250925092565b60008060408385031215610b2557610b24610ddd565b5b6000610b3385828601610a24565b9250506020610b4485828601610a39565b9150509250929050565b610b5781610cf7565b82525050565b610b6681610d09565b82525050565b6000610b7782610c51565b610b818185610c5c565b9350610b91818560208601610d4c565b610b9a81610de2565b840191505092915050565b610bae81610d35565b82525050565b610bbd81610d3f565b82525050565b6000602082019050610bd86000830184610b4e565b92915050565b6000602082019050610bf36000830184610b5d565b92915050565b60006020820190508181036000830152610c138184610b6c565b905092915050565b6000602082019050610c306000830184610ba5565b92915050565b6000602082019050610c4b6000830184610bb4565b92915050565b600081519050919050565b600082825260208201905092915050565b6000610c7882610d35565b9150610c8383610d35565b9250827fffffffffffffffffffffffffffffffffffffffffffffffffffffffffffffffff03821115610cb857610cb7610dae565b5b828201905092915050565b6000610cce82610d35565b9150610cd983610d35565b925082821015610cec57610ceb610dae565b5b828203905092915050565b6000610d0282610d15565b9050919050565b60008115159050919050565b600073ffffffffffffffffffffffffffffffffffffffff82169050919050565b6000819050919050565b600060ff82169050919050565b60005b83811015610d6a578082015181840152602081019050610d4f565b83811115610d79576000848401525b50505050565b7f4e487b7100000000000000000000000000000000000000000000000000000000600052600160045260246000fd5b7f4e487b7100000000000000000000000000000000000000000000000000000000600052601160045260246000fd5b600080fd5b6000601f19601f8301169050919050565b610dfc81610cf7565b8114610e0757600080fd5b50565b610e1381610d35565b8114610e1e57600080fd5b5056fea2646970667358221220fc1f7a11181e89b8f836ab022a7ac4df36dd30686d4c5476ef0faa01836c628e64736f6c63430008070033",
					"opcodes": "PUSH1 0x80 PUSH1 0x40 MSTORE CALLVALUE DUP1 ISZERO PUSH2 0x10 JUMPI PUSH1 0x0 DUP1 REVERT JUMPDEST POP PUSH1 0x40 MLOAD PUSH2 0x1D SWAP1 PUSH2 0x7E JUMP JUMPDEST PUSH1 0x40 MLOAD DUP1 SWAP2 SUB SWAP1 PUSH1 0x0 CREATE DUP1 ISZERO DUP1 ISZERO PUSH2 0x39 JUMPI RETURNDATASIZE PUSH1 0x0 DUP1 RETURNDATACOPY RETURNDATASIZE PUSH1 0x0 REVERT JUMPDEST POP PUSH1 0x0 DUP1 PUSH2 0x100 EXP DUP2 SLOAD DUP2 PUSH20 0xFFFFFFFFFFFFFFFFFFFFFFFFFFFFFFFFFFFFFFFF MUL NOT AND SWAP1 DUP4 PUSH20 0xFFFFFFFFFFFFFFFFFFFFFFFFFFFFFFFFFFFFFFFF AND MUL OR SWAP1 SSTORE POP PUSH2 0x8B JUMP JUMPDEST PUSH2 0xEC8 DUP1 PUSH2 0x10D3 DUP4 CODECOPY ADD SWAP1 JUMP JUMPDEST PUSH2 0x1039 DUP1 PUSH2 0x9A PUSH1 0x0 CODECOPY PUSH1 0x0 RETURN INVALID PUSH1 0x80 PUSH1 0x40 MSTORE PUSH1 0x4 CALLDATASIZE LT PUSH2 0x9C JUMPI PUSH1 0x0 CALLDATALOAD PUSH1 0xE0 SHR DUP1 PUSH4 0x973E9B8B GT PUSH2 0x64 JUMPI DUP1 PUSH4 0x973E9B8B EQ PUSH2 0x178 JUMPI DUP1 PUSH4 0xA6F2AE3A EQ PUSH2 0x1A3 JUMPI DUP1 PUSH4 0xB759F954 EQ PUSH2 0x1AD JUMPI DUP1 PUSH4 0xC4E41B22 EQ PUSH2 0x1EA JUMPI DUP1 PUSH4 0xE4849B32 EQ PUSH2 0x215 JUMPI DUP1 PUSH4 0xFC0C546A EQ PUSH2 0x231 JUMPI PUSH2 0x9C JUMP JUMPDEST DUP1 PUSH4 0x10FE9AE8 EQ PUSH2 0xA1 JUMPI DUP1 PUSH4 0x38CC4831 EQ PUSH2 0xCC JUMPI DUP1 PUSH4 0x42948E18 EQ PUSH2 0xF7 JUMPI DUP1 PUSH4 0x430F4801 EQ PUSH2 0x122 JUMPI DUP1 PUSH4 0x590791F2 EQ PUSH2 0x14D JUMPI JUMPDEST PUSH1 0x0 DUP1 REVERT JUMPDEST CALLVALUE DUP1 ISZERO PUSH2 0xAD JUMPI PUSH1 0x0 DUP1 REVERT JUMPDEST POP PUSH2 0xB6 PUSH2 0x25C JUMP JUMPDEST PUSH1 0x40 MLOAD PUSH2 0xC3 SWAP2 SWAP1 PUSH2 0xCC5 JUMP JUMPDEST PUSH1 0x40 MLOAD DUP1 SWAP2 SUB SWAP1 RETURN JUMPDEST CALLVALUE DUP1 ISZERO PUSH2 0xD8 JUMPI PUSH1 0x0 DUP1 REVERT JUMPDEST POP PUSH2 0xE1 PUSH2 0x302 JUMP JUMPDEST PUSH1 0x40 MLOAD PUSH2 0xEE SWAP2 SWAP1 PUSH2 0xCC5 JUMP JUMPDEST PUSH1 0x40 MLOAD DUP1 SWAP2 SUB SWAP1 RETURN JUMPDEST CALLVALUE DUP1 ISZERO PUSH2 0x103 JUMPI PUSH1 0x0 DUP1 REVERT JUMPDEST POP PUSH2 0x10C PUSH2 0x30A JUMP JUMPDEST PUSH1 0x40 MLOAD PUSH2 0x119 SWAP2 SWAP1 PUSH2 0xCC5 JUMP JUMPDEST PUSH1 0x40 MLOAD DUP1 SWAP2 SUB SWAP1 RETURN JUMPDEST CALLVALUE DUP1 ISZERO PUSH2 0x12E JUMPI PUSH1 0x0 DUP1 REVERT JUMPDEST POP PUSH2 0x137 PUSH2 0x312 JUMP JUMPDEST PUSH1 0x40 MLOAD PUSH2 0x144 SWAP2 SWAP1 PUSH2 0xE1F JUMP JUMPDEST PUSH1 0x40 MLOAD DUP1 SWAP2 SUB SWAP1 RETURN JUMPDEST CALLVALUE DUP1 ISZERO PUSH2 0x159 JUMPI PUSH1 0x0 DUP1 REVERT JUMPDEST POP PUSH2 0x162 PUSH2 0x3C3 JUMP JUMPDEST PUSH1 0x40 MLOAD PUSH2 0x16F SWAP2 SWAP1 PUSH2 0xE1F JUMP JUMPDEST PUSH1 0x40 MLOAD DUP1 SWAP2 SUB SWAP1 RETURN JUMPDEST CALLVALUE DUP1 ISZERO PUSH2 0x184 JUMPI PUSH1 0x0 DUP1 REVERT JUMPDEST POP PUSH2 0x18D PUSH2 0x474 JUMP JUMPDEST PUSH1 0x40 MLOAD PUSH2 0x19A SWAP2 SWAP1 PUSH2 0xE1F JUMP JUMPDEST PUSH1 0x40 MLOAD DUP1 SWAP2 SUB SWAP1 RETURN JUMPDEST PUSH2 0x1AB PUSH2 0x52B JUMP JUMPDEST STOP JUMPDEST CALLVALUE DUP1 ISZERO PUSH2 0x1B9 JUMPI PUSH1 0x0 DUP1 REVERT JUMPDEST POP PUSH2 0x1D4 PUSH1 0x4 DUP1 CALLDATASIZE SUB DUP2 ADD SWAP1 PUSH2 0x1CF SWAP2 SWAP1 PUSH2 0xBA3 JUMP JUMPDEST PUSH2 0x74D JUMP JUMPDEST PUSH1 0x40 MLOAD PUSH2 0x1E1 SWAP2 SWAP1 PUSH2 0xD69 JUMP JUMPDEST PUSH1 0x40 MLOAD DUP1 SWAP2 SUB SWAP1 RETURN JUMPDEST CALLVALUE DUP1 ISZERO PUSH2 0x1F6 JUMPI PUSH1 0x0 DUP1 REVERT JUMPDEST POP PUSH2 0x1FF PUSH2 0x80A JUMP JUMPDEST PUSH1 0x40 MLOAD PUSH2 0x20C SWAP2 SWAP1 PUSH2 0xE1F JUMP JUMPDEST PUSH1 0x40 MLOAD DUP1 SWAP2 SUB SWAP1 RETURN JUMPDEST PUSH2 0x22F PUSH1 0x4 DUP1 CALLDATASIZE SUB DUP2 ADD SWAP1 PUSH2 0x22A SWAP2 SWAP1 PUSH2 0xBA3 JUMP JUMPDEST PUSH2 0x8B0 JUMP JUMPDEST STOP JUMPDEST CALLVALUE DUP1 ISZERO PUSH2 0x23D JUMPI PUSH1 0x0 DUP1 REVERT JUMPDEST POP PUSH2 0x246 PUSH2 0xAD1 JUMP JUMPDEST PUSH1 0x40 MLOAD PUSH2 0x253 SWAP2 SWAP1 PUSH2 0xD84 JUMP JUMPDEST PUSH1 0x40 MLOAD DUP1 SWAP2 SUB SWAP1 RETURN JUMPDEST PUSH1 0x0 DUP1 PUSH1 0x0 SWAP1 SLOAD SWAP1 PUSH2 0x100 EXP SWAP1 DIV PUSH20 0xFFFFFFFFFFFFFFFFFFFFFFFFFFFFFFFFFFFFFFFF AND PUSH20 0xFFFFFFFFFFFFFFFFFFFFFFFFFFFFFFFFFFFFFFFF AND PUSH4 0x38CC4831 PUSH1 0x40 MLOAD DUP2 PUSH4 0xFFFFFFFF AND PUSH1 0xE0 SHL DUP2 MSTORE PUSH1 0x4 ADD PUSH1 0x20 PUSH1 0x40 MLOAD DUP1 DUP4 SUB DUP2 DUP7 DUP1 EXTCODESIZE ISZERO DUP1 ISZERO PUSH2 0x2C5 JUMPI PUSH1 0x0 DUP1 REVERT JUMPDEST POP GAS STATICCALL ISZERO DUP1 ISZERO PUSH2 0x2D9 JUMPI RETURNDATASIZE PUSH1 0x0 DUP1 RETURNDATACOPY RETURNDATASIZE PUSH1 0x0 REVERT JUMPDEST POP POP POP POP PUSH1 0x40 MLOAD RETURNDATASIZE PUSH1 0x1F NOT PUSH1 0x1F DUP3 ADD AND DUP3 ADD DUP1 PUSH1 0x40 MSTORE POP DUP2 ADD SWAP1 PUSH2 0x2FD SWAP2 SWAP1 PUSH2 0xB49 JUMP JUMPDEST SWAP1 POP SWAP1 JUMP JUMPDEST PUSH1 0x0 ADDRESS SWAP1 POP SWAP1 JUMP JUMPDEST PUSH1 0x0 CALLER SWAP1 POP SWAP1 JUMP JUMPDEST PUSH1 0x0 DUP1 PUSH1 0x0 SWAP1 SLOAD SWAP1 PUSH2 0x100 EXP SWAP1 DIV PUSH20 0xFFFFFFFFFFFFFFFFFFFFFFFFFFFFFFFFFFFFFFFF AND PUSH20 0xFFFFFFFFFFFFFFFFFFFFFFFFFFFFFFFFFFFFFFFF AND PUSH4 0x70A08231 ADDRESS PUSH1 0x40 MLOAD DUP3 PUSH4 0xFFFFFFFF AND PUSH1 0xE0 SHL DUP2 MSTORE PUSH1 0x4 ADD PUSH2 0x36E SWAP2 SWAP1 PUSH2 0xCC5 JUMP JUMPDEST PUSH1 0x20 PUSH1 0x40 MLOAD DUP1 DUP4 SUB DUP2 DUP7 DUP1 EXTCODESIZE ISZERO DUP1 ISZERO PUSH2 0x386 JUMPI PUSH1 0x0 DUP1 REVERT JUMPDEST POP GAS STATICCALL ISZERO DUP1 ISZERO PUSH2 0x39A JUMPI RETURNDATASIZE PUSH1 0x0 DUP1 RETURNDATACOPY RETURNDATASIZE PUSH1 0x0 REVERT JUMPDEST POP POP POP POP PUSH1 0x40 MLOAD RETURNDATASIZE PUSH1 0x1F NOT PUSH1 0x1F DUP3 ADD AND DUP3 ADD DUP1 PUSH1 0x40 MSTORE POP DUP2 ADD SWAP1 PUSH2 0x3BE SWAP2 SWAP1 PUSH2 0xBD0 JUMP JUMPDEST SWAP1 POP SWAP1 JUMP JUMPDEST PUSH1 0x0 DUP1 PUSH1 0x0 SWAP1 SLOAD SWAP1 PUSH2 0x100 EXP SWAP1 DIV PUSH20 0xFFFFFFFFFFFFFFFFFFFFFFFFFFFFFFFFFFFFFFFF AND PUSH20 0xFFFFFFFFFFFFFFFFFFFFFFFFFFFFFFFFFFFFFFFF AND PUSH4 0x70A08231 CALLER PUSH1 0x40 MLOAD DUP3 PUSH4 0xFFFFFFFF AND PUSH1 0xE0 SHL DUP2 MSTORE PUSH1 0x4 ADD PUSH2 0x41F SWAP2 SWAP1 PUSH2 0xCC5 JUMP JUMPDEST PUSH1 0x20 PUSH1 0x40 MLOAD DUP1 DUP4 SUB DUP2 DUP7 DUP1 EXTCODESIZE ISZERO DUP1 ISZERO PUSH2 0x437 JUMPI PUSH1 0x0 DUP1 REVERT JUMPDEST POP GAS STATICCALL ISZERO DUP1 ISZERO PUSH2 0x44B JUMPI RETURNDATASIZE PUSH1 0x0 DUP1 RETURNDATACOPY RETURNDATASIZE PUSH1 0x0 REVERT JUMPDEST POP POP POP POP PUSH1 0x40 MLOAD RETURNDATASIZE PUSH1 0x1F NOT PUSH1 0x1F DUP3 ADD AND DUP3 ADD DUP1 PUSH1 0x40 MSTORE POP DUP2 ADD SWAP1 PUSH2 0x46F SWAP2 SWAP1 PUSH2 0xBD0 JUMP JUMPDEST SWAP1 POP SWAP1 JUMP JUMPDEST PUSH1 0x0 DUP1 PUSH1 0x0 DUP1 SLOAD SWAP1 PUSH2 0x100 EXP SWAP1 DIV PUSH20 0xFFFFFFFFFFFFFFFFFFFFFFFFFFFFFFFFFFFFFFFF AND PUSH20 0xFFFFFFFFFFFFFFFFFFFFFFFFFFFFFFFFFFFFFFFF AND PUSH4 0xDD62ED3E CALLER ADDRESS PUSH1 0x40 MLOAD DUP4 PUSH4 0xFFFFFFFF AND PUSH1 0xE0 SHL DUP2 MSTORE PUSH1 0x4 ADD PUSH2 0x4D2 SWAP3 SWAP2 SWAP1 PUSH2 0xCE0 JUMP JUMPDEST PUSH1 0x20 PUSH1 0x40 MLOAD DUP1 DUP4 SUB DUP2 DUP7 DUP1 EXTCODESIZE ISZERO DUP1 ISZERO PUSH2 0x4EA JUMPI PUSH1 0x0 DUP1 REVERT JUMPDEST POP GAS STATICCALL ISZERO DUP1 ISZERO PUSH2 0x4FE JUMPI RETURNDATASIZE PUSH1 0x0 DUP1 RETURNDATACOPY RETURNDATASIZE PUSH1 0x0 REVERT JUMPDEST POP POP POP POP PUSH1 0x40 MLOAD RETURNDATASIZE PUSH1 0x1F NOT PUSH1 0x1F DUP3 ADD AND DUP3 ADD DUP1 PUSH1 0x40 MSTORE POP DUP2 ADD SWAP1 PUSH2 0x522 SWAP2 SWAP1 PUSH2 0xBD0 JUMP JUMPDEST SWAP1 POP DUP1 SWAP2 POP POP SWAP1 JUMP JUMPDEST PUSH1 0x0 CALLVALUE SWAP1 POP PUSH1 0x0 DUP1 PUSH1 0x0 SWAP1 SLOAD SWAP1 PUSH2 0x100 EXP SWAP1 DIV PUSH20 0xFFFFFFFFFFFFFFFFFFFFFFFFFFFFFFFFFFFFFFFF AND PUSH20 0xFFFFFFFFFFFFFFFFFFFFFFFFFFFFFFFFFFFFFFFF AND PUSH4 0x70A08231 ADDRESS PUSH1 0x40 MLOAD DUP3 PUSH4 0xFFFFFFFF AND PUSH1 0xE0 SHL DUP2 MSTORE PUSH1 0x4 ADD PUSH2 0x58C SWAP2 SWAP1 PUSH2 0xCC5 JUMP JUMPDEST PUSH1 0x20 PUSH1 0x40 MLOAD DUP1 DUP4 SUB DUP2 DUP7 DUP1 EXTCODESIZE ISZERO DUP1 ISZERO PUSH2 0x5A4 JUMPI PUSH1 0x0 DUP1 REVERT JUMPDEST POP GAS STATICCALL ISZERO DUP1 ISZERO PUSH2 0x5B8 JUMPI RETURNDATASIZE PUSH1 0x0 DUP1 RETURNDATACOPY RETURNDATASIZE PUSH1 0x0 REVERT JUMPDEST POP POP POP POP PUSH1 0x40 MLOAD RETURNDATASIZE PUSH1 0x1F NOT PUSH1 0x1F DUP3 ADD AND DUP3 ADD DUP1 PUSH1 0x40 MSTORE POP DUP2 ADD SWAP1 PUSH2 0x5DC SWAP2 SWAP1 PUSH2 0xBD0 JUMP JUMPDEST SWAP1 POP PUSH1 0x0 DUP3 GT PUSH2 0x621 JUMPI PUSH1 0x40 MLOAD PUSH32 0x8C379A000000000000000000000000000000000000000000000000000000000 DUP2 MSTORE PUSH1 0x4 ADD PUSH2 0x618 SWAP1 PUSH2 0xDDF JUMP JUMPDEST PUSH1 0x40 MLOAD DUP1 SWAP2 SUB SWAP1 REVERT JUMPDEST DUP1 DUP3 GT ISZERO PUSH2 0x664 JUMPI PUSH1 0x40 MLOAD PUSH32 0x8C379A000000000000000000000000000000000000000000000000000000000 DUP2 MSTORE PUSH1 0x4 ADD PUSH2 0x65B SWAP1 PUSH2 0xDBF JUMP JUMPDEST PUSH1 0x40 MLOAD DUP1 SWAP2 SUB SWAP1 REVERT JUMPDEST PUSH1 0x0 DUP1 SLOAD SWAP1 PUSH2 0x100 EXP SWAP1 DIV PUSH20 0xFFFFFFFFFFFFFFFFFFFFFFFFFFFFFFFFFFFFFFFF AND PUSH20 0xFFFFFFFFFFFFFFFFFFFFFFFFFFFFFFFFFFFFFFFF AND PUSH4 0xA9059CBB CALLER DUP5 PUSH1 0x40 MLOAD DUP4 PUSH4 0xFFFFFFFF AND PUSH1 0xE0 SHL DUP2 MSTORE PUSH1 0x4 ADD PUSH2 0x6BF SWAP3 SWAP2 SWAP1 PUSH2 0xD40 JUMP JUMPDEST PUSH1 0x20 PUSH1 0x40 MLOAD DUP1 DUP4 SUB DUP2 PUSH1 0x0 DUP8 DUP1 EXTCODESIZE ISZERO DUP1 ISZERO PUSH2 0x6D9 JUMPI PUSH1 0x0 DUP1 REVERT JUMPDEST POP GAS CALL ISZERO DUP1 ISZERO PUSH2 0x6ED JUMPI RETURNDATASIZE PUSH1 0x0 DUP1 RETURNDATACOPY RETURNDATASIZE PUSH1 0x0 REVERT JUMPDEST POP POP POP POP PUSH1 0x40 MLOAD RETURNDATASIZE PUSH1 0x1F NOT PUSH1 0x1F DUP3 ADD AND DUP3 ADD DUP1 PUSH1 0x40 MSTORE POP DUP2 ADD SWAP1 PUSH2 0x711 SWAP2 SWAP1 PUSH2 0xB76 JUMP JUMPDEST POP PUSH32 0x4E08BA899977CF7D4C2964BCE71C6B9A7EF76EE5166A4C1249A1E08016E33EF1 DUP3 PUSH1 0x40 MLOAD PUSH2 0x741 SWAP2 SWAP1 PUSH2 0xE1F JUMP JUMPDEST PUSH1 0x40 MLOAD DUP1 SWAP2 SUB SWAP1 LOG1 POP POP JUMP JUMPDEST PUSH1 0x0 DUP1 PUSH1 0x0 DUP1 SLOAD SWAP1 PUSH2 0x100 EXP SWAP1 DIV PUSH20 0xFFFFFFFFFFFFFFFFFFFFFFFFFFFFFFFFFFFFFFFF AND PUSH20 0xFFFFFFFFFFFFFFFFFFFFFFFFFFFFFFFFFFFFFFFF AND PUSH4 0xE1F21C67 CALLER ADDRESS DUP7 PUSH1 0x40 MLOAD DUP5 PUSH4 0xFFFFFFFF AND PUSH1 0xE0 SHL DUP2 MSTORE PUSH1 0x4 ADD PUSH2 0x7AD SWAP4 SWAP3 SWAP2 SWAP1 PUSH2 0xD09 JUMP JUMPDEST PUSH1 0x20 PUSH1 0x40 MLOAD DUP1 DUP4 SUB DUP2 PUSH1 0x0 DUP8 DUP1 EXTCODESIZE ISZERO DUP1 ISZERO PUSH2 0x7C7 JUMPI PUSH1 0x0 DUP1 REVERT JUMPDEST POP GAS CALL ISZERO DUP1 ISZERO PUSH2 0x7DB JUMPI RETURNDATASIZE PUSH1 0x0 DUP1 RETURNDATACOPY RETURNDATASIZE PUSH1 0x0 REVERT JUMPDEST POP POP POP POP PUSH1 0x40 MLOAD RETURNDATASIZE PUSH1 0x1F NOT PUSH1 0x1F DUP3 ADD AND DUP3 ADD DUP1 PUSH1 0x40 MSTORE POP DUP2 ADD SWAP1 PUSH2 0x7FF SWAP2 SWAP1 PUSH2 0xB76 JUMP JUMPDEST SWAP1 POP DUP1 SWAP2 POP POP SWAP2 SWAP1 POP JUMP JUMPDEST PUSH1 0x0 DUP1 PUSH1 0x0 SWAP1 SLOAD SWAP1 PUSH2 0x100 EXP SWAP1 DIV PUSH20 0xFFFFFFFFFFFFFFFFFFFFFFFFFFFFFFFFFFFFFFFF AND PUSH20 0xFFFFFFFFFFFFFFFFFFFFFFFFFFFFFFFFFFFFFFFF AND PUSH4 0x18160DDD PUSH1 0x40 MLOAD DUP2 PUSH4 0xFFFFFFFF AND PUSH1 0xE0 SHL DUP2 MSTORE PUSH1 0x4 ADD PUSH1 0x20 PUSH1 0x40 MLOAD DUP1 DUP4 SUB DUP2 DUP7 DUP1 EXTCODESIZE ISZERO DUP1 ISZERO PUSH2 0x873 JUMPI PUSH1 0x0 DUP1 REVERT JUMPDEST POP GAS STATICCALL ISZERO DUP1 ISZERO PUSH2 0x887 JUMPI RETURNDATASIZE PUSH1 0x0 DUP1 RETURNDATACOPY RETURNDATASIZE PUSH1 0x0 REVERT JUMPDEST POP POP POP POP PUSH1 0x40 MLOAD RETURNDATASIZE PUSH1 0x1F NOT PUSH1 0x1F DUP3 ADD AND DUP3 ADD DUP1 PUSH1 0x40 MSTORE POP DUP2 ADD SWAP1 PUSH2 0x8AB SWAP2 SWAP1 PUSH2 0xBD0 JUMP JUMPDEST SWAP1 POP SWAP1 JUMP JUMPDEST PUSH1 0x0 DUP2 GT PUSH2 0x8F3 JUMPI PUSH1 0x40 MLOAD PUSH32 0x8C379A000000000000000000000000000000000000000000000000000000000 DUP2 MSTORE PUSH1 0x4 ADD PUSH2 0x8EA SWAP1 PUSH2 0xD9F JUMP JUMPDEST PUSH1 0x40 MLOAD DUP1 SWAP2 SUB SWAP1 REVERT JUMPDEST PUSH1 0x0 DUP1 PUSH1 0x0 SWAP1 SLOAD SWAP1 PUSH2 0x100 EXP SWAP1 DIV PUSH20 0xFFFFFFFFFFFFFFFFFFFFFFFFFFFFFFFFFFFFFFFF AND PUSH20 0xFFFFFFFFFFFFFFFFFFFFFFFFFFFFFFFFFFFFFFFF AND PUSH4 0xDD62ED3E CALLER ADDRESS PUSH1 0x40 MLOAD DUP4 PUSH4 0xFFFFFFFF AND PUSH1 0xE0 SHL DUP2 MSTORE PUSH1 0x4 ADD PUSH2 0x951 SWAP3 SWAP2 SWAP1 PUSH2 0xCE0 JUMP JUMPDEST PUSH1 0x20 PUSH1 0x40 MLOAD DUP1 DUP4 SUB DUP2 DUP7 DUP1 EXTCODESIZE ISZERO DUP1 ISZERO PUSH2 0x969 JUMPI PUSH1 0x0 DUP1 REVERT JUMPDEST POP GAS STATICCALL ISZERO DUP1 ISZERO PUSH2 0x97D JUMPI RETURNDATASIZE PUSH1 0x0 DUP1 RETURNDATACOPY RETURNDATASIZE PUSH1 0x0 REVERT JUMPDEST POP POP POP POP PUSH1 0x40 MLOAD RETURNDATASIZE PUSH1 0x1F NOT PUSH1 0x1F DUP3 ADD AND DUP3 ADD DUP1 PUSH1 0x40 MSTORE POP DUP2 ADD SWAP1 PUSH2 0x9A1 SWAP2 SWAP1 PUSH2 0xBD0 JUMP JUMPDEST SWAP1 POP DUP2 DUP2 LT ISZERO PUSH2 0x9E6 JUMPI PUSH1 0x40 MLOAD PUSH32 0x8C379A000000000000000000000000000000000000000000000000000000000 DUP2 MSTORE PUSH1 0x4 ADD PUSH2 0x9DD SWAP1 PUSH2 0xDFF JUMP JUMPDEST PUSH1 0x40 MLOAD DUP1 SWAP2 SUB SWAP1 REVERT JUMPDEST PUSH1 0x0 DUP1 SLOAD SWAP1 PUSH2 0x100 EXP SWAP1 DIV PUSH20 0xFFFFFFFFFFFFFFFFFFFFFFFFFFFFFFFFFFFFFFFF AND PUSH20 0xFFFFFFFFFFFFFFFFFFFFFFFFFFFFFFFFFFFFFFFF AND PUSH4 0x23B872DD CALLER ADDRESS DUP6 PUSH1 0x40 MLOAD DUP5 PUSH4 0xFFFFFFFF AND PUSH1 0xE0 SHL DUP2 MSTORE PUSH1 0x4 ADD PUSH2 0xA43 SWAP4 SWAP3 SWAP2 SWAP1 PUSH2 0xD09 JUMP JUMPDEST PUSH1 0x20 PUSH1 0x40 MLOAD DUP1 DUP4 SUB DUP2 PUSH1 0x0 DUP8 DUP1 EXTCODESIZE ISZERO DUP1 ISZERO PUSH2 0xA5D JUMPI PUSH1 0x0 DUP1 REVERT JUMPDEST POP GAS CALL ISZERO DUP1 ISZERO PUSH2 0xA71 JUMPI RETURNDATASIZE PUSH1 0x0 DUP1 RETURNDATACOPY RETURNDATASIZE PUSH1 0x0 REVERT JUMPDEST POP POP POP POP PUSH1 0x40 MLOAD RETURNDATASIZE PUSH1 0x1F NOT PUSH1 0x1F DUP3 ADD AND DUP3 ADD DUP1 PUSH1 0x40 MSTORE POP DUP2 ADD SWAP1 PUSH2 0xA95 SWAP2 SWAP1 PUSH2 0xB76 JUMP JUMPDEST POP PUSH32 0x92F64CA637D023F354075A4BE751B169C1A8A9CCB6D33CDD0CB3520543995727 DUP3 PUSH1 0x40 MLOAD PUSH2 0xAC5 SWAP2 SWAP1 PUSH2 0xE1F JUMP JUMPDEST PUSH1 0x40 MLOAD DUP1 SWAP2 SUB SWAP1 LOG1 POP POP JUMP JUMPDEST PUSH1 0x0 DUP1 SLOAD SWAP1 PUSH2 0x100 EXP SWAP1 DIV PUSH20 0xFFFFFFFFFFFFFFFFFFFFFFFFFFFFFFFFFFFFFFFF AND DUP2 JUMP JUMPDEST PUSH1 0x0 DUP2 MLOAD SWAP1 POP PUSH2 0xB04 DUP2 PUSH2 0xFBE JUMP JUMPDEST SWAP3 SWAP2 POP POP JUMP JUMPDEST PUSH1 0x0 DUP2 MLOAD SWAP1 POP PUSH2 0xB19 DUP2 PUSH2 0xFD5 JUMP JUMPDEST SWAP3 SWAP2 POP POP JUMP JUMPDEST PUSH1 0x0 DUP2 CALLDATALOAD SWAP1 POP PUSH2 0xB2E DUP2 PUSH2 0xFEC JUMP JUMPDEST SWAP3 SWAP2 POP POP JUMP JUMPDEST PUSH1 0x0 DUP2 MLOAD SWAP1 POP PUSH2 0xB43 DUP2 PUSH2 0xFEC JUMP JUMPDEST SWAP3 SWAP2 POP POP JUMP JUMPDEST PUSH1 0x0 PUSH1 0x20 DUP3 DUP5 SUB SLT ISZERO PUSH2 0xB5F JUMPI PUSH2 0xB5E PUSH2 0xEC9 JUMP JUMPDEST JUMPDEST PUSH1 0x0 PUSH2 0xB6D DUP5 DUP3 DUP6 ADD PUSH2 0xAF5 JUMP JUMPDEST SWAP2 POP POP SWAP3 SWAP2 POP POP JUMP JUMPDEST PUSH1 0x0 PUSH1 0x20 DUP3 DUP5 SUB SLT ISZERO PUSH2 0xB8C JUMPI PUSH2 0xB8B PUSH2 0xEC9 JUMP JUMPDEST JUMPDEST PUSH1 0x0 PUSH2 0xB9A DUP5 DUP3 DUP6 ADD PUSH2 0xB0A JUMP JUMPDEST SWAP2 POP POP SWAP3 SWAP2 POP POP JUMP JUMPDEST PUSH1 0x0 PUSH1 0x20 DUP3 DUP5 SUB SLT ISZERO PUSH2 0xBB9 JUMPI PUSH2 0xBB8 PUSH2 0xEC9 JUMP JUMPDEST JUMPDEST PUSH1 0x0 PUSH2 0xBC7 DUP5 DUP3 DUP6 ADD PUSH2 0xB1F JUMP JUMPDEST SWAP2 POP POP SWAP3 SWAP2 POP POP JUMP JUMPDEST PUSH1 0x0 PUSH1 0x20 DUP3 DUP5 SUB SLT ISZERO PUSH2 0xBE6 JUMPI PUSH2 0xBE5 PUSH2 0xEC9 JUMP JUMPDEST JUMPDEST PUSH1 0x0 PUSH2 0xBF4 DUP5 DUP3 DUP6 ADD PUSH2 0xB34 JUMP JUMPDEST SWAP2 POP POP SWAP3 SWAP2 POP POP JUMP JUMPDEST PUSH2 0xC06 DUP2 PUSH2 0xE4B JUMP JUMPDEST DUP3 MSTORE POP POP JUMP JUMPDEST PUSH2 0xC15 DUP2 PUSH2 0xE5D JUMP JUMPDEST DUP3 MSTORE POP POP JUMP JUMPDEST PUSH2 0xC24 DUP2 PUSH2 0xE93 JUMP JUMPDEST DUP3 MSTORE POP POP JUMP JUMPDEST PUSH1 0x0 PUSH2 0xC37 PUSH1 0x22 DUP4 PUSH2 0xE3A JUMP JUMPDEST SWAP2 POP PUSH2 0xC42 DUP3 PUSH2 0xECE JUMP JUMPDEST PUSH1 0x40 DUP3 ADD SWAP1 POP SWAP2 SWAP1 POP JUMP JUMPDEST PUSH1 0x0 PUSH2 0xC5A PUSH1 0x21 DUP4 PUSH2 0xE3A JUMP JUMPDEST SWAP2 POP PUSH2 0xC65 DUP3 PUSH2 0xF1D JUMP JUMPDEST PUSH1 0x40 DUP3 ADD SWAP1 POP SWAP2 SWAP1 POP JUMP JUMPDEST PUSH1 0x0 PUSH2 0xC7D PUSH1 0x1C DUP4 PUSH2 0xE3A JUMP JUMPDEST SWAP2 POP PUSH2 0xC88 DUP3 PUSH2 0xF6C JUMP JUMPDEST PUSH1 0x20 DUP3 ADD SWAP1 POP SWAP2 SWAP1 POP JUMP JUMPDEST PUSH1 0x0 PUSH2 0xCA0 PUSH1 0x1A DUP4 PUSH2 0xE3A JUMP JUMPDEST SWAP2 POP PUSH2 0xCAB DUP3 PUSH2 0xF95 JUMP JUMPDEST PUSH1 0x20 DUP3 ADD SWAP1 POP SWAP2 SWAP1 POP JUMP JUMPDEST PUSH2 0xCBF DUP2 PUSH2 0xE89 JUMP JUMPDEST DUP3 MSTORE POP POP JUMP JUMPDEST PUSH1 0x0 PUSH1 0x20 DUP3 ADD SWAP1 POP PUSH2 0xCDA PUSH1 0x0 DUP4 ADD DUP5 PUSH2 0xBFD JUMP JUMPDEST SWAP3 SWAP2 POP POP JUMP JUMPDEST PUSH1 0x0 PUSH1 0x40 DUP3 ADD SWAP1 POP PUSH2 0xCF5 PUSH1 0x0 DUP4 ADD DUP6 PUSH2 0xBFD JUMP JUMPDEST PUSH2 0xD02 PUSH1 0x20 DUP4 ADD DUP5 PUSH2 0xBFD JUMP JUMPDEST SWAP4 SWAP3 POP POP POP JUMP JUMPDEST PUSH1 0x0 PUSH1 0x60 DUP3 ADD SWAP1 POP PUSH2 0xD1E PUSH1 0x0 DUP4 ADD DUP7 PUSH2 0xBFD JUMP JUMPDEST PUSH2 0xD2B PUSH1 0x20 DUP4 ADD DUP6 PUSH2 0xBFD JUMP JUMPDEST PUSH2 0xD38 PUSH1 0x40 DUP4 ADD DUP5 PUSH2 0xCB6 JUMP JUMPDEST SWAP5 SWAP4 POP POP POP POP JUMP JUMPDEST PUSH1 0x0 PUSH1 0x40 DUP3 ADD SWAP1 POP PUSH2 0xD55 PUSH1 0x0 DUP4 ADD DUP6 PUSH2 0xBFD JUMP JUMPDEST PUSH2 0xD62 PUSH1 0x20 DUP4 ADD DUP5 PUSH2 0xCB6 JUMP JUMPDEST SWAP4 SWAP3 POP POP POP JUMP JUMPDEST PUSH1 0x0 PUSH1 0x20 DUP3 ADD SWAP1 POP PUSH2 0xD7E PUSH1 0x0 DUP4 ADD DUP5 PUSH2 0xC0C JUMP JUMPDEST SWAP3 SWAP2 POP POP JUMP JUMPDEST PUSH1 0x0 PUSH1 0x20 DUP3 ADD SWAP1 POP PUSH2 0xD99 PUSH1 0x0 DUP4 ADD DUP5 PUSH2 0xC1B JUMP JUMPDEST SWAP3 SWAP2 POP POP JUMP JUMPDEST PUSH1 0x0 PUSH1 0x20 DUP3 ADD SWAP1 POP DUP2 DUP2 SUB PUSH1 0x0 DUP4 ADD MSTORE PUSH2 0xDB8 DUP2 PUSH2 0xC2A JUMP JUMPDEST SWAP1 POP SWAP2 SWAP1 POP JUMP JUMPDEST PUSH1 0x0 PUSH1 0x20 DUP3 ADD SWAP1 POP DUP2 DUP2 SUB PUSH1 0x0 DUP4 ADD MSTORE PUSH2 0xDD8 DUP2 PUSH2 0xC4D JUMP JUMPDEST SWAP1 POP SWAP2 SWAP1 POP JUMP JUMPDEST PUSH1 0x0 PUSH1 0x20 DUP3 ADD SWAP1 POP DUP2 DUP2 SUB PUSH1 0x0 DUP4 ADD MSTORE PUSH2 0xDF8 DUP2 PUSH2 0xC70 JUMP JUMPDEST SWAP1 POP SWAP2 SWAP1 POP JUMP JUMPDEST PUSH1 0x0 PUSH1 0x20 DUP3 ADD SWAP1 POP DUP2 DUP2 SUB PUSH1 0x0 DUP4 ADD MSTORE PUSH2 0xE18 DUP2 PUSH2 0xC93 JUMP JUMPDEST SWAP1 POP SWAP2 SWAP1 POP JUMP JUMPDEST PUSH1 0x0 PUSH1 0x20 DUP3 ADD SWAP1 POP PUSH2 0xE34 PUSH1 0x0 DUP4 ADD DUP5 PUSH2 0xCB6 JUMP JUMPDEST SWAP3 SWAP2 POP POP JUMP JUMPDEST PUSH1 0x0 DUP3 DUP3 MSTORE PUSH1 0x20 DUP3 ADD SWAP1 POP SWAP3 SWAP2 POP POP JUMP JUMPDEST PUSH1 0x0 PUSH2 0xE56 DUP3 PUSH2 0xE69 JUMP JUMPDEST SWAP1 POP SWAP2 SWAP1 POP JUMP JUMPDEST PUSH1 0x0 DUP2 ISZERO ISZERO SWAP1 POP SWAP2 SWAP1 POP JUMP JUMPDEST PUSH1 0x0 PUSH20 0xFFFFFFFFFFFFFFFFFFFFFFFFFFFFFFFFFFFFFFFF DUP3 AND SWAP1 POP SWAP2 SWAP1 POP JUMP JUMPDEST PUSH1 0x0 DUP2 SWAP1 POP SWAP2 SWAP1 POP JUMP JUMPDEST PUSH1 0x0 PUSH2 0xE9E DUP3 PUSH2 0xEA5 JUMP JUMPDEST SWAP1 POP SWAP2 SWAP1 POP JUMP JUMPDEST PUSH1 0x0 PUSH2 0xEB0 DUP3 PUSH2 0xEB7 JUMP JUMPDEST SWAP1 POP SWAP2 SWAP1 POP JUMP JUMPDEST PUSH1 0x0 PUSH2 0xEC2 DUP3 PUSH2 0xE69 JUMP JUMPDEST SWAP1 POP SWAP2 SWAP1 POP JUMP JUMPDEST PUSH1 0x0 DUP1 REVERT JUMPDEST PUSH32 0x596F75206E65656420746F2073656C6C206174206C65617374203120746F6B65 PUSH1 0x0 DUP3 ADD MSTORE PUSH32 0x6E21000000000000000000000000000000000000000000000000000000000000 PUSH1 0x20 DUP3 ADD MSTORE POP JUMP JUMPDEST PUSH32 0x4E6F7420656E6F75676820746F6B656E7320696E207468652072657665727365 PUSH1 0x0 DUP3 ADD MSTORE PUSH32 0x2100000000000000000000000000000000000000000000000000000000000000 PUSH1 0x20 DUP3 ADD MSTORE POP JUMP JUMPDEST PUSH32 0x596F75206E65656420746F2073656E6420736F6D652065746865722100000000 PUSH1 0x0 DUP3 ADD MSTORE POP JUMP JUMPDEST PUSH32 0x436865636B2074686520746F6B656E20616C6C6F77616E636521000000000000 PUSH1 0x0 DUP3 ADD MSTORE POP JUMP JUMPDEST PUSH2 0xFC7 DUP2 PUSH2 0xE4B JUMP JUMPDEST DUP2 EQ PUSH2 0xFD2 JUMPI PUSH1 0x0 DUP1 REVERT JUMPDEST POP JUMP JUMPDEST PUSH2 0xFDE DUP2 PUSH2 0xE5D JUMP JUMPDEST DUP2 EQ PUSH2 0xFE9 JUMPI PUSH1 0x0 DUP1 REVERT JUMPDEST POP JUMP JUMPDEST PUSH2 0xFF5 DUP2 PUSH2 0xE89 JUMP JUMPDEST DUP2 EQ PUSH2 0x1000 JUMPI PUSH1 0x0 DUP1 REVERT JUMPDEST POP JUMP INVALID LOG2 PUSH5 0x6970667358 0x22 SLT KECCAK256 CALLCODE 0xEC DUP14 LOG3 PUSH17 0xF9DA5CE95B6DBCE9438DCA81BF95423E90 CALLER 0xF9 0xB8 SWAP7 0x2B 0xBC 0xE5 SWAP16 0xEC PUSH27 0x64736F6C634300080700336080604052678AC7230489E800006002 SSTORE CALLVALUE DUP1 ISZERO PUSH2 0x1C JUMPI PUSH1 0x0 DUP1 REVERT JUMPDEST POP PUSH1 0x2 SLOAD PUSH1 0x0 DUP1 CALLER PUSH20 0xFFFFFFFFFFFFFFFFFFFFFFFFFFFFFFFFFFFFFFFF AND PUSH20 0xFFFFFFFFFFFFFFFFFFFFFFFFFFFFFFFFFFFFFFFF AND DUP2 MSTORE PUSH1 0x20 ADD SWAP1 DUP2 MSTORE PUSH1 0x20 ADD PUSH1 0x0 KECCAK256 DUP2 SWAP1 SSTORE POP PUSH2 0xE57 DUP1 PUSH2 0x71 PUSH1 0x0 CODECOPY PUSH1 0x0 RETURN INVALID PUSH1 0x80 PUSH1 0x40 MSTORE CALLVALUE DUP1 ISZERO PUSH2 0x10 JUMPI PUSH1 0x0 DUP1 REVERT JUMPDEST POP PUSH1 0x4 CALLDATASIZE LT PUSH2 0x9E JUMPI PUSH1 0x0 CALLDATALOAD PUSH1 0xE0 SHR DUP1 PUSH4 0x70A08231 GT PUSH2 0x66 JUMPI DUP1 PUSH4 0x70A08231 EQ PUSH2 0x14B JUMPI DUP1 PUSH4 0x95D89B41 EQ PUSH2 0x17B JUMPI DUP1 PUSH4 0xA9059CBB EQ PUSH2 0x199 JUMPI DUP1 PUSH4 0xDD62ED3E EQ PUSH2 0x1C9 JUMPI DUP1 PUSH4 0xE1F21C67 EQ PUSH2 0x1F9 JUMPI PUSH2 0x9E JUMP JUMPDEST DUP1 PUSH4 0x6FDDE03 EQ PUSH2 0xA3 JUMPI DUP1 PUSH4 0x18160DDD EQ PUSH2 0xC1 JUMPI DUP1 PUSH4 0x23B872DD EQ PUSH2 0xDF JUMPI DUP1 PUSH4 0x313CE567 EQ PUSH2 0x10F JUMPI DUP1 PUSH4 0x38CC4831 EQ PUSH2 0x12D JUMPI JUMPDEST PUSH1 0x0 DUP1 REVERT JUMPDEST PUSH2 0xAB PUSH2 0x229 JUMP JUMPDEST PUSH1 0x40 MLOAD PUSH2 0xB8 SWAP2 SWAP1 PUSH2 0xBF9 JUMP JUMPDEST PUSH1 0x40 MLOAD DUP1 SWAP2 SUB SWAP1 RETURN JUMPDEST PUSH2 0xC9 PUSH2 0x262 JUMP JUMPDEST PUSH1 0x40 MLOAD PUSH2 0xD6 SWAP2 SWAP1 PUSH2 0xC1B JUMP JUMPDEST PUSH1 0x40 MLOAD DUP1 SWAP2 SUB SWAP1 RETURN JUMPDEST PUSH2 0xF9 PUSH1 0x4 DUP1 CALLDATASIZE SUB DUP2 ADD SWAP1 PUSH2 0xF4 SWAP2 SWAP1 PUSH2 0xABB JUMP JUMPDEST PUSH2 0x26C JUMP JUMPDEST PUSH1 0x40 MLOAD PUSH2 0x106 SWAP2 SWAP1 PUSH2 0xBDE JUMP JUMPDEST PUSH1 0x40 MLOAD DUP1 SWAP2 SUB SWAP1 RETURN JUMPDEST PUSH2 0x117 PUSH2 0x5E7 JUMP JUMPDEST PUSH1 0x40 MLOAD PUSH2 0x124 SWAP2 SWAP1 PUSH2 0xC36 JUMP JUMPDEST PUSH1 0x40 MLOAD DUP1 SWAP2 SUB SWAP1 RETURN JUMPDEST PUSH2 0x135 PUSH2 0x5EC JUMP JUMPDEST PUSH1 0x40 MLOAD PUSH2 0x142 SWAP2 SWAP1 PUSH2 0xBC3 JUMP JUMPDEST PUSH1 0x40 MLOAD DUP1 SWAP2 SUB SWAP1 RETURN JUMPDEST PUSH2 0x165 PUSH1 0x4 DUP1 CALLDATASIZE SUB DUP2 ADD SWAP1 PUSH2 0x160 SWAP2 SWAP1 PUSH2 0xA4E JUMP JUMPDEST PUSH2 0x5F4 JUMP JUMPDEST PUSH1 0x40 MLOAD PUSH2 0x172 SWAP2 SWAP1 PUSH2 0xC1B JUMP JUMPDEST PUSH1 0x40 MLOAD DUP1 SWAP2 SUB SWAP1 RETURN JUMPDEST PUSH2 0x183 PUSH2 0x63C JUMP JUMPDEST PUSH1 0x40 MLOAD PUSH2 0x190 SWAP2 SWAP1 PUSH2 0xBF9 JUMP JUMPDEST PUSH1 0x40 MLOAD DUP1 SWAP2 SUB SWAP1 RETURN JUMPDEST PUSH2 0x1B3 PUSH1 0x4 DUP1 CALLDATASIZE SUB DUP2 ADD SWAP1 PUSH2 0x1AE SWAP2 SWAP1 PUSH2 0xB0E JUMP JUMPDEST PUSH2 0x675 JUMP JUMPDEST PUSH1 0x40 MLOAD PUSH2 0x1C0 SWAP2 SWAP1 PUSH2 0xBDE JUMP JUMPDEST PUSH1 0x40 MLOAD DUP1 SWAP2 SUB SWAP1 RETURN JUMPDEST PUSH2 0x1E3 PUSH1 0x4 DUP1 CALLDATASIZE SUB DUP2 ADD SWAP1 PUSH2 0x1DE SWAP2 SWAP1 PUSH2 0xA7B JUMP JUMPDEST PUSH2 0x857 JUMP JUMPDEST PUSH1 0x40 MLOAD PUSH2 0x1F0 SWAP2 SWAP1 PUSH2 0xC1B JUMP JUMPDEST PUSH1 0x40 MLOAD DUP1 SWAP2 SUB SWAP1 RETURN JUMPDEST PUSH2 0x213 PUSH1 0x4 DUP1 CALLDATASIZE SUB DUP2 ADD SWAP1 PUSH2 0x20E SWAP2 SWAP1 PUSH2 0xABB JUMP JUMPDEST PUSH2 0x8DE JUMP JUMPDEST PUSH1 0x40 MLOAD PUSH2 0x220 SWAP2 SWAP1 PUSH2 0xBDE JUMP JUMPDEST PUSH1 0x40 MLOAD DUP1 SWAP2 SUB SWAP1 RETURN JUMPDEST PUSH1 0x40 MLOAD DUP1 PUSH1 0x40 ADD PUSH1 0x40 MSTORE DUP1 PUSH1 0x12 DUP2 MSTORE PUSH1 0x20 ADD PUSH32 0x45524332302D5869616F6368756E436F696E0000000000000000000000000000 DUP2 MSTORE POP DUP2 JUMP JUMPDEST PUSH1 0x0 PUSH1 0x2 SLOAD SWAP1 POP SWAP1 JUMP JUMPDEST PUSH1 0x0 DUP1 PUSH1 0x0 DUP6 PUSH20 0xFFFFFFFFFFFFFFFFFFFFFFFFFFFFFFFFFFFFFFFF AND PUSH20 0xFFFFFFFFFFFFFFFFFFFFFFFFFFFFFFFFFFFFFFFF AND DUP2 MSTORE PUSH1 0x20 ADD SWAP1 DUP2 MSTORE PUSH1 0x20 ADD PUSH1 0x0 KECCAK256 SLOAD DUP3 GT ISZERO PUSH2 0x2B9 JUMPI PUSH1 0x0 DUP1 REVERT JUMPDEST PUSH1 0x1 PUSH1 0x0 DUP6 PUSH20 0xFFFFFFFFFFFFFFFFFFFFFFFFFFFFFFFFFFFFFFFF AND PUSH20 0xFFFFFFFFFFFFFFFFFFFFFFFFFFFFFFFFFFFFFFFF AND DUP2 MSTORE PUSH1 0x20 ADD SWAP1 DUP2 MSTORE PUSH1 0x20 ADD PUSH1 0x0 KECCAK256 PUSH1 0x0 CALLER PUSH20 0xFFFFFFFFFFFFFFFFFFFFFFFFFFFFFFFFFFFFFFFF AND PUSH20 0xFFFFFFFFFFFFFFFFFFFFFFFFFFFFFFFFFFFFFFFF AND DUP2 MSTORE PUSH1 0x20 ADD SWAP1 DUP2 MSTORE PUSH1 0x20 ADD PUSH1 0x0 KECCAK256 SLOAD DUP3 GT ISZERO PUSH2 0x342 JUMPI PUSH1 0x0 DUP1 REVERT JUMPDEST PUSH2 0x393 DUP3 PUSH1 0x0 DUP1 DUP8 PUSH20 0xFFFFFFFFFFFFFFFFFFFFFFFFFFFFFFFFFFFFFFFF AND PUSH20 0xFFFFFFFFFFFFFFFFFFFFFFFFFFFFFFFFFFFFFFFF AND DUP2 MSTORE PUSH1 0x20 ADD SWAP1 DUP2 MSTORE PUSH1 0x20 ADD PUSH1 0x0 KECCAK256 SLOAD PUSH2 0x9D1 SWAP1 SWAP2 SWAP1 PUSH4 0xFFFFFFFF AND JUMP JUMPDEST PUSH1 0x0 DUP1 DUP7 PUSH20 0xFFFFFFFFFFFFFFFFFFFFFFFFFFFFFFFFFFFFFFFF AND PUSH20 0xFFFFFFFFFFFFFFFFFFFFFFFFFFFFFFFFFFFFFFFF AND DUP2 MSTORE PUSH1 0x20 ADD SWAP1 DUP2 MSTORE PUSH1 0x20 ADD PUSH1 0x0 KECCAK256 DUP2 SWAP1 SSTORE POP PUSH2 0x464 DUP3 PUSH1 0x1 PUSH1 0x0 DUP8 PUSH20 0xFFFFFFFFFFFFFFFFFFFFFFFFFFFFFFFFFFFFFFFF AND PUSH20 0xFFFFFFFFFFFFFFFFFFFFFFFFFFFFFFFFFFFFFFFF AND DUP2 MSTORE PUSH1 0x20 ADD SWAP1 DUP2 MSTORE PUSH1 0x20 ADD PUSH1 0x0 KECCAK256 PUSH1 0x0 DUP7 PUSH20 0xFFFFFFFFFFFFFFFFFFFFFFFFFFFFFFFFFFFFFFFF AND PUSH20 0xFFFFFFFFFFFFFFFFFFFFFFFFFFFFFFFFFFFFFFFF AND DUP2 MSTORE PUSH1 0x20 ADD SWAP1 DUP2 MSTORE PUSH1 0x20 ADD PUSH1 0x0 KECCAK256 SLOAD PUSH2 0x9D1 SWAP1 SWAP2 SWAP1 PUSH4 0xFFFFFFFF AND JUMP JUMPDEST PUSH1 0x1 PUSH1 0x0 DUP7 PUSH20 0xFFFFFFFFFFFFFFFFFFFFFFFFFFFFFFFFFFFFFFFF AND PUSH20 0xFFFFFFFFFFFFFFFFFFFFFFFFFFFFFFFFFFFFFFFF AND DUP2 MSTORE PUSH1 0x20 ADD SWAP1 DUP2 MSTORE PUSH1 0x20 ADD PUSH1 0x0 KECCAK256 PUSH1 0x0 DUP6 PUSH20 0xFFFFFFFFFFFFFFFFFFFFFFFFFFFFFFFFFFFFFFFF AND PUSH20 0xFFFFFFFFFFFFFFFFFFFFFFFFFFFFFFFFFFFFFFFF AND DUP2 MSTORE PUSH1 0x20 ADD SWAP1 DUP2 MSTORE PUSH1 0x20 ADD PUSH1 0x0 KECCAK256 DUP2 SWAP1 SSTORE POP PUSH2 0x535 DUP3 PUSH1 0x0 DUP1 DUP7 PUSH20 0xFFFFFFFFFFFFFFFFFFFFFFFFFFFFFFFFFFFFFFFF AND PUSH20 0xFFFFFFFFFFFFFFFFFFFFFFFFFFFFFFFFFFFFFFFF AND DUP2 MSTORE PUSH1 0x20 ADD SWAP1 DUP2 MSTORE PUSH1 0x20 ADD PUSH1 0x0 KECCAK256 SLOAD PUSH2 0x9F8 SWAP1 SWAP2 SWAP1 PUSH4 0xFFFFFFFF AND JUMP JUMPDEST PUSH1 0x0 DUP1 DUP6 PUSH20 0xFFFFFFFFFFFFFFFFFFFFFFFFFFFFFFFFFFFFFFFF AND PUSH20 0xFFFFFFFFFFFFFFFFFFFFFFFFFFFFFFFFFFFFFFFF AND DUP2 MSTORE PUSH1 0x20 ADD SWAP1 DUP2 MSTORE PUSH1 0x20 ADD PUSH1 0x0 KECCAK256 DUP2 SWAP1 SSTORE POP DUP3 PUSH20 0xFFFFFFFFFFFFFFFFFFFFFFFFFFFFFFFFFFFFFFFF AND DUP5 PUSH20 0xFFFFFFFFFFFFFFFFFFFFFFFFFFFFFFFFFFFFFFFF AND PUSH32 0x5225EAC2A7FACFBEB099C00A4CC7C457701324F1FD84B84B14033F9E911374A4 DUP5 PUSH1 0x40 MLOAD PUSH2 0x5D4 SWAP2 SWAP1 PUSH2 0xC1B JUMP JUMPDEST PUSH1 0x40 MLOAD DUP1 SWAP2 SUB SWAP1 LOG3 PUSH1 0x1 SWAP1 POP SWAP4 SWAP3 POP POP POP JUMP JUMPDEST PUSH1 0x12 DUP2 JUMP JUMPDEST PUSH1 0x0 ADDRESS SWAP1 POP SWAP1 JUMP JUMPDEST PUSH1 0x0 DUP1 PUSH1 0x0 DUP4 PUSH20 0xFFFFFFFFFFFFFFFFFFFFFFFFFFFFFFFFFFFFFFFF AND PUSH20 0xFFFFFFFFFFFFFFFFFFFFFFFFFFFFFFFFFFFFFFFF AND DUP2 MSTORE PUSH1 0x20 ADD SWAP1 DUP2 MSTORE PUSH1 0x20 ADD PUSH1 0x0 KECCAK256 SLOAD SWAP1 POP SWAP2 SWAP1 POP JUMP JUMPDEST PUSH1 0x40 MLOAD DUP1 PUSH1 0x40 ADD PUSH1 0x40 MSTORE DUP1 PUSH1 0x7 DUP2 MSTORE PUSH1 0x20 ADD PUSH32 0x4552432D58434300000000000000000000000000000000000000000000000000 DUP2 MSTORE POP DUP2 JUMP JUMPDEST PUSH1 0x0 DUP1 PUSH1 0x0 CALLER PUSH20 0xFFFFFFFFFFFFFFFFFFFFFFFFFFFFFFFFFFFFFFFF AND PUSH20 0xFFFFFFFFFFFFFFFFFFFFFFFFFFFFFFFFFFFFFFFF AND DUP2 MSTORE PUSH1 0x20 ADD SWAP1 DUP2 MSTORE PUSH1 0x20 ADD PUSH1 0x0 KECCAK256 SLOAD DUP3 GT ISZERO PUSH2 0x6C2 JUMPI PUSH1 0x0 DUP1 REVERT JUMPDEST PUSH2 0x713 DUP3 PUSH1 0x0 DUP1 CALLER PUSH20 0xFFFFFFFFFFFFFFFFFFFFFFFFFFFFFFFFFFFFFFFF AND PUSH20 0xFFFFFFFFFFFFFFFFFFFFFFFFFFFFFFFFFFFFFFFF AND DUP2 MSTORE PUSH1 0x20 ADD SWAP1 DUP2 MSTORE PUSH1 0x20 ADD PUSH1 0x0 KECCAK256 SLOAD PUSH2 0x9D1 SWAP1 SWAP2 SWAP1 PUSH4 0xFFFFFFFF AND JUMP JUMPDEST PUSH1 0x0 DUP1 CALLER PUSH20 0xFFFFFFFFFFFFFFFFFFFFFFFFFFFFFFFFFFFFFFFF AND PUSH20 0xFFFFFFFFFFFFFFFFFFFFFFFFFFFFFFFFFFFFFFFF AND DUP2 MSTORE PUSH1 0x20 ADD SWAP1 DUP2 MSTORE PUSH1 0x20 ADD PUSH1 0x0 KECCAK256 DUP2 SWAP1 SSTORE POP PUSH2 0x7A6 DUP3 PUSH1 0x0 DUP1 DUP7 PUSH20 0xFFFFFFFFFFFFFFFFFFFFFFFFFFFFFFFFFFFFFFFF AND PUSH20 0xFFFFFFFFFFFFFFFFFFFFFFFFFFFFFFFFFFFFFFFF AND DUP2 MSTORE PUSH1 0x20 ADD SWAP1 DUP2 MSTORE PUSH1 0x20 ADD PUSH1 0x0 KECCAK256 SLOAD PUSH2 0x9F8 SWAP1 SWAP2 SWAP1 PUSH4 0xFFFFFFFF AND JUMP JUMPDEST PUSH1 0x0 DUP1 DUP6 PUSH20 0xFFFFFFFFFFFFFFFFFFFFFFFFFFFFFFFFFFFFFFFF AND PUSH20 0xFFFFFFFFFFFFFFFFFFFFFFFFFFFFFFFFFFFFFFFF AND DUP2 MSTORE PUSH1 0x20 ADD SWAP1 DUP2 MSTORE PUSH1 0x20 ADD PUSH1 0x0 KECCAK256 DUP2 SWAP1 SSTORE POP DUP3 PUSH20 0xFFFFFFFFFFFFFFFFFFFFFFFFFFFFFFFFFFFFFFFF AND CALLER PUSH20 0xFFFFFFFFFFFFFFFFFFFFFFFFFFFFFFFFFFFFFFFF AND PUSH32 0x5225EAC2A7FACFBEB099C00A4CC7C457701324F1FD84B84B14033F9E911374A4 DUP5 PUSH1 0x40 MLOAD PUSH2 0x845 SWAP2 SWAP1 PUSH2 0xC1B JUMP JUMPDEST PUSH1 0x40 MLOAD DUP1 SWAP2 SUB SWAP1 LOG3 PUSH1 0x1 SWAP1 POP SWAP3 SWAP2 POP POP JUMP JUMPDEST PUSH1 0x0 PUSH1 0x1 PUSH1 0x0 DUP5 PUSH20 0xFFFFFFFFFFFFFFFFFFFFFFFFFFFFFFFFFFFFFFFF AND PUSH20 0xFFFFFFFFFFFFFFFFFFFFFFFFFFFFFFFFFFFFFFFF AND DUP2 MSTORE PUSH1 0x20 ADD SWAP1 DUP2 MSTORE PUSH1 0x20 ADD PUSH1 0x0 KECCAK256 PUSH1 0x0 DUP4 PUSH20 0xFFFFFFFFFFFFFFFFFFFFFFFFFFFFFFFFFFFFFFFF AND PUSH20 0xFFFFFFFFFFFFFFFFFFFFFFFFFFFFFFFFFFFFFFFF AND DUP2 MSTORE PUSH1 0x20 ADD SWAP1 DUP2 MSTORE PUSH1 0x20 ADD PUSH1 0x0 KECCAK256 SLOAD SWAP1 POP SWAP3 SWAP2 POP POP JUMP JUMPDEST PUSH1 0x0 DUP2 PUSH1 0x1 PUSH1 0x0 DUP7 PUSH20 0xFFFFFFFFFFFFFFFFFFFFFFFFFFFFFFFFFFFFFFFF AND PUSH20 0xFFFFFFFFFFFFFFFFFFFFFFFFFFFFFFFFFFFFFFFF AND DUP2 MSTORE PUSH1 0x20 ADD SWAP1 DUP2 MSTORE PUSH1 0x20 ADD PUSH1 0x0 KECCAK256 PUSH1 0x0 DUP6 PUSH20 0xFFFFFFFFFFFFFFFFFFFFFFFFFFFFFFFFFFFFFFFF AND PUSH20 0xFFFFFFFFFFFFFFFFFFFFFFFFFFFFFFFFFFFFFFFF AND DUP2 MSTORE PUSH1 0x20 ADD SWAP1 DUP2 MSTORE PUSH1 0x20 ADD PUSH1 0x0 KECCAK256 DUP2 SWAP1 SSTORE POP DUP3 PUSH20 0xFFFFFFFFFFFFFFFFFFFFFFFFFFFFFFFFFFFFFFFF AND DUP5 PUSH20 0xFFFFFFFFFFFFFFFFFFFFFFFFFFFFFFFFFFFFFFFF AND PUSH32 0x8C5BE1E5EBEC7D5BD14F71427D1E84F3DD0314C0F7B2291E5B200AC8C7C3B925 DUP5 PUSH1 0x40 MLOAD PUSH2 0x9BE SWAP2 SWAP1 PUSH2 0xC1B JUMP JUMPDEST PUSH1 0x40 MLOAD DUP1 SWAP2 SUB SWAP1 LOG3 PUSH1 0x1 SWAP1 POP SWAP4 SWAP3 POP POP POP JUMP JUMPDEST PUSH1 0x0 DUP3 DUP3 GT ISZERO PUSH2 0x9E4 JUMPI PUSH2 0x9E3 PUSH2 0xD7F JUMP JUMPDEST JUMPDEST DUP2 DUP4 PUSH2 0x9F0 SWAP2 SWAP1 PUSH2 0xCC3 JUMP JUMPDEST SWAP1 POP SWAP3 SWAP2 POP POP JUMP JUMPDEST PUSH1 0x0 DUP1 DUP3 DUP5 PUSH2 0xA07 SWAP2 SWAP1 PUSH2 0xC6D JUMP JUMPDEST SWAP1 POP DUP4 DUP2 LT ISZERO PUSH2 0xA1A JUMPI PUSH2 0xA19 PUSH2 0xD7F JUMP JUMPDEST JUMPDEST DUP1 SWAP2 POP POP SWAP3 SWAP2 POP POP JUMP JUMPDEST PUSH1 0x0 DUP2 CALLDATALOAD SWAP1 POP PUSH2 0xA33 DUP2 PUSH2 0xDF3 JUMP JUMPDEST SWAP3 SWAP2 POP POP JUMP JUMPDEST PUSH1 0x0 DUP2 CALLDATALOAD SWAP1 POP PUSH2 0xA48 DUP2 PUSH2 0xE0A JUMP JUMPDEST SWAP3 SWAP2 POP POP JUMP JUMPDEST PUSH1 0x0 PUSH1 0x20 DUP3 DUP5 SUB SLT ISZERO PUSH2 0xA64 JUMPI PUSH2 0xA63 PUSH2 0xDDD JUMP JUMPDEST JUMPDEST PUSH1 0x0 PUSH2 0xA72 DUP5 DUP3 DUP6 ADD PUSH2 0xA24 JUMP JUMPDEST SWAP2 POP POP SWAP3 SWAP2 POP POP JUMP JUMPDEST PUSH1 0x0 DUP1 PUSH1 0x40 DUP4 DUP6 SUB SLT ISZERO PUSH2 0xA92 JUMPI PUSH2 0xA91 PUSH2 0xDDD JUMP JUMPDEST JUMPDEST PUSH1 0x0 PUSH2 0xAA0 DUP6 DUP3 DUP7 ADD PUSH2 0xA24 JUMP JUMPDEST SWAP3 POP POP PUSH1 0x20 PUSH2 0xAB1 DUP6 DUP3 DUP7 ADD PUSH2 0xA24 JUMP JUMPDEST SWAP2 POP POP SWAP3 POP SWAP3 SWAP1 POP JUMP JUMPDEST PUSH1 0x0 DUP1 PUSH1 0x0 PUSH1 0x60 DUP5 DUP7 SUB SLT ISZERO PUSH2 0xAD4 JUMPI PUSH2 0xAD3 PUSH2 0xDDD JUMP JUMPDEST JUMPDEST PUSH1 0x0 PUSH2 0xAE2 DUP7 DUP3 DUP8 ADD PUSH2 0xA24 JUMP JUMPDEST SWAP4 POP POP PUSH1 0x20 PUSH2 0xAF3 DUP7 DUP3 DUP8 ADD PUSH2 0xA24 JUMP JUMPDEST SWAP3 POP POP PUSH1 0x40 PUSH2 0xB04 DUP7 DUP3 DUP8 ADD PUSH2 0xA39 JUMP JUMPDEST SWAP2 POP POP SWAP3 POP SWAP3 POP SWAP3 JUMP JUMPDEST PUSH1 0x0 DUP1 PUSH1 0x40 DUP4 DUP6 SUB SLT ISZERO PUSH2 0xB25 JUMPI PUSH2 0xB24 PUSH2 0xDDD JUMP JUMPDEST JUMPDEST PUSH1 0x0 PUSH2 0xB33 DUP6 DUP3 DUP7 ADD PUSH2 0xA24 JUMP JUMPDEST SWAP3 POP POP PUSH1 0x20 PUSH2 0xB44 DUP6 DUP3 DUP7 ADD PUSH2 0xA39 JUMP JUMPDEST SWAP2 POP POP SWAP3 POP SWAP3 SWAP1 POP JUMP JUMPDEST PUSH2 0xB57 DUP2 PUSH2 0xCF7 JUMP JUMPDEST DUP3 MSTORE POP POP JUMP JUMPDEST PUSH2 0xB66 DUP2 PUSH2 0xD09 JUMP JUMPDEST DUP3 MSTORE POP POP JUMP JUMPDEST PUSH1 0x0 PUSH2 0xB77 DUP3 PUSH2 0xC51 JUMP JUMPDEST PUSH2 0xB81 DUP2 DUP6 PUSH2 0xC5C JUMP JUMPDEST SWAP4 POP PUSH2 0xB91 DUP2 DUP6 PUSH1 0x20 DUP7 ADD PUSH2 0xD4C JUMP JUMPDEST PUSH2 0xB9A DUP2 PUSH2 0xDE2 JUMP JUMPDEST DUP5 ADD SWAP2 POP POP SWAP3 SWAP2 POP POP JUMP JUMPDEST PUSH2 0xBAE DUP2 PUSH2 0xD35 JUMP JUMPDEST DUP3 MSTORE POP POP JUMP JUMPDEST PUSH2 0xBBD DUP2 PUSH2 0xD3F JUMP JUMPDEST DUP3 MSTORE POP POP JUMP JUMPDEST PUSH1 0x0 PUSH1 0x20 DUP3 ADD SWAP1 POP PUSH2 0xBD8 PUSH1 0x0 DUP4 ADD DUP5 PUSH2 0xB4E JUMP JUMPDEST SWAP3 SWAP2 POP POP JUMP JUMPDEST PUSH1 0x0 PUSH1 0x20 DUP3 ADD SWAP1 POP PUSH2 0xBF3 PUSH1 0x0 DUP4 ADD DUP5 PUSH2 0xB5D JUMP JUMPDEST SWAP3 SWAP2 POP POP JUMP JUMPDEST PUSH1 0x0 PUSH1 0x20 DUP3 ADD SWAP1 POP DUP2 DUP2 SUB PUSH1 0x0 DUP4 ADD MSTORE PUSH2 0xC13 DUP2 DUP5 PUSH2 0xB6C JUMP JUMPDEST SWAP1 POP SWAP3 SWAP2 POP POP JUMP JUMPDEST PUSH1 0x0 PUSH1 0x20 DUP3 ADD SWAP1 POP PUSH2 0xC30 PUSH1 0x0 DUP4 ADD DUP5 PUSH2 0xBA5 JUMP JUMPDEST SWAP3 SWAP2 POP POP JUMP JUMPDEST PUSH1 0x0 PUSH1 0x20 DUP3 ADD SWAP1 POP PUSH2 0xC4B PUSH1 0x0 DUP4 ADD DUP5 PUSH2 0xBB4 JUMP JUMPDEST SWAP3 SWAP2 POP POP JUMP JUMPDEST PUSH1 0x0 DUP2 MLOAD SWAP1 POP SWAP2 SWAP1 POP JUMP JUMPDEST PUSH1 0x0 DUP3 DUP3 MSTORE PUSH1 0x20 DUP3 ADD SWAP1 POP SWAP3 SWAP2 POP POP JUMP JUMPDEST PUSH1 0x0 PUSH2 0xC78 DUP3 PUSH2 0xD35 JUMP JUMPDEST SWAP2 POP PUSH2 0xC83 DUP4 PUSH2 0xD35 JUMP JUMPDEST SWAP3 POP DUP3 PUSH32 0xFFFFFFFFFFFFFFFFFFFFFFFFFFFFFFFFFFFFFFFFFFFFFFFFFFFFFFFFFFFFFFFF SUB DUP3 GT ISZERO PUSH2 0xCB8 JUMPI PUSH2 0xCB7 PUSH2 0xDAE JUMP JUMPDEST JUMPDEST DUP3 DUP3 ADD SWAP1 POP SWAP3 SWAP2 POP POP JUMP JUMPDEST PUSH1 0x0 PUSH2 0xCCE DUP3 PUSH2 0xD35 JUMP JUMPDEST SWAP2 POP PUSH2 0xCD9 DUP4 PUSH2 0xD35 JUMP JUMPDEST SWAP3 POP DUP3 DUP3 LT ISZERO PUSH2 0xCEC JUMPI PUSH2 0xCEB PUSH2 0xDAE JUMP JUMPDEST JUMPDEST DUP3 DUP3 SUB SWAP1 POP SWAP3 SWAP2 POP POP JUMP JUMPDEST PUSH1 0x0 PUSH2 0xD02 DUP3 PUSH2 0xD15 JUMP JUMPDEST SWAP1 POP SWAP2 SWAP1 POP JUMP JUMPDEST PUSH1 0x0 DUP2 ISZERO ISZERO SWAP1 POP SWAP2 SWAP1 POP JUMP JUMPDEST PUSH1 0x0 PUSH20 0xFFFFFFFFFFFFFFFFFFFFFFFFFFFFFFFFFFFFFFFF DUP3 AND SWAP1 POP SWAP2 SWAP1 POP JUMP JUMPDEST PUSH1 0x0 DUP2 SWAP1 POP SWAP2 SWAP1 POP JUMP JUMPDEST PUSH1 0x0 PUSH1 0xFF DUP3 AND SWAP1 POP SWAP2 SWAP1 POP JUMP JUMPDEST PUSH1 0x0 JUMPDEST DUP4 DUP2 LT ISZERO PUSH2 0xD6A JUMPI DUP1 DUP3 ADD MLOAD DUP2 DUP5 ADD MSTORE PUSH1 0x20 DUP2 ADD SWAP1 POP PUSH2 0xD4F JUMP JUMPDEST DUP4 DUP2 GT ISZERO PUSH2 0xD79 JUMPI PUSH1 0x0 DUP5 DUP5 ADD MSTORE JUMPDEST POP POP POP POP JUMP JUMPDEST PUSH32 0x4E487B7100000000000000000000000000000000000000000000000000000000 PUSH1 0x0 MSTORE PUSH1 0x1 PUSH1 0x4 MSTORE PUSH1 0x24 PUSH1 0x0 REVERT JUMPDEST PUSH32 0x4E487B7100000000000000000000000000000000000000000000000000000000 PUSH1 0x0 MSTORE PUSH1 0x11 PUSH1 0x4 MSTORE PUSH1 0x24 PUSH1 0x0 REVERT JUMPDEST PUSH1 0x0 DUP1 REVERT JUMPDEST PUSH1 0x0 PUSH1 0x1F NOT PUSH1 0x1F DUP4 ADD AND SWAP1 POP SWAP2 SWAP1 POP JUMP JUMPDEST PUSH2 0xDFC DUP2 PUSH2 0xCF7 JUMP JUMPDEST DUP2 EQ PUSH2 0xE07 JUMPI PUSH1 0x0 DUP1 REVERT JUMPDEST POP JUMP JUMPDEST PUSH2 0xE13 DUP2 PUSH2 0xD35 JUMP JUMPDEST DUP2 EQ PUSH2 0xE1E JUMPI PUSH1 0x0 DUP1 REVERT JUMPDEST POP JUMP INVALID LOG2 PUSH5 0x6970667358 0x22 SLT KECCAK256 0xFC 0x1F PUSH27 0x11181E89B8F836AB022A7AC4DF36DD30686D4C5476EF0FAA01836C PUSH3 0x8E6473 PUSH16 0x6C634300080700330000000000000000 "
				},
				"gasEstimates": {
					"creation": {
						"codeDepositCost": "830600",
						"executionCost": "infinite",
						"totalCost": "infinite"
					},
					"external": {
						"approve(uint256)": "infinite",
						"buy()": "infinite",
						"getAddress()": "408",
						"getAllowance()": "infinite",
						"getDexBalance()": "infinite",
						"getOwnerBalance()": "infinite",
						"getSenderAddress()": "430",
						"getTokenAddress()": "infinite",
						"getTotalSupply()": "infinite",
						"sell(uint256)": "infinite",
						"token()": "2707"
					}
				},
				"methodIdentifiers": {
					"approve(uint256)": "b759f954",
					"buy()": "a6f2ae3a",
					"getAddress()": "38cc4831",
					"getAllowance()": "973e9b8b",
					"getDexBalance()": "430f4801",
					"getOwnerBalance()": "590791f2",
					"getSenderAddress()": "42948e18",
					"getTokenAddress()": "10fe9ae8",
					"getTotalSupply()": "c4e41b22",
					"sell(uint256)": "e4849b32",
					"token()": "fc0c546a"
				}
			},
			"storageLayout": {
				"storage": [
					{
						"astId": 380,
						"contract": "contracts/16_Dex.sol:DEX",
						"label": "token",
						"offset": 0,
						"slot": "0",
						"type": "t_contract(IERC20)120"
					}
				],
				"types": {
					"t_contract(IERC20)120": {
						"encoding": "inplace",
						"label": "contract IERC20",
						"numberOfBytes": "20"
					}
				}
			},
			"userdoc": {
				"kind": "user",
				"methods": {},
				"version": 1
			}
		}
	}
}