{
	"contracts/21_Lock.sol": {
		"MyChain": {
			"abi": [
				{
					"inputs": [],
					"stateMutability": "nonpayable",
					"type": "constructor"
				},
				{
					"anonymous": false,
					"inputs": [
						{
							"indexed": true,
							"internalType": "address",
							"name": "owner",
							"type": "address"
						},
						{
							"indexed": true,
							"internalType": "address",
							"name": "spender",
							"type": "address"
						},
						{
							"indexed": false,
							"internalType": "uint256",
							"name": "value",
							"type": "uint256"
						}
					],
					"name": "Approval",
					"type": "event"
				},
				{
					"anonymous": false,
					"inputs": [
						{
							"indexed": true,
							"internalType": "address",
							"name": "previousOwner",
							"type": "address"
						},
						{
							"indexed": true,
							"internalType": "address",
							"name": "newOwner",
							"type": "address"
						}
					],
					"name": "OwnershipTransferred",
					"type": "event"
				},
				{
					"anonymous": false,
					"inputs": [
						{
							"indexed": true,
							"internalType": "address",
							"name": "from",
							"type": "address"
						},
						{
							"indexed": true,
							"internalType": "address",
							"name": "to",
							"type": "address"
						},
						{
							"indexed": false,
							"internalType": "uint256",
							"name": "value",
							"type": "uint256"
						}
					],
					"name": "Transfer",
					"type": "event"
				},
				{
					"inputs": [
						{
							"internalType": "address",
							"name": "owner",
							"type": "address"
						},
						{
							"internalType": "address",
							"name": "spender",
							"type": "address"
						}
					],
					"name": "allowance",
					"outputs": [
						{
							"internalType": "uint256",
							"name": "",
							"type": "uint256"
						}
					],
					"stateMutability": "view",
					"type": "function"
				},
				{
					"inputs": [
						{
							"internalType": "address",
							"name": "spender",
							"type": "address"
						},
						{
							"internalType": "uint256",
							"name": "amount",
							"type": "uint256"
						}
					],
					"name": "approve",
					"outputs": [
						{
							"internalType": "bool",
							"name": "",
							"type": "bool"
						}
					],
					"stateMutability": "nonpayable",
					"type": "function"
				},
				{
					"inputs": [
						{
							"internalType": "address",
							"name": "account",
							"type": "address"
						}
					],
					"name": "balanceOf",
					"outputs": [
						{
							"internalType": "uint256",
							"name": "",
							"type": "uint256"
						}
					],
					"stateMutability": "view",
					"type": "function"
				},
				{
					"inputs": [],
					"name": "decimals",
					"outputs": [
						{
							"internalType": "uint8",
							"name": "",
							"type": "uint8"
						}
					],
					"stateMutability": "view",
					"type": "function"
				},
				{
					"inputs": [
						{
							"internalType": "address",
							"name": "spender",
							"type": "address"
						},
						{
							"internalType": "uint256",
							"name": "subtractedValue",
							"type": "uint256"
						}
					],
					"name": "decreaseAllowance",
					"outputs": [
						{
							"internalType": "bool",
							"name": "",
							"type": "bool"
						}
					],
					"stateMutability": "nonpayable",
					"type": "function"
				},
				{
					"inputs": [
						{
							"internalType": "address",
							"name": "spender",
							"type": "address"
						},
						{
							"internalType": "uint256",
							"name": "addedValue",
							"type": "uint256"
						}
					],
					"name": "increaseAllowance",
					"outputs": [
						{
							"internalType": "bool",
							"name": "",
							"type": "bool"
						}
					],
					"stateMutability": "nonpayable",
					"type": "function"
				},
				{
					"inputs": [],
					"name": "isLocked",
					"outputs": [
						{
							"internalType": "bool",
							"name": "",
							"type": "bool"
						}
					],
					"stateMutability": "view",
					"type": "function"
				},
				{
					"inputs": [],
					"name": "name",
					"outputs": [
						{
							"internalType": "string",
							"name": "",
							"type": "string"
						}
					],
					"stateMutability": "view",
					"type": "function"
				},
				{
					"inputs": [],
					"name": "owner",
					"outputs": [
						{
							"internalType": "address",
							"name": "",
							"type": "address"
						}
					],
					"stateMutability": "view",
					"type": "function"
				},
				{
					"inputs": [],
					"name": "renounceOwnership",
					"outputs": [],
					"stateMutability": "nonpayable",
					"type": "function"
				},
				{
					"inputs": [],
					"name": "setLock",
					"outputs": [
						{
							"internalType": "bool",
							"name": "",
							"type": "bool"
						}
					],
					"stateMutability": "nonpayable",
					"type": "function"
				},
				{
					"inputs": [],
					"name": "symbol",
					"outputs": [
						{
							"internalType": "string",
							"name": "",
							"type": "string"
						}
					],
					"stateMutability": "view",
					"type": "function"
				},
				{
					"inputs": [],
					"name": "timeLock",
					"outputs": [
						{
							"internalType": "uint256",
							"name": "",
							"type": "uint256"
						}
					],
					"stateMutability": "view",
					"type": "function"
				},
				{
					"inputs": [],
					"name": "totalSupply",
					"outputs": [
						{
							"internalType": "uint256",
							"name": "",
							"type": "uint256"
						}
					],
					"stateMutability": "view",
					"type": "function"
				},
				{
					"inputs": [
						{
							"internalType": "address",
							"name": "_to",
							"type": "address"
						},
						{
							"internalType": "uint256",
							"name": "_amount",
							"type": "uint256"
						}
					],
					"name": "transfer",
					"outputs": [
						{
							"internalType": "bool",
							"name": "",
							"type": "bool"
						}
					],
					"stateMutability": "nonpayable",
					"type": "function"
				},
				{
					"inputs": [
						{
							"internalType": "address",
							"name": "from",
							"type": "address"
						},
						{
							"internalType": "address",
							"name": "to",
							"type": "address"
						},
						{
							"internalType": "uint256",
							"name": "amount",
							"type": "uint256"
						}
					],
					"name": "transferFrom",
					"outputs": [
						{
							"internalType": "bool",
							"name": "",
							"type": "bool"
						}
					],
					"stateMutability": "nonpayable",
					"type": "function"
				},
				{
					"inputs": [
						{
							"internalType": "address",
							"name": "newOwner",
							"type": "address"
						}
					],
					"name": "transferOwnership",
					"outputs": [],
					"stateMutability": "nonpayable",
					"type": "function"
				}
			],
			"devdoc": {
				"kind": "dev",
				"methods": {
					"allowance(address,address)": {
						"details": "See {IERC20-allowance}."
					},
					"approve(address,uint256)": {
						"details": "See {IERC20-approve}. NOTE: If `amount` is the maximum `uint256`, the allowance is not updated on `transferFrom`. This is semantically equivalent to an infinite approval. Requirements: - `spender` cannot be the zero address."
					},
					"balanceOf(address)": {
						"details": "See {IERC20-balanceOf}."
					},
					"decimals()": {
						"details": "Returns the number of decimals used to get its user representation. For example, if `decimals` equals `2`, a balance of `505` tokens should be displayed to a user as `5.05` (`505 / 10 ** 2`). Tokens usually opt for a value of 18, imitating the relationship between Ether and Wei. This is the value {ERC20} uses, unless this function is overridden; NOTE: This information is only used for _display_ purposes: it in no way affects any of the arithmetic of the contract, including {IERC20-balanceOf} and {IERC20-transfer}."
					},
					"decreaseAllowance(address,uint256)": {
						"details": "Atomically decreases the allowance granted to `spender` by the caller. This is an alternative to {approve} that can be used as a mitigation for problems described in {IERC20-approve}. Emits an {Approval} event indicating the updated allowance. Requirements: - `spender` cannot be the zero address. - `spender` must have allowance for the caller of at least `subtractedValue`."
					},
					"increaseAllowance(address,uint256)": {
						"details": "Atomically increases the allowance granted to `spender` by the caller. This is an alternative to {approve} that can be used as a mitigation for problems described in {IERC20-approve}. Emits an {Approval} event indicating the updated allowance. Requirements: - `spender` cannot be the zero address."
					},
					"name()": {
						"details": "Returns the name of the token."
					},
					"owner()": {
						"details": "Returns the address of the current owner."
					},
					"renounceOwnership()": {
						"details": "Leaves the contract without owner. It will not be possible to call `onlyOwner` functions anymore. Can only be called by the current owner. NOTE: Renouncing ownership will leave the contract without an owner, thereby removing any functionality that is only available to the owner."
					},
					"symbol()": {
						"details": "Returns the symbol of the token, usually a shorter version of the name."
					},
					"totalSupply()": {
						"details": "See {IERC20-totalSupply}."
					},
					"transferFrom(address,address,uint256)": {
						"details": "See {IERC20-transferFrom}. Emits an {Approval} event indicating the updated allowance. This is not required by the EIP. See the note at the beginning of {ERC20}. NOTE: Does not update the allowance if the current allowance is the maximum `uint256`. Requirements: - `from` and `to` cannot be the zero address. - `from` must have a balance of at least `amount`. - the caller must have allowance for ``from``'s tokens of at least `amount`."
					},
					"transferOwnership(address)": {
						"details": "Transfers ownership of the contract to a new account (`newOwner`). Can only be called by the current owner."
					}
				},
				"version": 1
			},
			"evm": {
				"assembly": "    /* \"contracts/21_Lock.sol\":180:964  contract MyChain is ERC20, Ownable{... */\n  mstore(0x40, 0x80)\n    /* \"contracts/21_Lock.sol\":243:248  false */\n  0x00\n    /* \"contracts/21_Lock.sol\":220:248  bool public isLocked = false */\n  0x05\n  exp(0x0100, 0x14)\n  dup2\n  sload\n  dup2\n  0xff\n  mul\n  not\n  and\n  swap1\n  dup4\n  iszero\n  iszero\n  mul\n  or\n  swap1\n  sstore\n  pop\n    /* \"contracts/21_Lock.sol\":295:304  1 minutes */\n  0x3c\n    /* \"contracts/21_Lock.sol\":277:292  block.timestamp */\n  timestamp\n    /* \"contracts/21_Lock.sol\":277:304  block.timestamp + 1 minutes */\n  tag_1\n  swap2\n  swap1\n  tag_2\n  jump\t// in\ntag_1:\n    /* \"contracts/21_Lock.sol\":254:304  uint public timeLock = block.timestamp + 1 minutes */\n  0x06\n  sstore\n    /* \"contracts/21_Lock.sol\":310:409  constructor() ERC20(\"WuXueChun\", \"WXC\"){... */\n  callvalue\n  dup1\n  iszero\n  tag_3\n  jumpi\n  0x00\n  dup1\n  revert\ntag_3:\n  pop\n    /* \"@openzeppelin/contracts/token/ERC20/ERC20.sol\":1978:2091  constructor(string memory name_, string memory symbol_) {... */\n  mload(0x40)\n  dup1\n  0x40\n  add\n  0x40\n  mstore\n  dup1\n  0x09\n  dup2\n  mstore\n  0x20\n  add\n  0x57755875654368756e0000000000000000000000000000000000000000000000\n  dup2\n  mstore\n  pop\n  mload(0x40)\n  dup1\n  0x40\n  add\n  0x40\n  mstore\n  dup1\n  0x03\n  dup2\n  mstore\n  0x20\n  add\n  0x5758430000000000000000000000000000000000000000000000000000000000\n  dup2\n  mstore\n  pop\n    /* \"@openzeppelin/contracts/token/ERC20/ERC20.sol\":2052:2057  name_ */\n  dup2\n    /* \"@openzeppelin/contracts/token/ERC20/ERC20.sol\":2044:2049  _name */\n  0x03\n    /* \"@openzeppelin/contracts/token/ERC20/ERC20.sol\":2044:2057  _name = name_ */\n  swap1\n  dup1\n  mload\n  swap1\n  0x20\n  add\n  swap1\n  tag_8\n  swap3\n  swap2\n  swap1\n  tag_9\n  jump\t// in\ntag_8:\n  pop\n    /* \"@openzeppelin/contracts/token/ERC20/ERC20.sol\":2077:2084  symbol_ */\n  dup1\n    /* \"@openzeppelin/contracts/token/ERC20/ERC20.sol\":2067:2074  _symbol */\n  0x04\n    /* \"@openzeppelin/contracts/token/ERC20/ERC20.sol\":2067:2084  _symbol = symbol_ */\n  swap1\n  dup1\n  mload\n  swap1\n  0x20\n  add\n  swap1\n  tag_10\n  swap3\n  swap2\n  swap1\n  tag_9\n  jump\t// in\ntag_10:\n  pop\n    /* \"@openzeppelin/contracts/token/ERC20/ERC20.sol\":1978:2091  constructor(string memory name_, string memory symbol_) {... */\n  pop\n  pop\n    /* \"@openzeppelin/contracts/access/Ownable.sol\":936:968  _transferOwnership(_msgSender()) */\n  tag_12\n    /* \"@openzeppelin/contracts/access/Ownable.sol\":955:967  _msgSender() */\n  tag_13\n    /* \"@openzeppelin/contracts/access/Ownable.sol\":955:965  _msgSender */\n  shl(0x20, tag_14)\n    /* \"@openzeppelin/contracts/access/Ownable.sol\":955:967  _msgSender() */\n  0x20\n  shr\n  jump\t// in\ntag_13:\n    /* \"@openzeppelin/contracts/access/Ownable.sol\":936:954  _transferOwnership */\n  shl(0x20, tag_15)\n    /* \"@openzeppelin/contracts/access/Ownable.sol\":936:968  _transferOwnership(_msgSender()) */\n  0x20\n  shr\n  jump\t// in\ntag_12:\n    /* \"contracts/21_Lock.sol\":359:402  _mint(msg.sender, 10000 * 10 ** decimals()) */\n  tag_17\n    /* \"contracts/21_Lock.sol\":365:375  msg.sender */\n  caller\n    /* \"contracts/21_Lock.sol\":391:401  decimals() */\n  tag_18\n    /* \"contracts/21_Lock.sol\":391:399  decimals */\n  shl(0x20, tag_19)\n    /* \"contracts/21_Lock.sol\":391:401  decimals() */\n  0x20\n  shr\n  jump\t// in\ntag_18:\n    /* \"contracts/21_Lock.sol\":385:387  10 */\n  0x0a\n    /* \"contracts/21_Lock.sol\":385:401  10 ** decimals() */\n  tag_20\n  swap2\n  swap1\n  tag_21\n  jump\t// in\ntag_20:\n    /* \"contracts/21_Lock.sol\":377:382  10000 */\n  0x2710\n    /* \"contracts/21_Lock.sol\":377:401  10000 * 10 ** decimals() */\n  tag_22\n  swap2\n  swap1\n  tag_23\n  jump\t// in\ntag_22:\n    /* \"contracts/21_Lock.sol\":359:364  _mint */\n  shl(0x20, tag_24)\n    /* \"contracts/21_Lock.sol\":359:402  _mint(msg.sender, 10000 * 10 ** decimals()) */\n  0x20\n  shr\n  jump\t// in\ntag_17:\n    /* \"contracts/21_Lock.sol\":180:964  contract MyChain is ERC20, Ownable{... */\n  jump(tag_25)\n    /* \"@openzeppelin/contracts/utils/Context.sol\":640:736  function _msgSender() internal view virtual returns (address) {... */\ntag_14:\n    /* \"@openzeppelin/contracts/utils/Context.sol\":693:700  address */\n  0x00\n    /* \"@openzeppelin/contracts/utils/Context.sol\":719:729  msg.sender */\n  caller\n    /* \"@openzeppelin/contracts/utils/Context.sol\":712:729  return msg.sender */\n  swap1\n  pop\n    /* \"@openzeppelin/contracts/utils/Context.sol\":640:736  function _msgSender() internal view virtual returns (address) {... */\n  swap1\n  jump\t// out\n    /* \"@openzeppelin/contracts/access/Ownable.sol\":2433:2620  function _transferOwnership(address newOwner) internal virtual {... */\ntag_15:\n    /* \"@openzeppelin/contracts/access/Ownable.sol\":2506:2522  address oldOwner */\n  0x00\n    /* \"@openzeppelin/contracts/access/Ownable.sol\":2525:2531  _owner */\n  0x05\n  0x00\n  swap1\n  sload\n  swap1\n  0x0100\n  exp\n  swap1\n  div\n  0xffffffffffffffffffffffffffffffffffffffff\n  and\n    /* \"@openzeppelin/contracts/access/Ownable.sol\":2506:2531  address oldOwner = _owner */\n  swap1\n  pop\n    /* \"@openzeppelin/contracts/access/Ownable.sol\":2550:2558  newOwner */\n  dup2\n    /* \"@openzeppelin/contracts/access/Ownable.sol\":2541:2547  _owner */\n  0x05\n  0x00\n    /* \"@openzeppelin/contracts/access/Ownable.sol\":2541:2558  _owner = newOwner */\n  0x0100\n  exp\n  dup2\n  sload\n  dup2\n  0xffffffffffffffffffffffffffffffffffffffff\n  mul\n  not\n  and\n  swap1\n  dup4\n  0xffffffffffffffffffffffffffffffffffffffff\n  and\n  mul\n  or\n  swap1\n  sstore\n  pop\n    /* \"@openzeppelin/contracts/access/Ownable.sol\":2604:2612  newOwner */\n  dup2\n    /* \"@openzeppelin/contracts/access/Ownable.sol\":2573:2613  OwnershipTransferred(oldOwner, newOwner) */\n  0xffffffffffffffffffffffffffffffffffffffff\n  and\n    /* \"@openzeppelin/contracts/access/Ownable.sol\":2594:2602  oldOwner */\n  dup2\n    /* \"@openzeppelin/contracts/access/Ownable.sol\":2573:2613  OwnershipTransferred(oldOwner, newOwner) */\n  0xffffffffffffffffffffffffffffffffffffffff\n  and\n  0x8be0079c531659141344cd1fd0a4f28419497f9722a3daafe3b4186f6b6457e0\n  mload(0x40)\n  mload(0x40)\n  dup1\n  swap2\n  sub\n  swap1\n  log3\n    /* \"@openzeppelin/contracts/access/Ownable.sol\":2496:2620  {... */\n  pop\n    /* \"@openzeppelin/contracts/access/Ownable.sol\":2433:2620  function _transferOwnership(address newOwner) internal virtual {... */\n  pop\n  jump\t// out\n    /* \"@openzeppelin/contracts/token/ERC20/ERC20.sol\":3093:3184  function decimals() public view virtual override returns (uint8) {... */\ntag_19:\n    /* \"@openzeppelin/contracts/token/ERC20/ERC20.sol\":3151:3156  uint8 */\n  0x00\n    /* \"@openzeppelin/contracts/token/ERC20/ERC20.sol\":3175:3177  18 */\n  0x12\n    /* \"@openzeppelin/contracts/token/ERC20/ERC20.sol\":3168:3177  return 18 */\n  swap1\n  pop\n    /* \"@openzeppelin/contracts/token/ERC20/ERC20.sol\":3093:3184  function decimals() public view virtual override returns (uint8) {... */\n  swap1\n  jump\t// out\n    /* \"@openzeppelin/contracts/token/ERC20/ERC20.sol\":8402:8791  function _mint(address account, uint256 amount) internal virtual {... */\ntag_24:\n    /* \"@openzeppelin/contracts/token/ERC20/ERC20.sol\":8504:8505  0 */\n  0x00\n    /* \"@openzeppelin/contracts/token/ERC20/ERC20.sol\":8485:8506  account != address(0) */\n  0xffffffffffffffffffffffffffffffffffffffff\n  and\n    /* \"@openzeppelin/contracts/token/ERC20/ERC20.sol\":8485:8492  account */\n  dup3\n    /* \"@openzeppelin/contracts/token/ERC20/ERC20.sol\":8485:8506  account != address(0) */\n  0xffffffffffffffffffffffffffffffffffffffff\n  and\n  eq\n  iszero\n    /* \"@openzeppelin/contracts/token/ERC20/ERC20.sol\":8477:8542  require(account != address(0), \"ERC20: mint to the zero address\") */\n  tag_30\n  jumpi\n  mload(0x40)\n  0x08c379a000000000000000000000000000000000000000000000000000000000\n  dup2\n  mstore\n  0x04\n  add\n  tag_31\n  swap1\n  tag_32\n  jump\t// in\ntag_31:\n  mload(0x40)\n  dup1\n  swap2\n  sub\n  swap1\n  revert\ntag_30:\n    /* \"@openzeppelin/contracts/token/ERC20/ERC20.sol\":8553:8602  _beforeTokenTransfer(address(0), account, amount) */\n  tag_33\n    /* \"@openzeppelin/contracts/token/ERC20/ERC20.sol\":8582:8583  0 */\n  0x00\n    /* \"@openzeppelin/contracts/token/ERC20/ERC20.sol\":8586:8593  account */\n  dup4\n    /* \"@openzeppelin/contracts/token/ERC20/ERC20.sol\":8595:8601  amount */\n  dup4\n    /* \"@openzeppelin/contracts/token/ERC20/ERC20.sol\":8553:8573  _beforeTokenTransfer */\n  shl(0x20, tag_34)\n    /* \"@openzeppelin/contracts/token/ERC20/ERC20.sol\":8553:8602  _beforeTokenTransfer(address(0), account, amount) */\n  0x20\n  shr\n  jump\t// in\ntag_33:\n    /* \"@openzeppelin/contracts/token/ERC20/ERC20.sol\":8629:8635  amount */\n  dup1\n    /* \"@openzeppelin/contracts/token/ERC20/ERC20.sol\":8613:8625  _totalSupply */\n  0x02\n  0x00\n    /* \"@openzeppelin/contracts/token/ERC20/ERC20.sol\":8613:8635  _totalSupply += amount */\n  dup3\n  dup3\n  sload\n  tag_35\n  swap2\n  swap1\n  tag_2\n  jump\t// in\ntag_35:\n  swap3\n  pop\n  pop\n  dup2\n  swap1\n  sstore\n  pop\n    /* \"@openzeppelin/contracts/token/ERC20/ERC20.sol\":8667:8673  amount */\n  dup1\n    /* \"@openzeppelin/contracts/token/ERC20/ERC20.sol\":8645:8654  _balances */\n  0x00\n    /* \"@openzeppelin/contracts/token/ERC20/ERC20.sol\":8645:8663  _balances[account] */\n  dup1\n    /* \"@openzeppelin/contracts/token/ERC20/ERC20.sol\":8655:8662  account */\n  dup5\n    /* \"@openzeppelin/contracts/token/ERC20/ERC20.sol\":8645:8663  _balances[account] */\n  0xffffffffffffffffffffffffffffffffffffffff\n  and\n  0xffffffffffffffffffffffffffffffffffffffff\n  and\n  dup2\n  mstore\n  0x20\n  add\n  swap1\n  dup2\n  mstore\n  0x20\n  add\n  0x00\n  keccak256\n  0x00\n    /* \"@openzeppelin/contracts/token/ERC20/ERC20.sol\":8645:8673  _balances[account] += amount */\n  dup3\n  dup3\n  sload\n  tag_36\n  swap2\n  swap1\n  tag_2\n  jump\t// in\ntag_36:\n  swap3\n  pop\n  pop\n  dup2\n  swap1\n  sstore\n  pop\n    /* \"@openzeppelin/contracts/token/ERC20/ERC20.sol\":8709:8716  account */\n  dup2\n    /* \"@openzeppelin/contracts/token/ERC20/ERC20.sol\":8688:8725  Transfer(address(0), account, amount) */\n  0xffffffffffffffffffffffffffffffffffffffff\n  and\n    /* \"@openzeppelin/contracts/token/ERC20/ERC20.sol\":8705:8706  0 */\n  0x00\n    /* \"@openzeppelin/contracts/token/ERC20/ERC20.sol\":8688:8725  Transfer(address(0), account, amount) */\n  0xffffffffffffffffffffffffffffffffffffffff\n  and\n  0xddf252ad1be2c89b69c2b068fc378daa952ba7f163c4a11628f55a4df523b3ef\n    /* \"@openzeppelin/contracts/token/ERC20/ERC20.sol\":8718:8724  amount */\n  dup4\n    /* \"@openzeppelin/contracts/token/ERC20/ERC20.sol\":8688:8725  Transfer(address(0), account, amount) */\n  mload(0x40)\n  tag_37\n  swap2\n  swap1\n  tag_38\n  jump\t// in\ntag_37:\n  mload(0x40)\n  dup1\n  swap2\n  sub\n  swap1\n  log3\n    /* \"@openzeppelin/contracts/token/ERC20/ERC20.sol\":8736:8784  _afterTokenTransfer(address(0), account, amount) */\n  tag_39\n    /* \"@openzeppelin/contracts/token/ERC20/ERC20.sol\":8764:8765  0 */\n  0x00\n    /* \"@openzeppelin/contracts/token/ERC20/ERC20.sol\":8768:8775  account */\n  dup4\n    /* \"@openzeppelin/contracts/token/ERC20/ERC20.sol\":8777:8783  amount */\n  dup4\n    /* \"@openzeppelin/contracts/token/ERC20/ERC20.sol\":8736:8755  _afterTokenTransfer */\n  shl(0x20, tag_40)\n    /* \"@openzeppelin/contracts/token/ERC20/ERC20.sol\":8736:8784  _afterTokenTransfer(address(0), account, amount) */\n  0x20\n  shr\n  jump\t// in\ntag_39:\n    /* \"@openzeppelin/contracts/token/ERC20/ERC20.sol\":8402:8791  function _mint(address account, uint256 amount) internal virtual {... */\n  pop\n  pop\n  jump\t// out\n    /* \"@openzeppelin/contracts/token/ERC20/ERC20.sol\":11786:11907  function _beforeTokenTransfer(... */\ntag_34:\n  pop\n  pop\n  pop\n  jump\t// out\n    /* \"@openzeppelin/contracts/token/ERC20/ERC20.sol\":12495:12615  function _afterTokenTransfer(... */\ntag_40:\n  pop\n  pop\n  pop\n  jump\t// out\n    /* \"contracts/21_Lock.sol\":180:964  contract MyChain is ERC20, Ownable{... */\ntag_9:\n  dup3\n  dup1\n  sload\n  tag_43\n  swap1\n  tag_44\n  jump\t// in\ntag_43:\n  swap1\n  0x00\n  mstore\n  keccak256(0x00, 0x20)\n  swap1\n  0x1f\n  add\n  0x20\n  swap1\n  div\n  dup2\n  add\n  swap3\n  dup3\n  tag_46\n  jumpi\n  0x00\n  dup6\n  sstore\n  jump(tag_45)\ntag_46:\n  dup3\n  0x1f\n  lt\n  tag_47\n  jumpi\n  dup1\n  mload\n  not(0xff)\n  and\n  dup4\n  dup1\n  add\n  or\n  dup6\n  sstore\n  jump(tag_45)\ntag_47:\n  dup3\n  dup1\n  add\n  0x01\n  add\n  dup6\n  sstore\n  dup3\n  iszero\n  tag_45\n  jumpi\n  swap2\n  dup3\n  add\ntag_48:\n  dup3\n  dup2\n  gt\n  iszero\n  tag_49\n  jumpi\n  dup3\n  mload\n  dup3\n  sstore\n  swap2\n  0x20\n  add\n  swap2\n  swap1\n  0x01\n  add\n  swap1\n  jump(tag_48)\ntag_49:\ntag_45:\n  pop\n  swap1\n  pop\n  tag_50\n  swap2\n  swap1\n  tag_51\n  jump\t// in\ntag_50:\n  pop\n  swap1\n  jump\t// out\ntag_51:\ntag_52:\n  dup1\n  dup3\n  gt\n  iszero\n  tag_53\n  jumpi\n  0x00\n  dup2\n  0x00\n  swap1\n  sstore\n  pop\n  0x01\n  add\n  jump(tag_52)\ntag_53:\n  pop\n  swap1\n  jump\t// out\n    /* \"#utility.yul\":7:373   */\ntag_55:\n    /* \"#utility.yul\":149:152   */\n  0x00\n    /* \"#utility.yul\":170:237   */\n  tag_57\n    /* \"#utility.yul\":234:236   */\n  0x1f\n    /* \"#utility.yul\":229:232   */\n  dup4\n    /* \"#utility.yul\":170:237   */\n  tag_58\n  jump\t// in\ntag_57:\n    /* \"#utility.yul\":163:237   */\n  swap2\n  pop\n    /* \"#utility.yul\":246:339   */\n  tag_59\n    /* \"#utility.yul\":335:338   */\n  dup3\n    /* \"#utility.yul\":246:339   */\n  tag_60\n  jump\t// in\ntag_59:\n    /* \"#utility.yul\":364:366   */\n  0x20\n    /* \"#utility.yul\":359:362   */\n  dup3\n    /* \"#utility.yul\":355:367   */\n  add\n    /* \"#utility.yul\":348:367   */\n  swap1\n  pop\n    /* \"#utility.yul\":7:373   */\n  swap2\n  swap1\n  pop\n  jump\t// out\n    /* \"#utility.yul\":379:497   */\ntag_61:\n    /* \"#utility.yul\":466:490   */\n  tag_63\n    /* \"#utility.yul\":484:489   */\n  dup2\n    /* \"#utility.yul\":466:490   */\n  tag_64\n  jump\t// in\ntag_63:\n    /* \"#utility.yul\":461:464   */\n  dup3\n    /* \"#utility.yul\":454:491   */\n  mstore\n    /* \"#utility.yul\":379:497   */\n  pop\n  pop\n  jump\t// out\n    /* \"#utility.yul\":503:922   */\ntag_32:\n    /* \"#utility.yul\":669:673   */\n  0x00\n    /* \"#utility.yul\":707:709   */\n  0x20\n    /* \"#utility.yul\":696:705   */\n  dup3\n    /* \"#utility.yul\":692:710   */\n  add\n    /* \"#utility.yul\":684:710   */\n  swap1\n  pop\n    /* \"#utility.yul\":756:765   */\n  dup2\n    /* \"#utility.yul\":750:754   */\n  dup2\n    /* \"#utility.yul\":746:766   */\n  sub\n    /* \"#utility.yul\":742:743   */\n  0x00\n    /* \"#utility.yul\":731:740   */\n  dup4\n    /* \"#utility.yul\":727:744   */\n  add\n    /* \"#utility.yul\":720:767   */\n  mstore\n    /* \"#utility.yul\":784:915   */\n  tag_66\n    /* \"#utility.yul\":910:914   */\n  dup2\n    /* \"#utility.yul\":784:915   */\n  tag_55\n  jump\t// in\ntag_66:\n    /* \"#utility.yul\":776:915   */\n  swap1\n  pop\n    /* \"#utility.yul\":503:922   */\n  swap2\n  swap1\n  pop\n  jump\t// out\n    /* \"#utility.yul\":928:1150   */\ntag_38:\n    /* \"#utility.yul\":1021:1025   */\n  0x00\n    /* \"#utility.yul\":1059:1061   */\n  0x20\n    /* \"#utility.yul\":1048:1057   */\n  dup3\n    /* \"#utility.yul\":1044:1062   */\n  add\n    /* \"#utility.yul\":1036:1062   */\n  swap1\n  pop\n    /* \"#utility.yul\":1072:1143   */\n  tag_68\n    /* \"#utility.yul\":1140:1141   */\n  0x00\n    /* \"#utility.yul\":1129:1138   */\n  dup4\n    /* \"#utility.yul\":1125:1142   */\n  add\n    /* \"#utility.yul\":1116:1122   */\n  dup5\n    /* \"#utility.yul\":1072:1143   */\n  tag_61\n  jump\t// in\ntag_68:\n    /* \"#utility.yul\":928:1150   */\n  swap3\n  swap2\n  pop\n  pop\n  jump\t// out\n    /* \"#utility.yul\":1156:1325   */\ntag_58:\n    /* \"#utility.yul\":1240:1251   */\n  0x00\n    /* \"#utility.yul\":1274:1280   */\n  dup3\n    /* \"#utility.yul\":1269:1272   */\n  dup3\n    /* \"#utility.yul\":1262:1281   */\n  mstore\n    /* \"#utility.yul\":1314:1318   */\n  0x20\n    /* \"#utility.yul\":1309:1312   */\n  dup3\n    /* \"#utility.yul\":1305:1319   */\n  add\n    /* \"#utility.yul\":1290:1319   */\n  swap1\n  pop\n    /* \"#utility.yul\":1156:1325   */\n  swap3\n  swap2\n  pop\n  pop\n  jump\t// out\n    /* \"#utility.yul\":1331:1636   */\ntag_2:\n    /* \"#utility.yul\":1371:1374   */\n  0x00\n    /* \"#utility.yul\":1390:1410   */\n  tag_71\n    /* \"#utility.yul\":1408:1409   */\n  dup3\n    /* \"#utility.yul\":1390:1410   */\n  tag_64\n  jump\t// in\ntag_71:\n    /* \"#utility.yul\":1385:1410   */\n  swap2\n  pop\n    /* \"#utility.yul\":1424:1444   */\n  tag_72\n    /* \"#utility.yul\":1442:1443   */\n  dup4\n    /* \"#utility.yul\":1424:1444   */\n  tag_64\n  jump\t// in\ntag_72:\n    /* \"#utility.yul\":1419:1444   */\n  swap3\n  pop\n    /* \"#utility.yul\":1578:1579   */\n  dup3\n    /* \"#utility.yul\":1510:1576   */\n  0xffffffffffffffffffffffffffffffffffffffffffffffffffffffffffffffff\n    /* \"#utility.yul\":1506:1580   */\n  sub\n    /* \"#utility.yul\":1503:1504   */\n  dup3\n    /* \"#utility.yul\":1500:1581   */\n  gt\n    /* \"#utility.yul\":1497:1604   */\n  iszero\n  tag_73\n  jumpi\n    /* \"#utility.yul\":1584:1602   */\n  tag_74\n  tag_75\n  jump\t// in\ntag_74:\n    /* \"#utility.yul\":1497:1604   */\ntag_73:\n    /* \"#utility.yul\":1628:1629   */\n  dup3\n    /* \"#utility.yul\":1625:1626   */\n  dup3\n    /* \"#utility.yul\":1621:1630   */\n  add\n    /* \"#utility.yul\":1614:1630   */\n  swap1\n  pop\n    /* \"#utility.yul\":1331:1636   */\n  swap3\n  swap2\n  pop\n  pop\n  jump\t// out\n    /* \"#utility.yul\":1642:2490   */\ntag_76:\n    /* \"#utility.yul\":1703:1708   */\n  0x00\n    /* \"#utility.yul\":1710:1714   */\n  dup1\n    /* \"#utility.yul\":1734:1740   */\n  dup3\n    /* \"#utility.yul\":1725:1740   */\n  swap2\n  pop\n    /* \"#utility.yul\":1758:1763   */\n  dup4\n    /* \"#utility.yul\":1749:1763   */\n  swap1\n  pop\n    /* \"#utility.yul\":1772:2484   */\ntag_78:\n    /* \"#utility.yul\":1793:1794   */\n  0x01\n    /* \"#utility.yul\":1783:1791   */\n  dup6\n    /* \"#utility.yul\":1780:1795   */\n  gt\n    /* \"#utility.yul\":1772:2484   */\n  iszero\n  tag_80\n  jumpi\n    /* \"#utility.yul\":1888:1892   */\n  dup1\n    /* \"#utility.yul\":1883:1886   */\n  dup7\n    /* \"#utility.yul\":1879:1893   */\n  div\n    /* \"#utility.yul\":1873:1877   */\n  dup2\n    /* \"#utility.yul\":1870:1894   */\n  gt\n    /* \"#utility.yul\":1867:1917   */\n  iszero\n  tag_81\n  jumpi\n    /* \"#utility.yul\":1897:1915   */\n  tag_82\n  tag_75\n  jump\t// in\ntag_82:\n    /* \"#utility.yul\":1867:1917   */\ntag_81:\n    /* \"#utility.yul\":1947:1948   */\n  0x01\n    /* \"#utility.yul\":1937:1945   */\n  dup6\n    /* \"#utility.yul\":1933:1949   */\n  and\n    /* \"#utility.yul\":1930:2381   */\n  iszero\n  tag_83\n  jumpi\n    /* \"#utility.yul\":2362:2366   */\n  dup1\n    /* \"#utility.yul\":2355:2360   */\n  dup3\n    /* \"#utility.yul\":2351:2367   */\n  mul\n    /* \"#utility.yul\":2342:2367   */\n  swap2\n  pop\n    /* \"#utility.yul\":1930:2381   */\ntag_83:\n    /* \"#utility.yul\":2412:2416   */\n  dup1\n    /* \"#utility.yul\":2406:2410   */\n  dup2\n    /* \"#utility.yul\":2402:2417   */\n  mul\n    /* \"#utility.yul\":2394:2417   */\n  swap1\n  pop\n    /* \"#utility.yul\":2442:2474   */\n  tag_84\n    /* \"#utility.yul\":2465:2473   */\n  dup6\n    /* \"#utility.yul\":2442:2474   */\n  tag_85\n  jump\t// in\ntag_84:\n    /* \"#utility.yul\":2430:2474   */\n  swap5\n  pop\n    /* \"#utility.yul\":1772:2484   */\n  jump(tag_78)\ntag_80:\n    /* \"#utility.yul\":1642:2490   */\n  swap5\n  pop\n  swap5\n  swap3\n  pop\n  pop\n  pop\n  jump\t// out\n    /* \"#utility.yul\":2496:2777   */\ntag_21:\n    /* \"#utility.yul\":2554:2559   */\n  0x00\n    /* \"#utility.yul\":2578:2601   */\n  tag_87\n    /* \"#utility.yul\":2596:2600   */\n  dup3\n    /* \"#utility.yul\":2578:2601   */\n  tag_64\n  jump\t// in\ntag_87:\n    /* \"#utility.yul\":2570:2601   */\n  swap2\n  pop\n    /* \"#utility.yul\":2622:2647   */\n  tag_88\n    /* \"#utility.yul\":2638:2646   */\n  dup4\n    /* \"#utility.yul\":2622:2647   */\n  tag_89\n  jump\t// in\ntag_88:\n    /* \"#utility.yul\":2610:2647   */\n  swap3\n  pop\n    /* \"#utility.yul\":2666:2770   */\n  tag_90\n    /* \"#utility.yul\":2703:2769   */\n  0xffffffffffffffffffffffffffffffffffffffffffffffffffffffffffffffff\n    /* \"#utility.yul\":2693:2701   */\n  dup5\n    /* \"#utility.yul\":2687:2691   */\n  dup5\n    /* \"#utility.yul\":2666:2770   */\n  tag_91\n  jump\t// in\ntag_90:\n    /* \"#utility.yul\":2657:2770   */\n  swap1\n  pop\n    /* \"#utility.yul\":2496:2777   */\n  swap3\n  swap2\n  pop\n  pop\n  jump\t// out\n    /* \"#utility.yul\":2783:3856   */\ntag_91:\n    /* \"#utility.yul\":2837:2842   */\n  0x00\n    /* \"#utility.yul\":3028:3036   */\n  dup3\n    /* \"#utility.yul\":3018:3058   */\n  tag_93\n  jumpi\n    /* \"#utility.yul\":3049:3050   */\n  0x01\n    /* \"#utility.yul\":3040:3050   */\n  swap1\n  pop\n    /* \"#utility.yul\":3051:3056   */\n  jump(tag_92)\n    /* \"#utility.yul\":3018:3058   */\ntag_93:\n    /* \"#utility.yul\":3077:3081   */\n  dup2\n    /* \"#utility.yul\":3067:3103   */\n  tag_94\n  jumpi\n    /* \"#utility.yul\":3094:3095   */\n  0x00\n    /* \"#utility.yul\":3085:3095   */\n  swap1\n  pop\n    /* \"#utility.yul\":3096:3101   */\n  jump(tag_92)\n    /* \"#utility.yul\":3067:3103   */\ntag_94:\n    /* \"#utility.yul\":3163:3167   */\n  dup2\n    /* \"#utility.yul\":3211:3212   */\n  0x01\n    /* \"#utility.yul\":3206:3233   */\n  dup2\n  eq\n  tag_96\n  jumpi\n    /* \"#utility.yul\":3247:3248   */\n  0x02\n    /* \"#utility.yul\":3242:3433   */\n  dup2\n  eq\n  tag_97\n  jumpi\n    /* \"#utility.yul\":3156:3433   */\n  jump(tag_95)\n    /* \"#utility.yul\":3206:3233   */\ntag_96:\n    /* \"#utility.yul\":3224:3225   */\n  0x01\n    /* \"#utility.yul\":3215:3225   */\n  swap2\n  pop\n    /* \"#utility.yul\":3226:3231   */\n  pop\n  jump(tag_92)\n    /* \"#utility.yul\":3242:3433   */\ntag_97:\n    /* \"#utility.yul\":3287:3290   */\n  0xff\n    /* \"#utility.yul\":3277:3285   */\n  dup5\n    /* \"#utility.yul\":3274:3291   */\n  gt\n    /* \"#utility.yul\":3271:3314   */\n  iszero\n  tag_98\n  jumpi\n    /* \"#utility.yul\":3294:3312   */\n  tag_99\n  tag_75\n  jump\t// in\ntag_99:\n    /* \"#utility.yul\":3271:3314   */\ntag_98:\n    /* \"#utility.yul\":3343:3351   */\n  dup4\n    /* \"#utility.yul\":3340:3341   */\n  0x02\n    /* \"#utility.yul\":3336:3352   */\n  exp\n    /* \"#utility.yul\":3327:3352   */\n  swap2\n  pop\n    /* \"#utility.yul\":3378:3381   */\n  dup5\n    /* \"#utility.yul\":3371:3376   */\n  dup3\n    /* \"#utility.yul\":3368:3382   */\n  gt\n    /* \"#utility.yul\":3365:3405   */\n  iszero\n  tag_100\n  jumpi\n    /* \"#utility.yul\":3385:3403   */\n  tag_101\n  tag_75\n  jump\t// in\ntag_101:\n    /* \"#utility.yul\":3365:3405   */\ntag_100:\n    /* \"#utility.yul\":3418:3423   */\n  pop\n  jump(tag_92)\n    /* \"#utility.yul\":3156:3433   */\ntag_95:\n  pop\n    /* \"#utility.yul\":3542:3544   */\n  0x20\n    /* \"#utility.yul\":3532:3540   */\n  dup4\n    /* \"#utility.yul\":3529:3545   */\n  lt\n    /* \"#utility.yul\":3523:3526   */\n  0x0133\n    /* \"#utility.yul\":3517:3521   */\n  dup4\n    /* \"#utility.yul\":3514:3527   */\n  lt\n    /* \"#utility.yul\":3510:3546   */\n  and\n    /* \"#utility.yul\":3492:3494   */\n  0x4e\n    /* \"#utility.yul\":3482:3490   */\n  dup5\n    /* \"#utility.yul\":3479:3495   */\n  lt\n    /* \"#utility.yul\":3474:3476   */\n  0x0b\n    /* \"#utility.yul\":3468:3472   */\n  dup5\n    /* \"#utility.yul\":3465:3477   */\n  lt\n    /* \"#utility.yul\":3461:3496   */\n  and\n    /* \"#utility.yul\":3445:3556   */\n  or\n    /* \"#utility.yul\":3442:3688   */\n  iszero\n  tag_102\n  jumpi\n    /* \"#utility.yul\":3598:3606   */\n  dup3\n    /* \"#utility.yul\":3592:3596   */\n  dup3\n    /* \"#utility.yul\":3588:3607   */\n  exp\n    /* \"#utility.yul\":3579:3607   */\n  swap1\n  pop\n    /* \"#utility.yul\":3633:3636   */\n  dup4\n    /* \"#utility.yul\":3626:3631   */\n  dup2\n    /* \"#utility.yul\":3623:3637   */\n  gt\n    /* \"#utility.yul\":3620:3660   */\n  iszero\n  tag_103\n  jumpi\n    /* \"#utility.yul\":3640:3658   */\n  tag_104\n  tag_75\n  jump\t// in\ntag_104:\n    /* \"#utility.yul\":3620:3660   */\ntag_103:\n    /* \"#utility.yul\":3673:3678   */\n  jump(tag_92)\n    /* \"#utility.yul\":3442:3688   */\ntag_102:\n    /* \"#utility.yul\":3713:3755   */\n  tag_105\n    /* \"#utility.yul\":3751:3754   */\n  dup5\n    /* \"#utility.yul\":3741:3749   */\n  dup5\n    /* \"#utility.yul\":3735:3739   */\n  dup5\n    /* \"#utility.yul\":3732:3733   */\n  0x01\n    /* \"#utility.yul\":3713:3755   */\n  tag_76\n  jump\t// in\ntag_105:\n    /* \"#utility.yul\":3698:3755   */\n  swap3\n  pop\n  swap1\n  pop\n    /* \"#utility.yul\":3787:3791   */\n  dup2\n    /* \"#utility.yul\":3782:3785   */\n  dup5\n    /* \"#utility.yul\":3778:3792   */\n  div\n    /* \"#utility.yul\":3771:3776   */\n  dup2\n    /* \"#utility.yul\":3768:3793   */\n  gt\n    /* \"#utility.yul\":3765:3816   */\n  iszero\n  tag_106\n  jumpi\n    /* \"#utility.yul\":3796:3814   */\n  tag_107\n  tag_75\n  jump\t// in\ntag_107:\n    /* \"#utility.yul\":3765:3816   */\ntag_106:\n    /* \"#utility.yul\":3845:3849   */\n  dup2\n    /* \"#utility.yul\":3838:3843   */\n  dup2\n    /* \"#utility.yul\":3834:3850   */\n  mul\n    /* \"#utility.yul\":3825:3850   */\n  swap1\n  pop\n    /* \"#utility.yul\":2783:3856   */\ntag_92:\n  swap4\n  swap3\n  pop\n  pop\n  pop\n  jump\t// out\n    /* \"#utility.yul\":3862:4210   */\ntag_23:\n    /* \"#utility.yul\":3902:3909   */\n  0x00\n    /* \"#utility.yul\":3925:3945   */\n  tag_109\n    /* \"#utility.yul\":3943:3944   */\n  dup3\n    /* \"#utility.yul\":3925:3945   */\n  tag_64\n  jump\t// in\ntag_109:\n    /* \"#utility.yul\":3920:3945   */\n  swap2\n  pop\n    /* \"#utility.yul\":3959:3979   */\n  tag_110\n    /* \"#utility.yul\":3977:3978   */\n  dup4\n    /* \"#utility.yul\":3959:3979   */\n  tag_64\n  jump\t// in\ntag_110:\n    /* \"#utility.yul\":3954:3979   */\n  swap3\n  pop\n    /* \"#utility.yul\":4147:4148   */\n  dup2\n    /* \"#utility.yul\":4079:4145   */\n  0xffffffffffffffffffffffffffffffffffffffffffffffffffffffffffffffff\n    /* \"#utility.yul\":4075:4149   */\n  div\n    /* \"#utility.yul\":4072:4073   */\n  dup4\n    /* \"#utility.yul\":4069:4150   */\n  gt\n    /* \"#utility.yul\":4064:4065   */\n  dup3\n    /* \"#utility.yul\":4057:4066   */\n  iszero\n    /* \"#utility.yul\":4050:4067   */\n  iszero\n    /* \"#utility.yul\":4046:4151   */\n  and\n    /* \"#utility.yul\":4043:4174   */\n  iszero\n  tag_111\n  jumpi\n    /* \"#utility.yul\":4154:4172   */\n  tag_112\n  tag_75\n  jump\t// in\ntag_112:\n    /* \"#utility.yul\":4043:4174   */\ntag_111:\n    /* \"#utility.yul\":4202:4203   */\n  dup3\n    /* \"#utility.yul\":4199:4200   */\n  dup3\n    /* \"#utility.yul\":4195:4204   */\n  mul\n    /* \"#utility.yul\":4184:4204   */\n  swap1\n  pop\n    /* \"#utility.yul\":3862:4210   */\n  swap3\n  swap2\n  pop\n  pop\n  jump\t// out\n    /* \"#utility.yul\":4216:4293   */\ntag_64:\n    /* \"#utility.yul\":4253:4260   */\n  0x00\n    /* \"#utility.yul\":4282:4287   */\n  dup2\n    /* \"#utility.yul\":4271:4287   */\n  swap1\n  pop\n    /* \"#utility.yul\":4216:4293   */\n  swap2\n  swap1\n  pop\n  jump\t// out\n    /* \"#utility.yul\":4299:4385   */\ntag_89:\n    /* \"#utility.yul\":4334:4341   */\n  0x00\n    /* \"#utility.yul\":4374:4378   */\n  0xff\n    /* \"#utility.yul\":4367:4372   */\n  dup3\n    /* \"#utility.yul\":4363:4379   */\n  and\n    /* \"#utility.yul\":4352:4379   */\n  swap1\n  pop\n    /* \"#utility.yul\":4299:4385   */\n  swap2\n  swap1\n  pop\n  jump\t// out\n    /* \"#utility.yul\":4391:4711   */\ntag_44:\n    /* \"#utility.yul\":4435:4441   */\n  0x00\n    /* \"#utility.yul\":4472:4473   */\n  0x02\n    /* \"#utility.yul\":4466:4470   */\n  dup3\n    /* \"#utility.yul\":4462:4474   */\n  div\n    /* \"#utility.yul\":4452:4474   */\n  swap1\n  pop\n    /* \"#utility.yul\":4519:4520   */\n  0x01\n    /* \"#utility.yul\":4513:4517   */\n  dup3\n    /* \"#utility.yul\":4509:4521   */\n  and\n    /* \"#utility.yul\":4540:4558   */\n  dup1\n    /* \"#utility.yul\":4530:4611   */\n  tag_116\n  jumpi\n    /* \"#utility.yul\":4596:4600   */\n  0x7f\n    /* \"#utility.yul\":4588:4594   */\n  dup3\n    /* \"#utility.yul\":4584:4601   */\n  and\n    /* \"#utility.yul\":4574:4601   */\n  swap2\n  pop\n    /* \"#utility.yul\":4530:4611   */\ntag_116:\n    /* \"#utility.yul\":4658:4660   */\n  0x20\n    /* \"#utility.yul\":4650:4656   */\n  dup3\n    /* \"#utility.yul\":4647:4661   */\n  lt\n    /* \"#utility.yul\":4627:4645   */\n  dup2\n    /* \"#utility.yul\":4624:4662   */\n  eq\n    /* \"#utility.yul\":4621:4705   */\n  iszero\n  tag_117\n  jumpi\n    /* \"#utility.yul\":4677:4695   */\n  tag_118\n  tag_119\n  jump\t// in\ntag_118:\n    /* \"#utility.yul\":4621:4705   */\ntag_117:\n    /* \"#utility.yul\":4442:4711   */\n  pop\n    /* \"#utility.yul\":4391:4711   */\n  swap2\n  swap1\n  pop\n  jump\t// out\n    /* \"#utility.yul\":4717:4897   */\ntag_75:\n    /* \"#utility.yul\":4765:4842   */\n  0x4e487b7100000000000000000000000000000000000000000000000000000000\n    /* \"#utility.yul\":4762:4763   */\n  0x00\n    /* \"#utility.yul\":4755:4843   */\n  mstore\n    /* \"#utility.yul\":4862:4866   */\n  0x11\n    /* \"#utility.yul\":4859:4860   */\n  0x04\n    /* \"#utility.yul\":4852:4867   */\n  mstore\n    /* \"#utility.yul\":4886:4890   */\n  0x24\n    /* \"#utility.yul\":4883:4884   */\n  0x00\n    /* \"#utility.yul\":4876:4891   */\n  revert\n    /* \"#utility.yul\":4903:5083   */\ntag_119:\n    /* \"#utility.yul\":4951:5028   */\n  0x4e487b7100000000000000000000000000000000000000000000000000000000\n    /* \"#utility.yul\":4948:4949   */\n  0x00\n    /* \"#utility.yul\":4941:5029   */\n  mstore\n    /* \"#utility.yul\":5048:5052   */\n  0x22\n    /* \"#utility.yul\":5045:5046   */\n  0x04\n    /* \"#utility.yul\":5038:5053   */\n  mstore\n    /* \"#utility.yul\":5072:5076   */\n  0x24\n    /* \"#utility.yul\":5069:5070   */\n  0x00\n    /* \"#utility.yul\":5062:5077   */\n  revert\n    /* \"#utility.yul\":5089:5191   */\ntag_85:\n    /* \"#utility.yul\":5131:5139   */\n  0x00\n    /* \"#utility.yul\":5178:5183   */\n  dup2\n    /* \"#utility.yul\":5175:5176   */\n  0x01\n    /* \"#utility.yul\":5171:5184   */\n  shr\n    /* \"#utility.yul\":5150:5184   */\n  swap1\n  pop\n    /* \"#utility.yul\":5089:5191   */\n  swap2\n  swap1\n  pop\n  jump\t// out\n    /* \"#utility.yul\":5197:5378   */\ntag_60:\n    /* \"#utility.yul\":5337:5370   */\n  0x45524332303a206d696e7420746f20746865207a65726f206164647265737300\n    /* \"#utility.yul\":5333:5334   */\n  0x00\n    /* \"#utility.yul\":5325:5331   */\n  dup3\n    /* \"#utility.yul\":5321:5335   */\n  add\n    /* \"#utility.yul\":5314:5371   */\n  mstore\n    /* \"#utility.yul\":5197:5378   */\n  pop\n  jump\t// out\n    /* \"contracts/21_Lock.sol\":180:964  contract MyChain is ERC20, Ownable{... */\ntag_25:\n  dataSize(sub_0)\n  dup1\n  dataOffset(sub_0)\n  0x00\n  codecopy\n  0x00\n  return\nstop\n\nsub_0: assembly {\n        /* \"contracts/21_Lock.sol\":180:964  contract MyChain is ERC20, Ownable{... */\n      mstore(0x40, 0x80)\n      callvalue\n      dup1\n      iszero\n      tag_1\n      jumpi\n      0x00\n      dup1\n      revert\n    tag_1:\n      pop\n      jumpi(tag_2, lt(calldatasize, 0x04))\n      shr(0xe0, calldataload(0x00))\n      dup1\n      0x7aba6f37\n      gt\n      tag_20\n      jumpi\n      dup1\n      0xa4e2d634\n      gt\n      tag_21\n      jumpi\n      dup1\n      0xa4e2d634\n      eq\n      tag_15\n      jumpi\n      dup1\n      0xa9059cbb\n      eq\n      tag_16\n      jumpi\n      dup1\n      0xd085835a\n      eq\n      tag_17\n      jumpi\n      dup1\n      0xdd62ed3e\n      eq\n      tag_18\n      jumpi\n      dup1\n      0xf2fde38b\n      eq\n      tag_19\n      jumpi\n      jump(tag_2)\n    tag_21:\n      dup1\n      0x7aba6f37\n      eq\n      tag_11\n      jumpi\n      dup1\n      0x8da5cb5b\n      eq\n      tag_12\n      jumpi\n      dup1\n      0x95d89b41\n      eq\n      tag_13\n      jumpi\n      dup1\n      0xa457c2d7\n      eq\n      tag_14\n      jumpi\n      jump(tag_2)\n    tag_20:\n      dup1\n      0x313ce567\n      gt\n      tag_22\n      jumpi\n      dup1\n      0x313ce567\n      eq\n      tag_7\n      jumpi\n      dup1\n      0x39509351\n      eq\n      tag_8\n      jumpi\n      dup1\n      0x70a08231\n      eq\n      tag_9\n      jumpi\n      dup1\n      0x715018a6\n      eq\n      tag_10\n      jumpi\n      jump(tag_2)\n    tag_22:\n      dup1\n      0x06fdde03\n      eq\n      tag_3\n      jumpi\n      dup1\n      0x095ea7b3\n      eq\n      tag_4\n      jumpi\n      dup1\n      0x18160ddd\n      eq\n      tag_5\n      jumpi\n      dup1\n      0x23b872dd\n      eq\n      tag_6\n      jumpi\n    tag_2:\n      0x00\n      dup1\n      revert\n        /* \"@openzeppelin/contracts/token/ERC20/ERC20.sol\":2156:2254  function name() public view virtual override returns (string memory) {... */\n    tag_3:\n      tag_23\n      tag_24\n      jump\t// in\n    tag_23:\n      mload(0x40)\n      tag_25\n      swap2\n      swap1\n      tag_26\n      jump\t// in\n    tag_25:\n      mload(0x40)\n      dup1\n      swap2\n      sub\n      swap1\n      return\n        /* \"@openzeppelin/contracts/token/ERC20/ERC20.sol\":4433:4630  function approve(address spender, uint256 amount) public virtual override returns (bool) {... */\n    tag_4:\n      tag_27\n      0x04\n      dup1\n      calldatasize\n      sub\n      dup2\n      add\n      swap1\n      tag_28\n      swap2\n      swap1\n      tag_29\n      jump\t// in\n    tag_28:\n      tag_30\n      jump\t// in\n    tag_27:\n      mload(0x40)\n      tag_31\n      swap2\n      swap1\n      tag_32\n      jump\t// in\n    tag_31:\n      mload(0x40)\n      dup1\n      swap2\n      sub\n      swap1\n      return\n        /* \"@openzeppelin/contracts/token/ERC20/ERC20.sol\":3244:3350  function totalSupply() public view virtual override returns (uint256) {... */\n    tag_5:\n      tag_33\n      tag_34\n      jump\t// in\n    tag_33:\n      mload(0x40)\n      tag_35\n      swap2\n      swap1\n      tag_36\n      jump\t// in\n    tag_35:\n      mload(0x40)\n      dup1\n      swap2\n      sub\n      swap1\n      return\n        /* \"@openzeppelin/contracts/token/ERC20/ERC20.sol\":5192:5478  function transferFrom(... */\n    tag_6:\n      tag_37\n      0x04\n      dup1\n      calldatasize\n      sub\n      dup2\n      add\n      swap1\n      tag_38\n      swap2\n      swap1\n      tag_39\n      jump\t// in\n    tag_38:\n      tag_40\n      jump\t// in\n    tag_37:\n      mload(0x40)\n      tag_41\n      swap2\n      swap1\n      tag_32\n      jump\t// in\n    tag_41:\n      mload(0x40)\n      dup1\n      swap2\n      sub\n      swap1\n      return\n        /* \"@openzeppelin/contracts/token/ERC20/ERC20.sol\":3093:3184  function decimals() public view virtual override returns (uint8) {... */\n    tag_7:\n      tag_42\n      tag_43\n      jump\t// in\n    tag_42:\n      mload(0x40)\n      tag_44\n      swap2\n      swap1\n      tag_45\n      jump\t// in\n    tag_44:\n      mload(0x40)\n      dup1\n      swap2\n      sub\n      swap1\n      return\n        /* \"@openzeppelin/contracts/token/ERC20/ERC20.sol\":5873:6107  function increaseAllowance(address spender, uint256 addedValue) public virtual returns (bool) {... */\n    tag_8:\n      tag_46\n      0x04\n      dup1\n      calldatasize\n      sub\n      dup2\n      add\n      swap1\n      tag_47\n      swap2\n      swap1\n      tag_29\n      jump\t// in\n    tag_47:\n      tag_48\n      jump\t// in\n    tag_46:\n      mload(0x40)\n      tag_49\n      swap2\n      swap1\n      tag_32\n      jump\t// in\n    tag_49:\n      mload(0x40)\n      dup1\n      swap2\n      sub\n      swap1\n      return\n        /* \"@openzeppelin/contracts/token/ERC20/ERC20.sol\":3408:3533  function balanceOf(address account) public view virtual override returns (uint256) {... */\n    tag_9:\n      tag_50\n      0x04\n      dup1\n      calldatasize\n      sub\n      dup2\n      add\n      swap1\n      tag_51\n      swap2\n      swap1\n      tag_52\n      jump\t// in\n    tag_51:\n      tag_53\n      jump\t// in\n    tag_50:\n      mload(0x40)\n      tag_54\n      swap2\n      swap1\n      tag_36\n      jump\t// in\n    tag_54:\n      mload(0x40)\n      dup1\n      swap2\n      sub\n      swap1\n      return\n        /* \"@openzeppelin/contracts/access/Ownable.sol\":1831:1932  function renounceOwnership() public virtual onlyOwner {... */\n    tag_10:\n      tag_55\n      tag_56\n      jump\t// in\n    tag_55:\n      stop\n        /* \"contracts/21_Lock.sol\":860:962  function setLock() public onlyOwner returns(bool){... */\n    tag_11:\n      tag_57\n      tag_58\n      jump\t// in\n    tag_57:\n      mload(0x40)\n      tag_59\n      swap2\n      swap1\n      tag_32\n      jump\t// in\n    tag_59:\n      mload(0x40)\n      dup1\n      swap2\n      sub\n      swap1\n      return\n        /* \"@openzeppelin/contracts/access/Ownable.sol\":1201:1286  function owner() public view virtual returns (address) {... */\n    tag_12:\n      tag_60\n      tag_61\n      jump\t// in\n    tag_60:\n      mload(0x40)\n      tag_62\n      swap2\n      swap1\n      tag_63\n      jump\t// in\n    tag_62:\n      mload(0x40)\n      dup1\n      swap2\n      sub\n      swap1\n      return\n        /* \"@openzeppelin/contracts/token/ERC20/ERC20.sol\":2367:2469  function symbol() public view virtual override returns (string memory) {... */\n    tag_13:\n      tag_64\n      tag_65\n      jump\t// in\n    tag_64:\n      mload(0x40)\n      tag_66\n      swap2\n      swap1\n      tag_26\n      jump\t// in\n    tag_66:\n      mload(0x40)\n      dup1\n      swap2\n      sub\n      swap1\n      return\n        /* \"@openzeppelin/contracts/token/ERC20/ERC20.sol\":6594:7021  function decreaseAllowance(address spender, uint256 subtractedValue) public virtual returns (bool) {... */\n    tag_14:\n      tag_67\n      0x04\n      dup1\n      calldatasize\n      sub\n      dup2\n      add\n      swap1\n      tag_68\n      swap2\n      swap1\n      tag_29\n      jump\t// in\n    tag_68:\n      tag_69\n      jump\t// in\n    tag_67:\n      mload(0x40)\n      tag_70\n      swap2\n      swap1\n      tag_32\n      jump\t// in\n    tag_70:\n      mload(0x40)\n      dup1\n      swap2\n      sub\n      swap1\n      return\n        /* \"contracts/21_Lock.sol\":220:248  bool public isLocked = false */\n    tag_15:\n      tag_71\n      tag_72\n      jump\t// in\n    tag_71:\n      mload(0x40)\n      tag_73\n      swap2\n      swap1\n      tag_32\n      jump\t// in\n    tag_73:\n      mload(0x40)\n      dup1\n      swap2\n      sub\n      swap1\n      return\n        /* \"contracts/21_Lock.sol\":415:824  function transfer(address _to, uint256 _amount) public override returns(bool){... */\n    tag_16:\n      tag_74\n      0x04\n      dup1\n      calldatasize\n      sub\n      dup2\n      add\n      swap1\n      tag_75\n      swap2\n      swap1\n      tag_29\n      jump\t// in\n    tag_75:\n      tag_76\n      jump\t// in\n    tag_74:\n      mload(0x40)\n      tag_77\n      swap2\n      swap1\n      tag_32\n      jump\t// in\n    tag_77:\n      mload(0x40)\n      dup1\n      swap2\n      sub\n      swap1\n      return\n        /* \"contracts/21_Lock.sol\":254:304  uint public timeLock = block.timestamp + 1 minutes */\n    tag_17:\n      tag_78\n      tag_79\n      jump\t// in\n    tag_78:\n      mload(0x40)\n      tag_80\n      swap2\n      swap1\n      tag_36\n      jump\t// in\n    tag_80:\n      mload(0x40)\n      dup1\n      swap2\n      sub\n      swap1\n      return\n        /* \"@openzeppelin/contracts/token/ERC20/ERC20.sol\":3976:4125  function allowance(address owner, address spender) public view virtual override returns (uint256) {... */\n    tag_18:\n      tag_81\n      0x04\n      dup1\n      calldatasize\n      sub\n      dup2\n      add\n      swap1\n      tag_82\n      swap2\n      swap1\n      tag_83\n      jump\t// in\n    tag_82:\n      tag_84\n      jump\t// in\n    tag_81:\n      mload(0x40)\n      tag_85\n      swap2\n      swap1\n      tag_36\n      jump\t// in\n    tag_85:\n      mload(0x40)\n      dup1\n      swap2\n      sub\n      swap1\n      return\n        /* \"@openzeppelin/contracts/access/Ownable.sol\":2081:2279  function transferOwnership(address newOwner) public virtual onlyOwner {... */\n    tag_19:\n      tag_86\n      0x04\n      dup1\n      calldatasize\n      sub\n      dup2\n      add\n      swap1\n      tag_87\n      swap2\n      swap1\n      tag_52\n      jump\t// in\n    tag_87:\n      tag_88\n      jump\t// in\n    tag_86:\n      stop\n        /* \"@openzeppelin/contracts/token/ERC20/ERC20.sol\":2156:2254  function name() public view virtual override returns (string memory) {... */\n    tag_24:\n        /* \"@openzeppelin/contracts/token/ERC20/ERC20.sol\":2210:2223  string memory */\n      0x60\n        /* \"@openzeppelin/contracts/token/ERC20/ERC20.sol\":2242:2247  _name */\n      0x03\n        /* \"@openzeppelin/contracts/token/ERC20/ERC20.sol\":2235:2247  return _name */\n      dup1\n      sload\n      tag_90\n      swap1\n      tag_91\n      jump\t// in\n    tag_90:\n      dup1\n      0x1f\n      add\n      0x20\n      dup1\n      swap2\n      div\n      mul\n      0x20\n      add\n      mload(0x40)\n      swap1\n      dup2\n      add\n      0x40\n      mstore\n      dup1\n      swap3\n      swap2\n      swap1\n      dup2\n      dup2\n      mstore\n      0x20\n      add\n      dup3\n      dup1\n      sload\n      tag_92\n      swap1\n      tag_91\n      jump\t// in\n    tag_92:\n      dup1\n      iszero\n      tag_93\n      jumpi\n      dup1\n      0x1f\n      lt\n      tag_94\n      jumpi\n      0x0100\n      dup1\n      dup4\n      sload\n      div\n      mul\n      dup4\n      mstore\n      swap2\n      0x20\n      add\n      swap2\n      jump(tag_93)\n    tag_94:\n      dup3\n      add\n      swap2\n      swap1\n      0x00\n      mstore\n      keccak256(0x00, 0x20)\n      swap1\n    tag_95:\n      dup2\n      sload\n      dup2\n      mstore\n      swap1\n      0x01\n      add\n      swap1\n      0x20\n      add\n      dup1\n      dup4\n      gt\n      tag_95\n      jumpi\n      dup3\n      swap1\n      sub\n      0x1f\n      and\n      dup3\n      add\n      swap2\n    tag_93:\n      pop\n      pop\n      pop\n      pop\n      pop\n      swap1\n      pop\n        /* \"@openzeppelin/contracts/token/ERC20/ERC20.sol\":2156:2254  function name() public view virtual override returns (string memory) {... */\n      swap1\n      jump\t// out\n        /* \"@openzeppelin/contracts/token/ERC20/ERC20.sol\":4433:4630  function approve(address spender, uint256 amount) public virtual override returns (bool) {... */\n    tag_30:\n        /* \"@openzeppelin/contracts/token/ERC20/ERC20.sol\":4516:4520  bool */\n      0x00\n        /* \"@openzeppelin/contracts/token/ERC20/ERC20.sol\":4532:4545  address owner */\n      dup1\n        /* \"@openzeppelin/contracts/token/ERC20/ERC20.sol\":4548:4560  _msgSender() */\n      tag_97\n        /* \"@openzeppelin/contracts/token/ERC20/ERC20.sol\":4548:4558  _msgSender */\n      tag_98\n        /* \"@openzeppelin/contracts/token/ERC20/ERC20.sol\":4548:4560  _msgSender() */\n      jump\t// in\n    tag_97:\n        /* \"@openzeppelin/contracts/token/ERC20/ERC20.sol\":4532:4560  address owner = _msgSender() */\n      swap1\n      pop\n        /* \"@openzeppelin/contracts/token/ERC20/ERC20.sol\":4570:4602  _approve(owner, spender, amount) */\n      tag_99\n        /* \"@openzeppelin/contracts/token/ERC20/ERC20.sol\":4579:4584  owner */\n      dup2\n        /* \"@openzeppelin/contracts/token/ERC20/ERC20.sol\":4586:4593  spender */\n      dup6\n        /* \"@openzeppelin/contracts/token/ERC20/ERC20.sol\":4595:4601  amount */\n      dup6\n        /* \"@openzeppelin/contracts/token/ERC20/ERC20.sol\":4570:4578  _approve */\n      tag_100\n        /* \"@openzeppelin/contracts/token/ERC20/ERC20.sol\":4570:4602  _approve(owner, spender, amount) */\n      jump\t// in\n    tag_99:\n        /* \"@openzeppelin/contracts/token/ERC20/ERC20.sol\":4619:4623  true */\n      0x01\n        /* \"@openzeppelin/contracts/token/ERC20/ERC20.sol\":4612:4623  return true */\n      swap2\n      pop\n      pop\n        /* \"@openzeppelin/contracts/token/ERC20/ERC20.sol\":4433:4630  function approve(address spender, uint256 amount) public virtual override returns (bool) {... */\n      swap3\n      swap2\n      pop\n      pop\n      jump\t// out\n        /* \"@openzeppelin/contracts/token/ERC20/ERC20.sol\":3244:3350  function totalSupply() public view virtual override returns (uint256) {... */\n    tag_34:\n        /* \"@openzeppelin/contracts/token/ERC20/ERC20.sol\":3305:3312  uint256 */\n      0x00\n        /* \"@openzeppelin/contracts/token/ERC20/ERC20.sol\":3331:3343  _totalSupply */\n      sload(0x02)\n        /* \"@openzeppelin/contracts/token/ERC20/ERC20.sol\":3324:3343  return _totalSupply */\n      swap1\n      pop\n        /* \"@openzeppelin/contracts/token/ERC20/ERC20.sol\":3244:3350  function totalSupply() public view virtual override returns (uint256) {... */\n      swap1\n      jump\t// out\n        /* \"@openzeppelin/contracts/token/ERC20/ERC20.sol\":5192:5478  function transferFrom(... */\n    tag_40:\n        /* \"@openzeppelin/contracts/token/ERC20/ERC20.sol\":5319:5323  bool */\n      0x00\n        /* \"@openzeppelin/contracts/token/ERC20/ERC20.sol\":5335:5350  address spender */\n      dup1\n        /* \"@openzeppelin/contracts/token/ERC20/ERC20.sol\":5353:5365  _msgSender() */\n      tag_103\n        /* \"@openzeppelin/contracts/token/ERC20/ERC20.sol\":5353:5363  _msgSender */\n      tag_98\n        /* \"@openzeppelin/contracts/token/ERC20/ERC20.sol\":5353:5365  _msgSender() */\n      jump\t// in\n    tag_103:\n        /* \"@openzeppelin/contracts/token/ERC20/ERC20.sol\":5335:5365  address spender = _msgSender() */\n      swap1\n      pop\n        /* \"@openzeppelin/contracts/token/ERC20/ERC20.sol\":5375:5413  _spendAllowance(from, spender, amount) */\n      tag_104\n        /* \"@openzeppelin/contracts/token/ERC20/ERC20.sol\":5391:5395  from */\n      dup6\n        /* \"@openzeppelin/contracts/token/ERC20/ERC20.sol\":5397:5404  spender */\n      dup3\n        /* \"@openzeppelin/contracts/token/ERC20/ERC20.sol\":5406:5412  amount */\n      dup6\n        /* \"@openzeppelin/contracts/token/ERC20/ERC20.sol\":5375:5390  _spendAllowance */\n      tag_105\n        /* \"@openzeppelin/contracts/token/ERC20/ERC20.sol\":5375:5413  _spendAllowance(from, spender, amount) */\n      jump\t// in\n    tag_104:\n        /* \"@openzeppelin/contracts/token/ERC20/ERC20.sol\":5423:5450  _transfer(from, to, amount) */\n      tag_106\n        /* \"@openzeppelin/contracts/token/ERC20/ERC20.sol\":5433:5437  from */\n      dup6\n        /* \"@openzeppelin/contracts/token/ERC20/ERC20.sol\":5439:5441  to */\n      dup6\n        /* \"@openzeppelin/contracts/token/ERC20/ERC20.sol\":5443:5449  amount */\n      dup6\n        /* \"@openzeppelin/contracts/token/ERC20/ERC20.sol\":5423:5432  _transfer */\n      tag_107\n        /* \"@openzeppelin/contracts/token/ERC20/ERC20.sol\":5423:5450  _transfer(from, to, amount) */\n      jump\t// in\n    tag_106:\n        /* \"@openzeppelin/contracts/token/ERC20/ERC20.sol\":5467:5471  true */\n      0x01\n        /* \"@openzeppelin/contracts/token/ERC20/ERC20.sol\":5460:5471  return true */\n      swap2\n      pop\n      pop\n        /* \"@openzeppelin/contracts/token/ERC20/ERC20.sol\":5192:5478  function transferFrom(... */\n      swap4\n      swap3\n      pop\n      pop\n      pop\n      jump\t// out\n        /* \"@openzeppelin/contracts/token/ERC20/ERC20.sol\":3093:3184  function decimals() public view virtual override returns (uint8) {... */\n    tag_43:\n        /* \"@openzeppelin/contracts/token/ERC20/ERC20.sol\":3151:3156  uint8 */\n      0x00\n        /* \"@openzeppelin/contracts/token/ERC20/ERC20.sol\":3175:3177  18 */\n      0x12\n        /* \"@openzeppelin/contracts/token/ERC20/ERC20.sol\":3168:3177  return 18 */\n      swap1\n      pop\n        /* \"@openzeppelin/contracts/token/ERC20/ERC20.sol\":3093:3184  function decimals() public view virtual override returns (uint8) {... */\n      swap1\n      jump\t// out\n        /* \"@openzeppelin/contracts/token/ERC20/ERC20.sol\":5873:6107  function increaseAllowance(address spender, uint256 addedValue) public virtual returns (bool) {... */\n    tag_48:\n        /* \"@openzeppelin/contracts/token/ERC20/ERC20.sol\":5961:5965  bool */\n      0x00\n        /* \"@openzeppelin/contracts/token/ERC20/ERC20.sol\":5977:5990  address owner */\n      dup1\n        /* \"@openzeppelin/contracts/token/ERC20/ERC20.sol\":5993:6005  _msgSender() */\n      tag_110\n        /* \"@openzeppelin/contracts/token/ERC20/ERC20.sol\":5993:6003  _msgSender */\n      tag_98\n        /* \"@openzeppelin/contracts/token/ERC20/ERC20.sol\":5993:6005  _msgSender() */\n      jump\t// in\n    tag_110:\n        /* \"@openzeppelin/contracts/token/ERC20/ERC20.sol\":5977:6005  address owner = _msgSender() */\n      swap1\n      pop\n        /* \"@openzeppelin/contracts/token/ERC20/ERC20.sol\":6015:6079  _approve(owner, spender, allowance(owner, spender) + addedValue) */\n      tag_111\n        /* \"@openzeppelin/contracts/token/ERC20/ERC20.sol\":6024:6029  owner */\n      dup2\n        /* \"@openzeppelin/contracts/token/ERC20/ERC20.sol\":6031:6038  spender */\n      dup6\n        /* \"@openzeppelin/contracts/token/ERC20/ERC20.sol\":6068:6078  addedValue */\n      dup6\n        /* \"@openzeppelin/contracts/token/ERC20/ERC20.sol\":6040:6065  allowance(owner, spender) */\n      tag_112\n        /* \"@openzeppelin/contracts/token/ERC20/ERC20.sol\":6050:6055  owner */\n      dup6\n        /* \"@openzeppelin/contracts/token/ERC20/ERC20.sol\":6057:6064  spender */\n      dup10\n        /* \"@openzeppelin/contracts/token/ERC20/ERC20.sol\":6040:6049  allowance */\n      tag_84\n        /* \"@openzeppelin/contracts/token/ERC20/ERC20.sol\":6040:6065  allowance(owner, spender) */\n      jump\t// in\n    tag_112:\n        /* \"@openzeppelin/contracts/token/ERC20/ERC20.sol\":6040:6078  allowance(owner, spender) + addedValue */\n      tag_113\n      swap2\n      swap1\n      tag_114\n      jump\t// in\n    tag_113:\n        /* \"@openzeppelin/contracts/token/ERC20/ERC20.sol\":6015:6023  _approve */\n      tag_100\n        /* \"@openzeppelin/contracts/token/ERC20/ERC20.sol\":6015:6079  _approve(owner, spender, allowance(owner, spender) + addedValue) */\n      jump\t// in\n    tag_111:\n        /* \"@openzeppelin/contracts/token/ERC20/ERC20.sol\":6096:6100  true */\n      0x01\n        /* \"@openzeppelin/contracts/token/ERC20/ERC20.sol\":6089:6100  return true */\n      swap2\n      pop\n      pop\n        /* \"@openzeppelin/contracts/token/ERC20/ERC20.sol\":5873:6107  function increaseAllowance(address spender, uint256 addedValue) public virtual returns (bool) {... */\n      swap3\n      swap2\n      pop\n      pop\n      jump\t// out\n        /* \"@openzeppelin/contracts/token/ERC20/ERC20.sol\":3408:3533  function balanceOf(address account) public view virtual override returns (uint256) {... */\n    tag_53:\n        /* \"@openzeppelin/contracts/token/ERC20/ERC20.sol\":3482:3489  uint256 */\n      0x00\n        /* \"@openzeppelin/contracts/token/ERC20/ERC20.sol\":3508:3517  _balances */\n      dup1\n        /* \"@openzeppelin/contracts/token/ERC20/ERC20.sol\":3508:3526  _balances[account] */\n      0x00\n        /* \"@openzeppelin/contracts/token/ERC20/ERC20.sol\":3518:3525  account */\n      dup4\n        /* \"@openzeppelin/contracts/token/ERC20/ERC20.sol\":3508:3526  _balances[account] */\n      0xffffffffffffffffffffffffffffffffffffffff\n      and\n      0xffffffffffffffffffffffffffffffffffffffff\n      and\n      dup2\n      mstore\n      0x20\n      add\n      swap1\n      dup2\n      mstore\n      0x20\n      add\n      0x00\n      keccak256\n      sload\n        /* \"@openzeppelin/contracts/token/ERC20/ERC20.sol\":3501:3526  return _balances[account] */\n      swap1\n      pop\n        /* \"@openzeppelin/contracts/token/ERC20/ERC20.sol\":3408:3533  function balanceOf(address account) public view virtual override returns (uint256) {... */\n      swap2\n      swap1\n      pop\n      jump\t// out\n        /* \"@openzeppelin/contracts/access/Ownable.sol\":1831:1932  function renounceOwnership() public virtual onlyOwner {... */\n    tag_56:\n        /* \"@openzeppelin/contracts/access/Ownable.sol\":1094:1107  _checkOwner() */\n      tag_117\n        /* \"@openzeppelin/contracts/access/Ownable.sol\":1094:1105  _checkOwner */\n      tag_118\n        /* \"@openzeppelin/contracts/access/Ownable.sol\":1094:1107  _checkOwner() */\n      jump\t// in\n    tag_117:\n        /* \"@openzeppelin/contracts/access/Ownable.sol\":1895:1925  _transferOwnership(address(0)) */\n      tag_120\n        /* \"@openzeppelin/contracts/access/Ownable.sol\":1922:1923  0 */\n      0x00\n        /* \"@openzeppelin/contracts/access/Ownable.sol\":1895:1913  _transferOwnership */\n      tag_121\n        /* \"@openzeppelin/contracts/access/Ownable.sol\":1895:1925  _transferOwnership(address(0)) */\n      jump\t// in\n    tag_120:\n        /* \"@openzeppelin/contracts/access/Ownable.sol\":1831:1932  function renounceOwnership() public virtual onlyOwner {... */\n      jump\t// out\n        /* \"contracts/21_Lock.sol\":860:962  function setLock() public onlyOwner returns(bool){... */\n    tag_58:\n        /* \"contracts/21_Lock.sol\":904:908  bool */\n      0x00\n        /* \"@openzeppelin/contracts/access/Ownable.sol\":1094:1107  _checkOwner() */\n      tag_123\n        /* \"@openzeppelin/contracts/access/Ownable.sol\":1094:1105  _checkOwner */\n      tag_118\n        /* \"@openzeppelin/contracts/access/Ownable.sol\":1094:1107  _checkOwner() */\n      jump\t// in\n    tag_123:\n        /* \"contracts/21_Lock.sol\":930:934  true */\n      0x01\n        /* \"contracts/21_Lock.sol\":919:927  isLocked */\n      0x05\n      0x14\n        /* \"contracts/21_Lock.sol\":919:934  isLocked = true */\n      0x0100\n      exp\n      dup2\n      sload\n      dup2\n      0xff\n      mul\n      not\n      and\n      swap1\n      dup4\n      iszero\n      iszero\n      mul\n      or\n      swap1\n      sstore\n      pop\n        /* \"contracts/21_Lock.sol\":951:955  true */\n      0x01\n        /* \"contracts/21_Lock.sol\":944:955  return true */\n      swap1\n      pop\n        /* \"contracts/21_Lock.sol\":860:962  function setLock() public onlyOwner returns(bool){... */\n      swap1\n      jump\t// out\n        /* \"@openzeppelin/contracts/access/Ownable.sol\":1201:1286  function owner() public view virtual returns (address) {... */\n    tag_61:\n        /* \"@openzeppelin/contracts/access/Ownable.sol\":1247:1254  address */\n      0x00\n        /* \"@openzeppelin/contracts/access/Ownable.sol\":1273:1279  _owner */\n      0x05\n      0x00\n      swap1\n      sload\n      swap1\n      0x0100\n      exp\n      swap1\n      div\n      0xffffffffffffffffffffffffffffffffffffffff\n      and\n        /* \"@openzeppelin/contracts/access/Ownable.sol\":1266:1279  return _owner */\n      swap1\n      pop\n        /* \"@openzeppelin/contracts/access/Ownable.sol\":1201:1286  function owner() public view virtual returns (address) {... */\n      swap1\n      jump\t// out\n        /* \"@openzeppelin/contracts/token/ERC20/ERC20.sol\":2367:2469  function symbol() public view virtual override returns (string memory) {... */\n    tag_65:\n        /* \"@openzeppelin/contracts/token/ERC20/ERC20.sol\":2423:2436  string memory */\n      0x60\n        /* \"@openzeppelin/contracts/token/ERC20/ERC20.sol\":2455:2462  _symbol */\n      0x04\n        /* \"@openzeppelin/contracts/token/ERC20/ERC20.sol\":2448:2462  return _symbol */\n      dup1\n      sload\n      tag_127\n      swap1\n      tag_91\n      jump\t// in\n    tag_127:\n      dup1\n      0x1f\n      add\n      0x20\n      dup1\n      swap2\n      div\n      mul\n      0x20\n      add\n      mload(0x40)\n      swap1\n      dup2\n      add\n      0x40\n      mstore\n      dup1\n      swap3\n      swap2\n      swap1\n      dup2\n      dup2\n      mstore\n      0x20\n      add\n      dup3\n      dup1\n      sload\n      tag_128\n      swap1\n      tag_91\n      jump\t// in\n    tag_128:\n      dup1\n      iszero\n      tag_129\n      jumpi\n      dup1\n      0x1f\n      lt\n      tag_130\n      jumpi\n      0x0100\n      dup1\n      dup4\n      sload\n      div\n      mul\n      dup4\n      mstore\n      swap2\n      0x20\n      add\n      swap2\n      jump(tag_129)\n    tag_130:\n      dup3\n      add\n      swap2\n      swap1\n      0x00\n      mstore\n      keccak256(0x00, 0x20)\n      swap1\n    tag_131:\n      dup2\n      sload\n      dup2\n      mstore\n      swap1\n      0x01\n      add\n      swap1\n      0x20\n      add\n      dup1\n      dup4\n      gt\n      tag_131\n      jumpi\n      dup3\n      swap1\n      sub\n      0x1f\n      and\n      dup3\n      add\n      swap2\n    tag_129:\n      pop\n      pop\n      pop\n      pop\n      pop\n      swap1\n      pop\n        /* \"@openzeppelin/contracts/token/ERC20/ERC20.sol\":2367:2469  function symbol() public view virtual override returns (string memory) {... */\n      swap1\n      jump\t// out\n        /* \"@openzeppelin/contracts/token/ERC20/ERC20.sol\":6594:7021  function decreaseAllowance(address spender, uint256 subtractedValue) public virtual returns (bool) {... */\n    tag_69:\n        /* \"@openzeppelin/contracts/token/ERC20/ERC20.sol\":6687:6691  bool */\n      0x00\n        /* \"@openzeppelin/contracts/token/ERC20/ERC20.sol\":6703:6716  address owner */\n      dup1\n        /* \"@openzeppelin/contracts/token/ERC20/ERC20.sol\":6719:6731  _msgSender() */\n      tag_133\n        /* \"@openzeppelin/contracts/token/ERC20/ERC20.sol\":6719:6729  _msgSender */\n      tag_98\n        /* \"@openzeppelin/contracts/token/ERC20/ERC20.sol\":6719:6731  _msgSender() */\n      jump\t// in\n    tag_133:\n        /* \"@openzeppelin/contracts/token/ERC20/ERC20.sol\":6703:6731  address owner = _msgSender() */\n      swap1\n      pop\n        /* \"@openzeppelin/contracts/token/ERC20/ERC20.sol\":6741:6765  uint256 currentAllowance */\n      0x00\n        /* \"@openzeppelin/contracts/token/ERC20/ERC20.sol\":6768:6793  allowance(owner, spender) */\n      tag_134\n        /* \"@openzeppelin/contracts/token/ERC20/ERC20.sol\":6778:6783  owner */\n      dup3\n        /* \"@openzeppelin/contracts/token/ERC20/ERC20.sol\":6785:6792  spender */\n      dup7\n        /* \"@openzeppelin/contracts/token/ERC20/ERC20.sol\":6768:6777  allowance */\n      tag_84\n        /* \"@openzeppelin/contracts/token/ERC20/ERC20.sol\":6768:6793  allowance(owner, spender) */\n      jump\t// in\n    tag_134:\n        /* \"@openzeppelin/contracts/token/ERC20/ERC20.sol\":6741:6793  uint256 currentAllowance = allowance(owner, spender) */\n      swap1\n      pop\n        /* \"@openzeppelin/contracts/token/ERC20/ERC20.sol\":6831:6846  subtractedValue */\n      dup4\n        /* \"@openzeppelin/contracts/token/ERC20/ERC20.sol\":6811:6827  currentAllowance */\n      dup2\n        /* \"@openzeppelin/contracts/token/ERC20/ERC20.sol\":6811:6846  currentAllowance >= subtractedValue */\n      lt\n      iszero\n        /* \"@openzeppelin/contracts/token/ERC20/ERC20.sol\":6803:6888  require(currentAllowance >= subtractedValue, \"ERC20: decreased allowance below zero\") */\n      tag_135\n      jumpi\n      mload(0x40)\n      0x08c379a000000000000000000000000000000000000000000000000000000000\n      dup2\n      mstore\n      0x04\n      add\n      tag_136\n      swap1\n      tag_137\n      jump\t// in\n    tag_136:\n      mload(0x40)\n      dup1\n      swap2\n      sub\n      swap1\n      revert\n    tag_135:\n        /* \"@openzeppelin/contracts/token/ERC20/ERC20.sol\":6922:6982  _approve(owner, spender, currentAllowance - subtractedValue) */\n      tag_138\n        /* \"@openzeppelin/contracts/token/ERC20/ERC20.sol\":6931:6936  owner */\n      dup3\n        /* \"@openzeppelin/contracts/token/ERC20/ERC20.sol\":6938:6945  spender */\n      dup7\n        /* \"@openzeppelin/contracts/token/ERC20/ERC20.sol\":6966:6981  subtractedValue */\n      dup7\n        /* \"@openzeppelin/contracts/token/ERC20/ERC20.sol\":6947:6963  currentAllowance */\n      dup5\n        /* \"@openzeppelin/contracts/token/ERC20/ERC20.sol\":6947:6981  currentAllowance - subtractedValue */\n      sub\n        /* \"@openzeppelin/contracts/token/ERC20/ERC20.sol\":6922:6930  _approve */\n      tag_100\n        /* \"@openzeppelin/contracts/token/ERC20/ERC20.sol\":6922:6982  _approve(owner, spender, currentAllowance - subtractedValue) */\n      jump\t// in\n    tag_138:\n        /* \"@openzeppelin/contracts/token/ERC20/ERC20.sol\":7010:7014  true */\n      0x01\n        /* \"@openzeppelin/contracts/token/ERC20/ERC20.sol\":7003:7014  return true */\n      swap3\n      pop\n      pop\n      pop\n        /* \"@openzeppelin/contracts/token/ERC20/ERC20.sol\":6594:7021  function decreaseAllowance(address spender, uint256 subtractedValue) public virtual returns (bool) {... */\n      swap3\n      swap2\n      pop\n      pop\n      jump\t// out\n        /* \"contracts/21_Lock.sol\":220:248  bool public isLocked = false */\n    tag_72:\n      0x05\n      0x14\n      swap1\n      sload\n      swap1\n      0x0100\n      exp\n      swap1\n      div\n      0xff\n      and\n      dup2\n      jump\t// out\n        /* \"contracts/21_Lock.sol\":415:824  function transfer(address _to, uint256 _amount) public override returns(bool){... */\n    tag_76:\n        /* \"contracts/21_Lock.sol\":487:491  bool */\n      0x00\n        /* \"contracts/21_Lock.sol\":511:519  isLocked */\n      0x05\n      0x14\n      swap1\n      sload\n      swap1\n      0x0100\n      exp\n      swap1\n      div\n      0xff\n      and\n        /* \"contracts/21_Lock.sol\":510:519  !isLocked */\n      iszero\n        /* \"contracts/21_Lock.sol\":502:544  require(!isLocked, \"Transfer was Locked!\") */\n      tag_140\n      jumpi\n      mload(0x40)\n      0x08c379a000000000000000000000000000000000000000000000000000000000\n      dup2\n      mstore\n      0x04\n      add\n      tag_141\n      swap1\n      tag_142\n      jump\t// in\n    tag_141:\n      mload(0x40)\n      dup1\n      swap2\n      sub\n      swap1\n      revert\n    tag_140:\n        /* \"contracts/21_Lock.sol\":611:653  0xAb8483F64d9C6d1EcF9b849Ae677dD3315835cb2 */\n      0xab8483f64d9c6d1ecf9b849ae677dd3315835cb2\n        /* \"contracts/21_Lock.sol\":597:653  msg.sender != 0xAb8483F64d9C6d1EcF9b849Ae677dD3315835cb2 */\n      0xffffffffffffffffffffffffffffffffffffffff\n      and\n        /* \"contracts/21_Lock.sol\":597:607  msg.sender */\n      caller\n        /* \"contracts/21_Lock.sol\":597:653  msg.sender != 0xAb8483F64d9C6d1EcF9b849Ae677dD3315835cb2 */\n      0xffffffffffffffffffffffffffffffffffffffff\n      and\n      eq\n      iszero\n        /* \"contracts/21_Lock.sol\":589:687  require(msg.sender != 0xAb8483F64d9C6d1EcF9b849Ae677dD3315835cb2, \"This account cannot transfer!\") */\n      tag_143\n      jumpi\n      mload(0x40)\n      0x08c379a000000000000000000000000000000000000000000000000000000000\n      dup2\n      mstore\n      0x04\n      add\n      tag_144\n      swap1\n      tag_145\n      jump\t// in\n    tag_144:\n      mload(0x40)\n      dup1\n      swap2\n      sub\n      swap1\n      revert\n    tag_143:\n        /* \"contracts/21_Lock.sol\":749:757  timeLock */\n      sload(0x06)\n        /* \"contracts/21_Lock.sol\":731:746  block.timestamp */\n      timestamp\n        /* \"contracts/21_Lock.sol\":731:757  block.timestamp > timeLock */\n      gt\n        /* \"contracts/21_Lock.sol\":723:772  require(block.timestamp > timeLock, \"Time Error\") */\n      tag_146\n      jumpi\n      mload(0x40)\n      0x08c379a000000000000000000000000000000000000000000000000000000000\n      dup2\n      mstore\n      0x04\n      add\n      tag_147\n      swap1\n      tag_148\n      jump\t// in\n    tag_147:\n      mload(0x40)\n      dup1\n      swap2\n      sub\n      swap1\n      revert\n    tag_146:\n        /* \"contracts/21_Lock.sol\":789:817  super.transfer(_to, _amount) */\n      tag_149\n        /* \"contracts/21_Lock.sol\":804:807  _to */\n      dup4\n        /* \"contracts/21_Lock.sol\":809:816  _amount */\n      dup4\n        /* \"contracts/21_Lock.sol\":789:803  super.transfer */\n      tag_150\n        /* \"contracts/21_Lock.sol\":789:817  super.transfer(_to, _amount) */\n      jump\t// in\n    tag_149:\n        /* \"contracts/21_Lock.sol\":782:817  return super.transfer(_to, _amount) */\n      swap1\n      pop\n        /* \"contracts/21_Lock.sol\":415:824  function transfer(address _to, uint256 _amount) public override returns(bool){... */\n      swap3\n      swap2\n      pop\n      pop\n      jump\t// out\n        /* \"contracts/21_Lock.sol\":254:304  uint public timeLock = block.timestamp + 1 minutes */\n    tag_79:\n      sload(0x06)\n      dup2\n      jump\t// out\n        /* \"@openzeppelin/contracts/token/ERC20/ERC20.sol\":3976:4125  function allowance(address owner, address spender) public view virtual override returns (uint256) {... */\n    tag_84:\n        /* \"@openzeppelin/contracts/token/ERC20/ERC20.sol\":4065:4072  uint256 */\n      0x00\n        /* \"@openzeppelin/contracts/token/ERC20/ERC20.sol\":4091:4102  _allowances */\n      0x01\n        /* \"@openzeppelin/contracts/token/ERC20/ERC20.sol\":4091:4109  _allowances[owner] */\n      0x00\n        /* \"@openzeppelin/contracts/token/ERC20/ERC20.sol\":4103:4108  owner */\n      dup5\n        /* \"@openzeppelin/contracts/token/ERC20/ERC20.sol\":4091:4109  _allowances[owner] */\n      0xffffffffffffffffffffffffffffffffffffffff\n      and\n      0xffffffffffffffffffffffffffffffffffffffff\n      and\n      dup2\n      mstore\n      0x20\n      add\n      swap1\n      dup2\n      mstore\n      0x20\n      add\n      0x00\n      keccak256\n        /* \"@openzeppelin/contracts/token/ERC20/ERC20.sol\":4091:4118  _allowances[owner][spender] */\n      0x00\n        /* \"@openzeppelin/contracts/token/ERC20/ERC20.sol\":4110:4117  spender */\n      dup4\n        /* \"@openzeppelin/contracts/token/ERC20/ERC20.sol\":4091:4118  _allowances[owner][spender] */\n      0xffffffffffffffffffffffffffffffffffffffff\n      and\n      0xffffffffffffffffffffffffffffffffffffffff\n      and\n      dup2\n      mstore\n      0x20\n      add\n      swap1\n      dup2\n      mstore\n      0x20\n      add\n      0x00\n      keccak256\n      sload\n        /* \"@openzeppelin/contracts/token/ERC20/ERC20.sol\":4084:4118  return _allowances[owner][spender] */\n      swap1\n      pop\n        /* \"@openzeppelin/contracts/token/ERC20/ERC20.sol\":3976:4125  function allowance(address owner, address spender) public view virtual override returns (uint256) {... */\n      swap3\n      swap2\n      pop\n      pop\n      jump\t// out\n        /* \"@openzeppelin/contracts/access/Ownable.sol\":2081:2279  function transferOwnership(address newOwner) public virtual onlyOwner {... */\n    tag_88:\n        /* \"@openzeppelin/contracts/access/Ownable.sol\":1094:1107  _checkOwner() */\n      tag_153\n        /* \"@openzeppelin/contracts/access/Ownable.sol\":1094:1105  _checkOwner */\n      tag_118\n        /* \"@openzeppelin/contracts/access/Ownable.sol\":1094:1107  _checkOwner() */\n      jump\t// in\n    tag_153:\n        /* \"@openzeppelin/contracts/access/Ownable.sol\":2189:2190  0 */\n      0x00\n        /* \"@openzeppelin/contracts/access/Ownable.sol\":2169:2191  newOwner != address(0) */\n      0xffffffffffffffffffffffffffffffffffffffff\n      and\n        /* \"@openzeppelin/contracts/access/Ownable.sol\":2169:2177  newOwner */\n      dup2\n        /* \"@openzeppelin/contracts/access/Ownable.sol\":2169:2191  newOwner != address(0) */\n      0xffffffffffffffffffffffffffffffffffffffff\n      and\n      eq\n      iszero\n        /* \"@openzeppelin/contracts/access/Ownable.sol\":2161:2234  require(newOwner != address(0), \"Ownable: new owner is the zero address\") */\n      tag_155\n      jumpi\n      mload(0x40)\n      0x08c379a000000000000000000000000000000000000000000000000000000000\n      dup2\n      mstore\n      0x04\n      add\n      tag_156\n      swap1\n      tag_157\n      jump\t// in\n    tag_156:\n      mload(0x40)\n      dup1\n      swap2\n      sub\n      swap1\n      revert\n    tag_155:\n        /* \"@openzeppelin/contracts/access/Ownable.sol\":2244:2272  _transferOwnership(newOwner) */\n      tag_158\n        /* \"@openzeppelin/contracts/access/Ownable.sol\":2263:2271  newOwner */\n      dup2\n        /* \"@openzeppelin/contracts/access/Ownable.sol\":2244:2262  _transferOwnership */\n      tag_121\n        /* \"@openzeppelin/contracts/access/Ownable.sol\":2244:2272  _transferOwnership(newOwner) */\n      jump\t// in\n    tag_158:\n        /* \"@openzeppelin/contracts/access/Ownable.sol\":2081:2279  function transferOwnership(address newOwner) public virtual onlyOwner {... */\n      pop\n      jump\t// out\n        /* \"@openzeppelin/contracts/utils/Context.sol\":640:736  function _msgSender() internal view virtual returns (address) {... */\n    tag_98:\n        /* \"@openzeppelin/contracts/utils/Context.sol\":693:700  address */\n      0x00\n        /* \"@openzeppelin/contracts/utils/Context.sol\":719:729  msg.sender */\n      caller\n        /* \"@openzeppelin/contracts/utils/Context.sol\":712:729  return msg.sender */\n      swap1\n      pop\n        /* \"@openzeppelin/contracts/utils/Context.sol\":640:736  function _msgSender() internal view virtual returns (address) {... */\n      swap1\n      jump\t// out\n        /* \"@openzeppelin/contracts/token/ERC20/ERC20.sol\":10110:10480  function _approve(... */\n    tag_100:\n        /* \"@openzeppelin/contracts/token/ERC20/ERC20.sol\":10258:10259  0 */\n      0x00\n        /* \"@openzeppelin/contracts/token/ERC20/ERC20.sol\":10241:10260  owner != address(0) */\n      0xffffffffffffffffffffffffffffffffffffffff\n      and\n        /* \"@openzeppelin/contracts/token/ERC20/ERC20.sol\":10241:10246  owner */\n      dup4\n        /* \"@openzeppelin/contracts/token/ERC20/ERC20.sol\":10241:10260  owner != address(0) */\n      0xffffffffffffffffffffffffffffffffffffffff\n      and\n      eq\n      iszero\n        /* \"@openzeppelin/contracts/token/ERC20/ERC20.sol\":10233:10301  require(owner != address(0), \"ERC20: approve from the zero address\") */\n      tag_161\n      jumpi\n      mload(0x40)\n      0x08c379a000000000000000000000000000000000000000000000000000000000\n      dup2\n      mstore\n      0x04\n      add\n      tag_162\n      swap1\n      tag_163\n      jump\t// in\n    tag_162:\n      mload(0x40)\n      dup1\n      swap2\n      sub\n      swap1\n      revert\n    tag_161:\n        /* \"@openzeppelin/contracts/token/ERC20/ERC20.sol\":10338:10339  0 */\n      0x00\n        /* \"@openzeppelin/contracts/token/ERC20/ERC20.sol\":10319:10340  spender != address(0) */\n      0xffffffffffffffffffffffffffffffffffffffff\n      and\n        /* \"@openzeppelin/contracts/token/ERC20/ERC20.sol\":10319:10326  spender */\n      dup3\n        /* \"@openzeppelin/contracts/token/ERC20/ERC20.sol\":10319:10340  spender != address(0) */\n      0xffffffffffffffffffffffffffffffffffffffff\n      and\n      eq\n      iszero\n        /* \"@openzeppelin/contracts/token/ERC20/ERC20.sol\":10311:10379  require(spender != address(0), \"ERC20: approve to the zero address\") */\n      tag_164\n      jumpi\n      mload(0x40)\n      0x08c379a000000000000000000000000000000000000000000000000000000000\n      dup2\n      mstore\n      0x04\n      add\n      tag_165\n      swap1\n      tag_166\n      jump\t// in\n    tag_165:\n      mload(0x40)\n      dup1\n      swap2\n      sub\n      swap1\n      revert\n    tag_164:\n        /* \"@openzeppelin/contracts/token/ERC20/ERC20.sol\":10420:10426  amount */\n      dup1\n        /* \"@openzeppelin/contracts/token/ERC20/ERC20.sol\":10390:10401  _allowances */\n      0x01\n        /* \"@openzeppelin/contracts/token/ERC20/ERC20.sol\":10390:10408  _allowances[owner] */\n      0x00\n        /* \"@openzeppelin/contracts/token/ERC20/ERC20.sol\":10402:10407  owner */\n      dup6\n        /* \"@openzeppelin/contracts/token/ERC20/ERC20.sol\":10390:10408  _allowances[owner] */\n      0xffffffffffffffffffffffffffffffffffffffff\n      and\n      0xffffffffffffffffffffffffffffffffffffffff\n      and\n      dup2\n      mstore\n      0x20\n      add\n      swap1\n      dup2\n      mstore\n      0x20\n      add\n      0x00\n      keccak256\n        /* \"@openzeppelin/contracts/token/ERC20/ERC20.sol\":10390:10417  _allowances[owner][spender] */\n      0x00\n        /* \"@openzeppelin/contracts/token/ERC20/ERC20.sol\":10409:10416  spender */\n      dup5\n        /* \"@openzeppelin/contracts/token/ERC20/ERC20.sol\":10390:10417  _allowances[owner][spender] */\n      0xffffffffffffffffffffffffffffffffffffffff\n      and\n      0xffffffffffffffffffffffffffffffffffffffff\n      and\n      dup2\n      mstore\n      0x20\n      add\n      swap1\n      dup2\n      mstore\n      0x20\n      add\n      0x00\n      keccak256\n        /* \"@openzeppelin/contracts/token/ERC20/ERC20.sol\":10390:10426  _allowances[owner][spender] = amount */\n      dup2\n      swap1\n      sstore\n      pop\n        /* \"@openzeppelin/contracts/token/ERC20/ERC20.sol\":10457:10464  spender */\n      dup2\n        /* \"@openzeppelin/contracts/token/ERC20/ERC20.sol\":10441:10473  Approval(owner, spender, amount) */\n      0xffffffffffffffffffffffffffffffffffffffff\n      and\n        /* \"@openzeppelin/contracts/token/ERC20/ERC20.sol\":10450:10455  owner */\n      dup4\n        /* \"@openzeppelin/contracts/token/ERC20/ERC20.sol\":10441:10473  Approval(owner, spender, amount) */\n      0xffffffffffffffffffffffffffffffffffffffff\n      and\n      0x8c5be1e5ebec7d5bd14f71427d1e84f3dd0314c0f7b2291e5b200ac8c7c3b925\n        /* \"@openzeppelin/contracts/token/ERC20/ERC20.sol\":10466:10472  amount */\n      dup4\n        /* \"@openzeppelin/contracts/token/ERC20/ERC20.sol\":10441:10473  Approval(owner, spender, amount) */\n      mload(0x40)\n      tag_167\n      swap2\n      swap1\n      tag_36\n      jump\t// in\n    tag_167:\n      mload(0x40)\n      dup1\n      swap2\n      sub\n      swap1\n      log3\n        /* \"@openzeppelin/contracts/token/ERC20/ERC20.sol\":10110:10480  function _approve(... */\n      pop\n      pop\n      pop\n      jump\t// out\n        /* \"@openzeppelin/contracts/token/ERC20/ERC20.sol\":10761:11202  function _spendAllowance(... */\n    tag_105:\n        /* \"@openzeppelin/contracts/token/ERC20/ERC20.sol\":10891:10915  uint256 currentAllowance */\n      0x00\n        /* \"@openzeppelin/contracts/token/ERC20/ERC20.sol\":10918:10943  allowance(owner, spender) */\n      tag_169\n        /* \"@openzeppelin/contracts/token/ERC20/ERC20.sol\":10928:10933  owner */\n      dup5\n        /* \"@openzeppelin/contracts/token/ERC20/ERC20.sol\":10935:10942  spender */\n      dup5\n        /* \"@openzeppelin/contracts/token/ERC20/ERC20.sol\":10918:10927  allowance */\n      tag_84\n        /* \"@openzeppelin/contracts/token/ERC20/ERC20.sol\":10918:10943  allowance(owner, spender) */\n      jump\t// in\n    tag_169:\n        /* \"@openzeppelin/contracts/token/ERC20/ERC20.sol\":10891:10943  uint256 currentAllowance = allowance(owner, spender) */\n      swap1\n      pop\n        /* \"@openzeppelin/contracts/token/ERC20/ERC20.sol\":10977:10994  type(uint256).max */\n      0xffffffffffffffffffffffffffffffffffffffffffffffffffffffffffffffff\n        /* \"@openzeppelin/contracts/token/ERC20/ERC20.sol\":10957:10973  currentAllowance */\n      dup2\n        /* \"@openzeppelin/contracts/token/ERC20/ERC20.sol\":10957:10994  currentAllowance != type(uint256).max */\n      eq\n        /* \"@openzeppelin/contracts/token/ERC20/ERC20.sol\":10953:11196  if (currentAllowance != type(uint256).max) {... */\n      tag_170\n      jumpi\n        /* \"@openzeppelin/contracts/token/ERC20/ERC20.sol\":11038:11044  amount */\n      dup2\n        /* \"@openzeppelin/contracts/token/ERC20/ERC20.sol\":11018:11034  currentAllowance */\n      dup2\n        /* \"@openzeppelin/contracts/token/ERC20/ERC20.sol\":11018:11044  currentAllowance >= amount */\n      lt\n      iszero\n        /* \"@openzeppelin/contracts/token/ERC20/ERC20.sol\":11010:11078  require(currentAllowance >= amount, \"ERC20: insufficient allowance\") */\n      tag_171\n      jumpi\n      mload(0x40)\n      0x08c379a000000000000000000000000000000000000000000000000000000000\n      dup2\n      mstore\n      0x04\n      add\n      tag_172\n      swap1\n      tag_173\n      jump\t// in\n    tag_172:\n      mload(0x40)\n      dup1\n      swap2\n      sub\n      swap1\n      revert\n    tag_171:\n        /* \"@openzeppelin/contracts/token/ERC20/ERC20.sol\":11120:11171  _approve(owner, spender, currentAllowance - amount) */\n      tag_174\n        /* \"@openzeppelin/contracts/token/ERC20/ERC20.sol\":11129:11134  owner */\n      dup5\n        /* \"@openzeppelin/contracts/token/ERC20/ERC20.sol\":11136:11143  spender */\n      dup5\n        /* \"@openzeppelin/contracts/token/ERC20/ERC20.sol\":11164:11170  amount */\n      dup5\n        /* \"@openzeppelin/contracts/token/ERC20/ERC20.sol\":11145:11161  currentAllowance */\n      dup5\n        /* \"@openzeppelin/contracts/token/ERC20/ERC20.sol\":11145:11170  currentAllowance - amount */\n      sub\n        /* \"@openzeppelin/contracts/token/ERC20/ERC20.sol\":11120:11128  _approve */\n      tag_100\n        /* \"@openzeppelin/contracts/token/ERC20/ERC20.sol\":11120:11171  _approve(owner, spender, currentAllowance - amount) */\n      jump\t// in\n    tag_174:\n        /* \"@openzeppelin/contracts/token/ERC20/ERC20.sol\":10953:11196  if (currentAllowance != type(uint256).max) {... */\n    tag_170:\n        /* \"@openzeppelin/contracts/token/ERC20/ERC20.sol\":10881:11202  {... */\n      pop\n        /* \"@openzeppelin/contracts/token/ERC20/ERC20.sol\":10761:11202  function _spendAllowance(... */\n      pop\n      pop\n      pop\n      jump\t// out\n        /* \"@openzeppelin/contracts/token/ERC20/ERC20.sol\":7475:8126  function _transfer(... */\n    tag_107:\n        /* \"@openzeppelin/contracts/token/ERC20/ERC20.sol\":7617:7618  0 */\n      0x00\n        /* \"@openzeppelin/contracts/token/ERC20/ERC20.sol\":7601:7619  from != address(0) */\n      0xffffffffffffffffffffffffffffffffffffffff\n      and\n        /* \"@openzeppelin/contracts/token/ERC20/ERC20.sol\":7601:7605  from */\n      dup4\n        /* \"@openzeppelin/contracts/token/ERC20/ERC20.sol\":7601:7619  from != address(0) */\n      0xffffffffffffffffffffffffffffffffffffffff\n      and\n      eq\n      iszero\n        /* \"@openzeppelin/contracts/token/ERC20/ERC20.sol\":7593:7661  require(from != address(0), \"ERC20: transfer from the zero address\") */\n      tag_176\n      jumpi\n      mload(0x40)\n      0x08c379a000000000000000000000000000000000000000000000000000000000\n      dup2\n      mstore\n      0x04\n      add\n      tag_177\n      swap1\n      tag_178\n      jump\t// in\n    tag_177:\n      mload(0x40)\n      dup1\n      swap2\n      sub\n      swap1\n      revert\n    tag_176:\n        /* \"@openzeppelin/contracts/token/ERC20/ERC20.sol\":7693:7694  0 */\n      0x00\n        /* \"@openzeppelin/contracts/token/ERC20/ERC20.sol\":7679:7695  to != address(0) */\n      0xffffffffffffffffffffffffffffffffffffffff\n      and\n        /* \"@openzeppelin/contracts/token/ERC20/ERC20.sol\":7679:7681  to */\n      dup3\n        /* \"@openzeppelin/contracts/token/ERC20/ERC20.sol\":7679:7695  to != address(0) */\n      0xffffffffffffffffffffffffffffffffffffffff\n      and\n      eq\n      iszero\n        /* \"@openzeppelin/contracts/token/ERC20/ERC20.sol\":7671:7735  require(to != address(0), \"ERC20: transfer to the zero address\") */\n      tag_179\n      jumpi\n      mload(0x40)\n      0x08c379a000000000000000000000000000000000000000000000000000000000\n      dup2\n      mstore\n      0x04\n      add\n      tag_180\n      swap1\n      tag_181\n      jump\t// in\n    tag_180:\n      mload(0x40)\n      dup1\n      swap2\n      sub\n      swap1\n      revert\n    tag_179:\n        /* \"@openzeppelin/contracts/token/ERC20/ERC20.sol\":7746:7784  _beforeTokenTransfer(from, to, amount) */\n      tag_182\n        /* \"@openzeppelin/contracts/token/ERC20/ERC20.sol\":7767:7771  from */\n      dup4\n        /* \"@openzeppelin/contracts/token/ERC20/ERC20.sol\":7773:7775  to */\n      dup4\n        /* \"@openzeppelin/contracts/token/ERC20/ERC20.sol\":7777:7783  amount */\n      dup4\n        /* \"@openzeppelin/contracts/token/ERC20/ERC20.sol\":7746:7766  _beforeTokenTransfer */\n      tag_183\n        /* \"@openzeppelin/contracts/token/ERC20/ERC20.sol\":7746:7784  _beforeTokenTransfer(from, to, amount) */\n      jump\t// in\n    tag_182:\n        /* \"@openzeppelin/contracts/token/ERC20/ERC20.sol\":7795:7814  uint256 fromBalance */\n      0x00\n        /* \"@openzeppelin/contracts/token/ERC20/ERC20.sol\":7817:7826  _balances */\n      dup1\n        /* \"@openzeppelin/contracts/token/ERC20/ERC20.sol\":7817:7832  _balances[from] */\n      0x00\n        /* \"@openzeppelin/contracts/token/ERC20/ERC20.sol\":7827:7831  from */\n      dup6\n        /* \"@openzeppelin/contracts/token/ERC20/ERC20.sol\":7817:7832  _balances[from] */\n      0xffffffffffffffffffffffffffffffffffffffff\n      and\n      0xffffffffffffffffffffffffffffffffffffffff\n      and\n      dup2\n      mstore\n      0x20\n      add\n      swap1\n      dup2\n      mstore\n      0x20\n      add\n      0x00\n      keccak256\n      sload\n        /* \"@openzeppelin/contracts/token/ERC20/ERC20.sol\":7795:7832  uint256 fromBalance = _balances[from] */\n      swap1\n      pop\n        /* \"@openzeppelin/contracts/token/ERC20/ERC20.sol\":7865:7871  amount */\n      dup2\n        /* \"@openzeppelin/contracts/token/ERC20/ERC20.sol\":7850:7861  fromBalance */\n      dup2\n        /* \"@openzeppelin/contracts/token/ERC20/ERC20.sol\":7850:7871  fromBalance >= amount */\n      lt\n      iszero\n        /* \"@openzeppelin/contracts/token/ERC20/ERC20.sol\":7842:7914  require(fromBalance >= amount, \"ERC20: transfer amount exceeds balance\") */\n      tag_184\n      jumpi\n      mload(0x40)\n      0x08c379a000000000000000000000000000000000000000000000000000000000\n      dup2\n      mstore\n      0x04\n      add\n      tag_185\n      swap1\n      tag_186\n      jump\t// in\n    tag_185:\n      mload(0x40)\n      dup1\n      swap2\n      sub\n      swap1\n      revert\n    tag_184:\n        /* \"@openzeppelin/contracts/token/ERC20/ERC20.sol\":7980:7986  amount */\n      dup2\n        /* \"@openzeppelin/contracts/token/ERC20/ERC20.sol\":7966:7977  fromBalance */\n      dup2\n        /* \"@openzeppelin/contracts/token/ERC20/ERC20.sol\":7966:7986  fromBalance - amount */\n      sub\n        /* \"@openzeppelin/contracts/token/ERC20/ERC20.sol\":7948:7957  _balances */\n      0x00\n        /* \"@openzeppelin/contracts/token/ERC20/ERC20.sol\":7948:7963  _balances[from] */\n      dup1\n        /* \"@openzeppelin/contracts/token/ERC20/ERC20.sol\":7958:7962  from */\n      dup7\n        /* \"@openzeppelin/contracts/token/ERC20/ERC20.sol\":7948:7963  _balances[from] */\n      0xffffffffffffffffffffffffffffffffffffffff\n      and\n      0xffffffffffffffffffffffffffffffffffffffff\n      and\n      dup2\n      mstore\n      0x20\n      add\n      swap1\n      dup2\n      mstore\n      0x20\n      add\n      0x00\n      keccak256\n        /* \"@openzeppelin/contracts/token/ERC20/ERC20.sol\":7948:7986  _balances[from] = fromBalance - amount */\n      dup2\n      swap1\n      sstore\n      pop\n        /* \"@openzeppelin/contracts/token/ERC20/ERC20.sol\":8023:8029  amount */\n      dup2\n        /* \"@openzeppelin/contracts/token/ERC20/ERC20.sol\":8006:8015  _balances */\n      0x00\n        /* \"@openzeppelin/contracts/token/ERC20/ERC20.sol\":8006:8019  _balances[to] */\n      dup1\n        /* \"@openzeppelin/contracts/token/ERC20/ERC20.sol\":8016:8018  to */\n      dup6\n        /* \"@openzeppelin/contracts/token/ERC20/ERC20.sol\":8006:8019  _balances[to] */\n      0xffffffffffffffffffffffffffffffffffffffff\n      and\n      0xffffffffffffffffffffffffffffffffffffffff\n      and\n      dup2\n      mstore\n      0x20\n      add\n      swap1\n      dup2\n      mstore\n      0x20\n      add\n      0x00\n      keccak256\n      0x00\n        /* \"@openzeppelin/contracts/token/ERC20/ERC20.sol\":8006:8029  _balances[to] += amount */\n      dup3\n      dup3\n      sload\n      tag_187\n      swap2\n      swap1\n      tag_114\n      jump\t// in\n    tag_187:\n      swap3\n      pop\n      pop\n      dup2\n      swap1\n      sstore\n      pop\n        /* \"@openzeppelin/contracts/token/ERC20/ERC20.sol\":8060:8062  to */\n      dup3\n        /* \"@openzeppelin/contracts/token/ERC20/ERC20.sol\":8045:8071  Transfer(from, to, amount) */\n      0xffffffffffffffffffffffffffffffffffffffff\n      and\n        /* \"@openzeppelin/contracts/token/ERC20/ERC20.sol\":8054:8058  from */\n      dup5\n        /* \"@openzeppelin/contracts/token/ERC20/ERC20.sol\":8045:8071  Transfer(from, to, amount) */\n      0xffffffffffffffffffffffffffffffffffffffff\n      and\n      0xddf252ad1be2c89b69c2b068fc378daa952ba7f163c4a11628f55a4df523b3ef\n        /* \"@openzeppelin/contracts/token/ERC20/ERC20.sol\":8064:8070  amount */\n      dup5\n        /* \"@openzeppelin/contracts/token/ERC20/ERC20.sol\":8045:8071  Transfer(from, to, amount) */\n      mload(0x40)\n      tag_188\n      swap2\n      swap1\n      tag_36\n      jump\t// in\n    tag_188:\n      mload(0x40)\n      dup1\n      swap2\n      sub\n      swap1\n      log3\n        /* \"@openzeppelin/contracts/token/ERC20/ERC20.sol\":8082:8119  _afterTokenTransfer(from, to, amount) */\n      tag_189\n        /* \"@openzeppelin/contracts/token/ERC20/ERC20.sol\":8102:8106  from */\n      dup5\n        /* \"@openzeppelin/contracts/token/ERC20/ERC20.sol\":8108:8110  to */\n      dup5\n        /* \"@openzeppelin/contracts/token/ERC20/ERC20.sol\":8112:8118  amount */\n      dup5\n        /* \"@openzeppelin/contracts/token/ERC20/ERC20.sol\":8082:8101  _afterTokenTransfer */\n      tag_190\n        /* \"@openzeppelin/contracts/token/ERC20/ERC20.sol\":8082:8119  _afterTokenTransfer(from, to, amount) */\n      jump\t// in\n    tag_189:\n        /* \"@openzeppelin/contracts/token/ERC20/ERC20.sol\":7583:8126  {... */\n      pop\n        /* \"@openzeppelin/contracts/token/ERC20/ERC20.sol\":7475:8126  function _transfer(... */\n      pop\n      pop\n      pop\n      jump\t// out\n        /* \"@openzeppelin/contracts/access/Ownable.sol\":1359:1489  function _checkOwner() internal view virtual {... */\n    tag_118:\n        /* \"@openzeppelin/contracts/access/Ownable.sol\":1433:1445  _msgSender() */\n      tag_192\n        /* \"@openzeppelin/contracts/access/Ownable.sol\":1433:1443  _msgSender */\n      tag_98\n        /* \"@openzeppelin/contracts/access/Ownable.sol\":1433:1445  _msgSender() */\n      jump\t// in\n    tag_192:\n        /* \"@openzeppelin/contracts/access/Ownable.sol\":1422:1445  owner() == _msgSender() */\n      0xffffffffffffffffffffffffffffffffffffffff\n      and\n        /* \"@openzeppelin/contracts/access/Ownable.sol\":1422:1429  owner() */\n      tag_193\n        /* \"@openzeppelin/contracts/access/Ownable.sol\":1422:1427  owner */\n      tag_61\n        /* \"@openzeppelin/contracts/access/Ownable.sol\":1422:1429  owner() */\n      jump\t// in\n    tag_193:\n        /* \"@openzeppelin/contracts/access/Ownable.sol\":1422:1445  owner() == _msgSender() */\n      0xffffffffffffffffffffffffffffffffffffffff\n      and\n      eq\n        /* \"@openzeppelin/contracts/access/Ownable.sol\":1414:1482  require(owner() == _msgSender(), \"Ownable: caller is not the owner\") */\n      tag_194\n      jumpi\n      mload(0x40)\n      0x08c379a000000000000000000000000000000000000000000000000000000000\n      dup2\n      mstore\n      0x04\n      add\n      tag_195\n      swap1\n      tag_196\n      jump\t// in\n    tag_195:\n      mload(0x40)\n      dup1\n      swap2\n      sub\n      swap1\n      revert\n    tag_194:\n        /* \"@openzeppelin/contracts/access/Ownable.sol\":1359:1489  function _checkOwner() internal view virtual {... */\n      jump\t// out\n        /* \"@openzeppelin/contracts/access/Ownable.sol\":2433:2620  function _transferOwnership(address newOwner) internal virtual {... */\n    tag_121:\n        /* \"@openzeppelin/contracts/access/Ownable.sol\":2506:2522  address oldOwner */\n      0x00\n        /* \"@openzeppelin/contracts/access/Ownable.sol\":2525:2531  _owner */\n      0x05\n      0x00\n      swap1\n      sload\n      swap1\n      0x0100\n      exp\n      swap1\n      div\n      0xffffffffffffffffffffffffffffffffffffffff\n      and\n        /* \"@openzeppelin/contracts/access/Ownable.sol\":2506:2531  address oldOwner = _owner */\n      swap1\n      pop\n        /* \"@openzeppelin/contracts/access/Ownable.sol\":2550:2558  newOwner */\n      dup2\n        /* \"@openzeppelin/contracts/access/Ownable.sol\":2541:2547  _owner */\n      0x05\n      0x00\n        /* \"@openzeppelin/contracts/access/Ownable.sol\":2541:2558  _owner = newOwner */\n      0x0100\n      exp\n      dup2\n      sload\n      dup2\n      0xffffffffffffffffffffffffffffffffffffffff\n      mul\n      not\n      and\n      swap1\n      dup4\n      0xffffffffffffffffffffffffffffffffffffffff\n      and\n      mul\n      or\n      swap1\n      sstore\n      pop\n        /* \"@openzeppelin/contracts/access/Ownable.sol\":2604:2612  newOwner */\n      dup2\n        /* \"@openzeppelin/contracts/access/Ownable.sol\":2573:2613  OwnershipTransferred(oldOwner, newOwner) */\n      0xffffffffffffffffffffffffffffffffffffffff\n      and\n        /* \"@openzeppelin/contracts/access/Ownable.sol\":2594:2602  oldOwner */\n      dup2\n        /* \"@openzeppelin/contracts/access/Ownable.sol\":2573:2613  OwnershipTransferred(oldOwner, newOwner) */\n      0xffffffffffffffffffffffffffffffffffffffff\n      and\n      0x8be0079c531659141344cd1fd0a4f28419497f9722a3daafe3b4186f6b6457e0\n      mload(0x40)\n      mload(0x40)\n      dup1\n      swap2\n      sub\n      swap1\n      log3\n        /* \"@openzeppelin/contracts/access/Ownable.sol\":2496:2620  {... */\n      pop\n        /* \"@openzeppelin/contracts/access/Ownable.sol\":2433:2620  function _transferOwnership(address newOwner) internal virtual {... */\n      pop\n      jump\t// out\n        /* \"@openzeppelin/contracts/token/ERC20/ERC20.sol\":3729:3918  function transfer(address to, uint256 amount) public virtual override returns (bool) {... */\n    tag_150:\n        /* \"@openzeppelin/contracts/token/ERC20/ERC20.sol\":3808:3812  bool */\n      0x00\n        /* \"@openzeppelin/contracts/token/ERC20/ERC20.sol\":3824:3837  address owner */\n      dup1\n        /* \"@openzeppelin/contracts/token/ERC20/ERC20.sol\":3840:3852  _msgSender() */\n      tag_199\n        /* \"@openzeppelin/contracts/token/ERC20/ERC20.sol\":3840:3850  _msgSender */\n      tag_98\n        /* \"@openzeppelin/contracts/token/ERC20/ERC20.sol\":3840:3852  _msgSender() */\n      jump\t// in\n    tag_199:\n        /* \"@openzeppelin/contracts/token/ERC20/ERC20.sol\":3824:3852  address owner = _msgSender() */\n      swap1\n      pop\n        /* \"@openzeppelin/contracts/token/ERC20/ERC20.sol\":3862:3890  _transfer(owner, to, amount) */\n      tag_200\n        /* \"@openzeppelin/contracts/token/ERC20/ERC20.sol\":3872:3877  owner */\n      dup2\n        /* \"@openzeppelin/contracts/token/ERC20/ERC20.sol\":3879:3881  to */\n      dup6\n        /* \"@openzeppelin/contracts/token/ERC20/ERC20.sol\":3883:3889  amount */\n      dup6\n        /* \"@openzeppelin/contracts/token/ERC20/ERC20.sol\":3862:3871  _transfer */\n      tag_107\n        /* \"@openzeppelin/contracts/token/ERC20/ERC20.sol\":3862:3890  _transfer(owner, to, amount) */\n      jump\t// in\n    tag_200:\n        /* \"@openzeppelin/contracts/token/ERC20/ERC20.sol\":3907:3911  true */\n      0x01\n        /* \"@openzeppelin/contracts/token/ERC20/ERC20.sol\":3900:3911  return true */\n      swap2\n      pop\n      pop\n        /* \"@openzeppelin/contracts/token/ERC20/ERC20.sol\":3729:3918  function transfer(address to, uint256 amount) public virtual override returns (bool) {... */\n      swap3\n      swap2\n      pop\n      pop\n      jump\t// out\n        /* \"@openzeppelin/contracts/token/ERC20/ERC20.sol\":11786:11907  function _beforeTokenTransfer(... */\n    tag_183:\n      pop\n      pop\n      pop\n      jump\t// out\n        /* \"@openzeppelin/contracts/token/ERC20/ERC20.sol\":12495:12615  function _afterTokenTransfer(... */\n    tag_190:\n      pop\n      pop\n      pop\n      jump\t// out\n        /* \"#utility.yul\":7:146   */\n    tag_204:\n        /* \"#utility.yul\":53:58   */\n      0x00\n        /* \"#utility.yul\":91:97   */\n      dup2\n        /* \"#utility.yul\":78:98   */\n      calldataload\n        /* \"#utility.yul\":69:98   */\n      swap1\n      pop\n        /* \"#utility.yul\":107:140   */\n      tag_206\n        /* \"#utility.yul\":134:139   */\n      dup2\n        /* \"#utility.yul\":107:140   */\n      tag_207\n      jump\t// in\n    tag_206:\n        /* \"#utility.yul\":7:146   */\n      swap3\n      swap2\n      pop\n      pop\n      jump\t// out\n        /* \"#utility.yul\":152:291   */\n    tag_208:\n        /* \"#utility.yul\":198:203   */\n      0x00\n        /* \"#utility.yul\":236:242   */\n      dup2\n        /* \"#utility.yul\":223:243   */\n      calldataload\n        /* \"#utility.yul\":214:243   */\n      swap1\n      pop\n        /* \"#utility.yul\":252:285   */\n      tag_210\n        /* \"#utility.yul\":279:284   */\n      dup2\n        /* \"#utility.yul\":252:285   */\n      tag_211\n      jump\t// in\n    tag_210:\n        /* \"#utility.yul\":152:291   */\n      swap3\n      swap2\n      pop\n      pop\n      jump\t// out\n        /* \"#utility.yul\":297:626   */\n    tag_52:\n        /* \"#utility.yul\":356:362   */\n      0x00\n        /* \"#utility.yul\":405:407   */\n      0x20\n        /* \"#utility.yul\":393:402   */\n      dup3\n        /* \"#utility.yul\":384:391   */\n      dup5\n        /* \"#utility.yul\":380:403   */\n      sub\n        /* \"#utility.yul\":376:408   */\n      slt\n        /* \"#utility.yul\":373:492   */\n      iszero\n      tag_213\n      jumpi\n        /* \"#utility.yul\":411:490   */\n      tag_214\n      tag_215\n      jump\t// in\n    tag_214:\n        /* \"#utility.yul\":373:492   */\n    tag_213:\n        /* \"#utility.yul\":531:532   */\n      0x00\n        /* \"#utility.yul\":556:609   */\n      tag_216\n        /* \"#utility.yul\":601:608   */\n      dup5\n        /* \"#utility.yul\":592:598   */\n      dup3\n        /* \"#utility.yul\":581:590   */\n      dup6\n        /* \"#utility.yul\":577:599   */\n      add\n        /* \"#utility.yul\":556:609   */\n      tag_204\n      jump\t// in\n    tag_216:\n        /* \"#utility.yul\":546:609   */\n      swap2\n      pop\n        /* \"#utility.yul\":502:619   */\n      pop\n        /* \"#utility.yul\":297:626   */\n      swap3\n      swap2\n      pop\n      pop\n      jump\t// out\n        /* \"#utility.yul\":632:1106   */\n    tag_83:\n        /* \"#utility.yul\":700:706   */\n      0x00\n        /* \"#utility.yul\":708:714   */\n      dup1\n        /* \"#utility.yul\":757:759   */\n      0x40\n        /* \"#utility.yul\":745:754   */\n      dup4\n        /* \"#utility.yul\":736:743   */\n      dup6\n        /* \"#utility.yul\":732:755   */\n      sub\n        /* \"#utility.yul\":728:760   */\n      slt\n        /* \"#utility.yul\":725:844   */\n      iszero\n      tag_218\n      jumpi\n        /* \"#utility.yul\":763:842   */\n      tag_219\n      tag_215\n      jump\t// in\n    tag_219:\n        /* \"#utility.yul\":725:844   */\n    tag_218:\n        /* \"#utility.yul\":883:884   */\n      0x00\n        /* \"#utility.yul\":908:961   */\n      tag_220\n        /* \"#utility.yul\":953:960   */\n      dup6\n        /* \"#utility.yul\":944:950   */\n      dup3\n        /* \"#utility.yul\":933:942   */\n      dup7\n        /* \"#utility.yul\":929:951   */\n      add\n        /* \"#utility.yul\":908:961   */\n      tag_204\n      jump\t// in\n    tag_220:\n        /* \"#utility.yul\":898:961   */\n      swap3\n      pop\n        /* \"#utility.yul\":854:971   */\n      pop\n        /* \"#utility.yul\":1010:1012   */\n      0x20\n        /* \"#utility.yul\":1036:1089   */\n      tag_221\n        /* \"#utility.yul\":1081:1088   */\n      dup6\n        /* \"#utility.yul\":1072:1078   */\n      dup3\n        /* \"#utility.yul\":1061:1070   */\n      dup7\n        /* \"#utility.yul\":1057:1079   */\n      add\n        /* \"#utility.yul\":1036:1089   */\n      tag_204\n      jump\t// in\n    tag_221:\n        /* \"#utility.yul\":1026:1089   */\n      swap2\n      pop\n        /* \"#utility.yul\":981:1099   */\n      pop\n        /* \"#utility.yul\":632:1106   */\n      swap3\n      pop\n      swap3\n      swap1\n      pop\n      jump\t// out\n        /* \"#utility.yul\":1112:1731   */\n    tag_39:\n        /* \"#utility.yul\":1189:1195   */\n      0x00\n        /* \"#utility.yul\":1197:1203   */\n      dup1\n        /* \"#utility.yul\":1205:1211   */\n      0x00\n        /* \"#utility.yul\":1254:1256   */\n      0x60\n        /* \"#utility.yul\":1242:1251   */\n      dup5\n        /* \"#utility.yul\":1233:1240   */\n      dup7\n        /* \"#utility.yul\":1229:1252   */\n      sub\n        /* \"#utility.yul\":1225:1257   */\n      slt\n        /* \"#utility.yul\":1222:1341   */\n      iszero\n      tag_223\n      jumpi\n        /* \"#utility.yul\":1260:1339   */\n      tag_224\n      tag_215\n      jump\t// in\n    tag_224:\n        /* \"#utility.yul\":1222:1341   */\n    tag_223:\n        /* \"#utility.yul\":1380:1381   */\n      0x00\n        /* \"#utility.yul\":1405:1458   */\n      tag_225\n        /* \"#utility.yul\":1450:1457   */\n      dup7\n        /* \"#utility.yul\":1441:1447   */\n      dup3\n        /* \"#utility.yul\":1430:1439   */\n      dup8\n        /* \"#utility.yul\":1426:1448   */\n      add\n        /* \"#utility.yul\":1405:1458   */\n      tag_204\n      jump\t// in\n    tag_225:\n        /* \"#utility.yul\":1395:1458   */\n      swap4\n      pop\n        /* \"#utility.yul\":1351:1468   */\n      pop\n        /* \"#utility.yul\":1507:1509   */\n      0x20\n        /* \"#utility.yul\":1533:1586   */\n      tag_226\n        /* \"#utility.yul\":1578:1585   */\n      dup7\n        /* \"#utility.yul\":1569:1575   */\n      dup3\n        /* \"#utility.yul\":1558:1567   */\n      dup8\n        /* \"#utility.yul\":1554:1576   */\n      add\n        /* \"#utility.yul\":1533:1586   */\n      tag_204\n      jump\t// in\n    tag_226:\n        /* \"#utility.yul\":1523:1586   */\n      swap3\n      pop\n        /* \"#utility.yul\":1478:1596   */\n      pop\n        /* \"#utility.yul\":1635:1637   */\n      0x40\n        /* \"#utility.yul\":1661:1714   */\n      tag_227\n        /* \"#utility.yul\":1706:1713   */\n      dup7\n        /* \"#utility.yul\":1697:1703   */\n      dup3\n        /* \"#utility.yul\":1686:1695   */\n      dup8\n        /* \"#utility.yul\":1682:1704   */\n      add\n        /* \"#utility.yul\":1661:1714   */\n      tag_208\n      jump\t// in\n    tag_227:\n        /* \"#utility.yul\":1651:1714   */\n      swap2\n      pop\n        /* \"#utility.yul\":1606:1724   */\n      pop\n        /* \"#utility.yul\":1112:1731   */\n      swap3\n      pop\n      swap3\n      pop\n      swap3\n      jump\t// out\n        /* \"#utility.yul\":1737:2211   */\n    tag_29:\n        /* \"#utility.yul\":1805:1811   */\n      0x00\n        /* \"#utility.yul\":1813:1819   */\n      dup1\n        /* \"#utility.yul\":1862:1864   */\n      0x40\n        /* \"#utility.yul\":1850:1859   */\n      dup4\n        /* \"#utility.yul\":1841:1848   */\n      dup6\n        /* \"#utility.yul\":1837:1860   */\n      sub\n        /* \"#utility.yul\":1833:1865   */\n      slt\n        /* \"#utility.yul\":1830:1949   */\n      iszero\n      tag_229\n      jumpi\n        /* \"#utility.yul\":1868:1947   */\n      tag_230\n      tag_215\n      jump\t// in\n    tag_230:\n        /* \"#utility.yul\":1830:1949   */\n    tag_229:\n        /* \"#utility.yul\":1988:1989   */\n      0x00\n        /* \"#utility.yul\":2013:2066   */\n      tag_231\n        /* \"#utility.yul\":2058:2065   */\n      dup6\n        /* \"#utility.yul\":2049:2055   */\n      dup3\n        /* \"#utility.yul\":2038:2047   */\n      dup7\n        /* \"#utility.yul\":2034:2056   */\n      add\n        /* \"#utility.yul\":2013:2066   */\n      tag_204\n      jump\t// in\n    tag_231:\n        /* \"#utility.yul\":2003:2066   */\n      swap3\n      pop\n        /* \"#utility.yul\":1959:2076   */\n      pop\n        /* \"#utility.yul\":2115:2117   */\n      0x20\n        /* \"#utility.yul\":2141:2194   */\n      tag_232\n        /* \"#utility.yul\":2186:2193   */\n      dup6\n        /* \"#utility.yul\":2177:2183   */\n      dup3\n        /* \"#utility.yul\":2166:2175   */\n      dup7\n        /* \"#utility.yul\":2162:2184   */\n      add\n        /* \"#utility.yul\":2141:2194   */\n      tag_208\n      jump\t// in\n    tag_232:\n        /* \"#utility.yul\":2131:2194   */\n      swap2\n      pop\n        /* \"#utility.yul\":2086:2204   */\n      pop\n        /* \"#utility.yul\":1737:2211   */\n      swap3\n      pop\n      swap3\n      swap1\n      pop\n      jump\t// out\n        /* \"#utility.yul\":2217:2335   */\n    tag_233:\n        /* \"#utility.yul\":2304:2328   */\n      tag_235\n        /* \"#utility.yul\":2322:2327   */\n      dup2\n        /* \"#utility.yul\":2304:2328   */\n      tag_236\n      jump\t// in\n    tag_235:\n        /* \"#utility.yul\":2299:2302   */\n      dup3\n        /* \"#utility.yul\":2292:2329   */\n      mstore\n        /* \"#utility.yul\":2217:2335   */\n      pop\n      pop\n      jump\t// out\n        /* \"#utility.yul\":2341:2450   */\n    tag_237:\n        /* \"#utility.yul\":2422:2443   */\n      tag_239\n        /* \"#utility.yul\":2437:2442   */\n      dup2\n        /* \"#utility.yul\":2422:2443   */\n      tag_240\n      jump\t// in\n    tag_239:\n        /* \"#utility.yul\":2417:2420   */\n      dup3\n        /* \"#utility.yul\":2410:2444   */\n      mstore\n        /* \"#utility.yul\":2341:2450   */\n      pop\n      pop\n      jump\t// out\n        /* \"#utility.yul\":2456:2820   */\n    tag_241:\n        /* \"#utility.yul\":2544:2547   */\n      0x00\n        /* \"#utility.yul\":2572:2611   */\n      tag_243\n        /* \"#utility.yul\":2605:2610   */\n      dup3\n        /* \"#utility.yul\":2572:2611   */\n      tag_244\n      jump\t// in\n    tag_243:\n        /* \"#utility.yul\":2627:2698   */\n      tag_245\n        /* \"#utility.yul\":2691:2697   */\n      dup2\n        /* \"#utility.yul\":2686:2689   */\n      dup6\n        /* \"#utility.yul\":2627:2698   */\n      tag_246\n      jump\t// in\n    tag_245:\n        /* \"#utility.yul\":2620:2698   */\n      swap4\n      pop\n        /* \"#utility.yul\":2707:2759   */\n      tag_247\n        /* \"#utility.yul\":2752:2758   */\n      dup2\n        /* \"#utility.yul\":2747:2750   */\n      dup6\n        /* \"#utility.yul\":2740:2744   */\n      0x20\n        /* \"#utility.yul\":2733:2738   */\n      dup7\n        /* \"#utility.yul\":2729:2745   */\n      add\n        /* \"#utility.yul\":2707:2759   */\n      tag_248\n      jump\t// in\n    tag_247:\n        /* \"#utility.yul\":2784:2813   */\n      tag_249\n        /* \"#utility.yul\":2806:2812   */\n      dup2\n        /* \"#utility.yul\":2784:2813   */\n      tag_250\n      jump\t// in\n    tag_249:\n        /* \"#utility.yul\":2779:2782   */\n      dup5\n        /* \"#utility.yul\":2775:2814   */\n      add\n        /* \"#utility.yul\":2768:2814   */\n      swap2\n      pop\n        /* \"#utility.yul\":2548:2820   */\n      pop\n        /* \"#utility.yul\":2456:2820   */\n      swap3\n      swap2\n      pop\n      pop\n      jump\t// out\n        /* \"#utility.yul\":2826:3192   */\n    tag_251:\n        /* \"#utility.yul\":2968:2971   */\n      0x00\n        /* \"#utility.yul\":2989:3056   */\n      tag_253\n        /* \"#utility.yul\":3053:3055   */\n      0x23\n        /* \"#utility.yul\":3048:3051   */\n      dup4\n        /* \"#utility.yul\":2989:3056   */\n      tag_246\n      jump\t// in\n    tag_253:\n        /* \"#utility.yul\":2982:3056   */\n      swap2\n      pop\n        /* \"#utility.yul\":3065:3158   */\n      tag_254\n        /* \"#utility.yul\":3154:3157   */\n      dup3\n        /* \"#utility.yul\":3065:3158   */\n      tag_255\n      jump\t// in\n    tag_254:\n        /* \"#utility.yul\":3183:3185   */\n      0x40\n        /* \"#utility.yul\":3178:3181   */\n      dup3\n        /* \"#utility.yul\":3174:3186   */\n      add\n        /* \"#utility.yul\":3167:3186   */\n      swap1\n      pop\n        /* \"#utility.yul\":2826:3192   */\n      swap2\n      swap1\n      pop\n      jump\t// out\n        /* \"#utility.yul\":3198:3564   */\n    tag_256:\n        /* \"#utility.yul\":3340:3343   */\n      0x00\n        /* \"#utility.yul\":3361:3428   */\n      tag_258\n        /* \"#utility.yul\":3425:3427   */\n      0x26\n        /* \"#utility.yul\":3420:3423   */\n      dup4\n        /* \"#utility.yul\":3361:3428   */\n      tag_246\n      jump\t// in\n    tag_258:\n        /* \"#utility.yul\":3354:3428   */\n      swap2\n      pop\n        /* \"#utility.yul\":3437:3530   */\n      tag_259\n        /* \"#utility.yul\":3526:3529   */\n      dup3\n        /* \"#utility.yul\":3437:3530   */\n      tag_260\n      jump\t// in\n    tag_259:\n        /* \"#utility.yul\":3555:3557   */\n      0x40\n        /* \"#utility.yul\":3550:3553   */\n      dup3\n        /* \"#utility.yul\":3546:3558   */\n      add\n        /* \"#utility.yul\":3539:3558   */\n      swap1\n      pop\n        /* \"#utility.yul\":3198:3564   */\n      swap2\n      swap1\n      pop\n      jump\t// out\n        /* \"#utility.yul\":3570:3936   */\n    tag_261:\n        /* \"#utility.yul\":3712:3715   */\n      0x00\n        /* \"#utility.yul\":3733:3800   */\n      tag_263\n        /* \"#utility.yul\":3797:3799   */\n      0x22\n        /* \"#utility.yul\":3792:3795   */\n      dup4\n        /* \"#utility.yul\":3733:3800   */\n      tag_246\n      jump\t// in\n    tag_263:\n        /* \"#utility.yul\":3726:3800   */\n      swap2\n      pop\n        /* \"#utility.yul\":3809:3902   */\n      tag_264\n        /* \"#utility.yul\":3898:3901   */\n      dup3\n        /* \"#utility.yul\":3809:3902   */\n      tag_265\n      jump\t// in\n    tag_264:\n        /* \"#utility.yul\":3927:3929   */\n      0x40\n        /* \"#utility.yul\":3922:3925   */\n      dup3\n        /* \"#utility.yul\":3918:3930   */\n      add\n        /* \"#utility.yul\":3911:3930   */\n      swap1\n      pop\n        /* \"#utility.yul\":3570:3936   */\n      swap2\n      swap1\n      pop\n      jump\t// out\n        /* \"#utility.yul\":3942:4308   */\n    tag_266:\n        /* \"#utility.yul\":4084:4087   */\n      0x00\n        /* \"#utility.yul\":4105:4172   */\n      tag_268\n        /* \"#utility.yul\":4169:4171   */\n      0x14\n        /* \"#utility.yul\":4164:4167   */\n      dup4\n        /* \"#utility.yul\":4105:4172   */\n      tag_246\n      jump\t// in\n    tag_268:\n        /* \"#utility.yul\":4098:4172   */\n      swap2\n      pop\n        /* \"#utility.yul\":4181:4274   */\n      tag_269\n        /* \"#utility.yul\":4270:4273   */\n      dup3\n        /* \"#utility.yul\":4181:4274   */\n      tag_270\n      jump\t// in\n    tag_269:\n        /* \"#utility.yul\":4299:4301   */\n      0x20\n        /* \"#utility.yul\":4294:4297   */\n      dup3\n        /* \"#utility.yul\":4290:4302   */\n      add\n        /* \"#utility.yul\":4283:4302   */\n      swap1\n      pop\n        /* \"#utility.yul\":3942:4308   */\n      swap2\n      swap1\n      pop\n      jump\t// out\n        /* \"#utility.yul\":4314:4680   */\n    tag_271:\n        /* \"#utility.yul\":4456:4459   */\n      0x00\n        /* \"#utility.yul\":4477:4544   */\n      tag_273\n        /* \"#utility.yul\":4541:4543   */\n      0x1d\n        /* \"#utility.yul\":4536:4539   */\n      dup4\n        /* \"#utility.yul\":4477:4544   */\n      tag_246\n      jump\t// in\n    tag_273:\n        /* \"#utility.yul\":4470:4544   */\n      swap2\n      pop\n        /* \"#utility.yul\":4553:4646   */\n      tag_274\n        /* \"#utility.yul\":4642:4645   */\n      dup3\n        /* \"#utility.yul\":4553:4646   */\n      tag_275\n      jump\t// in\n    tag_274:\n        /* \"#utility.yul\":4671:4673   */\n      0x20\n        /* \"#utility.yul\":4666:4669   */\n      dup3\n        /* \"#utility.yul\":4662:4674   */\n      add\n        /* \"#utility.yul\":4655:4674   */\n      swap1\n      pop\n        /* \"#utility.yul\":4314:4680   */\n      swap2\n      swap1\n      pop\n      jump\t// out\n        /* \"#utility.yul\":4686:5052   */\n    tag_276:\n        /* \"#utility.yul\":4828:4831   */\n      0x00\n        /* \"#utility.yul\":4849:4916   */\n      tag_278\n        /* \"#utility.yul\":4913:4915   */\n      0x26\n        /* \"#utility.yul\":4908:4911   */\n      dup4\n        /* \"#utility.yul\":4849:4916   */\n      tag_246\n      jump\t// in\n    tag_278:\n        /* \"#utility.yul\":4842:4916   */\n      swap2\n      pop\n        /* \"#utility.yul\":4925:5018   */\n      tag_279\n        /* \"#utility.yul\":5014:5017   */\n      dup3\n        /* \"#utility.yul\":4925:5018   */\n      tag_280\n      jump\t// in\n    tag_279:\n        /* \"#utility.yul\":5043:5045   */\n      0x40\n        /* \"#utility.yul\":5038:5041   */\n      dup3\n        /* \"#utility.yul\":5034:5046   */\n      add\n        /* \"#utility.yul\":5027:5046   */\n      swap1\n      pop\n        /* \"#utility.yul\":4686:5052   */\n      swap2\n      swap1\n      pop\n      jump\t// out\n        /* \"#utility.yul\":5058:5424   */\n    tag_281:\n        /* \"#utility.yul\":5200:5203   */\n      0x00\n        /* \"#utility.yul\":5221:5288   */\n      tag_283\n        /* \"#utility.yul\":5285:5287   */\n      0x20\n        /* \"#utility.yul\":5280:5283   */\n      dup4\n        /* \"#utility.yul\":5221:5288   */\n      tag_246\n      jump\t// in\n    tag_283:\n        /* \"#utility.yul\":5214:5288   */\n      swap2\n      pop\n        /* \"#utility.yul\":5297:5390   */\n      tag_284\n        /* \"#utility.yul\":5386:5389   */\n      dup3\n        /* \"#utility.yul\":5297:5390   */\n      tag_285\n      jump\t// in\n    tag_284:\n        /* \"#utility.yul\":5415:5417   */\n      0x20\n        /* \"#utility.yul\":5410:5413   */\n      dup3\n        /* \"#utility.yul\":5406:5418   */\n      add\n        /* \"#utility.yul\":5399:5418   */\n      swap1\n      pop\n        /* \"#utility.yul\":5058:5424   */\n      swap2\n      swap1\n      pop\n      jump\t// out\n        /* \"#utility.yul\":5430:5796   */\n    tag_286:\n        /* \"#utility.yul\":5572:5575   */\n      0x00\n        /* \"#utility.yul\":5593:5660   */\n      tag_288\n        /* \"#utility.yul\":5657:5659   */\n      0x0a\n        /* \"#utility.yul\":5652:5655   */\n      dup4\n        /* \"#utility.yul\":5593:5660   */\n      tag_246\n      jump\t// in\n    tag_288:\n        /* \"#utility.yul\":5586:5660   */\n      swap2\n      pop\n        /* \"#utility.yul\":5669:5762   */\n      tag_289\n        /* \"#utility.yul\":5758:5761   */\n      dup3\n        /* \"#utility.yul\":5669:5762   */\n      tag_290\n      jump\t// in\n    tag_289:\n        /* \"#utility.yul\":5787:5789   */\n      0x20\n        /* \"#utility.yul\":5782:5785   */\n      dup3\n        /* \"#utility.yul\":5778:5790   */\n      add\n        /* \"#utility.yul\":5771:5790   */\n      swap1\n      pop\n        /* \"#utility.yul\":5430:5796   */\n      swap2\n      swap1\n      pop\n      jump\t// out\n        /* \"#utility.yul\":5802:6168   */\n    tag_291:\n        /* \"#utility.yul\":5944:5947   */\n      0x00\n        /* \"#utility.yul\":5965:6032   */\n      tag_293\n        /* \"#utility.yul\":6029:6031   */\n      0x25\n        /* \"#utility.yul\":6024:6027   */\n      dup4\n        /* \"#utility.yul\":5965:6032   */\n      tag_246\n      jump\t// in\n    tag_293:\n        /* \"#utility.yul\":5958:6032   */\n      swap2\n      pop\n        /* \"#utility.yul\":6041:6134   */\n      tag_294\n        /* \"#utility.yul\":6130:6133   */\n      dup3\n        /* \"#utility.yul\":6041:6134   */\n      tag_295\n      jump\t// in\n    tag_294:\n        /* \"#utility.yul\":6159:6161   */\n      0x40\n        /* \"#utility.yul\":6154:6157   */\n      dup3\n        /* \"#utility.yul\":6150:6162   */\n      add\n        /* \"#utility.yul\":6143:6162   */\n      swap1\n      pop\n        /* \"#utility.yul\":5802:6168   */\n      swap2\n      swap1\n      pop\n      jump\t// out\n        /* \"#utility.yul\":6174:6540   */\n    tag_296:\n        /* \"#utility.yul\":6316:6319   */\n      0x00\n        /* \"#utility.yul\":6337:6404   */\n      tag_298\n        /* \"#utility.yul\":6401:6403   */\n      0x24\n        /* \"#utility.yul\":6396:6399   */\n      dup4\n        /* \"#utility.yul\":6337:6404   */\n      tag_246\n      jump\t// in\n    tag_298:\n        /* \"#utility.yul\":6330:6404   */\n      swap2\n      pop\n        /* \"#utility.yul\":6413:6506   */\n      tag_299\n        /* \"#utility.yul\":6502:6505   */\n      dup3\n        /* \"#utility.yul\":6413:6506   */\n      tag_300\n      jump\t// in\n    tag_299:\n        /* \"#utility.yul\":6531:6533   */\n      0x40\n        /* \"#utility.yul\":6526:6529   */\n      dup3\n        /* \"#utility.yul\":6522:6534   */\n      add\n        /* \"#utility.yul\":6515:6534   */\n      swap1\n      pop\n        /* \"#utility.yul\":6174:6540   */\n      swap2\n      swap1\n      pop\n      jump\t// out\n        /* \"#utility.yul\":6546:6912   */\n    tag_301:\n        /* \"#utility.yul\":6688:6691   */\n      0x00\n        /* \"#utility.yul\":6709:6776   */\n      tag_303\n        /* \"#utility.yul\":6773:6775   */\n      0x1d\n        /* \"#utility.yul\":6768:6771   */\n      dup4\n        /* \"#utility.yul\":6709:6776   */\n      tag_246\n      jump\t// in\n    tag_303:\n        /* \"#utility.yul\":6702:6776   */\n      swap2\n      pop\n        /* \"#utility.yul\":6785:6878   */\n      tag_304\n        /* \"#utility.yul\":6874:6877   */\n      dup3\n        /* \"#utility.yul\":6785:6878   */\n      tag_305\n      jump\t// in\n    tag_304:\n        /* \"#utility.yul\":6903:6905   */\n      0x20\n        /* \"#utility.yul\":6898:6901   */\n      dup3\n        /* \"#utility.yul\":6894:6906   */\n      add\n        /* \"#utility.yul\":6887:6906   */\n      swap1\n      pop\n        /* \"#utility.yul\":6546:6912   */\n      swap2\n      swap1\n      pop\n      jump\t// out\n        /* \"#utility.yul\":6918:7284   */\n    tag_306:\n        /* \"#utility.yul\":7060:7063   */\n      0x00\n        /* \"#utility.yul\":7081:7148   */\n      tag_308\n        /* \"#utility.yul\":7145:7147   */\n      0x25\n        /* \"#utility.yul\":7140:7143   */\n      dup4\n        /* \"#utility.yul\":7081:7148   */\n      tag_246\n      jump\t// in\n    tag_308:\n        /* \"#utility.yul\":7074:7148   */\n      swap2\n      pop\n        /* \"#utility.yul\":7157:7250   */\n      tag_309\n        /* \"#utility.yul\":7246:7249   */\n      dup3\n        /* \"#utility.yul\":7157:7250   */\n      tag_310\n      jump\t// in\n    tag_309:\n        /* \"#utility.yul\":7275:7277   */\n      0x40\n        /* \"#utility.yul\":7270:7273   */\n      dup3\n        /* \"#utility.yul\":7266:7278   */\n      add\n        /* \"#utility.yul\":7259:7278   */\n      swap1\n      pop\n        /* \"#utility.yul\":6918:7284   */\n      swap2\n      swap1\n      pop\n      jump\t// out\n        /* \"#utility.yul\":7290:7408   */\n    tag_311:\n        /* \"#utility.yul\":7377:7401   */\n      tag_313\n        /* \"#utility.yul\":7395:7400   */\n      dup2\n        /* \"#utility.yul\":7377:7401   */\n      tag_314\n      jump\t// in\n    tag_313:\n        /* \"#utility.yul\":7372:7375   */\n      dup3\n        /* \"#utility.yul\":7365:7402   */\n      mstore\n        /* \"#utility.yul\":7290:7408   */\n      pop\n      pop\n      jump\t// out\n        /* \"#utility.yul\":7414:7526   */\n    tag_315:\n        /* \"#utility.yul\":7497:7519   */\n      tag_317\n        /* \"#utility.yul\":7513:7518   */\n      dup2\n        /* \"#utility.yul\":7497:7519   */\n      tag_318\n      jump\t// in\n    tag_317:\n        /* \"#utility.yul\":7492:7495   */\n      dup3\n        /* \"#utility.yul\":7485:7520   */\n      mstore\n        /* \"#utility.yul\":7414:7526   */\n      pop\n      pop\n      jump\t// out\n        /* \"#utility.yul\":7532:7754   */\n    tag_63:\n        /* \"#utility.yul\":7625:7629   */\n      0x00\n        /* \"#utility.yul\":7663:7665   */\n      0x20\n        /* \"#utility.yul\":7652:7661   */\n      dup3\n        /* \"#utility.yul\":7648:7666   */\n      add\n        /* \"#utility.yul\":7640:7666   */\n      swap1\n      pop\n        /* \"#utility.yul\":7676:7747   */\n      tag_320\n        /* \"#utility.yul\":7744:7745   */\n      0x00\n        /* \"#utility.yul\":7733:7742   */\n      dup4\n        /* \"#utility.yul\":7729:7746   */\n      add\n        /* \"#utility.yul\":7720:7726   */\n      dup5\n        /* \"#utility.yul\":7676:7747   */\n      tag_233\n      jump\t// in\n    tag_320:\n        /* \"#utility.yul\":7532:7754   */\n      swap3\n      swap2\n      pop\n      pop\n      jump\t// out\n        /* \"#utility.yul\":7760:7970   */\n    tag_32:\n        /* \"#utility.yul\":7847:7851   */\n      0x00\n        /* \"#utility.yul\":7885:7887   */\n      0x20\n        /* \"#utility.yul\":7874:7883   */\n      dup3\n        /* \"#utility.yul\":7870:7888   */\n      add\n        /* \"#utility.yul\":7862:7888   */\n      swap1\n      pop\n        /* \"#utility.yul\":7898:7963   */\n      tag_322\n        /* \"#utility.yul\":7960:7961   */\n      0x00\n        /* \"#utility.yul\":7949:7958   */\n      dup4\n        /* \"#utility.yul\":7945:7962   */\n      add\n        /* \"#utility.yul\":7936:7942   */\n      dup5\n        /* \"#utility.yul\":7898:7963   */\n      tag_237\n      jump\t// in\n    tag_322:\n        /* \"#utility.yul\":7760:7970   */\n      swap3\n      swap2\n      pop\n      pop\n      jump\t// out\n        /* \"#utility.yul\":7976:8289   */\n    tag_26:\n        /* \"#utility.yul\":8089:8093   */\n      0x00\n        /* \"#utility.yul\":8127:8129   */\n      0x20\n        /* \"#utility.yul\":8116:8125   */\n      dup3\n        /* \"#utility.yul\":8112:8130   */\n      add\n        /* \"#utility.yul\":8104:8130   */\n      swap1\n      pop\n        /* \"#utility.yul\":8176:8185   */\n      dup2\n        /* \"#utility.yul\":8170:8174   */\n      dup2\n        /* \"#utility.yul\":8166:8186   */\n      sub\n        /* \"#utility.yul\":8162:8163   */\n      0x00\n        /* \"#utility.yul\":8151:8160   */\n      dup4\n        /* \"#utility.yul\":8147:8164   */\n      add\n        /* \"#utility.yul\":8140:8187   */\n      mstore\n        /* \"#utility.yul\":8204:8282   */\n      tag_324\n        /* \"#utility.yul\":8277:8281   */\n      dup2\n        /* \"#utility.yul\":8268:8274   */\n      dup5\n        /* \"#utility.yul\":8204:8282   */\n      tag_241\n      jump\t// in\n    tag_324:\n        /* \"#utility.yul\":8196:8282   */\n      swap1\n      pop\n        /* \"#utility.yul\":7976:8289   */\n      swap3\n      swap2\n      pop\n      pop\n      jump\t// out\n        /* \"#utility.yul\":8295:8714   */\n    tag_181:\n        /* \"#utility.yul\":8461:8465   */\n      0x00\n        /* \"#utility.yul\":8499:8501   */\n      0x20\n        /* \"#utility.yul\":8488:8497   */\n      dup3\n        /* \"#utility.yul\":8484:8502   */\n      add\n        /* \"#utility.yul\":8476:8502   */\n      swap1\n      pop\n        /* \"#utility.yul\":8548:8557   */\n      dup2\n        /* \"#utility.yul\":8542:8546   */\n      dup2\n        /* \"#utility.yul\":8538:8558   */\n      sub\n        /* \"#utility.yul\":8534:8535   */\n      0x00\n        /* \"#utility.yul\":8523:8532   */\n      dup4\n        /* \"#utility.yul\":8519:8536   */\n      add\n        /* \"#utility.yul\":8512:8559   */\n      mstore\n        /* \"#utility.yul\":8576:8707   */\n      tag_326\n        /* \"#utility.yul\":8702:8706   */\n      dup2\n        /* \"#utility.yul\":8576:8707   */\n      tag_251\n      jump\t// in\n    tag_326:\n        /* \"#utility.yul\":8568:8707   */\n      swap1\n      pop\n        /* \"#utility.yul\":8295:8714   */\n      swap2\n      swap1\n      pop\n      jump\t// out\n        /* \"#utility.yul\":8720:9139   */\n    tag_157:\n        /* \"#utility.yul\":8886:8890   */\n      0x00\n        /* \"#utility.yul\":8924:8926   */\n      0x20\n        /* \"#utility.yul\":8913:8922   */\n      dup3\n        /* \"#utility.yul\":8909:8927   */\n      add\n        /* \"#utility.yul\":8901:8927   */\n      swap1\n      pop\n        /* \"#utility.yul\":8973:8982   */\n      dup2\n        /* \"#utility.yul\":8967:8971   */\n      dup2\n        /* \"#utility.yul\":8963:8983   */\n      sub\n        /* \"#utility.yul\":8959:8960   */\n      0x00\n        /* \"#utility.yul\":8948:8957   */\n      dup4\n        /* \"#utility.yul\":8944:8961   */\n      add\n        /* \"#utility.yul\":8937:8984   */\n      mstore\n        /* \"#utility.yul\":9001:9132   */\n      tag_328\n        /* \"#utility.yul\":9127:9131   */\n      dup2\n        /* \"#utility.yul\":9001:9132   */\n      tag_256\n      jump\t// in\n    tag_328:\n        /* \"#utility.yul\":8993:9132   */\n      swap1\n      pop\n        /* \"#utility.yul\":8720:9139   */\n      swap2\n      swap1\n      pop\n      jump\t// out\n        /* \"#utility.yul\":9145:9564   */\n    tag_166:\n        /* \"#utility.yul\":9311:9315   */\n      0x00\n        /* \"#utility.yul\":9349:9351   */\n      0x20\n        /* \"#utility.yul\":9338:9347   */\n      dup3\n        /* \"#utility.yul\":9334:9352   */\n      add\n        /* \"#utility.yul\":9326:9352   */\n      swap1\n      pop\n        /* \"#utility.yul\":9398:9407   */\n      dup2\n        /* \"#utility.yul\":9392:9396   */\n      dup2\n        /* \"#utility.yul\":9388:9408   */\n      sub\n        /* \"#utility.yul\":9384:9385   */\n      0x00\n        /* \"#utility.yul\":9373:9382   */\n      dup4\n        /* \"#utility.yul\":9369:9386   */\n      add\n        /* \"#utility.yul\":9362:9409   */\n      mstore\n        /* \"#utility.yul\":9426:9557   */\n      tag_330\n        /* \"#utility.yul\":9552:9556   */\n      dup2\n        /* \"#utility.yul\":9426:9557   */\n      tag_261\n      jump\t// in\n    tag_330:\n        /* \"#utility.yul\":9418:9557   */\n      swap1\n      pop\n        /* \"#utility.yul\":9145:9564   */\n      swap2\n      swap1\n      pop\n      jump\t// out\n        /* \"#utility.yul\":9570:9989   */\n    tag_142:\n        /* \"#utility.yul\":9736:9740   */\n      0x00\n        /* \"#utility.yul\":9774:9776   */\n      0x20\n        /* \"#utility.yul\":9763:9772   */\n      dup3\n        /* \"#utility.yul\":9759:9777   */\n      add\n        /* \"#utility.yul\":9751:9777   */\n      swap1\n      pop\n        /* \"#utility.yul\":9823:9832   */\n      dup2\n        /* \"#utility.yul\":9817:9821   */\n      dup2\n        /* \"#utility.yul\":9813:9833   */\n      sub\n        /* \"#utility.yul\":9809:9810   */\n      0x00\n        /* \"#utility.yul\":9798:9807   */\n      dup4\n        /* \"#utility.yul\":9794:9811   */\n      add\n        /* \"#utility.yul\":9787:9834   */\n      mstore\n        /* \"#utility.yul\":9851:9982   */\n      tag_332\n        /* \"#utility.yul\":9977:9981   */\n      dup2\n        /* \"#utility.yul\":9851:9982   */\n      tag_266\n      jump\t// in\n    tag_332:\n        /* \"#utility.yul\":9843:9982   */\n      swap1\n      pop\n        /* \"#utility.yul\":9570:9989   */\n      swap2\n      swap1\n      pop\n      jump\t// out\n        /* \"#utility.yul\":9995:10414   */\n    tag_173:\n        /* \"#utility.yul\":10161:10165   */\n      0x00\n        /* \"#utility.yul\":10199:10201   */\n      0x20\n        /* \"#utility.yul\":10188:10197   */\n      dup3\n        /* \"#utility.yul\":10184:10202   */\n      add\n        /* \"#utility.yul\":10176:10202   */\n      swap1\n      pop\n        /* \"#utility.yul\":10248:10257   */\n      dup2\n        /* \"#utility.yul\":10242:10246   */\n      dup2\n        /* \"#utility.yul\":10238:10258   */\n      sub\n        /* \"#utility.yul\":10234:10235   */\n      0x00\n        /* \"#utility.yul\":10223:10232   */\n      dup4\n        /* \"#utility.yul\":10219:10236   */\n      add\n        /* \"#utility.yul\":10212:10259   */\n      mstore\n        /* \"#utility.yul\":10276:10407   */\n      tag_334\n        /* \"#utility.yul\":10402:10406   */\n      dup2\n        /* \"#utility.yul\":10276:10407   */\n      tag_271\n      jump\t// in\n    tag_334:\n        /* \"#utility.yul\":10268:10407   */\n      swap1\n      pop\n        /* \"#utility.yul\":9995:10414   */\n      swap2\n      swap1\n      pop\n      jump\t// out\n        /* \"#utility.yul\":10420:10839   */\n    tag_186:\n        /* \"#utility.yul\":10586:10590   */\n      0x00\n        /* \"#utility.yul\":10624:10626   */\n      0x20\n        /* \"#utility.yul\":10613:10622   */\n      dup3\n        /* \"#utility.yul\":10609:10627   */\n      add\n        /* \"#utility.yul\":10601:10627   */\n      swap1\n      pop\n        /* \"#utility.yul\":10673:10682   */\n      dup2\n        /* \"#utility.yul\":10667:10671   */\n      dup2\n        /* \"#utility.yul\":10663:10683   */\n      sub\n        /* \"#utility.yul\":10659:10660   */\n      0x00\n        /* \"#utility.yul\":10648:10657   */\n      dup4\n        /* \"#utility.yul\":10644:10661   */\n      add\n        /* \"#utility.yul\":10637:10684   */\n      mstore\n        /* \"#utility.yul\":10701:10832   */\n      tag_336\n        /* \"#utility.yul\":10827:10831   */\n      dup2\n        /* \"#utility.yul\":10701:10832   */\n      tag_276\n      jump\t// in\n    tag_336:\n        /* \"#utility.yul\":10693:10832   */\n      swap1\n      pop\n        /* \"#utility.yul\":10420:10839   */\n      swap2\n      swap1\n      pop\n      jump\t// out\n        /* \"#utility.yul\":10845:11264   */\n    tag_196:\n        /* \"#utility.yul\":11011:11015   */\n      0x00\n        /* \"#utility.yul\":11049:11051   */\n      0x20\n        /* \"#utility.yul\":11038:11047   */\n      dup3\n        /* \"#utility.yul\":11034:11052   */\n      add\n        /* \"#utility.yul\":11026:11052   */\n      swap1\n      pop\n        /* \"#utility.yul\":11098:11107   */\n      dup2\n        /* \"#utility.yul\":11092:11096   */\n      dup2\n        /* \"#utility.yul\":11088:11108   */\n      sub\n        /* \"#utility.yul\":11084:11085   */\n      0x00\n        /* \"#utility.yul\":11073:11082   */\n      dup4\n        /* \"#utility.yul\":11069:11086   */\n      add\n        /* \"#utility.yul\":11062:11109   */\n      mstore\n        /* \"#utility.yul\":11126:11257   */\n      tag_338\n        /* \"#utility.yul\":11252:11256   */\n      dup2\n        /* \"#utility.yul\":11126:11257   */\n      tag_281\n      jump\t// in\n    tag_338:\n        /* \"#utility.yul\":11118:11257   */\n      swap1\n      pop\n        /* \"#utility.yul\":10845:11264   */\n      swap2\n      swap1\n      pop\n      jump\t// out\n        /* \"#utility.yul\":11270:11689   */\n    tag_148:\n        /* \"#utility.yul\":11436:11440   */\n      0x00\n        /* \"#utility.yul\":11474:11476   */\n      0x20\n        /* \"#utility.yul\":11463:11472   */\n      dup3\n        /* \"#utility.yul\":11459:11477   */\n      add\n        /* \"#utility.yul\":11451:11477   */\n      swap1\n      pop\n        /* \"#utility.yul\":11523:11532   */\n      dup2\n        /* \"#utility.yul\":11517:11521   */\n      dup2\n        /* \"#utility.yul\":11513:11533   */\n      sub\n        /* \"#utility.yul\":11509:11510   */\n      0x00\n        /* \"#utility.yul\":11498:11507   */\n      dup4\n        /* \"#utility.yul\":11494:11511   */\n      add\n        /* \"#utility.yul\":11487:11534   */\n      mstore\n        /* \"#utility.yul\":11551:11682   */\n      tag_340\n        /* \"#utility.yul\":11677:11681   */\n      dup2\n        /* \"#utility.yul\":11551:11682   */\n      tag_286\n      jump\t// in\n    tag_340:\n        /* \"#utility.yul\":11543:11682   */\n      swap1\n      pop\n        /* \"#utility.yul\":11270:11689   */\n      swap2\n      swap1\n      pop\n      jump\t// out\n        /* \"#utility.yul\":11695:12114   */\n    tag_178:\n        /* \"#utility.yul\":11861:11865   */\n      0x00\n        /* \"#utility.yul\":11899:11901   */\n      0x20\n        /* \"#utility.yul\":11888:11897   */\n      dup3\n        /* \"#utility.yul\":11884:11902   */\n      add\n        /* \"#utility.yul\":11876:11902   */\n      swap1\n      pop\n        /* \"#utility.yul\":11948:11957   */\n      dup2\n        /* \"#utility.yul\":11942:11946   */\n      dup2\n        /* \"#utility.yul\":11938:11958   */\n      sub\n        /* \"#utility.yul\":11934:11935   */\n      0x00\n        /* \"#utility.yul\":11923:11932   */\n      dup4\n        /* \"#utility.yul\":11919:11936   */\n      add\n        /* \"#utility.yul\":11912:11959   */\n      mstore\n        /* \"#utility.yul\":11976:12107   */\n      tag_342\n        /* \"#utility.yul\":12102:12106   */\n      dup2\n        /* \"#utility.yul\":11976:12107   */\n      tag_291\n      jump\t// in\n    tag_342:\n        /* \"#utility.yul\":11968:12107   */\n      swap1\n      pop\n        /* \"#utility.yul\":11695:12114   */\n      swap2\n      swap1\n      pop\n      jump\t// out\n        /* \"#utility.yul\":12120:12539   */\n    tag_163:\n        /* \"#utility.yul\":12286:12290   */\n      0x00\n        /* \"#utility.yul\":12324:12326   */\n      0x20\n        /* \"#utility.yul\":12313:12322   */\n      dup3\n        /* \"#utility.yul\":12309:12327   */\n      add\n        /* \"#utility.yul\":12301:12327   */\n      swap1\n      pop\n        /* \"#utility.yul\":12373:12382   */\n      dup2\n        /* \"#utility.yul\":12367:12371   */\n      dup2\n        /* \"#utility.yul\":12363:12383   */\n      sub\n        /* \"#utility.yul\":12359:12360   */\n      0x00\n        /* \"#utility.yul\":12348:12357   */\n      dup4\n        /* \"#utility.yul\":12344:12361   */\n      add\n        /* \"#utility.yul\":12337:12384   */\n      mstore\n        /* \"#utility.yul\":12401:12532   */\n      tag_344\n        /* \"#utility.yul\":12527:12531   */\n      dup2\n        /* \"#utility.yul\":12401:12532   */\n      tag_296\n      jump\t// in\n    tag_344:\n        /* \"#utility.yul\":12393:12532   */\n      swap1\n      pop\n        /* \"#utility.yul\":12120:12539   */\n      swap2\n      swap1\n      pop\n      jump\t// out\n        /* \"#utility.yul\":12545:12964   */\n    tag_145:\n        /* \"#utility.yul\":12711:12715   */\n      0x00\n        /* \"#utility.yul\":12749:12751   */\n      0x20\n        /* \"#utility.yul\":12738:12747   */\n      dup3\n        /* \"#utility.yul\":12734:12752   */\n      add\n        /* \"#utility.yul\":12726:12752   */\n      swap1\n      pop\n        /* \"#utility.yul\":12798:12807   */\n      dup2\n        /* \"#utility.yul\":12792:12796   */\n      dup2\n        /* \"#utility.yul\":12788:12808   */\n      sub\n        /* \"#utility.yul\":12784:12785   */\n      0x00\n        /* \"#utility.yul\":12773:12782   */\n      dup4\n        /* \"#utility.yul\":12769:12786   */\n      add\n        /* \"#utility.yul\":12762:12809   */\n      mstore\n        /* \"#utility.yul\":12826:12957   */\n      tag_346\n        /* \"#utility.yul\":12952:12956   */\n      dup2\n        /* \"#utility.yul\":12826:12957   */\n      tag_301\n      jump\t// in\n    tag_346:\n        /* \"#utility.yul\":12818:12957   */\n      swap1\n      pop\n        /* \"#utility.yul\":12545:12964   */\n      swap2\n      swap1\n      pop\n      jump\t// out\n        /* \"#utility.yul\":12970:13389   */\n    tag_137:\n        /* \"#utility.yul\":13136:13140   */\n      0x00\n        /* \"#utility.yul\":13174:13176   */\n      0x20\n        /* \"#utility.yul\":13163:13172   */\n      dup3\n        /* \"#utility.yul\":13159:13177   */\n      add\n        /* \"#utility.yul\":13151:13177   */\n      swap1\n      pop\n        /* \"#utility.yul\":13223:13232   */\n      dup2\n        /* \"#utility.yul\":13217:13221   */\n      dup2\n        /* \"#utility.yul\":13213:13233   */\n      sub\n        /* \"#utility.yul\":13209:13210   */\n      0x00\n        /* \"#utility.yul\":13198:13207   */\n      dup4\n        /* \"#utility.yul\":13194:13211   */\n      add\n        /* \"#utility.yul\":13187:13234   */\n      mstore\n        /* \"#utility.yul\":13251:13382   */\n      tag_348\n        /* \"#utility.yul\":13377:13381   */\n      dup2\n        /* \"#utility.yul\":13251:13382   */\n      tag_306\n      jump\t// in\n    tag_348:\n        /* \"#utility.yul\":13243:13382   */\n      swap1\n      pop\n        /* \"#utility.yul\":12970:13389   */\n      swap2\n      swap1\n      pop\n      jump\t// out\n        /* \"#utility.yul\":13395:13617   */\n    tag_36:\n        /* \"#utility.yul\":13488:13492   */\n      0x00\n        /* \"#utility.yul\":13526:13528   */\n      0x20\n        /* \"#utility.yul\":13515:13524   */\n      dup3\n        /* \"#utility.yul\":13511:13529   */\n      add\n        /* \"#utility.yul\":13503:13529   */\n      swap1\n      pop\n        /* \"#utility.yul\":13539:13610   */\n      tag_350\n        /* \"#utility.yul\":13607:13608   */\n      0x00\n        /* \"#utility.yul\":13596:13605   */\n      dup4\n        /* \"#utility.yul\":13592:13609   */\n      add\n        /* \"#utility.yul\":13583:13589   */\n      dup5\n        /* \"#utility.yul\":13539:13610   */\n      tag_311\n      jump\t// in\n    tag_350:\n        /* \"#utility.yul\":13395:13617   */\n      swap3\n      swap2\n      pop\n      pop\n      jump\t// out\n        /* \"#utility.yul\":13623:13837   */\n    tag_45:\n        /* \"#utility.yul\":13712:13716   */\n      0x00\n        /* \"#utility.yul\":13750:13752   */\n      0x20\n        /* \"#utility.yul\":13739:13748   */\n      dup3\n        /* \"#utility.yul\":13735:13753   */\n      add\n        /* \"#utility.yul\":13727:13753   */\n      swap1\n      pop\n        /* \"#utility.yul\":13763:13830   */\n      tag_352\n        /* \"#utility.yul\":13827:13828   */\n      0x00\n        /* \"#utility.yul\":13816:13825   */\n      dup4\n        /* \"#utility.yul\":13812:13829   */\n      add\n        /* \"#utility.yul\":13803:13809   */\n      dup5\n        /* \"#utility.yul\":13763:13830   */\n      tag_315\n      jump\t// in\n    tag_352:\n        /* \"#utility.yul\":13623:13837   */\n      swap3\n      swap2\n      pop\n      pop\n      jump\t// out\n        /* \"#utility.yul\":13924:14023   */\n    tag_244:\n        /* \"#utility.yul\":13976:13982   */\n      0x00\n        /* \"#utility.yul\":14010:14015   */\n      dup2\n        /* \"#utility.yul\":14004:14016   */\n      mload\n        /* \"#utility.yul\":13994:14016   */\n      swap1\n      pop\n        /* \"#utility.yul\":13924:14023   */\n      swap2\n      swap1\n      pop\n      jump\t// out\n        /* \"#utility.yul\":14029:14198   */\n    tag_246:\n        /* \"#utility.yul\":14113:14124   */\n      0x00\n        /* \"#utility.yul\":14147:14153   */\n      dup3\n        /* \"#utility.yul\":14142:14145   */\n      dup3\n        /* \"#utility.yul\":14135:14154   */\n      mstore\n        /* \"#utility.yul\":14187:14191   */\n      0x20\n        /* \"#utility.yul\":14182:14185   */\n      dup3\n        /* \"#utility.yul\":14178:14192   */\n      add\n        /* \"#utility.yul\":14163:14192   */\n      swap1\n      pop\n        /* \"#utility.yul\":14029:14198   */\n      swap3\n      swap2\n      pop\n      pop\n      jump\t// out\n        /* \"#utility.yul\":14204:14509   */\n    tag_114:\n        /* \"#utility.yul\":14244:14247   */\n      0x00\n        /* \"#utility.yul\":14263:14283   */\n      tag_358\n        /* \"#utility.yul\":14281:14282   */\n      dup3\n        /* \"#utility.yul\":14263:14283   */\n      tag_314\n      jump\t// in\n    tag_358:\n        /* \"#utility.yul\":14258:14283   */\n      swap2\n      pop\n        /* \"#utility.yul\":14297:14317   */\n      tag_359\n        /* \"#utility.yul\":14315:14316   */\n      dup4\n        /* \"#utility.yul\":14297:14317   */\n      tag_314\n      jump\t// in\n    tag_359:\n        /* \"#utility.yul\":14292:14317   */\n      swap3\n      pop\n        /* \"#utility.yul\":14451:14452   */\n      dup3\n        /* \"#utility.yul\":14383:14449   */\n      0xffffffffffffffffffffffffffffffffffffffffffffffffffffffffffffffff\n        /* \"#utility.yul\":14379:14453   */\n      sub\n        /* \"#utility.yul\":14376:14377   */\n      dup3\n        /* \"#utility.yul\":14373:14454   */\n      gt\n        /* \"#utility.yul\":14370:14477   */\n      iszero\n      tag_360\n      jumpi\n        /* \"#utility.yul\":14457:14475   */\n      tag_361\n      tag_362\n      jump\t// in\n    tag_361:\n        /* \"#utility.yul\":14370:14477   */\n    tag_360:\n        /* \"#utility.yul\":14501:14502   */\n      dup3\n        /* \"#utility.yul\":14498:14499   */\n      dup3\n        /* \"#utility.yul\":14494:14503   */\n      add\n        /* \"#utility.yul\":14487:14503   */\n      swap1\n      pop\n        /* \"#utility.yul\":14204:14509   */\n      swap3\n      swap2\n      pop\n      pop\n      jump\t// out\n        /* \"#utility.yul\":14515:14611   */\n    tag_236:\n        /* \"#utility.yul\":14552:14559   */\n      0x00\n        /* \"#utility.yul\":14581:14605   */\n      tag_364\n        /* \"#utility.yul\":14599:14604   */\n      dup3\n        /* \"#utility.yul\":14581:14605   */\n      tag_365\n      jump\t// in\n    tag_364:\n        /* \"#utility.yul\":14570:14605   */\n      swap1\n      pop\n        /* \"#utility.yul\":14515:14611   */\n      swap2\n      swap1\n      pop\n      jump\t// out\n        /* \"#utility.yul\":14617:14707   */\n    tag_240:\n        /* \"#utility.yul\":14651:14658   */\n      0x00\n        /* \"#utility.yul\":14694:14699   */\n      dup2\n        /* \"#utility.yul\":14687:14700   */\n      iszero\n        /* \"#utility.yul\":14680:14701   */\n      iszero\n        /* \"#utility.yul\":14669:14701   */\n      swap1\n      pop\n        /* \"#utility.yul\":14617:14707   */\n      swap2\n      swap1\n      pop\n      jump\t// out\n        /* \"#utility.yul\":14713:14839   */\n    tag_365:\n        /* \"#utility.yul\":14750:14757   */\n      0x00\n        /* \"#utility.yul\":14790:14832   */\n      0xffffffffffffffffffffffffffffffffffffffff\n        /* \"#utility.yul\":14783:14788   */\n      dup3\n        /* \"#utility.yul\":14779:14833   */\n      and\n        /* \"#utility.yul\":14768:14833   */\n      swap1\n      pop\n        /* \"#utility.yul\":14713:14839   */\n      swap2\n      swap1\n      pop\n      jump\t// out\n        /* \"#utility.yul\":14845:14922   */\n    tag_314:\n        /* \"#utility.yul\":14882:14889   */\n      0x00\n        /* \"#utility.yul\":14911:14916   */\n      dup2\n        /* \"#utility.yul\":14900:14916   */\n      swap1\n      pop\n        /* \"#utility.yul\":14845:14922   */\n      swap2\n      swap1\n      pop\n      jump\t// out\n        /* \"#utility.yul\":14928:15014   */\n    tag_318:\n        /* \"#utility.yul\":14963:14970   */\n      0x00\n        /* \"#utility.yul\":15003:15007   */\n      0xff\n        /* \"#utility.yul\":14996:15001   */\n      dup3\n        /* \"#utility.yul\":14992:15008   */\n      and\n        /* \"#utility.yul\":14981:15008   */\n      swap1\n      pop\n        /* \"#utility.yul\":14928:15014   */\n      swap2\n      swap1\n      pop\n      jump\t// out\n        /* \"#utility.yul\":15020:15327   */\n    tag_248:\n        /* \"#utility.yul\":15088:15089   */\n      0x00\n        /* \"#utility.yul\":15098:15211   */\n    tag_371:\n        /* \"#utility.yul\":15112:15118   */\n      dup4\n        /* \"#utility.yul\":15109:15110   */\n      dup2\n        /* \"#utility.yul\":15106:15119   */\n      lt\n        /* \"#utility.yul\":15098:15211   */\n      iszero\n      tag_373\n      jumpi\n        /* \"#utility.yul\":15197:15198   */\n      dup1\n        /* \"#utility.yul\":15192:15195   */\n      dup3\n        /* \"#utility.yul\":15188:15199   */\n      add\n        /* \"#utility.yul\":15182:15200   */\n      mload\n        /* \"#utility.yul\":15178:15179   */\n      dup2\n        /* \"#utility.yul\":15173:15176   */\n      dup5\n        /* \"#utility.yul\":15169:15180   */\n      add\n        /* \"#utility.yul\":15162:15201   */\n      mstore\n        /* \"#utility.yul\":15134:15136   */\n      0x20\n        /* \"#utility.yul\":15131:15132   */\n      dup2\n        /* \"#utility.yul\":15127:15137   */\n      add\n        /* \"#utility.yul\":15122:15137   */\n      swap1\n      pop\n        /* \"#utility.yul\":15098:15211   */\n      jump(tag_371)\n    tag_373:\n        /* \"#utility.yul\":15229:15235   */\n      dup4\n        /* \"#utility.yul\":15226:15227   */\n      dup2\n        /* \"#utility.yul\":15223:15236   */\n      gt\n        /* \"#utility.yul\":15220:15321   */\n      iszero\n      tag_374\n      jumpi\n        /* \"#utility.yul\":15309:15310   */\n      0x00\n        /* \"#utility.yul\":15300:15306   */\n      dup5\n        /* \"#utility.yul\":15295:15298   */\n      dup5\n        /* \"#utility.yul\":15291:15307   */\n      add\n        /* \"#utility.yul\":15284:15311   */\n      mstore\n        /* \"#utility.yul\":15220:15321   */\n    tag_374:\n        /* \"#utility.yul\":15069:15327   */\n      pop\n        /* \"#utility.yul\":15020:15327   */\n      pop\n      pop\n      pop\n      jump\t// out\n        /* \"#utility.yul\":15333:15653   */\n    tag_91:\n        /* \"#utility.yul\":15377:15383   */\n      0x00\n        /* \"#utility.yul\":15414:15415   */\n      0x02\n        /* \"#utility.yul\":15408:15412   */\n      dup3\n        /* \"#utility.yul\":15404:15416   */\n      div\n        /* \"#utility.yul\":15394:15416   */\n      swap1\n      pop\n        /* \"#utility.yul\":15461:15462   */\n      0x01\n        /* \"#utility.yul\":15455:15459   */\n      dup3\n        /* \"#utility.yul\":15451:15463   */\n      and\n        /* \"#utility.yul\":15482:15500   */\n      dup1\n        /* \"#utility.yul\":15472:15553   */\n      tag_376\n      jumpi\n        /* \"#utility.yul\":15538:15542   */\n      0x7f\n        /* \"#utility.yul\":15530:15536   */\n      dup3\n        /* \"#utility.yul\":15526:15543   */\n      and\n        /* \"#utility.yul\":15516:15543   */\n      swap2\n      pop\n        /* \"#utility.yul\":15472:15553   */\n    tag_376:\n        /* \"#utility.yul\":15600:15602   */\n      0x20\n        /* \"#utility.yul\":15592:15598   */\n      dup3\n        /* \"#utility.yul\":15589:15603   */\n      lt\n        /* \"#utility.yul\":15569:15587   */\n      dup2\n        /* \"#utility.yul\":15566:15604   */\n      eq\n        /* \"#utility.yul\":15563:15647   */\n      iszero\n      tag_377\n      jumpi\n        /* \"#utility.yul\":15619:15637   */\n      tag_378\n      tag_379\n      jump\t// in\n    tag_378:\n        /* \"#utility.yul\":15563:15647   */\n    tag_377:\n        /* \"#utility.yul\":15384:15653   */\n      pop\n        /* \"#utility.yul\":15333:15653   */\n      swap2\n      swap1\n      pop\n      jump\t// out\n        /* \"#utility.yul\":15659:15839   */\n    tag_362:\n        /* \"#utility.yul\":15707:15784   */\n      0x4e487b7100000000000000000000000000000000000000000000000000000000\n        /* \"#utility.yul\":15704:15705   */\n      0x00\n        /* \"#utility.yul\":15697:15785   */\n      mstore\n        /* \"#utility.yul\":15804:15808   */\n      0x11\n        /* \"#utility.yul\":15801:15802   */\n      0x04\n        /* \"#utility.yul\":15794:15809   */\n      mstore\n        /* \"#utility.yul\":15828:15832   */\n      0x24\n        /* \"#utility.yul\":15825:15826   */\n      0x00\n        /* \"#utility.yul\":15818:15833   */\n      revert\n        /* \"#utility.yul\":15845:16025   */\n    tag_379:\n        /* \"#utility.yul\":15893:15970   */\n      0x4e487b7100000000000000000000000000000000000000000000000000000000\n        /* \"#utility.yul\":15890:15891   */\n      0x00\n        /* \"#utility.yul\":15883:15971   */\n      mstore\n        /* \"#utility.yul\":15990:15994   */\n      0x22\n        /* \"#utility.yul\":15987:15988   */\n      0x04\n        /* \"#utility.yul\":15980:15995   */\n      mstore\n        /* \"#utility.yul\":16014:16018   */\n      0x24\n        /* \"#utility.yul\":16011:16012   */\n      0x00\n        /* \"#utility.yul\":16004:16019   */\n      revert\n        /* \"#utility.yul\":16154:16271   */\n    tag_215:\n        /* \"#utility.yul\":16263:16264   */\n      0x00\n        /* \"#utility.yul\":16260:16261   */\n      dup1\n        /* \"#utility.yul\":16253:16265   */\n      revert\n        /* \"#utility.yul\":16277:16379   */\n    tag_250:\n        /* \"#utility.yul\":16318:16324   */\n      0x00\n        /* \"#utility.yul\":16369:16371   */\n      0x1f\n        /* \"#utility.yul\":16365:16372   */\n      not\n        /* \"#utility.yul\":16360:16362   */\n      0x1f\n        /* \"#utility.yul\":16353:16358   */\n      dup4\n        /* \"#utility.yul\":16349:16363   */\n      add\n        /* \"#utility.yul\":16345:16373   */\n      and\n        /* \"#utility.yul\":16335:16373   */\n      swap1\n      pop\n        /* \"#utility.yul\":16277:16379   */\n      swap2\n      swap1\n      pop\n      jump\t// out\n        /* \"#utility.yul\":16385:16607   */\n    tag_255:\n        /* \"#utility.yul\":16525:16559   */\n      0x45524332303a207472616e7366657220746f20746865207a65726f2061646472\n        /* \"#utility.yul\":16521:16522   */\n      0x00\n        /* \"#utility.yul\":16513:16519   */\n      dup3\n        /* \"#utility.yul\":16509:16523   */\n      add\n        /* \"#utility.yul\":16502:16560   */\n      mstore\n        /* \"#utility.yul\":16594:16599   */\n      0x6573730000000000000000000000000000000000000000000000000000000000\n        /* \"#utility.yul\":16589:16591   */\n      0x20\n        /* \"#utility.yul\":16581:16587   */\n      dup3\n        /* \"#utility.yul\":16577:16592   */\n      add\n        /* \"#utility.yul\":16570:16600   */\n      mstore\n        /* \"#utility.yul\":16385:16607   */\n      pop\n      jump\t// out\n        /* \"#utility.yul\":16613:16838   */\n    tag_260:\n        /* \"#utility.yul\":16753:16787   */\n      0x4f776e61626c653a206e6577206f776e657220697320746865207a65726f2061\n        /* \"#utility.yul\":16749:16750   */\n      0x00\n        /* \"#utility.yul\":16741:16747   */\n      dup3\n        /* \"#utility.yul\":16737:16751   */\n      add\n        /* \"#utility.yul\":16730:16788   */\n      mstore\n        /* \"#utility.yul\":16822:16830   */\n      0x6464726573730000000000000000000000000000000000000000000000000000\n        /* \"#utility.yul\":16817:16819   */\n      0x20\n        /* \"#utility.yul\":16809:16815   */\n      dup3\n        /* \"#utility.yul\":16805:16820   */\n      add\n        /* \"#utility.yul\":16798:16831   */\n      mstore\n        /* \"#utility.yul\":16613:16838   */\n      pop\n      jump\t// out\n        /* \"#utility.yul\":16844:17065   */\n    tag_265:\n        /* \"#utility.yul\":16984:17018   */\n      0x45524332303a20617070726f766520746f20746865207a65726f206164647265\n        /* \"#utility.yul\":16980:16981   */\n      0x00\n        /* \"#utility.yul\":16972:16978   */\n      dup3\n        /* \"#utility.yul\":16968:16982   */\n      add\n        /* \"#utility.yul\":16961:17019   */\n      mstore\n        /* \"#utility.yul\":17053:17057   */\n      0x7373000000000000000000000000000000000000000000000000000000000000\n        /* \"#utility.yul\":17048:17050   */\n      0x20\n        /* \"#utility.yul\":17040:17046   */\n      dup3\n        /* \"#utility.yul\":17036:17051   */\n      add\n        /* \"#utility.yul\":17029:17058   */\n      mstore\n        /* \"#utility.yul\":16844:17065   */\n      pop\n      jump\t// out\n        /* \"#utility.yul\":17071:17241   */\n    tag_270:\n        /* \"#utility.yul\":17211:17233   */\n      0x5472616e7366657220776173204c6f636b656421000000000000000000000000\n        /* \"#utility.yul\":17207:17208   */\n      0x00\n        /* \"#utility.yul\":17199:17205   */\n      dup3\n        /* \"#utility.yul\":17195:17209   */\n      add\n        /* \"#utility.yul\":17188:17234   */\n      mstore\n        /* \"#utility.yul\":17071:17241   */\n      pop\n      jump\t// out\n        /* \"#utility.yul\":17247:17426   */\n    tag_275:\n        /* \"#utility.yul\":17387:17418   */\n      0x45524332303a20696e73756666696369656e7420616c6c6f77616e6365000000\n        /* \"#utility.yul\":17383:17384   */\n      0x00\n        /* \"#utility.yul\":17375:17381   */\n      dup3\n        /* \"#utility.yul\":17371:17385   */\n      add\n        /* \"#utility.yul\":17364:17419   */\n      mstore\n        /* \"#utility.yul\":17247:17426   */\n      pop\n      jump\t// out\n        /* \"#utility.yul\":17432:17657   */\n    tag_280:\n        /* \"#utility.yul\":17572:17606   */\n      0x45524332303a207472616e7366657220616d6f756e7420657863656564732062\n        /* \"#utility.yul\":17568:17569   */\n      0x00\n        /* \"#utility.yul\":17560:17566   */\n      dup3\n        /* \"#utility.yul\":17556:17570   */\n      add\n        /* \"#utility.yul\":17549:17607   */\n      mstore\n        /* \"#utility.yul\":17641:17649   */\n      0x616c616e63650000000000000000000000000000000000000000000000000000\n        /* \"#utility.yul\":17636:17638   */\n      0x20\n        /* \"#utility.yul\":17628:17634   */\n      dup3\n        /* \"#utility.yul\":17624:17639   */\n      add\n        /* \"#utility.yul\":17617:17650   */\n      mstore\n        /* \"#utility.yul\":17432:17657   */\n      pop\n      jump\t// out\n        /* \"#utility.yul\":17663:17845   */\n    tag_285:\n        /* \"#utility.yul\":17803:17837   */\n      0x4f776e61626c653a2063616c6c6572206973206e6f7420746865206f776e6572\n        /* \"#utility.yul\":17799:17800   */\n      0x00\n        /* \"#utility.yul\":17791:17797   */\n      dup3\n        /* \"#utility.yul\":17787:17801   */\n      add\n        /* \"#utility.yul\":17780:17838   */\n      mstore\n        /* \"#utility.yul\":17663:17845   */\n      pop\n      jump\t// out\n        /* \"#utility.yul\":17851:18011   */\n    tag_290:\n        /* \"#utility.yul\":17991:18003   */\n      0x54696d65204572726f7200000000000000000000000000000000000000000000\n        /* \"#utility.yul\":17987:17988   */\n      0x00\n        /* \"#utility.yul\":17979:17985   */\n      dup3\n        /* \"#utility.yul\":17975:17989   */\n      add\n        /* \"#utility.yul\":17968:18004   */\n      mstore\n        /* \"#utility.yul\":17851:18011   */\n      pop\n      jump\t// out\n        /* \"#utility.yul\":18017:18241   */\n    tag_295:\n        /* \"#utility.yul\":18157:18191   */\n      0x45524332303a207472616e736665722066726f6d20746865207a65726f206164\n        /* \"#utility.yul\":18153:18154   */\n      0x00\n        /* \"#utility.yul\":18145:18151   */\n      dup3\n        /* \"#utility.yul\":18141:18155   */\n      add\n        /* \"#utility.yul\":18134:18192   */\n      mstore\n        /* \"#utility.yul\":18226:18233   */\n      0x6472657373000000000000000000000000000000000000000000000000000000\n        /* \"#utility.yul\":18221:18223   */\n      0x20\n        /* \"#utility.yul\":18213:18219   */\n      dup3\n        /* \"#utility.yul\":18209:18224   */\n      add\n        /* \"#utility.yul\":18202:18234   */\n      mstore\n        /* \"#utility.yul\":18017:18241   */\n      pop\n      jump\t// out\n        /* \"#utility.yul\":18247:18470   */\n    tag_300:\n        /* \"#utility.yul\":18387:18421   */\n      0x45524332303a20617070726f76652066726f6d20746865207a65726f20616464\n        /* \"#utility.yul\":18383:18384   */\n      0x00\n        /* \"#utility.yul\":18375:18381   */\n      dup3\n        /* \"#utility.yul\":18371:18385   */\n      add\n        /* \"#utility.yul\":18364:18422   */\n      mstore\n        /* \"#utility.yul\":18456:18462   */\n      0x7265737300000000000000000000000000000000000000000000000000000000\n        /* \"#utility.yul\":18451:18453   */\n      0x20\n        /* \"#utility.yul\":18443:18449   */\n      dup3\n        /* \"#utility.yul\":18439:18454   */\n      add\n        /* \"#utility.yul\":18432:18463   */\n      mstore\n        /* \"#utility.yul\":18247:18470   */\n      pop\n      jump\t// out\n        /* \"#utility.yul\":18476:18655   */\n    tag_305:\n        /* \"#utility.yul\":18616:18647   */\n      0x54686973206163636f756e742063616e6e6f74207472616e7366657221000000\n        /* \"#utility.yul\":18612:18613   */\n      0x00\n        /* \"#utility.yul\":18604:18610   */\n      dup3\n        /* \"#utility.yul\":18600:18614   */\n      add\n        /* \"#utility.yul\":18593:18648   */\n      mstore\n        /* \"#utility.yul\":18476:18655   */\n      pop\n      jump\t// out\n        /* \"#utility.yul\":18661:18885   */\n    tag_310:\n        /* \"#utility.yul\":18801:18835   */\n      0x45524332303a2064656372656173656420616c6c6f77616e63652062656c6f77\n        /* \"#utility.yul\":18797:18798   */\n      0x00\n        /* \"#utility.yul\":18789:18795   */\n      dup3\n        /* \"#utility.yul\":18785:18799   */\n      add\n        /* \"#utility.yul\":18778:18836   */\n      mstore\n        /* \"#utility.yul\":18870:18877   */\n      0x207a65726f000000000000000000000000000000000000000000000000000000\n        /* \"#utility.yul\":18865:18867   */\n      0x20\n        /* \"#utility.yul\":18857:18863   */\n      dup3\n        /* \"#utility.yul\":18853:18868   */\n      add\n        /* \"#utility.yul\":18846:18878   */\n      mstore\n        /* \"#utility.yul\":18661:18885   */\n      pop\n      jump\t// out\n        /* \"#utility.yul\":18891:19013   */\n    tag_207:\n        /* \"#utility.yul\":18964:18988   */\n      tag_399\n        /* \"#utility.yul\":18982:18987   */\n      dup2\n        /* \"#utility.yul\":18964:18988   */\n      tag_236\n      jump\t// in\n    tag_399:\n        /* \"#utility.yul\":18957:18962   */\n      dup2\n        /* \"#utility.yul\":18954:18989   */\n      eq\n        /* \"#utility.yul\":18944:19007   */\n      tag_400\n      jumpi\n        /* \"#utility.yul\":19003:19004   */\n      0x00\n        /* \"#utility.yul\":19000:19001   */\n      dup1\n        /* \"#utility.yul\":18993:19005   */\n      revert\n        /* \"#utility.yul\":18944:19007   */\n    tag_400:\n        /* \"#utility.yul\":18891:19013   */\n      pop\n      jump\t// out\n        /* \"#utility.yul\":19019:19141   */\n    tag_211:\n        /* \"#utility.yul\":19092:19116   */\n      tag_402\n        /* \"#utility.yul\":19110:19115   */\n      dup2\n        /* \"#utility.yul\":19092:19116   */\n      tag_314\n      jump\t// in\n    tag_402:\n        /* \"#utility.yul\":19085:19090   */\n      dup2\n        /* \"#utility.yul\":19082:19117   */\n      eq\n        /* \"#utility.yul\":19072:19135   */\n      tag_403\n      jumpi\n        /* \"#utility.yul\":19131:19132   */\n      0x00\n        /* \"#utility.yul\":19128:19129   */\n      dup1\n        /* \"#utility.yul\":19121:19133   */\n      revert\n        /* \"#utility.yul\":19072:19135   */\n    tag_403:\n        /* \"#utility.yul\":19019:19141   */\n      pop\n      jump\t// out\n\n    auxdata: 0xa26469706673582212209b41cbc947622fe3dc9ba5b52f2b62f2a9ebb0b8e7281556fa4e0bad6628cbad64736f6c63430008070033\n}\n",
				"bytecode": {
					"linkReferences": {},
					"object": "60806040526000600560146101000a81548160ff021916908315150217905550603c426200002e9190620004d5565b6006553480156200003e57600080fd5b506040518060400160405280600981526020017f57755875654368756e00000000000000000000000000000000000000000000008152506040518060400160405280600381526020017f57584300000000000000000000000000000000000000000000000000000000008152508160039080519060200190620000c39291906200039d565b508060049080519060200190620000dc9291906200039d565b505050620000ff620000f36200014360201b60201c565b6200014b60201b60201c565b6200013d33620001146200021160201b60201c565b600a6200012291906200058d565b612710620001319190620006ca565b6200021a60201b60201c565b6200080c565b600033905090565b6000600560009054906101000a900473ffffffffffffffffffffffffffffffffffffffff16905081600560006101000a81548173ffffffffffffffffffffffffffffffffffffffff021916908373ffffffffffffffffffffffffffffffffffffffff1602179055508173ffffffffffffffffffffffffffffffffffffffff168173ffffffffffffffffffffffffffffffffffffffff167f8be0079c531659141344cd1fd0a4f28419497f9722a3daafe3b4186f6b6457e060405160405180910390a35050565b60006012905090565b600073ffffffffffffffffffffffffffffffffffffffff168273ffffffffffffffffffffffffffffffffffffffff1614156200028d576040517f08c379a0000000000000000000000000000000000000000000000000000000008152600401620002849062000485565b60405180910390fd5b620002a1600083836200039360201b60201c565b8060026000828254620002b59190620004d5565b92505081905550806000808473ffffffffffffffffffffffffffffffffffffffff1673ffffffffffffffffffffffffffffffffffffffff16815260200190815260200160002060008282546200030c9190620004d5565b925050819055508173ffffffffffffffffffffffffffffffffffffffff16600073ffffffffffffffffffffffffffffffffffffffff167fddf252ad1be2c89b69c2b068fc378daa952ba7f163c4a11628f55a4df523b3ef83604051620003739190620004a7565b60405180910390a36200038f600083836200039860201b60201c565b5050565b505050565b505050565b828054620003ab9062000742565b90600052602060002090601f016020900481019282620003cf57600085556200041b565b82601f10620003ea57805160ff19168380011785556200041b565b828001600101855582156200041b579182015b828111156200041a578251825591602001919060010190620003fd565b5b5090506200042a91906200042e565b5090565b5b80821115620004495760008160009055506001016200042f565b5090565b60006200045c601f83620004c4565b91506200046982620007e3565b602082019050919050565b6200047f816200072b565b82525050565b60006020820190508181036000830152620004a0816200044d565b9050919050565b6000602082019050620004be600083018462000474565b92915050565b600082825260208201905092915050565b6000620004e2826200072b565b9150620004ef836200072b565b9250827fffffffffffffffffffffffffffffffffffffffffffffffffffffffffffffffff0382111562000527576200052662000778565b5b828201905092915050565b6000808291508390505b600185111562000584578086048111156200055c576200055b62000778565b5b60018516156200056c5780820291505b80810290506200057c85620007d6565b94506200053c565b94509492505050565b60006200059a826200072b565b9150620005a78362000735565b9250620005d67fffffffffffffffffffffffffffffffffffffffffffffffffffffffffffffffff8484620005de565b905092915050565b600082620005f05760019050620006c3565b81620006005760009050620006c3565b816001811462000619576002811462000624576200065a565b6001915050620006c3565b60ff84111562000639576200063862000778565b5b8360020a91508482111562000653576200065262000778565b5b50620006c3565b5060208310610133831016604e8410600b8410161715620006945782820a9050838111156200068e576200068d62000778565b5b620006c3565b620006a3848484600162000532565b92509050818404811115620006bd57620006bc62000778565b5b81810290505b9392505050565b6000620006d7826200072b565b9150620006e4836200072b565b9250817fffffffffffffffffffffffffffffffffffffffffffffffffffffffffffffffff048311821515161562000720576200071f62000778565b5b828202905092915050565b6000819050919050565b600060ff82169050919050565b600060028204905060018216806200075b57607f821691505b60208210811415620007725762000771620007a7565b5b50919050565b7f4e487b7100000000000000000000000000000000000000000000000000000000600052601160045260246000fd5b7f4e487b7100000000000000000000000000000000000000000000000000000000600052602260045260246000fd5b60008160011c9050919050565b7f45524332303a206d696e7420746f20746865207a65726f206164647265737300600082015250565b61194a806200081c6000396000f3fe608060405234801561001057600080fd5b506004361061010b5760003560e01c80637aba6f37116100a2578063a4e2d63411610071578063a4e2d634146102be578063a9059cbb146102dc578063d085835a1461030c578063dd62ed3e1461032a578063f2fde38b1461035a5761010b565b80637aba6f37146102345780638da5cb5b1461025257806395d89b4114610270578063a457c2d71461028e5761010b565b8063313ce567116100de578063313ce567146101ac57806339509351146101ca57806370a08231146101fa578063715018a61461022a5761010b565b806306fdde0314610110578063095ea7b31461012e57806318160ddd1461015e57806323b872dd1461017c575b600080fd5b610118610376565b6040516101259190611278565b60405180910390f35b61014860048036038101906101439190610fe9565b610408565b604051610155919061125d565b60405180910390f35b61016661042b565b604051610173919061141a565b60405180910390f35b61019660048036038101906101919190610f96565b610435565b6040516101a3919061125d565b60405180910390f35b6101b4610464565b6040516101c19190611435565b60405180910390f35b6101e460048036038101906101df9190610fe9565b61046d565b6040516101f1919061125d565b60405180910390f35b610214600480360381019061020f9190610f29565b6104a4565b604051610221919061141a565b60405180910390f35b6102326104ec565b005b61023c610500565b604051610249919061125d565b60405180910390f35b61025a61052c565b6040516102679190611242565b60405180910390f35b610278610556565b6040516102859190611278565b60405180910390f35b6102a860048036038101906102a39190610fe9565b6105e8565b6040516102b5919061125d565b60405180910390f35b6102c661065f565b6040516102d3919061125d565b60405180910390f35b6102f660048036038101906102f19190610fe9565b610672565b604051610303919061125d565b60405180910390f35b61031461079d565b604051610321919061141a565b60405180910390f35b610344600480360381019061033f9190610f56565b6107a3565b604051610351919061141a565b60405180910390f35b610374600480360381019061036f9190610f29565b61082a565b005b6060600380546103859061154a565b80601f01602080910402602001604051908101604052809291908181526020018280546103b19061154a565b80156103fe5780601f106103d3576101008083540402835291602001916103fe565b820191906000526020600020905b8154815290600101906020018083116103e157829003601f168201915b5050505050905090565b6000806104136108ae565b90506104208185856108b6565b600191505092915050565b6000600254905090565b6000806104406108ae565b905061044d858285610a81565b610458858585610b0d565b60019150509392505050565b60006012905090565b6000806104786108ae565b905061049981858561048a85896107a3565b610494919061146c565b6108b6565b600191505092915050565b60008060008373ffffffffffffffffffffffffffffffffffffffff1673ffffffffffffffffffffffffffffffffffffffff168152602001908152602001600020549050919050565b6104f4610d8e565b6104fe6000610e0c565b565b600061050a610d8e565b6001600560146101000a81548160ff0219169083151502179055506001905090565b6000600560009054906101000a900473ffffffffffffffffffffffffffffffffffffffff16905090565b6060600480546105659061154a565b80601f01602080910402602001604051908101604052809291908181526020018280546105919061154a565b80156105de5780601f106105b3576101008083540402835291602001916105de565b820191906000526020600020905b8154815290600101906020018083116105c157829003601f168201915b5050505050905090565b6000806105f36108ae565b9050600061060182866107a3565b905083811015610646576040517f08c379a000000000000000000000000000000000000000000000000000000000815260040161063d906113fa565b60405180910390fd5b61065382868684036108b6565b60019250505092915050565b600560149054906101000a900460ff1681565b6000600560149054906101000a900460ff16156106c4576040517f08c379a00000000000000000000000000000000000000000000000000000000081526004016106bb906112fa565b60405180910390fd5b73ab8483f64d9c6d1ecf9b849ae677dd3315835cb273ffffffffffffffffffffffffffffffffffffffff163373ffffffffffffffffffffffffffffffffffffffff161415610747576040517f08c379a000000000000000000000000000000000000000000000000000000000815260040161073e906113da565b60405180910390fd5b600654421161078b576040517f08c379a00000000000000000000000000000000000000000000000000000000081526004016107829061137a565b60405180910390fd5b6107958383610ed2565b905092915050565b60065481565b6000600160008473ffffffffffffffffffffffffffffffffffffffff1673ffffffffffffffffffffffffffffffffffffffff16815260200190815260200160002060008373ffffffffffffffffffffffffffffffffffffffff1673ffffffffffffffffffffffffffffffffffffffff16815260200190815260200160002054905092915050565b610832610d8e565b600073ffffffffffffffffffffffffffffffffffffffff168173ffffffffffffffffffffffffffffffffffffffff1614156108a2576040517f08c379a0000000000000000000000000000000000000000000000000000000008152600401610899906112ba565b60405180910390fd5b6108ab81610e0c565b50565b600033905090565b600073ffffffffffffffffffffffffffffffffffffffff168373ffffffffffffffffffffffffffffffffffffffff161415610926576040517f08c379a000000000000000000000000000000000000000000000000000000000815260040161091d906113ba565b60405180910390fd5b600073ffffffffffffffffffffffffffffffffffffffff168273ffffffffffffffffffffffffffffffffffffffff161415610996576040517f08c379a000000000000000000000000000000000000000000000000000000000815260040161098d906112da565b60405180910390fd5b80600160008573ffffffffffffffffffffffffffffffffffffffff1673ffffffffffffffffffffffffffffffffffffffff16815260200190815260200160002060008473ffffffffffffffffffffffffffffffffffffffff1673ffffffffffffffffffffffffffffffffffffffff168152602001908152602001600020819055508173ffffffffffffffffffffffffffffffffffffffff168373ffffffffffffffffffffffffffffffffffffffff167f8c5be1e5ebec7d5bd14f71427d1e84f3dd0314c0f7b2291e5b200ac8c7c3b92583604051610a74919061141a565b60405180910390a3505050565b6000610a8d84846107a3565b90507fffffffffffffffffffffffffffffffffffffffffffffffffffffffffffffffff8114610b075781811015610af9576040517f08c379a0000000000000000000000000000000000000000000000000000000008152600401610af09061131a565b60405180910390fd5b610b0684848484036108b6565b5b50505050565b600073ffffffffffffffffffffffffffffffffffffffff168373ffffffffffffffffffffffffffffffffffffffff161415610b7d576040517f08c379a0000000000000000000000000000000000000000000000000000000008152600401610b749061139a565b60405180910390fd5b600073ffffffffffffffffffffffffffffffffffffffff168273ffffffffffffffffffffffffffffffffffffffff161415610bed576040517f08c379a0000000000000000000000000000000000000000000000000000000008152600401610be49061129a565b60405180910390fd5b610bf8838383610ef5565b60008060008573ffffffffffffffffffffffffffffffffffffffff1673ffffffffffffffffffffffffffffffffffffffff16815260200190815260200160002054905081811015610c7e576040517f08c379a0000000000000000000000000000000000000000000000000000000008152600401610c759061133a565b60405180910390fd5b8181036000808673ffffffffffffffffffffffffffffffffffffffff1673ffffffffffffffffffffffffffffffffffffffff16815260200190815260200160002081905550816000808573ffffffffffffffffffffffffffffffffffffffff1673ffffffffffffffffffffffffffffffffffffffff1681526020019081526020016000206000828254610d11919061146c565b925050819055508273ffffffffffffffffffffffffffffffffffffffff168473ffffffffffffffffffffffffffffffffffffffff167fddf252ad1be2c89b69c2b068fc378daa952ba7f163c4a11628f55a4df523b3ef84604051610d75919061141a565b60405180910390a3610d88848484610efa565b50505050565b610d966108ae565b73ffffffffffffffffffffffffffffffffffffffff16610db461052c565b73ffffffffffffffffffffffffffffffffffffffff1614610e0a576040517f08c379a0000000000000000000000000000000000000000000000000000000008152600401610e019061135a565b60405180910390fd5b565b6000600560009054906101000a900473ffffffffffffffffffffffffffffffffffffffff16905081600560006101000a81548173ffffffffffffffffffffffffffffffffffffffff021916908373ffffffffffffffffffffffffffffffffffffffff1602179055508173ffffffffffffffffffffffffffffffffffffffff168173ffffffffffffffffffffffffffffffffffffffff167f8be0079c531659141344cd1fd0a4f28419497f9722a3daafe3b4186f6b6457e060405160405180910390a35050565b600080610edd6108ae565b9050610eea818585610b0d565b600191505092915050565b505050565b505050565b600081359050610f0e816118e6565b92915050565b600081359050610f23816118fd565b92915050565b600060208284031215610f3f57610f3e6115da565b5b6000610f4d84828501610eff565b91505092915050565b60008060408385031215610f6d57610f6c6115da565b5b6000610f7b85828601610eff565b9250506020610f8c85828601610eff565b9150509250929050565b600080600060608486031215610faf57610fae6115da565b5b6000610fbd86828701610eff565b9350506020610fce86828701610eff565b9250506040610fdf86828701610f14565b9150509250925092565b6000806040838503121561100057610fff6115da565b5b600061100e85828601610eff565b925050602061101f85828601610f14565b9150509250929050565b611032816114c2565b82525050565b611041816114d4565b82525050565b600061105282611450565b61105c818561145b565b935061106c818560208601611517565b611075816115df565b840191505092915050565b600061108d60238361145b565b9150611098826115f0565b604082019050919050565b60006110b060268361145b565b91506110bb8261163f565b604082019050919050565b60006110d360228361145b565b91506110de8261168e565b604082019050919050565b60006110f660148361145b565b9150611101826116dd565b602082019050919050565b6000611119601d8361145b565b915061112482611706565b602082019050919050565b600061113c60268361145b565b91506111478261172f565b604082019050919050565b600061115f60208361145b565b915061116a8261177e565b602082019050919050565b6000611182600a8361145b565b915061118d826117a7565b602082019050919050565b60006111a560258361145b565b91506111b0826117d0565b604082019050919050565b60006111c860248361145b565b91506111d38261181f565b604082019050919050565b60006111eb601d8361145b565b91506111f68261186e565b602082019050919050565b600061120e60258361145b565b915061121982611897565b604082019050919050565b61122d81611500565b82525050565b61123c8161150a565b82525050565b60006020820190506112576000830184611029565b92915050565b60006020820190506112726000830184611038565b92915050565b600060208201905081810360008301526112928184611047565b905092915050565b600060208201905081810360008301526112b381611080565b9050919050565b600060208201905081810360008301526112d3816110a3565b9050919050565b600060208201905081810360008301526112f3816110c6565b9050919050565b60006020820190508181036000830152611313816110e9565b9050919050565b600060208201905081810360008301526113338161110c565b9050919050565b600060208201905081810360008301526113538161112f565b9050919050565b6000602082019050818103600083015261137381611152565b9050919050565b6000602082019050818103600083015261139381611175565b9050919050565b600060208201905081810360008301526113b381611198565b9050919050565b600060208201905081810360008301526113d3816111bb565b9050919050565b600060208201905081810360008301526113f3816111de565b9050919050565b6000602082019050818103600083015261141381611201565b9050919050565b600060208201905061142f6000830184611224565b92915050565b600060208201905061144a6000830184611233565b92915050565b600081519050919050565b600082825260208201905092915050565b600061147782611500565b915061148283611500565b9250827fffffffffffffffffffffffffffffffffffffffffffffffffffffffffffffffff038211156114b7576114b661157c565b5b828201905092915050565b60006114cd826114e0565b9050919050565b60008115159050919050565b600073ffffffffffffffffffffffffffffffffffffffff82169050919050565b6000819050919050565b600060ff82169050919050565b60005b8381101561153557808201518184015260208101905061151a565b83811115611544576000848401525b50505050565b6000600282049050600182168061156257607f821691505b60208210811415611576576115756115ab565b5b50919050565b7f4e487b7100000000000000000000000000000000000000000000000000000000600052601160045260246000fd5b7f4e487b7100000000000000000000000000000000000000000000000000000000600052602260045260246000fd5b600080fd5b6000601f19601f8301169050919050565b7f45524332303a207472616e7366657220746f20746865207a65726f206164647260008201527f6573730000000000000000000000000000000000000000000000000000000000602082015250565b7f4f776e61626c653a206e6577206f776e657220697320746865207a65726f206160008201527f6464726573730000000000000000000000000000000000000000000000000000602082015250565b7f45524332303a20617070726f766520746f20746865207a65726f20616464726560008201527f7373000000000000000000000000000000000000000000000000000000000000602082015250565b7f5472616e7366657220776173204c6f636b656421000000000000000000000000600082015250565b7f45524332303a20696e73756666696369656e7420616c6c6f77616e6365000000600082015250565b7f45524332303a207472616e7366657220616d6f756e742065786365656473206260008201527f616c616e63650000000000000000000000000000000000000000000000000000602082015250565b7f4f776e61626c653a2063616c6c6572206973206e6f7420746865206f776e6572600082015250565b7f54696d65204572726f7200000000000000000000000000000000000000000000600082015250565b7f45524332303a207472616e736665722066726f6d20746865207a65726f20616460008201527f6472657373000000000000000000000000000000000000000000000000000000602082015250565b7f45524332303a20617070726f76652066726f6d20746865207a65726f2061646460008201527f7265737300000000000000000000000000000000000000000000000000000000602082015250565b7f54686973206163636f756e742063616e6e6f74207472616e7366657221000000600082015250565b7f45524332303a2064656372656173656420616c6c6f77616e63652062656c6f7760008201527f207a65726f000000000000000000000000000000000000000000000000000000602082015250565b6118ef816114c2565b81146118fa57600080fd5b50565b61190681611500565b811461191157600080fd5b5056fea26469706673582212209b41cbc947622fe3dc9ba5b52f2b62f2a9ebb0b8e7281556fa4e0bad6628cbad64736f6c63430008070033",
					"opcodes": "PUSH1 0x80 PUSH1 0x40 MSTORE PUSH1 0x0 PUSH1 0x5 PUSH1 0x14 PUSH2 0x100 EXP DUP2 SLOAD DUP2 PUSH1 0xFF MUL NOT AND SWAP1 DUP4 ISZERO ISZERO MUL OR SWAP1 SSTORE POP PUSH1 0x3C TIMESTAMP PUSH3 0x2E SWAP2 SWAP1 PUSH3 0x4D5 JUMP JUMPDEST PUSH1 0x6 SSTORE CALLVALUE DUP1 ISZERO PUSH3 0x3E JUMPI PUSH1 0x0 DUP1 REVERT JUMPDEST POP PUSH1 0x40 MLOAD DUP1 PUSH1 0x40 ADD PUSH1 0x40 MSTORE DUP1 PUSH1 0x9 DUP2 MSTORE PUSH1 0x20 ADD PUSH32 0x57755875654368756E0000000000000000000000000000000000000000000000 DUP2 MSTORE POP PUSH1 0x40 MLOAD DUP1 PUSH1 0x40 ADD PUSH1 0x40 MSTORE DUP1 PUSH1 0x3 DUP2 MSTORE PUSH1 0x20 ADD PUSH32 0x5758430000000000000000000000000000000000000000000000000000000000 DUP2 MSTORE POP DUP2 PUSH1 0x3 SWAP1 DUP1 MLOAD SWAP1 PUSH1 0x20 ADD SWAP1 PUSH3 0xC3 SWAP3 SWAP2 SWAP1 PUSH3 0x39D JUMP JUMPDEST POP DUP1 PUSH1 0x4 SWAP1 DUP1 MLOAD SWAP1 PUSH1 0x20 ADD SWAP1 PUSH3 0xDC SWAP3 SWAP2 SWAP1 PUSH3 0x39D JUMP JUMPDEST POP POP POP PUSH3 0xFF PUSH3 0xF3 PUSH3 0x143 PUSH1 0x20 SHL PUSH1 0x20 SHR JUMP JUMPDEST PUSH3 0x14B PUSH1 0x20 SHL PUSH1 0x20 SHR JUMP JUMPDEST PUSH3 0x13D CALLER PUSH3 0x114 PUSH3 0x211 PUSH1 0x20 SHL PUSH1 0x20 SHR JUMP JUMPDEST PUSH1 0xA PUSH3 0x122 SWAP2 SWAP1 PUSH3 0x58D JUMP JUMPDEST PUSH2 0x2710 PUSH3 0x131 SWAP2 SWAP1 PUSH3 0x6CA JUMP JUMPDEST PUSH3 0x21A PUSH1 0x20 SHL PUSH1 0x20 SHR JUMP JUMPDEST PUSH3 0x80C JUMP JUMPDEST PUSH1 0x0 CALLER SWAP1 POP SWAP1 JUMP JUMPDEST PUSH1 0x0 PUSH1 0x5 PUSH1 0x0 SWAP1 SLOAD SWAP1 PUSH2 0x100 EXP SWAP1 DIV PUSH20 0xFFFFFFFFFFFFFFFFFFFFFFFFFFFFFFFFFFFFFFFF AND SWAP1 POP DUP2 PUSH1 0x5 PUSH1 0x0 PUSH2 0x100 EXP DUP2 SLOAD DUP2 PUSH20 0xFFFFFFFFFFFFFFFFFFFFFFFFFFFFFFFFFFFFFFFF MUL NOT AND SWAP1 DUP4 PUSH20 0xFFFFFFFFFFFFFFFFFFFFFFFFFFFFFFFFFFFFFFFF AND MUL OR SWAP1 SSTORE POP DUP2 PUSH20 0xFFFFFFFFFFFFFFFFFFFFFFFFFFFFFFFFFFFFFFFF AND DUP2 PUSH20 0xFFFFFFFFFFFFFFFFFFFFFFFFFFFFFFFFFFFFFFFF AND PUSH32 0x8BE0079C531659141344CD1FD0A4F28419497F9722A3DAAFE3B4186F6B6457E0 PUSH1 0x40 MLOAD PUSH1 0x40 MLOAD DUP1 SWAP2 SUB SWAP1 LOG3 POP POP JUMP JUMPDEST PUSH1 0x0 PUSH1 0x12 SWAP1 POP SWAP1 JUMP JUMPDEST PUSH1 0x0 PUSH20 0xFFFFFFFFFFFFFFFFFFFFFFFFFFFFFFFFFFFFFFFF AND DUP3 PUSH20 0xFFFFFFFFFFFFFFFFFFFFFFFFFFFFFFFFFFFFFFFF AND EQ ISZERO PUSH3 0x28D JUMPI PUSH1 0x40 MLOAD PUSH32 0x8C379A000000000000000000000000000000000000000000000000000000000 DUP2 MSTORE PUSH1 0x4 ADD PUSH3 0x284 SWAP1 PUSH3 0x485 JUMP JUMPDEST PUSH1 0x40 MLOAD DUP1 SWAP2 SUB SWAP1 REVERT JUMPDEST PUSH3 0x2A1 PUSH1 0x0 DUP4 DUP4 PUSH3 0x393 PUSH1 0x20 SHL PUSH1 0x20 SHR JUMP JUMPDEST DUP1 PUSH1 0x2 PUSH1 0x0 DUP3 DUP3 SLOAD PUSH3 0x2B5 SWAP2 SWAP1 PUSH3 0x4D5 JUMP JUMPDEST SWAP3 POP POP DUP2 SWAP1 SSTORE POP DUP1 PUSH1 0x0 DUP1 DUP5 PUSH20 0xFFFFFFFFFFFFFFFFFFFFFFFFFFFFFFFFFFFFFFFF AND PUSH20 0xFFFFFFFFFFFFFFFFFFFFFFFFFFFFFFFFFFFFFFFF AND DUP2 MSTORE PUSH1 0x20 ADD SWAP1 DUP2 MSTORE PUSH1 0x20 ADD PUSH1 0x0 KECCAK256 PUSH1 0x0 DUP3 DUP3 SLOAD PUSH3 0x30C SWAP2 SWAP1 PUSH3 0x4D5 JUMP JUMPDEST SWAP3 POP POP DUP2 SWAP1 SSTORE POP DUP2 PUSH20 0xFFFFFFFFFFFFFFFFFFFFFFFFFFFFFFFFFFFFFFFF AND PUSH1 0x0 PUSH20 0xFFFFFFFFFFFFFFFFFFFFFFFFFFFFFFFFFFFFFFFF AND PUSH32 0xDDF252AD1BE2C89B69C2B068FC378DAA952BA7F163C4A11628F55A4DF523B3EF DUP4 PUSH1 0x40 MLOAD PUSH3 0x373 SWAP2 SWAP1 PUSH3 0x4A7 JUMP JUMPDEST PUSH1 0x40 MLOAD DUP1 SWAP2 SUB SWAP1 LOG3 PUSH3 0x38F PUSH1 0x0 DUP4 DUP4 PUSH3 0x398 PUSH1 0x20 SHL PUSH1 0x20 SHR JUMP JUMPDEST POP POP JUMP JUMPDEST POP POP POP JUMP JUMPDEST POP POP POP JUMP JUMPDEST DUP3 DUP1 SLOAD PUSH3 0x3AB SWAP1 PUSH3 0x742 JUMP JUMPDEST SWAP1 PUSH1 0x0 MSTORE PUSH1 0x20 PUSH1 0x0 KECCAK256 SWAP1 PUSH1 0x1F ADD PUSH1 0x20 SWAP1 DIV DUP2 ADD SWAP3 DUP3 PUSH3 0x3CF JUMPI PUSH1 0x0 DUP6 SSTORE PUSH3 0x41B JUMP JUMPDEST DUP3 PUSH1 0x1F LT PUSH3 0x3EA JUMPI DUP1 MLOAD PUSH1 0xFF NOT AND DUP4 DUP1 ADD OR DUP6 SSTORE PUSH3 0x41B JUMP JUMPDEST DUP3 DUP1 ADD PUSH1 0x1 ADD DUP6 SSTORE DUP3 ISZERO PUSH3 0x41B JUMPI SWAP2 DUP3 ADD JUMPDEST DUP3 DUP2 GT ISZERO PUSH3 0x41A JUMPI DUP3 MLOAD DUP3 SSTORE SWAP2 PUSH1 0x20 ADD SWAP2 SWAP1 PUSH1 0x1 ADD SWAP1 PUSH3 0x3FD JUMP JUMPDEST JUMPDEST POP SWAP1 POP PUSH3 0x42A SWAP2 SWAP1 PUSH3 0x42E JUMP JUMPDEST POP SWAP1 JUMP JUMPDEST JUMPDEST DUP1 DUP3 GT ISZERO PUSH3 0x449 JUMPI PUSH1 0x0 DUP2 PUSH1 0x0 SWAP1 SSTORE POP PUSH1 0x1 ADD PUSH3 0x42F JUMP JUMPDEST POP SWAP1 JUMP JUMPDEST PUSH1 0x0 PUSH3 0x45C PUSH1 0x1F DUP4 PUSH3 0x4C4 JUMP JUMPDEST SWAP2 POP PUSH3 0x469 DUP3 PUSH3 0x7E3 JUMP JUMPDEST PUSH1 0x20 DUP3 ADD SWAP1 POP SWAP2 SWAP1 POP JUMP JUMPDEST PUSH3 0x47F DUP2 PUSH3 0x72B JUMP JUMPDEST DUP3 MSTORE POP POP JUMP JUMPDEST PUSH1 0x0 PUSH1 0x20 DUP3 ADD SWAP1 POP DUP2 DUP2 SUB PUSH1 0x0 DUP4 ADD MSTORE PUSH3 0x4A0 DUP2 PUSH3 0x44D JUMP JUMPDEST SWAP1 POP SWAP2 SWAP1 POP JUMP JUMPDEST PUSH1 0x0 PUSH1 0x20 DUP3 ADD SWAP1 POP PUSH3 0x4BE PUSH1 0x0 DUP4 ADD DUP5 PUSH3 0x474 JUMP JUMPDEST SWAP3 SWAP2 POP POP JUMP JUMPDEST PUSH1 0x0 DUP3 DUP3 MSTORE PUSH1 0x20 DUP3 ADD SWAP1 POP SWAP3 SWAP2 POP POP JUMP JUMPDEST PUSH1 0x0 PUSH3 0x4E2 DUP3 PUSH3 0x72B JUMP JUMPDEST SWAP2 POP PUSH3 0x4EF DUP4 PUSH3 0x72B JUMP JUMPDEST SWAP3 POP DUP3 PUSH32 0xFFFFFFFFFFFFFFFFFFFFFFFFFFFFFFFFFFFFFFFFFFFFFFFFFFFFFFFFFFFFFFFF SUB DUP3 GT ISZERO PUSH3 0x527 JUMPI PUSH3 0x526 PUSH3 0x778 JUMP JUMPDEST JUMPDEST DUP3 DUP3 ADD SWAP1 POP SWAP3 SWAP2 POP POP JUMP JUMPDEST PUSH1 0x0 DUP1 DUP3 SWAP2 POP DUP4 SWAP1 POP JUMPDEST PUSH1 0x1 DUP6 GT ISZERO PUSH3 0x584 JUMPI DUP1 DUP7 DIV DUP2 GT ISZERO PUSH3 0x55C JUMPI PUSH3 0x55B PUSH3 0x778 JUMP JUMPDEST JUMPDEST PUSH1 0x1 DUP6 AND ISZERO PUSH3 0x56C JUMPI DUP1 DUP3 MUL SWAP2 POP JUMPDEST DUP1 DUP2 MUL SWAP1 POP PUSH3 0x57C DUP6 PUSH3 0x7D6 JUMP JUMPDEST SWAP5 POP PUSH3 0x53C JUMP JUMPDEST SWAP5 POP SWAP5 SWAP3 POP POP POP JUMP JUMPDEST PUSH1 0x0 PUSH3 0x59A DUP3 PUSH3 0x72B JUMP JUMPDEST SWAP2 POP PUSH3 0x5A7 DUP4 PUSH3 0x735 JUMP JUMPDEST SWAP3 POP PUSH3 0x5D6 PUSH32 0xFFFFFFFFFFFFFFFFFFFFFFFFFFFFFFFFFFFFFFFFFFFFFFFFFFFFFFFFFFFFFFFF DUP5 DUP5 PUSH3 0x5DE JUMP JUMPDEST SWAP1 POP SWAP3 SWAP2 POP POP JUMP JUMPDEST PUSH1 0x0 DUP3 PUSH3 0x5F0 JUMPI PUSH1 0x1 SWAP1 POP PUSH3 0x6C3 JUMP JUMPDEST DUP2 PUSH3 0x600 JUMPI PUSH1 0x0 SWAP1 POP PUSH3 0x6C3 JUMP JUMPDEST DUP2 PUSH1 0x1 DUP2 EQ PUSH3 0x619 JUMPI PUSH1 0x2 DUP2 EQ PUSH3 0x624 JUMPI PUSH3 0x65A JUMP JUMPDEST PUSH1 0x1 SWAP2 POP POP PUSH3 0x6C3 JUMP JUMPDEST PUSH1 0xFF DUP5 GT ISZERO PUSH3 0x639 JUMPI PUSH3 0x638 PUSH3 0x778 JUMP JUMPDEST JUMPDEST DUP4 PUSH1 0x2 EXP SWAP2 POP DUP5 DUP3 GT ISZERO PUSH3 0x653 JUMPI PUSH3 0x652 PUSH3 0x778 JUMP JUMPDEST JUMPDEST POP PUSH3 0x6C3 JUMP JUMPDEST POP PUSH1 0x20 DUP4 LT PUSH2 0x133 DUP4 LT AND PUSH1 0x4E DUP5 LT PUSH1 0xB DUP5 LT AND OR ISZERO PUSH3 0x694 JUMPI DUP3 DUP3 EXP SWAP1 POP DUP4 DUP2 GT ISZERO PUSH3 0x68E JUMPI PUSH3 0x68D PUSH3 0x778 JUMP JUMPDEST JUMPDEST PUSH3 0x6C3 JUMP JUMPDEST PUSH3 0x6A3 DUP5 DUP5 DUP5 PUSH1 0x1 PUSH3 0x532 JUMP JUMPDEST SWAP3 POP SWAP1 POP DUP2 DUP5 DIV DUP2 GT ISZERO PUSH3 0x6BD JUMPI PUSH3 0x6BC PUSH3 0x778 JUMP JUMPDEST JUMPDEST DUP2 DUP2 MUL SWAP1 POP JUMPDEST SWAP4 SWAP3 POP POP POP JUMP JUMPDEST PUSH1 0x0 PUSH3 0x6D7 DUP3 PUSH3 0x72B JUMP JUMPDEST SWAP2 POP PUSH3 0x6E4 DUP4 PUSH3 0x72B JUMP JUMPDEST SWAP3 POP DUP2 PUSH32 0xFFFFFFFFFFFFFFFFFFFFFFFFFFFFFFFFFFFFFFFFFFFFFFFFFFFFFFFFFFFFFFFF DIV DUP4 GT DUP3 ISZERO ISZERO AND ISZERO PUSH3 0x720 JUMPI PUSH3 0x71F PUSH3 0x778 JUMP JUMPDEST JUMPDEST DUP3 DUP3 MUL SWAP1 POP SWAP3 SWAP2 POP POP JUMP JUMPDEST PUSH1 0x0 DUP2 SWAP1 POP SWAP2 SWAP1 POP JUMP JUMPDEST PUSH1 0x0 PUSH1 0xFF DUP3 AND SWAP1 POP SWAP2 SWAP1 POP JUMP JUMPDEST PUSH1 0x0 PUSH1 0x2 DUP3 DIV SWAP1 POP PUSH1 0x1 DUP3 AND DUP1 PUSH3 0x75B JUMPI PUSH1 0x7F DUP3 AND SWAP2 POP JUMPDEST PUSH1 0x20 DUP3 LT DUP2 EQ ISZERO PUSH3 0x772 JUMPI PUSH3 0x771 PUSH3 0x7A7 JUMP JUMPDEST JUMPDEST POP SWAP2 SWAP1 POP JUMP JUMPDEST PUSH32 0x4E487B7100000000000000000000000000000000000000000000000000000000 PUSH1 0x0 MSTORE PUSH1 0x11 PUSH1 0x4 MSTORE PUSH1 0x24 PUSH1 0x0 REVERT JUMPDEST PUSH32 0x4E487B7100000000000000000000000000000000000000000000000000000000 PUSH1 0x0 MSTORE PUSH1 0x22 PUSH1 0x4 MSTORE PUSH1 0x24 PUSH1 0x0 REVERT JUMPDEST PUSH1 0x0 DUP2 PUSH1 0x1 SHR SWAP1 POP SWAP2 SWAP1 POP JUMP JUMPDEST PUSH32 0x45524332303A206D696E7420746F20746865207A65726F206164647265737300 PUSH1 0x0 DUP3 ADD MSTORE POP JUMP JUMPDEST PUSH2 0x194A DUP1 PUSH3 0x81C PUSH1 0x0 CODECOPY PUSH1 0x0 RETURN INVALID PUSH1 0x80 PUSH1 0x40 MSTORE CALLVALUE DUP1 ISZERO PUSH2 0x10 JUMPI PUSH1 0x0 DUP1 REVERT JUMPDEST POP PUSH1 0x4 CALLDATASIZE LT PUSH2 0x10B JUMPI PUSH1 0x0 CALLDATALOAD PUSH1 0xE0 SHR DUP1 PUSH4 0x7ABA6F37 GT PUSH2 0xA2 JUMPI DUP1 PUSH4 0xA4E2D634 GT PUSH2 0x71 JUMPI DUP1 PUSH4 0xA4E2D634 EQ PUSH2 0x2BE JUMPI DUP1 PUSH4 0xA9059CBB EQ PUSH2 0x2DC JUMPI DUP1 PUSH4 0xD085835A EQ PUSH2 0x30C JUMPI DUP1 PUSH4 0xDD62ED3E EQ PUSH2 0x32A JUMPI DUP1 PUSH4 0xF2FDE38B EQ PUSH2 0x35A JUMPI PUSH2 0x10B JUMP JUMPDEST DUP1 PUSH4 0x7ABA6F37 EQ PUSH2 0x234 JUMPI DUP1 PUSH4 0x8DA5CB5B EQ PUSH2 0x252 JUMPI DUP1 PUSH4 0x95D89B41 EQ PUSH2 0x270 JUMPI DUP1 PUSH4 0xA457C2D7 EQ PUSH2 0x28E JUMPI PUSH2 0x10B JUMP JUMPDEST DUP1 PUSH4 0x313CE567 GT PUSH2 0xDE JUMPI DUP1 PUSH4 0x313CE567 EQ PUSH2 0x1AC JUMPI DUP1 PUSH4 0x39509351 EQ PUSH2 0x1CA JUMPI DUP1 PUSH4 0x70A08231 EQ PUSH2 0x1FA JUMPI DUP1 PUSH4 0x715018A6 EQ PUSH2 0x22A JUMPI PUSH2 0x10B JUMP JUMPDEST DUP1 PUSH4 0x6FDDE03 EQ PUSH2 0x110 JUMPI DUP1 PUSH4 0x95EA7B3 EQ PUSH2 0x12E JUMPI DUP1 PUSH4 0x18160DDD EQ PUSH2 0x15E JUMPI DUP1 PUSH4 0x23B872DD EQ PUSH2 0x17C JUMPI JUMPDEST PUSH1 0x0 DUP1 REVERT JUMPDEST PUSH2 0x118 PUSH2 0x376 JUMP JUMPDEST PUSH1 0x40 MLOAD PUSH2 0x125 SWAP2 SWAP1 PUSH2 0x1278 JUMP JUMPDEST PUSH1 0x40 MLOAD DUP1 SWAP2 SUB SWAP1 RETURN JUMPDEST PUSH2 0x148 PUSH1 0x4 DUP1 CALLDATASIZE SUB DUP2 ADD SWAP1 PUSH2 0x143 SWAP2 SWAP1 PUSH2 0xFE9 JUMP JUMPDEST PUSH2 0x408 JUMP JUMPDEST PUSH1 0x40 MLOAD PUSH2 0x155 SWAP2 SWAP1 PUSH2 0x125D JUMP JUMPDEST PUSH1 0x40 MLOAD DUP1 SWAP2 SUB SWAP1 RETURN JUMPDEST PUSH2 0x166 PUSH2 0x42B JUMP JUMPDEST PUSH1 0x40 MLOAD PUSH2 0x173 SWAP2 SWAP1 PUSH2 0x141A JUMP JUMPDEST PUSH1 0x40 MLOAD DUP1 SWAP2 SUB SWAP1 RETURN JUMPDEST PUSH2 0x196 PUSH1 0x4 DUP1 CALLDATASIZE SUB DUP2 ADD SWAP1 PUSH2 0x191 SWAP2 SWAP1 PUSH2 0xF96 JUMP JUMPDEST PUSH2 0x435 JUMP JUMPDEST PUSH1 0x40 MLOAD PUSH2 0x1A3 SWAP2 SWAP1 PUSH2 0x125D JUMP JUMPDEST PUSH1 0x40 MLOAD DUP1 SWAP2 SUB SWAP1 RETURN JUMPDEST PUSH2 0x1B4 PUSH2 0x464 JUMP JUMPDEST PUSH1 0x40 MLOAD PUSH2 0x1C1 SWAP2 SWAP1 PUSH2 0x1435 JUMP JUMPDEST PUSH1 0x40 MLOAD DUP1 SWAP2 SUB SWAP1 RETURN JUMPDEST PUSH2 0x1E4 PUSH1 0x4 DUP1 CALLDATASIZE SUB DUP2 ADD SWAP1 PUSH2 0x1DF SWAP2 SWAP1 PUSH2 0xFE9 JUMP JUMPDEST PUSH2 0x46D JUMP JUMPDEST PUSH1 0x40 MLOAD PUSH2 0x1F1 SWAP2 SWAP1 PUSH2 0x125D JUMP JUMPDEST PUSH1 0x40 MLOAD DUP1 SWAP2 SUB SWAP1 RETURN JUMPDEST PUSH2 0x214 PUSH1 0x4 DUP1 CALLDATASIZE SUB DUP2 ADD SWAP1 PUSH2 0x20F SWAP2 SWAP1 PUSH2 0xF29 JUMP JUMPDEST PUSH2 0x4A4 JUMP JUMPDEST PUSH1 0x40 MLOAD PUSH2 0x221 SWAP2 SWAP1 PUSH2 0x141A JUMP JUMPDEST PUSH1 0x40 MLOAD DUP1 SWAP2 SUB SWAP1 RETURN JUMPDEST PUSH2 0x232 PUSH2 0x4EC JUMP JUMPDEST STOP JUMPDEST PUSH2 0x23C PUSH2 0x500 JUMP JUMPDEST PUSH1 0x40 MLOAD PUSH2 0x249 SWAP2 SWAP1 PUSH2 0x125D JUMP JUMPDEST PUSH1 0x40 MLOAD DUP1 SWAP2 SUB SWAP1 RETURN JUMPDEST PUSH2 0x25A PUSH2 0x52C JUMP JUMPDEST PUSH1 0x40 MLOAD PUSH2 0x267 SWAP2 SWAP1 PUSH2 0x1242 JUMP JUMPDEST PUSH1 0x40 MLOAD DUP1 SWAP2 SUB SWAP1 RETURN JUMPDEST PUSH2 0x278 PUSH2 0x556 JUMP JUMPDEST PUSH1 0x40 MLOAD PUSH2 0x285 SWAP2 SWAP1 PUSH2 0x1278 JUMP JUMPDEST PUSH1 0x40 MLOAD DUP1 SWAP2 SUB SWAP1 RETURN JUMPDEST PUSH2 0x2A8 PUSH1 0x4 DUP1 CALLDATASIZE SUB DUP2 ADD SWAP1 PUSH2 0x2A3 SWAP2 SWAP1 PUSH2 0xFE9 JUMP JUMPDEST PUSH2 0x5E8 JUMP JUMPDEST PUSH1 0x40 MLOAD PUSH2 0x2B5 SWAP2 SWAP1 PUSH2 0x125D JUMP JUMPDEST PUSH1 0x40 MLOAD DUP1 SWAP2 SUB SWAP1 RETURN JUMPDEST PUSH2 0x2C6 PUSH2 0x65F JUMP JUMPDEST PUSH1 0x40 MLOAD PUSH2 0x2D3 SWAP2 SWAP1 PUSH2 0x125D JUMP JUMPDEST PUSH1 0x40 MLOAD DUP1 SWAP2 SUB SWAP1 RETURN JUMPDEST PUSH2 0x2F6 PUSH1 0x4 DUP1 CALLDATASIZE SUB DUP2 ADD SWAP1 PUSH2 0x2F1 SWAP2 SWAP1 PUSH2 0xFE9 JUMP JUMPDEST PUSH2 0x672 JUMP JUMPDEST PUSH1 0x40 MLOAD PUSH2 0x303 SWAP2 SWAP1 PUSH2 0x125D JUMP JUMPDEST PUSH1 0x40 MLOAD DUP1 SWAP2 SUB SWAP1 RETURN JUMPDEST PUSH2 0x314 PUSH2 0x79D JUMP JUMPDEST PUSH1 0x40 MLOAD PUSH2 0x321 SWAP2 SWAP1 PUSH2 0x141A JUMP JUMPDEST PUSH1 0x40 MLOAD DUP1 SWAP2 SUB SWAP1 RETURN JUMPDEST PUSH2 0x344 PUSH1 0x4 DUP1 CALLDATASIZE SUB DUP2 ADD SWAP1 PUSH2 0x33F SWAP2 SWAP1 PUSH2 0xF56 JUMP JUMPDEST PUSH2 0x7A3 JUMP JUMPDEST PUSH1 0x40 MLOAD PUSH2 0x351 SWAP2 SWAP1 PUSH2 0x141A JUMP JUMPDEST PUSH1 0x40 MLOAD DUP1 SWAP2 SUB SWAP1 RETURN JUMPDEST PUSH2 0x374 PUSH1 0x4 DUP1 CALLDATASIZE SUB DUP2 ADD SWAP1 PUSH2 0x36F SWAP2 SWAP1 PUSH2 0xF29 JUMP JUMPDEST PUSH2 0x82A JUMP JUMPDEST STOP JUMPDEST PUSH1 0x60 PUSH1 0x3 DUP1 SLOAD PUSH2 0x385 SWAP1 PUSH2 0x154A JUMP JUMPDEST DUP1 PUSH1 0x1F ADD PUSH1 0x20 DUP1 SWAP2 DIV MUL PUSH1 0x20 ADD PUSH1 0x40 MLOAD SWAP1 DUP2 ADD PUSH1 0x40 MSTORE DUP1 SWAP3 SWAP2 SWAP1 DUP2 DUP2 MSTORE PUSH1 0x20 ADD DUP3 DUP1 SLOAD PUSH2 0x3B1 SWAP1 PUSH2 0x154A JUMP JUMPDEST DUP1 ISZERO PUSH2 0x3FE JUMPI DUP1 PUSH1 0x1F LT PUSH2 0x3D3 JUMPI PUSH2 0x100 DUP1 DUP4 SLOAD DIV MUL DUP4 MSTORE SWAP2 PUSH1 0x20 ADD SWAP2 PUSH2 0x3FE JUMP JUMPDEST DUP3 ADD SWAP2 SWAP1 PUSH1 0x0 MSTORE PUSH1 0x20 PUSH1 0x0 KECCAK256 SWAP1 JUMPDEST DUP2 SLOAD DUP2 MSTORE SWAP1 PUSH1 0x1 ADD SWAP1 PUSH1 0x20 ADD DUP1 DUP4 GT PUSH2 0x3E1 JUMPI DUP3 SWAP1 SUB PUSH1 0x1F AND DUP3 ADD SWAP2 JUMPDEST POP POP POP POP POP SWAP1 POP SWAP1 JUMP JUMPDEST PUSH1 0x0 DUP1 PUSH2 0x413 PUSH2 0x8AE JUMP JUMPDEST SWAP1 POP PUSH2 0x420 DUP2 DUP6 DUP6 PUSH2 0x8B6 JUMP JUMPDEST PUSH1 0x1 SWAP2 POP POP SWAP3 SWAP2 POP POP JUMP JUMPDEST PUSH1 0x0 PUSH1 0x2 SLOAD SWAP1 POP SWAP1 JUMP JUMPDEST PUSH1 0x0 DUP1 PUSH2 0x440 PUSH2 0x8AE JUMP JUMPDEST SWAP1 POP PUSH2 0x44D DUP6 DUP3 DUP6 PUSH2 0xA81 JUMP JUMPDEST PUSH2 0x458 DUP6 DUP6 DUP6 PUSH2 0xB0D JUMP JUMPDEST PUSH1 0x1 SWAP2 POP POP SWAP4 SWAP3 POP POP POP JUMP JUMPDEST PUSH1 0x0 PUSH1 0x12 SWAP1 POP SWAP1 JUMP JUMPDEST PUSH1 0x0 DUP1 PUSH2 0x478 PUSH2 0x8AE JUMP JUMPDEST SWAP1 POP PUSH2 0x499 DUP2 DUP6 DUP6 PUSH2 0x48A DUP6 DUP10 PUSH2 0x7A3 JUMP JUMPDEST PUSH2 0x494 SWAP2 SWAP1 PUSH2 0x146C JUMP JUMPDEST PUSH2 0x8B6 JUMP JUMPDEST PUSH1 0x1 SWAP2 POP POP SWAP3 SWAP2 POP POP JUMP JUMPDEST PUSH1 0x0 DUP1 PUSH1 0x0 DUP4 PUSH20 0xFFFFFFFFFFFFFFFFFFFFFFFFFFFFFFFFFFFFFFFF AND PUSH20 0xFFFFFFFFFFFFFFFFFFFFFFFFFFFFFFFFFFFFFFFF AND DUP2 MSTORE PUSH1 0x20 ADD SWAP1 DUP2 MSTORE PUSH1 0x20 ADD PUSH1 0x0 KECCAK256 SLOAD SWAP1 POP SWAP2 SWAP1 POP JUMP JUMPDEST PUSH2 0x4F4 PUSH2 0xD8E JUMP JUMPDEST PUSH2 0x4FE PUSH1 0x0 PUSH2 0xE0C JUMP JUMPDEST JUMP JUMPDEST PUSH1 0x0 PUSH2 0x50A PUSH2 0xD8E JUMP JUMPDEST PUSH1 0x1 PUSH1 0x5 PUSH1 0x14 PUSH2 0x100 EXP DUP2 SLOAD DUP2 PUSH1 0xFF MUL NOT AND SWAP1 DUP4 ISZERO ISZERO MUL OR SWAP1 SSTORE POP PUSH1 0x1 SWAP1 POP SWAP1 JUMP JUMPDEST PUSH1 0x0 PUSH1 0x5 PUSH1 0x0 SWAP1 SLOAD SWAP1 PUSH2 0x100 EXP SWAP1 DIV PUSH20 0xFFFFFFFFFFFFFFFFFFFFFFFFFFFFFFFFFFFFFFFF AND SWAP1 POP SWAP1 JUMP JUMPDEST PUSH1 0x60 PUSH1 0x4 DUP1 SLOAD PUSH2 0x565 SWAP1 PUSH2 0x154A JUMP JUMPDEST DUP1 PUSH1 0x1F ADD PUSH1 0x20 DUP1 SWAP2 DIV MUL PUSH1 0x20 ADD PUSH1 0x40 MLOAD SWAP1 DUP2 ADD PUSH1 0x40 MSTORE DUP1 SWAP3 SWAP2 SWAP1 DUP2 DUP2 MSTORE PUSH1 0x20 ADD DUP3 DUP1 SLOAD PUSH2 0x591 SWAP1 PUSH2 0x154A JUMP JUMPDEST DUP1 ISZERO PUSH2 0x5DE JUMPI DUP1 PUSH1 0x1F LT PUSH2 0x5B3 JUMPI PUSH2 0x100 DUP1 DUP4 SLOAD DIV MUL DUP4 MSTORE SWAP2 PUSH1 0x20 ADD SWAP2 PUSH2 0x5DE JUMP JUMPDEST DUP3 ADD SWAP2 SWAP1 PUSH1 0x0 MSTORE PUSH1 0x20 PUSH1 0x0 KECCAK256 SWAP1 JUMPDEST DUP2 SLOAD DUP2 MSTORE SWAP1 PUSH1 0x1 ADD SWAP1 PUSH1 0x20 ADD DUP1 DUP4 GT PUSH2 0x5C1 JUMPI DUP3 SWAP1 SUB PUSH1 0x1F AND DUP3 ADD SWAP2 JUMPDEST POP POP POP POP POP SWAP1 POP SWAP1 JUMP JUMPDEST PUSH1 0x0 DUP1 PUSH2 0x5F3 PUSH2 0x8AE JUMP JUMPDEST SWAP1 POP PUSH1 0x0 PUSH2 0x601 DUP3 DUP7 PUSH2 0x7A3 JUMP JUMPDEST SWAP1 POP DUP4 DUP2 LT ISZERO PUSH2 0x646 JUMPI PUSH1 0x40 MLOAD PUSH32 0x8C379A000000000000000000000000000000000000000000000000000000000 DUP2 MSTORE PUSH1 0x4 ADD PUSH2 0x63D SWAP1 PUSH2 0x13FA JUMP JUMPDEST PUSH1 0x40 MLOAD DUP1 SWAP2 SUB SWAP1 REVERT JUMPDEST PUSH2 0x653 DUP3 DUP7 DUP7 DUP5 SUB PUSH2 0x8B6 JUMP JUMPDEST PUSH1 0x1 SWAP3 POP POP POP SWAP3 SWAP2 POP POP JUMP JUMPDEST PUSH1 0x5 PUSH1 0x14 SWAP1 SLOAD SWAP1 PUSH2 0x100 EXP SWAP1 DIV PUSH1 0xFF AND DUP2 JUMP JUMPDEST PUSH1 0x0 PUSH1 0x5 PUSH1 0x14 SWAP1 SLOAD SWAP1 PUSH2 0x100 EXP SWAP1 DIV PUSH1 0xFF AND ISZERO PUSH2 0x6C4 JUMPI PUSH1 0x40 MLOAD PUSH32 0x8C379A000000000000000000000000000000000000000000000000000000000 DUP2 MSTORE PUSH1 0x4 ADD PUSH2 0x6BB SWAP1 PUSH2 0x12FA JUMP JUMPDEST PUSH1 0x40 MLOAD DUP1 SWAP2 SUB SWAP1 REVERT JUMPDEST PUSH20 0xAB8483F64D9C6D1ECF9B849AE677DD3315835CB2 PUSH20 0xFFFFFFFFFFFFFFFFFFFFFFFFFFFFFFFFFFFFFFFF AND CALLER PUSH20 0xFFFFFFFFFFFFFFFFFFFFFFFFFFFFFFFFFFFFFFFF AND EQ ISZERO PUSH2 0x747 JUMPI PUSH1 0x40 MLOAD PUSH32 0x8C379A000000000000000000000000000000000000000000000000000000000 DUP2 MSTORE PUSH1 0x4 ADD PUSH2 0x73E SWAP1 PUSH2 0x13DA JUMP JUMPDEST PUSH1 0x40 MLOAD DUP1 SWAP2 SUB SWAP1 REVERT JUMPDEST PUSH1 0x6 SLOAD TIMESTAMP GT PUSH2 0x78B JUMPI PUSH1 0x40 MLOAD PUSH32 0x8C379A000000000000000000000000000000000000000000000000000000000 DUP2 MSTORE PUSH1 0x4 ADD PUSH2 0x782 SWAP1 PUSH2 0x137A JUMP JUMPDEST PUSH1 0x40 MLOAD DUP1 SWAP2 SUB SWAP1 REVERT JUMPDEST PUSH2 0x795 DUP4 DUP4 PUSH2 0xED2 JUMP JUMPDEST SWAP1 POP SWAP3 SWAP2 POP POP JUMP JUMPDEST PUSH1 0x6 SLOAD DUP2 JUMP JUMPDEST PUSH1 0x0 PUSH1 0x1 PUSH1 0x0 DUP5 PUSH20 0xFFFFFFFFFFFFFFFFFFFFFFFFFFFFFFFFFFFFFFFF AND PUSH20 0xFFFFFFFFFFFFFFFFFFFFFFFFFFFFFFFFFFFFFFFF AND DUP2 MSTORE PUSH1 0x20 ADD SWAP1 DUP2 MSTORE PUSH1 0x20 ADD PUSH1 0x0 KECCAK256 PUSH1 0x0 DUP4 PUSH20 0xFFFFFFFFFFFFFFFFFFFFFFFFFFFFFFFFFFFFFFFF AND PUSH20 0xFFFFFFFFFFFFFFFFFFFFFFFFFFFFFFFFFFFFFFFF AND DUP2 MSTORE PUSH1 0x20 ADD SWAP1 DUP2 MSTORE PUSH1 0x20 ADD PUSH1 0x0 KECCAK256 SLOAD SWAP1 POP SWAP3 SWAP2 POP POP JUMP JUMPDEST PUSH2 0x832 PUSH2 0xD8E JUMP JUMPDEST PUSH1 0x0 PUSH20 0xFFFFFFFFFFFFFFFFFFFFFFFFFFFFFFFFFFFFFFFF AND DUP2 PUSH20 0xFFFFFFFFFFFFFFFFFFFFFFFFFFFFFFFFFFFFFFFF AND EQ ISZERO PUSH2 0x8A2 JUMPI PUSH1 0x40 MLOAD PUSH32 0x8C379A000000000000000000000000000000000000000000000000000000000 DUP2 MSTORE PUSH1 0x4 ADD PUSH2 0x899 SWAP1 PUSH2 0x12BA JUMP JUMPDEST PUSH1 0x40 MLOAD DUP1 SWAP2 SUB SWAP1 REVERT JUMPDEST PUSH2 0x8AB DUP2 PUSH2 0xE0C JUMP JUMPDEST POP JUMP JUMPDEST PUSH1 0x0 CALLER SWAP1 POP SWAP1 JUMP JUMPDEST PUSH1 0x0 PUSH20 0xFFFFFFFFFFFFFFFFFFFFFFFFFFFFFFFFFFFFFFFF AND DUP4 PUSH20 0xFFFFFFFFFFFFFFFFFFFFFFFFFFFFFFFFFFFFFFFF AND EQ ISZERO PUSH2 0x926 JUMPI PUSH1 0x40 MLOAD PUSH32 0x8C379A000000000000000000000000000000000000000000000000000000000 DUP2 MSTORE PUSH1 0x4 ADD PUSH2 0x91D SWAP1 PUSH2 0x13BA JUMP JUMPDEST PUSH1 0x40 MLOAD DUP1 SWAP2 SUB SWAP1 REVERT JUMPDEST PUSH1 0x0 PUSH20 0xFFFFFFFFFFFFFFFFFFFFFFFFFFFFFFFFFFFFFFFF AND DUP3 PUSH20 0xFFFFFFFFFFFFFFFFFFFFFFFFFFFFFFFFFFFFFFFF AND EQ ISZERO PUSH2 0x996 JUMPI PUSH1 0x40 MLOAD PUSH32 0x8C379A000000000000000000000000000000000000000000000000000000000 DUP2 MSTORE PUSH1 0x4 ADD PUSH2 0x98D SWAP1 PUSH2 0x12DA JUMP JUMPDEST PUSH1 0x40 MLOAD DUP1 SWAP2 SUB SWAP1 REVERT JUMPDEST DUP1 PUSH1 0x1 PUSH1 0x0 DUP6 PUSH20 0xFFFFFFFFFFFFFFFFFFFFFFFFFFFFFFFFFFFFFFFF AND PUSH20 0xFFFFFFFFFFFFFFFFFFFFFFFFFFFFFFFFFFFFFFFF AND DUP2 MSTORE PUSH1 0x20 ADD SWAP1 DUP2 MSTORE PUSH1 0x20 ADD PUSH1 0x0 KECCAK256 PUSH1 0x0 DUP5 PUSH20 0xFFFFFFFFFFFFFFFFFFFFFFFFFFFFFFFFFFFFFFFF AND PUSH20 0xFFFFFFFFFFFFFFFFFFFFFFFFFFFFFFFFFFFFFFFF AND DUP2 MSTORE PUSH1 0x20 ADD SWAP1 DUP2 MSTORE PUSH1 0x20 ADD PUSH1 0x0 KECCAK256 DUP2 SWAP1 SSTORE POP DUP2 PUSH20 0xFFFFFFFFFFFFFFFFFFFFFFFFFFFFFFFFFFFFFFFF AND DUP4 PUSH20 0xFFFFFFFFFFFFFFFFFFFFFFFFFFFFFFFFFFFFFFFF AND PUSH32 0x8C5BE1E5EBEC7D5BD14F71427D1E84F3DD0314C0F7B2291E5B200AC8C7C3B925 DUP4 PUSH1 0x40 MLOAD PUSH2 0xA74 SWAP2 SWAP1 PUSH2 0x141A JUMP JUMPDEST PUSH1 0x40 MLOAD DUP1 SWAP2 SUB SWAP1 LOG3 POP POP POP JUMP JUMPDEST PUSH1 0x0 PUSH2 0xA8D DUP5 DUP5 PUSH2 0x7A3 JUMP JUMPDEST SWAP1 POP PUSH32 0xFFFFFFFFFFFFFFFFFFFFFFFFFFFFFFFFFFFFFFFFFFFFFFFFFFFFFFFFFFFFFFFF DUP2 EQ PUSH2 0xB07 JUMPI DUP2 DUP2 LT ISZERO PUSH2 0xAF9 JUMPI PUSH1 0x40 MLOAD PUSH32 0x8C379A000000000000000000000000000000000000000000000000000000000 DUP2 MSTORE PUSH1 0x4 ADD PUSH2 0xAF0 SWAP1 PUSH2 0x131A JUMP JUMPDEST PUSH1 0x40 MLOAD DUP1 SWAP2 SUB SWAP1 REVERT JUMPDEST PUSH2 0xB06 DUP5 DUP5 DUP5 DUP5 SUB PUSH2 0x8B6 JUMP JUMPDEST JUMPDEST POP POP POP POP JUMP JUMPDEST PUSH1 0x0 PUSH20 0xFFFFFFFFFFFFFFFFFFFFFFFFFFFFFFFFFFFFFFFF AND DUP4 PUSH20 0xFFFFFFFFFFFFFFFFFFFFFFFFFFFFFFFFFFFFFFFF AND EQ ISZERO PUSH2 0xB7D JUMPI PUSH1 0x40 MLOAD PUSH32 0x8C379A000000000000000000000000000000000000000000000000000000000 DUP2 MSTORE PUSH1 0x4 ADD PUSH2 0xB74 SWAP1 PUSH2 0x139A JUMP JUMPDEST PUSH1 0x40 MLOAD DUP1 SWAP2 SUB SWAP1 REVERT JUMPDEST PUSH1 0x0 PUSH20 0xFFFFFFFFFFFFFFFFFFFFFFFFFFFFFFFFFFFFFFFF AND DUP3 PUSH20 0xFFFFFFFFFFFFFFFFFFFFFFFFFFFFFFFFFFFFFFFF AND EQ ISZERO PUSH2 0xBED JUMPI PUSH1 0x40 MLOAD PUSH32 0x8C379A000000000000000000000000000000000000000000000000000000000 DUP2 MSTORE PUSH1 0x4 ADD PUSH2 0xBE4 SWAP1 PUSH2 0x129A JUMP JUMPDEST PUSH1 0x40 MLOAD DUP1 SWAP2 SUB SWAP1 REVERT JUMPDEST PUSH2 0xBF8 DUP4 DUP4 DUP4 PUSH2 0xEF5 JUMP JUMPDEST PUSH1 0x0 DUP1 PUSH1 0x0 DUP6 PUSH20 0xFFFFFFFFFFFFFFFFFFFFFFFFFFFFFFFFFFFFFFFF AND PUSH20 0xFFFFFFFFFFFFFFFFFFFFFFFFFFFFFFFFFFFFFFFF AND DUP2 MSTORE PUSH1 0x20 ADD SWAP1 DUP2 MSTORE PUSH1 0x20 ADD PUSH1 0x0 KECCAK256 SLOAD SWAP1 POP DUP2 DUP2 LT ISZERO PUSH2 0xC7E JUMPI PUSH1 0x40 MLOAD PUSH32 0x8C379A000000000000000000000000000000000000000000000000000000000 DUP2 MSTORE PUSH1 0x4 ADD PUSH2 0xC75 SWAP1 PUSH2 0x133A JUMP JUMPDEST PUSH1 0x40 MLOAD DUP1 SWAP2 SUB SWAP1 REVERT JUMPDEST DUP2 DUP2 SUB PUSH1 0x0 DUP1 DUP7 PUSH20 0xFFFFFFFFFFFFFFFFFFFFFFFFFFFFFFFFFFFFFFFF AND PUSH20 0xFFFFFFFFFFFFFFFFFFFFFFFFFFFFFFFFFFFFFFFF AND DUP2 MSTORE PUSH1 0x20 ADD SWAP1 DUP2 MSTORE PUSH1 0x20 ADD PUSH1 0x0 KECCAK256 DUP2 SWAP1 SSTORE POP DUP2 PUSH1 0x0 DUP1 DUP6 PUSH20 0xFFFFFFFFFFFFFFFFFFFFFFFFFFFFFFFFFFFFFFFF AND PUSH20 0xFFFFFFFFFFFFFFFFFFFFFFFFFFFFFFFFFFFFFFFF AND DUP2 MSTORE PUSH1 0x20 ADD SWAP1 DUP2 MSTORE PUSH1 0x20 ADD PUSH1 0x0 KECCAK256 PUSH1 0x0 DUP3 DUP3 SLOAD PUSH2 0xD11 SWAP2 SWAP1 PUSH2 0x146C JUMP JUMPDEST SWAP3 POP POP DUP2 SWAP1 SSTORE POP DUP3 PUSH20 0xFFFFFFFFFFFFFFFFFFFFFFFFFFFFFFFFFFFFFFFF AND DUP5 PUSH20 0xFFFFFFFFFFFFFFFFFFFFFFFFFFFFFFFFFFFFFFFF AND PUSH32 0xDDF252AD1BE2C89B69C2B068FC378DAA952BA7F163C4A11628F55A4DF523B3EF DUP5 PUSH1 0x40 MLOAD PUSH2 0xD75 SWAP2 SWAP1 PUSH2 0x141A JUMP JUMPDEST PUSH1 0x40 MLOAD DUP1 SWAP2 SUB SWAP1 LOG3 PUSH2 0xD88 DUP5 DUP5 DUP5 PUSH2 0xEFA JUMP JUMPDEST POP POP POP POP JUMP JUMPDEST PUSH2 0xD96 PUSH2 0x8AE JUMP JUMPDEST PUSH20 0xFFFFFFFFFFFFFFFFFFFFFFFFFFFFFFFFFFFFFFFF AND PUSH2 0xDB4 PUSH2 0x52C JUMP JUMPDEST PUSH20 0xFFFFFFFFFFFFFFFFFFFFFFFFFFFFFFFFFFFFFFFF AND EQ PUSH2 0xE0A JUMPI PUSH1 0x40 MLOAD PUSH32 0x8C379A000000000000000000000000000000000000000000000000000000000 DUP2 MSTORE PUSH1 0x4 ADD PUSH2 0xE01 SWAP1 PUSH2 0x135A JUMP JUMPDEST PUSH1 0x40 MLOAD DUP1 SWAP2 SUB SWAP1 REVERT JUMPDEST JUMP JUMPDEST PUSH1 0x0 PUSH1 0x5 PUSH1 0x0 SWAP1 SLOAD SWAP1 PUSH2 0x100 EXP SWAP1 DIV PUSH20 0xFFFFFFFFFFFFFFFFFFFFFFFFFFFFFFFFFFFFFFFF AND SWAP1 POP DUP2 PUSH1 0x5 PUSH1 0x0 PUSH2 0x100 EXP DUP2 SLOAD DUP2 PUSH20 0xFFFFFFFFFFFFFFFFFFFFFFFFFFFFFFFFFFFFFFFF MUL NOT AND SWAP1 DUP4 PUSH20 0xFFFFFFFFFFFFFFFFFFFFFFFFFFFFFFFFFFFFFFFF AND MUL OR SWAP1 SSTORE POP DUP2 PUSH20 0xFFFFFFFFFFFFFFFFFFFFFFFFFFFFFFFFFFFFFFFF AND DUP2 PUSH20 0xFFFFFFFFFFFFFFFFFFFFFFFFFFFFFFFFFFFFFFFF AND PUSH32 0x8BE0079C531659141344CD1FD0A4F28419497F9722A3DAAFE3B4186F6B6457E0 PUSH1 0x40 MLOAD PUSH1 0x40 MLOAD DUP1 SWAP2 SUB SWAP1 LOG3 POP POP JUMP JUMPDEST PUSH1 0x0 DUP1 PUSH2 0xEDD PUSH2 0x8AE JUMP JUMPDEST SWAP1 POP PUSH2 0xEEA DUP2 DUP6 DUP6 PUSH2 0xB0D JUMP JUMPDEST PUSH1 0x1 SWAP2 POP POP SWAP3 SWAP2 POP POP JUMP JUMPDEST POP POP POP JUMP JUMPDEST POP POP POP JUMP JUMPDEST PUSH1 0x0 DUP2 CALLDATALOAD SWAP1 POP PUSH2 0xF0E DUP2 PUSH2 0x18E6 JUMP JUMPDEST SWAP3 SWAP2 POP POP JUMP JUMPDEST PUSH1 0x0 DUP2 CALLDATALOAD SWAP1 POP PUSH2 0xF23 DUP2 PUSH2 0x18FD JUMP JUMPDEST SWAP3 SWAP2 POP POP JUMP JUMPDEST PUSH1 0x0 PUSH1 0x20 DUP3 DUP5 SUB SLT ISZERO PUSH2 0xF3F JUMPI PUSH2 0xF3E PUSH2 0x15DA JUMP JUMPDEST JUMPDEST PUSH1 0x0 PUSH2 0xF4D DUP5 DUP3 DUP6 ADD PUSH2 0xEFF JUMP JUMPDEST SWAP2 POP POP SWAP3 SWAP2 POP POP JUMP JUMPDEST PUSH1 0x0 DUP1 PUSH1 0x40 DUP4 DUP6 SUB SLT ISZERO PUSH2 0xF6D JUMPI PUSH2 0xF6C PUSH2 0x15DA JUMP JUMPDEST JUMPDEST PUSH1 0x0 PUSH2 0xF7B DUP6 DUP3 DUP7 ADD PUSH2 0xEFF JUMP JUMPDEST SWAP3 POP POP PUSH1 0x20 PUSH2 0xF8C DUP6 DUP3 DUP7 ADD PUSH2 0xEFF JUMP JUMPDEST SWAP2 POP POP SWAP3 POP SWAP3 SWAP1 POP JUMP JUMPDEST PUSH1 0x0 DUP1 PUSH1 0x0 PUSH1 0x60 DUP5 DUP7 SUB SLT ISZERO PUSH2 0xFAF JUMPI PUSH2 0xFAE PUSH2 0x15DA JUMP JUMPDEST JUMPDEST PUSH1 0x0 PUSH2 0xFBD DUP7 DUP3 DUP8 ADD PUSH2 0xEFF JUMP JUMPDEST SWAP4 POP POP PUSH1 0x20 PUSH2 0xFCE DUP7 DUP3 DUP8 ADD PUSH2 0xEFF JUMP JUMPDEST SWAP3 POP POP PUSH1 0x40 PUSH2 0xFDF DUP7 DUP3 DUP8 ADD PUSH2 0xF14 JUMP JUMPDEST SWAP2 POP POP SWAP3 POP SWAP3 POP SWAP3 JUMP JUMPDEST PUSH1 0x0 DUP1 PUSH1 0x40 DUP4 DUP6 SUB SLT ISZERO PUSH2 0x1000 JUMPI PUSH2 0xFFF PUSH2 0x15DA JUMP JUMPDEST JUMPDEST PUSH1 0x0 PUSH2 0x100E DUP6 DUP3 DUP7 ADD PUSH2 0xEFF JUMP JUMPDEST SWAP3 POP POP PUSH1 0x20 PUSH2 0x101F DUP6 DUP3 DUP7 ADD PUSH2 0xF14 JUMP JUMPDEST SWAP2 POP POP SWAP3 POP SWAP3 SWAP1 POP JUMP JUMPDEST PUSH2 0x1032 DUP2 PUSH2 0x14C2 JUMP JUMPDEST DUP3 MSTORE POP POP JUMP JUMPDEST PUSH2 0x1041 DUP2 PUSH2 0x14D4 JUMP JUMPDEST DUP3 MSTORE POP POP JUMP JUMPDEST PUSH1 0x0 PUSH2 0x1052 DUP3 PUSH2 0x1450 JUMP JUMPDEST PUSH2 0x105C DUP2 DUP6 PUSH2 0x145B JUMP JUMPDEST SWAP4 POP PUSH2 0x106C DUP2 DUP6 PUSH1 0x20 DUP7 ADD PUSH2 0x1517 JUMP JUMPDEST PUSH2 0x1075 DUP2 PUSH2 0x15DF JUMP JUMPDEST DUP5 ADD SWAP2 POP POP SWAP3 SWAP2 POP POP JUMP JUMPDEST PUSH1 0x0 PUSH2 0x108D PUSH1 0x23 DUP4 PUSH2 0x145B JUMP JUMPDEST SWAP2 POP PUSH2 0x1098 DUP3 PUSH2 0x15F0 JUMP JUMPDEST PUSH1 0x40 DUP3 ADD SWAP1 POP SWAP2 SWAP1 POP JUMP JUMPDEST PUSH1 0x0 PUSH2 0x10B0 PUSH1 0x26 DUP4 PUSH2 0x145B JUMP JUMPDEST SWAP2 POP PUSH2 0x10BB DUP3 PUSH2 0x163F JUMP JUMPDEST PUSH1 0x40 DUP3 ADD SWAP1 POP SWAP2 SWAP1 POP JUMP JUMPDEST PUSH1 0x0 PUSH2 0x10D3 PUSH1 0x22 DUP4 PUSH2 0x145B JUMP JUMPDEST SWAP2 POP PUSH2 0x10DE DUP3 PUSH2 0x168E JUMP JUMPDEST PUSH1 0x40 DUP3 ADD SWAP1 POP SWAP2 SWAP1 POP JUMP JUMPDEST PUSH1 0x0 PUSH2 0x10F6 PUSH1 0x14 DUP4 PUSH2 0x145B JUMP JUMPDEST SWAP2 POP PUSH2 0x1101 DUP3 PUSH2 0x16DD JUMP JUMPDEST PUSH1 0x20 DUP3 ADD SWAP1 POP SWAP2 SWAP1 POP JUMP JUMPDEST PUSH1 0x0 PUSH2 0x1119 PUSH1 0x1D DUP4 PUSH2 0x145B JUMP JUMPDEST SWAP2 POP PUSH2 0x1124 DUP3 PUSH2 0x1706 JUMP JUMPDEST PUSH1 0x20 DUP3 ADD SWAP1 POP SWAP2 SWAP1 POP JUMP JUMPDEST PUSH1 0x0 PUSH2 0x113C PUSH1 0x26 DUP4 PUSH2 0x145B JUMP JUMPDEST SWAP2 POP PUSH2 0x1147 DUP3 PUSH2 0x172F JUMP JUMPDEST PUSH1 0x40 DUP3 ADD SWAP1 POP SWAP2 SWAP1 POP JUMP JUMPDEST PUSH1 0x0 PUSH2 0x115F PUSH1 0x20 DUP4 PUSH2 0x145B JUMP JUMPDEST SWAP2 POP PUSH2 0x116A DUP3 PUSH2 0x177E JUMP JUMPDEST PUSH1 0x20 DUP3 ADD SWAP1 POP SWAP2 SWAP1 POP JUMP JUMPDEST PUSH1 0x0 PUSH2 0x1182 PUSH1 0xA DUP4 PUSH2 0x145B JUMP JUMPDEST SWAP2 POP PUSH2 0x118D DUP3 PUSH2 0x17A7 JUMP JUMPDEST PUSH1 0x20 DUP3 ADD SWAP1 POP SWAP2 SWAP1 POP JUMP JUMPDEST PUSH1 0x0 PUSH2 0x11A5 PUSH1 0x25 DUP4 PUSH2 0x145B JUMP JUMPDEST SWAP2 POP PUSH2 0x11B0 DUP3 PUSH2 0x17D0 JUMP JUMPDEST PUSH1 0x40 DUP3 ADD SWAP1 POP SWAP2 SWAP1 POP JUMP JUMPDEST PUSH1 0x0 PUSH2 0x11C8 PUSH1 0x24 DUP4 PUSH2 0x145B JUMP JUMPDEST SWAP2 POP PUSH2 0x11D3 DUP3 PUSH2 0x181F JUMP JUMPDEST PUSH1 0x40 DUP3 ADD SWAP1 POP SWAP2 SWAP1 POP JUMP JUMPDEST PUSH1 0x0 PUSH2 0x11EB PUSH1 0x1D DUP4 PUSH2 0x145B JUMP JUMPDEST SWAP2 POP PUSH2 0x11F6 DUP3 PUSH2 0x186E JUMP JUMPDEST PUSH1 0x20 DUP3 ADD SWAP1 POP SWAP2 SWAP1 POP JUMP JUMPDEST PUSH1 0x0 PUSH2 0x120E PUSH1 0x25 DUP4 PUSH2 0x145B JUMP JUMPDEST SWAP2 POP PUSH2 0x1219 DUP3 PUSH2 0x1897 JUMP JUMPDEST PUSH1 0x40 DUP3 ADD SWAP1 POP SWAP2 SWAP1 POP JUMP JUMPDEST PUSH2 0x122D DUP2 PUSH2 0x1500 JUMP JUMPDEST DUP3 MSTORE POP POP JUMP JUMPDEST PUSH2 0x123C DUP2 PUSH2 0x150A JUMP JUMPDEST DUP3 MSTORE POP POP JUMP JUMPDEST PUSH1 0x0 PUSH1 0x20 DUP3 ADD SWAP1 POP PUSH2 0x1257 PUSH1 0x0 DUP4 ADD DUP5 PUSH2 0x1029 JUMP JUMPDEST SWAP3 SWAP2 POP POP JUMP JUMPDEST PUSH1 0x0 PUSH1 0x20 DUP3 ADD SWAP1 POP PUSH2 0x1272 PUSH1 0x0 DUP4 ADD DUP5 PUSH2 0x1038 JUMP JUMPDEST SWAP3 SWAP2 POP POP JUMP JUMPDEST PUSH1 0x0 PUSH1 0x20 DUP3 ADD SWAP1 POP DUP2 DUP2 SUB PUSH1 0x0 DUP4 ADD MSTORE PUSH2 0x1292 DUP2 DUP5 PUSH2 0x1047 JUMP JUMPDEST SWAP1 POP SWAP3 SWAP2 POP POP JUMP JUMPDEST PUSH1 0x0 PUSH1 0x20 DUP3 ADD SWAP1 POP DUP2 DUP2 SUB PUSH1 0x0 DUP4 ADD MSTORE PUSH2 0x12B3 DUP2 PUSH2 0x1080 JUMP JUMPDEST SWAP1 POP SWAP2 SWAP1 POP JUMP JUMPDEST PUSH1 0x0 PUSH1 0x20 DUP3 ADD SWAP1 POP DUP2 DUP2 SUB PUSH1 0x0 DUP4 ADD MSTORE PUSH2 0x12D3 DUP2 PUSH2 0x10A3 JUMP JUMPDEST SWAP1 POP SWAP2 SWAP1 POP JUMP JUMPDEST PUSH1 0x0 PUSH1 0x20 DUP3 ADD SWAP1 POP DUP2 DUP2 SUB PUSH1 0x0 DUP4 ADD MSTORE PUSH2 0x12F3 DUP2 PUSH2 0x10C6 JUMP JUMPDEST SWAP1 POP SWAP2 SWAP1 POP JUMP JUMPDEST PUSH1 0x0 PUSH1 0x20 DUP3 ADD SWAP1 POP DUP2 DUP2 SUB PUSH1 0x0 DUP4 ADD MSTORE PUSH2 0x1313 DUP2 PUSH2 0x10E9 JUMP JUMPDEST SWAP1 POP SWAP2 SWAP1 POP JUMP JUMPDEST PUSH1 0x0 PUSH1 0x20 DUP3 ADD SWAP1 POP DUP2 DUP2 SUB PUSH1 0x0 DUP4 ADD MSTORE PUSH2 0x1333 DUP2 PUSH2 0x110C JUMP JUMPDEST SWAP1 POP SWAP2 SWAP1 POP JUMP JUMPDEST PUSH1 0x0 PUSH1 0x20 DUP3 ADD SWAP1 POP DUP2 DUP2 SUB PUSH1 0x0 DUP4 ADD MSTORE PUSH2 0x1353 DUP2 PUSH2 0x112F JUMP JUMPDEST SWAP1 POP SWAP2 SWAP1 POP JUMP JUMPDEST PUSH1 0x0 PUSH1 0x20 DUP3 ADD SWAP1 POP DUP2 DUP2 SUB PUSH1 0x0 DUP4 ADD MSTORE PUSH2 0x1373 DUP2 PUSH2 0x1152 JUMP JUMPDEST SWAP1 POP SWAP2 SWAP1 POP JUMP JUMPDEST PUSH1 0x0 PUSH1 0x20 DUP3 ADD SWAP1 POP DUP2 DUP2 SUB PUSH1 0x0 DUP4 ADD MSTORE PUSH2 0x1393 DUP2 PUSH2 0x1175 JUMP JUMPDEST SWAP1 POP SWAP2 SWAP1 POP JUMP JUMPDEST PUSH1 0x0 PUSH1 0x20 DUP3 ADD SWAP1 POP DUP2 DUP2 SUB PUSH1 0x0 DUP4 ADD MSTORE PUSH2 0x13B3 DUP2 PUSH2 0x1198 JUMP JUMPDEST SWAP1 POP SWAP2 SWAP1 POP JUMP JUMPDEST PUSH1 0x0 PUSH1 0x20 DUP3 ADD SWAP1 POP DUP2 DUP2 SUB PUSH1 0x0 DUP4 ADD MSTORE PUSH2 0x13D3 DUP2 PUSH2 0x11BB JUMP JUMPDEST SWAP1 POP SWAP2 SWAP1 POP JUMP JUMPDEST PUSH1 0x0 PUSH1 0x20 DUP3 ADD SWAP1 POP DUP2 DUP2 SUB PUSH1 0x0 DUP4 ADD MSTORE PUSH2 0x13F3 DUP2 PUSH2 0x11DE JUMP JUMPDEST SWAP1 POP SWAP2 SWAP1 POP JUMP JUMPDEST PUSH1 0x0 PUSH1 0x20 DUP3 ADD SWAP1 POP DUP2 DUP2 SUB PUSH1 0x0 DUP4 ADD MSTORE PUSH2 0x1413 DUP2 PUSH2 0x1201 JUMP JUMPDEST SWAP1 POP SWAP2 SWAP1 POP JUMP JUMPDEST PUSH1 0x0 PUSH1 0x20 DUP3 ADD SWAP1 POP PUSH2 0x142F PUSH1 0x0 DUP4 ADD DUP5 PUSH2 0x1224 JUMP JUMPDEST SWAP3 SWAP2 POP POP JUMP JUMPDEST PUSH1 0x0 PUSH1 0x20 DUP3 ADD SWAP1 POP PUSH2 0x144A PUSH1 0x0 DUP4 ADD DUP5 PUSH2 0x1233 JUMP JUMPDEST SWAP3 SWAP2 POP POP JUMP JUMPDEST PUSH1 0x0 DUP2 MLOAD SWAP1 POP SWAP2 SWAP1 POP JUMP JUMPDEST PUSH1 0x0 DUP3 DUP3 MSTORE PUSH1 0x20 DUP3 ADD SWAP1 POP SWAP3 SWAP2 POP POP JUMP JUMPDEST PUSH1 0x0 PUSH2 0x1477 DUP3 PUSH2 0x1500 JUMP JUMPDEST SWAP2 POP PUSH2 0x1482 DUP4 PUSH2 0x1500 JUMP JUMPDEST SWAP3 POP DUP3 PUSH32 0xFFFFFFFFFFFFFFFFFFFFFFFFFFFFFFFFFFFFFFFFFFFFFFFFFFFFFFFFFFFFFFFF SUB DUP3 GT ISZERO PUSH2 0x14B7 JUMPI PUSH2 0x14B6 PUSH2 0x157C JUMP JUMPDEST JUMPDEST DUP3 DUP3 ADD SWAP1 POP SWAP3 SWAP2 POP POP JUMP JUMPDEST PUSH1 0x0 PUSH2 0x14CD DUP3 PUSH2 0x14E0 JUMP JUMPDEST SWAP1 POP SWAP2 SWAP1 POP JUMP JUMPDEST PUSH1 0x0 DUP2 ISZERO ISZERO SWAP1 POP SWAP2 SWAP1 POP JUMP JUMPDEST PUSH1 0x0 PUSH20 0xFFFFFFFFFFFFFFFFFFFFFFFFFFFFFFFFFFFFFFFF DUP3 AND SWAP1 POP SWAP2 SWAP1 POP JUMP JUMPDEST PUSH1 0x0 DUP2 SWAP1 POP SWAP2 SWAP1 POP JUMP JUMPDEST PUSH1 0x0 PUSH1 0xFF DUP3 AND SWAP1 POP SWAP2 SWAP1 POP JUMP JUMPDEST PUSH1 0x0 JUMPDEST DUP4 DUP2 LT ISZERO PUSH2 0x1535 JUMPI DUP1 DUP3 ADD MLOAD DUP2 DUP5 ADD MSTORE PUSH1 0x20 DUP2 ADD SWAP1 POP PUSH2 0x151A JUMP JUMPDEST DUP4 DUP2 GT ISZERO PUSH2 0x1544 JUMPI PUSH1 0x0 DUP5 DUP5 ADD MSTORE JUMPDEST POP POP POP POP JUMP JUMPDEST PUSH1 0x0 PUSH1 0x2 DUP3 DIV SWAP1 POP PUSH1 0x1 DUP3 AND DUP1 PUSH2 0x1562 JUMPI PUSH1 0x7F DUP3 AND SWAP2 POP JUMPDEST PUSH1 0x20 DUP3 LT DUP2 EQ ISZERO PUSH2 0x1576 JUMPI PUSH2 0x1575 PUSH2 0x15AB JUMP JUMPDEST JUMPDEST POP SWAP2 SWAP1 POP JUMP JUMPDEST PUSH32 0x4E487B7100000000000000000000000000000000000000000000000000000000 PUSH1 0x0 MSTORE PUSH1 0x11 PUSH1 0x4 MSTORE PUSH1 0x24 PUSH1 0x0 REVERT JUMPDEST PUSH32 0x4E487B7100000000000000000000000000000000000000000000000000000000 PUSH1 0x0 MSTORE PUSH1 0x22 PUSH1 0x4 MSTORE PUSH1 0x24 PUSH1 0x0 REVERT JUMPDEST PUSH1 0x0 DUP1 REVERT JUMPDEST PUSH1 0x0 PUSH1 0x1F NOT PUSH1 0x1F DUP4 ADD AND SWAP1 POP SWAP2 SWAP1 POP JUMP JUMPDEST PUSH32 0x45524332303A207472616E7366657220746F20746865207A65726F2061646472 PUSH1 0x0 DUP3 ADD MSTORE PUSH32 0x6573730000000000000000000000000000000000000000000000000000000000 PUSH1 0x20 DUP3 ADD MSTORE POP JUMP JUMPDEST PUSH32 0x4F776E61626C653A206E6577206F776E657220697320746865207A65726F2061 PUSH1 0x0 DUP3 ADD MSTORE PUSH32 0x6464726573730000000000000000000000000000000000000000000000000000 PUSH1 0x20 DUP3 ADD MSTORE POP JUMP JUMPDEST PUSH32 0x45524332303A20617070726F766520746F20746865207A65726F206164647265 PUSH1 0x0 DUP3 ADD MSTORE PUSH32 0x7373000000000000000000000000000000000000000000000000000000000000 PUSH1 0x20 DUP3 ADD MSTORE POP JUMP JUMPDEST PUSH32 0x5472616E7366657220776173204C6F636B656421000000000000000000000000 PUSH1 0x0 DUP3 ADD MSTORE POP JUMP JUMPDEST PUSH32 0x45524332303A20696E73756666696369656E7420616C6C6F77616E6365000000 PUSH1 0x0 DUP3 ADD MSTORE POP JUMP JUMPDEST PUSH32 0x45524332303A207472616E7366657220616D6F756E7420657863656564732062 PUSH1 0x0 DUP3 ADD MSTORE PUSH32 0x616C616E63650000000000000000000000000000000000000000000000000000 PUSH1 0x20 DUP3 ADD MSTORE POP JUMP JUMPDEST PUSH32 0x4F776E61626C653A2063616C6C6572206973206E6F7420746865206F776E6572 PUSH1 0x0 DUP3 ADD MSTORE POP JUMP JUMPDEST PUSH32 0x54696D65204572726F7200000000000000000000000000000000000000000000 PUSH1 0x0 DUP3 ADD MSTORE POP JUMP JUMPDEST PUSH32 0x45524332303A207472616E736665722066726F6D20746865207A65726F206164 PUSH1 0x0 DUP3 ADD MSTORE PUSH32 0x6472657373000000000000000000000000000000000000000000000000000000 PUSH1 0x20 DUP3 ADD MSTORE POP JUMP JUMPDEST PUSH32 0x45524332303A20617070726F76652066726F6D20746865207A65726F20616464 PUSH1 0x0 DUP3 ADD MSTORE PUSH32 0x7265737300000000000000000000000000000000000000000000000000000000 PUSH1 0x20 DUP3 ADD MSTORE POP JUMP JUMPDEST PUSH32 0x54686973206163636F756E742063616E6E6F74207472616E7366657221000000 PUSH1 0x0 DUP3 ADD MSTORE POP JUMP JUMPDEST PUSH32 0x45524332303A2064656372656173656420616C6C6F77616E63652062656C6F77 PUSH1 0x0 DUP3 ADD MSTORE PUSH32 0x207A65726F000000000000000000000000000000000000000000000000000000 PUSH1 0x20 DUP3 ADD MSTORE POP JUMP JUMPDEST PUSH2 0x18EF DUP2 PUSH2 0x14C2 JUMP JUMPDEST DUP2 EQ PUSH2 0x18FA JUMPI PUSH1 0x0 DUP1 REVERT JUMPDEST POP JUMP JUMPDEST PUSH2 0x1906 DUP2 PUSH2 0x1500 JUMP JUMPDEST DUP2 EQ PUSH2 0x1911 JUMPI PUSH1 0x0 DUP1 REVERT JUMPDEST POP JUMP INVALID LOG2 PUSH5 0x6970667358 0x22 SLT KECCAK256 SWAP12 COINBASE 0xCB 0xC9 SELFBALANCE PUSH3 0x2FE3DC SWAP12 0xA5 0xB5 0x2F 0x2B PUSH3 0xF2A9EB 0xB0 0xB8 0xE7 0x28 ISZERO JUMP STATICCALL 0x4E SIGNEXTEND 0xAD PUSH7 0x28CBAD64736F6C PUSH4 0x43000807 STOP CALLER "
				},
				"gasEstimates": {
					"creation": {
						"codeDepositCost": "1294800",
						"executionCost": "infinite",
						"totalCost": "infinite"
					},
					"external": {
						"allowance(address,address)": "infinite",
						"approve(address,uint256)": "infinite",
						"balanceOf(address)": "2908",
						"decimals()": "366",
						"decreaseAllowance(address,uint256)": "infinite",
						"increaseAllowance(address,uint256)": "infinite",
						"isLocked()": "2543",
						"name()": "infinite",
						"owner()": "2567",
						"renounceOwnership()": "30487",
						"setLock()": "26947",
						"symbol()": "infinite",
						"timeLock()": "2495",
						"totalSupply()": "2505",
						"transfer(address,uint256)": "infinite",
						"transferFrom(address,address,uint256)": "infinite",
						"transferOwnership(address)": "30857"
					}
				},
				"methodIdentifiers": {
					"allowance(address,address)": "dd62ed3e",
					"approve(address,uint256)": "095ea7b3",
					"balanceOf(address)": "70a08231",
					"decimals()": "313ce567",
					"decreaseAllowance(address,uint256)": "a457c2d7",
					"increaseAllowance(address,uint256)": "39509351",
					"isLocked()": "a4e2d634",
					"name()": "06fdde03",
					"owner()": "8da5cb5b",
					"renounceOwnership()": "715018a6",
					"setLock()": "7aba6f37",
					"symbol()": "95d89b41",
					"timeLock()": "d085835a",
					"totalSupply()": "18160ddd",
					"transfer(address,uint256)": "a9059cbb",
					"transferFrom(address,address,uint256)": "23b872dd",
					"transferOwnership(address)": "f2fde38b"
				}
			},
			"storageLayout": {
				"storage": [
					{
						"astId": 128,
						"contract": "contracts/21_Lock.sol:MyChain",
						"label": "_balances",
						"offset": 0,
						"slot": "0",
						"type": "t_mapping(t_address,t_uint256)"
					},
					{
						"astId": 134,
						"contract": "contracts/21_Lock.sol:MyChain",
						"label": "_allowances",
						"offset": 0,
						"slot": "1",
						"type": "t_mapping(t_address,t_mapping(t_address,t_uint256))"
					},
					{
						"astId": 136,
						"contract": "contracts/21_Lock.sol:MyChain",
						"label": "_totalSupply",
						"offset": 0,
						"slot": "2",
						"type": "t_uint256"
					},
					{
						"astId": 138,
						"contract": "contracts/21_Lock.sol:MyChain",
						"label": "_name",
						"offset": 0,
						"slot": "3",
						"type": "t_string_storage"
					},
					{
						"astId": 140,
						"contract": "contracts/21_Lock.sol:MyChain",
						"label": "_symbol",
						"offset": 0,
						"slot": "4",
						"type": "t_string_storage"
					},
					{
						"astId": 7,
						"contract": "contracts/21_Lock.sol:MyChain",
						"label": "_owner",
						"offset": 0,
						"slot": "5",
						"type": "t_address"
					},
					{
						"astId": 834,
						"contract": "contracts/21_Lock.sol:MyChain",
						"label": "isLocked",
						"offset": 20,
						"slot": "5",
						"type": "t_bool"
					},
					{
						"astId": 840,
						"contract": "contracts/21_Lock.sol:MyChain",
						"label": "timeLock",
						"offset": 0,
						"slot": "6",
						"type": "t_uint256"
					}
				],
				"types": {
					"t_address": {
						"encoding": "inplace",
						"label": "address",
						"numberOfBytes": "20"
					},
					"t_bool": {
						"encoding": "inplace",
						"label": "bool",
						"numberOfBytes": "1"
					},
					"t_mapping(t_address,t_mapping(t_address,t_uint256))": {
						"encoding": "mapping",
						"key": "t_address",
						"label": "mapping(address => mapping(address => uint256))",
						"numberOfBytes": "32",
						"value": "t_mapping(t_address,t_uint256)"
					},
					"t_mapping(t_address,t_uint256)": {
						"encoding": "mapping",
						"key": "t_address",
						"label": "mapping(address => uint256)",
						"numberOfBytes": "32",
						"value": "t_uint256"
					},
					"t_string_storage": {
						"encoding": "bytes",
						"label": "string",
						"numberOfBytes": "32"
					},
					"t_uint256": {
						"encoding": "inplace",
						"label": "uint256",
						"numberOfBytes": "32"
					}
				}
			},
			"userdoc": {
				"kind": "user",
				"methods": {},
				"version": 1
			}
		}
	}
}