{
	"contracts/7_EnumStudy.sol": {
		"EnumStudy": {
			"abi": [
				{
					"inputs": [],
					"name": "getStatus",
					"outputs": [
						{
							"internalType": "enum EnumStudy.Status",
							"name": "",
							"type": "uint8"
						}
					],
					"stateMutability": "view",
					"type": "function"
				}
			],
			"devdoc": {
				"kind": "dev",
				"methods": {},
				"version": 1
			},
			"evm": {
				"assembly": "    /* \"contracts/7_EnumStudy.sol\":70:252  contract EnumStudy{... */\n  mstore(0x40, 0x80)\n  callvalue\n  dup1\n  iszero\n  tag_1\n  jumpi\n  0x00\n  dup1\n  revert\ntag_1:\n  pop\n  dataSize(sub_0)\n  dup1\n  dataOffset(sub_0)\n  0x00\n  codecopy\n  0x00\n  return\nstop\n\nsub_0: assembly {\n        /* \"contracts/7_EnumStudy.sol\":70:252  contract EnumStudy{... */\n      mstore(0x40, 0x80)\n      callvalue\n      dup1\n      iszero\n      tag_1\n      jumpi\n      0x00\n      dup1\n      revert\n    tag_1:\n      pop\n      jumpi(tag_2, lt(calldatasize, 0x04))\n      shr(0xe0, calldataload(0x00))\n      dup1\n      0x4e69d560\n      eq\n      tag_3\n      jumpi\n    tag_2:\n      0x00\n      dup1\n      revert\n        /* \"contracts/7_EnumStudy.sol\":163:243  function getStatus() view external returns(Status){... */\n    tag_3:\n      tag_4\n      tag_5\n      jump\t// in\n    tag_4:\n      mload(0x40)\n      tag_6\n      swap2\n      swap1\n      tag_7\n      jump\t// in\n    tag_6:\n      mload(0x40)\n      dup1\n      swap2\n      sub\n      swap1\n      return\n    tag_5:\n        /* \"contracts/7_EnumStudy.sol\":206:212  Status */\n      0x00\n        /* \"contracts/7_EnumStudy.sol\":230:236  status */\n      dup1\n      0x00\n      swap1\n      sload\n      swap1\n      0x0100\n      exp\n      swap1\n      div\n      0xff\n      and\n        /* \"contracts/7_EnumStudy.sol\":223:236  return status */\n      swap1\n      pop\n        /* \"contracts/7_EnumStudy.sol\":163:243  function getStatus() view external returns(Status){... */\n      swap1\n      jump\t// out\n        /* \"#utility.yul\":7:150   */\n    tag_10:\n        /* \"#utility.yul\":100:143   */\n      tag_12\n        /* \"#utility.yul\":137:142   */\n      dup2\n        /* \"#utility.yul\":100:143   */\n      tag_13\n      jump\t// in\n    tag_12:\n        /* \"#utility.yul\":95:98   */\n      dup3\n        /* \"#utility.yul\":88:144   */\n      mstore\n        /* \"#utility.yul\":7:150   */\n      pop\n      pop\n      jump\t// out\n        /* \"#utility.yul\":156:390   */\n    tag_7:\n        /* \"#utility.yul\":255:259   */\n      0x00\n        /* \"#utility.yul\":293:295   */\n      0x20\n        /* \"#utility.yul\":282:291   */\n      dup3\n        /* \"#utility.yul\":278:296   */\n      add\n        /* \"#utility.yul\":270:296   */\n      swap1\n      pop\n        /* \"#utility.yul\":306:383   */\n      tag_15\n        /* \"#utility.yul\":380:381   */\n      0x00\n        /* \"#utility.yul\":369:378   */\n      dup4\n        /* \"#utility.yul\":365:382   */\n      add\n        /* \"#utility.yul\":356:362   */\n      dup5\n        /* \"#utility.yul\":306:383   */\n      tag_10\n      jump\t// in\n    tag_15:\n        /* \"#utility.yul\":156:390   */\n      swap3\n      swap2\n      pop\n      pop\n      jump\t// out\n        /* \"#utility.yul\":396:523   */\n    tag_16:\n        /* \"#utility.yul\":441:448   */\n      0x00\n        /* \"#utility.yul\":470:475   */\n      dup2\n        /* \"#utility.yul\":459:475   */\n      swap1\n      pop\n        /* \"#utility.yul\":476:517   */\n      tag_18\n        /* \"#utility.yul\":511:516   */\n      dup3\n        /* \"#utility.yul\":476:517   */\n      tag_19\n      jump\t// in\n    tag_18:\n        /* \"#utility.yul\":396:523   */\n      swap2\n      swap1\n      pop\n      jump\t// out\n        /* \"#utility.yul\":529:656   */\n    tag_13:\n        /* \"#utility.yul\":585:594   */\n      0x00\n        /* \"#utility.yul\":618:650   */\n      tag_21\n        /* \"#utility.yul\":644:649   */\n      dup3\n        /* \"#utility.yul\":618:650   */\n      tag_16\n      jump\t// in\n    tag_21:\n        /* \"#utility.yul\":605:650   */\n      swap1\n      pop\n        /* \"#utility.yul\":529:656   */\n      swap2\n      swap1\n      pop\n      jump\t// out\n        /* \"#utility.yul\":662:842   */\n    tag_22:\n        /* \"#utility.yul\":710:787   */\n      0x4e487b7100000000000000000000000000000000000000000000000000000000\n        /* \"#utility.yul\":707:708   */\n      0x00\n        /* \"#utility.yul\":700:788   */\n      mstore\n        /* \"#utility.yul\":807:811   */\n      0x21\n        /* \"#utility.yul\":804:805   */\n      0x04\n        /* \"#utility.yul\":797:812   */\n      mstore\n        /* \"#utility.yul\":831:835   */\n      0x24\n        /* \"#utility.yul\":828:829   */\n      0x00\n        /* \"#utility.yul\":821:836   */\n      revert\n        /* \"#utility.yul\":848:961   */\n    tag_19:\n        /* \"#utility.yul\":929:930   */\n      0x02\n        /* \"#utility.yul\":922:927   */\n      dup2\n        /* \"#utility.yul\":919:931   */\n      lt\n        /* \"#utility.yul\":909:955   */\n      tag_25\n      jumpi\n        /* \"#utility.yul\":935:953   */\n      tag_26\n      tag_22\n      jump\t// in\n    tag_26:\n        /* \"#utility.yul\":909:955   */\n    tag_25:\n        /* \"#utility.yul\":848:961   */\n      pop\n      jump\t// out\n\n    auxdata: 0xa26469706673582212205d621844465d05c41e12b022a9cf1c7e7d682c79fefb99a83de667d55efb355964736f6c63430008070033\n}\n",
				"bytecode": {
					"linkReferences": {},
					"object": "608060405234801561001057600080fd5b5061011a806100206000396000f3fe6080604052348015600f57600080fd5b506004361060285760003560e01c80634e69d56014602d575b600080fd5b60336047565b604051603e9190606a565b60405180910390f35b60008060009054906101000a900460ff16905090565b6064816094565b82525050565b6000602082019050607d6000830184605d565b92915050565b6000819050608f8260d3565b919050565b6000609d826083565b9050919050565b7f4e487b7100000000000000000000000000000000000000000000000000000000600052602160045260246000fd5b6002811060e15760e060a4565b5b5056fea26469706673582212205d621844465d05c41e12b022a9cf1c7e7d682c79fefb99a83de667d55efb355964736f6c63430008070033",
					"opcodes": "PUSH1 0x80 PUSH1 0x40 MSTORE CALLVALUE DUP1 ISZERO PUSH2 0x10 JUMPI PUSH1 0x0 DUP1 REVERT JUMPDEST POP PUSH2 0x11A DUP1 PUSH2 0x20 PUSH1 0x0 CODECOPY PUSH1 0x0 RETURN INVALID PUSH1 0x80 PUSH1 0x40 MSTORE CALLVALUE DUP1 ISZERO PUSH1 0xF JUMPI PUSH1 0x0 DUP1 REVERT JUMPDEST POP PUSH1 0x4 CALLDATASIZE LT PUSH1 0x28 JUMPI PUSH1 0x0 CALLDATALOAD PUSH1 0xE0 SHR DUP1 PUSH4 0x4E69D560 EQ PUSH1 0x2D JUMPI JUMPDEST PUSH1 0x0 DUP1 REVERT JUMPDEST PUSH1 0x33 PUSH1 0x47 JUMP JUMPDEST PUSH1 0x40 MLOAD PUSH1 0x3E SWAP2 SWAP1 PUSH1 0x6A JUMP JUMPDEST PUSH1 0x40 MLOAD DUP1 SWAP2 SUB SWAP1 RETURN JUMPDEST PUSH1 0x0 DUP1 PUSH1 0x0 SWAP1 SLOAD SWAP1 PUSH2 0x100 EXP SWAP1 DIV PUSH1 0xFF AND SWAP1 POP SWAP1 JUMP JUMPDEST PUSH1 0x64 DUP2 PUSH1 0x94 JUMP JUMPDEST DUP3 MSTORE POP POP JUMP JUMPDEST PUSH1 0x0 PUSH1 0x20 DUP3 ADD SWAP1 POP PUSH1 0x7D PUSH1 0x0 DUP4 ADD DUP5 PUSH1 0x5D JUMP JUMPDEST SWAP3 SWAP2 POP POP JUMP JUMPDEST PUSH1 0x0 DUP2 SWAP1 POP PUSH1 0x8F DUP3 PUSH1 0xD3 JUMP JUMPDEST SWAP2 SWAP1 POP JUMP JUMPDEST PUSH1 0x0 PUSH1 0x9D DUP3 PUSH1 0x83 JUMP JUMPDEST SWAP1 POP SWAP2 SWAP1 POP JUMP JUMPDEST PUSH32 0x4E487B7100000000000000000000000000000000000000000000000000000000 PUSH1 0x0 MSTORE PUSH1 0x21 PUSH1 0x4 MSTORE PUSH1 0x24 PUSH1 0x0 REVERT JUMPDEST PUSH1 0x2 DUP2 LT PUSH1 0xE1 JUMPI PUSH1 0xE0 PUSH1 0xA4 JUMP JUMPDEST JUMPDEST POP JUMP INVALID LOG2 PUSH5 0x6970667358 0x22 SLT KECCAK256 0x5D PUSH3 0x184446 0x5D SDIV 0xC4 0x1E SLT 0xB0 0x22 0xA9 0xCF SHR PUSH31 0x7D682C79FEFB99A83DE667D55EFB355964736F6C6343000807003300000000 "
				},
				"gasEstimates": {
					"creation": {
						"codeDepositCost": "56400",
						"executionCost": "105",
						"totalCost": "56505"
					},
					"external": {
						"getStatus()": "2546"
					}
				},
				"methodIdentifiers": {
					"getStatus()": "4e69d560"
				}
			},
			"storageLayout": {
				"storage": [
					{
						"astId": 7,
						"contract": "contracts/7_EnumStudy.sol:EnumStudy",
						"label": "status",
						"offset": 0,
						"slot": "0",
						"type": "t_enum(Status)4"
					}
				],
				"types": {
					"t_enum(Status)4": {
						"encoding": "inplace",
						"label": "enum EnumStudy.Status",
						"numberOfBytes": "1"
					}
				}
			},
			"userdoc": {
				"kind": "user",
				"methods": {},
				"version": 1
			}
		}
	}
}