{
	"contracts/8_ErrorStudy.sol": {
		"ErrorStudy": {
			"abi": [
				{
					"inputs": [
						{
							"internalType": "string",
							"name": "error",
							"type": "string"
						}
					],
					"name": "Unauthorized",
					"type": "error"
				},
				{
					"inputs": [],
					"name": "withdraw",
					"outputs": [],
					"stateMutability": "nonpayable",
					"type": "function"
				}
			],
			"devdoc": {
				"kind": "dev",
				"methods": {},
				"version": 1
			},
			"evm": {
				"assembly": "    /* \"contracts/8_ErrorStudy.sol\":105:360  contract ErrorStudy{... */\n  mstore(0x40, 0x80)\n    /* \"contracts/8_ErrorStudy.sol\":162:172  msg.sender */\n  caller\n    /* \"contracts/8_ErrorStudy.sol\":130:173  address payable owner = payable(msg.sender) */\n  0x00\n  dup1\n  0x0100\n  exp\n  dup2\n  sload\n  dup2\n  0xffffffffffffffffffffffffffffffffffffffff\n  mul\n  not\n  and\n  swap1\n  dup4\n  0xffffffffffffffffffffffffffffffffffffffff\n  and\n  mul\n  or\n  swap1\n  sstore\n  pop\n    /* \"contracts/8_ErrorStudy.sol\":105:360  contract ErrorStudy{... */\n  callvalue\n  dup1\n  iszero\n  tag_1\n  jumpi\n  0x00\n  dup1\n  revert\ntag_1:\n  pop\n  dataSize(sub_0)\n  dup1\n  dataOffset(sub_0)\n  0x00\n  codecopy\n  0x00\n  return\nstop\n\nsub_0: assembly {\n        /* \"contracts/8_ErrorStudy.sol\":105:360  contract ErrorStudy{... */\n      mstore(0x40, 0x80)\n      callvalue\n      dup1\n      iszero\n      tag_1\n      jumpi\n      0x00\n      dup1\n      revert\n    tag_1:\n      pop\n      jumpi(tag_2, lt(calldatasize, 0x04))\n      shr(0xe0, calldataload(0x00))\n      dup1\n      0x3ccfd60b\n      eq\n      tag_3\n      jumpi\n    tag_2:\n      0x00\n      dup1\n      revert\n        /* \"contracts/8_ErrorStudy.sol\":180:358  function withdraw() public{... */\n    tag_3:\n      tag_4\n      tag_5\n      jump\t// in\n    tag_4:\n      stop\n    tag_5:\n        /* \"contracts/8_ErrorStudy.sol\":231:236  owner */\n      0x00\n      dup1\n      sload\n      swap1\n      0x0100\n      exp\n      swap1\n      div\n      0xffffffffffffffffffffffffffffffffffffffff\n      and\n        /* \"contracts/8_ErrorStudy.sol\":219:236  msg.sender!=owner */\n      0xffffffffffffffffffffffffffffffffffffffff\n      and\n        /* \"contracts/8_ErrorStudy.sol\":219:229  msg.sender */\n      caller\n        /* \"contracts/8_ErrorStudy.sol\":219:236  msg.sender!=owner */\n      0xffffffffffffffffffffffffffffffffffffffff\n      and\n      eq\n        /* \"contracts/8_ErrorStudy.sol\":216:305  if(msg.sender!=owner){... */\n      tag_7\n      jumpi\n        /* \"contracts/8_ErrorStudy.sol\":258:294  Unauthorized({error:'Unauthorized'}) */\n      mload(0x40)\n      0x973d02cb00000000000000000000000000000000000000000000000000000000\n      dup2\n      mstore\n      0x04\n      add\n      tag_8\n      swap1\n      tag_9\n      jump\t// in\n    tag_8:\n      mload(0x40)\n      dup1\n      swap2\n      sub\n      swap1\n      revert\n        /* \"contracts/8_ErrorStudy.sol\":216:305  if(msg.sender!=owner){... */\n    tag_7:\n        /* \"contracts/8_ErrorStudy.sol\":314:319  owner */\n      0x00\n      dup1\n      sload\n      swap1\n      0x0100\n      exp\n      swap1\n      div\n      0xffffffffffffffffffffffffffffffffffffffff\n      and\n        /* \"contracts/8_ErrorStudy.sol\":314:328  owner.transfer */\n      0xffffffffffffffffffffffffffffffffffffffff\n      and\n        /* \"contracts/8_ErrorStudy.sol\":314:351  owner.transfer(address(this).balance) */\n      0x08fc\n        /* \"contracts/8_ErrorStudy.sol\":329:350  address(this).balance */\n      selfbalance\n        /* \"contracts/8_ErrorStudy.sol\":314:351  owner.transfer(address(this).balance) */\n      swap1\n      dup2\n      iszero\n      mul\n      swap1\n      mload(0x40)\n      0x00\n      mload(0x40)\n      dup1\n      dup4\n      sub\n      dup2\n      dup6\n      dup9\n      dup9\n      call\n      swap4\n      pop\n      pop\n      pop\n      pop\n      iszero\n      dup1\n      iszero\n      tag_11\n      jumpi\n      returndatasize\n      0x00\n      dup1\n      returndatacopy\n      revert(0x00, returndatasize)\n    tag_11:\n      pop\n        /* \"contracts/8_ErrorStudy.sol\":180:358  function withdraw() public{... */\n      jump\t// out\n        /* \"#utility.yul\":7:373   */\n    tag_13:\n        /* \"#utility.yul\":149:152   */\n      0x00\n        /* \"#utility.yul\":170:237   */\n      tag_15\n        /* \"#utility.yul\":234:236   */\n      0x0c\n        /* \"#utility.yul\":229:232   */\n      dup4\n        /* \"#utility.yul\":170:237   */\n      tag_16\n      jump\t// in\n    tag_15:\n        /* \"#utility.yul\":163:237   */\n      swap2\n      pop\n        /* \"#utility.yul\":246:339   */\n      tag_17\n        /* \"#utility.yul\":335:338   */\n      dup3\n        /* \"#utility.yul\":246:339   */\n      tag_18\n      jump\t// in\n    tag_17:\n        /* \"#utility.yul\":364:366   */\n      0x20\n        /* \"#utility.yul\":359:362   */\n      dup3\n        /* \"#utility.yul\":355:367   */\n      add\n        /* \"#utility.yul\":348:367   */\n      swap1\n      pop\n        /* \"#utility.yul\":7:373   */\n      swap2\n      swap1\n      pop\n      jump\t// out\n        /* \"#utility.yul\":379:798   */\n    tag_9:\n        /* \"#utility.yul\":545:549   */\n      0x00\n        /* \"#utility.yul\":583:585   */\n      0x20\n        /* \"#utility.yul\":572:581   */\n      dup3\n        /* \"#utility.yul\":568:586   */\n      add\n        /* \"#utility.yul\":560:586   */\n      swap1\n      pop\n        /* \"#utility.yul\":632:641   */\n      dup2\n        /* \"#utility.yul\":626:630   */\n      dup2\n        /* \"#utility.yul\":622:642   */\n      sub\n        /* \"#utility.yul\":618:619   */\n      0x00\n        /* \"#utility.yul\":607:616   */\n      dup4\n        /* \"#utility.yul\":603:620   */\n      add\n        /* \"#utility.yul\":596:643   */\n      mstore\n        /* \"#utility.yul\":660:791   */\n      tag_20\n        /* \"#utility.yul\":786:790   */\n      dup2\n        /* \"#utility.yul\":660:791   */\n      tag_13\n      jump\t// in\n    tag_20:\n        /* \"#utility.yul\":652:791   */\n      swap1\n      pop\n        /* \"#utility.yul\":379:798   */\n      swap2\n      swap1\n      pop\n      jump\t// out\n        /* \"#utility.yul\":804:973   */\n    tag_16:\n        /* \"#utility.yul\":888:899   */\n      0x00\n        /* \"#utility.yul\":922:928   */\n      dup3\n        /* \"#utility.yul\":917:920   */\n      dup3\n        /* \"#utility.yul\":910:929   */\n      mstore\n        /* \"#utility.yul\":962:966   */\n      0x20\n        /* \"#utility.yul\":957:960   */\n      dup3\n        /* \"#utility.yul\":953:967   */\n      add\n        /* \"#utility.yul\":938:967   */\n      swap1\n      pop\n        /* \"#utility.yul\":804:973   */\n      swap3\n      swap2\n      pop\n      pop\n      jump\t// out\n        /* \"#utility.yul\":979:1141   */\n    tag_18:\n        /* \"#utility.yul\":1119:1133   */\n      0x556e617574686f72697a65640000000000000000000000000000000000000000\n        /* \"#utility.yul\":1115:1116   */\n      0x00\n        /* \"#utility.yul\":1107:1113   */\n      dup3\n        /* \"#utility.yul\":1103:1117   */\n      add\n        /* \"#utility.yul\":1096:1134   */\n      mstore\n        /* \"#utility.yul\":979:1141   */\n      pop\n      jump\t// out\n\n    auxdata: 0xa2646970667358221220099b6ce61a4351a641c4fb8643127a196daaffee80e5614ab6a29d9393d9859364736f6c63430008070033\n}\n",
				"bytecode": {
					"linkReferences": {},
					"object": "6080604052336000806101000a81548173ffffffffffffffffffffffffffffffffffffffff021916908373ffffffffffffffffffffffffffffffffffffffff16021790555034801561005057600080fd5b506101e4806100606000396000f3fe608060405234801561001057600080fd5b506004361061002b5760003560e01c80633ccfd60b14610030575b600080fd5b61003861003a565b005b60008054906101000a900473ffffffffffffffffffffffffffffffffffffffff1673ffffffffffffffffffffffffffffffffffffffff163373ffffffffffffffffffffffffffffffffffffffff16146100c8576040517f973d02cb0000000000000000000000000000000000000000000000000000000081526004016100bf90610154565b60405180910390fd5b60008054906101000a900473ffffffffffffffffffffffffffffffffffffffff1673ffffffffffffffffffffffffffffffffffffffff166108fc479081150290604051600060405180830381858888f1935050505015801561012e573d6000803e3d6000fd5b50565b600061013e600c83610174565b915061014982610185565b602082019050919050565b6000602082019050818103600083015261016d81610131565b9050919050565b600082825260208201905092915050565b7f556e617574686f72697a6564000000000000000000000000000000000000000060008201525056fea2646970667358221220099b6ce61a4351a641c4fb8643127a196daaffee80e5614ab6a29d9393d9859364736f6c63430008070033",
					"opcodes": "PUSH1 0x80 PUSH1 0x40 MSTORE CALLER PUSH1 0x0 DUP1 PUSH2 0x100 EXP DUP2 SLOAD DUP2 PUSH20 0xFFFFFFFFFFFFFFFFFFFFFFFFFFFFFFFFFFFFFFFF MUL NOT AND SWAP1 DUP4 PUSH20 0xFFFFFFFFFFFFFFFFFFFFFFFFFFFFFFFFFFFFFFFF AND MUL OR SWAP1 SSTORE POP CALLVALUE DUP1 ISZERO PUSH2 0x50 JUMPI PUSH1 0x0 DUP1 REVERT JUMPDEST POP PUSH2 0x1E4 DUP1 PUSH2 0x60 PUSH1 0x0 CODECOPY PUSH1 0x0 RETURN INVALID PUSH1 0x80 PUSH1 0x40 MSTORE CALLVALUE DUP1 ISZERO PUSH2 0x10 JUMPI PUSH1 0x0 DUP1 REVERT JUMPDEST POP PUSH1 0x4 CALLDATASIZE LT PUSH2 0x2B JUMPI PUSH1 0x0 CALLDATALOAD PUSH1 0xE0 SHR DUP1 PUSH4 0x3CCFD60B EQ PUSH2 0x30 JUMPI JUMPDEST PUSH1 0x0 DUP1 REVERT JUMPDEST PUSH2 0x38 PUSH2 0x3A JUMP JUMPDEST STOP JUMPDEST PUSH1 0x0 DUP1 SLOAD SWAP1 PUSH2 0x100 EXP SWAP1 DIV PUSH20 0xFFFFFFFFFFFFFFFFFFFFFFFFFFFFFFFFFFFFFFFF AND PUSH20 0xFFFFFFFFFFFFFFFFFFFFFFFFFFFFFFFFFFFFFFFF AND CALLER PUSH20 0xFFFFFFFFFFFFFFFFFFFFFFFFFFFFFFFFFFFFFFFF AND EQ PUSH2 0xC8 JUMPI PUSH1 0x40 MLOAD PUSH32 0x973D02CB00000000000000000000000000000000000000000000000000000000 DUP2 MSTORE PUSH1 0x4 ADD PUSH2 0xBF SWAP1 PUSH2 0x154 JUMP JUMPDEST PUSH1 0x40 MLOAD DUP1 SWAP2 SUB SWAP1 REVERT JUMPDEST PUSH1 0x0 DUP1 SLOAD SWAP1 PUSH2 0x100 EXP SWAP1 DIV PUSH20 0xFFFFFFFFFFFFFFFFFFFFFFFFFFFFFFFFFFFFFFFF AND PUSH20 0xFFFFFFFFFFFFFFFFFFFFFFFFFFFFFFFFFFFFFFFF AND PUSH2 0x8FC SELFBALANCE SWAP1 DUP2 ISZERO MUL SWAP1 PUSH1 0x40 MLOAD PUSH1 0x0 PUSH1 0x40 MLOAD DUP1 DUP4 SUB DUP2 DUP6 DUP9 DUP9 CALL SWAP4 POP POP POP POP ISZERO DUP1 ISZERO PUSH2 0x12E JUMPI RETURNDATASIZE PUSH1 0x0 DUP1 RETURNDATACOPY RETURNDATASIZE PUSH1 0x0 REVERT JUMPDEST POP JUMP JUMPDEST PUSH1 0x0 PUSH2 0x13E PUSH1 0xC DUP4 PUSH2 0x174 JUMP JUMPDEST SWAP2 POP PUSH2 0x149 DUP3 PUSH2 0x185 JUMP JUMPDEST PUSH1 0x20 DUP3 ADD SWAP1 POP SWAP2 SWAP1 POP JUMP JUMPDEST PUSH1 0x0 PUSH1 0x20 DUP3 ADD SWAP1 POP DUP2 DUP2 SUB PUSH1 0x0 DUP4 ADD MSTORE PUSH2 0x16D DUP2 PUSH2 0x131 JUMP JUMPDEST SWAP1 POP SWAP2 SWAP1 POP JUMP JUMPDEST PUSH1 0x0 DUP3 DUP3 MSTORE PUSH1 0x20 DUP3 ADD SWAP1 POP SWAP3 SWAP2 POP POP JUMP JUMPDEST PUSH32 0x556E617574686F72697A65640000000000000000000000000000000000000000 PUSH1 0x0 DUP3 ADD MSTORE POP JUMP INVALID LOG2 PUSH5 0x6970667358 0x22 SLT KECCAK256 MULMOD SWAP12 PUSH13 0xE61A4351A641C4FB8643127A19 PUSH14 0xAAFFEE80E5614AB6A29D9393D985 SWAP4 PUSH5 0x736F6C6343 STOP ADDMOD SMOD STOP CALLER "
				},
				"gasEstimates": {
					"creation": {
						"codeDepositCost": "96800",
						"executionCost": "24413",
						"totalCost": "121213"
					},
					"external": {
						"withdraw()": "infinite"
					}
				},
				"methodIdentifiers": {
					"withdraw()": "3ccfd60b"
				}
			},
			"storageLayout": {
				"storage": [
					{
						"astId": 12,
						"contract": "contracts/8_ErrorStudy.sol:ErrorStudy",
						"label": "owner",
						"offset": 0,
						"slot": "0",
						"type": "t_address_payable"
					}
				],
				"types": {
					"t_address_payable": {
						"encoding": "inplace",
						"label": "address payable",
						"numberOfBytes": "20"
					}
				}
			},
			"userdoc": {
				"kind": "user",
				"methods": {},
				"version": 1
			}
		}
	}
}