{
	"contracts/22_Encode.sol": {
		"A": {
			"abi": [
				{
					"inputs": [
						{
							"internalType": "address",
							"name": "_address",
							"type": "address"
						},
						{
							"internalType": "uint256",
							"name": "_num",
							"type": "uint256"
						},
						{
							"internalType": "string",
							"name": "_message",
							"type": "string"
						}
					],
					"name": "callBFunction",
					"outputs": [
						{
							"internalType": "bool",
							"name": "",
							"type": "bool"
						}
					],
					"stateMutability": "nonpayable",
					"type": "function"
				}
			],
			"devdoc": {
				"kind": "dev",
				"methods": {},
				"version": 1
			},
			"evm": {
				"assembly": "    /* \"contracts/22_Encode.sol\":70:384  contract A{... */\n  mstore(0x40, 0x80)\n  callvalue\n  dup1\n  iszero\n  tag_1\n  jumpi\n  0x00\n  dup1\n  revert\ntag_1:\n  pop\n  dataSize(sub_0)\n  dup1\n  dataOffset(sub_0)\n  0x00\n  codecopy\n  0x00\n  return\nstop\n\nsub_0: assembly {\n        /* \"contracts/22_Encode.sol\":70:384  contract A{... */\n      mstore(0x40, 0x80)\n      callvalue\n      dup1\n      iszero\n      tag_1\n      jumpi\n      0x00\n      dup1\n      revert\n    tag_1:\n      pop\n      jumpi(tag_2, lt(calldatasize, 0x04))\n      shr(0xe0, calldataload(0x00))\n      dup1\n      0x5d0917ce\n      eq\n      tag_3\n      jumpi\n    tag_2:\n      0x00\n      dup1\n      revert\n        /* \"contracts/22_Encode.sol\":87:381  function callBFunction(address _address, uint256 _num, string memory _message) public returns(bool){... */\n    tag_3:\n      tag_4\n      0x04\n      dup1\n      calldatasize\n      sub\n      dup2\n      add\n      swap1\n      tag_5\n      swap2\n      swap1\n      tag_6\n      jump\t// in\n    tag_5:\n      tag_7\n      jump\t// in\n    tag_4:\n      mload(0x40)\n      tag_8\n      swap2\n      swap1\n      tag_9\n      jump\t// in\n    tag_8:\n      mload(0x40)\n      dup1\n      swap2\n      sub\n      swap1\n      return\n    tag_7:\n        /* \"contracts/22_Encode.sol\":181:185  bool */\n      0x00\n        /* \"contracts/22_Encode.sol\":205:215  bytes4 sig */\n      dup1\n        /* \"contracts/22_Encode.sol\":225:262  keccak256(\"bFuntion(uint256,string)\") */\n      0xf3420adc8df3553d49ae031c2c5788814067fbdab7d4cb8013128ada2bd0b22f\n        /* \"contracts/22_Encode.sol\":205:263  bytes4 sig = bytes4(keccak256(\"bFuntion(uint256,string)\")) */\n      swap1\n      pop\n        /* \"contracts/22_Encode.sol\":273:291  bytes memory _bNum */\n      0x00\n        /* \"contracts/22_Encode.sol\":305:309  _num */\n      dup5\n        /* \"contracts/22_Encode.sol\":294:310  abi.encode(_num) */\n      add(0x20, mload(0x40))\n      tag_11\n      swap2\n      swap1\n      tag_12\n      jump\t// in\n    tag_11:\n      mload(0x40)\n      0x20\n      dup2\n      dup4\n      sub\n      sub\n      dup2\n      mstore\n      swap1\n      0x40\n      mstore\n        /* \"contracts/22_Encode.sol\":273:310  bytes memory _bNum = abi.encode(_num) */\n      swap1\n      pop\n        /* \"contracts/22_Encode.sol\":320:342  bytes memory _bMessage */\n      0x00\n        /* \"contracts/22_Encode.sol\":356:364  _message */\n      dup5\n        /* \"contracts/22_Encode.sol\":345:365  abi.encode(_message) */\n      add(0x20, mload(0x40))\n      tag_13\n      swap2\n      swap1\n      tag_14\n      jump\t// in\n    tag_13:\n      mload(0x40)\n      0x20\n      dup2\n      dup4\n      sub\n      sub\n      dup2\n      mstore\n      swap1\n      0x40\n      mstore\n        /* \"contracts/22_Encode.sol\":320:365  bytes memory _bMessage = abi.encode(_message) */\n      swap1\n      pop\n        /* \"contracts/22_Encode.sol\":186:381  {... */\n      pop\n      pop\n      pop\n        /* \"contracts/22_Encode.sol\":87:381  function callBFunction(address _address, uint256 _num, string memory _message) public returns(bool){... */\n      swap4\n      swap3\n      pop\n      pop\n      pop\n      jump\t// out\n        /* \"#utility.yul\":7:419   */\n    tag_16:\n        /* \"#utility.yul\":85:90   */\n      0x00\n        /* \"#utility.yul\":110:176   */\n      tag_18\n        /* \"#utility.yul\":126:175   */\n      tag_19\n        /* \"#utility.yul\":168:174   */\n      dup5\n        /* \"#utility.yul\":126:175   */\n      tag_20\n      jump\t// in\n    tag_19:\n        /* \"#utility.yul\":110:176   */\n      tag_21\n      jump\t// in\n    tag_18:\n        /* \"#utility.yul\":101:176   */\n      swap1\n      pop\n        /* \"#utility.yul\":199:205   */\n      dup3\n        /* \"#utility.yul\":192:197   */\n      dup2\n        /* \"#utility.yul\":185:206   */\n      mstore\n        /* \"#utility.yul\":237:241   */\n      0x20\n        /* \"#utility.yul\":230:235   */\n      dup2\n        /* \"#utility.yul\":226:242   */\n      add\n        /* \"#utility.yul\":275:278   */\n      dup5\n        /* \"#utility.yul\":266:272   */\n      dup5\n        /* \"#utility.yul\":261:264   */\n      dup5\n        /* \"#utility.yul\":257:273   */\n      add\n        /* \"#utility.yul\":254:279   */\n      gt\n        /* \"#utility.yul\":251:363   */\n      iszero\n      tag_22\n      jumpi\n        /* \"#utility.yul\":282:361   */\n      tag_23\n      tag_24\n      jump\t// in\n    tag_23:\n        /* \"#utility.yul\":251:363   */\n    tag_22:\n        /* \"#utility.yul\":372:413   */\n      tag_25\n        /* \"#utility.yul\":406:412   */\n      dup5\n        /* \"#utility.yul\":401:404   */\n      dup3\n        /* \"#utility.yul\":396:399   */\n      dup6\n        /* \"#utility.yul\":372:413   */\n      tag_26\n      jump\t// in\n    tag_25:\n        /* \"#utility.yul\":91:419   */\n      pop\n        /* \"#utility.yul\":7:419   */\n      swap4\n      swap3\n      pop\n      pop\n      pop\n      jump\t// out\n        /* \"#utility.yul\":425:564   */\n    tag_27:\n        /* \"#utility.yul\":471:476   */\n      0x00\n        /* \"#utility.yul\":509:515   */\n      dup2\n        /* \"#utility.yul\":496:516   */\n      calldataload\n        /* \"#utility.yul\":487:516   */\n      swap1\n      pop\n        /* \"#utility.yul\":525:558   */\n      tag_29\n        /* \"#utility.yul\":552:557   */\n      dup2\n        /* \"#utility.yul\":525:558   */\n      tag_30\n      jump\t// in\n    tag_29:\n        /* \"#utility.yul\":425:564   */\n      swap3\n      swap2\n      pop\n      pop\n      jump\t// out\n        /* \"#utility.yul\":584:924   */\n    tag_31:\n        /* \"#utility.yul\":640:645   */\n      0x00\n        /* \"#utility.yul\":689:692   */\n      dup3\n        /* \"#utility.yul\":682:686   */\n      0x1f\n        /* \"#utility.yul\":674:680   */\n      dup4\n        /* \"#utility.yul\":670:687   */\n      add\n        /* \"#utility.yul\":666:693   */\n      slt\n        /* \"#utility.yul\":656:778   */\n      tag_33\n      jumpi\n        /* \"#utility.yul\":697:776   */\n      tag_34\n      tag_35\n      jump\t// in\n    tag_34:\n        /* \"#utility.yul\":656:778   */\n    tag_33:\n        /* \"#utility.yul\":814:820   */\n      dup2\n        /* \"#utility.yul\":801:821   */\n      calldataload\n        /* \"#utility.yul\":839:918   */\n      tag_36\n        /* \"#utility.yul\":914:917   */\n      dup5\n        /* \"#utility.yul\":906:912   */\n      dup3\n        /* \"#utility.yul\":899:903   */\n      0x20\n        /* \"#utility.yul\":891:897   */\n      dup7\n        /* \"#utility.yul\":887:904   */\n      add\n        /* \"#utility.yul\":839:918   */\n      tag_16\n      jump\t// in\n    tag_36:\n        /* \"#utility.yul\":830:918   */\n      swap2\n      pop\n        /* \"#utility.yul\":646:924   */\n      pop\n        /* \"#utility.yul\":584:924   */\n      swap3\n      swap2\n      pop\n      pop\n      jump\t// out\n        /* \"#utility.yul\":930:1069   */\n    tag_37:\n        /* \"#utility.yul\":976:981   */\n      0x00\n        /* \"#utility.yul\":1014:1020   */\n      dup2\n        /* \"#utility.yul\":1001:1021   */\n      calldataload\n        /* \"#utility.yul\":992:1021   */\n      swap1\n      pop\n        /* \"#utility.yul\":1030:1063   */\n      tag_39\n        /* \"#utility.yul\":1057:1062   */\n      dup2\n        /* \"#utility.yul\":1030:1063   */\n      tag_40\n      jump\t// in\n    tag_39:\n        /* \"#utility.yul\":930:1069   */\n      swap3\n      swap2\n      pop\n      pop\n      jump\t// out\n        /* \"#utility.yul\":1075:1874   */\n    tag_6:\n        /* \"#utility.yul\":1162:1168   */\n      0x00\n        /* \"#utility.yul\":1170:1176   */\n      dup1\n        /* \"#utility.yul\":1178:1184   */\n      0x00\n        /* \"#utility.yul\":1227:1229   */\n      0x60\n        /* \"#utility.yul\":1215:1224   */\n      dup5\n        /* \"#utility.yul\":1206:1213   */\n      dup7\n        /* \"#utility.yul\":1202:1225   */\n      sub\n        /* \"#utility.yul\":1198:1230   */\n      slt\n        /* \"#utility.yul\":1195:1314   */\n      iszero\n      tag_42\n      jumpi\n        /* \"#utility.yul\":1233:1312   */\n      tag_43\n      tag_44\n      jump\t// in\n    tag_43:\n        /* \"#utility.yul\":1195:1314   */\n    tag_42:\n        /* \"#utility.yul\":1353:1354   */\n      0x00\n        /* \"#utility.yul\":1378:1431   */\n      tag_45\n        /* \"#utility.yul\":1423:1430   */\n      dup7\n        /* \"#utility.yul\":1414:1420   */\n      dup3\n        /* \"#utility.yul\":1403:1412   */\n      dup8\n        /* \"#utility.yul\":1399:1421   */\n      add\n        /* \"#utility.yul\":1378:1431   */\n      tag_27\n      jump\t// in\n    tag_45:\n        /* \"#utility.yul\":1368:1431   */\n      swap4\n      pop\n        /* \"#utility.yul\":1324:1441   */\n      pop\n        /* \"#utility.yul\":1480:1482   */\n      0x20\n        /* \"#utility.yul\":1506:1559   */\n      tag_46\n        /* \"#utility.yul\":1551:1558   */\n      dup7\n        /* \"#utility.yul\":1542:1548   */\n      dup3\n        /* \"#utility.yul\":1531:1540   */\n      dup8\n        /* \"#utility.yul\":1527:1549   */\n      add\n        /* \"#utility.yul\":1506:1559   */\n      tag_37\n      jump\t// in\n    tag_46:\n        /* \"#utility.yul\":1496:1559   */\n      swap3\n      pop\n        /* \"#utility.yul\":1451:1569   */\n      pop\n        /* \"#utility.yul\":1636:1638   */\n      0x40\n        /* \"#utility.yul\":1625:1634   */\n      dup5\n        /* \"#utility.yul\":1621:1639   */\n      add\n        /* \"#utility.yul\":1608:1640   */\n      calldataload\n        /* \"#utility.yul\":1667:1685   */\n      0xffffffffffffffff\n        /* \"#utility.yul\":1659:1665   */\n      dup2\n        /* \"#utility.yul\":1656:1686   */\n      gt\n        /* \"#utility.yul\":1653:1770   */\n      iszero\n      tag_47\n      jumpi\n        /* \"#utility.yul\":1689:1768   */\n      tag_48\n      tag_49\n      jump\t// in\n    tag_48:\n        /* \"#utility.yul\":1653:1770   */\n    tag_47:\n        /* \"#utility.yul\":1794:1857   */\n      tag_50\n        /* \"#utility.yul\":1849:1856   */\n      dup7\n        /* \"#utility.yul\":1840:1846   */\n      dup3\n        /* \"#utility.yul\":1829:1838   */\n      dup8\n        /* \"#utility.yul\":1825:1847   */\n      add\n        /* \"#utility.yul\":1794:1857   */\n      tag_31\n      jump\t// in\n    tag_50:\n        /* \"#utility.yul\":1784:1857   */\n      swap2\n      pop\n        /* \"#utility.yul\":1579:1867   */\n      pop\n        /* \"#utility.yul\":1075:1874   */\n      swap3\n      pop\n      swap3\n      pop\n      swap3\n      jump\t// out\n        /* \"#utility.yul\":1880:1989   */\n    tag_51:\n        /* \"#utility.yul\":1961:1982   */\n      tag_53\n        /* \"#utility.yul\":1976:1981   */\n      dup2\n        /* \"#utility.yul\":1961:1982   */\n      tag_54\n      jump\t// in\n    tag_53:\n        /* \"#utility.yul\":1956:1959   */\n      dup3\n        /* \"#utility.yul\":1949:1983   */\n      mstore\n        /* \"#utility.yul\":1880:1989   */\n      pop\n      pop\n      jump\t// out\n        /* \"#utility.yul\":1995:2359   */\n    tag_55:\n        /* \"#utility.yul\":2083:2086   */\n      0x00\n        /* \"#utility.yul\":2111:2150   */\n      tag_57\n        /* \"#utility.yul\":2144:2149   */\n      dup3\n        /* \"#utility.yul\":2111:2150   */\n      tag_58\n      jump\t// in\n    tag_57:\n        /* \"#utility.yul\":2166:2237   */\n      tag_59\n        /* \"#utility.yul\":2230:2236   */\n      dup2\n        /* \"#utility.yul\":2225:2228   */\n      dup6\n        /* \"#utility.yul\":2166:2237   */\n      tag_60\n      jump\t// in\n    tag_59:\n        /* \"#utility.yul\":2159:2237   */\n      swap4\n      pop\n        /* \"#utility.yul\":2246:2298   */\n      tag_61\n        /* \"#utility.yul\":2291:2297   */\n      dup2\n        /* \"#utility.yul\":2286:2289   */\n      dup6\n        /* \"#utility.yul\":2279:2283   */\n      0x20\n        /* \"#utility.yul\":2272:2277   */\n      dup7\n        /* \"#utility.yul\":2268:2284   */\n      add\n        /* \"#utility.yul\":2246:2298   */\n      tag_62\n      jump\t// in\n    tag_61:\n        /* \"#utility.yul\":2323:2352   */\n      tag_63\n        /* \"#utility.yul\":2345:2351   */\n      dup2\n        /* \"#utility.yul\":2323:2352   */\n      tag_64\n      jump\t// in\n    tag_63:\n        /* \"#utility.yul\":2318:2321   */\n      dup5\n        /* \"#utility.yul\":2314:2353   */\n      add\n        /* \"#utility.yul\":2307:2353   */\n      swap2\n      pop\n        /* \"#utility.yul\":2087:2359   */\n      pop\n        /* \"#utility.yul\":1995:2359   */\n      swap3\n      swap2\n      pop\n      pop\n      jump\t// out\n        /* \"#utility.yul\":2365:2483   */\n    tag_65:\n        /* \"#utility.yul\":2452:2476   */\n      tag_67\n        /* \"#utility.yul\":2470:2475   */\n      dup2\n        /* \"#utility.yul\":2452:2476   */\n      tag_68\n      jump\t// in\n    tag_67:\n        /* \"#utility.yul\":2447:2450   */\n      dup3\n        /* \"#utility.yul\":2440:2477   */\n      mstore\n        /* \"#utility.yul\":2365:2483   */\n      pop\n      pop\n      jump\t// out\n        /* \"#utility.yul\":2489:2699   */\n    tag_9:\n        /* \"#utility.yul\":2576:2580   */\n      0x00\n        /* \"#utility.yul\":2614:2616   */\n      0x20\n        /* \"#utility.yul\":2603:2612   */\n      dup3\n        /* \"#utility.yul\":2599:2617   */\n      add\n        /* \"#utility.yul\":2591:2617   */\n      swap1\n      pop\n        /* \"#utility.yul\":2627:2692   */\n      tag_70\n        /* \"#utility.yul\":2689:2690   */\n      0x00\n        /* \"#utility.yul\":2678:2687   */\n      dup4\n        /* \"#utility.yul\":2674:2691   */\n      add\n        /* \"#utility.yul\":2665:2671   */\n      dup5\n        /* \"#utility.yul\":2627:2692   */\n      tag_51\n      jump\t// in\n    tag_70:\n        /* \"#utility.yul\":2489:2699   */\n      swap3\n      swap2\n      pop\n      pop\n      jump\t// out\n        /* \"#utility.yul\":2705:3018   */\n    tag_14:\n        /* \"#utility.yul\":2818:2822   */\n      0x00\n        /* \"#utility.yul\":2856:2858   */\n      0x20\n        /* \"#utility.yul\":2845:2854   */\n      dup3\n        /* \"#utility.yul\":2841:2859   */\n      add\n        /* \"#utility.yul\":2833:2859   */\n      swap1\n      pop\n        /* \"#utility.yul\":2905:2914   */\n      dup2\n        /* \"#utility.yul\":2899:2903   */\n      dup2\n        /* \"#utility.yul\":2895:2915   */\n      sub\n        /* \"#utility.yul\":2891:2892   */\n      0x00\n        /* \"#utility.yul\":2880:2889   */\n      dup4\n        /* \"#utility.yul\":2876:2893   */\n      add\n        /* \"#utility.yul\":2869:2916   */\n      mstore\n        /* \"#utility.yul\":2933:3011   */\n      tag_72\n        /* \"#utility.yul\":3006:3010   */\n      dup2\n        /* \"#utility.yul\":2997:3003   */\n      dup5\n        /* \"#utility.yul\":2933:3011   */\n      tag_55\n      jump\t// in\n    tag_72:\n        /* \"#utility.yul\":2925:3011   */\n      swap1\n      pop\n        /* \"#utility.yul\":2705:3018   */\n      swap3\n      swap2\n      pop\n      pop\n      jump\t// out\n        /* \"#utility.yul\":3024:3246   */\n    tag_12:\n        /* \"#utility.yul\":3117:3121   */\n      0x00\n        /* \"#utility.yul\":3155:3157   */\n      0x20\n        /* \"#utility.yul\":3144:3153   */\n      dup3\n        /* \"#utility.yul\":3140:3158   */\n      add\n        /* \"#utility.yul\":3132:3158   */\n      swap1\n      pop\n        /* \"#utility.yul\":3168:3239   */\n      tag_74\n        /* \"#utility.yul\":3236:3237   */\n      0x00\n        /* \"#utility.yul\":3225:3234   */\n      dup4\n        /* \"#utility.yul\":3221:3238   */\n      add\n        /* \"#utility.yul\":3212:3218   */\n      dup5\n        /* \"#utility.yul\":3168:3239   */\n      tag_65\n      jump\t// in\n    tag_74:\n        /* \"#utility.yul\":3024:3246   */\n      swap3\n      swap2\n      pop\n      pop\n      jump\t// out\n        /* \"#utility.yul\":3252:3381   */\n    tag_21:\n        /* \"#utility.yul\":3286:3292   */\n      0x00\n        /* \"#utility.yul\":3313:3333   */\n      tag_76\n      tag_77\n      jump\t// in\n    tag_76:\n        /* \"#utility.yul\":3303:3333   */\n      swap1\n      pop\n        /* \"#utility.yul\":3342:3375   */\n      tag_78\n        /* \"#utility.yul\":3370:3374   */\n      dup3\n        /* \"#utility.yul\":3362:3368   */\n      dup3\n        /* \"#utility.yul\":3342:3375   */\n      tag_79\n      jump\t// in\n    tag_78:\n        /* \"#utility.yul\":3252:3381   */\n      swap2\n      swap1\n      pop\n      jump\t// out\n        /* \"#utility.yul\":3387:3462   */\n    tag_77:\n        /* \"#utility.yul\":3420:3426   */\n      0x00\n        /* \"#utility.yul\":3453:3455   */\n      0x40\n        /* \"#utility.yul\":3447:3456   */\n      mload\n        /* \"#utility.yul\":3437:3456   */\n      swap1\n      pop\n        /* \"#utility.yul\":3387:3462   */\n      swap1\n      jump\t// out\n        /* \"#utility.yul\":3468:3776   */\n    tag_20:\n        /* \"#utility.yul\":3530:3534   */\n      0x00\n        /* \"#utility.yul\":3620:3638   */\n      0xffffffffffffffff\n        /* \"#utility.yul\":3612:3618   */\n      dup3\n        /* \"#utility.yul\":3609:3639   */\n      gt\n        /* \"#utility.yul\":3606:3662   */\n      iszero\n      tag_82\n      jumpi\n        /* \"#utility.yul\":3642:3660   */\n      tag_83\n      tag_84\n      jump\t// in\n    tag_83:\n        /* \"#utility.yul\":3606:3662   */\n    tag_82:\n        /* \"#utility.yul\":3680:3709   */\n      tag_85\n        /* \"#utility.yul\":3702:3708   */\n      dup3\n        /* \"#utility.yul\":3680:3709   */\n      tag_64\n      jump\t// in\n    tag_85:\n        /* \"#utility.yul\":3672:3709   */\n      swap1\n      pop\n        /* \"#utility.yul\":3764:3768   */\n      0x20\n        /* \"#utility.yul\":3758:3762   */\n      dup2\n        /* \"#utility.yul\":3754:3769   */\n      add\n        /* \"#utility.yul\":3746:3769   */\n      swap1\n      pop\n        /* \"#utility.yul\":3468:3776   */\n      swap2\n      swap1\n      pop\n      jump\t// out\n        /* \"#utility.yul\":3782:3881   */\n    tag_58:\n        /* \"#utility.yul\":3834:3840   */\n      0x00\n        /* \"#utility.yul\":3868:3873   */\n      dup2\n        /* \"#utility.yul\":3862:3874   */\n      mload\n        /* \"#utility.yul\":3852:3874   */\n      swap1\n      pop\n        /* \"#utility.yul\":3782:3881   */\n      swap2\n      swap1\n      pop\n      jump\t// out\n        /* \"#utility.yul\":3887:4056   */\n    tag_60:\n        /* \"#utility.yul\":3971:3982   */\n      0x00\n        /* \"#utility.yul\":4005:4011   */\n      dup3\n        /* \"#utility.yul\":4000:4003   */\n      dup3\n        /* \"#utility.yul\":3993:4012   */\n      mstore\n        /* \"#utility.yul\":4045:4049   */\n      0x20\n        /* \"#utility.yul\":4040:4043   */\n      dup3\n        /* \"#utility.yul\":4036:4050   */\n      add\n        /* \"#utility.yul\":4021:4050   */\n      swap1\n      pop\n        /* \"#utility.yul\":3887:4056   */\n      swap3\n      swap2\n      pop\n      pop\n      jump\t// out\n        /* \"#utility.yul\":4062:4158   */\n    tag_88:\n        /* \"#utility.yul\":4099:4106   */\n      0x00\n        /* \"#utility.yul\":4128:4152   */\n      tag_90\n        /* \"#utility.yul\":4146:4151   */\n      dup3\n        /* \"#utility.yul\":4128:4152   */\n      tag_91\n      jump\t// in\n    tag_90:\n        /* \"#utility.yul\":4117:4152   */\n      swap1\n      pop\n        /* \"#utility.yul\":4062:4158   */\n      swap2\n      swap1\n      pop\n      jump\t// out\n        /* \"#utility.yul\":4164:4254   */\n    tag_54:\n        /* \"#utility.yul\":4198:4205   */\n      0x00\n        /* \"#utility.yul\":4241:4246   */\n      dup2\n        /* \"#utility.yul\":4234:4247   */\n      iszero\n        /* \"#utility.yul\":4227:4248   */\n      iszero\n        /* \"#utility.yul\":4216:4248   */\n      swap1\n      pop\n        /* \"#utility.yul\":4164:4254   */\n      swap2\n      swap1\n      pop\n      jump\t// out\n        /* \"#utility.yul\":4260:4386   */\n    tag_91:\n        /* \"#utility.yul\":4297:4304   */\n      0x00\n        /* \"#utility.yul\":4337:4379   */\n      0xffffffffffffffffffffffffffffffffffffffff\n        /* \"#utility.yul\":4330:4335   */\n      dup3\n        /* \"#utility.yul\":4326:4380   */\n      and\n        /* \"#utility.yul\":4315:4380   */\n      swap1\n      pop\n        /* \"#utility.yul\":4260:4386   */\n      swap2\n      swap1\n      pop\n      jump\t// out\n        /* \"#utility.yul\":4392:4469   */\n    tag_68:\n        /* \"#utility.yul\":4429:4436   */\n      0x00\n        /* \"#utility.yul\":4458:4463   */\n      dup2\n        /* \"#utility.yul\":4447:4463   */\n      swap1\n      pop\n        /* \"#utility.yul\":4392:4469   */\n      swap2\n      swap1\n      pop\n      jump\t// out\n        /* \"#utility.yul\":4475:4629   */\n    tag_26:\n        /* \"#utility.yul\":4559:4565   */\n      dup3\n        /* \"#utility.yul\":4554:4557   */\n      dup2\n        /* \"#utility.yul\":4549:4552   */\n      dup4\n        /* \"#utility.yul\":4536:4566   */\n      calldatacopy\n        /* \"#utility.yul\":4621:4622   */\n      0x00\n        /* \"#utility.yul\":4612:4618   */\n      dup4\n        /* \"#utility.yul\":4607:4610   */\n      dup4\n        /* \"#utility.yul\":4603:4619   */\n      add\n        /* \"#utility.yul\":4596:4623   */\n      mstore\n        /* \"#utility.yul\":4475:4629   */\n      pop\n      pop\n      pop\n      jump\t// out\n        /* \"#utility.yul\":4635:4942   */\n    tag_62:\n        /* \"#utility.yul\":4703:4704   */\n      0x00\n        /* \"#utility.yul\":4713:4826   */\n    tag_97:\n        /* \"#utility.yul\":4727:4733   */\n      dup4\n        /* \"#utility.yul\":4724:4725   */\n      dup2\n        /* \"#utility.yul\":4721:4734   */\n      lt\n        /* \"#utility.yul\":4713:4826   */\n      iszero\n      tag_99\n      jumpi\n        /* \"#utility.yul\":4812:4813   */\n      dup1\n        /* \"#utility.yul\":4807:4810   */\n      dup3\n        /* \"#utility.yul\":4803:4814   */\n      add\n        /* \"#utility.yul\":4797:4815   */\n      mload\n        /* \"#utility.yul\":4793:4794   */\n      dup2\n        /* \"#utility.yul\":4788:4791   */\n      dup5\n        /* \"#utility.yul\":4784:4795   */\n      add\n        /* \"#utility.yul\":4777:4816   */\n      mstore\n        /* \"#utility.yul\":4749:4751   */\n      0x20\n        /* \"#utility.yul\":4746:4747   */\n      dup2\n        /* \"#utility.yul\":4742:4752   */\n      add\n        /* \"#utility.yul\":4737:4752   */\n      swap1\n      pop\n        /* \"#utility.yul\":4713:4826   */\n      jump(tag_97)\n    tag_99:\n        /* \"#utility.yul\":4844:4850   */\n      dup4\n        /* \"#utility.yul\":4841:4842   */\n      dup2\n        /* \"#utility.yul\":4838:4851   */\n      gt\n        /* \"#utility.yul\":4835:4936   */\n      iszero\n      tag_100\n      jumpi\n        /* \"#utility.yul\":4924:4925   */\n      0x00\n        /* \"#utility.yul\":4915:4921   */\n      dup5\n        /* \"#utility.yul\":4910:4913   */\n      dup5\n        /* \"#utility.yul\":4906:4922   */\n      add\n        /* \"#utility.yul\":4899:4926   */\n      mstore\n        /* \"#utility.yul\":4835:4936   */\n    tag_100:\n        /* \"#utility.yul\":4684:4942   */\n      pop\n        /* \"#utility.yul\":4635:4942   */\n      pop\n      pop\n      pop\n      jump\t// out\n        /* \"#utility.yul\":4948:5229   */\n    tag_79:\n        /* \"#utility.yul\":5031:5058   */\n      tag_102\n        /* \"#utility.yul\":5053:5057   */\n      dup3\n        /* \"#utility.yul\":5031:5058   */\n      tag_64\n      jump\t// in\n    tag_102:\n        /* \"#utility.yul\":5023:5029   */\n      dup2\n        /* \"#utility.yul\":5019:5059   */\n      add\n        /* \"#utility.yul\":5161:5167   */\n      dup2\n        /* \"#utility.yul\":5149:5159   */\n      dup2\n        /* \"#utility.yul\":5146:5168   */\n      lt\n        /* \"#utility.yul\":5125:5143   */\n      0xffffffffffffffff\n        /* \"#utility.yul\":5113:5123   */\n      dup3\n        /* \"#utility.yul\":5110:5144   */\n      gt\n        /* \"#utility.yul\":5107:5169   */\n      or\n        /* \"#utility.yul\":5104:5192   */\n      iszero\n      tag_103\n      jumpi\n        /* \"#utility.yul\":5172:5190   */\n      tag_104\n      tag_84\n      jump\t// in\n    tag_104:\n        /* \"#utility.yul\":5104:5192   */\n    tag_103:\n        /* \"#utility.yul\":5212:5222   */\n      dup1\n        /* \"#utility.yul\":5208:5210   */\n      0x40\n        /* \"#utility.yul\":5201:5223   */\n      mstore\n        /* \"#utility.yul\":4991:5229   */\n      pop\n        /* \"#utility.yul\":4948:5229   */\n      pop\n      pop\n      jump\t// out\n        /* \"#utility.yul\":5235:5415   */\n    tag_84:\n        /* \"#utility.yul\":5283:5360   */\n      0x4e487b7100000000000000000000000000000000000000000000000000000000\n        /* \"#utility.yul\":5280:5281   */\n      0x00\n        /* \"#utility.yul\":5273:5361   */\n      mstore\n        /* \"#utility.yul\":5380:5384   */\n      0x41\n        /* \"#utility.yul\":5377:5378   */\n      0x04\n        /* \"#utility.yul\":5370:5385   */\n      mstore\n        /* \"#utility.yul\":5404:5408   */\n      0x24\n        /* \"#utility.yul\":5401:5402   */\n      0x00\n        /* \"#utility.yul\":5394:5409   */\n      revert\n        /* \"#utility.yul\":5421:5538   */\n    tag_35:\n        /* \"#utility.yul\":5530:5531   */\n      0x00\n        /* \"#utility.yul\":5527:5528   */\n      dup1\n        /* \"#utility.yul\":5520:5532   */\n      revert\n        /* \"#utility.yul\":5544:5661   */\n    tag_24:\n        /* \"#utility.yul\":5653:5654   */\n      0x00\n        /* \"#utility.yul\":5650:5651   */\n      dup1\n        /* \"#utility.yul\":5643:5655   */\n      revert\n        /* \"#utility.yul\":5667:5784   */\n    tag_49:\n        /* \"#utility.yul\":5776:5777   */\n      0x00\n        /* \"#utility.yul\":5773:5774   */\n      dup1\n        /* \"#utility.yul\":5766:5778   */\n      revert\n        /* \"#utility.yul\":5790:5907   */\n    tag_44:\n        /* \"#utility.yul\":5899:5900   */\n      0x00\n        /* \"#utility.yul\":5896:5897   */\n      dup1\n        /* \"#utility.yul\":5889:5901   */\n      revert\n        /* \"#utility.yul\":5913:6015   */\n    tag_64:\n        /* \"#utility.yul\":5954:5960   */\n      0x00\n        /* \"#utility.yul\":6005:6007   */\n      0x1f\n        /* \"#utility.yul\":6001:6008   */\n      not\n        /* \"#utility.yul\":5996:5998   */\n      0x1f\n        /* \"#utility.yul\":5989:5994   */\n      dup4\n        /* \"#utility.yul\":5985:5999   */\n      add\n        /* \"#utility.yul\":5981:6009   */\n      and\n        /* \"#utility.yul\":5971:6009   */\n      swap1\n      pop\n        /* \"#utility.yul\":5913:6015   */\n      swap2\n      swap1\n      pop\n      jump\t// out\n        /* \"#utility.yul\":6021:6143   */\n    tag_30:\n        /* \"#utility.yul\":6094:6118   */\n      tag_112\n        /* \"#utility.yul\":6112:6117   */\n      dup2\n        /* \"#utility.yul\":6094:6118   */\n      tag_88\n      jump\t// in\n    tag_112:\n        /* \"#utility.yul\":6087:6092   */\n      dup2\n        /* \"#utility.yul\":6084:6119   */\n      eq\n        /* \"#utility.yul\":6074:6137   */\n      tag_113\n      jumpi\n        /* \"#utility.yul\":6133:6134   */\n      0x00\n        /* \"#utility.yul\":6130:6131   */\n      dup1\n        /* \"#utility.yul\":6123:6135   */\n      revert\n        /* \"#utility.yul\":6074:6137   */\n    tag_113:\n        /* \"#utility.yul\":6021:6143   */\n      pop\n      jump\t// out\n        /* \"#utility.yul\":6149:6271   */\n    tag_40:\n        /* \"#utility.yul\":6222:6246   */\n      tag_115\n        /* \"#utility.yul\":6240:6245   */\n      dup2\n        /* \"#utility.yul\":6222:6246   */\n      tag_68\n      jump\t// in\n    tag_115:\n        /* \"#utility.yul\":6215:6220   */\n      dup2\n        /* \"#utility.yul\":6212:6247   */\n      eq\n        /* \"#utility.yul\":6202:6265   */\n      tag_116\n      jumpi\n        /* \"#utility.yul\":6261:6262   */\n      0x00\n        /* \"#utility.yul\":6258:6259   */\n      dup1\n        /* \"#utility.yul\":6251:6263   */\n      revert\n        /* \"#utility.yul\":6202:6265   */\n    tag_116:\n        /* \"#utility.yul\":6149:6271   */\n      pop\n      jump\t// out\n\n    auxdata: 0xa2646970667358221220eafb8f06e57212b36d3e4722f30957adf33340dfa121a70e42bbefaa0bde6f1c64736f6c63430008070033\n}\n",
				"bytecode": {
					"linkReferences": {},
					"object": "608060405234801561001057600080fd5b50610475806100206000396000f3fe608060405234801561001057600080fd5b506004361061002b5760003560e01c80635d0917ce14610030575b600080fd5b61004a60048036038101906100459190610172565b610060565b6040516100579190610238565b60405180910390f35b6000807ff3420adc8df3553d49ae031c2c5788814067fbdab7d4cb8013128ada2bd0b22f90506000846040516020016100999190610275565b60405160208183030381529060405290506000846040516020016100bd9190610253565b60405160208183030381529060405290505050509392505050565b60006100eb6100e6846102b5565b610290565b905082815260208101848484011115610107576101066103f1565b5b61011284828561034a565b509392505050565b60008135905061012981610411565b92915050565b600082601f830112610144576101436103ec565b5b81356101548482602086016100d8565b91505092915050565b60008135905061016c81610428565b92915050565b60008060006060848603121561018b5761018a6103fb565b5b60006101998682870161011a565b93505060206101aa8682870161015d565b925050604084013567ffffffffffffffff8111156101cb576101ca6103f6565b5b6101d78682870161012f565b9150509250925092565b6101ea81610314565b82525050565b60006101fb826102e6565b61020581856102f1565b9350610215818560208601610359565b61021e81610400565b840191505092915050565b61023281610340565b82525050565b600060208201905061024d60008301846101e1565b92915050565b6000602082019050818103600083015261026d81846101f0565b905092915050565b600060208201905061028a6000830184610229565b92915050565b600061029a6102ab565b90506102a6828261038c565b919050565b6000604051905090565b600067ffffffffffffffff8211156102d0576102cf6103bd565b5b6102d982610400565b9050602081019050919050565b600081519050919050565b600082825260208201905092915050565b600061030d82610320565b9050919050565b60008115159050919050565b600073ffffffffffffffffffffffffffffffffffffffff82169050919050565b6000819050919050565b82818337600083830152505050565b60005b8381101561037757808201518184015260208101905061035c565b83811115610386576000848401525b50505050565b61039582610400565b810181811067ffffffffffffffff821117156103b4576103b36103bd565b5b80604052505050565b7f4e487b7100000000000000000000000000000000000000000000000000000000600052604160045260246000fd5b600080fd5b600080fd5b600080fd5b600080fd5b6000601f19601f8301169050919050565b61041a81610302565b811461042557600080fd5b50565b61043181610340565b811461043c57600080fd5b5056fea2646970667358221220eafb8f06e57212b36d3e4722f30957adf33340dfa121a70e42bbefaa0bde6f1c64736f6c63430008070033",
					"opcodes": "PUSH1 0x80 PUSH1 0x40 MSTORE CALLVALUE DUP1 ISZERO PUSH2 0x10 JUMPI PUSH1 0x0 DUP1 REVERT JUMPDEST POP PUSH2 0x475 DUP1 PUSH2 0x20 PUSH1 0x0 CODECOPY PUSH1 0x0 RETURN INVALID PUSH1 0x80 PUSH1 0x40 MSTORE CALLVALUE DUP1 ISZERO PUSH2 0x10 JUMPI PUSH1 0x0 DUP1 REVERT JUMPDEST POP PUSH1 0x4 CALLDATASIZE LT PUSH2 0x2B JUMPI PUSH1 0x0 CALLDATALOAD PUSH1 0xE0 SHR DUP1 PUSH4 0x5D0917CE EQ PUSH2 0x30 JUMPI JUMPDEST PUSH1 0x0 DUP1 REVERT JUMPDEST PUSH2 0x4A PUSH1 0x4 DUP1 CALLDATASIZE SUB DUP2 ADD SWAP1 PUSH2 0x45 SWAP2 SWAP1 PUSH2 0x172 JUMP JUMPDEST PUSH2 0x60 JUMP JUMPDEST PUSH1 0x40 MLOAD PUSH2 0x57 SWAP2 SWAP1 PUSH2 0x238 JUMP JUMPDEST PUSH1 0x40 MLOAD DUP1 SWAP2 SUB SWAP1 RETURN JUMPDEST PUSH1 0x0 DUP1 PUSH32 0xF3420ADC8DF3553D49AE031C2C5788814067FBDAB7D4CB8013128ADA2BD0B22F SWAP1 POP PUSH1 0x0 DUP5 PUSH1 0x40 MLOAD PUSH1 0x20 ADD PUSH2 0x99 SWAP2 SWAP1 PUSH2 0x275 JUMP JUMPDEST PUSH1 0x40 MLOAD PUSH1 0x20 DUP2 DUP4 SUB SUB DUP2 MSTORE SWAP1 PUSH1 0x40 MSTORE SWAP1 POP PUSH1 0x0 DUP5 PUSH1 0x40 MLOAD PUSH1 0x20 ADD PUSH2 0xBD SWAP2 SWAP1 PUSH2 0x253 JUMP JUMPDEST PUSH1 0x40 MLOAD PUSH1 0x20 DUP2 DUP4 SUB SUB DUP2 MSTORE SWAP1 PUSH1 0x40 MSTORE SWAP1 POP POP POP POP SWAP4 SWAP3 POP POP POP JUMP JUMPDEST PUSH1 0x0 PUSH2 0xEB PUSH2 0xE6 DUP5 PUSH2 0x2B5 JUMP JUMPDEST PUSH2 0x290 JUMP JUMPDEST SWAP1 POP DUP3 DUP2 MSTORE PUSH1 0x20 DUP2 ADD DUP5 DUP5 DUP5 ADD GT ISZERO PUSH2 0x107 JUMPI PUSH2 0x106 PUSH2 0x3F1 JUMP JUMPDEST JUMPDEST PUSH2 0x112 DUP5 DUP3 DUP6 PUSH2 0x34A JUMP JUMPDEST POP SWAP4 SWAP3 POP POP POP JUMP JUMPDEST PUSH1 0x0 DUP2 CALLDATALOAD SWAP1 POP PUSH2 0x129 DUP2 PUSH2 0x411 JUMP JUMPDEST SWAP3 SWAP2 POP POP JUMP JUMPDEST PUSH1 0x0 DUP3 PUSH1 0x1F DUP4 ADD SLT PUSH2 0x144 JUMPI PUSH2 0x143 PUSH2 0x3EC JUMP JUMPDEST JUMPDEST DUP2 CALLDATALOAD PUSH2 0x154 DUP5 DUP3 PUSH1 0x20 DUP7 ADD PUSH2 0xD8 JUMP JUMPDEST SWAP2 POP POP SWAP3 SWAP2 POP POP JUMP JUMPDEST PUSH1 0x0 DUP2 CALLDATALOAD SWAP1 POP PUSH2 0x16C DUP2 PUSH2 0x428 JUMP JUMPDEST SWAP3 SWAP2 POP POP JUMP JUMPDEST PUSH1 0x0 DUP1 PUSH1 0x0 PUSH1 0x60 DUP5 DUP7 SUB SLT ISZERO PUSH2 0x18B JUMPI PUSH2 0x18A PUSH2 0x3FB JUMP JUMPDEST JUMPDEST PUSH1 0x0 PUSH2 0x199 DUP7 DUP3 DUP8 ADD PUSH2 0x11A JUMP JUMPDEST SWAP4 POP POP PUSH1 0x20 PUSH2 0x1AA DUP7 DUP3 DUP8 ADD PUSH2 0x15D JUMP JUMPDEST SWAP3 POP POP PUSH1 0x40 DUP5 ADD CALLDATALOAD PUSH8 0xFFFFFFFFFFFFFFFF DUP2 GT ISZERO PUSH2 0x1CB JUMPI PUSH2 0x1CA PUSH2 0x3F6 JUMP JUMPDEST JUMPDEST PUSH2 0x1D7 DUP7 DUP3 DUP8 ADD PUSH2 0x12F JUMP JUMPDEST SWAP2 POP POP SWAP3 POP SWAP3 POP SWAP3 JUMP JUMPDEST PUSH2 0x1EA DUP2 PUSH2 0x314 JUMP JUMPDEST DUP3 MSTORE POP POP JUMP JUMPDEST PUSH1 0x0 PUSH2 0x1FB DUP3 PUSH2 0x2E6 JUMP JUMPDEST PUSH2 0x205 DUP2 DUP6 PUSH2 0x2F1 JUMP JUMPDEST SWAP4 POP PUSH2 0x215 DUP2 DUP6 PUSH1 0x20 DUP7 ADD PUSH2 0x359 JUMP JUMPDEST PUSH2 0x21E DUP2 PUSH2 0x400 JUMP JUMPDEST DUP5 ADD SWAP2 POP POP SWAP3 SWAP2 POP POP JUMP JUMPDEST PUSH2 0x232 DUP2 PUSH2 0x340 JUMP JUMPDEST DUP3 MSTORE POP POP JUMP JUMPDEST PUSH1 0x0 PUSH1 0x20 DUP3 ADD SWAP1 POP PUSH2 0x24D PUSH1 0x0 DUP4 ADD DUP5 PUSH2 0x1E1 JUMP JUMPDEST SWAP3 SWAP2 POP POP JUMP JUMPDEST PUSH1 0x0 PUSH1 0x20 DUP3 ADD SWAP1 POP DUP2 DUP2 SUB PUSH1 0x0 DUP4 ADD MSTORE PUSH2 0x26D DUP2 DUP5 PUSH2 0x1F0 JUMP JUMPDEST SWAP1 POP SWAP3 SWAP2 POP POP JUMP JUMPDEST PUSH1 0x0 PUSH1 0x20 DUP3 ADD SWAP1 POP PUSH2 0x28A PUSH1 0x0 DUP4 ADD DUP5 PUSH2 0x229 JUMP JUMPDEST SWAP3 SWAP2 POP POP JUMP JUMPDEST PUSH1 0x0 PUSH2 0x29A PUSH2 0x2AB JUMP JUMPDEST SWAP1 POP PUSH2 0x2A6 DUP3 DUP3 PUSH2 0x38C JUMP JUMPDEST SWAP2 SWAP1 POP JUMP JUMPDEST PUSH1 0x0 PUSH1 0x40 MLOAD SWAP1 POP SWAP1 JUMP JUMPDEST PUSH1 0x0 PUSH8 0xFFFFFFFFFFFFFFFF DUP3 GT ISZERO PUSH2 0x2D0 JUMPI PUSH2 0x2CF PUSH2 0x3BD JUMP JUMPDEST JUMPDEST PUSH2 0x2D9 DUP3 PUSH2 0x400 JUMP JUMPDEST SWAP1 POP PUSH1 0x20 DUP2 ADD SWAP1 POP SWAP2 SWAP1 POP JUMP JUMPDEST PUSH1 0x0 DUP2 MLOAD SWAP1 POP SWAP2 SWAP1 POP JUMP JUMPDEST PUSH1 0x0 DUP3 DUP3 MSTORE PUSH1 0x20 DUP3 ADD SWAP1 POP SWAP3 SWAP2 POP POP JUMP JUMPDEST PUSH1 0x0 PUSH2 0x30D DUP3 PUSH2 0x320 JUMP JUMPDEST SWAP1 POP SWAP2 SWAP1 POP JUMP JUMPDEST PUSH1 0x0 DUP2 ISZERO ISZERO SWAP1 POP SWAP2 SWAP1 POP JUMP JUMPDEST PUSH1 0x0 PUSH20 0xFFFFFFFFFFFFFFFFFFFFFFFFFFFFFFFFFFFFFFFF DUP3 AND SWAP1 POP SWAP2 SWAP1 POP JUMP JUMPDEST PUSH1 0x0 DUP2 SWAP1 POP SWAP2 SWAP1 POP JUMP JUMPDEST DUP3 DUP2 DUP4 CALLDATACOPY PUSH1 0x0 DUP4 DUP4 ADD MSTORE POP POP POP JUMP JUMPDEST PUSH1 0x0 JUMPDEST DUP4 DUP2 LT ISZERO PUSH2 0x377 JUMPI DUP1 DUP3 ADD MLOAD DUP2 DUP5 ADD MSTORE PUSH1 0x20 DUP2 ADD SWAP1 POP PUSH2 0x35C JUMP JUMPDEST DUP4 DUP2 GT ISZERO PUSH2 0x386 JUMPI PUSH1 0x0 DUP5 DUP5 ADD MSTORE JUMPDEST POP POP POP POP JUMP JUMPDEST PUSH2 0x395 DUP3 PUSH2 0x400 JUMP JUMPDEST DUP2 ADD DUP2 DUP2 LT PUSH8 0xFFFFFFFFFFFFFFFF DUP3 GT OR ISZERO PUSH2 0x3B4 JUMPI PUSH2 0x3B3 PUSH2 0x3BD JUMP JUMPDEST JUMPDEST DUP1 PUSH1 0x40 MSTORE POP POP POP JUMP JUMPDEST PUSH32 0x4E487B7100000000000000000000000000000000000000000000000000000000 PUSH1 0x0 MSTORE PUSH1 0x41 PUSH1 0x4 MSTORE PUSH1 0x24 PUSH1 0x0 REVERT JUMPDEST PUSH1 0x0 DUP1 REVERT JUMPDEST PUSH1 0x0 DUP1 REVERT JUMPDEST PUSH1 0x0 DUP1 REVERT JUMPDEST PUSH1 0x0 DUP1 REVERT JUMPDEST PUSH1 0x0 PUSH1 0x1F NOT PUSH1 0x1F DUP4 ADD AND SWAP1 POP SWAP2 SWAP1 POP JUMP JUMPDEST PUSH2 0x41A DUP2 PUSH2 0x302 JUMP JUMPDEST DUP2 EQ PUSH2 0x425 JUMPI PUSH1 0x0 DUP1 REVERT JUMPDEST POP JUMP JUMPDEST PUSH2 0x431 DUP2 PUSH2 0x340 JUMP JUMPDEST DUP2 EQ PUSH2 0x43C JUMPI PUSH1 0x0 DUP1 REVERT JUMPDEST POP JUMP INVALID LOG2 PUSH5 0x6970667358 0x22 SLT KECCAK256 0xEA 0xFB DUP16 MOD 0xE5 PUSH19 0x12B36D3E4722F30957ADF33340DFA121A70E42 0xBB 0xEF 0xAA SIGNEXTEND 0xDE PUSH16 0x1C64736F6C6343000807003300000000 "
				},
				"gasEstimates": {
					"creation": {
						"codeDepositCost": "228200",
						"executionCost": "269",
						"totalCost": "228469"
					},
					"external": {
						"callBFunction(address,uint256,string)": "infinite"
					}
				},
				"methodIdentifiers": {
					"callBFunction(address,uint256,string)": "5d0917ce"
				}
			},
			"storageLayout": {
				"storage": [],
				"types": null
			},
			"userdoc": {
				"kind": "user",
				"methods": {},
				"version": 1
			}
		}
	}
}