{
	"contracts/22_Encode.sol": {
		"B": {
			"abi": [
				{
					"inputs": [
						{
							"internalType": "uint256",
							"name": "_num",
							"type": "uint256"
						},
						{
							"internalType": "string",
							"name": "_message",
							"type": "string"
						}
					],
					"name": "bFunction",
					"outputs": [
						{
							"internalType": "uint256",
							"name": "",
							"type": "uint256"
						},
						{
							"internalType": "string",
							"name": "",
							"type": "string"
						}
					],
					"stateMutability": "nonpayable",
					"type": "function"
				},
				{
					"inputs": [],
					"name": "message",
					"outputs": [
						{
							"internalType": "string",
							"name": "",
							"type": "string"
						}
					],
					"stateMutability": "view",
					"type": "function"
				},
				{
					"inputs": [],
					"name": "num",
					"outputs": [
						{
							"internalType": "uint256",
							"name": "",
							"type": "uint256"
						}
					],
					"stateMutability": "view",
					"type": "function"
				}
			],
			"devdoc": {
				"kind": "dev",
				"methods": {},
				"version": 1
			},
			"evm": {
				"assembly": "    /* \"contracts/22_Encode.sol\":386:632  contract B{... */\n  mstore(0x40, 0x80)\n  callvalue\n  dup1\n  iszero\n  tag_1\n  jumpi\n  0x00\n  dup1\n  revert\ntag_1:\n  pop\n  dataSize(sub_0)\n  dup1\n  dataOffset(sub_0)\n  0x00\n  codecopy\n  0x00\n  return\nstop\n\nsub_0: assembly {\n        /* \"contracts/22_Encode.sol\":386:632  contract B{... */\n      mstore(0x40, 0x80)\n      callvalue\n      dup1\n      iszero\n      tag_1\n      jumpi\n      0x00\n      dup1\n      revert\n    tag_1:\n      pop\n      jumpi(tag_2, lt(calldatasize, 0x04))\n      shr(0xe0, calldataload(0x00))\n      dup1\n      0x4e70b1dc\n      eq\n      tag_3\n      jumpi\n      dup1\n      0xe21f37ce\n      eq\n      tag_4\n      jumpi\n      dup1\n      0xf36b7e20\n      eq\n      tag_5\n      jumpi\n    tag_2:\n      0x00\n      dup1\n      revert\n        /* \"contracts/22_Encode.sol\":402:420  uint256 public num */\n    tag_3:\n      tag_6\n      tag_7\n      jump\t// in\n    tag_6:\n      mload(0x40)\n      tag_8\n      swap2\n      swap1\n      tag_9\n      jump\t// in\n    tag_8:\n      mload(0x40)\n      dup1\n      swap2\n      sub\n      swap1\n      return\n        /* \"contracts/22_Encode.sol\":426:447  string public message */\n    tag_4:\n      tag_10\n      tag_11\n      jump\t// in\n    tag_10:\n      mload(0x40)\n      tag_12\n      swap2\n      swap1\n      tag_13\n      jump\t// in\n    tag_12:\n      mload(0x40)\n      dup1\n      swap2\n      sub\n      swap1\n      return\n        /* \"contracts/22_Encode.sol\":454:630  function bFunction(uint256 _num, string memory _message) public returns(uint256, string memory){... */\n    tag_5:\n      tag_14\n      0x04\n      dup1\n      calldatasize\n      sub\n      dup2\n      add\n      swap1\n      tag_15\n      swap2\n      swap1\n      tag_16\n      jump\t// in\n    tag_15:\n      tag_17\n      jump\t// in\n    tag_14:\n      mload(0x40)\n      tag_18\n      swap3\n      swap2\n      swap1\n      tag_19\n      jump\t// in\n    tag_18:\n      mload(0x40)\n      dup1\n      swap2\n      sub\n      swap1\n      return\n        /* \"contracts/22_Encode.sol\":402:420  uint256 public num */\n    tag_7:\n      sload(0x00)\n      dup2\n      jump\t// out\n        /* \"contracts/22_Encode.sol\":426:447  string public message */\n    tag_11:\n      0x01\n      dup1\n      sload\n      tag_20\n      swap1\n      tag_21\n      jump\t// in\n    tag_20:\n      dup1\n      0x1f\n      add\n      0x20\n      dup1\n      swap2\n      div\n      mul\n      0x20\n      add\n      mload(0x40)\n      swap1\n      dup2\n      add\n      0x40\n      mstore\n      dup1\n      swap3\n      swap2\n      swap1\n      dup2\n      dup2\n      mstore\n      0x20\n      add\n      dup3\n      dup1\n      sload\n      tag_22\n      swap1\n      tag_21\n      jump\t// in\n    tag_22:\n      dup1\n      iszero\n      tag_23\n      jumpi\n      dup1\n      0x1f\n      lt\n      tag_24\n      jumpi\n      0x0100\n      dup1\n      dup4\n      sload\n      div\n      mul\n      dup4\n      mstore\n      swap2\n      0x20\n      add\n      swap2\n      jump(tag_23)\n    tag_24:\n      dup3\n      add\n      swap2\n      swap1\n      0x00\n      mstore\n      keccak256(0x00, 0x20)\n      swap1\n    tag_25:\n      dup2\n      sload\n      dup2\n      mstore\n      swap1\n      0x01\n      add\n      swap1\n      0x20\n      add\n      dup1\n      dup4\n      gt\n      tag_25\n      jumpi\n      dup3\n      swap1\n      sub\n      0x1f\n      and\n      dup3\n      add\n      swap2\n    tag_23:\n      pop\n      pop\n      pop\n      pop\n      pop\n      dup2\n      jump\t// out\n        /* \"contracts/22_Encode.sol\":454:630  function bFunction(uint256 _num, string memory _message) public returns(uint256, string memory){... */\n    tag_17:\n        /* \"contracts/22_Encode.sol\":526:533  uint256 */\n      0x00\n        /* \"contracts/22_Encode.sol\":535:548  string memory */\n      0x60\n        /* \"contracts/22_Encode.sol\":563:567  _num */\n      dup4\n        /* \"contracts/22_Encode.sol\":559:562  num */\n      0x00\n        /* \"contracts/22_Encode.sol\":559:567  num=_num */\n      dup2\n      swap1\n      sstore\n      pop\n        /* \"contracts/22_Encode.sol\":585:593  _message */\n      dup3\n        /* \"contracts/22_Encode.sol\":577:584  message */\n      0x01\n        /* \"contracts/22_Encode.sol\":577:593  message=_message */\n      swap1\n      dup1\n      mload\n      swap1\n      0x20\n      add\n      swap1\n      tag_27\n      swap3\n      swap2\n      swap1\n      tag_28\n      jump\t// in\n    tag_27:\n      pop\n        /* \"contracts/22_Encode.sol\":611:614  num */\n      sload(0x00)\n        /* \"contracts/22_Encode.sol\":615:622  message */\n      0x01\n        /* \"contracts/22_Encode.sol\":603:623  return (num,message) */\n      dup1\n      dup1\n      sload\n      tag_29\n      swap1\n      tag_21\n      jump\t// in\n    tag_29:\n      dup1\n      0x1f\n      add\n      0x20\n      dup1\n      swap2\n      div\n      mul\n      0x20\n      add\n      mload(0x40)\n      swap1\n      dup2\n      add\n      0x40\n      mstore\n      dup1\n      swap3\n      swap2\n      swap1\n      dup2\n      dup2\n      mstore\n      0x20\n      add\n      dup3\n      dup1\n      sload\n      tag_30\n      swap1\n      tag_21\n      jump\t// in\n    tag_30:\n      dup1\n      iszero\n      tag_31\n      jumpi\n      dup1\n      0x1f\n      lt\n      tag_32\n      jumpi\n      0x0100\n      dup1\n      dup4\n      sload\n      div\n      mul\n      dup4\n      mstore\n      swap2\n      0x20\n      add\n      swap2\n      jump(tag_31)\n    tag_32:\n      dup3\n      add\n      swap2\n      swap1\n      0x00\n      mstore\n      keccak256(0x00, 0x20)\n      swap1\n    tag_33:\n      dup2\n      sload\n      dup2\n      mstore\n      swap1\n      0x01\n      add\n      swap1\n      0x20\n      add\n      dup1\n      dup4\n      gt\n      tag_33\n      jumpi\n      dup3\n      swap1\n      sub\n      0x1f\n      and\n      dup3\n      add\n      swap2\n    tag_31:\n      pop\n      pop\n      pop\n      pop\n      pop\n      swap1\n      pop\n      swap2\n      pop\n      swap2\n      pop\n        /* \"contracts/22_Encode.sol\":454:630  function bFunction(uint256 _num, string memory _message) public returns(uint256, string memory){... */\n      swap3\n      pop\n      swap3\n      swap1\n      pop\n      jump\t// out\n    tag_28:\n      dup3\n      dup1\n      sload\n      tag_34\n      swap1\n      tag_21\n      jump\t// in\n    tag_34:\n      swap1\n      0x00\n      mstore\n      keccak256(0x00, 0x20)\n      swap1\n      0x1f\n      add\n      0x20\n      swap1\n      div\n      dup2\n      add\n      swap3\n      dup3\n      tag_36\n      jumpi\n      0x00\n      dup6\n      sstore\n      jump(tag_35)\n    tag_36:\n      dup3\n      0x1f\n      lt\n      tag_37\n      jumpi\n      dup1\n      mload\n      not(0xff)\n      and\n      dup4\n      dup1\n      add\n      or\n      dup6\n      sstore\n      jump(tag_35)\n    tag_37:\n      dup3\n      dup1\n      add\n      0x01\n      add\n      dup6\n      sstore\n      dup3\n      iszero\n      tag_35\n      jumpi\n      swap2\n      dup3\n      add\n    tag_38:\n      dup3\n      dup2\n      gt\n      iszero\n      tag_39\n      jumpi\n      dup3\n      mload\n      dup3\n      sstore\n      swap2\n      0x20\n      add\n      swap2\n      swap1\n      0x01\n      add\n      swap1\n      jump(tag_38)\n    tag_39:\n    tag_35:\n      pop\n      swap1\n      pop\n      tag_40\n      swap2\n      swap1\n      tag_41\n      jump\t// in\n    tag_40:\n      pop\n      swap1\n      jump\t// out\n    tag_41:\n    tag_42:\n      dup1\n      dup3\n      gt\n      iszero\n      tag_43\n      jumpi\n      0x00\n      dup2\n      0x00\n      swap1\n      sstore\n      pop\n      0x01\n      add\n      jump(tag_42)\n    tag_43:\n      pop\n      swap1\n      jump\t// out\n        /* \"#utility.yul\":7:419   */\n    tag_45:\n        /* \"#utility.yul\":85:90   */\n      0x00\n        /* \"#utility.yul\":110:176   */\n      tag_47\n        /* \"#utility.yul\":126:175   */\n      tag_48\n        /* \"#utility.yul\":168:174   */\n      dup5\n        /* \"#utility.yul\":126:175   */\n      tag_49\n      jump\t// in\n    tag_48:\n        /* \"#utility.yul\":110:176   */\n      tag_50\n      jump\t// in\n    tag_47:\n        /* \"#utility.yul\":101:176   */\n      swap1\n      pop\n        /* \"#utility.yul\":199:205   */\n      dup3\n        /* \"#utility.yul\":192:197   */\n      dup2\n        /* \"#utility.yul\":185:206   */\n      mstore\n        /* \"#utility.yul\":237:241   */\n      0x20\n        /* \"#utility.yul\":230:235   */\n      dup2\n        /* \"#utility.yul\":226:242   */\n      add\n        /* \"#utility.yul\":275:278   */\n      dup5\n        /* \"#utility.yul\":266:272   */\n      dup5\n        /* \"#utility.yul\":261:264   */\n      dup5\n        /* \"#utility.yul\":257:273   */\n      add\n        /* \"#utility.yul\":254:279   */\n      gt\n        /* \"#utility.yul\":251:363   */\n      iszero\n      tag_51\n      jumpi\n        /* \"#utility.yul\":282:361   */\n      tag_52\n      tag_53\n      jump\t// in\n    tag_52:\n        /* \"#utility.yul\":251:363   */\n    tag_51:\n        /* \"#utility.yul\":372:413   */\n      tag_54\n        /* \"#utility.yul\":406:412   */\n      dup5\n        /* \"#utility.yul\":401:404   */\n      dup3\n        /* \"#utility.yul\":396:399   */\n      dup6\n        /* \"#utility.yul\":372:413   */\n      tag_55\n      jump\t// in\n    tag_54:\n        /* \"#utility.yul\":91:419   */\n      pop\n        /* \"#utility.yul\":7:419   */\n      swap4\n      swap3\n      pop\n      pop\n      pop\n      jump\t// out\n        /* \"#utility.yul\":439:779   */\n    tag_56:\n        /* \"#utility.yul\":495:500   */\n      0x00\n        /* \"#utility.yul\":544:547   */\n      dup3\n        /* \"#utility.yul\":537:541   */\n      0x1f\n        /* \"#utility.yul\":529:535   */\n      dup4\n        /* \"#utility.yul\":525:542   */\n      add\n        /* \"#utility.yul\":521:548   */\n      slt\n        /* \"#utility.yul\":511:633   */\n      tag_58\n      jumpi\n        /* \"#utility.yul\":552:631   */\n      tag_59\n      tag_60\n      jump\t// in\n    tag_59:\n        /* \"#utility.yul\":511:633   */\n    tag_58:\n        /* \"#utility.yul\":669:675   */\n      dup2\n        /* \"#utility.yul\":656:676   */\n      calldataload\n        /* \"#utility.yul\":694:773   */\n      tag_61\n        /* \"#utility.yul\":769:772   */\n      dup5\n        /* \"#utility.yul\":761:767   */\n      dup3\n        /* \"#utility.yul\":754:758   */\n      0x20\n        /* \"#utility.yul\":746:752   */\n      dup7\n        /* \"#utility.yul\":742:759   */\n      add\n        /* \"#utility.yul\":694:773   */\n      tag_45\n      jump\t// in\n    tag_61:\n        /* \"#utility.yul\":685:773   */\n      swap2\n      pop\n        /* \"#utility.yul\":501:779   */\n      pop\n        /* \"#utility.yul\":439:779   */\n      swap3\n      swap2\n      pop\n      pop\n      jump\t// out\n        /* \"#utility.yul\":785:924   */\n    tag_62:\n        /* \"#utility.yul\":831:836   */\n      0x00\n        /* \"#utility.yul\":869:875   */\n      dup2\n        /* \"#utility.yul\":856:876   */\n      calldataload\n        /* \"#utility.yul\":847:876   */\n      swap1\n      pop\n        /* \"#utility.yul\":885:918   */\n      tag_64\n        /* \"#utility.yul\":912:917   */\n      dup2\n        /* \"#utility.yul\":885:918   */\n      tag_65\n      jump\t// in\n    tag_64:\n        /* \"#utility.yul\":785:924   */\n      swap3\n      swap2\n      pop\n      pop\n      jump\t// out\n        /* \"#utility.yul\":930:1584   */\n    tag_16:\n        /* \"#utility.yul\":1008:1014   */\n      0x00\n        /* \"#utility.yul\":1016:1022   */\n      dup1\n        /* \"#utility.yul\":1065:1067   */\n      0x40\n        /* \"#utility.yul\":1053:1062   */\n      dup4\n        /* \"#utility.yul\":1044:1051   */\n      dup6\n        /* \"#utility.yul\":1040:1063   */\n      sub\n        /* \"#utility.yul\":1036:1068   */\n      slt\n        /* \"#utility.yul\":1033:1152   */\n      iszero\n      tag_67\n      jumpi\n        /* \"#utility.yul\":1071:1150   */\n      tag_68\n      tag_69\n      jump\t// in\n    tag_68:\n        /* \"#utility.yul\":1033:1152   */\n    tag_67:\n        /* \"#utility.yul\":1191:1192   */\n      0x00\n        /* \"#utility.yul\":1216:1269   */\n      tag_70\n        /* \"#utility.yul\":1261:1268   */\n      dup6\n        /* \"#utility.yul\":1252:1258   */\n      dup3\n        /* \"#utility.yul\":1241:1250   */\n      dup7\n        /* \"#utility.yul\":1237:1259   */\n      add\n        /* \"#utility.yul\":1216:1269   */\n      tag_62\n      jump\t// in\n    tag_70:\n        /* \"#utility.yul\":1206:1269   */\n      swap3\n      pop\n        /* \"#utility.yul\":1162:1279   */\n      pop\n        /* \"#utility.yul\":1346:1348   */\n      0x20\n        /* \"#utility.yul\":1335:1344   */\n      dup4\n        /* \"#utility.yul\":1331:1349   */\n      add\n        /* \"#utility.yul\":1318:1350   */\n      calldataload\n        /* \"#utility.yul\":1377:1395   */\n      0xffffffffffffffff\n        /* \"#utility.yul\":1369:1375   */\n      dup2\n        /* \"#utility.yul\":1366:1396   */\n      gt\n        /* \"#utility.yul\":1363:1480   */\n      iszero\n      tag_71\n      jumpi\n        /* \"#utility.yul\":1399:1478   */\n      tag_72\n      tag_73\n      jump\t// in\n    tag_72:\n        /* \"#utility.yul\":1363:1480   */\n    tag_71:\n        /* \"#utility.yul\":1504:1567   */\n      tag_74\n        /* \"#utility.yul\":1559:1566   */\n      dup6\n        /* \"#utility.yul\":1550:1556   */\n      dup3\n        /* \"#utility.yul\":1539:1548   */\n      dup7\n        /* \"#utility.yul\":1535:1557   */\n      add\n        /* \"#utility.yul\":1504:1567   */\n      tag_56\n      jump\t// in\n    tag_74:\n        /* \"#utility.yul\":1494:1567   */\n      swap2\n      pop\n        /* \"#utility.yul\":1289:1577   */\n      pop\n        /* \"#utility.yul\":930:1584   */\n      swap3\n      pop\n      swap3\n      swap1\n      pop\n      jump\t// out\n        /* \"#utility.yul\":1590:1954   */\n    tag_75:\n        /* \"#utility.yul\":1678:1681   */\n      0x00\n        /* \"#utility.yul\":1706:1745   */\n      tag_77\n        /* \"#utility.yul\":1739:1744   */\n      dup3\n        /* \"#utility.yul\":1706:1745   */\n      tag_78\n      jump\t// in\n    tag_77:\n        /* \"#utility.yul\":1761:1832   */\n      tag_79\n        /* \"#utility.yul\":1825:1831   */\n      dup2\n        /* \"#utility.yul\":1820:1823   */\n      dup6\n        /* \"#utility.yul\":1761:1832   */\n      tag_80\n      jump\t// in\n    tag_79:\n        /* \"#utility.yul\":1754:1832   */\n      swap4\n      pop\n        /* \"#utility.yul\":1841:1893   */\n      tag_81\n        /* \"#utility.yul\":1886:1892   */\n      dup2\n        /* \"#utility.yul\":1881:1884   */\n      dup6\n        /* \"#utility.yul\":1874:1878   */\n      0x20\n        /* \"#utility.yul\":1867:1872   */\n      dup7\n        /* \"#utility.yul\":1863:1879   */\n      add\n        /* \"#utility.yul\":1841:1893   */\n      tag_82\n      jump\t// in\n    tag_81:\n        /* \"#utility.yul\":1918:1947   */\n      tag_83\n        /* \"#utility.yul\":1940:1946   */\n      dup2\n        /* \"#utility.yul\":1918:1947   */\n      tag_84\n      jump\t// in\n    tag_83:\n        /* \"#utility.yul\":1913:1916   */\n      dup5\n        /* \"#utility.yul\":1909:1948   */\n      add\n        /* \"#utility.yul\":1902:1948   */\n      swap2\n      pop\n        /* \"#utility.yul\":1682:1954   */\n      pop\n        /* \"#utility.yul\":1590:1954   */\n      swap3\n      swap2\n      pop\n      pop\n      jump\t// out\n        /* \"#utility.yul\":1960:2078   */\n    tag_85:\n        /* \"#utility.yul\":2047:2071   */\n      tag_87\n        /* \"#utility.yul\":2065:2070   */\n      dup2\n        /* \"#utility.yul\":2047:2071   */\n      tag_88\n      jump\t// in\n    tag_87:\n        /* \"#utility.yul\":2042:2045   */\n      dup3\n        /* \"#utility.yul\":2035:2072   */\n      mstore\n        /* \"#utility.yul\":1960:2078   */\n      pop\n      pop\n      jump\t// out\n        /* \"#utility.yul\":2084:2397   */\n    tag_13:\n        /* \"#utility.yul\":2197:2201   */\n      0x00\n        /* \"#utility.yul\":2235:2237   */\n      0x20\n        /* \"#utility.yul\":2224:2233   */\n      dup3\n        /* \"#utility.yul\":2220:2238   */\n      add\n        /* \"#utility.yul\":2212:2238   */\n      swap1\n      pop\n        /* \"#utility.yul\":2284:2293   */\n      dup2\n        /* \"#utility.yul\":2278:2282   */\n      dup2\n        /* \"#utility.yul\":2274:2294   */\n      sub\n        /* \"#utility.yul\":2270:2271   */\n      0x00\n        /* \"#utility.yul\":2259:2268   */\n      dup4\n        /* \"#utility.yul\":2255:2272   */\n      add\n        /* \"#utility.yul\":2248:2295   */\n      mstore\n        /* \"#utility.yul\":2312:2390   */\n      tag_90\n        /* \"#utility.yul\":2385:2389   */\n      dup2\n        /* \"#utility.yul\":2376:2382   */\n      dup5\n        /* \"#utility.yul\":2312:2390   */\n      tag_75\n      jump\t// in\n    tag_90:\n        /* \"#utility.yul\":2304:2390   */\n      swap1\n      pop\n        /* \"#utility.yul\":2084:2397   */\n      swap3\n      swap2\n      pop\n      pop\n      jump\t// out\n        /* \"#utility.yul\":2403:2625   */\n    tag_9:\n        /* \"#utility.yul\":2496:2500   */\n      0x00\n        /* \"#utility.yul\":2534:2536   */\n      0x20\n        /* \"#utility.yul\":2523:2532   */\n      dup3\n        /* \"#utility.yul\":2519:2537   */\n      add\n        /* \"#utility.yul\":2511:2537   */\n      swap1\n      pop\n        /* \"#utility.yul\":2547:2618   */\n      tag_92\n        /* \"#utility.yul\":2615:2616   */\n      0x00\n        /* \"#utility.yul\":2604:2613   */\n      dup4\n        /* \"#utility.yul\":2600:2617   */\n      add\n        /* \"#utility.yul\":2591:2597   */\n      dup5\n        /* \"#utility.yul\":2547:2618   */\n      tag_85\n      jump\t// in\n    tag_92:\n        /* \"#utility.yul\":2403:2625   */\n      swap3\n      swap2\n      pop\n      pop\n      jump\t// out\n        /* \"#utility.yul\":2631:3054   */\n    tag_19:\n        /* \"#utility.yul\":2772:2776   */\n      0x00\n        /* \"#utility.yul\":2810:2812   */\n      0x40\n        /* \"#utility.yul\":2799:2808   */\n      dup3\n        /* \"#utility.yul\":2795:2813   */\n      add\n        /* \"#utility.yul\":2787:2813   */\n      swap1\n      pop\n        /* \"#utility.yul\":2823:2894   */\n      tag_94\n        /* \"#utility.yul\":2891:2892   */\n      0x00\n        /* \"#utility.yul\":2880:2889   */\n      dup4\n        /* \"#utility.yul\":2876:2893   */\n      add\n        /* \"#utility.yul\":2867:2873   */\n      dup6\n        /* \"#utility.yul\":2823:2894   */\n      tag_85\n      jump\t// in\n    tag_94:\n        /* \"#utility.yul\":2941:2950   */\n      dup2\n        /* \"#utility.yul\":2935:2939   */\n      dup2\n        /* \"#utility.yul\":2931:2951   */\n      sub\n        /* \"#utility.yul\":2926:2928   */\n      0x20\n        /* \"#utility.yul\":2915:2924   */\n      dup4\n        /* \"#utility.yul\":2911:2929   */\n      add\n        /* \"#utility.yul\":2904:2952   */\n      mstore\n        /* \"#utility.yul\":2969:3047   */\n      tag_95\n        /* \"#utility.yul\":3042:3046   */\n      dup2\n        /* \"#utility.yul\":3033:3039   */\n      dup5\n        /* \"#utility.yul\":2969:3047   */\n      tag_75\n      jump\t// in\n    tag_95:\n        /* \"#utility.yul\":2961:3047   */\n      swap1\n      pop\n        /* \"#utility.yul\":2631:3054   */\n      swap4\n      swap3\n      pop\n      pop\n      pop\n      jump\t// out\n        /* \"#utility.yul\":3060:3189   */\n    tag_50:\n        /* \"#utility.yul\":3094:3100   */\n      0x00\n        /* \"#utility.yul\":3121:3141   */\n      tag_97\n      tag_98\n      jump\t// in\n    tag_97:\n        /* \"#utility.yul\":3111:3141   */\n      swap1\n      pop\n        /* \"#utility.yul\":3150:3183   */\n      tag_99\n        /* \"#utility.yul\":3178:3182   */\n      dup3\n        /* \"#utility.yul\":3170:3176   */\n      dup3\n        /* \"#utility.yul\":3150:3183   */\n      tag_100\n      jump\t// in\n    tag_99:\n        /* \"#utility.yul\":3060:3189   */\n      swap2\n      swap1\n      pop\n      jump\t// out\n        /* \"#utility.yul\":3195:3270   */\n    tag_98:\n        /* \"#utility.yul\":3228:3234   */\n      0x00\n        /* \"#utility.yul\":3261:3263   */\n      0x40\n        /* \"#utility.yul\":3255:3264   */\n      mload\n        /* \"#utility.yul\":3245:3264   */\n      swap1\n      pop\n        /* \"#utility.yul\":3195:3270   */\n      swap1\n      jump\t// out\n        /* \"#utility.yul\":3276:3584   */\n    tag_49:\n        /* \"#utility.yul\":3338:3342   */\n      0x00\n        /* \"#utility.yul\":3428:3446   */\n      0xffffffffffffffff\n        /* \"#utility.yul\":3420:3426   */\n      dup3\n        /* \"#utility.yul\":3417:3447   */\n      gt\n        /* \"#utility.yul\":3414:3470   */\n      iszero\n      tag_103\n      jumpi\n        /* \"#utility.yul\":3450:3468   */\n      tag_104\n      tag_105\n      jump\t// in\n    tag_104:\n        /* \"#utility.yul\":3414:3470   */\n    tag_103:\n        /* \"#utility.yul\":3488:3517   */\n      tag_106\n        /* \"#utility.yul\":3510:3516   */\n      dup3\n        /* \"#utility.yul\":3488:3517   */\n      tag_84\n      jump\t// in\n    tag_106:\n        /* \"#utility.yul\":3480:3517   */\n      swap1\n      pop\n        /* \"#utility.yul\":3572:3576   */\n      0x20\n        /* \"#utility.yul\":3566:3570   */\n      dup2\n        /* \"#utility.yul\":3562:3577   */\n      add\n        /* \"#utility.yul\":3554:3577   */\n      swap1\n      pop\n        /* \"#utility.yul\":3276:3584   */\n      swap2\n      swap1\n      pop\n      jump\t// out\n        /* \"#utility.yul\":3590:3689   */\n    tag_78:\n        /* \"#utility.yul\":3642:3648   */\n      0x00\n        /* \"#utility.yul\":3676:3681   */\n      dup2\n        /* \"#utility.yul\":3670:3682   */\n      mload\n        /* \"#utility.yul\":3660:3682   */\n      swap1\n      pop\n        /* \"#utility.yul\":3590:3689   */\n      swap2\n      swap1\n      pop\n      jump\t// out\n        /* \"#utility.yul\":3695:3864   */\n    tag_80:\n        /* \"#utility.yul\":3779:3790   */\n      0x00\n        /* \"#utility.yul\":3813:3819   */\n      dup3\n        /* \"#utility.yul\":3808:3811   */\n      dup3\n        /* \"#utility.yul\":3801:3820   */\n      mstore\n        /* \"#utility.yul\":3853:3857   */\n      0x20\n        /* \"#utility.yul\":3848:3851   */\n      dup3\n        /* \"#utility.yul\":3844:3858   */\n      add\n        /* \"#utility.yul\":3829:3858   */\n      swap1\n      pop\n        /* \"#utility.yul\":3695:3864   */\n      swap3\n      swap2\n      pop\n      pop\n      jump\t// out\n        /* \"#utility.yul\":3870:3947   */\n    tag_88:\n        /* \"#utility.yul\":3907:3914   */\n      0x00\n        /* \"#utility.yul\":3936:3941   */\n      dup2\n        /* \"#utility.yul\":3925:3941   */\n      swap1\n      pop\n        /* \"#utility.yul\":3870:3947   */\n      swap2\n      swap1\n      pop\n      jump\t// out\n        /* \"#utility.yul\":3953:4107   */\n    tag_55:\n        /* \"#utility.yul\":4037:4043   */\n      dup3\n        /* \"#utility.yul\":4032:4035   */\n      dup2\n        /* \"#utility.yul\":4027:4030   */\n      dup4\n        /* \"#utility.yul\":4014:4044   */\n      calldatacopy\n        /* \"#utility.yul\":4099:4100   */\n      0x00\n        /* \"#utility.yul\":4090:4096   */\n      dup4\n        /* \"#utility.yul\":4085:4088   */\n      dup4\n        /* \"#utility.yul\":4081:4097   */\n      add\n        /* \"#utility.yul\":4074:4101   */\n      mstore\n        /* \"#utility.yul\":3953:4107   */\n      pop\n      pop\n      pop\n      jump\t// out\n        /* \"#utility.yul\":4113:4420   */\n    tag_82:\n        /* \"#utility.yul\":4181:4182   */\n      0x00\n        /* \"#utility.yul\":4191:4304   */\n    tag_112:\n        /* \"#utility.yul\":4205:4211   */\n      dup4\n        /* \"#utility.yul\":4202:4203   */\n      dup2\n        /* \"#utility.yul\":4199:4212   */\n      lt\n        /* \"#utility.yul\":4191:4304   */\n      iszero\n      tag_114\n      jumpi\n        /* \"#utility.yul\":4290:4291   */\n      dup1\n        /* \"#utility.yul\":4285:4288   */\n      dup3\n        /* \"#utility.yul\":4281:4292   */\n      add\n        /* \"#utility.yul\":4275:4293   */\n      mload\n        /* \"#utility.yul\":4271:4272   */\n      dup2\n        /* \"#utility.yul\":4266:4269   */\n      dup5\n        /* \"#utility.yul\":4262:4273   */\n      add\n        /* \"#utility.yul\":4255:4294   */\n      mstore\n        /* \"#utility.yul\":4227:4229   */\n      0x20\n        /* \"#utility.yul\":4224:4225   */\n      dup2\n        /* \"#utility.yul\":4220:4230   */\n      add\n        /* \"#utility.yul\":4215:4230   */\n      swap1\n      pop\n        /* \"#utility.yul\":4191:4304   */\n      jump(tag_112)\n    tag_114:\n        /* \"#utility.yul\":4322:4328   */\n      dup4\n        /* \"#utility.yul\":4319:4320   */\n      dup2\n        /* \"#utility.yul\":4316:4329   */\n      gt\n        /* \"#utility.yul\":4313:4414   */\n      iszero\n      tag_115\n      jumpi\n        /* \"#utility.yul\":4402:4403   */\n      0x00\n        /* \"#utility.yul\":4393:4399   */\n      dup5\n        /* \"#utility.yul\":4388:4391   */\n      dup5\n        /* \"#utility.yul\":4384:4400   */\n      add\n        /* \"#utility.yul\":4377:4404   */\n      mstore\n        /* \"#utility.yul\":4313:4414   */\n    tag_115:\n        /* \"#utility.yul\":4162:4420   */\n      pop\n        /* \"#utility.yul\":4113:4420   */\n      pop\n      pop\n      pop\n      jump\t// out\n        /* \"#utility.yul\":4426:4746   */\n    tag_21:\n        /* \"#utility.yul\":4470:4476   */\n      0x00\n        /* \"#utility.yul\":4507:4508   */\n      0x02\n        /* \"#utility.yul\":4501:4505   */\n      dup3\n        /* \"#utility.yul\":4497:4509   */\n      div\n        /* \"#utility.yul\":4487:4509   */\n      swap1\n      pop\n        /* \"#utility.yul\":4554:4555   */\n      0x01\n        /* \"#utility.yul\":4548:4552   */\n      dup3\n        /* \"#utility.yul\":4544:4556   */\n      and\n        /* \"#utility.yul\":4575:4593   */\n      dup1\n        /* \"#utility.yul\":4565:4646   */\n      tag_117\n      jumpi\n        /* \"#utility.yul\":4631:4635   */\n      0x7f\n        /* \"#utility.yul\":4623:4629   */\n      dup3\n        /* \"#utility.yul\":4619:4636   */\n      and\n        /* \"#utility.yul\":4609:4636   */\n      swap2\n      pop\n        /* \"#utility.yul\":4565:4646   */\n    tag_117:\n        /* \"#utility.yul\":4693:4695   */\n      0x20\n        /* \"#utility.yul\":4685:4691   */\n      dup3\n        /* \"#utility.yul\":4682:4696   */\n      lt\n        /* \"#utility.yul\":4662:4680   */\n      dup2\n        /* \"#utility.yul\":4659:4697   */\n      eq\n        /* \"#utility.yul\":4656:4740   */\n      iszero\n      tag_118\n      jumpi\n        /* \"#utility.yul\":4712:4730   */\n      tag_119\n      tag_120\n      jump\t// in\n    tag_119:\n        /* \"#utility.yul\":4656:4740   */\n    tag_118:\n        /* \"#utility.yul\":4477:4746   */\n      pop\n        /* \"#utility.yul\":4426:4746   */\n      swap2\n      swap1\n      pop\n      jump\t// out\n        /* \"#utility.yul\":4752:5033   */\n    tag_100:\n        /* \"#utility.yul\":4835:4862   */\n      tag_122\n        /* \"#utility.yul\":4857:4861   */\n      dup3\n        /* \"#utility.yul\":4835:4862   */\n      tag_84\n      jump\t// in\n    tag_122:\n        /* \"#utility.yul\":4827:4833   */\n      dup2\n        /* \"#utility.yul\":4823:4863   */\n      add\n        /* \"#utility.yul\":4965:4971   */\n      dup2\n        /* \"#utility.yul\":4953:4963   */\n      dup2\n        /* \"#utility.yul\":4950:4972   */\n      lt\n        /* \"#utility.yul\":4929:4947   */\n      0xffffffffffffffff\n        /* \"#utility.yul\":4917:4927   */\n      dup3\n        /* \"#utility.yul\":4914:4948   */\n      gt\n        /* \"#utility.yul\":4911:4973   */\n      or\n        /* \"#utility.yul\":4908:4996   */\n      iszero\n      tag_123\n      jumpi\n        /* \"#utility.yul\":4976:4994   */\n      tag_124\n      tag_105\n      jump\t// in\n    tag_124:\n        /* \"#utility.yul\":4908:4996   */\n    tag_123:\n        /* \"#utility.yul\":5016:5026   */\n      dup1\n        /* \"#utility.yul\":5012:5014   */\n      0x40\n        /* \"#utility.yul\":5005:5027   */\n      mstore\n        /* \"#utility.yul\":4795:5033   */\n      pop\n        /* \"#utility.yul\":4752:5033   */\n      pop\n      pop\n      jump\t// out\n        /* \"#utility.yul\":5039:5219   */\n    tag_120:\n        /* \"#utility.yul\":5087:5164   */\n      0x4e487b7100000000000000000000000000000000000000000000000000000000\n        /* \"#utility.yul\":5084:5085   */\n      0x00\n        /* \"#utility.yul\":5077:5165   */\n      mstore\n        /* \"#utility.yul\":5184:5188   */\n      0x22\n        /* \"#utility.yul\":5181:5182   */\n      0x04\n        /* \"#utility.yul\":5174:5189   */\n      mstore\n        /* \"#utility.yul\":5208:5212   */\n      0x24\n        /* \"#utility.yul\":5205:5206   */\n      0x00\n        /* \"#utility.yul\":5198:5213   */\n      revert\n        /* \"#utility.yul\":5225:5405   */\n    tag_105:\n        /* \"#utility.yul\":5273:5350   */\n      0x4e487b7100000000000000000000000000000000000000000000000000000000\n        /* \"#utility.yul\":5270:5271   */\n      0x00\n        /* \"#utility.yul\":5263:5351   */\n      mstore\n        /* \"#utility.yul\":5370:5374   */\n      0x41\n        /* \"#utility.yul\":5367:5368   */\n      0x04\n        /* \"#utility.yul\":5360:5375   */\n      mstore\n        /* \"#utility.yul\":5394:5398   */\n      0x24\n        /* \"#utility.yul\":5391:5392   */\n      0x00\n        /* \"#utility.yul\":5384:5399   */\n      revert\n        /* \"#utility.yul\":5411:5528   */\n    tag_60:\n        /* \"#utility.yul\":5520:5521   */\n      0x00\n        /* \"#utility.yul\":5517:5518   */\n      dup1\n        /* \"#utility.yul\":5510:5522   */\n      revert\n        /* \"#utility.yul\":5534:5651   */\n    tag_53:\n        /* \"#utility.yul\":5643:5644   */\n      0x00\n        /* \"#utility.yul\":5640:5641   */\n      dup1\n        /* \"#utility.yul\":5633:5645   */\n      revert\n        /* \"#utility.yul\":5657:5774   */\n    tag_73:\n        /* \"#utility.yul\":5766:5767   */\n      0x00\n        /* \"#utility.yul\":5763:5764   */\n      dup1\n        /* \"#utility.yul\":5756:5768   */\n      revert\n        /* \"#utility.yul\":5780:5897   */\n    tag_69:\n        /* \"#utility.yul\":5889:5890   */\n      0x00\n        /* \"#utility.yul\":5886:5887   */\n      dup1\n        /* \"#utility.yul\":5879:5891   */\n      revert\n        /* \"#utility.yul\":5903:6005   */\n    tag_84:\n        /* \"#utility.yul\":5944:5950   */\n      0x00\n        /* \"#utility.yul\":5995:5997   */\n      0x1f\n        /* \"#utility.yul\":5991:5998   */\n      not\n        /* \"#utility.yul\":5986:5988   */\n      0x1f\n        /* \"#utility.yul\":5979:5984   */\n      dup4\n        /* \"#utility.yul\":5975:5989   */\n      add\n        /* \"#utility.yul\":5971:5999   */\n      and\n        /* \"#utility.yul\":5961:5999   */\n      swap1\n      pop\n        /* \"#utility.yul\":5903:6005   */\n      swap2\n      swap1\n      pop\n      jump\t// out\n        /* \"#utility.yul\":6011:6133   */\n    tag_65:\n        /* \"#utility.yul\":6084:6108   */\n      tag_133\n        /* \"#utility.yul\":6102:6107   */\n      dup2\n        /* \"#utility.yul\":6084:6108   */\n      tag_88\n      jump\t// in\n    tag_133:\n        /* \"#utility.yul\":6077:6082   */\n      dup2\n        /* \"#utility.yul\":6074:6109   */\n      eq\n        /* \"#utility.yul\":6064:6127   */\n      tag_134\n      jumpi\n        /* \"#utility.yul\":6123:6124   */\n      0x00\n        /* \"#utility.yul\":6120:6121   */\n      dup1\n        /* \"#utility.yul\":6113:6125   */\n      revert\n        /* \"#utility.yul\":6064:6127   */\n    tag_134:\n        /* \"#utility.yul\":6011:6133   */\n      pop\n      jump\t// out\n\n    auxdata: 0xa2646970667358221220eccdfaabd3f6d34db128f7eb7d546265c83f98fc69e8bdf0b405c7f5192c996b64736f6c63430008070033\n}\n",
				"bytecode": {
					"linkReferences": {},
					"object": "608060405234801561001057600080fd5b5061062f806100206000396000f3fe608060405234801561001057600080fd5b50600436106100415760003560e01c80634e70b1dc14610046578063e21f37ce14610064578063f36b7e2014610082575b600080fd5b61004e6100b3565b60405161005b91906103f3565b60405180910390f35b61006c6100b9565b60405161007991906103d1565b60405180910390f35b61009c6004803603810190610097919061032d565b610147565b6040516100aa92919061040e565b60405180910390f35b60005481565b600180546100c6906104fc565b80601f01602080910402602001604051908101604052809291908181526020018280546100f2906104fc565b801561013f5780601f106101145761010080835404028352916020019161013f565b820191906000526020600020905b81548152906001019060200180831161012257829003601f168201915b505050505081565b60006060836000819055508260019080519060200190610168929190610205565b50600054600180805461017a906104fc565b80601f01602080910402602001604051908101604052809291908181526020018280546101a6906104fc565b80156101f35780601f106101c8576101008083540402835291602001916101f3565b820191906000526020600020905b8154815290600101906020018083116101d657829003601f168201915b50505050509050915091509250929050565b828054610211906104fc565b90600052602060002090601f016020900481019282610233576000855561027a565b82601f1061024c57805160ff191683800117855561027a565b8280016001018555821561027a579182015b8281111561027957825182559160200191906001019061025e565b5b509050610287919061028b565b5090565b5b808211156102a457600081600090555060010161028c565b5090565b60006102bb6102b684610463565b61043e565b9050828152602081018484840111156102d7576102d66105c2565b5b6102e28482856104ba565b509392505050565b600082601f8301126102ff576102fe6105bd565b5b813561030f8482602086016102a8565b91505092915050565b600081359050610327816105e2565b92915050565b60008060408385031215610344576103436105cc565b5b600061035285828601610318565b925050602083013567ffffffffffffffff811115610373576103726105c7565b5b61037f858286016102ea565b9150509250929050565b600061039482610494565b61039e818561049f565b93506103ae8185602086016104c9565b6103b7816105d1565b840191505092915050565b6103cb816104b0565b82525050565b600060208201905081810360008301526103eb8184610389565b905092915050565b600060208201905061040860008301846103c2565b92915050565b600060408201905061042360008301856103c2565b81810360208301526104358184610389565b90509392505050565b6000610448610459565b9050610454828261052e565b919050565b6000604051905090565b600067ffffffffffffffff82111561047e5761047d61058e565b5b610487826105d1565b9050602081019050919050565b600081519050919050565b600082825260208201905092915050565b6000819050919050565b82818337600083830152505050565b60005b838110156104e75780820151818401526020810190506104cc565b838111156104f6576000848401525b50505050565b6000600282049050600182168061051457607f821691505b602082108114156105285761052761055f565b5b50919050565b610537826105d1565b810181811067ffffffffffffffff821117156105565761055561058e565b5b80604052505050565b7f4e487b7100000000000000000000000000000000000000000000000000000000600052602260045260246000fd5b7f4e487b7100000000000000000000000000000000000000000000000000000000600052604160045260246000fd5b600080fd5b600080fd5b600080fd5b600080fd5b6000601f19601f8301169050919050565b6105eb816104b0565b81146105f657600080fd5b5056fea2646970667358221220eccdfaabd3f6d34db128f7eb7d546265c83f98fc69e8bdf0b405c7f5192c996b64736f6c63430008070033",
					"opcodes": "PUSH1 0x80 PUSH1 0x40 MSTORE CALLVALUE DUP1 ISZERO PUSH2 0x10 JUMPI PUSH1 0x0 DUP1 REVERT JUMPDEST POP PUSH2 0x62F DUP1 PUSH2 0x20 PUSH1 0x0 CODECOPY PUSH1 0x0 RETURN INVALID PUSH1 0x80 PUSH1 0x40 MSTORE CALLVALUE DUP1 ISZERO PUSH2 0x10 JUMPI PUSH1 0x0 DUP1 REVERT JUMPDEST POP PUSH1 0x4 CALLDATASIZE LT PUSH2 0x41 JUMPI PUSH1 0x0 CALLDATALOAD PUSH1 0xE0 SHR DUP1 PUSH4 0x4E70B1DC EQ PUSH2 0x46 JUMPI DUP1 PUSH4 0xE21F37CE EQ PUSH2 0x64 JUMPI DUP1 PUSH4 0xF36B7E20 EQ PUSH2 0x82 JUMPI JUMPDEST PUSH1 0x0 DUP1 REVERT JUMPDEST PUSH2 0x4E PUSH2 0xB3 JUMP JUMPDEST PUSH1 0x40 MLOAD PUSH2 0x5B SWAP2 SWAP1 PUSH2 0x3F3 JUMP JUMPDEST PUSH1 0x40 MLOAD DUP1 SWAP2 SUB SWAP1 RETURN JUMPDEST PUSH2 0x6C PUSH2 0xB9 JUMP JUMPDEST PUSH1 0x40 MLOAD PUSH2 0x79 SWAP2 SWAP1 PUSH2 0x3D1 JUMP JUMPDEST PUSH1 0x40 MLOAD DUP1 SWAP2 SUB SWAP1 RETURN JUMPDEST PUSH2 0x9C PUSH1 0x4 DUP1 CALLDATASIZE SUB DUP2 ADD SWAP1 PUSH2 0x97 SWAP2 SWAP1 PUSH2 0x32D JUMP JUMPDEST PUSH2 0x147 JUMP JUMPDEST PUSH1 0x40 MLOAD PUSH2 0xAA SWAP3 SWAP2 SWAP1 PUSH2 0x40E JUMP JUMPDEST PUSH1 0x40 MLOAD DUP1 SWAP2 SUB SWAP1 RETURN JUMPDEST PUSH1 0x0 SLOAD DUP2 JUMP JUMPDEST PUSH1 0x1 DUP1 SLOAD PUSH2 0xC6 SWAP1 PUSH2 0x4FC JUMP JUMPDEST DUP1 PUSH1 0x1F ADD PUSH1 0x20 DUP1 SWAP2 DIV MUL PUSH1 0x20 ADD PUSH1 0x40 MLOAD SWAP1 DUP2 ADD PUSH1 0x40 MSTORE DUP1 SWAP3 SWAP2 SWAP1 DUP2 DUP2 MSTORE PUSH1 0x20 ADD DUP3 DUP1 SLOAD PUSH2 0xF2 SWAP1 PUSH2 0x4FC JUMP JUMPDEST DUP1 ISZERO PUSH2 0x13F JUMPI DUP1 PUSH1 0x1F LT PUSH2 0x114 JUMPI PUSH2 0x100 DUP1 DUP4 SLOAD DIV MUL DUP4 MSTORE SWAP2 PUSH1 0x20 ADD SWAP2 PUSH2 0x13F JUMP JUMPDEST DUP3 ADD SWAP2 SWAP1 PUSH1 0x0 MSTORE PUSH1 0x20 PUSH1 0x0 KECCAK256 SWAP1 JUMPDEST DUP2 SLOAD DUP2 MSTORE SWAP1 PUSH1 0x1 ADD SWAP1 PUSH1 0x20 ADD DUP1 DUP4 GT PUSH2 0x122 JUMPI DUP3 SWAP1 SUB PUSH1 0x1F AND DUP3 ADD SWAP2 JUMPDEST POP POP POP POP POP DUP2 JUMP JUMPDEST PUSH1 0x0 PUSH1 0x60 DUP4 PUSH1 0x0 DUP2 SWAP1 SSTORE POP DUP3 PUSH1 0x1 SWAP1 DUP1 MLOAD SWAP1 PUSH1 0x20 ADD SWAP1 PUSH2 0x168 SWAP3 SWAP2 SWAP1 PUSH2 0x205 JUMP JUMPDEST POP PUSH1 0x0 SLOAD PUSH1 0x1 DUP1 DUP1 SLOAD PUSH2 0x17A SWAP1 PUSH2 0x4FC JUMP JUMPDEST DUP1 PUSH1 0x1F ADD PUSH1 0x20 DUP1 SWAP2 DIV MUL PUSH1 0x20 ADD PUSH1 0x40 MLOAD SWAP1 DUP2 ADD PUSH1 0x40 MSTORE DUP1 SWAP3 SWAP2 SWAP1 DUP2 DUP2 MSTORE PUSH1 0x20 ADD DUP3 DUP1 SLOAD PUSH2 0x1A6 SWAP1 PUSH2 0x4FC JUMP JUMPDEST DUP1 ISZERO PUSH2 0x1F3 JUMPI DUP1 PUSH1 0x1F LT PUSH2 0x1C8 JUMPI PUSH2 0x100 DUP1 DUP4 SLOAD DIV MUL DUP4 MSTORE SWAP2 PUSH1 0x20 ADD SWAP2 PUSH2 0x1F3 JUMP JUMPDEST DUP3 ADD SWAP2 SWAP1 PUSH1 0x0 MSTORE PUSH1 0x20 PUSH1 0x0 KECCAK256 SWAP1 JUMPDEST DUP2 SLOAD DUP2 MSTORE SWAP1 PUSH1 0x1 ADD SWAP1 PUSH1 0x20 ADD DUP1 DUP4 GT PUSH2 0x1D6 JUMPI DUP3 SWAP1 SUB PUSH1 0x1F AND DUP3 ADD SWAP2 JUMPDEST POP POP POP POP POP SWAP1 POP SWAP2 POP SWAP2 POP SWAP3 POP SWAP3 SWAP1 POP JUMP JUMPDEST DUP3 DUP1 SLOAD PUSH2 0x211 SWAP1 PUSH2 0x4FC JUMP JUMPDEST SWAP1 PUSH1 0x0 MSTORE PUSH1 0x20 PUSH1 0x0 KECCAK256 SWAP1 PUSH1 0x1F ADD PUSH1 0x20 SWAP1 DIV DUP2 ADD SWAP3 DUP3 PUSH2 0x233 JUMPI PUSH1 0x0 DUP6 SSTORE PUSH2 0x27A JUMP JUMPDEST DUP3 PUSH1 0x1F LT PUSH2 0x24C JUMPI DUP1 MLOAD PUSH1 0xFF NOT AND DUP4 DUP1 ADD OR DUP6 SSTORE PUSH2 0x27A JUMP JUMPDEST DUP3 DUP1 ADD PUSH1 0x1 ADD DUP6 SSTORE DUP3 ISZERO PUSH2 0x27A JUMPI SWAP2 DUP3 ADD JUMPDEST DUP3 DUP2 GT ISZERO PUSH2 0x279 JUMPI DUP3 MLOAD DUP3 SSTORE SWAP2 PUSH1 0x20 ADD SWAP2 SWAP1 PUSH1 0x1 ADD SWAP1 PUSH2 0x25E JUMP JUMPDEST JUMPDEST POP SWAP1 POP PUSH2 0x287 SWAP2 SWAP1 PUSH2 0x28B JUMP JUMPDEST POP SWAP1 JUMP JUMPDEST JUMPDEST DUP1 DUP3 GT ISZERO PUSH2 0x2A4 JUMPI PUSH1 0x0 DUP2 PUSH1 0x0 SWAP1 SSTORE POP PUSH1 0x1 ADD PUSH2 0x28C JUMP JUMPDEST POP SWAP1 JUMP JUMPDEST PUSH1 0x0 PUSH2 0x2BB PUSH2 0x2B6 DUP5 PUSH2 0x463 JUMP JUMPDEST PUSH2 0x43E JUMP JUMPDEST SWAP1 POP DUP3 DUP2 MSTORE PUSH1 0x20 DUP2 ADD DUP5 DUP5 DUP5 ADD GT ISZERO PUSH2 0x2D7 JUMPI PUSH2 0x2D6 PUSH2 0x5C2 JUMP JUMPDEST JUMPDEST PUSH2 0x2E2 DUP5 DUP3 DUP6 PUSH2 0x4BA JUMP JUMPDEST POP SWAP4 SWAP3 POP POP POP JUMP JUMPDEST PUSH1 0x0 DUP3 PUSH1 0x1F DUP4 ADD SLT PUSH2 0x2FF JUMPI PUSH2 0x2FE PUSH2 0x5BD JUMP JUMPDEST JUMPDEST DUP2 CALLDATALOAD PUSH2 0x30F DUP5 DUP3 PUSH1 0x20 DUP7 ADD PUSH2 0x2A8 JUMP JUMPDEST SWAP2 POP POP SWAP3 SWAP2 POP POP JUMP JUMPDEST PUSH1 0x0 DUP2 CALLDATALOAD SWAP1 POP PUSH2 0x327 DUP2 PUSH2 0x5E2 JUMP JUMPDEST SWAP3 SWAP2 POP POP JUMP JUMPDEST PUSH1 0x0 DUP1 PUSH1 0x40 DUP4 DUP6 SUB SLT ISZERO PUSH2 0x344 JUMPI PUSH2 0x343 PUSH2 0x5CC JUMP JUMPDEST JUMPDEST PUSH1 0x0 PUSH2 0x352 DUP6 DUP3 DUP7 ADD PUSH2 0x318 JUMP JUMPDEST SWAP3 POP POP PUSH1 0x20 DUP4 ADD CALLDATALOAD PUSH8 0xFFFFFFFFFFFFFFFF DUP2 GT ISZERO PUSH2 0x373 JUMPI PUSH2 0x372 PUSH2 0x5C7 JUMP JUMPDEST JUMPDEST PUSH2 0x37F DUP6 DUP3 DUP7 ADD PUSH2 0x2EA JUMP JUMPDEST SWAP2 POP POP SWAP3 POP SWAP3 SWAP1 POP JUMP JUMPDEST PUSH1 0x0 PUSH2 0x394 DUP3 PUSH2 0x494 JUMP JUMPDEST PUSH2 0x39E DUP2 DUP6 PUSH2 0x49F JUMP JUMPDEST SWAP4 POP PUSH2 0x3AE DUP2 DUP6 PUSH1 0x20 DUP7 ADD PUSH2 0x4C9 JUMP JUMPDEST PUSH2 0x3B7 DUP2 PUSH2 0x5D1 JUMP JUMPDEST DUP5 ADD SWAP2 POP POP SWAP3 SWAP2 POP POP JUMP JUMPDEST PUSH2 0x3CB DUP2 PUSH2 0x4B0 JUMP JUMPDEST DUP3 MSTORE POP POP JUMP JUMPDEST PUSH1 0x0 PUSH1 0x20 DUP3 ADD SWAP1 POP DUP2 DUP2 SUB PUSH1 0x0 DUP4 ADD MSTORE PUSH2 0x3EB DUP2 DUP5 PUSH2 0x389 JUMP JUMPDEST SWAP1 POP SWAP3 SWAP2 POP POP JUMP JUMPDEST PUSH1 0x0 PUSH1 0x20 DUP3 ADD SWAP1 POP PUSH2 0x408 PUSH1 0x0 DUP4 ADD DUP5 PUSH2 0x3C2 JUMP JUMPDEST SWAP3 SWAP2 POP POP JUMP JUMPDEST PUSH1 0x0 PUSH1 0x40 DUP3 ADD SWAP1 POP PUSH2 0x423 PUSH1 0x0 DUP4 ADD DUP6 PUSH2 0x3C2 JUMP JUMPDEST DUP2 DUP2 SUB PUSH1 0x20 DUP4 ADD MSTORE PUSH2 0x435 DUP2 DUP5 PUSH2 0x389 JUMP JUMPDEST SWAP1 POP SWAP4 SWAP3 POP POP POP JUMP JUMPDEST PUSH1 0x0 PUSH2 0x448 PUSH2 0x459 JUMP JUMPDEST SWAP1 POP PUSH2 0x454 DUP3 DUP3 PUSH2 0x52E JUMP JUMPDEST SWAP2 SWAP1 POP JUMP JUMPDEST PUSH1 0x0 PUSH1 0x40 MLOAD SWAP1 POP SWAP1 JUMP JUMPDEST PUSH1 0x0 PUSH8 0xFFFFFFFFFFFFFFFF DUP3 GT ISZERO PUSH2 0x47E JUMPI PUSH2 0x47D PUSH2 0x58E JUMP JUMPDEST JUMPDEST PUSH2 0x487 DUP3 PUSH2 0x5D1 JUMP JUMPDEST SWAP1 POP PUSH1 0x20 DUP2 ADD SWAP1 POP SWAP2 SWAP1 POP JUMP JUMPDEST PUSH1 0x0 DUP2 MLOAD SWAP1 POP SWAP2 SWAP1 POP JUMP JUMPDEST PUSH1 0x0 DUP3 DUP3 MSTORE PUSH1 0x20 DUP3 ADD SWAP1 POP SWAP3 SWAP2 POP POP JUMP JUMPDEST PUSH1 0x0 DUP2 SWAP1 POP SWAP2 SWAP1 POP JUMP JUMPDEST DUP3 DUP2 DUP4 CALLDATACOPY PUSH1 0x0 DUP4 DUP4 ADD MSTORE POP POP POP JUMP JUMPDEST PUSH1 0x0 JUMPDEST DUP4 DUP2 LT ISZERO PUSH2 0x4E7 JUMPI DUP1 DUP3 ADD MLOAD DUP2 DUP5 ADD MSTORE PUSH1 0x20 DUP2 ADD SWAP1 POP PUSH2 0x4CC JUMP JUMPDEST DUP4 DUP2 GT ISZERO PUSH2 0x4F6 JUMPI PUSH1 0x0 DUP5 DUP5 ADD MSTORE JUMPDEST POP POP POP POP JUMP JUMPDEST PUSH1 0x0 PUSH1 0x2 DUP3 DIV SWAP1 POP PUSH1 0x1 DUP3 AND DUP1 PUSH2 0x514 JUMPI PUSH1 0x7F DUP3 AND SWAP2 POP JUMPDEST PUSH1 0x20 DUP3 LT DUP2 EQ ISZERO PUSH2 0x528 JUMPI PUSH2 0x527 PUSH2 0x55F JUMP JUMPDEST JUMPDEST POP SWAP2 SWAP1 POP JUMP JUMPDEST PUSH2 0x537 DUP3 PUSH2 0x5D1 JUMP JUMPDEST DUP2 ADD DUP2 DUP2 LT PUSH8 0xFFFFFFFFFFFFFFFF DUP3 GT OR ISZERO PUSH2 0x556 JUMPI PUSH2 0x555 PUSH2 0x58E JUMP JUMPDEST JUMPDEST DUP1 PUSH1 0x40 MSTORE POP POP POP JUMP JUMPDEST PUSH32 0x4E487B7100000000000000000000000000000000000000000000000000000000 PUSH1 0x0 MSTORE PUSH1 0x22 PUSH1 0x4 MSTORE PUSH1 0x24 PUSH1 0x0 REVERT JUMPDEST PUSH32 0x4E487B7100000000000000000000000000000000000000000000000000000000 PUSH1 0x0 MSTORE PUSH1 0x41 PUSH1 0x4 MSTORE PUSH1 0x24 PUSH1 0x0 REVERT JUMPDEST PUSH1 0x0 DUP1 REVERT JUMPDEST PUSH1 0x0 DUP1 REVERT JUMPDEST PUSH1 0x0 DUP1 REVERT JUMPDEST PUSH1 0x0 DUP1 REVERT JUMPDEST PUSH1 0x0 PUSH1 0x1F NOT PUSH1 0x1F DUP4 ADD AND SWAP1 POP SWAP2 SWAP1 POP JUMP JUMPDEST PUSH2 0x5EB DUP2 PUSH2 0x4B0 JUMP JUMPDEST DUP2 EQ PUSH2 0x5F6 JUMPI PUSH1 0x0 DUP1 REVERT JUMPDEST POP JUMP INVALID LOG2 PUSH5 0x6970667358 0x22 SLT KECCAK256 0xEC 0xCD STATICCALL 0xAB 0xD3 0xF6 0xD3 0x4D 0xB1 0x28 0xF7 0xEB PUSH30 0x546265C83F98FC69E8BDF0B405C7F5192C996B64736F6C63430008070033 "
				},
				"gasEstimates": {
					"creation": {
						"codeDepositCost": "316600",
						"executionCost": "355",
						"totalCost": "316955"
					},
					"external": {
						"bFunction(uint256,string)": "infinite",
						"message()": "infinite",
						"num()": "2407"
					}
				},
				"methodIdentifiers": {
					"bFunction(uint256,string)": "f36b7e20",
					"message()": "e21f37ce",
					"num()": "4e70b1dc"
				}
			},
			"storageLayout": {
				"storage": [
					{
						"astId": 39,
						"contract": "contracts/22_Encode.sol:B",
						"label": "num",
						"offset": 0,
						"slot": "0",
						"type": "t_uint256"
					},
					{
						"astId": 41,
						"contract": "contracts/22_Encode.sol:B",
						"label": "message",
						"offset": 0,
						"slot": "1",
						"type": "t_string_storage"
					}
				],
				"types": {
					"t_string_storage": {
						"encoding": "bytes",
						"label": "string",
						"numberOfBytes": "32"
					},
					"t_uint256": {
						"encoding": "inplace",
						"label": "uint256",
						"numberOfBytes": "32"
					}
				}
			},
			"userdoc": {
				"kind": "user",
				"methods": {},
				"version": 1
			}
		}
	}
}