{
	"contracts/22_Encode.sol": {
		"B": {
			"abi": [
				{
					"inputs": [
						{
							"internalType": "uint256",
							"name": "_num",
							"type": "uint256"
						},
						{
							"internalType": "string",
							"name": "_message",
							"type": "string"
						}
					],
					"name": "bFunction",
					"outputs": [
						{
							"internalType": "uint256",
							"name": "",
							"type": "uint256"
						},
						{
							"internalType": "string",
							"name": "",
							"type": "string"
						}
					],
					"stateMutability": "nonpayable",
					"type": "function"
				},
				{
					"inputs": [],
					"name": "message",
					"outputs": [
						{
							"internalType": "string",
							"name": "",
							"type": "string"
						}
					],
					"stateMutability": "view",
					"type": "function"
				},
				{
					"inputs": [],
					"name": "num",
					"outputs": [
						{
							"internalType": "uint256",
							"name": "",
							"type": "uint256"
						}
					],
					"stateMutability": "view",
					"type": "function"
				}
			],
			"devdoc": {
				"kind": "dev",
				"methods": {},
				"version": 1
			},
			"evm": {
				"assembly": "    /* \"contracts/22_Encode.sol\":946:1192  contract B{... */\n  mstore(0x40, 0x80)\n  callvalue\n  dup1\n  iszero\n  tag_1\n  jumpi\n  0x00\n  dup1\n  revert\ntag_1:\n  pop\n  dataSize(sub_0)\n  dup1\n  dataOffset(sub_0)\n  0x00\n  codecopy\n  0x00\n  return\nstop\n\nsub_0: assembly {\n        /* \"contracts/22_Encode.sol\":946:1192  contract B{... */\n      mstore(0x40, 0x80)\n      callvalue\n      dup1\n      iszero\n      tag_1\n      jumpi\n      0x00\n      dup1\n      revert\n    tag_1:\n      pop\n      jumpi(tag_2, lt(calldatasize, 0x04))\n      shr(0xe0, calldataload(0x00))\n      dup1\n      0x4e70b1dc\n      eq\n      tag_3\n      jumpi\n      dup1\n      0xe21f37ce\n      eq\n      tag_4\n      jumpi\n      dup1\n      0xf36b7e20\n      eq\n      tag_5\n      jumpi\n    tag_2:\n      0x00\n      dup1\n      revert\n        /* \"contracts/22_Encode.sol\":962:980  uint256 public num */\n    tag_3:\n      tag_6\n      tag_7\n      jump\t// in\n    tag_6:\n      mload(0x40)\n      tag_8\n      swap2\n      swap1\n      tag_9\n      jump\t// in\n    tag_8:\n      mload(0x40)\n      dup1\n      swap2\n      sub\n      swap1\n      return\n        /* \"contracts/22_Encode.sol\":986:1007  string public message */\n    tag_4:\n      tag_10\n      tag_11\n      jump\t// in\n    tag_10:\n      mload(0x40)\n      tag_12\n      swap2\n      swap1\n      tag_13\n      jump\t// in\n    tag_12:\n      mload(0x40)\n      dup1\n      swap2\n      sub\n      swap1\n      return\n        /* \"contracts/22_Encode.sol\":1014:1190  function bFunction(uint256 _num, string memory _message) public returns(uint256, string memory){... */\n    tag_5:\n      tag_14\n      0x04\n      dup1\n      calldatasize\n      sub\n      dup2\n      add\n      swap1\n      tag_15\n      swap2\n      swap1\n      tag_16\n      jump\t// in\n    tag_15:\n      tag_17\n      jump\t// in\n    tag_14:\n      mload(0x40)\n      tag_18\n      swap3\n      swap2\n      swap1\n      tag_19\n      jump\t// in\n    tag_18:\n      mload(0x40)\n      dup1\n      swap2\n      sub\n      swap1\n      return\n        /* \"contracts/22_Encode.sol\":962:980  uint256 public num */\n    tag_7:\n      sload(0x00)\n      dup2\n      jump\t// out\n        /* \"contracts/22_Encode.sol\":986:1007  string public message */\n    tag_11:\n      0x01\n      dup1\n      sload\n      tag_20\n      swap1\n      tag_21\n      jump\t// in\n    tag_20:\n      dup1\n      0x1f\n      add\n      0x20\n      dup1\n      swap2\n      div\n      mul\n      0x20\n      add\n      mload(0x40)\n      swap1\n      dup2\n      add\n      0x40\n      mstore\n      dup1\n      swap3\n      swap2\n      swap1\n      dup2\n      dup2\n      mstore\n      0x20\n      add\n      dup3\n      dup1\n      sload\n      tag_22\n      swap1\n      tag_21\n      jump\t// in\n    tag_22:\n      dup1\n      iszero\n      tag_23\n      jumpi\n      dup1\n      0x1f\n      lt\n      tag_24\n      jumpi\n      0x0100\n      dup1\n      dup4\n      sload\n      div\n      mul\n      dup4\n      mstore\n      swap2\n      0x20\n      add\n      swap2\n      jump(tag_23)\n    tag_24:\n      dup3\n      add\n      swap2\n      swap1\n      0x00\n      mstore\n      keccak256(0x00, 0x20)\n      swap1\n    tag_25:\n      dup2\n      sload\n      dup2\n      mstore\n      swap1\n      0x01\n      add\n      swap1\n      0x20\n      add\n      dup1\n      dup4\n      gt\n      tag_25\n      jumpi\n      dup3\n      swap1\n      sub\n      0x1f\n      and\n      dup3\n      add\n      swap2\n    tag_23:\n      pop\n      pop\n      pop\n      pop\n      pop\n      dup2\n      jump\t// out\n        /* \"contracts/22_Encode.sol\":1014:1190  function bFunction(uint256 _num, string memory _message) public returns(uint256, string memory){... */\n    tag_17:\n        /* \"contracts/22_Encode.sol\":1086:1093  uint256 */\n      0x00\n        /* \"contracts/22_Encode.sol\":1095:1108  string memory */\n      0x60\n        /* \"contracts/22_Encode.sol\":1123:1127  _num */\n      dup4\n        /* \"contracts/22_Encode.sol\":1119:1122  num */\n      0x00\n        /* \"contracts/22_Encode.sol\":1119:1127  num=_num */\n      dup2\n      swap1\n      sstore\n      pop\n        /* \"contracts/22_Encode.sol\":1145:1153  _message */\n      dup3\n        /* \"contracts/22_Encode.sol\":1137:1144  message */\n      0x01\n        /* \"contracts/22_Encode.sol\":1137:1153  message=_message */\n      swap1\n      dup1\n      mload\n      swap1\n      0x20\n      add\n      swap1\n      tag_27\n      swap3\n      swap2\n      swap1\n      tag_28\n      jump\t// in\n    tag_27:\n      pop\n        /* \"contracts/22_Encode.sol\":1171:1174  num */\n      sload(0x00)\n        /* \"contracts/22_Encode.sol\":1175:1182  message */\n      0x01\n        /* \"contracts/22_Encode.sol\":1163:1183  return (num,message) */\n      dup1\n      dup1\n      sload\n      tag_29\n      swap1\n      tag_21\n      jump\t// in\n    tag_29:\n      dup1\n      0x1f\n      add\n      0x20\n      dup1\n      swap2\n      div\n      mul\n      0x20\n      add\n      mload(0x40)\n      swap1\n      dup2\n      add\n      0x40\n      mstore\n      dup1\n      swap3\n      swap2\n      swap1\n      dup2\n      dup2\n      mstore\n      0x20\n      add\n      dup3\n      dup1\n      sload\n      tag_30\n      swap1\n      tag_21\n      jump\t// in\n    tag_30:\n      dup1\n      iszero\n      tag_31\n      jumpi\n      dup1\n      0x1f\n      lt\n      tag_32\n      jumpi\n      0x0100\n      dup1\n      dup4\n      sload\n      div\n      mul\n      dup4\n      mstore\n      swap2\n      0x20\n      add\n      swap2\n      jump(tag_31)\n    tag_32:\n      dup3\n      add\n      swap2\n      swap1\n      0x00\n      mstore\n      keccak256(0x00, 0x20)\n      swap1\n    tag_33:\n      dup2\n      sload\n      dup2\n      mstore\n      swap1\n      0x01\n      add\n      swap1\n      0x20\n      add\n      dup1\n      dup4\n      gt\n      tag_33\n      jumpi\n      dup3\n      swap1\n      sub\n      0x1f\n      and\n      dup3\n      add\n      swap2\n    tag_31:\n      pop\n      pop\n      pop\n      pop\n      pop\n      swap1\n      pop\n      swap2\n      pop\n      swap2\n      pop\n        /* \"contracts/22_Encode.sol\":1014:1190  function bFunction(uint256 _num, string memory _message) public returns(uint256, string memory){... */\n      swap3\n      pop\n      swap3\n      swap1\n      pop\n      jump\t// out\n    tag_28:\n      dup3\n      dup1\n      sload\n      tag_34\n      swap1\n      tag_21\n      jump\t// in\n    tag_34:\n      swap1\n      0x00\n      mstore\n      keccak256(0x00, 0x20)\n      swap1\n      0x1f\n      add\n      0x20\n      swap1\n      div\n      dup2\n      add\n      swap3\n      dup3\n      tag_36\n      jumpi\n      0x00\n      dup6\n      sstore\n      jump(tag_35)\n    tag_36:\n      dup3\n      0x1f\n      lt\n      tag_37\n      jumpi\n      dup1\n      mload\n      not(0xff)\n      and\n      dup4\n      dup1\n      add\n      or\n      dup6\n      sstore\n      jump(tag_35)\n    tag_37:\n      dup3\n      dup1\n      add\n      0x01\n      add\n      dup6\n      sstore\n      dup3\n      iszero\n      tag_35\n      jumpi\n      swap2\n      dup3\n      add\n    tag_38:\n      dup3\n      dup2\n      gt\n      iszero\n      tag_39\n      jumpi\n      dup3\n      mload\n      dup3\n      sstore\n      swap2\n      0x20\n      add\n      swap2\n      swap1\n      0x01\n      add\n      swap1\n      jump(tag_38)\n    tag_39:\n    tag_35:\n      pop\n      swap1\n      pop\n      tag_40\n      swap2\n      swap1\n      tag_41\n      jump\t// in\n    tag_40:\n      pop\n      swap1\n      jump\t// out\n    tag_41:\n    tag_42:\n      dup1\n      dup3\n      gt\n      iszero\n      tag_43\n      jumpi\n      0x00\n      dup2\n      0x00\n      swap1\n      sstore\n      pop\n      0x01\n      add\n      jump(tag_42)\n    tag_43:\n      pop\n      swap1\n      jump\t// out\n        /* \"#utility.yul\":7:84   */\n    tag_44:\n        /* \"#utility.yul\":44:51   */\n      0x00\n        /* \"#utility.yul\":73:78   */\n      dup2\n        /* \"#utility.yul\":62:78   */\n      swap1\n      pop\n        /* \"#utility.yul\":7:84   */\n      swap2\n      swap1\n      pop\n      jump\t// out\n        /* \"#utility.yul\":90:208   */\n    tag_45:\n        /* \"#utility.yul\":177:201   */\n      tag_69\n        /* \"#utility.yul\":195:200   */\n      dup2\n        /* \"#utility.yul\":177:201   */\n      tag_44\n      jump\t// in\n    tag_69:\n        /* \"#utility.yul\":172:175   */\n      dup3\n        /* \"#utility.yul\":165:202   */\n      mstore\n        /* \"#utility.yul\":90:208   */\n      pop\n      pop\n      jump\t// out\n        /* \"#utility.yul\":214:436   */\n    tag_9:\n        /* \"#utility.yul\":307:311   */\n      0x00\n        /* \"#utility.yul\":345:347   */\n      0x20\n        /* \"#utility.yul\":334:343   */\n      dup3\n        /* \"#utility.yul\":330:348   */\n      add\n        /* \"#utility.yul\":322:348   */\n      swap1\n      pop\n        /* \"#utility.yul\":358:429   */\n      tag_71\n        /* \"#utility.yul\":426:427   */\n      0x00\n        /* \"#utility.yul\":415:424   */\n      dup4\n        /* \"#utility.yul\":411:428   */\n      add\n        /* \"#utility.yul\":402:408   */\n      dup5\n        /* \"#utility.yul\":358:429   */\n      tag_45\n      jump\t// in\n    tag_71:\n        /* \"#utility.yul\":214:436   */\n      swap3\n      swap2\n      pop\n      pop\n      jump\t// out\n        /* \"#utility.yul\":442:541   */\n    tag_46:\n        /* \"#utility.yul\":494:500   */\n      0x00\n        /* \"#utility.yul\":528:533   */\n      dup2\n        /* \"#utility.yul\":522:534   */\n      mload\n        /* \"#utility.yul\":512:534   */\n      swap1\n      pop\n        /* \"#utility.yul\":442:541   */\n      swap2\n      swap1\n      pop\n      jump\t// out\n        /* \"#utility.yul\":547:716   */\n    tag_47:\n        /* \"#utility.yul\":631:642   */\n      0x00\n        /* \"#utility.yul\":665:671   */\n      dup3\n        /* \"#utility.yul\":660:663   */\n      dup3\n        /* \"#utility.yul\":653:672   */\n      mstore\n        /* \"#utility.yul\":705:709   */\n      0x20\n        /* \"#utility.yul\":700:703   */\n      dup3\n        /* \"#utility.yul\":696:710   */\n      add\n        /* \"#utility.yul\":681:710   */\n      swap1\n      pop\n        /* \"#utility.yul\":547:716   */\n      swap3\n      swap2\n      pop\n      pop\n      jump\t// out\n        /* \"#utility.yul\":722:1029   */\n    tag_48:\n        /* \"#utility.yul\":790:791   */\n      0x00\n        /* \"#utility.yul\":800:913   */\n    tag_75:\n        /* \"#utility.yul\":814:820   */\n      dup4\n        /* \"#utility.yul\":811:812   */\n      dup2\n        /* \"#utility.yul\":808:821   */\n      lt\n        /* \"#utility.yul\":800:913   */\n      iszero\n      tag_77\n      jumpi\n        /* \"#utility.yul\":899:900   */\n      dup1\n        /* \"#utility.yul\":894:897   */\n      dup3\n        /* \"#utility.yul\":890:901   */\n      add\n        /* \"#utility.yul\":884:902   */\n      mload\n        /* \"#utility.yul\":880:881   */\n      dup2\n        /* \"#utility.yul\":875:878   */\n      dup5\n        /* \"#utility.yul\":871:882   */\n      add\n        /* \"#utility.yul\":864:903   */\n      mstore\n        /* \"#utility.yul\":836:838   */\n      0x20\n        /* \"#utility.yul\":833:834   */\n      dup2\n        /* \"#utility.yul\":829:839   */\n      add\n        /* \"#utility.yul\":824:839   */\n      swap1\n      pop\n        /* \"#utility.yul\":800:913   */\n      jump(tag_75)\n    tag_77:\n        /* \"#utility.yul\":931:937   */\n      dup4\n        /* \"#utility.yul\":928:929   */\n      dup2\n        /* \"#utility.yul\":925:938   */\n      gt\n        /* \"#utility.yul\":922:1023   */\n      iszero\n      tag_78\n      jumpi\n        /* \"#utility.yul\":1011:1012   */\n      0x00\n        /* \"#utility.yul\":1002:1008   */\n      dup5\n        /* \"#utility.yul\":997:1000   */\n      dup5\n        /* \"#utility.yul\":993:1009   */\n      add\n        /* \"#utility.yul\":986:1013   */\n      mstore\n        /* \"#utility.yul\":922:1023   */\n    tag_78:\n        /* \"#utility.yul\":771:1029   */\n      pop\n        /* \"#utility.yul\":722:1029   */\n      pop\n      pop\n      pop\n      jump\t// out\n        /* \"#utility.yul\":1035:1137   */\n    tag_49:\n        /* \"#utility.yul\":1076:1082   */\n      0x00\n        /* \"#utility.yul\":1127:1129   */\n      0x1f\n        /* \"#utility.yul\":1123:1130   */\n      not\n        /* \"#utility.yul\":1118:1120   */\n      0x1f\n        /* \"#utility.yul\":1111:1116   */\n      dup4\n        /* \"#utility.yul\":1107:1121   */\n      add\n        /* \"#utility.yul\":1103:1131   */\n      and\n        /* \"#utility.yul\":1093:1131   */\n      swap1\n      pop\n        /* \"#utility.yul\":1035:1137   */\n      swap2\n      swap1\n      pop\n      jump\t// out\n        /* \"#utility.yul\":1143:1507   */\n    tag_50:\n        /* \"#utility.yul\":1231:1234   */\n      0x00\n        /* \"#utility.yul\":1259:1298   */\n      tag_81\n        /* \"#utility.yul\":1292:1297   */\n      dup3\n        /* \"#utility.yul\":1259:1298   */\n      tag_46\n      jump\t// in\n    tag_81:\n        /* \"#utility.yul\":1314:1385   */\n      tag_82\n        /* \"#utility.yul\":1378:1384   */\n      dup2\n        /* \"#utility.yul\":1373:1376   */\n      dup6\n        /* \"#utility.yul\":1314:1385   */\n      tag_47\n      jump\t// in\n    tag_82:\n        /* \"#utility.yul\":1307:1385   */\n      swap4\n      pop\n        /* \"#utility.yul\":1394:1446   */\n      tag_83\n        /* \"#utility.yul\":1439:1445   */\n      dup2\n        /* \"#utility.yul\":1434:1437   */\n      dup6\n        /* \"#utility.yul\":1427:1431   */\n      0x20\n        /* \"#utility.yul\":1420:1425   */\n      dup7\n        /* \"#utility.yul\":1416:1432   */\n      add\n        /* \"#utility.yul\":1394:1446   */\n      tag_48\n      jump\t// in\n    tag_83:\n        /* \"#utility.yul\":1471:1500   */\n      tag_84\n        /* \"#utility.yul\":1493:1499   */\n      dup2\n        /* \"#utility.yul\":1471:1500   */\n      tag_49\n      jump\t// in\n    tag_84:\n        /* \"#utility.yul\":1466:1469   */\n      dup5\n        /* \"#utility.yul\":1462:1501   */\n      add\n        /* \"#utility.yul\":1455:1501   */\n      swap2\n      pop\n        /* \"#utility.yul\":1235:1507   */\n      pop\n        /* \"#utility.yul\":1143:1507   */\n      swap3\n      swap2\n      pop\n      pop\n      jump\t// out\n        /* \"#utility.yul\":1513:1826   */\n    tag_13:\n        /* \"#utility.yul\":1626:1630   */\n      0x00\n        /* \"#utility.yul\":1664:1666   */\n      0x20\n        /* \"#utility.yul\":1653:1662   */\n      dup3\n        /* \"#utility.yul\":1649:1667   */\n      add\n        /* \"#utility.yul\":1641:1667   */\n      swap1\n      pop\n        /* \"#utility.yul\":1713:1722   */\n      dup2\n        /* \"#utility.yul\":1707:1711   */\n      dup2\n        /* \"#utility.yul\":1703:1723   */\n      sub\n        /* \"#utility.yul\":1699:1700   */\n      0x00\n        /* \"#utility.yul\":1688:1697   */\n      dup4\n        /* \"#utility.yul\":1684:1701   */\n      add\n        /* \"#utility.yul\":1677:1724   */\n      mstore\n        /* \"#utility.yul\":1741:1819   */\n      tag_86\n        /* \"#utility.yul\":1814:1818   */\n      dup2\n        /* \"#utility.yul\":1805:1811   */\n      dup5\n        /* \"#utility.yul\":1741:1819   */\n      tag_50\n      jump\t// in\n    tag_86:\n        /* \"#utility.yul\":1733:1819   */\n      swap1\n      pop\n        /* \"#utility.yul\":1513:1826   */\n      swap3\n      swap2\n      pop\n      pop\n      jump\t// out\n        /* \"#utility.yul\":1832:1907   */\n    tag_51:\n        /* \"#utility.yul\":1865:1871   */\n      0x00\n        /* \"#utility.yul\":1898:1900   */\n      0x40\n        /* \"#utility.yul\":1892:1901   */\n      mload\n        /* \"#utility.yul\":1882:1901   */\n      swap1\n      pop\n        /* \"#utility.yul\":1832:1907   */\n      swap1\n      jump\t// out\n        /* \"#utility.yul\":1913:2030   */\n    tag_52:\n        /* \"#utility.yul\":2022:2023   */\n      0x00\n        /* \"#utility.yul\":2019:2020   */\n      dup1\n        /* \"#utility.yul\":2012:2024   */\n      revert\n        /* \"#utility.yul\":2036:2153   */\n    tag_53:\n        /* \"#utility.yul\":2145:2146   */\n      0x00\n        /* \"#utility.yul\":2142:2143   */\n      dup1\n        /* \"#utility.yul\":2135:2147   */\n      revert\n        /* \"#utility.yul\":2159:2281   */\n    tag_54:\n        /* \"#utility.yul\":2232:2256   */\n      tag_91\n        /* \"#utility.yul\":2250:2255   */\n      dup2\n        /* \"#utility.yul\":2232:2256   */\n      tag_44\n      jump\t// in\n    tag_91:\n        /* \"#utility.yul\":2225:2230   */\n      dup2\n        /* \"#utility.yul\":2222:2257   */\n      eq\n        /* \"#utility.yul\":2212:2275   */\n      tag_92\n      jumpi\n        /* \"#utility.yul\":2271:2272   */\n      0x00\n        /* \"#utility.yul\":2268:2269   */\n      dup1\n        /* \"#utility.yul\":2261:2273   */\n      revert\n        /* \"#utility.yul\":2212:2275   */\n    tag_92:\n        /* \"#utility.yul\":2159:2281   */\n      pop\n      jump\t// out\n        /* \"#utility.yul\":2287:2426   */\n    tag_55:\n        /* \"#utility.yul\":2333:2338   */\n      0x00\n        /* \"#utility.yul\":2371:2377   */\n      dup2\n        /* \"#utility.yul\":2358:2378   */\n      calldataload\n        /* \"#utility.yul\":2349:2378   */\n      swap1\n      pop\n        /* \"#utility.yul\":2387:2420   */\n      tag_94\n        /* \"#utility.yul\":2414:2419   */\n      dup2\n        /* \"#utility.yul\":2387:2420   */\n      tag_54\n      jump\t// in\n    tag_94:\n        /* \"#utility.yul\":2287:2426   */\n      swap3\n      swap2\n      pop\n      pop\n      jump\t// out\n        /* \"#utility.yul\":2432:2549   */\n    tag_56:\n        /* \"#utility.yul\":2541:2542   */\n      0x00\n        /* \"#utility.yul\":2538:2539   */\n      dup1\n        /* \"#utility.yul\":2531:2543   */\n      revert\n        /* \"#utility.yul\":2555:2672   */\n    tag_57:\n        /* \"#utility.yul\":2664:2665   */\n      0x00\n        /* \"#utility.yul\":2661:2662   */\n      dup1\n        /* \"#utility.yul\":2654:2666   */\n      revert\n        /* \"#utility.yul\":2678:2858   */\n    tag_58:\n        /* \"#utility.yul\":2726:2803   */\n      0x4e487b7100000000000000000000000000000000000000000000000000000000\n        /* \"#utility.yul\":2723:2724   */\n      0x00\n        /* \"#utility.yul\":2716:2804   */\n      mstore\n        /* \"#utility.yul\":2823:2827   */\n      0x41\n        /* \"#utility.yul\":2820:2821   */\n      0x04\n        /* \"#utility.yul\":2813:2828   */\n      mstore\n        /* \"#utility.yul\":2847:2851   */\n      0x24\n        /* \"#utility.yul\":2844:2845   */\n      0x00\n        /* \"#utility.yul\":2837:2852   */\n      revert\n        /* \"#utility.yul\":2864:3145   */\n    tag_59:\n        /* \"#utility.yul\":2947:2974   */\n      tag_99\n        /* \"#utility.yul\":2969:2973   */\n      dup3\n        /* \"#utility.yul\":2947:2974   */\n      tag_49\n      jump\t// in\n    tag_99:\n        /* \"#utility.yul\":2939:2945   */\n      dup2\n        /* \"#utility.yul\":2935:2975   */\n      add\n        /* \"#utility.yul\":3077:3083   */\n      dup2\n        /* \"#utility.yul\":3065:3075   */\n      dup2\n        /* \"#utility.yul\":3062:3084   */\n      lt\n        /* \"#utility.yul\":3041:3059   */\n      0xffffffffffffffff\n        /* \"#utility.yul\":3029:3039   */\n      dup3\n        /* \"#utility.yul\":3026:3060   */\n      gt\n        /* \"#utility.yul\":3023:3085   */\n      or\n        /* \"#utility.yul\":3020:3108   */\n      iszero\n      tag_100\n      jumpi\n        /* \"#utility.yul\":3088:3106   */\n      tag_101\n      tag_58\n      jump\t// in\n    tag_101:\n        /* \"#utility.yul\":3020:3108   */\n    tag_100:\n        /* \"#utility.yul\":3128:3138   */\n      dup1\n        /* \"#utility.yul\":3124:3126   */\n      0x40\n        /* \"#utility.yul\":3117:3139   */\n      mstore\n        /* \"#utility.yul\":2907:3145   */\n      pop\n        /* \"#utility.yul\":2864:3145   */\n      pop\n      pop\n      jump\t// out\n        /* \"#utility.yul\":3151:3280   */\n    tag_60:\n        /* \"#utility.yul\":3185:3191   */\n      0x00\n        /* \"#utility.yul\":3212:3232   */\n      tag_103\n      tag_51\n      jump\t// in\n    tag_103:\n        /* \"#utility.yul\":3202:3232   */\n      swap1\n      pop\n        /* \"#utility.yul\":3241:3274   */\n      tag_104\n        /* \"#utility.yul\":3269:3273   */\n      dup3\n        /* \"#utility.yul\":3261:3267   */\n      dup3\n        /* \"#utility.yul\":3241:3274   */\n      tag_59\n      jump\t// in\n    tag_104:\n        /* \"#utility.yul\":3151:3280   */\n      swap2\n      swap1\n      pop\n      jump\t// out\n        /* \"#utility.yul\":3286:3594   */\n    tag_61:\n        /* \"#utility.yul\":3348:3352   */\n      0x00\n        /* \"#utility.yul\":3438:3456   */\n      0xffffffffffffffff\n        /* \"#utility.yul\":3430:3436   */\n      dup3\n        /* \"#utility.yul\":3427:3457   */\n      gt\n        /* \"#utility.yul\":3424:3480   */\n      iszero\n      tag_106\n      jumpi\n        /* \"#utility.yul\":3460:3478   */\n      tag_107\n      tag_58\n      jump\t// in\n    tag_107:\n        /* \"#utility.yul\":3424:3480   */\n    tag_106:\n        /* \"#utility.yul\":3498:3527   */\n      tag_108\n        /* \"#utility.yul\":3520:3526   */\n      dup3\n        /* \"#utility.yul\":3498:3527   */\n      tag_49\n      jump\t// in\n    tag_108:\n        /* \"#utility.yul\":3490:3527   */\n      swap1\n      pop\n        /* \"#utility.yul\":3582:3586   */\n      0x20\n        /* \"#utility.yul\":3576:3580   */\n      dup2\n        /* \"#utility.yul\":3572:3587   */\n      add\n        /* \"#utility.yul\":3564:3587   */\n      swap1\n      pop\n        /* \"#utility.yul\":3286:3594   */\n      swap2\n      swap1\n      pop\n      jump\t// out\n        /* \"#utility.yul\":3600:3754   */\n    tag_62:\n        /* \"#utility.yul\":3684:3690   */\n      dup3\n        /* \"#utility.yul\":3679:3682   */\n      dup2\n        /* \"#utility.yul\":3674:3677   */\n      dup4\n        /* \"#utility.yul\":3661:3691   */\n      calldatacopy\n        /* \"#utility.yul\":3746:3747   */\n      0x00\n        /* \"#utility.yul\":3737:3743   */\n      dup4\n        /* \"#utility.yul\":3732:3735   */\n      dup4\n        /* \"#utility.yul\":3728:3744   */\n      add\n        /* \"#utility.yul\":3721:3748   */\n      mstore\n        /* \"#utility.yul\":3600:3754   */\n      pop\n      pop\n      pop\n      jump\t// out\n        /* \"#utility.yul\":3760:4172   */\n    tag_63:\n        /* \"#utility.yul\":3838:3843   */\n      0x00\n        /* \"#utility.yul\":3863:3929   */\n      tag_111\n        /* \"#utility.yul\":3879:3928   */\n      tag_112\n        /* \"#utility.yul\":3921:3927   */\n      dup5\n        /* \"#utility.yul\":3879:3928   */\n      tag_61\n      jump\t// in\n    tag_112:\n        /* \"#utility.yul\":3863:3929   */\n      tag_60\n      jump\t// in\n    tag_111:\n        /* \"#utility.yul\":3854:3929   */\n      swap1\n      pop\n        /* \"#utility.yul\":3952:3958   */\n      dup3\n        /* \"#utility.yul\":3945:3950   */\n      dup2\n        /* \"#utility.yul\":3938:3959   */\n      mstore\n        /* \"#utility.yul\":3990:3994   */\n      0x20\n        /* \"#utility.yul\":3983:3988   */\n      dup2\n        /* \"#utility.yul\":3979:3995   */\n      add\n        /* \"#utility.yul\":4028:4031   */\n      dup5\n        /* \"#utility.yul\":4019:4025   */\n      dup5\n        /* \"#utility.yul\":4014:4017   */\n      dup5\n        /* \"#utility.yul\":4010:4026   */\n      add\n        /* \"#utility.yul\":4007:4032   */\n      gt\n        /* \"#utility.yul\":4004:4116   */\n      iszero\n      tag_113\n      jumpi\n        /* \"#utility.yul\":4035:4114   */\n      tag_114\n      tag_57\n      jump\t// in\n    tag_114:\n        /* \"#utility.yul\":4004:4116   */\n    tag_113:\n        /* \"#utility.yul\":4125:4166   */\n      tag_115\n        /* \"#utility.yul\":4159:4165   */\n      dup5\n        /* \"#utility.yul\":4154:4157   */\n      dup3\n        /* \"#utility.yul\":4149:4152   */\n      dup6\n        /* \"#utility.yul\":4125:4166   */\n      tag_62\n      jump\t// in\n    tag_115:\n        /* \"#utility.yul\":3844:4172   */\n      pop\n        /* \"#utility.yul\":3760:4172   */\n      swap4\n      swap3\n      pop\n      pop\n      pop\n      jump\t// out\n        /* \"#utility.yul\":4192:4532   */\n    tag_64:\n        /* \"#utility.yul\":4248:4253   */\n      0x00\n        /* \"#utility.yul\":4297:4300   */\n      dup3\n        /* \"#utility.yul\":4290:4294   */\n      0x1f\n        /* \"#utility.yul\":4282:4288   */\n      dup4\n        /* \"#utility.yul\":4278:4295   */\n      add\n        /* \"#utility.yul\":4274:4301   */\n      slt\n        /* \"#utility.yul\":4264:4386   */\n      tag_117\n      jumpi\n        /* \"#utility.yul\":4305:4384   */\n      tag_118\n      tag_56\n      jump\t// in\n    tag_118:\n        /* \"#utility.yul\":4264:4386   */\n    tag_117:\n        /* \"#utility.yul\":4422:4428   */\n      dup2\n        /* \"#utility.yul\":4409:4429   */\n      calldataload\n        /* \"#utility.yul\":4447:4526   */\n      tag_119\n        /* \"#utility.yul\":4522:4525   */\n      dup5\n        /* \"#utility.yul\":4514:4520   */\n      dup3\n        /* \"#utility.yul\":4507:4511   */\n      0x20\n        /* \"#utility.yul\":4499:4505   */\n      dup7\n        /* \"#utility.yul\":4495:4512   */\n      add\n        /* \"#utility.yul\":4447:4526   */\n      tag_63\n      jump\t// in\n    tag_119:\n        /* \"#utility.yul\":4438:4526   */\n      swap2\n      pop\n        /* \"#utility.yul\":4254:4532   */\n      pop\n        /* \"#utility.yul\":4192:4532   */\n      swap3\n      swap2\n      pop\n      pop\n      jump\t// out\n        /* \"#utility.yul\":4538:5192   */\n    tag_16:\n        /* \"#utility.yul\":4616:4622   */\n      0x00\n        /* \"#utility.yul\":4624:4630   */\n      dup1\n        /* \"#utility.yul\":4673:4675   */\n      0x40\n        /* \"#utility.yul\":4661:4670   */\n      dup4\n        /* \"#utility.yul\":4652:4659   */\n      dup6\n        /* \"#utility.yul\":4648:4671   */\n      sub\n        /* \"#utility.yul\":4644:4676   */\n      slt\n        /* \"#utility.yul\":4641:4760   */\n      iszero\n      tag_121\n      jumpi\n        /* \"#utility.yul\":4679:4758   */\n      tag_122\n      tag_52\n      jump\t// in\n    tag_122:\n        /* \"#utility.yul\":4641:4760   */\n    tag_121:\n        /* \"#utility.yul\":4799:4800   */\n      0x00\n        /* \"#utility.yul\":4824:4877   */\n      tag_123\n        /* \"#utility.yul\":4869:4876   */\n      dup6\n        /* \"#utility.yul\":4860:4866   */\n      dup3\n        /* \"#utility.yul\":4849:4858   */\n      dup7\n        /* \"#utility.yul\":4845:4867   */\n      add\n        /* \"#utility.yul\":4824:4877   */\n      tag_55\n      jump\t// in\n    tag_123:\n        /* \"#utility.yul\":4814:4877   */\n      swap3\n      pop\n        /* \"#utility.yul\":4770:4887   */\n      pop\n        /* \"#utility.yul\":4954:4956   */\n      0x20\n        /* \"#utility.yul\":4943:4952   */\n      dup4\n        /* \"#utility.yul\":4939:4957   */\n      add\n        /* \"#utility.yul\":4926:4958   */\n      calldataload\n        /* \"#utility.yul\":4985:5003   */\n      0xffffffffffffffff\n        /* \"#utility.yul\":4977:4983   */\n      dup2\n        /* \"#utility.yul\":4974:5004   */\n      gt\n        /* \"#utility.yul\":4971:5088   */\n      iszero\n      tag_124\n      jumpi\n        /* \"#utility.yul\":5007:5086   */\n      tag_125\n      tag_53\n      jump\t// in\n    tag_125:\n        /* \"#utility.yul\":4971:5088   */\n    tag_124:\n        /* \"#utility.yul\":5112:5175   */\n      tag_126\n        /* \"#utility.yul\":5167:5174   */\n      dup6\n        /* \"#utility.yul\":5158:5164   */\n      dup3\n        /* \"#utility.yul\":5147:5156   */\n      dup7\n        /* \"#utility.yul\":5143:5165   */\n      add\n        /* \"#utility.yul\":5112:5175   */\n      tag_64\n      jump\t// in\n    tag_126:\n        /* \"#utility.yul\":5102:5175   */\n      swap2\n      pop\n        /* \"#utility.yul\":4897:5185   */\n      pop\n        /* \"#utility.yul\":4538:5192   */\n      swap3\n      pop\n      swap3\n      swap1\n      pop\n      jump\t// out\n        /* \"#utility.yul\":5198:5621   */\n    tag_19:\n        /* \"#utility.yul\":5339:5343   */\n      0x00\n        /* \"#utility.yul\":5377:5379   */\n      0x40\n        /* \"#utility.yul\":5366:5375   */\n      dup3\n        /* \"#utility.yul\":5362:5380   */\n      add\n        /* \"#utility.yul\":5354:5380   */\n      swap1\n      pop\n        /* \"#utility.yul\":5390:5461   */\n      tag_128\n        /* \"#utility.yul\":5458:5459   */\n      0x00\n        /* \"#utility.yul\":5447:5456   */\n      dup4\n        /* \"#utility.yul\":5443:5460   */\n      add\n        /* \"#utility.yul\":5434:5440   */\n      dup6\n        /* \"#utility.yul\":5390:5461   */\n      tag_45\n      jump\t// in\n    tag_128:\n        /* \"#utility.yul\":5508:5517   */\n      dup2\n        /* \"#utility.yul\":5502:5506   */\n      dup2\n        /* \"#utility.yul\":5498:5518   */\n      sub\n        /* \"#utility.yul\":5493:5495   */\n      0x20\n        /* \"#utility.yul\":5482:5491   */\n      dup4\n        /* \"#utility.yul\":5478:5496   */\n      add\n        /* \"#utility.yul\":5471:5519   */\n      mstore\n        /* \"#utility.yul\":5536:5614   */\n      tag_129\n        /* \"#utility.yul\":5609:5613   */\n      dup2\n        /* \"#utility.yul\":5600:5606   */\n      dup5\n        /* \"#utility.yul\":5536:5614   */\n      tag_50\n      jump\t// in\n    tag_129:\n        /* \"#utility.yul\":5528:5614   */\n      swap1\n      pop\n        /* \"#utility.yul\":5198:5621   */\n      swap4\n      swap3\n      pop\n      pop\n      pop\n      jump\t// out\n        /* \"#utility.yul\":5627:5807   */\n    tag_65:\n        /* \"#utility.yul\":5675:5752   */\n      0x4e487b7100000000000000000000000000000000000000000000000000000000\n        /* \"#utility.yul\":5672:5673   */\n      0x00\n        /* \"#utility.yul\":5665:5753   */\n      mstore\n        /* \"#utility.yul\":5772:5776   */\n      0x22\n        /* \"#utility.yul\":5769:5770   */\n      0x04\n        /* \"#utility.yul\":5762:5777   */\n      mstore\n        /* \"#utility.yul\":5796:5800   */\n      0x24\n        /* \"#utility.yul\":5793:5794   */\n      0x00\n        /* \"#utility.yul\":5786:5801   */\n      revert\n        /* \"#utility.yul\":5813:6133   */\n    tag_21:\n        /* \"#utility.yul\":5857:5863   */\n      0x00\n        /* \"#utility.yul\":5894:5895   */\n      0x02\n        /* \"#utility.yul\":5888:5892   */\n      dup3\n        /* \"#utility.yul\":5884:5896   */\n      div\n        /* \"#utility.yul\":5874:5896   */\n      swap1\n      pop\n        /* \"#utility.yul\":5941:5942   */\n      0x01\n        /* \"#utility.yul\":5935:5939   */\n      dup3\n        /* \"#utility.yul\":5931:5943   */\n      and\n        /* \"#utility.yul\":5962:5980   */\n      dup1\n        /* \"#utility.yul\":5952:6033   */\n      tag_132\n      jumpi\n        /* \"#utility.yul\":6018:6022   */\n      0x7f\n        /* \"#utility.yul\":6010:6016   */\n      dup3\n        /* \"#utility.yul\":6006:6023   */\n      and\n        /* \"#utility.yul\":5996:6023   */\n      swap2\n      pop\n        /* \"#utility.yul\":5952:6033   */\n    tag_132:\n        /* \"#utility.yul\":6080:6082   */\n      0x20\n        /* \"#utility.yul\":6072:6078   */\n      dup3\n        /* \"#utility.yul\":6069:6083   */\n      lt\n        /* \"#utility.yul\":6049:6067   */\n      dup2\n        /* \"#utility.yul\":6046:6084   */\n      eq\n        /* \"#utility.yul\":6043:6127   */\n      iszero\n      tag_133\n      jumpi\n        /* \"#utility.yul\":6099:6117   */\n      tag_134\n      tag_65\n      jump\t// in\n    tag_134:\n        /* \"#utility.yul\":6043:6127   */\n    tag_133:\n        /* \"#utility.yul\":5864:6133   */\n      pop\n        /* \"#utility.yul\":5813:6133   */\n      swap2\n      swap1\n      pop\n      jump\t// out\n\n    auxdata: 0xa26469706673582212208d3ec4cd6f302dfe02524a236b2fa2d0103a192004fe1bb9602288a4f8e6086a64736f6c634300080b0033\n}\n",
				"bytecode": {
					"linkReferences": {},
					"object": "608060405234801561001057600080fd5b5061062f806100206000396000f3fe608060405234801561001057600080fd5b50600436106100415760003560e01c80634e70b1dc14610046578063e21f37ce14610064578063f36b7e2014610082575b600080fd5b61004e6100b3565b60405161005b91906102c1565b60405180910390f35b61006c6100b9565b6040516100799190610375565b60405180910390f35b61009c6004803603810190610097919061050c565b610147565b6040516100aa929190610568565b60405180910390f35b60005481565b600180546100c6906105c7565b80601f01602080910402602001604051908101604052809291908181526020018280546100f2906105c7565b801561013f5780601f106101145761010080835404028352916020019161013f565b820191906000526020600020905b81548152906001019060200180831161012257829003601f168201915b505050505081565b60006060836000819055508260019080519060200190610168929190610205565b50600054600180805461017a906105c7565b80601f01602080910402602001604051908101604052809291908181526020018280546101a6906105c7565b80156101f35780601f106101c8576101008083540402835291602001916101f3565b820191906000526020600020905b8154815290600101906020018083116101d657829003601f168201915b50505050509050915091509250929050565b828054610211906105c7565b90600052602060002090601f016020900481019282610233576000855561027a565b82601f1061024c57805160ff191683800117855561027a565b8280016001018555821561027a579182015b8281111561027957825182559160200191906001019061025e565b5b509050610287919061028b565b5090565b5b808211156102a457600081600090555060010161028c565b5090565b6000819050919050565b6102bb816102a8565b82525050565b60006020820190506102d660008301846102b2565b92915050565b600081519050919050565b600082825260208201905092915050565b60005b838110156103165780820151818401526020810190506102fb565b83811115610325576000848401525b50505050565b6000601f19601f8301169050919050565b6000610347826102dc565b61035181856102e7565b93506103618185602086016102f8565b61036a8161032b565b840191505092915050565b6000602082019050818103600083015261038f818461033c565b905092915050565b6000604051905090565b600080fd5b600080fd5b6103b4816102a8565b81146103bf57600080fd5b50565b6000813590506103d1816103ab565b92915050565b600080fd5b600080fd5b7f4e487b7100000000000000000000000000000000000000000000000000000000600052604160045260246000fd5b6104198261032b565b810181811067ffffffffffffffff82111715610438576104376103e1565b5b80604052505050565b600061044b610397565b90506104578282610410565b919050565b600067ffffffffffffffff821115610477576104766103e1565b5b6104808261032b565b9050602081019050919050565b82818337600083830152505050565b60006104af6104aa8461045c565b610441565b9050828152602081018484840111156104cb576104ca6103dc565b5b6104d684828561048d565b509392505050565b600082601f8301126104f3576104f26103d7565b5b813561050384826020860161049c565b91505092915050565b60008060408385031215610523576105226103a1565b5b6000610531858286016103c2565b925050602083013567ffffffffffffffff811115610552576105516103a6565b5b61055e858286016104de565b9150509250929050565b600060408201905061057d60008301856102b2565b818103602083015261058f818461033c565b90509392505050565b7f4e487b7100000000000000000000000000000000000000000000000000000000600052602260045260246000fd5b600060028204905060018216806105df57607f821691505b602082108114156105f3576105f2610598565b5b5091905056fea26469706673582212208d3ec4cd6f302dfe02524a236b2fa2d0103a192004fe1bb9602288a4f8e6086a64736f6c634300080b0033",
					"opcodes": "PUSH1 0x80 PUSH1 0x40 MSTORE CALLVALUE DUP1 ISZERO PUSH2 0x10 JUMPI PUSH1 0x0 DUP1 REVERT JUMPDEST POP PUSH2 0x62F DUP1 PUSH2 0x20 PUSH1 0x0 CODECOPY PUSH1 0x0 RETURN INVALID PUSH1 0x80 PUSH1 0x40 MSTORE CALLVALUE DUP1 ISZERO PUSH2 0x10 JUMPI PUSH1 0x0 DUP1 REVERT JUMPDEST POP PUSH1 0x4 CALLDATASIZE LT PUSH2 0x41 JUMPI PUSH1 0x0 CALLDATALOAD PUSH1 0xE0 SHR DUP1 PUSH4 0x4E70B1DC EQ PUSH2 0x46 JUMPI DUP1 PUSH4 0xE21F37CE EQ PUSH2 0x64 JUMPI DUP1 PUSH4 0xF36B7E20 EQ PUSH2 0x82 JUMPI JUMPDEST PUSH1 0x0 DUP1 REVERT JUMPDEST PUSH2 0x4E PUSH2 0xB3 JUMP JUMPDEST PUSH1 0x40 MLOAD PUSH2 0x5B SWAP2 SWAP1 PUSH2 0x2C1 JUMP JUMPDEST PUSH1 0x40 MLOAD DUP1 SWAP2 SUB SWAP1 RETURN JUMPDEST PUSH2 0x6C PUSH2 0xB9 JUMP JUMPDEST PUSH1 0x40 MLOAD PUSH2 0x79 SWAP2 SWAP1 PUSH2 0x375 JUMP JUMPDEST PUSH1 0x40 MLOAD DUP1 SWAP2 SUB SWAP1 RETURN JUMPDEST PUSH2 0x9C PUSH1 0x4 DUP1 CALLDATASIZE SUB DUP2 ADD SWAP1 PUSH2 0x97 SWAP2 SWAP1 PUSH2 0x50C JUMP JUMPDEST PUSH2 0x147 JUMP JUMPDEST PUSH1 0x40 MLOAD PUSH2 0xAA SWAP3 SWAP2 SWAP1 PUSH2 0x568 JUMP JUMPDEST PUSH1 0x40 MLOAD DUP1 SWAP2 SUB SWAP1 RETURN JUMPDEST PUSH1 0x0 SLOAD DUP2 JUMP JUMPDEST PUSH1 0x1 DUP1 SLOAD PUSH2 0xC6 SWAP1 PUSH2 0x5C7 JUMP JUMPDEST DUP1 PUSH1 0x1F ADD PUSH1 0x20 DUP1 SWAP2 DIV MUL PUSH1 0x20 ADD PUSH1 0x40 MLOAD SWAP1 DUP2 ADD PUSH1 0x40 MSTORE DUP1 SWAP3 SWAP2 SWAP1 DUP2 DUP2 MSTORE PUSH1 0x20 ADD DUP3 DUP1 SLOAD PUSH2 0xF2 SWAP1 PUSH2 0x5C7 JUMP JUMPDEST DUP1 ISZERO PUSH2 0x13F JUMPI DUP1 PUSH1 0x1F LT PUSH2 0x114 JUMPI PUSH2 0x100 DUP1 DUP4 SLOAD DIV MUL DUP4 MSTORE SWAP2 PUSH1 0x20 ADD SWAP2 PUSH2 0x13F JUMP JUMPDEST DUP3 ADD SWAP2 SWAP1 PUSH1 0x0 MSTORE PUSH1 0x20 PUSH1 0x0 KECCAK256 SWAP1 JUMPDEST DUP2 SLOAD DUP2 MSTORE SWAP1 PUSH1 0x1 ADD SWAP1 PUSH1 0x20 ADD DUP1 DUP4 GT PUSH2 0x122 JUMPI DUP3 SWAP1 SUB PUSH1 0x1F AND DUP3 ADD SWAP2 JUMPDEST POP POP POP POP POP DUP2 JUMP JUMPDEST PUSH1 0x0 PUSH1 0x60 DUP4 PUSH1 0x0 DUP2 SWAP1 SSTORE POP DUP3 PUSH1 0x1 SWAP1 DUP1 MLOAD SWAP1 PUSH1 0x20 ADD SWAP1 PUSH2 0x168 SWAP3 SWAP2 SWAP1 PUSH2 0x205 JUMP JUMPDEST POP PUSH1 0x0 SLOAD PUSH1 0x1 DUP1 DUP1 SLOAD PUSH2 0x17A SWAP1 PUSH2 0x5C7 JUMP JUMPDEST DUP1 PUSH1 0x1F ADD PUSH1 0x20 DUP1 SWAP2 DIV MUL PUSH1 0x20 ADD PUSH1 0x40 MLOAD SWAP1 DUP2 ADD PUSH1 0x40 MSTORE DUP1 SWAP3 SWAP2 SWAP1 DUP2 DUP2 MSTORE PUSH1 0x20 ADD DUP3 DUP1 SLOAD PUSH2 0x1A6 SWAP1 PUSH2 0x5C7 JUMP JUMPDEST DUP1 ISZERO PUSH2 0x1F3 JUMPI DUP1 PUSH1 0x1F LT PUSH2 0x1C8 JUMPI PUSH2 0x100 DUP1 DUP4 SLOAD DIV MUL DUP4 MSTORE SWAP2 PUSH1 0x20 ADD SWAP2 PUSH2 0x1F3 JUMP JUMPDEST DUP3 ADD SWAP2 SWAP1 PUSH1 0x0 MSTORE PUSH1 0x20 PUSH1 0x0 KECCAK256 SWAP1 JUMPDEST DUP2 SLOAD DUP2 MSTORE SWAP1 PUSH1 0x1 ADD SWAP1 PUSH1 0x20 ADD DUP1 DUP4 GT PUSH2 0x1D6 JUMPI DUP3 SWAP1 SUB PUSH1 0x1F AND DUP3 ADD SWAP2 JUMPDEST POP POP POP POP POP SWAP1 POP SWAP2 POP SWAP2 POP SWAP3 POP SWAP3 SWAP1 POP JUMP JUMPDEST DUP3 DUP1 SLOAD PUSH2 0x211 SWAP1 PUSH2 0x5C7 JUMP JUMPDEST SWAP1 PUSH1 0x0 MSTORE PUSH1 0x20 PUSH1 0x0 KECCAK256 SWAP1 PUSH1 0x1F ADD PUSH1 0x20 SWAP1 DIV DUP2 ADD SWAP3 DUP3 PUSH2 0x233 JUMPI PUSH1 0x0 DUP6 SSTORE PUSH2 0x27A JUMP JUMPDEST DUP3 PUSH1 0x1F LT PUSH2 0x24C JUMPI DUP1 MLOAD PUSH1 0xFF NOT AND DUP4 DUP1 ADD OR DUP6 SSTORE PUSH2 0x27A JUMP JUMPDEST DUP3 DUP1 ADD PUSH1 0x1 ADD DUP6 SSTORE DUP3 ISZERO PUSH2 0x27A JUMPI SWAP2 DUP3 ADD JUMPDEST DUP3 DUP2 GT ISZERO PUSH2 0x279 JUMPI DUP3 MLOAD DUP3 SSTORE SWAP2 PUSH1 0x20 ADD SWAP2 SWAP1 PUSH1 0x1 ADD SWAP1 PUSH2 0x25E JUMP JUMPDEST JUMPDEST POP SWAP1 POP PUSH2 0x287 SWAP2 SWAP1 PUSH2 0x28B JUMP JUMPDEST POP SWAP1 JUMP JUMPDEST JUMPDEST DUP1 DUP3 GT ISZERO PUSH2 0x2A4 JUMPI PUSH1 0x0 DUP2 PUSH1 0x0 SWAP1 SSTORE POP PUSH1 0x1 ADD PUSH2 0x28C JUMP JUMPDEST POP SWAP1 JUMP JUMPDEST PUSH1 0x0 DUP2 SWAP1 POP SWAP2 SWAP1 POP JUMP JUMPDEST PUSH2 0x2BB DUP2 PUSH2 0x2A8 JUMP JUMPDEST DUP3 MSTORE POP POP JUMP JUMPDEST PUSH1 0x0 PUSH1 0x20 DUP3 ADD SWAP1 POP PUSH2 0x2D6 PUSH1 0x0 DUP4 ADD DUP5 PUSH2 0x2B2 JUMP JUMPDEST SWAP3 SWAP2 POP POP JUMP JUMPDEST PUSH1 0x0 DUP2 MLOAD SWAP1 POP SWAP2 SWAP1 POP JUMP JUMPDEST PUSH1 0x0 DUP3 DUP3 MSTORE PUSH1 0x20 DUP3 ADD SWAP1 POP SWAP3 SWAP2 POP POP JUMP JUMPDEST PUSH1 0x0 JUMPDEST DUP4 DUP2 LT ISZERO PUSH2 0x316 JUMPI DUP1 DUP3 ADD MLOAD DUP2 DUP5 ADD MSTORE PUSH1 0x20 DUP2 ADD SWAP1 POP PUSH2 0x2FB JUMP JUMPDEST DUP4 DUP2 GT ISZERO PUSH2 0x325 JUMPI PUSH1 0x0 DUP5 DUP5 ADD MSTORE JUMPDEST POP POP POP POP JUMP JUMPDEST PUSH1 0x0 PUSH1 0x1F NOT PUSH1 0x1F DUP4 ADD AND SWAP1 POP SWAP2 SWAP1 POP JUMP JUMPDEST PUSH1 0x0 PUSH2 0x347 DUP3 PUSH2 0x2DC JUMP JUMPDEST PUSH2 0x351 DUP2 DUP6 PUSH2 0x2E7 JUMP JUMPDEST SWAP4 POP PUSH2 0x361 DUP2 DUP6 PUSH1 0x20 DUP7 ADD PUSH2 0x2F8 JUMP JUMPDEST PUSH2 0x36A DUP2 PUSH2 0x32B JUMP JUMPDEST DUP5 ADD SWAP2 POP POP SWAP3 SWAP2 POP POP JUMP JUMPDEST PUSH1 0x0 PUSH1 0x20 DUP3 ADD SWAP1 POP DUP2 DUP2 SUB PUSH1 0x0 DUP4 ADD MSTORE PUSH2 0x38F DUP2 DUP5 PUSH2 0x33C JUMP JUMPDEST SWAP1 POP SWAP3 SWAP2 POP POP JUMP JUMPDEST PUSH1 0x0 PUSH1 0x40 MLOAD SWAP1 POP SWAP1 JUMP JUMPDEST PUSH1 0x0 DUP1 REVERT JUMPDEST PUSH1 0x0 DUP1 REVERT JUMPDEST PUSH2 0x3B4 DUP2 PUSH2 0x2A8 JUMP JUMPDEST DUP2 EQ PUSH2 0x3BF JUMPI PUSH1 0x0 DUP1 REVERT JUMPDEST POP JUMP JUMPDEST PUSH1 0x0 DUP2 CALLDATALOAD SWAP1 POP PUSH2 0x3D1 DUP2 PUSH2 0x3AB JUMP JUMPDEST SWAP3 SWAP2 POP POP JUMP JUMPDEST PUSH1 0x0 DUP1 REVERT JUMPDEST PUSH1 0x0 DUP1 REVERT JUMPDEST PUSH32 0x4E487B7100000000000000000000000000000000000000000000000000000000 PUSH1 0x0 MSTORE PUSH1 0x41 PUSH1 0x4 MSTORE PUSH1 0x24 PUSH1 0x0 REVERT JUMPDEST PUSH2 0x419 DUP3 PUSH2 0x32B JUMP JUMPDEST DUP2 ADD DUP2 DUP2 LT PUSH8 0xFFFFFFFFFFFFFFFF DUP3 GT OR ISZERO PUSH2 0x438 JUMPI PUSH2 0x437 PUSH2 0x3E1 JUMP JUMPDEST JUMPDEST DUP1 PUSH1 0x40 MSTORE POP POP POP JUMP JUMPDEST PUSH1 0x0 PUSH2 0x44B PUSH2 0x397 JUMP JUMPDEST SWAP1 POP PUSH2 0x457 DUP3 DUP3 PUSH2 0x410 JUMP JUMPDEST SWAP2 SWAP1 POP JUMP JUMPDEST PUSH1 0x0 PUSH8 0xFFFFFFFFFFFFFFFF DUP3 GT ISZERO PUSH2 0x477 JUMPI PUSH2 0x476 PUSH2 0x3E1 JUMP JUMPDEST JUMPDEST PUSH2 0x480 DUP3 PUSH2 0x32B JUMP JUMPDEST SWAP1 POP PUSH1 0x20 DUP2 ADD SWAP1 POP SWAP2 SWAP1 POP JUMP JUMPDEST DUP3 DUP2 DUP4 CALLDATACOPY PUSH1 0x0 DUP4 DUP4 ADD MSTORE POP POP POP JUMP JUMPDEST PUSH1 0x0 PUSH2 0x4AF PUSH2 0x4AA DUP5 PUSH2 0x45C JUMP JUMPDEST PUSH2 0x441 JUMP JUMPDEST SWAP1 POP DUP3 DUP2 MSTORE PUSH1 0x20 DUP2 ADD DUP5 DUP5 DUP5 ADD GT ISZERO PUSH2 0x4CB JUMPI PUSH2 0x4CA PUSH2 0x3DC JUMP JUMPDEST JUMPDEST PUSH2 0x4D6 DUP5 DUP3 DUP6 PUSH2 0x48D JUMP JUMPDEST POP SWAP4 SWAP3 POP POP POP JUMP JUMPDEST PUSH1 0x0 DUP3 PUSH1 0x1F DUP4 ADD SLT PUSH2 0x4F3 JUMPI PUSH2 0x4F2 PUSH2 0x3D7 JUMP JUMPDEST JUMPDEST DUP2 CALLDATALOAD PUSH2 0x503 DUP5 DUP3 PUSH1 0x20 DUP7 ADD PUSH2 0x49C JUMP JUMPDEST SWAP2 POP POP SWAP3 SWAP2 POP POP JUMP JUMPDEST PUSH1 0x0 DUP1 PUSH1 0x40 DUP4 DUP6 SUB SLT ISZERO PUSH2 0x523 JUMPI PUSH2 0x522 PUSH2 0x3A1 JUMP JUMPDEST JUMPDEST PUSH1 0x0 PUSH2 0x531 DUP6 DUP3 DUP7 ADD PUSH2 0x3C2 JUMP JUMPDEST SWAP3 POP POP PUSH1 0x20 DUP4 ADD CALLDATALOAD PUSH8 0xFFFFFFFFFFFFFFFF DUP2 GT ISZERO PUSH2 0x552 JUMPI PUSH2 0x551 PUSH2 0x3A6 JUMP JUMPDEST JUMPDEST PUSH2 0x55E DUP6 DUP3 DUP7 ADD PUSH2 0x4DE JUMP JUMPDEST SWAP2 POP POP SWAP3 POP SWAP3 SWAP1 POP JUMP JUMPDEST PUSH1 0x0 PUSH1 0x40 DUP3 ADD SWAP1 POP PUSH2 0x57D PUSH1 0x0 DUP4 ADD DUP6 PUSH2 0x2B2 JUMP JUMPDEST DUP2 DUP2 SUB PUSH1 0x20 DUP4 ADD MSTORE PUSH2 0x58F DUP2 DUP5 PUSH2 0x33C JUMP JUMPDEST SWAP1 POP SWAP4 SWAP3 POP POP POP JUMP JUMPDEST PUSH32 0x4E487B7100000000000000000000000000000000000000000000000000000000 PUSH1 0x0 MSTORE PUSH1 0x22 PUSH1 0x4 MSTORE PUSH1 0x24 PUSH1 0x0 REVERT JUMPDEST PUSH1 0x0 PUSH1 0x2 DUP3 DIV SWAP1 POP PUSH1 0x1 DUP3 AND DUP1 PUSH2 0x5DF JUMPI PUSH1 0x7F DUP3 AND SWAP2 POP JUMPDEST PUSH1 0x20 DUP3 LT DUP2 EQ ISZERO PUSH2 0x5F3 JUMPI PUSH2 0x5F2 PUSH2 0x598 JUMP JUMPDEST JUMPDEST POP SWAP2 SWAP1 POP JUMP INVALID LOG2 PUSH5 0x6970667358 0x22 SLT KECCAK256 DUP14 RETURNDATACOPY 0xC4 0xCD PUSH16 0x302DFE02524A236B2FA2D0103A192004 INVALID SHL 0xB9 PUSH1 0x22 DUP9 LOG4 0xF8 0xE6 ADDMOD PUSH11 0x64736F6C634300080B0033 "
				},
				"gasEstimates": {
					"creation": {
						"codeDepositCost": "316600",
						"executionCost": "355",
						"totalCost": "316955"
					},
					"external": {
						"bFunction(uint256,string)": "infinite",
						"message()": "infinite",
						"num()": "2407"
					}
				},
				"methodIdentifiers": {
					"bFunction(uint256,string)": "f36b7e20",
					"message()": "e21f37ce",
					"num()": "4e70b1dc"
				}
			},
			"storageLayout": {
				"storage": [
					{
						"astId": 39,
						"contract": "contracts/22_Encode.sol:B",
						"label": "num",
						"offset": 0,
						"slot": "0",
						"type": "t_uint256"
					},
					{
						"astId": 41,
						"contract": "contracts/22_Encode.sol:B",
						"label": "message",
						"offset": 0,
						"slot": "1",
						"type": "t_string_storage"
					}
				],
				"types": {
					"t_string_storage": {
						"encoding": "bytes",
						"label": "string",
						"numberOfBytes": "32"
					},
					"t_uint256": {
						"encoding": "inplace",
						"label": "uint256",
						"numberOfBytes": "32"
					}
				}
			},
			"userdoc": {
				"kind": "user",
				"methods": {},
				"version": 1
			}
		}
	}
}