{
	"contracts/14_Import1.sol": {
		"ImportExample1": {
			"abi": [
				{
					"inputs": [],
					"name": "age",
					"outputs": [
						{
							"internalType": "uint256",
							"name": "",
							"type": "uint256"
						}
					],
					"stateMutability": "view",
					"type": "function"
				},
				{
					"inputs": [],
					"name": "getName",
					"outputs": [
						{
							"internalType": "string",
							"name": "",
							"type": "string"
						}
					],
					"stateMutability": "view",
					"type": "function"
				}
			],
			"devdoc": {
				"kind": "dev",
				"methods": {},
				"version": 1
			},
			"evm": {
				"assembly": "    /* \"contracts/14_Import1.sol\":70:242  contract ImportExample1{... */\n  mstore(0x40, 0x80)\n    /* \"contracts/14_Import1.sol\":117:119  80 */\n  0x50\n    /* \"contracts/14_Import1.sol\":99:119  uint public age = 80 */\n  0x00\n  sstore\n    /* \"contracts/14_Import1.sol\":125:152  string private name=\"biden\" */\n  mload(0x40)\n  dup1\n  0x40\n  add\n  0x40\n  mstore\n  dup1\n  0x05\n  dup2\n  mstore\n  0x20\n  add\n  0x626964656e000000000000000000000000000000000000000000000000000000\n  dup2\n  mstore\n  pop\n  0x01\n  swap1\n  dup1\n  mload\n  swap1\n  0x20\n  add\n  swap1\n  tag_1\n  swap3\n  swap2\n  swap1\n  tag_2\n  jump\t// in\ntag_1:\n  pop\n    /* \"contracts/14_Import1.sol\":70:242  contract ImportExample1{... */\n  callvalue\n  dup1\n  iszero\n  tag_3\n  jumpi\n  0x00\n  dup1\n  revert\ntag_3:\n  pop\n  jump(tag_4)\ntag_2:\n  dup3\n  dup1\n  sload\n  tag_5\n  swap1\n  tag_6\n  jump\t// in\ntag_5:\n  swap1\n  0x00\n  mstore\n  keccak256(0x00, 0x20)\n  swap1\n  0x1f\n  add\n  0x20\n  swap1\n  div\n  dup2\n  add\n  swap3\n  dup3\n  tag_8\n  jumpi\n  0x00\n  dup6\n  sstore\n  jump(tag_7)\ntag_8:\n  dup3\n  0x1f\n  lt\n  tag_9\n  jumpi\n  dup1\n  mload\n  not(0xff)\n  and\n  dup4\n  dup1\n  add\n  or\n  dup6\n  sstore\n  jump(tag_7)\ntag_9:\n  dup3\n  dup1\n  add\n  0x01\n  add\n  dup6\n  sstore\n  dup3\n  iszero\n  tag_7\n  jumpi\n  swap2\n  dup3\n  add\ntag_10:\n  dup3\n  dup2\n  gt\n  iszero\n  tag_11\n  jumpi\n  dup3\n  mload\n  dup3\n  sstore\n  swap2\n  0x20\n  add\n  swap2\n  swap1\n  0x01\n  add\n  swap1\n  jump(tag_10)\ntag_11:\ntag_7:\n  pop\n  swap1\n  pop\n  tag_12\n  swap2\n  swap1\n  tag_13\n  jump\t// in\ntag_12:\n  pop\n  swap1\n  jump\t// out\ntag_13:\ntag_14:\n  dup1\n  dup3\n  gt\n  iszero\n  tag_15\n  jumpi\n  0x00\n  dup2\n  0x00\n  swap1\n  sstore\n  pop\n  0x01\n  add\n  jump(tag_14)\ntag_15:\n  pop\n  swap1\n  jump\t// out\n    /* \"#utility.yul\":7:327   */\ntag_6:\n    /* \"#utility.yul\":51:57   */\n  0x00\n    /* \"#utility.yul\":88:89   */\n  0x02\n    /* \"#utility.yul\":82:86   */\n  dup3\n    /* \"#utility.yul\":78:90   */\n  div\n    /* \"#utility.yul\":68:90   */\n  swap1\n  pop\n    /* \"#utility.yul\":135:136   */\n  0x01\n    /* \"#utility.yul\":129:133   */\n  dup3\n    /* \"#utility.yul\":125:137   */\n  and\n    /* \"#utility.yul\":156:174   */\n  dup1\n    /* \"#utility.yul\":146:227   */\n  tag_18\n  jumpi\n    /* \"#utility.yul\":212:216   */\n  0x7f\n    /* \"#utility.yul\":204:210   */\n  dup3\n    /* \"#utility.yul\":200:217   */\n  and\n    /* \"#utility.yul\":190:217   */\n  swap2\n  pop\n    /* \"#utility.yul\":146:227   */\ntag_18:\n    /* \"#utility.yul\":274:276   */\n  0x20\n    /* \"#utility.yul\":266:272   */\n  dup3\n    /* \"#utility.yul\":263:277   */\n  lt\n    /* \"#utility.yul\":243:261   */\n  dup2\n    /* \"#utility.yul\":240:278   */\n  eq\n    /* \"#utility.yul\":237:321   */\n  iszero\n  tag_19\n  jumpi\n    /* \"#utility.yul\":293:311   */\n  tag_20\n  tag_21\n  jump\t// in\ntag_20:\n    /* \"#utility.yul\":237:321   */\ntag_19:\n    /* \"#utility.yul\":58:327   */\n  pop\n    /* \"#utility.yul\":7:327   */\n  swap2\n  swap1\n  pop\n  jump\t// out\n    /* \"#utility.yul\":333:513   */\ntag_21:\n    /* \"#utility.yul\":381:458   */\n  0x4e487b7100000000000000000000000000000000000000000000000000000000\n    /* \"#utility.yul\":378:379   */\n  0x00\n    /* \"#utility.yul\":371:459   */\n  mstore\n    /* \"#utility.yul\":478:482   */\n  0x22\n    /* \"#utility.yul\":475:476   */\n  0x04\n    /* \"#utility.yul\":468:483   */\n  mstore\n    /* \"#utility.yul\":502:506   */\n  0x24\n    /* \"#utility.yul\":499:500   */\n  0x00\n    /* \"#utility.yul\":492:507   */\n  revert\n    /* \"contracts/14_Import1.sol\":70:242  contract ImportExample1{... */\ntag_4:\n  dataSize(sub_0)\n  dup1\n  dataOffset(sub_0)\n  0x00\n  codecopy\n  0x00\n  return\nstop\n\nsub_0: assembly {\n        /* \"contracts/14_Import1.sol\":70:242  contract ImportExample1{... */\n      mstore(0x40, 0x80)\n      callvalue\n      dup1\n      iszero\n      tag_1\n      jumpi\n      0x00\n      dup1\n      revert\n    tag_1:\n      pop\n      jumpi(tag_2, lt(calldatasize, 0x04))\n      shr(0xe0, calldataload(0x00))\n      dup1\n      0x17d7de7c\n      eq\n      tag_3\n      jumpi\n      dup1\n      0x262a9dff\n      eq\n      tag_4\n      jumpi\n    tag_2:\n      0x00\n      dup1\n      revert\n        /* \"contracts/14_Import1.sol\":159:240  function getName() public view returns(string memory){... */\n    tag_3:\n      tag_5\n      tag_6\n      jump\t// in\n    tag_5:\n      mload(0x40)\n      tag_7\n      swap2\n      swap1\n      tag_8\n      jump\t// in\n    tag_7:\n      mload(0x40)\n      dup1\n      swap2\n      sub\n      swap1\n      return\n        /* \"contracts/14_Import1.sol\":99:119  uint public age = 80 */\n    tag_4:\n      tag_9\n      tag_10\n      jump\t// in\n    tag_9:\n      mload(0x40)\n      tag_11\n      swap2\n      swap1\n      tag_12\n      jump\t// in\n    tag_11:\n      mload(0x40)\n      dup1\n      swap2\n      sub\n      swap1\n      return\n        /* \"contracts/14_Import1.sol\":159:240  function getName() public view returns(string memory){... */\n    tag_6:\n        /* \"contracts/14_Import1.sol\":198:211  string memory */\n      0x60\n        /* \"contracts/14_Import1.sol\":229:233  name */\n      0x01\n        /* \"contracts/14_Import1.sol\":222:233  return name */\n      dup1\n      sload\n      tag_14\n      swap1\n      tag_15\n      jump\t// in\n    tag_14:\n      dup1\n      0x1f\n      add\n      0x20\n      dup1\n      swap2\n      div\n      mul\n      0x20\n      add\n      mload(0x40)\n      swap1\n      dup2\n      add\n      0x40\n      mstore\n      dup1\n      swap3\n      swap2\n      swap1\n      dup2\n      dup2\n      mstore\n      0x20\n      add\n      dup3\n      dup1\n      sload\n      tag_16\n      swap1\n      tag_15\n      jump\t// in\n    tag_16:\n      dup1\n      iszero\n      tag_17\n      jumpi\n      dup1\n      0x1f\n      lt\n      tag_18\n      jumpi\n      0x0100\n      dup1\n      dup4\n      sload\n      div\n      mul\n      dup4\n      mstore\n      swap2\n      0x20\n      add\n      swap2\n      jump(tag_17)\n    tag_18:\n      dup3\n      add\n      swap2\n      swap1\n      0x00\n      mstore\n      keccak256(0x00, 0x20)\n      swap1\n    tag_19:\n      dup2\n      sload\n      dup2\n      mstore\n      swap1\n      0x01\n      add\n      swap1\n      0x20\n      add\n      dup1\n      dup4\n      gt\n      tag_19\n      jumpi\n      dup3\n      swap1\n      sub\n      0x1f\n      and\n      dup3\n      add\n      swap2\n    tag_17:\n      pop\n      pop\n      pop\n      pop\n      pop\n      swap1\n      pop\n        /* \"contracts/14_Import1.sol\":159:240  function getName() public view returns(string memory){... */\n      swap1\n      jump\t// out\n        /* \"contracts/14_Import1.sol\":99:119  uint public age = 80 */\n    tag_10:\n      sload(0x00)\n      dup2\n      jump\t// out\n        /* \"#utility.yul\":7:371   */\n    tag_21:\n        /* \"#utility.yul\":95:98   */\n      0x00\n        /* \"#utility.yul\":123:162   */\n      tag_23\n        /* \"#utility.yul\":156:161   */\n      dup3\n        /* \"#utility.yul\":123:162   */\n      tag_24\n      jump\t// in\n    tag_23:\n        /* \"#utility.yul\":178:249   */\n      tag_25\n        /* \"#utility.yul\":242:248   */\n      dup2\n        /* \"#utility.yul\":237:240   */\n      dup6\n        /* \"#utility.yul\":178:249   */\n      tag_26\n      jump\t// in\n    tag_25:\n        /* \"#utility.yul\":171:249   */\n      swap4\n      pop\n        /* \"#utility.yul\":258:310   */\n      tag_27\n        /* \"#utility.yul\":303:309   */\n      dup2\n        /* \"#utility.yul\":298:301   */\n      dup6\n        /* \"#utility.yul\":291:295   */\n      0x20\n        /* \"#utility.yul\":284:289   */\n      dup7\n        /* \"#utility.yul\":280:296   */\n      add\n        /* \"#utility.yul\":258:310   */\n      tag_28\n      jump\t// in\n    tag_27:\n        /* \"#utility.yul\":335:364   */\n      tag_29\n        /* \"#utility.yul\":357:363   */\n      dup2\n        /* \"#utility.yul\":335:364   */\n      tag_30\n      jump\t// in\n    tag_29:\n        /* \"#utility.yul\":330:333   */\n      dup5\n        /* \"#utility.yul\":326:365   */\n      add\n        /* \"#utility.yul\":319:365   */\n      swap2\n      pop\n        /* \"#utility.yul\":99:371   */\n      pop\n        /* \"#utility.yul\":7:371   */\n      swap3\n      swap2\n      pop\n      pop\n      jump\t// out\n        /* \"#utility.yul\":377:495   */\n    tag_31:\n        /* \"#utility.yul\":464:488   */\n      tag_33\n        /* \"#utility.yul\":482:487   */\n      dup2\n        /* \"#utility.yul\":464:488   */\n      tag_34\n      jump\t// in\n    tag_33:\n        /* \"#utility.yul\":459:462   */\n      dup3\n        /* \"#utility.yul\":452:489   */\n      mstore\n        /* \"#utility.yul\":377:495   */\n      pop\n      pop\n      jump\t// out\n        /* \"#utility.yul\":501:814   */\n    tag_8:\n        /* \"#utility.yul\":614:618   */\n      0x00\n        /* \"#utility.yul\":652:654   */\n      0x20\n        /* \"#utility.yul\":641:650   */\n      dup3\n        /* \"#utility.yul\":637:655   */\n      add\n        /* \"#utility.yul\":629:655   */\n      swap1\n      pop\n        /* \"#utility.yul\":701:710   */\n      dup2\n        /* \"#utility.yul\":695:699   */\n      dup2\n        /* \"#utility.yul\":691:711   */\n      sub\n        /* \"#utility.yul\":687:688   */\n      0x00\n        /* \"#utility.yul\":676:685   */\n      dup4\n        /* \"#utility.yul\":672:689   */\n      add\n        /* \"#utility.yul\":665:712   */\n      mstore\n        /* \"#utility.yul\":729:807   */\n      tag_36\n        /* \"#utility.yul\":802:806   */\n      dup2\n        /* \"#utility.yul\":793:799   */\n      dup5\n        /* \"#utility.yul\":729:807   */\n      tag_21\n      jump\t// in\n    tag_36:\n        /* \"#utility.yul\":721:807   */\n      swap1\n      pop\n        /* \"#utility.yul\":501:814   */\n      swap3\n      swap2\n      pop\n      pop\n      jump\t// out\n        /* \"#utility.yul\":820:1042   */\n    tag_12:\n        /* \"#utility.yul\":913:917   */\n      0x00\n        /* \"#utility.yul\":951:953   */\n      0x20\n        /* \"#utility.yul\":940:949   */\n      dup3\n        /* \"#utility.yul\":936:954   */\n      add\n        /* \"#utility.yul\":928:954   */\n      swap1\n      pop\n        /* \"#utility.yul\":964:1035   */\n      tag_38\n        /* \"#utility.yul\":1032:1033   */\n      0x00\n        /* \"#utility.yul\":1021:1030   */\n      dup4\n        /* \"#utility.yul\":1017:1034   */\n      add\n        /* \"#utility.yul\":1008:1014   */\n      dup5\n        /* \"#utility.yul\":964:1035   */\n      tag_31\n      jump\t// in\n    tag_38:\n        /* \"#utility.yul\":820:1042   */\n      swap3\n      swap2\n      pop\n      pop\n      jump\t// out\n        /* \"#utility.yul\":1048:1147   */\n    tag_24:\n        /* \"#utility.yul\":1100:1106   */\n      0x00\n        /* \"#utility.yul\":1134:1139   */\n      dup2\n        /* \"#utility.yul\":1128:1140   */\n      mload\n        /* \"#utility.yul\":1118:1140   */\n      swap1\n      pop\n        /* \"#utility.yul\":1048:1147   */\n      swap2\n      swap1\n      pop\n      jump\t// out\n        /* \"#utility.yul\":1153:1322   */\n    tag_26:\n        /* \"#utility.yul\":1237:1248   */\n      0x00\n        /* \"#utility.yul\":1271:1277   */\n      dup3\n        /* \"#utility.yul\":1266:1269   */\n      dup3\n        /* \"#utility.yul\":1259:1278   */\n      mstore\n        /* \"#utility.yul\":1311:1315   */\n      0x20\n        /* \"#utility.yul\":1306:1309   */\n      dup3\n        /* \"#utility.yul\":1302:1316   */\n      add\n        /* \"#utility.yul\":1287:1316   */\n      swap1\n      pop\n        /* \"#utility.yul\":1153:1322   */\n      swap3\n      swap2\n      pop\n      pop\n      jump\t// out\n        /* \"#utility.yul\":1328:1405   */\n    tag_34:\n        /* \"#utility.yul\":1365:1372   */\n      0x00\n        /* \"#utility.yul\":1394:1399   */\n      dup2\n        /* \"#utility.yul\":1383:1399   */\n      swap1\n      pop\n        /* \"#utility.yul\":1328:1405   */\n      swap2\n      swap1\n      pop\n      jump\t// out\n        /* \"#utility.yul\":1411:1718   */\n    tag_28:\n        /* \"#utility.yul\":1479:1480   */\n      0x00\n        /* \"#utility.yul\":1489:1602   */\n    tag_43:\n        /* \"#utility.yul\":1503:1509   */\n      dup4\n        /* \"#utility.yul\":1500:1501   */\n      dup2\n        /* \"#utility.yul\":1497:1510   */\n      lt\n        /* \"#utility.yul\":1489:1602   */\n      iszero\n      tag_45\n      jumpi\n        /* \"#utility.yul\":1588:1589   */\n      dup1\n        /* \"#utility.yul\":1583:1586   */\n      dup3\n        /* \"#utility.yul\":1579:1590   */\n      add\n        /* \"#utility.yul\":1573:1591   */\n      mload\n        /* \"#utility.yul\":1569:1570   */\n      dup2\n        /* \"#utility.yul\":1564:1567   */\n      dup5\n        /* \"#utility.yul\":1560:1571   */\n      add\n        /* \"#utility.yul\":1553:1592   */\n      mstore\n        /* \"#utility.yul\":1525:1527   */\n      0x20\n        /* \"#utility.yul\":1522:1523   */\n      dup2\n        /* \"#utility.yul\":1518:1528   */\n      add\n        /* \"#utility.yul\":1513:1528   */\n      swap1\n      pop\n        /* \"#utility.yul\":1489:1602   */\n      jump(tag_43)\n    tag_45:\n        /* \"#utility.yul\":1620:1626   */\n      dup4\n        /* \"#utility.yul\":1617:1618   */\n      dup2\n        /* \"#utility.yul\":1614:1627   */\n      gt\n        /* \"#utility.yul\":1611:1712   */\n      iszero\n      tag_46\n      jumpi\n        /* \"#utility.yul\":1700:1701   */\n      0x00\n        /* \"#utility.yul\":1691:1697   */\n      dup5\n        /* \"#utility.yul\":1686:1689   */\n      dup5\n        /* \"#utility.yul\":1682:1698   */\n      add\n        /* \"#utility.yul\":1675:1702   */\n      mstore\n        /* \"#utility.yul\":1611:1712   */\n    tag_46:\n        /* \"#utility.yul\":1460:1718   */\n      pop\n        /* \"#utility.yul\":1411:1718   */\n      pop\n      pop\n      pop\n      jump\t// out\n        /* \"#utility.yul\":1724:2044   */\n    tag_15:\n        /* \"#utility.yul\":1768:1774   */\n      0x00\n        /* \"#utility.yul\":1805:1806   */\n      0x02\n        /* \"#utility.yul\":1799:1803   */\n      dup3\n        /* \"#utility.yul\":1795:1807   */\n      div\n        /* \"#utility.yul\":1785:1807   */\n      swap1\n      pop\n        /* \"#utility.yul\":1852:1853   */\n      0x01\n        /* \"#utility.yul\":1846:1850   */\n      dup3\n        /* \"#utility.yul\":1842:1854   */\n      and\n        /* \"#utility.yul\":1873:1891   */\n      dup1\n        /* \"#utility.yul\":1863:1944   */\n      tag_48\n      jumpi\n        /* \"#utility.yul\":1929:1933   */\n      0x7f\n        /* \"#utility.yul\":1921:1927   */\n      dup3\n        /* \"#utility.yul\":1917:1934   */\n      and\n        /* \"#utility.yul\":1907:1934   */\n      swap2\n      pop\n        /* \"#utility.yul\":1863:1944   */\n    tag_48:\n        /* \"#utility.yul\":1991:1993   */\n      0x20\n        /* \"#utility.yul\":1983:1989   */\n      dup3\n        /* \"#utility.yul\":1980:1994   */\n      lt\n        /* \"#utility.yul\":1960:1978   */\n      dup2\n        /* \"#utility.yul\":1957:1995   */\n      eq\n        /* \"#utility.yul\":1954:2038   */\n      iszero\n      tag_49\n      jumpi\n        /* \"#utility.yul\":2010:2028   */\n      tag_50\n      tag_51\n      jump\t// in\n    tag_50:\n        /* \"#utility.yul\":1954:2038   */\n    tag_49:\n        /* \"#utility.yul\":1775:2044   */\n      pop\n        /* \"#utility.yul\":1724:2044   */\n      swap2\n      swap1\n      pop\n      jump\t// out\n        /* \"#utility.yul\":2050:2230   */\n    tag_51:\n        /* \"#utility.yul\":2098:2175   */\n      0x4e487b7100000000000000000000000000000000000000000000000000000000\n        /* \"#utility.yul\":2095:2096   */\n      0x00\n        /* \"#utility.yul\":2088:2176   */\n      mstore\n        /* \"#utility.yul\":2195:2199   */\n      0x22\n        /* \"#utility.yul\":2192:2193   */\n      0x04\n        /* \"#utility.yul\":2185:2200   */\n      mstore\n        /* \"#utility.yul\":2219:2223   */\n      0x24\n        /* \"#utility.yul\":2216:2217   */\n      0x00\n        /* \"#utility.yul\":2209:2224   */\n      revert\n        /* \"#utility.yul\":2236:2338   */\n    tag_30:\n        /* \"#utility.yul\":2277:2283   */\n      0x00\n        /* \"#utility.yul\":2328:2330   */\n      0x1f\n        /* \"#utility.yul\":2324:2331   */\n      not\n        /* \"#utility.yul\":2319:2321   */\n      0x1f\n        /* \"#utility.yul\":2312:2317   */\n      dup4\n        /* \"#utility.yul\":2308:2322   */\n      add\n        /* \"#utility.yul\":2304:2332   */\n      and\n        /* \"#utility.yul\":2294:2332   */\n      swap1\n      pop\n        /* \"#utility.yul\":2236:2338   */\n      swap2\n      swap1\n      pop\n      jump\t// out\n\n    auxdata: 0xa264697066735822122071bbd5ccd6ee2e334020492f9597ed9539c9883f6b4aa9a771a07a72b675a1b964736f6c63430008070033\n}\n",
				"bytecode": {
					"linkReferences": {},
					"object": "608060405260506000556040518060400160405280600581526020017f626964656e00000000000000000000000000000000000000000000000000000081525060019080519060200190610054929190610067565b5034801561006157600080fd5b5061016b565b8280546100739061010a565b90600052602060002090601f01602090048101928261009557600085556100dc565b82601f106100ae57805160ff19168380011785556100dc565b828001600101855582156100dc579182015b828111156100db5782518255916020019190600101906100c0565b5b5090506100e991906100ed565b5090565b5b808211156101065760008160009055506001016100ee565b5090565b6000600282049050600182168061012257607f821691505b602082108114156101365761013561013c565b5b50919050565b7f4e487b7100000000000000000000000000000000000000000000000000000000600052602260045260246000fd5b6102958061017a6000396000f3fe608060405234801561001057600080fd5b50600436106100365760003560e01c806317d7de7c1461003b578063262a9dff14610059575b600080fd5b610043610077565b6040516100509190610157565b60405180910390f35b610061610109565b60405161006e9190610179565b60405180910390f35b606060018054610086906101ed565b80601f01602080910402602001604051908101604052809291908181526020018280546100b2906101ed565b80156100ff5780601f106100d4576101008083540402835291602001916100ff565b820191906000526020600020905b8154815290600101906020018083116100e257829003601f168201915b5050505050905090565b60005481565b600061011a82610194565b610124818561019f565b93506101348185602086016101ba565b61013d8161024e565b840191505092915050565b610151816101b0565b82525050565b60006020820190508181036000830152610171818461010f565b905092915050565b600060208201905061018e6000830184610148565b92915050565b600081519050919050565b600082825260208201905092915050565b6000819050919050565b60005b838110156101d85780820151818401526020810190506101bd565b838111156101e7576000848401525b50505050565b6000600282049050600182168061020557607f821691505b602082108114156102195761021861021f565b5b50919050565b7f4e487b7100000000000000000000000000000000000000000000000000000000600052602260045260246000fd5b6000601f19601f830116905091905056fea264697066735822122071bbd5ccd6ee2e334020492f9597ed9539c9883f6b4aa9a771a07a72b675a1b964736f6c63430008070033",
					"opcodes": "PUSH1 0x80 PUSH1 0x40 MSTORE PUSH1 0x50 PUSH1 0x0 SSTORE PUSH1 0x40 MLOAD DUP1 PUSH1 0x40 ADD PUSH1 0x40 MSTORE DUP1 PUSH1 0x5 DUP2 MSTORE PUSH1 0x20 ADD PUSH32 0x626964656E000000000000000000000000000000000000000000000000000000 DUP2 MSTORE POP PUSH1 0x1 SWAP1 DUP1 MLOAD SWAP1 PUSH1 0x20 ADD SWAP1 PUSH2 0x54 SWAP3 SWAP2 SWAP1 PUSH2 0x67 JUMP JUMPDEST POP CALLVALUE DUP1 ISZERO PUSH2 0x61 JUMPI PUSH1 0x0 DUP1 REVERT JUMPDEST POP PUSH2 0x16B JUMP JUMPDEST DUP3 DUP1 SLOAD PUSH2 0x73 SWAP1 PUSH2 0x10A JUMP JUMPDEST SWAP1 PUSH1 0x0 MSTORE PUSH1 0x20 PUSH1 0x0 KECCAK256 SWAP1 PUSH1 0x1F ADD PUSH1 0x20 SWAP1 DIV DUP2 ADD SWAP3 DUP3 PUSH2 0x95 JUMPI PUSH1 0x0 DUP6 SSTORE PUSH2 0xDC JUMP JUMPDEST DUP3 PUSH1 0x1F LT PUSH2 0xAE JUMPI DUP1 MLOAD PUSH1 0xFF NOT AND DUP4 DUP1 ADD OR DUP6 SSTORE PUSH2 0xDC JUMP JUMPDEST DUP3 DUP1 ADD PUSH1 0x1 ADD DUP6 SSTORE DUP3 ISZERO PUSH2 0xDC JUMPI SWAP2 DUP3 ADD JUMPDEST DUP3 DUP2 GT ISZERO PUSH2 0xDB JUMPI DUP3 MLOAD DUP3 SSTORE SWAP2 PUSH1 0x20 ADD SWAP2 SWAP1 PUSH1 0x1 ADD SWAP1 PUSH2 0xC0 JUMP JUMPDEST JUMPDEST POP SWAP1 POP PUSH2 0xE9 SWAP2 SWAP1 PUSH2 0xED JUMP JUMPDEST POP SWAP1 JUMP JUMPDEST JUMPDEST DUP1 DUP3 GT ISZERO PUSH2 0x106 JUMPI PUSH1 0x0 DUP2 PUSH1 0x0 SWAP1 SSTORE POP PUSH1 0x1 ADD PUSH2 0xEE JUMP JUMPDEST POP SWAP1 JUMP JUMPDEST PUSH1 0x0 PUSH1 0x2 DUP3 DIV SWAP1 POP PUSH1 0x1 DUP3 AND DUP1 PUSH2 0x122 JUMPI PUSH1 0x7F DUP3 AND SWAP2 POP JUMPDEST PUSH1 0x20 DUP3 LT DUP2 EQ ISZERO PUSH2 0x136 JUMPI PUSH2 0x135 PUSH2 0x13C JUMP JUMPDEST JUMPDEST POP SWAP2 SWAP1 POP JUMP JUMPDEST PUSH32 0x4E487B7100000000000000000000000000000000000000000000000000000000 PUSH1 0x0 MSTORE PUSH1 0x22 PUSH1 0x4 MSTORE PUSH1 0x24 PUSH1 0x0 REVERT JUMPDEST PUSH2 0x295 DUP1 PUSH2 0x17A PUSH1 0x0 CODECOPY PUSH1 0x0 RETURN INVALID PUSH1 0x80 PUSH1 0x40 MSTORE CALLVALUE DUP1 ISZERO PUSH2 0x10 JUMPI PUSH1 0x0 DUP1 REVERT JUMPDEST POP PUSH1 0x4 CALLDATASIZE LT PUSH2 0x36 JUMPI PUSH1 0x0 CALLDATALOAD PUSH1 0xE0 SHR DUP1 PUSH4 0x17D7DE7C EQ PUSH2 0x3B JUMPI DUP1 PUSH4 0x262A9DFF EQ PUSH2 0x59 JUMPI JUMPDEST PUSH1 0x0 DUP1 REVERT JUMPDEST PUSH2 0x43 PUSH2 0x77 JUMP JUMPDEST PUSH1 0x40 MLOAD PUSH2 0x50 SWAP2 SWAP1 PUSH2 0x157 JUMP JUMPDEST PUSH1 0x40 MLOAD DUP1 SWAP2 SUB SWAP1 RETURN JUMPDEST PUSH2 0x61 PUSH2 0x109 JUMP JUMPDEST PUSH1 0x40 MLOAD PUSH2 0x6E SWAP2 SWAP1 PUSH2 0x179 JUMP JUMPDEST PUSH1 0x40 MLOAD DUP1 SWAP2 SUB SWAP1 RETURN JUMPDEST PUSH1 0x60 PUSH1 0x1 DUP1 SLOAD PUSH2 0x86 SWAP1 PUSH2 0x1ED JUMP JUMPDEST DUP1 PUSH1 0x1F ADD PUSH1 0x20 DUP1 SWAP2 DIV MUL PUSH1 0x20 ADD PUSH1 0x40 MLOAD SWAP1 DUP2 ADD PUSH1 0x40 MSTORE DUP1 SWAP3 SWAP2 SWAP1 DUP2 DUP2 MSTORE PUSH1 0x20 ADD DUP3 DUP1 SLOAD PUSH2 0xB2 SWAP1 PUSH2 0x1ED JUMP JUMPDEST DUP1 ISZERO PUSH2 0xFF JUMPI DUP1 PUSH1 0x1F LT PUSH2 0xD4 JUMPI PUSH2 0x100 DUP1 DUP4 SLOAD DIV MUL DUP4 MSTORE SWAP2 PUSH1 0x20 ADD SWAP2 PUSH2 0xFF JUMP JUMPDEST DUP3 ADD SWAP2 SWAP1 PUSH1 0x0 MSTORE PUSH1 0x20 PUSH1 0x0 KECCAK256 SWAP1 JUMPDEST DUP2 SLOAD DUP2 MSTORE SWAP1 PUSH1 0x1 ADD SWAP1 PUSH1 0x20 ADD DUP1 DUP4 GT PUSH2 0xE2 JUMPI DUP3 SWAP1 SUB PUSH1 0x1F AND DUP3 ADD SWAP2 JUMPDEST POP POP POP POP POP SWAP1 POP SWAP1 JUMP JUMPDEST PUSH1 0x0 SLOAD DUP2 JUMP JUMPDEST PUSH1 0x0 PUSH2 0x11A DUP3 PUSH2 0x194 JUMP JUMPDEST PUSH2 0x124 DUP2 DUP6 PUSH2 0x19F JUMP JUMPDEST SWAP4 POP PUSH2 0x134 DUP2 DUP6 PUSH1 0x20 DUP7 ADD PUSH2 0x1BA JUMP JUMPDEST PUSH2 0x13D DUP2 PUSH2 0x24E JUMP JUMPDEST DUP5 ADD SWAP2 POP POP SWAP3 SWAP2 POP POP JUMP JUMPDEST PUSH2 0x151 DUP2 PUSH2 0x1B0 JUMP JUMPDEST DUP3 MSTORE POP POP JUMP JUMPDEST PUSH1 0x0 PUSH1 0x20 DUP3 ADD SWAP1 POP DUP2 DUP2 SUB PUSH1 0x0 DUP4 ADD MSTORE PUSH2 0x171 DUP2 DUP5 PUSH2 0x10F JUMP JUMPDEST SWAP1 POP SWAP3 SWAP2 POP POP JUMP JUMPDEST PUSH1 0x0 PUSH1 0x20 DUP3 ADD SWAP1 POP PUSH2 0x18E PUSH1 0x0 DUP4 ADD DUP5 PUSH2 0x148 JUMP JUMPDEST SWAP3 SWAP2 POP POP JUMP JUMPDEST PUSH1 0x0 DUP2 MLOAD SWAP1 POP SWAP2 SWAP1 POP JUMP JUMPDEST PUSH1 0x0 DUP3 DUP3 MSTORE PUSH1 0x20 DUP3 ADD SWAP1 POP SWAP3 SWAP2 POP POP JUMP JUMPDEST PUSH1 0x0 DUP2 SWAP1 POP SWAP2 SWAP1 POP JUMP JUMPDEST PUSH1 0x0 JUMPDEST DUP4 DUP2 LT ISZERO PUSH2 0x1D8 JUMPI DUP1 DUP3 ADD MLOAD DUP2 DUP5 ADD MSTORE PUSH1 0x20 DUP2 ADD SWAP1 POP PUSH2 0x1BD JUMP JUMPDEST DUP4 DUP2 GT ISZERO PUSH2 0x1E7 JUMPI PUSH1 0x0 DUP5 DUP5 ADD MSTORE JUMPDEST POP POP POP POP JUMP JUMPDEST PUSH1 0x0 PUSH1 0x2 DUP3 DIV SWAP1 POP PUSH1 0x1 DUP3 AND DUP1 PUSH2 0x205 JUMPI PUSH1 0x7F DUP3 AND SWAP2 POP JUMPDEST PUSH1 0x20 DUP3 LT DUP2 EQ ISZERO PUSH2 0x219 JUMPI PUSH2 0x218 PUSH2 0x21F JUMP JUMPDEST JUMPDEST POP SWAP2 SWAP1 POP JUMP JUMPDEST PUSH32 0x4E487B7100000000000000000000000000000000000000000000000000000000 PUSH1 0x0 MSTORE PUSH1 0x22 PUSH1 0x4 MSTORE PUSH1 0x24 PUSH1 0x0 REVERT JUMPDEST PUSH1 0x0 PUSH1 0x1F NOT PUSH1 0x1F DUP4 ADD AND SWAP1 POP SWAP2 SWAP1 POP JUMP INVALID LOG2 PUSH5 0x6970667358 0x22 SLT KECCAK256 PUSH18 0xBBD5CCD6EE2E334020492F9597ED9539C988 EXTCODEHASH PUSH12 0x4AA9A771A07A72B675A1B964 PUSH20 0x6F6C634300080700330000000000000000000000 "
				},
				"gasEstimates": {
					"creation": {
						"codeDepositCost": "132200",
						"executionCost": "infinite",
						"totalCost": "infinite"
					},
					"external": {
						"age()": "2429",
						"getName()": "infinite"
					}
				},
				"methodIdentifiers": {
					"age()": "262a9dff",
					"getName()": "17d7de7c"
				}
			},
			"storageLayout": {
				"storage": [
					{
						"astId": 4,
						"contract": "contracts/14_Import1.sol:ImportExample1",
						"label": "age",
						"offset": 0,
						"slot": "0",
						"type": "t_uint256"
					},
					{
						"astId": 7,
						"contract": "contracts/14_Import1.sol:ImportExample1",
						"label": "name",
						"offset": 0,
						"slot": "1",
						"type": "t_string_storage"
					}
				],
				"types": {
					"t_string_storage": {
						"encoding": "bytes",
						"label": "string",
						"numberOfBytes": "32"
					},
					"t_uint256": {
						"encoding": "inplace",
						"label": "uint256",
						"numberOfBytes": "32"
					}
				}
			},
			"userdoc": {
				"kind": "user",
				"methods": {},
				"version": 1
			}
		}
	}
}