{
	"contracts/15_Import2.sol": {
		"ImportExample2": {
			"abi": [
				{
					"inputs": [],
					"name": "getAge",
					"outputs": [
						{
							"internalType": "uint256",
							"name": "",
							"type": "uint256"
						}
					],
					"stateMutability": "view",
					"type": "function"
				},
				{
					"inputs": [],
					"name": "getName",
					"outputs": [
						{
							"internalType": "string",
							"name": "",
							"type": "string"
						}
					],
					"stateMutability": "view",
					"type": "function"
				}
			],
			"devdoc": {
				"kind": "dev",
				"methods": {},
				"version": 1
			},
			"evm": {
				"assembly": "    /* \"contracts/15_Import2.sol\":98:347  contract ImportExample2{... */\n  mstore(0x40, 0x80)\n    /* \"contracts/15_Import2.sol\":146:166  new ImportExample1() */\n  mload(0x40)\n  tag_1\n  swap1\n  tag_2\n  jump\t// in\ntag_1:\n  mload(0x40)\n  dup1\n  swap2\n  sub\n  swap1\n  0x00\n  create\n  dup1\n  iszero\n  dup1\n  iszero\n  tag_3\n  jumpi\n  returndatasize\n  0x00\n  dup1\n  returndatacopy\n  revert(0x00, returndatasize)\ntag_3:\n  pop\n    /* \"contracts/15_Import2.sol\":127:166  ImportExample1 ie1=new ImportExample1() */\n  0x00\n  dup1\n  0x0100\n  exp\n  dup2\n  sload\n  dup2\n  0xffffffffffffffffffffffffffffffffffffffff\n  mul\n  not\n  and\n  swap1\n  dup4\n  0xffffffffffffffffffffffffffffffffffffffff\n  and\n  mul\n  or\n  swap1\n  sstore\n  pop\n    /* \"contracts/15_Import2.sol\":98:347  contract ImportExample2{... */\n  callvalue\n  dup1\n  iszero\n  tag_4\n  jumpi\n  0x00\n  dup1\n  revert\ntag_4:\n  pop\n  jump(tag_5)\ntag_2:\n  dataSize(sub_1)\n  dup1\n  dataOffset(sub_1)\n  dup4\n  codecopy\n  add\n  swap1\n  jump\t// out\ntag_5:\n  dataSize(sub_0)\n  dup1\n  dataOffset(sub_0)\n  0x00\n  codecopy\n  0x00\n  return\nstop\n\nsub_0: assembly {\n        /* \"contracts/15_Import2.sol\":98:347  contract ImportExample2{... */\n      mstore(0x40, 0x80)\n      callvalue\n      dup1\n      iszero\n      tag_1\n      jumpi\n      0x00\n      dup1\n      revert\n    tag_1:\n      pop\n      jumpi(tag_2, lt(calldatasize, 0x04))\n      shr(0xe0, calldataload(0x00))\n      dup1\n      0x17d7de7c\n      eq\n      tag_3\n      jumpi\n      dup1\n      0x967e6e65\n      eq\n      tag_4\n      jumpi\n    tag_2:\n      0x00\n      dup1\n      revert\n        /* \"contracts/15_Import2.sol\":255:345  function getName() public view returns(string memory){... */\n    tag_3:\n      tag_5\n      tag_6\n      jump\t// in\n    tag_5:\n      mload(0x40)\n      tag_7\n      swap2\n      swap1\n      tag_8\n      jump\t// in\n    tag_7:\n      mload(0x40)\n      dup1\n      swap2\n      sub\n      swap1\n      return\n        /* \"contracts/15_Import2.sol\":173:249  function getAge() public view returns(uint){... */\n    tag_4:\n      tag_9\n      tag_10\n      jump\t// in\n    tag_9:\n      mload(0x40)\n      tag_11\n      swap2\n      swap1\n      tag_12\n      jump\t// in\n    tag_11:\n      mload(0x40)\n      dup1\n      swap2\n      sub\n      swap1\n      return\n        /* \"contracts/15_Import2.sol\":255:345  function getName() public view returns(string memory){... */\n    tag_6:\n        /* \"contracts/15_Import2.sol\":294:307  string memory */\n      0x60\n        /* \"contracts/15_Import2.sol\":325:328  ie1 */\n      0x00\n      dup1\n      sload\n      swap1\n      0x0100\n      exp\n      swap1\n      div\n      0xffffffffffffffffffffffffffffffffffffffff\n      and\n        /* \"contracts/15_Import2.sol\":325:336  ie1.getName */\n      0xffffffffffffffffffffffffffffffffffffffff\n      and\n      0x17d7de7c\n        /* \"contracts/15_Import2.sol\":325:338  ie1.getName() */\n      mload(0x40)\n      dup2\n      0xffffffff\n      and\n      0xe0\n      shl\n      dup2\n      mstore\n      0x04\n      add\n      0x00\n      mload(0x40)\n      dup1\n      dup4\n      sub\n      dup2\n      dup7\n      dup1\n      extcodesize\n      iszero\n      dup1\n      iszero\n      tag_14\n      jumpi\n      0x00\n      dup1\n      revert\n    tag_14:\n      pop\n      gas\n      staticcall\n      iszero\n      dup1\n      iszero\n      tag_16\n      jumpi\n      returndatasize\n      0x00\n      dup1\n      returndatacopy\n      revert(0x00, returndatasize)\n    tag_16:\n      pop\n      pop\n      pop\n      pop\n      mload(0x40)\n      returndatasize\n      0x00\n      dup3\n      returndatacopy\n      returndatasize\n      not(0x1f)\n      0x1f\n      dup3\n      add\n      and\n      dup3\n      add\n      dup1\n      0x40\n      mstore\n      pop\n      dup2\n      add\n      swap1\n      tag_17\n      swap2\n      swap1\n      tag_18\n      jump\t// in\n    tag_17:\n        /* \"contracts/15_Import2.sol\":318:338  return ie1.getName() */\n      swap1\n      pop\n        /* \"contracts/15_Import2.sol\":255:345  function getName() public view returns(string memory){... */\n      swap1\n      jump\t// out\n        /* \"contracts/15_Import2.sol\":173:249  function getAge() public view returns(uint){... */\n    tag_10:\n        /* \"contracts/15_Import2.sol\":211:215  uint */\n      0x00\n        /* \"contracts/15_Import2.sol\":233:236  ie1 */\n      dup1\n      0x00\n      swap1\n      sload\n      swap1\n      0x0100\n      exp\n      swap1\n      div\n      0xffffffffffffffffffffffffffffffffffffffff\n      and\n        /* \"contracts/15_Import2.sol\":233:240  ie1.age */\n      0xffffffffffffffffffffffffffffffffffffffff\n      and\n      0x262a9dff\n        /* \"contracts/15_Import2.sol\":233:242  ie1.age() */\n      mload(0x40)\n      dup2\n      0xffffffff\n      and\n      0xe0\n      shl\n      dup2\n      mstore\n      0x04\n      add\n      0x20\n      mload(0x40)\n      dup1\n      dup4\n      sub\n      dup2\n      dup7\n      dup1\n      extcodesize\n      iszero\n      dup1\n      iszero\n      tag_20\n      jumpi\n      0x00\n      dup1\n      revert\n    tag_20:\n      pop\n      gas\n      staticcall\n      iszero\n      dup1\n      iszero\n      tag_22\n      jumpi\n      returndatasize\n      0x00\n      dup1\n      returndatacopy\n      revert(0x00, returndatasize)\n    tag_22:\n      pop\n      pop\n      pop\n      pop\n      mload(0x40)\n      returndatasize\n      not(0x1f)\n      0x1f\n      dup3\n      add\n      and\n      dup3\n      add\n      dup1\n      0x40\n      mstore\n      pop\n      dup2\n      add\n      swap1\n      tag_23\n      swap2\n      swap1\n      tag_24\n      jump\t// in\n    tag_23:\n        /* \"contracts/15_Import2.sol\":226:242  return ie1.age() */\n      swap1\n      pop\n        /* \"contracts/15_Import2.sol\":173:249  function getAge() public view returns(uint){... */\n      swap1\n      jump\t// out\n        /* \"#utility.yul\":7:428   */\n    tag_26:\n        /* \"#utility.yul\":96:101   */\n      0x00\n        /* \"#utility.yul\":121:187   */\n      tag_28\n        /* \"#utility.yul\":137:186   */\n      tag_29\n        /* \"#utility.yul\":179:185   */\n      dup5\n        /* \"#utility.yul\":137:186   */\n      tag_30\n      jump\t// in\n    tag_29:\n        /* \"#utility.yul\":121:187   */\n      tag_31\n      jump\t// in\n    tag_28:\n        /* \"#utility.yul\":112:187   */\n      swap1\n      pop\n        /* \"#utility.yul\":210:216   */\n      dup3\n        /* \"#utility.yul\":203:208   */\n      dup2\n        /* \"#utility.yul\":196:217   */\n      mstore\n        /* \"#utility.yul\":248:252   */\n      0x20\n        /* \"#utility.yul\":241:246   */\n      dup2\n        /* \"#utility.yul\":237:253   */\n      add\n        /* \"#utility.yul\":286:289   */\n      dup5\n        /* \"#utility.yul\":277:283   */\n      dup5\n        /* \"#utility.yul\":272:275   */\n      dup5\n        /* \"#utility.yul\":268:284   */\n      add\n        /* \"#utility.yul\":265:290   */\n      gt\n        /* \"#utility.yul\":262:374   */\n      iszero\n      tag_32\n      jumpi\n        /* \"#utility.yul\":293:372   */\n      tag_33\n      tag_34\n      jump\t// in\n    tag_33:\n        /* \"#utility.yul\":262:374   */\n    tag_32:\n        /* \"#utility.yul\":383:422   */\n      tag_35\n        /* \"#utility.yul\":415:421   */\n      dup5\n        /* \"#utility.yul\":410:413   */\n      dup3\n        /* \"#utility.yul\":405:408   */\n      dup6\n        /* \"#utility.yul\":383:422   */\n      tag_36\n      jump\t// in\n    tag_35:\n        /* \"#utility.yul\":102:428   */\n      pop\n        /* \"#utility.yul\":7:428   */\n      swap4\n      swap3\n      pop\n      pop\n      pop\n      jump\t// out\n        /* \"#utility.yul\":448:803   */\n    tag_37:\n        /* \"#utility.yul\":515:520   */\n      0x00\n        /* \"#utility.yul\":564:567   */\n      dup3\n        /* \"#utility.yul\":557:561   */\n      0x1f\n        /* \"#utility.yul\":549:555   */\n      dup4\n        /* \"#utility.yul\":545:562   */\n      add\n        /* \"#utility.yul\":541:568   */\n      slt\n        /* \"#utility.yul\":531:653   */\n      tag_39\n      jumpi\n        /* \"#utility.yul\":572:651   */\n      tag_40\n      tag_41\n      jump\t// in\n    tag_40:\n        /* \"#utility.yul\":531:653   */\n    tag_39:\n        /* \"#utility.yul\":682:688   */\n      dup2\n        /* \"#utility.yul\":676:689   */\n      mload\n        /* \"#utility.yul\":707:797   */\n      tag_42\n        /* \"#utility.yul\":793:796   */\n      dup5\n        /* \"#utility.yul\":785:791   */\n      dup3\n        /* \"#utility.yul\":778:782   */\n      0x20\n        /* \"#utility.yul\":770:776   */\n      dup7\n        /* \"#utility.yul\":766:783   */\n      add\n        /* \"#utility.yul\":707:797   */\n      tag_26\n      jump\t// in\n    tag_42:\n        /* \"#utility.yul\":698:797   */\n      swap2\n      pop\n        /* \"#utility.yul\":521:803   */\n      pop\n        /* \"#utility.yul\":448:803   */\n      swap3\n      swap2\n      pop\n      pop\n      jump\t// out\n        /* \"#utility.yul\":809:952   */\n    tag_43:\n        /* \"#utility.yul\":866:871   */\n      0x00\n        /* \"#utility.yul\":897:903   */\n      dup2\n        /* \"#utility.yul\":891:904   */\n      mload\n        /* \"#utility.yul\":882:904   */\n      swap1\n      pop\n        /* \"#utility.yul\":913:946   */\n      tag_45\n        /* \"#utility.yul\":940:945   */\n      dup2\n        /* \"#utility.yul\":913:946   */\n      tag_46\n      jump\t// in\n    tag_45:\n        /* \"#utility.yul\":809:952   */\n      swap3\n      swap2\n      pop\n      pop\n      jump\t// out\n        /* \"#utility.yul\":958:1482   */\n    tag_18:\n        /* \"#utility.yul\":1038:1044   */\n      0x00\n        /* \"#utility.yul\":1087:1089   */\n      0x20\n        /* \"#utility.yul\":1075:1084   */\n      dup3\n        /* \"#utility.yul\":1066:1073   */\n      dup5\n        /* \"#utility.yul\":1062:1085   */\n      sub\n        /* \"#utility.yul\":1058:1090   */\n      slt\n        /* \"#utility.yul\":1055:1174   */\n      iszero\n      tag_48\n      jumpi\n        /* \"#utility.yul\":1093:1172   */\n      tag_49\n      tag_50\n      jump\t// in\n    tag_49:\n        /* \"#utility.yul\":1055:1174   */\n    tag_48:\n        /* \"#utility.yul\":1234:1235   */\n      0x00\n        /* \"#utility.yul\":1223:1232   */\n      dup3\n        /* \"#utility.yul\":1219:1236   */\n      add\n        /* \"#utility.yul\":1213:1237   */\n      mload\n        /* \"#utility.yul\":1264:1282   */\n      0xffffffffffffffff\n        /* \"#utility.yul\":1256:1262   */\n      dup2\n        /* \"#utility.yul\":1253:1283   */\n      gt\n        /* \"#utility.yul\":1250:1367   */\n      iszero\n      tag_51\n      jumpi\n        /* \"#utility.yul\":1286:1365   */\n      tag_52\n      tag_53\n      jump\t// in\n    tag_52:\n        /* \"#utility.yul\":1250:1367   */\n    tag_51:\n        /* \"#utility.yul\":1391:1465   */\n      tag_54\n        /* \"#utility.yul\":1457:1464   */\n      dup5\n        /* \"#utility.yul\":1448:1454   */\n      dup3\n        /* \"#utility.yul\":1437:1446   */\n      dup6\n        /* \"#utility.yul\":1433:1455   */\n      add\n        /* \"#utility.yul\":1391:1465   */\n      tag_37\n      jump\t// in\n    tag_54:\n        /* \"#utility.yul\":1381:1465   */\n      swap2\n      pop\n        /* \"#utility.yul\":1184:1475   */\n      pop\n        /* \"#utility.yul\":958:1482   */\n      swap3\n      swap2\n      pop\n      pop\n      jump\t// out\n        /* \"#utility.yul\":1488:1839   */\n    tag_24:\n        /* \"#utility.yul\":1558:1564   */\n      0x00\n        /* \"#utility.yul\":1607:1609   */\n      0x20\n        /* \"#utility.yul\":1595:1604   */\n      dup3\n        /* \"#utility.yul\":1586:1593   */\n      dup5\n        /* \"#utility.yul\":1582:1605   */\n      sub\n        /* \"#utility.yul\":1578:1610   */\n      slt\n        /* \"#utility.yul\":1575:1694   */\n      iszero\n      tag_56\n      jumpi\n        /* \"#utility.yul\":1613:1692   */\n      tag_57\n      tag_50\n      jump\t// in\n    tag_57:\n        /* \"#utility.yul\":1575:1694   */\n    tag_56:\n        /* \"#utility.yul\":1733:1734   */\n      0x00\n        /* \"#utility.yul\":1758:1822   */\n      tag_58\n        /* \"#utility.yul\":1814:1821   */\n      dup5\n        /* \"#utility.yul\":1805:1811   */\n      dup3\n        /* \"#utility.yul\":1794:1803   */\n      dup6\n        /* \"#utility.yul\":1790:1812   */\n      add\n        /* \"#utility.yul\":1758:1822   */\n      tag_43\n      jump\t// in\n    tag_58:\n        /* \"#utility.yul\":1748:1822   */\n      swap2\n      pop\n        /* \"#utility.yul\":1704:1832   */\n      pop\n        /* \"#utility.yul\":1488:1839   */\n      swap3\n      swap2\n      pop\n      pop\n      jump\t// out\n        /* \"#utility.yul\":1845:2209   */\n    tag_59:\n        /* \"#utility.yul\":1933:1936   */\n      0x00\n        /* \"#utility.yul\":1961:2000   */\n      tag_61\n        /* \"#utility.yul\":1994:1999   */\n      dup3\n        /* \"#utility.yul\":1961:2000   */\n      tag_62\n      jump\t// in\n    tag_61:\n        /* \"#utility.yul\":2016:2087   */\n      tag_63\n        /* \"#utility.yul\":2080:2086   */\n      dup2\n        /* \"#utility.yul\":2075:2078   */\n      dup6\n        /* \"#utility.yul\":2016:2087   */\n      tag_64\n      jump\t// in\n    tag_63:\n        /* \"#utility.yul\":2009:2087   */\n      swap4\n      pop\n        /* \"#utility.yul\":2096:2148   */\n      tag_65\n        /* \"#utility.yul\":2141:2147   */\n      dup2\n        /* \"#utility.yul\":2136:2139   */\n      dup6\n        /* \"#utility.yul\":2129:2133   */\n      0x20\n        /* \"#utility.yul\":2122:2127   */\n      dup7\n        /* \"#utility.yul\":2118:2134   */\n      add\n        /* \"#utility.yul\":2096:2148   */\n      tag_36\n      jump\t// in\n    tag_65:\n        /* \"#utility.yul\":2173:2202   */\n      tag_66\n        /* \"#utility.yul\":2195:2201   */\n      dup2\n        /* \"#utility.yul\":2173:2202   */\n      tag_67\n      jump\t// in\n    tag_66:\n        /* \"#utility.yul\":2168:2171   */\n      dup5\n        /* \"#utility.yul\":2164:2203   */\n      add\n        /* \"#utility.yul\":2157:2203   */\n      swap2\n      pop\n        /* \"#utility.yul\":1937:2209   */\n      pop\n        /* \"#utility.yul\":1845:2209   */\n      swap3\n      swap2\n      pop\n      pop\n      jump\t// out\n        /* \"#utility.yul\":2215:2333   */\n    tag_68:\n        /* \"#utility.yul\":2302:2326   */\n      tag_70\n        /* \"#utility.yul\":2320:2325   */\n      dup2\n        /* \"#utility.yul\":2302:2326   */\n      tag_71\n      jump\t// in\n    tag_70:\n        /* \"#utility.yul\":2297:2300   */\n      dup3\n        /* \"#utility.yul\":2290:2327   */\n      mstore\n        /* \"#utility.yul\":2215:2333   */\n      pop\n      pop\n      jump\t// out\n        /* \"#utility.yul\":2339:2652   */\n    tag_8:\n        /* \"#utility.yul\":2452:2456   */\n      0x00\n        /* \"#utility.yul\":2490:2492   */\n      0x20\n        /* \"#utility.yul\":2479:2488   */\n      dup3\n        /* \"#utility.yul\":2475:2493   */\n      add\n        /* \"#utility.yul\":2467:2493   */\n      swap1\n      pop\n        /* \"#utility.yul\":2539:2548   */\n      dup2\n        /* \"#utility.yul\":2533:2537   */\n      dup2\n        /* \"#utility.yul\":2529:2549   */\n      sub\n        /* \"#utility.yul\":2525:2526   */\n      0x00\n        /* \"#utility.yul\":2514:2523   */\n      dup4\n        /* \"#utility.yul\":2510:2527   */\n      add\n        /* \"#utility.yul\":2503:2550   */\n      mstore\n        /* \"#utility.yul\":2567:2645   */\n      tag_73\n        /* \"#utility.yul\":2640:2644   */\n      dup2\n        /* \"#utility.yul\":2631:2637   */\n      dup5\n        /* \"#utility.yul\":2567:2645   */\n      tag_59\n      jump\t// in\n    tag_73:\n        /* \"#utility.yul\":2559:2645   */\n      swap1\n      pop\n        /* \"#utility.yul\":2339:2652   */\n      swap3\n      swap2\n      pop\n      pop\n      jump\t// out\n        /* \"#utility.yul\":2658:2880   */\n    tag_12:\n        /* \"#utility.yul\":2751:2755   */\n      0x00\n        /* \"#utility.yul\":2789:2791   */\n      0x20\n        /* \"#utility.yul\":2778:2787   */\n      dup3\n        /* \"#utility.yul\":2774:2792   */\n      add\n        /* \"#utility.yul\":2766:2792   */\n      swap1\n      pop\n        /* \"#utility.yul\":2802:2873   */\n      tag_75\n        /* \"#utility.yul\":2870:2871   */\n      0x00\n        /* \"#utility.yul\":2859:2868   */\n      dup4\n        /* \"#utility.yul\":2855:2872   */\n      add\n        /* \"#utility.yul\":2846:2852   */\n      dup5\n        /* \"#utility.yul\":2802:2873   */\n      tag_68\n      jump\t// in\n    tag_75:\n        /* \"#utility.yul\":2658:2880   */\n      swap3\n      swap2\n      pop\n      pop\n      jump\t// out\n        /* \"#utility.yul\":2886:3015   */\n    tag_31:\n        /* \"#utility.yul\":2920:2926   */\n      0x00\n        /* \"#utility.yul\":2947:2967   */\n      tag_77\n      tag_78\n      jump\t// in\n    tag_77:\n        /* \"#utility.yul\":2937:2967   */\n      swap1\n      pop\n        /* \"#utility.yul\":2976:3009   */\n      tag_79\n        /* \"#utility.yul\":3004:3008   */\n      dup3\n        /* \"#utility.yul\":2996:3002   */\n      dup3\n        /* \"#utility.yul\":2976:3009   */\n      tag_80\n      jump\t// in\n    tag_79:\n        /* \"#utility.yul\":2886:3015   */\n      swap2\n      swap1\n      pop\n      jump\t// out\n        /* \"#utility.yul\":3021:3096   */\n    tag_78:\n        /* \"#utility.yul\":3054:3060   */\n      0x00\n        /* \"#utility.yul\":3087:3089   */\n      0x40\n        /* \"#utility.yul\":3081:3090   */\n      mload\n        /* \"#utility.yul\":3071:3090   */\n      swap1\n      pop\n        /* \"#utility.yul\":3021:3096   */\n      swap1\n      jump\t// out\n        /* \"#utility.yul\":3102:3410   */\n    tag_30:\n        /* \"#utility.yul\":3164:3168   */\n      0x00\n        /* \"#utility.yul\":3254:3272   */\n      0xffffffffffffffff\n        /* \"#utility.yul\":3246:3252   */\n      dup3\n        /* \"#utility.yul\":3243:3273   */\n      gt\n        /* \"#utility.yul\":3240:3296   */\n      iszero\n      tag_83\n      jumpi\n        /* \"#utility.yul\":3276:3294   */\n      tag_84\n      tag_85\n      jump\t// in\n    tag_84:\n        /* \"#utility.yul\":3240:3296   */\n    tag_83:\n        /* \"#utility.yul\":3314:3343   */\n      tag_86\n        /* \"#utility.yul\":3336:3342   */\n      dup3\n        /* \"#utility.yul\":3314:3343   */\n      tag_67\n      jump\t// in\n    tag_86:\n        /* \"#utility.yul\":3306:3343   */\n      swap1\n      pop\n        /* \"#utility.yul\":3398:3402   */\n      0x20\n        /* \"#utility.yul\":3392:3396   */\n      dup2\n        /* \"#utility.yul\":3388:3403   */\n      add\n        /* \"#utility.yul\":3380:3403   */\n      swap1\n      pop\n        /* \"#utility.yul\":3102:3410   */\n      swap2\n      swap1\n      pop\n      jump\t// out\n        /* \"#utility.yul\":3416:3515   */\n    tag_62:\n        /* \"#utility.yul\":3468:3474   */\n      0x00\n        /* \"#utility.yul\":3502:3507   */\n      dup2\n        /* \"#utility.yul\":3496:3508   */\n      mload\n        /* \"#utility.yul\":3486:3508   */\n      swap1\n      pop\n        /* \"#utility.yul\":3416:3515   */\n      swap2\n      swap1\n      pop\n      jump\t// out\n        /* \"#utility.yul\":3521:3690   */\n    tag_64:\n        /* \"#utility.yul\":3605:3616   */\n      0x00\n        /* \"#utility.yul\":3639:3645   */\n      dup3\n        /* \"#utility.yul\":3634:3637   */\n      dup3\n        /* \"#utility.yul\":3627:3646   */\n      mstore\n        /* \"#utility.yul\":3679:3683   */\n      0x20\n        /* \"#utility.yul\":3674:3677   */\n      dup3\n        /* \"#utility.yul\":3670:3684   */\n      add\n        /* \"#utility.yul\":3655:3684   */\n      swap1\n      pop\n        /* \"#utility.yul\":3521:3690   */\n      swap3\n      swap2\n      pop\n      pop\n      jump\t// out\n        /* \"#utility.yul\":3696:3773   */\n    tag_71:\n        /* \"#utility.yul\":3733:3740   */\n      0x00\n        /* \"#utility.yul\":3762:3767   */\n      dup2\n        /* \"#utility.yul\":3751:3767   */\n      swap1\n      pop\n        /* \"#utility.yul\":3696:3773   */\n      swap2\n      swap1\n      pop\n      jump\t// out\n        /* \"#utility.yul\":3779:4086   */\n    tag_36:\n        /* \"#utility.yul\":3847:3848   */\n      0x00\n        /* \"#utility.yul\":3857:3970   */\n    tag_91:\n        /* \"#utility.yul\":3871:3877   */\n      dup4\n        /* \"#utility.yul\":3868:3869   */\n      dup2\n        /* \"#utility.yul\":3865:3878   */\n      lt\n        /* \"#utility.yul\":3857:3970   */\n      iszero\n      tag_93\n      jumpi\n        /* \"#utility.yul\":3956:3957   */\n      dup1\n        /* \"#utility.yul\":3951:3954   */\n      dup3\n        /* \"#utility.yul\":3947:3958   */\n      add\n        /* \"#utility.yul\":3941:3959   */\n      mload\n        /* \"#utility.yul\":3937:3938   */\n      dup2\n        /* \"#utility.yul\":3932:3935   */\n      dup5\n        /* \"#utility.yul\":3928:3939   */\n      add\n        /* \"#utility.yul\":3921:3960   */\n      mstore\n        /* \"#utility.yul\":3893:3895   */\n      0x20\n        /* \"#utility.yul\":3890:3891   */\n      dup2\n        /* \"#utility.yul\":3886:3896   */\n      add\n        /* \"#utility.yul\":3881:3896   */\n      swap1\n      pop\n        /* \"#utility.yul\":3857:3970   */\n      jump(tag_91)\n    tag_93:\n        /* \"#utility.yul\":3988:3994   */\n      dup4\n        /* \"#utility.yul\":3985:3986   */\n      dup2\n        /* \"#utility.yul\":3982:3995   */\n      gt\n        /* \"#utility.yul\":3979:4080   */\n      iszero\n      tag_94\n      jumpi\n        /* \"#utility.yul\":4068:4069   */\n      0x00\n        /* \"#utility.yul\":4059:4065   */\n      dup5\n        /* \"#utility.yul\":4054:4057   */\n      dup5\n        /* \"#utility.yul\":4050:4066   */\n      add\n        /* \"#utility.yul\":4043:4070   */\n      mstore\n        /* \"#utility.yul\":3979:4080   */\n    tag_94:\n        /* \"#utility.yul\":3828:4086   */\n      pop\n        /* \"#utility.yul\":3779:4086   */\n      pop\n      pop\n      pop\n      jump\t// out\n        /* \"#utility.yul\":4092:4373   */\n    tag_80:\n        /* \"#utility.yul\":4175:4202   */\n      tag_96\n        /* \"#utility.yul\":4197:4201   */\n      dup3\n        /* \"#utility.yul\":4175:4202   */\n      tag_67\n      jump\t// in\n    tag_96:\n        /* \"#utility.yul\":4167:4173   */\n      dup2\n        /* \"#utility.yul\":4163:4203   */\n      add\n        /* \"#utility.yul\":4305:4311   */\n      dup2\n        /* \"#utility.yul\":4293:4303   */\n      dup2\n        /* \"#utility.yul\":4290:4312   */\n      lt\n        /* \"#utility.yul\":4269:4287   */\n      0xffffffffffffffff\n        /* \"#utility.yul\":4257:4267   */\n      dup3\n        /* \"#utility.yul\":4254:4288   */\n      gt\n        /* \"#utility.yul\":4251:4313   */\n      or\n        /* \"#utility.yul\":4248:4336   */\n      iszero\n      tag_97\n      jumpi\n        /* \"#utility.yul\":4316:4334   */\n      tag_98\n      tag_85\n      jump\t// in\n    tag_98:\n        /* \"#utility.yul\":4248:4336   */\n    tag_97:\n        /* \"#utility.yul\":4356:4366   */\n      dup1\n        /* \"#utility.yul\":4352:4354   */\n      0x40\n        /* \"#utility.yul\":4345:4367   */\n      mstore\n        /* \"#utility.yul\":4135:4373   */\n      pop\n        /* \"#utility.yul\":4092:4373   */\n      pop\n      pop\n      jump\t// out\n        /* \"#utility.yul\":4379:4559   */\n    tag_85:\n        /* \"#utility.yul\":4427:4504   */\n      0x4e487b7100000000000000000000000000000000000000000000000000000000\n        /* \"#utility.yul\":4424:4425   */\n      0x00\n        /* \"#utility.yul\":4417:4505   */\n      mstore\n        /* \"#utility.yul\":4524:4528   */\n      0x41\n        /* \"#utility.yul\":4521:4522   */\n      0x04\n        /* \"#utility.yul\":4514:4529   */\n      mstore\n        /* \"#utility.yul\":4548:4552   */\n      0x24\n        /* \"#utility.yul\":4545:4546   */\n      0x00\n        /* \"#utility.yul\":4538:4553   */\n      revert\n        /* \"#utility.yul\":4565:4682   */\n    tag_41:\n        /* \"#utility.yul\":4674:4675   */\n      0x00\n        /* \"#utility.yul\":4671:4672   */\n      dup1\n        /* \"#utility.yul\":4664:4676   */\n      revert\n        /* \"#utility.yul\":4688:4805   */\n    tag_34:\n        /* \"#utility.yul\":4797:4798   */\n      0x00\n        /* \"#utility.yul\":4794:4795   */\n      dup1\n        /* \"#utility.yul\":4787:4799   */\n      revert\n        /* \"#utility.yul\":4811:4928   */\n    tag_53:\n        /* \"#utility.yul\":4920:4921   */\n      0x00\n        /* \"#utility.yul\":4917:4918   */\n      dup1\n        /* \"#utility.yul\":4910:4922   */\n      revert\n        /* \"#utility.yul\":4934:5051   */\n    tag_50:\n        /* \"#utility.yul\":5043:5044   */\n      0x00\n        /* \"#utility.yul\":5040:5041   */\n      dup1\n        /* \"#utility.yul\":5033:5045   */\n      revert\n        /* \"#utility.yul\":5057:5159   */\n    tag_67:\n        /* \"#utility.yul\":5098:5104   */\n      0x00\n        /* \"#utility.yul\":5149:5151   */\n      0x1f\n        /* \"#utility.yul\":5145:5152   */\n      not\n        /* \"#utility.yul\":5140:5142   */\n      0x1f\n        /* \"#utility.yul\":5133:5138   */\n      dup4\n        /* \"#utility.yul\":5129:5143   */\n      add\n        /* \"#utility.yul\":5125:5153   */\n      and\n        /* \"#utility.yul\":5115:5153   */\n      swap1\n      pop\n        /* \"#utility.yul\":5057:5159   */\n      swap2\n      swap1\n      pop\n      jump\t// out\n        /* \"#utility.yul\":5165:5287   */\n    tag_46:\n        /* \"#utility.yul\":5238:5262   */\n      tag_106\n        /* \"#utility.yul\":5256:5261   */\n      dup2\n        /* \"#utility.yul\":5238:5262   */\n      tag_71\n      jump\t// in\n    tag_106:\n        /* \"#utility.yul\":5231:5236   */\n      dup2\n        /* \"#utility.yul\":5228:5263   */\n      eq\n        /* \"#utility.yul\":5218:5281   */\n      tag_107\n      jumpi\n        /* \"#utility.yul\":5277:5278   */\n      0x00\n        /* \"#utility.yul\":5274:5275   */\n      dup1\n        /* \"#utility.yul\":5267:5279   */\n      revert\n        /* \"#utility.yul\":5218:5281   */\n    tag_107:\n        /* \"#utility.yul\":5165:5287   */\n      pop\n      jump\t// out\n\n    auxdata: 0xa26469706673582212209e3f7b42c5c15731a7b62d79f55dcd4f7a62087f79ea7be5e0f7f30640d18b2d64736f6c63430008070033\n}\n\nsub_1: assembly {\n        /* \"contracts/14_Import1.sol\":70:242  contract ImportExample1{... */\n      mstore(0x40, 0x80)\n        /* \"contracts/14_Import1.sol\":117:119  80 */\n      0x50\n        /* \"contracts/14_Import1.sol\":99:119  uint public age = 80 */\n      0x00\n      sstore\n        /* \"contracts/14_Import1.sol\":125:152  string private name=\"biden\" */\n      mload(0x40)\n      dup1\n      0x40\n      add\n      0x40\n      mstore\n      dup1\n      0x05\n      dup2\n      mstore\n      0x20\n      add\n      0x626964656e000000000000000000000000000000000000000000000000000000\n      dup2\n      mstore\n      pop\n      0x01\n      swap1\n      dup1\n      mload\n      swap1\n      0x20\n      add\n      swap1\n      tag_1\n      swap3\n      swap2\n      swap1\n      tag_2\n      jump\t// in\n    tag_1:\n      pop\n        /* \"contracts/14_Import1.sol\":70:242  contract ImportExample1{... */\n      callvalue\n      dup1\n      iszero\n      tag_3\n      jumpi\n      0x00\n      dup1\n      revert\n    tag_3:\n      pop\n      jump(tag_4)\n    tag_2:\n      dup3\n      dup1\n      sload\n      tag_5\n      swap1\n      tag_6\n      jump\t// in\n    tag_5:\n      swap1\n      0x00\n      mstore\n      keccak256(0x00, 0x20)\n      swap1\n      0x1f\n      add\n      0x20\n      swap1\n      div\n      dup2\n      add\n      swap3\n      dup3\n      tag_8\n      jumpi\n      0x00\n      dup6\n      sstore\n      jump(tag_7)\n    tag_8:\n      dup3\n      0x1f\n      lt\n      tag_9\n      jumpi\n      dup1\n      mload\n      not(0xff)\n      and\n      dup4\n      dup1\n      add\n      or\n      dup6\n      sstore\n      jump(tag_7)\n    tag_9:\n      dup3\n      dup1\n      add\n      0x01\n      add\n      dup6\n      sstore\n      dup3\n      iszero\n      tag_7\n      jumpi\n      swap2\n      dup3\n      add\n    tag_10:\n      dup3\n      dup2\n      gt\n      iszero\n      tag_11\n      jumpi\n      dup3\n      mload\n      dup3\n      sstore\n      swap2\n      0x20\n      add\n      swap2\n      swap1\n      0x01\n      add\n      swap1\n      jump(tag_10)\n    tag_11:\n    tag_7:\n      pop\n      swap1\n      pop\n      tag_12\n      swap2\n      swap1\n      tag_13\n      jump\t// in\n    tag_12:\n      pop\n      swap1\n      jump\t// out\n    tag_13:\n    tag_14:\n      dup1\n      dup3\n      gt\n      iszero\n      tag_15\n      jumpi\n      0x00\n      dup2\n      0x00\n      swap1\n      sstore\n      pop\n      0x01\n      add\n      jump(tag_14)\n    tag_15:\n      pop\n      swap1\n      jump\t// out\n        /* \"#utility.yul\":7:327   */\n    tag_6:\n        /* \"#utility.yul\":51:57   */\n      0x00\n        /* \"#utility.yul\":88:89   */\n      0x02\n        /* \"#utility.yul\":82:86   */\n      dup3\n        /* \"#utility.yul\":78:90   */\n      div\n        /* \"#utility.yul\":68:90   */\n      swap1\n      pop\n        /* \"#utility.yul\":135:136   */\n      0x01\n        /* \"#utility.yul\":129:133   */\n      dup3\n        /* \"#utility.yul\":125:137   */\n      and\n        /* \"#utility.yul\":156:174   */\n      dup1\n        /* \"#utility.yul\":146:227   */\n      tag_18\n      jumpi\n        /* \"#utility.yul\":212:216   */\n      0x7f\n        /* \"#utility.yul\":204:210   */\n      dup3\n        /* \"#utility.yul\":200:217   */\n      and\n        /* \"#utility.yul\":190:217   */\n      swap2\n      pop\n        /* \"#utility.yul\":146:227   */\n    tag_18:\n        /* \"#utility.yul\":274:276   */\n      0x20\n        /* \"#utility.yul\":266:272   */\n      dup3\n        /* \"#utility.yul\":263:277   */\n      lt\n        /* \"#utility.yul\":243:261   */\n      dup2\n        /* \"#utility.yul\":240:278   */\n      eq\n        /* \"#utility.yul\":237:321   */\n      iszero\n      tag_19\n      jumpi\n        /* \"#utility.yul\":293:311   */\n      tag_20\n      tag_21\n      jump\t// in\n    tag_20:\n        /* \"#utility.yul\":237:321   */\n    tag_19:\n        /* \"#utility.yul\":58:327   */\n      pop\n        /* \"#utility.yul\":7:327   */\n      swap2\n      swap1\n      pop\n      jump\t// out\n        /* \"#utility.yul\":333:513   */\n    tag_21:\n        /* \"#utility.yul\":381:458   */\n      0x4e487b7100000000000000000000000000000000000000000000000000000000\n        /* \"#utility.yul\":378:379   */\n      0x00\n        /* \"#utility.yul\":371:459   */\n      mstore\n        /* \"#utility.yul\":478:482   */\n      0x22\n        /* \"#utility.yul\":475:476   */\n      0x04\n        /* \"#utility.yul\":468:483   */\n      mstore\n        /* \"#utility.yul\":502:506   */\n      0x24\n        /* \"#utility.yul\":499:500   */\n      0x00\n        /* \"#utility.yul\":492:507   */\n      revert\n        /* \"contracts/14_Import1.sol\":70:242  contract ImportExample1{... */\n    tag_4:\n      dataSize(sub_0)\n      dup1\n      dataOffset(sub_0)\n      0x00\n      codecopy\n      0x00\n      return\n    stop\n\n    sub_0: assembly {\n            /* \"contracts/14_Import1.sol\":70:242  contract ImportExample1{... */\n          mstore(0x40, 0x80)\n          callvalue\n          dup1\n          iszero\n          tag_1\n          jumpi\n          0x00\n          dup1\n          revert\n        tag_1:\n          pop\n          jumpi(tag_2, lt(calldatasize, 0x04))\n          shr(0xe0, calldataload(0x00))\n          dup1\n          0x17d7de7c\n          eq\n          tag_3\n          jumpi\n          dup1\n          0x262a9dff\n          eq\n          tag_4\n          jumpi\n        tag_2:\n          0x00\n          dup1\n          revert\n            /* \"contracts/14_Import1.sol\":159:240  function getName() public view returns(string memory){... */\n        tag_3:\n          tag_5\n          tag_6\n          jump\t// in\n        tag_5:\n          mload(0x40)\n          tag_7\n          swap2\n          swap1\n          tag_8\n          jump\t// in\n        tag_7:\n          mload(0x40)\n          dup1\n          swap2\n          sub\n          swap1\n          return\n            /* \"contracts/14_Import1.sol\":99:119  uint public age = 80 */\n        tag_4:\n          tag_9\n          tag_10\n          jump\t// in\n        tag_9:\n          mload(0x40)\n          tag_11\n          swap2\n          swap1\n          tag_12\n          jump\t// in\n        tag_11:\n          mload(0x40)\n          dup1\n          swap2\n          sub\n          swap1\n          return\n            /* \"contracts/14_Import1.sol\":159:240  function getName() public view returns(string memory){... */\n        tag_6:\n            /* \"contracts/14_Import1.sol\":198:211  string memory */\n          0x60\n            /* \"contracts/14_Import1.sol\":229:233  name */\n          0x01\n            /* \"contracts/14_Import1.sol\":222:233  return name */\n          dup1\n          sload\n          tag_14\n          swap1\n          tag_15\n          jump\t// in\n        tag_14:\n          dup1\n          0x1f\n          add\n          0x20\n          dup1\n          swap2\n          div\n          mul\n          0x20\n          add\n          mload(0x40)\n          swap1\n          dup2\n          add\n          0x40\n          mstore\n          dup1\n          swap3\n          swap2\n          swap1\n          dup2\n          dup2\n          mstore\n          0x20\n          add\n          dup3\n          dup1\n          sload\n          tag_16\n          swap1\n          tag_15\n          jump\t// in\n        tag_16:\n          dup1\n          iszero\n          tag_17\n          jumpi\n          dup1\n          0x1f\n          lt\n          tag_18\n          jumpi\n          0x0100\n          dup1\n          dup4\n          sload\n          div\n          mul\n          dup4\n          mstore\n          swap2\n          0x20\n          add\n          swap2\n          jump(tag_17)\n        tag_18:\n          dup3\n          add\n          swap2\n          swap1\n          0x00\n          mstore\n          keccak256(0x00, 0x20)\n          swap1\n        tag_19:\n          dup2\n          sload\n          dup2\n          mstore\n          swap1\n          0x01\n          add\n          swap1\n          0x20\n          add\n          dup1\n          dup4\n          gt\n          tag_19\n          jumpi\n          dup3\n          swap1\n          sub\n          0x1f\n          and\n          dup3\n          add\n          swap2\n        tag_17:\n          pop\n          pop\n          pop\n          pop\n          pop\n          swap1\n          pop\n            /* \"contracts/14_Import1.sol\":159:240  function getName() public view returns(string memory){... */\n          swap1\n          jump\t// out\n            /* \"contracts/14_Import1.sol\":99:119  uint public age = 80 */\n        tag_10:\n          sload(0x00)\n          dup2\n          jump\t// out\n            /* \"#utility.yul\":7:371   */\n        tag_21:\n            /* \"#utility.yul\":95:98   */\n          0x00\n            /* \"#utility.yul\":123:162   */\n          tag_23\n            /* \"#utility.yul\":156:161   */\n          dup3\n            /* \"#utility.yul\":123:162   */\n          tag_24\n          jump\t// in\n        tag_23:\n            /* \"#utility.yul\":178:249   */\n          tag_25\n            /* \"#utility.yul\":242:248   */\n          dup2\n            /* \"#utility.yul\":237:240   */\n          dup6\n            /* \"#utility.yul\":178:249   */\n          tag_26\n          jump\t// in\n        tag_25:\n            /* \"#utility.yul\":171:249   */\n          swap4\n          pop\n            /* \"#utility.yul\":258:310   */\n          tag_27\n            /* \"#utility.yul\":303:309   */\n          dup2\n            /* \"#utility.yul\":298:301   */\n          dup6\n            /* \"#utility.yul\":291:295   */\n          0x20\n            /* \"#utility.yul\":284:289   */\n          dup7\n            /* \"#utility.yul\":280:296   */\n          add\n            /* \"#utility.yul\":258:310   */\n          tag_28\n          jump\t// in\n        tag_27:\n            /* \"#utility.yul\":335:364   */\n          tag_29\n            /* \"#utility.yul\":357:363   */\n          dup2\n            /* \"#utility.yul\":335:364   */\n          tag_30\n          jump\t// in\n        tag_29:\n            /* \"#utility.yul\":330:333   */\n          dup5\n            /* \"#utility.yul\":326:365   */\n          add\n            /* \"#utility.yul\":319:365   */\n          swap2\n          pop\n            /* \"#utility.yul\":99:371   */\n          pop\n            /* \"#utility.yul\":7:371   */\n          swap3\n          swap2\n          pop\n          pop\n          jump\t// out\n            /* \"#utility.yul\":377:495   */\n        tag_31:\n            /* \"#utility.yul\":464:488   */\n          tag_33\n            /* \"#utility.yul\":482:487   */\n          dup2\n            /* \"#utility.yul\":464:488   */\n          tag_34\n          jump\t// in\n        tag_33:\n            /* \"#utility.yul\":459:462   */\n          dup3\n            /* \"#utility.yul\":452:489   */\n          mstore\n            /* \"#utility.yul\":377:495   */\n          pop\n          pop\n          jump\t// out\n            /* \"#utility.yul\":501:814   */\n        tag_8:\n            /* \"#utility.yul\":614:618   */\n          0x00\n            /* \"#utility.yul\":652:654   */\n          0x20\n            /* \"#utility.yul\":641:650   */\n          dup3\n            /* \"#utility.yul\":637:655   */\n          add\n            /* \"#utility.yul\":629:655   */\n          swap1\n          pop\n            /* \"#utility.yul\":701:710   */\n          dup2\n            /* \"#utility.yul\":695:699   */\n          dup2\n            /* \"#utility.yul\":691:711   */\n          sub\n            /* \"#utility.yul\":687:688   */\n          0x00\n            /* \"#utility.yul\":676:685   */\n          dup4\n            /* \"#utility.yul\":672:689   */\n          add\n            /* \"#utility.yul\":665:712   */\n          mstore\n            /* \"#utility.yul\":729:807   */\n          tag_36\n            /* \"#utility.yul\":802:806   */\n          dup2\n            /* \"#utility.yul\":793:799   */\n          dup5\n            /* \"#utility.yul\":729:807   */\n          tag_21\n          jump\t// in\n        tag_36:\n            /* \"#utility.yul\":721:807   */\n          swap1\n          pop\n            /* \"#utility.yul\":501:814   */\n          swap3\n          swap2\n          pop\n          pop\n          jump\t// out\n            /* \"#utility.yul\":820:1042   */\n        tag_12:\n            /* \"#utility.yul\":913:917   */\n          0x00\n            /* \"#utility.yul\":951:953   */\n          0x20\n            /* \"#utility.yul\":940:949   */\n          dup3\n            /* \"#utility.yul\":936:954   */\n          add\n            /* \"#utility.yul\":928:954   */\n          swap1\n          pop\n            /* \"#utility.yul\":964:1035   */\n          tag_38\n            /* \"#utility.yul\":1032:1033   */\n          0x00\n            /* \"#utility.yul\":1021:1030   */\n          dup4\n            /* \"#utility.yul\":1017:1034   */\n          add\n            /* \"#utility.yul\":1008:1014   */\n          dup5\n            /* \"#utility.yul\":964:1035   */\n          tag_31\n          jump\t// in\n        tag_38:\n            /* \"#utility.yul\":820:1042   */\n          swap3\n          swap2\n          pop\n          pop\n          jump\t// out\n            /* \"#utility.yul\":1048:1147   */\n        tag_24:\n            /* \"#utility.yul\":1100:1106   */\n          0x00\n            /* \"#utility.yul\":1134:1139   */\n          dup2\n            /* \"#utility.yul\":1128:1140   */\n          mload\n            /* \"#utility.yul\":1118:1140   */\n          swap1\n          pop\n            /* \"#utility.yul\":1048:1147   */\n          swap2\n          swap1\n          pop\n          jump\t// out\n            /* \"#utility.yul\":1153:1322   */\n        tag_26:\n            /* \"#utility.yul\":1237:1248   */\n          0x00\n            /* \"#utility.yul\":1271:1277   */\n          dup3\n            /* \"#utility.yul\":1266:1269   */\n          dup3\n            /* \"#utility.yul\":1259:1278   */\n          mstore\n            /* \"#utility.yul\":1311:1315   */\n          0x20\n            /* \"#utility.yul\":1306:1309   */\n          dup3\n            /* \"#utility.yul\":1302:1316   */\n          add\n            /* \"#utility.yul\":1287:1316   */\n          swap1\n          pop\n            /* \"#utility.yul\":1153:1322   */\n          swap3\n          swap2\n          pop\n          pop\n          jump\t// out\n            /* \"#utility.yul\":1328:1405   */\n        tag_34:\n            /* \"#utility.yul\":1365:1372   */\n          0x00\n            /* \"#utility.yul\":1394:1399   */\n          dup2\n            /* \"#utility.yul\":1383:1399   */\n          swap1\n          pop\n            /* \"#utility.yul\":1328:1405   */\n          swap2\n          swap1\n          pop\n          jump\t// out\n            /* \"#utility.yul\":1411:1718   */\n        tag_28:\n            /* \"#utility.yul\":1479:1480   */\n          0x00\n            /* \"#utility.yul\":1489:1602   */\n        tag_43:\n            /* \"#utility.yul\":1503:1509   */\n          dup4\n            /* \"#utility.yul\":1500:1501   */\n          dup2\n            /* \"#utility.yul\":1497:1510   */\n          lt\n            /* \"#utility.yul\":1489:1602   */\n          iszero\n          tag_45\n          jumpi\n            /* \"#utility.yul\":1588:1589   */\n          dup1\n            /* \"#utility.yul\":1583:1586   */\n          dup3\n            /* \"#utility.yul\":1579:1590   */\n          add\n            /* \"#utility.yul\":1573:1591   */\n          mload\n            /* \"#utility.yul\":1569:1570   */\n          dup2\n            /* \"#utility.yul\":1564:1567   */\n          dup5\n            /* \"#utility.yul\":1560:1571   */\n          add\n            /* \"#utility.yul\":1553:1592   */\n          mstore\n            /* \"#utility.yul\":1525:1527   */\n          0x20\n            /* \"#utility.yul\":1522:1523   */\n          dup2\n            /* \"#utility.yul\":1518:1528   */\n          add\n            /* \"#utility.yul\":1513:1528   */\n          swap1\n          pop\n            /* \"#utility.yul\":1489:1602   */\n          jump(tag_43)\n        tag_45:\n            /* \"#utility.yul\":1620:1626   */\n          dup4\n            /* \"#utility.yul\":1617:1618   */\n          dup2\n            /* \"#utility.yul\":1614:1627   */\n          gt\n            /* \"#utility.yul\":1611:1712   */\n          iszero\n          tag_46\n          jumpi\n            /* \"#utility.yul\":1700:1701   */\n          0x00\n            /* \"#utility.yul\":1691:1697   */\n          dup5\n            /* \"#utility.yul\":1686:1689   */\n          dup5\n            /* \"#utility.yul\":1682:1698   */\n          add\n            /* \"#utility.yul\":1675:1702   */\n          mstore\n            /* \"#utility.yul\":1611:1712   */\n        tag_46:\n            /* \"#utility.yul\":1460:1718   */\n          pop\n            /* \"#utility.yul\":1411:1718   */\n          pop\n          pop\n          pop\n          jump\t// out\n            /* \"#utility.yul\":1724:2044   */\n        tag_15:\n            /* \"#utility.yul\":1768:1774   */\n          0x00\n            /* \"#utility.yul\":1805:1806   */\n          0x02\n            /* \"#utility.yul\":1799:1803   */\n          dup3\n            /* \"#utility.yul\":1795:1807   */\n          div\n            /* \"#utility.yul\":1785:1807   */\n          swap1\n          pop\n            /* \"#utility.yul\":1852:1853   */\n          0x01\n            /* \"#utility.yul\":1846:1850   */\n          dup3\n            /* \"#utility.yul\":1842:1854   */\n          and\n            /* \"#utility.yul\":1873:1891   */\n          dup1\n            /* \"#utility.yul\":1863:1944   */\n          tag_48\n          jumpi\n            /* \"#utility.yul\":1929:1933   */\n          0x7f\n            /* \"#utility.yul\":1921:1927   */\n          dup3\n            /* \"#utility.yul\":1917:1934   */\n          and\n            /* \"#utility.yul\":1907:1934   */\n          swap2\n          pop\n            /* \"#utility.yul\":1863:1944   */\n        tag_48:\n            /* \"#utility.yul\":1991:1993   */\n          0x20\n            /* \"#utility.yul\":1983:1989   */\n          dup3\n            /* \"#utility.yul\":1980:1994   */\n          lt\n            /* \"#utility.yul\":1960:1978   */\n          dup2\n            /* \"#utility.yul\":1957:1995   */\n          eq\n            /* \"#utility.yul\":1954:2038   */\n          iszero\n          tag_49\n          jumpi\n            /* \"#utility.yul\":2010:2028   */\n          tag_50\n          tag_51\n          jump\t// in\n        tag_50:\n            /* \"#utility.yul\":1954:2038   */\n        tag_49:\n            /* \"#utility.yul\":1775:2044   */\n          pop\n            /* \"#utility.yul\":1724:2044   */\n          swap2\n          swap1\n          pop\n          jump\t// out\n            /* \"#utility.yul\":2050:2230   */\n        tag_51:\n            /* \"#utility.yul\":2098:2175   */\n          0x4e487b7100000000000000000000000000000000000000000000000000000000\n            /* \"#utility.yul\":2095:2096   */\n          0x00\n            /* \"#utility.yul\":2088:2176   */\n          mstore\n            /* \"#utility.yul\":2195:2199   */\n          0x22\n            /* \"#utility.yul\":2192:2193   */\n          0x04\n            /* \"#utility.yul\":2185:2200   */\n          mstore\n            /* \"#utility.yul\":2219:2223   */\n          0x24\n            /* \"#utility.yul\":2216:2217   */\n          0x00\n            /* \"#utility.yul\":2209:2224   */\n          revert\n            /* \"#utility.yul\":2236:2338   */\n        tag_30:\n            /* \"#utility.yul\":2277:2283   */\n          0x00\n            /* \"#utility.yul\":2328:2330   */\n          0x1f\n            /* \"#utility.yul\":2324:2331   */\n          not\n            /* \"#utility.yul\":2319:2321   */\n          0x1f\n            /* \"#utility.yul\":2312:2317   */\n          dup4\n            /* \"#utility.yul\":2308:2322   */\n          add\n            /* \"#utility.yul\":2304:2332   */\n          and\n            /* \"#utility.yul\":2294:2332   */\n          swap1\n          pop\n            /* \"#utility.yul\":2236:2338   */\n          swap2\n          swap1\n          pop\n          jump\t// out\n\n        auxdata: 0xa264697066735822122071bbd5ccd6ee2e334020492f9597ed9539c9883f6b4aa9a771a07a72b675a1b964736f6c63430008070033\n    }\n}\n",
				"bytecode": {
					"linkReferences": {},
					"object": "60806040526040516100109061007e565b604051809103906000f08015801561002c573d6000803e3d6000fd5b506000806101000a81548173ffffffffffffffffffffffffffffffffffffffff021916908373ffffffffffffffffffffffffffffffffffffffff16021790555034801561007857600080fd5b5061008b565b61040f8061056283390190565b6104c88061009a6000396000f3fe608060405234801561001057600080fd5b50600436106100365760003560e01c806317d7de7c1461003b578063967e6e6514610059575b600080fd5b610043610077565b604051610050919061030a565b60405180910390f35b610061610121565b60405161006e919061032c565b60405180910390f35b606060008054906101000a900473ffffffffffffffffffffffffffffffffffffffff1673ffffffffffffffffffffffffffffffffffffffff166317d7de7c6040518163ffffffff1660e01b815260040160006040518083038186803b1580156100df57600080fd5b505afa1580156100f3573d6000803e3d6000fd5b505050506040513d6000823e3d601f19601f8201168201806040525081019061011c919061024c565b905090565b60008060009054906101000a900473ffffffffffffffffffffffffffffffffffffffff1673ffffffffffffffffffffffffffffffffffffffff1663262a9dff6040518163ffffffff1660e01b815260040160206040518083038186803b15801561018a57600080fd5b505afa15801561019e573d6000803e3d6000fd5b505050506040513d601f19601f820116820180604052508101906101c29190610295565b905090565b60006101da6101d58461036c565b610347565b9050828152602081018484840111156101f6576101f561045b565b5b6102018482856103c3565b509392505050565b600082601f83011261021e5761021d610456565b5b815161022e8482602086016101c7565b91505092915050565b6000815190506102468161047b565b92915050565b60006020828403121561026257610261610465565b5b600082015167ffffffffffffffff8111156102805761027f610460565b5b61028c84828501610209565b91505092915050565b6000602082840312156102ab576102aa610465565b5b60006102b984828501610237565b91505092915050565b60006102cd8261039d565b6102d781856103a8565b93506102e78185602086016103c3565b6102f08161046a565b840191505092915050565b610304816103b9565b82525050565b6000602082019050818103600083015261032481846102c2565b905092915050565b600060208201905061034160008301846102fb565b92915050565b6000610351610362565b905061035d82826103f6565b919050565b6000604051905090565b600067ffffffffffffffff82111561038757610386610427565b5b6103908261046a565b9050602081019050919050565b600081519050919050565b600082825260208201905092915050565b6000819050919050565b60005b838110156103e15780820151818401526020810190506103c6565b838111156103f0576000848401525b50505050565b6103ff8261046a565b810181811067ffffffffffffffff8211171561041e5761041d610427565b5b80604052505050565b7f4e487b7100000000000000000000000000000000000000000000000000000000600052604160045260246000fd5b600080fd5b600080fd5b600080fd5b600080fd5b6000601f19601f8301169050919050565b610484816103b9565b811461048f57600080fd5b5056fea26469706673582212209e3f7b42c5c15731a7b62d79f55dcd4f7a62087f79ea7be5e0f7f30640d18b2d64736f6c63430008070033608060405260506000556040518060400160405280600581526020017f626964656e00000000000000000000000000000000000000000000000000000081525060019080519060200190610054929190610067565b5034801561006157600080fd5b5061016b565b8280546100739061010a565b90600052602060002090601f01602090048101928261009557600085556100dc565b82601f106100ae57805160ff19168380011785556100dc565b828001600101855582156100dc579182015b828111156100db5782518255916020019190600101906100c0565b5b5090506100e991906100ed565b5090565b5b808211156101065760008160009055506001016100ee565b5090565b6000600282049050600182168061012257607f821691505b602082108114156101365761013561013c565b5b50919050565b7f4e487b7100000000000000000000000000000000000000000000000000000000600052602260045260246000fd5b6102958061017a6000396000f3fe608060405234801561001057600080fd5b50600436106100365760003560e01c806317d7de7c1461003b578063262a9dff14610059575b600080fd5b610043610077565b6040516100509190610157565b60405180910390f35b610061610109565b60405161006e9190610179565b60405180910390f35b606060018054610086906101ed565b80601f01602080910402602001604051908101604052809291908181526020018280546100b2906101ed565b80156100ff5780601f106100d4576101008083540402835291602001916100ff565b820191906000526020600020905b8154815290600101906020018083116100e257829003601f168201915b5050505050905090565b60005481565b600061011a82610194565b610124818561019f565b93506101348185602086016101ba565b61013d8161024e565b840191505092915050565b610151816101b0565b82525050565b60006020820190508181036000830152610171818461010f565b905092915050565b600060208201905061018e6000830184610148565b92915050565b600081519050919050565b600082825260208201905092915050565b6000819050919050565b60005b838110156101d85780820151818401526020810190506101bd565b838111156101e7576000848401525b50505050565b6000600282049050600182168061020557607f821691505b602082108114156102195761021861021f565b5b50919050565b7f4e487b7100000000000000000000000000000000000000000000000000000000600052602260045260246000fd5b6000601f19601f830116905091905056fea264697066735822122071bbd5ccd6ee2e334020492f9597ed9539c9883f6b4aa9a771a07a72b675a1b964736f6c63430008070033",
					"opcodes": "PUSH1 0x80 PUSH1 0x40 MSTORE PUSH1 0x40 MLOAD PUSH2 0x10 SWAP1 PUSH2 0x7E JUMP JUMPDEST PUSH1 0x40 MLOAD DUP1 SWAP2 SUB SWAP1 PUSH1 0x0 CREATE DUP1 ISZERO DUP1 ISZERO PUSH2 0x2C JUMPI RETURNDATASIZE PUSH1 0x0 DUP1 RETURNDATACOPY RETURNDATASIZE PUSH1 0x0 REVERT JUMPDEST POP PUSH1 0x0 DUP1 PUSH2 0x100 EXP DUP2 SLOAD DUP2 PUSH20 0xFFFFFFFFFFFFFFFFFFFFFFFFFFFFFFFFFFFFFFFF MUL NOT AND SWAP1 DUP4 PUSH20 0xFFFFFFFFFFFFFFFFFFFFFFFFFFFFFFFFFFFFFFFF AND MUL OR SWAP1 SSTORE POP CALLVALUE DUP1 ISZERO PUSH2 0x78 JUMPI PUSH1 0x0 DUP1 REVERT JUMPDEST POP PUSH2 0x8B JUMP JUMPDEST PUSH2 0x40F DUP1 PUSH2 0x562 DUP4 CODECOPY ADD SWAP1 JUMP JUMPDEST PUSH2 0x4C8 DUP1 PUSH2 0x9A PUSH1 0x0 CODECOPY PUSH1 0x0 RETURN INVALID PUSH1 0x80 PUSH1 0x40 MSTORE CALLVALUE DUP1 ISZERO PUSH2 0x10 JUMPI PUSH1 0x0 DUP1 REVERT JUMPDEST POP PUSH1 0x4 CALLDATASIZE LT PUSH2 0x36 JUMPI PUSH1 0x0 CALLDATALOAD PUSH1 0xE0 SHR DUP1 PUSH4 0x17D7DE7C EQ PUSH2 0x3B JUMPI DUP1 PUSH4 0x967E6E65 EQ PUSH2 0x59 JUMPI JUMPDEST PUSH1 0x0 DUP1 REVERT JUMPDEST PUSH2 0x43 PUSH2 0x77 JUMP JUMPDEST PUSH1 0x40 MLOAD PUSH2 0x50 SWAP2 SWAP1 PUSH2 0x30A JUMP JUMPDEST PUSH1 0x40 MLOAD DUP1 SWAP2 SUB SWAP1 RETURN JUMPDEST PUSH2 0x61 PUSH2 0x121 JUMP JUMPDEST PUSH1 0x40 MLOAD PUSH2 0x6E SWAP2 SWAP1 PUSH2 0x32C JUMP JUMPDEST PUSH1 0x40 MLOAD DUP1 SWAP2 SUB SWAP1 RETURN JUMPDEST PUSH1 0x60 PUSH1 0x0 DUP1 SLOAD SWAP1 PUSH2 0x100 EXP SWAP1 DIV PUSH20 0xFFFFFFFFFFFFFFFFFFFFFFFFFFFFFFFFFFFFFFFF AND PUSH20 0xFFFFFFFFFFFFFFFFFFFFFFFFFFFFFFFFFFFFFFFF AND PUSH4 0x17D7DE7C PUSH1 0x40 MLOAD DUP2 PUSH4 0xFFFFFFFF AND PUSH1 0xE0 SHL DUP2 MSTORE PUSH1 0x4 ADD PUSH1 0x0 PUSH1 0x40 MLOAD DUP1 DUP4 SUB DUP2 DUP7 DUP1 EXTCODESIZE ISZERO DUP1 ISZERO PUSH2 0xDF JUMPI PUSH1 0x0 DUP1 REVERT JUMPDEST POP GAS STATICCALL ISZERO DUP1 ISZERO PUSH2 0xF3 JUMPI RETURNDATASIZE PUSH1 0x0 DUP1 RETURNDATACOPY RETURNDATASIZE PUSH1 0x0 REVERT JUMPDEST POP POP POP POP PUSH1 0x40 MLOAD RETURNDATASIZE PUSH1 0x0 DUP3 RETURNDATACOPY RETURNDATASIZE PUSH1 0x1F NOT PUSH1 0x1F DUP3 ADD AND DUP3 ADD DUP1 PUSH1 0x40 MSTORE POP DUP2 ADD SWAP1 PUSH2 0x11C SWAP2 SWAP1 PUSH2 0x24C JUMP JUMPDEST SWAP1 POP SWAP1 JUMP JUMPDEST PUSH1 0x0 DUP1 PUSH1 0x0 SWAP1 SLOAD SWAP1 PUSH2 0x100 EXP SWAP1 DIV PUSH20 0xFFFFFFFFFFFFFFFFFFFFFFFFFFFFFFFFFFFFFFFF AND PUSH20 0xFFFFFFFFFFFFFFFFFFFFFFFFFFFFFFFFFFFFFFFF AND PUSH4 0x262A9DFF PUSH1 0x40 MLOAD DUP2 PUSH4 0xFFFFFFFF AND PUSH1 0xE0 SHL DUP2 MSTORE PUSH1 0x4 ADD PUSH1 0x20 PUSH1 0x40 MLOAD DUP1 DUP4 SUB DUP2 DUP7 DUP1 EXTCODESIZE ISZERO DUP1 ISZERO PUSH2 0x18A JUMPI PUSH1 0x0 DUP1 REVERT JUMPDEST POP GAS STATICCALL ISZERO DUP1 ISZERO PUSH2 0x19E JUMPI RETURNDATASIZE PUSH1 0x0 DUP1 RETURNDATACOPY RETURNDATASIZE PUSH1 0x0 REVERT JUMPDEST POP POP POP POP PUSH1 0x40 MLOAD RETURNDATASIZE PUSH1 0x1F NOT PUSH1 0x1F DUP3 ADD AND DUP3 ADD DUP1 PUSH1 0x40 MSTORE POP DUP2 ADD SWAP1 PUSH2 0x1C2 SWAP2 SWAP1 PUSH2 0x295 JUMP JUMPDEST SWAP1 POP SWAP1 JUMP JUMPDEST PUSH1 0x0 PUSH2 0x1DA PUSH2 0x1D5 DUP5 PUSH2 0x36C JUMP JUMPDEST PUSH2 0x347 JUMP JUMPDEST SWAP1 POP DUP3 DUP2 MSTORE PUSH1 0x20 DUP2 ADD DUP5 DUP5 DUP5 ADD GT ISZERO PUSH2 0x1F6 JUMPI PUSH2 0x1F5 PUSH2 0x45B JUMP JUMPDEST JUMPDEST PUSH2 0x201 DUP5 DUP3 DUP6 PUSH2 0x3C3 JUMP JUMPDEST POP SWAP4 SWAP3 POP POP POP JUMP JUMPDEST PUSH1 0x0 DUP3 PUSH1 0x1F DUP4 ADD SLT PUSH2 0x21E JUMPI PUSH2 0x21D PUSH2 0x456 JUMP JUMPDEST JUMPDEST DUP2 MLOAD PUSH2 0x22E DUP5 DUP3 PUSH1 0x20 DUP7 ADD PUSH2 0x1C7 JUMP JUMPDEST SWAP2 POP POP SWAP3 SWAP2 POP POP JUMP JUMPDEST PUSH1 0x0 DUP2 MLOAD SWAP1 POP PUSH2 0x246 DUP2 PUSH2 0x47B JUMP JUMPDEST SWAP3 SWAP2 POP POP JUMP JUMPDEST PUSH1 0x0 PUSH1 0x20 DUP3 DUP5 SUB SLT ISZERO PUSH2 0x262 JUMPI PUSH2 0x261 PUSH2 0x465 JUMP JUMPDEST JUMPDEST PUSH1 0x0 DUP3 ADD MLOAD PUSH8 0xFFFFFFFFFFFFFFFF DUP2 GT ISZERO PUSH2 0x280 JUMPI PUSH2 0x27F PUSH2 0x460 JUMP JUMPDEST JUMPDEST PUSH2 0x28C DUP5 DUP3 DUP6 ADD PUSH2 0x209 JUMP JUMPDEST SWAP2 POP POP SWAP3 SWAP2 POP POP JUMP JUMPDEST PUSH1 0x0 PUSH1 0x20 DUP3 DUP5 SUB SLT ISZERO PUSH2 0x2AB JUMPI PUSH2 0x2AA PUSH2 0x465 JUMP JUMPDEST JUMPDEST PUSH1 0x0 PUSH2 0x2B9 DUP5 DUP3 DUP6 ADD PUSH2 0x237 JUMP JUMPDEST SWAP2 POP POP SWAP3 SWAP2 POP POP JUMP JUMPDEST PUSH1 0x0 PUSH2 0x2CD DUP3 PUSH2 0x39D JUMP JUMPDEST PUSH2 0x2D7 DUP2 DUP6 PUSH2 0x3A8 JUMP JUMPDEST SWAP4 POP PUSH2 0x2E7 DUP2 DUP6 PUSH1 0x20 DUP7 ADD PUSH2 0x3C3 JUMP JUMPDEST PUSH2 0x2F0 DUP2 PUSH2 0x46A JUMP JUMPDEST DUP5 ADD SWAP2 POP POP SWAP3 SWAP2 POP POP JUMP JUMPDEST PUSH2 0x304 DUP2 PUSH2 0x3B9 JUMP JUMPDEST DUP3 MSTORE POP POP JUMP JUMPDEST PUSH1 0x0 PUSH1 0x20 DUP3 ADD SWAP1 POP DUP2 DUP2 SUB PUSH1 0x0 DUP4 ADD MSTORE PUSH2 0x324 DUP2 DUP5 PUSH2 0x2C2 JUMP JUMPDEST SWAP1 POP SWAP3 SWAP2 POP POP JUMP JUMPDEST PUSH1 0x0 PUSH1 0x20 DUP3 ADD SWAP1 POP PUSH2 0x341 PUSH1 0x0 DUP4 ADD DUP5 PUSH2 0x2FB JUMP JUMPDEST SWAP3 SWAP2 POP POP JUMP JUMPDEST PUSH1 0x0 PUSH2 0x351 PUSH2 0x362 JUMP JUMPDEST SWAP1 POP PUSH2 0x35D DUP3 DUP3 PUSH2 0x3F6 JUMP JUMPDEST SWAP2 SWAP1 POP JUMP JUMPDEST PUSH1 0x0 PUSH1 0x40 MLOAD SWAP1 POP SWAP1 JUMP JUMPDEST PUSH1 0x0 PUSH8 0xFFFFFFFFFFFFFFFF DUP3 GT ISZERO PUSH2 0x387 JUMPI PUSH2 0x386 PUSH2 0x427 JUMP JUMPDEST JUMPDEST PUSH2 0x390 DUP3 PUSH2 0x46A JUMP JUMPDEST SWAP1 POP PUSH1 0x20 DUP2 ADD SWAP1 POP SWAP2 SWAP1 POP JUMP JUMPDEST PUSH1 0x0 DUP2 MLOAD SWAP1 POP SWAP2 SWAP1 POP JUMP JUMPDEST PUSH1 0x0 DUP3 DUP3 MSTORE PUSH1 0x20 DUP3 ADD SWAP1 POP SWAP3 SWAP2 POP POP JUMP JUMPDEST PUSH1 0x0 DUP2 SWAP1 POP SWAP2 SWAP1 POP JUMP JUMPDEST PUSH1 0x0 JUMPDEST DUP4 DUP2 LT ISZERO PUSH2 0x3E1 JUMPI DUP1 DUP3 ADD MLOAD DUP2 DUP5 ADD MSTORE PUSH1 0x20 DUP2 ADD SWAP1 POP PUSH2 0x3C6 JUMP JUMPDEST DUP4 DUP2 GT ISZERO PUSH2 0x3F0 JUMPI PUSH1 0x0 DUP5 DUP5 ADD MSTORE JUMPDEST POP POP POP POP JUMP JUMPDEST PUSH2 0x3FF DUP3 PUSH2 0x46A JUMP JUMPDEST DUP2 ADD DUP2 DUP2 LT PUSH8 0xFFFFFFFFFFFFFFFF DUP3 GT OR ISZERO PUSH2 0x41E JUMPI PUSH2 0x41D PUSH2 0x427 JUMP JUMPDEST JUMPDEST DUP1 PUSH1 0x40 MSTORE POP POP POP JUMP JUMPDEST PUSH32 0x4E487B7100000000000000000000000000000000000000000000000000000000 PUSH1 0x0 MSTORE PUSH1 0x41 PUSH1 0x4 MSTORE PUSH1 0x24 PUSH1 0x0 REVERT JUMPDEST PUSH1 0x0 DUP1 REVERT JUMPDEST PUSH1 0x0 DUP1 REVERT JUMPDEST PUSH1 0x0 DUP1 REVERT JUMPDEST PUSH1 0x0 DUP1 REVERT JUMPDEST PUSH1 0x0 PUSH1 0x1F NOT PUSH1 0x1F DUP4 ADD AND SWAP1 POP SWAP2 SWAP1 POP JUMP JUMPDEST PUSH2 0x484 DUP2 PUSH2 0x3B9 JUMP JUMPDEST DUP2 EQ PUSH2 0x48F JUMPI PUSH1 0x0 DUP1 REVERT JUMPDEST POP JUMP INVALID LOG2 PUSH5 0x6970667358 0x22 SLT KECCAK256 SWAP15 EXTCODEHASH PUSH28 0x42C5C15731A7B62D79F55DCD4F7A62087F79EA7BE5E0F7F30640D18B 0x2D PUSH5 0x736F6C6343 STOP ADDMOD SMOD STOP CALLER PUSH1 0x80 PUSH1 0x40 MSTORE PUSH1 0x50 PUSH1 0x0 SSTORE PUSH1 0x40 MLOAD DUP1 PUSH1 0x40 ADD PUSH1 0x40 MSTORE DUP1 PUSH1 0x5 DUP2 MSTORE PUSH1 0x20 ADD PUSH32 0x626964656E000000000000000000000000000000000000000000000000000000 DUP2 MSTORE POP PUSH1 0x1 SWAP1 DUP1 MLOAD SWAP1 PUSH1 0x20 ADD SWAP1 PUSH2 0x54 SWAP3 SWAP2 SWAP1 PUSH2 0x67 JUMP JUMPDEST POP CALLVALUE DUP1 ISZERO PUSH2 0x61 JUMPI PUSH1 0x0 DUP1 REVERT JUMPDEST POP PUSH2 0x16B JUMP JUMPDEST DUP3 DUP1 SLOAD PUSH2 0x73 SWAP1 PUSH2 0x10A JUMP JUMPDEST SWAP1 PUSH1 0x0 MSTORE PUSH1 0x20 PUSH1 0x0 KECCAK256 SWAP1 PUSH1 0x1F ADD PUSH1 0x20 SWAP1 DIV DUP2 ADD SWAP3 DUP3 PUSH2 0x95 JUMPI PUSH1 0x0 DUP6 SSTORE PUSH2 0xDC JUMP JUMPDEST DUP3 PUSH1 0x1F LT PUSH2 0xAE JUMPI DUP1 MLOAD PUSH1 0xFF NOT AND DUP4 DUP1 ADD OR DUP6 SSTORE PUSH2 0xDC JUMP JUMPDEST DUP3 DUP1 ADD PUSH1 0x1 ADD DUP6 SSTORE DUP3 ISZERO PUSH2 0xDC JUMPI SWAP2 DUP3 ADD JUMPDEST DUP3 DUP2 GT ISZERO PUSH2 0xDB JUMPI DUP3 MLOAD DUP3 SSTORE SWAP2 PUSH1 0x20 ADD SWAP2 SWAP1 PUSH1 0x1 ADD SWAP1 PUSH2 0xC0 JUMP JUMPDEST JUMPDEST POP SWAP1 POP PUSH2 0xE9 SWAP2 SWAP1 PUSH2 0xED JUMP JUMPDEST POP SWAP1 JUMP JUMPDEST JUMPDEST DUP1 DUP3 GT ISZERO PUSH2 0x106 JUMPI PUSH1 0x0 DUP2 PUSH1 0x0 SWAP1 SSTORE POP PUSH1 0x1 ADD PUSH2 0xEE JUMP JUMPDEST POP SWAP1 JUMP JUMPDEST PUSH1 0x0 PUSH1 0x2 DUP3 DIV SWAP1 POP PUSH1 0x1 DUP3 AND DUP1 PUSH2 0x122 JUMPI PUSH1 0x7F DUP3 AND SWAP2 POP JUMPDEST PUSH1 0x20 DUP3 LT DUP2 EQ ISZERO PUSH2 0x136 JUMPI PUSH2 0x135 PUSH2 0x13C JUMP JUMPDEST JUMPDEST POP SWAP2 SWAP1 POP JUMP JUMPDEST PUSH32 0x4E487B7100000000000000000000000000000000000000000000000000000000 PUSH1 0x0 MSTORE PUSH1 0x22 PUSH1 0x4 MSTORE PUSH1 0x24 PUSH1 0x0 REVERT JUMPDEST PUSH2 0x295 DUP1 PUSH2 0x17A PUSH1 0x0 CODECOPY PUSH1 0x0 RETURN INVALID PUSH1 0x80 PUSH1 0x40 MSTORE CALLVALUE DUP1 ISZERO PUSH2 0x10 JUMPI PUSH1 0x0 DUP1 REVERT JUMPDEST POP PUSH1 0x4 CALLDATASIZE LT PUSH2 0x36 JUMPI PUSH1 0x0 CALLDATALOAD PUSH1 0xE0 SHR DUP1 PUSH4 0x17D7DE7C EQ PUSH2 0x3B JUMPI DUP1 PUSH4 0x262A9DFF EQ PUSH2 0x59 JUMPI JUMPDEST PUSH1 0x0 DUP1 REVERT JUMPDEST PUSH2 0x43 PUSH2 0x77 JUMP JUMPDEST PUSH1 0x40 MLOAD PUSH2 0x50 SWAP2 SWAP1 PUSH2 0x157 JUMP JUMPDEST PUSH1 0x40 MLOAD DUP1 SWAP2 SUB SWAP1 RETURN JUMPDEST PUSH2 0x61 PUSH2 0x109 JUMP JUMPDEST PUSH1 0x40 MLOAD PUSH2 0x6E SWAP2 SWAP1 PUSH2 0x179 JUMP JUMPDEST PUSH1 0x40 MLOAD DUP1 SWAP2 SUB SWAP1 RETURN JUMPDEST PUSH1 0x60 PUSH1 0x1 DUP1 SLOAD PUSH2 0x86 SWAP1 PUSH2 0x1ED JUMP JUMPDEST DUP1 PUSH1 0x1F ADD PUSH1 0x20 DUP1 SWAP2 DIV MUL PUSH1 0x20 ADD PUSH1 0x40 MLOAD SWAP1 DUP2 ADD PUSH1 0x40 MSTORE DUP1 SWAP3 SWAP2 SWAP1 DUP2 DUP2 MSTORE PUSH1 0x20 ADD DUP3 DUP1 SLOAD PUSH2 0xB2 SWAP1 PUSH2 0x1ED JUMP JUMPDEST DUP1 ISZERO PUSH2 0xFF JUMPI DUP1 PUSH1 0x1F LT PUSH2 0xD4 JUMPI PUSH2 0x100 DUP1 DUP4 SLOAD DIV MUL DUP4 MSTORE SWAP2 PUSH1 0x20 ADD SWAP2 PUSH2 0xFF JUMP JUMPDEST DUP3 ADD SWAP2 SWAP1 PUSH1 0x0 MSTORE PUSH1 0x20 PUSH1 0x0 KECCAK256 SWAP1 JUMPDEST DUP2 SLOAD DUP2 MSTORE SWAP1 PUSH1 0x1 ADD SWAP1 PUSH1 0x20 ADD DUP1 DUP4 GT PUSH2 0xE2 JUMPI DUP3 SWAP1 SUB PUSH1 0x1F AND DUP3 ADD SWAP2 JUMPDEST POP POP POP POP POP SWAP1 POP SWAP1 JUMP JUMPDEST PUSH1 0x0 SLOAD DUP2 JUMP JUMPDEST PUSH1 0x0 PUSH2 0x11A DUP3 PUSH2 0x194 JUMP JUMPDEST PUSH2 0x124 DUP2 DUP6 PUSH2 0x19F JUMP JUMPDEST SWAP4 POP PUSH2 0x134 DUP2 DUP6 PUSH1 0x20 DUP7 ADD PUSH2 0x1BA JUMP JUMPDEST PUSH2 0x13D DUP2 PUSH2 0x24E JUMP JUMPDEST DUP5 ADD SWAP2 POP POP SWAP3 SWAP2 POP POP JUMP JUMPDEST PUSH2 0x151 DUP2 PUSH2 0x1B0 JUMP JUMPDEST DUP3 MSTORE POP POP JUMP JUMPDEST PUSH1 0x0 PUSH1 0x20 DUP3 ADD SWAP1 POP DUP2 DUP2 SUB PUSH1 0x0 DUP4 ADD MSTORE PUSH2 0x171 DUP2 DUP5 PUSH2 0x10F JUMP JUMPDEST SWAP1 POP SWAP3 SWAP2 POP POP JUMP JUMPDEST PUSH1 0x0 PUSH1 0x20 DUP3 ADD SWAP1 POP PUSH2 0x18E PUSH1 0x0 DUP4 ADD DUP5 PUSH2 0x148 JUMP JUMPDEST SWAP3 SWAP2 POP POP JUMP JUMPDEST PUSH1 0x0 DUP2 MLOAD SWAP1 POP SWAP2 SWAP1 POP JUMP JUMPDEST PUSH1 0x0 DUP3 DUP3 MSTORE PUSH1 0x20 DUP3 ADD SWAP1 POP SWAP3 SWAP2 POP POP JUMP JUMPDEST PUSH1 0x0 DUP2 SWAP1 POP SWAP2 SWAP1 POP JUMP JUMPDEST PUSH1 0x0 JUMPDEST DUP4 DUP2 LT ISZERO PUSH2 0x1D8 JUMPI DUP1 DUP3 ADD MLOAD DUP2 DUP5 ADD MSTORE PUSH1 0x20 DUP2 ADD SWAP1 POP PUSH2 0x1BD JUMP JUMPDEST DUP4 DUP2 GT ISZERO PUSH2 0x1E7 JUMPI PUSH1 0x0 DUP5 DUP5 ADD MSTORE JUMPDEST POP POP POP POP JUMP JUMPDEST PUSH1 0x0 PUSH1 0x2 DUP3 DIV SWAP1 POP PUSH1 0x1 DUP3 AND DUP1 PUSH2 0x205 JUMPI PUSH1 0x7F DUP3 AND SWAP2 POP JUMPDEST PUSH1 0x20 DUP3 LT DUP2 EQ ISZERO PUSH2 0x219 JUMPI PUSH2 0x218 PUSH2 0x21F JUMP JUMPDEST JUMPDEST POP SWAP2 SWAP1 POP JUMP JUMPDEST PUSH32 0x4E487B7100000000000000000000000000000000000000000000000000000000 PUSH1 0x0 MSTORE PUSH1 0x22 PUSH1 0x4 MSTORE PUSH1 0x24 PUSH1 0x0 REVERT JUMPDEST PUSH1 0x0 PUSH1 0x1F NOT PUSH1 0x1F DUP4 ADD AND SWAP1 POP SWAP2 SWAP1 POP JUMP INVALID LOG2 PUSH5 0x6970667358 0x22 SLT KECCAK256 PUSH18 0xBBD5CCD6EE2E334020492F9597ED9539C988 EXTCODEHASH PUSH12 0x4AA9A771A07A72B675A1B964 PUSH20 0x6F6C634300080700330000000000000000000000 "
				},
				"gasEstimates": {
					"creation": {
						"codeDepositCost": "244800",
						"executionCost": "infinite",
						"totalCost": "infinite"
					},
					"external": {
						"getAge()": "infinite",
						"getName()": "infinite"
					}
				},
				"methodIdentifiers": {
					"getAge()": "967e6e65",
					"getName()": "17d7de7c"
				}
			},
			"storageLayout": {
				"storage": [
					{
						"astId": 26,
						"contract": "contracts/15_Import2.sol:ImportExample2",
						"label": "ie1",
						"offset": 0,
						"slot": "0",
						"type": "t_contract(ImportExample1)16"
					}
				],
				"types": {
					"t_contract(ImportExample1)16": {
						"encoding": "inplace",
						"label": "contract ImportExample1",
						"numberOfBytes": "20"
					}
				}
			},
			"userdoc": {
				"kind": "user",
				"methods": {},
				"version": 1
			}
		}
	}
}