{
	"contracts/11_CallContract.sol": {
		"Caller": {
			"abi": [
				{
					"inputs": [],
					"stateMutability": "nonpayable",
					"type": "constructor"
				},
				{
					"anonymous": false,
					"inputs": [
						{
							"indexed": false,
							"internalType": "bool",
							"name": "success",
							"type": "bool"
						},
						{
							"indexed": false,
							"internalType": "bytes",
							"name": "data",
							"type": "bytes"
						}
					],
					"name": "Response",
					"type": "event"
				},
				{
					"inputs": [],
					"name": "getAddress",
					"outputs": [
						{
							"internalType": "address",
							"name": "",
							"type": "address"
						}
					],
					"stateMutability": "view",
					"type": "function"
				},
				{
					"inputs": [],
					"name": "getBalance",
					"outputs": [
						{
							"internalType": "uint256",
							"name": "",
							"type": "uint256"
						}
					],
					"stateMutability": "view",
					"type": "function"
				},
				{
					"inputs": [
						{
							"internalType": "address payable",
							"name": "_addr",
							"type": "address"
						}
					],
					"name": "testCall",
					"outputs": [],
					"stateMutability": "payable",
					"type": "function"
				}
			],
			"devdoc": {
				"kind": "dev",
				"methods": {},
				"version": 1
			},
			"evm": {
				"assembly": "    /* \"contracts/11_CallContract.sol\":693:1231  contract Caller{... */\n  mstore(0x40, 0x80)\n    /* \"contracts/11_CallContract.sol\":738:793  constructor(){... */\n  callvalue\n  dup1\n  iszero\n  tag_1\n  jumpi\n  0x00\n  dup1\n  revert\ntag_1:\n  pop\n    /* \"contracts/11_CallContract.sol\":772:786  new Receiver() */\n  mload(0x40)\n  tag_4\n  swap1\n  tag_5\n  jump\t// in\ntag_4:\n  mload(0x40)\n  dup1\n  swap2\n  sub\n  swap1\n  0x00\n  create\n  dup1\n  iszero\n  dup1\n  iszero\n  tag_6\n  jumpi\n  returndatasize\n  0x00\n  dup1\n  returndatacopy\n  revert(0x00, returndatasize)\ntag_6:\n  pop\n    /* \"contracts/11_CallContract.sol\":761:769  receiver */\n  0x00\n  dup1\n    /* \"contracts/11_CallContract.sol\":761:786  receiver = new Receiver() */\n  0x0100\n  exp\n  dup2\n  sload\n  dup2\n  0xffffffffffffffffffffffffffffffffffffffff\n  mul\n  not\n  and\n  swap1\n  dup4\n  0xffffffffffffffffffffffffffffffffffffffff\n  and\n  mul\n  or\n  swap1\n  sstore\n  pop\n    /* \"contracts/11_CallContract.sol\":693:1231  contract Caller{... */\n  jump(tag_7)\ntag_5:\n  dataSize(sub_1)\n  dup1\n  dataOffset(sub_1)\n  dup4\n  codecopy\n  add\n  swap1\n  jump\t// out\ntag_7:\n  dataSize(sub_0)\n  dup1\n  dataOffset(sub_0)\n  0x00\n  codecopy\n  0x00\n  return\nstop\n\nsub_0: assembly {\n        /* \"contracts/11_CallContract.sol\":693:1231  contract Caller{... */\n      mstore(0x40, 0x80)\n      jumpi(tag_1, lt(calldatasize, 0x04))\n      shr(0xe0, calldataload(0x00))\n      dup1\n      0x12065fe0\n      eq\n      tag_2\n      jumpi\n      dup1\n      0x38cc4831\n      eq\n      tag_3\n      jumpi\n      dup1\n      0x9fc78a19\n      eq\n      tag_4\n      jumpi\n    tag_1:\n      0x00\n      dup1\n      revert\n        /* \"contracts/11_CallContract.sol\":1137:1229  function getBalance() public view returns(uint){... */\n    tag_2:\n      callvalue\n      dup1\n      iszero\n      tag_5\n      jumpi\n      0x00\n      dup1\n      revert\n    tag_5:\n      pop\n      tag_6\n      tag_7\n      jump\t// in\n    tag_6:\n      mload(0x40)\n      tag_8\n      swap2\n      swap1\n      tag_9\n      jump\t// in\n    tag_8:\n      mload(0x40)\n      dup1\n      swap2\n      sub\n      swap1\n      return\n        /* \"contracts/11_CallContract.sol\":1036:1131  function getAddress() public view returns(address){... */\n    tag_3:\n      callvalue\n      dup1\n      iszero\n      tag_10\n      jumpi\n      0x00\n      dup1\n      revert\n    tag_10:\n      pop\n      tag_11\n      tag_12\n      jump\t// in\n    tag_11:\n      mload(0x40)\n      tag_13\n      swap2\n      swap1\n      tag_14\n      jump\t// in\n    tag_13:\n      mload(0x40)\n      dup1\n      swap2\n      sub\n      swap1\n      return\n        /* \"contracts/11_CallContract.sol\":846:1025  function testCall(address payable _addr) public payable{... */\n    tag_4:\n      tag_15\n      0x04\n      dup1\n      calldatasize\n      sub\n      dup2\n      add\n      swap1\n      tag_16\n      swap2\n      swap1\n      tag_17\n      jump\t// in\n    tag_16:\n      tag_18\n      jump\t// in\n    tag_15:\n      stop\n        /* \"contracts/11_CallContract.sol\":1137:1229  function getBalance() public view returns(uint){... */\n    tag_7:\n        /* \"contracts/11_CallContract.sol\":1179:1183  uint */\n      0x00\n        /* \"contracts/11_CallContract.sol\":1201:1209  receiver */\n      dup1\n      0x00\n      swap1\n      sload\n      swap1\n      0x0100\n      exp\n      swap1\n      div\n      0xffffffffffffffffffffffffffffffffffffffff\n      and\n        /* \"contracts/11_CallContract.sol\":1201:1220  receiver.getBalance */\n      0xffffffffffffffffffffffffffffffffffffffff\n      and\n      0x12065fe0\n        /* \"contracts/11_CallContract.sol\":1201:1222  receiver.getBalance() */\n      mload(0x40)\n      dup2\n      0xffffffff\n      and\n      0xe0\n      shl\n      dup2\n      mstore\n      0x04\n      add\n      0x20\n      mload(0x40)\n      dup1\n      dup4\n      sub\n      dup2\n      dup7\n      dup1\n      extcodesize\n      iszero\n      dup1\n      iszero\n      tag_20\n      jumpi\n      0x00\n      dup1\n      revert\n    tag_20:\n      pop\n      gas\n      staticcall\n      iszero\n      dup1\n      iszero\n      tag_22\n      jumpi\n      returndatasize\n      0x00\n      dup1\n      returndatacopy\n      revert(0x00, returndatasize)\n    tag_22:\n      pop\n      pop\n      pop\n      pop\n      mload(0x40)\n      returndatasize\n      not(0x1f)\n      0x1f\n      dup3\n      add\n      and\n      dup3\n      add\n      dup1\n      0x40\n      mstore\n      pop\n      dup2\n      add\n      swap1\n      tag_23\n      swap2\n      swap1\n      tag_24\n      jump\t// in\n    tag_23:\n        /* \"contracts/11_CallContract.sol\":1194:1222  return receiver.getBalance() */\n      swap1\n      pop\n        /* \"contracts/11_CallContract.sol\":1137:1229  function getBalance() public view returns(uint){... */\n      swap1\n      jump\t// out\n        /* \"contracts/11_CallContract.sol\":1036:1131  function getAddress() public view returns(address){... */\n    tag_12:\n        /* \"contracts/11_CallContract.sol\":1078:1085  address */\n      0x00\n        /* \"contracts/11_CallContract.sol\":1103:1111  receiver */\n      dup1\n      0x00\n      swap1\n      sload\n      swap1\n      0x0100\n      exp\n      swap1\n      div\n      0xffffffffffffffffffffffffffffffffffffffff\n      and\n        /* \"contracts/11_CallContract.sol\":1103:1122  receiver.getAddress */\n      0xffffffffffffffffffffffffffffffffffffffff\n      and\n      0x38cc4831\n        /* \"contracts/11_CallContract.sol\":1103:1124  receiver.getAddress() */\n      mload(0x40)\n      dup2\n      0xffffffff\n      and\n      0xe0\n      shl\n      dup2\n      mstore\n      0x04\n      add\n      0x20\n      mload(0x40)\n      dup1\n      dup4\n      sub\n      dup2\n      dup7\n      dup1\n      extcodesize\n      iszero\n      dup1\n      iszero\n      tag_26\n      jumpi\n      0x00\n      dup1\n      revert\n    tag_26:\n      pop\n      gas\n      staticcall\n      iszero\n      dup1\n      iszero\n      tag_28\n      jumpi\n      returndatasize\n      0x00\n      dup1\n      returndatacopy\n      revert(0x00, returndatasize)\n    tag_28:\n      pop\n      pop\n      pop\n      pop\n      mload(0x40)\n      returndatasize\n      not(0x1f)\n      0x1f\n      dup3\n      add\n      and\n      dup3\n      add\n      dup1\n      0x40\n      mstore\n      pop\n      dup2\n      add\n      swap1\n      tag_29\n      swap2\n      swap1\n      tag_30\n      jump\t// in\n    tag_29:\n        /* \"contracts/11_CallContract.sol\":1096:1124  return receiver.getAddress() */\n      swap1\n      pop\n        /* \"contracts/11_CallContract.sol\":1036:1131  function getAddress() public view returns(address){... */\n      swap1\n      jump\t// out\n        /* \"contracts/11_CallContract.sol\":846:1025  function testCall(address payable _addr) public payable{... */\n    tag_18:\n        /* \"contracts/11_CallContract.sol\":912:924  bool success */\n      0x00\n        /* \"contracts/11_CallContract.sol\":926:943  bytes memory data */\n      dup1\n        /* \"contracts/11_CallContract.sol\":947:952  _addr */\n      dup3\n        /* \"contracts/11_CallContract.sol\":947:957  _addr.call */\n      0xffffffffffffffffffffffffffffffffffffffff\n      and\n        /* \"contracts/11_CallContract.sol\":964:973  msg.value */\n      callvalue\n        /* \"contracts/11_CallContract.sol\":947:981  _addr.call{value:msg.value}(\"abc\") */\n      mload(0x40)\n      tag_32\n      swap1\n      tag_33\n      jump\t// in\n    tag_32:\n      0x00\n      mload(0x40)\n      dup1\n      dup4\n      sub\n      dup2\n      dup6\n      dup8\n      gas\n      call\n      swap3\n      pop\n      pop\n      pop\n      returndatasize\n      dup1\n      0x00\n      dup2\n      eq\n      tag_36\n      jumpi\n      mload(0x40)\n      swap2\n      pop\n      and(add(returndatasize, 0x3f), not(0x1f))\n      dup3\n      add\n      0x40\n      mstore\n      returndatasize\n      dup3\n      mstore\n      returndatasize\n      0x00\n      0x20\n      dup5\n      add\n      returndatacopy\n      jump(tag_35)\n    tag_36:\n      0x60\n      swap2\n      pop\n    tag_35:\n      pop\n        /* \"contracts/11_CallContract.sol\":911:981  (bool success, bytes memory data) = _addr.call{value:msg.value}(\"abc\") */\n      swap2\n      pop\n      swap2\n      pop\n        /* \"contracts/11_CallContract.sol\":996:1018  Response(success,data) */\n      0x13848c3e38f8886f3f5d2ad9dff80d8092c2bbb8efd5b887a99c2c6cfc09ac2a\n        /* \"contracts/11_CallContract.sol\":1005:1012  success */\n      dup3\n        /* \"contracts/11_CallContract.sol\":1013:1017  data */\n      dup3\n        /* \"contracts/11_CallContract.sol\":996:1018  Response(success,data) */\n      mload(0x40)\n      tag_37\n      swap3\n      swap2\n      swap1\n      tag_38\n      jump\t// in\n    tag_37:\n      mload(0x40)\n      dup1\n      swap2\n      sub\n      swap1\n      log1\n        /* \"contracts/11_CallContract.sol\":901:1025  {... */\n      pop\n      pop\n        /* \"contracts/11_CallContract.sol\":846:1025  function testCall(address payable _addr) public payable{... */\n      pop\n      jump\t// out\n        /* \"#utility.yul\":7:150   */\n    tag_40:\n        /* \"#utility.yul\":64:69   */\n      0x00\n        /* \"#utility.yul\":95:101   */\n      dup2\n        /* \"#utility.yul\":89:102   */\n      mload\n        /* \"#utility.yul\":80:102   */\n      swap1\n      pop\n        /* \"#utility.yul\":111:144   */\n      tag_42\n        /* \"#utility.yul\":138:143   */\n      dup2\n        /* \"#utility.yul\":111:144   */\n      tag_43\n      jump\t// in\n    tag_42:\n        /* \"#utility.yul\":7:150   */\n      swap3\n      swap2\n      pop\n      pop\n      jump\t// out\n        /* \"#utility.yul\":156:311   */\n    tag_44:\n        /* \"#utility.yul\":210:215   */\n      0x00\n        /* \"#utility.yul\":248:254   */\n      dup2\n        /* \"#utility.yul\":235:255   */\n      calldataload\n        /* \"#utility.yul\":226:255   */\n      swap1\n      pop\n        /* \"#utility.yul\":264:305   */\n      tag_46\n        /* \"#utility.yul\":299:304   */\n      dup2\n        /* \"#utility.yul\":264:305   */\n      tag_47\n      jump\t// in\n    tag_46:\n        /* \"#utility.yul\":156:311   */\n      swap3\n      swap2\n      pop\n      pop\n      jump\t// out\n        /* \"#utility.yul\":317:460   */\n    tag_48:\n        /* \"#utility.yul\":374:379   */\n      0x00\n        /* \"#utility.yul\":405:411   */\n      dup2\n        /* \"#utility.yul\":399:412   */\n      mload\n        /* \"#utility.yul\":390:412   */\n      swap1\n      pop\n        /* \"#utility.yul\":421:454   */\n      tag_50\n        /* \"#utility.yul\":448:453   */\n      dup2\n        /* \"#utility.yul\":421:454   */\n      tag_51\n      jump\t// in\n    tag_50:\n        /* \"#utility.yul\":317:460   */\n      swap3\n      swap2\n      pop\n      pop\n      jump\t// out\n        /* \"#utility.yul\":466:817   */\n    tag_30:\n        /* \"#utility.yul\":536:542   */\n      0x00\n        /* \"#utility.yul\":585:587   */\n      0x20\n        /* \"#utility.yul\":573:582   */\n      dup3\n        /* \"#utility.yul\":564:571   */\n      dup5\n        /* \"#utility.yul\":560:583   */\n      sub\n        /* \"#utility.yul\":556:588   */\n      slt\n        /* \"#utility.yul\":553:672   */\n      iszero\n      tag_53\n      jumpi\n        /* \"#utility.yul\":591:670   */\n      tag_54\n      tag_55\n      jump\t// in\n    tag_54:\n        /* \"#utility.yul\":553:672   */\n    tag_53:\n        /* \"#utility.yul\":711:712   */\n      0x00\n        /* \"#utility.yul\":736:800   */\n      tag_56\n        /* \"#utility.yul\":792:799   */\n      dup5\n        /* \"#utility.yul\":783:789   */\n      dup3\n        /* \"#utility.yul\":772:781   */\n      dup6\n        /* \"#utility.yul\":768:790   */\n      add\n        /* \"#utility.yul\":736:800   */\n      tag_40\n      jump\t// in\n    tag_56:\n        /* \"#utility.yul\":726:800   */\n      swap2\n      pop\n        /* \"#utility.yul\":682:810   */\n      pop\n        /* \"#utility.yul\":466:817   */\n      swap3\n      swap2\n      pop\n      pop\n      jump\t// out\n        /* \"#utility.yul\":823:1168   */\n    tag_17:\n        /* \"#utility.yul\":890:896   */\n      0x00\n        /* \"#utility.yul\":939:941   */\n      0x20\n        /* \"#utility.yul\":927:936   */\n      dup3\n        /* \"#utility.yul\":918:925   */\n      dup5\n        /* \"#utility.yul\":914:937   */\n      sub\n        /* \"#utility.yul\":910:942   */\n      slt\n        /* \"#utility.yul\":907:1026   */\n      iszero\n      tag_58\n      jumpi\n        /* \"#utility.yul\":945:1024   */\n      tag_59\n      tag_55\n      jump\t// in\n    tag_59:\n        /* \"#utility.yul\":907:1026   */\n    tag_58:\n        /* \"#utility.yul\":1065:1066   */\n      0x00\n        /* \"#utility.yul\":1090:1151   */\n      tag_60\n        /* \"#utility.yul\":1143:1150   */\n      dup5\n        /* \"#utility.yul\":1134:1140   */\n      dup3\n        /* \"#utility.yul\":1123:1132   */\n      dup6\n        /* \"#utility.yul\":1119:1141   */\n      add\n        /* \"#utility.yul\":1090:1151   */\n      tag_44\n      jump\t// in\n    tag_60:\n        /* \"#utility.yul\":1080:1151   */\n      swap2\n      pop\n        /* \"#utility.yul\":1036:1161   */\n      pop\n        /* \"#utility.yul\":823:1168   */\n      swap3\n      swap2\n      pop\n      pop\n      jump\t// out\n        /* \"#utility.yul\":1174:1525   */\n    tag_24:\n        /* \"#utility.yul\":1244:1250   */\n      0x00\n        /* \"#utility.yul\":1293:1295   */\n      0x20\n        /* \"#utility.yul\":1281:1290   */\n      dup3\n        /* \"#utility.yul\":1272:1279   */\n      dup5\n        /* \"#utility.yul\":1268:1291   */\n      sub\n        /* \"#utility.yul\":1264:1296   */\n      slt\n        /* \"#utility.yul\":1261:1380   */\n      iszero\n      tag_62\n      jumpi\n        /* \"#utility.yul\":1299:1378   */\n      tag_63\n      tag_55\n      jump\t// in\n    tag_63:\n        /* \"#utility.yul\":1261:1380   */\n    tag_62:\n        /* \"#utility.yul\":1419:1420   */\n      0x00\n        /* \"#utility.yul\":1444:1508   */\n      tag_64\n        /* \"#utility.yul\":1500:1507   */\n      dup5\n        /* \"#utility.yul\":1491:1497   */\n      dup3\n        /* \"#utility.yul\":1480:1489   */\n      dup6\n        /* \"#utility.yul\":1476:1498   */\n      add\n        /* \"#utility.yul\":1444:1508   */\n      tag_48\n      jump\t// in\n    tag_64:\n        /* \"#utility.yul\":1434:1508   */\n      swap2\n      pop\n        /* \"#utility.yul\":1390:1518   */\n      pop\n        /* \"#utility.yul\":1174:1525   */\n      swap3\n      swap2\n      pop\n      pop\n      jump\t// out\n        /* \"#utility.yul\":1531:1649   */\n    tag_65:\n        /* \"#utility.yul\":1618:1642   */\n      tag_67\n        /* \"#utility.yul\":1636:1641   */\n      dup2\n        /* \"#utility.yul\":1618:1642   */\n      tag_68\n      jump\t// in\n    tag_67:\n        /* \"#utility.yul\":1613:1616   */\n      dup3\n        /* \"#utility.yul\":1606:1643   */\n      mstore\n        /* \"#utility.yul\":1531:1649   */\n      pop\n      pop\n      jump\t// out\n        /* \"#utility.yul\":1655:1764   */\n    tag_69:\n        /* \"#utility.yul\":1736:1757   */\n      tag_71\n        /* \"#utility.yul\":1751:1756   */\n      dup2\n        /* \"#utility.yul\":1736:1757   */\n      tag_72\n      jump\t// in\n    tag_71:\n        /* \"#utility.yul\":1731:1734   */\n      dup3\n        /* \"#utility.yul\":1724:1758   */\n      mstore\n        /* \"#utility.yul\":1655:1764   */\n      pop\n      pop\n      jump\t// out\n        /* \"#utility.yul\":1770:2130   */\n    tag_73:\n        /* \"#utility.yul\":1856:1859   */\n      0x00\n        /* \"#utility.yul\":1884:1922   */\n      tag_75\n        /* \"#utility.yul\":1916:1921   */\n      dup3\n        /* \"#utility.yul\":1884:1922   */\n      tag_76\n      jump\t// in\n    tag_75:\n        /* \"#utility.yul\":1938:2008   */\n      tag_77\n        /* \"#utility.yul\":2001:2007   */\n      dup2\n        /* \"#utility.yul\":1996:1999   */\n      dup6\n        /* \"#utility.yul\":1938:2008   */\n      tag_78\n      jump\t// in\n    tag_77:\n        /* \"#utility.yul\":1931:2008   */\n      swap4\n      pop\n        /* \"#utility.yul\":2017:2069   */\n      tag_79\n        /* \"#utility.yul\":2062:2068   */\n      dup2\n        /* \"#utility.yul\":2057:2060   */\n      dup6\n        /* \"#utility.yul\":2050:2054   */\n      0x20\n        /* \"#utility.yul\":2043:2048   */\n      dup7\n        /* \"#utility.yul\":2039:2055   */\n      add\n        /* \"#utility.yul\":2017:2069   */\n      tag_80\n      jump\t// in\n    tag_79:\n        /* \"#utility.yul\":2094:2123   */\n      tag_81\n        /* \"#utility.yul\":2116:2122   */\n      dup2\n        /* \"#utility.yul\":2094:2123   */\n      tag_82\n      jump\t// in\n    tag_81:\n        /* \"#utility.yul\":2089:2092   */\n      dup5\n        /* \"#utility.yul\":2085:2124   */\n      add\n        /* \"#utility.yul\":2078:2124   */\n      swap2\n      pop\n        /* \"#utility.yul\":1860:2130   */\n      pop\n        /* \"#utility.yul\":1770:2130   */\n      swap3\n      swap2\n      pop\n      pop\n      jump\t// out\n        /* \"#utility.yul\":2136:2534   */\n    tag_83:\n        /* \"#utility.yul\":2295:2298   */\n      0x00\n        /* \"#utility.yul\":2316:2399   */\n      tag_85\n        /* \"#utility.yul\":2397:2398   */\n      0x03\n        /* \"#utility.yul\":2392:2395   */\n      dup4\n        /* \"#utility.yul\":2316:2399   */\n      tag_86\n      jump\t// in\n    tag_85:\n        /* \"#utility.yul\":2309:2399   */\n      swap2\n      pop\n        /* \"#utility.yul\":2408:2501   */\n      tag_87\n        /* \"#utility.yul\":2497:2500   */\n      dup3\n        /* \"#utility.yul\":2408:2501   */\n      tag_88\n      jump\t// in\n    tag_87:\n        /* \"#utility.yul\":2526:2527   */\n      0x03\n        /* \"#utility.yul\":2521:2524   */\n      dup3\n        /* \"#utility.yul\":2517:2528   */\n      add\n        /* \"#utility.yul\":2510:2528   */\n      swap1\n      pop\n        /* \"#utility.yul\":2136:2534   */\n      swap2\n      swap1\n      pop\n      jump\t// out\n        /* \"#utility.yul\":2540:2658   */\n    tag_89:\n        /* \"#utility.yul\":2627:2651   */\n      tag_91\n        /* \"#utility.yul\":2645:2650   */\n      dup2\n        /* \"#utility.yul\":2627:2651   */\n      tag_92\n      jump\t// in\n    tag_91:\n        /* \"#utility.yul\":2622:2625   */\n      dup3\n        /* \"#utility.yul\":2615:2652   */\n      mstore\n        /* \"#utility.yul\":2540:2658   */\n      pop\n      pop\n      jump\t// out\n        /* \"#utility.yul\":2664:3043   */\n    tag_33:\n        /* \"#utility.yul\":2848:2851   */\n      0x00\n        /* \"#utility.yul\":2870:3017   */\n      tag_94\n        /* \"#utility.yul\":3013:3016   */\n      dup3\n        /* \"#utility.yul\":2870:3017   */\n      tag_83\n      jump\t// in\n    tag_94:\n        /* \"#utility.yul\":2863:3017   */\n      swap2\n      pop\n        /* \"#utility.yul\":3034:3037   */\n      dup2\n        /* \"#utility.yul\":3027:3037   */\n      swap1\n      pop\n        /* \"#utility.yul\":2664:3043   */\n      swap2\n      swap1\n      pop\n      jump\t// out\n        /* \"#utility.yul\":3049:3271   */\n    tag_14:\n        /* \"#utility.yul\":3142:3146   */\n      0x00\n        /* \"#utility.yul\":3180:3182   */\n      0x20\n        /* \"#utility.yul\":3169:3178   */\n      dup3\n        /* \"#utility.yul\":3165:3183   */\n      add\n        /* \"#utility.yul\":3157:3183   */\n      swap1\n      pop\n        /* \"#utility.yul\":3193:3264   */\n      tag_96\n        /* \"#utility.yul\":3261:3262   */\n      0x00\n        /* \"#utility.yul\":3250:3259   */\n      dup4\n        /* \"#utility.yul\":3246:3263   */\n      add\n        /* \"#utility.yul\":3237:3243   */\n      dup5\n        /* \"#utility.yul\":3193:3264   */\n      tag_65\n      jump\t// in\n    tag_96:\n        /* \"#utility.yul\":3049:3271   */\n      swap3\n      swap2\n      pop\n      pop\n      jump\t// out\n        /* \"#utility.yul\":3277:3684   */\n    tag_38:\n        /* \"#utility.yul\":3410:3414   */\n      0x00\n        /* \"#utility.yul\":3448:3450   */\n      0x40\n        /* \"#utility.yul\":3437:3446   */\n      dup3\n        /* \"#utility.yul\":3433:3451   */\n      add\n        /* \"#utility.yul\":3425:3451   */\n      swap1\n      pop\n        /* \"#utility.yul\":3461:3526   */\n      tag_98\n        /* \"#utility.yul\":3523:3524   */\n      0x00\n        /* \"#utility.yul\":3512:3521   */\n      dup4\n        /* \"#utility.yul\":3508:3525   */\n      add\n        /* \"#utility.yul\":3499:3505   */\n      dup6\n        /* \"#utility.yul\":3461:3526   */\n      tag_69\n      jump\t// in\n    tag_98:\n        /* \"#utility.yul\":3573:3582   */\n      dup2\n        /* \"#utility.yul\":3567:3571   */\n      dup2\n        /* \"#utility.yul\":3563:3583   */\n      sub\n        /* \"#utility.yul\":3558:3560   */\n      0x20\n        /* \"#utility.yul\":3547:3556   */\n      dup4\n        /* \"#utility.yul\":3543:3561   */\n      add\n        /* \"#utility.yul\":3536:3584   */\n      mstore\n        /* \"#utility.yul\":3601:3677   */\n      tag_99\n        /* \"#utility.yul\":3672:3676   */\n      dup2\n        /* \"#utility.yul\":3663:3669   */\n      dup5\n        /* \"#utility.yul\":3601:3677   */\n      tag_73\n      jump\t// in\n    tag_99:\n        /* \"#utility.yul\":3593:3677   */\n      swap1\n      pop\n        /* \"#utility.yul\":3277:3684   */\n      swap4\n      swap3\n      pop\n      pop\n      pop\n      jump\t// out\n        /* \"#utility.yul\":3690:3912   */\n    tag_9:\n        /* \"#utility.yul\":3783:3787   */\n      0x00\n        /* \"#utility.yul\":3821:3823   */\n      0x20\n        /* \"#utility.yul\":3810:3819   */\n      dup3\n        /* \"#utility.yul\":3806:3824   */\n      add\n        /* \"#utility.yul\":3798:3824   */\n      swap1\n      pop\n        /* \"#utility.yul\":3834:3905   */\n      tag_101\n        /* \"#utility.yul\":3902:3903   */\n      0x00\n        /* \"#utility.yul\":3891:3900   */\n      dup4\n        /* \"#utility.yul\":3887:3904   */\n      add\n        /* \"#utility.yul\":3878:3884   */\n      dup5\n        /* \"#utility.yul\":3834:3905   */\n      tag_89\n      jump\t// in\n    tag_101:\n        /* \"#utility.yul\":3690:3912   */\n      swap3\n      swap2\n      pop\n      pop\n      jump\t// out\n        /* \"#utility.yul\":3999:4097   */\n    tag_76:\n        /* \"#utility.yul\":4050:4056   */\n      0x00\n        /* \"#utility.yul\":4084:4089   */\n      dup2\n        /* \"#utility.yul\":4078:4090   */\n      mload\n        /* \"#utility.yul\":4068:4090   */\n      swap1\n      pop\n        /* \"#utility.yul\":3999:4097   */\n      swap2\n      swap1\n      pop\n      jump\t// out\n        /* \"#utility.yul\":4103:4271   */\n    tag_78:\n        /* \"#utility.yul\":4186:4197   */\n      0x00\n        /* \"#utility.yul\":4220:4226   */\n      dup3\n        /* \"#utility.yul\":4215:4218   */\n      dup3\n        /* \"#utility.yul\":4208:4227   */\n      mstore\n        /* \"#utility.yul\":4260:4264   */\n      0x20\n        /* \"#utility.yul\":4255:4258   */\n      dup3\n        /* \"#utility.yul\":4251:4265   */\n      add\n        /* \"#utility.yul\":4236:4265   */\n      swap1\n      pop\n        /* \"#utility.yul\":4103:4271   */\n      swap3\n      swap2\n      pop\n      pop\n      jump\t// out\n        /* \"#utility.yul\":4277:4424   */\n    tag_86:\n        /* \"#utility.yul\":4378:4389   */\n      0x00\n        /* \"#utility.yul\":4415:4418   */\n      dup2\n        /* \"#utility.yul\":4400:4418   */\n      swap1\n      pop\n        /* \"#utility.yul\":4277:4424   */\n      swap3\n      swap2\n      pop\n      pop\n      jump\t// out\n        /* \"#utility.yul\":4430:4526   */\n    tag_68:\n        /* \"#utility.yul\":4467:4474   */\n      0x00\n        /* \"#utility.yul\":4496:4520   */\n      tag_108\n        /* \"#utility.yul\":4514:4519   */\n      dup3\n        /* \"#utility.yul\":4496:4520   */\n      tag_109\n      jump\t// in\n    tag_108:\n        /* \"#utility.yul\":4485:4520   */\n      swap1\n      pop\n        /* \"#utility.yul\":4430:4526   */\n      swap2\n      swap1\n      pop\n      jump\t// out\n        /* \"#utility.yul\":4532:4636   */\n    tag_110:\n        /* \"#utility.yul\":4577:4584   */\n      0x00\n        /* \"#utility.yul\":4606:4630   */\n      tag_112\n        /* \"#utility.yul\":4624:4629   */\n      dup3\n        /* \"#utility.yul\":4606:4630   */\n      tag_109\n      jump\t// in\n    tag_112:\n        /* \"#utility.yul\":4595:4630   */\n      swap1\n      pop\n        /* \"#utility.yul\":4532:4636   */\n      swap2\n      swap1\n      pop\n      jump\t// out\n        /* \"#utility.yul\":4642:4732   */\n    tag_72:\n        /* \"#utility.yul\":4676:4683   */\n      0x00\n        /* \"#utility.yul\":4719:4724   */\n      dup2\n        /* \"#utility.yul\":4712:4725   */\n      iszero\n        /* \"#utility.yul\":4705:4726   */\n      iszero\n        /* \"#utility.yul\":4694:4726   */\n      swap1\n      pop\n        /* \"#utility.yul\":4642:4732   */\n      swap2\n      swap1\n      pop\n      jump\t// out\n        /* \"#utility.yul\":4738:4864   */\n    tag_109:\n        /* \"#utility.yul\":4775:4782   */\n      0x00\n        /* \"#utility.yul\":4815:4857   */\n      0xffffffffffffffffffffffffffffffffffffffff\n        /* \"#utility.yul\":4808:4813   */\n      dup3\n        /* \"#utility.yul\":4804:4858   */\n      and\n        /* \"#utility.yul\":4793:4858   */\n      swap1\n      pop\n        /* \"#utility.yul\":4738:4864   */\n      swap2\n      swap1\n      pop\n      jump\t// out\n        /* \"#utility.yul\":4870:4947   */\n    tag_92:\n        /* \"#utility.yul\":4907:4914   */\n      0x00\n        /* \"#utility.yul\":4936:4941   */\n      dup2\n        /* \"#utility.yul\":4925:4941   */\n      swap1\n      pop\n        /* \"#utility.yul\":4870:4947   */\n      swap2\n      swap1\n      pop\n      jump\t// out\n        /* \"#utility.yul\":4953:5260   */\n    tag_80:\n        /* \"#utility.yul\":5021:5022   */\n      0x00\n        /* \"#utility.yul\":5031:5144   */\n    tag_117:\n        /* \"#utility.yul\":5045:5051   */\n      dup4\n        /* \"#utility.yul\":5042:5043   */\n      dup2\n        /* \"#utility.yul\":5039:5052   */\n      lt\n        /* \"#utility.yul\":5031:5144   */\n      iszero\n      tag_119\n      jumpi\n        /* \"#utility.yul\":5130:5131   */\n      dup1\n        /* \"#utility.yul\":5125:5128   */\n      dup3\n        /* \"#utility.yul\":5121:5132   */\n      add\n        /* \"#utility.yul\":5115:5133   */\n      mload\n        /* \"#utility.yul\":5111:5112   */\n      dup2\n        /* \"#utility.yul\":5106:5109   */\n      dup5\n        /* \"#utility.yul\":5102:5113   */\n      add\n        /* \"#utility.yul\":5095:5134   */\n      mstore\n        /* \"#utility.yul\":5067:5069   */\n      0x20\n        /* \"#utility.yul\":5064:5065   */\n      dup2\n        /* \"#utility.yul\":5060:5070   */\n      add\n        /* \"#utility.yul\":5055:5070   */\n      swap1\n      pop\n        /* \"#utility.yul\":5031:5144   */\n      jump(tag_117)\n    tag_119:\n        /* \"#utility.yul\":5162:5168   */\n      dup4\n        /* \"#utility.yul\":5159:5160   */\n      dup2\n        /* \"#utility.yul\":5156:5169   */\n      gt\n        /* \"#utility.yul\":5153:5254   */\n      iszero\n      tag_120\n      jumpi\n        /* \"#utility.yul\":5242:5243   */\n      0x00\n        /* \"#utility.yul\":5233:5239   */\n      dup5\n        /* \"#utility.yul\":5228:5231   */\n      dup5\n        /* \"#utility.yul\":5224:5240   */\n      add\n        /* \"#utility.yul\":5217:5244   */\n      mstore\n        /* \"#utility.yul\":5153:5254   */\n    tag_120:\n        /* \"#utility.yul\":5002:5260   */\n      pop\n        /* \"#utility.yul\":4953:5260   */\n      pop\n      pop\n      pop\n      jump\t// out\n        /* \"#utility.yul\":5389:5506   */\n    tag_55:\n        /* \"#utility.yul\":5498:5499   */\n      0x00\n        /* \"#utility.yul\":5495:5496   */\n      dup1\n        /* \"#utility.yul\":5488:5500   */\n      revert\n        /* \"#utility.yul\":5512:5614   */\n    tag_82:\n        /* \"#utility.yul\":5553:5559   */\n      0x00\n        /* \"#utility.yul\":5604:5606   */\n      0x1f\n        /* \"#utility.yul\":5600:5607   */\n      not\n        /* \"#utility.yul\":5595:5597   */\n      0x1f\n        /* \"#utility.yul\":5588:5593   */\n      dup4\n        /* \"#utility.yul\":5584:5598   */\n      add\n        /* \"#utility.yul\":5580:5608   */\n      and\n        /* \"#utility.yul\":5570:5608   */\n      swap1\n      pop\n        /* \"#utility.yul\":5512:5614   */\n      swap2\n      swap1\n      pop\n      jump\t// out\n        /* \"#utility.yul\":5620:5773   */\n    tag_88:\n        /* \"#utility.yul\":5760:5765   */\n      0x6162630000000000000000000000000000000000000000000000000000000000\n        /* \"#utility.yul\":5756:5757   */\n      0x00\n        /* \"#utility.yul\":5748:5754   */\n      dup3\n        /* \"#utility.yul\":5744:5758   */\n      add\n        /* \"#utility.yul\":5737:5766   */\n      mstore\n        /* \"#utility.yul\":5620:5773   */\n      pop\n      jump\t// out\n        /* \"#utility.yul\":5779:5901   */\n    tag_43:\n        /* \"#utility.yul\":5852:5876   */\n      tag_127\n        /* \"#utility.yul\":5870:5875   */\n      dup2\n        /* \"#utility.yul\":5852:5876   */\n      tag_68\n      jump\t// in\n    tag_127:\n        /* \"#utility.yul\":5845:5850   */\n      dup2\n        /* \"#utility.yul\":5842:5877   */\n      eq\n        /* \"#utility.yul\":5832:5895   */\n      tag_128\n      jumpi\n        /* \"#utility.yul\":5891:5892   */\n      0x00\n        /* \"#utility.yul\":5888:5889   */\n      dup1\n        /* \"#utility.yul\":5881:5893   */\n      revert\n        /* \"#utility.yul\":5832:5895   */\n    tag_128:\n        /* \"#utility.yul\":5779:5901   */\n      pop\n      jump\t// out\n        /* \"#utility.yul\":5907:6045   */\n    tag_47:\n        /* \"#utility.yul\":5988:6020   */\n      tag_130\n        /* \"#utility.yul\":6014:6019   */\n      dup2\n        /* \"#utility.yul\":5988:6020   */\n      tag_110\n      jump\t// in\n    tag_130:\n        /* \"#utility.yul\":5981:5986   */\n      dup2\n        /* \"#utility.yul\":5978:6021   */\n      eq\n        /* \"#utility.yul\":5968:6039   */\n      tag_131\n      jumpi\n        /* \"#utility.yul\":6035:6036   */\n      0x00\n        /* \"#utility.yul\":6032:6033   */\n      dup1\n        /* \"#utility.yul\":6025:6037   */\n      revert\n        /* \"#utility.yul\":5968:6039   */\n    tag_131:\n        /* \"#utility.yul\":5907:6045   */\n      pop\n      jump\t// out\n        /* \"#utility.yul\":6051:6173   */\n    tag_51:\n        /* \"#utility.yul\":6124:6148   */\n      tag_133\n        /* \"#utility.yul\":6142:6147   */\n      dup2\n        /* \"#utility.yul\":6124:6148   */\n      tag_92\n      jump\t// in\n    tag_133:\n        /* \"#utility.yul\":6117:6122   */\n      dup2\n        /* \"#utility.yul\":6114:6149   */\n      eq\n        /* \"#utility.yul\":6104:6167   */\n      tag_134\n      jumpi\n        /* \"#utility.yul\":6163:6164   */\n      0x00\n        /* \"#utility.yul\":6160:6161   */\n      dup1\n        /* \"#utility.yul\":6153:6165   */\n      revert\n        /* \"#utility.yul\":6104:6167   */\n    tag_134:\n        /* \"#utility.yul\":6051:6173   */\n      pop\n      jump\t// out\n\n    auxdata: 0xa26469706673582212200870f02c6b775562f4e07f709310b58dbd3735be862200aa8bde8edb657b08ab64736f6c63430008070033\n}\n\nsub_1: assembly {\n        /* \"contracts/11_CallContract.sol\":70:691  contract Receiver{... */\n      mstore(0x40, 0x80)\n      callvalue\n      dup1\n      iszero\n      tag_1\n      jumpi\n      0x00\n      dup1\n      revert\n    tag_1:\n      pop\n      dataSize(sub_0)\n      dup1\n      dataOffset(sub_0)\n      0x00\n      codecopy\n      0x00\n      return\n    stop\n\n    sub_0: assembly {\n            /* \"contracts/11_CallContract.sol\":70:691  contract Receiver{... */\n          mstore(0x40, 0x80)\n          jumpi(tag_1, lt(calldatasize, 0x04))\n          shr(0xe0, calldataload(0x00))\n          dup1\n          0x12065fe0\n          eq\n          tag_3\n          jumpi\n          dup1\n          0x38cc4831\n          eq\n          tag_4\n          jumpi\n          jump(tag_2)\n        tag_1:\n          jumpi(tag_2, calldatasize)\n            /* \"contracts/11_CallContract.sol\":321:374  Received(msg.sender,msg.value, \"Received was called\") */\n          0x59e04c3f0d44b7caf6e8ef854b61d9a51cf1960d7a88ff6356cc5e946b4b5832\n            /* \"contracts/11_CallContract.sol\":330:340  msg.sender */\n          caller\n            /* \"contracts/11_CallContract.sol\":341:350  msg.value */\n          callvalue\n            /* \"contracts/11_CallContract.sol\":321:374  Received(msg.sender,msg.value, \"Received was called\") */\n          mload(0x40)\n          tag_7\n          swap3\n          swap2\n          swap1\n          tag_8\n          jump\t// in\n        tag_7:\n          mload(0x40)\n          dup1\n          swap2\n          sub\n          swap1\n          log1\n            /* \"contracts/11_CallContract.sol\":70:691  contract Receiver{... */\n          stop\n        tag_2:\n            /* \"contracts/11_CallContract.sol\":436:489  Received(msg.sender,msg.value, \"Fallback was called\") */\n          0x59e04c3f0d44b7caf6e8ef854b61d9a51cf1960d7a88ff6356cc5e946b4b5832\n            /* \"contracts/11_CallContract.sol\":445:455  msg.sender */\n          caller\n            /* \"contracts/11_CallContract.sol\":456:465  msg.value */\n          callvalue\n            /* \"contracts/11_CallContract.sol\":436:489  Received(msg.sender,msg.value, \"Fallback was called\") */\n          mload(0x40)\n          tag_11\n          swap3\n          swap2\n          swap1\n          tag_12\n          jump\t// in\n        tag_11:\n          mload(0x40)\n          dup1\n          swap2\n          sub\n          swap1\n          log1\n            /* \"contracts/11_CallContract.sol\":70:691  contract Receiver{... */\n          stop\n            /* \"contracts/11_CallContract.sol\":596:688  function getBalance() public view returns(uint){... */\n        tag_3:\n          callvalue\n          dup1\n          iszero\n          tag_13\n          jumpi\n          0x00\n          dup1\n          revert\n        tag_13:\n          pop\n          tag_14\n          tag_15\n          jump\t// in\n        tag_14:\n          mload(0x40)\n          tag_16\n          swap2\n          swap1\n          tag_17\n          jump\t// in\n        tag_16:\n          mload(0x40)\n          dup1\n          swap2\n          sub\n          swap1\n          return\n            /* \"contracts/11_CallContract.sol\":503:590  function getAddress() public view returns(address){... */\n        tag_4:\n          callvalue\n          dup1\n          iszero\n          tag_18\n          jumpi\n          0x00\n          dup1\n          revert\n        tag_18:\n          pop\n          tag_19\n          tag_20\n          jump\t// in\n        tag_19:\n          mload(0x40)\n          tag_21\n          swap2\n          swap1\n          tag_22\n          jump\t// in\n        tag_21:\n          mload(0x40)\n          dup1\n          swap2\n          sub\n          swap1\n          return\n            /* \"contracts/11_CallContract.sol\":596:688  function getBalance() public view returns(uint){... */\n        tag_15:\n            /* \"contracts/11_CallContract.sol\":638:642  uint */\n          0x00\n            /* \"contracts/11_CallContract.sol\":660:681  address(this).balance */\n          selfbalance\n            /* \"contracts/11_CallContract.sol\":653:681  return address(this).balance */\n          swap1\n          pop\n            /* \"contracts/11_CallContract.sol\":596:688  function getBalance() public view returns(uint){... */\n          swap1\n          jump\t// out\n            /* \"contracts/11_CallContract.sol\":503:590  function getAddress() public view returns(address){... */\n        tag_20:\n            /* \"contracts/11_CallContract.sol\":545:552  address */\n          0x00\n            /* \"contracts/11_CallContract.sol\":578:582  this */\n          address\n            /* \"contracts/11_CallContract.sol\":563:583  return address(this) */\n          swap1\n          pop\n            /* \"contracts/11_CallContract.sol\":503:590  function getAddress() public view returns(address){... */\n          swap1\n          jump\t// out\n            /* \"#utility.yul\":7:125   */\n        tag_26:\n            /* \"#utility.yul\":94:118   */\n          tag_28\n            /* \"#utility.yul\":112:117   */\n          dup2\n            /* \"#utility.yul\":94:118   */\n          tag_29\n          jump\t// in\n        tag_28:\n            /* \"#utility.yul\":89:92   */\n          dup3\n            /* \"#utility.yul\":82:119   */\n          mstore\n            /* \"#utility.yul\":7:125   */\n          pop\n          pop\n          jump\t// out\n            /* \"#utility.yul\":131:497   */\n        tag_30:\n            /* \"#utility.yul\":273:276   */\n          0x00\n            /* \"#utility.yul\":294:361   */\n          tag_32\n            /* \"#utility.yul\":358:360   */\n          0x13\n            /* \"#utility.yul\":353:356   */\n          dup4\n            /* \"#utility.yul\":294:361   */\n          tag_33\n          jump\t// in\n        tag_32:\n            /* \"#utility.yul\":287:361   */\n          swap2\n          pop\n            /* \"#utility.yul\":370:463   */\n          tag_34\n            /* \"#utility.yul\":459:462   */\n          dup3\n            /* \"#utility.yul\":370:463   */\n          tag_35\n          jump\t// in\n        tag_34:\n            /* \"#utility.yul\":488:490   */\n          0x20\n            /* \"#utility.yul\":483:486   */\n          dup3\n            /* \"#utility.yul\":479:491   */\n          add\n            /* \"#utility.yul\":472:491   */\n          swap1\n          pop\n            /* \"#utility.yul\":131:497   */\n          swap2\n          swap1\n          pop\n          jump\t// out\n            /* \"#utility.yul\":503:869   */\n        tag_36:\n            /* \"#utility.yul\":645:648   */\n          0x00\n            /* \"#utility.yul\":666:733   */\n          tag_38\n            /* \"#utility.yul\":730:732   */\n          0x13\n            /* \"#utility.yul\":725:728   */\n          dup4\n            /* \"#utility.yul\":666:733   */\n          tag_33\n          jump\t// in\n        tag_38:\n            /* \"#utility.yul\":659:733   */\n          swap2\n          pop\n            /* \"#utility.yul\":742:835   */\n          tag_39\n            /* \"#utility.yul\":831:834   */\n          dup3\n            /* \"#utility.yul\":742:835   */\n          tag_40\n          jump\t// in\n        tag_39:\n            /* \"#utility.yul\":860:862   */\n          0x20\n            /* \"#utility.yul\":855:858   */\n          dup3\n            /* \"#utility.yul\":851:863   */\n          add\n            /* \"#utility.yul\":844:863   */\n          swap1\n          pop\n            /* \"#utility.yul\":503:869   */\n          swap2\n          swap1\n          pop\n          jump\t// out\n            /* \"#utility.yul\":875:993   */\n        tag_41:\n            /* \"#utility.yul\":962:986   */\n          tag_43\n            /* \"#utility.yul\":980:985   */\n          dup2\n            /* \"#utility.yul\":962:986   */\n          tag_44\n          jump\t// in\n        tag_43:\n            /* \"#utility.yul\":957:960   */\n          dup3\n            /* \"#utility.yul\":950:987   */\n          mstore\n            /* \"#utility.yul\":875:993   */\n          pop\n          pop\n          jump\t// out\n            /* \"#utility.yul\":999:1221   */\n        tag_22:\n            /* \"#utility.yul\":1092:1096   */\n          0x00\n            /* \"#utility.yul\":1130:1132   */\n          0x20\n            /* \"#utility.yul\":1119:1128   */\n          dup3\n            /* \"#utility.yul\":1115:1133   */\n          add\n            /* \"#utility.yul\":1107:1133   */\n          swap1\n          pop\n            /* \"#utility.yul\":1143:1214   */\n          tag_46\n            /* \"#utility.yul\":1211:1212   */\n          0x00\n            /* \"#utility.yul\":1200:1209   */\n          dup4\n            /* \"#utility.yul\":1196:1213   */\n          add\n            /* \"#utility.yul\":1187:1193   */\n          dup5\n            /* \"#utility.yul\":1143:1214   */\n          tag_26\n          jump\t// in\n        tag_46:\n            /* \"#utility.yul\":999:1221   */\n          swap3\n          swap2\n          pop\n          pop\n          jump\t// out\n            /* \"#utility.yul\":1227:1866   */\n        tag_12:\n            /* \"#utility.yul\":1449:1453   */\n          0x00\n            /* \"#utility.yul\":1487:1489   */\n          0x60\n            /* \"#utility.yul\":1476:1485   */\n          dup3\n            /* \"#utility.yul\":1472:1490   */\n          add\n            /* \"#utility.yul\":1464:1490   */\n          swap1\n          pop\n            /* \"#utility.yul\":1500:1571   */\n          tag_48\n            /* \"#utility.yul\":1568:1569   */\n          0x00\n            /* \"#utility.yul\":1557:1566   */\n          dup4\n            /* \"#utility.yul\":1553:1570   */\n          add\n            /* \"#utility.yul\":1544:1550   */\n          dup6\n            /* \"#utility.yul\":1500:1571   */\n          tag_26\n          jump\t// in\n        tag_48:\n            /* \"#utility.yul\":1581:1653   */\n          tag_49\n            /* \"#utility.yul\":1649:1651   */\n          0x20\n            /* \"#utility.yul\":1638:1647   */\n          dup4\n            /* \"#utility.yul\":1634:1652   */\n          add\n            /* \"#utility.yul\":1625:1631   */\n          dup5\n            /* \"#utility.yul\":1581:1653   */\n          tag_41\n          jump\t// in\n        tag_49:\n            /* \"#utility.yul\":1700:1709   */\n          dup2\n            /* \"#utility.yul\":1694:1698   */\n          dup2\n            /* \"#utility.yul\":1690:1710   */\n          sub\n            /* \"#utility.yul\":1685:1687   */\n          0x40\n            /* \"#utility.yul\":1674:1683   */\n          dup4\n            /* \"#utility.yul\":1670:1688   */\n          add\n            /* \"#utility.yul\":1663:1711   */\n          mstore\n            /* \"#utility.yul\":1728:1859   */\n          tag_50\n            /* \"#utility.yul\":1854:1858   */\n          dup2\n            /* \"#utility.yul\":1728:1859   */\n          tag_30\n          jump\t// in\n        tag_50:\n            /* \"#utility.yul\":1720:1859   */\n          swap1\n          pop\n            /* \"#utility.yul\":1227:1866   */\n          swap4\n          swap3\n          pop\n          pop\n          pop\n          jump\t// out\n            /* \"#utility.yul\":1872:2511   */\n        tag_8:\n            /* \"#utility.yul\":2094:2098   */\n          0x00\n            /* \"#utility.yul\":2132:2134   */\n          0x60\n            /* \"#utility.yul\":2121:2130   */\n          dup3\n            /* \"#utility.yul\":2117:2135   */\n          add\n            /* \"#utility.yul\":2109:2135   */\n          swap1\n          pop\n            /* \"#utility.yul\":2145:2216   */\n          tag_52\n            /* \"#utility.yul\":2213:2214   */\n          0x00\n            /* \"#utility.yul\":2202:2211   */\n          dup4\n            /* \"#utility.yul\":2198:2215   */\n          add\n            /* \"#utility.yul\":2189:2195   */\n          dup6\n            /* \"#utility.yul\":2145:2216   */\n          tag_26\n          jump\t// in\n        tag_52:\n            /* \"#utility.yul\":2226:2298   */\n          tag_53\n            /* \"#utility.yul\":2294:2296   */\n          0x20\n            /* \"#utility.yul\":2283:2292   */\n          dup4\n            /* \"#utility.yul\":2279:2297   */\n          add\n            /* \"#utility.yul\":2270:2276   */\n          dup5\n            /* \"#utility.yul\":2226:2298   */\n          tag_41\n          jump\t// in\n        tag_53:\n            /* \"#utility.yul\":2345:2354   */\n          dup2\n            /* \"#utility.yul\":2339:2343   */\n          dup2\n            /* \"#utility.yul\":2335:2355   */\n          sub\n            /* \"#utility.yul\":2330:2332   */\n          0x40\n            /* \"#utility.yul\":2319:2328   */\n          dup4\n            /* \"#utility.yul\":2315:2333   */\n          add\n            /* \"#utility.yul\":2308:2356   */\n          mstore\n            /* \"#utility.yul\":2373:2504   */\n          tag_54\n            /* \"#utility.yul\":2499:2503   */\n          dup2\n            /* \"#utility.yul\":2373:2504   */\n          tag_36\n          jump\t// in\n        tag_54:\n            /* \"#utility.yul\":2365:2504   */\n          swap1\n          pop\n            /* \"#utility.yul\":1872:2511   */\n          swap4\n          swap3\n          pop\n          pop\n          pop\n          jump\t// out\n            /* \"#utility.yul\":2517:2739   */\n        tag_17:\n            /* \"#utility.yul\":2610:2614   */\n          0x00\n            /* \"#utility.yul\":2648:2650   */\n          0x20\n            /* \"#utility.yul\":2637:2646   */\n          dup3\n            /* \"#utility.yul\":2633:2651   */\n          add\n            /* \"#utility.yul\":2625:2651   */\n          swap1\n          pop\n            /* \"#utility.yul\":2661:2732   */\n          tag_56\n            /* \"#utility.yul\":2729:2730   */\n          0x00\n            /* \"#utility.yul\":2718:2727   */\n          dup4\n            /* \"#utility.yul\":2714:2731   */\n          add\n            /* \"#utility.yul\":2705:2711   */\n          dup5\n            /* \"#utility.yul\":2661:2732   */\n          tag_41\n          jump\t// in\n        tag_56:\n            /* \"#utility.yul\":2517:2739   */\n          swap3\n          swap2\n          pop\n          pop\n          jump\t// out\n            /* \"#utility.yul\":2745:2914   */\n        tag_33:\n            /* \"#utility.yul\":2829:2840   */\n          0x00\n            /* \"#utility.yul\":2863:2869   */\n          dup3\n            /* \"#utility.yul\":2858:2861   */\n          dup3\n            /* \"#utility.yul\":2851:2870   */\n          mstore\n            /* \"#utility.yul\":2903:2907   */\n          0x20\n            /* \"#utility.yul\":2898:2901   */\n          dup3\n            /* \"#utility.yul\":2894:2908   */\n          add\n            /* \"#utility.yul\":2879:2908   */\n          swap1\n          pop\n            /* \"#utility.yul\":2745:2914   */\n          swap3\n          swap2\n          pop\n          pop\n          jump\t// out\n            /* \"#utility.yul\":2920:3016   */\n        tag_29:\n            /* \"#utility.yul\":2957:2964   */\n          0x00\n            /* \"#utility.yul\":2986:3010   */\n          tag_59\n            /* \"#utility.yul\":3004:3009   */\n          dup3\n            /* \"#utility.yul\":2986:3010   */\n          tag_60\n          jump\t// in\n        tag_59:\n            /* \"#utility.yul\":2975:3010   */\n          swap1\n          pop\n            /* \"#utility.yul\":2920:3016   */\n          swap2\n          swap1\n          pop\n          jump\t// out\n            /* \"#utility.yul\":3022:3148   */\n        tag_60:\n            /* \"#utility.yul\":3059:3066   */\n          0x00\n            /* \"#utility.yul\":3099:3141   */\n          0xffffffffffffffffffffffffffffffffffffffff\n            /* \"#utility.yul\":3092:3097   */\n          dup3\n            /* \"#utility.yul\":3088:3142   */\n          and\n            /* \"#utility.yul\":3077:3142   */\n          swap1\n          pop\n            /* \"#utility.yul\":3022:3148   */\n          swap2\n          swap1\n          pop\n          jump\t// out\n            /* \"#utility.yul\":3154:3231   */\n        tag_44:\n            /* \"#utility.yul\":3191:3198   */\n          0x00\n            /* \"#utility.yul\":3220:3225   */\n          dup2\n            /* \"#utility.yul\":3209:3225   */\n          swap1\n          pop\n            /* \"#utility.yul\":3154:3231   */\n          swap2\n          swap1\n          pop\n          jump\t// out\n            /* \"#utility.yul\":3237:3406   */\n        tag_35:\n            /* \"#utility.yul\":3377:3398   */\n          0x46616c6c6261636b207761732063616c6c656400000000000000000000000000\n            /* \"#utility.yul\":3373:3374   */\n          0x00\n            /* \"#utility.yul\":3365:3371   */\n          dup3\n            /* \"#utility.yul\":3361:3375   */\n          add\n            /* \"#utility.yul\":3354:3399   */\n          mstore\n            /* \"#utility.yul\":3237:3406   */\n          pop\n          jump\t// out\n            /* \"#utility.yul\":3412:3581   */\n        tag_40:\n            /* \"#utility.yul\":3552:3573   */\n          0x5265636569766564207761732063616c6c656400000000000000000000000000\n            /* \"#utility.yul\":3548:3549   */\n          0x00\n            /* \"#utility.yul\":3540:3546   */\n          dup3\n            /* \"#utility.yul\":3536:3550   */\n          add\n            /* \"#utility.yul\":3529:3574   */\n          mstore\n            /* \"#utility.yul\":3412:3581   */\n          pop\n          jump\t// out\n\n        auxdata: 0xa2646970667358221220250dc945488e1d484ed26b78e93ec9ebeb8fe62ddc5970b698080da8546fc2c664736f6c63430008070033\n    }\n}\n",
				"bytecode": {
					"linkReferences": {},
					"object": "608060405234801561001057600080fd5b5060405161001d9061007e565b604051809103906000f080158015610039573d6000803e3d6000fd5b506000806101000a81548173ffffffffffffffffffffffffffffffffffffffff021916908373ffffffffffffffffffffffffffffffffffffffff16021790555061008b565b6103158061067583390190565b6105db8061009a6000396000f3fe6080604052600436106100345760003560e01c806312065fe01461003957806338cc4831146100645780639fc78a191461008f575b600080fd5b34801561004557600080fd5b5061004e6100ab565b60405161005b9190610452565b60405180910390f35b34801561007057600080fd5b50610079610151565b6040516100869190610407565b60405180910390f35b6100a960048036038101906100a4919061030f565b6101f7565b005b60008060009054906101000a900473ffffffffffffffffffffffffffffffffffffffff1673ffffffffffffffffffffffffffffffffffffffff166312065fe06040518163ffffffff1660e01b815260040160206040518083038186803b15801561011457600080fd5b505afa158015610128573d6000803e3d6000fd5b505050506040513d601f19601f8201168201806040525081019061014c919061033c565b905090565b60008060009054906101000a900473ffffffffffffffffffffffffffffffffffffffff1673ffffffffffffffffffffffffffffffffffffffff166338cc48316040518163ffffffff1660e01b815260040160206040518083038186803b1580156101ba57600080fd5b505afa1580156101ce573d6000803e3d6000fd5b505050506040513d601f19601f820116820180604052508101906101f291906102e2565b905090565b6000808273ffffffffffffffffffffffffffffffffffffffff163460405161021e906103f2565b60006040518083038185875af1925050503d806000811461025b576040519150601f19603f3d011682016040523d82523d6000602084013e610260565b606091505b50915091507f13848c3e38f8886f3f5d2ad9dff80d8092c2bbb8efd5b887a99c2c6cfc09ac2a8282604051610296929190610422565b60405180910390a1505050565b6000815190506102b281610560565b92915050565b6000813590506102c781610577565b92915050565b6000815190506102dc8161058e565b92915050565b6000602082840312156102f8576102f7610521565b5b6000610306848285016102a3565b91505092915050565b60006020828403121561032557610324610521565b5b6000610333848285016102b8565b91505092915050565b60006020828403121561035257610351610521565b5b6000610360848285016102cd565b91505092915050565b61037281610494565b82525050565b610381816104b8565b82525050565b60006103928261046d565b61039c8185610478565b93506103ac8185602086016104ee565b6103b581610526565b840191505092915050565b60006103cd600383610489565b91506103d882610537565b600382019050919050565b6103ec816104e4565b82525050565b60006103fd826103c0565b9150819050919050565b600060208201905061041c6000830184610369565b92915050565b60006040820190506104376000830185610378565b81810360208301526104498184610387565b90509392505050565b600060208201905061046760008301846103e3565b92915050565b600081519050919050565b600082825260208201905092915050565b600081905092915050565b600061049f826104c4565b9050919050565b60006104b1826104c4565b9050919050565b60008115159050919050565b600073ffffffffffffffffffffffffffffffffffffffff82169050919050565b6000819050919050565b60005b8381101561050c5780820151818401526020810190506104f1565b8381111561051b576000848401525b50505050565b600080fd5b6000601f19601f8301169050919050565b7f6162630000000000000000000000000000000000000000000000000000000000600082015250565b61056981610494565b811461057457600080fd5b50565b610580816104a6565b811461058b57600080fd5b50565b610597816104e4565b81146105a257600080fd5b5056fea26469706673582212200870f02c6b775562f4e07f709310b58dbd3735be862200aa8bde8edb657b08ab64736f6c63430008070033608060405234801561001057600080fd5b506102f5806100206000396000f3fe60806040526004361061002d5760003560e01c806312065fe0146100a857806338cc4831146100d35761006d565b3661006d577f59e04c3f0d44b7caf6e8ef854b61d9a51cf1960d7a88ff6356cc5e946b4b583233346040516100639291906101c9565b60405180910390a1005b7f59e04c3f0d44b7caf6e8ef854b61d9a51cf1960d7a88ff6356cc5e946b4b5832333460405161009e92919061018d565b60405180910390a1005b3480156100b457600080fd5b506100bd6100fe565b6040516100ca9190610205565b60405180910390f35b3480156100df57600080fd5b506100e8610106565b6040516100f59190610172565b60405180910390f35b600047905090565b600030905090565b61011781610231565b82525050565b600061012a601383610220565b91506101358261026d565b602082019050919050565b600061014d601383610220565b915061015882610296565b602082019050919050565b61016c81610263565b82525050565b6000602082019050610187600083018461010e565b92915050565b60006060820190506101a2600083018561010e565b6101af6020830184610163565b81810360408301526101c08161011d565b90509392505050565b60006060820190506101de600083018561010e565b6101eb6020830184610163565b81810360408301526101fc81610140565b90509392505050565b600060208201905061021a6000830184610163565b92915050565b600082825260208201905092915050565b600061023c82610243565b9050919050565b600073ffffffffffffffffffffffffffffffffffffffff82169050919050565b6000819050919050565b7f46616c6c6261636b207761732063616c6c656400000000000000000000000000600082015250565b7f5265636569766564207761732063616c6c65640000000000000000000000000060008201525056fea2646970667358221220250dc945488e1d484ed26b78e93ec9ebeb8fe62ddc5970b698080da8546fc2c664736f6c63430008070033",
					"opcodes": "PUSH1 0x80 PUSH1 0x40 MSTORE CALLVALUE DUP1 ISZERO PUSH2 0x10 JUMPI PUSH1 0x0 DUP1 REVERT JUMPDEST POP PUSH1 0x40 MLOAD PUSH2 0x1D SWAP1 PUSH2 0x7E JUMP JUMPDEST PUSH1 0x40 MLOAD DUP1 SWAP2 SUB SWAP1 PUSH1 0x0 CREATE DUP1 ISZERO DUP1 ISZERO PUSH2 0x39 JUMPI RETURNDATASIZE PUSH1 0x0 DUP1 RETURNDATACOPY RETURNDATASIZE PUSH1 0x0 REVERT JUMPDEST POP PUSH1 0x0 DUP1 PUSH2 0x100 EXP DUP2 SLOAD DUP2 PUSH20 0xFFFFFFFFFFFFFFFFFFFFFFFFFFFFFFFFFFFFFFFF MUL NOT AND SWAP1 DUP4 PUSH20 0xFFFFFFFFFFFFFFFFFFFFFFFFFFFFFFFFFFFFFFFF AND MUL OR SWAP1 SSTORE POP PUSH2 0x8B JUMP JUMPDEST PUSH2 0x315 DUP1 PUSH2 0x675 DUP4 CODECOPY ADD SWAP1 JUMP JUMPDEST PUSH2 0x5DB DUP1 PUSH2 0x9A PUSH1 0x0 CODECOPY PUSH1 0x0 RETURN INVALID PUSH1 0x80 PUSH1 0x40 MSTORE PUSH1 0x4 CALLDATASIZE LT PUSH2 0x34 JUMPI PUSH1 0x0 CALLDATALOAD PUSH1 0xE0 SHR DUP1 PUSH4 0x12065FE0 EQ PUSH2 0x39 JUMPI DUP1 PUSH4 0x38CC4831 EQ PUSH2 0x64 JUMPI DUP1 PUSH4 0x9FC78A19 EQ PUSH2 0x8F JUMPI JUMPDEST PUSH1 0x0 DUP1 REVERT JUMPDEST CALLVALUE DUP1 ISZERO PUSH2 0x45 JUMPI PUSH1 0x0 DUP1 REVERT JUMPDEST POP PUSH2 0x4E PUSH2 0xAB JUMP JUMPDEST PUSH1 0x40 MLOAD PUSH2 0x5B SWAP2 SWAP1 PUSH2 0x452 JUMP JUMPDEST PUSH1 0x40 MLOAD DUP1 SWAP2 SUB SWAP1 RETURN JUMPDEST CALLVALUE DUP1 ISZERO PUSH2 0x70 JUMPI PUSH1 0x0 DUP1 REVERT JUMPDEST POP PUSH2 0x79 PUSH2 0x151 JUMP JUMPDEST PUSH1 0x40 MLOAD PUSH2 0x86 SWAP2 SWAP1 PUSH2 0x407 JUMP JUMPDEST PUSH1 0x40 MLOAD DUP1 SWAP2 SUB SWAP1 RETURN JUMPDEST PUSH2 0xA9 PUSH1 0x4 DUP1 CALLDATASIZE SUB DUP2 ADD SWAP1 PUSH2 0xA4 SWAP2 SWAP1 PUSH2 0x30F JUMP JUMPDEST PUSH2 0x1F7 JUMP JUMPDEST STOP JUMPDEST PUSH1 0x0 DUP1 PUSH1 0x0 SWAP1 SLOAD SWAP1 PUSH2 0x100 EXP SWAP1 DIV PUSH20 0xFFFFFFFFFFFFFFFFFFFFFFFFFFFFFFFFFFFFFFFF AND PUSH20 0xFFFFFFFFFFFFFFFFFFFFFFFFFFFFFFFFFFFFFFFF AND PUSH4 0x12065FE0 PUSH1 0x40 MLOAD DUP2 PUSH4 0xFFFFFFFF AND PUSH1 0xE0 SHL DUP2 MSTORE PUSH1 0x4 ADD PUSH1 0x20 PUSH1 0x40 MLOAD DUP1 DUP4 SUB DUP2 DUP7 DUP1 EXTCODESIZE ISZERO DUP1 ISZERO PUSH2 0x114 JUMPI PUSH1 0x0 DUP1 REVERT JUMPDEST POP GAS STATICCALL ISZERO DUP1 ISZERO PUSH2 0x128 JUMPI RETURNDATASIZE PUSH1 0x0 DUP1 RETURNDATACOPY RETURNDATASIZE PUSH1 0x0 REVERT JUMPDEST POP POP POP POP PUSH1 0x40 MLOAD RETURNDATASIZE PUSH1 0x1F NOT PUSH1 0x1F DUP3 ADD AND DUP3 ADD DUP1 PUSH1 0x40 MSTORE POP DUP2 ADD SWAP1 PUSH2 0x14C SWAP2 SWAP1 PUSH2 0x33C JUMP JUMPDEST SWAP1 POP SWAP1 JUMP JUMPDEST PUSH1 0x0 DUP1 PUSH1 0x0 SWAP1 SLOAD SWAP1 PUSH2 0x100 EXP SWAP1 DIV PUSH20 0xFFFFFFFFFFFFFFFFFFFFFFFFFFFFFFFFFFFFFFFF AND PUSH20 0xFFFFFFFFFFFFFFFFFFFFFFFFFFFFFFFFFFFFFFFF AND PUSH4 0x38CC4831 PUSH1 0x40 MLOAD DUP2 PUSH4 0xFFFFFFFF AND PUSH1 0xE0 SHL DUP2 MSTORE PUSH1 0x4 ADD PUSH1 0x20 PUSH1 0x40 MLOAD DUP1 DUP4 SUB DUP2 DUP7 DUP1 EXTCODESIZE ISZERO DUP1 ISZERO PUSH2 0x1BA JUMPI PUSH1 0x0 DUP1 REVERT JUMPDEST POP GAS STATICCALL ISZERO DUP1 ISZERO PUSH2 0x1CE JUMPI RETURNDATASIZE PUSH1 0x0 DUP1 RETURNDATACOPY RETURNDATASIZE PUSH1 0x0 REVERT JUMPDEST POP POP POP POP PUSH1 0x40 MLOAD RETURNDATASIZE PUSH1 0x1F NOT PUSH1 0x1F DUP3 ADD AND DUP3 ADD DUP1 PUSH1 0x40 MSTORE POP DUP2 ADD SWAP1 PUSH2 0x1F2 SWAP2 SWAP1 PUSH2 0x2E2 JUMP JUMPDEST SWAP1 POP SWAP1 JUMP JUMPDEST PUSH1 0x0 DUP1 DUP3 PUSH20 0xFFFFFFFFFFFFFFFFFFFFFFFFFFFFFFFFFFFFFFFF AND CALLVALUE PUSH1 0x40 MLOAD PUSH2 0x21E SWAP1 PUSH2 0x3F2 JUMP JUMPDEST PUSH1 0x0 PUSH1 0x40 MLOAD DUP1 DUP4 SUB DUP2 DUP6 DUP8 GAS CALL SWAP3 POP POP POP RETURNDATASIZE DUP1 PUSH1 0x0 DUP2 EQ PUSH2 0x25B JUMPI PUSH1 0x40 MLOAD SWAP2 POP PUSH1 0x1F NOT PUSH1 0x3F RETURNDATASIZE ADD AND DUP3 ADD PUSH1 0x40 MSTORE RETURNDATASIZE DUP3 MSTORE RETURNDATASIZE PUSH1 0x0 PUSH1 0x20 DUP5 ADD RETURNDATACOPY PUSH2 0x260 JUMP JUMPDEST PUSH1 0x60 SWAP2 POP JUMPDEST POP SWAP2 POP SWAP2 POP PUSH32 0x13848C3E38F8886F3F5D2AD9DFF80D8092C2BBB8EFD5B887A99C2C6CFC09AC2A DUP3 DUP3 PUSH1 0x40 MLOAD PUSH2 0x296 SWAP3 SWAP2 SWAP1 PUSH2 0x422 JUMP JUMPDEST PUSH1 0x40 MLOAD DUP1 SWAP2 SUB SWAP1 LOG1 POP POP POP JUMP JUMPDEST PUSH1 0x0 DUP2 MLOAD SWAP1 POP PUSH2 0x2B2 DUP2 PUSH2 0x560 JUMP JUMPDEST SWAP3 SWAP2 POP POP JUMP JUMPDEST PUSH1 0x0 DUP2 CALLDATALOAD SWAP1 POP PUSH2 0x2C7 DUP2 PUSH2 0x577 JUMP JUMPDEST SWAP3 SWAP2 POP POP JUMP JUMPDEST PUSH1 0x0 DUP2 MLOAD SWAP1 POP PUSH2 0x2DC DUP2 PUSH2 0x58E JUMP JUMPDEST SWAP3 SWAP2 POP POP JUMP JUMPDEST PUSH1 0x0 PUSH1 0x20 DUP3 DUP5 SUB SLT ISZERO PUSH2 0x2F8 JUMPI PUSH2 0x2F7 PUSH2 0x521 JUMP JUMPDEST JUMPDEST PUSH1 0x0 PUSH2 0x306 DUP5 DUP3 DUP6 ADD PUSH2 0x2A3 JUMP JUMPDEST SWAP2 POP POP SWAP3 SWAP2 POP POP JUMP JUMPDEST PUSH1 0x0 PUSH1 0x20 DUP3 DUP5 SUB SLT ISZERO PUSH2 0x325 JUMPI PUSH2 0x324 PUSH2 0x521 JUMP JUMPDEST JUMPDEST PUSH1 0x0 PUSH2 0x333 DUP5 DUP3 DUP6 ADD PUSH2 0x2B8 JUMP JUMPDEST SWAP2 POP POP SWAP3 SWAP2 POP POP JUMP JUMPDEST PUSH1 0x0 PUSH1 0x20 DUP3 DUP5 SUB SLT ISZERO PUSH2 0x352 JUMPI PUSH2 0x351 PUSH2 0x521 JUMP JUMPDEST JUMPDEST PUSH1 0x0 PUSH2 0x360 DUP5 DUP3 DUP6 ADD PUSH2 0x2CD JUMP JUMPDEST SWAP2 POP POP SWAP3 SWAP2 POP POP JUMP JUMPDEST PUSH2 0x372 DUP2 PUSH2 0x494 JUMP JUMPDEST DUP3 MSTORE POP POP JUMP JUMPDEST PUSH2 0x381 DUP2 PUSH2 0x4B8 JUMP JUMPDEST DUP3 MSTORE POP POP JUMP JUMPDEST PUSH1 0x0 PUSH2 0x392 DUP3 PUSH2 0x46D JUMP JUMPDEST PUSH2 0x39C DUP2 DUP6 PUSH2 0x478 JUMP JUMPDEST SWAP4 POP PUSH2 0x3AC DUP2 DUP6 PUSH1 0x20 DUP7 ADD PUSH2 0x4EE JUMP JUMPDEST PUSH2 0x3B5 DUP2 PUSH2 0x526 JUMP JUMPDEST DUP5 ADD SWAP2 POP POP SWAP3 SWAP2 POP POP JUMP JUMPDEST PUSH1 0x0 PUSH2 0x3CD PUSH1 0x3 DUP4 PUSH2 0x489 JUMP JUMPDEST SWAP2 POP PUSH2 0x3D8 DUP3 PUSH2 0x537 JUMP JUMPDEST PUSH1 0x3 DUP3 ADD SWAP1 POP SWAP2 SWAP1 POP JUMP JUMPDEST PUSH2 0x3EC DUP2 PUSH2 0x4E4 JUMP JUMPDEST DUP3 MSTORE POP POP JUMP JUMPDEST PUSH1 0x0 PUSH2 0x3FD DUP3 PUSH2 0x3C0 JUMP JUMPDEST SWAP2 POP DUP2 SWAP1 POP SWAP2 SWAP1 POP JUMP JUMPDEST PUSH1 0x0 PUSH1 0x20 DUP3 ADD SWAP1 POP PUSH2 0x41C PUSH1 0x0 DUP4 ADD DUP5 PUSH2 0x369 JUMP JUMPDEST SWAP3 SWAP2 POP POP JUMP JUMPDEST PUSH1 0x0 PUSH1 0x40 DUP3 ADD SWAP1 POP PUSH2 0x437 PUSH1 0x0 DUP4 ADD DUP6 PUSH2 0x378 JUMP JUMPDEST DUP2 DUP2 SUB PUSH1 0x20 DUP4 ADD MSTORE PUSH2 0x449 DUP2 DUP5 PUSH2 0x387 JUMP JUMPDEST SWAP1 POP SWAP4 SWAP3 POP POP POP JUMP JUMPDEST PUSH1 0x0 PUSH1 0x20 DUP3 ADD SWAP1 POP PUSH2 0x467 PUSH1 0x0 DUP4 ADD DUP5 PUSH2 0x3E3 JUMP JUMPDEST SWAP3 SWAP2 POP POP JUMP JUMPDEST PUSH1 0x0 DUP2 MLOAD SWAP1 POP SWAP2 SWAP1 POP JUMP JUMPDEST PUSH1 0x0 DUP3 DUP3 MSTORE PUSH1 0x20 DUP3 ADD SWAP1 POP SWAP3 SWAP2 POP POP JUMP JUMPDEST PUSH1 0x0 DUP2 SWAP1 POP SWAP3 SWAP2 POP POP JUMP JUMPDEST PUSH1 0x0 PUSH2 0x49F DUP3 PUSH2 0x4C4 JUMP JUMPDEST SWAP1 POP SWAP2 SWAP1 POP JUMP JUMPDEST PUSH1 0x0 PUSH2 0x4B1 DUP3 PUSH2 0x4C4 JUMP JUMPDEST SWAP1 POP SWAP2 SWAP1 POP JUMP JUMPDEST PUSH1 0x0 DUP2 ISZERO ISZERO SWAP1 POP SWAP2 SWAP1 POP JUMP JUMPDEST PUSH1 0x0 PUSH20 0xFFFFFFFFFFFFFFFFFFFFFFFFFFFFFFFFFFFFFFFF DUP3 AND SWAP1 POP SWAP2 SWAP1 POP JUMP JUMPDEST PUSH1 0x0 DUP2 SWAP1 POP SWAP2 SWAP1 POP JUMP JUMPDEST PUSH1 0x0 JUMPDEST DUP4 DUP2 LT ISZERO PUSH2 0x50C JUMPI DUP1 DUP3 ADD MLOAD DUP2 DUP5 ADD MSTORE PUSH1 0x20 DUP2 ADD SWAP1 POP PUSH2 0x4F1 JUMP JUMPDEST DUP4 DUP2 GT ISZERO PUSH2 0x51B JUMPI PUSH1 0x0 DUP5 DUP5 ADD MSTORE JUMPDEST POP POP POP POP JUMP JUMPDEST PUSH1 0x0 DUP1 REVERT JUMPDEST PUSH1 0x0 PUSH1 0x1F NOT PUSH1 0x1F DUP4 ADD AND SWAP1 POP SWAP2 SWAP1 POP JUMP JUMPDEST PUSH32 0x6162630000000000000000000000000000000000000000000000000000000000 PUSH1 0x0 DUP3 ADD MSTORE POP JUMP JUMPDEST PUSH2 0x569 DUP2 PUSH2 0x494 JUMP JUMPDEST DUP2 EQ PUSH2 0x574 JUMPI PUSH1 0x0 DUP1 REVERT JUMPDEST POP JUMP JUMPDEST PUSH2 0x580 DUP2 PUSH2 0x4A6 JUMP JUMPDEST DUP2 EQ PUSH2 0x58B JUMPI PUSH1 0x0 DUP1 REVERT JUMPDEST POP JUMP JUMPDEST PUSH2 0x597 DUP2 PUSH2 0x4E4 JUMP JUMPDEST DUP2 EQ PUSH2 0x5A2 JUMPI PUSH1 0x0 DUP1 REVERT JUMPDEST POP JUMP INVALID LOG2 PUSH5 0x6970667358 0x22 SLT KECCAK256 ADDMOD PUSH17 0xF02C6B775562F4E07F709310B58DBD3735 0xBE DUP7 0x22 STOP 0xAA DUP12 0xDE DUP15 0xDB PUSH6 0x7B08AB64736F PUSH13 0x63430008070033608060405234 DUP1 ISZERO PUSH2 0x10 JUMPI PUSH1 0x0 DUP1 REVERT JUMPDEST POP PUSH2 0x2F5 DUP1 PUSH2 0x20 PUSH1 0x0 CODECOPY PUSH1 0x0 RETURN INVALID PUSH1 0x80 PUSH1 0x40 MSTORE PUSH1 0x4 CALLDATASIZE LT PUSH2 0x2D JUMPI PUSH1 0x0 CALLDATALOAD PUSH1 0xE0 SHR DUP1 PUSH4 0x12065FE0 EQ PUSH2 0xA8 JUMPI DUP1 PUSH4 0x38CC4831 EQ PUSH2 0xD3 JUMPI PUSH2 0x6D JUMP JUMPDEST CALLDATASIZE PUSH2 0x6D JUMPI PUSH32 0x59E04C3F0D44B7CAF6E8EF854B61D9A51CF1960D7A88FF6356CC5E946B4B5832 CALLER CALLVALUE PUSH1 0x40 MLOAD PUSH2 0x63 SWAP3 SWAP2 SWAP1 PUSH2 0x1C9 JUMP JUMPDEST PUSH1 0x40 MLOAD DUP1 SWAP2 SUB SWAP1 LOG1 STOP JUMPDEST PUSH32 0x59E04C3F0D44B7CAF6E8EF854B61D9A51CF1960D7A88FF6356CC5E946B4B5832 CALLER CALLVALUE PUSH1 0x40 MLOAD PUSH2 0x9E SWAP3 SWAP2 SWAP1 PUSH2 0x18D JUMP JUMPDEST PUSH1 0x40 MLOAD DUP1 SWAP2 SUB SWAP1 LOG1 STOP JUMPDEST CALLVALUE DUP1 ISZERO PUSH2 0xB4 JUMPI PUSH1 0x0 DUP1 REVERT JUMPDEST POP PUSH2 0xBD PUSH2 0xFE JUMP JUMPDEST PUSH1 0x40 MLOAD PUSH2 0xCA SWAP2 SWAP1 PUSH2 0x205 JUMP JUMPDEST PUSH1 0x40 MLOAD DUP1 SWAP2 SUB SWAP1 RETURN JUMPDEST CALLVALUE DUP1 ISZERO PUSH2 0xDF JUMPI PUSH1 0x0 DUP1 REVERT JUMPDEST POP PUSH2 0xE8 PUSH2 0x106 JUMP JUMPDEST PUSH1 0x40 MLOAD PUSH2 0xF5 SWAP2 SWAP1 PUSH2 0x172 JUMP JUMPDEST PUSH1 0x40 MLOAD DUP1 SWAP2 SUB SWAP1 RETURN JUMPDEST PUSH1 0x0 SELFBALANCE SWAP1 POP SWAP1 JUMP JUMPDEST PUSH1 0x0 ADDRESS SWAP1 POP SWAP1 JUMP JUMPDEST PUSH2 0x117 DUP2 PUSH2 0x231 JUMP JUMPDEST DUP3 MSTORE POP POP JUMP JUMPDEST PUSH1 0x0 PUSH2 0x12A PUSH1 0x13 DUP4 PUSH2 0x220 JUMP JUMPDEST SWAP2 POP PUSH2 0x135 DUP3 PUSH2 0x26D JUMP JUMPDEST PUSH1 0x20 DUP3 ADD SWAP1 POP SWAP2 SWAP1 POP JUMP JUMPDEST PUSH1 0x0 PUSH2 0x14D PUSH1 0x13 DUP4 PUSH2 0x220 JUMP JUMPDEST SWAP2 POP PUSH2 0x158 DUP3 PUSH2 0x296 JUMP JUMPDEST PUSH1 0x20 DUP3 ADD SWAP1 POP SWAP2 SWAP1 POP JUMP JUMPDEST PUSH2 0x16C DUP2 PUSH2 0x263 JUMP JUMPDEST DUP3 MSTORE POP POP JUMP JUMPDEST PUSH1 0x0 PUSH1 0x20 DUP3 ADD SWAP1 POP PUSH2 0x187 PUSH1 0x0 DUP4 ADD DUP5 PUSH2 0x10E JUMP JUMPDEST SWAP3 SWAP2 POP POP JUMP JUMPDEST PUSH1 0x0 PUSH1 0x60 DUP3 ADD SWAP1 POP PUSH2 0x1A2 PUSH1 0x0 DUP4 ADD DUP6 PUSH2 0x10E JUMP JUMPDEST PUSH2 0x1AF PUSH1 0x20 DUP4 ADD DUP5 PUSH2 0x163 JUMP JUMPDEST DUP2 DUP2 SUB PUSH1 0x40 DUP4 ADD MSTORE PUSH2 0x1C0 DUP2 PUSH2 0x11D JUMP JUMPDEST SWAP1 POP SWAP4 SWAP3 POP POP POP JUMP JUMPDEST PUSH1 0x0 PUSH1 0x60 DUP3 ADD SWAP1 POP PUSH2 0x1DE PUSH1 0x0 DUP4 ADD DUP6 PUSH2 0x10E JUMP JUMPDEST PUSH2 0x1EB PUSH1 0x20 DUP4 ADD DUP5 PUSH2 0x163 JUMP JUMPDEST DUP2 DUP2 SUB PUSH1 0x40 DUP4 ADD MSTORE PUSH2 0x1FC DUP2 PUSH2 0x140 JUMP JUMPDEST SWAP1 POP SWAP4 SWAP3 POP POP POP JUMP JUMPDEST PUSH1 0x0 PUSH1 0x20 DUP3 ADD SWAP1 POP PUSH2 0x21A PUSH1 0x0 DUP4 ADD DUP5 PUSH2 0x163 JUMP JUMPDEST SWAP3 SWAP2 POP POP JUMP JUMPDEST PUSH1 0x0 DUP3 DUP3 MSTORE PUSH1 0x20 DUP3 ADD SWAP1 POP SWAP3 SWAP2 POP POP JUMP JUMPDEST PUSH1 0x0 PUSH2 0x23C DUP3 PUSH2 0x243 JUMP JUMPDEST SWAP1 POP SWAP2 SWAP1 POP JUMP JUMPDEST PUSH1 0x0 PUSH20 0xFFFFFFFFFFFFFFFFFFFFFFFFFFFFFFFFFFFFFFFF DUP3 AND SWAP1 POP SWAP2 SWAP1 POP JUMP JUMPDEST PUSH1 0x0 DUP2 SWAP1 POP SWAP2 SWAP1 POP JUMP JUMPDEST PUSH32 0x46616C6C6261636B207761732063616C6C656400000000000000000000000000 PUSH1 0x0 DUP3 ADD MSTORE POP JUMP JUMPDEST PUSH32 0x5265636569766564207761732063616C6C656400000000000000000000000000 PUSH1 0x0 DUP3 ADD MSTORE POP JUMP INVALID LOG2 PUSH5 0x6970667358 0x22 SLT KECCAK256 0x25 0xD 0xC9 GASLIMIT BASEFEE DUP15 SAR BASEFEE 0x4E 0xD2 PUSH12 0x78E93EC9EBEB8FE62DDC5970 0xB6 SWAP9 ADDMOD 0xD 0xA8 SLOAD PUSH16 0xC2C664736F6C63430008070033000000 "
				},
				"gasEstimates": {
					"creation": {
						"codeDepositCost": "299800",
						"executionCost": "infinite",
						"totalCost": "infinite"
					},
					"external": {
						"getAddress()": "infinite",
						"getBalance()": "infinite",
						"testCall(address)": "infinite"
					}
				},
				"methodIdentifiers": {
					"getAddress()": "38cc4831",
					"getBalance()": "12065fe0",
					"testCall(address)": "9fc78a19"
				}
			},
			"storageLayout": {
				"storage": [
					{
						"astId": 60,
						"contract": "contracts/11_CallContract.sol:Caller",
						"label": "receiver",
						"offset": 0,
						"slot": "0",
						"type": "t_contract(Receiver)57"
					}
				],
				"types": {
					"t_contract(Receiver)57": {
						"encoding": "inplace",
						"label": "contract Receiver",
						"numberOfBytes": "20"
					}
				}
			},
			"userdoc": {
				"kind": "user",
				"methods": {},
				"version": 1
			}
		}
	}
}