{
	"contracts/12_MappingStudy.sol": {
		"MappingStudy": {
			"abi": [
				{
					"inputs": [
						{
							"internalType": "address",
							"name": "_addr",
							"type": "address"
						}
					],
					"name": "get",
					"outputs": [
						{
							"internalType": "uint256",
							"name": "",
							"type": "uint256"
						}
					],
					"stateMutability": "view",
					"type": "function"
				},
				{
					"inputs": [
						{
							"internalType": "address",
							"name": "_addr",
							"type": "address"
						},
						{
							"internalType": "uint256",
							"name": "_balance",
							"type": "uint256"
						}
					],
					"name": "set",
					"outputs": [],
					"stateMutability": "nonpayable",
					"type": "function"
				}
			],
			"devdoc": {
				"kind": "dev",
				"methods": {},
				"version": 1
			},
			"evm": {
				"assembly": "    /* \"contracts/12_MappingStudy.sol\":70:387  contract MappingStudy{... */\n  mstore(0x40, 0x80)\n  callvalue\n  dup1\n  iszero\n  tag_1\n  jumpi\n  0x00\n  dup1\n  revert\ntag_1:\n  pop\n  dataSize(sub_0)\n  dup1\n  dataOffset(sub_0)\n  0x00\n  codecopy\n  0x00\n  return\nstop\n\nsub_0: assembly {\n        /* \"contracts/12_MappingStudy.sol\":70:387  contract MappingStudy{... */\n      mstore(0x40, 0x80)\n      callvalue\n      dup1\n      iszero\n      tag_1\n      jumpi\n      0x00\n      dup1\n      revert\n    tag_1:\n      pop\n      jumpi(tag_2, lt(calldatasize, 0x04))\n      shr(0xe0, calldataload(0x00))\n      dup1\n      0x3825d828\n      eq\n      tag_3\n      jumpi\n      dup1\n      0xc2bc2efc\n      eq\n      tag_4\n      jumpi\n    tag_2:\n      0x00\n      dup1\n      revert\n        /* \"contracts/12_MappingStudy.sol\":288:379  function set(address _addr, uint _balance) public {... */\n    tag_3:\n      tag_5\n      0x04\n      dup1\n      calldatasize\n      sub\n      dup2\n      add\n      swap1\n      tag_6\n      swap2\n      swap1\n      tag_7\n      jump\t// in\n    tag_6:\n      tag_8\n      jump\t// in\n    tag_5:\n      stop\n        /* \"contracts/12_MappingStudy.sol\":190:282  function get(address _addr) public view returns(uint){... */\n    tag_4:\n      tag_9\n      0x04\n      dup1\n      calldatasize\n      sub\n      dup2\n      add\n      swap1\n      tag_10\n      swap2\n      swap1\n      tag_11\n      jump\t// in\n    tag_10:\n      tag_12\n      jump\t// in\n    tag_9:\n      mload(0x40)\n      tag_13\n      swap2\n      swap1\n      tag_14\n      jump\t// in\n    tag_13:\n      mload(0x40)\n      dup1\n      swap2\n      sub\n      swap1\n      return\n        /* \"contracts/12_MappingStudy.sol\":288:379  function set(address _addr, uint _balance) public {... */\n    tag_8:\n        /* \"contracts/12_MappingStudy.sol\":364:372  _balance */\n      dup1\n        /* \"contracts/12_MappingStudy.sol\":348:356  accounts */\n      0x00\n        /* \"contracts/12_MappingStudy.sol\":348:363  accounts[_addr] */\n      dup1\n        /* \"contracts/12_MappingStudy.sol\":357:362  _addr */\n      dup5\n        /* \"contracts/12_MappingStudy.sol\":348:363  accounts[_addr] */\n      0xffffffffffffffffffffffffffffffffffffffff\n      and\n      0xffffffffffffffffffffffffffffffffffffffff\n      and\n      dup2\n      mstore\n      0x20\n      add\n      swap1\n      dup2\n      mstore\n      0x20\n      add\n      0x00\n      keccak256\n        /* \"contracts/12_MappingStudy.sol\":348:372  accounts[_addr]=_balance */\n      dup2\n      swap1\n      sstore\n      pop\n        /* \"contracts/12_MappingStudy.sol\":288:379  function set(address _addr, uint _balance) public {... */\n      pop\n      pop\n      jump\t// out\n        /* \"contracts/12_MappingStudy.sol\":190:282  function get(address _addr) public view returns(uint){... */\n    tag_12:\n        /* \"contracts/12_MappingStudy.sol\":238:242  uint */\n      0x00\n        /* \"contracts/12_MappingStudy.sol\":260:268  accounts */\n      dup1\n        /* \"contracts/12_MappingStudy.sol\":260:275  accounts[_addr] */\n      0x00\n        /* \"contracts/12_MappingStudy.sol\":269:274  _addr */\n      dup4\n        /* \"contracts/12_MappingStudy.sol\":260:275  accounts[_addr] */\n      0xffffffffffffffffffffffffffffffffffffffff\n      and\n      0xffffffffffffffffffffffffffffffffffffffff\n      and\n      dup2\n      mstore\n      0x20\n      add\n      swap1\n      dup2\n      mstore\n      0x20\n      add\n      0x00\n      keccak256\n      sload\n        /* \"contracts/12_MappingStudy.sol\":253:275  return accounts[_addr] */\n      swap1\n      pop\n        /* \"contracts/12_MappingStudy.sol\":190:282  function get(address _addr) public view returns(uint){... */\n      swap2\n      swap1\n      pop\n      jump\t// out\n        /* \"#utility.yul\":7:146   */\n    tag_18:\n        /* \"#utility.yul\":53:58   */\n      0x00\n        /* \"#utility.yul\":91:97   */\n      dup2\n        /* \"#utility.yul\":78:98   */\n      calldataload\n        /* \"#utility.yul\":69:98   */\n      swap1\n      pop\n        /* \"#utility.yul\":107:140   */\n      tag_20\n        /* \"#utility.yul\":134:139   */\n      dup2\n        /* \"#utility.yul\":107:140   */\n      tag_21\n      jump\t// in\n    tag_20:\n        /* \"#utility.yul\":7:146   */\n      swap3\n      swap2\n      pop\n      pop\n      jump\t// out\n        /* \"#utility.yul\":152:291   */\n    tag_22:\n        /* \"#utility.yul\":198:203   */\n      0x00\n        /* \"#utility.yul\":236:242   */\n      dup2\n        /* \"#utility.yul\":223:243   */\n      calldataload\n        /* \"#utility.yul\":214:243   */\n      swap1\n      pop\n        /* \"#utility.yul\":252:285   */\n      tag_24\n        /* \"#utility.yul\":279:284   */\n      dup2\n        /* \"#utility.yul\":252:285   */\n      tag_25\n      jump\t// in\n    tag_24:\n        /* \"#utility.yul\":152:291   */\n      swap3\n      swap2\n      pop\n      pop\n      jump\t// out\n        /* \"#utility.yul\":297:626   */\n    tag_11:\n        /* \"#utility.yul\":356:362   */\n      0x00\n        /* \"#utility.yul\":405:407   */\n      0x20\n        /* \"#utility.yul\":393:402   */\n      dup3\n        /* \"#utility.yul\":384:391   */\n      dup5\n        /* \"#utility.yul\":380:403   */\n      sub\n        /* \"#utility.yul\":376:408   */\n      slt\n        /* \"#utility.yul\":373:492   */\n      iszero\n      tag_27\n      jumpi\n        /* \"#utility.yul\":411:490   */\n      tag_28\n      tag_29\n      jump\t// in\n    tag_28:\n        /* \"#utility.yul\":373:492   */\n    tag_27:\n        /* \"#utility.yul\":531:532   */\n      0x00\n        /* \"#utility.yul\":556:609   */\n      tag_30\n        /* \"#utility.yul\":601:608   */\n      dup5\n        /* \"#utility.yul\":592:598   */\n      dup3\n        /* \"#utility.yul\":581:590   */\n      dup6\n        /* \"#utility.yul\":577:599   */\n      add\n        /* \"#utility.yul\":556:609   */\n      tag_18\n      jump\t// in\n    tag_30:\n        /* \"#utility.yul\":546:609   */\n      swap2\n      pop\n        /* \"#utility.yul\":502:619   */\n      pop\n        /* \"#utility.yul\":297:626   */\n      swap3\n      swap2\n      pop\n      pop\n      jump\t// out\n        /* \"#utility.yul\":632:1106   */\n    tag_7:\n        /* \"#utility.yul\":700:706   */\n      0x00\n        /* \"#utility.yul\":708:714   */\n      dup1\n        /* \"#utility.yul\":757:759   */\n      0x40\n        /* \"#utility.yul\":745:754   */\n      dup4\n        /* \"#utility.yul\":736:743   */\n      dup6\n        /* \"#utility.yul\":732:755   */\n      sub\n        /* \"#utility.yul\":728:760   */\n      slt\n        /* \"#utility.yul\":725:844   */\n      iszero\n      tag_32\n      jumpi\n        /* \"#utility.yul\":763:842   */\n      tag_33\n      tag_29\n      jump\t// in\n    tag_33:\n        /* \"#utility.yul\":725:844   */\n    tag_32:\n        /* \"#utility.yul\":883:884   */\n      0x00\n        /* \"#utility.yul\":908:961   */\n      tag_34\n        /* \"#utility.yul\":953:960   */\n      dup6\n        /* \"#utility.yul\":944:950   */\n      dup3\n        /* \"#utility.yul\":933:942   */\n      dup7\n        /* \"#utility.yul\":929:951   */\n      add\n        /* \"#utility.yul\":908:961   */\n      tag_18\n      jump\t// in\n    tag_34:\n        /* \"#utility.yul\":898:961   */\n      swap3\n      pop\n        /* \"#utility.yul\":854:971   */\n      pop\n        /* \"#utility.yul\":1010:1012   */\n      0x20\n        /* \"#utility.yul\":1036:1089   */\n      tag_35\n        /* \"#utility.yul\":1081:1088   */\n      dup6\n        /* \"#utility.yul\":1072:1078   */\n      dup3\n        /* \"#utility.yul\":1061:1070   */\n      dup7\n        /* \"#utility.yul\":1057:1079   */\n      add\n        /* \"#utility.yul\":1036:1089   */\n      tag_22\n      jump\t// in\n    tag_35:\n        /* \"#utility.yul\":1026:1089   */\n      swap2\n      pop\n        /* \"#utility.yul\":981:1099   */\n      pop\n        /* \"#utility.yul\":632:1106   */\n      swap3\n      pop\n      swap3\n      swap1\n      pop\n      jump\t// out\n        /* \"#utility.yul\":1112:1230   */\n    tag_36:\n        /* \"#utility.yul\":1199:1223   */\n      tag_38\n        /* \"#utility.yul\":1217:1222   */\n      dup2\n        /* \"#utility.yul\":1199:1223   */\n      tag_39\n      jump\t// in\n    tag_38:\n        /* \"#utility.yul\":1194:1197   */\n      dup3\n        /* \"#utility.yul\":1187:1224   */\n      mstore\n        /* \"#utility.yul\":1112:1230   */\n      pop\n      pop\n      jump\t// out\n        /* \"#utility.yul\":1236:1458   */\n    tag_14:\n        /* \"#utility.yul\":1329:1333   */\n      0x00\n        /* \"#utility.yul\":1367:1369   */\n      0x20\n        /* \"#utility.yul\":1356:1365   */\n      dup3\n        /* \"#utility.yul\":1352:1370   */\n      add\n        /* \"#utility.yul\":1344:1370   */\n      swap1\n      pop\n        /* \"#utility.yul\":1380:1451   */\n      tag_41\n        /* \"#utility.yul\":1448:1449   */\n      0x00\n        /* \"#utility.yul\":1437:1446   */\n      dup4\n        /* \"#utility.yul\":1433:1450   */\n      add\n        /* \"#utility.yul\":1424:1430   */\n      dup5\n        /* \"#utility.yul\":1380:1451   */\n      tag_36\n      jump\t// in\n    tag_41:\n        /* \"#utility.yul\":1236:1458   */\n      swap3\n      swap2\n      pop\n      pop\n      jump\t// out\n        /* \"#utility.yul\":1545:1641   */\n    tag_44:\n        /* \"#utility.yul\":1582:1589   */\n      0x00\n        /* \"#utility.yul\":1611:1635   */\n      tag_46\n        /* \"#utility.yul\":1629:1634   */\n      dup3\n        /* \"#utility.yul\":1611:1635   */\n      tag_47\n      jump\t// in\n    tag_46:\n        /* \"#utility.yul\":1600:1635   */\n      swap1\n      pop\n        /* \"#utility.yul\":1545:1641   */\n      swap2\n      swap1\n      pop\n      jump\t// out\n        /* \"#utility.yul\":1647:1773   */\n    tag_47:\n        /* \"#utility.yul\":1684:1691   */\n      0x00\n        /* \"#utility.yul\":1724:1766   */\n      0xffffffffffffffffffffffffffffffffffffffff\n        /* \"#utility.yul\":1717:1722   */\n      dup3\n        /* \"#utility.yul\":1713:1767   */\n      and\n        /* \"#utility.yul\":1702:1767   */\n      swap1\n      pop\n        /* \"#utility.yul\":1647:1773   */\n      swap2\n      swap1\n      pop\n      jump\t// out\n        /* \"#utility.yul\":1779:1856   */\n    tag_39:\n        /* \"#utility.yul\":1816:1823   */\n      0x00\n        /* \"#utility.yul\":1845:1850   */\n      dup2\n        /* \"#utility.yul\":1834:1850   */\n      swap1\n      pop\n        /* \"#utility.yul\":1779:1856   */\n      swap2\n      swap1\n      pop\n      jump\t// out\n        /* \"#utility.yul\":1985:2102   */\n    tag_29:\n        /* \"#utility.yul\":2094:2095   */\n      0x00\n        /* \"#utility.yul\":2091:2092   */\n      dup1\n        /* \"#utility.yul\":2084:2096   */\n      revert\n        /* \"#utility.yul\":2108:2230   */\n    tag_21:\n        /* \"#utility.yul\":2181:2205   */\n      tag_54\n        /* \"#utility.yul\":2199:2204   */\n      dup2\n        /* \"#utility.yul\":2181:2205   */\n      tag_44\n      jump\t// in\n    tag_54:\n        /* \"#utility.yul\":2174:2179   */\n      dup2\n        /* \"#utility.yul\":2171:2206   */\n      eq\n        /* \"#utility.yul\":2161:2224   */\n      tag_55\n      jumpi\n        /* \"#utility.yul\":2220:2221   */\n      0x00\n        /* \"#utility.yul\":2217:2218   */\n      dup1\n        /* \"#utility.yul\":2210:2222   */\n      revert\n        /* \"#utility.yul\":2161:2224   */\n    tag_55:\n        /* \"#utility.yul\":2108:2230   */\n      pop\n      jump\t// out\n        /* \"#utility.yul\":2236:2358   */\n    tag_25:\n        /* \"#utility.yul\":2309:2333   */\n      tag_57\n        /* \"#utility.yul\":2327:2332   */\n      dup2\n        /* \"#utility.yul\":2309:2333   */\n      tag_39\n      jump\t// in\n    tag_57:\n        /* \"#utility.yul\":2302:2307   */\n      dup2\n        /* \"#utility.yul\":2299:2334   */\n      eq\n        /* \"#utility.yul\":2289:2352   */\n      tag_58\n      jumpi\n        /* \"#utility.yul\":2348:2349   */\n      0x00\n        /* \"#utility.yul\":2345:2346   */\n      dup1\n        /* \"#utility.yul\":2338:2350   */\n      revert\n        /* \"#utility.yul\":2289:2352   */\n    tag_58:\n        /* \"#utility.yul\":2236:2358   */\n      pop\n      jump\t// out\n\n    auxdata: 0xa2646970667358221220e16bc153a8b8255aed2410756a68b21c6f4557a84ed2f70290451e818df34b1d64736f6c63430008070033\n}\n",
				"bytecode": {
					"linkReferences": {},
					"object": "608060405234801561001057600080fd5b5061027c806100206000396000f3fe608060405234801561001057600080fd5b50600436106100365760003560e01c80633825d8281461003b578063c2bc2efc14610057575b600080fd5b6100556004803603810190610050919061016d565b610087565b005b610071600480360381019061006c9190610140565b6100ce565b60405161007e91906101bc565b60405180910390f35b806000808473ffffffffffffffffffffffffffffffffffffffff1673ffffffffffffffffffffffffffffffffffffffff168152602001908152602001600020819055505050565b60008060008373ffffffffffffffffffffffffffffffffffffffff1673ffffffffffffffffffffffffffffffffffffffff168152602001908152602001600020549050919050565b60008135905061012581610218565b92915050565b60008135905061013a8161022f565b92915050565b60006020828403121561015657610155610213565b5b600061016484828501610116565b91505092915050565b6000806040838503121561018457610183610213565b5b600061019285828601610116565b92505060206101a38582860161012b565b9150509250929050565b6101b681610209565b82525050565b60006020820190506101d160008301846101ad565b92915050565b60006101e2826101e9565b9050919050565b600073ffffffffffffffffffffffffffffffffffffffff82169050919050565b6000819050919050565b600080fd5b610221816101d7565b811461022c57600080fd5b50565b61023881610209565b811461024357600080fd5b5056fea2646970667358221220e16bc153a8b8255aed2410756a68b21c6f4557a84ed2f70290451e818df34b1d64736f6c63430008070033",
					"opcodes": "PUSH1 0x80 PUSH1 0x40 MSTORE CALLVALUE DUP1 ISZERO PUSH2 0x10 JUMPI PUSH1 0x0 DUP1 REVERT JUMPDEST POP PUSH2 0x27C DUP1 PUSH2 0x20 PUSH1 0x0 CODECOPY PUSH1 0x0 RETURN INVALID PUSH1 0x80 PUSH1 0x40 MSTORE CALLVALUE DUP1 ISZERO PUSH2 0x10 JUMPI PUSH1 0x0 DUP1 REVERT JUMPDEST POP PUSH1 0x4 CALLDATASIZE LT PUSH2 0x36 JUMPI PUSH1 0x0 CALLDATALOAD PUSH1 0xE0 SHR DUP1 PUSH4 0x3825D828 EQ PUSH2 0x3B JUMPI DUP1 PUSH4 0xC2BC2EFC EQ PUSH2 0x57 JUMPI JUMPDEST PUSH1 0x0 DUP1 REVERT JUMPDEST PUSH2 0x55 PUSH1 0x4 DUP1 CALLDATASIZE SUB DUP2 ADD SWAP1 PUSH2 0x50 SWAP2 SWAP1 PUSH2 0x16D JUMP JUMPDEST PUSH2 0x87 JUMP JUMPDEST STOP JUMPDEST PUSH2 0x71 PUSH1 0x4 DUP1 CALLDATASIZE SUB DUP2 ADD SWAP1 PUSH2 0x6C SWAP2 SWAP1 PUSH2 0x140 JUMP JUMPDEST PUSH2 0xCE JUMP JUMPDEST PUSH1 0x40 MLOAD PUSH2 0x7E SWAP2 SWAP1 PUSH2 0x1BC JUMP JUMPDEST PUSH1 0x40 MLOAD DUP1 SWAP2 SUB SWAP1 RETURN JUMPDEST DUP1 PUSH1 0x0 DUP1 DUP5 PUSH20 0xFFFFFFFFFFFFFFFFFFFFFFFFFFFFFFFFFFFFFFFF AND PUSH20 0xFFFFFFFFFFFFFFFFFFFFFFFFFFFFFFFFFFFFFFFF AND DUP2 MSTORE PUSH1 0x20 ADD SWAP1 DUP2 MSTORE PUSH1 0x20 ADD PUSH1 0x0 KECCAK256 DUP2 SWAP1 SSTORE POP POP POP JUMP JUMPDEST PUSH1 0x0 DUP1 PUSH1 0x0 DUP4 PUSH20 0xFFFFFFFFFFFFFFFFFFFFFFFFFFFFFFFFFFFFFFFF AND PUSH20 0xFFFFFFFFFFFFFFFFFFFFFFFFFFFFFFFFFFFFFFFF AND DUP2 MSTORE PUSH1 0x20 ADD SWAP1 DUP2 MSTORE PUSH1 0x20 ADD PUSH1 0x0 KECCAK256 SLOAD SWAP1 POP SWAP2 SWAP1 POP JUMP JUMPDEST PUSH1 0x0 DUP2 CALLDATALOAD SWAP1 POP PUSH2 0x125 DUP2 PUSH2 0x218 JUMP JUMPDEST SWAP3 SWAP2 POP POP JUMP JUMPDEST PUSH1 0x0 DUP2 CALLDATALOAD SWAP1 POP PUSH2 0x13A DUP2 PUSH2 0x22F JUMP JUMPDEST SWAP3 SWAP2 POP POP JUMP JUMPDEST PUSH1 0x0 PUSH1 0x20 DUP3 DUP5 SUB SLT ISZERO PUSH2 0x156 JUMPI PUSH2 0x155 PUSH2 0x213 JUMP JUMPDEST JUMPDEST PUSH1 0x0 PUSH2 0x164 DUP5 DUP3 DUP6 ADD PUSH2 0x116 JUMP JUMPDEST SWAP2 POP POP SWAP3 SWAP2 POP POP JUMP JUMPDEST PUSH1 0x0 DUP1 PUSH1 0x40 DUP4 DUP6 SUB SLT ISZERO PUSH2 0x184 JUMPI PUSH2 0x183 PUSH2 0x213 JUMP JUMPDEST JUMPDEST PUSH1 0x0 PUSH2 0x192 DUP6 DUP3 DUP7 ADD PUSH2 0x116 JUMP JUMPDEST SWAP3 POP POP PUSH1 0x20 PUSH2 0x1A3 DUP6 DUP3 DUP7 ADD PUSH2 0x12B JUMP JUMPDEST SWAP2 POP POP SWAP3 POP SWAP3 SWAP1 POP JUMP JUMPDEST PUSH2 0x1B6 DUP2 PUSH2 0x209 JUMP JUMPDEST DUP3 MSTORE POP POP JUMP JUMPDEST PUSH1 0x0 PUSH1 0x20 DUP3 ADD SWAP1 POP PUSH2 0x1D1 PUSH1 0x0 DUP4 ADD DUP5 PUSH2 0x1AD JUMP JUMPDEST SWAP3 SWAP2 POP POP JUMP JUMPDEST PUSH1 0x0 PUSH2 0x1E2 DUP3 PUSH2 0x1E9 JUMP JUMPDEST SWAP1 POP SWAP2 SWAP1 POP JUMP JUMPDEST PUSH1 0x0 PUSH20 0xFFFFFFFFFFFFFFFFFFFFFFFFFFFFFFFFFFFFFFFF DUP3 AND SWAP1 POP SWAP2 SWAP1 POP JUMP JUMPDEST PUSH1 0x0 DUP2 SWAP1 POP SWAP2 SWAP1 POP JUMP JUMPDEST PUSH1 0x0 DUP1 REVERT JUMPDEST PUSH2 0x221 DUP2 PUSH2 0x1D7 JUMP JUMPDEST DUP2 EQ PUSH2 0x22C JUMPI PUSH1 0x0 DUP1 REVERT JUMPDEST POP JUMP JUMPDEST PUSH2 0x238 DUP2 PUSH2 0x209 JUMP JUMPDEST DUP2 EQ PUSH2 0x243 JUMPI PUSH1 0x0 DUP1 REVERT JUMPDEST POP JUMP INVALID LOG2 PUSH5 0x6970667358 0x22 SLT KECCAK256 0xE1 PUSH12 0xC153A8B8255AED2410756A68 0xB2 SHR PUSH16 0x4557A84ED2F70290451E818DF34B1D64 PUSH20 0x6F6C634300080700330000000000000000000000 "
				},
				"gasEstimates": {
					"creation": {
						"codeDepositCost": "127200",
						"executionCost": "171",
						"totalCost": "127371"
					},
					"external": {
						"get(address)": "2841",
						"set(address,uint256)": "22810"
					}
				},
				"methodIdentifiers": {
					"get(address)": "c2bc2efc",
					"set(address,uint256)": "3825d828"
				}
			},
			"storageLayout": {
				"storage": [
					{
						"astId": 5,
						"contract": "contracts/12_MappingStudy.sol:MappingStudy",
						"label": "accounts",
						"offset": 0,
						"slot": "0",
						"type": "t_mapping(t_address,t_uint256)"
					}
				],
				"types": {
					"t_address": {
						"encoding": "inplace",
						"label": "address",
						"numberOfBytes": "20"
					},
					"t_mapping(t_address,t_uint256)": {
						"encoding": "mapping",
						"key": "t_address",
						"label": "mapping(address => uint256)",
						"numberOfBytes": "32",
						"value": "t_uint256"
					},
					"t_uint256": {
						"encoding": "inplace",
						"label": "uint256",
						"numberOfBytes": "32"
					}
				}
			},
			"userdoc": {
				"kind": "user",
				"methods": {},
				"version": 1
			}
		}
	}
}