{
	"contracts/11_CallContract.sol": {
		"Receiver": {
			"abi": [
				{
					"anonymous": false,
					"inputs": [
						{
							"indexed": false,
							"internalType": "address",
							"name": "caller",
							"type": "address"
						},
						{
							"indexed": false,
							"internalType": "uint256",
							"name": "amount",
							"type": "uint256"
						},
						{
							"indexed": false,
							"internalType": "string",
							"name": "message",
							"type": "string"
						}
					],
					"name": "Received",
					"type": "event"
				},
				{
					"inputs": [],
					"name": "getAddress",
					"outputs": [
						{
							"internalType": "address",
							"name": "",
							"type": "address"
						}
					],
					"stateMutability": "view",
					"type": "function"
				},
				{
					"inputs": [],
					"name": "getBalance",
					"outputs": [
						{
							"internalType": "uint256",
							"name": "",
							"type": "uint256"
						}
					],
					"stateMutability": "view",
					"type": "function"
				},
				{
					"stateMutability": "payable",
					"type": "receive"
				}
			],
			"devdoc": {
				"kind": "dev",
				"methods": {},
				"version": 1
			},
			"evm": {
				"assembly": "    /* \"contracts/11_CallContract.sol\":70:521  contract Receiver{... */\n  mstore(0x40, 0x80)\n  callvalue\n  dup1\n  iszero\n  tag_1\n  jumpi\n  0x00\n  dup1\n  revert\ntag_1:\n  pop\n  dataSize(sub_0)\n  dup1\n  dataOffset(sub_0)\n  0x00\n  codecopy\n  0x00\n  return\nstop\n\nsub_0: assembly {\n        /* \"contracts/11_CallContract.sol\":70:521  contract Receiver{... */\n      mstore(0x40, 0x80)\n      jumpi(tag_1, lt(calldatasize, 0x04))\n      shr(0xe0, calldataload(0x00))\n      dup1\n      0x12065fe0\n      eq\n      tag_3\n      jumpi\n      dup1\n      0x38cc4831\n      eq\n      tag_4\n      jumpi\n      jump(tag_2)\n    tag_1:\n      jumpi(tag_2, calldatasize)\n        /* \"contracts/11_CallContract.sol\":267:320  Received(msg.sender,msg.value, \"Received was called\") */\n      0x59e04c3f0d44b7caf6e8ef854b61d9a51cf1960d7a88ff6356cc5e946b4b5832\n        /* \"contracts/11_CallContract.sol\":276:286  msg.sender */\n      caller\n        /* \"contracts/11_CallContract.sol\":287:296  msg.value */\n      callvalue\n        /* \"contracts/11_CallContract.sol\":267:320  Received(msg.sender,msg.value, \"Received was called\") */\n      mload(0x40)\n      tag_7\n      swap3\n      swap2\n      swap1\n      tag_8\n      jump\t// in\n    tag_7:\n      mload(0x40)\n      dup1\n      swap2\n      sub\n      swap1\n      log1\n        /* \"contracts/11_CallContract.sol\":70:521  contract Receiver{... */\n      stop\n    tag_2:\n      0x00\n      dup1\n      revert\n        /* \"contracts/11_CallContract.sol\":426:518  function getBalance() public view returns(uint){... */\n    tag_3:\n      callvalue\n      dup1\n      iszero\n      tag_9\n      jumpi\n      0x00\n      dup1\n      revert\n    tag_9:\n      pop\n      tag_10\n      tag_11\n      jump\t// in\n    tag_10:\n      mload(0x40)\n      tag_12\n      swap2\n      swap1\n      tag_13\n      jump\t// in\n    tag_12:\n      mload(0x40)\n      dup1\n      swap2\n      sub\n      swap1\n      return\n        /* \"contracts/11_CallContract.sol\":333:420  function getAddress() public view returns(address){... */\n    tag_4:\n      callvalue\n      dup1\n      iszero\n      tag_14\n      jumpi\n      0x00\n      dup1\n      revert\n    tag_14:\n      pop\n      tag_15\n      tag_16\n      jump\t// in\n    tag_15:\n      mload(0x40)\n      tag_17\n      swap2\n      swap1\n      tag_18\n      jump\t// in\n    tag_17:\n      mload(0x40)\n      dup1\n      swap2\n      sub\n      swap1\n      return\n        /* \"contracts/11_CallContract.sol\":426:518  function getBalance() public view returns(uint){... */\n    tag_11:\n        /* \"contracts/11_CallContract.sol\":468:472  uint */\n      0x00\n        /* \"contracts/11_CallContract.sol\":490:511  address(this).balance */\n      selfbalance\n        /* \"contracts/11_CallContract.sol\":483:511  return address(this).balance */\n      swap1\n      pop\n        /* \"contracts/11_CallContract.sol\":426:518  function getBalance() public view returns(uint){... */\n      swap1\n      jump\t// out\n        /* \"contracts/11_CallContract.sol\":333:420  function getAddress() public view returns(address){... */\n    tag_16:\n        /* \"contracts/11_CallContract.sol\":375:382  address */\n      0x00\n        /* \"contracts/11_CallContract.sol\":408:412  this */\n      address\n        /* \"contracts/11_CallContract.sol\":393:413  return address(this) */\n      swap1\n      pop\n        /* \"contracts/11_CallContract.sol\":333:420  function getAddress() public view returns(address){... */\n      swap1\n      jump\t// out\n        /* \"#utility.yul\":7:125   */\n    tag_22:\n        /* \"#utility.yul\":94:118   */\n      tag_24\n        /* \"#utility.yul\":112:117   */\n      dup2\n        /* \"#utility.yul\":94:118   */\n      tag_25\n      jump\t// in\n    tag_24:\n        /* \"#utility.yul\":89:92   */\n      dup3\n        /* \"#utility.yul\":82:119   */\n      mstore\n        /* \"#utility.yul\":7:125   */\n      pop\n      pop\n      jump\t// out\n        /* \"#utility.yul\":131:497   */\n    tag_26:\n        /* \"#utility.yul\":273:276   */\n      0x00\n        /* \"#utility.yul\":294:361   */\n      tag_28\n        /* \"#utility.yul\":358:360   */\n      0x13\n        /* \"#utility.yul\":353:356   */\n      dup4\n        /* \"#utility.yul\":294:361   */\n      tag_29\n      jump\t// in\n    tag_28:\n        /* \"#utility.yul\":287:361   */\n      swap2\n      pop\n        /* \"#utility.yul\":370:463   */\n      tag_30\n        /* \"#utility.yul\":459:462   */\n      dup3\n        /* \"#utility.yul\":370:463   */\n      tag_31\n      jump\t// in\n    tag_30:\n        /* \"#utility.yul\":488:490   */\n      0x20\n        /* \"#utility.yul\":483:486   */\n      dup3\n        /* \"#utility.yul\":479:491   */\n      add\n        /* \"#utility.yul\":472:491   */\n      swap1\n      pop\n        /* \"#utility.yul\":131:497   */\n      swap2\n      swap1\n      pop\n      jump\t// out\n        /* \"#utility.yul\":503:621   */\n    tag_32:\n        /* \"#utility.yul\":590:614   */\n      tag_34\n        /* \"#utility.yul\":608:613   */\n      dup2\n        /* \"#utility.yul\":590:614   */\n      tag_35\n      jump\t// in\n    tag_34:\n        /* \"#utility.yul\":585:588   */\n      dup3\n        /* \"#utility.yul\":578:615   */\n      mstore\n        /* \"#utility.yul\":503:621   */\n      pop\n      pop\n      jump\t// out\n        /* \"#utility.yul\":627:849   */\n    tag_18:\n        /* \"#utility.yul\":720:724   */\n      0x00\n        /* \"#utility.yul\":758:760   */\n      0x20\n        /* \"#utility.yul\":747:756   */\n      dup3\n        /* \"#utility.yul\":743:761   */\n      add\n        /* \"#utility.yul\":735:761   */\n      swap1\n      pop\n        /* \"#utility.yul\":771:842   */\n      tag_37\n        /* \"#utility.yul\":839:840   */\n      0x00\n        /* \"#utility.yul\":828:837   */\n      dup4\n        /* \"#utility.yul\":824:841   */\n      add\n        /* \"#utility.yul\":815:821   */\n      dup5\n        /* \"#utility.yul\":771:842   */\n      tag_22\n      jump\t// in\n    tag_37:\n        /* \"#utility.yul\":627:849   */\n      swap3\n      swap2\n      pop\n      pop\n      jump\t// out\n        /* \"#utility.yul\":855:1494   */\n    tag_8:\n        /* \"#utility.yul\":1077:1081   */\n      0x00\n        /* \"#utility.yul\":1115:1117   */\n      0x60\n        /* \"#utility.yul\":1104:1113   */\n      dup3\n        /* \"#utility.yul\":1100:1118   */\n      add\n        /* \"#utility.yul\":1092:1118   */\n      swap1\n      pop\n        /* \"#utility.yul\":1128:1199   */\n      tag_39\n        /* \"#utility.yul\":1196:1197   */\n      0x00\n        /* \"#utility.yul\":1185:1194   */\n      dup4\n        /* \"#utility.yul\":1181:1198   */\n      add\n        /* \"#utility.yul\":1172:1178   */\n      dup6\n        /* \"#utility.yul\":1128:1199   */\n      tag_22\n      jump\t// in\n    tag_39:\n        /* \"#utility.yul\":1209:1281   */\n      tag_40\n        /* \"#utility.yul\":1277:1279   */\n      0x20\n        /* \"#utility.yul\":1266:1275   */\n      dup4\n        /* \"#utility.yul\":1262:1280   */\n      add\n        /* \"#utility.yul\":1253:1259   */\n      dup5\n        /* \"#utility.yul\":1209:1281   */\n      tag_32\n      jump\t// in\n    tag_40:\n        /* \"#utility.yul\":1328:1337   */\n      dup2\n        /* \"#utility.yul\":1322:1326   */\n      dup2\n        /* \"#utility.yul\":1318:1338   */\n      sub\n        /* \"#utility.yul\":1313:1315   */\n      0x40\n        /* \"#utility.yul\":1302:1311   */\n      dup4\n        /* \"#utility.yul\":1298:1316   */\n      add\n        /* \"#utility.yul\":1291:1339   */\n      mstore\n        /* \"#utility.yul\":1356:1487   */\n      tag_41\n        /* \"#utility.yul\":1482:1486   */\n      dup2\n        /* \"#utility.yul\":1356:1487   */\n      tag_26\n      jump\t// in\n    tag_41:\n        /* \"#utility.yul\":1348:1487   */\n      swap1\n      pop\n        /* \"#utility.yul\":855:1494   */\n      swap4\n      swap3\n      pop\n      pop\n      pop\n      jump\t// out\n        /* \"#utility.yul\":1500:1722   */\n    tag_13:\n        /* \"#utility.yul\":1593:1597   */\n      0x00\n        /* \"#utility.yul\":1631:1633   */\n      0x20\n        /* \"#utility.yul\":1620:1629   */\n      dup3\n        /* \"#utility.yul\":1616:1634   */\n      add\n        /* \"#utility.yul\":1608:1634   */\n      swap1\n      pop\n        /* \"#utility.yul\":1644:1715   */\n      tag_43\n        /* \"#utility.yul\":1712:1713   */\n      0x00\n        /* \"#utility.yul\":1701:1710   */\n      dup4\n        /* \"#utility.yul\":1697:1714   */\n      add\n        /* \"#utility.yul\":1688:1694   */\n      dup5\n        /* \"#utility.yul\":1644:1715   */\n      tag_32\n      jump\t// in\n    tag_43:\n        /* \"#utility.yul\":1500:1722   */\n      swap3\n      swap2\n      pop\n      pop\n      jump\t// out\n        /* \"#utility.yul\":1728:1897   */\n    tag_29:\n        /* \"#utility.yul\":1812:1823   */\n      0x00\n        /* \"#utility.yul\":1846:1852   */\n      dup3\n        /* \"#utility.yul\":1841:1844   */\n      dup3\n        /* \"#utility.yul\":1834:1853   */\n      mstore\n        /* \"#utility.yul\":1886:1890   */\n      0x20\n        /* \"#utility.yul\":1881:1884   */\n      dup3\n        /* \"#utility.yul\":1877:1891   */\n      add\n        /* \"#utility.yul\":1862:1891   */\n      swap1\n      pop\n        /* \"#utility.yul\":1728:1897   */\n      swap3\n      swap2\n      pop\n      pop\n      jump\t// out\n        /* \"#utility.yul\":1903:1999   */\n    tag_25:\n        /* \"#utility.yul\":1940:1947   */\n      0x00\n        /* \"#utility.yul\":1969:1993   */\n      tag_46\n        /* \"#utility.yul\":1987:1992   */\n      dup3\n        /* \"#utility.yul\":1969:1993   */\n      tag_47\n      jump\t// in\n    tag_46:\n        /* \"#utility.yul\":1958:1993   */\n      swap1\n      pop\n        /* \"#utility.yul\":1903:1999   */\n      swap2\n      swap1\n      pop\n      jump\t// out\n        /* \"#utility.yul\":2005:2131   */\n    tag_47:\n        /* \"#utility.yul\":2042:2049   */\n      0x00\n        /* \"#utility.yul\":2082:2124   */\n      0xffffffffffffffffffffffffffffffffffffffff\n        /* \"#utility.yul\":2075:2080   */\n      dup3\n        /* \"#utility.yul\":2071:2125   */\n      and\n        /* \"#utility.yul\":2060:2125   */\n      swap1\n      pop\n        /* \"#utility.yul\":2005:2131   */\n      swap2\n      swap1\n      pop\n      jump\t// out\n        /* \"#utility.yul\":2137:2214   */\n    tag_35:\n        /* \"#utility.yul\":2174:2181   */\n      0x00\n        /* \"#utility.yul\":2203:2208   */\n      dup2\n        /* \"#utility.yul\":2192:2208   */\n      swap1\n      pop\n        /* \"#utility.yul\":2137:2214   */\n      swap2\n      swap1\n      pop\n      jump\t// out\n        /* \"#utility.yul\":2220:2389   */\n    tag_31:\n        /* \"#utility.yul\":2360:2381   */\n      0x5265636569766564207761732063616c6c656400000000000000000000000000\n        /* \"#utility.yul\":2356:2357   */\n      0x00\n        /* \"#utility.yul\":2348:2354   */\n      dup3\n        /* \"#utility.yul\":2344:2358   */\n      add\n        /* \"#utility.yul\":2337:2382   */\n      mstore\n        /* \"#utility.yul\":2220:2389   */\n      pop\n      jump\t// out\n\n    auxdata: 0xa26469706673582212209aa6638c8d58d5e23c064fad0f58bafa7ed450c651d612008f6a02589ab755ec64736f6c63430008070033\n}\n",
				"bytecode": {
					"linkReferences": {},
					"object": "608060405234801561001057600080fd5b50610237806100206000396000f3fe60806040526004361061002d5760003560e01c806312065fe01461007257806338cc48311461009d5761006d565b3661006d577f59e04c3f0d44b7caf6e8ef854b61d9a51cf1960d7a88ff6356cc5e946b4b58323334604051610063929190610134565b60405180910390a1005b600080fd5b34801561007e57600080fd5b506100876100c8565b6040516100949190610170565b60405180910390f35b3480156100a957600080fd5b506100b26100d0565b6040516100bf9190610119565b60405180910390f35b600047905090565b600030905090565b6100e18161019c565b82525050565b60006100f460138361018b565b91506100ff826101d8565b602082019050919050565b610113816101ce565b82525050565b600060208201905061012e60008301846100d8565b92915050565b600060608201905061014960008301856100d8565b610156602083018461010a565b8181036040830152610167816100e7565b90509392505050565b6000602082019050610185600083018461010a565b92915050565b600082825260208201905092915050565b60006101a7826101ae565b9050919050565b600073ffffffffffffffffffffffffffffffffffffffff82169050919050565b6000819050919050565b7f5265636569766564207761732063616c6c65640000000000000000000000000060008201525056fea26469706673582212209aa6638c8d58d5e23c064fad0f58bafa7ed450c651d612008f6a02589ab755ec64736f6c63430008070033",
					"opcodes": "PUSH1 0x80 PUSH1 0x40 MSTORE CALLVALUE DUP1 ISZERO PUSH2 0x10 JUMPI PUSH1 0x0 DUP1 REVERT JUMPDEST POP PUSH2 0x237 DUP1 PUSH2 0x20 PUSH1 0x0 CODECOPY PUSH1 0x0 RETURN INVALID PUSH1 0x80 PUSH1 0x40 MSTORE PUSH1 0x4 CALLDATASIZE LT PUSH2 0x2D JUMPI PUSH1 0x0 CALLDATALOAD PUSH1 0xE0 SHR DUP1 PUSH4 0x12065FE0 EQ PUSH2 0x72 JUMPI DUP1 PUSH4 0x38CC4831 EQ PUSH2 0x9D JUMPI PUSH2 0x6D JUMP JUMPDEST CALLDATASIZE PUSH2 0x6D JUMPI PUSH32 0x59E04C3F0D44B7CAF6E8EF854B61D9A51CF1960D7A88FF6356CC5E946B4B5832 CALLER CALLVALUE PUSH1 0x40 MLOAD PUSH2 0x63 SWAP3 SWAP2 SWAP1 PUSH2 0x134 JUMP JUMPDEST PUSH1 0x40 MLOAD DUP1 SWAP2 SUB SWAP1 LOG1 STOP JUMPDEST PUSH1 0x0 DUP1 REVERT JUMPDEST CALLVALUE DUP1 ISZERO PUSH2 0x7E JUMPI PUSH1 0x0 DUP1 REVERT JUMPDEST POP PUSH2 0x87 PUSH2 0xC8 JUMP JUMPDEST PUSH1 0x40 MLOAD PUSH2 0x94 SWAP2 SWAP1 PUSH2 0x170 JUMP JUMPDEST PUSH1 0x40 MLOAD DUP1 SWAP2 SUB SWAP1 RETURN JUMPDEST CALLVALUE DUP1 ISZERO PUSH2 0xA9 JUMPI PUSH1 0x0 DUP1 REVERT JUMPDEST POP PUSH2 0xB2 PUSH2 0xD0 JUMP JUMPDEST PUSH1 0x40 MLOAD PUSH2 0xBF SWAP2 SWAP1 PUSH2 0x119 JUMP JUMPDEST PUSH1 0x40 MLOAD DUP1 SWAP2 SUB SWAP1 RETURN JUMPDEST PUSH1 0x0 SELFBALANCE SWAP1 POP SWAP1 JUMP JUMPDEST PUSH1 0x0 ADDRESS SWAP1 POP SWAP1 JUMP JUMPDEST PUSH2 0xE1 DUP2 PUSH2 0x19C JUMP JUMPDEST DUP3 MSTORE POP POP JUMP JUMPDEST PUSH1 0x0 PUSH2 0xF4 PUSH1 0x13 DUP4 PUSH2 0x18B JUMP JUMPDEST SWAP2 POP PUSH2 0xFF DUP3 PUSH2 0x1D8 JUMP JUMPDEST PUSH1 0x20 DUP3 ADD SWAP1 POP SWAP2 SWAP1 POP JUMP JUMPDEST PUSH2 0x113 DUP2 PUSH2 0x1CE JUMP JUMPDEST DUP3 MSTORE POP POP JUMP JUMPDEST PUSH1 0x0 PUSH1 0x20 DUP3 ADD SWAP1 POP PUSH2 0x12E PUSH1 0x0 DUP4 ADD DUP5 PUSH2 0xD8 JUMP JUMPDEST SWAP3 SWAP2 POP POP JUMP JUMPDEST PUSH1 0x0 PUSH1 0x60 DUP3 ADD SWAP1 POP PUSH2 0x149 PUSH1 0x0 DUP4 ADD DUP6 PUSH2 0xD8 JUMP JUMPDEST PUSH2 0x156 PUSH1 0x20 DUP4 ADD DUP5 PUSH2 0x10A JUMP JUMPDEST DUP2 DUP2 SUB PUSH1 0x40 DUP4 ADD MSTORE PUSH2 0x167 DUP2 PUSH2 0xE7 JUMP JUMPDEST SWAP1 POP SWAP4 SWAP3 POP POP POP JUMP JUMPDEST PUSH1 0x0 PUSH1 0x20 DUP3 ADD SWAP1 POP PUSH2 0x185 PUSH1 0x0 DUP4 ADD DUP5 PUSH2 0x10A JUMP JUMPDEST SWAP3 SWAP2 POP POP JUMP JUMPDEST PUSH1 0x0 DUP3 DUP3 MSTORE PUSH1 0x20 DUP3 ADD SWAP1 POP SWAP3 SWAP2 POP POP JUMP JUMPDEST PUSH1 0x0 PUSH2 0x1A7 DUP3 PUSH2 0x1AE JUMP JUMPDEST SWAP1 POP SWAP2 SWAP1 POP JUMP JUMPDEST PUSH1 0x0 PUSH20 0xFFFFFFFFFFFFFFFFFFFFFFFFFFFFFFFFFFFFFFFF DUP3 AND SWAP1 POP SWAP2 SWAP1 POP JUMP JUMPDEST PUSH1 0x0 DUP2 SWAP1 POP SWAP2 SWAP1 POP JUMP JUMPDEST PUSH32 0x5265636569766564207761732063616C6C656400000000000000000000000000 PUSH1 0x0 DUP3 ADD MSTORE POP JUMP INVALID LOG2 PUSH5 0x6970667358 0x22 SLT KECCAK256 SWAP11 0xA6 PUSH4 0x8C8D58D5 0xE2 EXTCODECOPY MOD 0x4F 0xAD 0xF PC 0xBA STATICCALL PUSH31 0xD450C651D612008F6A02589AB755EC64736F6C634300080700330000000000 "
				},
				"gasEstimates": {
					"creation": {
						"codeDepositCost": "113400",
						"executionCost": "159",
						"totalCost": "113559"
					},
					"external": {
						"getAddress()": "385",
						"getBalance()": "317"
					}
				},
				"methodIdentifiers": {
					"getAddress()": "38cc4831",
					"getBalance()": "12065fe0"
				}
			},
			"storageLayout": {
				"storage": [],
				"types": null
			},
			"userdoc": {
				"kind": "user",
				"methods": {},
				"version": 1
			}
		}
	}
}