{
	"contracts/7_EnumStudy.sol": {
		"EnumStudy": {
			"abi": [
				{
					"inputs": [],
					"name": "getStatus",
					"outputs": [
						{
							"internalType": "enum EnumStudy.Status",
							"name": "",
							"type": "uint8"
						}
					],
					"stateMutability": "view",
					"type": "function"
				},
				{
					"inputs": [
						{
							"internalType": "string",
							"name": "_status",
							"type": "string"
						}
					],
					"name": "getValueByKey",
					"outputs": [
						{
							"internalType": "enum EnumStudy.Status",
							"name": "",
							"type": "uint8"
						}
					],
					"stateMutability": "pure",
					"type": "function"
				},
				{
					"inputs": [],
					"name": "resetStatus",
					"outputs": [],
					"stateMutability": "nonpayable",
					"type": "function"
				},
				{
					"inputs": [
						{
							"internalType": "enum EnumStudy.Status",
							"name": "_status",
							"type": "uint8"
						}
					],
					"name": "setStatus",
					"outputs": [],
					"stateMutability": "nonpayable",
					"type": "function"
				}
			],
			"devdoc": {
				"kind": "dev",
				"methods": {},
				"version": 1
			},
			"evm": {
				"assembly": "    /* \"contracts/7_EnumStudy.sol\":70:663  contract EnumStudy{... */\n  mstore(0x40, 0x80)\n  callvalue\n  dup1\n  iszero\n  tag_1\n  jumpi\n  0x00\n  dup1\n  revert\ntag_1:\n  pop\n  dataSize(sub_0)\n  dup1\n  dataOffset(sub_0)\n  0x00\n  codecopy\n  0x00\n  return\nstop\n\nsub_0: assembly {\n        /* \"contracts/7_EnumStudy.sol\":70:663  contract EnumStudy{... */\n      mstore(0x40, 0x80)\n      callvalue\n      dup1\n      iszero\n      tag_1\n      jumpi\n      0x00\n      dup1\n      revert\n    tag_1:\n      pop\n      jumpi(tag_2, lt(calldatasize, 0x04))\n      shr(0xe0, calldataload(0x00))\n      dup1\n      0x1258a93a\n      eq\n      tag_3\n      jumpi\n      dup1\n      0x2e49d78b\n      eq\n      tag_4\n      jumpi\n      dup1\n      0x4e69d560\n      eq\n      tag_5\n      jumpi\n      dup1\n      0x8c3c4c62\n      eq\n      tag_6\n      jumpi\n    tag_2:\n      0x00\n      dup1\n      revert\n        /* \"contracts/7_EnumStudy.sol\":398:660  function getValueByKey(string memory _status) pure external returns(Status){... */\n    tag_3:\n      tag_7\n      0x04\n      dup1\n      calldatasize\n      sub\n      dup2\n      add\n      swap1\n      tag_8\n      swap2\n      swap1\n      tag_9\n      jump\t// in\n    tag_8:\n      tag_10\n      jump\t// in\n    tag_7:\n      mload(0x40)\n      tag_11\n      swap2\n      swap1\n      tag_12\n      jump\t// in\n    tag_11:\n      mload(0x40)\n      dup1\n      swap2\n      sub\n      swap1\n      return\n        /* \"contracts/7_EnumStudy.sol\":249:325  function setStatus(Status _status) external{... */\n    tag_4:\n      tag_13\n      0x04\n      dup1\n      calldatasize\n      sub\n      dup2\n      add\n      swap1\n      tag_14\n      swap2\n      swap1\n      tag_15\n      jump\t// in\n    tag_14:\n      tag_16\n      jump\t// in\n    tag_13:\n      stop\n        /* \"contracts/7_EnumStudy.sol\":163:243  function getStatus() view external returns(Status){... */\n    tag_5:\n      tag_17\n      tag_18\n      jump\t// in\n    tag_17:\n      mload(0x40)\n      tag_19\n      swap2\n      swap1\n      tag_12\n      jump\t// in\n    tag_19:\n      mload(0x40)\n      dup1\n      swap2\n      sub\n      swap1\n      return\n        /* \"contracts/7_EnumStudy.sol\":331:392  function resetStatus() external{... */\n    tag_6:\n      tag_20\n      tag_21\n      jump\t// in\n    tag_20:\n      stop\n        /* \"contracts/7_EnumStudy.sol\":398:660  function getValueByKey(string memory _status) pure external returns(Status){... */\n    tag_10:\n        /* \"contracts/7_EnumStudy.sol\":466:472  Status */\n      0x00\n        /* \"contracts/7_EnumStudy.sol\":523:535  bytes('OFF') */\n      mload(0x40)\n      dup1\n      0x40\n      add\n      0x40\n      mstore\n      dup1\n      0x03\n      dup2\n      mstore\n      0x20\n      add\n      0x4f46460000000000000000000000000000000000000000000000000000000000\n      dup2\n      mstore\n      pop\n        /* \"contracts/7_EnumStudy.sol\":513:536  keccak256(bytes('OFF')) */\n      dup1\n      mload\n      swap1\n      0x20\n      add\n      keccak256\n        /* \"contracts/7_EnumStudy.sol\":502:509  _status */\n      dup3\n        /* \"contracts/7_EnumStudy.sol\":486:511  keccak256(bytes(_status)) */\n      dup1\n      mload\n      swap1\n      0x20\n      add\n      keccak256\n        /* \"contracts/7_EnumStudy.sol\":486:536  keccak256(bytes(_status))==keccak256(bytes('OFF')) */\n      eq\n        /* \"contracts/7_EnumStudy.sol\":483:555  if(keccak256(bytes(_status))==keccak256(bytes('OFF'))) return Status.OFF */\n      iszero\n      tag_23\n      jumpi\n        /* \"contracts/7_EnumStudy.sol\":545:555  Status.OFF */\n      0x01\n        /* \"contracts/7_EnumStudy.sol\":538:555  return Status.OFF */\n      swap1\n      pop\n      jump(tag_22)\n        /* \"contracts/7_EnumStudy.sol\":483:555  if(keccak256(bytes(_status))==keccak256(bytes('OFF'))) return Status.OFF */\n    tag_23:\n        /* \"contracts/7_EnumStudy.sol\":605:616  bytes('ON') */\n      mload(0x40)\n      dup1\n      0x40\n      add\n      0x40\n      mstore\n      dup1\n      0x02\n      dup2\n      mstore\n      0x20\n      add\n      0x4f4e000000000000000000000000000000000000000000000000000000000000\n      dup2\n      mstore\n      pop\n        /* \"contracts/7_EnumStudy.sol\":595:617  keccak256(bytes('ON')) */\n      dup1\n      mload\n      swap1\n      0x20\n      add\n      keccak256\n        /* \"contracts/7_EnumStudy.sol\":584:591  _status */\n      dup3\n        /* \"contracts/7_EnumStudy.sol\":568:593  keccak256(bytes(_status)) */\n      dup1\n      mload\n      swap1\n      0x20\n      add\n      keccak256\n        /* \"contracts/7_EnumStudy.sol\":568:617  keccak256(bytes(_status))==keccak256(bytes('ON')) */\n      eq\n        /* \"contracts/7_EnumStudy.sol\":565:635  if(keccak256(bytes(_status))==keccak256(bytes('ON'))) return Status.ON */\n      iszero\n      tag_24\n      jumpi\n        /* \"contracts/7_EnumStudy.sol\":626:635  Status.ON */\n      0x00\n        /* \"contracts/7_EnumStudy.sol\":619:635  return Status.ON */\n      swap1\n      pop\n      jump(tag_22)\n        /* \"contracts/7_EnumStudy.sol\":565:635  if(keccak256(bytes(_status))==keccak256(bytes('ON'))) return Status.ON */\n    tag_24:\n        /* \"contracts/7_EnumStudy.sol\":645:653  revert() */\n      0x00\n      dup1\n      revert\n        /* \"contracts/7_EnumStudy.sol\":398:660  function getValueByKey(string memory _status) pure external returns(Status){... */\n    tag_22:\n      swap2\n      swap1\n      pop\n      jump\t// out\n        /* \"contracts/7_EnumStudy.sol\":249:325  function setStatus(Status _status) external{... */\n    tag_16:\n        /* \"contracts/7_EnumStudy.sol\":311:318  _status */\n      dup1\n        /* \"contracts/7_EnumStudy.sol\":302:308  status */\n      0x00\n      dup1\n        /* \"contracts/7_EnumStudy.sol\":302:318  status = _status */\n      0x0100\n      exp\n      dup2\n      sload\n      dup2\n      0xff\n      mul\n      not\n      and\n      swap1\n      dup4\n      0x01\n      dup2\n      gt\n      iszero\n      tag_26\n      jumpi\n      tag_27\n      tag_28\n      jump\t// in\n    tag_27:\n    tag_26:\n      mul\n      or\n      swap1\n      sstore\n      pop\n        /* \"contracts/7_EnumStudy.sol\":249:325  function setStatus(Status _status) external{... */\n      pop\n      jump\t// out\n        /* \"contracts/7_EnumStudy.sol\":163:243  function getStatus() view external returns(Status){... */\n    tag_18:\n        /* \"contracts/7_EnumStudy.sol\":206:212  Status */\n      0x00\n        /* \"contracts/7_EnumStudy.sol\":230:236  status */\n      dup1\n      0x00\n      swap1\n      sload\n      swap1\n      0x0100\n      exp\n      swap1\n      div\n      0xff\n      and\n        /* \"contracts/7_EnumStudy.sol\":223:236  return status */\n      swap1\n      pop\n        /* \"contracts/7_EnumStudy.sol\":163:243  function getStatus() view external returns(Status){... */\n      swap1\n      jump\t// out\n        /* \"contracts/7_EnumStudy.sol\":331:392  function resetStatus() external{... */\n    tag_21:\n        /* \"contracts/7_EnumStudy.sol\":379:385  status */\n      0x00\n      dup1\n        /* \"contracts/7_EnumStudy.sol\":372:385  delete status */\n      0x0100\n      exp\n      dup2\n      sload\n      swap1\n      0xff\n      mul\n      not\n      and\n      swap1\n      sstore\n        /* \"contracts/7_EnumStudy.sol\":331:392  function resetStatus() external{... */\n      jump\t// out\n        /* \"#utility.yul\":7:419   */\n    tag_32:\n        /* \"#utility.yul\":85:90   */\n      0x00\n        /* \"#utility.yul\":110:176   */\n      tag_34\n        /* \"#utility.yul\":126:175   */\n      tag_35\n        /* \"#utility.yul\":168:174   */\n      dup5\n        /* \"#utility.yul\":126:175   */\n      tag_36\n      jump\t// in\n    tag_35:\n        /* \"#utility.yul\":110:176   */\n      tag_37\n      jump\t// in\n    tag_34:\n        /* \"#utility.yul\":101:176   */\n      swap1\n      pop\n        /* \"#utility.yul\":199:205   */\n      dup3\n        /* \"#utility.yul\":192:197   */\n      dup2\n        /* \"#utility.yul\":185:206   */\n      mstore\n        /* \"#utility.yul\":237:241   */\n      0x20\n        /* \"#utility.yul\":230:235   */\n      dup2\n        /* \"#utility.yul\":226:242   */\n      add\n        /* \"#utility.yul\":275:278   */\n      dup5\n        /* \"#utility.yul\":266:272   */\n      dup5\n        /* \"#utility.yul\":261:264   */\n      dup5\n        /* \"#utility.yul\":257:273   */\n      add\n        /* \"#utility.yul\":254:279   */\n      gt\n        /* \"#utility.yul\":251:363   */\n      iszero\n      tag_38\n      jumpi\n        /* \"#utility.yul\":282:361   */\n      tag_39\n      tag_40\n      jump\t// in\n    tag_39:\n        /* \"#utility.yul\":251:363   */\n    tag_38:\n        /* \"#utility.yul\":372:413   */\n      tag_41\n        /* \"#utility.yul\":406:412   */\n      dup5\n        /* \"#utility.yul\":401:404   */\n      dup3\n        /* \"#utility.yul\":396:399   */\n      dup6\n        /* \"#utility.yul\":372:413   */\n      tag_42\n      jump\t// in\n    tag_41:\n        /* \"#utility.yul\":91:419   */\n      pop\n        /* \"#utility.yul\":7:419   */\n      swap4\n      swap3\n      pop\n      pop\n      pop\n      jump\t// out\n        /* \"#utility.yul\":425:580   */\n    tag_43:\n        /* \"#utility.yul\":479:484   */\n      0x00\n        /* \"#utility.yul\":517:523   */\n      dup2\n        /* \"#utility.yul\":504:524   */\n      calldataload\n        /* \"#utility.yul\":495:524   */\n      swap1\n      pop\n        /* \"#utility.yul\":533:574   */\n      tag_45\n        /* \"#utility.yul\":568:573   */\n      dup2\n        /* \"#utility.yul\":533:574   */\n      tag_46\n      jump\t// in\n    tag_45:\n        /* \"#utility.yul\":425:580   */\n      swap3\n      swap2\n      pop\n      pop\n      jump\t// out\n        /* \"#utility.yul\":600:940   */\n    tag_47:\n        /* \"#utility.yul\":656:661   */\n      0x00\n        /* \"#utility.yul\":705:708   */\n      dup3\n        /* \"#utility.yul\":698:702   */\n      0x1f\n        /* \"#utility.yul\":690:696   */\n      dup4\n        /* \"#utility.yul\":686:703   */\n      add\n        /* \"#utility.yul\":682:709   */\n      slt\n        /* \"#utility.yul\":672:794   */\n      tag_49\n      jumpi\n        /* \"#utility.yul\":713:792   */\n      tag_50\n      tag_51\n      jump\t// in\n    tag_50:\n        /* \"#utility.yul\":672:794   */\n    tag_49:\n        /* \"#utility.yul\":830:836   */\n      dup2\n        /* \"#utility.yul\":817:837   */\n      calldataload\n        /* \"#utility.yul\":855:934   */\n      tag_52\n        /* \"#utility.yul\":930:933   */\n      dup5\n        /* \"#utility.yul\":922:928   */\n      dup3\n        /* \"#utility.yul\":915:919   */\n      0x20\n        /* \"#utility.yul\":907:913   */\n      dup7\n        /* \"#utility.yul\":903:920   */\n      add\n        /* \"#utility.yul\":855:934   */\n      tag_32\n      jump\t// in\n    tag_52:\n        /* \"#utility.yul\":846:934   */\n      swap2\n      pop\n        /* \"#utility.yul\":662:940   */\n      pop\n        /* \"#utility.yul\":600:940   */\n      swap3\n      swap2\n      pop\n      pop\n      jump\t// out\n        /* \"#utility.yul\":946:1291   */\n    tag_15:\n        /* \"#utility.yul\":1013:1019   */\n      0x00\n        /* \"#utility.yul\":1062:1064   */\n      0x20\n        /* \"#utility.yul\":1050:1059   */\n      dup3\n        /* \"#utility.yul\":1041:1048   */\n      dup5\n        /* \"#utility.yul\":1037:1060   */\n      sub\n        /* \"#utility.yul\":1033:1065   */\n      slt\n        /* \"#utility.yul\":1030:1149   */\n      iszero\n      tag_54\n      jumpi\n        /* \"#utility.yul\":1068:1147   */\n      tag_55\n      tag_56\n      jump\t// in\n    tag_55:\n        /* \"#utility.yul\":1030:1149   */\n    tag_54:\n        /* \"#utility.yul\":1188:1189   */\n      0x00\n        /* \"#utility.yul\":1213:1274   */\n      tag_57\n        /* \"#utility.yul\":1266:1273   */\n      dup5\n        /* \"#utility.yul\":1257:1263   */\n      dup3\n        /* \"#utility.yul\":1246:1255   */\n      dup6\n        /* \"#utility.yul\":1242:1264   */\n      add\n        /* \"#utility.yul\":1213:1274   */\n      tag_43\n      jump\t// in\n    tag_57:\n        /* \"#utility.yul\":1203:1274   */\n      swap2\n      pop\n        /* \"#utility.yul\":1159:1284   */\n      pop\n        /* \"#utility.yul\":946:1291   */\n      swap3\n      swap2\n      pop\n      pop\n      jump\t// out\n        /* \"#utility.yul\":1297:1806   */\n    tag_9:\n        /* \"#utility.yul\":1366:1372   */\n      0x00\n        /* \"#utility.yul\":1415:1417   */\n      0x20\n        /* \"#utility.yul\":1403:1412   */\n      dup3\n        /* \"#utility.yul\":1394:1401   */\n      dup5\n        /* \"#utility.yul\":1390:1413   */\n      sub\n        /* \"#utility.yul\":1386:1418   */\n      slt\n        /* \"#utility.yul\":1383:1502   */\n      iszero\n      tag_59\n      jumpi\n        /* \"#utility.yul\":1421:1500   */\n      tag_60\n      tag_56\n      jump\t// in\n    tag_60:\n        /* \"#utility.yul\":1383:1502   */\n    tag_59:\n        /* \"#utility.yul\":1569:1570   */\n      0x00\n        /* \"#utility.yul\":1558:1567   */\n      dup3\n        /* \"#utility.yul\":1554:1571   */\n      add\n        /* \"#utility.yul\":1541:1572   */\n      calldataload\n        /* \"#utility.yul\":1599:1617   */\n      0xffffffffffffffff\n        /* \"#utility.yul\":1591:1597   */\n      dup2\n        /* \"#utility.yul\":1588:1618   */\n      gt\n        /* \"#utility.yul\":1585:1702   */\n      iszero\n      tag_61\n      jumpi\n        /* \"#utility.yul\":1621:1700   */\n      tag_62\n      tag_63\n      jump\t// in\n    tag_62:\n        /* \"#utility.yul\":1585:1702   */\n    tag_61:\n        /* \"#utility.yul\":1726:1789   */\n      tag_64\n        /* \"#utility.yul\":1781:1788   */\n      dup5\n        /* \"#utility.yul\":1772:1778   */\n      dup3\n        /* \"#utility.yul\":1761:1770   */\n      dup6\n        /* \"#utility.yul\":1757:1779   */\n      add\n        /* \"#utility.yul\":1726:1789   */\n      tag_47\n      jump\t// in\n    tag_64:\n        /* \"#utility.yul\":1716:1789   */\n      swap2\n      pop\n        /* \"#utility.yul\":1512:1799   */\n      pop\n        /* \"#utility.yul\":1297:1806   */\n      swap3\n      swap2\n      pop\n      pop\n      jump\t// out\n        /* \"#utility.yul\":1812:1955   */\n    tag_65:\n        /* \"#utility.yul\":1905:1948   */\n      tag_67\n        /* \"#utility.yul\":1942:1947   */\n      dup2\n        /* \"#utility.yul\":1905:1948   */\n      tag_68\n      jump\t// in\n    tag_67:\n        /* \"#utility.yul\":1900:1903   */\n      dup3\n        /* \"#utility.yul\":1893:1949   */\n      mstore\n        /* \"#utility.yul\":1812:1955   */\n      pop\n      pop\n      jump\t// out\n        /* \"#utility.yul\":1961:2195   */\n    tag_12:\n        /* \"#utility.yul\":2060:2064   */\n      0x00\n        /* \"#utility.yul\":2098:2100   */\n      0x20\n        /* \"#utility.yul\":2087:2096   */\n      dup3\n        /* \"#utility.yul\":2083:2101   */\n      add\n        /* \"#utility.yul\":2075:2101   */\n      swap1\n      pop\n        /* \"#utility.yul\":2111:2188   */\n      tag_70\n        /* \"#utility.yul\":2185:2186   */\n      0x00\n        /* \"#utility.yul\":2174:2183   */\n      dup4\n        /* \"#utility.yul\":2170:2187   */\n      add\n        /* \"#utility.yul\":2161:2167   */\n      dup5\n        /* \"#utility.yul\":2111:2188   */\n      tag_65\n      jump\t// in\n    tag_70:\n        /* \"#utility.yul\":1961:2195   */\n      swap3\n      swap2\n      pop\n      pop\n      jump\t// out\n        /* \"#utility.yul\":2201:2330   */\n    tag_37:\n        /* \"#utility.yul\":2235:2241   */\n      0x00\n        /* \"#utility.yul\":2262:2282   */\n      tag_72\n      tag_73\n      jump\t// in\n    tag_72:\n        /* \"#utility.yul\":2252:2282   */\n      swap1\n      pop\n        /* \"#utility.yul\":2291:2324   */\n      tag_74\n        /* \"#utility.yul\":2319:2323   */\n      dup3\n        /* \"#utility.yul\":2311:2317   */\n      dup3\n        /* \"#utility.yul\":2291:2324   */\n      tag_75\n      jump\t// in\n    tag_74:\n        /* \"#utility.yul\":2201:2330   */\n      swap2\n      swap1\n      pop\n      jump\t// out\n        /* \"#utility.yul\":2336:2411   */\n    tag_73:\n        /* \"#utility.yul\":2369:2375   */\n      0x00\n        /* \"#utility.yul\":2402:2404   */\n      0x40\n        /* \"#utility.yul\":2396:2405   */\n      mload\n        /* \"#utility.yul\":2386:2405   */\n      swap1\n      pop\n        /* \"#utility.yul\":2336:2411   */\n      swap1\n      jump\t// out\n        /* \"#utility.yul\":2417:2725   */\n    tag_36:\n        /* \"#utility.yul\":2479:2483   */\n      0x00\n        /* \"#utility.yul\":2569:2587   */\n      0xffffffffffffffff\n        /* \"#utility.yul\":2561:2567   */\n      dup3\n        /* \"#utility.yul\":2558:2588   */\n      gt\n        /* \"#utility.yul\":2555:2611   */\n      iszero\n      tag_78\n      jumpi\n        /* \"#utility.yul\":2591:2609   */\n      tag_79\n      tag_80\n      jump\t// in\n    tag_79:\n        /* \"#utility.yul\":2555:2611   */\n    tag_78:\n        /* \"#utility.yul\":2629:2658   */\n      tag_81\n        /* \"#utility.yul\":2651:2657   */\n      dup3\n        /* \"#utility.yul\":2629:2658   */\n      tag_82\n      jump\t// in\n    tag_81:\n        /* \"#utility.yul\":2621:2658   */\n      swap1\n      pop\n        /* \"#utility.yul\":2713:2717   */\n      0x20\n        /* \"#utility.yul\":2707:2711   */\n      dup2\n        /* \"#utility.yul\":2703:2718   */\n      add\n        /* \"#utility.yul\":2695:2718   */\n      swap1\n      pop\n        /* \"#utility.yul\":2417:2725   */\n      swap2\n      swap1\n      pop\n      jump\t// out\n        /* \"#utility.yul\":2731:2858   */\n    tag_83:\n        /* \"#utility.yul\":2776:2783   */\n      0x00\n        /* \"#utility.yul\":2805:2810   */\n      dup2\n        /* \"#utility.yul\":2794:2810   */\n      swap1\n      pop\n        /* \"#utility.yul\":2811:2852   */\n      tag_85\n        /* \"#utility.yul\":2846:2851   */\n      dup3\n        /* \"#utility.yul\":2811:2852   */\n      tag_86\n      jump\t// in\n    tag_85:\n        /* \"#utility.yul\":2731:2858   */\n      swap2\n      swap1\n      pop\n      jump\t// out\n        /* \"#utility.yul\":2864:2991   */\n    tag_68:\n        /* \"#utility.yul\":2920:2929   */\n      0x00\n        /* \"#utility.yul\":2953:2985   */\n      tag_88\n        /* \"#utility.yul\":2979:2984   */\n      dup3\n        /* \"#utility.yul\":2953:2985   */\n      tag_83\n      jump\t// in\n    tag_88:\n        /* \"#utility.yul\":2940:2985   */\n      swap1\n      pop\n        /* \"#utility.yul\":2864:2991   */\n      swap2\n      swap1\n      pop\n      jump\t// out\n        /* \"#utility.yul\":2997:3151   */\n    tag_42:\n        /* \"#utility.yul\":3081:3087   */\n      dup3\n        /* \"#utility.yul\":3076:3079   */\n      dup2\n        /* \"#utility.yul\":3071:3074   */\n      dup4\n        /* \"#utility.yul\":3058:3088   */\n      calldatacopy\n        /* \"#utility.yul\":3143:3144   */\n      0x00\n        /* \"#utility.yul\":3134:3140   */\n      dup4\n        /* \"#utility.yul\":3129:3132   */\n      dup4\n        /* \"#utility.yul\":3125:3141   */\n      add\n        /* \"#utility.yul\":3118:3145   */\n      mstore\n        /* \"#utility.yul\":2997:3151   */\n      pop\n      pop\n      pop\n      jump\t// out\n        /* \"#utility.yul\":3157:3438   */\n    tag_75:\n        /* \"#utility.yul\":3240:3267   */\n      tag_91\n        /* \"#utility.yul\":3262:3266   */\n      dup3\n        /* \"#utility.yul\":3240:3267   */\n      tag_82\n      jump\t// in\n    tag_91:\n        /* \"#utility.yul\":3232:3238   */\n      dup2\n        /* \"#utility.yul\":3228:3268   */\n      add\n        /* \"#utility.yul\":3370:3376   */\n      dup2\n        /* \"#utility.yul\":3358:3368   */\n      dup2\n        /* \"#utility.yul\":3355:3377   */\n      lt\n        /* \"#utility.yul\":3334:3352   */\n      0xffffffffffffffff\n        /* \"#utility.yul\":3322:3332   */\n      dup3\n        /* \"#utility.yul\":3319:3353   */\n      gt\n        /* \"#utility.yul\":3316:3378   */\n      or\n        /* \"#utility.yul\":3313:3401   */\n      iszero\n      tag_92\n      jumpi\n        /* \"#utility.yul\":3381:3399   */\n      tag_93\n      tag_80\n      jump\t// in\n    tag_93:\n        /* \"#utility.yul\":3313:3401   */\n    tag_92:\n        /* \"#utility.yul\":3421:3431   */\n      dup1\n        /* \"#utility.yul\":3417:3419   */\n      0x40\n        /* \"#utility.yul\":3410:3432   */\n      mstore\n        /* \"#utility.yul\":3200:3438   */\n      pop\n        /* \"#utility.yul\":3157:3438   */\n      pop\n      pop\n      jump\t// out\n        /* \"#utility.yul\":3444:3624   */\n    tag_28:\n        /* \"#utility.yul\":3492:3569   */\n      0x4e487b7100000000000000000000000000000000000000000000000000000000\n        /* \"#utility.yul\":3489:3490   */\n      0x00\n        /* \"#utility.yul\":3482:3570   */\n      mstore\n        /* \"#utility.yul\":3589:3593   */\n      0x21\n        /* \"#utility.yul\":3586:3587   */\n      0x04\n        /* \"#utility.yul\":3579:3594   */\n      mstore\n        /* \"#utility.yul\":3613:3617   */\n      0x24\n        /* \"#utility.yul\":3610:3611   */\n      0x00\n        /* \"#utility.yul\":3603:3618   */\n      revert\n        /* \"#utility.yul\":3630:3810   */\n    tag_80:\n        /* \"#utility.yul\":3678:3755   */\n      0x4e487b7100000000000000000000000000000000000000000000000000000000\n        /* \"#utility.yul\":3675:3676   */\n      0x00\n        /* \"#utility.yul\":3668:3756   */\n      mstore\n        /* \"#utility.yul\":3775:3779   */\n      0x41\n        /* \"#utility.yul\":3772:3773   */\n      0x04\n        /* \"#utility.yul\":3765:3780   */\n      mstore\n        /* \"#utility.yul\":3799:3803   */\n      0x24\n        /* \"#utility.yul\":3796:3797   */\n      0x00\n        /* \"#utility.yul\":3789:3804   */\n      revert\n        /* \"#utility.yul\":3816:3933   */\n    tag_51:\n        /* \"#utility.yul\":3925:3926   */\n      0x00\n        /* \"#utility.yul\":3922:3923   */\n      dup1\n        /* \"#utility.yul\":3915:3927   */\n      revert\n        /* \"#utility.yul\":3939:4056   */\n    tag_40:\n        /* \"#utility.yul\":4048:4049   */\n      0x00\n        /* \"#utility.yul\":4045:4046   */\n      dup1\n        /* \"#utility.yul\":4038:4050   */\n      revert\n        /* \"#utility.yul\":4062:4179   */\n    tag_63:\n        /* \"#utility.yul\":4171:4172   */\n      0x00\n        /* \"#utility.yul\":4168:4169   */\n      dup1\n        /* \"#utility.yul\":4161:4173   */\n      revert\n        /* \"#utility.yul\":4185:4302   */\n    tag_56:\n        /* \"#utility.yul\":4294:4295   */\n      0x00\n        /* \"#utility.yul\":4291:4292   */\n      dup1\n        /* \"#utility.yul\":4284:4296   */\n      revert\n        /* \"#utility.yul\":4308:4410   */\n    tag_82:\n        /* \"#utility.yul\":4349:4355   */\n      0x00\n        /* \"#utility.yul\":4400:4402   */\n      0x1f\n        /* \"#utility.yul\":4396:4403   */\n      not\n        /* \"#utility.yul\":4391:4393   */\n      0x1f\n        /* \"#utility.yul\":4384:4389   */\n      dup4\n        /* \"#utility.yul\":4380:4394   */\n      add\n        /* \"#utility.yul\":4376:4404   */\n      and\n        /* \"#utility.yul\":4366:4404   */\n      swap1\n      pop\n        /* \"#utility.yul\":4308:4410   */\n      swap2\n      swap1\n      pop\n      jump\t// out\n        /* \"#utility.yul\":4416:4529   */\n    tag_86:\n        /* \"#utility.yul\":4497:4498   */\n      0x02\n        /* \"#utility.yul\":4490:4495   */\n      dup2\n        /* \"#utility.yul\":4487:4499   */\n      lt\n        /* \"#utility.yul\":4477:4523   */\n      tag_102\n      jumpi\n        /* \"#utility.yul\":4503:4521   */\n      tag_103\n      tag_28\n      jump\t// in\n    tag_103:\n        /* \"#utility.yul\":4477:4523   */\n    tag_102:\n        /* \"#utility.yul\":4416:4529   */\n      pop\n      jump\t// out\n        /* \"#utility.yul\":4535:4642   */\n    tag_46:\n        /* \"#utility.yul\":4616:4617   */\n      0x02\n        /* \"#utility.yul\":4609:4614   */\n      dup2\n        /* \"#utility.yul\":4606:4618   */\n      lt\n        /* \"#utility.yul\":4596:4636   */\n      tag_105\n      jumpi\n        /* \"#utility.yul\":4632:4633   */\n      0x00\n        /* \"#utility.yul\":4629:4630   */\n      dup1\n        /* \"#utility.yul\":4622:4634   */\n      revert\n        /* \"#utility.yul\":4596:4636   */\n    tag_105:\n        /* \"#utility.yul\":4535:4642   */\n      pop\n      jump\t// out\n\n    auxdata: 0xa2646970667358221220b0c2537bfabb833620a55671d9cbc17d56c5911e197e56602c0820cf7b08d6bf64736f6c63430008070033\n}\n",
				"bytecode": {
					"linkReferences": {},
					"object": "608060405234801561001057600080fd5b5061048b806100206000396000f3fe608060405234801561001057600080fd5b506004361061004c5760003560e01c80631258a93a146100515780632e49d78b146100815780634e69d5601461009d5780638c3c4c62146100bb575b600080fd5b61006b60048036038101906100669190610280565b6100c5565b60405161007891906102d8565b60405180910390f35b61009b60048036038101906100969190610253565b610179565b005b6100a56101a5565b6040516100b291906102d8565b60405180910390f35b6100c36101bb565b005b60006040518060400160405280600381526020017f4f46460000000000000000000000000000000000000000000000000000000000815250805190602001208280519060200120141561011b5760019050610174565b6040518060400160405280600281526020017f4f4e000000000000000000000000000000000000000000000000000000000000815250805190602001208280519060200120141561016f5760009050610174565b600080fd5b919050565b806000806101000a81548160ff0219169083600181111561019d5761019c6103ae565b5b021790555050565b60008060009054906101000a900460ff16905090565b6000806101000a81549060ff0219169055565b60006101e16101dc84610318565b6102f3565b9050828152602081018484840111156101fd576101fc610411565b5b61020884828561036e565b509392505050565b60008135905061021f81610445565b92915050565b600082601f83011261023a5761023961040c565b5b813561024a8482602086016101ce565b91505092915050565b6000602082840312156102695761026861041b565b5b600061027784828501610210565b91505092915050565b6000602082840312156102965761029561041b565b5b600082013567ffffffffffffffff8111156102b4576102b3610416565b5b6102c084828501610225565b91505092915050565b6102d28161035c565b82525050565b60006020820190506102ed60008301846102c9565b92915050565b60006102fd61030e565b9050610309828261037d565b919050565b6000604051905090565b600067ffffffffffffffff821115610333576103326103dd565b5b61033c82610420565b9050602081019050919050565b600081905061035782610431565b919050565b600061036782610349565b9050919050565b82818337600083830152505050565b61038682610420565b810181811067ffffffffffffffff821117156103a5576103a46103dd565b5b80604052505050565b7f4e487b7100000000000000000000000000000000000000000000000000000000600052602160045260246000fd5b7f4e487b7100000000000000000000000000000000000000000000000000000000600052604160045260246000fd5b600080fd5b600080fd5b600080fd5b600080fd5b6000601f19601f8301169050919050565b60028110610442576104416103ae565b5b50565b6002811061045257600080fd5b5056fea2646970667358221220b0c2537bfabb833620a55671d9cbc17d56c5911e197e56602c0820cf7b08d6bf64736f6c63430008070033",
					"opcodes": "PUSH1 0x80 PUSH1 0x40 MSTORE CALLVALUE DUP1 ISZERO PUSH2 0x10 JUMPI PUSH1 0x0 DUP1 REVERT JUMPDEST POP PUSH2 0x48B DUP1 PUSH2 0x20 PUSH1 0x0 CODECOPY PUSH1 0x0 RETURN INVALID PUSH1 0x80 PUSH1 0x40 MSTORE CALLVALUE DUP1 ISZERO PUSH2 0x10 JUMPI PUSH1 0x0 DUP1 REVERT JUMPDEST POP PUSH1 0x4 CALLDATASIZE LT PUSH2 0x4C JUMPI PUSH1 0x0 CALLDATALOAD PUSH1 0xE0 SHR DUP1 PUSH4 0x1258A93A EQ PUSH2 0x51 JUMPI DUP1 PUSH4 0x2E49D78B EQ PUSH2 0x81 JUMPI DUP1 PUSH4 0x4E69D560 EQ PUSH2 0x9D JUMPI DUP1 PUSH4 0x8C3C4C62 EQ PUSH2 0xBB JUMPI JUMPDEST PUSH1 0x0 DUP1 REVERT JUMPDEST PUSH2 0x6B PUSH1 0x4 DUP1 CALLDATASIZE SUB DUP2 ADD SWAP1 PUSH2 0x66 SWAP2 SWAP1 PUSH2 0x280 JUMP JUMPDEST PUSH2 0xC5 JUMP JUMPDEST PUSH1 0x40 MLOAD PUSH2 0x78 SWAP2 SWAP1 PUSH2 0x2D8 JUMP JUMPDEST PUSH1 0x40 MLOAD DUP1 SWAP2 SUB SWAP1 RETURN JUMPDEST PUSH2 0x9B PUSH1 0x4 DUP1 CALLDATASIZE SUB DUP2 ADD SWAP1 PUSH2 0x96 SWAP2 SWAP1 PUSH2 0x253 JUMP JUMPDEST PUSH2 0x179 JUMP JUMPDEST STOP JUMPDEST PUSH2 0xA5 PUSH2 0x1A5 JUMP JUMPDEST PUSH1 0x40 MLOAD PUSH2 0xB2 SWAP2 SWAP1 PUSH2 0x2D8 JUMP JUMPDEST PUSH1 0x40 MLOAD DUP1 SWAP2 SUB SWAP1 RETURN JUMPDEST PUSH2 0xC3 PUSH2 0x1BB JUMP JUMPDEST STOP JUMPDEST PUSH1 0x0 PUSH1 0x40 MLOAD DUP1 PUSH1 0x40 ADD PUSH1 0x40 MSTORE DUP1 PUSH1 0x3 DUP2 MSTORE PUSH1 0x20 ADD PUSH32 0x4F46460000000000000000000000000000000000000000000000000000000000 DUP2 MSTORE POP DUP1 MLOAD SWAP1 PUSH1 0x20 ADD KECCAK256 DUP3 DUP1 MLOAD SWAP1 PUSH1 0x20 ADD KECCAK256 EQ ISZERO PUSH2 0x11B JUMPI PUSH1 0x1 SWAP1 POP PUSH2 0x174 JUMP JUMPDEST PUSH1 0x40 MLOAD DUP1 PUSH1 0x40 ADD PUSH1 0x40 MSTORE DUP1 PUSH1 0x2 DUP2 MSTORE PUSH1 0x20 ADD PUSH32 0x4F4E000000000000000000000000000000000000000000000000000000000000 DUP2 MSTORE POP DUP1 MLOAD SWAP1 PUSH1 0x20 ADD KECCAK256 DUP3 DUP1 MLOAD SWAP1 PUSH1 0x20 ADD KECCAK256 EQ ISZERO PUSH2 0x16F JUMPI PUSH1 0x0 SWAP1 POP PUSH2 0x174 JUMP JUMPDEST PUSH1 0x0 DUP1 REVERT JUMPDEST SWAP2 SWAP1 POP JUMP JUMPDEST DUP1 PUSH1 0x0 DUP1 PUSH2 0x100 EXP DUP2 SLOAD DUP2 PUSH1 0xFF MUL NOT AND SWAP1 DUP4 PUSH1 0x1 DUP2 GT ISZERO PUSH2 0x19D JUMPI PUSH2 0x19C PUSH2 0x3AE JUMP JUMPDEST JUMPDEST MUL OR SWAP1 SSTORE POP POP JUMP JUMPDEST PUSH1 0x0 DUP1 PUSH1 0x0 SWAP1 SLOAD SWAP1 PUSH2 0x100 EXP SWAP1 DIV PUSH1 0xFF AND SWAP1 POP SWAP1 JUMP JUMPDEST PUSH1 0x0 DUP1 PUSH2 0x100 EXP DUP2 SLOAD SWAP1 PUSH1 0xFF MUL NOT AND SWAP1 SSTORE JUMP JUMPDEST PUSH1 0x0 PUSH2 0x1E1 PUSH2 0x1DC DUP5 PUSH2 0x318 JUMP JUMPDEST PUSH2 0x2F3 JUMP JUMPDEST SWAP1 POP DUP3 DUP2 MSTORE PUSH1 0x20 DUP2 ADD DUP5 DUP5 DUP5 ADD GT ISZERO PUSH2 0x1FD JUMPI PUSH2 0x1FC PUSH2 0x411 JUMP JUMPDEST JUMPDEST PUSH2 0x208 DUP5 DUP3 DUP6 PUSH2 0x36E JUMP JUMPDEST POP SWAP4 SWAP3 POP POP POP JUMP JUMPDEST PUSH1 0x0 DUP2 CALLDATALOAD SWAP1 POP PUSH2 0x21F DUP2 PUSH2 0x445 JUMP JUMPDEST SWAP3 SWAP2 POP POP JUMP JUMPDEST PUSH1 0x0 DUP3 PUSH1 0x1F DUP4 ADD SLT PUSH2 0x23A JUMPI PUSH2 0x239 PUSH2 0x40C JUMP JUMPDEST JUMPDEST DUP2 CALLDATALOAD PUSH2 0x24A DUP5 DUP3 PUSH1 0x20 DUP7 ADD PUSH2 0x1CE JUMP JUMPDEST SWAP2 POP POP SWAP3 SWAP2 POP POP JUMP JUMPDEST PUSH1 0x0 PUSH1 0x20 DUP3 DUP5 SUB SLT ISZERO PUSH2 0x269 JUMPI PUSH2 0x268 PUSH2 0x41B JUMP JUMPDEST JUMPDEST PUSH1 0x0 PUSH2 0x277 DUP5 DUP3 DUP6 ADD PUSH2 0x210 JUMP JUMPDEST SWAP2 POP POP SWAP3 SWAP2 POP POP JUMP JUMPDEST PUSH1 0x0 PUSH1 0x20 DUP3 DUP5 SUB SLT ISZERO PUSH2 0x296 JUMPI PUSH2 0x295 PUSH2 0x41B JUMP JUMPDEST JUMPDEST PUSH1 0x0 DUP3 ADD CALLDATALOAD PUSH8 0xFFFFFFFFFFFFFFFF DUP2 GT ISZERO PUSH2 0x2B4 JUMPI PUSH2 0x2B3 PUSH2 0x416 JUMP JUMPDEST JUMPDEST PUSH2 0x2C0 DUP5 DUP3 DUP6 ADD PUSH2 0x225 JUMP JUMPDEST SWAP2 POP POP SWAP3 SWAP2 POP POP JUMP JUMPDEST PUSH2 0x2D2 DUP2 PUSH2 0x35C JUMP JUMPDEST DUP3 MSTORE POP POP JUMP JUMPDEST PUSH1 0x0 PUSH1 0x20 DUP3 ADD SWAP1 POP PUSH2 0x2ED PUSH1 0x0 DUP4 ADD DUP5 PUSH2 0x2C9 JUMP JUMPDEST SWAP3 SWAP2 POP POP JUMP JUMPDEST PUSH1 0x0 PUSH2 0x2FD PUSH2 0x30E JUMP JUMPDEST SWAP1 POP PUSH2 0x309 DUP3 DUP3 PUSH2 0x37D JUMP JUMPDEST SWAP2 SWAP1 POP JUMP JUMPDEST PUSH1 0x0 PUSH1 0x40 MLOAD SWAP1 POP SWAP1 JUMP JUMPDEST PUSH1 0x0 PUSH8 0xFFFFFFFFFFFFFFFF DUP3 GT ISZERO PUSH2 0x333 JUMPI PUSH2 0x332 PUSH2 0x3DD JUMP JUMPDEST JUMPDEST PUSH2 0x33C DUP3 PUSH2 0x420 JUMP JUMPDEST SWAP1 POP PUSH1 0x20 DUP2 ADD SWAP1 POP SWAP2 SWAP1 POP JUMP JUMPDEST PUSH1 0x0 DUP2 SWAP1 POP PUSH2 0x357 DUP3 PUSH2 0x431 JUMP JUMPDEST SWAP2 SWAP1 POP JUMP JUMPDEST PUSH1 0x0 PUSH2 0x367 DUP3 PUSH2 0x349 JUMP JUMPDEST SWAP1 POP SWAP2 SWAP1 POP JUMP JUMPDEST DUP3 DUP2 DUP4 CALLDATACOPY PUSH1 0x0 DUP4 DUP4 ADD MSTORE POP POP POP JUMP JUMPDEST PUSH2 0x386 DUP3 PUSH2 0x420 JUMP JUMPDEST DUP2 ADD DUP2 DUP2 LT PUSH8 0xFFFFFFFFFFFFFFFF DUP3 GT OR ISZERO PUSH2 0x3A5 JUMPI PUSH2 0x3A4 PUSH2 0x3DD JUMP JUMPDEST JUMPDEST DUP1 PUSH1 0x40 MSTORE POP POP POP JUMP JUMPDEST PUSH32 0x4E487B7100000000000000000000000000000000000000000000000000000000 PUSH1 0x0 MSTORE PUSH1 0x21 PUSH1 0x4 MSTORE PUSH1 0x24 PUSH1 0x0 REVERT JUMPDEST PUSH32 0x4E487B7100000000000000000000000000000000000000000000000000000000 PUSH1 0x0 MSTORE PUSH1 0x41 PUSH1 0x4 MSTORE PUSH1 0x24 PUSH1 0x0 REVERT JUMPDEST PUSH1 0x0 DUP1 REVERT JUMPDEST PUSH1 0x0 DUP1 REVERT JUMPDEST PUSH1 0x0 DUP1 REVERT JUMPDEST PUSH1 0x0 DUP1 REVERT JUMPDEST PUSH1 0x0 PUSH1 0x1F NOT PUSH1 0x1F DUP4 ADD AND SWAP1 POP SWAP2 SWAP1 POP JUMP JUMPDEST PUSH1 0x2 DUP2 LT PUSH2 0x442 JUMPI PUSH2 0x441 PUSH2 0x3AE JUMP JUMPDEST JUMPDEST POP JUMP JUMPDEST PUSH1 0x2 DUP2 LT PUSH2 0x452 JUMPI PUSH1 0x0 DUP1 REVERT JUMPDEST POP JUMP INVALID LOG2 PUSH5 0x6970667358 0x22 SLT KECCAK256 0xB0 0xC2 MSTORE8 PUSH28 0xFABB833620A55671D9CBC17D56C5911E197E56602C0820CF7B08D6BF PUSH5 0x736F6C6343 STOP ADDMOD SMOD STOP CALLER "
				},
				"gasEstimates": {
					"creation": {
						"codeDepositCost": "232600",
						"executionCost": "275",
						"totalCost": "232875"
					},
					"external": {
						"getStatus()": "2590",
						"getValueByKey(string)": "infinite",
						"resetStatus()": "24430",
						"setStatus(uint8)": "24650"
					}
				},
				"methodIdentifiers": {
					"getStatus()": "4e69d560",
					"getValueByKey(string)": "1258a93a",
					"resetStatus()": "8c3c4c62",
					"setStatus(uint8)": "2e49d78b"
				}
			},
			"storageLayout": {
				"storage": [
					{
						"astId": 7,
						"contract": "contracts/7_EnumStudy.sol:EnumStudy",
						"label": "status",
						"offset": 0,
						"slot": "0",
						"type": "t_enum(Status)4"
					}
				],
				"types": {
					"t_enum(Status)4": {
						"encoding": "inplace",
						"label": "enum EnumStudy.Status",
						"numberOfBytes": "1"
					}
				}
			},
			"userdoc": {
				"kind": "user",
				"methods": {},
				"version": 1
			}
		}
	}
}