{
	"contracts/25_Roles.sol": {
		"Roles": {
			"abi": [
				{
					"inputs": [],
					"stateMutability": "nonpayable",
					"type": "constructor"
				},
				{
					"anonymous": false,
					"inputs": [
						{
							"indexed": true,
							"internalType": "address",
							"name": "owner",
							"type": "address"
						},
						{
							"indexed": true,
							"internalType": "address",
							"name": "spender",
							"type": "address"
						},
						{
							"indexed": false,
							"internalType": "uint256",
							"name": "value",
							"type": "uint256"
						}
					],
					"name": "Approval",
					"type": "event"
				},
				{
					"anonymous": false,
					"inputs": [
						{
							"indexed": true,
							"internalType": "bytes32",
							"name": "role",
							"type": "bytes32"
						},
						{
							"indexed": true,
							"internalType": "bytes32",
							"name": "previousAdminRole",
							"type": "bytes32"
						},
						{
							"indexed": true,
							"internalType": "bytes32",
							"name": "newAdminRole",
							"type": "bytes32"
						}
					],
					"name": "RoleAdminChanged",
					"type": "event"
				},
				{
					"anonymous": false,
					"inputs": [
						{
							"indexed": true,
							"internalType": "bytes32",
							"name": "role",
							"type": "bytes32"
						},
						{
							"indexed": true,
							"internalType": "address",
							"name": "account",
							"type": "address"
						},
						{
							"indexed": true,
							"internalType": "address",
							"name": "sender",
							"type": "address"
						}
					],
					"name": "RoleGranted",
					"type": "event"
				},
				{
					"anonymous": false,
					"inputs": [
						{
							"indexed": true,
							"internalType": "bytes32",
							"name": "role",
							"type": "bytes32"
						},
						{
							"indexed": true,
							"internalType": "address",
							"name": "account",
							"type": "address"
						},
						{
							"indexed": true,
							"internalType": "address",
							"name": "sender",
							"type": "address"
						}
					],
					"name": "RoleRevoked",
					"type": "event"
				},
				{
					"anonymous": false,
					"inputs": [
						{
							"indexed": true,
							"internalType": "address",
							"name": "from",
							"type": "address"
						},
						{
							"indexed": true,
							"internalType": "address",
							"name": "to",
							"type": "address"
						},
						{
							"indexed": false,
							"internalType": "uint256",
							"name": "value",
							"type": "uint256"
						}
					],
					"name": "Transfer",
					"type": "event"
				},
				{
					"inputs": [],
					"name": "DEFAULT_ADMIN_ROLE",
					"outputs": [
						{
							"internalType": "bytes32",
							"name": "",
							"type": "bytes32"
						}
					],
					"stateMutability": "view",
					"type": "function"
				},
				{
					"inputs": [],
					"name": "MINTER_ROLE",
					"outputs": [
						{
							"internalType": "bytes32",
							"name": "",
							"type": "bytes32"
						}
					],
					"stateMutability": "view",
					"type": "function"
				},
				{
					"inputs": [
						{
							"internalType": "address",
							"name": "owner",
							"type": "address"
						},
						{
							"internalType": "address",
							"name": "spender",
							"type": "address"
						}
					],
					"name": "allowance",
					"outputs": [
						{
							"internalType": "uint256",
							"name": "",
							"type": "uint256"
						}
					],
					"stateMutability": "view",
					"type": "function"
				},
				{
					"inputs": [
						{
							"internalType": "address",
							"name": "spender",
							"type": "address"
						},
						{
							"internalType": "uint256",
							"name": "amount",
							"type": "uint256"
						}
					],
					"name": "approve",
					"outputs": [
						{
							"internalType": "bool",
							"name": "",
							"type": "bool"
						}
					],
					"stateMutability": "nonpayable",
					"type": "function"
				},
				{
					"inputs": [
						{
							"internalType": "address",
							"name": "account",
							"type": "address"
						}
					],
					"name": "balanceOf",
					"outputs": [
						{
							"internalType": "uint256",
							"name": "",
							"type": "uint256"
						}
					],
					"stateMutability": "view",
					"type": "function"
				},
				{
					"inputs": [],
					"name": "decimals",
					"outputs": [
						{
							"internalType": "uint8",
							"name": "",
							"type": "uint8"
						}
					],
					"stateMutability": "view",
					"type": "function"
				},
				{
					"inputs": [
						{
							"internalType": "address",
							"name": "spender",
							"type": "address"
						},
						{
							"internalType": "uint256",
							"name": "subtractedValue",
							"type": "uint256"
						}
					],
					"name": "decreaseAllowance",
					"outputs": [
						{
							"internalType": "bool",
							"name": "",
							"type": "bool"
						}
					],
					"stateMutability": "nonpayable",
					"type": "function"
				},
				{
					"inputs": [
						{
							"internalType": "bytes32",
							"name": "role",
							"type": "bytes32"
						}
					],
					"name": "getRoleAdmin",
					"outputs": [
						{
							"internalType": "bytes32",
							"name": "",
							"type": "bytes32"
						}
					],
					"stateMutability": "view",
					"type": "function"
				},
				{
					"inputs": [
						{
							"internalType": "bytes32",
							"name": "role",
							"type": "bytes32"
						},
						{
							"internalType": "address",
							"name": "account",
							"type": "address"
						}
					],
					"name": "grantRole",
					"outputs": [],
					"stateMutability": "nonpayable",
					"type": "function"
				},
				{
					"inputs": [
						{
							"internalType": "bytes32",
							"name": "role",
							"type": "bytes32"
						},
						{
							"internalType": "address",
							"name": "account",
							"type": "address"
						}
					],
					"name": "hasRole",
					"outputs": [
						{
							"internalType": "bool",
							"name": "",
							"type": "bool"
						}
					],
					"stateMutability": "view",
					"type": "function"
				},
				{
					"inputs": [
						{
							"internalType": "address",
							"name": "spender",
							"type": "address"
						},
						{
							"internalType": "uint256",
							"name": "addedValue",
							"type": "uint256"
						}
					],
					"name": "increaseAllowance",
					"outputs": [
						{
							"internalType": "bool",
							"name": "",
							"type": "bool"
						}
					],
					"stateMutability": "nonpayable",
					"type": "function"
				},
				{
					"inputs": [
						{
							"internalType": "address",
							"name": "to",
							"type": "address"
						},
						{
							"internalType": "uint256",
							"name": "amount",
							"type": "uint256"
						}
					],
					"name": "mint",
					"outputs": [],
					"stateMutability": "nonpayable",
					"type": "function"
				},
				{
					"inputs": [],
					"name": "name",
					"outputs": [
						{
							"internalType": "string",
							"name": "",
							"type": "string"
						}
					],
					"stateMutability": "view",
					"type": "function"
				},
				{
					"inputs": [
						{
							"internalType": "bytes32",
							"name": "role",
							"type": "bytes32"
						},
						{
							"internalType": "address",
							"name": "account",
							"type": "address"
						}
					],
					"name": "renounceRole",
					"outputs": [],
					"stateMutability": "nonpayable",
					"type": "function"
				},
				{
					"inputs": [
						{
							"internalType": "bytes32",
							"name": "role",
							"type": "bytes32"
						},
						{
							"internalType": "address",
							"name": "account",
							"type": "address"
						}
					],
					"name": "revokeRole",
					"outputs": [],
					"stateMutability": "nonpayable",
					"type": "function"
				},
				{
					"inputs": [
						{
							"internalType": "bytes4",
							"name": "interfaceId",
							"type": "bytes4"
						}
					],
					"name": "supportsInterface",
					"outputs": [
						{
							"internalType": "bool",
							"name": "",
							"type": "bool"
						}
					],
					"stateMutability": "view",
					"type": "function"
				},
				{
					"inputs": [],
					"name": "symbol",
					"outputs": [
						{
							"internalType": "string",
							"name": "",
							"type": "string"
						}
					],
					"stateMutability": "view",
					"type": "function"
				},
				{
					"inputs": [],
					"name": "totalSupply",
					"outputs": [
						{
							"internalType": "uint256",
							"name": "",
							"type": "uint256"
						}
					],
					"stateMutability": "view",
					"type": "function"
				},
				{
					"inputs": [
						{
							"internalType": "address",
							"name": "to",
							"type": "address"
						},
						{
							"internalType": "uint256",
							"name": "amount",
							"type": "uint256"
						}
					],
					"name": "transfer",
					"outputs": [
						{
							"internalType": "bool",
							"name": "",
							"type": "bool"
						}
					],
					"stateMutability": "nonpayable",
					"type": "function"
				},
				{
					"inputs": [
						{
							"internalType": "address",
							"name": "from",
							"type": "address"
						},
						{
							"internalType": "address",
							"name": "to",
							"type": "address"
						},
						{
							"internalType": "uint256",
							"name": "amount",
							"type": "uint256"
						}
					],
					"name": "transferFrom",
					"outputs": [
						{
							"internalType": "bool",
							"name": "",
							"type": "bool"
						}
					],
					"stateMutability": "nonpayable",
					"type": "function"
				}
			],
			"devdoc": {
				"kind": "dev",
				"methods": {
					"allowance(address,address)": {
						"details": "See {IERC20-allowance}."
					},
					"approve(address,uint256)": {
						"details": "See {IERC20-approve}. NOTE: If `amount` is the maximum `uint256`, the allowance is not updated on `transferFrom`. This is semantically equivalent to an infinite approval. Requirements: - `spender` cannot be the zero address."
					},
					"balanceOf(address)": {
						"details": "See {IERC20-balanceOf}."
					},
					"decimals()": {
						"details": "Returns the number of decimals used to get its user representation. For example, if `decimals` equals `2`, a balance of `505` tokens should be displayed to a user as `5.05` (`505 / 10 ** 2`). Tokens usually opt for a value of 18, imitating the relationship between Ether and Wei. This is the value {ERC20} uses, unless this function is overridden; NOTE: This information is only used for _display_ purposes: it in no way affects any of the arithmetic of the contract, including {IERC20-balanceOf} and {IERC20-transfer}."
					},
					"decreaseAllowance(address,uint256)": {
						"details": "Atomically decreases the allowance granted to `spender` by the caller. This is an alternative to {approve} that can be used as a mitigation for problems described in {IERC20-approve}. Emits an {Approval} event indicating the updated allowance. Requirements: - `spender` cannot be the zero address. - `spender` must have allowance for the caller of at least `subtractedValue`."
					},
					"getRoleAdmin(bytes32)": {
						"details": "Returns the admin role that controls `role`. See {grantRole} and {revokeRole}. To change a role's admin, use {_setRoleAdmin}."
					},
					"grantRole(bytes32,address)": {
						"details": "Grants `role` to `account`. If `account` had not been already granted `role`, emits a {RoleGranted} event. Requirements: - the caller must have ``role``'s admin role. May emit a {RoleGranted} event."
					},
					"hasRole(bytes32,address)": {
						"details": "Returns `true` if `account` has been granted `role`."
					},
					"increaseAllowance(address,uint256)": {
						"details": "Atomically increases the allowance granted to `spender` by the caller. This is an alternative to {approve} that can be used as a mitigation for problems described in {IERC20-approve}. Emits an {Approval} event indicating the updated allowance. Requirements: - `spender` cannot be the zero address."
					},
					"name()": {
						"details": "Returns the name of the token."
					},
					"renounceRole(bytes32,address)": {
						"details": "Revokes `role` from the calling account. Roles are often managed via {grantRole} and {revokeRole}: this function's purpose is to provide a mechanism for accounts to lose their privileges if they are compromised (such as when a trusted device is misplaced). If the calling account had been revoked `role`, emits a {RoleRevoked} event. Requirements: - the caller must be `account`. May emit a {RoleRevoked} event."
					},
					"revokeRole(bytes32,address)": {
						"details": "Revokes `role` from `account`. If `account` had been granted `role`, emits a {RoleRevoked} event. Requirements: - the caller must have ``role``'s admin role. May emit a {RoleRevoked} event."
					},
					"supportsInterface(bytes4)": {
						"details": "See {IERC165-supportsInterface}."
					},
					"symbol()": {
						"details": "Returns the symbol of the token, usually a shorter version of the name."
					},
					"totalSupply()": {
						"details": "See {IERC20-totalSupply}."
					},
					"transfer(address,uint256)": {
						"details": "See {IERC20-transfer}. Requirements: - `to` cannot be the zero address. - the caller must have a balance of at least `amount`."
					},
					"transferFrom(address,address,uint256)": {
						"details": "See {IERC20-transferFrom}. Emits an {Approval} event indicating the updated allowance. This is not required by the EIP. See the note at the beginning of {ERC20}. NOTE: Does not update the allowance if the current allowance is the maximum `uint256`. Requirements: - `from` and `to` cannot be the zero address. - `from` must have a balance of at least `amount`. - the caller must have allowance for ``from``'s tokens of at least `amount`."
					}
				},
				"version": 1
			},
			"evm": {
				"assembly": "    /* \"contracts/25_Roles.sol\":185:687  contract Roles is ERC20, AccessControl {... */\n  mstore(0x40, 0x80)\n    /* \"contracts/25_Roles.sol\":299:543  constructor() ERC20(\"Roles\", \"ROLE\") {... */\n  callvalue\n  dup1\n  iszero\n  tag_1\n  jumpi\n  0x00\n  dup1\n  revert\ntag_1:\n  pop\n    /* \"@openzeppelin/contracts@4.7.3/token/ERC20/ERC20.sol\":1978:2091  constructor(string memory name_, string memory symbol_) {... */\n  mload(0x40)\n  dup1\n  0x40\n  add\n  0x40\n  mstore\n  dup1\n  0x05\n  dup2\n  mstore\n  0x20\n  add\n  0x526f6c6573000000000000000000000000000000000000000000000000000000\n  dup2\n  mstore\n  pop\n  mload(0x40)\n  dup1\n  0x40\n  add\n  0x40\n  mstore\n  dup1\n  0x04\n  dup2\n  mstore\n  0x20\n  add\n  0x524f4c4500000000000000000000000000000000000000000000000000000000\n  dup2\n  mstore\n  pop\n    /* \"@openzeppelin/contracts@4.7.3/token/ERC20/ERC20.sol\":2052:2057  name_ */\n  dup2\n    /* \"@openzeppelin/contracts@4.7.3/token/ERC20/ERC20.sol\":2044:2049  _name */\n  0x03\n    /* \"@openzeppelin/contracts@4.7.3/token/ERC20/ERC20.sol\":2044:2057  _name = name_ */\n  swap1\n  dup1\n  mload\n  swap1\n  0x20\n  add\n  swap1\n  tag_5\n  swap3\n  swap2\n  swap1\n  tag_6\n  jump\t// in\ntag_5:\n  pop\n    /* \"@openzeppelin/contracts@4.7.3/token/ERC20/ERC20.sol\":2077:2084  symbol_ */\n  dup1\n    /* \"@openzeppelin/contracts@4.7.3/token/ERC20/ERC20.sol\":2067:2074  _symbol */\n  0x04\n    /* \"@openzeppelin/contracts@4.7.3/token/ERC20/ERC20.sol\":2067:2084  _symbol = symbol_ */\n  swap1\n  dup1\n  mload\n  swap1\n  0x20\n  add\n  swap1\n  tag_7\n  swap3\n  swap2\n  swap1\n  tag_6\n  jump\t// in\ntag_7:\n  pop\n    /* \"@openzeppelin/contracts@4.7.3/token/ERC20/ERC20.sol\":1978:2091  constructor(string memory name_, string memory symbol_) {... */\n  pop\n  pop\n    /* \"contracts/25_Roles.sol\":346:393  _mint(msg.sender, 100000000 * 10 ** decimals()) */\n  tag_9\n    /* \"contracts/25_Roles.sol\":352:362  msg.sender */\n  caller\n    /* \"contracts/25_Roles.sol\":382:392  decimals() */\n  tag_10\n    /* \"contracts/25_Roles.sol\":382:390  decimals */\n  shl(0x20, tag_11)\n    /* \"contracts/25_Roles.sol\":382:392  decimals() */\n  0x20\n  shr\n  jump\t// in\ntag_10:\n    /* \"contracts/25_Roles.sol\":376:378  10 */\n  0x0a\n    /* \"contracts/25_Roles.sol\":376:392  10 ** decimals() */\n  tag_12\n  swap2\n  swap1\n  tag_13\n  jump\t// in\ntag_12:\n    /* \"contracts/25_Roles.sol\":364:373  100000000 */\n  0x05f5e100\n    /* \"contracts/25_Roles.sol\":364:392  100000000 * 10 ** decimals() */\n  tag_14\n  swap2\n  swap1\n  tag_15\n  jump\t// in\ntag_14:\n    /* \"contracts/25_Roles.sol\":346:351  _mint */\n  shl(0x20, tag_16)\n    /* \"contracts/25_Roles.sol\":346:393  _mint(msg.sender, 100000000 * 10 ** decimals()) */\n  0x20\n  shr\n  jump\t// in\ntag_9:\n    /* \"contracts/25_Roles.sol\":403:445  _grantRole(DEFAULT_ADMIN_ROLE, msg.sender) */\n  tag_17\n    /* \"@openzeppelin/contracts@4.7.3/access/AccessControl.sol\":2072:2076  0x00 */\n  0x00\n    /* \"contracts/25_Roles.sol\":414:432  DEFAULT_ADMIN_ROLE */\n  dup1\n  shl\n    /* \"contracts/25_Roles.sol\":434:444  msg.sender */\n  caller\n    /* \"contracts/25_Roles.sol\":403:413  _grantRole */\n  shl(0x20, tag_18)\n    /* \"contracts/25_Roles.sol\":403:445  _grantRole(DEFAULT_ADMIN_ROLE, msg.sender) */\n  0x20\n  shr\n  jump\t// in\ntag_17:\n    /* \"contracts/25_Roles.sol\":478:513  _grantRole(MINTER_ROLE, msg.sender) */\n  tag_19\n    /* \"contracts/25_Roles.sol\":268:292  keccak256(\"MINTER_ROLE\") */\n  0x9f2df0fed2c77648de5860a4cc508cd0818c85b8b8a1ab4ceeef8d981c8956a6\n    /* \"contracts/25_Roles.sol\":502:512  msg.sender */\n  caller\n    /* \"contracts/25_Roles.sol\":478:488  _grantRole */\n  shl(0x20, tag_18)\n    /* \"contracts/25_Roles.sol\":478:513  _grantRole(MINTER_ROLE, msg.sender) */\n  0x20\n  shr\n  jump\t// in\ntag_19:\n    /* \"contracts/25_Roles.sol\":185:687  contract Roles is ERC20, AccessControl {... */\n  jump(tag_20)\n    /* \"@openzeppelin/contracts@4.7.3/token/ERC20/ERC20.sol\":3093:3184  function decimals() public view virtual override returns (uint8) {... */\ntag_11:\n    /* \"@openzeppelin/contracts@4.7.3/token/ERC20/ERC20.sol\":3151:3156  uint8 */\n  0x00\n    /* \"@openzeppelin/contracts@4.7.3/token/ERC20/ERC20.sol\":3175:3177  18 */\n  0x12\n    /* \"@openzeppelin/contracts@4.7.3/token/ERC20/ERC20.sol\":3168:3177  return 18 */\n  swap1\n  pop\n    /* \"@openzeppelin/contracts@4.7.3/token/ERC20/ERC20.sol\":3093:3184  function decimals() public view virtual override returns (uint8) {... */\n  swap1\n  jump\t// out\n    /* \"@openzeppelin/contracts@4.7.3/token/ERC20/ERC20.sol\":8402:8791  function _mint(address account, uint256 amount) internal virtual {... */\ntag_16:\n    /* \"@openzeppelin/contracts@4.7.3/token/ERC20/ERC20.sol\":8504:8505  0 */\n  0x00\n    /* \"@openzeppelin/contracts@4.7.3/token/ERC20/ERC20.sol\":8485:8506  account != address(0) */\n  0xffffffffffffffffffffffffffffffffffffffff\n  and\n    /* \"@openzeppelin/contracts@4.7.3/token/ERC20/ERC20.sol\":8485:8492  account */\n  dup3\n    /* \"@openzeppelin/contracts@4.7.3/token/ERC20/ERC20.sol\":8485:8506  account != address(0) */\n  0xffffffffffffffffffffffffffffffffffffffff\n  and\n  eq\n  iszero\n    /* \"@openzeppelin/contracts@4.7.3/token/ERC20/ERC20.sol\":8477:8542  require(account != address(0), \"ERC20: mint to the zero address\") */\n  tag_23\n  jumpi\n  mload(0x40)\n  0x08c379a000000000000000000000000000000000000000000000000000000000\n  dup2\n  mstore\n  0x04\n  add\n  tag_24\n  swap1\n  tag_25\n  jump\t// in\ntag_24:\n  mload(0x40)\n  dup1\n  swap2\n  sub\n  swap1\n  revert\ntag_23:\n    /* \"@openzeppelin/contracts@4.7.3/token/ERC20/ERC20.sol\":8553:8602  _beforeTokenTransfer(address(0), account, amount) */\n  tag_26\n    /* \"@openzeppelin/contracts@4.7.3/token/ERC20/ERC20.sol\":8582:8583  0 */\n  0x00\n    /* \"@openzeppelin/contracts@4.7.3/token/ERC20/ERC20.sol\":8586:8593  account */\n  dup4\n    /* \"@openzeppelin/contracts@4.7.3/token/ERC20/ERC20.sol\":8595:8601  amount */\n  dup4\n    /* \"@openzeppelin/contracts@4.7.3/token/ERC20/ERC20.sol\":8553:8573  _beforeTokenTransfer */\n  shl(0x20, tag_27)\n    /* \"@openzeppelin/contracts@4.7.3/token/ERC20/ERC20.sol\":8553:8602  _beforeTokenTransfer(address(0), account, amount) */\n  0x20\n  shr\n  jump\t// in\ntag_26:\n    /* \"@openzeppelin/contracts@4.7.3/token/ERC20/ERC20.sol\":8629:8635  amount */\n  dup1\n    /* \"@openzeppelin/contracts@4.7.3/token/ERC20/ERC20.sol\":8613:8625  _totalSupply */\n  0x02\n  0x00\n    /* \"@openzeppelin/contracts@4.7.3/token/ERC20/ERC20.sol\":8613:8635  _totalSupply += amount */\n  dup3\n  dup3\n  sload\n  tag_28\n  swap2\n  swap1\n  tag_29\n  jump\t// in\ntag_28:\n  swap3\n  pop\n  pop\n  dup2\n  swap1\n  sstore\n  pop\n    /* \"@openzeppelin/contracts@4.7.3/token/ERC20/ERC20.sol\":8667:8673  amount */\n  dup1\n    /* \"@openzeppelin/contracts@4.7.3/token/ERC20/ERC20.sol\":8645:8654  _balances */\n  0x00\n    /* \"@openzeppelin/contracts@4.7.3/token/ERC20/ERC20.sol\":8645:8663  _balances[account] */\n  dup1\n    /* \"@openzeppelin/contracts@4.7.3/token/ERC20/ERC20.sol\":8655:8662  account */\n  dup5\n    /* \"@openzeppelin/contracts@4.7.3/token/ERC20/ERC20.sol\":8645:8663  _balances[account] */\n  0xffffffffffffffffffffffffffffffffffffffff\n  and\n  0xffffffffffffffffffffffffffffffffffffffff\n  and\n  dup2\n  mstore\n  0x20\n  add\n  swap1\n  dup2\n  mstore\n  0x20\n  add\n  0x00\n  keccak256\n  0x00\n    /* \"@openzeppelin/contracts@4.7.3/token/ERC20/ERC20.sol\":8645:8673  _balances[account] += amount */\n  dup3\n  dup3\n  sload\n  tag_30\n  swap2\n  swap1\n  tag_29\n  jump\t// in\ntag_30:\n  swap3\n  pop\n  pop\n  dup2\n  swap1\n  sstore\n  pop\n    /* \"@openzeppelin/contracts@4.7.3/token/ERC20/ERC20.sol\":8709:8716  account */\n  dup2\n    /* \"@openzeppelin/contracts@4.7.3/token/ERC20/ERC20.sol\":8688:8725  Transfer(address(0), account, amount) */\n  0xffffffffffffffffffffffffffffffffffffffff\n  and\n    /* \"@openzeppelin/contracts@4.7.3/token/ERC20/ERC20.sol\":8705:8706  0 */\n  0x00\n    /* \"@openzeppelin/contracts@4.7.3/token/ERC20/ERC20.sol\":8688:8725  Transfer(address(0), account, amount) */\n  0xffffffffffffffffffffffffffffffffffffffff\n  and\n  0xddf252ad1be2c89b69c2b068fc378daa952ba7f163c4a11628f55a4df523b3ef\n    /* \"@openzeppelin/contracts@4.7.3/token/ERC20/ERC20.sol\":8718:8724  amount */\n  dup4\n    /* \"@openzeppelin/contracts@4.7.3/token/ERC20/ERC20.sol\":8688:8725  Transfer(address(0), account, amount) */\n  mload(0x40)\n  tag_31\n  swap2\n  swap1\n  tag_32\n  jump\t// in\ntag_31:\n  mload(0x40)\n  dup1\n  swap2\n  sub\n  swap1\n  log3\n    /* \"@openzeppelin/contracts@4.7.3/token/ERC20/ERC20.sol\":8736:8784  _afterTokenTransfer(address(0), account, amount) */\n  tag_33\n    /* \"@openzeppelin/contracts@4.7.3/token/ERC20/ERC20.sol\":8764:8765  0 */\n  0x00\n    /* \"@openzeppelin/contracts@4.7.3/token/ERC20/ERC20.sol\":8768:8775  account */\n  dup4\n    /* \"@openzeppelin/contracts@4.7.3/token/ERC20/ERC20.sol\":8777:8783  amount */\n  dup4\n    /* \"@openzeppelin/contracts@4.7.3/token/ERC20/ERC20.sol\":8736:8755  _afterTokenTransfer */\n  shl(0x20, tag_34)\n    /* \"@openzeppelin/contracts@4.7.3/token/ERC20/ERC20.sol\":8736:8784  _afterTokenTransfer(address(0), account, amount) */\n  0x20\n  shr\n  jump\t// in\ntag_33:\n    /* \"@openzeppelin/contracts@4.7.3/token/ERC20/ERC20.sol\":8402:8791  function _mint(address account, uint256 amount) internal virtual {... */\n  pop\n  pop\n  jump\t// out\n    /* \"@openzeppelin/contracts@4.7.3/access/AccessControl.sol\":7474:7707  function _grantRole(bytes32 role, address account) internal virtual {... */\ntag_18:\n    /* \"@openzeppelin/contracts@4.7.3/access/AccessControl.sol\":7557:7579  hasRole(role, account) */\n  tag_36\n    /* \"@openzeppelin/contracts@4.7.3/access/AccessControl.sol\":7565:7569  role */\n  dup3\n    /* \"@openzeppelin/contracts@4.7.3/access/AccessControl.sol\":7571:7578  account */\n  dup3\n    /* \"@openzeppelin/contracts@4.7.3/access/AccessControl.sol\":7557:7564  hasRole */\n  shl(0x20, tag_37)\n    /* \"@openzeppelin/contracts@4.7.3/access/AccessControl.sol\":7557:7579  hasRole(role, account) */\n  0x20\n  shr\n  jump\t// in\ntag_36:\n    /* \"@openzeppelin/contracts@4.7.3/access/AccessControl.sol\":7552:7701  if (!hasRole(role, account)) {... */\n  tag_38\n  jumpi\n    /* \"@openzeppelin/contracts@4.7.3/access/AccessControl.sol\":7627:7631  true */\n  0x01\n    /* \"@openzeppelin/contracts@4.7.3/access/AccessControl.sol\":7595:7601  _roles */\n  0x05\n    /* \"@openzeppelin/contracts@4.7.3/access/AccessControl.sol\":7595:7607  _roles[role] */\n  0x00\n    /* \"@openzeppelin/contracts@4.7.3/access/AccessControl.sol\":7602:7606  role */\n  dup5\n    /* \"@openzeppelin/contracts@4.7.3/access/AccessControl.sol\":7595:7607  _roles[role] */\n  dup2\n  mstore\n  0x20\n  add\n  swap1\n  dup2\n  mstore\n  0x20\n  add\n  0x00\n  keccak256\n    /* \"@openzeppelin/contracts@4.7.3/access/AccessControl.sol\":7595:7615  _roles[role].members */\n  0x00\n  add\n    /* \"@openzeppelin/contracts@4.7.3/access/AccessControl.sol\":7595:7624  _roles[role].members[account] */\n  0x00\n    /* \"@openzeppelin/contracts@4.7.3/access/AccessControl.sol\":7616:7623  account */\n  dup4\n    /* \"@openzeppelin/contracts@4.7.3/access/AccessControl.sol\":7595:7624  _roles[role].members[account] */\n  0xffffffffffffffffffffffffffffffffffffffff\n  and\n  0xffffffffffffffffffffffffffffffffffffffff\n  and\n  dup2\n  mstore\n  0x20\n  add\n  swap1\n  dup2\n  mstore\n  0x20\n  add\n  0x00\n  keccak256\n  0x00\n    /* \"@openzeppelin/contracts@4.7.3/access/AccessControl.sol\":7595:7631  _roles[role].members[account] = true */\n  0x0100\n  exp\n  dup2\n  sload\n  dup2\n  0xff\n  mul\n  not\n  and\n  swap1\n  dup4\n  iszero\n  iszero\n  mul\n  or\n  swap1\n  sstore\n  pop\n    /* \"@openzeppelin/contracts@4.7.3/access/AccessControl.sol\":7677:7689  _msgSender() */\n  tag_39\n    /* \"@openzeppelin/contracts@4.7.3/access/AccessControl.sol\":7677:7687  _msgSender */\n  shl(0x20, tag_40)\n    /* \"@openzeppelin/contracts@4.7.3/access/AccessControl.sol\":7677:7689  _msgSender() */\n  0x20\n  shr\n  jump\t// in\ntag_39:\n    /* \"@openzeppelin/contracts@4.7.3/access/AccessControl.sol\":7650:7690  RoleGranted(role, account, _msgSender()) */\n  0xffffffffffffffffffffffffffffffffffffffff\n  and\n    /* \"@openzeppelin/contracts@4.7.3/access/AccessControl.sol\":7668:7675  account */\n  dup2\n    /* \"@openzeppelin/contracts@4.7.3/access/AccessControl.sol\":7650:7690  RoleGranted(role, account, _msgSender()) */\n  0xffffffffffffffffffffffffffffffffffffffff\n  and\n    /* \"@openzeppelin/contracts@4.7.3/access/AccessControl.sol\":7662:7666  role */\n  dup4\n    /* \"@openzeppelin/contracts@4.7.3/access/AccessControl.sol\":7650:7690  RoleGranted(role, account, _msgSender()) */\n  0x2f8788117e7eff1d82e926ec794901d17c78024a50270940304540a733656f0d\n  mload(0x40)\n  mload(0x40)\n  dup1\n  swap2\n  sub\n  swap1\n  log4\n    /* \"@openzeppelin/contracts@4.7.3/access/AccessControl.sol\":7552:7701  if (!hasRole(role, account)) {... */\ntag_38:\n    /* \"@openzeppelin/contracts@4.7.3/access/AccessControl.sol\":7474:7707  function _grantRole(bytes32 role, address account) internal virtual {... */\n  pop\n  pop\n  jump\t// out\n    /* \"@openzeppelin/contracts@4.7.3/token/ERC20/ERC20.sol\":11786:11907  function _beforeTokenTransfer(... */\ntag_27:\n  pop\n  pop\n  pop\n  jump\t// out\n    /* \"@openzeppelin/contracts@4.7.3/token/ERC20/ERC20.sol\":12495:12615  function _afterTokenTransfer(... */\ntag_34:\n  pop\n  pop\n  pop\n  jump\t// out\n    /* \"@openzeppelin/contracts@4.7.3/access/AccessControl.sol\":2895:3040  function hasRole(bytes32 role, address account) public view virtual override returns (bool) {... */\ntag_37:\n    /* \"@openzeppelin/contracts@4.7.3/access/AccessControl.sol\":2981:2985  bool */\n  0x00\n    /* \"@openzeppelin/contracts@4.7.3/access/AccessControl.sol\":3004:3010  _roles */\n  0x05\n    /* \"@openzeppelin/contracts@4.7.3/access/AccessControl.sol\":3004:3016  _roles[role] */\n  0x00\n    /* \"@openzeppelin/contracts@4.7.3/access/AccessControl.sol\":3011:3015  role */\n  dup5\n    /* \"@openzeppelin/contracts@4.7.3/access/AccessControl.sol\":3004:3016  _roles[role] */\n  dup2\n  mstore\n  0x20\n  add\n  swap1\n  dup2\n  mstore\n  0x20\n  add\n  0x00\n  keccak256\n    /* \"@openzeppelin/contracts@4.7.3/access/AccessControl.sol\":3004:3024  _roles[role].members */\n  0x00\n  add\n    /* \"@openzeppelin/contracts@4.7.3/access/AccessControl.sol\":3004:3033  _roles[role].members[account] */\n  0x00\n    /* \"@openzeppelin/contracts@4.7.3/access/AccessControl.sol\":3025:3032  account */\n  dup4\n    /* \"@openzeppelin/contracts@4.7.3/access/AccessControl.sol\":3004:3033  _roles[role].members[account] */\n  0xffffffffffffffffffffffffffffffffffffffff\n  and\n  0xffffffffffffffffffffffffffffffffffffffff\n  and\n  dup2\n  mstore\n  0x20\n  add\n  swap1\n  dup2\n  mstore\n  0x20\n  add\n  0x00\n  keccak256\n  0x00\n  swap1\n  sload\n  swap1\n  0x0100\n  exp\n  swap1\n  div\n  0xff\n  and\n    /* \"@openzeppelin/contracts@4.7.3/access/AccessControl.sol\":2997:3033  return _roles[role].members[account] */\n  swap1\n  pop\n    /* \"@openzeppelin/contracts@4.7.3/access/AccessControl.sol\":2895:3040  function hasRole(bytes32 role, address account) public view virtual override returns (bool) {... */\n  swap3\n  swap2\n  pop\n  pop\n  jump\t// out\n    /* \"@openzeppelin/contracts@4.7.3/utils/Context.sol\":640:736  function _msgSender() internal view virtual returns (address) {... */\ntag_40:\n    /* \"@openzeppelin/contracts@4.7.3/utils/Context.sol\":693:700  address */\n  0x00\n    /* \"@openzeppelin/contracts@4.7.3/utils/Context.sol\":719:729  msg.sender */\n  caller\n    /* \"@openzeppelin/contracts@4.7.3/utils/Context.sol\":712:729  return msg.sender */\n  swap1\n  pop\n    /* \"@openzeppelin/contracts@4.7.3/utils/Context.sol\":640:736  function _msgSender() internal view virtual returns (address) {... */\n  swap1\n  jump\t// out\n    /* \"contracts/25_Roles.sol\":185:687  contract Roles is ERC20, AccessControl {... */\ntag_6:\n  dup3\n  dup1\n  sload\n  tag_45\n  swap1\n  tag_46\n  jump\t// in\ntag_45:\n  swap1\n  0x00\n  mstore\n  keccak256(0x00, 0x20)\n  swap1\n  0x1f\n  add\n  0x20\n  swap1\n  div\n  dup2\n  add\n  swap3\n  dup3\n  tag_48\n  jumpi\n  0x00\n  dup6\n  sstore\n  jump(tag_47)\ntag_48:\n  dup3\n  0x1f\n  lt\n  tag_49\n  jumpi\n  dup1\n  mload\n  not(0xff)\n  and\n  dup4\n  dup1\n  add\n  or\n  dup6\n  sstore\n  jump(tag_47)\ntag_49:\n  dup3\n  dup1\n  add\n  0x01\n  add\n  dup6\n  sstore\n  dup3\n  iszero\n  tag_47\n  jumpi\n  swap2\n  dup3\n  add\ntag_50:\n  dup3\n  dup2\n  gt\n  iszero\n  tag_51\n  jumpi\n  dup3\n  mload\n  dup3\n  sstore\n  swap2\n  0x20\n  add\n  swap2\n  swap1\n  0x01\n  add\n  swap1\n  jump(tag_50)\ntag_51:\ntag_47:\n  pop\n  swap1\n  pop\n  tag_52\n  swap2\n  swap1\n  tag_53\n  jump\t// in\ntag_52:\n  pop\n  swap1\n  jump\t// out\ntag_53:\ntag_54:\n  dup1\n  dup3\n  gt\n  iszero\n  tag_55\n  jumpi\n  0x00\n  dup2\n  0x00\n  swap1\n  sstore\n  pop\n  0x01\n  add\n  jump(tag_54)\ntag_55:\n  pop\n  swap1\n  jump\t// out\n    /* \"#utility.yul\":7:373   */\ntag_57:\n    /* \"#utility.yul\":149:152   */\n  0x00\n    /* \"#utility.yul\":170:237   */\n  tag_59\n    /* \"#utility.yul\":234:236   */\n  0x1f\n    /* \"#utility.yul\":229:232   */\n  dup4\n    /* \"#utility.yul\":170:237   */\n  tag_60\n  jump\t// in\ntag_59:\n    /* \"#utility.yul\":163:237   */\n  swap2\n  pop\n    /* \"#utility.yul\":246:339   */\n  tag_61\n    /* \"#utility.yul\":335:338   */\n  dup3\n    /* \"#utility.yul\":246:339   */\n  tag_62\n  jump\t// in\ntag_61:\n    /* \"#utility.yul\":364:366   */\n  0x20\n    /* \"#utility.yul\":359:362   */\n  dup3\n    /* \"#utility.yul\":355:367   */\n  add\n    /* \"#utility.yul\":348:367   */\n  swap1\n  pop\n    /* \"#utility.yul\":7:373   */\n  swap2\n  swap1\n  pop\n  jump\t// out\n    /* \"#utility.yul\":379:497   */\ntag_63:\n    /* \"#utility.yul\":466:490   */\n  tag_65\n    /* \"#utility.yul\":484:489   */\n  dup2\n    /* \"#utility.yul\":466:490   */\n  tag_66\n  jump\t// in\ntag_65:\n    /* \"#utility.yul\":461:464   */\n  dup3\n    /* \"#utility.yul\":454:491   */\n  mstore\n    /* \"#utility.yul\":379:497   */\n  pop\n  pop\n  jump\t// out\n    /* \"#utility.yul\":503:922   */\ntag_25:\n    /* \"#utility.yul\":669:673   */\n  0x00\n    /* \"#utility.yul\":707:709   */\n  0x20\n    /* \"#utility.yul\":696:705   */\n  dup3\n    /* \"#utility.yul\":692:710   */\n  add\n    /* \"#utility.yul\":684:710   */\n  swap1\n  pop\n    /* \"#utility.yul\":756:765   */\n  dup2\n    /* \"#utility.yul\":750:754   */\n  dup2\n    /* \"#utility.yul\":746:766   */\n  sub\n    /* \"#utility.yul\":742:743   */\n  0x00\n    /* \"#utility.yul\":731:740   */\n  dup4\n    /* \"#utility.yul\":727:744   */\n  add\n    /* \"#utility.yul\":720:767   */\n  mstore\n    /* \"#utility.yul\":784:915   */\n  tag_68\n    /* \"#utility.yul\":910:914   */\n  dup2\n    /* \"#utility.yul\":784:915   */\n  tag_57\n  jump\t// in\ntag_68:\n    /* \"#utility.yul\":776:915   */\n  swap1\n  pop\n    /* \"#utility.yul\":503:922   */\n  swap2\n  swap1\n  pop\n  jump\t// out\n    /* \"#utility.yul\":928:1150   */\ntag_32:\n    /* \"#utility.yul\":1021:1025   */\n  0x00\n    /* \"#utility.yul\":1059:1061   */\n  0x20\n    /* \"#utility.yul\":1048:1057   */\n  dup3\n    /* \"#utility.yul\":1044:1062   */\n  add\n    /* \"#utility.yul\":1036:1062   */\n  swap1\n  pop\n    /* \"#utility.yul\":1072:1143   */\n  tag_70\n    /* \"#utility.yul\":1140:1141   */\n  0x00\n    /* \"#utility.yul\":1129:1138   */\n  dup4\n    /* \"#utility.yul\":1125:1142   */\n  add\n    /* \"#utility.yul\":1116:1122   */\n  dup5\n    /* \"#utility.yul\":1072:1143   */\n  tag_63\n  jump\t// in\ntag_70:\n    /* \"#utility.yul\":928:1150   */\n  swap3\n  swap2\n  pop\n  pop\n  jump\t// out\n    /* \"#utility.yul\":1156:1325   */\ntag_60:\n    /* \"#utility.yul\":1240:1251   */\n  0x00\n    /* \"#utility.yul\":1274:1280   */\n  dup3\n    /* \"#utility.yul\":1269:1272   */\n  dup3\n    /* \"#utility.yul\":1262:1281   */\n  mstore\n    /* \"#utility.yul\":1314:1318   */\n  0x20\n    /* \"#utility.yul\":1309:1312   */\n  dup3\n    /* \"#utility.yul\":1305:1319   */\n  add\n    /* \"#utility.yul\":1290:1319   */\n  swap1\n  pop\n    /* \"#utility.yul\":1156:1325   */\n  swap3\n  swap2\n  pop\n  pop\n  jump\t// out\n    /* \"#utility.yul\":1331:1636   */\ntag_29:\n    /* \"#utility.yul\":1371:1374   */\n  0x00\n    /* \"#utility.yul\":1390:1410   */\n  tag_73\n    /* \"#utility.yul\":1408:1409   */\n  dup3\n    /* \"#utility.yul\":1390:1410   */\n  tag_66\n  jump\t// in\ntag_73:\n    /* \"#utility.yul\":1385:1410   */\n  swap2\n  pop\n    /* \"#utility.yul\":1424:1444   */\n  tag_74\n    /* \"#utility.yul\":1442:1443   */\n  dup4\n    /* \"#utility.yul\":1424:1444   */\n  tag_66\n  jump\t// in\ntag_74:\n    /* \"#utility.yul\":1419:1444   */\n  swap3\n  pop\n    /* \"#utility.yul\":1578:1579   */\n  dup3\n    /* \"#utility.yul\":1510:1576   */\n  0xffffffffffffffffffffffffffffffffffffffffffffffffffffffffffffffff\n    /* \"#utility.yul\":1506:1580   */\n  sub\n    /* \"#utility.yul\":1503:1504   */\n  dup3\n    /* \"#utility.yul\":1500:1581   */\n  gt\n    /* \"#utility.yul\":1497:1604   */\n  iszero\n  tag_75\n  jumpi\n    /* \"#utility.yul\":1584:1602   */\n  tag_76\n  tag_77\n  jump\t// in\ntag_76:\n    /* \"#utility.yul\":1497:1604   */\ntag_75:\n    /* \"#utility.yul\":1628:1629   */\n  dup3\n    /* \"#utility.yul\":1625:1626   */\n  dup3\n    /* \"#utility.yul\":1621:1630   */\n  add\n    /* \"#utility.yul\":1614:1630   */\n  swap1\n  pop\n    /* \"#utility.yul\":1331:1636   */\n  swap3\n  swap2\n  pop\n  pop\n  jump\t// out\n    /* \"#utility.yul\":1642:2490   */\ntag_78:\n    /* \"#utility.yul\":1703:1708   */\n  0x00\n    /* \"#utility.yul\":1710:1714   */\n  dup1\n    /* \"#utility.yul\":1734:1740   */\n  dup3\n    /* \"#utility.yul\":1725:1740   */\n  swap2\n  pop\n    /* \"#utility.yul\":1758:1763   */\n  dup4\n    /* \"#utility.yul\":1749:1763   */\n  swap1\n  pop\n    /* \"#utility.yul\":1772:2484   */\ntag_80:\n    /* \"#utility.yul\":1793:1794   */\n  0x01\n    /* \"#utility.yul\":1783:1791   */\n  dup6\n    /* \"#utility.yul\":1780:1795   */\n  gt\n    /* \"#utility.yul\":1772:2484   */\n  iszero\n  tag_82\n  jumpi\n    /* \"#utility.yul\":1888:1892   */\n  dup1\n    /* \"#utility.yul\":1883:1886   */\n  dup7\n    /* \"#utility.yul\":1879:1893   */\n  div\n    /* \"#utility.yul\":1873:1877   */\n  dup2\n    /* \"#utility.yul\":1870:1894   */\n  gt\n    /* \"#utility.yul\":1867:1917   */\n  iszero\n  tag_83\n  jumpi\n    /* \"#utility.yul\":1897:1915   */\n  tag_84\n  tag_77\n  jump\t// in\ntag_84:\n    /* \"#utility.yul\":1867:1917   */\ntag_83:\n    /* \"#utility.yul\":1947:1948   */\n  0x01\n    /* \"#utility.yul\":1937:1945   */\n  dup6\n    /* \"#utility.yul\":1933:1949   */\n  and\n    /* \"#utility.yul\":1930:2381   */\n  iszero\n  tag_85\n  jumpi\n    /* \"#utility.yul\":2362:2366   */\n  dup1\n    /* \"#utility.yul\":2355:2360   */\n  dup3\n    /* \"#utility.yul\":2351:2367   */\n  mul\n    /* \"#utility.yul\":2342:2367   */\n  swap2\n  pop\n    /* \"#utility.yul\":1930:2381   */\ntag_85:\n    /* \"#utility.yul\":2412:2416   */\n  dup1\n    /* \"#utility.yul\":2406:2410   */\n  dup2\n    /* \"#utility.yul\":2402:2417   */\n  mul\n    /* \"#utility.yul\":2394:2417   */\n  swap1\n  pop\n    /* \"#utility.yul\":2442:2474   */\n  tag_86\n    /* \"#utility.yul\":2465:2473   */\n  dup6\n    /* \"#utility.yul\":2442:2474   */\n  tag_87\n  jump\t// in\ntag_86:\n    /* \"#utility.yul\":2430:2474   */\n  swap5\n  pop\n    /* \"#utility.yul\":1772:2484   */\n  jump(tag_80)\ntag_82:\n    /* \"#utility.yul\":1642:2490   */\n  swap5\n  pop\n  swap5\n  swap3\n  pop\n  pop\n  pop\n  jump\t// out\n    /* \"#utility.yul\":2496:2777   */\ntag_13:\n    /* \"#utility.yul\":2554:2559   */\n  0x00\n    /* \"#utility.yul\":2578:2601   */\n  tag_89\n    /* \"#utility.yul\":2596:2600   */\n  dup3\n    /* \"#utility.yul\":2578:2601   */\n  tag_66\n  jump\t// in\ntag_89:\n    /* \"#utility.yul\":2570:2601   */\n  swap2\n  pop\n    /* \"#utility.yul\":2622:2647   */\n  tag_90\n    /* \"#utility.yul\":2638:2646   */\n  dup4\n    /* \"#utility.yul\":2622:2647   */\n  tag_91\n  jump\t// in\ntag_90:\n    /* \"#utility.yul\":2610:2647   */\n  swap3\n  pop\n    /* \"#utility.yul\":2666:2770   */\n  tag_92\n    /* \"#utility.yul\":2703:2769   */\n  0xffffffffffffffffffffffffffffffffffffffffffffffffffffffffffffffff\n    /* \"#utility.yul\":2693:2701   */\n  dup5\n    /* \"#utility.yul\":2687:2691   */\n  dup5\n    /* \"#utility.yul\":2666:2770   */\n  tag_93\n  jump\t// in\ntag_92:\n    /* \"#utility.yul\":2657:2770   */\n  swap1\n  pop\n    /* \"#utility.yul\":2496:2777   */\n  swap3\n  swap2\n  pop\n  pop\n  jump\t// out\n    /* \"#utility.yul\":2783:3856   */\ntag_93:\n    /* \"#utility.yul\":2837:2842   */\n  0x00\n    /* \"#utility.yul\":3028:3036   */\n  dup3\n    /* \"#utility.yul\":3018:3058   */\n  tag_95\n  jumpi\n    /* \"#utility.yul\":3049:3050   */\n  0x01\n    /* \"#utility.yul\":3040:3050   */\n  swap1\n  pop\n    /* \"#utility.yul\":3051:3056   */\n  jump(tag_94)\n    /* \"#utility.yul\":3018:3058   */\ntag_95:\n    /* \"#utility.yul\":3077:3081   */\n  dup2\n    /* \"#utility.yul\":3067:3103   */\n  tag_96\n  jumpi\n    /* \"#utility.yul\":3094:3095   */\n  0x00\n    /* \"#utility.yul\":3085:3095   */\n  swap1\n  pop\n    /* \"#utility.yul\":3096:3101   */\n  jump(tag_94)\n    /* \"#utility.yul\":3067:3103   */\ntag_96:\n    /* \"#utility.yul\":3163:3167   */\n  dup2\n    /* \"#utility.yul\":3211:3212   */\n  0x01\n    /* \"#utility.yul\":3206:3233   */\n  dup2\n  eq\n  tag_98\n  jumpi\n    /* \"#utility.yul\":3247:3248   */\n  0x02\n    /* \"#utility.yul\":3242:3433   */\n  dup2\n  eq\n  tag_99\n  jumpi\n    /* \"#utility.yul\":3156:3433   */\n  jump(tag_97)\n    /* \"#utility.yul\":3206:3233   */\ntag_98:\n    /* \"#utility.yul\":3224:3225   */\n  0x01\n    /* \"#utility.yul\":3215:3225   */\n  swap2\n  pop\n    /* \"#utility.yul\":3226:3231   */\n  pop\n  jump(tag_94)\n    /* \"#utility.yul\":3242:3433   */\ntag_99:\n    /* \"#utility.yul\":3287:3290   */\n  0xff\n    /* \"#utility.yul\":3277:3285   */\n  dup5\n    /* \"#utility.yul\":3274:3291   */\n  gt\n    /* \"#utility.yul\":3271:3314   */\n  iszero\n  tag_100\n  jumpi\n    /* \"#utility.yul\":3294:3312   */\n  tag_101\n  tag_77\n  jump\t// in\ntag_101:\n    /* \"#utility.yul\":3271:3314   */\ntag_100:\n    /* \"#utility.yul\":3343:3351   */\n  dup4\n    /* \"#utility.yul\":3340:3341   */\n  0x02\n    /* \"#utility.yul\":3336:3352   */\n  exp\n    /* \"#utility.yul\":3327:3352   */\n  swap2\n  pop\n    /* \"#utility.yul\":3378:3381   */\n  dup5\n    /* \"#utility.yul\":3371:3376   */\n  dup3\n    /* \"#utility.yul\":3368:3382   */\n  gt\n    /* \"#utility.yul\":3365:3405   */\n  iszero\n  tag_102\n  jumpi\n    /* \"#utility.yul\":3385:3403   */\n  tag_103\n  tag_77\n  jump\t// in\ntag_103:\n    /* \"#utility.yul\":3365:3405   */\ntag_102:\n    /* \"#utility.yul\":3418:3423   */\n  pop\n  jump(tag_94)\n    /* \"#utility.yul\":3156:3433   */\ntag_97:\n  pop\n    /* \"#utility.yul\":3542:3544   */\n  0x20\n    /* \"#utility.yul\":3532:3540   */\n  dup4\n    /* \"#utility.yul\":3529:3545   */\n  lt\n    /* \"#utility.yul\":3523:3526   */\n  0x0133\n    /* \"#utility.yul\":3517:3521   */\n  dup4\n    /* \"#utility.yul\":3514:3527   */\n  lt\n    /* \"#utility.yul\":3510:3546   */\n  and\n    /* \"#utility.yul\":3492:3494   */\n  0x4e\n    /* \"#utility.yul\":3482:3490   */\n  dup5\n    /* \"#utility.yul\":3479:3495   */\n  lt\n    /* \"#utility.yul\":3474:3476   */\n  0x0b\n    /* \"#utility.yul\":3468:3472   */\n  dup5\n    /* \"#utility.yul\":3465:3477   */\n  lt\n    /* \"#utility.yul\":3461:3496   */\n  and\n    /* \"#utility.yul\":3445:3556   */\n  or\n    /* \"#utility.yul\":3442:3688   */\n  iszero\n  tag_104\n  jumpi\n    /* \"#utility.yul\":3598:3606   */\n  dup3\n    /* \"#utility.yul\":3592:3596   */\n  dup3\n    /* \"#utility.yul\":3588:3607   */\n  exp\n    /* \"#utility.yul\":3579:3607   */\n  swap1\n  pop\n    /* \"#utility.yul\":3633:3636   */\n  dup4\n    /* \"#utility.yul\":3626:3631   */\n  dup2\n    /* \"#utility.yul\":3623:3637   */\n  gt\n    /* \"#utility.yul\":3620:3660   */\n  iszero\n  tag_105\n  jumpi\n    /* \"#utility.yul\":3640:3658   */\n  tag_106\n  tag_77\n  jump\t// in\ntag_106:\n    /* \"#utility.yul\":3620:3660   */\ntag_105:\n    /* \"#utility.yul\":3673:3678   */\n  jump(tag_94)\n    /* \"#utility.yul\":3442:3688   */\ntag_104:\n    /* \"#utility.yul\":3713:3755   */\n  tag_107\n    /* \"#utility.yul\":3751:3754   */\n  dup5\n    /* \"#utility.yul\":3741:3749   */\n  dup5\n    /* \"#utility.yul\":3735:3739   */\n  dup5\n    /* \"#utility.yul\":3732:3733   */\n  0x01\n    /* \"#utility.yul\":3713:3755   */\n  tag_78\n  jump\t// in\ntag_107:\n    /* \"#utility.yul\":3698:3755   */\n  swap3\n  pop\n  swap1\n  pop\n    /* \"#utility.yul\":3787:3791   */\n  dup2\n    /* \"#utility.yul\":3782:3785   */\n  dup5\n    /* \"#utility.yul\":3778:3792   */\n  div\n    /* \"#utility.yul\":3771:3776   */\n  dup2\n    /* \"#utility.yul\":3768:3793   */\n  gt\n    /* \"#utility.yul\":3765:3816   */\n  iszero\n  tag_108\n  jumpi\n    /* \"#utility.yul\":3796:3814   */\n  tag_109\n  tag_77\n  jump\t// in\ntag_109:\n    /* \"#utility.yul\":3765:3816   */\ntag_108:\n    /* \"#utility.yul\":3845:3849   */\n  dup2\n    /* \"#utility.yul\":3838:3843   */\n  dup2\n    /* \"#utility.yul\":3834:3850   */\n  mul\n    /* \"#utility.yul\":3825:3850   */\n  swap1\n  pop\n    /* \"#utility.yul\":2783:3856   */\ntag_94:\n  swap4\n  swap3\n  pop\n  pop\n  pop\n  jump\t// out\n    /* \"#utility.yul\":3862:4210   */\ntag_15:\n    /* \"#utility.yul\":3902:3909   */\n  0x00\n    /* \"#utility.yul\":3925:3945   */\n  tag_111\n    /* \"#utility.yul\":3943:3944   */\n  dup3\n    /* \"#utility.yul\":3925:3945   */\n  tag_66\n  jump\t// in\ntag_111:\n    /* \"#utility.yul\":3920:3945   */\n  swap2\n  pop\n    /* \"#utility.yul\":3959:3979   */\n  tag_112\n    /* \"#utility.yul\":3977:3978   */\n  dup4\n    /* \"#utility.yul\":3959:3979   */\n  tag_66\n  jump\t// in\ntag_112:\n    /* \"#utility.yul\":3954:3979   */\n  swap3\n  pop\n    /* \"#utility.yul\":4147:4148   */\n  dup2\n    /* \"#utility.yul\":4079:4145   */\n  0xffffffffffffffffffffffffffffffffffffffffffffffffffffffffffffffff\n    /* \"#utility.yul\":4075:4149   */\n  div\n    /* \"#utility.yul\":4072:4073   */\n  dup4\n    /* \"#utility.yul\":4069:4150   */\n  gt\n    /* \"#utility.yul\":4064:4065   */\n  dup3\n    /* \"#utility.yul\":4057:4066   */\n  iszero\n    /* \"#utility.yul\":4050:4067   */\n  iszero\n    /* \"#utility.yul\":4046:4151   */\n  and\n    /* \"#utility.yul\":4043:4174   */\n  iszero\n  tag_113\n  jumpi\n    /* \"#utility.yul\":4154:4172   */\n  tag_114\n  tag_77\n  jump\t// in\ntag_114:\n    /* \"#utility.yul\":4043:4174   */\ntag_113:\n    /* \"#utility.yul\":4202:4203   */\n  dup3\n    /* \"#utility.yul\":4199:4200   */\n  dup3\n    /* \"#utility.yul\":4195:4204   */\n  mul\n    /* \"#utility.yul\":4184:4204   */\n  swap1\n  pop\n    /* \"#utility.yul\":3862:4210   */\n  swap3\n  swap2\n  pop\n  pop\n  jump\t// out\n    /* \"#utility.yul\":4216:4293   */\ntag_66:\n    /* \"#utility.yul\":4253:4260   */\n  0x00\n    /* \"#utility.yul\":4282:4287   */\n  dup2\n    /* \"#utility.yul\":4271:4287   */\n  swap1\n  pop\n    /* \"#utility.yul\":4216:4293   */\n  swap2\n  swap1\n  pop\n  jump\t// out\n    /* \"#utility.yul\":4299:4385   */\ntag_91:\n    /* \"#utility.yul\":4334:4341   */\n  0x00\n    /* \"#utility.yul\":4374:4378   */\n  0xff\n    /* \"#utility.yul\":4367:4372   */\n  dup3\n    /* \"#utility.yul\":4363:4379   */\n  and\n    /* \"#utility.yul\":4352:4379   */\n  swap1\n  pop\n    /* \"#utility.yul\":4299:4385   */\n  swap2\n  swap1\n  pop\n  jump\t// out\n    /* \"#utility.yul\":4391:4711   */\ntag_46:\n    /* \"#utility.yul\":4435:4441   */\n  0x00\n    /* \"#utility.yul\":4472:4473   */\n  0x02\n    /* \"#utility.yul\":4466:4470   */\n  dup3\n    /* \"#utility.yul\":4462:4474   */\n  div\n    /* \"#utility.yul\":4452:4474   */\n  swap1\n  pop\n    /* \"#utility.yul\":4519:4520   */\n  0x01\n    /* \"#utility.yul\":4513:4517   */\n  dup3\n    /* \"#utility.yul\":4509:4521   */\n  and\n    /* \"#utility.yul\":4540:4558   */\n  dup1\n    /* \"#utility.yul\":4530:4611   */\n  tag_118\n  jumpi\n    /* \"#utility.yul\":4596:4600   */\n  0x7f\n    /* \"#utility.yul\":4588:4594   */\n  dup3\n    /* \"#utility.yul\":4584:4601   */\n  and\n    /* \"#utility.yul\":4574:4601   */\n  swap2\n  pop\n    /* \"#utility.yul\":4530:4611   */\ntag_118:\n    /* \"#utility.yul\":4658:4660   */\n  0x20\n    /* \"#utility.yul\":4650:4656   */\n  dup3\n    /* \"#utility.yul\":4647:4661   */\n  lt\n    /* \"#utility.yul\":4627:4645   */\n  dup2\n    /* \"#utility.yul\":4624:4662   */\n  eq\n    /* \"#utility.yul\":4621:4705   */\n  iszero\n  tag_119\n  jumpi\n    /* \"#utility.yul\":4677:4695   */\n  tag_120\n  tag_121\n  jump\t// in\ntag_120:\n    /* \"#utility.yul\":4621:4705   */\ntag_119:\n    /* \"#utility.yul\":4442:4711   */\n  pop\n    /* \"#utility.yul\":4391:4711   */\n  swap2\n  swap1\n  pop\n  jump\t// out\n    /* \"#utility.yul\":4717:4897   */\ntag_77:\n    /* \"#utility.yul\":4765:4842   */\n  0x4e487b7100000000000000000000000000000000000000000000000000000000\n    /* \"#utility.yul\":4762:4763   */\n  0x00\n    /* \"#utility.yul\":4755:4843   */\n  mstore\n    /* \"#utility.yul\":4862:4866   */\n  0x11\n    /* \"#utility.yul\":4859:4860   */\n  0x04\n    /* \"#utility.yul\":4852:4867   */\n  mstore\n    /* \"#utility.yul\":4886:4890   */\n  0x24\n    /* \"#utility.yul\":4883:4884   */\n  0x00\n    /* \"#utility.yul\":4876:4891   */\n  revert\n    /* \"#utility.yul\":4903:5083   */\ntag_121:\n    /* \"#utility.yul\":4951:5028   */\n  0x4e487b7100000000000000000000000000000000000000000000000000000000\n    /* \"#utility.yul\":4948:4949   */\n  0x00\n    /* \"#utility.yul\":4941:5029   */\n  mstore\n    /* \"#utility.yul\":5048:5052   */\n  0x22\n    /* \"#utility.yul\":5045:5046   */\n  0x04\n    /* \"#utility.yul\":5038:5053   */\n  mstore\n    /* \"#utility.yul\":5072:5076   */\n  0x24\n    /* \"#utility.yul\":5069:5070   */\n  0x00\n    /* \"#utility.yul\":5062:5077   */\n  revert\n    /* \"#utility.yul\":5089:5191   */\ntag_87:\n    /* \"#utility.yul\":5131:5139   */\n  0x00\n    /* \"#utility.yul\":5178:5183   */\n  dup2\n    /* \"#utility.yul\":5175:5176   */\n  0x01\n    /* \"#utility.yul\":5171:5184   */\n  shr\n    /* \"#utility.yul\":5150:5184   */\n  swap1\n  pop\n    /* \"#utility.yul\":5089:5191   */\n  swap2\n  swap1\n  pop\n  jump\t// out\n    /* \"#utility.yul\":5197:5378   */\ntag_62:\n    /* \"#utility.yul\":5337:5370   */\n  0x45524332303a206d696e7420746f20746865207a65726f206164647265737300\n    /* \"#utility.yul\":5333:5334   */\n  0x00\n    /* \"#utility.yul\":5325:5331   */\n  dup3\n    /* \"#utility.yul\":5321:5335   */\n  add\n    /* \"#utility.yul\":5314:5371   */\n  mstore\n    /* \"#utility.yul\":5197:5378   */\n  pop\n  jump\t// out\n    /* \"contracts/25_Roles.sol\":185:687  contract Roles is ERC20, AccessControl {... */\ntag_20:\n  dataSize(sub_0)\n  dup1\n  dataOffset(sub_0)\n  0x00\n  codecopy\n  0x00\n  return\nstop\n\nsub_0: assembly {\n        /* \"contracts/25_Roles.sol\":185:687  contract Roles is ERC20, AccessControl {... */\n      mstore(0x40, 0x80)\n      callvalue\n      dup1\n      iszero\n      tag_1\n      jumpi\n      0x00\n      dup1\n      revert\n    tag_1:\n      pop\n      jumpi(tag_2, lt(calldatasize, 0x04))\n      shr(0xe0, calldataload(0x00))\n      dup1\n      0x40c10f19\n      gt\n      tag_23\n      jumpi\n      dup1\n      0xa457c2d7\n      gt\n      tag_24\n      jumpi\n      dup1\n      0xa457c2d7\n      eq\n      tag_18\n      jumpi\n      dup1\n      0xa9059cbb\n      eq\n      tag_19\n      jumpi\n      dup1\n      0xd5391393\n      eq\n      tag_20\n      jumpi\n      dup1\n      0xd547741f\n      eq\n      tag_21\n      jumpi\n      dup1\n      0xdd62ed3e\n      eq\n      tag_22\n      jumpi\n      jump(tag_2)\n    tag_24:\n      dup1\n      0x40c10f19\n      eq\n      tag_13\n      jumpi\n      dup1\n      0x70a08231\n      eq\n      tag_14\n      jumpi\n      dup1\n      0x91d14854\n      eq\n      tag_15\n      jumpi\n      dup1\n      0x95d89b41\n      eq\n      tag_16\n      jumpi\n      dup1\n      0xa217fddf\n      eq\n      tag_17\n      jumpi\n      jump(tag_2)\n    tag_23:\n      dup1\n      0x248a9ca3\n      gt\n      tag_25\n      jumpi\n      dup1\n      0x248a9ca3\n      eq\n      tag_8\n      jumpi\n      dup1\n      0x2f2ff15d\n      eq\n      tag_9\n      jumpi\n      dup1\n      0x313ce567\n      eq\n      tag_10\n      jumpi\n      dup1\n      0x36568abe\n      eq\n      tag_11\n      jumpi\n      dup1\n      0x39509351\n      eq\n      tag_12\n      jumpi\n      jump(tag_2)\n    tag_25:\n      dup1\n      0x01ffc9a7\n      eq\n      tag_3\n      jumpi\n      dup1\n      0x06fdde03\n      eq\n      tag_4\n      jumpi\n      dup1\n      0x095ea7b3\n      eq\n      tag_5\n      jumpi\n      dup1\n      0x18160ddd\n      eq\n      tag_6\n      jumpi\n      dup1\n      0x23b872dd\n      eq\n      tag_7\n      jumpi\n    tag_2:\n      0x00\n      dup1\n      revert\n        /* \"@openzeppelin/contracts@4.7.3/access/AccessControl.sol\":2606:2808  function supportsInterface(bytes4 interfaceId) public view virtual override returns (bool) {... */\n    tag_3:\n      tag_26\n      0x04\n      dup1\n      calldatasize\n      sub\n      dup2\n      add\n      swap1\n      tag_27\n      swap2\n      swap1\n      tag_28\n      jump\t// in\n    tag_27:\n      tag_29\n      jump\t// in\n    tag_26:\n      mload(0x40)\n      tag_30\n      swap2\n      swap1\n      tag_31\n      jump\t// in\n    tag_30:\n      mload(0x40)\n      dup1\n      swap2\n      sub\n      swap1\n      return\n        /* \"@openzeppelin/contracts@4.7.3/token/ERC20/ERC20.sol\":2156:2254  function name() public view virtual override returns (string memory) {... */\n    tag_4:\n      tag_32\n      tag_33\n      jump\t// in\n    tag_32:\n      mload(0x40)\n      tag_34\n      swap2\n      swap1\n      tag_35\n      jump\t// in\n    tag_34:\n      mload(0x40)\n      dup1\n      swap2\n      sub\n      swap1\n      return\n        /* \"@openzeppelin/contracts@4.7.3/token/ERC20/ERC20.sol\":4433:4630  function approve(address spender, uint256 amount) public virtual override returns (bool) {... */\n    tag_5:\n      tag_36\n      0x04\n      dup1\n      calldatasize\n      sub\n      dup2\n      add\n      swap1\n      tag_37\n      swap2\n      swap1\n      tag_38\n      jump\t// in\n    tag_37:\n      tag_39\n      jump\t// in\n    tag_36:\n      mload(0x40)\n      tag_40\n      swap2\n      swap1\n      tag_31\n      jump\t// in\n    tag_40:\n      mload(0x40)\n      dup1\n      swap2\n      sub\n      swap1\n      return\n        /* \"@openzeppelin/contracts@4.7.3/token/ERC20/ERC20.sol\":3244:3350  function totalSupply() public view virtual override returns (uint256) {... */\n    tag_6:\n      tag_41\n      tag_42\n      jump\t// in\n    tag_41:\n      mload(0x40)\n      tag_43\n      swap2\n      swap1\n      tag_44\n      jump\t// in\n    tag_43:\n      mload(0x40)\n      dup1\n      swap2\n      sub\n      swap1\n      return\n        /* \"@openzeppelin/contracts@4.7.3/token/ERC20/ERC20.sol\":5192:5478  function transferFrom(... */\n    tag_7:\n      tag_45\n      0x04\n      dup1\n      calldatasize\n      sub\n      dup2\n      add\n      swap1\n      tag_46\n      swap2\n      swap1\n      tag_47\n      jump\t// in\n    tag_46:\n      tag_48\n      jump\t// in\n    tag_45:\n      mload(0x40)\n      tag_49\n      swap2\n      swap1\n      tag_31\n      jump\t// in\n    tag_49:\n      mload(0x40)\n      dup1\n      swap2\n      sub\n      swap1\n      return\n        /* \"@openzeppelin/contracts@4.7.3/access/AccessControl.sol\":4391:4520  function getRoleAdmin(bytes32 role) public view virtual override returns (bytes32) {... */\n    tag_8:\n      tag_50\n      0x04\n      dup1\n      calldatasize\n      sub\n      dup2\n      add\n      swap1\n      tag_51\n      swap2\n      swap1\n      tag_52\n      jump\t// in\n    tag_51:\n      tag_53\n      jump\t// in\n    tag_50:\n      mload(0x40)\n      tag_54\n      swap2\n      swap1\n      tag_55\n      jump\t// in\n    tag_54:\n      mload(0x40)\n      dup1\n      swap2\n      sub\n      swap1\n      return\n        /* \"@openzeppelin/contracts@4.7.3/access/AccessControl.sol\":4816:4961  function grantRole(bytes32 role, address account) public virtual override onlyRole(getRoleAdmin(role)) {... */\n    tag_9:\n      tag_56\n      0x04\n      dup1\n      calldatasize\n      sub\n      dup2\n      add\n      swap1\n      tag_57\n      swap2\n      swap1\n      tag_58\n      jump\t// in\n    tag_57:\n      tag_59\n      jump\t// in\n    tag_56:\n      stop\n        /* \"@openzeppelin/contracts@4.7.3/token/ERC20/ERC20.sol\":3093:3184  function decimals() public view virtual override returns (uint8) {... */\n    tag_10:\n      tag_60\n      tag_61\n      jump\t// in\n    tag_60:\n      mload(0x40)\n      tag_62\n      swap2\n      swap1\n      tag_63\n      jump\t// in\n    tag_62:\n      mload(0x40)\n      dup1\n      swap2\n      sub\n      swap1\n      return\n        /* \"@openzeppelin/contracts@4.7.3/access/AccessControl.sol\":5925:6139  function renounceRole(bytes32 role, address account) public virtual override {... */\n    tag_11:\n      tag_64\n      0x04\n      dup1\n      calldatasize\n      sub\n      dup2\n      add\n      swap1\n      tag_65\n      swap2\n      swap1\n      tag_58\n      jump\t// in\n    tag_65:\n      tag_66\n      jump\t// in\n    tag_64:\n      stop\n        /* \"@openzeppelin/contracts@4.7.3/token/ERC20/ERC20.sol\":5873:6107  function increaseAllowance(address spender, uint256 addedValue) public virtual returns (bool) {... */\n    tag_12:\n      tag_67\n      0x04\n      dup1\n      calldatasize\n      sub\n      dup2\n      add\n      swap1\n      tag_68\n      swap2\n      swap1\n      tag_38\n      jump\t// in\n    tag_68:\n      tag_69\n      jump\t// in\n    tag_67:\n      mload(0x40)\n      tag_70\n      swap2\n      swap1\n      tag_31\n      jump\t// in\n    tag_70:\n      mload(0x40)\n      dup1\n      swap2\n      sub\n      swap1\n      return\n        /* \"contracts/25_Roles.sol\":580:685  function mint(address to, uint256 amount) public onlyRole(MINTER_ROLE) {... */\n    tag_13:\n      tag_71\n      0x04\n      dup1\n      calldatasize\n      sub\n      dup2\n      add\n      swap1\n      tag_72\n      swap2\n      swap1\n      tag_38\n      jump\t// in\n    tag_72:\n      tag_73\n      jump\t// in\n    tag_71:\n      stop\n        /* \"@openzeppelin/contracts@4.7.3/token/ERC20/ERC20.sol\":3408:3533  function balanceOf(address account) public view virtual override returns (uint256) {... */\n    tag_14:\n      tag_74\n      0x04\n      dup1\n      calldatasize\n      sub\n      dup2\n      add\n      swap1\n      tag_75\n      swap2\n      swap1\n      tag_76\n      jump\t// in\n    tag_75:\n      tag_77\n      jump\t// in\n    tag_74:\n      mload(0x40)\n      tag_78\n      swap2\n      swap1\n      tag_44\n      jump\t// in\n    tag_78:\n      mload(0x40)\n      dup1\n      swap2\n      sub\n      swap1\n      return\n        /* \"@openzeppelin/contracts@4.7.3/access/AccessControl.sol\":2895:3040  function hasRole(bytes32 role, address account) public view virtual override returns (bool) {... */\n    tag_15:\n      tag_79\n      0x04\n      dup1\n      calldatasize\n      sub\n      dup2\n      add\n      swap1\n      tag_80\n      swap2\n      swap1\n      tag_58\n      jump\t// in\n    tag_80:\n      tag_81\n      jump\t// in\n    tag_79:\n      mload(0x40)\n      tag_82\n      swap2\n      swap1\n      tag_31\n      jump\t// in\n    tag_82:\n      mload(0x40)\n      dup1\n      swap2\n      sub\n      swap1\n      return\n        /* \"@openzeppelin/contracts@4.7.3/token/ERC20/ERC20.sol\":2367:2469  function symbol() public view virtual override returns (string memory) {... */\n    tag_16:\n      tag_83\n      tag_84\n      jump\t// in\n    tag_83:\n      mload(0x40)\n      tag_85\n      swap2\n      swap1\n      tag_35\n      jump\t// in\n    tag_85:\n      mload(0x40)\n      dup1\n      swap2\n      sub\n      swap1\n      return\n        /* \"@openzeppelin/contracts@4.7.3/access/AccessControl.sol\":2027:2076  bytes32 public constant DEFAULT_ADMIN_ROLE = 0x00 */\n    tag_17:\n      tag_86\n      tag_87\n      jump\t// in\n    tag_86:\n      mload(0x40)\n      tag_88\n      swap2\n      swap1\n      tag_55\n      jump\t// in\n    tag_88:\n      mload(0x40)\n      dup1\n      swap2\n      sub\n      swap1\n      return\n        /* \"@openzeppelin/contracts@4.7.3/token/ERC20/ERC20.sol\":6594:7021  function decreaseAllowance(address spender, uint256 subtractedValue) public virtual returns (bool) {... */\n    tag_18:\n      tag_89\n      0x04\n      dup1\n      calldatasize\n      sub\n      dup2\n      add\n      swap1\n      tag_90\n      swap2\n      swap1\n      tag_38\n      jump\t// in\n    tag_90:\n      tag_91\n      jump\t// in\n    tag_89:\n      mload(0x40)\n      tag_92\n      swap2\n      swap1\n      tag_31\n      jump\t// in\n    tag_92:\n      mload(0x40)\n      dup1\n      swap2\n      sub\n      swap1\n      return\n        /* \"@openzeppelin/contracts@4.7.3/token/ERC20/ERC20.sol\":3729:3918  function transfer(address to, uint256 amount) public virtual override returns (bool) {... */\n    tag_19:\n      tag_93\n      0x04\n      dup1\n      calldatasize\n      sub\n      dup2\n      add\n      swap1\n      tag_94\n      swap2\n      swap1\n      tag_38\n      jump\t// in\n    tag_94:\n      tag_95\n      jump\t// in\n    tag_93:\n      mload(0x40)\n      tag_96\n      swap2\n      swap1\n      tag_31\n      jump\t// in\n    tag_96:\n      mload(0x40)\n      dup1\n      swap2\n      sub\n      swap1\n      return\n        /* \"contracts/25_Roles.sol\":230:292  bytes32 public constant MINTER_ROLE = keccak256(\"MINTER_ROLE\") */\n    tag_20:\n      tag_97\n      tag_98\n      jump\t// in\n    tag_97:\n      mload(0x40)\n      tag_99\n      swap2\n      swap1\n      tag_55\n      jump\t// in\n    tag_99:\n      mload(0x40)\n      dup1\n      swap2\n      sub\n      swap1\n      return\n        /* \"@openzeppelin/contracts@4.7.3/access/AccessControl.sol\":5241:5388  function revokeRole(bytes32 role, address account) public virtual override onlyRole(getRoleAdmin(role)) {... */\n    tag_21:\n      tag_100\n      0x04\n      dup1\n      calldatasize\n      sub\n      dup2\n      add\n      swap1\n      tag_101\n      swap2\n      swap1\n      tag_58\n      jump\t// in\n    tag_101:\n      tag_102\n      jump\t// in\n    tag_100:\n      stop\n        /* \"@openzeppelin/contracts@4.7.3/token/ERC20/ERC20.sol\":3976:4125  function allowance(address owner, address spender) public view virtual override returns (uint256) {... */\n    tag_22:\n      tag_103\n      0x04\n      dup1\n      calldatasize\n      sub\n      dup2\n      add\n      swap1\n      tag_104\n      swap2\n      swap1\n      tag_105\n      jump\t// in\n    tag_104:\n      tag_106\n      jump\t// in\n    tag_103:\n      mload(0x40)\n      tag_107\n      swap2\n      swap1\n      tag_44\n      jump\t// in\n    tag_107:\n      mload(0x40)\n      dup1\n      swap2\n      sub\n      swap1\n      return\n        /* \"@openzeppelin/contracts@4.7.3/access/AccessControl.sol\":2606:2808  function supportsInterface(bytes4 interfaceId) public view virtual override returns (bool) {... */\n    tag_29:\n        /* \"@openzeppelin/contracts@4.7.3/access/AccessControl.sol\":2691:2695  bool */\n      0x00\n        /* \"@openzeppelin/contracts@4.7.3/access/AccessControl.sol\":2729:2761  type(IAccessControl).interfaceId */\n      0x7965db0b00000000000000000000000000000000000000000000000000000000\n        /* \"@openzeppelin/contracts@4.7.3/access/AccessControl.sol\":2714:2761  interfaceId == type(IAccessControl).interfaceId */\n      not(0xffffffffffffffffffffffffffffffffffffffffffffffffffffffff)\n      and\n        /* \"@openzeppelin/contracts@4.7.3/access/AccessControl.sol\":2714:2725  interfaceId */\n      dup3\n        /* \"@openzeppelin/contracts@4.7.3/access/AccessControl.sol\":2714:2761  interfaceId == type(IAccessControl).interfaceId */\n      not(0xffffffffffffffffffffffffffffffffffffffffffffffffffffffff)\n      and\n      eq\n        /* \"@openzeppelin/contracts@4.7.3/access/AccessControl.sol\":2714:2801  interfaceId == type(IAccessControl).interfaceId || super.supportsInterface(interfaceId) */\n      dup1\n      tag_109\n      jumpi\n      pop\n        /* \"@openzeppelin/contracts@4.7.3/access/AccessControl.sol\":2765:2801  super.supportsInterface(interfaceId) */\n      tag_110\n        /* \"@openzeppelin/contracts@4.7.3/access/AccessControl.sol\":2789:2800  interfaceId */\n      dup3\n        /* \"@openzeppelin/contracts@4.7.3/access/AccessControl.sol\":2765:2788  super.supportsInterface */\n      tag_111\n        /* \"@openzeppelin/contracts@4.7.3/access/AccessControl.sol\":2765:2801  super.supportsInterface(interfaceId) */\n      jump\t// in\n    tag_110:\n        /* \"@openzeppelin/contracts@4.7.3/access/AccessControl.sol\":2714:2801  interfaceId == type(IAccessControl).interfaceId || super.supportsInterface(interfaceId) */\n    tag_109:\n        /* \"@openzeppelin/contracts@4.7.3/access/AccessControl.sol\":2707:2801  return interfaceId == type(IAccessControl).interfaceId || super.supportsInterface(interfaceId) */\n      swap1\n      pop\n        /* \"@openzeppelin/contracts@4.7.3/access/AccessControl.sol\":2606:2808  function supportsInterface(bytes4 interfaceId) public view virtual override returns (bool) {... */\n      swap2\n      swap1\n      pop\n      jump\t// out\n        /* \"@openzeppelin/contracts@4.7.3/token/ERC20/ERC20.sol\":2156:2254  function name() public view virtual override returns (string memory) {... */\n    tag_33:\n        /* \"@openzeppelin/contracts@4.7.3/token/ERC20/ERC20.sol\":2210:2223  string memory */\n      0x60\n        /* \"@openzeppelin/contracts@4.7.3/token/ERC20/ERC20.sol\":2242:2247  _name */\n      0x03\n        /* \"@openzeppelin/contracts@4.7.3/token/ERC20/ERC20.sol\":2235:2247  return _name */\n      dup1\n      sload\n      tag_113\n      swap1\n      tag_114\n      jump\t// in\n    tag_113:\n      dup1\n      0x1f\n      add\n      0x20\n      dup1\n      swap2\n      div\n      mul\n      0x20\n      add\n      mload(0x40)\n      swap1\n      dup2\n      add\n      0x40\n      mstore\n      dup1\n      swap3\n      swap2\n      swap1\n      dup2\n      dup2\n      mstore\n      0x20\n      add\n      dup3\n      dup1\n      sload\n      tag_115\n      swap1\n      tag_114\n      jump\t// in\n    tag_115:\n      dup1\n      iszero\n      tag_116\n      jumpi\n      dup1\n      0x1f\n      lt\n      tag_117\n      jumpi\n      0x0100\n      dup1\n      dup4\n      sload\n      div\n      mul\n      dup4\n      mstore\n      swap2\n      0x20\n      add\n      swap2\n      jump(tag_116)\n    tag_117:\n      dup3\n      add\n      swap2\n      swap1\n      0x00\n      mstore\n      keccak256(0x00, 0x20)\n      swap1\n    tag_118:\n      dup2\n      sload\n      dup2\n      mstore\n      swap1\n      0x01\n      add\n      swap1\n      0x20\n      add\n      dup1\n      dup4\n      gt\n      tag_118\n      jumpi\n      dup3\n      swap1\n      sub\n      0x1f\n      and\n      dup3\n      add\n      swap2\n    tag_116:\n      pop\n      pop\n      pop\n      pop\n      pop\n      swap1\n      pop\n        /* \"@openzeppelin/contracts@4.7.3/token/ERC20/ERC20.sol\":2156:2254  function name() public view virtual override returns (string memory) {... */\n      swap1\n      jump\t// out\n        /* \"@openzeppelin/contracts@4.7.3/token/ERC20/ERC20.sol\":4433:4630  function approve(address spender, uint256 amount) public virtual override returns (bool) {... */\n    tag_39:\n        /* \"@openzeppelin/contracts@4.7.3/token/ERC20/ERC20.sol\":4516:4520  bool */\n      0x00\n        /* \"@openzeppelin/contracts@4.7.3/token/ERC20/ERC20.sol\":4532:4545  address owner */\n      dup1\n        /* \"@openzeppelin/contracts@4.7.3/token/ERC20/ERC20.sol\":4548:4560  _msgSender() */\n      tag_120\n        /* \"@openzeppelin/contracts@4.7.3/token/ERC20/ERC20.sol\":4548:4558  _msgSender */\n      tag_121\n        /* \"@openzeppelin/contracts@4.7.3/token/ERC20/ERC20.sol\":4548:4560  _msgSender() */\n      jump\t// in\n    tag_120:\n        /* \"@openzeppelin/contracts@4.7.3/token/ERC20/ERC20.sol\":4532:4560  address owner = _msgSender() */\n      swap1\n      pop\n        /* \"@openzeppelin/contracts@4.7.3/token/ERC20/ERC20.sol\":4570:4602  _approve(owner, spender, amount) */\n      tag_122\n        /* \"@openzeppelin/contracts@4.7.3/token/ERC20/ERC20.sol\":4579:4584  owner */\n      dup2\n        /* \"@openzeppelin/contracts@4.7.3/token/ERC20/ERC20.sol\":4586:4593  spender */\n      dup6\n        /* \"@openzeppelin/contracts@4.7.3/token/ERC20/ERC20.sol\":4595:4601  amount */\n      dup6\n        /* \"@openzeppelin/contracts@4.7.3/token/ERC20/ERC20.sol\":4570:4578  _approve */\n      tag_123\n        /* \"@openzeppelin/contracts@4.7.3/token/ERC20/ERC20.sol\":4570:4602  _approve(owner, spender, amount) */\n      jump\t// in\n    tag_122:\n        /* \"@openzeppelin/contracts@4.7.3/token/ERC20/ERC20.sol\":4619:4623  true */\n      0x01\n        /* \"@openzeppelin/contracts@4.7.3/token/ERC20/ERC20.sol\":4612:4623  return true */\n      swap2\n      pop\n      pop\n        /* \"@openzeppelin/contracts@4.7.3/token/ERC20/ERC20.sol\":4433:4630  function approve(address spender, uint256 amount) public virtual override returns (bool) {... */\n      swap3\n      swap2\n      pop\n      pop\n      jump\t// out\n        /* \"@openzeppelin/contracts@4.7.3/token/ERC20/ERC20.sol\":3244:3350  function totalSupply() public view virtual override returns (uint256) {... */\n    tag_42:\n        /* \"@openzeppelin/contracts@4.7.3/token/ERC20/ERC20.sol\":3305:3312  uint256 */\n      0x00\n        /* \"@openzeppelin/contracts@4.7.3/token/ERC20/ERC20.sol\":3331:3343  _totalSupply */\n      sload(0x02)\n        /* \"@openzeppelin/contracts@4.7.3/token/ERC20/ERC20.sol\":3324:3343  return _totalSupply */\n      swap1\n      pop\n        /* \"@openzeppelin/contracts@4.7.3/token/ERC20/ERC20.sol\":3244:3350  function totalSupply() public view virtual override returns (uint256) {... */\n      swap1\n      jump\t// out\n        /* \"@openzeppelin/contracts@4.7.3/token/ERC20/ERC20.sol\":5192:5478  function transferFrom(... */\n    tag_48:\n        /* \"@openzeppelin/contracts@4.7.3/token/ERC20/ERC20.sol\":5319:5323  bool */\n      0x00\n        /* \"@openzeppelin/contracts@4.7.3/token/ERC20/ERC20.sol\":5335:5350  address spender */\n      dup1\n        /* \"@openzeppelin/contracts@4.7.3/token/ERC20/ERC20.sol\":5353:5365  _msgSender() */\n      tag_126\n        /* \"@openzeppelin/contracts@4.7.3/token/ERC20/ERC20.sol\":5353:5363  _msgSender */\n      tag_121\n        /* \"@openzeppelin/contracts@4.7.3/token/ERC20/ERC20.sol\":5353:5365  _msgSender() */\n      jump\t// in\n    tag_126:\n        /* \"@openzeppelin/contracts@4.7.3/token/ERC20/ERC20.sol\":5335:5365  address spender = _msgSender() */\n      swap1\n      pop\n        /* \"@openzeppelin/contracts@4.7.3/token/ERC20/ERC20.sol\":5375:5413  _spendAllowance(from, spender, amount) */\n      tag_127\n        /* \"@openzeppelin/contracts@4.7.3/token/ERC20/ERC20.sol\":5391:5395  from */\n      dup6\n        /* \"@openzeppelin/contracts@4.7.3/token/ERC20/ERC20.sol\":5397:5404  spender */\n      dup3\n        /* \"@openzeppelin/contracts@4.7.3/token/ERC20/ERC20.sol\":5406:5412  amount */\n      dup6\n        /* \"@openzeppelin/contracts@4.7.3/token/ERC20/ERC20.sol\":5375:5390  _spendAllowance */\n      tag_128\n        /* \"@openzeppelin/contracts@4.7.3/token/ERC20/ERC20.sol\":5375:5413  _spendAllowance(from, spender, amount) */\n      jump\t// in\n    tag_127:\n        /* \"@openzeppelin/contracts@4.7.3/token/ERC20/ERC20.sol\":5423:5450  _transfer(from, to, amount) */\n      tag_129\n        /* \"@openzeppelin/contracts@4.7.3/token/ERC20/ERC20.sol\":5433:5437  from */\n      dup6\n        /* \"@openzeppelin/contracts@4.7.3/token/ERC20/ERC20.sol\":5439:5441  to */\n      dup6\n        /* \"@openzeppelin/contracts@4.7.3/token/ERC20/ERC20.sol\":5443:5449  amount */\n      dup6\n        /* \"@openzeppelin/contracts@4.7.3/token/ERC20/ERC20.sol\":5423:5432  _transfer */\n      tag_130\n        /* \"@openzeppelin/contracts@4.7.3/token/ERC20/ERC20.sol\":5423:5450  _transfer(from, to, amount) */\n      jump\t// in\n    tag_129:\n        /* \"@openzeppelin/contracts@4.7.3/token/ERC20/ERC20.sol\":5467:5471  true */\n      0x01\n        /* \"@openzeppelin/contracts@4.7.3/token/ERC20/ERC20.sol\":5460:5471  return true */\n      swap2\n      pop\n      pop\n        /* \"@openzeppelin/contracts@4.7.3/token/ERC20/ERC20.sol\":5192:5478  function transferFrom(... */\n      swap4\n      swap3\n      pop\n      pop\n      pop\n      jump\t// out\n        /* \"@openzeppelin/contracts@4.7.3/access/AccessControl.sol\":4391:4520  function getRoleAdmin(bytes32 role) public view virtual override returns (bytes32) {... */\n    tag_53:\n        /* \"@openzeppelin/contracts@4.7.3/access/AccessControl.sol\":4465:4472  bytes32 */\n      0x00\n        /* \"@openzeppelin/contracts@4.7.3/access/AccessControl.sol\":4491:4497  _roles */\n      0x05\n        /* \"@openzeppelin/contracts@4.7.3/access/AccessControl.sol\":4491:4503  _roles[role] */\n      0x00\n        /* \"@openzeppelin/contracts@4.7.3/access/AccessControl.sol\":4498:4502  role */\n      dup4\n        /* \"@openzeppelin/contracts@4.7.3/access/AccessControl.sol\":4491:4503  _roles[role] */\n      dup2\n      mstore\n      0x20\n      add\n      swap1\n      dup2\n      mstore\n      0x20\n      add\n      0x00\n      keccak256\n        /* \"@openzeppelin/contracts@4.7.3/access/AccessControl.sol\":4491:4513  _roles[role].adminRole */\n      0x01\n      add\n      sload\n        /* \"@openzeppelin/contracts@4.7.3/access/AccessControl.sol\":4484:4513  return _roles[role].adminRole */\n      swap1\n      pop\n        /* \"@openzeppelin/contracts@4.7.3/access/AccessControl.sol\":4391:4520  function getRoleAdmin(bytes32 role) public view virtual override returns (bytes32) {... */\n      swap2\n      swap1\n      pop\n      jump\t// out\n        /* \"@openzeppelin/contracts@4.7.3/access/AccessControl.sol\":4816:4961  function grantRole(bytes32 role, address account) public virtual override onlyRole(getRoleAdmin(role)) {... */\n    tag_59:\n        /* \"@openzeppelin/contracts@4.7.3/access/AccessControl.sol\":4899:4917  getRoleAdmin(role) */\n      tag_132\n        /* \"@openzeppelin/contracts@4.7.3/access/AccessControl.sol\":4912:4916  role */\n      dup3\n        /* \"@openzeppelin/contracts@4.7.3/access/AccessControl.sol\":4899:4911  getRoleAdmin */\n      tag_53\n        /* \"@openzeppelin/contracts@4.7.3/access/AccessControl.sol\":4899:4917  getRoleAdmin(role) */\n      jump\t// in\n    tag_132:\n        /* \"@openzeppelin/contracts@4.7.3/access/AccessControl.sol\":2505:2521  _checkRole(role) */\n      tag_134\n        /* \"@openzeppelin/contracts@4.7.3/access/AccessControl.sol\":2516:2520  role */\n      dup2\n        /* \"@openzeppelin/contracts@4.7.3/access/AccessControl.sol\":2505:2515  _checkRole */\n      tag_135\n        /* \"@openzeppelin/contracts@4.7.3/access/AccessControl.sol\":2505:2521  _checkRole(role) */\n      jump\t// in\n    tag_134:\n        /* \"@openzeppelin/contracts@4.7.3/access/AccessControl.sol\":4929:4954  _grantRole(role, account) */\n      tag_137\n        /* \"@openzeppelin/contracts@4.7.3/access/AccessControl.sol\":4940:4944  role */\n      dup4\n        /* \"@openzeppelin/contracts@4.7.3/access/AccessControl.sol\":4946:4953  account */\n      dup4\n        /* \"@openzeppelin/contracts@4.7.3/access/AccessControl.sol\":4929:4939  _grantRole */\n      tag_138\n        /* \"@openzeppelin/contracts@4.7.3/access/AccessControl.sol\":4929:4954  _grantRole(role, account) */\n      jump\t// in\n    tag_137:\n        /* \"@openzeppelin/contracts@4.7.3/access/AccessControl.sol\":4816:4961  function grantRole(bytes32 role, address account) public virtual override onlyRole(getRoleAdmin(role)) {... */\n      pop\n      pop\n      pop\n      jump\t// out\n        /* \"@openzeppelin/contracts@4.7.3/token/ERC20/ERC20.sol\":3093:3184  function decimals() public view virtual override returns (uint8) {... */\n    tag_61:\n        /* \"@openzeppelin/contracts@4.7.3/token/ERC20/ERC20.sol\":3151:3156  uint8 */\n      0x00\n        /* \"@openzeppelin/contracts@4.7.3/token/ERC20/ERC20.sol\":3175:3177  18 */\n      0x12\n        /* \"@openzeppelin/contracts@4.7.3/token/ERC20/ERC20.sol\":3168:3177  return 18 */\n      swap1\n      pop\n        /* \"@openzeppelin/contracts@4.7.3/token/ERC20/ERC20.sol\":3093:3184  function decimals() public view virtual override returns (uint8) {... */\n      swap1\n      jump\t// out\n        /* \"@openzeppelin/contracts@4.7.3/access/AccessControl.sol\":5925:6139  function renounceRole(bytes32 role, address account) public virtual override {... */\n    tag_66:\n        /* \"@openzeppelin/contracts@4.7.3/access/AccessControl.sol\":6031:6043  _msgSender() */\n      tag_141\n        /* \"@openzeppelin/contracts@4.7.3/access/AccessControl.sol\":6031:6041  _msgSender */\n      tag_121\n        /* \"@openzeppelin/contracts@4.7.3/access/AccessControl.sol\":6031:6043  _msgSender() */\n      jump\t// in\n    tag_141:\n        /* \"@openzeppelin/contracts@4.7.3/access/AccessControl.sol\":6020:6043  account == _msgSender() */\n      0xffffffffffffffffffffffffffffffffffffffff\n      and\n        /* \"@openzeppelin/contracts@4.7.3/access/AccessControl.sol\":6020:6027  account */\n      dup2\n        /* \"@openzeppelin/contracts@4.7.3/access/AccessControl.sol\":6020:6043  account == _msgSender() */\n      0xffffffffffffffffffffffffffffffffffffffff\n      and\n      eq\n        /* \"@openzeppelin/contracts@4.7.3/access/AccessControl.sol\":6012:6095  require(account == _msgSender(), \"AccessControl: can only renounce roles for self\") */\n      tag_142\n      jumpi\n      mload(0x40)\n      0x08c379a000000000000000000000000000000000000000000000000000000000\n      dup2\n      mstore\n      0x04\n      add\n      tag_143\n      swap1\n      tag_144\n      jump\t// in\n    tag_143:\n      mload(0x40)\n      dup1\n      swap2\n      sub\n      swap1\n      revert\n    tag_142:\n        /* \"@openzeppelin/contracts@4.7.3/access/AccessControl.sol\":6106:6132  _revokeRole(role, account) */\n      tag_145\n        /* \"@openzeppelin/contracts@4.7.3/access/AccessControl.sol\":6118:6122  role */\n      dup3\n        /* \"@openzeppelin/contracts@4.7.3/access/AccessControl.sol\":6124:6131  account */\n      dup3\n        /* \"@openzeppelin/contracts@4.7.3/access/AccessControl.sol\":6106:6117  _revokeRole */\n      tag_146\n        /* \"@openzeppelin/contracts@4.7.3/access/AccessControl.sol\":6106:6132  _revokeRole(role, account) */\n      jump\t// in\n    tag_145:\n        /* \"@openzeppelin/contracts@4.7.3/access/AccessControl.sol\":5925:6139  function renounceRole(bytes32 role, address account) public virtual override {... */\n      pop\n      pop\n      jump\t// out\n        /* \"@openzeppelin/contracts@4.7.3/token/ERC20/ERC20.sol\":5873:6107  function increaseAllowance(address spender, uint256 addedValue) public virtual returns (bool) {... */\n    tag_69:\n        /* \"@openzeppelin/contracts@4.7.3/token/ERC20/ERC20.sol\":5961:5965  bool */\n      0x00\n        /* \"@openzeppelin/contracts@4.7.3/token/ERC20/ERC20.sol\":5977:5990  address owner */\n      dup1\n        /* \"@openzeppelin/contracts@4.7.3/token/ERC20/ERC20.sol\":5993:6005  _msgSender() */\n      tag_148\n        /* \"@openzeppelin/contracts@4.7.3/token/ERC20/ERC20.sol\":5993:6003  _msgSender */\n      tag_121\n        /* \"@openzeppelin/contracts@4.7.3/token/ERC20/ERC20.sol\":5993:6005  _msgSender() */\n      jump\t// in\n    tag_148:\n        /* \"@openzeppelin/contracts@4.7.3/token/ERC20/ERC20.sol\":5977:6005  address owner = _msgSender() */\n      swap1\n      pop\n        /* \"@openzeppelin/contracts@4.7.3/token/ERC20/ERC20.sol\":6015:6079  _approve(owner, spender, allowance(owner, spender) + addedValue) */\n      tag_149\n        /* \"@openzeppelin/contracts@4.7.3/token/ERC20/ERC20.sol\":6024:6029  owner */\n      dup2\n        /* \"@openzeppelin/contracts@4.7.3/token/ERC20/ERC20.sol\":6031:6038  spender */\n      dup6\n        /* \"@openzeppelin/contracts@4.7.3/token/ERC20/ERC20.sol\":6068:6078  addedValue */\n      dup6\n        /* \"@openzeppelin/contracts@4.7.3/token/ERC20/ERC20.sol\":6040:6065  allowance(owner, spender) */\n      tag_150\n        /* \"@openzeppelin/contracts@4.7.3/token/ERC20/ERC20.sol\":6050:6055  owner */\n      dup6\n        /* \"@openzeppelin/contracts@4.7.3/token/ERC20/ERC20.sol\":6057:6064  spender */\n      dup10\n        /* \"@openzeppelin/contracts@4.7.3/token/ERC20/ERC20.sol\":6040:6049  allowance */\n      tag_106\n        /* \"@openzeppelin/contracts@4.7.3/token/ERC20/ERC20.sol\":6040:6065  allowance(owner, spender) */\n      jump\t// in\n    tag_150:\n        /* \"@openzeppelin/contracts@4.7.3/token/ERC20/ERC20.sol\":6040:6078  allowance(owner, spender) + addedValue */\n      tag_151\n      swap2\n      swap1\n      tag_152\n      jump\t// in\n    tag_151:\n        /* \"@openzeppelin/contracts@4.7.3/token/ERC20/ERC20.sol\":6015:6023  _approve */\n      tag_123\n        /* \"@openzeppelin/contracts@4.7.3/token/ERC20/ERC20.sol\":6015:6079  _approve(owner, spender, allowance(owner, spender) + addedValue) */\n      jump\t// in\n    tag_149:\n        /* \"@openzeppelin/contracts@4.7.3/token/ERC20/ERC20.sol\":6096:6100  true */\n      0x01\n        /* \"@openzeppelin/contracts@4.7.3/token/ERC20/ERC20.sol\":6089:6100  return true */\n      swap2\n      pop\n      pop\n        /* \"@openzeppelin/contracts@4.7.3/token/ERC20/ERC20.sol\":5873:6107  function increaseAllowance(address spender, uint256 addedValue) public virtual returns (bool) {... */\n      swap3\n      swap2\n      pop\n      pop\n      jump\t// out\n        /* \"contracts/25_Roles.sol\":580:685  function mint(address to, uint256 amount) public onlyRole(MINTER_ROLE) {... */\n    tag_73:\n        /* \"contracts/25_Roles.sol\":268:292  keccak256(\"MINTER_ROLE\") */\n      0x9f2df0fed2c77648de5860a4cc508cd0818c85b8b8a1ab4ceeef8d981c8956a6\n        /* \"@openzeppelin/contracts@4.7.3/access/AccessControl.sol\":2505:2521  _checkRole(role) */\n      tag_154\n        /* \"@openzeppelin/contracts@4.7.3/access/AccessControl.sol\":2516:2520  role */\n      dup2\n        /* \"@openzeppelin/contracts@4.7.3/access/AccessControl.sol\":2505:2515  _checkRole */\n      tag_135\n        /* \"@openzeppelin/contracts@4.7.3/access/AccessControl.sol\":2505:2521  _checkRole(role) */\n      jump\t// in\n    tag_154:\n        /* \"contracts/25_Roles.sol\":661:678  _mint(to, amount) */\n      tag_156\n        /* \"contracts/25_Roles.sol\":667:669  to */\n      dup4\n        /* \"contracts/25_Roles.sol\":671:677  amount */\n      dup4\n        /* \"contracts/25_Roles.sol\":661:666  _mint */\n      tag_157\n        /* \"contracts/25_Roles.sol\":661:678  _mint(to, amount) */\n      jump\t// in\n    tag_156:\n        /* \"contracts/25_Roles.sol\":580:685  function mint(address to, uint256 amount) public onlyRole(MINTER_ROLE) {... */\n      pop\n      pop\n      pop\n      jump\t// out\n        /* \"@openzeppelin/contracts@4.7.3/token/ERC20/ERC20.sol\":3408:3533  function balanceOf(address account) public view virtual override returns (uint256) {... */\n    tag_77:\n        /* \"@openzeppelin/contracts@4.7.3/token/ERC20/ERC20.sol\":3482:3489  uint256 */\n      0x00\n        /* \"@openzeppelin/contracts@4.7.3/token/ERC20/ERC20.sol\":3508:3517  _balances */\n      dup1\n        /* \"@openzeppelin/contracts@4.7.3/token/ERC20/ERC20.sol\":3508:3526  _balances[account] */\n      0x00\n        /* \"@openzeppelin/contracts@4.7.3/token/ERC20/ERC20.sol\":3518:3525  account */\n      dup4\n        /* \"@openzeppelin/contracts@4.7.3/token/ERC20/ERC20.sol\":3508:3526  _balances[account] */\n      0xffffffffffffffffffffffffffffffffffffffff\n      and\n      0xffffffffffffffffffffffffffffffffffffffff\n      and\n      dup2\n      mstore\n      0x20\n      add\n      swap1\n      dup2\n      mstore\n      0x20\n      add\n      0x00\n      keccak256\n      sload\n        /* \"@openzeppelin/contracts@4.7.3/token/ERC20/ERC20.sol\":3501:3526  return _balances[account] */\n      swap1\n      pop\n        /* \"@openzeppelin/contracts@4.7.3/token/ERC20/ERC20.sol\":3408:3533  function balanceOf(address account) public view virtual override returns (uint256) {... */\n      swap2\n      swap1\n      pop\n      jump\t// out\n        /* \"@openzeppelin/contracts@4.7.3/access/AccessControl.sol\":2895:3040  function hasRole(bytes32 role, address account) public view virtual override returns (bool) {... */\n    tag_81:\n        /* \"@openzeppelin/contracts@4.7.3/access/AccessControl.sol\":2981:2985  bool */\n      0x00\n        /* \"@openzeppelin/contracts@4.7.3/access/AccessControl.sol\":3004:3010  _roles */\n      0x05\n        /* \"@openzeppelin/contracts@4.7.3/access/AccessControl.sol\":3004:3016  _roles[role] */\n      0x00\n        /* \"@openzeppelin/contracts@4.7.3/access/AccessControl.sol\":3011:3015  role */\n      dup5\n        /* \"@openzeppelin/contracts@4.7.3/access/AccessControl.sol\":3004:3016  _roles[role] */\n      dup2\n      mstore\n      0x20\n      add\n      swap1\n      dup2\n      mstore\n      0x20\n      add\n      0x00\n      keccak256\n        /* \"@openzeppelin/contracts@4.7.3/access/AccessControl.sol\":3004:3024  _roles[role].members */\n      0x00\n      add\n        /* \"@openzeppelin/contracts@4.7.3/access/AccessControl.sol\":3004:3033  _roles[role].members[account] */\n      0x00\n        /* \"@openzeppelin/contracts@4.7.3/access/AccessControl.sol\":3025:3032  account */\n      dup4\n        /* \"@openzeppelin/contracts@4.7.3/access/AccessControl.sol\":3004:3033  _roles[role].members[account] */\n      0xffffffffffffffffffffffffffffffffffffffff\n      and\n      0xffffffffffffffffffffffffffffffffffffffff\n      and\n      dup2\n      mstore\n      0x20\n      add\n      swap1\n      dup2\n      mstore\n      0x20\n      add\n      0x00\n      keccak256\n      0x00\n      swap1\n      sload\n      swap1\n      0x0100\n      exp\n      swap1\n      div\n      0xff\n      and\n        /* \"@openzeppelin/contracts@4.7.3/access/AccessControl.sol\":2997:3033  return _roles[role].members[account] */\n      swap1\n      pop\n        /* \"@openzeppelin/contracts@4.7.3/access/AccessControl.sol\":2895:3040  function hasRole(bytes32 role, address account) public view virtual override returns (bool) {... */\n      swap3\n      swap2\n      pop\n      pop\n      jump\t// out\n        /* \"@openzeppelin/contracts@4.7.3/token/ERC20/ERC20.sol\":2367:2469  function symbol() public view virtual override returns (string memory) {... */\n    tag_84:\n        /* \"@openzeppelin/contracts@4.7.3/token/ERC20/ERC20.sol\":2423:2436  string memory */\n      0x60\n        /* \"@openzeppelin/contracts@4.7.3/token/ERC20/ERC20.sol\":2455:2462  _symbol */\n      0x04\n        /* \"@openzeppelin/contracts@4.7.3/token/ERC20/ERC20.sol\":2448:2462  return _symbol */\n      dup1\n      sload\n      tag_161\n      swap1\n      tag_114\n      jump\t// in\n    tag_161:\n      dup1\n      0x1f\n      add\n      0x20\n      dup1\n      swap2\n      div\n      mul\n      0x20\n      add\n      mload(0x40)\n      swap1\n      dup2\n      add\n      0x40\n      mstore\n      dup1\n      swap3\n      swap2\n      swap1\n      dup2\n      dup2\n      mstore\n      0x20\n      add\n      dup3\n      dup1\n      sload\n      tag_162\n      swap1\n      tag_114\n      jump\t// in\n    tag_162:\n      dup1\n      iszero\n      tag_163\n      jumpi\n      dup1\n      0x1f\n      lt\n      tag_164\n      jumpi\n      0x0100\n      dup1\n      dup4\n      sload\n      div\n      mul\n      dup4\n      mstore\n      swap2\n      0x20\n      add\n      swap2\n      jump(tag_163)\n    tag_164:\n      dup3\n      add\n      swap2\n      swap1\n      0x00\n      mstore\n      keccak256(0x00, 0x20)\n      swap1\n    tag_165:\n      dup2\n      sload\n      dup2\n      mstore\n      swap1\n      0x01\n      add\n      swap1\n      0x20\n      add\n      dup1\n      dup4\n      gt\n      tag_165\n      jumpi\n      dup3\n      swap1\n      sub\n      0x1f\n      and\n      dup3\n      add\n      swap2\n    tag_163:\n      pop\n      pop\n      pop\n      pop\n      pop\n      swap1\n      pop\n        /* \"@openzeppelin/contracts@4.7.3/token/ERC20/ERC20.sol\":2367:2469  function symbol() public view virtual override returns (string memory) {... */\n      swap1\n      jump\t// out\n        /* \"@openzeppelin/contracts@4.7.3/access/AccessControl.sol\":2027:2076  bytes32 public constant DEFAULT_ADMIN_ROLE = 0x00 */\n    tag_87:\n        /* \"@openzeppelin/contracts@4.7.3/access/AccessControl.sol\":2072:2076  0x00 */\n      0x00\n        /* \"@openzeppelin/contracts@4.7.3/access/AccessControl.sol\":2027:2076  bytes32 public constant DEFAULT_ADMIN_ROLE = 0x00 */\n      dup1\n      shl\n      dup2\n      jump\t// out\n        /* \"@openzeppelin/contracts@4.7.3/token/ERC20/ERC20.sol\":6594:7021  function decreaseAllowance(address spender, uint256 subtractedValue) public virtual returns (bool) {... */\n    tag_91:\n        /* \"@openzeppelin/contracts@4.7.3/token/ERC20/ERC20.sol\":6687:6691  bool */\n      0x00\n        /* \"@openzeppelin/contracts@4.7.3/token/ERC20/ERC20.sol\":6703:6716  address owner */\n      dup1\n        /* \"@openzeppelin/contracts@4.7.3/token/ERC20/ERC20.sol\":6719:6731  _msgSender() */\n      tag_167\n        /* \"@openzeppelin/contracts@4.7.3/token/ERC20/ERC20.sol\":6719:6729  _msgSender */\n      tag_121\n        /* \"@openzeppelin/contracts@4.7.3/token/ERC20/ERC20.sol\":6719:6731  _msgSender() */\n      jump\t// in\n    tag_167:\n        /* \"@openzeppelin/contracts@4.7.3/token/ERC20/ERC20.sol\":6703:6731  address owner = _msgSender() */\n      swap1\n      pop\n        /* \"@openzeppelin/contracts@4.7.3/token/ERC20/ERC20.sol\":6741:6765  uint256 currentAllowance */\n      0x00\n        /* \"@openzeppelin/contracts@4.7.3/token/ERC20/ERC20.sol\":6768:6793  allowance(owner, spender) */\n      tag_168\n        /* \"@openzeppelin/contracts@4.7.3/token/ERC20/ERC20.sol\":6778:6783  owner */\n      dup3\n        /* \"@openzeppelin/contracts@4.7.3/token/ERC20/ERC20.sol\":6785:6792  spender */\n      dup7\n        /* \"@openzeppelin/contracts@4.7.3/token/ERC20/ERC20.sol\":6768:6777  allowance */\n      tag_106\n        /* \"@openzeppelin/contracts@4.7.3/token/ERC20/ERC20.sol\":6768:6793  allowance(owner, spender) */\n      jump\t// in\n    tag_168:\n        /* \"@openzeppelin/contracts@4.7.3/token/ERC20/ERC20.sol\":6741:6793  uint256 currentAllowance = allowance(owner, spender) */\n      swap1\n      pop\n        /* \"@openzeppelin/contracts@4.7.3/token/ERC20/ERC20.sol\":6831:6846  subtractedValue */\n      dup4\n        /* \"@openzeppelin/contracts@4.7.3/token/ERC20/ERC20.sol\":6811:6827  currentAllowance */\n      dup2\n        /* \"@openzeppelin/contracts@4.7.3/token/ERC20/ERC20.sol\":6811:6846  currentAllowance >= subtractedValue */\n      lt\n      iszero\n        /* \"@openzeppelin/contracts@4.7.3/token/ERC20/ERC20.sol\":6803:6888  require(currentAllowance >= subtractedValue, \"ERC20: decreased allowance below zero\") */\n      tag_169\n      jumpi\n      mload(0x40)\n      0x08c379a000000000000000000000000000000000000000000000000000000000\n      dup2\n      mstore\n      0x04\n      add\n      tag_170\n      swap1\n      tag_171\n      jump\t// in\n    tag_170:\n      mload(0x40)\n      dup1\n      swap2\n      sub\n      swap1\n      revert\n    tag_169:\n        /* \"@openzeppelin/contracts@4.7.3/token/ERC20/ERC20.sol\":6922:6982  _approve(owner, spender, currentAllowance - subtractedValue) */\n      tag_172\n        /* \"@openzeppelin/contracts@4.7.3/token/ERC20/ERC20.sol\":6931:6936  owner */\n      dup3\n        /* \"@openzeppelin/contracts@4.7.3/token/ERC20/ERC20.sol\":6938:6945  spender */\n      dup7\n        /* \"@openzeppelin/contracts@4.7.3/token/ERC20/ERC20.sol\":6966:6981  subtractedValue */\n      dup7\n        /* \"@openzeppelin/contracts@4.7.3/token/ERC20/ERC20.sol\":6947:6963  currentAllowance */\n      dup5\n        /* \"@openzeppelin/contracts@4.7.3/token/ERC20/ERC20.sol\":6947:6981  currentAllowance - subtractedValue */\n      sub\n        /* \"@openzeppelin/contracts@4.7.3/token/ERC20/ERC20.sol\":6922:6930  _approve */\n      tag_123\n        /* \"@openzeppelin/contracts@4.7.3/token/ERC20/ERC20.sol\":6922:6982  _approve(owner, spender, currentAllowance - subtractedValue) */\n      jump\t// in\n    tag_172:\n        /* \"@openzeppelin/contracts@4.7.3/token/ERC20/ERC20.sol\":7010:7014  true */\n      0x01\n        /* \"@openzeppelin/contracts@4.7.3/token/ERC20/ERC20.sol\":7003:7014  return true */\n      swap3\n      pop\n      pop\n      pop\n        /* \"@openzeppelin/contracts@4.7.3/token/ERC20/ERC20.sol\":6594:7021  function decreaseAllowance(address spender, uint256 subtractedValue) public virtual returns (bool) {... */\n      swap3\n      swap2\n      pop\n      pop\n      jump\t// out\n        /* \"@openzeppelin/contracts@4.7.3/token/ERC20/ERC20.sol\":3729:3918  function transfer(address to, uint256 amount) public virtual override returns (bool) {... */\n    tag_95:\n        /* \"@openzeppelin/contracts@4.7.3/token/ERC20/ERC20.sol\":3808:3812  bool */\n      0x00\n        /* \"@openzeppelin/contracts@4.7.3/token/ERC20/ERC20.sol\":3824:3837  address owner */\n      dup1\n        /* \"@openzeppelin/contracts@4.7.3/token/ERC20/ERC20.sol\":3840:3852  _msgSender() */\n      tag_174\n        /* \"@openzeppelin/contracts@4.7.3/token/ERC20/ERC20.sol\":3840:3850  _msgSender */\n      tag_121\n        /* \"@openzeppelin/contracts@4.7.3/token/ERC20/ERC20.sol\":3840:3852  _msgSender() */\n      jump\t// in\n    tag_174:\n        /* \"@openzeppelin/contracts@4.7.3/token/ERC20/ERC20.sol\":3824:3852  address owner = _msgSender() */\n      swap1\n      pop\n        /* \"@openzeppelin/contracts@4.7.3/token/ERC20/ERC20.sol\":3862:3890  _transfer(owner, to, amount) */\n      tag_175\n        /* \"@openzeppelin/contracts@4.7.3/token/ERC20/ERC20.sol\":3872:3877  owner */\n      dup2\n        /* \"@openzeppelin/contracts@4.7.3/token/ERC20/ERC20.sol\":3879:3881  to */\n      dup6\n        /* \"@openzeppelin/contracts@4.7.3/token/ERC20/ERC20.sol\":3883:3889  amount */\n      dup6\n        /* \"@openzeppelin/contracts@4.7.3/token/ERC20/ERC20.sol\":3862:3871  _transfer */\n      tag_130\n        /* \"@openzeppelin/contracts@4.7.3/token/ERC20/ERC20.sol\":3862:3890  _transfer(owner, to, amount) */\n      jump\t// in\n    tag_175:\n        /* \"@openzeppelin/contracts@4.7.3/token/ERC20/ERC20.sol\":3907:3911  true */\n      0x01\n        /* \"@openzeppelin/contracts@4.7.3/token/ERC20/ERC20.sol\":3900:3911  return true */\n      swap2\n      pop\n      pop\n        /* \"@openzeppelin/contracts@4.7.3/token/ERC20/ERC20.sol\":3729:3918  function transfer(address to, uint256 amount) public virtual override returns (bool) {... */\n      swap3\n      swap2\n      pop\n      pop\n      jump\t// out\n        /* \"contracts/25_Roles.sol\":230:292  bytes32 public constant MINTER_ROLE = keccak256(\"MINTER_ROLE\") */\n    tag_98:\n        /* \"contracts/25_Roles.sol\":268:292  keccak256(\"MINTER_ROLE\") */\n      0x9f2df0fed2c77648de5860a4cc508cd0818c85b8b8a1ab4ceeef8d981c8956a6\n        /* \"contracts/25_Roles.sol\":230:292  bytes32 public constant MINTER_ROLE = keccak256(\"MINTER_ROLE\") */\n      dup2\n      jump\t// out\n        /* \"@openzeppelin/contracts@4.7.3/access/AccessControl.sol\":5241:5388  function revokeRole(bytes32 role, address account) public virtual override onlyRole(getRoleAdmin(role)) {... */\n    tag_102:\n        /* \"@openzeppelin/contracts@4.7.3/access/AccessControl.sol\":5325:5343  getRoleAdmin(role) */\n      tag_176\n        /* \"@openzeppelin/contracts@4.7.3/access/AccessControl.sol\":5338:5342  role */\n      dup3\n        /* \"@openzeppelin/contracts@4.7.3/access/AccessControl.sol\":5325:5337  getRoleAdmin */\n      tag_53\n        /* \"@openzeppelin/contracts@4.7.3/access/AccessControl.sol\":5325:5343  getRoleAdmin(role) */\n      jump\t// in\n    tag_176:\n        /* \"@openzeppelin/contracts@4.7.3/access/AccessControl.sol\":2505:2521  _checkRole(role) */\n      tag_178\n        /* \"@openzeppelin/contracts@4.7.3/access/AccessControl.sol\":2516:2520  role */\n      dup2\n        /* \"@openzeppelin/contracts@4.7.3/access/AccessControl.sol\":2505:2515  _checkRole */\n      tag_135\n        /* \"@openzeppelin/contracts@4.7.3/access/AccessControl.sol\":2505:2521  _checkRole(role) */\n      jump\t// in\n    tag_178:\n        /* \"@openzeppelin/contracts@4.7.3/access/AccessControl.sol\":5355:5381  _revokeRole(role, account) */\n      tag_180\n        /* \"@openzeppelin/contracts@4.7.3/access/AccessControl.sol\":5367:5371  role */\n      dup4\n        /* \"@openzeppelin/contracts@4.7.3/access/AccessControl.sol\":5373:5380  account */\n      dup4\n        /* \"@openzeppelin/contracts@4.7.3/access/AccessControl.sol\":5355:5366  _revokeRole */\n      tag_146\n        /* \"@openzeppelin/contracts@4.7.3/access/AccessControl.sol\":5355:5381  _revokeRole(role, account) */\n      jump\t// in\n    tag_180:\n        /* \"@openzeppelin/contracts@4.7.3/access/AccessControl.sol\":5241:5388  function revokeRole(bytes32 role, address account) public virtual override onlyRole(getRoleAdmin(role)) {... */\n      pop\n      pop\n      pop\n      jump\t// out\n        /* \"@openzeppelin/contracts@4.7.3/token/ERC20/ERC20.sol\":3976:4125  function allowance(address owner, address spender) public view virtual override returns (uint256) {... */\n    tag_106:\n        /* \"@openzeppelin/contracts@4.7.3/token/ERC20/ERC20.sol\":4065:4072  uint256 */\n      0x00\n        /* \"@openzeppelin/contracts@4.7.3/token/ERC20/ERC20.sol\":4091:4102  _allowances */\n      0x01\n        /* \"@openzeppelin/contracts@4.7.3/token/ERC20/ERC20.sol\":4091:4109  _allowances[owner] */\n      0x00\n        /* \"@openzeppelin/contracts@4.7.3/token/ERC20/ERC20.sol\":4103:4108  owner */\n      dup5\n        /* \"@openzeppelin/contracts@4.7.3/token/ERC20/ERC20.sol\":4091:4109  _allowances[owner] */\n      0xffffffffffffffffffffffffffffffffffffffff\n      and\n      0xffffffffffffffffffffffffffffffffffffffff\n      and\n      dup2\n      mstore\n      0x20\n      add\n      swap1\n      dup2\n      mstore\n      0x20\n      add\n      0x00\n      keccak256\n        /* \"@openzeppelin/contracts@4.7.3/token/ERC20/ERC20.sol\":4091:4118  _allowances[owner][spender] */\n      0x00\n        /* \"@openzeppelin/contracts@4.7.3/token/ERC20/ERC20.sol\":4110:4117  spender */\n      dup4\n        /* \"@openzeppelin/contracts@4.7.3/token/ERC20/ERC20.sol\":4091:4118  _allowances[owner][spender] */\n      0xffffffffffffffffffffffffffffffffffffffff\n      and\n      0xffffffffffffffffffffffffffffffffffffffff\n      and\n      dup2\n      mstore\n      0x20\n      add\n      swap1\n      dup2\n      mstore\n      0x20\n      add\n      0x00\n      keccak256\n      sload\n        /* \"@openzeppelin/contracts@4.7.3/token/ERC20/ERC20.sol\":4084:4118  return _allowances[owner][spender] */\n      swap1\n      pop\n        /* \"@openzeppelin/contracts@4.7.3/token/ERC20/ERC20.sol\":3976:4125  function allowance(address owner, address spender) public view virtual override returns (uint256) {... */\n      swap3\n      swap2\n      pop\n      pop\n      jump\t// out\n        /* \"@openzeppelin/contracts@4.7.3/utils/introspection/ERC165.sol\":829:984  function supportsInterface(bytes4 interfaceId) public view virtual override returns (bool) {... */\n    tag_111:\n        /* \"@openzeppelin/contracts@4.7.3/utils/introspection/ERC165.sol\":914:918  bool */\n      0x00\n        /* \"@openzeppelin/contracts@4.7.3/utils/introspection/ERC165.sol\":952:977  type(IERC165).interfaceId */\n      0x01ffc9a700000000000000000000000000000000000000000000000000000000\n        /* \"@openzeppelin/contracts@4.7.3/utils/introspection/ERC165.sol\":937:977  interfaceId == type(IERC165).interfaceId */\n      not(0xffffffffffffffffffffffffffffffffffffffffffffffffffffffff)\n      and\n        /* \"@openzeppelin/contracts@4.7.3/utils/introspection/ERC165.sol\":937:948  interfaceId */\n      dup3\n        /* \"@openzeppelin/contracts@4.7.3/utils/introspection/ERC165.sol\":937:977  interfaceId == type(IERC165).interfaceId */\n      not(0xffffffffffffffffffffffffffffffffffffffffffffffffffffffff)\n      and\n      eq\n        /* \"@openzeppelin/contracts@4.7.3/utils/introspection/ERC165.sol\":930:977  return interfaceId == type(IERC165).interfaceId */\n      swap1\n      pop\n        /* \"@openzeppelin/contracts@4.7.3/utils/introspection/ERC165.sol\":829:984  function supportsInterface(bytes4 interfaceId) public view virtual override returns (bool) {... */\n      swap2\n      swap1\n      pop\n      jump\t// out\n        /* \"@openzeppelin/contracts@4.7.3/utils/Context.sol\":640:736  function _msgSender() internal view virtual returns (address) {... */\n    tag_121:\n        /* \"@openzeppelin/contracts@4.7.3/utils/Context.sol\":693:700  address */\n      0x00\n        /* \"@openzeppelin/contracts@4.7.3/utils/Context.sol\":719:729  msg.sender */\n      caller\n        /* \"@openzeppelin/contracts@4.7.3/utils/Context.sol\":712:729  return msg.sender */\n      swap1\n      pop\n        /* \"@openzeppelin/contracts@4.7.3/utils/Context.sol\":640:736  function _msgSender() internal view virtual returns (address) {... */\n      swap1\n      jump\t// out\n        /* \"@openzeppelin/contracts@4.7.3/token/ERC20/ERC20.sol\":10110:10480  function _approve(... */\n    tag_123:\n        /* \"@openzeppelin/contracts@4.7.3/token/ERC20/ERC20.sol\":10258:10259  0 */\n      0x00\n        /* \"@openzeppelin/contracts@4.7.3/token/ERC20/ERC20.sol\":10241:10260  owner != address(0) */\n      0xffffffffffffffffffffffffffffffffffffffff\n      and\n        /* \"@openzeppelin/contracts@4.7.3/token/ERC20/ERC20.sol\":10241:10246  owner */\n      dup4\n        /* \"@openzeppelin/contracts@4.7.3/token/ERC20/ERC20.sol\":10241:10260  owner != address(0) */\n      0xffffffffffffffffffffffffffffffffffffffff\n      and\n      eq\n      iszero\n        /* \"@openzeppelin/contracts@4.7.3/token/ERC20/ERC20.sol\":10233:10301  require(owner != address(0), \"ERC20: approve from the zero address\") */\n      tag_185\n      jumpi\n      mload(0x40)\n      0x08c379a000000000000000000000000000000000000000000000000000000000\n      dup2\n      mstore\n      0x04\n      add\n      tag_186\n      swap1\n      tag_187\n      jump\t// in\n    tag_186:\n      mload(0x40)\n      dup1\n      swap2\n      sub\n      swap1\n      revert\n    tag_185:\n        /* \"@openzeppelin/contracts@4.7.3/token/ERC20/ERC20.sol\":10338:10339  0 */\n      0x00\n        /* \"@openzeppelin/contracts@4.7.3/token/ERC20/ERC20.sol\":10319:10340  spender != address(0) */\n      0xffffffffffffffffffffffffffffffffffffffff\n      and\n        /* \"@openzeppelin/contracts@4.7.3/token/ERC20/ERC20.sol\":10319:10326  spender */\n      dup3\n        /* \"@openzeppelin/contracts@4.7.3/token/ERC20/ERC20.sol\":10319:10340  spender != address(0) */\n      0xffffffffffffffffffffffffffffffffffffffff\n      and\n      eq\n      iszero\n        /* \"@openzeppelin/contracts@4.7.3/token/ERC20/ERC20.sol\":10311:10379  require(spender != address(0), \"ERC20: approve to the zero address\") */\n      tag_188\n      jumpi\n      mload(0x40)\n      0x08c379a000000000000000000000000000000000000000000000000000000000\n      dup2\n      mstore\n      0x04\n      add\n      tag_189\n      swap1\n      tag_190\n      jump\t// in\n    tag_189:\n      mload(0x40)\n      dup1\n      swap2\n      sub\n      swap1\n      revert\n    tag_188:\n        /* \"@openzeppelin/contracts@4.7.3/token/ERC20/ERC20.sol\":10420:10426  amount */\n      dup1\n        /* \"@openzeppelin/contracts@4.7.3/token/ERC20/ERC20.sol\":10390:10401  _allowances */\n      0x01\n        /* \"@openzeppelin/contracts@4.7.3/token/ERC20/ERC20.sol\":10390:10408  _allowances[owner] */\n      0x00\n        /* \"@openzeppelin/contracts@4.7.3/token/ERC20/ERC20.sol\":10402:10407  owner */\n      dup6\n        /* \"@openzeppelin/contracts@4.7.3/token/ERC20/ERC20.sol\":10390:10408  _allowances[owner] */\n      0xffffffffffffffffffffffffffffffffffffffff\n      and\n      0xffffffffffffffffffffffffffffffffffffffff\n      and\n      dup2\n      mstore\n      0x20\n      add\n      swap1\n      dup2\n      mstore\n      0x20\n      add\n      0x00\n      keccak256\n        /* \"@openzeppelin/contracts@4.7.3/token/ERC20/ERC20.sol\":10390:10417  _allowances[owner][spender] */\n      0x00\n        /* \"@openzeppelin/contracts@4.7.3/token/ERC20/ERC20.sol\":10409:10416  spender */\n      dup5\n        /* \"@openzeppelin/contracts@4.7.3/token/ERC20/ERC20.sol\":10390:10417  _allowances[owner][spender] */\n      0xffffffffffffffffffffffffffffffffffffffff\n      and\n      0xffffffffffffffffffffffffffffffffffffffff\n      and\n      dup2\n      mstore\n      0x20\n      add\n      swap1\n      dup2\n      mstore\n      0x20\n      add\n      0x00\n      keccak256\n        /* \"@openzeppelin/contracts@4.7.3/token/ERC20/ERC20.sol\":10390:10426  _allowances[owner][spender] = amount */\n      dup2\n      swap1\n      sstore\n      pop\n        /* \"@openzeppelin/contracts@4.7.3/token/ERC20/ERC20.sol\":10457:10464  spender */\n      dup2\n        /* \"@openzeppelin/contracts@4.7.3/token/ERC20/ERC20.sol\":10441:10473  Approval(owner, spender, amount) */\n      0xffffffffffffffffffffffffffffffffffffffff\n      and\n        /* \"@openzeppelin/contracts@4.7.3/token/ERC20/ERC20.sol\":10450:10455  owner */\n      dup4\n        /* \"@openzeppelin/contracts@4.7.3/token/ERC20/ERC20.sol\":10441:10473  Approval(owner, spender, amount) */\n      0xffffffffffffffffffffffffffffffffffffffff\n      and\n      0x8c5be1e5ebec7d5bd14f71427d1e84f3dd0314c0f7b2291e5b200ac8c7c3b925\n        /* \"@openzeppelin/contracts@4.7.3/token/ERC20/ERC20.sol\":10466:10472  amount */\n      dup4\n        /* \"@openzeppelin/contracts@4.7.3/token/ERC20/ERC20.sol\":10441:10473  Approval(owner, spender, amount) */\n      mload(0x40)\n      tag_191\n      swap2\n      swap1\n      tag_44\n      jump\t// in\n    tag_191:\n      mload(0x40)\n      dup1\n      swap2\n      sub\n      swap1\n      log3\n        /* \"@openzeppelin/contracts@4.7.3/token/ERC20/ERC20.sol\":10110:10480  function _approve(... */\n      pop\n      pop\n      pop\n      jump\t// out\n        /* \"@openzeppelin/contracts@4.7.3/token/ERC20/ERC20.sol\":10761:11202  function _spendAllowance(... */\n    tag_128:\n        /* \"@openzeppelin/contracts@4.7.3/token/ERC20/ERC20.sol\":10891:10915  uint256 currentAllowance */\n      0x00\n        /* \"@openzeppelin/contracts@4.7.3/token/ERC20/ERC20.sol\":10918:10943  allowance(owner, spender) */\n      tag_193\n        /* \"@openzeppelin/contracts@4.7.3/token/ERC20/ERC20.sol\":10928:10933  owner */\n      dup5\n        /* \"@openzeppelin/contracts@4.7.3/token/ERC20/ERC20.sol\":10935:10942  spender */\n      dup5\n        /* \"@openzeppelin/contracts@4.7.3/token/ERC20/ERC20.sol\":10918:10927  allowance */\n      tag_106\n        /* \"@openzeppelin/contracts@4.7.3/token/ERC20/ERC20.sol\":10918:10943  allowance(owner, spender) */\n      jump\t// in\n    tag_193:\n        /* \"@openzeppelin/contracts@4.7.3/token/ERC20/ERC20.sol\":10891:10943  uint256 currentAllowance = allowance(owner, spender) */\n      swap1\n      pop\n        /* \"@openzeppelin/contracts@4.7.3/token/ERC20/ERC20.sol\":10977:10994  type(uint256).max */\n      0xffffffffffffffffffffffffffffffffffffffffffffffffffffffffffffffff\n        /* \"@openzeppelin/contracts@4.7.3/token/ERC20/ERC20.sol\":10957:10973  currentAllowance */\n      dup2\n        /* \"@openzeppelin/contracts@4.7.3/token/ERC20/ERC20.sol\":10957:10994  currentAllowance != type(uint256).max */\n      eq\n        /* \"@openzeppelin/contracts@4.7.3/token/ERC20/ERC20.sol\":10953:11196  if (currentAllowance != type(uint256).max) {... */\n      tag_194\n      jumpi\n        /* \"@openzeppelin/contracts@4.7.3/token/ERC20/ERC20.sol\":11038:11044  amount */\n      dup2\n        /* \"@openzeppelin/contracts@4.7.3/token/ERC20/ERC20.sol\":11018:11034  currentAllowance */\n      dup2\n        /* \"@openzeppelin/contracts@4.7.3/token/ERC20/ERC20.sol\":11018:11044  currentAllowance >= amount */\n      lt\n      iszero\n        /* \"@openzeppelin/contracts@4.7.3/token/ERC20/ERC20.sol\":11010:11078  require(currentAllowance >= amount, \"ERC20: insufficient allowance\") */\n      tag_195\n      jumpi\n      mload(0x40)\n      0x08c379a000000000000000000000000000000000000000000000000000000000\n      dup2\n      mstore\n      0x04\n      add\n      tag_196\n      swap1\n      tag_197\n      jump\t// in\n    tag_196:\n      mload(0x40)\n      dup1\n      swap2\n      sub\n      swap1\n      revert\n    tag_195:\n        /* \"@openzeppelin/contracts@4.7.3/token/ERC20/ERC20.sol\":11120:11171  _approve(owner, spender, currentAllowance - amount) */\n      tag_198\n        /* \"@openzeppelin/contracts@4.7.3/token/ERC20/ERC20.sol\":11129:11134  owner */\n      dup5\n        /* \"@openzeppelin/contracts@4.7.3/token/ERC20/ERC20.sol\":11136:11143  spender */\n      dup5\n        /* \"@openzeppelin/contracts@4.7.3/token/ERC20/ERC20.sol\":11164:11170  amount */\n      dup5\n        /* \"@openzeppelin/contracts@4.7.3/token/ERC20/ERC20.sol\":11145:11161  currentAllowance */\n      dup5\n        /* \"@openzeppelin/contracts@4.7.3/token/ERC20/ERC20.sol\":11145:11170  currentAllowance - amount */\n      sub\n        /* \"@openzeppelin/contracts@4.7.3/token/ERC20/ERC20.sol\":11120:11128  _approve */\n      tag_123\n        /* \"@openzeppelin/contracts@4.7.3/token/ERC20/ERC20.sol\":11120:11171  _approve(owner, spender, currentAllowance - amount) */\n      jump\t// in\n    tag_198:\n        /* \"@openzeppelin/contracts@4.7.3/token/ERC20/ERC20.sol\":10953:11196  if (currentAllowance != type(uint256).max) {... */\n    tag_194:\n        /* \"@openzeppelin/contracts@4.7.3/token/ERC20/ERC20.sol\":10881:11202  {... */\n      pop\n        /* \"@openzeppelin/contracts@4.7.3/token/ERC20/ERC20.sol\":10761:11202  function _spendAllowance(... */\n      pop\n      pop\n      pop\n      jump\t// out\n        /* \"@openzeppelin/contracts@4.7.3/token/ERC20/ERC20.sol\":7475:8126  function _transfer(... */\n    tag_130:\n        /* \"@openzeppelin/contracts@4.7.3/token/ERC20/ERC20.sol\":7617:7618  0 */\n      0x00\n        /* \"@openzeppelin/contracts@4.7.3/token/ERC20/ERC20.sol\":7601:7619  from != address(0) */\n      0xffffffffffffffffffffffffffffffffffffffff\n      and\n        /* \"@openzeppelin/contracts@4.7.3/token/ERC20/ERC20.sol\":7601:7605  from */\n      dup4\n        /* \"@openzeppelin/contracts@4.7.3/token/ERC20/ERC20.sol\":7601:7619  from != address(0) */\n      0xffffffffffffffffffffffffffffffffffffffff\n      and\n      eq\n      iszero\n        /* \"@openzeppelin/contracts@4.7.3/token/ERC20/ERC20.sol\":7593:7661  require(from != address(0), \"ERC20: transfer from the zero address\") */\n      tag_200\n      jumpi\n      mload(0x40)\n      0x08c379a000000000000000000000000000000000000000000000000000000000\n      dup2\n      mstore\n      0x04\n      add\n      tag_201\n      swap1\n      tag_202\n      jump\t// in\n    tag_201:\n      mload(0x40)\n      dup1\n      swap2\n      sub\n      swap1\n      revert\n    tag_200:\n        /* \"@openzeppelin/contracts@4.7.3/token/ERC20/ERC20.sol\":7693:7694  0 */\n      0x00\n        /* \"@openzeppelin/contracts@4.7.3/token/ERC20/ERC20.sol\":7679:7695  to != address(0) */\n      0xffffffffffffffffffffffffffffffffffffffff\n      and\n        /* \"@openzeppelin/contracts@4.7.3/token/ERC20/ERC20.sol\":7679:7681  to */\n      dup3\n        /* \"@openzeppelin/contracts@4.7.3/token/ERC20/ERC20.sol\":7679:7695  to != address(0) */\n      0xffffffffffffffffffffffffffffffffffffffff\n      and\n      eq\n      iszero\n        /* \"@openzeppelin/contracts@4.7.3/token/ERC20/ERC20.sol\":7671:7735  require(to != address(0), \"ERC20: transfer to the zero address\") */\n      tag_203\n      jumpi\n      mload(0x40)\n      0x08c379a000000000000000000000000000000000000000000000000000000000\n      dup2\n      mstore\n      0x04\n      add\n      tag_204\n      swap1\n      tag_205\n      jump\t// in\n    tag_204:\n      mload(0x40)\n      dup1\n      swap2\n      sub\n      swap1\n      revert\n    tag_203:\n        /* \"@openzeppelin/contracts@4.7.3/token/ERC20/ERC20.sol\":7746:7784  _beforeTokenTransfer(from, to, amount) */\n      tag_206\n        /* \"@openzeppelin/contracts@4.7.3/token/ERC20/ERC20.sol\":7767:7771  from */\n      dup4\n        /* \"@openzeppelin/contracts@4.7.3/token/ERC20/ERC20.sol\":7773:7775  to */\n      dup4\n        /* \"@openzeppelin/contracts@4.7.3/token/ERC20/ERC20.sol\":7777:7783  amount */\n      dup4\n        /* \"@openzeppelin/contracts@4.7.3/token/ERC20/ERC20.sol\":7746:7766  _beforeTokenTransfer */\n      tag_207\n        /* \"@openzeppelin/contracts@4.7.3/token/ERC20/ERC20.sol\":7746:7784  _beforeTokenTransfer(from, to, amount) */\n      jump\t// in\n    tag_206:\n        /* \"@openzeppelin/contracts@4.7.3/token/ERC20/ERC20.sol\":7795:7814  uint256 fromBalance */\n      0x00\n        /* \"@openzeppelin/contracts@4.7.3/token/ERC20/ERC20.sol\":7817:7826  _balances */\n      dup1\n        /* \"@openzeppelin/contracts@4.7.3/token/ERC20/ERC20.sol\":7817:7832  _balances[from] */\n      0x00\n        /* \"@openzeppelin/contracts@4.7.3/token/ERC20/ERC20.sol\":7827:7831  from */\n      dup6\n        /* \"@openzeppelin/contracts@4.7.3/token/ERC20/ERC20.sol\":7817:7832  _balances[from] */\n      0xffffffffffffffffffffffffffffffffffffffff\n      and\n      0xffffffffffffffffffffffffffffffffffffffff\n      and\n      dup2\n      mstore\n      0x20\n      add\n      swap1\n      dup2\n      mstore\n      0x20\n      add\n      0x00\n      keccak256\n      sload\n        /* \"@openzeppelin/contracts@4.7.3/token/ERC20/ERC20.sol\":7795:7832  uint256 fromBalance = _balances[from] */\n      swap1\n      pop\n        /* \"@openzeppelin/contracts@4.7.3/token/ERC20/ERC20.sol\":7865:7871  amount */\n      dup2\n        /* \"@openzeppelin/contracts@4.7.3/token/ERC20/ERC20.sol\":7850:7861  fromBalance */\n      dup2\n        /* \"@openzeppelin/contracts@4.7.3/token/ERC20/ERC20.sol\":7850:7871  fromBalance >= amount */\n      lt\n      iszero\n        /* \"@openzeppelin/contracts@4.7.3/token/ERC20/ERC20.sol\":7842:7914  require(fromBalance >= amount, \"ERC20: transfer amount exceeds balance\") */\n      tag_208\n      jumpi\n      mload(0x40)\n      0x08c379a000000000000000000000000000000000000000000000000000000000\n      dup2\n      mstore\n      0x04\n      add\n      tag_209\n      swap1\n      tag_210\n      jump\t// in\n    tag_209:\n      mload(0x40)\n      dup1\n      swap2\n      sub\n      swap1\n      revert\n    tag_208:\n        /* \"@openzeppelin/contracts@4.7.3/token/ERC20/ERC20.sol\":7980:7986  amount */\n      dup2\n        /* \"@openzeppelin/contracts@4.7.3/token/ERC20/ERC20.sol\":7966:7977  fromBalance */\n      dup2\n        /* \"@openzeppelin/contracts@4.7.3/token/ERC20/ERC20.sol\":7966:7986  fromBalance - amount */\n      sub\n        /* \"@openzeppelin/contracts@4.7.3/token/ERC20/ERC20.sol\":7948:7957  _balances */\n      0x00\n        /* \"@openzeppelin/contracts@4.7.3/token/ERC20/ERC20.sol\":7948:7963  _balances[from] */\n      dup1\n        /* \"@openzeppelin/contracts@4.7.3/token/ERC20/ERC20.sol\":7958:7962  from */\n      dup7\n        /* \"@openzeppelin/contracts@4.7.3/token/ERC20/ERC20.sol\":7948:7963  _balances[from] */\n      0xffffffffffffffffffffffffffffffffffffffff\n      and\n      0xffffffffffffffffffffffffffffffffffffffff\n      and\n      dup2\n      mstore\n      0x20\n      add\n      swap1\n      dup2\n      mstore\n      0x20\n      add\n      0x00\n      keccak256\n        /* \"@openzeppelin/contracts@4.7.3/token/ERC20/ERC20.sol\":7948:7986  _balances[from] = fromBalance - amount */\n      dup2\n      swap1\n      sstore\n      pop\n        /* \"@openzeppelin/contracts@4.7.3/token/ERC20/ERC20.sol\":8023:8029  amount */\n      dup2\n        /* \"@openzeppelin/contracts@4.7.3/token/ERC20/ERC20.sol\":8006:8015  _balances */\n      0x00\n        /* \"@openzeppelin/contracts@4.7.3/token/ERC20/ERC20.sol\":8006:8019  _balances[to] */\n      dup1\n        /* \"@openzeppelin/contracts@4.7.3/token/ERC20/ERC20.sol\":8016:8018  to */\n      dup6\n        /* \"@openzeppelin/contracts@4.7.3/token/ERC20/ERC20.sol\":8006:8019  _balances[to] */\n      0xffffffffffffffffffffffffffffffffffffffff\n      and\n      0xffffffffffffffffffffffffffffffffffffffff\n      and\n      dup2\n      mstore\n      0x20\n      add\n      swap1\n      dup2\n      mstore\n      0x20\n      add\n      0x00\n      keccak256\n      0x00\n        /* \"@openzeppelin/contracts@4.7.3/token/ERC20/ERC20.sol\":8006:8029  _balances[to] += amount */\n      dup3\n      dup3\n      sload\n      tag_211\n      swap2\n      swap1\n      tag_152\n      jump\t// in\n    tag_211:\n      swap3\n      pop\n      pop\n      dup2\n      swap1\n      sstore\n      pop\n        /* \"@openzeppelin/contracts@4.7.3/token/ERC20/ERC20.sol\":8060:8062  to */\n      dup3\n        /* \"@openzeppelin/contracts@4.7.3/token/ERC20/ERC20.sol\":8045:8071  Transfer(from, to, amount) */\n      0xffffffffffffffffffffffffffffffffffffffff\n      and\n        /* \"@openzeppelin/contracts@4.7.3/token/ERC20/ERC20.sol\":8054:8058  from */\n      dup5\n        /* \"@openzeppelin/contracts@4.7.3/token/ERC20/ERC20.sol\":8045:8071  Transfer(from, to, amount) */\n      0xffffffffffffffffffffffffffffffffffffffff\n      and\n      0xddf252ad1be2c89b69c2b068fc378daa952ba7f163c4a11628f55a4df523b3ef\n        /* \"@openzeppelin/contracts@4.7.3/token/ERC20/ERC20.sol\":8064:8070  amount */\n      dup5\n        /* \"@openzeppelin/contracts@4.7.3/token/ERC20/ERC20.sol\":8045:8071  Transfer(from, to, amount) */\n      mload(0x40)\n      tag_212\n      swap2\n      swap1\n      tag_44\n      jump\t// in\n    tag_212:\n      mload(0x40)\n      dup1\n      swap2\n      sub\n      swap1\n      log3\n        /* \"@openzeppelin/contracts@4.7.3/token/ERC20/ERC20.sol\":8082:8119  _afterTokenTransfer(from, to, amount) */\n      tag_213\n        /* \"@openzeppelin/contracts@4.7.3/token/ERC20/ERC20.sol\":8102:8106  from */\n      dup5\n        /* \"@openzeppelin/contracts@4.7.3/token/ERC20/ERC20.sol\":8108:8110  to */\n      dup5\n        /* \"@openzeppelin/contracts@4.7.3/token/ERC20/ERC20.sol\":8112:8118  amount */\n      dup5\n        /* \"@openzeppelin/contracts@4.7.3/token/ERC20/ERC20.sol\":8082:8101  _afterTokenTransfer */\n      tag_214\n        /* \"@openzeppelin/contracts@4.7.3/token/ERC20/ERC20.sol\":8082:8119  _afterTokenTransfer(from, to, amount) */\n      jump\t// in\n    tag_213:\n        /* \"@openzeppelin/contracts@4.7.3/token/ERC20/ERC20.sol\":7583:8126  {... */\n      pop\n        /* \"@openzeppelin/contracts@4.7.3/token/ERC20/ERC20.sol\":7475:8126  function _transfer(... */\n      pop\n      pop\n      pop\n      jump\t// out\n        /* \"@openzeppelin/contracts@4.7.3/access/AccessControl.sol\":3334:3437  function _checkRole(bytes32 role) internal view virtual {... */\n    tag_135:\n        /* \"@openzeppelin/contracts@4.7.3/access/AccessControl.sol\":3400:3430  _checkRole(role, _msgSender()) */\n      tag_216\n        /* \"@openzeppelin/contracts@4.7.3/access/AccessControl.sol\":3411:3415  role */\n      dup2\n        /* \"@openzeppelin/contracts@4.7.3/access/AccessControl.sol\":3417:3429  _msgSender() */\n      tag_217\n        /* \"@openzeppelin/contracts@4.7.3/access/AccessControl.sol\":3417:3427  _msgSender */\n      tag_121\n        /* \"@openzeppelin/contracts@4.7.3/access/AccessControl.sol\":3417:3429  _msgSender() */\n      jump\t// in\n    tag_217:\n        /* \"@openzeppelin/contracts@4.7.3/access/AccessControl.sol\":3400:3410  _checkRole */\n      tag_218\n        /* \"@openzeppelin/contracts@4.7.3/access/AccessControl.sol\":3400:3430  _checkRole(role, _msgSender()) */\n      jump\t// in\n    tag_216:\n        /* \"@openzeppelin/contracts@4.7.3/access/AccessControl.sol\":3334:3437  function _checkRole(bytes32 role) internal view virtual {... */\n      pop\n      jump\t// out\n        /* \"@openzeppelin/contracts@4.7.3/access/AccessControl.sol\":7474:7707  function _grantRole(bytes32 role, address account) internal virtual {... */\n    tag_138:\n        /* \"@openzeppelin/contracts@4.7.3/access/AccessControl.sol\":7557:7579  hasRole(role, account) */\n      tag_220\n        /* \"@openzeppelin/contracts@4.7.3/access/AccessControl.sol\":7565:7569  role */\n      dup3\n        /* \"@openzeppelin/contracts@4.7.3/access/AccessControl.sol\":7571:7578  account */\n      dup3\n        /* \"@openzeppelin/contracts@4.7.3/access/AccessControl.sol\":7557:7564  hasRole */\n      tag_81\n        /* \"@openzeppelin/contracts@4.7.3/access/AccessControl.sol\":7557:7579  hasRole(role, account) */\n      jump\t// in\n    tag_220:\n        /* \"@openzeppelin/contracts@4.7.3/access/AccessControl.sol\":7552:7701  if (!hasRole(role, account)) {... */\n      tag_221\n      jumpi\n        /* \"@openzeppelin/contracts@4.7.3/access/AccessControl.sol\":7627:7631  true */\n      0x01\n        /* \"@openzeppelin/contracts@4.7.3/access/AccessControl.sol\":7595:7601  _roles */\n      0x05\n        /* \"@openzeppelin/contracts@4.7.3/access/AccessControl.sol\":7595:7607  _roles[role] */\n      0x00\n        /* \"@openzeppelin/contracts@4.7.3/access/AccessControl.sol\":7602:7606  role */\n      dup5\n        /* \"@openzeppelin/contracts@4.7.3/access/AccessControl.sol\":7595:7607  _roles[role] */\n      dup2\n      mstore\n      0x20\n      add\n      swap1\n      dup2\n      mstore\n      0x20\n      add\n      0x00\n      keccak256\n        /* \"@openzeppelin/contracts@4.7.3/access/AccessControl.sol\":7595:7615  _roles[role].members */\n      0x00\n      add\n        /* \"@openzeppelin/contracts@4.7.3/access/AccessControl.sol\":7595:7624  _roles[role].members[account] */\n      0x00\n        /* \"@openzeppelin/contracts@4.7.3/access/AccessControl.sol\":7616:7623  account */\n      dup4\n        /* \"@openzeppelin/contracts@4.7.3/access/AccessControl.sol\":7595:7624  _roles[role].members[account] */\n      0xffffffffffffffffffffffffffffffffffffffff\n      and\n      0xffffffffffffffffffffffffffffffffffffffff\n      and\n      dup2\n      mstore\n      0x20\n      add\n      swap1\n      dup2\n      mstore\n      0x20\n      add\n      0x00\n      keccak256\n      0x00\n        /* \"@openzeppelin/contracts@4.7.3/access/AccessControl.sol\":7595:7631  _roles[role].members[account] = true */\n      0x0100\n      exp\n      dup2\n      sload\n      dup2\n      0xff\n      mul\n      not\n      and\n      swap1\n      dup4\n      iszero\n      iszero\n      mul\n      or\n      swap1\n      sstore\n      pop\n        /* \"@openzeppelin/contracts@4.7.3/access/AccessControl.sol\":7677:7689  _msgSender() */\n      tag_222\n        /* \"@openzeppelin/contracts@4.7.3/access/AccessControl.sol\":7677:7687  _msgSender */\n      tag_121\n        /* \"@openzeppelin/contracts@4.7.3/access/AccessControl.sol\":7677:7689  _msgSender() */\n      jump\t// in\n    tag_222:\n        /* \"@openzeppelin/contracts@4.7.3/access/AccessControl.sol\":7650:7690  RoleGranted(role, account, _msgSender()) */\n      0xffffffffffffffffffffffffffffffffffffffff\n      and\n        /* \"@openzeppelin/contracts@4.7.3/access/AccessControl.sol\":7668:7675  account */\n      dup2\n        /* \"@openzeppelin/contracts@4.7.3/access/AccessControl.sol\":7650:7690  RoleGranted(role, account, _msgSender()) */\n      0xffffffffffffffffffffffffffffffffffffffff\n      and\n        /* \"@openzeppelin/contracts@4.7.3/access/AccessControl.sol\":7662:7666  role */\n      dup4\n        /* \"@openzeppelin/contracts@4.7.3/access/AccessControl.sol\":7650:7690  RoleGranted(role, account, _msgSender()) */\n      0x2f8788117e7eff1d82e926ec794901d17c78024a50270940304540a733656f0d\n      mload(0x40)\n      mload(0x40)\n      dup1\n      swap2\n      sub\n      swap1\n      log4\n        /* \"@openzeppelin/contracts@4.7.3/access/AccessControl.sol\":7552:7701  if (!hasRole(role, account)) {... */\n    tag_221:\n        /* \"@openzeppelin/contracts@4.7.3/access/AccessControl.sol\":7474:7707  function _grantRole(bytes32 role, address account) internal virtual {... */\n      pop\n      pop\n      jump\t// out\n        /* \"@openzeppelin/contracts@4.7.3/access/AccessControl.sol\":7878:8112  function _revokeRole(bytes32 role, address account) internal virtual {... */\n    tag_146:\n        /* \"@openzeppelin/contracts@4.7.3/access/AccessControl.sol\":7961:7983  hasRole(role, account) */\n      tag_224\n        /* \"@openzeppelin/contracts@4.7.3/access/AccessControl.sol\":7969:7973  role */\n      dup3\n        /* \"@openzeppelin/contracts@4.7.3/access/AccessControl.sol\":7975:7982  account */\n      dup3\n        /* \"@openzeppelin/contracts@4.7.3/access/AccessControl.sol\":7961:7968  hasRole */\n      tag_81\n        /* \"@openzeppelin/contracts@4.7.3/access/AccessControl.sol\":7961:7983  hasRole(role, account) */\n      jump\t// in\n    tag_224:\n        /* \"@openzeppelin/contracts@4.7.3/access/AccessControl.sol\":7957:8106  if (hasRole(role, account)) {... */\n      iszero\n      tag_225\n      jumpi\n        /* \"@openzeppelin/contracts@4.7.3/access/AccessControl.sol\":8031:8036  false */\n      0x00\n        /* \"@openzeppelin/contracts@4.7.3/access/AccessControl.sol\":7999:8005  _roles */\n      0x05\n        /* \"@openzeppelin/contracts@4.7.3/access/AccessControl.sol\":7999:8011  _roles[role] */\n      0x00\n        /* \"@openzeppelin/contracts@4.7.3/access/AccessControl.sol\":8006:8010  role */\n      dup5\n        /* \"@openzeppelin/contracts@4.7.3/access/AccessControl.sol\":7999:8011  _roles[role] */\n      dup2\n      mstore\n      0x20\n      add\n      swap1\n      dup2\n      mstore\n      0x20\n      add\n      0x00\n      keccak256\n        /* \"@openzeppelin/contracts@4.7.3/access/AccessControl.sol\":7999:8019  _roles[role].members */\n      0x00\n      add\n        /* \"@openzeppelin/contracts@4.7.3/access/AccessControl.sol\":7999:8028  _roles[role].members[account] */\n      0x00\n        /* \"@openzeppelin/contracts@4.7.3/access/AccessControl.sol\":8020:8027  account */\n      dup4\n        /* \"@openzeppelin/contracts@4.7.3/access/AccessControl.sol\":7999:8028  _roles[role].members[account] */\n      0xffffffffffffffffffffffffffffffffffffffff\n      and\n      0xffffffffffffffffffffffffffffffffffffffff\n      and\n      dup2\n      mstore\n      0x20\n      add\n      swap1\n      dup2\n      mstore\n      0x20\n      add\n      0x00\n      keccak256\n      0x00\n        /* \"@openzeppelin/contracts@4.7.3/access/AccessControl.sol\":7999:8036  _roles[role].members[account] = false */\n      0x0100\n      exp\n      dup2\n      sload\n      dup2\n      0xff\n      mul\n      not\n      and\n      swap1\n      dup4\n      iszero\n      iszero\n      mul\n      or\n      swap1\n      sstore\n      pop\n        /* \"@openzeppelin/contracts@4.7.3/access/AccessControl.sol\":8082:8094  _msgSender() */\n      tag_226\n        /* \"@openzeppelin/contracts@4.7.3/access/AccessControl.sol\":8082:8092  _msgSender */\n      tag_121\n        /* \"@openzeppelin/contracts@4.7.3/access/AccessControl.sol\":8082:8094  _msgSender() */\n      jump\t// in\n    tag_226:\n        /* \"@openzeppelin/contracts@4.7.3/access/AccessControl.sol\":8055:8095  RoleRevoked(role, account, _msgSender()) */\n      0xffffffffffffffffffffffffffffffffffffffff\n      and\n        /* \"@openzeppelin/contracts@4.7.3/access/AccessControl.sol\":8073:8080  account */\n      dup2\n        /* \"@openzeppelin/contracts@4.7.3/access/AccessControl.sol\":8055:8095  RoleRevoked(role, account, _msgSender()) */\n      0xffffffffffffffffffffffffffffffffffffffff\n      and\n        /* \"@openzeppelin/contracts@4.7.3/access/AccessControl.sol\":8067:8071  role */\n      dup4\n        /* \"@openzeppelin/contracts@4.7.3/access/AccessControl.sol\":8055:8095  RoleRevoked(role, account, _msgSender()) */\n      0xf6391f5c32d9c69d2a47ea670b442974b53935d1edc7fd64eb21e047a839171b\n      mload(0x40)\n      mload(0x40)\n      dup1\n      swap2\n      sub\n      swap1\n      log4\n        /* \"@openzeppelin/contracts@4.7.3/access/AccessControl.sol\":7957:8106  if (hasRole(role, account)) {... */\n    tag_225:\n        /* \"@openzeppelin/contracts@4.7.3/access/AccessControl.sol\":7878:8112  function _revokeRole(bytes32 role, address account) internal virtual {... */\n      pop\n      pop\n      jump\t// out\n        /* \"@openzeppelin/contracts@4.7.3/token/ERC20/ERC20.sol\":8402:8791  function _mint(address account, uint256 amount) internal virtual {... */\n    tag_157:\n        /* \"@openzeppelin/contracts@4.7.3/token/ERC20/ERC20.sol\":8504:8505  0 */\n      0x00\n        /* \"@openzeppelin/contracts@4.7.3/token/ERC20/ERC20.sol\":8485:8506  account != address(0) */\n      0xffffffffffffffffffffffffffffffffffffffff\n      and\n        /* \"@openzeppelin/contracts@4.7.3/token/ERC20/ERC20.sol\":8485:8492  account */\n      dup3\n        /* \"@openzeppelin/contracts@4.7.3/token/ERC20/ERC20.sol\":8485:8506  account != address(0) */\n      0xffffffffffffffffffffffffffffffffffffffff\n      and\n      eq\n      iszero\n        /* \"@openzeppelin/contracts@4.7.3/token/ERC20/ERC20.sol\":8477:8542  require(account != address(0), \"ERC20: mint to the zero address\") */\n      tag_228\n      jumpi\n      mload(0x40)\n      0x08c379a000000000000000000000000000000000000000000000000000000000\n      dup2\n      mstore\n      0x04\n      add\n      tag_229\n      swap1\n      tag_230\n      jump\t// in\n    tag_229:\n      mload(0x40)\n      dup1\n      swap2\n      sub\n      swap1\n      revert\n    tag_228:\n        /* \"@openzeppelin/contracts@4.7.3/token/ERC20/ERC20.sol\":8553:8602  _beforeTokenTransfer(address(0), account, amount) */\n      tag_231\n        /* \"@openzeppelin/contracts@4.7.3/token/ERC20/ERC20.sol\":8582:8583  0 */\n      0x00\n        /* \"@openzeppelin/contracts@4.7.3/token/ERC20/ERC20.sol\":8586:8593  account */\n      dup4\n        /* \"@openzeppelin/contracts@4.7.3/token/ERC20/ERC20.sol\":8595:8601  amount */\n      dup4\n        /* \"@openzeppelin/contracts@4.7.3/token/ERC20/ERC20.sol\":8553:8573  _beforeTokenTransfer */\n      tag_207\n        /* \"@openzeppelin/contracts@4.7.3/token/ERC20/ERC20.sol\":8553:8602  _beforeTokenTransfer(address(0), account, amount) */\n      jump\t// in\n    tag_231:\n        /* \"@openzeppelin/contracts@4.7.3/token/ERC20/ERC20.sol\":8629:8635  amount */\n      dup1\n        /* \"@openzeppelin/contracts@4.7.3/token/ERC20/ERC20.sol\":8613:8625  _totalSupply */\n      0x02\n      0x00\n        /* \"@openzeppelin/contracts@4.7.3/token/ERC20/ERC20.sol\":8613:8635  _totalSupply += amount */\n      dup3\n      dup3\n      sload\n      tag_232\n      swap2\n      swap1\n      tag_152\n      jump\t// in\n    tag_232:\n      swap3\n      pop\n      pop\n      dup2\n      swap1\n      sstore\n      pop\n        /* \"@openzeppelin/contracts@4.7.3/token/ERC20/ERC20.sol\":8667:8673  amount */\n      dup1\n        /* \"@openzeppelin/contracts@4.7.3/token/ERC20/ERC20.sol\":8645:8654  _balances */\n      0x00\n        /* \"@openzeppelin/contracts@4.7.3/token/ERC20/ERC20.sol\":8645:8663  _balances[account] */\n      dup1\n        /* \"@openzeppelin/contracts@4.7.3/token/ERC20/ERC20.sol\":8655:8662  account */\n      dup5\n        /* \"@openzeppelin/contracts@4.7.3/token/ERC20/ERC20.sol\":8645:8663  _balances[account] */\n      0xffffffffffffffffffffffffffffffffffffffff\n      and\n      0xffffffffffffffffffffffffffffffffffffffff\n      and\n      dup2\n      mstore\n      0x20\n      add\n      swap1\n      dup2\n      mstore\n      0x20\n      add\n      0x00\n      keccak256\n      0x00\n        /* \"@openzeppelin/contracts@4.7.3/token/ERC20/ERC20.sol\":8645:8673  _balances[account] += amount */\n      dup3\n      dup3\n      sload\n      tag_233\n      swap2\n      swap1\n      tag_152\n      jump\t// in\n    tag_233:\n      swap3\n      pop\n      pop\n      dup2\n      swap1\n      sstore\n      pop\n        /* \"@openzeppelin/contracts@4.7.3/token/ERC20/ERC20.sol\":8709:8716  account */\n      dup2\n        /* \"@openzeppelin/contracts@4.7.3/token/ERC20/ERC20.sol\":8688:8725  Transfer(address(0), account, amount) */\n      0xffffffffffffffffffffffffffffffffffffffff\n      and\n        /* \"@openzeppelin/contracts@4.7.3/token/ERC20/ERC20.sol\":8705:8706  0 */\n      0x00\n        /* \"@openzeppelin/contracts@4.7.3/token/ERC20/ERC20.sol\":8688:8725  Transfer(address(0), account, amount) */\n      0xffffffffffffffffffffffffffffffffffffffff\n      and\n      0xddf252ad1be2c89b69c2b068fc378daa952ba7f163c4a11628f55a4df523b3ef\n        /* \"@openzeppelin/contracts@4.7.3/token/ERC20/ERC20.sol\":8718:8724  amount */\n      dup4\n        /* \"@openzeppelin/contracts@4.7.3/token/ERC20/ERC20.sol\":8688:8725  Transfer(address(0), account, amount) */\n      mload(0x40)\n      tag_234\n      swap2\n      swap1\n      tag_44\n      jump\t// in\n    tag_234:\n      mload(0x40)\n      dup1\n      swap2\n      sub\n      swap1\n      log3\n        /* \"@openzeppelin/contracts@4.7.3/token/ERC20/ERC20.sol\":8736:8784  _afterTokenTransfer(address(0), account, amount) */\n      tag_235\n        /* \"@openzeppelin/contracts@4.7.3/token/ERC20/ERC20.sol\":8764:8765  0 */\n      0x00\n        /* \"@openzeppelin/contracts@4.7.3/token/ERC20/ERC20.sol\":8768:8775  account */\n      dup4\n        /* \"@openzeppelin/contracts@4.7.3/token/ERC20/ERC20.sol\":8777:8783  amount */\n      dup4\n        /* \"@openzeppelin/contracts@4.7.3/token/ERC20/ERC20.sol\":8736:8755  _afterTokenTransfer */\n      tag_214\n        /* \"@openzeppelin/contracts@4.7.3/token/ERC20/ERC20.sol\":8736:8784  _afterTokenTransfer(address(0), account, amount) */\n      jump\t// in\n    tag_235:\n        /* \"@openzeppelin/contracts@4.7.3/token/ERC20/ERC20.sol\":8402:8791  function _mint(address account, uint256 amount) internal virtual {... */\n      pop\n      pop\n      jump\t// out\n        /* \"@openzeppelin/contracts@4.7.3/token/ERC20/ERC20.sol\":11786:11907  function _beforeTokenTransfer(... */\n    tag_207:\n      pop\n      pop\n      pop\n      jump\t// out\n        /* \"@openzeppelin/contracts@4.7.3/token/ERC20/ERC20.sol\":12495:12615  function _afterTokenTransfer(... */\n    tag_214:\n      pop\n      pop\n      pop\n      jump\t// out\n        /* \"@openzeppelin/contracts@4.7.3/access/AccessControl.sol\":3718:4210  function _checkRole(bytes32 role, address account) internal view virtual {... */\n    tag_218:\n        /* \"@openzeppelin/contracts@4.7.3/access/AccessControl.sol\":3806:3828  hasRole(role, account) */\n      tag_239\n        /* \"@openzeppelin/contracts@4.7.3/access/AccessControl.sol\":3814:3818  role */\n      dup3\n        /* \"@openzeppelin/contracts@4.7.3/access/AccessControl.sol\":3820:3827  account */\n      dup3\n        /* \"@openzeppelin/contracts@4.7.3/access/AccessControl.sol\":3806:3813  hasRole */\n      tag_81\n        /* \"@openzeppelin/contracts@4.7.3/access/AccessControl.sol\":3806:3828  hasRole(role, account) */\n      jump\t// in\n    tag_239:\n        /* \"@openzeppelin/contracts@4.7.3/access/AccessControl.sol\":3801:4204  if (!hasRole(role, account)) {... */\n      tag_240\n      jumpi\n        /* \"@openzeppelin/contracts@4.7.3/access/AccessControl.sol\":3989:4030  Strings.toHexString(uint160(account), 20) */\n      tag_241\n        /* \"@openzeppelin/contracts@4.7.3/access/AccessControl.sol\":4017:4024  account */\n      dup2\n        /* \"@openzeppelin/contracts@4.7.3/access/AccessControl.sol\":3989:4030  Strings.toHexString(uint160(account), 20) */\n      0xffffffffffffffffffffffffffffffffffffffff\n      and\n        /* \"@openzeppelin/contracts@4.7.3/access/AccessControl.sol\":4027:4029  20 */\n      0x14\n        /* \"@openzeppelin/contracts@4.7.3/access/AccessControl.sol\":3989:4008  Strings.toHexString */\n      tag_242\n        /* \"@openzeppelin/contracts@4.7.3/access/AccessControl.sol\":3989:4030  Strings.toHexString(uint160(account), 20) */\n      jump\t// in\n    tag_241:\n        /* \"@openzeppelin/contracts@4.7.3/access/AccessControl.sol\":4101:4139  Strings.toHexString(uint256(role), 32) */\n      tag_243\n        /* \"@openzeppelin/contracts@4.7.3/access/AccessControl.sol\":4129:4133  role */\n      dup4\n        /* \"@openzeppelin/contracts@4.7.3/access/AccessControl.sol\":4121:4134  uint256(role) */\n      0x00\n      shr\n        /* \"@openzeppelin/contracts@4.7.3/access/AccessControl.sol\":4136:4138  32 */\n      0x20\n        /* \"@openzeppelin/contracts@4.7.3/access/AccessControl.sol\":4101:4120  Strings.toHexString */\n      tag_242\n        /* \"@openzeppelin/contracts@4.7.3/access/AccessControl.sol\":4101:4139  Strings.toHexString(uint256(role), 32) */\n      jump\t// in\n    tag_243:\n        /* \"@openzeppelin/contracts@4.7.3/access/AccessControl.sol\":3896:4161  abi.encodePacked(... */\n      add(0x20, mload(0x40))\n      tag_244\n      swap3\n      swap2\n      swap1\n      tag_245\n      jump\t// in\n    tag_244:\n      mload(0x40)\n      0x20\n      dup2\n      dup4\n      sub\n      sub\n      dup2\n      mstore\n      swap1\n      0x40\n      mstore\n        /* \"@openzeppelin/contracts@4.7.3/access/AccessControl.sol\":3844:4193  revert(... */\n      mload(0x40)\n      0x08c379a000000000000000000000000000000000000000000000000000000000\n      dup2\n      mstore\n      0x04\n      add\n      tag_246\n      swap2\n      swap1\n      tag_35\n      jump\t// in\n    tag_246:\n      mload(0x40)\n      dup1\n      swap2\n      sub\n      swap1\n      revert\n        /* \"@openzeppelin/contracts@4.7.3/access/AccessControl.sol\":3801:4204  if (!hasRole(role, account)) {... */\n    tag_240:\n        /* \"@openzeppelin/contracts@4.7.3/access/AccessControl.sol\":3718:4210  function _checkRole(bytes32 role, address account) internal view virtual {... */\n      pop\n      pop\n      jump\t// out\n        /* \"@openzeppelin/contracts@4.7.3/utils/Strings.sol\":1652:2093  function toHexString(uint256 value, uint256 length) internal pure returns (string memory) {... */\n    tag_242:\n        /* \"@openzeppelin/contracts@4.7.3/utils/Strings.sol\":1727:1740  string memory */\n      0x60\n        /* \"@openzeppelin/contracts@4.7.3/utils/Strings.sol\":1752:1771  bytes memory buffer */\n      0x00\n        /* \"@openzeppelin/contracts@4.7.3/utils/Strings.sol\":1797:1798  2 */\n      0x02\n        /* \"@openzeppelin/contracts@4.7.3/utils/Strings.sol\":1788:1794  length */\n      dup4\n        /* \"@openzeppelin/contracts@4.7.3/utils/Strings.sol\":1784:1785  2 */\n      0x02\n        /* \"@openzeppelin/contracts@4.7.3/utils/Strings.sol\":1784:1794  2 * length */\n      tag_248\n      swap2\n      swap1\n      tag_249\n      jump\t// in\n    tag_248:\n        /* \"@openzeppelin/contracts@4.7.3/utils/Strings.sol\":1784:1798  2 * length + 2 */\n      tag_250\n      swap2\n      swap1\n      tag_152\n      jump\t// in\n    tag_250:\n        /* \"@openzeppelin/contracts@4.7.3/utils/Strings.sol\":1774:1799  new bytes(2 * length + 2) */\n      0xffffffffffffffff\n      dup2\n      gt\n      iszero\n      tag_251\n      jumpi\n      tag_252\n      tag_253\n      jump\t// in\n    tag_252:\n    tag_251:\n      mload(0x40)\n      swap1\n      dup1\n      dup3\n      mstore\n      dup1\n      0x1f\n      add\n      not(0x1f)\n      and\n      0x20\n      add\n      dup3\n      add\n      0x40\n      mstore\n      dup1\n      iszero\n      tag_254\n      jumpi\n      dup2\n      0x20\n      add\n      0x01\n      dup3\n      mul\n      dup1\n      calldatasize\n      dup4\n      calldatacopy\n      dup1\n      dup3\n      add\n      swap2\n      pop\n      pop\n      swap1\n      pop\n    tag_254:\n      pop\n        /* \"@openzeppelin/contracts@4.7.3/utils/Strings.sol\":1752:1799  bytes memory buffer = new bytes(2 * length + 2) */\n      swap1\n      pop\n        /* \"@openzeppelin/contracts@4.7.3/utils/Strings.sol\":1809:1824  buffer[0] = \"0\" */\n      0x3000000000000000000000000000000000000000000000000000000000000000\n        /* \"@openzeppelin/contracts@4.7.3/utils/Strings.sol\":1809:1815  buffer */\n      dup2\n        /* \"@openzeppelin/contracts@4.7.3/utils/Strings.sol\":1816:1817  0 */\n      0x00\n        /* \"@openzeppelin/contracts@4.7.3/utils/Strings.sol\":1809:1818  buffer[0] */\n      dup2\n      mload\n      dup2\n      lt\n      tag_255\n      jumpi\n      tag_256\n      tag_257\n      jump\t// in\n    tag_256:\n    tag_255:\n      0x20\n      add\n      add\n        /* \"@openzeppelin/contracts@4.7.3/utils/Strings.sol\":1809:1824  buffer[0] = \"0\" */\n      swap1\n      not(0xffffffffffffffffffffffffffffffffffffffffffffffffffffffffffffff)\n      and\n      swap1\n      dup2\n      0x00\n      byte\n      swap1\n      mstore8\n      pop\n        /* \"@openzeppelin/contracts@4.7.3/utils/Strings.sol\":1834:1849  buffer[1] = \"x\" */\n      0x7800000000000000000000000000000000000000000000000000000000000000\n        /* \"@openzeppelin/contracts@4.7.3/utils/Strings.sol\":1834:1840  buffer */\n      dup2\n        /* \"@openzeppelin/contracts@4.7.3/utils/Strings.sol\":1841:1842  1 */\n      0x01\n        /* \"@openzeppelin/contracts@4.7.3/utils/Strings.sol\":1834:1843  buffer[1] */\n      dup2\n      mload\n      dup2\n      lt\n      tag_258\n      jumpi\n      tag_259\n      tag_257\n      jump\t// in\n    tag_259:\n    tag_258:\n      0x20\n      add\n      add\n        /* \"@openzeppelin/contracts@4.7.3/utils/Strings.sol\":1834:1849  buffer[1] = \"x\" */\n      swap1\n      not(0xffffffffffffffffffffffffffffffffffffffffffffffffffffffffffffff)\n      and\n      swap1\n      dup2\n      0x00\n      byte\n      swap1\n      mstore8\n      pop\n        /* \"@openzeppelin/contracts@4.7.3/utils/Strings.sol\":1864:1873  uint256 i */\n      0x00\n        /* \"@openzeppelin/contracts@4.7.3/utils/Strings.sol\":1889:1890  1 */\n      0x01\n        /* \"@openzeppelin/contracts@4.7.3/utils/Strings.sol\":1880:1886  length */\n      dup5\n        /* \"@openzeppelin/contracts@4.7.3/utils/Strings.sol\":1876:1877  2 */\n      0x02\n        /* \"@openzeppelin/contracts@4.7.3/utils/Strings.sol\":1876:1886  2 * length */\n      tag_263\n      swap2\n      swap1\n      tag_249\n      jump\t// in\n    tag_263:\n        /* \"@openzeppelin/contracts@4.7.3/utils/Strings.sol\":1876:1890  2 * length + 1 */\n      tag_264\n      swap2\n      swap1\n      tag_152\n      jump\t// in\n    tag_264:\n        /* \"@openzeppelin/contracts@4.7.3/utils/Strings.sol\":1864:1890  uint256 i = 2 * length + 1 */\n      swap1\n      pop\n        /* \"@openzeppelin/contracts@4.7.3/utils/Strings.sol\":1859:1991  for (uint256 i = 2 * length + 1; i > 1; --i) {... */\n    tag_260:\n        /* \"@openzeppelin/contracts@4.7.3/utils/Strings.sol\":1896:1897  1 */\n      0x01\n        /* \"@openzeppelin/contracts@4.7.3/utils/Strings.sol\":1892:1893  i */\n      dup2\n        /* \"@openzeppelin/contracts@4.7.3/utils/Strings.sol\":1892:1897  i > 1 */\n      gt\n        /* \"@openzeppelin/contracts@4.7.3/utils/Strings.sol\":1859:1991  for (uint256 i = 2 * length + 1; i > 1; --i) {... */\n      iszero\n      tag_261\n      jumpi\n        /* \"@openzeppelin/contracts@4.7.3/utils/Strings.sol\":1930:1942  _HEX_SYMBOLS */\n      0x3031323334353637383961626364656600000000000000000000000000000000\n        /* \"@openzeppelin/contracts@4.7.3/utils/Strings.sol\":1951:1954  0xf */\n      0x0f\n        /* \"@openzeppelin/contracts@4.7.3/utils/Strings.sol\":1943:1948  value */\n      dup7\n        /* \"@openzeppelin/contracts@4.7.3/utils/Strings.sol\":1943:1954  value & 0xf */\n      and\n        /* \"@openzeppelin/contracts@4.7.3/utils/Strings.sol\":1930:1955  _HEX_SYMBOLS[value & 0xf] */\n      0x10\n      dup2\n      lt\n      tag_265\n      jumpi\n      tag_266\n      tag_257\n      jump\t// in\n    tag_266:\n    tag_265:\n      byte\n      0xf8\n      shl\n        /* \"@openzeppelin/contracts@4.7.3/utils/Strings.sol\":1918:1924  buffer */\n      dup3\n        /* \"@openzeppelin/contracts@4.7.3/utils/Strings.sol\":1925:1926  i */\n      dup3\n        /* \"@openzeppelin/contracts@4.7.3/utils/Strings.sol\":1918:1927  buffer[i] */\n      dup2\n      mload\n      dup2\n      lt\n      tag_267\n      jumpi\n      tag_268\n      tag_257\n      jump\t// in\n    tag_268:\n    tag_267:\n      0x20\n      add\n      add\n        /* \"@openzeppelin/contracts@4.7.3/utils/Strings.sol\":1918:1955  buffer[i] = _HEX_SYMBOLS[value & 0xf] */\n      swap1\n      not(0xffffffffffffffffffffffffffffffffffffffffffffffffffffffffffffff)\n      and\n      swap1\n      dup2\n      0x00\n      byte\n      swap1\n      mstore8\n      pop\n        /* \"@openzeppelin/contracts@4.7.3/utils/Strings.sol\":1979:1980  4 */\n      0x04\n        /* \"@openzeppelin/contracts@4.7.3/utils/Strings.sol\":1969:1980  value >>= 4 */\n      dup6\n      swap1\n      shr\n      swap5\n      pop\n        /* \"@openzeppelin/contracts@4.7.3/utils/Strings.sol\":1899:1902  --i */\n      dup1\n      tag_269\n      swap1\n      tag_270\n      jump\t// in\n    tag_269:\n      swap1\n      pop\n        /* \"@openzeppelin/contracts@4.7.3/utils/Strings.sol\":1859:1991  for (uint256 i = 2 * length + 1; i > 1; --i) {... */\n      jump(tag_260)\n    tag_261:\n      pop\n        /* \"@openzeppelin/contracts@4.7.3/utils/Strings.sol\":2017:2018  0 */\n      0x00\n        /* \"@openzeppelin/contracts@4.7.3/utils/Strings.sol\":2008:2013  value */\n      dup5\n        /* \"@openzeppelin/contracts@4.7.3/utils/Strings.sol\":2008:2018  value == 0 */\n      eq\n        /* \"@openzeppelin/contracts@4.7.3/utils/Strings.sol\":2000:2055  require(value == 0, \"Strings: hex length insufficient\") */\n      tag_271\n      jumpi\n      mload(0x40)\n      0x08c379a000000000000000000000000000000000000000000000000000000000\n      dup2\n      mstore\n      0x04\n      add\n      tag_272\n      swap1\n      tag_273\n      jump\t// in\n    tag_272:\n      mload(0x40)\n      dup1\n      swap2\n      sub\n      swap1\n      revert\n    tag_271:\n        /* \"@openzeppelin/contracts@4.7.3/utils/Strings.sol\":2079:2085  buffer */\n      dup1\n        /* \"@openzeppelin/contracts@4.7.3/utils/Strings.sol\":2065:2086  return string(buffer) */\n      swap2\n      pop\n      pop\n        /* \"@openzeppelin/contracts@4.7.3/utils/Strings.sol\":1652:2093  function toHexString(uint256 value, uint256 length) internal pure returns (string memory) {... */\n      swap3\n      swap2\n      pop\n      pop\n      jump\t// out\n        /* \"#utility.yul\":7:146   */\n    tag_275:\n        /* \"#utility.yul\":53:58   */\n      0x00\n        /* \"#utility.yul\":91:97   */\n      dup2\n        /* \"#utility.yul\":78:98   */\n      calldataload\n        /* \"#utility.yul\":69:98   */\n      swap1\n      pop\n        /* \"#utility.yul\":107:140   */\n      tag_277\n        /* \"#utility.yul\":134:139   */\n      dup2\n        /* \"#utility.yul\":107:140   */\n      tag_278\n      jump\t// in\n    tag_277:\n        /* \"#utility.yul\":7:146   */\n      swap3\n      swap2\n      pop\n      pop\n      jump\t// out\n        /* \"#utility.yul\":152:291   */\n    tag_279:\n        /* \"#utility.yul\":198:203   */\n      0x00\n        /* \"#utility.yul\":236:242   */\n      dup2\n        /* \"#utility.yul\":223:243   */\n      calldataload\n        /* \"#utility.yul\":214:243   */\n      swap1\n      pop\n        /* \"#utility.yul\":252:285   */\n      tag_281\n        /* \"#utility.yul\":279:284   */\n      dup2\n        /* \"#utility.yul\":252:285   */\n      tag_282\n      jump\t// in\n    tag_281:\n        /* \"#utility.yul\":152:291   */\n      swap3\n      swap2\n      pop\n      pop\n      jump\t// out\n        /* \"#utility.yul\":297:434   */\n    tag_283:\n        /* \"#utility.yul\":342:347   */\n      0x00\n        /* \"#utility.yul\":380:386   */\n      dup2\n        /* \"#utility.yul\":367:387   */\n      calldataload\n        /* \"#utility.yul\":358:387   */\n      swap1\n      pop\n        /* \"#utility.yul\":396:428   */\n      tag_285\n        /* \"#utility.yul\":422:427   */\n      dup2\n        /* \"#utility.yul\":396:428   */\n      tag_286\n      jump\t// in\n    tag_285:\n        /* \"#utility.yul\":297:434   */\n      swap3\n      swap2\n      pop\n      pop\n      jump\t// out\n        /* \"#utility.yul\":440:579   */\n    tag_287:\n        /* \"#utility.yul\":486:491   */\n      0x00\n        /* \"#utility.yul\":524:530   */\n      dup2\n        /* \"#utility.yul\":511:531   */\n      calldataload\n        /* \"#utility.yul\":502:531   */\n      swap1\n      pop\n        /* \"#utility.yul\":540:573   */\n      tag_289\n        /* \"#utility.yul\":567:572   */\n      dup2\n        /* \"#utility.yul\":540:573   */\n      tag_290\n      jump\t// in\n    tag_289:\n        /* \"#utility.yul\":440:579   */\n      swap3\n      swap2\n      pop\n      pop\n      jump\t// out\n        /* \"#utility.yul\":585:914   */\n    tag_76:\n        /* \"#utility.yul\":644:650   */\n      0x00\n        /* \"#utility.yul\":693:695   */\n      0x20\n        /* \"#utility.yul\":681:690   */\n      dup3\n        /* \"#utility.yul\":672:679   */\n      dup5\n        /* \"#utility.yul\":668:691   */\n      sub\n        /* \"#utility.yul\":664:696   */\n      slt\n        /* \"#utility.yul\":661:780   */\n      iszero\n      tag_292\n      jumpi\n        /* \"#utility.yul\":699:778   */\n      tag_293\n      tag_294\n      jump\t// in\n    tag_293:\n        /* \"#utility.yul\":661:780   */\n    tag_292:\n        /* \"#utility.yul\":819:820   */\n      0x00\n        /* \"#utility.yul\":844:897   */\n      tag_295\n        /* \"#utility.yul\":889:896   */\n      dup5\n        /* \"#utility.yul\":880:886   */\n      dup3\n        /* \"#utility.yul\":869:878   */\n      dup6\n        /* \"#utility.yul\":865:887   */\n      add\n        /* \"#utility.yul\":844:897   */\n      tag_275\n      jump\t// in\n    tag_295:\n        /* \"#utility.yul\":834:897   */\n      swap2\n      pop\n        /* \"#utility.yul\":790:907   */\n      pop\n        /* \"#utility.yul\":585:914   */\n      swap3\n      swap2\n      pop\n      pop\n      jump\t// out\n        /* \"#utility.yul\":920:1394   */\n    tag_105:\n        /* \"#utility.yul\":988:994   */\n      0x00\n        /* \"#utility.yul\":996:1002   */\n      dup1\n        /* \"#utility.yul\":1045:1047   */\n      0x40\n        /* \"#utility.yul\":1033:1042   */\n      dup4\n        /* \"#utility.yul\":1024:1031   */\n      dup6\n        /* \"#utility.yul\":1020:1043   */\n      sub\n        /* \"#utility.yul\":1016:1048   */\n      slt\n        /* \"#utility.yul\":1013:1132   */\n      iszero\n      tag_297\n      jumpi\n        /* \"#utility.yul\":1051:1130   */\n      tag_298\n      tag_294\n      jump\t// in\n    tag_298:\n        /* \"#utility.yul\":1013:1132   */\n    tag_297:\n        /* \"#utility.yul\":1171:1172   */\n      0x00\n        /* \"#utility.yul\":1196:1249   */\n      tag_299\n        /* \"#utility.yul\":1241:1248   */\n      dup6\n        /* \"#utility.yul\":1232:1238   */\n      dup3\n        /* \"#utility.yul\":1221:1230   */\n      dup7\n        /* \"#utility.yul\":1217:1239   */\n      add\n        /* \"#utility.yul\":1196:1249   */\n      tag_275\n      jump\t// in\n    tag_299:\n        /* \"#utility.yul\":1186:1249   */\n      swap3\n      pop\n        /* \"#utility.yul\":1142:1259   */\n      pop\n        /* \"#utility.yul\":1298:1300   */\n      0x20\n        /* \"#utility.yul\":1324:1377   */\n      tag_300\n        /* \"#utility.yul\":1369:1376   */\n      dup6\n        /* \"#utility.yul\":1360:1366   */\n      dup3\n        /* \"#utility.yul\":1349:1358   */\n      dup7\n        /* \"#utility.yul\":1345:1367   */\n      add\n        /* \"#utility.yul\":1324:1377   */\n      tag_275\n      jump\t// in\n    tag_300:\n        /* \"#utility.yul\":1314:1377   */\n      swap2\n      pop\n        /* \"#utility.yul\":1269:1387   */\n      pop\n        /* \"#utility.yul\":920:1394   */\n      swap3\n      pop\n      swap3\n      swap1\n      pop\n      jump\t// out\n        /* \"#utility.yul\":1400:2019   */\n    tag_47:\n        /* \"#utility.yul\":1477:1483   */\n      0x00\n        /* \"#utility.yul\":1485:1491   */\n      dup1\n        /* \"#utility.yul\":1493:1499   */\n      0x00\n        /* \"#utility.yul\":1542:1544   */\n      0x60\n        /* \"#utility.yul\":1530:1539   */\n      dup5\n        /* \"#utility.yul\":1521:1528   */\n      dup7\n        /* \"#utility.yul\":1517:1540   */\n      sub\n        /* \"#utility.yul\":1513:1545   */\n      slt\n        /* \"#utility.yul\":1510:1629   */\n      iszero\n      tag_302\n      jumpi\n        /* \"#utility.yul\":1548:1627   */\n      tag_303\n      tag_294\n      jump\t// in\n    tag_303:\n        /* \"#utility.yul\":1510:1629   */\n    tag_302:\n        /* \"#utility.yul\":1668:1669   */\n      0x00\n        /* \"#utility.yul\":1693:1746   */\n      tag_304\n        /* \"#utility.yul\":1738:1745   */\n      dup7\n        /* \"#utility.yul\":1729:1735   */\n      dup3\n        /* \"#utility.yul\":1718:1727   */\n      dup8\n        /* \"#utility.yul\":1714:1736   */\n      add\n        /* \"#utility.yul\":1693:1746   */\n      tag_275\n      jump\t// in\n    tag_304:\n        /* \"#utility.yul\":1683:1746   */\n      swap4\n      pop\n        /* \"#utility.yul\":1639:1756   */\n      pop\n        /* \"#utility.yul\":1795:1797   */\n      0x20\n        /* \"#utility.yul\":1821:1874   */\n      tag_305\n        /* \"#utility.yul\":1866:1873   */\n      dup7\n        /* \"#utility.yul\":1857:1863   */\n      dup3\n        /* \"#utility.yul\":1846:1855   */\n      dup8\n        /* \"#utility.yul\":1842:1864   */\n      add\n        /* \"#utility.yul\":1821:1874   */\n      tag_275\n      jump\t// in\n    tag_305:\n        /* \"#utility.yul\":1811:1874   */\n      swap3\n      pop\n        /* \"#utility.yul\":1766:1884   */\n      pop\n        /* \"#utility.yul\":1923:1925   */\n      0x40\n        /* \"#utility.yul\":1949:2002   */\n      tag_306\n        /* \"#utility.yul\":1994:2001   */\n      dup7\n        /* \"#utility.yul\":1985:1991   */\n      dup3\n        /* \"#utility.yul\":1974:1983   */\n      dup8\n        /* \"#utility.yul\":1970:1992   */\n      add\n        /* \"#utility.yul\":1949:2002   */\n      tag_287\n      jump\t// in\n    tag_306:\n        /* \"#utility.yul\":1939:2002   */\n      swap2\n      pop\n        /* \"#utility.yul\":1894:2012   */\n      pop\n        /* \"#utility.yul\":1400:2019   */\n      swap3\n      pop\n      swap3\n      pop\n      swap3\n      jump\t// out\n        /* \"#utility.yul\":2025:2499   */\n    tag_38:\n        /* \"#utility.yul\":2093:2099   */\n      0x00\n        /* \"#utility.yul\":2101:2107   */\n      dup1\n        /* \"#utility.yul\":2150:2152   */\n      0x40\n        /* \"#utility.yul\":2138:2147   */\n      dup4\n        /* \"#utility.yul\":2129:2136   */\n      dup6\n        /* \"#utility.yul\":2125:2148   */\n      sub\n        /* \"#utility.yul\":2121:2153   */\n      slt\n        /* \"#utility.yul\":2118:2237   */\n      iszero\n      tag_308\n      jumpi\n        /* \"#utility.yul\":2156:2235   */\n      tag_309\n      tag_294\n      jump\t// in\n    tag_309:\n        /* \"#utility.yul\":2118:2237   */\n    tag_308:\n        /* \"#utility.yul\":2276:2277   */\n      0x00\n        /* \"#utility.yul\":2301:2354   */\n      tag_310\n        /* \"#utility.yul\":2346:2353   */\n      dup6\n        /* \"#utility.yul\":2337:2343   */\n      dup3\n        /* \"#utility.yul\":2326:2335   */\n      dup7\n        /* \"#utility.yul\":2322:2344   */\n      add\n        /* \"#utility.yul\":2301:2354   */\n      tag_275\n      jump\t// in\n    tag_310:\n        /* \"#utility.yul\":2291:2354   */\n      swap3\n      pop\n        /* \"#utility.yul\":2247:2364   */\n      pop\n        /* \"#utility.yul\":2403:2405   */\n      0x20\n        /* \"#utility.yul\":2429:2482   */\n      tag_311\n        /* \"#utility.yul\":2474:2481   */\n      dup6\n        /* \"#utility.yul\":2465:2471   */\n      dup3\n        /* \"#utility.yul\":2454:2463   */\n      dup7\n        /* \"#utility.yul\":2450:2472   */\n      add\n        /* \"#utility.yul\":2429:2482   */\n      tag_287\n      jump\t// in\n    tag_311:\n        /* \"#utility.yul\":2419:2482   */\n      swap2\n      pop\n        /* \"#utility.yul\":2374:2492   */\n      pop\n        /* \"#utility.yul\":2025:2499   */\n      swap3\n      pop\n      swap3\n      swap1\n      pop\n      jump\t// out\n        /* \"#utility.yul\":2505:2834   */\n    tag_52:\n        /* \"#utility.yul\":2564:2570   */\n      0x00\n        /* \"#utility.yul\":2613:2615   */\n      0x20\n        /* \"#utility.yul\":2601:2610   */\n      dup3\n        /* \"#utility.yul\":2592:2599   */\n      dup5\n        /* \"#utility.yul\":2588:2611   */\n      sub\n        /* \"#utility.yul\":2584:2616   */\n      slt\n        /* \"#utility.yul\":2581:2700   */\n      iszero\n      tag_313\n      jumpi\n        /* \"#utility.yul\":2619:2698   */\n      tag_314\n      tag_294\n      jump\t// in\n    tag_314:\n        /* \"#utility.yul\":2581:2700   */\n    tag_313:\n        /* \"#utility.yul\":2739:2740   */\n      0x00\n        /* \"#utility.yul\":2764:2817   */\n      tag_315\n        /* \"#utility.yul\":2809:2816   */\n      dup5\n        /* \"#utility.yul\":2800:2806   */\n      dup3\n        /* \"#utility.yul\":2789:2798   */\n      dup6\n        /* \"#utility.yul\":2785:2807   */\n      add\n        /* \"#utility.yul\":2764:2817   */\n      tag_279\n      jump\t// in\n    tag_315:\n        /* \"#utility.yul\":2754:2817   */\n      swap2\n      pop\n        /* \"#utility.yul\":2710:2827   */\n      pop\n        /* \"#utility.yul\":2505:2834   */\n      swap3\n      swap2\n      pop\n      pop\n      jump\t// out\n        /* \"#utility.yul\":2840:3314   */\n    tag_58:\n        /* \"#utility.yul\":2908:2914   */\n      0x00\n        /* \"#utility.yul\":2916:2922   */\n      dup1\n        /* \"#utility.yul\":2965:2967   */\n      0x40\n        /* \"#utility.yul\":2953:2962   */\n      dup4\n        /* \"#utility.yul\":2944:2951   */\n      dup6\n        /* \"#utility.yul\":2940:2963   */\n      sub\n        /* \"#utility.yul\":2936:2968   */\n      slt\n        /* \"#utility.yul\":2933:3052   */\n      iszero\n      tag_317\n      jumpi\n        /* \"#utility.yul\":2971:3050   */\n      tag_318\n      tag_294\n      jump\t// in\n    tag_318:\n        /* \"#utility.yul\":2933:3052   */\n    tag_317:\n        /* \"#utility.yul\":3091:3092   */\n      0x00\n        /* \"#utility.yul\":3116:3169   */\n      tag_319\n        /* \"#utility.yul\":3161:3168   */\n      dup6\n        /* \"#utility.yul\":3152:3158   */\n      dup3\n        /* \"#utility.yul\":3141:3150   */\n      dup7\n        /* \"#utility.yul\":3137:3159   */\n      add\n        /* \"#utility.yul\":3116:3169   */\n      tag_279\n      jump\t// in\n    tag_319:\n        /* \"#utility.yul\":3106:3169   */\n      swap3\n      pop\n        /* \"#utility.yul\":3062:3179   */\n      pop\n        /* \"#utility.yul\":3218:3220   */\n      0x20\n        /* \"#utility.yul\":3244:3297   */\n      tag_320\n        /* \"#utility.yul\":3289:3296   */\n      dup6\n        /* \"#utility.yul\":3280:3286   */\n      dup3\n        /* \"#utility.yul\":3269:3278   */\n      dup7\n        /* \"#utility.yul\":3265:3287   */\n      add\n        /* \"#utility.yul\":3244:3297   */\n      tag_275\n      jump\t// in\n    tag_320:\n        /* \"#utility.yul\":3234:3297   */\n      swap2\n      pop\n        /* \"#utility.yul\":3189:3307   */\n      pop\n        /* \"#utility.yul\":2840:3314   */\n      swap3\n      pop\n      swap3\n      swap1\n      pop\n      jump\t// out\n        /* \"#utility.yul\":3320:3647   */\n    tag_28:\n        /* \"#utility.yul\":3378:3384   */\n      0x00\n        /* \"#utility.yul\":3427:3429   */\n      0x20\n        /* \"#utility.yul\":3415:3424   */\n      dup3\n        /* \"#utility.yul\":3406:3413   */\n      dup5\n        /* \"#utility.yul\":3402:3425   */\n      sub\n        /* \"#utility.yul\":3398:3430   */\n      slt\n        /* \"#utility.yul\":3395:3514   */\n      iszero\n      tag_322\n      jumpi\n        /* \"#utility.yul\":3433:3512   */\n      tag_323\n      tag_294\n      jump\t// in\n    tag_323:\n        /* \"#utility.yul\":3395:3514   */\n    tag_322:\n        /* \"#utility.yul\":3553:3554   */\n      0x00\n        /* \"#utility.yul\":3578:3630   */\n      tag_324\n        /* \"#utility.yul\":3622:3629   */\n      dup5\n        /* \"#utility.yul\":3613:3619   */\n      dup3\n        /* \"#utility.yul\":3602:3611   */\n      dup6\n        /* \"#utility.yul\":3598:3620   */\n      add\n        /* \"#utility.yul\":3578:3630   */\n      tag_283\n      jump\t// in\n    tag_324:\n        /* \"#utility.yul\":3568:3630   */\n      swap2\n      pop\n        /* \"#utility.yul\":3524:3640   */\n      pop\n        /* \"#utility.yul\":3320:3647   */\n      swap3\n      swap2\n      pop\n      pop\n      jump\t// out\n        /* \"#utility.yul\":3653:3762   */\n    tag_325:\n        /* \"#utility.yul\":3734:3755   */\n      tag_327\n        /* \"#utility.yul\":3749:3754   */\n      dup2\n        /* \"#utility.yul\":3734:3755   */\n      tag_328\n      jump\t// in\n    tag_327:\n        /* \"#utility.yul\":3729:3732   */\n      dup3\n        /* \"#utility.yul\":3722:3756   */\n      mstore\n        /* \"#utility.yul\":3653:3762   */\n      pop\n      pop\n      jump\t// out\n        /* \"#utility.yul\":3768:3886   */\n    tag_329:\n        /* \"#utility.yul\":3855:3879   */\n      tag_331\n        /* \"#utility.yul\":3873:3878   */\n      dup2\n        /* \"#utility.yul\":3855:3879   */\n      tag_332\n      jump\t// in\n    tag_331:\n        /* \"#utility.yul\":3850:3853   */\n      dup3\n        /* \"#utility.yul\":3843:3880   */\n      mstore\n        /* \"#utility.yul\":3768:3886   */\n      pop\n      pop\n      jump\t// out\n        /* \"#utility.yul\":3892:4256   */\n    tag_333:\n        /* \"#utility.yul\":3980:3983   */\n      0x00\n        /* \"#utility.yul\":4008:4047   */\n      tag_335\n        /* \"#utility.yul\":4041:4046   */\n      dup3\n        /* \"#utility.yul\":4008:4047   */\n      tag_336\n      jump\t// in\n    tag_335:\n        /* \"#utility.yul\":4063:4134   */\n      tag_337\n        /* \"#utility.yul\":4127:4133   */\n      dup2\n        /* \"#utility.yul\":4122:4125   */\n      dup6\n        /* \"#utility.yul\":4063:4134   */\n      tag_338\n      jump\t// in\n    tag_337:\n        /* \"#utility.yul\":4056:4134   */\n      swap4\n      pop\n        /* \"#utility.yul\":4143:4195   */\n      tag_339\n        /* \"#utility.yul\":4188:4194   */\n      dup2\n        /* \"#utility.yul\":4183:4186   */\n      dup6\n        /* \"#utility.yul\":4176:4180   */\n      0x20\n        /* \"#utility.yul\":4169:4174   */\n      dup7\n        /* \"#utility.yul\":4165:4181   */\n      add\n        /* \"#utility.yul\":4143:4195   */\n      tag_340\n      jump\t// in\n    tag_339:\n        /* \"#utility.yul\":4220:4249   */\n      tag_341\n        /* \"#utility.yul\":4242:4248   */\n      dup2\n        /* \"#utility.yul\":4220:4249   */\n      tag_342\n      jump\t// in\n    tag_341:\n        /* \"#utility.yul\":4215:4218   */\n      dup5\n        /* \"#utility.yul\":4211:4250   */\n      add\n        /* \"#utility.yul\":4204:4250   */\n      swap2\n      pop\n        /* \"#utility.yul\":3984:4256   */\n      pop\n        /* \"#utility.yul\":3892:4256   */\n      swap3\n      swap2\n      pop\n      pop\n      jump\t// out\n        /* \"#utility.yul\":4262:4639   */\n    tag_343:\n        /* \"#utility.yul\":4368:4371   */\n      0x00\n        /* \"#utility.yul\":4396:4435   */\n      tag_345\n        /* \"#utility.yul\":4429:4434   */\n      dup3\n        /* \"#utility.yul\":4396:4435   */\n      tag_336\n      jump\t// in\n    tag_345:\n        /* \"#utility.yul\":4451:4540   */\n      tag_346\n        /* \"#utility.yul\":4533:4539   */\n      dup2\n        /* \"#utility.yul\":4528:4531   */\n      dup6\n        /* \"#utility.yul\":4451:4540   */\n      tag_347\n      jump\t// in\n    tag_346:\n        /* \"#utility.yul\":4444:4540   */\n      swap4\n      pop\n        /* \"#utility.yul\":4549:4601   */\n      tag_348\n        /* \"#utility.yul\":4594:4600   */\n      dup2\n        /* \"#utility.yul\":4589:4592   */\n      dup6\n        /* \"#utility.yul\":4582:4586   */\n      0x20\n        /* \"#utility.yul\":4575:4580   */\n      dup7\n        /* \"#utility.yul\":4571:4587   */\n      add\n        /* \"#utility.yul\":4549:4601   */\n      tag_340\n      jump\t// in\n    tag_348:\n        /* \"#utility.yul\":4626:4632   */\n      dup1\n        /* \"#utility.yul\":4621:4624   */\n      dup5\n        /* \"#utility.yul\":4617:4633   */\n      add\n        /* \"#utility.yul\":4610:4633   */\n      swap2\n      pop\n        /* \"#utility.yul\":4372:4639   */\n      pop\n        /* \"#utility.yul\":4262:4639   */\n      swap3\n      swap2\n      pop\n      pop\n      jump\t// out\n        /* \"#utility.yul\":4645:5011   */\n    tag_349:\n        /* \"#utility.yul\":4787:4790   */\n      0x00\n        /* \"#utility.yul\":4808:4875   */\n      tag_351\n        /* \"#utility.yul\":4872:4874   */\n      0x20\n        /* \"#utility.yul\":4867:4870   */\n      dup4\n        /* \"#utility.yul\":4808:4875   */\n      tag_338\n      jump\t// in\n    tag_351:\n        /* \"#utility.yul\":4801:4875   */\n      swap2\n      pop\n        /* \"#utility.yul\":4884:4977   */\n      tag_352\n        /* \"#utility.yul\":4973:4976   */\n      dup3\n        /* \"#utility.yul\":4884:4977   */\n      tag_353\n      jump\t// in\n    tag_352:\n        /* \"#utility.yul\":5002:5004   */\n      0x20\n        /* \"#utility.yul\":4997:5000   */\n      dup3\n        /* \"#utility.yul\":4993:5005   */\n      add\n        /* \"#utility.yul\":4986:5005   */\n      swap1\n      pop\n        /* \"#utility.yul\":4645:5011   */\n      swap2\n      swap1\n      pop\n      jump\t// out\n        /* \"#utility.yul\":5017:5383   */\n    tag_354:\n        /* \"#utility.yul\":5159:5162   */\n      0x00\n        /* \"#utility.yul\":5180:5247   */\n      tag_356\n        /* \"#utility.yul\":5244:5246   */\n      0x23\n        /* \"#utility.yul\":5239:5242   */\n      dup4\n        /* \"#utility.yul\":5180:5247   */\n      tag_338\n      jump\t// in\n    tag_356:\n        /* \"#utility.yul\":5173:5247   */\n      swap2\n      pop\n        /* \"#utility.yul\":5256:5349   */\n      tag_357\n        /* \"#utility.yul\":5345:5348   */\n      dup3\n        /* \"#utility.yul\":5256:5349   */\n      tag_358\n      jump\t// in\n    tag_357:\n        /* \"#utility.yul\":5374:5376   */\n      0x40\n        /* \"#utility.yul\":5369:5372   */\n      dup3\n        /* \"#utility.yul\":5365:5377   */\n      add\n        /* \"#utility.yul\":5358:5377   */\n      swap1\n      pop\n        /* \"#utility.yul\":5017:5383   */\n      swap2\n      swap1\n      pop\n      jump\t// out\n        /* \"#utility.yul\":5389:5755   */\n    tag_359:\n        /* \"#utility.yul\":5531:5534   */\n      0x00\n        /* \"#utility.yul\":5552:5619   */\n      tag_361\n        /* \"#utility.yul\":5616:5618   */\n      0x22\n        /* \"#utility.yul\":5611:5614   */\n      dup4\n        /* \"#utility.yul\":5552:5619   */\n      tag_338\n      jump\t// in\n    tag_361:\n        /* \"#utility.yul\":5545:5619   */\n      swap2\n      pop\n        /* \"#utility.yul\":5628:5721   */\n      tag_362\n        /* \"#utility.yul\":5717:5720   */\n      dup3\n        /* \"#utility.yul\":5628:5721   */\n      tag_363\n      jump\t// in\n    tag_362:\n        /* \"#utility.yul\":5746:5748   */\n      0x40\n        /* \"#utility.yul\":5741:5744   */\n      dup3\n        /* \"#utility.yul\":5737:5749   */\n      add\n        /* \"#utility.yul\":5730:5749   */\n      swap1\n      pop\n        /* \"#utility.yul\":5389:5755   */\n      swap2\n      swap1\n      pop\n      jump\t// out\n        /* \"#utility.yul\":5761:6127   */\n    tag_364:\n        /* \"#utility.yul\":5903:5906   */\n      0x00\n        /* \"#utility.yul\":5924:5991   */\n      tag_366\n        /* \"#utility.yul\":5988:5990   */\n      0x1d\n        /* \"#utility.yul\":5983:5986   */\n      dup4\n        /* \"#utility.yul\":5924:5991   */\n      tag_338\n      jump\t// in\n    tag_366:\n        /* \"#utility.yul\":5917:5991   */\n      swap2\n      pop\n        /* \"#utility.yul\":6000:6093   */\n      tag_367\n        /* \"#utility.yul\":6089:6092   */\n      dup3\n        /* \"#utility.yul\":6000:6093   */\n      tag_368\n      jump\t// in\n    tag_367:\n        /* \"#utility.yul\":6118:6120   */\n      0x20\n        /* \"#utility.yul\":6113:6116   */\n      dup3\n        /* \"#utility.yul\":6109:6121   */\n      add\n        /* \"#utility.yul\":6102:6121   */\n      swap1\n      pop\n        /* \"#utility.yul\":5761:6127   */\n      swap2\n      swap1\n      pop\n      jump\t// out\n        /* \"#utility.yul\":6133:6499   */\n    tag_369:\n        /* \"#utility.yul\":6275:6278   */\n      0x00\n        /* \"#utility.yul\":6296:6363   */\n      tag_371\n        /* \"#utility.yul\":6360:6362   */\n      0x26\n        /* \"#utility.yul\":6355:6358   */\n      dup4\n        /* \"#utility.yul\":6296:6363   */\n      tag_338\n      jump\t// in\n    tag_371:\n        /* \"#utility.yul\":6289:6363   */\n      swap2\n      pop\n        /* \"#utility.yul\":6372:6465   */\n      tag_372\n        /* \"#utility.yul\":6461:6464   */\n      dup3\n        /* \"#utility.yul\":6372:6465   */\n      tag_373\n      jump\t// in\n    tag_372:\n        /* \"#utility.yul\":6490:6492   */\n      0x40\n        /* \"#utility.yul\":6485:6488   */\n      dup3\n        /* \"#utility.yul\":6481:6493   */\n      add\n        /* \"#utility.yul\":6474:6493   */\n      swap1\n      pop\n        /* \"#utility.yul\":6133:6499   */\n      swap2\n      swap1\n      pop\n      jump\t// out\n        /* \"#utility.yul\":6505:6871   */\n    tag_374:\n        /* \"#utility.yul\":6647:6650   */\n      0x00\n        /* \"#utility.yul\":6668:6735   */\n      tag_376\n        /* \"#utility.yul\":6732:6734   */\n      0x25\n        /* \"#utility.yul\":6727:6730   */\n      dup4\n        /* \"#utility.yul\":6668:6735   */\n      tag_338\n      jump\t// in\n    tag_376:\n        /* \"#utility.yul\":6661:6735   */\n      swap2\n      pop\n        /* \"#utility.yul\":6744:6837   */\n      tag_377\n        /* \"#utility.yul\":6833:6836   */\n      dup3\n        /* \"#utility.yul\":6744:6837   */\n      tag_378\n      jump\t// in\n    tag_377:\n        /* \"#utility.yul\":6862:6864   */\n      0x40\n        /* \"#utility.yul\":6857:6860   */\n      dup3\n        /* \"#utility.yul\":6853:6865   */\n      add\n        /* \"#utility.yul\":6846:6865   */\n      swap1\n      pop\n        /* \"#utility.yul\":6505:6871   */\n      swap2\n      swap1\n      pop\n      jump\t// out\n        /* \"#utility.yul\":6877:7243   */\n    tag_379:\n        /* \"#utility.yul\":7019:7022   */\n      0x00\n        /* \"#utility.yul\":7040:7107   */\n      tag_381\n        /* \"#utility.yul\":7104:7106   */\n      0x24\n        /* \"#utility.yul\":7099:7102   */\n      dup4\n        /* \"#utility.yul\":7040:7107   */\n      tag_338\n      jump\t// in\n    tag_381:\n        /* \"#utility.yul\":7033:7107   */\n      swap2\n      pop\n        /* \"#utility.yul\":7116:7209   */\n      tag_382\n        /* \"#utility.yul\":7205:7208   */\n      dup3\n        /* \"#utility.yul\":7116:7209   */\n      tag_383\n      jump\t// in\n    tag_382:\n        /* \"#utility.yul\":7234:7236   */\n      0x40\n        /* \"#utility.yul\":7229:7232   */\n      dup3\n        /* \"#utility.yul\":7225:7237   */\n      add\n        /* \"#utility.yul\":7218:7237   */\n      swap1\n      pop\n        /* \"#utility.yul\":6877:7243   */\n      swap2\n      swap1\n      pop\n      jump\t// out\n        /* \"#utility.yul\":7249:7651   */\n    tag_384:\n        /* \"#utility.yul\":7409:7412   */\n      0x00\n        /* \"#utility.yul\":7430:7515   */\n      tag_386\n        /* \"#utility.yul\":7512:7514   */\n      0x17\n        /* \"#utility.yul\":7507:7510   */\n      dup4\n        /* \"#utility.yul\":7430:7515   */\n      tag_347\n      jump\t// in\n    tag_386:\n        /* \"#utility.yul\":7423:7515   */\n      swap2\n      pop\n        /* \"#utility.yul\":7524:7617   */\n      tag_387\n        /* \"#utility.yul\":7613:7616   */\n      dup3\n        /* \"#utility.yul\":7524:7617   */\n      tag_388\n      jump\t// in\n    tag_387:\n        /* \"#utility.yul\":7642:7644   */\n      0x17\n        /* \"#utility.yul\":7637:7640   */\n      dup3\n        /* \"#utility.yul\":7633:7645   */\n      add\n        /* \"#utility.yul\":7626:7645   */\n      swap1\n      pop\n        /* \"#utility.yul\":7249:7651   */\n      swap2\n      swap1\n      pop\n      jump\t// out\n        /* \"#utility.yul\":7657:8023   */\n    tag_389:\n        /* \"#utility.yul\":7799:7802   */\n      0x00\n        /* \"#utility.yul\":7820:7887   */\n      tag_391\n        /* \"#utility.yul\":7884:7886   */\n      0x25\n        /* \"#utility.yul\":7879:7882   */\n      dup4\n        /* \"#utility.yul\":7820:7887   */\n      tag_338\n      jump\t// in\n    tag_391:\n        /* \"#utility.yul\":7813:7887   */\n      swap2\n      pop\n        /* \"#utility.yul\":7896:7989   */\n      tag_392\n        /* \"#utility.yul\":7985:7988   */\n      dup3\n        /* \"#utility.yul\":7896:7989   */\n      tag_393\n      jump\t// in\n    tag_392:\n        /* \"#utility.yul\":8014:8016   */\n      0x40\n        /* \"#utility.yul\":8009:8012   */\n      dup3\n        /* \"#utility.yul\":8005:8017   */\n      add\n        /* \"#utility.yul\":7998:8017   */\n      swap1\n      pop\n        /* \"#utility.yul\":7657:8023   */\n      swap2\n      swap1\n      pop\n      jump\t// out\n        /* \"#utility.yul\":8029:8431   */\n    tag_394:\n        /* \"#utility.yul\":8189:8192   */\n      0x00\n        /* \"#utility.yul\":8210:8295   */\n      tag_396\n        /* \"#utility.yul\":8292:8294   */\n      0x11\n        /* \"#utility.yul\":8287:8290   */\n      dup4\n        /* \"#utility.yul\":8210:8295   */\n      tag_347\n      jump\t// in\n    tag_396:\n        /* \"#utility.yul\":8203:8295   */\n      swap2\n      pop\n        /* \"#utility.yul\":8304:8397   */\n      tag_397\n        /* \"#utility.yul\":8393:8396   */\n      dup3\n        /* \"#utility.yul\":8304:8397   */\n      tag_398\n      jump\t// in\n    tag_397:\n        /* \"#utility.yul\":8422:8424   */\n      0x11\n        /* \"#utility.yul\":8417:8420   */\n      dup3\n        /* \"#utility.yul\":8413:8425   */\n      add\n        /* \"#utility.yul\":8406:8425   */\n      swap1\n      pop\n        /* \"#utility.yul\":8029:8431   */\n      swap2\n      swap1\n      pop\n      jump\t// out\n        /* \"#utility.yul\":8437:8803   */\n    tag_399:\n        /* \"#utility.yul\":8579:8582   */\n      0x00\n        /* \"#utility.yul\":8600:8667   */\n      tag_401\n        /* \"#utility.yul\":8664:8666   */\n      0x2f\n        /* \"#utility.yul\":8659:8662   */\n      dup4\n        /* \"#utility.yul\":8600:8667   */\n      tag_338\n      jump\t// in\n    tag_401:\n        /* \"#utility.yul\":8593:8667   */\n      swap2\n      pop\n        /* \"#utility.yul\":8676:8769   */\n      tag_402\n        /* \"#utility.yul\":8765:8768   */\n      dup3\n        /* \"#utility.yul\":8676:8769   */\n      tag_403\n      jump\t// in\n    tag_402:\n        /* \"#utility.yul\":8794:8796   */\n      0x40\n        /* \"#utility.yul\":8789:8792   */\n      dup3\n        /* \"#utility.yul\":8785:8797   */\n      add\n        /* \"#utility.yul\":8778:8797   */\n      swap1\n      pop\n        /* \"#utility.yul\":8437:8803   */\n      swap2\n      swap1\n      pop\n      jump\t// out\n        /* \"#utility.yul\":8809:9175   */\n    tag_404:\n        /* \"#utility.yul\":8951:8954   */\n      0x00\n        /* \"#utility.yul\":8972:9039   */\n      tag_406\n        /* \"#utility.yul\":9036:9038   */\n      0x1f\n        /* \"#utility.yul\":9031:9034   */\n      dup4\n        /* \"#utility.yul\":8972:9039   */\n      tag_338\n      jump\t// in\n    tag_406:\n        /* \"#utility.yul\":8965:9039   */\n      swap2\n      pop\n        /* \"#utility.yul\":9048:9141   */\n      tag_407\n        /* \"#utility.yul\":9137:9140   */\n      dup3\n        /* \"#utility.yul\":9048:9141   */\n      tag_408\n      jump\t// in\n    tag_407:\n        /* \"#utility.yul\":9166:9168   */\n      0x20\n        /* \"#utility.yul\":9161:9164   */\n      dup3\n        /* \"#utility.yul\":9157:9169   */\n      add\n        /* \"#utility.yul\":9150:9169   */\n      swap1\n      pop\n        /* \"#utility.yul\":8809:9175   */\n      swap2\n      swap1\n      pop\n      jump\t// out\n        /* \"#utility.yul\":9181:9299   */\n    tag_409:\n        /* \"#utility.yul\":9268:9292   */\n      tag_411\n        /* \"#utility.yul\":9286:9291   */\n      dup2\n        /* \"#utility.yul\":9268:9292   */\n      tag_412\n      jump\t// in\n    tag_411:\n        /* \"#utility.yul\":9263:9266   */\n      dup3\n        /* \"#utility.yul\":9256:9293   */\n      mstore\n        /* \"#utility.yul\":9181:9299   */\n      pop\n      pop\n      jump\t// out\n        /* \"#utility.yul\":9305:9417   */\n    tag_413:\n        /* \"#utility.yul\":9388:9410   */\n      tag_415\n        /* \"#utility.yul\":9404:9409   */\n      dup2\n        /* \"#utility.yul\":9388:9410   */\n      tag_416\n      jump\t// in\n    tag_415:\n        /* \"#utility.yul\":9383:9386   */\n      dup3\n        /* \"#utility.yul\":9376:9411   */\n      mstore\n        /* \"#utility.yul\":9305:9417   */\n      pop\n      pop\n      jump\t// out\n        /* \"#utility.yul\":9423:10390   */\n    tag_245:\n        /* \"#utility.yul\":9805:9808   */\n      0x00\n        /* \"#utility.yul\":9827:9975   */\n      tag_418\n        /* \"#utility.yul\":9971:9974   */\n      dup3\n        /* \"#utility.yul\":9827:9975   */\n      tag_384\n      jump\t// in\n    tag_418:\n        /* \"#utility.yul\":9820:9975   */\n      swap2\n      pop\n        /* \"#utility.yul\":9992:10087   */\n      tag_419\n        /* \"#utility.yul\":10083:10086   */\n      dup3\n        /* \"#utility.yul\":10074:10080   */\n      dup6\n        /* \"#utility.yul\":9992:10087   */\n      tag_343\n      jump\t// in\n    tag_419:\n        /* \"#utility.yul\":9985:10087   */\n      swap2\n      pop\n        /* \"#utility.yul\":10104:10252   */\n      tag_420\n        /* \"#utility.yul\":10248:10251   */\n      dup3\n        /* \"#utility.yul\":10104:10252   */\n      tag_394\n      jump\t// in\n    tag_420:\n        /* \"#utility.yul\":10097:10252   */\n      swap2\n      pop\n        /* \"#utility.yul\":10269:10364   */\n      tag_421\n        /* \"#utility.yul\":10360:10363   */\n      dup3\n        /* \"#utility.yul\":10351:10357   */\n      dup5\n        /* \"#utility.yul\":10269:10364   */\n      tag_343\n      jump\t// in\n    tag_421:\n        /* \"#utility.yul\":10262:10364   */\n      swap2\n      pop\n        /* \"#utility.yul\":10381:10384   */\n      dup2\n        /* \"#utility.yul\":10374:10384   */\n      swap1\n      pop\n        /* \"#utility.yul\":9423:10390   */\n      swap4\n      swap3\n      pop\n      pop\n      pop\n      jump\t// out\n        /* \"#utility.yul\":10396:10606   */\n    tag_31:\n        /* \"#utility.yul\":10483:10487   */\n      0x00\n        /* \"#utility.yul\":10521:10523   */\n      0x20\n        /* \"#utility.yul\":10510:10519   */\n      dup3\n        /* \"#utility.yul\":10506:10524   */\n      add\n        /* \"#utility.yul\":10498:10524   */\n      swap1\n      pop\n        /* \"#utility.yul\":10534:10599   */\n      tag_423\n        /* \"#utility.yul\":10596:10597   */\n      0x00\n        /* \"#utility.yul\":10585:10594   */\n      dup4\n        /* \"#utility.yul\":10581:10598   */\n      add\n        /* \"#utility.yul\":10572:10578   */\n      dup5\n        /* \"#utility.yul\":10534:10599   */\n      tag_325\n      jump\t// in\n    tag_423:\n        /* \"#utility.yul\":10396:10606   */\n      swap3\n      swap2\n      pop\n      pop\n      jump\t// out\n        /* \"#utility.yul\":10612:10834   */\n    tag_55:\n        /* \"#utility.yul\":10705:10709   */\n      0x00\n        /* \"#utility.yul\":10743:10745   */\n      0x20\n        /* \"#utility.yul\":10732:10741   */\n      dup3\n        /* \"#utility.yul\":10728:10746   */\n      add\n        /* \"#utility.yul\":10720:10746   */\n      swap1\n      pop\n        /* \"#utility.yul\":10756:10827   */\n      tag_425\n        /* \"#utility.yul\":10824:10825   */\n      0x00\n        /* \"#utility.yul\":10813:10822   */\n      dup4\n        /* \"#utility.yul\":10809:10826   */\n      add\n        /* \"#utility.yul\":10800:10806   */\n      dup5\n        /* \"#utility.yul\":10756:10827   */\n      tag_329\n      jump\t// in\n    tag_425:\n        /* \"#utility.yul\":10612:10834   */\n      swap3\n      swap2\n      pop\n      pop\n      jump\t// out\n        /* \"#utility.yul\":10840:11153   */\n    tag_35:\n        /* \"#utility.yul\":10953:10957   */\n      0x00\n        /* \"#utility.yul\":10991:10993   */\n      0x20\n        /* \"#utility.yul\":10980:10989   */\n      dup3\n        /* \"#utility.yul\":10976:10994   */\n      add\n        /* \"#utility.yul\":10968:10994   */\n      swap1\n      pop\n        /* \"#utility.yul\":11040:11049   */\n      dup2\n        /* \"#utility.yul\":11034:11038   */\n      dup2\n        /* \"#utility.yul\":11030:11050   */\n      sub\n        /* \"#utility.yul\":11026:11027   */\n      0x00\n        /* \"#utility.yul\":11015:11024   */\n      dup4\n        /* \"#utility.yul\":11011:11028   */\n      add\n        /* \"#utility.yul\":11004:11051   */\n      mstore\n        /* \"#utility.yul\":11068:11146   */\n      tag_427\n        /* \"#utility.yul\":11141:11145   */\n      dup2\n        /* \"#utility.yul\":11132:11138   */\n      dup5\n        /* \"#utility.yul\":11068:11146   */\n      tag_333\n      jump\t// in\n    tag_427:\n        /* \"#utility.yul\":11060:11146   */\n      swap1\n      pop\n        /* \"#utility.yul\":10840:11153   */\n      swap3\n      swap2\n      pop\n      pop\n      jump\t// out\n        /* \"#utility.yul\":11159:11578   */\n    tag_273:\n        /* \"#utility.yul\":11325:11329   */\n      0x00\n        /* \"#utility.yul\":11363:11365   */\n      0x20\n        /* \"#utility.yul\":11352:11361   */\n      dup3\n        /* \"#utility.yul\":11348:11366   */\n      add\n        /* \"#utility.yul\":11340:11366   */\n      swap1\n      pop\n        /* \"#utility.yul\":11412:11421   */\n      dup2\n        /* \"#utility.yul\":11406:11410   */\n      dup2\n        /* \"#utility.yul\":11402:11422   */\n      sub\n        /* \"#utility.yul\":11398:11399   */\n      0x00\n        /* \"#utility.yul\":11387:11396   */\n      dup4\n        /* \"#utility.yul\":11383:11400   */\n      add\n        /* \"#utility.yul\":11376:11423   */\n      mstore\n        /* \"#utility.yul\":11440:11571   */\n      tag_429\n        /* \"#utility.yul\":11566:11570   */\n      dup2\n        /* \"#utility.yul\":11440:11571   */\n      tag_349\n      jump\t// in\n    tag_429:\n        /* \"#utility.yul\":11432:11571   */\n      swap1\n      pop\n        /* \"#utility.yul\":11159:11578   */\n      swap2\n      swap1\n      pop\n      jump\t// out\n        /* \"#utility.yul\":11584:12003   */\n    tag_205:\n        /* \"#utility.yul\":11750:11754   */\n      0x00\n        /* \"#utility.yul\":11788:11790   */\n      0x20\n        /* \"#utility.yul\":11777:11786   */\n      dup3\n        /* \"#utility.yul\":11773:11791   */\n      add\n        /* \"#utility.yul\":11765:11791   */\n      swap1\n      pop\n        /* \"#utility.yul\":11837:11846   */\n      dup2\n        /* \"#utility.yul\":11831:11835   */\n      dup2\n        /* \"#utility.yul\":11827:11847   */\n      sub\n        /* \"#utility.yul\":11823:11824   */\n      0x00\n        /* \"#utility.yul\":11812:11821   */\n      dup4\n        /* \"#utility.yul\":11808:11825   */\n      add\n        /* \"#utility.yul\":11801:11848   */\n      mstore\n        /* \"#utility.yul\":11865:11996   */\n      tag_431\n        /* \"#utility.yul\":11991:11995   */\n      dup2\n        /* \"#utility.yul\":11865:11996   */\n      tag_354\n      jump\t// in\n    tag_431:\n        /* \"#utility.yul\":11857:11996   */\n      swap1\n      pop\n        /* \"#utility.yul\":11584:12003   */\n      swap2\n      swap1\n      pop\n      jump\t// out\n        /* \"#utility.yul\":12009:12428   */\n    tag_190:\n        /* \"#utility.yul\":12175:12179   */\n      0x00\n        /* \"#utility.yul\":12213:12215   */\n      0x20\n        /* \"#utility.yul\":12202:12211   */\n      dup3\n        /* \"#utility.yul\":12198:12216   */\n      add\n        /* \"#utility.yul\":12190:12216   */\n      swap1\n      pop\n        /* \"#utility.yul\":12262:12271   */\n      dup2\n        /* \"#utility.yul\":12256:12260   */\n      dup2\n        /* \"#utility.yul\":12252:12272   */\n      sub\n        /* \"#utility.yul\":12248:12249   */\n      0x00\n        /* \"#utility.yul\":12237:12246   */\n      dup4\n        /* \"#utility.yul\":12233:12250   */\n      add\n        /* \"#utility.yul\":12226:12273   */\n      mstore\n        /* \"#utility.yul\":12290:12421   */\n      tag_433\n        /* \"#utility.yul\":12416:12420   */\n      dup2\n        /* \"#utility.yul\":12290:12421   */\n      tag_359\n      jump\t// in\n    tag_433:\n        /* \"#utility.yul\":12282:12421   */\n      swap1\n      pop\n        /* \"#utility.yul\":12009:12428   */\n      swap2\n      swap1\n      pop\n      jump\t// out\n        /* \"#utility.yul\":12434:12853   */\n    tag_197:\n        /* \"#utility.yul\":12600:12604   */\n      0x00\n        /* \"#utility.yul\":12638:12640   */\n      0x20\n        /* \"#utility.yul\":12627:12636   */\n      dup3\n        /* \"#utility.yul\":12623:12641   */\n      add\n        /* \"#utility.yul\":12615:12641   */\n      swap1\n      pop\n        /* \"#utility.yul\":12687:12696   */\n      dup2\n        /* \"#utility.yul\":12681:12685   */\n      dup2\n        /* \"#utility.yul\":12677:12697   */\n      sub\n        /* \"#utility.yul\":12673:12674   */\n      0x00\n        /* \"#utility.yul\":12662:12671   */\n      dup4\n        /* \"#utility.yul\":12658:12675   */\n      add\n        /* \"#utility.yul\":12651:12698   */\n      mstore\n        /* \"#utility.yul\":12715:12846   */\n      tag_435\n        /* \"#utility.yul\":12841:12845   */\n      dup2\n        /* \"#utility.yul\":12715:12846   */\n      tag_364\n      jump\t// in\n    tag_435:\n        /* \"#utility.yul\":12707:12846   */\n      swap1\n      pop\n        /* \"#utility.yul\":12434:12853   */\n      swap2\n      swap1\n      pop\n      jump\t// out\n        /* \"#utility.yul\":12859:13278   */\n    tag_210:\n        /* \"#utility.yul\":13025:13029   */\n      0x00\n        /* \"#utility.yul\":13063:13065   */\n      0x20\n        /* \"#utility.yul\":13052:13061   */\n      dup3\n        /* \"#utility.yul\":13048:13066   */\n      add\n        /* \"#utility.yul\":13040:13066   */\n      swap1\n      pop\n        /* \"#utility.yul\":13112:13121   */\n      dup2\n        /* \"#utility.yul\":13106:13110   */\n      dup2\n        /* \"#utility.yul\":13102:13122   */\n      sub\n        /* \"#utility.yul\":13098:13099   */\n      0x00\n        /* \"#utility.yul\":13087:13096   */\n      dup4\n        /* \"#utility.yul\":13083:13100   */\n      add\n        /* \"#utility.yul\":13076:13123   */\n      mstore\n        /* \"#utility.yul\":13140:13271   */\n      tag_437\n        /* \"#utility.yul\":13266:13270   */\n      dup2\n        /* \"#utility.yul\":13140:13271   */\n      tag_369\n      jump\t// in\n    tag_437:\n        /* \"#utility.yul\":13132:13271   */\n      swap1\n      pop\n        /* \"#utility.yul\":12859:13278   */\n      swap2\n      swap1\n      pop\n      jump\t// out\n        /* \"#utility.yul\":13284:13703   */\n    tag_202:\n        /* \"#utility.yul\":13450:13454   */\n      0x00\n        /* \"#utility.yul\":13488:13490   */\n      0x20\n        /* \"#utility.yul\":13477:13486   */\n      dup3\n        /* \"#utility.yul\":13473:13491   */\n      add\n        /* \"#utility.yul\":13465:13491   */\n      swap1\n      pop\n        /* \"#utility.yul\":13537:13546   */\n      dup2\n        /* \"#utility.yul\":13531:13535   */\n      dup2\n        /* \"#utility.yul\":13527:13547   */\n      sub\n        /* \"#utility.yul\":13523:13524   */\n      0x00\n        /* \"#utility.yul\":13512:13521   */\n      dup4\n        /* \"#utility.yul\":13508:13525   */\n      add\n        /* \"#utility.yul\":13501:13548   */\n      mstore\n        /* \"#utility.yul\":13565:13696   */\n      tag_439\n        /* \"#utility.yul\":13691:13695   */\n      dup2\n        /* \"#utility.yul\":13565:13696   */\n      tag_374\n      jump\t// in\n    tag_439:\n        /* \"#utility.yul\":13557:13696   */\n      swap1\n      pop\n        /* \"#utility.yul\":13284:13703   */\n      swap2\n      swap1\n      pop\n      jump\t// out\n        /* \"#utility.yul\":13709:14128   */\n    tag_187:\n        /* \"#utility.yul\":13875:13879   */\n      0x00\n        /* \"#utility.yul\":13913:13915   */\n      0x20\n        /* \"#utility.yul\":13902:13911   */\n      dup3\n        /* \"#utility.yul\":13898:13916   */\n      add\n        /* \"#utility.yul\":13890:13916   */\n      swap1\n      pop\n        /* \"#utility.yul\":13962:13971   */\n      dup2\n        /* \"#utility.yul\":13956:13960   */\n      dup2\n        /* \"#utility.yul\":13952:13972   */\n      sub\n        /* \"#utility.yul\":13948:13949   */\n      0x00\n        /* \"#utility.yul\":13937:13946   */\n      dup4\n        /* \"#utility.yul\":13933:13950   */\n      add\n        /* \"#utility.yul\":13926:13973   */\n      mstore\n        /* \"#utility.yul\":13990:14121   */\n      tag_441\n        /* \"#utility.yul\":14116:14120   */\n      dup2\n        /* \"#utility.yul\":13990:14121   */\n      tag_379\n      jump\t// in\n    tag_441:\n        /* \"#utility.yul\":13982:14121   */\n      swap1\n      pop\n        /* \"#utility.yul\":13709:14128   */\n      swap2\n      swap1\n      pop\n      jump\t// out\n        /* \"#utility.yul\":14134:14553   */\n    tag_171:\n        /* \"#utility.yul\":14300:14304   */\n      0x00\n        /* \"#utility.yul\":14338:14340   */\n      0x20\n        /* \"#utility.yul\":14327:14336   */\n      dup3\n        /* \"#utility.yul\":14323:14341   */\n      add\n        /* \"#utility.yul\":14315:14341   */\n      swap1\n      pop\n        /* \"#utility.yul\":14387:14396   */\n      dup2\n        /* \"#utility.yul\":14381:14385   */\n      dup2\n        /* \"#utility.yul\":14377:14397   */\n      sub\n        /* \"#utility.yul\":14373:14374   */\n      0x00\n        /* \"#utility.yul\":14362:14371   */\n      dup4\n        /* \"#utility.yul\":14358:14375   */\n      add\n        /* \"#utility.yul\":14351:14398   */\n      mstore\n        /* \"#utility.yul\":14415:14546   */\n      tag_443\n        /* \"#utility.yul\":14541:14545   */\n      dup2\n        /* \"#utility.yul\":14415:14546   */\n      tag_389\n      jump\t// in\n    tag_443:\n        /* \"#utility.yul\":14407:14546   */\n      swap1\n      pop\n        /* \"#utility.yul\":14134:14553   */\n      swap2\n      swap1\n      pop\n      jump\t// out\n        /* \"#utility.yul\":14559:14978   */\n    tag_144:\n        /* \"#utility.yul\":14725:14729   */\n      0x00\n        /* \"#utility.yul\":14763:14765   */\n      0x20\n        /* \"#utility.yul\":14752:14761   */\n      dup3\n        /* \"#utility.yul\":14748:14766   */\n      add\n        /* \"#utility.yul\":14740:14766   */\n      swap1\n      pop\n        /* \"#utility.yul\":14812:14821   */\n      dup2\n        /* \"#utility.yul\":14806:14810   */\n      dup2\n        /* \"#utility.yul\":14802:14822   */\n      sub\n        /* \"#utility.yul\":14798:14799   */\n      0x00\n        /* \"#utility.yul\":14787:14796   */\n      dup4\n        /* \"#utility.yul\":14783:14800   */\n      add\n        /* \"#utility.yul\":14776:14823   */\n      mstore\n        /* \"#utility.yul\":14840:14971   */\n      tag_445\n        /* \"#utility.yul\":14966:14970   */\n      dup2\n        /* \"#utility.yul\":14840:14971   */\n      tag_399\n      jump\t// in\n    tag_445:\n        /* \"#utility.yul\":14832:14971   */\n      swap1\n      pop\n        /* \"#utility.yul\":14559:14978   */\n      swap2\n      swap1\n      pop\n      jump\t// out\n        /* \"#utility.yul\":14984:15403   */\n    tag_230:\n        /* \"#utility.yul\":15150:15154   */\n      0x00\n        /* \"#utility.yul\":15188:15190   */\n      0x20\n        /* \"#utility.yul\":15177:15186   */\n      dup3\n        /* \"#utility.yul\":15173:15191   */\n      add\n        /* \"#utility.yul\":15165:15191   */\n      swap1\n      pop\n        /* \"#utility.yul\":15237:15246   */\n      dup2\n        /* \"#utility.yul\":15231:15235   */\n      dup2\n        /* \"#utility.yul\":15227:15247   */\n      sub\n        /* \"#utility.yul\":15223:15224   */\n      0x00\n        /* \"#utility.yul\":15212:15221   */\n      dup4\n        /* \"#utility.yul\":15208:15225   */\n      add\n        /* \"#utility.yul\":15201:15248   */\n      mstore\n        /* \"#utility.yul\":15265:15396   */\n      tag_447\n        /* \"#utility.yul\":15391:15395   */\n      dup2\n        /* \"#utility.yul\":15265:15396   */\n      tag_404\n      jump\t// in\n    tag_447:\n        /* \"#utility.yul\":15257:15396   */\n      swap1\n      pop\n        /* \"#utility.yul\":14984:15403   */\n      swap2\n      swap1\n      pop\n      jump\t// out\n        /* \"#utility.yul\":15409:15631   */\n    tag_44:\n        /* \"#utility.yul\":15502:15506   */\n      0x00\n        /* \"#utility.yul\":15540:15542   */\n      0x20\n        /* \"#utility.yul\":15529:15538   */\n      dup3\n        /* \"#utility.yul\":15525:15543   */\n      add\n        /* \"#utility.yul\":15517:15543   */\n      swap1\n      pop\n        /* \"#utility.yul\":15553:15624   */\n      tag_449\n        /* \"#utility.yul\":15621:15622   */\n      0x00\n        /* \"#utility.yul\":15610:15619   */\n      dup4\n        /* \"#utility.yul\":15606:15623   */\n      add\n        /* \"#utility.yul\":15597:15603   */\n      dup5\n        /* \"#utility.yul\":15553:15624   */\n      tag_409\n      jump\t// in\n    tag_449:\n        /* \"#utility.yul\":15409:15631   */\n      swap3\n      swap2\n      pop\n      pop\n      jump\t// out\n        /* \"#utility.yul\":15637:15851   */\n    tag_63:\n        /* \"#utility.yul\":15726:15730   */\n      0x00\n        /* \"#utility.yul\":15764:15766   */\n      0x20\n        /* \"#utility.yul\":15753:15762   */\n      dup3\n        /* \"#utility.yul\":15749:15767   */\n      add\n        /* \"#utility.yul\":15741:15767   */\n      swap1\n      pop\n        /* \"#utility.yul\":15777:15844   */\n      tag_451\n        /* \"#utility.yul\":15841:15842   */\n      0x00\n        /* \"#utility.yul\":15830:15839   */\n      dup4\n        /* \"#utility.yul\":15826:15843   */\n      add\n        /* \"#utility.yul\":15817:15823   */\n      dup5\n        /* \"#utility.yul\":15777:15844   */\n      tag_413\n      jump\t// in\n    tag_451:\n        /* \"#utility.yul\":15637:15851   */\n      swap3\n      swap2\n      pop\n      pop\n      jump\t// out\n        /* \"#utility.yul\":15938:16037   */\n    tag_336:\n        /* \"#utility.yul\":15990:15996   */\n      0x00\n        /* \"#utility.yul\":16024:16029   */\n      dup2\n        /* \"#utility.yul\":16018:16030   */\n      mload\n        /* \"#utility.yul\":16008:16030   */\n      swap1\n      pop\n        /* \"#utility.yul\":15938:16037   */\n      swap2\n      swap1\n      pop\n      jump\t// out\n        /* \"#utility.yul\":16043:16212   */\n    tag_338:\n        /* \"#utility.yul\":16127:16138   */\n      0x00\n        /* \"#utility.yul\":16161:16167   */\n      dup3\n        /* \"#utility.yul\":16156:16159   */\n      dup3\n        /* \"#utility.yul\":16149:16168   */\n      mstore\n        /* \"#utility.yul\":16201:16205   */\n      0x20\n        /* \"#utility.yul\":16196:16199   */\n      dup3\n        /* \"#utility.yul\":16192:16206   */\n      add\n        /* \"#utility.yul\":16177:16206   */\n      swap1\n      pop\n        /* \"#utility.yul\":16043:16212   */\n      swap3\n      swap2\n      pop\n      pop\n      jump\t// out\n        /* \"#utility.yul\":16218:16366   */\n    tag_347:\n        /* \"#utility.yul\":16320:16331   */\n      0x00\n        /* \"#utility.yul\":16357:16360   */\n      dup2\n        /* \"#utility.yul\":16342:16360   */\n      swap1\n      pop\n        /* \"#utility.yul\":16218:16366   */\n      swap3\n      swap2\n      pop\n      pop\n      jump\t// out\n        /* \"#utility.yul\":16372:16677   */\n    tag_152:\n        /* \"#utility.yul\":16412:16415   */\n      0x00\n        /* \"#utility.yul\":16431:16451   */\n      tag_458\n        /* \"#utility.yul\":16449:16450   */\n      dup3\n        /* \"#utility.yul\":16431:16451   */\n      tag_412\n      jump\t// in\n    tag_458:\n        /* \"#utility.yul\":16426:16451   */\n      swap2\n      pop\n        /* \"#utility.yul\":16465:16485   */\n      tag_459\n        /* \"#utility.yul\":16483:16484   */\n      dup4\n        /* \"#utility.yul\":16465:16485   */\n      tag_412\n      jump\t// in\n    tag_459:\n        /* \"#utility.yul\":16460:16485   */\n      swap3\n      pop\n        /* \"#utility.yul\":16619:16620   */\n      dup3\n        /* \"#utility.yul\":16551:16617   */\n      0xffffffffffffffffffffffffffffffffffffffffffffffffffffffffffffffff\n        /* \"#utility.yul\":16547:16621   */\n      sub\n        /* \"#utility.yul\":16544:16545   */\n      dup3\n        /* \"#utility.yul\":16541:16622   */\n      gt\n        /* \"#utility.yul\":16538:16645   */\n      iszero\n      tag_460\n      jumpi\n        /* \"#utility.yul\":16625:16643   */\n      tag_461\n      tag_462\n      jump\t// in\n    tag_461:\n        /* \"#utility.yul\":16538:16645   */\n    tag_460:\n        /* \"#utility.yul\":16669:16670   */\n      dup3\n        /* \"#utility.yul\":16666:16667   */\n      dup3\n        /* \"#utility.yul\":16662:16671   */\n      add\n        /* \"#utility.yul\":16655:16671   */\n      swap1\n      pop\n        /* \"#utility.yul\":16372:16677   */\n      swap3\n      swap2\n      pop\n      pop\n      jump\t// out\n        /* \"#utility.yul\":16683:17031   */\n    tag_249:\n        /* \"#utility.yul\":16723:16730   */\n      0x00\n        /* \"#utility.yul\":16746:16766   */\n      tag_464\n        /* \"#utility.yul\":16764:16765   */\n      dup3\n        /* \"#utility.yul\":16746:16766   */\n      tag_412\n      jump\t// in\n    tag_464:\n        /* \"#utility.yul\":16741:16766   */\n      swap2\n      pop\n        /* \"#utility.yul\":16780:16800   */\n      tag_465\n        /* \"#utility.yul\":16798:16799   */\n      dup4\n        /* \"#utility.yul\":16780:16800   */\n      tag_412\n      jump\t// in\n    tag_465:\n        /* \"#utility.yul\":16775:16800   */\n      swap3\n      pop\n        /* \"#utility.yul\":16968:16969   */\n      dup2\n        /* \"#utility.yul\":16900:16966   */\n      0xffffffffffffffffffffffffffffffffffffffffffffffffffffffffffffffff\n        /* \"#utility.yul\":16896:16970   */\n      div\n        /* \"#utility.yul\":16893:16894   */\n      dup4\n        /* \"#utility.yul\":16890:16971   */\n      gt\n        /* \"#utility.yul\":16885:16886   */\n      dup3\n        /* \"#utility.yul\":16878:16887   */\n      iszero\n        /* \"#utility.yul\":16871:16888   */\n      iszero\n        /* \"#utility.yul\":16867:16972   */\n      and\n        /* \"#utility.yul\":16864:16995   */\n      iszero\n      tag_466\n      jumpi\n        /* \"#utility.yul\":16975:16993   */\n      tag_467\n      tag_462\n      jump\t// in\n    tag_467:\n        /* \"#utility.yul\":16864:16995   */\n    tag_466:\n        /* \"#utility.yul\":17023:17024   */\n      dup3\n        /* \"#utility.yul\":17020:17021   */\n      dup3\n        /* \"#utility.yul\":17016:17025   */\n      mul\n        /* \"#utility.yul\":17005:17025   */\n      swap1\n      pop\n        /* \"#utility.yul\":16683:17031   */\n      swap3\n      swap2\n      pop\n      pop\n      jump\t// out\n        /* \"#utility.yul\":17037:17133   */\n    tag_468:\n        /* \"#utility.yul\":17074:17081   */\n      0x00\n        /* \"#utility.yul\":17103:17127   */\n      tag_470\n        /* \"#utility.yul\":17121:17126   */\n      dup3\n        /* \"#utility.yul\":17103:17127   */\n      tag_471\n      jump\t// in\n    tag_470:\n        /* \"#utility.yul\":17092:17127   */\n      swap1\n      pop\n        /* \"#utility.yul\":17037:17133   */\n      swap2\n      swap1\n      pop\n      jump\t// out\n        /* \"#utility.yul\":17139:17229   */\n    tag_328:\n        /* \"#utility.yul\":17173:17180   */\n      0x00\n        /* \"#utility.yul\":17216:17221   */\n      dup2\n        /* \"#utility.yul\":17209:17222   */\n      iszero\n        /* \"#utility.yul\":17202:17223   */\n      iszero\n        /* \"#utility.yul\":17191:17223   */\n      swap1\n      pop\n        /* \"#utility.yul\":17139:17229   */\n      swap2\n      swap1\n      pop\n      jump\t// out\n        /* \"#utility.yul\":17235:17312   */\n    tag_332:\n        /* \"#utility.yul\":17272:17279   */\n      0x00\n        /* \"#utility.yul\":17301:17306   */\n      dup2\n        /* \"#utility.yul\":17290:17306   */\n      swap1\n      pop\n        /* \"#utility.yul\":17235:17312   */\n      swap2\n      swap1\n      pop\n      jump\t// out\n        /* \"#utility.yul\":17318:17467   */\n    tag_474:\n        /* \"#utility.yul\":17354:17361   */\n      0x00\n        /* \"#utility.yul\":17394:17460   */\n      0xffffffff00000000000000000000000000000000000000000000000000000000\n        /* \"#utility.yul\":17387:17392   */\n      dup3\n        /* \"#utility.yul\":17383:17461   */\n      and\n        /* \"#utility.yul\":17372:17461   */\n      swap1\n      pop\n        /* \"#utility.yul\":17318:17467   */\n      swap2\n      swap1\n      pop\n      jump\t// out\n        /* \"#utility.yul\":17473:17599   */\n    tag_471:\n        /* \"#utility.yul\":17510:17517   */\n      0x00\n        /* \"#utility.yul\":17550:17592   */\n      0xffffffffffffffffffffffffffffffffffffffff\n        /* \"#utility.yul\":17543:17548   */\n      dup3\n        /* \"#utility.yul\":17539:17593   */\n      and\n        /* \"#utility.yul\":17528:17593   */\n      swap1\n      pop\n        /* \"#utility.yul\":17473:17599   */\n      swap2\n      swap1\n      pop\n      jump\t// out\n        /* \"#utility.yul\":17605:17682   */\n    tag_412:\n        /* \"#utility.yul\":17642:17649   */\n      0x00\n        /* \"#utility.yul\":17671:17676   */\n      dup2\n        /* \"#utility.yul\":17660:17676   */\n      swap1\n      pop\n        /* \"#utility.yul\":17605:17682   */\n      swap2\n      swap1\n      pop\n      jump\t// out\n        /* \"#utility.yul\":17688:17774   */\n    tag_416:\n        /* \"#utility.yul\":17723:17730   */\n      0x00\n        /* \"#utility.yul\":17763:17767   */\n      0xff\n        /* \"#utility.yul\":17756:17761   */\n      dup3\n        /* \"#utility.yul\":17752:17768   */\n      and\n        /* \"#utility.yul\":17741:17768   */\n      swap1\n      pop\n        /* \"#utility.yul\":17688:17774   */\n      swap2\n      swap1\n      pop\n      jump\t// out\n        /* \"#utility.yul\":17780:18087   */\n    tag_340:\n        /* \"#utility.yul\":17848:17849   */\n      0x00\n        /* \"#utility.yul\":17858:17971   */\n    tag_480:\n        /* \"#utility.yul\":17872:17878   */\n      dup4\n        /* \"#utility.yul\":17869:17870   */\n      dup2\n        /* \"#utility.yul\":17866:17879   */\n      lt\n        /* \"#utility.yul\":17858:17971   */\n      iszero\n      tag_482\n      jumpi\n        /* \"#utility.yul\":17957:17958   */\n      dup1\n        /* \"#utility.yul\":17952:17955   */\n      dup3\n        /* \"#utility.yul\":17948:17959   */\n      add\n        /* \"#utility.yul\":17942:17960   */\n      mload\n        /* \"#utility.yul\":17938:17939   */\n      dup2\n        /* \"#utility.yul\":17933:17936   */\n      dup5\n        /* \"#utility.yul\":17929:17940   */\n      add\n        /* \"#utility.yul\":17922:17961   */\n      mstore\n        /* \"#utility.yul\":17894:17896   */\n      0x20\n        /* \"#utility.yul\":17891:17892   */\n      dup2\n        /* \"#utility.yul\":17887:17897   */\n      add\n        /* \"#utility.yul\":17882:17897   */\n      swap1\n      pop\n        /* \"#utility.yul\":17858:17971   */\n      jump(tag_480)\n    tag_482:\n        /* \"#utility.yul\":17989:17995   */\n      dup4\n        /* \"#utility.yul\":17986:17987   */\n      dup2\n        /* \"#utility.yul\":17983:17996   */\n      gt\n        /* \"#utility.yul\":17980:18081   */\n      iszero\n      tag_483\n      jumpi\n        /* \"#utility.yul\":18069:18070   */\n      0x00\n        /* \"#utility.yul\":18060:18066   */\n      dup5\n        /* \"#utility.yul\":18055:18058   */\n      dup5\n        /* \"#utility.yul\":18051:18067   */\n      add\n        /* \"#utility.yul\":18044:18071   */\n      mstore\n        /* \"#utility.yul\":17980:18081   */\n    tag_483:\n        /* \"#utility.yul\":17829:18087   */\n      pop\n        /* \"#utility.yul\":17780:18087   */\n      pop\n      pop\n      pop\n      jump\t// out\n        /* \"#utility.yul\":18093:18264   */\n    tag_270:\n        /* \"#utility.yul\":18132:18135   */\n      0x00\n        /* \"#utility.yul\":18155:18179   */\n      tag_485\n        /* \"#utility.yul\":18173:18178   */\n      dup3\n        /* \"#utility.yul\":18155:18179   */\n      tag_412\n      jump\t// in\n    tag_485:\n        /* \"#utility.yul\":18146:18179   */\n      swap2\n      pop\n        /* \"#utility.yul\":18201:18205   */\n      0x00\n        /* \"#utility.yul\":18194:18199   */\n      dup3\n        /* \"#utility.yul\":18191:18206   */\n      eq\n        /* \"#utility.yul\":18188:18229   */\n      iszero\n      tag_486\n      jumpi\n        /* \"#utility.yul\":18209:18227   */\n      tag_487\n      tag_462\n      jump\t// in\n    tag_487:\n        /* \"#utility.yul\":18188:18229   */\n    tag_486:\n        /* \"#utility.yul\":18256:18257   */\n      0x01\n        /* \"#utility.yul\":18249:18254   */\n      dup3\n        /* \"#utility.yul\":18245:18258   */\n      sub\n        /* \"#utility.yul\":18238:18258   */\n      swap1\n      pop\n        /* \"#utility.yul\":18093:18264   */\n      swap2\n      swap1\n      pop\n      jump\t// out\n        /* \"#utility.yul\":18270:18590   */\n    tag_114:\n        /* \"#utility.yul\":18314:18320   */\n      0x00\n        /* \"#utility.yul\":18351:18352   */\n      0x02\n        /* \"#utility.yul\":18345:18349   */\n      dup3\n        /* \"#utility.yul\":18341:18353   */\n      div\n        /* \"#utility.yul\":18331:18353   */\n      swap1\n      pop\n        /* \"#utility.yul\":18398:18399   */\n      0x01\n        /* \"#utility.yul\":18392:18396   */\n      dup3\n        /* \"#utility.yul\":18388:18400   */\n      and\n        /* \"#utility.yul\":18419:18437   */\n      dup1\n        /* \"#utility.yul\":18409:18490   */\n      tag_489\n      jumpi\n        /* \"#utility.yul\":18475:18479   */\n      0x7f\n        /* \"#utility.yul\":18467:18473   */\n      dup3\n        /* \"#utility.yul\":18463:18480   */\n      and\n        /* \"#utility.yul\":18453:18480   */\n      swap2\n      pop\n        /* \"#utility.yul\":18409:18490   */\n    tag_489:\n        /* \"#utility.yul\":18537:18539   */\n      0x20\n        /* \"#utility.yul\":18529:18535   */\n      dup3\n        /* \"#utility.yul\":18526:18540   */\n      lt\n        /* \"#utility.yul\":18506:18524   */\n      dup2\n        /* \"#utility.yul\":18503:18541   */\n      eq\n        /* \"#utility.yul\":18500:18584   */\n      iszero\n      tag_490\n      jumpi\n        /* \"#utility.yul\":18556:18574   */\n      tag_491\n      tag_492\n      jump\t// in\n    tag_491:\n        /* \"#utility.yul\":18500:18584   */\n    tag_490:\n        /* \"#utility.yul\":18321:18590   */\n      pop\n        /* \"#utility.yul\":18270:18590   */\n      swap2\n      swap1\n      pop\n      jump\t// out\n        /* \"#utility.yul\":18596:18776   */\n    tag_462:\n        /* \"#utility.yul\":18644:18721   */\n      0x4e487b7100000000000000000000000000000000000000000000000000000000\n        /* \"#utility.yul\":18641:18642   */\n      0x00\n        /* \"#utility.yul\":18634:18722   */\n      mstore\n        /* \"#utility.yul\":18741:18745   */\n      0x11\n        /* \"#utility.yul\":18738:18739   */\n      0x04\n        /* \"#utility.yul\":18731:18746   */\n      mstore\n        /* \"#utility.yul\":18765:18769   */\n      0x24\n        /* \"#utility.yul\":18762:18763   */\n      0x00\n        /* \"#utility.yul\":18755:18770   */\n      revert\n        /* \"#utility.yul\":18782:18962   */\n    tag_492:\n        /* \"#utility.yul\":18830:18907   */\n      0x4e487b7100000000000000000000000000000000000000000000000000000000\n        /* \"#utility.yul\":18827:18828   */\n      0x00\n        /* \"#utility.yul\":18820:18908   */\n      mstore\n        /* \"#utility.yul\":18927:18931   */\n      0x22\n        /* \"#utility.yul\":18924:18925   */\n      0x04\n        /* \"#utility.yul\":18917:18932   */\n      mstore\n        /* \"#utility.yul\":18951:18955   */\n      0x24\n        /* \"#utility.yul\":18948:18949   */\n      0x00\n        /* \"#utility.yul\":18941:18956   */\n      revert\n        /* \"#utility.yul\":18968:19148   */\n    tag_257:\n        /* \"#utility.yul\":19016:19093   */\n      0x4e487b7100000000000000000000000000000000000000000000000000000000\n        /* \"#utility.yul\":19013:19014   */\n      0x00\n        /* \"#utility.yul\":19006:19094   */\n      mstore\n        /* \"#utility.yul\":19113:19117   */\n      0x32\n        /* \"#utility.yul\":19110:19111   */\n      0x04\n        /* \"#utility.yul\":19103:19118   */\n      mstore\n        /* \"#utility.yul\":19137:19141   */\n      0x24\n        /* \"#utility.yul\":19134:19135   */\n      0x00\n        /* \"#utility.yul\":19127:19142   */\n      revert\n        /* \"#utility.yul\":19154:19334   */\n    tag_253:\n        /* \"#utility.yul\":19202:19279   */\n      0x4e487b7100000000000000000000000000000000000000000000000000000000\n        /* \"#utility.yul\":19199:19200   */\n      0x00\n        /* \"#utility.yul\":19192:19280   */\n      mstore\n        /* \"#utility.yul\":19299:19303   */\n      0x41\n        /* \"#utility.yul\":19296:19297   */\n      0x04\n        /* \"#utility.yul\":19289:19304   */\n      mstore\n        /* \"#utility.yul\":19323:19327   */\n      0x24\n        /* \"#utility.yul\":19320:19321   */\n      0x00\n        /* \"#utility.yul\":19313:19328   */\n      revert\n        /* \"#utility.yul\":19463:19580   */\n    tag_294:\n        /* \"#utility.yul\":19572:19573   */\n      0x00\n        /* \"#utility.yul\":19569:19570   */\n      dup1\n        /* \"#utility.yul\":19562:19574   */\n      revert\n        /* \"#utility.yul\":19586:19688   */\n    tag_342:\n        /* \"#utility.yul\":19627:19633   */\n      0x00\n        /* \"#utility.yul\":19678:19680   */\n      0x1f\n        /* \"#utility.yul\":19674:19681   */\n      not\n        /* \"#utility.yul\":19669:19671   */\n      0x1f\n        /* \"#utility.yul\":19662:19667   */\n      dup4\n        /* \"#utility.yul\":19658:19672   */\n      add\n        /* \"#utility.yul\":19654:19682   */\n      and\n        /* \"#utility.yul\":19644:19682   */\n      swap1\n      pop\n        /* \"#utility.yul\":19586:19688   */\n      swap2\n      swap1\n      pop\n      jump\t// out\n        /* \"#utility.yul\":19694:19876   */\n    tag_353:\n        /* \"#utility.yul\":19834:19868   */\n      0x537472696e67733a20686578206c656e67746820696e73756666696369656e74\n        /* \"#utility.yul\":19830:19831   */\n      0x00\n        /* \"#utility.yul\":19822:19828   */\n      dup3\n        /* \"#utility.yul\":19818:19832   */\n      add\n        /* \"#utility.yul\":19811:19869   */\n      mstore\n        /* \"#utility.yul\":19694:19876   */\n      pop\n      jump\t// out\n        /* \"#utility.yul\":19882:20104   */\n    tag_358:\n        /* \"#utility.yul\":20022:20056   */\n      0x45524332303a207472616e7366657220746f20746865207a65726f2061646472\n        /* \"#utility.yul\":20018:20019   */\n      0x00\n        /* \"#utility.yul\":20010:20016   */\n      dup3\n        /* \"#utility.yul\":20006:20020   */\n      add\n        /* \"#utility.yul\":19999:20057   */\n      mstore\n        /* \"#utility.yul\":20091:20096   */\n      0x6573730000000000000000000000000000000000000000000000000000000000\n        /* \"#utility.yul\":20086:20088   */\n      0x20\n        /* \"#utility.yul\":20078:20084   */\n      dup3\n        /* \"#utility.yul\":20074:20089   */\n      add\n        /* \"#utility.yul\":20067:20097   */\n      mstore\n        /* \"#utility.yul\":19882:20104   */\n      pop\n      jump\t// out\n        /* \"#utility.yul\":20110:20331   */\n    tag_363:\n        /* \"#utility.yul\":20250:20284   */\n      0x45524332303a20617070726f766520746f20746865207a65726f206164647265\n        /* \"#utility.yul\":20246:20247   */\n      0x00\n        /* \"#utility.yul\":20238:20244   */\n      dup3\n        /* \"#utility.yul\":20234:20248   */\n      add\n        /* \"#utility.yul\":20227:20285   */\n      mstore\n        /* \"#utility.yul\":20319:20323   */\n      0x7373000000000000000000000000000000000000000000000000000000000000\n        /* \"#utility.yul\":20314:20316   */\n      0x20\n        /* \"#utility.yul\":20306:20312   */\n      dup3\n        /* \"#utility.yul\":20302:20317   */\n      add\n        /* \"#utility.yul\":20295:20324   */\n      mstore\n        /* \"#utility.yul\":20110:20331   */\n      pop\n      jump\t// out\n        /* \"#utility.yul\":20337:20516   */\n    tag_368:\n        /* \"#utility.yul\":20477:20508   */\n      0x45524332303a20696e73756666696369656e7420616c6c6f77616e6365000000\n        /* \"#utility.yul\":20473:20474   */\n      0x00\n        /* \"#utility.yul\":20465:20471   */\n      dup3\n        /* \"#utility.yul\":20461:20475   */\n      add\n        /* \"#utility.yul\":20454:20509   */\n      mstore\n        /* \"#utility.yul\":20337:20516   */\n      pop\n      jump\t// out\n        /* \"#utility.yul\":20522:20747   */\n    tag_373:\n        /* \"#utility.yul\":20662:20696   */\n      0x45524332303a207472616e7366657220616d6f756e7420657863656564732062\n        /* \"#utility.yul\":20658:20659   */\n      0x00\n        /* \"#utility.yul\":20650:20656   */\n      dup3\n        /* \"#utility.yul\":20646:20660   */\n      add\n        /* \"#utility.yul\":20639:20697   */\n      mstore\n        /* \"#utility.yul\":20731:20739   */\n      0x616c616e63650000000000000000000000000000000000000000000000000000\n        /* \"#utility.yul\":20726:20728   */\n      0x20\n        /* \"#utility.yul\":20718:20724   */\n      dup3\n        /* \"#utility.yul\":20714:20729   */\n      add\n        /* \"#utility.yul\":20707:20740   */\n      mstore\n        /* \"#utility.yul\":20522:20747   */\n      pop\n      jump\t// out\n        /* \"#utility.yul\":20753:20977   */\n    tag_378:\n        /* \"#utility.yul\":20893:20927   */\n      0x45524332303a207472616e736665722066726f6d20746865207a65726f206164\n        /* \"#utility.yul\":20889:20890   */\n      0x00\n        /* \"#utility.yul\":20881:20887   */\n      dup3\n        /* \"#utility.yul\":20877:20891   */\n      add\n        /* \"#utility.yul\":20870:20928   */\n      mstore\n        /* \"#utility.yul\":20962:20969   */\n      0x6472657373000000000000000000000000000000000000000000000000000000\n        /* \"#utility.yul\":20957:20959   */\n      0x20\n        /* \"#utility.yul\":20949:20955   */\n      dup3\n        /* \"#utility.yul\":20945:20960   */\n      add\n        /* \"#utility.yul\":20938:20970   */\n      mstore\n        /* \"#utility.yul\":20753:20977   */\n      pop\n      jump\t// out\n        /* \"#utility.yul\":20983:21206   */\n    tag_383:\n        /* \"#utility.yul\":21123:21157   */\n      0x45524332303a20617070726f76652066726f6d20746865207a65726f20616464\n        /* \"#utility.yul\":21119:21120   */\n      0x00\n        /* \"#utility.yul\":21111:21117   */\n      dup3\n        /* \"#utility.yul\":21107:21121   */\n      add\n        /* \"#utility.yul\":21100:21158   */\n      mstore\n        /* \"#utility.yul\":21192:21198   */\n      0x7265737300000000000000000000000000000000000000000000000000000000\n        /* \"#utility.yul\":21187:21189   */\n      0x20\n        /* \"#utility.yul\":21179:21185   */\n      dup3\n        /* \"#utility.yul\":21175:21190   */\n      add\n        /* \"#utility.yul\":21168:21199   */\n      mstore\n        /* \"#utility.yul\":20983:21206   */\n      pop\n      jump\t// out\n        /* \"#utility.yul\":21212:21385   */\n    tag_388:\n        /* \"#utility.yul\":21352:21377   */\n      0x416363657373436f6e74726f6c3a206163636f756e7420000000000000000000\n        /* \"#utility.yul\":21348:21349   */\n      0x00\n        /* \"#utility.yul\":21340:21346   */\n      dup3\n        /* \"#utility.yul\":21336:21350   */\n      add\n        /* \"#utility.yul\":21329:21378   */\n      mstore\n        /* \"#utility.yul\":21212:21385   */\n      pop\n      jump\t// out\n        /* \"#utility.yul\":21391:21615   */\n    tag_393:\n        /* \"#utility.yul\":21531:21565   */\n      0x45524332303a2064656372656173656420616c6c6f77616e63652062656c6f77\n        /* \"#utility.yul\":21527:21528   */\n      0x00\n        /* \"#utility.yul\":21519:21525   */\n      dup3\n        /* \"#utility.yul\":21515:21529   */\n      add\n        /* \"#utility.yul\":21508:21566   */\n      mstore\n        /* \"#utility.yul\":21600:21607   */\n      0x207a65726f000000000000000000000000000000000000000000000000000000\n        /* \"#utility.yul\":21595:21597   */\n      0x20\n        /* \"#utility.yul\":21587:21593   */\n      dup3\n        /* \"#utility.yul\":21583:21598   */\n      add\n        /* \"#utility.yul\":21576:21608   */\n      mstore\n        /* \"#utility.yul\":21391:21615   */\n      pop\n      jump\t// out\n        /* \"#utility.yul\":21621:21788   */\n    tag_398:\n        /* \"#utility.yul\":21761:21780   */\n      0x206973206d697373696e6720726f6c6520000000000000000000000000000000\n        /* \"#utility.yul\":21757:21758   */\n      0x00\n        /* \"#utility.yul\":21749:21755   */\n      dup3\n        /* \"#utility.yul\":21745:21759   */\n      add\n        /* \"#utility.yul\":21738:21781   */\n      mstore\n        /* \"#utility.yul\":21621:21788   */\n      pop\n      jump\t// out\n        /* \"#utility.yul\":21794:22028   */\n    tag_403:\n        /* \"#utility.yul\":21934:21968   */\n      0x416363657373436f6e74726f6c3a2063616e206f6e6c792072656e6f756e6365\n        /* \"#utility.yul\":21930:21931   */\n      0x00\n        /* \"#utility.yul\":21922:21928   */\n      dup3\n        /* \"#utility.yul\":21918:21932   */\n      add\n        /* \"#utility.yul\":21911:21969   */\n      mstore\n        /* \"#utility.yul\":22003:22020   */\n      0x20726f6c657320666f722073656c660000000000000000000000000000000000\n        /* \"#utility.yul\":21998:22000   */\n      0x20\n        /* \"#utility.yul\":21990:21996   */\n      dup3\n        /* \"#utility.yul\":21986:22001   */\n      add\n        /* \"#utility.yul\":21979:22021   */\n      mstore\n        /* \"#utility.yul\":21794:22028   */\n      pop\n      jump\t// out\n        /* \"#utility.yul\":22034:22215   */\n    tag_408:\n        /* \"#utility.yul\":22174:22207   */\n      0x45524332303a206d696e7420746f20746865207a65726f206164647265737300\n        /* \"#utility.yul\":22170:22171   */\n      0x00\n        /* \"#utility.yul\":22162:22168   */\n      dup3\n        /* \"#utility.yul\":22158:22172   */\n      add\n        /* \"#utility.yul\":22151:22208   */\n      mstore\n        /* \"#utility.yul\":22034:22215   */\n      pop\n      jump\t// out\n        /* \"#utility.yul\":22221:22343   */\n    tag_278:\n        /* \"#utility.yul\":22294:22318   */\n      tag_514\n        /* \"#utility.yul\":22312:22317   */\n      dup2\n        /* \"#utility.yul\":22294:22318   */\n      tag_468\n      jump\t// in\n    tag_514:\n        /* \"#utility.yul\":22287:22292   */\n      dup2\n        /* \"#utility.yul\":22284:22319   */\n      eq\n        /* \"#utility.yul\":22274:22337   */\n      tag_515\n      jumpi\n        /* \"#utility.yul\":22333:22334   */\n      0x00\n        /* \"#utility.yul\":22330:22331   */\n      dup1\n        /* \"#utility.yul\":22323:22335   */\n      revert\n        /* \"#utility.yul\":22274:22337   */\n    tag_515:\n        /* \"#utility.yul\":22221:22343   */\n      pop\n      jump\t// out\n        /* \"#utility.yul\":22349:22471   */\n    tag_282:\n        /* \"#utility.yul\":22422:22446   */\n      tag_517\n        /* \"#utility.yul\":22440:22445   */\n      dup2\n        /* \"#utility.yul\":22422:22446   */\n      tag_332\n      jump\t// in\n    tag_517:\n        /* \"#utility.yul\":22415:22420   */\n      dup2\n        /* \"#utility.yul\":22412:22447   */\n      eq\n        /* \"#utility.yul\":22402:22465   */\n      tag_518\n      jumpi\n        /* \"#utility.yul\":22461:22462   */\n      0x00\n        /* \"#utility.yul\":22458:22459   */\n      dup1\n        /* \"#utility.yul\":22451:22463   */\n      revert\n        /* \"#utility.yul\":22402:22465   */\n    tag_518:\n        /* \"#utility.yul\":22349:22471   */\n      pop\n      jump\t// out\n        /* \"#utility.yul\":22477:22597   */\n    tag_286:\n        /* \"#utility.yul\":22549:22572   */\n      tag_520\n        /* \"#utility.yul\":22566:22571   */\n      dup2\n        /* \"#utility.yul\":22549:22572   */\n      tag_474\n      jump\t// in\n    tag_520:\n        /* \"#utility.yul\":22542:22547   */\n      dup2\n        /* \"#utility.yul\":22539:22573   */\n      eq\n        /* \"#utility.yul\":22529:22591   */\n      tag_521\n      jumpi\n        /* \"#utility.yul\":22587:22588   */\n      0x00\n        /* \"#utility.yul\":22584:22585   */\n      dup1\n        /* \"#utility.yul\":22577:22589   */\n      revert\n        /* \"#utility.yul\":22529:22591   */\n    tag_521:\n        /* \"#utility.yul\":22477:22597   */\n      pop\n      jump\t// out\n        /* \"#utility.yul\":22603:22725   */\n    tag_290:\n        /* \"#utility.yul\":22676:22700   */\n      tag_523\n        /* \"#utility.yul\":22694:22699   */\n      dup2\n        /* \"#utility.yul\":22676:22700   */\n      tag_412\n      jump\t// in\n    tag_523:\n        /* \"#utility.yul\":22669:22674   */\n      dup2\n        /* \"#utility.yul\":22666:22701   */\n      eq\n        /* \"#utility.yul\":22656:22719   */\n      tag_524\n      jumpi\n        /* \"#utility.yul\":22715:22716   */\n      0x00\n        /* \"#utility.yul\":22712:22713   */\n      dup1\n        /* \"#utility.yul\":22705:22717   */\n      revert\n        /* \"#utility.yul\":22656:22719   */\n    tag_524:\n        /* \"#utility.yul\":22603:22725   */\n      pop\n      jump\t// out\n\n    auxdata: 0xa26469706673582212207f232b7b020fd8cdd796173b0833151ea9cb594786947b92da04533cc4b5033864736f6c63430008070033\n}\n",
				"bytecode": {
					"linkReferences": {},
					"object": "60806040523480156200001157600080fd5b506040518060400160405280600581526020017f526f6c65730000000000000000000000000000000000000000000000000000008152506040518060400160405280600481526020017f524f4c450000000000000000000000000000000000000000000000000000000081525081600390805190602001906200009692919062000430565b508060049080519060200190620000af92919062000430565b505050620000f233620000c76200013f60201b60201c565b600a620000d5919062000620565b6305f5e100620000e691906200075d565b6200014860201b60201c565b620001076000801b33620002c160201b60201c565b620001397f9f2df0fed2c77648de5860a4cc508cd0818c85b8b8a1ab4ceeef8d981c8956a633620002c160201b60201c565b6200089f565b60006012905090565b600073ffffffffffffffffffffffffffffffffffffffff168273ffffffffffffffffffffffffffffffffffffffff161415620001bb576040517f08c379a0000000000000000000000000000000000000000000000000000000008152600401620001b29062000518565b60405180910390fd5b620001cf60008383620003b360201b60201c565b8060026000828254620001e3919062000568565b92505081905550806000808473ffffffffffffffffffffffffffffffffffffffff1673ffffffffffffffffffffffffffffffffffffffff16815260200190815260200160002060008282546200023a919062000568565b925050819055508173ffffffffffffffffffffffffffffffffffffffff16600073ffffffffffffffffffffffffffffffffffffffff167fddf252ad1be2c89b69c2b068fc378daa952ba7f163c4a11628f55a4df523b3ef83604051620002a191906200053a565b60405180910390a3620002bd60008383620003b860201b60201c565b5050565b620002d38282620003bd60201b60201c565b620003af5760016005600084815260200190815260200160002060000160008373ffffffffffffffffffffffffffffffffffffffff1673ffffffffffffffffffffffffffffffffffffffff16815260200190815260200160002060006101000a81548160ff021916908315150217905550620003546200042860201b60201c565b73ffffffffffffffffffffffffffffffffffffffff168173ffffffffffffffffffffffffffffffffffffffff16837f2f8788117e7eff1d82e926ec794901d17c78024a50270940304540a733656f0d60405160405180910390a45b5050565b505050565b505050565b60006005600084815260200190815260200160002060000160008373ffffffffffffffffffffffffffffffffffffffff1673ffffffffffffffffffffffffffffffffffffffff16815260200190815260200160002060009054906101000a900460ff16905092915050565b600033905090565b8280546200043e90620007d5565b90600052602060002090601f016020900481019282620004625760008555620004ae565b82601f106200047d57805160ff1916838001178555620004ae565b82800160010185558215620004ae579182015b82811115620004ad57825182559160200191906001019062000490565b5b509050620004bd9190620004c1565b5090565b5b80821115620004dc576000816000905550600101620004c2565b5090565b6000620004ef601f8362000557565b9150620004fc8262000876565b602082019050919050565b6200051281620007be565b82525050565b600060208201905081810360008301526200053381620004e0565b9050919050565b600060208201905062000551600083018462000507565b92915050565b600082825260208201905092915050565b60006200057582620007be565b91506200058283620007be565b9250827fffffffffffffffffffffffffffffffffffffffffffffffffffffffffffffffff03821115620005ba57620005b96200080b565b5b828201905092915050565b6000808291508390505b60018511156200061757808604811115620005ef57620005ee6200080b565b5b6001851615620005ff5780820291505b80810290506200060f8562000869565b9450620005cf565b94509492505050565b60006200062d82620007be565b91506200063a83620007c8565b9250620006697fffffffffffffffffffffffffffffffffffffffffffffffffffffffffffffffff848462000671565b905092915050565b60008262000683576001905062000756565b8162000693576000905062000756565b8160018114620006ac5760028114620006b757620006ed565b600191505062000756565b60ff841115620006cc57620006cb6200080b565b5b8360020a915084821115620006e657620006e56200080b565b5b5062000756565b5060208310610133831016604e8410600b8410161715620007275782820a9050838111156200072157620007206200080b565b5b62000756565b620007368484846001620005c5565b9250905081840481111562000750576200074f6200080b565b5b81810290505b9392505050565b60006200076a82620007be565b91506200077783620007be565b9250817fffffffffffffffffffffffffffffffffffffffffffffffffffffffffffffffff0483118215151615620007b357620007b26200080b565b5b828202905092915050565b6000819050919050565b600060ff82169050919050565b60006002820490506001821680620007ee57607f821691505b602082108114156200080557620008046200083a565b5b50919050565b7f4e487b7100000000000000000000000000000000000000000000000000000000600052601160045260246000fd5b7f4e487b7100000000000000000000000000000000000000000000000000000000600052602260045260246000fd5b60008160011c9050919050565b7f45524332303a206d696e7420746f20746865207a65726f206164647265737300600082015250565b61217b80620008af6000396000f3fe608060405234801561001057600080fd5b506004361061012c5760003560e01c806340c10f19116100ad578063a457c2d711610071578063a457c2d71461036b578063a9059cbb1461039b578063d5391393146103cb578063d547741f146103e9578063dd62ed3e146104055761012c565b806340c10f19146102b357806370a08231146102cf57806391d14854146102ff57806395d89b411461032f578063a217fddf1461034d5761012c565b8063248a9ca3116100f4578063248a9ca3146101fd5780632f2ff15d1461022d578063313ce5671461024957806336568abe1461026757806339509351146102835761012c565b806301ffc9a71461013157806306fdde0314610161578063095ea7b31461017f57806318160ddd146101af57806323b872dd146101cd575b600080fd5b61014b600480360381019061014691906116b1565b610435565b6040516101589190611962565b60405180910390f35b6101696104af565b6040516101769190611998565b60405180910390f35b61019960048036038101906101949190611604565b610541565b6040516101a69190611962565b60405180910390f35b6101b7610564565b6040516101c49190611afa565b60405180910390f35b6101e760048036038101906101e291906115b1565b61056e565b6040516101f49190611962565b60405180910390f35b61021760048036038101906102129190611644565b61059d565b604051610224919061197d565b60405180910390f35b61024760048036038101906102429190611671565b6105bd565b005b6102516105de565b60405161025e9190611b15565b60405180910390f35b610281600480360381019061027c9190611671565b6105e7565b005b61029d60048036038101906102989190611604565b61066a565b6040516102aa9190611962565b60405180910390f35b6102cd60048036038101906102c89190611604565b6106a1565b005b6102e960048036038101906102e49190611544565b6106da565b6040516102f69190611afa565b60405180910390f35b61031960048036038101906103149190611671565b610722565b6040516103269190611962565b60405180910390f35b61033761078d565b6040516103449190611998565b60405180910390f35b61035561081f565b604051610362919061197d565b60405180910390f35b61038560048036038101906103809190611604565b610826565b6040516103929190611962565b60405180910390f35b6103b560048036038101906103b09190611604565b61089d565b6040516103c29190611962565b60405180910390f35b6103d36108c0565b6040516103e0919061197d565b60405180910390f35b61040360048036038101906103fe9190611671565b6108e4565b005b61041f600480360381019061041a9190611571565b610905565b60405161042c9190611afa565b60405180910390f35b60007f7965db0b000000000000000000000000000000000000000000000000000000007bffffffffffffffffffffffffffffffffffffffffffffffffffffffff1916827bffffffffffffffffffffffffffffffffffffffffffffffffffffffff191614806104a857506104a78261098c565b5b9050919050565b6060600380546104be90611cef565b80601f01602080910402602001604051908101604052809291908181526020018280546104ea90611cef565b80156105375780601f1061050c57610100808354040283529160200191610537565b820191906000526020600020905b81548152906001019060200180831161051a57829003601f168201915b5050505050905090565b60008061054c6109f6565b90506105598185856109fe565b600191505092915050565b6000600254905090565b6000806105796109f6565b9050610586858285610bc9565b610591858585610c55565b60019150509392505050565b600060056000838152602001908152602001600020600101549050919050565b6105c68261059d565b6105cf81610ed6565b6105d98383610eea565b505050565b60006012905090565b6105ef6109f6565b73ffffffffffffffffffffffffffffffffffffffff168173ffffffffffffffffffffffffffffffffffffffff161461065c576040517f08c379a000000000000000000000000000000000000000000000000000000000815260040161065390611aba565b60405180910390fd5b6106668282610fcb565b5050565b6000806106756109f6565b90506106968185856106878589610905565b6106919190611b57565b6109fe565b600191505092915050565b7f9f2df0fed2c77648de5860a4cc508cd0818c85b8b8a1ab4ceeef8d981c8956a66106cb81610ed6565b6106d583836110ad565b505050565b60008060008373ffffffffffffffffffffffffffffffffffffffff1673ffffffffffffffffffffffffffffffffffffffff168152602001908152602001600020549050919050565b60006005600084815260200190815260200160002060000160008373ffffffffffffffffffffffffffffffffffffffff1673ffffffffffffffffffffffffffffffffffffffff16815260200190815260200160002060009054906101000a900460ff16905092915050565b60606004805461079c90611cef565b80601f01602080910402602001604051908101604052809291908181526020018280546107c890611cef565b80156108155780601f106107ea57610100808354040283529160200191610815565b820191906000526020600020905b8154815290600101906020018083116107f857829003601f168201915b5050505050905090565b6000801b81565b6000806108316109f6565b9050600061083f8286610905565b905083811015610884576040517f08c379a000000000000000000000000000000000000000000000000000000000815260040161087b90611a9a565b60405180910390fd5b61089182868684036109fe565b60019250505092915050565b6000806108a86109f6565b90506108b5818585610c55565b600191505092915050565b7f9f2df0fed2c77648de5860a4cc508cd0818c85b8b8a1ab4ceeef8d981c8956a681565b6108ed8261059d565b6108f681610ed6565b6109008383610fcb565b505050565b6000600160008473ffffffffffffffffffffffffffffffffffffffff1673ffffffffffffffffffffffffffffffffffffffff16815260200190815260200160002060008373ffffffffffffffffffffffffffffffffffffffff1673ffffffffffffffffffffffffffffffffffffffff16815260200190815260200160002054905092915050565b60007f01ffc9a7000000000000000000000000000000000000000000000000000000007bffffffffffffffffffffffffffffffffffffffffffffffffffffffff1916827bffffffffffffffffffffffffffffffffffffffffffffffffffffffff1916149050919050565b600033905090565b600073ffffffffffffffffffffffffffffffffffffffff168373ffffffffffffffffffffffffffffffffffffffff161415610a6e576040517f08c379a0000000000000000000000000000000000000000000000000000000008152600401610a6590611a7a565b60405180910390fd5b600073ffffffffffffffffffffffffffffffffffffffff168273ffffffffffffffffffffffffffffffffffffffff161415610ade576040517f08c379a0000000000000000000000000000000000000000000000000000000008152600401610ad5906119fa565b60405180910390fd5b80600160008573ffffffffffffffffffffffffffffffffffffffff1673ffffffffffffffffffffffffffffffffffffffff16815260200190815260200160002060008473ffffffffffffffffffffffffffffffffffffffff1673ffffffffffffffffffffffffffffffffffffffff168152602001908152602001600020819055508173ffffffffffffffffffffffffffffffffffffffff168373ffffffffffffffffffffffffffffffffffffffff167f8c5be1e5ebec7d5bd14f71427d1e84f3dd0314c0f7b2291e5b200ac8c7c3b92583604051610bbc9190611afa565b60405180910390a3505050565b6000610bd58484610905565b90507fffffffffffffffffffffffffffffffffffffffffffffffffffffffffffffffff8114610c4f5781811015610c41576040517f08c379a0000000000000000000000000000000000000000000000000000000008152600401610c3890611a1a565b60405180910390fd5b610c4e84848484036109fe565b5b50505050565b600073ffffffffffffffffffffffffffffffffffffffff168373ffffffffffffffffffffffffffffffffffffffff161415610cc5576040517f08c379a0000000000000000000000000000000000000000000000000000000008152600401610cbc90611a5a565b60405180910390fd5b600073ffffffffffffffffffffffffffffffffffffffff168273ffffffffffffffffffffffffffffffffffffffff161415610d35576040517f08c379a0000000000000000000000000000000000000000000000000000000008152600401610d2c906119da565b60405180910390fd5b610d4083838361120d565b60008060008573ffffffffffffffffffffffffffffffffffffffff1673ffffffffffffffffffffffffffffffffffffffff16815260200190815260200160002054905081811015610dc6576040517f08c379a0000000000000000000000000000000000000000000000000000000008152600401610dbd90611a3a565b60405180910390fd5b8181036000808673ffffffffffffffffffffffffffffffffffffffff1673ffffffffffffffffffffffffffffffffffffffff16815260200190815260200160002081905550816000808573ffffffffffffffffffffffffffffffffffffffff1673ffffffffffffffffffffffffffffffffffffffff1681526020019081526020016000206000828254610e599190611b57565b925050819055508273ffffffffffffffffffffffffffffffffffffffff168473ffffffffffffffffffffffffffffffffffffffff167fddf252ad1be2c89b69c2b068fc378daa952ba7f163c4a11628f55a4df523b3ef84604051610ebd9190611afa565b60405180910390a3610ed0848484611212565b50505050565b610ee781610ee26109f6565b611217565b50565b610ef48282610722565b610fc75760016005600084815260200190815260200160002060000160008373ffffffffffffffffffffffffffffffffffffffff1673ffffffffffffffffffffffffffffffffffffffff16815260200190815260200160002060006101000a81548160ff021916908315150217905550610f6c6109f6565b73ffffffffffffffffffffffffffffffffffffffff168173ffffffffffffffffffffffffffffffffffffffff16837f2f8788117e7eff1d82e926ec794901d17c78024a50270940304540a733656f0d60405160405180910390a45b5050565b610fd58282610722565b156110a95760006005600084815260200190815260200160002060000160008373ffffffffffffffffffffffffffffffffffffffff1673ffffffffffffffffffffffffffffffffffffffff16815260200190815260200160002060006101000a81548160ff02191690831515021790555061104e6109f6565b73ffffffffffffffffffffffffffffffffffffffff168173ffffffffffffffffffffffffffffffffffffffff16837ff6391f5c32d9c69d2a47ea670b442974b53935d1edc7fd64eb21e047a839171b60405160405180910390a45b5050565b600073ffffffffffffffffffffffffffffffffffffffff168273ffffffffffffffffffffffffffffffffffffffff16141561111d576040517f08c379a000000000000000000000000000000000000000000000000000000000815260040161111490611ada565b60405180910390fd5b6111296000838361120d565b806002600082825461113b9190611b57565b92505081905550806000808473ffffffffffffffffffffffffffffffffffffffff1673ffffffffffffffffffffffffffffffffffffffff16815260200190815260200160002060008282546111909190611b57565b925050819055508173ffffffffffffffffffffffffffffffffffffffff16600073ffffffffffffffffffffffffffffffffffffffff167fddf252ad1be2c89b69c2b068fc378daa952ba7f163c4a11628f55a4df523b3ef836040516111f59190611afa565b60405180910390a361120960008383611212565b5050565b505050565b505050565b6112218282610722565b6112b0576112468173ffffffffffffffffffffffffffffffffffffffff1660146112b4565b6112548360001c60206112b4565b604051602001611265929190611928565b6040516020818303038152906040526040517f08c379a00000000000000000000000000000000000000000000000000000000081526004016112a79190611998565b60405180910390fd5b5050565b6060600060028360026112c79190611bad565b6112d19190611b57565b67ffffffffffffffff8111156112ea576112e9611dae565b5b6040519080825280601f01601f19166020018201604052801561131c5781602001600182028036833780820191505090505b5090507f30000000000000000000000000000000000000000000000000000000000000008160008151811061135457611353611d7f565b5b60200101907effffffffffffffffffffffffffffffffffffffffffffffffffffffffffffff1916908160001a9053507f7800000000000000000000000000000000000000000000000000000000000000816001815181106113b8576113b7611d7f565b5b60200101907effffffffffffffffffffffffffffffffffffffffffffffffffffffffffffff1916908160001a905350600060018460026113f89190611bad565b6114029190611b57565b90505b60018111156114a2577f3031323334353637383961626364656600000000000000000000000000000000600f86166010811061144457611443611d7f565b5b1a60f81b82828151811061145b5761145a611d7f565b5b60200101907effffffffffffffffffffffffffffffffffffffffffffffffffffffffffffff1916908160001a905350600485901c94508061149b90611cc5565b9050611405565b50600084146114e6576040517f08c379a00000000000000000000000000000000000000000000000000000000081526004016114dd906119ba565b60405180910390fd5b8091505092915050565b6000813590506114ff816120e9565b92915050565b60008135905061151481612100565b92915050565b60008135905061152981612117565b92915050565b60008135905061153e8161212e565b92915050565b60006020828403121561155a57611559611ddd565b5b6000611568848285016114f0565b91505092915050565b6000806040838503121561158857611587611ddd565b5b6000611596858286016114f0565b92505060206115a7858286016114f0565b9150509250929050565b6000806000606084860312156115ca576115c9611ddd565b5b60006115d8868287016114f0565b93505060206115e9868287016114f0565b92505060406115fa8682870161152f565b9150509250925092565b6000806040838503121561161b5761161a611ddd565b5b6000611629858286016114f0565b925050602061163a8582860161152f565b9150509250929050565b60006020828403121561165a57611659611ddd565b5b600061166884828501611505565b91505092915050565b6000806040838503121561168857611687611ddd565b5b600061169685828601611505565b92505060206116a7858286016114f0565b9150509250929050565b6000602082840312156116c7576116c6611ddd565b5b60006116d58482850161151a565b91505092915050565b6116e781611c19565b82525050565b6116f681611c25565b82525050565b600061170782611b30565b6117118185611b3b565b9350611721818560208601611c92565b61172a81611de2565b840191505092915050565b600061174082611b30565b61174a8185611b4c565b935061175a818560208601611c92565b80840191505092915050565b6000611773602083611b3b565b915061177e82611df3565b602082019050919050565b6000611796602383611b3b565b91506117a182611e1c565b604082019050919050565b60006117b9602283611b3b565b91506117c482611e6b565b604082019050919050565b60006117dc601d83611b3b565b91506117e782611eba565b602082019050919050565b60006117ff602683611b3b565b915061180a82611ee3565b604082019050919050565b6000611822602583611b3b565b915061182d82611f32565b604082019050919050565b6000611845602483611b3b565b915061185082611f81565b604082019050919050565b6000611868601783611b4c565b915061187382611fd0565b601782019050919050565b600061188b602583611b3b565b915061189682611ff9565b604082019050919050565b60006118ae601183611b4c565b91506118b982612048565b601182019050919050565b60006118d1602f83611b3b565b91506118dc82612071565b604082019050919050565b60006118f4601f83611b3b565b91506118ff826120c0565b602082019050919050565b61191381611c7b565b82525050565b61192281611c85565b82525050565b60006119338261185b565b915061193f8285611735565b915061194a826118a1565b91506119568284611735565b91508190509392505050565b600060208201905061197760008301846116de565b92915050565b600060208201905061199260008301846116ed565b92915050565b600060208201905081810360008301526119b281846116fc565b905092915050565b600060208201905081810360008301526119d381611766565b9050919050565b600060208201905081810360008301526119f381611789565b9050919050565b60006020820190508181036000830152611a13816117ac565b9050919050565b60006020820190508181036000830152611a33816117cf565b9050919050565b60006020820190508181036000830152611a53816117f2565b9050919050565b60006020820190508181036000830152611a7381611815565b9050919050565b60006020820190508181036000830152611a9381611838565b9050919050565b60006020820190508181036000830152611ab38161187e565b9050919050565b60006020820190508181036000830152611ad3816118c4565b9050919050565b60006020820190508181036000830152611af3816118e7565b9050919050565b6000602082019050611b0f600083018461190a565b92915050565b6000602082019050611b2a6000830184611919565b92915050565b600081519050919050565b600082825260208201905092915050565b600081905092915050565b6000611b6282611c7b565b9150611b6d83611c7b565b9250827fffffffffffffffffffffffffffffffffffffffffffffffffffffffffffffffff03821115611ba257611ba1611d21565b5b828201905092915050565b6000611bb882611c7b565b9150611bc383611c7b565b9250817fffffffffffffffffffffffffffffffffffffffffffffffffffffffffffffffff0483118215151615611bfc57611bfb611d21565b5b828202905092915050565b6000611c1282611c5b565b9050919050565b60008115159050919050565b6000819050919050565b60007fffffffff0000000000000000000000000000000000000000000000000000000082169050919050565b600073ffffffffffffffffffffffffffffffffffffffff82169050919050565b6000819050919050565b600060ff82169050919050565b60005b83811015611cb0578082015181840152602081019050611c95565b83811115611cbf576000848401525b50505050565b6000611cd082611c7b565b91506000821415611ce457611ce3611d21565b5b600182039050919050565b60006002820490506001821680611d0757607f821691505b60208210811415611d1b57611d1a611d50565b5b50919050565b7f4e487b7100000000000000000000000000000000000000000000000000000000600052601160045260246000fd5b7f4e487b7100000000000000000000000000000000000000000000000000000000600052602260045260246000fd5b7f4e487b7100000000000000000000000000000000000000000000000000000000600052603260045260246000fd5b7f4e487b7100000000000000000000000000000000000000000000000000000000600052604160045260246000fd5b600080fd5b6000601f19601f8301169050919050565b7f537472696e67733a20686578206c656e67746820696e73756666696369656e74600082015250565b7f45524332303a207472616e7366657220746f20746865207a65726f206164647260008201527f6573730000000000000000000000000000000000000000000000000000000000602082015250565b7f45524332303a20617070726f766520746f20746865207a65726f20616464726560008201527f7373000000000000000000000000000000000000000000000000000000000000602082015250565b7f45524332303a20696e73756666696369656e7420616c6c6f77616e6365000000600082015250565b7f45524332303a207472616e7366657220616d6f756e742065786365656473206260008201527f616c616e63650000000000000000000000000000000000000000000000000000602082015250565b7f45524332303a207472616e736665722066726f6d20746865207a65726f20616460008201527f6472657373000000000000000000000000000000000000000000000000000000602082015250565b7f45524332303a20617070726f76652066726f6d20746865207a65726f2061646460008201527f7265737300000000000000000000000000000000000000000000000000000000602082015250565b7f416363657373436f6e74726f6c3a206163636f756e7420000000000000000000600082015250565b7f45524332303a2064656372656173656420616c6c6f77616e63652062656c6f7760008201527f207a65726f000000000000000000000000000000000000000000000000000000602082015250565b7f206973206d697373696e6720726f6c6520000000000000000000000000000000600082015250565b7f416363657373436f6e74726f6c3a2063616e206f6e6c792072656e6f756e636560008201527f20726f6c657320666f722073656c660000000000000000000000000000000000602082015250565b7f45524332303a206d696e7420746f20746865207a65726f206164647265737300600082015250565b6120f281611c07565b81146120fd57600080fd5b50565b61210981611c25565b811461211457600080fd5b50565b61212081611c2f565b811461212b57600080fd5b50565b61213781611c7b565b811461214257600080fd5b5056fea26469706673582212207f232b7b020fd8cdd796173b0833151ea9cb594786947b92da04533cc4b5033864736f6c63430008070033",
					"opcodes": "PUSH1 0x80 PUSH1 0x40 MSTORE CALLVALUE DUP1 ISZERO PUSH3 0x11 JUMPI PUSH1 0x0 DUP1 REVERT JUMPDEST POP PUSH1 0x40 MLOAD DUP1 PUSH1 0x40 ADD PUSH1 0x40 MSTORE DUP1 PUSH1 0x5 DUP2 MSTORE PUSH1 0x20 ADD PUSH32 0x526F6C6573000000000000000000000000000000000000000000000000000000 DUP2 MSTORE POP PUSH1 0x40 MLOAD DUP1 PUSH1 0x40 ADD PUSH1 0x40 MSTORE DUP1 PUSH1 0x4 DUP2 MSTORE PUSH1 0x20 ADD PUSH32 0x524F4C4500000000000000000000000000000000000000000000000000000000 DUP2 MSTORE POP DUP2 PUSH1 0x3 SWAP1 DUP1 MLOAD SWAP1 PUSH1 0x20 ADD SWAP1 PUSH3 0x96 SWAP3 SWAP2 SWAP1 PUSH3 0x430 JUMP JUMPDEST POP DUP1 PUSH1 0x4 SWAP1 DUP1 MLOAD SWAP1 PUSH1 0x20 ADD SWAP1 PUSH3 0xAF SWAP3 SWAP2 SWAP1 PUSH3 0x430 JUMP JUMPDEST POP POP POP PUSH3 0xF2 CALLER PUSH3 0xC7 PUSH3 0x13F PUSH1 0x20 SHL PUSH1 0x20 SHR JUMP JUMPDEST PUSH1 0xA PUSH3 0xD5 SWAP2 SWAP1 PUSH3 0x620 JUMP JUMPDEST PUSH4 0x5F5E100 PUSH3 0xE6 SWAP2 SWAP1 PUSH3 0x75D JUMP JUMPDEST PUSH3 0x148 PUSH1 0x20 SHL PUSH1 0x20 SHR JUMP JUMPDEST PUSH3 0x107 PUSH1 0x0 DUP1 SHL CALLER PUSH3 0x2C1 PUSH1 0x20 SHL PUSH1 0x20 SHR JUMP JUMPDEST PUSH3 0x139 PUSH32 0x9F2DF0FED2C77648DE5860A4CC508CD0818C85B8B8A1AB4CEEEF8D981C8956A6 CALLER PUSH3 0x2C1 PUSH1 0x20 SHL PUSH1 0x20 SHR JUMP JUMPDEST PUSH3 0x89F JUMP JUMPDEST PUSH1 0x0 PUSH1 0x12 SWAP1 POP SWAP1 JUMP JUMPDEST PUSH1 0x0 PUSH20 0xFFFFFFFFFFFFFFFFFFFFFFFFFFFFFFFFFFFFFFFF AND DUP3 PUSH20 0xFFFFFFFFFFFFFFFFFFFFFFFFFFFFFFFFFFFFFFFF AND EQ ISZERO PUSH3 0x1BB JUMPI PUSH1 0x40 MLOAD PUSH32 0x8C379A000000000000000000000000000000000000000000000000000000000 DUP2 MSTORE PUSH1 0x4 ADD PUSH3 0x1B2 SWAP1 PUSH3 0x518 JUMP JUMPDEST PUSH1 0x40 MLOAD DUP1 SWAP2 SUB SWAP1 REVERT JUMPDEST PUSH3 0x1CF PUSH1 0x0 DUP4 DUP4 PUSH3 0x3B3 PUSH1 0x20 SHL PUSH1 0x20 SHR JUMP JUMPDEST DUP1 PUSH1 0x2 PUSH1 0x0 DUP3 DUP3 SLOAD PUSH3 0x1E3 SWAP2 SWAP1 PUSH3 0x568 JUMP JUMPDEST SWAP3 POP POP DUP2 SWAP1 SSTORE POP DUP1 PUSH1 0x0 DUP1 DUP5 PUSH20 0xFFFFFFFFFFFFFFFFFFFFFFFFFFFFFFFFFFFFFFFF AND PUSH20 0xFFFFFFFFFFFFFFFFFFFFFFFFFFFFFFFFFFFFFFFF AND DUP2 MSTORE PUSH1 0x20 ADD SWAP1 DUP2 MSTORE PUSH1 0x20 ADD PUSH1 0x0 KECCAK256 PUSH1 0x0 DUP3 DUP3 SLOAD PUSH3 0x23A SWAP2 SWAP1 PUSH3 0x568 JUMP JUMPDEST SWAP3 POP POP DUP2 SWAP1 SSTORE POP DUP2 PUSH20 0xFFFFFFFFFFFFFFFFFFFFFFFFFFFFFFFFFFFFFFFF AND PUSH1 0x0 PUSH20 0xFFFFFFFFFFFFFFFFFFFFFFFFFFFFFFFFFFFFFFFF AND PUSH32 0xDDF252AD1BE2C89B69C2B068FC378DAA952BA7F163C4A11628F55A4DF523B3EF DUP4 PUSH1 0x40 MLOAD PUSH3 0x2A1 SWAP2 SWAP1 PUSH3 0x53A JUMP JUMPDEST PUSH1 0x40 MLOAD DUP1 SWAP2 SUB SWAP1 LOG3 PUSH3 0x2BD PUSH1 0x0 DUP4 DUP4 PUSH3 0x3B8 PUSH1 0x20 SHL PUSH1 0x20 SHR JUMP JUMPDEST POP POP JUMP JUMPDEST PUSH3 0x2D3 DUP3 DUP3 PUSH3 0x3BD PUSH1 0x20 SHL PUSH1 0x20 SHR JUMP JUMPDEST PUSH3 0x3AF JUMPI PUSH1 0x1 PUSH1 0x5 PUSH1 0x0 DUP5 DUP2 MSTORE PUSH1 0x20 ADD SWAP1 DUP2 MSTORE PUSH1 0x20 ADD PUSH1 0x0 KECCAK256 PUSH1 0x0 ADD PUSH1 0x0 DUP4 PUSH20 0xFFFFFFFFFFFFFFFFFFFFFFFFFFFFFFFFFFFFFFFF AND PUSH20 0xFFFFFFFFFFFFFFFFFFFFFFFFFFFFFFFFFFFFFFFF AND DUP2 MSTORE PUSH1 0x20 ADD SWAP1 DUP2 MSTORE PUSH1 0x20 ADD PUSH1 0x0 KECCAK256 PUSH1 0x0 PUSH2 0x100 EXP DUP2 SLOAD DUP2 PUSH1 0xFF MUL NOT AND SWAP1 DUP4 ISZERO ISZERO MUL OR SWAP1 SSTORE POP PUSH3 0x354 PUSH3 0x428 PUSH1 0x20 SHL PUSH1 0x20 SHR JUMP JUMPDEST PUSH20 0xFFFFFFFFFFFFFFFFFFFFFFFFFFFFFFFFFFFFFFFF AND DUP2 PUSH20 0xFFFFFFFFFFFFFFFFFFFFFFFFFFFFFFFFFFFFFFFF AND DUP4 PUSH32 0x2F8788117E7EFF1D82E926EC794901D17C78024A50270940304540A733656F0D PUSH1 0x40 MLOAD PUSH1 0x40 MLOAD DUP1 SWAP2 SUB SWAP1 LOG4 JUMPDEST POP POP JUMP JUMPDEST POP POP POP JUMP JUMPDEST POP POP POP JUMP JUMPDEST PUSH1 0x0 PUSH1 0x5 PUSH1 0x0 DUP5 DUP2 MSTORE PUSH1 0x20 ADD SWAP1 DUP2 MSTORE PUSH1 0x20 ADD PUSH1 0x0 KECCAK256 PUSH1 0x0 ADD PUSH1 0x0 DUP4 PUSH20 0xFFFFFFFFFFFFFFFFFFFFFFFFFFFFFFFFFFFFFFFF AND PUSH20 0xFFFFFFFFFFFFFFFFFFFFFFFFFFFFFFFFFFFFFFFF AND DUP2 MSTORE PUSH1 0x20 ADD SWAP1 DUP2 MSTORE PUSH1 0x20 ADD PUSH1 0x0 KECCAK256 PUSH1 0x0 SWAP1 SLOAD SWAP1 PUSH2 0x100 EXP SWAP1 DIV PUSH1 0xFF AND SWAP1 POP SWAP3 SWAP2 POP POP JUMP JUMPDEST PUSH1 0x0 CALLER SWAP1 POP SWAP1 JUMP JUMPDEST DUP3 DUP1 SLOAD PUSH3 0x43E SWAP1 PUSH3 0x7D5 JUMP JUMPDEST SWAP1 PUSH1 0x0 MSTORE PUSH1 0x20 PUSH1 0x0 KECCAK256 SWAP1 PUSH1 0x1F ADD PUSH1 0x20 SWAP1 DIV DUP2 ADD SWAP3 DUP3 PUSH3 0x462 JUMPI PUSH1 0x0 DUP6 SSTORE PUSH3 0x4AE JUMP JUMPDEST DUP3 PUSH1 0x1F LT PUSH3 0x47D JUMPI DUP1 MLOAD PUSH1 0xFF NOT AND DUP4 DUP1 ADD OR DUP6 SSTORE PUSH3 0x4AE JUMP JUMPDEST DUP3 DUP1 ADD PUSH1 0x1 ADD DUP6 SSTORE DUP3 ISZERO PUSH3 0x4AE JUMPI SWAP2 DUP3 ADD JUMPDEST DUP3 DUP2 GT ISZERO PUSH3 0x4AD JUMPI DUP3 MLOAD DUP3 SSTORE SWAP2 PUSH1 0x20 ADD SWAP2 SWAP1 PUSH1 0x1 ADD SWAP1 PUSH3 0x490 JUMP JUMPDEST JUMPDEST POP SWAP1 POP PUSH3 0x4BD SWAP2 SWAP1 PUSH3 0x4C1 JUMP JUMPDEST POP SWAP1 JUMP JUMPDEST JUMPDEST DUP1 DUP3 GT ISZERO PUSH3 0x4DC JUMPI PUSH1 0x0 DUP2 PUSH1 0x0 SWAP1 SSTORE POP PUSH1 0x1 ADD PUSH3 0x4C2 JUMP JUMPDEST POP SWAP1 JUMP JUMPDEST PUSH1 0x0 PUSH3 0x4EF PUSH1 0x1F DUP4 PUSH3 0x557 JUMP JUMPDEST SWAP2 POP PUSH3 0x4FC DUP3 PUSH3 0x876 JUMP JUMPDEST PUSH1 0x20 DUP3 ADD SWAP1 POP SWAP2 SWAP1 POP JUMP JUMPDEST PUSH3 0x512 DUP2 PUSH3 0x7BE JUMP JUMPDEST DUP3 MSTORE POP POP JUMP JUMPDEST PUSH1 0x0 PUSH1 0x20 DUP3 ADD SWAP1 POP DUP2 DUP2 SUB PUSH1 0x0 DUP4 ADD MSTORE PUSH3 0x533 DUP2 PUSH3 0x4E0 JUMP JUMPDEST SWAP1 POP SWAP2 SWAP1 POP JUMP JUMPDEST PUSH1 0x0 PUSH1 0x20 DUP3 ADD SWAP1 POP PUSH3 0x551 PUSH1 0x0 DUP4 ADD DUP5 PUSH3 0x507 JUMP JUMPDEST SWAP3 SWAP2 POP POP JUMP JUMPDEST PUSH1 0x0 DUP3 DUP3 MSTORE PUSH1 0x20 DUP3 ADD SWAP1 POP SWAP3 SWAP2 POP POP JUMP JUMPDEST PUSH1 0x0 PUSH3 0x575 DUP3 PUSH3 0x7BE JUMP JUMPDEST SWAP2 POP PUSH3 0x582 DUP4 PUSH3 0x7BE JUMP JUMPDEST SWAP3 POP DUP3 PUSH32 0xFFFFFFFFFFFFFFFFFFFFFFFFFFFFFFFFFFFFFFFFFFFFFFFFFFFFFFFFFFFFFFFF SUB DUP3 GT ISZERO PUSH3 0x5BA JUMPI PUSH3 0x5B9 PUSH3 0x80B JUMP JUMPDEST JUMPDEST DUP3 DUP3 ADD SWAP1 POP SWAP3 SWAP2 POP POP JUMP JUMPDEST PUSH1 0x0 DUP1 DUP3 SWAP2 POP DUP4 SWAP1 POP JUMPDEST PUSH1 0x1 DUP6 GT ISZERO PUSH3 0x617 JUMPI DUP1 DUP7 DIV DUP2 GT ISZERO PUSH3 0x5EF JUMPI PUSH3 0x5EE PUSH3 0x80B JUMP JUMPDEST JUMPDEST PUSH1 0x1 DUP6 AND ISZERO PUSH3 0x5FF JUMPI DUP1 DUP3 MUL SWAP2 POP JUMPDEST DUP1 DUP2 MUL SWAP1 POP PUSH3 0x60F DUP6 PUSH3 0x869 JUMP JUMPDEST SWAP5 POP PUSH3 0x5CF JUMP JUMPDEST SWAP5 POP SWAP5 SWAP3 POP POP POP JUMP JUMPDEST PUSH1 0x0 PUSH3 0x62D DUP3 PUSH3 0x7BE JUMP JUMPDEST SWAP2 POP PUSH3 0x63A DUP4 PUSH3 0x7C8 JUMP JUMPDEST SWAP3 POP PUSH3 0x669 PUSH32 0xFFFFFFFFFFFFFFFFFFFFFFFFFFFFFFFFFFFFFFFFFFFFFFFFFFFFFFFFFFFFFFFF DUP5 DUP5 PUSH3 0x671 JUMP JUMPDEST SWAP1 POP SWAP3 SWAP2 POP POP JUMP JUMPDEST PUSH1 0x0 DUP3 PUSH3 0x683 JUMPI PUSH1 0x1 SWAP1 POP PUSH3 0x756 JUMP JUMPDEST DUP2 PUSH3 0x693 JUMPI PUSH1 0x0 SWAP1 POP PUSH3 0x756 JUMP JUMPDEST DUP2 PUSH1 0x1 DUP2 EQ PUSH3 0x6AC JUMPI PUSH1 0x2 DUP2 EQ PUSH3 0x6B7 JUMPI PUSH3 0x6ED JUMP JUMPDEST PUSH1 0x1 SWAP2 POP POP PUSH3 0x756 JUMP JUMPDEST PUSH1 0xFF DUP5 GT ISZERO PUSH3 0x6CC JUMPI PUSH3 0x6CB PUSH3 0x80B JUMP JUMPDEST JUMPDEST DUP4 PUSH1 0x2 EXP SWAP2 POP DUP5 DUP3 GT ISZERO PUSH3 0x6E6 JUMPI PUSH3 0x6E5 PUSH3 0x80B JUMP JUMPDEST JUMPDEST POP PUSH3 0x756 JUMP JUMPDEST POP PUSH1 0x20 DUP4 LT PUSH2 0x133 DUP4 LT AND PUSH1 0x4E DUP5 LT PUSH1 0xB DUP5 LT AND OR ISZERO PUSH3 0x727 JUMPI DUP3 DUP3 EXP SWAP1 POP DUP4 DUP2 GT ISZERO PUSH3 0x721 JUMPI PUSH3 0x720 PUSH3 0x80B JUMP JUMPDEST JUMPDEST PUSH3 0x756 JUMP JUMPDEST PUSH3 0x736 DUP5 DUP5 DUP5 PUSH1 0x1 PUSH3 0x5C5 JUMP JUMPDEST SWAP3 POP SWAP1 POP DUP2 DUP5 DIV DUP2 GT ISZERO PUSH3 0x750 JUMPI PUSH3 0x74F PUSH3 0x80B JUMP JUMPDEST JUMPDEST DUP2 DUP2 MUL SWAP1 POP JUMPDEST SWAP4 SWAP3 POP POP POP JUMP JUMPDEST PUSH1 0x0 PUSH3 0x76A DUP3 PUSH3 0x7BE JUMP JUMPDEST SWAP2 POP PUSH3 0x777 DUP4 PUSH3 0x7BE JUMP JUMPDEST SWAP3 POP DUP2 PUSH32 0xFFFFFFFFFFFFFFFFFFFFFFFFFFFFFFFFFFFFFFFFFFFFFFFFFFFFFFFFFFFFFFFF DIV DUP4 GT DUP3 ISZERO ISZERO AND ISZERO PUSH3 0x7B3 JUMPI PUSH3 0x7B2 PUSH3 0x80B JUMP JUMPDEST JUMPDEST DUP3 DUP3 MUL SWAP1 POP SWAP3 SWAP2 POP POP JUMP JUMPDEST PUSH1 0x0 DUP2 SWAP1 POP SWAP2 SWAP1 POP JUMP JUMPDEST PUSH1 0x0 PUSH1 0xFF DUP3 AND SWAP1 POP SWAP2 SWAP1 POP JUMP JUMPDEST PUSH1 0x0 PUSH1 0x2 DUP3 DIV SWAP1 POP PUSH1 0x1 DUP3 AND DUP1 PUSH3 0x7EE JUMPI PUSH1 0x7F DUP3 AND SWAP2 POP JUMPDEST PUSH1 0x20 DUP3 LT DUP2 EQ ISZERO PUSH3 0x805 JUMPI PUSH3 0x804 PUSH3 0x83A JUMP JUMPDEST JUMPDEST POP SWAP2 SWAP1 POP JUMP JUMPDEST PUSH32 0x4E487B7100000000000000000000000000000000000000000000000000000000 PUSH1 0x0 MSTORE PUSH1 0x11 PUSH1 0x4 MSTORE PUSH1 0x24 PUSH1 0x0 REVERT JUMPDEST PUSH32 0x4E487B7100000000000000000000000000000000000000000000000000000000 PUSH1 0x0 MSTORE PUSH1 0x22 PUSH1 0x4 MSTORE PUSH1 0x24 PUSH1 0x0 REVERT JUMPDEST PUSH1 0x0 DUP2 PUSH1 0x1 SHR SWAP1 POP SWAP2 SWAP1 POP JUMP JUMPDEST PUSH32 0x45524332303A206D696E7420746F20746865207A65726F206164647265737300 PUSH1 0x0 DUP3 ADD MSTORE POP JUMP JUMPDEST PUSH2 0x217B DUP1 PUSH3 0x8AF PUSH1 0x0 CODECOPY PUSH1 0x0 RETURN INVALID PUSH1 0x80 PUSH1 0x40 MSTORE CALLVALUE DUP1 ISZERO PUSH2 0x10 JUMPI PUSH1 0x0 DUP1 REVERT JUMPDEST POP PUSH1 0x4 CALLDATASIZE LT PUSH2 0x12C JUMPI PUSH1 0x0 CALLDATALOAD PUSH1 0xE0 SHR DUP1 PUSH4 0x40C10F19 GT PUSH2 0xAD JUMPI DUP1 PUSH4 0xA457C2D7 GT PUSH2 0x71 JUMPI DUP1 PUSH4 0xA457C2D7 EQ PUSH2 0x36B JUMPI DUP1 PUSH4 0xA9059CBB EQ PUSH2 0x39B JUMPI DUP1 PUSH4 0xD5391393 EQ PUSH2 0x3CB JUMPI DUP1 PUSH4 0xD547741F EQ PUSH2 0x3E9 JUMPI DUP1 PUSH4 0xDD62ED3E EQ PUSH2 0x405 JUMPI PUSH2 0x12C JUMP JUMPDEST DUP1 PUSH4 0x40C10F19 EQ PUSH2 0x2B3 JUMPI DUP1 PUSH4 0x70A08231 EQ PUSH2 0x2CF JUMPI DUP1 PUSH4 0x91D14854 EQ PUSH2 0x2FF JUMPI DUP1 PUSH4 0x95D89B41 EQ PUSH2 0x32F JUMPI DUP1 PUSH4 0xA217FDDF EQ PUSH2 0x34D JUMPI PUSH2 0x12C JUMP JUMPDEST DUP1 PUSH4 0x248A9CA3 GT PUSH2 0xF4 JUMPI DUP1 PUSH4 0x248A9CA3 EQ PUSH2 0x1FD JUMPI DUP1 PUSH4 0x2F2FF15D EQ PUSH2 0x22D JUMPI DUP1 PUSH4 0x313CE567 EQ PUSH2 0x249 JUMPI DUP1 PUSH4 0x36568ABE EQ PUSH2 0x267 JUMPI DUP1 PUSH4 0x39509351 EQ PUSH2 0x283 JUMPI PUSH2 0x12C JUMP JUMPDEST DUP1 PUSH4 0x1FFC9A7 EQ PUSH2 0x131 JUMPI DUP1 PUSH4 0x6FDDE03 EQ PUSH2 0x161 JUMPI DUP1 PUSH4 0x95EA7B3 EQ PUSH2 0x17F JUMPI DUP1 PUSH4 0x18160DDD EQ PUSH2 0x1AF JUMPI DUP1 PUSH4 0x23B872DD EQ PUSH2 0x1CD JUMPI JUMPDEST PUSH1 0x0 DUP1 REVERT JUMPDEST PUSH2 0x14B PUSH1 0x4 DUP1 CALLDATASIZE SUB DUP2 ADD SWAP1 PUSH2 0x146 SWAP2 SWAP1 PUSH2 0x16B1 JUMP JUMPDEST PUSH2 0x435 JUMP JUMPDEST PUSH1 0x40 MLOAD PUSH2 0x158 SWAP2 SWAP1 PUSH2 0x1962 JUMP JUMPDEST PUSH1 0x40 MLOAD DUP1 SWAP2 SUB SWAP1 RETURN JUMPDEST PUSH2 0x169 PUSH2 0x4AF JUMP JUMPDEST PUSH1 0x40 MLOAD PUSH2 0x176 SWAP2 SWAP1 PUSH2 0x1998 JUMP JUMPDEST PUSH1 0x40 MLOAD DUP1 SWAP2 SUB SWAP1 RETURN JUMPDEST PUSH2 0x199 PUSH1 0x4 DUP1 CALLDATASIZE SUB DUP2 ADD SWAP1 PUSH2 0x194 SWAP2 SWAP1 PUSH2 0x1604 JUMP JUMPDEST PUSH2 0x541 JUMP JUMPDEST PUSH1 0x40 MLOAD PUSH2 0x1A6 SWAP2 SWAP1 PUSH2 0x1962 JUMP JUMPDEST PUSH1 0x40 MLOAD DUP1 SWAP2 SUB SWAP1 RETURN JUMPDEST PUSH2 0x1B7 PUSH2 0x564 JUMP JUMPDEST PUSH1 0x40 MLOAD PUSH2 0x1C4 SWAP2 SWAP1 PUSH2 0x1AFA JUMP JUMPDEST PUSH1 0x40 MLOAD DUP1 SWAP2 SUB SWAP1 RETURN JUMPDEST PUSH2 0x1E7 PUSH1 0x4 DUP1 CALLDATASIZE SUB DUP2 ADD SWAP1 PUSH2 0x1E2 SWAP2 SWAP1 PUSH2 0x15B1 JUMP JUMPDEST PUSH2 0x56E JUMP JUMPDEST PUSH1 0x40 MLOAD PUSH2 0x1F4 SWAP2 SWAP1 PUSH2 0x1962 JUMP JUMPDEST PUSH1 0x40 MLOAD DUP1 SWAP2 SUB SWAP1 RETURN JUMPDEST PUSH2 0x217 PUSH1 0x4 DUP1 CALLDATASIZE SUB DUP2 ADD SWAP1 PUSH2 0x212 SWAP2 SWAP1 PUSH2 0x1644 JUMP JUMPDEST PUSH2 0x59D JUMP JUMPDEST PUSH1 0x40 MLOAD PUSH2 0x224 SWAP2 SWAP1 PUSH2 0x197D JUMP JUMPDEST PUSH1 0x40 MLOAD DUP1 SWAP2 SUB SWAP1 RETURN JUMPDEST PUSH2 0x247 PUSH1 0x4 DUP1 CALLDATASIZE SUB DUP2 ADD SWAP1 PUSH2 0x242 SWAP2 SWAP1 PUSH2 0x1671 JUMP JUMPDEST PUSH2 0x5BD JUMP JUMPDEST STOP JUMPDEST PUSH2 0x251 PUSH2 0x5DE JUMP JUMPDEST PUSH1 0x40 MLOAD PUSH2 0x25E SWAP2 SWAP1 PUSH2 0x1B15 JUMP JUMPDEST PUSH1 0x40 MLOAD DUP1 SWAP2 SUB SWAP1 RETURN JUMPDEST PUSH2 0x281 PUSH1 0x4 DUP1 CALLDATASIZE SUB DUP2 ADD SWAP1 PUSH2 0x27C SWAP2 SWAP1 PUSH2 0x1671 JUMP JUMPDEST PUSH2 0x5E7 JUMP JUMPDEST STOP JUMPDEST PUSH2 0x29D PUSH1 0x4 DUP1 CALLDATASIZE SUB DUP2 ADD SWAP1 PUSH2 0x298 SWAP2 SWAP1 PUSH2 0x1604 JUMP JUMPDEST PUSH2 0x66A JUMP JUMPDEST PUSH1 0x40 MLOAD PUSH2 0x2AA SWAP2 SWAP1 PUSH2 0x1962 JUMP JUMPDEST PUSH1 0x40 MLOAD DUP1 SWAP2 SUB SWAP1 RETURN JUMPDEST PUSH2 0x2CD PUSH1 0x4 DUP1 CALLDATASIZE SUB DUP2 ADD SWAP1 PUSH2 0x2C8 SWAP2 SWAP1 PUSH2 0x1604 JUMP JUMPDEST PUSH2 0x6A1 JUMP JUMPDEST STOP JUMPDEST PUSH2 0x2E9 PUSH1 0x4 DUP1 CALLDATASIZE SUB DUP2 ADD SWAP1 PUSH2 0x2E4 SWAP2 SWAP1 PUSH2 0x1544 JUMP JUMPDEST PUSH2 0x6DA JUMP JUMPDEST PUSH1 0x40 MLOAD PUSH2 0x2F6 SWAP2 SWAP1 PUSH2 0x1AFA JUMP JUMPDEST PUSH1 0x40 MLOAD DUP1 SWAP2 SUB SWAP1 RETURN JUMPDEST PUSH2 0x319 PUSH1 0x4 DUP1 CALLDATASIZE SUB DUP2 ADD SWAP1 PUSH2 0x314 SWAP2 SWAP1 PUSH2 0x1671 JUMP JUMPDEST PUSH2 0x722 JUMP JUMPDEST PUSH1 0x40 MLOAD PUSH2 0x326 SWAP2 SWAP1 PUSH2 0x1962 JUMP JUMPDEST PUSH1 0x40 MLOAD DUP1 SWAP2 SUB SWAP1 RETURN JUMPDEST PUSH2 0x337 PUSH2 0x78D JUMP JUMPDEST PUSH1 0x40 MLOAD PUSH2 0x344 SWAP2 SWAP1 PUSH2 0x1998 JUMP JUMPDEST PUSH1 0x40 MLOAD DUP1 SWAP2 SUB SWAP1 RETURN JUMPDEST PUSH2 0x355 PUSH2 0x81F JUMP JUMPDEST PUSH1 0x40 MLOAD PUSH2 0x362 SWAP2 SWAP1 PUSH2 0x197D JUMP JUMPDEST PUSH1 0x40 MLOAD DUP1 SWAP2 SUB SWAP1 RETURN JUMPDEST PUSH2 0x385 PUSH1 0x4 DUP1 CALLDATASIZE SUB DUP2 ADD SWAP1 PUSH2 0x380 SWAP2 SWAP1 PUSH2 0x1604 JUMP JUMPDEST PUSH2 0x826 JUMP JUMPDEST PUSH1 0x40 MLOAD PUSH2 0x392 SWAP2 SWAP1 PUSH2 0x1962 JUMP JUMPDEST PUSH1 0x40 MLOAD DUP1 SWAP2 SUB SWAP1 RETURN JUMPDEST PUSH2 0x3B5 PUSH1 0x4 DUP1 CALLDATASIZE SUB DUP2 ADD SWAP1 PUSH2 0x3B0 SWAP2 SWAP1 PUSH2 0x1604 JUMP JUMPDEST PUSH2 0x89D JUMP JUMPDEST PUSH1 0x40 MLOAD PUSH2 0x3C2 SWAP2 SWAP1 PUSH2 0x1962 JUMP JUMPDEST PUSH1 0x40 MLOAD DUP1 SWAP2 SUB SWAP1 RETURN JUMPDEST PUSH2 0x3D3 PUSH2 0x8C0 JUMP JUMPDEST PUSH1 0x40 MLOAD PUSH2 0x3E0 SWAP2 SWAP1 PUSH2 0x197D JUMP JUMPDEST PUSH1 0x40 MLOAD DUP1 SWAP2 SUB SWAP1 RETURN JUMPDEST PUSH2 0x403 PUSH1 0x4 DUP1 CALLDATASIZE SUB DUP2 ADD SWAP1 PUSH2 0x3FE SWAP2 SWAP1 PUSH2 0x1671 JUMP JUMPDEST PUSH2 0x8E4 JUMP JUMPDEST STOP JUMPDEST PUSH2 0x41F PUSH1 0x4 DUP1 CALLDATASIZE SUB DUP2 ADD SWAP1 PUSH2 0x41A SWAP2 SWAP1 PUSH2 0x1571 JUMP JUMPDEST PUSH2 0x905 JUMP JUMPDEST PUSH1 0x40 MLOAD PUSH2 0x42C SWAP2 SWAP1 PUSH2 0x1AFA JUMP JUMPDEST PUSH1 0x40 MLOAD DUP1 SWAP2 SUB SWAP1 RETURN JUMPDEST PUSH1 0x0 PUSH32 0x7965DB0B00000000000000000000000000000000000000000000000000000000 PUSH28 0xFFFFFFFFFFFFFFFFFFFFFFFFFFFFFFFFFFFFFFFFFFFFFFFFFFFFFFFF NOT AND DUP3 PUSH28 0xFFFFFFFFFFFFFFFFFFFFFFFFFFFFFFFFFFFFFFFFFFFFFFFFFFFFFFFF NOT AND EQ DUP1 PUSH2 0x4A8 JUMPI POP PUSH2 0x4A7 DUP3 PUSH2 0x98C JUMP JUMPDEST JUMPDEST SWAP1 POP SWAP2 SWAP1 POP JUMP JUMPDEST PUSH1 0x60 PUSH1 0x3 DUP1 SLOAD PUSH2 0x4BE SWAP1 PUSH2 0x1CEF JUMP JUMPDEST DUP1 PUSH1 0x1F ADD PUSH1 0x20 DUP1 SWAP2 DIV MUL PUSH1 0x20 ADD PUSH1 0x40 MLOAD SWAP1 DUP2 ADD PUSH1 0x40 MSTORE DUP1 SWAP3 SWAP2 SWAP1 DUP2 DUP2 MSTORE PUSH1 0x20 ADD DUP3 DUP1 SLOAD PUSH2 0x4EA SWAP1 PUSH2 0x1CEF JUMP JUMPDEST DUP1 ISZERO PUSH2 0x537 JUMPI DUP1 PUSH1 0x1F LT PUSH2 0x50C JUMPI PUSH2 0x100 DUP1 DUP4 SLOAD DIV MUL DUP4 MSTORE SWAP2 PUSH1 0x20 ADD SWAP2 PUSH2 0x537 JUMP JUMPDEST DUP3 ADD SWAP2 SWAP1 PUSH1 0x0 MSTORE PUSH1 0x20 PUSH1 0x0 KECCAK256 SWAP1 JUMPDEST DUP2 SLOAD DUP2 MSTORE SWAP1 PUSH1 0x1 ADD SWAP1 PUSH1 0x20 ADD DUP1 DUP4 GT PUSH2 0x51A JUMPI DUP3 SWAP1 SUB PUSH1 0x1F AND DUP3 ADD SWAP2 JUMPDEST POP POP POP POP POP SWAP1 POP SWAP1 JUMP JUMPDEST PUSH1 0x0 DUP1 PUSH2 0x54C PUSH2 0x9F6 JUMP JUMPDEST SWAP1 POP PUSH2 0x559 DUP2 DUP6 DUP6 PUSH2 0x9FE JUMP JUMPDEST PUSH1 0x1 SWAP2 POP POP SWAP3 SWAP2 POP POP JUMP JUMPDEST PUSH1 0x0 PUSH1 0x2 SLOAD SWAP1 POP SWAP1 JUMP JUMPDEST PUSH1 0x0 DUP1 PUSH2 0x579 PUSH2 0x9F6 JUMP JUMPDEST SWAP1 POP PUSH2 0x586 DUP6 DUP3 DUP6 PUSH2 0xBC9 JUMP JUMPDEST PUSH2 0x591 DUP6 DUP6 DUP6 PUSH2 0xC55 JUMP JUMPDEST PUSH1 0x1 SWAP2 POP POP SWAP4 SWAP3 POP POP POP JUMP JUMPDEST PUSH1 0x0 PUSH1 0x5 PUSH1 0x0 DUP4 DUP2 MSTORE PUSH1 0x20 ADD SWAP1 DUP2 MSTORE PUSH1 0x20 ADD PUSH1 0x0 KECCAK256 PUSH1 0x1 ADD SLOAD SWAP1 POP SWAP2 SWAP1 POP JUMP JUMPDEST PUSH2 0x5C6 DUP3 PUSH2 0x59D JUMP JUMPDEST PUSH2 0x5CF DUP2 PUSH2 0xED6 JUMP JUMPDEST PUSH2 0x5D9 DUP4 DUP4 PUSH2 0xEEA JUMP JUMPDEST POP POP POP JUMP JUMPDEST PUSH1 0x0 PUSH1 0x12 SWAP1 POP SWAP1 JUMP JUMPDEST PUSH2 0x5EF PUSH2 0x9F6 JUMP JUMPDEST PUSH20 0xFFFFFFFFFFFFFFFFFFFFFFFFFFFFFFFFFFFFFFFF AND DUP2 PUSH20 0xFFFFFFFFFFFFFFFFFFFFFFFFFFFFFFFFFFFFFFFF AND EQ PUSH2 0x65C JUMPI PUSH1 0x40 MLOAD PUSH32 0x8C379A000000000000000000000000000000000000000000000000000000000 DUP2 MSTORE PUSH1 0x4 ADD PUSH2 0x653 SWAP1 PUSH2 0x1ABA JUMP JUMPDEST PUSH1 0x40 MLOAD DUP1 SWAP2 SUB SWAP1 REVERT JUMPDEST PUSH2 0x666 DUP3 DUP3 PUSH2 0xFCB JUMP JUMPDEST POP POP JUMP JUMPDEST PUSH1 0x0 DUP1 PUSH2 0x675 PUSH2 0x9F6 JUMP JUMPDEST SWAP1 POP PUSH2 0x696 DUP2 DUP6 DUP6 PUSH2 0x687 DUP6 DUP10 PUSH2 0x905 JUMP JUMPDEST PUSH2 0x691 SWAP2 SWAP1 PUSH2 0x1B57 JUMP JUMPDEST PUSH2 0x9FE JUMP JUMPDEST PUSH1 0x1 SWAP2 POP POP SWAP3 SWAP2 POP POP JUMP JUMPDEST PUSH32 0x9F2DF0FED2C77648DE5860A4CC508CD0818C85B8B8A1AB4CEEEF8D981C8956A6 PUSH2 0x6CB DUP2 PUSH2 0xED6 JUMP JUMPDEST PUSH2 0x6D5 DUP4 DUP4 PUSH2 0x10AD JUMP JUMPDEST POP POP POP JUMP JUMPDEST PUSH1 0x0 DUP1 PUSH1 0x0 DUP4 PUSH20 0xFFFFFFFFFFFFFFFFFFFFFFFFFFFFFFFFFFFFFFFF AND PUSH20 0xFFFFFFFFFFFFFFFFFFFFFFFFFFFFFFFFFFFFFFFF AND DUP2 MSTORE PUSH1 0x20 ADD SWAP1 DUP2 MSTORE PUSH1 0x20 ADD PUSH1 0x0 KECCAK256 SLOAD SWAP1 POP SWAP2 SWAP1 POP JUMP JUMPDEST PUSH1 0x0 PUSH1 0x5 PUSH1 0x0 DUP5 DUP2 MSTORE PUSH1 0x20 ADD SWAP1 DUP2 MSTORE PUSH1 0x20 ADD PUSH1 0x0 KECCAK256 PUSH1 0x0 ADD PUSH1 0x0 DUP4 PUSH20 0xFFFFFFFFFFFFFFFFFFFFFFFFFFFFFFFFFFFFFFFF AND PUSH20 0xFFFFFFFFFFFFFFFFFFFFFFFFFFFFFFFFFFFFFFFF AND DUP2 MSTORE PUSH1 0x20 ADD SWAP1 DUP2 MSTORE PUSH1 0x20 ADD PUSH1 0x0 KECCAK256 PUSH1 0x0 SWAP1 SLOAD SWAP1 PUSH2 0x100 EXP SWAP1 DIV PUSH1 0xFF AND SWAP1 POP SWAP3 SWAP2 POP POP JUMP JUMPDEST PUSH1 0x60 PUSH1 0x4 DUP1 SLOAD PUSH2 0x79C SWAP1 PUSH2 0x1CEF JUMP JUMPDEST DUP1 PUSH1 0x1F ADD PUSH1 0x20 DUP1 SWAP2 DIV MUL PUSH1 0x20 ADD PUSH1 0x40 MLOAD SWAP1 DUP2 ADD PUSH1 0x40 MSTORE DUP1 SWAP3 SWAP2 SWAP1 DUP2 DUP2 MSTORE PUSH1 0x20 ADD DUP3 DUP1 SLOAD PUSH2 0x7C8 SWAP1 PUSH2 0x1CEF JUMP JUMPDEST DUP1 ISZERO PUSH2 0x815 JUMPI DUP1 PUSH1 0x1F LT PUSH2 0x7EA JUMPI PUSH2 0x100 DUP1 DUP4 SLOAD DIV MUL DUP4 MSTORE SWAP2 PUSH1 0x20 ADD SWAP2 PUSH2 0x815 JUMP JUMPDEST DUP3 ADD SWAP2 SWAP1 PUSH1 0x0 MSTORE PUSH1 0x20 PUSH1 0x0 KECCAK256 SWAP1 JUMPDEST DUP2 SLOAD DUP2 MSTORE SWAP1 PUSH1 0x1 ADD SWAP1 PUSH1 0x20 ADD DUP1 DUP4 GT PUSH2 0x7F8 JUMPI DUP3 SWAP1 SUB PUSH1 0x1F AND DUP3 ADD SWAP2 JUMPDEST POP POP POP POP POP SWAP1 POP SWAP1 JUMP JUMPDEST PUSH1 0x0 DUP1 SHL DUP2 JUMP JUMPDEST PUSH1 0x0 DUP1 PUSH2 0x831 PUSH2 0x9F6 JUMP JUMPDEST SWAP1 POP PUSH1 0x0 PUSH2 0x83F DUP3 DUP7 PUSH2 0x905 JUMP JUMPDEST SWAP1 POP DUP4 DUP2 LT ISZERO PUSH2 0x884 JUMPI PUSH1 0x40 MLOAD PUSH32 0x8C379A000000000000000000000000000000000000000000000000000000000 DUP2 MSTORE PUSH1 0x4 ADD PUSH2 0x87B SWAP1 PUSH2 0x1A9A JUMP JUMPDEST PUSH1 0x40 MLOAD DUP1 SWAP2 SUB SWAP1 REVERT JUMPDEST PUSH2 0x891 DUP3 DUP7 DUP7 DUP5 SUB PUSH2 0x9FE JUMP JUMPDEST PUSH1 0x1 SWAP3 POP POP POP SWAP3 SWAP2 POP POP JUMP JUMPDEST PUSH1 0x0 DUP1 PUSH2 0x8A8 PUSH2 0x9F6 JUMP JUMPDEST SWAP1 POP PUSH2 0x8B5 DUP2 DUP6 DUP6 PUSH2 0xC55 JUMP JUMPDEST PUSH1 0x1 SWAP2 POP POP SWAP3 SWAP2 POP POP JUMP JUMPDEST PUSH32 0x9F2DF0FED2C77648DE5860A4CC508CD0818C85B8B8A1AB4CEEEF8D981C8956A6 DUP2 JUMP JUMPDEST PUSH2 0x8ED DUP3 PUSH2 0x59D JUMP JUMPDEST PUSH2 0x8F6 DUP2 PUSH2 0xED6 JUMP JUMPDEST PUSH2 0x900 DUP4 DUP4 PUSH2 0xFCB JUMP JUMPDEST POP POP POP JUMP JUMPDEST PUSH1 0x0 PUSH1 0x1 PUSH1 0x0 DUP5 PUSH20 0xFFFFFFFFFFFFFFFFFFFFFFFFFFFFFFFFFFFFFFFF AND PUSH20 0xFFFFFFFFFFFFFFFFFFFFFFFFFFFFFFFFFFFFFFFF AND DUP2 MSTORE PUSH1 0x20 ADD SWAP1 DUP2 MSTORE PUSH1 0x20 ADD PUSH1 0x0 KECCAK256 PUSH1 0x0 DUP4 PUSH20 0xFFFFFFFFFFFFFFFFFFFFFFFFFFFFFFFFFFFFFFFF AND PUSH20 0xFFFFFFFFFFFFFFFFFFFFFFFFFFFFFFFFFFFFFFFF AND DUP2 MSTORE PUSH1 0x20 ADD SWAP1 DUP2 MSTORE PUSH1 0x20 ADD PUSH1 0x0 KECCAK256 SLOAD SWAP1 POP SWAP3 SWAP2 POP POP JUMP JUMPDEST PUSH1 0x0 PUSH32 0x1FFC9A700000000000000000000000000000000000000000000000000000000 PUSH28 0xFFFFFFFFFFFFFFFFFFFFFFFFFFFFFFFFFFFFFFFFFFFFFFFFFFFFFFFF NOT AND DUP3 PUSH28 0xFFFFFFFFFFFFFFFFFFFFFFFFFFFFFFFFFFFFFFFFFFFFFFFFFFFFFFFF NOT AND EQ SWAP1 POP SWAP2 SWAP1 POP JUMP JUMPDEST PUSH1 0x0 CALLER SWAP1 POP SWAP1 JUMP JUMPDEST PUSH1 0x0 PUSH20 0xFFFFFFFFFFFFFFFFFFFFFFFFFFFFFFFFFFFFFFFF AND DUP4 PUSH20 0xFFFFFFFFFFFFFFFFFFFFFFFFFFFFFFFFFFFFFFFF AND EQ ISZERO PUSH2 0xA6E JUMPI PUSH1 0x40 MLOAD PUSH32 0x8C379A000000000000000000000000000000000000000000000000000000000 DUP2 MSTORE PUSH1 0x4 ADD PUSH2 0xA65 SWAP1 PUSH2 0x1A7A JUMP JUMPDEST PUSH1 0x40 MLOAD DUP1 SWAP2 SUB SWAP1 REVERT JUMPDEST PUSH1 0x0 PUSH20 0xFFFFFFFFFFFFFFFFFFFFFFFFFFFFFFFFFFFFFFFF AND DUP3 PUSH20 0xFFFFFFFFFFFFFFFFFFFFFFFFFFFFFFFFFFFFFFFF AND EQ ISZERO PUSH2 0xADE JUMPI PUSH1 0x40 MLOAD PUSH32 0x8C379A000000000000000000000000000000000000000000000000000000000 DUP2 MSTORE PUSH1 0x4 ADD PUSH2 0xAD5 SWAP1 PUSH2 0x19FA JUMP JUMPDEST PUSH1 0x40 MLOAD DUP1 SWAP2 SUB SWAP1 REVERT JUMPDEST DUP1 PUSH1 0x1 PUSH1 0x0 DUP6 PUSH20 0xFFFFFFFFFFFFFFFFFFFFFFFFFFFFFFFFFFFFFFFF AND PUSH20 0xFFFFFFFFFFFFFFFFFFFFFFFFFFFFFFFFFFFFFFFF AND DUP2 MSTORE PUSH1 0x20 ADD SWAP1 DUP2 MSTORE PUSH1 0x20 ADD PUSH1 0x0 KECCAK256 PUSH1 0x0 DUP5 PUSH20 0xFFFFFFFFFFFFFFFFFFFFFFFFFFFFFFFFFFFFFFFF AND PUSH20 0xFFFFFFFFFFFFFFFFFFFFFFFFFFFFFFFFFFFFFFFF AND DUP2 MSTORE PUSH1 0x20 ADD SWAP1 DUP2 MSTORE PUSH1 0x20 ADD PUSH1 0x0 KECCAK256 DUP2 SWAP1 SSTORE POP DUP2 PUSH20 0xFFFFFFFFFFFFFFFFFFFFFFFFFFFFFFFFFFFFFFFF AND DUP4 PUSH20 0xFFFFFFFFFFFFFFFFFFFFFFFFFFFFFFFFFFFFFFFF AND PUSH32 0x8C5BE1E5EBEC7D5BD14F71427D1E84F3DD0314C0F7B2291E5B200AC8C7C3B925 DUP4 PUSH1 0x40 MLOAD PUSH2 0xBBC SWAP2 SWAP1 PUSH2 0x1AFA JUMP JUMPDEST PUSH1 0x40 MLOAD DUP1 SWAP2 SUB SWAP1 LOG3 POP POP POP JUMP JUMPDEST PUSH1 0x0 PUSH2 0xBD5 DUP5 DUP5 PUSH2 0x905 JUMP JUMPDEST SWAP1 POP PUSH32 0xFFFFFFFFFFFFFFFFFFFFFFFFFFFFFFFFFFFFFFFFFFFFFFFFFFFFFFFFFFFFFFFF DUP2 EQ PUSH2 0xC4F JUMPI DUP2 DUP2 LT ISZERO PUSH2 0xC41 JUMPI PUSH1 0x40 MLOAD PUSH32 0x8C379A000000000000000000000000000000000000000000000000000000000 DUP2 MSTORE PUSH1 0x4 ADD PUSH2 0xC38 SWAP1 PUSH2 0x1A1A JUMP JUMPDEST PUSH1 0x40 MLOAD DUP1 SWAP2 SUB SWAP1 REVERT JUMPDEST PUSH2 0xC4E DUP5 DUP5 DUP5 DUP5 SUB PUSH2 0x9FE JUMP JUMPDEST JUMPDEST POP POP POP POP JUMP JUMPDEST PUSH1 0x0 PUSH20 0xFFFFFFFFFFFFFFFFFFFFFFFFFFFFFFFFFFFFFFFF AND DUP4 PUSH20 0xFFFFFFFFFFFFFFFFFFFFFFFFFFFFFFFFFFFFFFFF AND EQ ISZERO PUSH2 0xCC5 JUMPI PUSH1 0x40 MLOAD PUSH32 0x8C379A000000000000000000000000000000000000000000000000000000000 DUP2 MSTORE PUSH1 0x4 ADD PUSH2 0xCBC SWAP1 PUSH2 0x1A5A JUMP JUMPDEST PUSH1 0x40 MLOAD DUP1 SWAP2 SUB SWAP1 REVERT JUMPDEST PUSH1 0x0 PUSH20 0xFFFFFFFFFFFFFFFFFFFFFFFFFFFFFFFFFFFFFFFF AND DUP3 PUSH20 0xFFFFFFFFFFFFFFFFFFFFFFFFFFFFFFFFFFFFFFFF AND EQ ISZERO PUSH2 0xD35 JUMPI PUSH1 0x40 MLOAD PUSH32 0x8C379A000000000000000000000000000000000000000000000000000000000 DUP2 MSTORE PUSH1 0x4 ADD PUSH2 0xD2C SWAP1 PUSH2 0x19DA JUMP JUMPDEST PUSH1 0x40 MLOAD DUP1 SWAP2 SUB SWAP1 REVERT JUMPDEST PUSH2 0xD40 DUP4 DUP4 DUP4 PUSH2 0x120D JUMP JUMPDEST PUSH1 0x0 DUP1 PUSH1 0x0 DUP6 PUSH20 0xFFFFFFFFFFFFFFFFFFFFFFFFFFFFFFFFFFFFFFFF AND PUSH20 0xFFFFFFFFFFFFFFFFFFFFFFFFFFFFFFFFFFFFFFFF AND DUP2 MSTORE PUSH1 0x20 ADD SWAP1 DUP2 MSTORE PUSH1 0x20 ADD PUSH1 0x0 KECCAK256 SLOAD SWAP1 POP DUP2 DUP2 LT ISZERO PUSH2 0xDC6 JUMPI PUSH1 0x40 MLOAD PUSH32 0x8C379A000000000000000000000000000000000000000000000000000000000 DUP2 MSTORE PUSH1 0x4 ADD PUSH2 0xDBD SWAP1 PUSH2 0x1A3A JUMP JUMPDEST PUSH1 0x40 MLOAD DUP1 SWAP2 SUB SWAP1 REVERT JUMPDEST DUP2 DUP2 SUB PUSH1 0x0 DUP1 DUP7 PUSH20 0xFFFFFFFFFFFFFFFFFFFFFFFFFFFFFFFFFFFFFFFF AND PUSH20 0xFFFFFFFFFFFFFFFFFFFFFFFFFFFFFFFFFFFFFFFF AND DUP2 MSTORE PUSH1 0x20 ADD SWAP1 DUP2 MSTORE PUSH1 0x20 ADD PUSH1 0x0 KECCAK256 DUP2 SWAP1 SSTORE POP DUP2 PUSH1 0x0 DUP1 DUP6 PUSH20 0xFFFFFFFFFFFFFFFFFFFFFFFFFFFFFFFFFFFFFFFF AND PUSH20 0xFFFFFFFFFFFFFFFFFFFFFFFFFFFFFFFFFFFFFFFF AND DUP2 MSTORE PUSH1 0x20 ADD SWAP1 DUP2 MSTORE PUSH1 0x20 ADD PUSH1 0x0 KECCAK256 PUSH1 0x0 DUP3 DUP3 SLOAD PUSH2 0xE59 SWAP2 SWAP1 PUSH2 0x1B57 JUMP JUMPDEST SWAP3 POP POP DUP2 SWAP1 SSTORE POP DUP3 PUSH20 0xFFFFFFFFFFFFFFFFFFFFFFFFFFFFFFFFFFFFFFFF AND DUP5 PUSH20 0xFFFFFFFFFFFFFFFFFFFFFFFFFFFFFFFFFFFFFFFF AND PUSH32 0xDDF252AD1BE2C89B69C2B068FC378DAA952BA7F163C4A11628F55A4DF523B3EF DUP5 PUSH1 0x40 MLOAD PUSH2 0xEBD SWAP2 SWAP1 PUSH2 0x1AFA JUMP JUMPDEST PUSH1 0x40 MLOAD DUP1 SWAP2 SUB SWAP1 LOG3 PUSH2 0xED0 DUP5 DUP5 DUP5 PUSH2 0x1212 JUMP JUMPDEST POP POP POP POP JUMP JUMPDEST PUSH2 0xEE7 DUP2 PUSH2 0xEE2 PUSH2 0x9F6 JUMP JUMPDEST PUSH2 0x1217 JUMP JUMPDEST POP JUMP JUMPDEST PUSH2 0xEF4 DUP3 DUP3 PUSH2 0x722 JUMP JUMPDEST PUSH2 0xFC7 JUMPI PUSH1 0x1 PUSH1 0x5 PUSH1 0x0 DUP5 DUP2 MSTORE PUSH1 0x20 ADD SWAP1 DUP2 MSTORE PUSH1 0x20 ADD PUSH1 0x0 KECCAK256 PUSH1 0x0 ADD PUSH1 0x0 DUP4 PUSH20 0xFFFFFFFFFFFFFFFFFFFFFFFFFFFFFFFFFFFFFFFF AND PUSH20 0xFFFFFFFFFFFFFFFFFFFFFFFFFFFFFFFFFFFFFFFF AND DUP2 MSTORE PUSH1 0x20 ADD SWAP1 DUP2 MSTORE PUSH1 0x20 ADD PUSH1 0x0 KECCAK256 PUSH1 0x0 PUSH2 0x100 EXP DUP2 SLOAD DUP2 PUSH1 0xFF MUL NOT AND SWAP1 DUP4 ISZERO ISZERO MUL OR SWAP1 SSTORE POP PUSH2 0xF6C PUSH2 0x9F6 JUMP JUMPDEST PUSH20 0xFFFFFFFFFFFFFFFFFFFFFFFFFFFFFFFFFFFFFFFF AND DUP2 PUSH20 0xFFFFFFFFFFFFFFFFFFFFFFFFFFFFFFFFFFFFFFFF AND DUP4 PUSH32 0x2F8788117E7EFF1D82E926EC794901D17C78024A50270940304540A733656F0D PUSH1 0x40 MLOAD PUSH1 0x40 MLOAD DUP1 SWAP2 SUB SWAP1 LOG4 JUMPDEST POP POP JUMP JUMPDEST PUSH2 0xFD5 DUP3 DUP3 PUSH2 0x722 JUMP JUMPDEST ISZERO PUSH2 0x10A9 JUMPI PUSH1 0x0 PUSH1 0x5 PUSH1 0x0 DUP5 DUP2 MSTORE PUSH1 0x20 ADD SWAP1 DUP2 MSTORE PUSH1 0x20 ADD PUSH1 0x0 KECCAK256 PUSH1 0x0 ADD PUSH1 0x0 DUP4 PUSH20 0xFFFFFFFFFFFFFFFFFFFFFFFFFFFFFFFFFFFFFFFF AND PUSH20 0xFFFFFFFFFFFFFFFFFFFFFFFFFFFFFFFFFFFFFFFF AND DUP2 MSTORE PUSH1 0x20 ADD SWAP1 DUP2 MSTORE PUSH1 0x20 ADD PUSH1 0x0 KECCAK256 PUSH1 0x0 PUSH2 0x100 EXP DUP2 SLOAD DUP2 PUSH1 0xFF MUL NOT AND SWAP1 DUP4 ISZERO ISZERO MUL OR SWAP1 SSTORE POP PUSH2 0x104E PUSH2 0x9F6 JUMP JUMPDEST PUSH20 0xFFFFFFFFFFFFFFFFFFFFFFFFFFFFFFFFFFFFFFFF AND DUP2 PUSH20 0xFFFFFFFFFFFFFFFFFFFFFFFFFFFFFFFFFFFFFFFF AND DUP4 PUSH32 0xF6391F5C32D9C69D2A47EA670B442974B53935D1EDC7FD64EB21E047A839171B PUSH1 0x40 MLOAD PUSH1 0x40 MLOAD DUP1 SWAP2 SUB SWAP1 LOG4 JUMPDEST POP POP JUMP JUMPDEST PUSH1 0x0 PUSH20 0xFFFFFFFFFFFFFFFFFFFFFFFFFFFFFFFFFFFFFFFF AND DUP3 PUSH20 0xFFFFFFFFFFFFFFFFFFFFFFFFFFFFFFFFFFFFFFFF AND EQ ISZERO PUSH2 0x111D JUMPI PUSH1 0x40 MLOAD PUSH32 0x8C379A000000000000000000000000000000000000000000000000000000000 DUP2 MSTORE PUSH1 0x4 ADD PUSH2 0x1114 SWAP1 PUSH2 0x1ADA JUMP JUMPDEST PUSH1 0x40 MLOAD DUP1 SWAP2 SUB SWAP1 REVERT JUMPDEST PUSH2 0x1129 PUSH1 0x0 DUP4 DUP4 PUSH2 0x120D JUMP JUMPDEST DUP1 PUSH1 0x2 PUSH1 0x0 DUP3 DUP3 SLOAD PUSH2 0x113B SWAP2 SWAP1 PUSH2 0x1B57 JUMP JUMPDEST SWAP3 POP POP DUP2 SWAP1 SSTORE POP DUP1 PUSH1 0x0 DUP1 DUP5 PUSH20 0xFFFFFFFFFFFFFFFFFFFFFFFFFFFFFFFFFFFFFFFF AND PUSH20 0xFFFFFFFFFFFFFFFFFFFFFFFFFFFFFFFFFFFFFFFF AND DUP2 MSTORE PUSH1 0x20 ADD SWAP1 DUP2 MSTORE PUSH1 0x20 ADD PUSH1 0x0 KECCAK256 PUSH1 0x0 DUP3 DUP3 SLOAD PUSH2 0x1190 SWAP2 SWAP1 PUSH2 0x1B57 JUMP JUMPDEST SWAP3 POP POP DUP2 SWAP1 SSTORE POP DUP2 PUSH20 0xFFFFFFFFFFFFFFFFFFFFFFFFFFFFFFFFFFFFFFFF AND PUSH1 0x0 PUSH20 0xFFFFFFFFFFFFFFFFFFFFFFFFFFFFFFFFFFFFFFFF AND PUSH32 0xDDF252AD1BE2C89B69C2B068FC378DAA952BA7F163C4A11628F55A4DF523B3EF DUP4 PUSH1 0x40 MLOAD PUSH2 0x11F5 SWAP2 SWAP1 PUSH2 0x1AFA JUMP JUMPDEST PUSH1 0x40 MLOAD DUP1 SWAP2 SUB SWAP1 LOG3 PUSH2 0x1209 PUSH1 0x0 DUP4 DUP4 PUSH2 0x1212 JUMP JUMPDEST POP POP JUMP JUMPDEST POP POP POP JUMP JUMPDEST POP POP POP JUMP JUMPDEST PUSH2 0x1221 DUP3 DUP3 PUSH2 0x722 JUMP JUMPDEST PUSH2 0x12B0 JUMPI PUSH2 0x1246 DUP2 PUSH20 0xFFFFFFFFFFFFFFFFFFFFFFFFFFFFFFFFFFFFFFFF AND PUSH1 0x14 PUSH2 0x12B4 JUMP JUMPDEST PUSH2 0x1254 DUP4 PUSH1 0x0 SHR PUSH1 0x20 PUSH2 0x12B4 JUMP JUMPDEST PUSH1 0x40 MLOAD PUSH1 0x20 ADD PUSH2 0x1265 SWAP3 SWAP2 SWAP1 PUSH2 0x1928 JUMP JUMPDEST PUSH1 0x40 MLOAD PUSH1 0x20 DUP2 DUP4 SUB SUB DUP2 MSTORE SWAP1 PUSH1 0x40 MSTORE PUSH1 0x40 MLOAD PUSH32 0x8C379A000000000000000000000000000000000000000000000000000000000 DUP2 MSTORE PUSH1 0x4 ADD PUSH2 0x12A7 SWAP2 SWAP1 PUSH2 0x1998 JUMP JUMPDEST PUSH1 0x40 MLOAD DUP1 SWAP2 SUB SWAP1 REVERT JUMPDEST POP POP JUMP JUMPDEST PUSH1 0x60 PUSH1 0x0 PUSH1 0x2 DUP4 PUSH1 0x2 PUSH2 0x12C7 SWAP2 SWAP1 PUSH2 0x1BAD JUMP JUMPDEST PUSH2 0x12D1 SWAP2 SWAP1 PUSH2 0x1B57 JUMP JUMPDEST PUSH8 0xFFFFFFFFFFFFFFFF DUP2 GT ISZERO PUSH2 0x12EA JUMPI PUSH2 0x12E9 PUSH2 0x1DAE JUMP JUMPDEST JUMPDEST PUSH1 0x40 MLOAD SWAP1 DUP1 DUP3 MSTORE DUP1 PUSH1 0x1F ADD PUSH1 0x1F NOT AND PUSH1 0x20 ADD DUP3 ADD PUSH1 0x40 MSTORE DUP1 ISZERO PUSH2 0x131C JUMPI DUP2 PUSH1 0x20 ADD PUSH1 0x1 DUP3 MUL DUP1 CALLDATASIZE DUP4 CALLDATACOPY DUP1 DUP3 ADD SWAP2 POP POP SWAP1 POP JUMPDEST POP SWAP1 POP PUSH32 0x3000000000000000000000000000000000000000000000000000000000000000 DUP2 PUSH1 0x0 DUP2 MLOAD DUP2 LT PUSH2 0x1354 JUMPI PUSH2 0x1353 PUSH2 0x1D7F JUMP JUMPDEST JUMPDEST PUSH1 0x20 ADD ADD SWAP1 PUSH31 0xFFFFFFFFFFFFFFFFFFFFFFFFFFFFFFFFFFFFFFFFFFFFFFFFFFFFFFFFFFFFFF NOT AND SWAP1 DUP2 PUSH1 0x0 BYTE SWAP1 MSTORE8 POP PUSH32 0x7800000000000000000000000000000000000000000000000000000000000000 DUP2 PUSH1 0x1 DUP2 MLOAD DUP2 LT PUSH2 0x13B8 JUMPI PUSH2 0x13B7 PUSH2 0x1D7F JUMP JUMPDEST JUMPDEST PUSH1 0x20 ADD ADD SWAP1 PUSH31 0xFFFFFFFFFFFFFFFFFFFFFFFFFFFFFFFFFFFFFFFFFFFFFFFFFFFFFFFFFFFFFF NOT AND SWAP1 DUP2 PUSH1 0x0 BYTE SWAP1 MSTORE8 POP PUSH1 0x0 PUSH1 0x1 DUP5 PUSH1 0x2 PUSH2 0x13F8 SWAP2 SWAP1 PUSH2 0x1BAD JUMP JUMPDEST PUSH2 0x1402 SWAP2 SWAP1 PUSH2 0x1B57 JUMP JUMPDEST SWAP1 POP JUMPDEST PUSH1 0x1 DUP2 GT ISZERO PUSH2 0x14A2 JUMPI PUSH32 0x3031323334353637383961626364656600000000000000000000000000000000 PUSH1 0xF DUP7 AND PUSH1 0x10 DUP2 LT PUSH2 0x1444 JUMPI PUSH2 0x1443 PUSH2 0x1D7F JUMP JUMPDEST JUMPDEST BYTE PUSH1 0xF8 SHL DUP3 DUP3 DUP2 MLOAD DUP2 LT PUSH2 0x145B JUMPI PUSH2 0x145A PUSH2 0x1D7F JUMP JUMPDEST JUMPDEST PUSH1 0x20 ADD ADD SWAP1 PUSH31 0xFFFFFFFFFFFFFFFFFFFFFFFFFFFFFFFFFFFFFFFFFFFFFFFFFFFFFFFFFFFFFF NOT AND SWAP1 DUP2 PUSH1 0x0 BYTE SWAP1 MSTORE8 POP PUSH1 0x4 DUP6 SWAP1 SHR SWAP5 POP DUP1 PUSH2 0x149B SWAP1 PUSH2 0x1CC5 JUMP JUMPDEST SWAP1 POP PUSH2 0x1405 JUMP JUMPDEST POP PUSH1 0x0 DUP5 EQ PUSH2 0x14E6 JUMPI PUSH1 0x40 MLOAD PUSH32 0x8C379A000000000000000000000000000000000000000000000000000000000 DUP2 MSTORE PUSH1 0x4 ADD PUSH2 0x14DD SWAP1 PUSH2 0x19BA JUMP JUMPDEST PUSH1 0x40 MLOAD DUP1 SWAP2 SUB SWAP1 REVERT JUMPDEST DUP1 SWAP2 POP POP SWAP3 SWAP2 POP POP JUMP JUMPDEST PUSH1 0x0 DUP2 CALLDATALOAD SWAP1 POP PUSH2 0x14FF DUP2 PUSH2 0x20E9 JUMP JUMPDEST SWAP3 SWAP2 POP POP JUMP JUMPDEST PUSH1 0x0 DUP2 CALLDATALOAD SWAP1 POP PUSH2 0x1514 DUP2 PUSH2 0x2100 JUMP JUMPDEST SWAP3 SWAP2 POP POP JUMP JUMPDEST PUSH1 0x0 DUP2 CALLDATALOAD SWAP1 POP PUSH2 0x1529 DUP2 PUSH2 0x2117 JUMP JUMPDEST SWAP3 SWAP2 POP POP JUMP JUMPDEST PUSH1 0x0 DUP2 CALLDATALOAD SWAP1 POP PUSH2 0x153E DUP2 PUSH2 0x212E JUMP JUMPDEST SWAP3 SWAP2 POP POP JUMP JUMPDEST PUSH1 0x0 PUSH1 0x20 DUP3 DUP5 SUB SLT ISZERO PUSH2 0x155A JUMPI PUSH2 0x1559 PUSH2 0x1DDD JUMP JUMPDEST JUMPDEST PUSH1 0x0 PUSH2 0x1568 DUP5 DUP3 DUP6 ADD PUSH2 0x14F0 JUMP JUMPDEST SWAP2 POP POP SWAP3 SWAP2 POP POP JUMP JUMPDEST PUSH1 0x0 DUP1 PUSH1 0x40 DUP4 DUP6 SUB SLT ISZERO PUSH2 0x1588 JUMPI PUSH2 0x1587 PUSH2 0x1DDD JUMP JUMPDEST JUMPDEST PUSH1 0x0 PUSH2 0x1596 DUP6 DUP3 DUP7 ADD PUSH2 0x14F0 JUMP JUMPDEST SWAP3 POP POP PUSH1 0x20 PUSH2 0x15A7 DUP6 DUP3 DUP7 ADD PUSH2 0x14F0 JUMP JUMPDEST SWAP2 POP POP SWAP3 POP SWAP3 SWAP1 POP JUMP JUMPDEST PUSH1 0x0 DUP1 PUSH1 0x0 PUSH1 0x60 DUP5 DUP7 SUB SLT ISZERO PUSH2 0x15CA JUMPI PUSH2 0x15C9 PUSH2 0x1DDD JUMP JUMPDEST JUMPDEST PUSH1 0x0 PUSH2 0x15D8 DUP7 DUP3 DUP8 ADD PUSH2 0x14F0 JUMP JUMPDEST SWAP4 POP POP PUSH1 0x20 PUSH2 0x15E9 DUP7 DUP3 DUP8 ADD PUSH2 0x14F0 JUMP JUMPDEST SWAP3 POP POP PUSH1 0x40 PUSH2 0x15FA DUP7 DUP3 DUP8 ADD PUSH2 0x152F JUMP JUMPDEST SWAP2 POP POP SWAP3 POP SWAP3 POP SWAP3 JUMP JUMPDEST PUSH1 0x0 DUP1 PUSH1 0x40 DUP4 DUP6 SUB SLT ISZERO PUSH2 0x161B JUMPI PUSH2 0x161A PUSH2 0x1DDD JUMP JUMPDEST JUMPDEST PUSH1 0x0 PUSH2 0x1629 DUP6 DUP3 DUP7 ADD PUSH2 0x14F0 JUMP JUMPDEST SWAP3 POP POP PUSH1 0x20 PUSH2 0x163A DUP6 DUP3 DUP7 ADD PUSH2 0x152F JUMP JUMPDEST SWAP2 POP POP SWAP3 POP SWAP3 SWAP1 POP JUMP JUMPDEST PUSH1 0x0 PUSH1 0x20 DUP3 DUP5 SUB SLT ISZERO PUSH2 0x165A JUMPI PUSH2 0x1659 PUSH2 0x1DDD JUMP JUMPDEST JUMPDEST PUSH1 0x0 PUSH2 0x1668 DUP5 DUP3 DUP6 ADD PUSH2 0x1505 JUMP JUMPDEST SWAP2 POP POP SWAP3 SWAP2 POP POP JUMP JUMPDEST PUSH1 0x0 DUP1 PUSH1 0x40 DUP4 DUP6 SUB SLT ISZERO PUSH2 0x1688 JUMPI PUSH2 0x1687 PUSH2 0x1DDD JUMP JUMPDEST JUMPDEST PUSH1 0x0 PUSH2 0x1696 DUP6 DUP3 DUP7 ADD PUSH2 0x1505 JUMP JUMPDEST SWAP3 POP POP PUSH1 0x20 PUSH2 0x16A7 DUP6 DUP3 DUP7 ADD PUSH2 0x14F0 JUMP JUMPDEST SWAP2 POP POP SWAP3 POP SWAP3 SWAP1 POP JUMP JUMPDEST PUSH1 0x0 PUSH1 0x20 DUP3 DUP5 SUB SLT ISZERO PUSH2 0x16C7 JUMPI PUSH2 0x16C6 PUSH2 0x1DDD JUMP JUMPDEST JUMPDEST PUSH1 0x0 PUSH2 0x16D5 DUP5 DUP3 DUP6 ADD PUSH2 0x151A JUMP JUMPDEST SWAP2 POP POP SWAP3 SWAP2 POP POP JUMP JUMPDEST PUSH2 0x16E7 DUP2 PUSH2 0x1C19 JUMP JUMPDEST DUP3 MSTORE POP POP JUMP JUMPDEST PUSH2 0x16F6 DUP2 PUSH2 0x1C25 JUMP JUMPDEST DUP3 MSTORE POP POP JUMP JUMPDEST PUSH1 0x0 PUSH2 0x1707 DUP3 PUSH2 0x1B30 JUMP JUMPDEST PUSH2 0x1711 DUP2 DUP6 PUSH2 0x1B3B JUMP JUMPDEST SWAP4 POP PUSH2 0x1721 DUP2 DUP6 PUSH1 0x20 DUP7 ADD PUSH2 0x1C92 JUMP JUMPDEST PUSH2 0x172A DUP2 PUSH2 0x1DE2 JUMP JUMPDEST DUP5 ADD SWAP2 POP POP SWAP3 SWAP2 POP POP JUMP JUMPDEST PUSH1 0x0 PUSH2 0x1740 DUP3 PUSH2 0x1B30 JUMP JUMPDEST PUSH2 0x174A DUP2 DUP6 PUSH2 0x1B4C JUMP JUMPDEST SWAP4 POP PUSH2 0x175A DUP2 DUP6 PUSH1 0x20 DUP7 ADD PUSH2 0x1C92 JUMP JUMPDEST DUP1 DUP5 ADD SWAP2 POP POP SWAP3 SWAP2 POP POP JUMP JUMPDEST PUSH1 0x0 PUSH2 0x1773 PUSH1 0x20 DUP4 PUSH2 0x1B3B JUMP JUMPDEST SWAP2 POP PUSH2 0x177E DUP3 PUSH2 0x1DF3 JUMP JUMPDEST PUSH1 0x20 DUP3 ADD SWAP1 POP SWAP2 SWAP1 POP JUMP JUMPDEST PUSH1 0x0 PUSH2 0x1796 PUSH1 0x23 DUP4 PUSH2 0x1B3B JUMP JUMPDEST SWAP2 POP PUSH2 0x17A1 DUP3 PUSH2 0x1E1C JUMP JUMPDEST PUSH1 0x40 DUP3 ADD SWAP1 POP SWAP2 SWAP1 POP JUMP JUMPDEST PUSH1 0x0 PUSH2 0x17B9 PUSH1 0x22 DUP4 PUSH2 0x1B3B JUMP JUMPDEST SWAP2 POP PUSH2 0x17C4 DUP3 PUSH2 0x1E6B JUMP JUMPDEST PUSH1 0x40 DUP3 ADD SWAP1 POP SWAP2 SWAP1 POP JUMP JUMPDEST PUSH1 0x0 PUSH2 0x17DC PUSH1 0x1D DUP4 PUSH2 0x1B3B JUMP JUMPDEST SWAP2 POP PUSH2 0x17E7 DUP3 PUSH2 0x1EBA JUMP JUMPDEST PUSH1 0x20 DUP3 ADD SWAP1 POP SWAP2 SWAP1 POP JUMP JUMPDEST PUSH1 0x0 PUSH2 0x17FF PUSH1 0x26 DUP4 PUSH2 0x1B3B JUMP JUMPDEST SWAP2 POP PUSH2 0x180A DUP3 PUSH2 0x1EE3 JUMP JUMPDEST PUSH1 0x40 DUP3 ADD SWAP1 POP SWAP2 SWAP1 POP JUMP JUMPDEST PUSH1 0x0 PUSH2 0x1822 PUSH1 0x25 DUP4 PUSH2 0x1B3B JUMP JUMPDEST SWAP2 POP PUSH2 0x182D DUP3 PUSH2 0x1F32 JUMP JUMPDEST PUSH1 0x40 DUP3 ADD SWAP1 POP SWAP2 SWAP1 POP JUMP JUMPDEST PUSH1 0x0 PUSH2 0x1845 PUSH1 0x24 DUP4 PUSH2 0x1B3B JUMP JUMPDEST SWAP2 POP PUSH2 0x1850 DUP3 PUSH2 0x1F81 JUMP JUMPDEST PUSH1 0x40 DUP3 ADD SWAP1 POP SWAP2 SWAP1 POP JUMP JUMPDEST PUSH1 0x0 PUSH2 0x1868 PUSH1 0x17 DUP4 PUSH2 0x1B4C JUMP JUMPDEST SWAP2 POP PUSH2 0x1873 DUP3 PUSH2 0x1FD0 JUMP JUMPDEST PUSH1 0x17 DUP3 ADD SWAP1 POP SWAP2 SWAP1 POP JUMP JUMPDEST PUSH1 0x0 PUSH2 0x188B PUSH1 0x25 DUP4 PUSH2 0x1B3B JUMP JUMPDEST SWAP2 POP PUSH2 0x1896 DUP3 PUSH2 0x1FF9 JUMP JUMPDEST PUSH1 0x40 DUP3 ADD SWAP1 POP SWAP2 SWAP1 POP JUMP JUMPDEST PUSH1 0x0 PUSH2 0x18AE PUSH1 0x11 DUP4 PUSH2 0x1B4C JUMP JUMPDEST SWAP2 POP PUSH2 0x18B9 DUP3 PUSH2 0x2048 JUMP JUMPDEST PUSH1 0x11 DUP3 ADD SWAP1 POP SWAP2 SWAP1 POP JUMP JUMPDEST PUSH1 0x0 PUSH2 0x18D1 PUSH1 0x2F DUP4 PUSH2 0x1B3B JUMP JUMPDEST SWAP2 POP PUSH2 0x18DC DUP3 PUSH2 0x2071 JUMP JUMPDEST PUSH1 0x40 DUP3 ADD SWAP1 POP SWAP2 SWAP1 POP JUMP JUMPDEST PUSH1 0x0 PUSH2 0x18F4 PUSH1 0x1F DUP4 PUSH2 0x1B3B JUMP JUMPDEST SWAP2 POP PUSH2 0x18FF DUP3 PUSH2 0x20C0 JUMP JUMPDEST PUSH1 0x20 DUP3 ADD SWAP1 POP SWAP2 SWAP1 POP JUMP JUMPDEST PUSH2 0x1913 DUP2 PUSH2 0x1C7B JUMP JUMPDEST DUP3 MSTORE POP POP JUMP JUMPDEST PUSH2 0x1922 DUP2 PUSH2 0x1C85 JUMP JUMPDEST DUP3 MSTORE POP POP JUMP JUMPDEST PUSH1 0x0 PUSH2 0x1933 DUP3 PUSH2 0x185B JUMP JUMPDEST SWAP2 POP PUSH2 0x193F DUP3 DUP6 PUSH2 0x1735 JUMP JUMPDEST SWAP2 POP PUSH2 0x194A DUP3 PUSH2 0x18A1 JUMP JUMPDEST SWAP2 POP PUSH2 0x1956 DUP3 DUP5 PUSH2 0x1735 JUMP JUMPDEST SWAP2 POP DUP2 SWAP1 POP SWAP4 SWAP3 POP POP POP JUMP JUMPDEST PUSH1 0x0 PUSH1 0x20 DUP3 ADD SWAP1 POP PUSH2 0x1977 PUSH1 0x0 DUP4 ADD DUP5 PUSH2 0x16DE JUMP JUMPDEST SWAP3 SWAP2 POP POP JUMP JUMPDEST PUSH1 0x0 PUSH1 0x20 DUP3 ADD SWAP1 POP PUSH2 0x1992 PUSH1 0x0 DUP4 ADD DUP5 PUSH2 0x16ED JUMP JUMPDEST SWAP3 SWAP2 POP POP JUMP JUMPDEST PUSH1 0x0 PUSH1 0x20 DUP3 ADD SWAP1 POP DUP2 DUP2 SUB PUSH1 0x0 DUP4 ADD MSTORE PUSH2 0x19B2 DUP2 DUP5 PUSH2 0x16FC JUMP JUMPDEST SWAP1 POP SWAP3 SWAP2 POP POP JUMP JUMPDEST PUSH1 0x0 PUSH1 0x20 DUP3 ADD SWAP1 POP DUP2 DUP2 SUB PUSH1 0x0 DUP4 ADD MSTORE PUSH2 0x19D3 DUP2 PUSH2 0x1766 JUMP JUMPDEST SWAP1 POP SWAP2 SWAP1 POP JUMP JUMPDEST PUSH1 0x0 PUSH1 0x20 DUP3 ADD SWAP1 POP DUP2 DUP2 SUB PUSH1 0x0 DUP4 ADD MSTORE PUSH2 0x19F3 DUP2 PUSH2 0x1789 JUMP JUMPDEST SWAP1 POP SWAP2 SWAP1 POP JUMP JUMPDEST PUSH1 0x0 PUSH1 0x20 DUP3 ADD SWAP1 POP DUP2 DUP2 SUB PUSH1 0x0 DUP4 ADD MSTORE PUSH2 0x1A13 DUP2 PUSH2 0x17AC JUMP JUMPDEST SWAP1 POP SWAP2 SWAP1 POP JUMP JUMPDEST PUSH1 0x0 PUSH1 0x20 DUP3 ADD SWAP1 POP DUP2 DUP2 SUB PUSH1 0x0 DUP4 ADD MSTORE PUSH2 0x1A33 DUP2 PUSH2 0x17CF JUMP JUMPDEST SWAP1 POP SWAP2 SWAP1 POP JUMP JUMPDEST PUSH1 0x0 PUSH1 0x20 DUP3 ADD SWAP1 POP DUP2 DUP2 SUB PUSH1 0x0 DUP4 ADD MSTORE PUSH2 0x1A53 DUP2 PUSH2 0x17F2 JUMP JUMPDEST SWAP1 POP SWAP2 SWAP1 POP JUMP JUMPDEST PUSH1 0x0 PUSH1 0x20 DUP3 ADD SWAP1 POP DUP2 DUP2 SUB PUSH1 0x0 DUP4 ADD MSTORE PUSH2 0x1A73 DUP2 PUSH2 0x1815 JUMP JUMPDEST SWAP1 POP SWAP2 SWAP1 POP JUMP JUMPDEST PUSH1 0x0 PUSH1 0x20 DUP3 ADD SWAP1 POP DUP2 DUP2 SUB PUSH1 0x0 DUP4 ADD MSTORE PUSH2 0x1A93 DUP2 PUSH2 0x1838 JUMP JUMPDEST SWAP1 POP SWAP2 SWAP1 POP JUMP JUMPDEST PUSH1 0x0 PUSH1 0x20 DUP3 ADD SWAP1 POP DUP2 DUP2 SUB PUSH1 0x0 DUP4 ADD MSTORE PUSH2 0x1AB3 DUP2 PUSH2 0x187E JUMP JUMPDEST SWAP1 POP SWAP2 SWAP1 POP JUMP JUMPDEST PUSH1 0x0 PUSH1 0x20 DUP3 ADD SWAP1 POP DUP2 DUP2 SUB PUSH1 0x0 DUP4 ADD MSTORE PUSH2 0x1AD3 DUP2 PUSH2 0x18C4 JUMP JUMPDEST SWAP1 POP SWAP2 SWAP1 POP JUMP JUMPDEST PUSH1 0x0 PUSH1 0x20 DUP3 ADD SWAP1 POP DUP2 DUP2 SUB PUSH1 0x0 DUP4 ADD MSTORE PUSH2 0x1AF3 DUP2 PUSH2 0x18E7 JUMP JUMPDEST SWAP1 POP SWAP2 SWAP1 POP JUMP JUMPDEST PUSH1 0x0 PUSH1 0x20 DUP3 ADD SWAP1 POP PUSH2 0x1B0F PUSH1 0x0 DUP4 ADD DUP5 PUSH2 0x190A JUMP JUMPDEST SWAP3 SWAP2 POP POP JUMP JUMPDEST PUSH1 0x0 PUSH1 0x20 DUP3 ADD SWAP1 POP PUSH2 0x1B2A PUSH1 0x0 DUP4 ADD DUP5 PUSH2 0x1919 JUMP JUMPDEST SWAP3 SWAP2 POP POP JUMP JUMPDEST PUSH1 0x0 DUP2 MLOAD SWAP1 POP SWAP2 SWAP1 POP JUMP JUMPDEST PUSH1 0x0 DUP3 DUP3 MSTORE PUSH1 0x20 DUP3 ADD SWAP1 POP SWAP3 SWAP2 POP POP JUMP JUMPDEST PUSH1 0x0 DUP2 SWAP1 POP SWAP3 SWAP2 POP POP JUMP JUMPDEST PUSH1 0x0 PUSH2 0x1B62 DUP3 PUSH2 0x1C7B JUMP JUMPDEST SWAP2 POP PUSH2 0x1B6D DUP4 PUSH2 0x1C7B JUMP JUMPDEST SWAP3 POP DUP3 PUSH32 0xFFFFFFFFFFFFFFFFFFFFFFFFFFFFFFFFFFFFFFFFFFFFFFFFFFFFFFFFFFFFFFFF SUB DUP3 GT ISZERO PUSH2 0x1BA2 JUMPI PUSH2 0x1BA1 PUSH2 0x1D21 JUMP JUMPDEST JUMPDEST DUP3 DUP3 ADD SWAP1 POP SWAP3 SWAP2 POP POP JUMP JUMPDEST PUSH1 0x0 PUSH2 0x1BB8 DUP3 PUSH2 0x1C7B JUMP JUMPDEST SWAP2 POP PUSH2 0x1BC3 DUP4 PUSH2 0x1C7B JUMP JUMPDEST SWAP3 POP DUP2 PUSH32 0xFFFFFFFFFFFFFFFFFFFFFFFFFFFFFFFFFFFFFFFFFFFFFFFFFFFFFFFFFFFFFFFF DIV DUP4 GT DUP3 ISZERO ISZERO AND ISZERO PUSH2 0x1BFC JUMPI PUSH2 0x1BFB PUSH2 0x1D21 JUMP JUMPDEST JUMPDEST DUP3 DUP3 MUL SWAP1 POP SWAP3 SWAP2 POP POP JUMP JUMPDEST PUSH1 0x0 PUSH2 0x1C12 DUP3 PUSH2 0x1C5B JUMP JUMPDEST SWAP1 POP SWAP2 SWAP1 POP JUMP JUMPDEST PUSH1 0x0 DUP2 ISZERO ISZERO SWAP1 POP SWAP2 SWAP1 POP JUMP JUMPDEST PUSH1 0x0 DUP2 SWAP1 POP SWAP2 SWAP1 POP JUMP JUMPDEST PUSH1 0x0 PUSH32 0xFFFFFFFF00000000000000000000000000000000000000000000000000000000 DUP3 AND SWAP1 POP SWAP2 SWAP1 POP JUMP JUMPDEST PUSH1 0x0 PUSH20 0xFFFFFFFFFFFFFFFFFFFFFFFFFFFFFFFFFFFFFFFF DUP3 AND SWAP1 POP SWAP2 SWAP1 POP JUMP JUMPDEST PUSH1 0x0 DUP2 SWAP1 POP SWAP2 SWAP1 POP JUMP JUMPDEST PUSH1 0x0 PUSH1 0xFF DUP3 AND SWAP1 POP SWAP2 SWAP1 POP JUMP JUMPDEST PUSH1 0x0 JUMPDEST DUP4 DUP2 LT ISZERO PUSH2 0x1CB0 JUMPI DUP1 DUP3 ADD MLOAD DUP2 DUP5 ADD MSTORE PUSH1 0x20 DUP2 ADD SWAP1 POP PUSH2 0x1C95 JUMP JUMPDEST DUP4 DUP2 GT ISZERO PUSH2 0x1CBF JUMPI PUSH1 0x0 DUP5 DUP5 ADD MSTORE JUMPDEST POP POP POP POP JUMP JUMPDEST PUSH1 0x0 PUSH2 0x1CD0 DUP3 PUSH2 0x1C7B JUMP JUMPDEST SWAP2 POP PUSH1 0x0 DUP3 EQ ISZERO PUSH2 0x1CE4 JUMPI PUSH2 0x1CE3 PUSH2 0x1D21 JUMP JUMPDEST JUMPDEST PUSH1 0x1 DUP3 SUB SWAP1 POP SWAP2 SWAP1 POP JUMP JUMPDEST PUSH1 0x0 PUSH1 0x2 DUP3 DIV SWAP1 POP PUSH1 0x1 DUP3 AND DUP1 PUSH2 0x1D07 JUMPI PUSH1 0x7F DUP3 AND SWAP2 POP JUMPDEST PUSH1 0x20 DUP3 LT DUP2 EQ ISZERO PUSH2 0x1D1B JUMPI PUSH2 0x1D1A PUSH2 0x1D50 JUMP JUMPDEST JUMPDEST POP SWAP2 SWAP1 POP JUMP JUMPDEST PUSH32 0x4E487B7100000000000000000000000000000000000000000000000000000000 PUSH1 0x0 MSTORE PUSH1 0x11 PUSH1 0x4 MSTORE PUSH1 0x24 PUSH1 0x0 REVERT JUMPDEST PUSH32 0x4E487B7100000000000000000000000000000000000000000000000000000000 PUSH1 0x0 MSTORE PUSH1 0x22 PUSH1 0x4 MSTORE PUSH1 0x24 PUSH1 0x0 REVERT JUMPDEST PUSH32 0x4E487B7100000000000000000000000000000000000000000000000000000000 PUSH1 0x0 MSTORE PUSH1 0x32 PUSH1 0x4 MSTORE PUSH1 0x24 PUSH1 0x0 REVERT JUMPDEST PUSH32 0x4E487B7100000000000000000000000000000000000000000000000000000000 PUSH1 0x0 MSTORE PUSH1 0x41 PUSH1 0x4 MSTORE PUSH1 0x24 PUSH1 0x0 REVERT JUMPDEST PUSH1 0x0 DUP1 REVERT JUMPDEST PUSH1 0x0 PUSH1 0x1F NOT PUSH1 0x1F DUP4 ADD AND SWAP1 POP SWAP2 SWAP1 POP JUMP JUMPDEST PUSH32 0x537472696E67733A20686578206C656E67746820696E73756666696369656E74 PUSH1 0x0 DUP3 ADD MSTORE POP JUMP JUMPDEST PUSH32 0x45524332303A207472616E7366657220746F20746865207A65726F2061646472 PUSH1 0x0 DUP3 ADD MSTORE PUSH32 0x6573730000000000000000000000000000000000000000000000000000000000 PUSH1 0x20 DUP3 ADD MSTORE POP JUMP JUMPDEST PUSH32 0x45524332303A20617070726F766520746F20746865207A65726F206164647265 PUSH1 0x0 DUP3 ADD MSTORE PUSH32 0x7373000000000000000000000000000000000000000000000000000000000000 PUSH1 0x20 DUP3 ADD MSTORE POP JUMP JUMPDEST PUSH32 0x45524332303A20696E73756666696369656E7420616C6C6F77616E6365000000 PUSH1 0x0 DUP3 ADD MSTORE POP JUMP JUMPDEST PUSH32 0x45524332303A207472616E7366657220616D6F756E7420657863656564732062 PUSH1 0x0 DUP3 ADD MSTORE PUSH32 0x616C616E63650000000000000000000000000000000000000000000000000000 PUSH1 0x20 DUP3 ADD MSTORE POP JUMP JUMPDEST PUSH32 0x45524332303A207472616E736665722066726F6D20746865207A65726F206164 PUSH1 0x0 DUP3 ADD MSTORE PUSH32 0x6472657373000000000000000000000000000000000000000000000000000000 PUSH1 0x20 DUP3 ADD MSTORE POP JUMP JUMPDEST PUSH32 0x45524332303A20617070726F76652066726F6D20746865207A65726F20616464 PUSH1 0x0 DUP3 ADD MSTORE PUSH32 0x7265737300000000000000000000000000000000000000000000000000000000 PUSH1 0x20 DUP3 ADD MSTORE POP JUMP JUMPDEST PUSH32 0x416363657373436F6E74726F6C3A206163636F756E7420000000000000000000 PUSH1 0x0 DUP3 ADD MSTORE POP JUMP JUMPDEST PUSH32 0x45524332303A2064656372656173656420616C6C6F77616E63652062656C6F77 PUSH1 0x0 DUP3 ADD MSTORE PUSH32 0x207A65726F000000000000000000000000000000000000000000000000000000 PUSH1 0x20 DUP3 ADD MSTORE POP JUMP JUMPDEST PUSH32 0x206973206D697373696E6720726F6C6520000000000000000000000000000000 PUSH1 0x0 DUP3 ADD MSTORE POP JUMP JUMPDEST PUSH32 0x416363657373436F6E74726F6C3A2063616E206F6E6C792072656E6F756E6365 PUSH1 0x0 DUP3 ADD MSTORE PUSH32 0x20726F6C657320666F722073656C660000000000000000000000000000000000 PUSH1 0x20 DUP3 ADD MSTORE POP JUMP JUMPDEST PUSH32 0x45524332303A206D696E7420746F20746865207A65726F206164647265737300 PUSH1 0x0 DUP3 ADD MSTORE POP JUMP JUMPDEST PUSH2 0x20F2 DUP2 PUSH2 0x1C07 JUMP JUMPDEST DUP2 EQ PUSH2 0x20FD JUMPI PUSH1 0x0 DUP1 REVERT JUMPDEST POP JUMP JUMPDEST PUSH2 0x2109 DUP2 PUSH2 0x1C25 JUMP JUMPDEST DUP2 EQ PUSH2 0x2114 JUMPI PUSH1 0x0 DUP1 REVERT JUMPDEST POP JUMP JUMPDEST PUSH2 0x2120 DUP2 PUSH2 0x1C2F JUMP JUMPDEST DUP2 EQ PUSH2 0x212B JUMPI PUSH1 0x0 DUP1 REVERT JUMPDEST POP JUMP JUMPDEST PUSH2 0x2137 DUP2 PUSH2 0x1C7B JUMP JUMPDEST DUP2 EQ PUSH2 0x2142 JUMPI PUSH1 0x0 DUP1 REVERT JUMPDEST POP JUMP INVALID LOG2 PUSH5 0x6970667358 0x22 SLT KECCAK256 PUSH32 0x232B7B020FD8CDD796173B0833151EA9CB594786947B92DA04533CC4B5033864 PUSH20 0x6F6C634300080700330000000000000000000000 "
				},
				"gasEstimates": {
					"creation": {
						"codeDepositCost": "1714200",
						"executionCost": "infinite",
						"totalCost": "infinite"
					},
					"external": {
						"DEFAULT_ADMIN_ROLE()": "446",
						"MINTER_ROLE()": "395",
						"allowance(address,address)": "infinite",
						"approve(address,uint256)": "infinite",
						"balanceOf(address)": "2886",
						"decimals()": "410",
						"decreaseAllowance(address,uint256)": "infinite",
						"getRoleAdmin(bytes32)": "infinite",
						"grantRole(bytes32,address)": "infinite",
						"hasRole(bytes32,address)": "3207",
						"increaseAllowance(address,uint256)": "infinite",
						"mint(address,uint256)": "infinite",
						"name()": "infinite",
						"renounceRole(bytes32,address)": "infinite",
						"revokeRole(bytes32,address)": "infinite",
						"supportsInterface(bytes4)": "751",
						"symbol()": "infinite",
						"totalSupply()": "2527",
						"transfer(address,uint256)": "infinite",
						"transferFrom(address,address,uint256)": "infinite"
					}
				},
				"methodIdentifiers": {
					"DEFAULT_ADMIN_ROLE()": "a217fddf",
					"MINTER_ROLE()": "d5391393",
					"allowance(address,address)": "dd62ed3e",
					"approve(address,uint256)": "095ea7b3",
					"balanceOf(address)": "70a08231",
					"decimals()": "313ce567",
					"decreaseAllowance(address,uint256)": "a457c2d7",
					"getRoleAdmin(bytes32)": "248a9ca3",
					"grantRole(bytes32,address)": "2f2ff15d",
					"hasRole(bytes32,address)": "91d14854",
					"increaseAllowance(address,uint256)": "39509351",
					"mint(address,uint256)": "40c10f19",
					"name()": "06fdde03",
					"renounceRole(bytes32,address)": "36568abe",
					"revokeRole(bytes32,address)": "d547741f",
					"supportsInterface(bytes4)": "01ffc9a7",
					"symbol()": "95d89b41",
					"totalSupply()": "18160ddd",
					"transfer(address,uint256)": "a9059cbb",
					"transferFrom(address,address,uint256)": "23b872dd"
				}
			},
			"storageLayout": {
				"storage": [
					{
						"astId": 408,
						"contract": "contracts/25_Roles.sol:Roles",
						"label": "_balances",
						"offset": 0,
						"slot": "0",
						"type": "t_mapping(t_address,t_uint256)"
					},
					{
						"astId": 414,
						"contract": "contracts/25_Roles.sol:Roles",
						"label": "_allowances",
						"offset": 0,
						"slot": "1",
						"type": "t_mapping(t_address,t_mapping(t_address,t_uint256))"
					},
					{
						"astId": 416,
						"contract": "contracts/25_Roles.sol:Roles",
						"label": "_totalSupply",
						"offset": 0,
						"slot": "2",
						"type": "t_uint256"
					},
					{
						"astId": 418,
						"contract": "contracts/25_Roles.sol:Roles",
						"label": "_name",
						"offset": 0,
						"slot": "3",
						"type": "t_string_storage"
					},
					{
						"astId": 420,
						"contract": "contracts/25_Roles.sol:Roles",
						"label": "_symbol",
						"offset": 0,
						"slot": "4",
						"type": "t_string_storage"
					},
					{
						"astId": 24,
						"contract": "contracts/25_Roles.sol:Roles",
						"label": "_roles",
						"offset": 0,
						"slot": "5",
						"type": "t_mapping(t_bytes32,t_struct(RoleData)19_storage)"
					}
				],
				"types": {
					"t_address": {
						"encoding": "inplace",
						"label": "address",
						"numberOfBytes": "20"
					},
					"t_bool": {
						"encoding": "inplace",
						"label": "bool",
						"numberOfBytes": "1"
					},
					"t_bytes32": {
						"encoding": "inplace",
						"label": "bytes32",
						"numberOfBytes": "32"
					},
					"t_mapping(t_address,t_bool)": {
						"encoding": "mapping",
						"key": "t_address",
						"label": "mapping(address => bool)",
						"numberOfBytes": "32",
						"value": "t_bool"
					},
					"t_mapping(t_address,t_mapping(t_address,t_uint256))": {
						"encoding": "mapping",
						"key": "t_address",
						"label": "mapping(address => mapping(address => uint256))",
						"numberOfBytes": "32",
						"value": "t_mapping(t_address,t_uint256)"
					},
					"t_mapping(t_address,t_uint256)": {
						"encoding": "mapping",
						"key": "t_address",
						"label": "mapping(address => uint256)",
						"numberOfBytes": "32",
						"value": "t_uint256"
					},
					"t_mapping(t_bytes32,t_struct(RoleData)19_storage)": {
						"encoding": "mapping",
						"key": "t_bytes32",
						"label": "mapping(bytes32 => struct AccessControl.RoleData)",
						"numberOfBytes": "32",
						"value": "t_struct(RoleData)19_storage"
					},
					"t_string_storage": {
						"encoding": "bytes",
						"label": "string",
						"numberOfBytes": "32"
					},
					"t_struct(RoleData)19_storage": {
						"encoding": "inplace",
						"label": "struct AccessControl.RoleData",
						"members": [
							{
								"astId": 16,
								"contract": "contracts/25_Roles.sol:Roles",
								"label": "members",
								"offset": 0,
								"slot": "0",
								"type": "t_mapping(t_address,t_bool)"
							},
							{
								"astId": 18,
								"contract": "contracts/25_Roles.sol:Roles",
								"label": "adminRole",
								"offset": 0,
								"slot": "1",
								"type": "t_bytes32"
							}
						],
						"numberOfBytes": "64"
					},
					"t_uint256": {
						"encoding": "inplace",
						"label": "uint256",
						"numberOfBytes": "32"
					}
				}
			},
			"userdoc": {
				"kind": "user",
				"methods": {},
				"version": 1
			}
		}
	}
}