{
	"contracts/17_ReceiveTokenContract.sol": {
		"ReceiveTokenContract": {
			"abi": [
				{
					"inputs": [
						{
							"internalType": "address",
							"name": "_tokenAddress",
							"type": "address"
						}
					],
					"stateMutability": "nonpayable",
					"type": "constructor"
				},
				{
					"inputs": [
						{
							"internalType": "address",
							"name": "_address",
							"type": "address"
						}
					],
					"name": "getBalance",
					"outputs": [
						{
							"internalType": "uint256",
							"name": "",
							"type": "uint256"
						}
					],
					"stateMutability": "view",
					"type": "function"
				},
				{
					"inputs": [],
					"name": "kill",
					"outputs": [],
					"stateMutability": "nonpayable",
					"type": "function"
				},
				{
					"inputs": [
						{
							"internalType": "uint256",
							"name": "_amount",
							"type": "uint256"
						}
					],
					"name": "transferFrom",
					"outputs": [],
					"stateMutability": "nonpayable",
					"type": "function"
				}
			],
			"devdoc": {
				"kind": "dev",
				"methods": {},
				"version": 1
			},
			"evm": {
				"assembly": "    /* \"contracts/17_ReceiveTokenContract.sol\":128:939  contract ReceiveTokenContract{... */\n  mstore(0x40, 0x80)\n    /* \"contracts/17_ReceiveTokenContract.sol\":203:362  constructor(address _tokenAddress){... */\n  callvalue\n  dup1\n  iszero\n  tag_1\n  jumpi\n  0x00\n  dup1\n  revert\ntag_1:\n  pop\n  mload(0x40)\n  sub(codesize, bytecodeSize)\n  dup1\n  bytecodeSize\n  dup4\n  codecopy\n  dup2\n  dup2\n  add\n  0x40\n  mstore\n  dup2\n  add\n  swap1\n  tag_2\n  swap2\n  swap1\n  tag_3\n  jump\t// in\ntag_2:\n    /* \"contracts/17_ReceiveTokenContract.sol\":262:275  _tokenAddress */\n  dup1\n    /* \"contracts/17_ReceiveTokenContract.sol\":247:254  myToken */\n  0x00\n  dup1\n    /* \"contracts/17_ReceiveTokenContract.sol\":247:276  myToken=IERC20(_tokenAddress) */\n  0x0100\n  exp\n  dup2\n  sload\n  dup2\n  0xffffffffffffffffffffffffffffffffffffffff\n  mul\n  not\n  and\n  swap1\n  dup4\n  0xffffffffffffffffffffffffffffffffffffffff\n  and\n  mul\n  or\n  swap1\n  sstore\n  pop\n    /* \"contracts/17_ReceiveTokenContract.sol\":345:355  msg.sender */\n  caller\n    /* \"contracts/17_ReceiveTokenContract.sol\":339:344  owner */\n  0x01\n  0x00\n    /* \"contracts/17_ReceiveTokenContract.sol\":339:355  owner=msg.sender */\n  0x0100\n  exp\n  dup2\n  sload\n  dup2\n  0xffffffffffffffffffffffffffffffffffffffff\n  mul\n  not\n  and\n  swap1\n  dup4\n  0xffffffffffffffffffffffffffffffffffffffff\n  and\n  mul\n  or\n  swap1\n  sstore\n  pop\n    /* \"contracts/17_ReceiveTokenContract.sol\":203:362  constructor(address _tokenAddress){... */\n  pop\n    /* \"contracts/17_ReceiveTokenContract.sol\":128:939  contract ReceiveTokenContract{... */\n  jump(tag_6)\n    /* \"#utility.yul\":7:150   */\ntag_8:\n    /* \"#utility.yul\":64:69   */\n  0x00\n    /* \"#utility.yul\":95:101   */\n  dup2\n    /* \"#utility.yul\":89:102   */\n  mload\n    /* \"#utility.yul\":80:102   */\n  swap1\n  pop\n    /* \"#utility.yul\":111:144   */\n  tag_10\n    /* \"#utility.yul\":138:143   */\n  dup2\n    /* \"#utility.yul\":111:144   */\n  tag_11\n  jump\t// in\ntag_10:\n    /* \"#utility.yul\":7:150   */\n  swap3\n  swap2\n  pop\n  pop\n  jump\t// out\n    /* \"#utility.yul\":156:507   */\ntag_3:\n    /* \"#utility.yul\":226:232   */\n  0x00\n    /* \"#utility.yul\":275:277   */\n  0x20\n    /* \"#utility.yul\":263:272   */\n  dup3\n    /* \"#utility.yul\":254:261   */\n  dup5\n    /* \"#utility.yul\":250:273   */\n  sub\n    /* \"#utility.yul\":246:278   */\n  slt\n    /* \"#utility.yul\":243:362   */\n  iszero\n  tag_13\n  jumpi\n    /* \"#utility.yul\":281:360   */\n  tag_14\n  tag_15\n  jump\t// in\ntag_14:\n    /* \"#utility.yul\":243:362   */\ntag_13:\n    /* \"#utility.yul\":401:402   */\n  0x00\n    /* \"#utility.yul\":426:490   */\n  tag_16\n    /* \"#utility.yul\":482:489   */\n  dup5\n    /* \"#utility.yul\":473:479   */\n  dup3\n    /* \"#utility.yul\":462:471   */\n  dup6\n    /* \"#utility.yul\":458:480   */\n  add\n    /* \"#utility.yul\":426:490   */\n  tag_8\n  jump\t// in\ntag_16:\n    /* \"#utility.yul\":416:490   */\n  swap2\n  pop\n    /* \"#utility.yul\":372:500   */\n  pop\n    /* \"#utility.yul\":156:507   */\n  swap3\n  swap2\n  pop\n  pop\n  jump\t// out\n    /* \"#utility.yul\":594:690   */\ntag_19:\n    /* \"#utility.yul\":631:638   */\n  0x00\n    /* \"#utility.yul\":660:684   */\n  tag_21\n    /* \"#utility.yul\":678:683   */\n  dup3\n    /* \"#utility.yul\":660:684   */\n  tag_22\n  jump\t// in\ntag_21:\n    /* \"#utility.yul\":649:684   */\n  swap1\n  pop\n    /* \"#utility.yul\":594:690   */\n  swap2\n  swap1\n  pop\n  jump\t// out\n    /* \"#utility.yul\":696:822   */\ntag_22:\n    /* \"#utility.yul\":733:740   */\n  0x00\n    /* \"#utility.yul\":773:815   */\n  0xffffffffffffffffffffffffffffffffffffffff\n    /* \"#utility.yul\":766:771   */\n  dup3\n    /* \"#utility.yul\":762:816   */\n  and\n    /* \"#utility.yul\":751:816   */\n  swap1\n  pop\n    /* \"#utility.yul\":696:822   */\n  swap2\n  swap1\n  pop\n  jump\t// out\n    /* \"#utility.yul\":951:1068   */\ntag_15:\n    /* \"#utility.yul\":1060:1061   */\n  0x00\n    /* \"#utility.yul\":1057:1058   */\n  dup1\n    /* \"#utility.yul\":1050:1062   */\n  revert\n    /* \"#utility.yul\":1074:1196   */\ntag_11:\n    /* \"#utility.yul\":1147:1171   */\n  tag_28\n    /* \"#utility.yul\":1165:1170   */\n  dup2\n    /* \"#utility.yul\":1147:1171   */\n  tag_19\n  jump\t// in\ntag_28:\n    /* \"#utility.yul\":1140:1145   */\n  dup2\n    /* \"#utility.yul\":1137:1172   */\n  eq\n    /* \"#utility.yul\":1127:1190   */\n  tag_29\n  jumpi\n    /* \"#utility.yul\":1186:1187   */\n  0x00\n    /* \"#utility.yul\":1183:1184   */\n  dup1\n    /* \"#utility.yul\":1176:1188   */\n  revert\n    /* \"#utility.yul\":1127:1190   */\ntag_29:\n    /* \"#utility.yul\":1074:1196   */\n  pop\n  jump\t// out\n    /* \"contracts/17_ReceiveTokenContract.sol\":128:939  contract ReceiveTokenContract{... */\ntag_6:\n  dataSize(sub_0)\n  dup1\n  dataOffset(sub_0)\n  0x00\n  codecopy\n  0x00\n  return\nstop\n\nsub_0: assembly {\n        /* \"contracts/17_ReceiveTokenContract.sol\":128:939  contract ReceiveTokenContract{... */\n      mstore(0x40, 0x80)\n      callvalue\n      dup1\n      iszero\n      tag_1\n      jumpi\n      0x00\n      dup1\n      revert\n    tag_1:\n      pop\n      jumpi(tag_2, lt(calldatasize, 0x04))\n      shr(0xe0, calldataload(0x00))\n      dup1\n      0x41c0e1b5\n      eq\n      tag_3\n      jumpi\n      dup1\n      0x77a11f7e\n      eq\n      tag_4\n      jumpi\n      dup1\n      0xf8b2cb4f\n      eq\n      tag_5\n      jumpi\n    tag_2:\n      0x00\n      dup1\n      revert\n        /* \"contracts/17_ReceiveTokenContract.sol\":802:937  function kill() public{... */\n    tag_3:\n      tag_6\n      tag_7\n      jump\t// in\n    tag_6:\n      stop\n        /* \"contracts/17_ReceiveTokenContract.sol\":544:657  function transferFrom(uint _amount) public{... */\n    tag_4:\n      tag_8\n      0x04\n      dup1\n      calldatasize\n      sub\n      dup2\n      add\n      swap1\n      tag_9\n      swap2\n      swap1\n      tag_10\n      jump\t// in\n    tag_9:\n      tag_11\n      jump\t// in\n    tag_8:\n      stop\n        /* \"contracts/17_ReceiveTokenContract.sol\":663:777  function getBalance(address _address) public view returns(uint){... */\n    tag_5:\n      tag_12\n      0x04\n      dup1\n      calldatasize\n      sub\n      dup2\n      add\n      swap1\n      tag_13\n      swap2\n      swap1\n      tag_14\n      jump\t// in\n    tag_13:\n      tag_15\n      jump\t// in\n    tag_12:\n      mload(0x40)\n      tag_16\n      swap2\n      swap1\n      tag_17\n      jump\t// in\n    tag_16:\n      mload(0x40)\n      dup1\n      swap2\n      sub\n      swap1\n      return\n        /* \"contracts/17_ReceiveTokenContract.sol\":802:937  function kill() public{... */\n    tag_7:\n        /* \"contracts/17_ReceiveTokenContract.sol\":923:928  owner */\n      0x01\n      0x00\n      swap1\n      sload\n      swap1\n      0x0100\n      exp\n      swap1\n      div\n      0xffffffffffffffffffffffffffffffffffffffff\n      and\n        /* \"contracts/17_ReceiveTokenContract.sol\":902:930  selfdestruct(payable(owner)) */\n      0xffffffffffffffffffffffffffffffffffffffff\n      and\n      selfdestruct\n        /* \"contracts/17_ReceiveTokenContract.sol\":544:657  function transferFrom(uint _amount) public{... */\n    tag_11:\n        /* \"contracts/17_ReceiveTokenContract.sol\":596:603  myToken */\n      0x00\n      dup1\n      sload\n      swap1\n      0x0100\n      exp\n      swap1\n      div\n      0xffffffffffffffffffffffffffffffffffffffff\n      and\n        /* \"contracts/17_ReceiveTokenContract.sol\":596:616  myToken.transferFrom */\n      0xffffffffffffffffffffffffffffffffffffffff\n      and\n      0x23b872dd\n        /* \"contracts/17_ReceiveTokenContract.sol\":617:627  msg.sender */\n      caller\n        /* \"contracts/17_ReceiveTokenContract.sol\":636:640  this */\n      address\n        /* \"contracts/17_ReceiveTokenContract.sol\":642:649  _amount */\n      dup5\n        /* \"contracts/17_ReceiveTokenContract.sol\":596:650  myToken.transferFrom(msg.sender,address(this),_amount) */\n      mload(0x40)\n      dup5\n      0xffffffff\n      and\n      0xe0\n      shl\n      dup2\n      mstore\n      0x04\n      add\n      tag_20\n      swap4\n      swap3\n      swap2\n      swap1\n      tag_21\n      jump\t// in\n    tag_20:\n      0x20\n      mload(0x40)\n      dup1\n      dup4\n      sub\n      dup2\n      0x00\n      dup8\n      dup1\n      extcodesize\n      iszero\n      dup1\n      iszero\n      tag_22\n      jumpi\n      0x00\n      dup1\n      revert\n    tag_22:\n      pop\n      gas\n      call\n      iszero\n      dup1\n      iszero\n      tag_24\n      jumpi\n      returndatasize\n      0x00\n      dup1\n      returndatacopy\n      revert(0x00, returndatasize)\n    tag_24:\n      pop\n      pop\n      pop\n      pop\n      mload(0x40)\n      returndatasize\n      not(0x1f)\n      0x1f\n      dup3\n      add\n      and\n      dup3\n      add\n      dup1\n      0x40\n      mstore\n      pop\n      dup2\n      add\n      swap1\n      tag_25\n      swap2\n      swap1\n      tag_26\n      jump\t// in\n    tag_25:\n      pop\n        /* \"contracts/17_ReceiveTokenContract.sol\":544:657  function transferFrom(uint _amount) public{... */\n      pop\n      jump\t// out\n        /* \"contracts/17_ReceiveTokenContract.sol\":663:777  function getBalance(address _address) public view returns(uint){... */\n    tag_15:\n        /* \"contracts/17_ReceiveTokenContract.sol\":721:725  uint */\n      0x00\n        /* \"contracts/17_ReceiveTokenContract.sol\":743:750  myToken */\n      dup1\n      0x00\n      swap1\n      sload\n      swap1\n      0x0100\n      exp\n      swap1\n      div\n      0xffffffffffffffffffffffffffffffffffffffff\n      and\n        /* \"contracts/17_ReceiveTokenContract.sol\":743:760  myToken.balanceOf */\n      0xffffffffffffffffffffffffffffffffffffffff\n      and\n      0x70a08231\n        /* \"contracts/17_ReceiveTokenContract.sol\":761:769  _address */\n      dup4\n        /* \"contracts/17_ReceiveTokenContract.sol\":743:770  myToken.balanceOf(_address) */\n      mload(0x40)\n      dup3\n      0xffffffff\n      and\n      0xe0\n      shl\n      dup2\n      mstore\n      0x04\n      add\n      tag_28\n      swap2\n      swap1\n      tag_29\n      jump\t// in\n    tag_28:\n      0x20\n      mload(0x40)\n      dup1\n      dup4\n      sub\n      dup2\n      dup7\n      dup1\n      extcodesize\n      iszero\n      dup1\n      iszero\n      tag_30\n      jumpi\n      0x00\n      dup1\n      revert\n    tag_30:\n      pop\n      gas\n      staticcall\n      iszero\n      dup1\n      iszero\n      tag_32\n      jumpi\n      returndatasize\n      0x00\n      dup1\n      returndatacopy\n      revert(0x00, returndatasize)\n    tag_32:\n      pop\n      pop\n      pop\n      pop\n      mload(0x40)\n      returndatasize\n      not(0x1f)\n      0x1f\n      dup3\n      add\n      and\n      dup3\n      add\n      dup1\n      0x40\n      mstore\n      pop\n      dup2\n      add\n      swap1\n      tag_33\n      swap2\n      swap1\n      tag_34\n      jump\t// in\n    tag_33:\n        /* \"contracts/17_ReceiveTokenContract.sol\":736:770  return myToken.balanceOf(_address) */\n      swap1\n      pop\n        /* \"contracts/17_ReceiveTokenContract.sol\":663:777  function getBalance(address _address) public view returns(uint){... */\n      swap2\n      swap1\n      pop\n      jump\t// out\n        /* \"#utility.yul\":7:146   */\n    tag_36:\n        /* \"#utility.yul\":53:58   */\n      0x00\n        /* \"#utility.yul\":91:97   */\n      dup2\n        /* \"#utility.yul\":78:98   */\n      calldataload\n        /* \"#utility.yul\":69:98   */\n      swap1\n      pop\n        /* \"#utility.yul\":107:140   */\n      tag_38\n        /* \"#utility.yul\":134:139   */\n      dup2\n        /* \"#utility.yul\":107:140   */\n      tag_39\n      jump\t// in\n    tag_38:\n        /* \"#utility.yul\":7:146   */\n      swap3\n      swap2\n      pop\n      pop\n      jump\t// out\n        /* \"#utility.yul\":152:289   */\n    tag_40:\n        /* \"#utility.yul\":206:211   */\n      0x00\n        /* \"#utility.yul\":237:243   */\n      dup2\n        /* \"#utility.yul\":231:244   */\n      mload\n        /* \"#utility.yul\":222:244   */\n      swap1\n      pop\n        /* \"#utility.yul\":253:283   */\n      tag_42\n        /* \"#utility.yul\":277:282   */\n      dup2\n        /* \"#utility.yul\":253:283   */\n      tag_43\n      jump\t// in\n    tag_42:\n        /* \"#utility.yul\":152:289   */\n      swap3\n      swap2\n      pop\n      pop\n      jump\t// out\n        /* \"#utility.yul\":295:434   */\n    tag_44:\n        /* \"#utility.yul\":341:346   */\n      0x00\n        /* \"#utility.yul\":379:385   */\n      dup2\n        /* \"#utility.yul\":366:386   */\n      calldataload\n        /* \"#utility.yul\":357:386   */\n      swap1\n      pop\n        /* \"#utility.yul\":395:428   */\n      tag_46\n        /* \"#utility.yul\":422:427   */\n      dup2\n        /* \"#utility.yul\":395:428   */\n      tag_47\n      jump\t// in\n    tag_46:\n        /* \"#utility.yul\":295:434   */\n      swap3\n      swap2\n      pop\n      pop\n      jump\t// out\n        /* \"#utility.yul\":440:583   */\n    tag_48:\n        /* \"#utility.yul\":497:502   */\n      0x00\n        /* \"#utility.yul\":528:534   */\n      dup2\n        /* \"#utility.yul\":522:535   */\n      mload\n        /* \"#utility.yul\":513:535   */\n      swap1\n      pop\n        /* \"#utility.yul\":544:577   */\n      tag_50\n        /* \"#utility.yul\":571:576   */\n      dup2\n        /* \"#utility.yul\":544:577   */\n      tag_47\n      jump\t// in\n    tag_50:\n        /* \"#utility.yul\":440:583   */\n      swap3\n      swap2\n      pop\n      pop\n      jump\t// out\n        /* \"#utility.yul\":589:918   */\n    tag_14:\n        /* \"#utility.yul\":648:654   */\n      0x00\n        /* \"#utility.yul\":697:699   */\n      0x20\n        /* \"#utility.yul\":685:694   */\n      dup3\n        /* \"#utility.yul\":676:683   */\n      dup5\n        /* \"#utility.yul\":672:695   */\n      sub\n        /* \"#utility.yul\":668:700   */\n      slt\n        /* \"#utility.yul\":665:784   */\n      iszero\n      tag_52\n      jumpi\n        /* \"#utility.yul\":703:782   */\n      tag_53\n      tag_54\n      jump\t// in\n    tag_53:\n        /* \"#utility.yul\":665:784   */\n    tag_52:\n        /* \"#utility.yul\":823:824   */\n      0x00\n        /* \"#utility.yul\":848:901   */\n      tag_55\n        /* \"#utility.yul\":893:900   */\n      dup5\n        /* \"#utility.yul\":884:890   */\n      dup3\n        /* \"#utility.yul\":873:882   */\n      dup6\n        /* \"#utility.yul\":869:891   */\n      add\n        /* \"#utility.yul\":848:901   */\n      tag_36\n      jump\t// in\n    tag_55:\n        /* \"#utility.yul\":838:901   */\n      swap2\n      pop\n        /* \"#utility.yul\":794:911   */\n      pop\n        /* \"#utility.yul\":589:918   */\n      swap3\n      swap2\n      pop\n      pop\n      jump\t// out\n        /* \"#utility.yul\":924:1269   */\n    tag_26:\n        /* \"#utility.yul\":991:997   */\n      0x00\n        /* \"#utility.yul\":1040:1042   */\n      0x20\n        /* \"#utility.yul\":1028:1037   */\n      dup3\n        /* \"#utility.yul\":1019:1026   */\n      dup5\n        /* \"#utility.yul\":1015:1038   */\n      sub\n        /* \"#utility.yul\":1011:1043   */\n      slt\n        /* \"#utility.yul\":1008:1127   */\n      iszero\n      tag_57\n      jumpi\n        /* \"#utility.yul\":1046:1125   */\n      tag_58\n      tag_54\n      jump\t// in\n    tag_58:\n        /* \"#utility.yul\":1008:1127   */\n    tag_57:\n        /* \"#utility.yul\":1166:1167   */\n      0x00\n        /* \"#utility.yul\":1191:1252   */\n      tag_59\n        /* \"#utility.yul\":1244:1251   */\n      dup5\n        /* \"#utility.yul\":1235:1241   */\n      dup3\n        /* \"#utility.yul\":1224:1233   */\n      dup6\n        /* \"#utility.yul\":1220:1242   */\n      add\n        /* \"#utility.yul\":1191:1252   */\n      tag_40\n      jump\t// in\n    tag_59:\n        /* \"#utility.yul\":1181:1252   */\n      swap2\n      pop\n        /* \"#utility.yul\":1137:1262   */\n      pop\n        /* \"#utility.yul\":924:1269   */\n      swap3\n      swap2\n      pop\n      pop\n      jump\t// out\n        /* \"#utility.yul\":1275:1604   */\n    tag_10:\n        /* \"#utility.yul\":1334:1340   */\n      0x00\n        /* \"#utility.yul\":1383:1385   */\n      0x20\n        /* \"#utility.yul\":1371:1380   */\n      dup3\n        /* \"#utility.yul\":1362:1369   */\n      dup5\n        /* \"#utility.yul\":1358:1381   */\n      sub\n        /* \"#utility.yul\":1354:1386   */\n      slt\n        /* \"#utility.yul\":1351:1470   */\n      iszero\n      tag_61\n      jumpi\n        /* \"#utility.yul\":1389:1468   */\n      tag_62\n      tag_54\n      jump\t// in\n    tag_62:\n        /* \"#utility.yul\":1351:1470   */\n    tag_61:\n        /* \"#utility.yul\":1509:1510   */\n      0x00\n        /* \"#utility.yul\":1534:1587   */\n      tag_63\n        /* \"#utility.yul\":1579:1586   */\n      dup5\n        /* \"#utility.yul\":1570:1576   */\n      dup3\n        /* \"#utility.yul\":1559:1568   */\n      dup6\n        /* \"#utility.yul\":1555:1577   */\n      add\n        /* \"#utility.yul\":1534:1587   */\n      tag_44\n      jump\t// in\n    tag_63:\n        /* \"#utility.yul\":1524:1587   */\n      swap2\n      pop\n        /* \"#utility.yul\":1480:1597   */\n      pop\n        /* \"#utility.yul\":1275:1604   */\n      swap3\n      swap2\n      pop\n      pop\n      jump\t// out\n        /* \"#utility.yul\":1610:1961   */\n    tag_34:\n        /* \"#utility.yul\":1680:1686   */\n      0x00\n        /* \"#utility.yul\":1729:1731   */\n      0x20\n        /* \"#utility.yul\":1717:1726   */\n      dup3\n        /* \"#utility.yul\":1708:1715   */\n      dup5\n        /* \"#utility.yul\":1704:1727   */\n      sub\n        /* \"#utility.yul\":1700:1732   */\n      slt\n        /* \"#utility.yul\":1697:1816   */\n      iszero\n      tag_65\n      jumpi\n        /* \"#utility.yul\":1735:1814   */\n      tag_66\n      tag_54\n      jump\t// in\n    tag_66:\n        /* \"#utility.yul\":1697:1816   */\n    tag_65:\n        /* \"#utility.yul\":1855:1856   */\n      0x00\n        /* \"#utility.yul\":1880:1944   */\n      tag_67\n        /* \"#utility.yul\":1936:1943   */\n      dup5\n        /* \"#utility.yul\":1927:1933   */\n      dup3\n        /* \"#utility.yul\":1916:1925   */\n      dup6\n        /* \"#utility.yul\":1912:1934   */\n      add\n        /* \"#utility.yul\":1880:1944   */\n      tag_48\n      jump\t// in\n    tag_67:\n        /* \"#utility.yul\":1870:1944   */\n      swap2\n      pop\n        /* \"#utility.yul\":1826:1954   */\n      pop\n        /* \"#utility.yul\":1610:1961   */\n      swap3\n      swap2\n      pop\n      pop\n      jump\t// out\n        /* \"#utility.yul\":1967:2085   */\n    tag_68:\n        /* \"#utility.yul\":2054:2078   */\n      tag_70\n        /* \"#utility.yul\":2072:2077   */\n      dup2\n        /* \"#utility.yul\":2054:2078   */\n      tag_71\n      jump\t// in\n    tag_70:\n        /* \"#utility.yul\":2049:2052   */\n      dup3\n        /* \"#utility.yul\":2042:2079   */\n      mstore\n        /* \"#utility.yul\":1967:2085   */\n      pop\n      pop\n      jump\t// out\n        /* \"#utility.yul\":2091:2209   */\n    tag_72:\n        /* \"#utility.yul\":2178:2202   */\n      tag_74\n        /* \"#utility.yul\":2196:2201   */\n      dup2\n        /* \"#utility.yul\":2178:2202   */\n      tag_75\n      jump\t// in\n    tag_74:\n        /* \"#utility.yul\":2173:2176   */\n      dup3\n        /* \"#utility.yul\":2166:2203   */\n      mstore\n        /* \"#utility.yul\":2091:2209   */\n      pop\n      pop\n      jump\t// out\n        /* \"#utility.yul\":2215:2437   */\n    tag_29:\n        /* \"#utility.yul\":2308:2312   */\n      0x00\n        /* \"#utility.yul\":2346:2348   */\n      0x20\n        /* \"#utility.yul\":2335:2344   */\n      dup3\n        /* \"#utility.yul\":2331:2349   */\n      add\n        /* \"#utility.yul\":2323:2349   */\n      swap1\n      pop\n        /* \"#utility.yul\":2359:2430   */\n      tag_77\n        /* \"#utility.yul\":2427:2428   */\n      0x00\n        /* \"#utility.yul\":2416:2425   */\n      dup4\n        /* \"#utility.yul\":2412:2429   */\n      add\n        /* \"#utility.yul\":2403:2409   */\n      dup5\n        /* \"#utility.yul\":2359:2430   */\n      tag_68\n      jump\t// in\n    tag_77:\n        /* \"#utility.yul\":2215:2437   */\n      swap3\n      swap2\n      pop\n      pop\n      jump\t// out\n        /* \"#utility.yul\":2443:2885   */\n    tag_21:\n        /* \"#utility.yul\":2592:2596   */\n      0x00\n        /* \"#utility.yul\":2630:2632   */\n      0x60\n        /* \"#utility.yul\":2619:2628   */\n      dup3\n        /* \"#utility.yul\":2615:2633   */\n      add\n        /* \"#utility.yul\":2607:2633   */\n      swap1\n      pop\n        /* \"#utility.yul\":2643:2714   */\n      tag_79\n        /* \"#utility.yul\":2711:2712   */\n      0x00\n        /* \"#utility.yul\":2700:2709   */\n      dup4\n        /* \"#utility.yul\":2696:2713   */\n      add\n        /* \"#utility.yul\":2687:2693   */\n      dup7\n        /* \"#utility.yul\":2643:2714   */\n      tag_68\n      jump\t// in\n    tag_79:\n        /* \"#utility.yul\":2724:2796   */\n      tag_80\n        /* \"#utility.yul\":2792:2794   */\n      0x20\n        /* \"#utility.yul\":2781:2790   */\n      dup4\n        /* \"#utility.yul\":2777:2795   */\n      add\n        /* \"#utility.yul\":2768:2774   */\n      dup6\n        /* \"#utility.yul\":2724:2796   */\n      tag_68\n      jump\t// in\n    tag_80:\n        /* \"#utility.yul\":2806:2878   */\n      tag_81\n        /* \"#utility.yul\":2874:2876   */\n      0x40\n        /* \"#utility.yul\":2863:2872   */\n      dup4\n        /* \"#utility.yul\":2859:2877   */\n      add\n        /* \"#utility.yul\":2850:2856   */\n      dup5\n        /* \"#utility.yul\":2806:2878   */\n      tag_72\n      jump\t// in\n    tag_81:\n        /* \"#utility.yul\":2443:2885   */\n      swap5\n      swap4\n      pop\n      pop\n      pop\n      pop\n      jump\t// out\n        /* \"#utility.yul\":2891:3113   */\n    tag_17:\n        /* \"#utility.yul\":2984:2988   */\n      0x00\n        /* \"#utility.yul\":3022:3024   */\n      0x20\n        /* \"#utility.yul\":3011:3020   */\n      dup3\n        /* \"#utility.yul\":3007:3025   */\n      add\n        /* \"#utility.yul\":2999:3025   */\n      swap1\n      pop\n        /* \"#utility.yul\":3035:3106   */\n      tag_83\n        /* \"#utility.yul\":3103:3104   */\n      0x00\n        /* \"#utility.yul\":3092:3101   */\n      dup4\n        /* \"#utility.yul\":3088:3105   */\n      add\n        /* \"#utility.yul\":3079:3085   */\n      dup5\n        /* \"#utility.yul\":3035:3106   */\n      tag_72\n      jump\t// in\n    tag_83:\n        /* \"#utility.yul\":2891:3113   */\n      swap3\n      swap2\n      pop\n      pop\n      jump\t// out\n        /* \"#utility.yul\":3200:3296   */\n    tag_71:\n        /* \"#utility.yul\":3237:3244   */\n      0x00\n        /* \"#utility.yul\":3266:3290   */\n      tag_87\n        /* \"#utility.yul\":3284:3289   */\n      dup3\n        /* \"#utility.yul\":3266:3290   */\n      tag_88\n      jump\t// in\n    tag_87:\n        /* \"#utility.yul\":3255:3290   */\n      swap1\n      pop\n        /* \"#utility.yul\":3200:3296   */\n      swap2\n      swap1\n      pop\n      jump\t// out\n        /* \"#utility.yul\":3302:3392   */\n    tag_89:\n        /* \"#utility.yul\":3336:3343   */\n      0x00\n        /* \"#utility.yul\":3379:3384   */\n      dup2\n        /* \"#utility.yul\":3372:3385   */\n      iszero\n        /* \"#utility.yul\":3365:3386   */\n      iszero\n        /* \"#utility.yul\":3354:3386   */\n      swap1\n      pop\n        /* \"#utility.yul\":3302:3392   */\n      swap2\n      swap1\n      pop\n      jump\t// out\n        /* \"#utility.yul\":3398:3524   */\n    tag_88:\n        /* \"#utility.yul\":3435:3442   */\n      0x00\n        /* \"#utility.yul\":3475:3517   */\n      0xffffffffffffffffffffffffffffffffffffffff\n        /* \"#utility.yul\":3468:3473   */\n      dup3\n        /* \"#utility.yul\":3464:3518   */\n      and\n        /* \"#utility.yul\":3453:3518   */\n      swap1\n      pop\n        /* \"#utility.yul\":3398:3524   */\n      swap2\n      swap1\n      pop\n      jump\t// out\n        /* \"#utility.yul\":3530:3607   */\n    tag_75:\n        /* \"#utility.yul\":3567:3574   */\n      0x00\n        /* \"#utility.yul\":3596:3601   */\n      dup2\n        /* \"#utility.yul\":3585:3601   */\n      swap1\n      pop\n        /* \"#utility.yul\":3530:3607   */\n      swap2\n      swap1\n      pop\n      jump\t// out\n        /* \"#utility.yul\":3736:3853   */\n    tag_54:\n        /* \"#utility.yul\":3845:3846   */\n      0x00\n        /* \"#utility.yul\":3842:3843   */\n      dup1\n        /* \"#utility.yul\":3835:3847   */\n      revert\n        /* \"#utility.yul\":3859:3981   */\n    tag_39:\n        /* \"#utility.yul\":3932:3956   */\n      tag_97\n        /* \"#utility.yul\":3950:3955   */\n      dup2\n        /* \"#utility.yul\":3932:3956   */\n      tag_71\n      jump\t// in\n    tag_97:\n        /* \"#utility.yul\":3925:3930   */\n      dup2\n        /* \"#utility.yul\":3922:3957   */\n      eq\n        /* \"#utility.yul\":3912:3975   */\n      tag_98\n      jumpi\n        /* \"#utility.yul\":3971:3972   */\n      0x00\n        /* \"#utility.yul\":3968:3969   */\n      dup1\n        /* \"#utility.yul\":3961:3973   */\n      revert\n        /* \"#utility.yul\":3912:3975   */\n    tag_98:\n        /* \"#utility.yul\":3859:3981   */\n      pop\n      jump\t// out\n        /* \"#utility.yul\":3987:4103   */\n    tag_43:\n        /* \"#utility.yul\":4057:4078   */\n      tag_100\n        /* \"#utility.yul\":4072:4077   */\n      dup2\n        /* \"#utility.yul\":4057:4078   */\n      tag_89\n      jump\t// in\n    tag_100:\n        /* \"#utility.yul\":4050:4055   */\n      dup2\n        /* \"#utility.yul\":4047:4079   */\n      eq\n        /* \"#utility.yul\":4037:4097   */\n      tag_101\n      jumpi\n        /* \"#utility.yul\":4093:4094   */\n      0x00\n        /* \"#utility.yul\":4090:4091   */\n      dup1\n        /* \"#utility.yul\":4083:4095   */\n      revert\n        /* \"#utility.yul\":4037:4097   */\n    tag_101:\n        /* \"#utility.yul\":3987:4103   */\n      pop\n      jump\t// out\n        /* \"#utility.yul\":4109:4231   */\n    tag_47:\n        /* \"#utility.yul\":4182:4206   */\n      tag_103\n        /* \"#utility.yul\":4200:4205   */\n      dup2\n        /* \"#utility.yul\":4182:4206   */\n      tag_75\n      jump\t// in\n    tag_103:\n        /* \"#utility.yul\":4175:4180   */\n      dup2\n        /* \"#utility.yul\":4172:4207   */\n      eq\n        /* \"#utility.yul\":4162:4225   */\n      tag_104\n      jumpi\n        /* \"#utility.yul\":4221:4222   */\n      0x00\n        /* \"#utility.yul\":4218:4219   */\n      dup1\n        /* \"#utility.yul\":4211:4223   */\n      revert\n        /* \"#utility.yul\":4162:4225   */\n    tag_104:\n        /* \"#utility.yul\":4109:4231   */\n      pop\n      jump\t// out\n\n    auxdata: 0xa26469706673582212208d558120816bf28ed322a3ba0d0752bf24eb1d251fdeccc9259b1ed534b6957c64736f6c63430008070033\n}\n",
				"bytecode": {
					"linkReferences": {},
					"object": "608060405234801561001057600080fd5b506040516105f03803806105f0833981810160405281019061003291906100ce565b806000806101000a81548173ffffffffffffffffffffffffffffffffffffffff021916908373ffffffffffffffffffffffffffffffffffffffff16021790555033600160006101000a81548173ffffffffffffffffffffffffffffffffffffffff021916908373ffffffffffffffffffffffffffffffffffffffff16021790555050610149565b6000815190506100c881610132565b92915050565b6000602082840312156100e4576100e361012d565b5b60006100f2848285016100b9565b91505092915050565b60006101068261010d565b9050919050565b600073ffffffffffffffffffffffffffffffffffffffff82169050919050565b600080fd5b61013b816100fb565b811461014657600080fd5b50565b610498806101586000396000f3fe608060405234801561001057600080fd5b50600436106100415760003560e01c806341c0e1b51461004657806377a11f7e14610050578063f8b2cb4f1461006c575b600080fd5b61004e61009c565b005b61006a600480360381019061006591906102eb565b6100d7565b005b61008660048036038101906100819190610291565b61018a565b60405161009391906103b5565b60405180910390f35b600160009054906101000a900473ffffffffffffffffffffffffffffffffffffffff1673ffffffffffffffffffffffffffffffffffffffff16ff5b60008054906101000a900473ffffffffffffffffffffffffffffffffffffffff1673ffffffffffffffffffffffffffffffffffffffff166323b872dd3330846040518463ffffffff1660e01b81526004016101349392919061037e565b602060405180830381600087803b15801561014e57600080fd5b505af1158015610162573d6000803e3d6000fd5b505050506040513d601f19601f8201168201806040525081019061018691906102be565b5050565b60008060009054906101000a900473ffffffffffffffffffffffffffffffffffffffff1673ffffffffffffffffffffffffffffffffffffffff166370a08231836040518263ffffffff1660e01b81526004016101e69190610363565b60206040518083038186803b1580156101fe57600080fd5b505afa158015610212573d6000803e3d6000fd5b505050506040513d601f19601f820116820180604052508101906102369190610318565b9050919050565b60008135905061024c8161041d565b92915050565b60008151905061026181610434565b92915050565b6000813590506102768161044b565b92915050565b60008151905061028b8161044b565b92915050565b6000602082840312156102a7576102a6610418565b5b60006102b58482850161023d565b91505092915050565b6000602082840312156102d4576102d3610418565b5b60006102e284828501610252565b91505092915050565b60006020828403121561030157610300610418565b5b600061030f84828501610267565b91505092915050565b60006020828403121561032e5761032d610418565b5b600061033c8482850161027c565b91505092915050565b61034e816103d0565b82525050565b61035d8161040e565b82525050565b60006020820190506103786000830184610345565b92915050565b60006060820190506103936000830186610345565b6103a06020830185610345565b6103ad6040830184610354565b949350505050565b60006020820190506103ca6000830184610354565b92915050565b60006103db826103ee565b9050919050565b60008115159050919050565b600073ffffffffffffffffffffffffffffffffffffffff82169050919050565b6000819050919050565b600080fd5b610426816103d0565b811461043157600080fd5b50565b61043d816103e2565b811461044857600080fd5b50565b6104548161040e565b811461045f57600080fd5b5056fea26469706673582212208d558120816bf28ed322a3ba0d0752bf24eb1d251fdeccc9259b1ed534b6957c64736f6c63430008070033",
					"opcodes": "PUSH1 0x80 PUSH1 0x40 MSTORE CALLVALUE DUP1 ISZERO PUSH2 0x10 JUMPI PUSH1 0x0 DUP1 REVERT JUMPDEST POP PUSH1 0x40 MLOAD PUSH2 0x5F0 CODESIZE SUB DUP1 PUSH2 0x5F0 DUP4 CODECOPY DUP2 DUP2 ADD PUSH1 0x40 MSTORE DUP2 ADD SWAP1 PUSH2 0x32 SWAP2 SWAP1 PUSH2 0xCE JUMP JUMPDEST DUP1 PUSH1 0x0 DUP1 PUSH2 0x100 EXP DUP2 SLOAD DUP2 PUSH20 0xFFFFFFFFFFFFFFFFFFFFFFFFFFFFFFFFFFFFFFFF MUL NOT AND SWAP1 DUP4 PUSH20 0xFFFFFFFFFFFFFFFFFFFFFFFFFFFFFFFFFFFFFFFF AND MUL OR SWAP1 SSTORE POP CALLER PUSH1 0x1 PUSH1 0x0 PUSH2 0x100 EXP DUP2 SLOAD DUP2 PUSH20 0xFFFFFFFFFFFFFFFFFFFFFFFFFFFFFFFFFFFFFFFF MUL NOT AND SWAP1 DUP4 PUSH20 0xFFFFFFFFFFFFFFFFFFFFFFFFFFFFFFFFFFFFFFFF AND MUL OR SWAP1 SSTORE POP POP PUSH2 0x149 JUMP JUMPDEST PUSH1 0x0 DUP2 MLOAD SWAP1 POP PUSH2 0xC8 DUP2 PUSH2 0x132 JUMP JUMPDEST SWAP3 SWAP2 POP POP JUMP JUMPDEST PUSH1 0x0 PUSH1 0x20 DUP3 DUP5 SUB SLT ISZERO PUSH2 0xE4 JUMPI PUSH2 0xE3 PUSH2 0x12D JUMP JUMPDEST JUMPDEST PUSH1 0x0 PUSH2 0xF2 DUP5 DUP3 DUP6 ADD PUSH2 0xB9 JUMP JUMPDEST SWAP2 POP POP SWAP3 SWAP2 POP POP JUMP JUMPDEST PUSH1 0x0 PUSH2 0x106 DUP3 PUSH2 0x10D JUMP JUMPDEST SWAP1 POP SWAP2 SWAP1 POP JUMP JUMPDEST PUSH1 0x0 PUSH20 0xFFFFFFFFFFFFFFFFFFFFFFFFFFFFFFFFFFFFFFFF DUP3 AND SWAP1 POP SWAP2 SWAP1 POP JUMP JUMPDEST PUSH1 0x0 DUP1 REVERT JUMPDEST PUSH2 0x13B DUP2 PUSH2 0xFB JUMP JUMPDEST DUP2 EQ PUSH2 0x146 JUMPI PUSH1 0x0 DUP1 REVERT JUMPDEST POP JUMP JUMPDEST PUSH2 0x498 DUP1 PUSH2 0x158 PUSH1 0x0 CODECOPY PUSH1 0x0 RETURN INVALID PUSH1 0x80 PUSH1 0x40 MSTORE CALLVALUE DUP1 ISZERO PUSH2 0x10 JUMPI PUSH1 0x0 DUP1 REVERT JUMPDEST POP PUSH1 0x4 CALLDATASIZE LT PUSH2 0x41 JUMPI PUSH1 0x0 CALLDATALOAD PUSH1 0xE0 SHR DUP1 PUSH4 0x41C0E1B5 EQ PUSH2 0x46 JUMPI DUP1 PUSH4 0x77A11F7E EQ PUSH2 0x50 JUMPI DUP1 PUSH4 0xF8B2CB4F EQ PUSH2 0x6C JUMPI JUMPDEST PUSH1 0x0 DUP1 REVERT JUMPDEST PUSH2 0x4E PUSH2 0x9C JUMP JUMPDEST STOP JUMPDEST PUSH2 0x6A PUSH1 0x4 DUP1 CALLDATASIZE SUB DUP2 ADD SWAP1 PUSH2 0x65 SWAP2 SWAP1 PUSH2 0x2EB JUMP JUMPDEST PUSH2 0xD7 JUMP JUMPDEST STOP JUMPDEST PUSH2 0x86 PUSH1 0x4 DUP1 CALLDATASIZE SUB DUP2 ADD SWAP1 PUSH2 0x81 SWAP2 SWAP1 PUSH2 0x291 JUMP JUMPDEST PUSH2 0x18A JUMP JUMPDEST PUSH1 0x40 MLOAD PUSH2 0x93 SWAP2 SWAP1 PUSH2 0x3B5 JUMP JUMPDEST PUSH1 0x40 MLOAD DUP1 SWAP2 SUB SWAP1 RETURN JUMPDEST PUSH1 0x1 PUSH1 0x0 SWAP1 SLOAD SWAP1 PUSH2 0x100 EXP SWAP1 DIV PUSH20 0xFFFFFFFFFFFFFFFFFFFFFFFFFFFFFFFFFFFFFFFF AND PUSH20 0xFFFFFFFFFFFFFFFFFFFFFFFFFFFFFFFFFFFFFFFF AND SELFDESTRUCT JUMPDEST PUSH1 0x0 DUP1 SLOAD SWAP1 PUSH2 0x100 EXP SWAP1 DIV PUSH20 0xFFFFFFFFFFFFFFFFFFFFFFFFFFFFFFFFFFFFFFFF AND PUSH20 0xFFFFFFFFFFFFFFFFFFFFFFFFFFFFFFFFFFFFFFFF AND PUSH4 0x23B872DD CALLER ADDRESS DUP5 PUSH1 0x40 MLOAD DUP5 PUSH4 0xFFFFFFFF AND PUSH1 0xE0 SHL DUP2 MSTORE PUSH1 0x4 ADD PUSH2 0x134 SWAP4 SWAP3 SWAP2 SWAP1 PUSH2 0x37E JUMP JUMPDEST PUSH1 0x20 PUSH1 0x40 MLOAD DUP1 DUP4 SUB DUP2 PUSH1 0x0 DUP8 DUP1 EXTCODESIZE ISZERO DUP1 ISZERO PUSH2 0x14E JUMPI PUSH1 0x0 DUP1 REVERT JUMPDEST POP GAS CALL ISZERO DUP1 ISZERO PUSH2 0x162 JUMPI RETURNDATASIZE PUSH1 0x0 DUP1 RETURNDATACOPY RETURNDATASIZE PUSH1 0x0 REVERT JUMPDEST POP POP POP POP PUSH1 0x40 MLOAD RETURNDATASIZE PUSH1 0x1F NOT PUSH1 0x1F DUP3 ADD AND DUP3 ADD DUP1 PUSH1 0x40 MSTORE POP DUP2 ADD SWAP1 PUSH2 0x186 SWAP2 SWAP1 PUSH2 0x2BE JUMP JUMPDEST POP POP JUMP JUMPDEST PUSH1 0x0 DUP1 PUSH1 0x0 SWAP1 SLOAD SWAP1 PUSH2 0x100 EXP SWAP1 DIV PUSH20 0xFFFFFFFFFFFFFFFFFFFFFFFFFFFFFFFFFFFFFFFF AND PUSH20 0xFFFFFFFFFFFFFFFFFFFFFFFFFFFFFFFFFFFFFFFF AND PUSH4 0x70A08231 DUP4 PUSH1 0x40 MLOAD DUP3 PUSH4 0xFFFFFFFF AND PUSH1 0xE0 SHL DUP2 MSTORE PUSH1 0x4 ADD PUSH2 0x1E6 SWAP2 SWAP1 PUSH2 0x363 JUMP JUMPDEST PUSH1 0x20 PUSH1 0x40 MLOAD DUP1 DUP4 SUB DUP2 DUP7 DUP1 EXTCODESIZE ISZERO DUP1 ISZERO PUSH2 0x1FE JUMPI PUSH1 0x0 DUP1 REVERT JUMPDEST POP GAS STATICCALL ISZERO DUP1 ISZERO PUSH2 0x212 JUMPI RETURNDATASIZE PUSH1 0x0 DUP1 RETURNDATACOPY RETURNDATASIZE PUSH1 0x0 REVERT JUMPDEST POP POP POP POP PUSH1 0x40 MLOAD RETURNDATASIZE PUSH1 0x1F NOT PUSH1 0x1F DUP3 ADD AND DUP3 ADD DUP1 PUSH1 0x40 MSTORE POP DUP2 ADD SWAP1 PUSH2 0x236 SWAP2 SWAP1 PUSH2 0x318 JUMP JUMPDEST SWAP1 POP SWAP2 SWAP1 POP JUMP JUMPDEST PUSH1 0x0 DUP2 CALLDATALOAD SWAP1 POP PUSH2 0x24C DUP2 PUSH2 0x41D JUMP JUMPDEST SWAP3 SWAP2 POP POP JUMP JUMPDEST PUSH1 0x0 DUP2 MLOAD SWAP1 POP PUSH2 0x261 DUP2 PUSH2 0x434 JUMP JUMPDEST SWAP3 SWAP2 POP POP JUMP JUMPDEST PUSH1 0x0 DUP2 CALLDATALOAD SWAP1 POP PUSH2 0x276 DUP2 PUSH2 0x44B JUMP JUMPDEST SWAP3 SWAP2 POP POP JUMP JUMPDEST PUSH1 0x0 DUP2 MLOAD SWAP1 POP PUSH2 0x28B DUP2 PUSH2 0x44B JUMP JUMPDEST SWAP3 SWAP2 POP POP JUMP JUMPDEST PUSH1 0x0 PUSH1 0x20 DUP3 DUP5 SUB SLT ISZERO PUSH2 0x2A7 JUMPI PUSH2 0x2A6 PUSH2 0x418 JUMP JUMPDEST JUMPDEST PUSH1 0x0 PUSH2 0x2B5 DUP5 DUP3 DUP6 ADD PUSH2 0x23D JUMP JUMPDEST SWAP2 POP POP SWAP3 SWAP2 POP POP JUMP JUMPDEST PUSH1 0x0 PUSH1 0x20 DUP3 DUP5 SUB SLT ISZERO PUSH2 0x2D4 JUMPI PUSH2 0x2D3 PUSH2 0x418 JUMP JUMPDEST JUMPDEST PUSH1 0x0 PUSH2 0x2E2 DUP5 DUP3 DUP6 ADD PUSH2 0x252 JUMP JUMPDEST SWAP2 POP POP SWAP3 SWAP2 POP POP JUMP JUMPDEST PUSH1 0x0 PUSH1 0x20 DUP3 DUP5 SUB SLT ISZERO PUSH2 0x301 JUMPI PUSH2 0x300 PUSH2 0x418 JUMP JUMPDEST JUMPDEST PUSH1 0x0 PUSH2 0x30F DUP5 DUP3 DUP6 ADD PUSH2 0x267 JUMP JUMPDEST SWAP2 POP POP SWAP3 SWAP2 POP POP JUMP JUMPDEST PUSH1 0x0 PUSH1 0x20 DUP3 DUP5 SUB SLT ISZERO PUSH2 0x32E JUMPI PUSH2 0x32D PUSH2 0x418 JUMP JUMPDEST JUMPDEST PUSH1 0x0 PUSH2 0x33C DUP5 DUP3 DUP6 ADD PUSH2 0x27C JUMP JUMPDEST SWAP2 POP POP SWAP3 SWAP2 POP POP JUMP JUMPDEST PUSH2 0x34E DUP2 PUSH2 0x3D0 JUMP JUMPDEST DUP3 MSTORE POP POP JUMP JUMPDEST PUSH2 0x35D DUP2 PUSH2 0x40E JUMP JUMPDEST DUP3 MSTORE POP POP JUMP JUMPDEST PUSH1 0x0 PUSH1 0x20 DUP3 ADD SWAP1 POP PUSH2 0x378 PUSH1 0x0 DUP4 ADD DUP5 PUSH2 0x345 JUMP JUMPDEST SWAP3 SWAP2 POP POP JUMP JUMPDEST PUSH1 0x0 PUSH1 0x60 DUP3 ADD SWAP1 POP PUSH2 0x393 PUSH1 0x0 DUP4 ADD DUP7 PUSH2 0x345 JUMP JUMPDEST PUSH2 0x3A0 PUSH1 0x20 DUP4 ADD DUP6 PUSH2 0x345 JUMP JUMPDEST PUSH2 0x3AD PUSH1 0x40 DUP4 ADD DUP5 PUSH2 0x354 JUMP JUMPDEST SWAP5 SWAP4 POP POP POP POP JUMP JUMPDEST PUSH1 0x0 PUSH1 0x20 DUP3 ADD SWAP1 POP PUSH2 0x3CA PUSH1 0x0 DUP4 ADD DUP5 PUSH2 0x354 JUMP JUMPDEST SWAP3 SWAP2 POP POP JUMP JUMPDEST PUSH1 0x0 PUSH2 0x3DB DUP3 PUSH2 0x3EE JUMP JUMPDEST SWAP1 POP SWAP2 SWAP1 POP JUMP JUMPDEST PUSH1 0x0 DUP2 ISZERO ISZERO SWAP1 POP SWAP2 SWAP1 POP JUMP JUMPDEST PUSH1 0x0 PUSH20 0xFFFFFFFFFFFFFFFFFFFFFFFFFFFFFFFFFFFFFFFF DUP3 AND SWAP1 POP SWAP2 SWAP1 POP JUMP JUMPDEST PUSH1 0x0 DUP2 SWAP1 POP SWAP2 SWAP1 POP JUMP JUMPDEST PUSH1 0x0 DUP1 REVERT JUMPDEST PUSH2 0x426 DUP2 PUSH2 0x3D0 JUMP JUMPDEST DUP2 EQ PUSH2 0x431 JUMPI PUSH1 0x0 DUP1 REVERT JUMPDEST POP JUMP JUMPDEST PUSH2 0x43D DUP2 PUSH2 0x3E2 JUMP JUMPDEST DUP2 EQ PUSH2 0x448 JUMPI PUSH1 0x0 DUP1 REVERT JUMPDEST POP JUMP JUMPDEST PUSH2 0x454 DUP2 PUSH2 0x40E JUMP JUMPDEST DUP2 EQ PUSH2 0x45F JUMPI PUSH1 0x0 DUP1 REVERT JUMPDEST POP JUMP INVALID LOG2 PUSH5 0x6970667358 0x22 SLT KECCAK256 DUP14 SSTORE DUP2 KECCAK256 DUP2 PUSH12 0xF28ED322A3BA0D0752BF24EB SAR 0x25 0x1F 0xDE 0xCC 0xC9 0x25 SWAP12 0x1E 0xD5 CALLVALUE 0xB6 SWAP6 PUSH29 0x64736F6C63430008070033000000000000000000000000000000000000 "
				},
				"gasEstimates": {
					"creation": {
						"codeDepositCost": "235200",
						"executionCost": "infinite",
						"totalCost": "infinite"
					},
					"external": {
						"getBalance(address)": "infinite",
						"kill()": "29858",
						"transferFrom(uint256)": "infinite"
					}
				},
				"methodIdentifiers": {
					"getBalance(address)": "f8b2cb4f",
					"kill()": "41c0e1b5",
					"transferFrom(uint256)": "77a11f7e"
				}
			},
			"storageLayout": {
				"storage": [
					{
						"astId": 83,
						"contract": "contracts/17_ReceiveTokenContract.sol:ReceiveTokenContract",
						"label": "myToken",
						"offset": 0,
						"slot": "0",
						"type": "t_contract(IERC20)77"
					},
					{
						"astId": 85,
						"contract": "contracts/17_ReceiveTokenContract.sol:ReceiveTokenContract",
						"label": "owner",
						"offset": 0,
						"slot": "1",
						"type": "t_address"
					}
				],
				"types": {
					"t_address": {
						"encoding": "inplace",
						"label": "address",
						"numberOfBytes": "20"
					},
					"t_contract(IERC20)77": {
						"encoding": "inplace",
						"label": "contract IERC20",
						"numberOfBytes": "20"
					}
				}
			},
			"userdoc": {
				"kind": "user",
				"methods": {},
				"version": 1
			}
		}
	}
}