{
	"contracts/23_DelegateCall.sol": {
		"A": {
			"abi": [
				{
					"inputs": [
						{
							"internalType": "address",
							"name": "_bAddr",
							"type": "address"
						},
						{
							"internalType": "uint256",
							"name": "_num",
							"type": "uint256"
						}
					],
					"name": "bSetNumDelegateCall",
					"outputs": [],
					"stateMutability": "nonpayable",
					"type": "function"
				},
				{
					"inputs": [],
					"name": "getNum",
					"outputs": [
						{
							"internalType": "uint256",
							"name": "",
							"type": "uint256"
						}
					],
					"stateMutability": "view",
					"type": "function"
				},
				{
					"inputs": [
						{
							"internalType": "uint256",
							"name": "_num",
							"type": "uint256"
						}
					],
					"name": "setNum",
					"outputs": [],
					"stateMutability": "nonpayable",
					"type": "function"
				}
			],
			"devdoc": {
				"kind": "dev",
				"methods": {},
				"version": 1
			},
			"evm": {
				"assembly": "    /* \"contracts/23_DelegateCall.sol\":70:549  contract A{... */\n  mstore(0x40, 0x80)\n  callvalue\n  dup1\n  iszero\n  tag_1\n  jumpi\n  0x00\n  dup1\n  revert\ntag_1:\n  pop\n  dataSize(sub_0)\n  dup1\n  dataOffset(sub_0)\n  0x00\n  codecopy\n  0x00\n  return\nstop\n\nsub_0: assembly {\n        /* \"contracts/23_DelegateCall.sol\":70:549  contract A{... */\n      mstore(0x40, 0x80)\n      callvalue\n      dup1\n      iszero\n      tag_1\n      jumpi\n      0x00\n      dup1\n      revert\n    tag_1:\n      pop\n      jumpi(tag_2, lt(calldatasize, 0x04))\n      shr(0xe0, calldataload(0x00))\n      dup1\n      0x67e0badb\n      eq\n      tag_3\n      jumpi\n      dup1\n      0xcd16ecbf\n      eq\n      tag_4\n      jumpi\n      dup1\n      0xfec035d8\n      eq\n      tag_5\n      jumpi\n    tag_2:\n      0x00\n      dup1\n      revert\n        /* \"contracts/23_DelegateCall.sol\":176:246  function getNum() public view returns(uint){... */\n    tag_3:\n      tag_6\n      tag_7\n      jump\t// in\n    tag_6:\n      mload(0x40)\n      tag_8\n      swap2\n      swap1\n      tag_9\n      jump\t// in\n    tag_8:\n      mload(0x40)\n      dup1\n      swap2\n      sub\n      swap1\n      return\n        /* \"contracts/23_DelegateCall.sol\":109:170  function setNum(uint _num) public {... */\n    tag_4:\n      tag_10\n      0x04\n      dup1\n      calldatasize\n      sub\n      dup2\n      add\n      swap1\n      tag_11\n      swap2\n      swap1\n      tag_12\n      jump\t// in\n    tag_11:\n      tag_13\n      jump\t// in\n    tag_10:\n      stop\n        /* \"contracts/23_DelegateCall.sol\":360:547  function bSetNumDelegateCall(address _bAddr, uint _num) public {... */\n    tag_5:\n      tag_14\n      0x04\n      dup1\n      calldatasize\n      sub\n      dup2\n      add\n      swap1\n      tag_15\n      swap2\n      swap1\n      tag_16\n      jump\t// in\n    tag_15:\n      tag_17\n      jump\t// in\n    tag_14:\n      stop\n        /* \"contracts/23_DelegateCall.sol\":176:246  function getNum() public view returns(uint){... */\n    tag_7:\n        /* \"contracts/23_DelegateCall.sol\":214:218  uint */\n      0x00\n        /* \"contracts/23_DelegateCall.sol\":236:239  num */\n      dup1\n      sload\n        /* \"contracts/23_DelegateCall.sol\":229:239  return num */\n      swap1\n      pop\n        /* \"contracts/23_DelegateCall.sol\":176:246  function getNum() public view returns(uint){... */\n      swap1\n      jump\t// out\n        /* \"contracts/23_DelegateCall.sol\":109:170  function setNum(uint _num) public {... */\n    tag_13:\n        /* \"contracts/23_DelegateCall.sol\":162:163  1 */\n      0x01\n        /* \"contracts/23_DelegateCall.sol\":157:161  _num */\n      dup2\n        /* \"contracts/23_DelegateCall.sol\":157:163  _num+1 */\n      tag_20\n      swap2\n      swap1\n      tag_21\n      jump\t// in\n    tag_20:\n        /* \"contracts/23_DelegateCall.sol\":153:156  num */\n      0x00\n        /* \"contracts/23_DelegateCall.sol\":153:163  num=_num+1 */\n      dup2\n      swap1\n      sstore\n      pop\n        /* \"contracts/23_DelegateCall.sol\":109:170  function setNum(uint _num) public {... */\n      pop\n      jump\t// out\n        /* \"contracts/23_DelegateCall.sol\":360:547  function bSetNumDelegateCall(address _bAddr, uint _num) public {... */\n    tag_17:\n        /* \"contracts/23_DelegateCall.sol\":434:442  bool res */\n      0x00\n        /* \"contracts/23_DelegateCall.sol\":445:451  _bAddr */\n      dup3\n        /* \"contracts/23_DelegateCall.sol\":445:464  _bAddr.delegatecall */\n      0xffffffffffffffffffffffffffffffffffffffff\n      and\n        /* \"contracts/23_DelegateCall.sol\":507:511  _num */\n      dup3\n        /* \"contracts/23_DelegateCall.sol\":465:512  abi.encodeWithSignature(\"setNum(uint256)\",_num) */\n      add(0x24, mload(0x40))\n      tag_23\n      swap2\n      swap1\n      tag_9\n      jump\t// in\n    tag_23:\n      mload(0x40)\n      0x20\n      dup2\n      dup4\n      sub\n      sub\n      dup2\n      mstore\n      swap1\n      0x40\n      mstore\n      and(not(0xffffffffffffffffffffffffffffffffffffffffffffffffffffffff), 0xcd16ecbf00000000000000000000000000000000000000000000000000000000)\n      0x20\n      dup3\n      add\n      dup1\n      mload\n      0xffffffffffffffffffffffffffffffffffffffffffffffffffffffff\n      dup4\n      dup2\n      dup4\n      and\n      or\n      dup4\n      mstore\n      pop\n      pop\n      pop\n      pop\n        /* \"contracts/23_DelegateCall.sol\":445:513  _bAddr.delegatecall(abi.encodeWithSignature(\"setNum(uint256)\",_num)) */\n      mload(0x40)\n      tag_24\n      swap2\n      swap1\n      tag_25\n      jump\t// in\n    tag_24:\n      0x00\n      mload(0x40)\n      dup1\n      dup4\n      sub\n      dup2\n      dup6\n      gas\n      delegatecall\n      swap2\n      pop\n      pop\n      returndatasize\n      dup1\n      0x00\n      dup2\n      eq\n      tag_28\n      jumpi\n      mload(0x40)\n      swap2\n      pop\n      and(add(returndatasize, 0x3f), not(0x1f))\n      dup3\n      add\n      0x40\n      mstore\n      returndatasize\n      dup3\n      mstore\n      returndatasize\n      0x00\n      0x20\n      dup5\n      add\n      returndatacopy\n      jump(tag_27)\n    tag_28:\n      0x60\n      swap2\n      pop\n    tag_27:\n      pop\n        /* \"contracts/23_DelegateCall.sol\":433:513  (bool res,)=_bAddr.delegatecall(abi.encodeWithSignature(\"setNum(uint256)\",_num)) */\n      pop\n      swap1\n      pop\n        /* \"contracts/23_DelegateCall.sol\":527:530  res */\n      dup1\n        /* \"contracts/23_DelegateCall.sol\":523:540  if(!res) revert() */\n      tag_29\n      jumpi\n        /* \"contracts/23_DelegateCall.sol\":532:540  revert() */\n      0x00\n      dup1\n      revert\n        /* \"contracts/23_DelegateCall.sol\":523:540  if(!res) revert() */\n    tag_29:\n        /* \"contracts/23_DelegateCall.sol\":423:547  {... */\n      pop\n        /* \"contracts/23_DelegateCall.sol\":360:547  function bSetNumDelegateCall(address _bAddr, uint _num) public {... */\n      pop\n      pop\n      jump\t// out\n        /* \"#utility.yul\":7:84   */\n    tag_30:\n        /* \"#utility.yul\":44:51   */\n      0x00\n        /* \"#utility.yul\":73:78   */\n      dup2\n        /* \"#utility.yul\":62:78   */\n      swap1\n      pop\n        /* \"#utility.yul\":7:84   */\n      swap2\n      swap1\n      pop\n      jump\t// out\n        /* \"#utility.yul\":90:208   */\n    tag_31:\n        /* \"#utility.yul\":177:201   */\n      tag_49\n        /* \"#utility.yul\":195:200   */\n      dup2\n        /* \"#utility.yul\":177:201   */\n      tag_30\n      jump\t// in\n    tag_49:\n        /* \"#utility.yul\":172:175   */\n      dup3\n        /* \"#utility.yul\":165:202   */\n      mstore\n        /* \"#utility.yul\":90:208   */\n      pop\n      pop\n      jump\t// out\n        /* \"#utility.yul\":214:436   */\n    tag_9:\n        /* \"#utility.yul\":307:311   */\n      0x00\n        /* \"#utility.yul\":345:347   */\n      0x20\n        /* \"#utility.yul\":334:343   */\n      dup3\n        /* \"#utility.yul\":330:348   */\n      add\n        /* \"#utility.yul\":322:348   */\n      swap1\n      pop\n        /* \"#utility.yul\":358:429   */\n      tag_51\n        /* \"#utility.yul\":426:427   */\n      0x00\n        /* \"#utility.yul\":415:424   */\n      dup4\n        /* \"#utility.yul\":411:428   */\n      add\n        /* \"#utility.yul\":402:408   */\n      dup5\n        /* \"#utility.yul\":358:429   */\n      tag_31\n      jump\t// in\n    tag_51:\n        /* \"#utility.yul\":214:436   */\n      swap3\n      swap2\n      pop\n      pop\n      jump\t// out\n        /* \"#utility.yul\":523:640   */\n    tag_33:\n        /* \"#utility.yul\":632:633   */\n      0x00\n        /* \"#utility.yul\":629:630   */\n      dup1\n        /* \"#utility.yul\":622:634   */\n      revert\n        /* \"#utility.yul\":769:891   */\n    tag_35:\n        /* \"#utility.yul\":842:866   */\n      tag_56\n        /* \"#utility.yul\":860:865   */\n      dup2\n        /* \"#utility.yul\":842:866   */\n      tag_30\n      jump\t// in\n    tag_56:\n        /* \"#utility.yul\":835:840   */\n      dup2\n        /* \"#utility.yul\":832:867   */\n      eq\n        /* \"#utility.yul\":822:885   */\n      tag_57\n      jumpi\n        /* \"#utility.yul\":881:882   */\n      0x00\n        /* \"#utility.yul\":878:879   */\n      dup1\n        /* \"#utility.yul\":871:883   */\n      revert\n        /* \"#utility.yul\":822:885   */\n    tag_57:\n        /* \"#utility.yul\":769:891   */\n      pop\n      jump\t// out\n        /* \"#utility.yul\":897:1036   */\n    tag_36:\n        /* \"#utility.yul\":943:948   */\n      0x00\n        /* \"#utility.yul\":981:987   */\n      dup2\n        /* \"#utility.yul\":968:988   */\n      calldataload\n        /* \"#utility.yul\":959:988   */\n      swap1\n      pop\n        /* \"#utility.yul\":997:1030   */\n      tag_59\n        /* \"#utility.yul\":1024:1029   */\n      dup2\n        /* \"#utility.yul\":997:1030   */\n      tag_35\n      jump\t// in\n    tag_59:\n        /* \"#utility.yul\":897:1036   */\n      swap3\n      swap2\n      pop\n      pop\n      jump\t// out\n        /* \"#utility.yul\":1042:1371   */\n    tag_12:\n        /* \"#utility.yul\":1101:1107   */\n      0x00\n        /* \"#utility.yul\":1150:1152   */\n      0x20\n        /* \"#utility.yul\":1138:1147   */\n      dup3\n        /* \"#utility.yul\":1129:1136   */\n      dup5\n        /* \"#utility.yul\":1125:1148   */\n      sub\n        /* \"#utility.yul\":1121:1153   */\n      slt\n        /* \"#utility.yul\":1118:1237   */\n      iszero\n      tag_61\n      jumpi\n        /* \"#utility.yul\":1156:1235   */\n      tag_62\n      tag_33\n      jump\t// in\n    tag_62:\n        /* \"#utility.yul\":1118:1237   */\n    tag_61:\n        /* \"#utility.yul\":1276:1277   */\n      0x00\n        /* \"#utility.yul\":1301:1354   */\n      tag_63\n        /* \"#utility.yul\":1346:1353   */\n      dup5\n        /* \"#utility.yul\":1337:1343   */\n      dup3\n        /* \"#utility.yul\":1326:1335   */\n      dup6\n        /* \"#utility.yul\":1322:1344   */\n      add\n        /* \"#utility.yul\":1301:1354   */\n      tag_36\n      jump\t// in\n    tag_63:\n        /* \"#utility.yul\":1291:1354   */\n      swap2\n      pop\n        /* \"#utility.yul\":1247:1364   */\n      pop\n        /* \"#utility.yul\":1042:1371   */\n      swap3\n      swap2\n      pop\n      pop\n      jump\t// out\n        /* \"#utility.yul\":1377:1503   */\n    tag_37:\n        /* \"#utility.yul\":1414:1421   */\n      0x00\n        /* \"#utility.yul\":1454:1496   */\n      0xffffffffffffffffffffffffffffffffffffffff\n        /* \"#utility.yul\":1447:1452   */\n      dup3\n        /* \"#utility.yul\":1443:1497   */\n      and\n        /* \"#utility.yul\":1432:1497   */\n      swap1\n      pop\n        /* \"#utility.yul\":1377:1503   */\n      swap2\n      swap1\n      pop\n      jump\t// out\n        /* \"#utility.yul\":1509:1605   */\n    tag_38:\n        /* \"#utility.yul\":1546:1553   */\n      0x00\n        /* \"#utility.yul\":1575:1599   */\n      tag_66\n        /* \"#utility.yul\":1593:1598   */\n      dup3\n        /* \"#utility.yul\":1575:1599   */\n      tag_37\n      jump\t// in\n    tag_66:\n        /* \"#utility.yul\":1564:1599   */\n      swap1\n      pop\n        /* \"#utility.yul\":1509:1605   */\n      swap2\n      swap1\n      pop\n      jump\t// out\n        /* \"#utility.yul\":1611:1733   */\n    tag_39:\n        /* \"#utility.yul\":1684:1708   */\n      tag_68\n        /* \"#utility.yul\":1702:1707   */\n      dup2\n        /* \"#utility.yul\":1684:1708   */\n      tag_38\n      jump\t// in\n    tag_68:\n        /* \"#utility.yul\":1677:1682   */\n      dup2\n        /* \"#utility.yul\":1674:1709   */\n      eq\n        /* \"#utility.yul\":1664:1727   */\n      tag_69\n      jumpi\n        /* \"#utility.yul\":1723:1724   */\n      0x00\n        /* \"#utility.yul\":1720:1721   */\n      dup1\n        /* \"#utility.yul\":1713:1725   */\n      revert\n        /* \"#utility.yul\":1664:1727   */\n    tag_69:\n        /* \"#utility.yul\":1611:1733   */\n      pop\n      jump\t// out\n        /* \"#utility.yul\":1739:1878   */\n    tag_40:\n        /* \"#utility.yul\":1785:1790   */\n      0x00\n        /* \"#utility.yul\":1823:1829   */\n      dup2\n        /* \"#utility.yul\":1810:1830   */\n      calldataload\n        /* \"#utility.yul\":1801:1830   */\n      swap1\n      pop\n        /* \"#utility.yul\":1839:1872   */\n      tag_71\n        /* \"#utility.yul\":1866:1871   */\n      dup2\n        /* \"#utility.yul\":1839:1872   */\n      tag_39\n      jump\t// in\n    tag_71:\n        /* \"#utility.yul\":1739:1878   */\n      swap3\n      swap2\n      pop\n      pop\n      jump\t// out\n        /* \"#utility.yul\":1884:2358   */\n    tag_16:\n        /* \"#utility.yul\":1952:1958   */\n      0x00\n        /* \"#utility.yul\":1960:1966   */\n      dup1\n        /* \"#utility.yul\":2009:2011   */\n      0x40\n        /* \"#utility.yul\":1997:2006   */\n      dup4\n        /* \"#utility.yul\":1988:1995   */\n      dup6\n        /* \"#utility.yul\":1984:2007   */\n      sub\n        /* \"#utility.yul\":1980:2012   */\n      slt\n        /* \"#utility.yul\":1977:2096   */\n      iszero\n      tag_73\n      jumpi\n        /* \"#utility.yul\":2015:2094   */\n      tag_74\n      tag_33\n      jump\t// in\n    tag_74:\n        /* \"#utility.yul\":1977:2096   */\n    tag_73:\n        /* \"#utility.yul\":2135:2136   */\n      0x00\n        /* \"#utility.yul\":2160:2213   */\n      tag_75\n        /* \"#utility.yul\":2205:2212   */\n      dup6\n        /* \"#utility.yul\":2196:2202   */\n      dup3\n        /* \"#utility.yul\":2185:2194   */\n      dup7\n        /* \"#utility.yul\":2181:2203   */\n      add\n        /* \"#utility.yul\":2160:2213   */\n      tag_40\n      jump\t// in\n    tag_75:\n        /* \"#utility.yul\":2150:2213   */\n      swap3\n      pop\n        /* \"#utility.yul\":2106:2223   */\n      pop\n        /* \"#utility.yul\":2262:2264   */\n      0x20\n        /* \"#utility.yul\":2288:2341   */\n      tag_76\n        /* \"#utility.yul\":2333:2340   */\n      dup6\n        /* \"#utility.yul\":2324:2330   */\n      dup3\n        /* \"#utility.yul\":2313:2322   */\n      dup7\n        /* \"#utility.yul\":2309:2331   */\n      add\n        /* \"#utility.yul\":2288:2341   */\n      tag_36\n      jump\t// in\n    tag_76:\n        /* \"#utility.yul\":2278:2341   */\n      swap2\n      pop\n        /* \"#utility.yul\":2233:2351   */\n      pop\n        /* \"#utility.yul\":1884:2358   */\n      swap3\n      pop\n      swap3\n      swap1\n      pop\n      jump\t// out\n        /* \"#utility.yul\":2364:2544   */\n    tag_41:\n        /* \"#utility.yul\":2412:2489   */\n      0x4e487b7100000000000000000000000000000000000000000000000000000000\n        /* \"#utility.yul\":2409:2410   */\n      0x00\n        /* \"#utility.yul\":2402:2490   */\n      mstore\n        /* \"#utility.yul\":2509:2513   */\n      0x11\n        /* \"#utility.yul\":2506:2507   */\n      0x04\n        /* \"#utility.yul\":2499:2514   */\n      mstore\n        /* \"#utility.yul\":2533:2537   */\n      0x24\n        /* \"#utility.yul\":2530:2531   */\n      0x00\n        /* \"#utility.yul\":2523:2538   */\n      revert\n        /* \"#utility.yul\":2550:2855   */\n    tag_21:\n        /* \"#utility.yul\":2590:2593   */\n      0x00\n        /* \"#utility.yul\":2609:2629   */\n      tag_79\n        /* \"#utility.yul\":2627:2628   */\n      dup3\n        /* \"#utility.yul\":2609:2629   */\n      tag_30\n      jump\t// in\n    tag_79:\n        /* \"#utility.yul\":2604:2629   */\n      swap2\n      pop\n        /* \"#utility.yul\":2643:2663   */\n      tag_80\n        /* \"#utility.yul\":2661:2662   */\n      dup4\n        /* \"#utility.yul\":2643:2663   */\n      tag_30\n      jump\t// in\n    tag_80:\n        /* \"#utility.yul\":2638:2663   */\n      swap3\n      pop\n        /* \"#utility.yul\":2797:2798   */\n      dup3\n        /* \"#utility.yul\":2729:2795   */\n      0xffffffffffffffffffffffffffffffffffffffffffffffffffffffffffffffff\n        /* \"#utility.yul\":2725:2799   */\n      sub\n        /* \"#utility.yul\":2722:2723   */\n      dup3\n        /* \"#utility.yul\":2719:2800   */\n      gt\n        /* \"#utility.yul\":2716:2823   */\n      iszero\n      tag_81\n      jumpi\n        /* \"#utility.yul\":2803:2821   */\n      tag_82\n      tag_41\n      jump\t// in\n    tag_82:\n        /* \"#utility.yul\":2716:2823   */\n    tag_81:\n        /* \"#utility.yul\":2847:2848   */\n      dup3\n        /* \"#utility.yul\":2844:2845   */\n      dup3\n        /* \"#utility.yul\":2840:2849   */\n      add\n        /* \"#utility.yul\":2833:2849   */\n      swap1\n      pop\n        /* \"#utility.yul\":2550:2855   */\n      swap3\n      swap2\n      pop\n      pop\n      jump\t// out\n        /* \"#utility.yul\":2861:2959   */\n    tag_42:\n        /* \"#utility.yul\":2912:2918   */\n      0x00\n        /* \"#utility.yul\":2946:2951   */\n      dup2\n        /* \"#utility.yul\":2940:2952   */\n      mload\n        /* \"#utility.yul\":2930:2952   */\n      swap1\n      pop\n        /* \"#utility.yul\":2861:2959   */\n      swap2\n      swap1\n      pop\n      jump\t// out\n        /* \"#utility.yul\":2965:3112   */\n    tag_43:\n        /* \"#utility.yul\":3066:3077   */\n      0x00\n        /* \"#utility.yul\":3103:3106   */\n      dup2\n        /* \"#utility.yul\":3088:3106   */\n      swap1\n      pop\n        /* \"#utility.yul\":2965:3112   */\n      swap3\n      swap2\n      pop\n      pop\n      jump\t// out\n        /* \"#utility.yul\":3118:3425   */\n    tag_44:\n        /* \"#utility.yul\":3186:3187   */\n      0x00\n        /* \"#utility.yul\":3196:3309   */\n    tag_86:\n        /* \"#utility.yul\":3210:3216   */\n      dup4\n        /* \"#utility.yul\":3207:3208   */\n      dup2\n        /* \"#utility.yul\":3204:3217   */\n      lt\n        /* \"#utility.yul\":3196:3309   */\n      iszero\n      tag_88\n      jumpi\n        /* \"#utility.yul\":3295:3296   */\n      dup1\n        /* \"#utility.yul\":3290:3293   */\n      dup3\n        /* \"#utility.yul\":3286:3297   */\n      add\n        /* \"#utility.yul\":3280:3298   */\n      mload\n        /* \"#utility.yul\":3276:3277   */\n      dup2\n        /* \"#utility.yul\":3271:3274   */\n      dup5\n        /* \"#utility.yul\":3267:3278   */\n      add\n        /* \"#utility.yul\":3260:3299   */\n      mstore\n        /* \"#utility.yul\":3232:3234   */\n      0x20\n        /* \"#utility.yul\":3229:3230   */\n      dup2\n        /* \"#utility.yul\":3225:3235   */\n      add\n        /* \"#utility.yul\":3220:3235   */\n      swap1\n      pop\n        /* \"#utility.yul\":3196:3309   */\n      jump(tag_86)\n    tag_88:\n        /* \"#utility.yul\":3327:3333   */\n      dup4\n        /* \"#utility.yul\":3324:3325   */\n      dup2\n        /* \"#utility.yul\":3321:3334   */\n      gt\n        /* \"#utility.yul\":3318:3419   */\n      iszero\n      tag_89\n      jumpi\n        /* \"#utility.yul\":3407:3408   */\n      0x00\n        /* \"#utility.yul\":3398:3404   */\n      dup5\n        /* \"#utility.yul\":3393:3396   */\n      dup5\n        /* \"#utility.yul\":3389:3405   */\n      add\n        /* \"#utility.yul\":3382:3409   */\n      mstore\n        /* \"#utility.yul\":3318:3419   */\n    tag_89:\n        /* \"#utility.yul\":3167:3425   */\n      pop\n        /* \"#utility.yul\":3118:3425   */\n      pop\n      pop\n      pop\n      jump\t// out\n        /* \"#utility.yul\":3431:3804   */\n    tag_45:\n        /* \"#utility.yul\":3535:3538   */\n      0x00\n        /* \"#utility.yul\":3563:3601   */\n      tag_91\n        /* \"#utility.yul\":3595:3600   */\n      dup3\n        /* \"#utility.yul\":3563:3601   */\n      tag_42\n      jump\t// in\n    tag_91:\n        /* \"#utility.yul\":3617:3705   */\n      tag_92\n        /* \"#utility.yul\":3698:3704   */\n      dup2\n        /* \"#utility.yul\":3693:3696   */\n      dup6\n        /* \"#utility.yul\":3617:3705   */\n      tag_43\n      jump\t// in\n    tag_92:\n        /* \"#utility.yul\":3610:3705   */\n      swap4\n      pop\n        /* \"#utility.yul\":3714:3766   */\n      tag_93\n        /* \"#utility.yul\":3759:3765   */\n      dup2\n        /* \"#utility.yul\":3754:3757   */\n      dup6\n        /* \"#utility.yul\":3747:3751   */\n      0x20\n        /* \"#utility.yul\":3740:3745   */\n      dup7\n        /* \"#utility.yul\":3736:3752   */\n      add\n        /* \"#utility.yul\":3714:3766   */\n      tag_44\n      jump\t// in\n    tag_93:\n        /* \"#utility.yul\":3791:3797   */\n      dup1\n        /* \"#utility.yul\":3786:3789   */\n      dup5\n        /* \"#utility.yul\":3782:3798   */\n      add\n        /* \"#utility.yul\":3775:3798   */\n      swap2\n      pop\n        /* \"#utility.yul\":3539:3804   */\n      pop\n        /* \"#utility.yul\":3431:3804   */\n      swap3\n      swap2\n      pop\n      pop\n      jump\t// out\n        /* \"#utility.yul\":3810:4081   */\n    tag_25:\n        /* \"#utility.yul\":3940:3943   */\n      0x00\n        /* \"#utility.yul\":3962:4055   */\n      tag_95\n        /* \"#utility.yul\":4051:4054   */\n      dup3\n        /* \"#utility.yul\":4042:4048   */\n      dup5\n        /* \"#utility.yul\":3962:4055   */\n      tag_45\n      jump\t// in\n    tag_95:\n        /* \"#utility.yul\":3955:4055   */\n      swap2\n      pop\n        /* \"#utility.yul\":4072:4075   */\n      dup2\n        /* \"#utility.yul\":4065:4075   */\n      swap1\n      pop\n        /* \"#utility.yul\":3810:4081   */\n      swap3\n      swap2\n      pop\n      pop\n      jump\t// out\n\n    auxdata: 0xa2646970667358221220bf580c397a17387d2624d07748c9f48baa01bf0fe3e62d5ac5ed24f77589115164736f6c634300080b0033\n}\n",
				"bytecode": {
					"linkReferences": {},
					"object": "608060405234801561001057600080fd5b5061043e806100206000396000f3fe608060405234801561001057600080fd5b50600436106100415760003560e01c806367e0badb14610046578063cd16ecbf14610064578063fec035d814610080575b600080fd5b61004e61009c565b60405161005b91906101db565b60405180910390f35b61007e60048036038101906100799190610227565b6100a5565b005b61009a600480360381019061009591906102b2565b6100bb565b005b60008054905090565b6001816100b29190610321565b60008190555050565b60008273ffffffffffffffffffffffffffffffffffffffff16826040516024016100e591906101db565b6040516020818303038152906040527fcd16ecbf000000000000000000000000000000000000000000000000000000007bffffffffffffffffffffffffffffffffffffffffffffffffffffffff19166020820180517bffffffffffffffffffffffffffffffffffffffffffffffffffffffff838183161783525050505060405161016f91906103f1565b600060405180830381855af49150503d80600081146101aa576040519150601f19603f3d011682016040523d82523d6000602084013e6101af565b606091505b50509050806101bd57600080fd5b505050565b6000819050919050565b6101d5816101c2565b82525050565b60006020820190506101f060008301846101cc565b92915050565b600080fd5b610204816101c2565b811461020f57600080fd5b50565b600081359050610221816101fb565b92915050565b60006020828403121561023d5761023c6101f6565b5b600061024b84828501610212565b91505092915050565b600073ffffffffffffffffffffffffffffffffffffffff82169050919050565b600061027f82610254565b9050919050565b61028f81610274565b811461029a57600080fd5b50565b6000813590506102ac81610286565b92915050565b600080604083850312156102c9576102c86101f6565b5b60006102d78582860161029d565b92505060206102e885828601610212565b9150509250929050565b7f4e487b7100000000000000000000000000000000000000000000000000000000600052601160045260246000fd5b600061032c826101c2565b9150610337836101c2565b9250827fffffffffffffffffffffffffffffffffffffffffffffffffffffffffffffffff0382111561036c5761036b6102f2565b5b828201905092915050565b600081519050919050565b600081905092915050565b60005b838110156103ab578082015181840152602081019050610390565b838111156103ba576000848401525b50505050565b60006103cb82610377565b6103d58185610382565b93506103e581856020860161038d565b80840191505092915050565b60006103fd82846103c0565b91508190509291505056fea2646970667358221220bf580c397a17387d2624d07748c9f48baa01bf0fe3e62d5ac5ed24f77589115164736f6c634300080b0033",
					"opcodes": "PUSH1 0x80 PUSH1 0x40 MSTORE CALLVALUE DUP1 ISZERO PUSH2 0x10 JUMPI PUSH1 0x0 DUP1 REVERT JUMPDEST POP PUSH2 0x43E DUP1 PUSH2 0x20 PUSH1 0x0 CODECOPY PUSH1 0x0 RETURN INVALID PUSH1 0x80 PUSH1 0x40 MSTORE CALLVALUE DUP1 ISZERO PUSH2 0x10 JUMPI PUSH1 0x0 DUP1 REVERT JUMPDEST POP PUSH1 0x4 CALLDATASIZE LT PUSH2 0x41 JUMPI PUSH1 0x0 CALLDATALOAD PUSH1 0xE0 SHR DUP1 PUSH4 0x67E0BADB EQ PUSH2 0x46 JUMPI DUP1 PUSH4 0xCD16ECBF EQ PUSH2 0x64 JUMPI DUP1 PUSH4 0xFEC035D8 EQ PUSH2 0x80 JUMPI JUMPDEST PUSH1 0x0 DUP1 REVERT JUMPDEST PUSH2 0x4E PUSH2 0x9C JUMP JUMPDEST PUSH1 0x40 MLOAD PUSH2 0x5B SWAP2 SWAP1 PUSH2 0x1DB JUMP JUMPDEST PUSH1 0x40 MLOAD DUP1 SWAP2 SUB SWAP1 RETURN JUMPDEST PUSH2 0x7E PUSH1 0x4 DUP1 CALLDATASIZE SUB DUP2 ADD SWAP1 PUSH2 0x79 SWAP2 SWAP1 PUSH2 0x227 JUMP JUMPDEST PUSH2 0xA5 JUMP JUMPDEST STOP JUMPDEST PUSH2 0x9A PUSH1 0x4 DUP1 CALLDATASIZE SUB DUP2 ADD SWAP1 PUSH2 0x95 SWAP2 SWAP1 PUSH2 0x2B2 JUMP JUMPDEST PUSH2 0xBB JUMP JUMPDEST STOP JUMPDEST PUSH1 0x0 DUP1 SLOAD SWAP1 POP SWAP1 JUMP JUMPDEST PUSH1 0x1 DUP2 PUSH2 0xB2 SWAP2 SWAP1 PUSH2 0x321 JUMP JUMPDEST PUSH1 0x0 DUP2 SWAP1 SSTORE POP POP JUMP JUMPDEST PUSH1 0x0 DUP3 PUSH20 0xFFFFFFFFFFFFFFFFFFFFFFFFFFFFFFFFFFFFFFFF AND DUP3 PUSH1 0x40 MLOAD PUSH1 0x24 ADD PUSH2 0xE5 SWAP2 SWAP1 PUSH2 0x1DB JUMP JUMPDEST PUSH1 0x40 MLOAD PUSH1 0x20 DUP2 DUP4 SUB SUB DUP2 MSTORE SWAP1 PUSH1 0x40 MSTORE PUSH32 0xCD16ECBF00000000000000000000000000000000000000000000000000000000 PUSH28 0xFFFFFFFFFFFFFFFFFFFFFFFFFFFFFFFFFFFFFFFFFFFFFFFFFFFFFFFF NOT AND PUSH1 0x20 DUP3 ADD DUP1 MLOAD PUSH28 0xFFFFFFFFFFFFFFFFFFFFFFFFFFFFFFFFFFFFFFFFFFFFFFFFFFFFFFFF DUP4 DUP2 DUP4 AND OR DUP4 MSTORE POP POP POP POP PUSH1 0x40 MLOAD PUSH2 0x16F SWAP2 SWAP1 PUSH2 0x3F1 JUMP JUMPDEST PUSH1 0x0 PUSH1 0x40 MLOAD DUP1 DUP4 SUB DUP2 DUP6 GAS DELEGATECALL SWAP2 POP POP RETURNDATASIZE DUP1 PUSH1 0x0 DUP2 EQ PUSH2 0x1AA JUMPI PUSH1 0x40 MLOAD SWAP2 POP PUSH1 0x1F NOT PUSH1 0x3F RETURNDATASIZE ADD AND DUP3 ADD PUSH1 0x40 MSTORE RETURNDATASIZE DUP3 MSTORE RETURNDATASIZE PUSH1 0x0 PUSH1 0x20 DUP5 ADD RETURNDATACOPY PUSH2 0x1AF JUMP JUMPDEST PUSH1 0x60 SWAP2 POP JUMPDEST POP POP SWAP1 POP DUP1 PUSH2 0x1BD JUMPI PUSH1 0x0 DUP1 REVERT JUMPDEST POP POP POP JUMP JUMPDEST PUSH1 0x0 DUP2 SWAP1 POP SWAP2 SWAP1 POP JUMP JUMPDEST PUSH2 0x1D5 DUP2 PUSH2 0x1C2 JUMP JUMPDEST DUP3 MSTORE POP POP JUMP JUMPDEST PUSH1 0x0 PUSH1 0x20 DUP3 ADD SWAP1 POP PUSH2 0x1F0 PUSH1 0x0 DUP4 ADD DUP5 PUSH2 0x1CC JUMP JUMPDEST SWAP3 SWAP2 POP POP JUMP JUMPDEST PUSH1 0x0 DUP1 REVERT JUMPDEST PUSH2 0x204 DUP2 PUSH2 0x1C2 JUMP JUMPDEST DUP2 EQ PUSH2 0x20F JUMPI PUSH1 0x0 DUP1 REVERT JUMPDEST POP JUMP JUMPDEST PUSH1 0x0 DUP2 CALLDATALOAD SWAP1 POP PUSH2 0x221 DUP2 PUSH2 0x1FB JUMP JUMPDEST SWAP3 SWAP2 POP POP JUMP JUMPDEST PUSH1 0x0 PUSH1 0x20 DUP3 DUP5 SUB SLT ISZERO PUSH2 0x23D JUMPI PUSH2 0x23C PUSH2 0x1F6 JUMP JUMPDEST JUMPDEST PUSH1 0x0 PUSH2 0x24B DUP5 DUP3 DUP6 ADD PUSH2 0x212 JUMP JUMPDEST SWAP2 POP POP SWAP3 SWAP2 POP POP JUMP JUMPDEST PUSH1 0x0 PUSH20 0xFFFFFFFFFFFFFFFFFFFFFFFFFFFFFFFFFFFFFFFF DUP3 AND SWAP1 POP SWAP2 SWAP1 POP JUMP JUMPDEST PUSH1 0x0 PUSH2 0x27F DUP3 PUSH2 0x254 JUMP JUMPDEST SWAP1 POP SWAP2 SWAP1 POP JUMP JUMPDEST PUSH2 0x28F DUP2 PUSH2 0x274 JUMP JUMPDEST DUP2 EQ PUSH2 0x29A JUMPI PUSH1 0x0 DUP1 REVERT JUMPDEST POP JUMP JUMPDEST PUSH1 0x0 DUP2 CALLDATALOAD SWAP1 POP PUSH2 0x2AC DUP2 PUSH2 0x286 JUMP JUMPDEST SWAP3 SWAP2 POP POP JUMP JUMPDEST PUSH1 0x0 DUP1 PUSH1 0x40 DUP4 DUP6 SUB SLT ISZERO PUSH2 0x2C9 JUMPI PUSH2 0x2C8 PUSH2 0x1F6 JUMP JUMPDEST JUMPDEST PUSH1 0x0 PUSH2 0x2D7 DUP6 DUP3 DUP7 ADD PUSH2 0x29D JUMP JUMPDEST SWAP3 POP POP PUSH1 0x20 PUSH2 0x2E8 DUP6 DUP3 DUP7 ADD PUSH2 0x212 JUMP JUMPDEST SWAP2 POP POP SWAP3 POP SWAP3 SWAP1 POP JUMP JUMPDEST PUSH32 0x4E487B7100000000000000000000000000000000000000000000000000000000 PUSH1 0x0 MSTORE PUSH1 0x11 PUSH1 0x4 MSTORE PUSH1 0x24 PUSH1 0x0 REVERT JUMPDEST PUSH1 0x0 PUSH2 0x32C DUP3 PUSH2 0x1C2 JUMP JUMPDEST SWAP2 POP PUSH2 0x337 DUP4 PUSH2 0x1C2 JUMP JUMPDEST SWAP3 POP DUP3 PUSH32 0xFFFFFFFFFFFFFFFFFFFFFFFFFFFFFFFFFFFFFFFFFFFFFFFFFFFFFFFFFFFFFFFF SUB DUP3 GT ISZERO PUSH2 0x36C JUMPI PUSH2 0x36B PUSH2 0x2F2 JUMP JUMPDEST JUMPDEST DUP3 DUP3 ADD SWAP1 POP SWAP3 SWAP2 POP POP JUMP JUMPDEST PUSH1 0x0 DUP2 MLOAD SWAP1 POP SWAP2 SWAP1 POP JUMP JUMPDEST PUSH1 0x0 DUP2 SWAP1 POP SWAP3 SWAP2 POP POP JUMP JUMPDEST PUSH1 0x0 JUMPDEST DUP4 DUP2 LT ISZERO PUSH2 0x3AB JUMPI DUP1 DUP3 ADD MLOAD DUP2 DUP5 ADD MSTORE PUSH1 0x20 DUP2 ADD SWAP1 POP PUSH2 0x390 JUMP JUMPDEST DUP4 DUP2 GT ISZERO PUSH2 0x3BA JUMPI PUSH1 0x0 DUP5 DUP5 ADD MSTORE JUMPDEST POP POP POP POP JUMP JUMPDEST PUSH1 0x0 PUSH2 0x3CB DUP3 PUSH2 0x377 JUMP JUMPDEST PUSH2 0x3D5 DUP2 DUP6 PUSH2 0x382 JUMP JUMPDEST SWAP4 POP PUSH2 0x3E5 DUP2 DUP6 PUSH1 0x20 DUP7 ADD PUSH2 0x38D JUMP JUMPDEST DUP1 DUP5 ADD SWAP2 POP POP SWAP3 SWAP2 POP POP JUMP JUMPDEST PUSH1 0x0 PUSH2 0x3FD DUP3 DUP5 PUSH2 0x3C0 JUMP JUMPDEST SWAP2 POP DUP2 SWAP1 POP SWAP3 SWAP2 POP POP JUMP INVALID LOG2 PUSH5 0x6970667358 0x22 SLT KECCAK256 0xBF PC 0xC CODECOPY PUSH27 0x17387D2624D07748C9F48BAA01BF0FE3E62D5AC5ED24F775891151 PUSH5 0x736F6C6343 STOP ADDMOD SIGNEXTEND STOP CALLER "
				},
				"gasEstimates": {
					"creation": {
						"codeDepositCost": "217200",
						"executionCost": "257",
						"totalCost": "217457"
					},
					"external": {
						"bSetNumDelegateCall(address,uint256)": "infinite",
						"getNum()": "2415",
						"setNum(uint256)": "infinite"
					}
				},
				"methodIdentifiers": {
					"bSetNumDelegateCall(address,uint256)": "fec035d8",
					"getNum()": "67e0badb",
					"setNum(uint256)": "cd16ecbf"
				}
			},
			"storageLayout": {
				"storage": [
					{
						"astId": 3,
						"contract": "contracts/23_DelegateCall.sol:A",
						"label": "num",
						"offset": 0,
						"slot": "0",
						"type": "t_uint256"
					}
				],
				"types": {
					"t_uint256": {
						"encoding": "inplace",
						"label": "uint256",
						"numberOfBytes": "32"
					}
				}
			},
			"userdoc": {
				"kind": "user",
				"methods": {},
				"version": 1
			}
		}
	}
}