{
	"contracts/9_AddresssStudy.sol": {
		"AddressStudy": {
			"abi": [
				{
					"inputs": [],
					"stateMutability": "nonpayable",
					"type": "constructor"
				},
				{
					"inputs": [],
					"name": "getContractAddress",
					"outputs": [
						{
							"internalType": "address",
							"name": "",
							"type": "address"
						}
					],
					"stateMutability": "view",
					"type": "function"
				},
				{
					"inputs": [],
					"name": "getOwnerAddress",
					"outputs": [
						{
							"internalType": "address",
							"name": "",
							"type": "address"
						}
					],
					"stateMutability": "view",
					"type": "function"
				},
				{
					"inputs": [],
					"name": "getSenderAddress",
					"outputs": [
						{
							"internalType": "address",
							"name": "",
							"type": "address"
						}
					],
					"stateMutability": "view",
					"type": "function"
				}
			],
			"devdoc": {
				"kind": "dev",
				"methods": {},
				"version": 1
			},
			"evm": {
				"assembly": "    /* \"contracts/9_AddresssStudy.sol\":70:536  contract AddressStudy{... */\n  mstore(0x40, 0x80)\n    /* \"contracts/9_AddresssStudy.sol\":121:171  constructor(){... */\n  callvalue\n  dup1\n  iszero\n  tag_1\n  jumpi\n  0x00\n  dup1\n  revert\ntag_1:\n  pop\n    /* \"contracts/9_AddresssStudy.sol\":154:164  msg.sender */\n  caller\n    /* \"contracts/9_AddresssStudy.sol\":144:153  ownerAddr */\n  0x00\n  dup1\n    /* \"contracts/9_AddresssStudy.sol\":144:164  ownerAddr=msg.sender */\n  0x0100\n  exp\n  dup2\n  sload\n  dup2\n  0xffffffffffffffffffffffffffffffffffffffff\n  mul\n  not\n  and\n  swap1\n  dup4\n  0xffffffffffffffffffffffffffffffffffffffff\n  and\n  mul\n  or\n  swap1\n  sstore\n  pop\n    /* \"contracts/9_AddresssStudy.sol\":70:536  contract AddressStudy{... */\n  dataSize(sub_0)\n  dup1\n  dataOffset(sub_0)\n  0x00\n  codecopy\n  0x00\n  return\nstop\n\nsub_0: assembly {\n        /* \"contracts/9_AddresssStudy.sol\":70:536  contract AddressStudy{... */\n      mstore(0x40, 0x80)\n      callvalue\n      dup1\n      iszero\n      tag_1\n      jumpi\n      0x00\n      dup1\n      revert\n    tag_1:\n      pop\n      jumpi(tag_2, lt(calldatasize, 0x04))\n      shr(0xe0, calldataload(0x00))\n      dup1\n      0x0c4f65bd\n      eq\n      tag_3\n      jumpi\n      dup1\n      0x32a2c5d0\n      eq\n      tag_4\n      jumpi\n      dup1\n      0x42948e18\n      eq\n      tag_5\n      jumpi\n    tag_2:\n      0x00\n      dup1\n      revert\n        /* \"contracts/9_AddresssStudy.sol\":440:534  function getOwnerAddress() external view returns(address){... */\n    tag_3:\n      tag_6\n      tag_7\n      jump\t// in\n    tag_6:\n      mload(0x40)\n      tag_8\n      swap2\n      swap1\n      tag_9\n      jump\t// in\n    tag_8:\n      mload(0x40)\n      dup1\n      swap2\n      sub\n      swap1\n      return\n        /* \"contracts/9_AddresssStudy.sol\":202:299  function getContractAddress() external view returns(address){... */\n    tag_4:\n      tag_10\n      tag_11\n      jump\t// in\n    tag_10:\n      mload(0x40)\n      tag_12\n      swap2\n      swap1\n      tag_9\n      jump\t// in\n    tag_12:\n      mload(0x40)\n      dup1\n      swap2\n      sub\n      swap1\n      return\n        /* \"contracts/9_AddresssStudy.sol\":342:434  function getSenderAddress() external view returns(address){... */\n    tag_5:\n      tag_13\n      tag_14\n      jump\t// in\n    tag_13:\n      mload(0x40)\n      tag_15\n      swap2\n      swap1\n      tag_9\n      jump\t// in\n    tag_15:\n      mload(0x40)\n      dup1\n      swap2\n      sub\n      swap1\n      return\n        /* \"contracts/9_AddresssStudy.sol\":440:534  function getOwnerAddress() external view returns(address){... */\n    tag_7:\n        /* \"contracts/9_AddresssStudy.sol\":489:496  address */\n      0x00\n        /* \"contracts/9_AddresssStudy.sol\":522:526  this */\n      address\n        /* \"contracts/9_AddresssStudy.sol\":507:527  return address(this) */\n      swap1\n      pop\n        /* \"contracts/9_AddresssStudy.sol\":440:534  function getOwnerAddress() external view returns(address){... */\n      swap1\n      jump\t// out\n        /* \"contracts/9_AddresssStudy.sol\":202:299  function getContractAddress() external view returns(address){... */\n    tag_11:\n        /* \"contracts/9_AddresssStudy.sol\":254:261  address */\n      0x00\n        /* \"contracts/9_AddresssStudy.sol\":287:291  this */\n      address\n        /* \"contracts/9_AddresssStudy.sol\":272:292  return address(this) */\n      swap1\n      pop\n        /* \"contracts/9_AddresssStudy.sol\":202:299  function getContractAddress() external view returns(address){... */\n      swap1\n      jump\t// out\n        /* \"contracts/9_AddresssStudy.sol\":342:434  function getSenderAddress() external view returns(address){... */\n    tag_14:\n        /* \"contracts/9_AddresssStudy.sol\":392:399  address */\n      0x00\n        /* \"contracts/9_AddresssStudy.sol\":417:427  msg.sender */\n      caller\n        /* \"contracts/9_AddresssStudy.sol\":410:427  return msg.sender */\n      swap1\n      pop\n        /* \"contracts/9_AddresssStudy.sol\":342:434  function getSenderAddress() external view returns(address){... */\n      swap1\n      jump\t// out\n        /* \"#utility.yul\":7:125   */\n    tag_20:\n        /* \"#utility.yul\":94:118   */\n      tag_22\n        /* \"#utility.yul\":112:117   */\n      dup2\n        /* \"#utility.yul\":94:118   */\n      tag_23\n      jump\t// in\n    tag_22:\n        /* \"#utility.yul\":89:92   */\n      dup3\n        /* \"#utility.yul\":82:119   */\n      mstore\n        /* \"#utility.yul\":7:125   */\n      pop\n      pop\n      jump\t// out\n        /* \"#utility.yul\":131:353   */\n    tag_9:\n        /* \"#utility.yul\":224:228   */\n      0x00\n        /* \"#utility.yul\":262:264   */\n      0x20\n        /* \"#utility.yul\":251:260   */\n      dup3\n        /* \"#utility.yul\":247:265   */\n      add\n        /* \"#utility.yul\":239:265   */\n      swap1\n      pop\n        /* \"#utility.yul\":275:346   */\n      tag_25\n        /* \"#utility.yul\":343:344   */\n      0x00\n        /* \"#utility.yul\":332:341   */\n      dup4\n        /* \"#utility.yul\":328:345   */\n      add\n        /* \"#utility.yul\":319:325   */\n      dup5\n        /* \"#utility.yul\":275:346   */\n      tag_20\n      jump\t// in\n    tag_25:\n        /* \"#utility.yul\":131:353   */\n      swap3\n      swap2\n      pop\n      pop\n      jump\t// out\n        /* \"#utility.yul\":359:455   */\n    tag_23:\n        /* \"#utility.yul\":396:403   */\n      0x00\n        /* \"#utility.yul\":425:449   */\n      tag_27\n        /* \"#utility.yul\":443:448   */\n      dup3\n        /* \"#utility.yul\":425:449   */\n      tag_28\n      jump\t// in\n    tag_27:\n        /* \"#utility.yul\":414:449   */\n      swap1\n      pop\n        /* \"#utility.yul\":359:455   */\n      swap2\n      swap1\n      pop\n      jump\t// out\n        /* \"#utility.yul\":461:587   */\n    tag_28:\n        /* \"#utility.yul\":498:505   */\n      0x00\n        /* \"#utility.yul\":538:580   */\n      0xffffffffffffffffffffffffffffffffffffffff\n        /* \"#utility.yul\":531:536   */\n      dup3\n        /* \"#utility.yul\":527:581   */\n      and\n        /* \"#utility.yul\":516:581   */\n      swap1\n      pop\n        /* \"#utility.yul\":461:587   */\n      swap2\n      swap1\n      pop\n      jump\t// out\n\n    auxdata: 0xa264697066735822122023a83d7bf723a9e8578eb603023c95d395b642597199fee1cecb25761ebd7e3764736f6c63430008070033\n}\n",
				"bytecode": {
					"linkReferences": {},
					"object": "608060405234801561001057600080fd5b50336000806101000a81548173ffffffffffffffffffffffffffffffffffffffff021916908373ffffffffffffffffffffffffffffffffffffffff160217905550610133806100606000396000f3fe6080604052348015600f57600080fd5b5060043610603c5760003560e01c80630c4f65bd14604157806332a2c5d014605b57806342948e18146075575b600080fd5b6047608f565b6040516052919060b4565b60405180910390f35b60616097565b604051606c919060b4565b60405180910390f35b607b609f565b6040516086919060b4565b60405180910390f35b600030905090565b600030905090565b600033905090565b60ae8160cd565b82525050565b600060208201905060c7600083018460a7565b92915050565b600060d68260dd565b9050919050565b600073ffffffffffffffffffffffffffffffffffffffff8216905091905056fea264697066735822122023a83d7bf723a9e8578eb603023c95d395b642597199fee1cecb25761ebd7e3764736f6c63430008070033",
					"opcodes": "PUSH1 0x80 PUSH1 0x40 MSTORE CALLVALUE DUP1 ISZERO PUSH2 0x10 JUMPI PUSH1 0x0 DUP1 REVERT JUMPDEST POP CALLER PUSH1 0x0 DUP1 PUSH2 0x100 EXP DUP2 SLOAD DUP2 PUSH20 0xFFFFFFFFFFFFFFFFFFFFFFFFFFFFFFFFFFFFFFFF MUL NOT AND SWAP1 DUP4 PUSH20 0xFFFFFFFFFFFFFFFFFFFFFFFFFFFFFFFFFFFFFFFF AND MUL OR SWAP1 SSTORE POP PUSH2 0x133 DUP1 PUSH2 0x60 PUSH1 0x0 CODECOPY PUSH1 0x0 RETURN INVALID PUSH1 0x80 PUSH1 0x40 MSTORE CALLVALUE DUP1 ISZERO PUSH1 0xF JUMPI PUSH1 0x0 DUP1 REVERT JUMPDEST POP PUSH1 0x4 CALLDATASIZE LT PUSH1 0x3C JUMPI PUSH1 0x0 CALLDATALOAD PUSH1 0xE0 SHR DUP1 PUSH4 0xC4F65BD EQ PUSH1 0x41 JUMPI DUP1 PUSH4 0x32A2C5D0 EQ PUSH1 0x5B JUMPI DUP1 PUSH4 0x42948E18 EQ PUSH1 0x75 JUMPI JUMPDEST PUSH1 0x0 DUP1 REVERT JUMPDEST PUSH1 0x47 PUSH1 0x8F JUMP JUMPDEST PUSH1 0x40 MLOAD PUSH1 0x52 SWAP2 SWAP1 PUSH1 0xB4 JUMP JUMPDEST PUSH1 0x40 MLOAD DUP1 SWAP2 SUB SWAP1 RETURN JUMPDEST PUSH1 0x61 PUSH1 0x97 JUMP JUMPDEST PUSH1 0x40 MLOAD PUSH1 0x6C SWAP2 SWAP1 PUSH1 0xB4 JUMP JUMPDEST PUSH1 0x40 MLOAD DUP1 SWAP2 SUB SWAP1 RETURN JUMPDEST PUSH1 0x7B PUSH1 0x9F JUMP JUMPDEST PUSH1 0x40 MLOAD PUSH1 0x86 SWAP2 SWAP1 PUSH1 0xB4 JUMP JUMPDEST PUSH1 0x40 MLOAD DUP1 SWAP2 SUB SWAP1 RETURN JUMPDEST PUSH1 0x0 ADDRESS SWAP1 POP SWAP1 JUMP JUMPDEST PUSH1 0x0 ADDRESS SWAP1 POP SWAP1 JUMP JUMPDEST PUSH1 0x0 CALLER SWAP1 POP SWAP1 JUMP JUMPDEST PUSH1 0xAE DUP2 PUSH1 0xCD JUMP JUMPDEST DUP3 MSTORE POP POP JUMP JUMPDEST PUSH1 0x0 PUSH1 0x20 DUP3 ADD SWAP1 POP PUSH1 0xC7 PUSH1 0x0 DUP4 ADD DUP5 PUSH1 0xA7 JUMP JUMPDEST SWAP3 SWAP2 POP POP JUMP JUMPDEST PUSH1 0x0 PUSH1 0xD6 DUP3 PUSH1 0xDD JUMP JUMPDEST SWAP1 POP SWAP2 SWAP1 POP JUMP JUMPDEST PUSH1 0x0 PUSH20 0xFFFFFFFFFFFFFFFFFFFFFFFFFFFFFFFFFFFFFFFF DUP3 AND SWAP1 POP SWAP2 SWAP1 POP JUMP INVALID LOG2 PUSH5 0x6970667358 0x22 SLT KECCAK256 0x23 0xA8 RETURNDATASIZE PUSH28 0xF723A9E8578EB603023C95D395B642597199FEE1CECB25761EBD7E37 PUSH5 0x736F6C6343 STOP ADDMOD SMOD STOP CALLER "
				},
				"gasEstimates": {
					"creation": {
						"codeDepositCost": "61400",
						"executionCost": "24377",
						"totalCost": "85777"
					},
					"external": {
						"getContractAddress()": "385",
						"getOwnerAddress()": "363",
						"getSenderAddress()": "407"
					}
				},
				"methodIdentifiers": {
					"getContractAddress()": "32a2c5d0",
					"getOwnerAddress()": "0c4f65bd",
					"getSenderAddress()": "42948e18"
				}
			},
			"storageLayout": {
				"storage": [
					{
						"astId": 3,
						"contract": "contracts/9_AddresssStudy.sol:AddressStudy",
						"label": "ownerAddr",
						"offset": 0,
						"slot": "0",
						"type": "t_address"
					}
				],
				"types": {
					"t_address": {
						"encoding": "inplace",
						"label": "address",
						"numberOfBytes": "20"
					}
				}
			},
			"userdoc": {
				"kind": "user",
				"methods": {},
				"version": 1
			}
		}
	}
}