{
	"contracts/5_ModifierStudy.sol": {
		"ModifierStudy": {
			"abi": [
				{
					"inputs": [],
					"stateMutability": "nonpayable",
					"type": "constructor"
				},
				{
					"inputs": [],
					"name": "account",
					"outputs": [
						{
							"internalType": "uint256",
							"name": "",
							"type": "uint256"
						}
					],
					"stateMutability": "view",
					"type": "function"
				},
				{
					"inputs": [],
					"name": "owner",
					"outputs": [
						{
							"internalType": "address",
							"name": "",
							"type": "address"
						}
					],
					"stateMutability": "view",
					"type": "function"
				},
				{
					"inputs": [
						{
							"internalType": "uint256",
							"name": "_account",
							"type": "uint256"
						}
					],
					"name": "updateAccount",
					"outputs": [],
					"stateMutability": "nonpayable",
					"type": "function"
				}
			],
			"devdoc": {
				"kind": "dev",
				"methods": {},
				"version": 1
			},
			"evm": {
				"assembly": "    /* \"contracts/5_ModifierStudy.sol\":70:811  contract ModifierStudy{... */\n  mstore(0x40, 0x80)\n    /* \"contracts/5_ModifierStudy.sol\":153:289  constructor(){... */\n  callvalue\n  dup1\n  iszero\n  tag_1\n  jumpi\n  0x00\n  dup1\n  revert\ntag_1:\n  pop\n    /* \"contracts/5_ModifierStudy.sol\":182:192  msg.sender */\n  caller\n    /* \"contracts/5_ModifierStudy.sol\":176:181  owner */\n  0x00\n  dup1\n    /* \"contracts/5_ModifierStudy.sol\":176:192  owner=msg.sender */\n  0x0100\n  exp\n  dup2\n  sload\n  dup2\n  0xffffffffffffffffffffffffffffffffffffffff\n  mul\n  not\n  and\n  swap1\n  dup4\n  0xffffffffffffffffffffffffffffffffffffffff\n  and\n  mul\n  or\n  swap1\n  sstore\n  pop\n    /* \"contracts/5_ModifierStudy.sol\":281:282  0 */\n  0x00\n    /* \"contracts/5_ModifierStudy.sol\":273:280  account */\n  0x01\n    /* \"contracts/5_ModifierStudy.sol\":273:282  account=0 */\n  dup2\n  swap1\n  sstore\n  pop\n    /* \"contracts/5_ModifierStudy.sol\":70:811  contract ModifierStudy{... */\n  dataSize(sub_0)\n  dup1\n  dataOffset(sub_0)\n  0x00\n  codecopy\n  0x00\n  return\nstop\n\nsub_0: assembly {\n        /* \"contracts/5_ModifierStudy.sol\":70:811  contract ModifierStudy{... */\n      mstore(0x40, 0x80)\n      callvalue\n      dup1\n      iszero\n      tag_1\n      jumpi\n      0x00\n      dup1\n      revert\n    tag_1:\n      pop\n      jumpi(tag_2, lt(calldatasize, 0x04))\n      shr(0xe0, calldataload(0x00))\n      dup1\n      0x2f5b38be\n      eq\n      tag_3\n      jumpi\n      dup1\n      0x5dab2420\n      eq\n      tag_4\n      jumpi\n      dup1\n      0x8da5cb5b\n      eq\n      tag_5\n      jumpi\n    tag_2:\n      0x00\n      dup1\n      revert\n        /* \"contracts/5_ModifierStudy.sol\":695:809  function updateAccount(uint256 _account) public onlyOwner largerThan100(_account){... */\n    tag_3:\n      tag_6\n      0x04\n      dup1\n      calldatasize\n      sub\n      dup2\n      add\n      swap1\n      tag_7\n      swap2\n      swap1\n      tag_8\n      jump\t// in\n    tag_7:\n      tag_9\n      jump\t// in\n    tag_6:\n      stop\n        /* \"contracts/5_ModifierStudy.sol\":124:146  uint256 public account */\n    tag_4:\n      tag_10\n      tag_11\n      jump\t// in\n    tag_10:\n      mload(0x40)\n      tag_12\n      swap2\n      swap1\n      tag_13\n      jump\t// in\n    tag_12:\n      mload(0x40)\n      dup1\n      swap2\n      sub\n      swap1\n      return\n        /* \"contracts/5_ModifierStudy.sol\":98:118  address public owner */\n    tag_5:\n      tag_14\n      tag_15\n      jump\t// in\n    tag_14:\n      mload(0x40)\n      tag_16\n      swap2\n      swap1\n      tag_17\n      jump\t// in\n    tag_16:\n      mload(0x40)\n      dup1\n      swap2\n      sub\n      swap1\n      return\n        /* \"contracts/5_ModifierStudy.sol\":695:809  function updateAccount(uint256 _account) public onlyOwner largerThan100(_account){... */\n    tag_9:\n        /* \"contracts/5_ModifierStudy.sol\":345:350  owner */\n      0x00\n      dup1\n      sload\n      swap1\n      0x0100\n      exp\n      swap1\n      div\n      0xffffffffffffffffffffffffffffffffffffffff\n      and\n        /* \"contracts/5_ModifierStudy.sol\":333:350  msg.sender==owner */\n      0xffffffffffffffffffffffffffffffffffffffff\n      and\n        /* \"contracts/5_ModifierStudy.sol\":333:343  msg.sender */\n      caller\n        /* \"contracts/5_ModifierStudy.sol\":333:350  msg.sender==owner */\n      0xffffffffffffffffffffffffffffffffffffffff\n      and\n      eq\n        /* \"contracts/5_ModifierStudy.sol\":325:365  require(msg.sender==owner, \"Only Owner\") */\n      tag_19\n      jumpi\n      mload(0x40)\n      0x08c379a000000000000000000000000000000000000000000000000000000000\n      dup2\n      mstore\n      0x04\n      add\n      tag_20\n      swap1\n      tag_21\n      jump\t// in\n    tag_20:\n      mload(0x40)\n      dup1\n      swap2\n      sub\n      swap1\n      revert\n    tag_19:\n        /* \"contracts/5_ModifierStudy.sol\":767:775  _account */\n      dup1\n        /* \"contracts/5_ModifierStudy.sol\":553:556  100 */\n      0x64\n        /* \"contracts/5_ModifierStudy.sol\":544:552  _account */\n      dup2\n        /* \"contracts/5_ModifierStudy.sol\":544:556  _account>100 */\n      gt\n        /* \"contracts/5_ModifierStudy.sol\":536:574  require(_account>100, \"less than 100\") */\n      tag_23\n      jumpi\n      mload(0x40)\n      0x08c379a000000000000000000000000000000000000000000000000000000000\n      dup2\n      mstore\n      0x04\n      add\n      tag_24\n      swap1\n      tag_25\n      jump\t// in\n    tag_24:\n      mload(0x40)\n      dup1\n      swap2\n      sub\n      swap1\n      revert\n    tag_23:\n        /* \"contracts/5_ModifierStudy.sol\":794:802  _account */\n      dup2\n        /* \"contracts/5_ModifierStudy.sol\":786:793  account */\n      0x01\n        /* \"contracts/5_ModifierStudy.sol\":786:802  account=_account */\n      dup2\n      swap1\n      sstore\n      pop\n        /* \"contracts/5_ModifierStudy.sol\":455:456  _ */\n      pop\n        /* \"contracts/5_ModifierStudy.sol\":695:809  function updateAccount(uint256 _account) public onlyOwner largerThan100(_account){... */\n      pop\n      jump\t// out\n        /* \"contracts/5_ModifierStudy.sol\":124:146  uint256 public account */\n    tag_11:\n      sload(0x01)\n      dup2\n      jump\t// out\n        /* \"contracts/5_ModifierStudy.sol\":98:118  address public owner */\n    tag_15:\n      0x00\n      dup1\n      sload\n      swap1\n      0x0100\n      exp\n      swap1\n      div\n      0xffffffffffffffffffffffffffffffffffffffff\n      and\n      dup2\n      jump\t// out\n        /* \"#utility.yul\":7:146   */\n    tag_28:\n        /* \"#utility.yul\":53:58   */\n      0x00\n        /* \"#utility.yul\":91:97   */\n      dup2\n        /* \"#utility.yul\":78:98   */\n      calldataload\n        /* \"#utility.yul\":69:98   */\n      swap1\n      pop\n        /* \"#utility.yul\":107:140   */\n      tag_30\n        /* \"#utility.yul\":134:139   */\n      dup2\n        /* \"#utility.yul\":107:140   */\n      tag_31\n      jump\t// in\n    tag_30:\n        /* \"#utility.yul\":7:146   */\n      swap3\n      swap2\n      pop\n      pop\n      jump\t// out\n        /* \"#utility.yul\":152:481   */\n    tag_8:\n        /* \"#utility.yul\":211:217   */\n      0x00\n        /* \"#utility.yul\":260:262   */\n      0x20\n        /* \"#utility.yul\":248:257   */\n      dup3\n        /* \"#utility.yul\":239:246   */\n      dup5\n        /* \"#utility.yul\":235:258   */\n      sub\n        /* \"#utility.yul\":231:263   */\n      slt\n        /* \"#utility.yul\":228:347   */\n      iszero\n      tag_33\n      jumpi\n        /* \"#utility.yul\":266:345   */\n      tag_34\n      tag_35\n      jump\t// in\n    tag_34:\n        /* \"#utility.yul\":228:347   */\n    tag_33:\n        /* \"#utility.yul\":386:387   */\n      0x00\n        /* \"#utility.yul\":411:464   */\n      tag_36\n        /* \"#utility.yul\":456:463   */\n      dup5\n        /* \"#utility.yul\":447:453   */\n      dup3\n        /* \"#utility.yul\":436:445   */\n      dup6\n        /* \"#utility.yul\":432:454   */\n      add\n        /* \"#utility.yul\":411:464   */\n      tag_28\n      jump\t// in\n    tag_36:\n        /* \"#utility.yul\":401:464   */\n      swap2\n      pop\n        /* \"#utility.yul\":357:474   */\n      pop\n        /* \"#utility.yul\":152:481   */\n      swap3\n      swap2\n      pop\n      pop\n      jump\t// out\n        /* \"#utility.yul\":487:605   */\n    tag_37:\n        /* \"#utility.yul\":574:598   */\n      tag_39\n        /* \"#utility.yul\":592:597   */\n      dup2\n        /* \"#utility.yul\":574:598   */\n      tag_40\n      jump\t// in\n    tag_39:\n        /* \"#utility.yul\":569:572   */\n      dup3\n        /* \"#utility.yul\":562:599   */\n      mstore\n        /* \"#utility.yul\":487:605   */\n      pop\n      pop\n      jump\t// out\n        /* \"#utility.yul\":611:977   */\n    tag_41:\n        /* \"#utility.yul\":753:756   */\n      0x00\n        /* \"#utility.yul\":774:841   */\n      tag_43\n        /* \"#utility.yul\":838:840   */\n      0x0d\n        /* \"#utility.yul\":833:836   */\n      dup4\n        /* \"#utility.yul\":774:841   */\n      tag_44\n      jump\t// in\n    tag_43:\n        /* \"#utility.yul\":767:841   */\n      swap2\n      pop\n        /* \"#utility.yul\":850:943   */\n      tag_45\n        /* \"#utility.yul\":939:942   */\n      dup3\n        /* \"#utility.yul\":850:943   */\n      tag_46\n      jump\t// in\n    tag_45:\n        /* \"#utility.yul\":968:970   */\n      0x20\n        /* \"#utility.yul\":963:966   */\n      dup3\n        /* \"#utility.yul\":959:971   */\n      add\n        /* \"#utility.yul\":952:971   */\n      swap1\n      pop\n        /* \"#utility.yul\":611:977   */\n      swap2\n      swap1\n      pop\n      jump\t// out\n        /* \"#utility.yul\":983:1349   */\n    tag_47:\n        /* \"#utility.yul\":1125:1128   */\n      0x00\n        /* \"#utility.yul\":1146:1213   */\n      tag_49\n        /* \"#utility.yul\":1210:1212   */\n      0x0a\n        /* \"#utility.yul\":1205:1208   */\n      dup4\n        /* \"#utility.yul\":1146:1213   */\n      tag_44\n      jump\t// in\n    tag_49:\n        /* \"#utility.yul\":1139:1213   */\n      swap2\n      pop\n        /* \"#utility.yul\":1222:1315   */\n      tag_50\n        /* \"#utility.yul\":1311:1314   */\n      dup3\n        /* \"#utility.yul\":1222:1315   */\n      tag_51\n      jump\t// in\n    tag_50:\n        /* \"#utility.yul\":1340:1342   */\n      0x20\n        /* \"#utility.yul\":1335:1338   */\n      dup3\n        /* \"#utility.yul\":1331:1343   */\n      add\n        /* \"#utility.yul\":1324:1343   */\n      swap1\n      pop\n        /* \"#utility.yul\":983:1349   */\n      swap2\n      swap1\n      pop\n      jump\t// out\n        /* \"#utility.yul\":1355:1473   */\n    tag_52:\n        /* \"#utility.yul\":1442:1466   */\n      tag_54\n        /* \"#utility.yul\":1460:1465   */\n      dup2\n        /* \"#utility.yul\":1442:1466   */\n      tag_55\n      jump\t// in\n    tag_54:\n        /* \"#utility.yul\":1437:1440   */\n      dup3\n        /* \"#utility.yul\":1430:1467   */\n      mstore\n        /* \"#utility.yul\":1355:1473   */\n      pop\n      pop\n      jump\t// out\n        /* \"#utility.yul\":1479:1701   */\n    tag_17:\n        /* \"#utility.yul\":1572:1576   */\n      0x00\n        /* \"#utility.yul\":1610:1612   */\n      0x20\n        /* \"#utility.yul\":1599:1608   */\n      dup3\n        /* \"#utility.yul\":1595:1613   */\n      add\n        /* \"#utility.yul\":1587:1613   */\n      swap1\n      pop\n        /* \"#utility.yul\":1623:1694   */\n      tag_57\n        /* \"#utility.yul\":1691:1692   */\n      0x00\n        /* \"#utility.yul\":1680:1689   */\n      dup4\n        /* \"#utility.yul\":1676:1693   */\n      add\n        /* \"#utility.yul\":1667:1673   */\n      dup5\n        /* \"#utility.yul\":1623:1694   */\n      tag_37\n      jump\t// in\n    tag_57:\n        /* \"#utility.yul\":1479:1701   */\n      swap3\n      swap2\n      pop\n      pop\n      jump\t// out\n        /* \"#utility.yul\":1707:2126   */\n    tag_25:\n        /* \"#utility.yul\":1873:1877   */\n      0x00\n        /* \"#utility.yul\":1911:1913   */\n      0x20\n        /* \"#utility.yul\":1900:1909   */\n      dup3\n        /* \"#utility.yul\":1896:1914   */\n      add\n        /* \"#utility.yul\":1888:1914   */\n      swap1\n      pop\n        /* \"#utility.yul\":1960:1969   */\n      dup2\n        /* \"#utility.yul\":1954:1958   */\n      dup2\n        /* \"#utility.yul\":1950:1970   */\n      sub\n        /* \"#utility.yul\":1946:1947   */\n      0x00\n        /* \"#utility.yul\":1935:1944   */\n      dup4\n        /* \"#utility.yul\":1931:1948   */\n      add\n        /* \"#utility.yul\":1924:1971   */\n      mstore\n        /* \"#utility.yul\":1988:2119   */\n      tag_59\n        /* \"#utility.yul\":2114:2118   */\n      dup2\n        /* \"#utility.yul\":1988:2119   */\n      tag_41\n      jump\t// in\n    tag_59:\n        /* \"#utility.yul\":1980:2119   */\n      swap1\n      pop\n        /* \"#utility.yul\":1707:2126   */\n      swap2\n      swap1\n      pop\n      jump\t// out\n        /* \"#utility.yul\":2132:2551   */\n    tag_21:\n        /* \"#utility.yul\":2298:2302   */\n      0x00\n        /* \"#utility.yul\":2336:2338   */\n      0x20\n        /* \"#utility.yul\":2325:2334   */\n      dup3\n        /* \"#utility.yul\":2321:2339   */\n      add\n        /* \"#utility.yul\":2313:2339   */\n      swap1\n      pop\n        /* \"#utility.yul\":2385:2394   */\n      dup2\n        /* \"#utility.yul\":2379:2383   */\n      dup2\n        /* \"#utility.yul\":2375:2395   */\n      sub\n        /* \"#utility.yul\":2371:2372   */\n      0x00\n        /* \"#utility.yul\":2360:2369   */\n      dup4\n        /* \"#utility.yul\":2356:2373   */\n      add\n        /* \"#utility.yul\":2349:2396   */\n      mstore\n        /* \"#utility.yul\":2413:2544   */\n      tag_61\n        /* \"#utility.yul\":2539:2543   */\n      dup2\n        /* \"#utility.yul\":2413:2544   */\n      tag_47\n      jump\t// in\n    tag_61:\n        /* \"#utility.yul\":2405:2544   */\n      swap1\n      pop\n        /* \"#utility.yul\":2132:2551   */\n      swap2\n      swap1\n      pop\n      jump\t// out\n        /* \"#utility.yul\":2557:2779   */\n    tag_13:\n        /* \"#utility.yul\":2650:2654   */\n      0x00\n        /* \"#utility.yul\":2688:2690   */\n      0x20\n        /* \"#utility.yul\":2677:2686   */\n      dup3\n        /* \"#utility.yul\":2673:2691   */\n      add\n        /* \"#utility.yul\":2665:2691   */\n      swap1\n      pop\n        /* \"#utility.yul\":2701:2772   */\n      tag_63\n        /* \"#utility.yul\":2769:2770   */\n      0x00\n        /* \"#utility.yul\":2758:2767   */\n      dup4\n        /* \"#utility.yul\":2754:2771   */\n      add\n        /* \"#utility.yul\":2745:2751   */\n      dup5\n        /* \"#utility.yul\":2701:2772   */\n      tag_52\n      jump\t// in\n    tag_63:\n        /* \"#utility.yul\":2557:2779   */\n      swap3\n      swap2\n      pop\n      pop\n      jump\t// out\n        /* \"#utility.yul\":2866:3035   */\n    tag_44:\n        /* \"#utility.yul\":2950:2961   */\n      0x00\n        /* \"#utility.yul\":2984:2990   */\n      dup3\n        /* \"#utility.yul\":2979:2982   */\n      dup3\n        /* \"#utility.yul\":2972:2991   */\n      mstore\n        /* \"#utility.yul\":3024:3028   */\n      0x20\n        /* \"#utility.yul\":3019:3022   */\n      dup3\n        /* \"#utility.yul\":3015:3029   */\n      add\n        /* \"#utility.yul\":3000:3029   */\n      swap1\n      pop\n        /* \"#utility.yul\":2866:3035   */\n      swap3\n      swap2\n      pop\n      pop\n      jump\t// out\n        /* \"#utility.yul\":3041:3137   */\n    tag_40:\n        /* \"#utility.yul\":3078:3085   */\n      0x00\n        /* \"#utility.yul\":3107:3131   */\n      tag_68\n        /* \"#utility.yul\":3125:3130   */\n      dup3\n        /* \"#utility.yul\":3107:3131   */\n      tag_69\n      jump\t// in\n    tag_68:\n        /* \"#utility.yul\":3096:3131   */\n      swap1\n      pop\n        /* \"#utility.yul\":3041:3137   */\n      swap2\n      swap1\n      pop\n      jump\t// out\n        /* \"#utility.yul\":3143:3269   */\n    tag_69:\n        /* \"#utility.yul\":3180:3187   */\n      0x00\n        /* \"#utility.yul\":3220:3262   */\n      0xffffffffffffffffffffffffffffffffffffffff\n        /* \"#utility.yul\":3213:3218   */\n      dup3\n        /* \"#utility.yul\":3209:3263   */\n      and\n        /* \"#utility.yul\":3198:3263   */\n      swap1\n      pop\n        /* \"#utility.yul\":3143:3269   */\n      swap2\n      swap1\n      pop\n      jump\t// out\n        /* \"#utility.yul\":3275:3352   */\n    tag_55:\n        /* \"#utility.yul\":3312:3319   */\n      0x00\n        /* \"#utility.yul\":3341:3346   */\n      dup2\n        /* \"#utility.yul\":3330:3346   */\n      swap1\n      pop\n        /* \"#utility.yul\":3275:3352   */\n      swap2\n      swap1\n      pop\n      jump\t// out\n        /* \"#utility.yul\":3481:3598   */\n    tag_35:\n        /* \"#utility.yul\":3590:3591   */\n      0x00\n        /* \"#utility.yul\":3587:3588   */\n      dup1\n        /* \"#utility.yul\":3580:3592   */\n      revert\n        /* \"#utility.yul\":3604:3767   */\n    tag_46:\n        /* \"#utility.yul\":3744:3759   */\n      0x6c657373207468616e2031303000000000000000000000000000000000000000\n        /* \"#utility.yul\":3740:3741   */\n      0x00\n        /* \"#utility.yul\":3732:3738   */\n      dup3\n        /* \"#utility.yul\":3728:3742   */\n      add\n        /* \"#utility.yul\":3721:3760   */\n      mstore\n        /* \"#utility.yul\":3604:3767   */\n      pop\n      jump\t// out\n        /* \"#utility.yul\":3773:3933   */\n    tag_51:\n        /* \"#utility.yul\":3913:3925   */\n      0x4f6e6c79204f776e657200000000000000000000000000000000000000000000\n        /* \"#utility.yul\":3909:3910   */\n      0x00\n        /* \"#utility.yul\":3901:3907   */\n      dup3\n        /* \"#utility.yul\":3897:3911   */\n      add\n        /* \"#utility.yul\":3890:3926   */\n      mstore\n        /* \"#utility.yul\":3773:3933   */\n      pop\n      jump\t// out\n        /* \"#utility.yul\":3939:4061   */\n    tag_31:\n        /* \"#utility.yul\":4012:4036   */\n      tag_78\n        /* \"#utility.yul\":4030:4035   */\n      dup2\n        /* \"#utility.yul\":4012:4036   */\n      tag_55\n      jump\t// in\n    tag_78:\n        /* \"#utility.yul\":4005:4010   */\n      dup2\n        /* \"#utility.yul\":4002:4037   */\n      eq\n        /* \"#utility.yul\":3992:4055   */\n      tag_79\n      jumpi\n        /* \"#utility.yul\":4051:4052   */\n      0x00\n        /* \"#utility.yul\":4048:4049   */\n      dup1\n        /* \"#utility.yul\":4041:4053   */\n      revert\n        /* \"#utility.yul\":3992:4055   */\n    tag_79:\n        /* \"#utility.yul\":3939:4061   */\n      pop\n      jump\t// out\n\n    auxdata: 0xa2646970667358221220fac714d910ab48df1a660af14c303bd76962b837a82e3967e32610cc444e77f064736f6c63430008070033\n}\n",
				"bytecode": {
					"linkReferences": {},
					"object": "608060405234801561001057600080fd5b50336000806101000a81548173ffffffffffffffffffffffffffffffffffffffff021916908373ffffffffffffffffffffffffffffffffffffffff16021790555060006001819055506103b2806100686000396000f3fe608060405234801561001057600080fd5b50600436106100415760003560e01c80632f5b38be146100465780635dab2420146100625780638da5cb5b14610080575b600080fd5b610060600480360381019061005b91906101ba565b61009e565b005b61006a61017b565b60405161007791906102a6565b60405180910390f35b610088610181565b604051610095919061024b565b60405180910390f35b60008054906101000a900473ffffffffffffffffffffffffffffffffffffffff1673ffffffffffffffffffffffffffffffffffffffff163373ffffffffffffffffffffffffffffffffffffffff161461012c576040517f08c379a000000000000000000000000000000000000000000000000000000000815260040161012390610286565b60405180910390fd5b8060648111610170576040517f08c379a000000000000000000000000000000000000000000000000000000000815260040161016790610266565b60405180910390fd5b816001819055505050565b60015481565b60008054906101000a900473ffffffffffffffffffffffffffffffffffffffff1681565b6000813590506101b481610365565b92915050565b6000602082840312156101d0576101cf61030e565b5b60006101de848285016101a5565b91505092915050565b6101f0816102d2565b82525050565b6000610203600d836102c1565b915061020e82610313565b602082019050919050565b6000610226600a836102c1565b91506102318261033c565b602082019050919050565b61024581610304565b82525050565b600060208201905061026060008301846101e7565b92915050565b6000602082019050818103600083015261027f816101f6565b9050919050565b6000602082019050818103600083015261029f81610219565b9050919050565b60006020820190506102bb600083018461023c565b92915050565b600082825260208201905092915050565b60006102dd826102e4565b9050919050565b600073ffffffffffffffffffffffffffffffffffffffff82169050919050565b6000819050919050565b600080fd5b7f6c657373207468616e2031303000000000000000000000000000000000000000600082015250565b7f4f6e6c79204f776e657200000000000000000000000000000000000000000000600082015250565b61036e81610304565b811461037957600080fd5b5056fea2646970667358221220fac714d910ab48df1a660af14c303bd76962b837a82e3967e32610cc444e77f064736f6c63430008070033",
					"opcodes": "PUSH1 0x80 PUSH1 0x40 MSTORE CALLVALUE DUP1 ISZERO PUSH2 0x10 JUMPI PUSH1 0x0 DUP1 REVERT JUMPDEST POP CALLER PUSH1 0x0 DUP1 PUSH2 0x100 EXP DUP2 SLOAD DUP2 PUSH20 0xFFFFFFFFFFFFFFFFFFFFFFFFFFFFFFFFFFFFFFFF MUL NOT AND SWAP1 DUP4 PUSH20 0xFFFFFFFFFFFFFFFFFFFFFFFFFFFFFFFFFFFFFFFF AND MUL OR SWAP1 SSTORE POP PUSH1 0x0 PUSH1 0x1 DUP2 SWAP1 SSTORE POP PUSH2 0x3B2 DUP1 PUSH2 0x68 PUSH1 0x0 CODECOPY PUSH1 0x0 RETURN INVALID PUSH1 0x80 PUSH1 0x40 MSTORE CALLVALUE DUP1 ISZERO PUSH2 0x10 JUMPI PUSH1 0x0 DUP1 REVERT JUMPDEST POP PUSH1 0x4 CALLDATASIZE LT PUSH2 0x41 JUMPI PUSH1 0x0 CALLDATALOAD PUSH1 0xE0 SHR DUP1 PUSH4 0x2F5B38BE EQ PUSH2 0x46 JUMPI DUP1 PUSH4 0x5DAB2420 EQ PUSH2 0x62 JUMPI DUP1 PUSH4 0x8DA5CB5B EQ PUSH2 0x80 JUMPI JUMPDEST PUSH1 0x0 DUP1 REVERT JUMPDEST PUSH2 0x60 PUSH1 0x4 DUP1 CALLDATASIZE SUB DUP2 ADD SWAP1 PUSH2 0x5B SWAP2 SWAP1 PUSH2 0x1BA JUMP JUMPDEST PUSH2 0x9E JUMP JUMPDEST STOP JUMPDEST PUSH2 0x6A PUSH2 0x17B JUMP JUMPDEST PUSH1 0x40 MLOAD PUSH2 0x77 SWAP2 SWAP1 PUSH2 0x2A6 JUMP JUMPDEST PUSH1 0x40 MLOAD DUP1 SWAP2 SUB SWAP1 RETURN JUMPDEST PUSH2 0x88 PUSH2 0x181 JUMP JUMPDEST PUSH1 0x40 MLOAD PUSH2 0x95 SWAP2 SWAP1 PUSH2 0x24B JUMP JUMPDEST PUSH1 0x40 MLOAD DUP1 SWAP2 SUB SWAP1 RETURN JUMPDEST PUSH1 0x0 DUP1 SLOAD SWAP1 PUSH2 0x100 EXP SWAP1 DIV PUSH20 0xFFFFFFFFFFFFFFFFFFFFFFFFFFFFFFFFFFFFFFFF AND PUSH20 0xFFFFFFFFFFFFFFFFFFFFFFFFFFFFFFFFFFFFFFFF AND CALLER PUSH20 0xFFFFFFFFFFFFFFFFFFFFFFFFFFFFFFFFFFFFFFFF AND EQ PUSH2 0x12C JUMPI PUSH1 0x40 MLOAD PUSH32 0x8C379A000000000000000000000000000000000000000000000000000000000 DUP2 MSTORE PUSH1 0x4 ADD PUSH2 0x123 SWAP1 PUSH2 0x286 JUMP JUMPDEST PUSH1 0x40 MLOAD DUP1 SWAP2 SUB SWAP1 REVERT JUMPDEST DUP1 PUSH1 0x64 DUP2 GT PUSH2 0x170 JUMPI PUSH1 0x40 MLOAD PUSH32 0x8C379A000000000000000000000000000000000000000000000000000000000 DUP2 MSTORE PUSH1 0x4 ADD PUSH2 0x167 SWAP1 PUSH2 0x266 JUMP JUMPDEST PUSH1 0x40 MLOAD DUP1 SWAP2 SUB SWAP1 REVERT JUMPDEST DUP2 PUSH1 0x1 DUP2 SWAP1 SSTORE POP POP POP JUMP JUMPDEST PUSH1 0x1 SLOAD DUP2 JUMP JUMPDEST PUSH1 0x0 DUP1 SLOAD SWAP1 PUSH2 0x100 EXP SWAP1 DIV PUSH20 0xFFFFFFFFFFFFFFFFFFFFFFFFFFFFFFFFFFFFFFFF AND DUP2 JUMP JUMPDEST PUSH1 0x0 DUP2 CALLDATALOAD SWAP1 POP PUSH2 0x1B4 DUP2 PUSH2 0x365 JUMP JUMPDEST SWAP3 SWAP2 POP POP JUMP JUMPDEST PUSH1 0x0 PUSH1 0x20 DUP3 DUP5 SUB SLT ISZERO PUSH2 0x1D0 JUMPI PUSH2 0x1CF PUSH2 0x30E JUMP JUMPDEST JUMPDEST PUSH1 0x0 PUSH2 0x1DE DUP5 DUP3 DUP6 ADD PUSH2 0x1A5 JUMP JUMPDEST SWAP2 POP POP SWAP3 SWAP2 POP POP JUMP JUMPDEST PUSH2 0x1F0 DUP2 PUSH2 0x2D2 JUMP JUMPDEST DUP3 MSTORE POP POP JUMP JUMPDEST PUSH1 0x0 PUSH2 0x203 PUSH1 0xD DUP4 PUSH2 0x2C1 JUMP JUMPDEST SWAP2 POP PUSH2 0x20E DUP3 PUSH2 0x313 JUMP JUMPDEST PUSH1 0x20 DUP3 ADD SWAP1 POP SWAP2 SWAP1 POP JUMP JUMPDEST PUSH1 0x0 PUSH2 0x226 PUSH1 0xA DUP4 PUSH2 0x2C1 JUMP JUMPDEST SWAP2 POP PUSH2 0x231 DUP3 PUSH2 0x33C JUMP JUMPDEST PUSH1 0x20 DUP3 ADD SWAP1 POP SWAP2 SWAP1 POP JUMP JUMPDEST PUSH2 0x245 DUP2 PUSH2 0x304 JUMP JUMPDEST DUP3 MSTORE POP POP JUMP JUMPDEST PUSH1 0x0 PUSH1 0x20 DUP3 ADD SWAP1 POP PUSH2 0x260 PUSH1 0x0 DUP4 ADD DUP5 PUSH2 0x1E7 JUMP JUMPDEST SWAP3 SWAP2 POP POP JUMP JUMPDEST PUSH1 0x0 PUSH1 0x20 DUP3 ADD SWAP1 POP DUP2 DUP2 SUB PUSH1 0x0 DUP4 ADD MSTORE PUSH2 0x27F DUP2 PUSH2 0x1F6 JUMP JUMPDEST SWAP1 POP SWAP2 SWAP1 POP JUMP JUMPDEST PUSH1 0x0 PUSH1 0x20 DUP3 ADD SWAP1 POP DUP2 DUP2 SUB PUSH1 0x0 DUP4 ADD MSTORE PUSH2 0x29F DUP2 PUSH2 0x219 JUMP JUMPDEST SWAP1 POP SWAP2 SWAP1 POP JUMP JUMPDEST PUSH1 0x0 PUSH1 0x20 DUP3 ADD SWAP1 POP PUSH2 0x2BB PUSH1 0x0 DUP4 ADD DUP5 PUSH2 0x23C JUMP JUMPDEST SWAP3 SWAP2 POP POP JUMP JUMPDEST PUSH1 0x0 DUP3 DUP3 MSTORE PUSH1 0x20 DUP3 ADD SWAP1 POP SWAP3 SWAP2 POP POP JUMP JUMPDEST PUSH1 0x0 PUSH2 0x2DD DUP3 PUSH2 0x2E4 JUMP JUMPDEST SWAP1 POP SWAP2 SWAP1 POP JUMP JUMPDEST PUSH1 0x0 PUSH20 0xFFFFFFFFFFFFFFFFFFFFFFFFFFFFFFFFFFFFFFFF DUP3 AND SWAP1 POP SWAP2 SWAP1 POP JUMP JUMPDEST PUSH1 0x0 DUP2 SWAP1 POP SWAP2 SWAP1 POP JUMP JUMPDEST PUSH1 0x0 DUP1 REVERT JUMPDEST PUSH32 0x6C657373207468616E2031303000000000000000000000000000000000000000 PUSH1 0x0 DUP3 ADD MSTORE POP JUMP JUMPDEST PUSH32 0x4F6E6C79204F776E657200000000000000000000000000000000000000000000 PUSH1 0x0 DUP3 ADD MSTORE POP JUMP JUMPDEST PUSH2 0x36E DUP2 PUSH2 0x304 JUMP JUMPDEST DUP2 EQ PUSH2 0x379 JUMPI PUSH1 0x0 DUP1 REVERT JUMPDEST POP JUMP INVALID LOG2 PUSH5 0x6970667358 0x22 SLT KECCAK256 STATICCALL 0xC7 EQ 0xD9 LT 0xAB BASEFEE 0xDF BYTE PUSH7 0xAF14C303BD769 PUSH3 0xB837A8 0x2E CODECOPY PUSH8 0xE32610CC444E77F0 PUSH5 0x736F6C6343 STOP ADDMOD SMOD STOP CALLER "
				},
				"gasEstimates": {
					"creation": {
						"codeDepositCost": "189200",
						"executionCost": "29512",
						"totalCost": "218712"
					},
					"external": {
						"account()": "2429",
						"owner()": "2533",
						"updateAccount(uint256)": "24693"
					}
				},
				"methodIdentifiers": {
					"account()": "5dab2420",
					"owner()": "8da5cb5b",
					"updateAccount(uint256)": "2f5b38be"
				}
			},
			"storageLayout": {
				"storage": [
					{
						"astId": 3,
						"contract": "contracts/5_ModifierStudy.sol:ModifierStudy",
						"label": "owner",
						"offset": 0,
						"slot": "0",
						"type": "t_address"
					},
					{
						"astId": 5,
						"contract": "contracts/5_ModifierStudy.sol:ModifierStudy",
						"label": "account",
						"offset": 0,
						"slot": "1",
						"type": "t_uint256"
					}
				],
				"types": {
					"t_address": {
						"encoding": "inplace",
						"label": "address",
						"numberOfBytes": "20"
					},
					"t_uint256": {
						"encoding": "inplace",
						"label": "uint256",
						"numberOfBytes": "32"
					}
				}
			},
			"userdoc": {
				"kind": "user",
				"methods": {},
				"version": 1
			}
		}
	}
}