{
	"contracts/26_Wallet.sol": {
		"Wallet": {
			"abi": [
				{
					"inputs": [],
					"stateMutability": "nonpayable",
					"type": "constructor"
				},
				{
					"inputs": [],
					"name": "getBalance",
					"outputs": [
						{
							"internalType": "uint256",
							"name": "",
							"type": "uint256"
						}
					],
					"stateMutability": "view",
					"type": "function"
				},
				{
					"inputs": [],
					"name": "owner",
					"outputs": [
						{
							"internalType": "address payable",
							"name": "",
							"type": "address"
						}
					],
					"stateMutability": "view",
					"type": "function"
				},
				{
					"inputs": [
						{
							"internalType": "uint256",
							"name": "_amount",
							"type": "uint256"
						}
					],
					"name": "withdraw",
					"outputs": [],
					"stateMutability": "nonpayable",
					"type": "function"
				},
				{
					"stateMutability": "payable",
					"type": "receive"
				}
			],
			"devdoc": {
				"kind": "dev",
				"methods": {},
				"version": 1
			},
			"evm": {
				"assembly": "    /* \"contracts/26_Wallet.sol\":147:657  contract Wallet{... */\n  mstore(0x40, 0x80)\n    /* \"contracts/26_Wallet.sol\":203:258  constructor(){... */\n  callvalue\n  dup1\n  iszero\n  tag_1\n  jumpi\n  0x00\n  dup1\n  revert\ntag_1:\n  pop\n    /* \"contracts/26_Wallet.sol\":240:250  msg.sender */\n  caller\n    /* \"contracts/26_Wallet.sol\":226:231  owner */\n  0x00\n  dup1\n    /* \"contracts/26_Wallet.sol\":226:251  owner=payable(msg.sender) */\n  0x0100\n  exp\n  dup2\n  sload\n  dup2\n  0xffffffffffffffffffffffffffffffffffffffff\n  mul\n  not\n  and\n  swap1\n  dup4\n  0xffffffffffffffffffffffffffffffffffffffff\n  and\n  mul\n  or\n  swap1\n  sstore\n  pop\n    /* \"contracts/26_Wallet.sol\":147:657  contract Wallet{... */\n  dataSize(sub_0)\n  dup1\n  dataOffset(sub_0)\n  0x00\n  codecopy\n  0x00\n  return\nstop\n\nsub_0: assembly {\n        /* \"contracts/26_Wallet.sol\":147:657  contract Wallet{... */\n      mstore(0x40, 0x80)\n      jumpi(tag_1, lt(calldatasize, 0x04))\n      shr(0xe0, calldataload(0x00))\n      dup1\n      0x12065fe0\n      eq\n      tag_3\n      jumpi\n      dup1\n      0x2e1a7d4d\n      eq\n      tag_4\n      jumpi\n      dup1\n      0x8da5cb5b\n      eq\n      tag_5\n      jumpi\n      jump(tag_2)\n    tag_1:\n      jumpi(tag_2, calldatasize)\n      stop\n    tag_2:\n      0x00\n      dup1\n      revert\n        /* \"contracts/26_Wallet.sol\":561:655  function getBalance() external view returns(uint){... */\n    tag_3:\n      callvalue\n      dup1\n      iszero\n      tag_8\n      jumpi\n      0x00\n      dup1\n      revert\n    tag_8:\n      pop\n      tag_9\n      tag_10\n      jump\t// in\n    tag_9:\n      mload(0x40)\n      tag_11\n      swap2\n      swap1\n      tag_12\n      jump\t// in\n    tag_11:\n      mload(0x40)\n      dup1\n      swap2\n      sub\n      swap1\n      return\n        /* \"contracts/26_Wallet.sol\":264:477  function withdraw(uint _amount) external {... */\n    tag_4:\n      callvalue\n      dup1\n      iszero\n      tag_13\n      jumpi\n      0x00\n      dup1\n      revert\n    tag_13:\n      pop\n      tag_14\n      0x04\n      dup1\n      calldatasize\n      sub\n      dup2\n      add\n      swap1\n      tag_15\n      swap2\n      swap1\n      tag_16\n      jump\t// in\n    tag_15:\n      tag_17\n      jump\t// in\n    tag_14:\n      stop\n        /* \"contracts/26_Wallet.sol\":168:196  address payable public owner */\n    tag_5:\n      callvalue\n      dup1\n      iszero\n      tag_18\n      jumpi\n      0x00\n      dup1\n      revert\n    tag_18:\n      pop\n      tag_19\n      tag_20\n      jump\t// in\n    tag_19:\n      mload(0x40)\n      tag_21\n      swap2\n      swap1\n      tag_22\n      jump\t// in\n    tag_21:\n      mload(0x40)\n      dup1\n      swap2\n      sub\n      swap1\n      return\n        /* \"contracts/26_Wallet.sol\":561:655  function getBalance() external view returns(uint){... */\n    tag_10:\n        /* \"contracts/26_Wallet.sol\":605:609  uint */\n      0x00\n        /* \"contracts/26_Wallet.sol\":627:648  address(this).balance */\n      selfbalance\n        /* \"contracts/26_Wallet.sol\":620:648  return address(this).balance */\n      swap1\n      pop\n        /* \"contracts/26_Wallet.sol\":561:655  function getBalance() external view returns(uint){... */\n      swap1\n      jump\t// out\n        /* \"contracts/26_Wallet.sol\":264:477  function withdraw(uint _amount) external {... */\n    tag_17:\n        /* \"contracts/26_Wallet.sol\":335:340  owner */\n      0x00\n      dup1\n      sload\n      swap1\n      0x0100\n      exp\n      swap1\n      div\n      0xffffffffffffffffffffffffffffffffffffffff\n      and\n        /* \"contracts/26_Wallet.sol\":323:340  msg.sender==owner */\n      0xffffffffffffffffffffffffffffffffffffffff\n      and\n        /* \"contracts/26_Wallet.sol\":323:333  msg.sender */\n      caller\n        /* \"contracts/26_Wallet.sol\":323:340  msg.sender==owner */\n      0xffffffffffffffffffffffffffffffffffffffff\n      and\n      eq\n        /* \"contracts/26_Wallet.sol\":315:353  require(msg.sender==owner,\"Not owner\") */\n      tag_25\n      jumpi\n      mload(0x40)\n      0x08c379a000000000000000000000000000000000000000000000000000000000\n      dup2\n      mstore\n      0x04\n      add\n      tag_26\n      swap1\n      tag_27\n      jump\t// in\n    tag_26:\n      mload(0x40)\n      dup1\n      swap2\n      sub\n      swap1\n      revert\n    tag_25:\n        /* \"contracts/26_Wallet.sol\":388:397  bool sent */\n      0x00\n        /* \"contracts/26_Wallet.sol\":406:416  msg.sender */\n      caller\n        /* \"contracts/26_Wallet.sol\":398:422  payable(msg.sender).send */\n      0xffffffffffffffffffffffffffffffffffffffff\n      and\n        /* \"contracts/26_Wallet.sol\":398:431  payable(msg.sender).send(_amount) */\n      0x08fc\n        /* \"contracts/26_Wallet.sol\":423:430  _amount */\n      dup4\n        /* \"contracts/26_Wallet.sol\":398:431  payable(msg.sender).send(_amount) */\n      swap1\n      dup2\n      iszero\n      mul\n      swap1\n      mload(0x40)\n      0x00\n      mload(0x40)\n      dup1\n      dup4\n      sub\n      dup2\n      dup6\n      dup9\n      dup9\n      call\n      swap4\n      pop\n      pop\n      pop\n      pop\n        /* \"contracts/26_Wallet.sol\":388:431  bool sent=payable(msg.sender).send(_amount) */\n      swap1\n      pop\n        /* \"contracts/26_Wallet.sol\":449:453  sent */\n      dup1\n        /* \"contracts/26_Wallet.sol\":441:470  require(sent, \"send failed!\") */\n      tag_29\n      jumpi\n      mload(0x40)\n      0x08c379a000000000000000000000000000000000000000000000000000000000\n      dup2\n      mstore\n      0x04\n      add\n      tag_30\n      swap1\n      tag_31\n      jump\t// in\n    tag_30:\n      mload(0x40)\n      dup1\n      swap2\n      sub\n      swap1\n      revert\n    tag_29:\n        /* \"contracts/26_Wallet.sol\":305:477  {... */\n      pop\n        /* \"contracts/26_Wallet.sol\":264:477  function withdraw(uint _amount) external {... */\n      pop\n      jump\t// out\n        /* \"contracts/26_Wallet.sol\":168:196  address payable public owner */\n    tag_20:\n      0x00\n      dup1\n      sload\n      swap1\n      0x0100\n      exp\n      swap1\n      div\n      0xffffffffffffffffffffffffffffffffffffffff\n      and\n      dup2\n      jump\t// out\n        /* \"#utility.yul\":7:146   */\n    tag_33:\n        /* \"#utility.yul\":53:58   */\n      0x00\n        /* \"#utility.yul\":91:97   */\n      dup2\n        /* \"#utility.yul\":78:98   */\n      calldataload\n        /* \"#utility.yul\":69:98   */\n      swap1\n      pop\n        /* \"#utility.yul\":107:140   */\n      tag_35\n        /* \"#utility.yul\":134:139   */\n      dup2\n        /* \"#utility.yul\":107:140   */\n      tag_36\n      jump\t// in\n    tag_35:\n        /* \"#utility.yul\":7:146   */\n      swap3\n      swap2\n      pop\n      pop\n      jump\t// out\n        /* \"#utility.yul\":152:481   */\n    tag_16:\n        /* \"#utility.yul\":211:217   */\n      0x00\n        /* \"#utility.yul\":260:262   */\n      0x20\n        /* \"#utility.yul\":248:257   */\n      dup3\n        /* \"#utility.yul\":239:246   */\n      dup5\n        /* \"#utility.yul\":235:258   */\n      sub\n        /* \"#utility.yul\":231:263   */\n      slt\n        /* \"#utility.yul\":228:347   */\n      iszero\n      tag_38\n      jumpi\n        /* \"#utility.yul\":266:345   */\n      tag_39\n      tag_40\n      jump\t// in\n    tag_39:\n        /* \"#utility.yul\":228:347   */\n    tag_38:\n        /* \"#utility.yul\":386:387   */\n      0x00\n        /* \"#utility.yul\":411:464   */\n      tag_41\n        /* \"#utility.yul\":456:463   */\n      dup5\n        /* \"#utility.yul\":447:453   */\n      dup3\n        /* \"#utility.yul\":436:445   */\n      dup6\n        /* \"#utility.yul\":432:454   */\n      add\n        /* \"#utility.yul\":411:464   */\n      tag_33\n      jump\t// in\n    tag_41:\n        /* \"#utility.yul\":401:464   */\n      swap2\n      pop\n        /* \"#utility.yul\":357:474   */\n      pop\n        /* \"#utility.yul\":152:481   */\n      swap3\n      swap2\n      pop\n      pop\n      jump\t// out\n        /* \"#utility.yul\":487:629   */\n    tag_42:\n        /* \"#utility.yul\":590:622   */\n      tag_44\n        /* \"#utility.yul\":616:621   */\n      dup2\n        /* \"#utility.yul\":590:622   */\n      tag_45\n      jump\t// in\n    tag_44:\n        /* \"#utility.yul\":585:588   */\n      dup3\n        /* \"#utility.yul\":578:623   */\n      mstore\n        /* \"#utility.yul\":487:629   */\n      pop\n      pop\n      jump\t// out\n        /* \"#utility.yul\":635:1000   */\n    tag_46:\n        /* \"#utility.yul\":777:780   */\n      0x00\n        /* \"#utility.yul\":798:864   */\n      tag_48\n        /* \"#utility.yul\":862:863   */\n      0x09\n        /* \"#utility.yul\":857:860   */\n      dup4\n        /* \"#utility.yul\":798:864   */\n      tag_49\n      jump\t// in\n    tag_48:\n        /* \"#utility.yul\":791:864   */\n      swap2\n      pop\n        /* \"#utility.yul\":873:966   */\n      tag_50\n        /* \"#utility.yul\":962:965   */\n      dup3\n        /* \"#utility.yul\":873:966   */\n      tag_51\n      jump\t// in\n    tag_50:\n        /* \"#utility.yul\":991:993   */\n      0x20\n        /* \"#utility.yul\":986:989   */\n      dup3\n        /* \"#utility.yul\":982:994   */\n      add\n        /* \"#utility.yul\":975:994   */\n      swap1\n      pop\n        /* \"#utility.yul\":635:1000   */\n      swap2\n      swap1\n      pop\n      jump\t// out\n        /* \"#utility.yul\":1006:1372   */\n    tag_52:\n        /* \"#utility.yul\":1148:1151   */\n      0x00\n        /* \"#utility.yul\":1169:1236   */\n      tag_54\n        /* \"#utility.yul\":1233:1235   */\n      0x0c\n        /* \"#utility.yul\":1228:1231   */\n      dup4\n        /* \"#utility.yul\":1169:1236   */\n      tag_49\n      jump\t// in\n    tag_54:\n        /* \"#utility.yul\":1162:1236   */\n      swap2\n      pop\n        /* \"#utility.yul\":1245:1338   */\n      tag_55\n        /* \"#utility.yul\":1334:1337   */\n      dup3\n        /* \"#utility.yul\":1245:1338   */\n      tag_56\n      jump\t// in\n    tag_55:\n        /* \"#utility.yul\":1363:1365   */\n      0x20\n        /* \"#utility.yul\":1358:1361   */\n      dup3\n        /* \"#utility.yul\":1354:1366   */\n      add\n        /* \"#utility.yul\":1347:1366   */\n      swap1\n      pop\n        /* \"#utility.yul\":1006:1372   */\n      swap2\n      swap1\n      pop\n      jump\t// out\n        /* \"#utility.yul\":1378:1496   */\n    tag_57:\n        /* \"#utility.yul\":1465:1489   */\n      tag_59\n        /* \"#utility.yul\":1483:1488   */\n      dup2\n        /* \"#utility.yul\":1465:1489   */\n      tag_60\n      jump\t// in\n    tag_59:\n        /* \"#utility.yul\":1460:1463   */\n      dup3\n        /* \"#utility.yul\":1453:1490   */\n      mstore\n        /* \"#utility.yul\":1378:1496   */\n      pop\n      pop\n      jump\t// out\n        /* \"#utility.yul\":1502:1756   */\n    tag_22:\n        /* \"#utility.yul\":1611:1615   */\n      0x00\n        /* \"#utility.yul\":1649:1651   */\n      0x20\n        /* \"#utility.yul\":1638:1647   */\n      dup3\n        /* \"#utility.yul\":1634:1652   */\n      add\n        /* \"#utility.yul\":1626:1652   */\n      swap1\n      pop\n        /* \"#utility.yul\":1662:1749   */\n      tag_62\n        /* \"#utility.yul\":1746:1747   */\n      0x00\n        /* \"#utility.yul\":1735:1744   */\n      dup4\n        /* \"#utility.yul\":1731:1748   */\n      add\n        /* \"#utility.yul\":1722:1728   */\n      dup5\n        /* \"#utility.yul\":1662:1749   */\n      tag_42\n      jump\t// in\n    tag_62:\n        /* \"#utility.yul\":1502:1756   */\n      swap3\n      swap2\n      pop\n      pop\n      jump\t// out\n        /* \"#utility.yul\":1762:2181   */\n    tag_27:\n        /* \"#utility.yul\":1928:1932   */\n      0x00\n        /* \"#utility.yul\":1966:1968   */\n      0x20\n        /* \"#utility.yul\":1955:1964   */\n      dup3\n        /* \"#utility.yul\":1951:1969   */\n      add\n        /* \"#utility.yul\":1943:1969   */\n      swap1\n      pop\n        /* \"#utility.yul\":2015:2024   */\n      dup2\n        /* \"#utility.yul\":2009:2013   */\n      dup2\n        /* \"#utility.yul\":2005:2025   */\n      sub\n        /* \"#utility.yul\":2001:2002   */\n      0x00\n        /* \"#utility.yul\":1990:1999   */\n      dup4\n        /* \"#utility.yul\":1986:2003   */\n      add\n        /* \"#utility.yul\":1979:2026   */\n      mstore\n        /* \"#utility.yul\":2043:2174   */\n      tag_64\n        /* \"#utility.yul\":2169:2173   */\n      dup2\n        /* \"#utility.yul\":2043:2174   */\n      tag_46\n      jump\t// in\n    tag_64:\n        /* \"#utility.yul\":2035:2174   */\n      swap1\n      pop\n        /* \"#utility.yul\":1762:2181   */\n      swap2\n      swap1\n      pop\n      jump\t// out\n        /* \"#utility.yul\":2187:2606   */\n    tag_31:\n        /* \"#utility.yul\":2353:2357   */\n      0x00\n        /* \"#utility.yul\":2391:2393   */\n      0x20\n        /* \"#utility.yul\":2380:2389   */\n      dup3\n        /* \"#utility.yul\":2376:2394   */\n      add\n        /* \"#utility.yul\":2368:2394   */\n      swap1\n      pop\n        /* \"#utility.yul\":2440:2449   */\n      dup2\n        /* \"#utility.yul\":2434:2438   */\n      dup2\n        /* \"#utility.yul\":2430:2450   */\n      sub\n        /* \"#utility.yul\":2426:2427   */\n      0x00\n        /* \"#utility.yul\":2415:2424   */\n      dup4\n        /* \"#utility.yul\":2411:2428   */\n      add\n        /* \"#utility.yul\":2404:2451   */\n      mstore\n        /* \"#utility.yul\":2468:2599   */\n      tag_66\n        /* \"#utility.yul\":2594:2598   */\n      dup2\n        /* \"#utility.yul\":2468:2599   */\n      tag_52\n      jump\t// in\n    tag_66:\n        /* \"#utility.yul\":2460:2599   */\n      swap1\n      pop\n        /* \"#utility.yul\":2187:2606   */\n      swap2\n      swap1\n      pop\n      jump\t// out\n        /* \"#utility.yul\":2612:2834   */\n    tag_12:\n        /* \"#utility.yul\":2705:2709   */\n      0x00\n        /* \"#utility.yul\":2743:2745   */\n      0x20\n        /* \"#utility.yul\":2732:2741   */\n      dup3\n        /* \"#utility.yul\":2728:2746   */\n      add\n        /* \"#utility.yul\":2720:2746   */\n      swap1\n      pop\n        /* \"#utility.yul\":2756:2827   */\n      tag_68\n        /* \"#utility.yul\":2824:2825   */\n      0x00\n        /* \"#utility.yul\":2813:2822   */\n      dup4\n        /* \"#utility.yul\":2809:2826   */\n      add\n        /* \"#utility.yul\":2800:2806   */\n      dup5\n        /* \"#utility.yul\":2756:2827   */\n      tag_57\n      jump\t// in\n    tag_68:\n        /* \"#utility.yul\":2612:2834   */\n      swap3\n      swap2\n      pop\n      pop\n      jump\t// out\n        /* \"#utility.yul\":2921:3090   */\n    tag_49:\n        /* \"#utility.yul\":3005:3016   */\n      0x00\n        /* \"#utility.yul\":3039:3045   */\n      dup3\n        /* \"#utility.yul\":3034:3037   */\n      dup3\n        /* \"#utility.yul\":3027:3046   */\n      mstore\n        /* \"#utility.yul\":3079:3083   */\n      0x20\n        /* \"#utility.yul\":3074:3077   */\n      dup3\n        /* \"#utility.yul\":3070:3084   */\n      add\n        /* \"#utility.yul\":3055:3084   */\n      swap1\n      pop\n        /* \"#utility.yul\":2921:3090   */\n      swap3\n      swap2\n      pop\n      pop\n      jump\t// out\n        /* \"#utility.yul\":3096:3200   */\n    tag_45:\n        /* \"#utility.yul\":3141:3148   */\n      0x00\n        /* \"#utility.yul\":3170:3194   */\n      tag_73\n        /* \"#utility.yul\":3188:3193   */\n      dup3\n        /* \"#utility.yul\":3170:3194   */\n      tag_74\n      jump\t// in\n    tag_73:\n        /* \"#utility.yul\":3159:3194   */\n      swap1\n      pop\n        /* \"#utility.yul\":3096:3200   */\n      swap2\n      swap1\n      pop\n      jump\t// out\n        /* \"#utility.yul\":3206:3332   */\n    tag_74:\n        /* \"#utility.yul\":3243:3250   */\n      0x00\n        /* \"#utility.yul\":3283:3325   */\n      0xffffffffffffffffffffffffffffffffffffffff\n        /* \"#utility.yul\":3276:3281   */\n      dup3\n        /* \"#utility.yul\":3272:3326   */\n      and\n        /* \"#utility.yul\":3261:3326   */\n      swap1\n      pop\n        /* \"#utility.yul\":3206:3332   */\n      swap2\n      swap1\n      pop\n      jump\t// out\n        /* \"#utility.yul\":3338:3415   */\n    tag_60:\n        /* \"#utility.yul\":3375:3382   */\n      0x00\n        /* \"#utility.yul\":3404:3409   */\n      dup2\n        /* \"#utility.yul\":3393:3409   */\n      swap1\n      pop\n        /* \"#utility.yul\":3338:3415   */\n      swap2\n      swap1\n      pop\n      jump\t// out\n        /* \"#utility.yul\":3544:3661   */\n    tag_40:\n        /* \"#utility.yul\":3653:3654   */\n      0x00\n        /* \"#utility.yul\":3650:3651   */\n      dup1\n        /* \"#utility.yul\":3643:3655   */\n      revert\n        /* \"#utility.yul\":3667:3826   */\n    tag_51:\n        /* \"#utility.yul\":3807:3818   */\n      0x4e6f74206f776e65720000000000000000000000000000000000000000000000\n        /* \"#utility.yul\":3803:3804   */\n      0x00\n        /* \"#utility.yul\":3795:3801   */\n      dup3\n        /* \"#utility.yul\":3791:3805   */\n      add\n        /* \"#utility.yul\":3784:3819   */\n      mstore\n        /* \"#utility.yul\":3667:3826   */\n      pop\n      jump\t// out\n        /* \"#utility.yul\":3832:3994   */\n    tag_56:\n        /* \"#utility.yul\":3972:3986   */\n      0x73656e64206661696c6564210000000000000000000000000000000000000000\n        /* \"#utility.yul\":3968:3969   */\n      0x00\n        /* \"#utility.yul\":3960:3966   */\n      dup3\n        /* \"#utility.yul\":3956:3970   */\n      add\n        /* \"#utility.yul\":3949:3987   */\n      mstore\n        /* \"#utility.yul\":3832:3994   */\n      pop\n      jump\t// out\n        /* \"#utility.yul\":4000:4122   */\n    tag_36:\n        /* \"#utility.yul\":4073:4097   */\n      tag_83\n        /* \"#utility.yul\":4091:4096   */\n      dup2\n        /* \"#utility.yul\":4073:4097   */\n      tag_60\n      jump\t// in\n    tag_83:\n        /* \"#utility.yul\":4066:4071   */\n      dup2\n        /* \"#utility.yul\":4063:4098   */\n      eq\n        /* \"#utility.yul\":4053:4116   */\n      tag_84\n      jumpi\n        /* \"#utility.yul\":4112:4113   */\n      0x00\n        /* \"#utility.yul\":4109:4110   */\n      dup1\n        /* \"#utility.yul\":4102:4114   */\n      revert\n        /* \"#utility.yul\":4053:4116   */\n    tag_84:\n        /* \"#utility.yul\":4000:4122   */\n      pop\n      jump\t// out\n\n    auxdata: 0xa2646970667358221220769566b4f33bd4ebaf0fcc7913e0b4f9e770a6e1aa1eb5311fe211a8cbc0c74564736f6c63430008070033\n}\n",
				"bytecode": {
					"linkReferences": {},
					"object": "608060405234801561001057600080fd5b50336000806101000a81548173ffffffffffffffffffffffffffffffffffffffff021916908373ffffffffffffffffffffffffffffffffffffffff160217905550610407806100606000396000f3fe6080604052600436106100385760003560e01c806312065fe0146100445780632e1a7d4d1461006f5780638da5cb5b146100985761003f565b3661003f57005b600080fd5b34801561005057600080fd5b506100596100c3565b60405161006691906102fb565b60405180910390f35b34801561007b57600080fd5b506100966004803603810190610091919061020f565b6100cb565b005b3480156100a457600080fd5b506100ad6101d6565b6040516100ba91906102a0565b60405180910390f35b600047905090565b60008054906101000a900473ffffffffffffffffffffffffffffffffffffffff1673ffffffffffffffffffffffffffffffffffffffff163373ffffffffffffffffffffffffffffffffffffffff1614610159576040517f08c379a0000000000000000000000000000000000000000000000000000000008152600401610150906102bb565b60405180910390fd5b60003373ffffffffffffffffffffffffffffffffffffffff166108fc839081150290604051600060405180830381858888f193505050509050806101d2576040517f08c379a00000000000000000000000000000000000000000000000000000000081526004016101c9906102db565b60405180910390fd5b5050565b60008054906101000a900473ffffffffffffffffffffffffffffffffffffffff1681565b600081359050610209816103ba565b92915050565b60006020828403121561022557610224610363565b5b6000610233848285016101fa565b91505092915050565b61024581610327565b82525050565b6000610258600983610316565b915061026382610368565b602082019050919050565b600061027b600c83610316565b915061028682610391565b602082019050919050565b61029a81610359565b82525050565b60006020820190506102b5600083018461023c565b92915050565b600060208201905081810360008301526102d48161024b565b9050919050565b600060208201905081810360008301526102f48161026e565b9050919050565b60006020820190506103106000830184610291565b92915050565b600082825260208201905092915050565b600061033282610339565b9050919050565b600073ffffffffffffffffffffffffffffffffffffffff82169050919050565b6000819050919050565b600080fd5b7f4e6f74206f776e65720000000000000000000000000000000000000000000000600082015250565b7f73656e64206661696c6564210000000000000000000000000000000000000000600082015250565b6103c381610359565b81146103ce57600080fd5b5056fea2646970667358221220769566b4f33bd4ebaf0fcc7913e0b4f9e770a6e1aa1eb5311fe211a8cbc0c74564736f6c63430008070033",
					"opcodes": "PUSH1 0x80 PUSH1 0x40 MSTORE CALLVALUE DUP1 ISZERO PUSH2 0x10 JUMPI PUSH1 0x0 DUP1 REVERT JUMPDEST POP CALLER PUSH1 0x0 DUP1 PUSH2 0x100 EXP DUP2 SLOAD DUP2 PUSH20 0xFFFFFFFFFFFFFFFFFFFFFFFFFFFFFFFFFFFFFFFF MUL NOT AND SWAP1 DUP4 PUSH20 0xFFFFFFFFFFFFFFFFFFFFFFFFFFFFFFFFFFFFFFFF AND MUL OR SWAP1 SSTORE POP PUSH2 0x407 DUP1 PUSH2 0x60 PUSH1 0x0 CODECOPY PUSH1 0x0 RETURN INVALID PUSH1 0x80 PUSH1 0x40 MSTORE PUSH1 0x4 CALLDATASIZE LT PUSH2 0x38 JUMPI PUSH1 0x0 CALLDATALOAD PUSH1 0xE0 SHR DUP1 PUSH4 0x12065FE0 EQ PUSH2 0x44 JUMPI DUP1 PUSH4 0x2E1A7D4D EQ PUSH2 0x6F JUMPI DUP1 PUSH4 0x8DA5CB5B EQ PUSH2 0x98 JUMPI PUSH2 0x3F JUMP JUMPDEST CALLDATASIZE PUSH2 0x3F JUMPI STOP JUMPDEST PUSH1 0x0 DUP1 REVERT JUMPDEST CALLVALUE DUP1 ISZERO PUSH2 0x50 JUMPI PUSH1 0x0 DUP1 REVERT JUMPDEST POP PUSH2 0x59 PUSH2 0xC3 JUMP JUMPDEST PUSH1 0x40 MLOAD PUSH2 0x66 SWAP2 SWAP1 PUSH2 0x2FB JUMP JUMPDEST PUSH1 0x40 MLOAD DUP1 SWAP2 SUB SWAP1 RETURN JUMPDEST CALLVALUE DUP1 ISZERO PUSH2 0x7B JUMPI PUSH1 0x0 DUP1 REVERT JUMPDEST POP PUSH2 0x96 PUSH1 0x4 DUP1 CALLDATASIZE SUB DUP2 ADD SWAP1 PUSH2 0x91 SWAP2 SWAP1 PUSH2 0x20F JUMP JUMPDEST PUSH2 0xCB JUMP JUMPDEST STOP JUMPDEST CALLVALUE DUP1 ISZERO PUSH2 0xA4 JUMPI PUSH1 0x0 DUP1 REVERT JUMPDEST POP PUSH2 0xAD PUSH2 0x1D6 JUMP JUMPDEST PUSH1 0x40 MLOAD PUSH2 0xBA SWAP2 SWAP1 PUSH2 0x2A0 JUMP JUMPDEST PUSH1 0x40 MLOAD DUP1 SWAP2 SUB SWAP1 RETURN JUMPDEST PUSH1 0x0 SELFBALANCE SWAP1 POP SWAP1 JUMP JUMPDEST PUSH1 0x0 DUP1 SLOAD SWAP1 PUSH2 0x100 EXP SWAP1 DIV PUSH20 0xFFFFFFFFFFFFFFFFFFFFFFFFFFFFFFFFFFFFFFFF AND PUSH20 0xFFFFFFFFFFFFFFFFFFFFFFFFFFFFFFFFFFFFFFFF AND CALLER PUSH20 0xFFFFFFFFFFFFFFFFFFFFFFFFFFFFFFFFFFFFFFFF AND EQ PUSH2 0x159 JUMPI PUSH1 0x40 MLOAD PUSH32 0x8C379A000000000000000000000000000000000000000000000000000000000 DUP2 MSTORE PUSH1 0x4 ADD PUSH2 0x150 SWAP1 PUSH2 0x2BB JUMP JUMPDEST PUSH1 0x40 MLOAD DUP1 SWAP2 SUB SWAP1 REVERT JUMPDEST PUSH1 0x0 CALLER PUSH20 0xFFFFFFFFFFFFFFFFFFFFFFFFFFFFFFFFFFFFFFFF AND PUSH2 0x8FC DUP4 SWAP1 DUP2 ISZERO MUL SWAP1 PUSH1 0x40 MLOAD PUSH1 0x0 PUSH1 0x40 MLOAD DUP1 DUP4 SUB DUP2 DUP6 DUP9 DUP9 CALL SWAP4 POP POP POP POP SWAP1 POP DUP1 PUSH2 0x1D2 JUMPI PUSH1 0x40 MLOAD PUSH32 0x8C379A000000000000000000000000000000000000000000000000000000000 DUP2 MSTORE PUSH1 0x4 ADD PUSH2 0x1C9 SWAP1 PUSH2 0x2DB JUMP JUMPDEST PUSH1 0x40 MLOAD DUP1 SWAP2 SUB SWAP1 REVERT JUMPDEST POP POP JUMP JUMPDEST PUSH1 0x0 DUP1 SLOAD SWAP1 PUSH2 0x100 EXP SWAP1 DIV PUSH20 0xFFFFFFFFFFFFFFFFFFFFFFFFFFFFFFFFFFFFFFFF AND DUP2 JUMP JUMPDEST PUSH1 0x0 DUP2 CALLDATALOAD SWAP1 POP PUSH2 0x209 DUP2 PUSH2 0x3BA JUMP JUMPDEST SWAP3 SWAP2 POP POP JUMP JUMPDEST PUSH1 0x0 PUSH1 0x20 DUP3 DUP5 SUB SLT ISZERO PUSH2 0x225 JUMPI PUSH2 0x224 PUSH2 0x363 JUMP JUMPDEST JUMPDEST PUSH1 0x0 PUSH2 0x233 DUP5 DUP3 DUP6 ADD PUSH2 0x1FA JUMP JUMPDEST SWAP2 POP POP SWAP3 SWAP2 POP POP JUMP JUMPDEST PUSH2 0x245 DUP2 PUSH2 0x327 JUMP JUMPDEST DUP3 MSTORE POP POP JUMP JUMPDEST PUSH1 0x0 PUSH2 0x258 PUSH1 0x9 DUP4 PUSH2 0x316 JUMP JUMPDEST SWAP2 POP PUSH2 0x263 DUP3 PUSH2 0x368 JUMP JUMPDEST PUSH1 0x20 DUP3 ADD SWAP1 POP SWAP2 SWAP1 POP JUMP JUMPDEST PUSH1 0x0 PUSH2 0x27B PUSH1 0xC DUP4 PUSH2 0x316 JUMP JUMPDEST SWAP2 POP PUSH2 0x286 DUP3 PUSH2 0x391 JUMP JUMPDEST PUSH1 0x20 DUP3 ADD SWAP1 POP SWAP2 SWAP1 POP JUMP JUMPDEST PUSH2 0x29A DUP2 PUSH2 0x359 JUMP JUMPDEST DUP3 MSTORE POP POP JUMP JUMPDEST PUSH1 0x0 PUSH1 0x20 DUP3 ADD SWAP1 POP PUSH2 0x2B5 PUSH1 0x0 DUP4 ADD DUP5 PUSH2 0x23C JUMP JUMPDEST SWAP3 SWAP2 POP POP JUMP JUMPDEST PUSH1 0x0 PUSH1 0x20 DUP3 ADD SWAP1 POP DUP2 DUP2 SUB PUSH1 0x0 DUP4 ADD MSTORE PUSH2 0x2D4 DUP2 PUSH2 0x24B JUMP JUMPDEST SWAP1 POP SWAP2 SWAP1 POP JUMP JUMPDEST PUSH1 0x0 PUSH1 0x20 DUP3 ADD SWAP1 POP DUP2 DUP2 SUB PUSH1 0x0 DUP4 ADD MSTORE PUSH2 0x2F4 DUP2 PUSH2 0x26E JUMP JUMPDEST SWAP1 POP SWAP2 SWAP1 POP JUMP JUMPDEST PUSH1 0x0 PUSH1 0x20 DUP3 ADD SWAP1 POP PUSH2 0x310 PUSH1 0x0 DUP4 ADD DUP5 PUSH2 0x291 JUMP JUMPDEST SWAP3 SWAP2 POP POP JUMP JUMPDEST PUSH1 0x0 DUP3 DUP3 MSTORE PUSH1 0x20 DUP3 ADD SWAP1 POP SWAP3 SWAP2 POP POP JUMP JUMPDEST PUSH1 0x0 PUSH2 0x332 DUP3 PUSH2 0x339 JUMP JUMPDEST SWAP1 POP SWAP2 SWAP1 POP JUMP JUMPDEST PUSH1 0x0 PUSH20 0xFFFFFFFFFFFFFFFFFFFFFFFFFFFFFFFFFFFFFFFF DUP3 AND SWAP1 POP SWAP2 SWAP1 POP JUMP JUMPDEST PUSH1 0x0 DUP2 SWAP1 POP SWAP2 SWAP1 POP JUMP JUMPDEST PUSH1 0x0 DUP1 REVERT JUMPDEST PUSH32 0x4E6F74206F776E65720000000000000000000000000000000000000000000000 PUSH1 0x0 DUP3 ADD MSTORE POP JUMP JUMPDEST PUSH32 0x73656E64206661696C6564210000000000000000000000000000000000000000 PUSH1 0x0 DUP3 ADD MSTORE POP JUMP JUMPDEST PUSH2 0x3C3 DUP2 PUSH2 0x359 JUMP JUMPDEST DUP2 EQ PUSH2 0x3CE JUMPI PUSH1 0x0 DUP1 REVERT JUMPDEST POP JUMP INVALID LOG2 PUSH5 0x6970667358 0x22 SLT KECCAK256 PUSH23 0x9566B4F33BD4EBAF0FCC7913E0B4F9E770A6E1AA1EB531 0x1F 0xE2 GT 0xA8 0xCB 0xC0 0xC7 GASLIMIT PUSH5 0x736F6C6343 STOP ADDMOD SMOD STOP CALLER "
				},
				"gasEstimates": {
					"creation": {
						"codeDepositCost": "206200",
						"executionCost": "24517",
						"totalCost": "230717"
					},
					"external": {
						"getBalance()": "317",
						"owner()": "2533",
						"withdraw(uint256)": "infinite"
					}
				},
				"methodIdentifiers": {
					"getBalance()": "12065fe0",
					"owner()": "8da5cb5b",
					"withdraw(uint256)": "2e1a7d4d"
				}
			},
			"storageLayout": {
				"storage": [
					{
						"astId": 3,
						"contract": "contracts/26_Wallet.sol:Wallet",
						"label": "owner",
						"offset": 0,
						"slot": "0",
						"type": "t_address_payable"
					}
				],
				"types": {
					"t_address_payable": {
						"encoding": "inplace",
						"label": "address payable",
						"numberOfBytes": "20"
					}
				}
			},
			"userdoc": {
				"kind": "user",
				"methods": {},
				"version": 1
			}
		}
	}
}