{
	"contracts/11_CallContract.sol": {
		"Caller": {
			"abi": [
				{
					"inputs": [],
					"stateMutability": "nonpayable",
					"type": "constructor"
				},
				{
					"anonymous": false,
					"inputs": [
						{
							"indexed": false,
							"internalType": "bool",
							"name": "success",
							"type": "bool"
						},
						{
							"indexed": false,
							"internalType": "bytes",
							"name": "data",
							"type": "bytes"
						}
					],
					"name": "Response",
					"type": "event"
				},
				{
					"inputs": [],
					"name": "getAddress",
					"outputs": [
						{
							"internalType": "address",
							"name": "",
							"type": "address"
						}
					],
					"stateMutability": "view",
					"type": "function"
				},
				{
					"inputs": [],
					"name": "getBalance",
					"outputs": [
						{
							"internalType": "uint256",
							"name": "",
							"type": "uint256"
						}
					],
					"stateMutability": "view",
					"type": "function"
				},
				{
					"inputs": [
						{
							"internalType": "address payable",
							"name": "_addr",
							"type": "address"
						},
						{
							"internalType": "uint256",
							"name": "_y",
							"type": "uint256"
						}
					],
					"name": "testCall",
					"outputs": [],
					"stateMutability": "payable",
					"type": "function"
				},
				{
					"inputs": [
						{
							"internalType": "address payable",
							"name": "_addr",
							"type": "address"
						}
					],
					"name": "testCall1",
					"outputs": [],
					"stateMutability": "payable",
					"type": "function"
				}
			],
			"devdoc": {
				"kind": "dev",
				"methods": {},
				"version": 1
			},
			"evm": {
				"assembly": "    /* \"contracts/11_CallContract.sol\":952:1897  contract Caller{... */\n  mstore(0x40, 0x80)\n    /* \"contracts/11_CallContract.sol\":997:1052  constructor(){... */\n  callvalue\n  dup1\n  iszero\n  tag_1\n  jumpi\n  0x00\n  dup1\n  revert\ntag_1:\n  pop\n    /* \"contracts/11_CallContract.sol\":1031:1045  new Receiver() */\n  mload(0x40)\n  tag_4\n  swap1\n  tag_5\n  jump\t// in\ntag_4:\n  mload(0x40)\n  dup1\n  swap2\n  sub\n  swap1\n  0x00\n  create\n  dup1\n  iszero\n  dup1\n  iszero\n  tag_6\n  jumpi\n  returndatasize\n  0x00\n  dup1\n  returndatacopy\n  revert(0x00, returndatasize)\ntag_6:\n  pop\n    /* \"contracts/11_CallContract.sol\":1020:1028  receiver */\n  0x00\n  dup1\n    /* \"contracts/11_CallContract.sol\":1020:1045  receiver = new Receiver() */\n  0x0100\n  exp\n  dup2\n  sload\n  dup2\n  0xffffffffffffffffffffffffffffffffffffffff\n  mul\n  not\n  and\n  swap1\n  dup4\n  0xffffffffffffffffffffffffffffffffffffffff\n  and\n  mul\n  or\n  swap1\n  sstore\n  pop\n    /* \"contracts/11_CallContract.sol\":952:1897  contract Caller{... */\n  jump(tag_7)\ntag_5:\n  dataSize(sub_1)\n  dup1\n  dataOffset(sub_1)\n  dup4\n  codecopy\n  add\n  swap1\n  jump\t// out\ntag_7:\n  dataSize(sub_0)\n  dup1\n  dataOffset(sub_0)\n  0x00\n  codecopy\n  0x00\n  return\nstop\n\nsub_0: assembly {\n        /* \"contracts/11_CallContract.sol\":952:1897  contract Caller{... */\n      mstore(0x40, 0x80)\n      jumpi(tag_1, lt(calldatasize, 0x04))\n      shr(0xe0, calldataload(0x00))\n      dup1\n      0x12065fe0\n      eq\n      tag_2\n      jumpi\n      dup1\n      0x38cc4831\n      eq\n      tag_3\n      jumpi\n      dup1\n      0x59c75ada\n      eq\n      tag_4\n      jumpi\n      dup1\n      0x9a7557db\n      eq\n      tag_5\n      jumpi\n    tag_1:\n      0x00\n      dup1\n      revert\n        /* \"contracts/11_CallContract.sol\":1803:1895  function getBalance() public view returns(uint){... */\n    tag_2:\n      callvalue\n      dup1\n      iszero\n      tag_6\n      jumpi\n      0x00\n      dup1\n      revert\n    tag_6:\n      pop\n      tag_7\n      tag_8\n      jump\t// in\n    tag_7:\n      mload(0x40)\n      tag_9\n      swap2\n      swap1\n      tag_10\n      jump\t// in\n    tag_9:\n      mload(0x40)\n      dup1\n      swap2\n      sub\n      swap1\n      return\n        /* \"contracts/11_CallContract.sol\":1702:1797  function getAddress() public view returns(address){... */\n    tag_3:\n      callvalue\n      dup1\n      iszero\n      tag_11\n      jumpi\n      0x00\n      dup1\n      revert\n    tag_11:\n      pop\n      tag_12\n      tag_13\n      jump\t// in\n    tag_12:\n      mload(0x40)\n      tag_14\n      swap2\n      swap1\n      tag_15\n      jump\t// in\n    tag_14:\n      mload(0x40)\n      dup1\n      swap2\n      sub\n      swap1\n      return\n        /* \"contracts/11_CallContract.sol\":1105:1502  function testCall(address payable _addr, uint _y) public payable{... */\n    tag_4:\n      tag_16\n      0x04\n      dup1\n      calldatasize\n      sub\n      dup2\n      add\n      swap1\n      tag_17\n      swap2\n      swap1\n      tag_18\n      jump\t// in\n    tag_17:\n      tag_19\n      jump\t// in\n    tag_16:\n      stop\n        /* \"contracts/11_CallContract.sol\":1508:1691  function testCall1(address payable _addr) public payable{... */\n    tag_5:\n      tag_20\n      0x04\n      dup1\n      calldatasize\n      sub\n      dup2\n      add\n      swap1\n      tag_21\n      swap2\n      swap1\n      tag_22\n      jump\t// in\n    tag_21:\n      tag_23\n      jump\t// in\n    tag_20:\n      stop\n        /* \"contracts/11_CallContract.sol\":1803:1895  function getBalance() public view returns(uint){... */\n    tag_8:\n        /* \"contracts/11_CallContract.sol\":1845:1849  uint */\n      0x00\n        /* \"contracts/11_CallContract.sol\":1867:1875  receiver */\n      dup1\n      0x00\n      swap1\n      sload\n      swap1\n      0x0100\n      exp\n      swap1\n      div\n      0xffffffffffffffffffffffffffffffffffffffff\n      and\n        /* \"contracts/11_CallContract.sol\":1867:1886  receiver.getBalance */\n      0xffffffffffffffffffffffffffffffffffffffff\n      and\n      0x12065fe0\n        /* \"contracts/11_CallContract.sol\":1867:1888  receiver.getBalance() */\n      mload(0x40)\n      dup2\n      0xffffffff\n      and\n      0xe0\n      shl\n      dup2\n      mstore\n      0x04\n      add\n      0x20\n      mload(0x40)\n      dup1\n      dup4\n      sub\n      dup2\n      dup7\n      dup1\n      extcodesize\n      iszero\n      dup1\n      iszero\n      tag_25\n      jumpi\n      0x00\n      dup1\n      revert\n    tag_25:\n      pop\n      gas\n      staticcall\n      iszero\n      dup1\n      iszero\n      tag_27\n      jumpi\n      returndatasize\n      0x00\n      dup1\n      returndatacopy\n      revert(0x00, returndatasize)\n    tag_27:\n      pop\n      pop\n      pop\n      pop\n      mload(0x40)\n      returndatasize\n      not(0x1f)\n      0x1f\n      dup3\n      add\n      and\n      dup3\n      add\n      dup1\n      0x40\n      mstore\n      pop\n      dup2\n      add\n      swap1\n      tag_28\n      swap2\n      swap1\n      tag_29\n      jump\t// in\n    tag_28:\n        /* \"contracts/11_CallContract.sol\":1860:1888  return receiver.getBalance() */\n      swap1\n      pop\n        /* \"contracts/11_CallContract.sol\":1803:1895  function getBalance() public view returns(uint){... */\n      swap1\n      jump\t// out\n        /* \"contracts/11_CallContract.sol\":1702:1797  function getAddress() public view returns(address){... */\n    tag_13:\n        /* \"contracts/11_CallContract.sol\":1744:1751  address */\n      0x00\n        /* \"contracts/11_CallContract.sol\":1769:1777  receiver */\n      dup1\n      0x00\n      swap1\n      sload\n      swap1\n      0x0100\n      exp\n      swap1\n      div\n      0xffffffffffffffffffffffffffffffffffffffff\n      and\n        /* \"contracts/11_CallContract.sol\":1769:1788  receiver.getAddress */\n      0xffffffffffffffffffffffffffffffffffffffff\n      and\n      0x38cc4831\n        /* \"contracts/11_CallContract.sol\":1769:1790  receiver.getAddress() */\n      mload(0x40)\n      dup2\n      0xffffffff\n      and\n      0xe0\n      shl\n      dup2\n      mstore\n      0x04\n      add\n      0x20\n      mload(0x40)\n      dup1\n      dup4\n      sub\n      dup2\n      dup7\n      dup1\n      extcodesize\n      iszero\n      dup1\n      iszero\n      tag_31\n      jumpi\n      0x00\n      dup1\n      revert\n    tag_31:\n      pop\n      gas\n      staticcall\n      iszero\n      dup1\n      iszero\n      tag_33\n      jumpi\n      returndatasize\n      0x00\n      dup1\n      returndatacopy\n      revert(0x00, returndatasize)\n    tag_33:\n      pop\n      pop\n      pop\n      pop\n      mload(0x40)\n      returndatasize\n      not(0x1f)\n      0x1f\n      dup3\n      add\n      and\n      dup3\n      add\n      dup1\n      0x40\n      mstore\n      pop\n      dup2\n      add\n      swap1\n      tag_34\n      swap2\n      swap1\n      tag_35\n      jump\t// in\n    tag_34:\n        /* \"contracts/11_CallContract.sol\":1762:1790  return receiver.getAddress() */\n      swap1\n      pop\n        /* \"contracts/11_CallContract.sol\":1702:1797  function getAddress() public view returns(address){... */\n      swap1\n      jump\t// out\n        /* \"contracts/11_CallContract.sol\":1105:1502  function testCall(address payable _addr, uint _y) public payable{... */\n    tag_19:\n        /* \"contracts/11_CallContract.sol\":1180:1192  bool success */\n      0x00\n        /* \"contracts/11_CallContract.sol\":1194:1211  bytes memory data */\n      dup1\n        /* \"contracts/11_CallContract.sol\":1215:1220  _addr */\n      dup4\n        /* \"contracts/11_CallContract.sol\":1215:1225  _addr.call */\n      0xffffffffffffffffffffffffffffffffffffffff\n      and\n        /* \"contracts/11_CallContract.sol\":1232:1241  msg.value */\n      callvalue\n        /* \"contracts/11_CallContract.sol\":1215:1246  _addr.call{value:msg.value}(\"\") */\n      mload(0x40)\n      tag_37\n      swap1\n      tag_38\n      jump\t// in\n    tag_37:\n      0x00\n      mload(0x40)\n      dup1\n      dup4\n      sub\n      dup2\n      dup6\n      dup8\n      gas\n      call\n      swap3\n      pop\n      pop\n      pop\n      returndatasize\n      dup1\n      0x00\n      dup2\n      eq\n      tag_41\n      jumpi\n      mload(0x40)\n      swap2\n      pop\n      and(add(returndatasize, 0x3f), not(0x1f))\n      dup3\n      add\n      0x40\n      mstore\n      returndatasize\n      dup3\n      mstore\n      returndatasize\n      0x00\n      0x20\n      dup5\n      add\n      returndatacopy\n      jump(tag_40)\n    tag_41:\n      0x60\n      swap2\n      pop\n    tag_40:\n      pop\n        /* \"contracts/11_CallContract.sol\":1179:1246  (bool success, bytes memory data) = _addr.call{value:msg.value}(\"\") */\n      swap2\n      pop\n      swap2\n      pop\n        /* \"contracts/11_CallContract.sol\":1473:1495  Response(success,data) */\n      0x13848c3e38f8886f3f5d2ad9dff80d8092c2bbb8efd5b887a99c2c6cfc09ac2a\n        /* \"contracts/11_CallContract.sol\":1482:1489  success */\n      dup3\n        /* \"contracts/11_CallContract.sol\":1490:1494  data */\n      dup3\n        /* \"contracts/11_CallContract.sol\":1473:1495  Response(success,data) */\n      mload(0x40)\n      tag_42\n      swap3\n      swap2\n      swap1\n      tag_43\n      jump\t// in\n    tag_42:\n      mload(0x40)\n      dup1\n      swap2\n      sub\n      swap1\n      log1\n        /* \"contracts/11_CallContract.sol\":1169:1502  {... */\n      pop\n      pop\n        /* \"contracts/11_CallContract.sol\":1105:1502  function testCall(address payable _addr, uint _y) public payable{... */\n      pop\n      pop\n      jump\t// out\n        /* \"contracts/11_CallContract.sol\":1508:1691  function testCall1(address payable _addr) public payable{... */\n    tag_23:\n        /* \"contracts/11_CallContract.sol\":1575:1587  bool success */\n      0x00\n        /* \"contracts/11_CallContract.sol\":1589:1606  bytes memory data */\n      dup1\n        /* \"contracts/11_CallContract.sol\":1610:1615  _addr */\n      dup3\n        /* \"contracts/11_CallContract.sol\":1610:1620  _addr.call */\n      0xffffffffffffffffffffffffffffffffffffffff\n      and\n        /* \"contracts/11_CallContract.sol\":1627:1636  msg.value */\n      callvalue\n        /* \"contracts/11_CallContract.sol\":1610:1641  _addr.call{value:msg.value}(\"\") */\n      mload(0x40)\n      tag_45\n      swap1\n      tag_38\n      jump\t// in\n    tag_45:\n      0x00\n      mload(0x40)\n      dup1\n      dup4\n      sub\n      dup2\n      dup6\n      dup8\n      gas\n      call\n      swap3\n      pop\n      pop\n      pop\n      returndatasize\n      dup1\n      0x00\n      dup2\n      eq\n      tag_48\n      jumpi\n      mload(0x40)\n      swap2\n      pop\n      and(add(returndatasize, 0x3f), not(0x1f))\n      dup3\n      add\n      0x40\n      mstore\n      returndatasize\n      dup3\n      mstore\n      returndatasize\n      0x00\n      0x20\n      dup5\n      add\n      returndatacopy\n      jump(tag_47)\n    tag_48:\n      0x60\n      swap2\n      pop\n    tag_47:\n      pop\n        /* \"contracts/11_CallContract.sol\":1574:1641  (bool success, bytes memory data) = _addr.call{value:msg.value}(\"\") */\n      swap2\n      pop\n      swap2\n      pop\n        /* \"contracts/11_CallContract.sol\":1662:1684  Response(success,data) */\n      0x13848c3e38f8886f3f5d2ad9dff80d8092c2bbb8efd5b887a99c2c6cfc09ac2a\n        /* \"contracts/11_CallContract.sol\":1671:1678  success */\n      dup3\n        /* \"contracts/11_CallContract.sol\":1679:1683  data */\n      dup3\n        /* \"contracts/11_CallContract.sol\":1662:1684  Response(success,data) */\n      mload(0x40)\n      tag_49\n      swap3\n      swap2\n      swap1\n      tag_43\n      jump\t// in\n    tag_49:\n      mload(0x40)\n      dup1\n      swap2\n      sub\n      swap1\n      log1\n        /* \"contracts/11_CallContract.sol\":1564:1691  {... */\n      pop\n      pop\n        /* \"contracts/11_CallContract.sol\":1508:1691  function testCall1(address payable _addr) public payable{... */\n      pop\n      jump\t// out\n        /* \"#utility.yul\":7:150   */\n    tag_51:\n        /* \"#utility.yul\":64:69   */\n      0x00\n        /* \"#utility.yul\":95:101   */\n      dup2\n        /* \"#utility.yul\":89:102   */\n      mload\n        /* \"#utility.yul\":80:102   */\n      swap1\n      pop\n        /* \"#utility.yul\":111:144   */\n      tag_53\n        /* \"#utility.yul\":138:143   */\n      dup2\n        /* \"#utility.yul\":111:144   */\n      tag_54\n      jump\t// in\n    tag_53:\n        /* \"#utility.yul\":7:150   */\n      swap3\n      swap2\n      pop\n      pop\n      jump\t// out\n        /* \"#utility.yul\":156:311   */\n    tag_55:\n        /* \"#utility.yul\":210:215   */\n      0x00\n        /* \"#utility.yul\":248:254   */\n      dup2\n        /* \"#utility.yul\":235:255   */\n      calldataload\n        /* \"#utility.yul\":226:255   */\n      swap1\n      pop\n        /* \"#utility.yul\":264:305   */\n      tag_57\n        /* \"#utility.yul\":299:304   */\n      dup2\n        /* \"#utility.yul\":264:305   */\n      tag_58\n      jump\t// in\n    tag_57:\n        /* \"#utility.yul\":156:311   */\n      swap3\n      swap2\n      pop\n      pop\n      jump\t// out\n        /* \"#utility.yul\":317:456   */\n    tag_59:\n        /* \"#utility.yul\":363:368   */\n      0x00\n        /* \"#utility.yul\":401:407   */\n      dup2\n        /* \"#utility.yul\":388:408   */\n      calldataload\n        /* \"#utility.yul\":379:408   */\n      swap1\n      pop\n        /* \"#utility.yul\":417:450   */\n      tag_61\n        /* \"#utility.yul\":444:449   */\n      dup2\n        /* \"#utility.yul\":417:450   */\n      tag_62\n      jump\t// in\n    tag_61:\n        /* \"#utility.yul\":317:456   */\n      swap3\n      swap2\n      pop\n      pop\n      jump\t// out\n        /* \"#utility.yul\":462:605   */\n    tag_63:\n        /* \"#utility.yul\":519:524   */\n      0x00\n        /* \"#utility.yul\":550:556   */\n      dup2\n        /* \"#utility.yul\":544:557   */\n      mload\n        /* \"#utility.yul\":535:557   */\n      swap1\n      pop\n        /* \"#utility.yul\":566:599   */\n      tag_65\n        /* \"#utility.yul\":593:598   */\n      dup2\n        /* \"#utility.yul\":566:599   */\n      tag_62\n      jump\t// in\n    tag_65:\n        /* \"#utility.yul\":462:605   */\n      swap3\n      swap2\n      pop\n      pop\n      jump\t// out\n        /* \"#utility.yul\":611:962   */\n    tag_35:\n        /* \"#utility.yul\":681:687   */\n      0x00\n        /* \"#utility.yul\":730:732   */\n      0x20\n        /* \"#utility.yul\":718:727   */\n      dup3\n        /* \"#utility.yul\":709:716   */\n      dup5\n        /* \"#utility.yul\":705:728   */\n      sub\n        /* \"#utility.yul\":701:733   */\n      slt\n        /* \"#utility.yul\":698:817   */\n      iszero\n      tag_67\n      jumpi\n        /* \"#utility.yul\":736:815   */\n      tag_68\n      tag_69\n      jump\t// in\n    tag_68:\n        /* \"#utility.yul\":698:817   */\n    tag_67:\n        /* \"#utility.yul\":856:857   */\n      0x00\n        /* \"#utility.yul\":881:945   */\n      tag_70\n        /* \"#utility.yul\":937:944   */\n      dup5\n        /* \"#utility.yul\":928:934   */\n      dup3\n        /* \"#utility.yul\":917:926   */\n      dup6\n        /* \"#utility.yul\":913:935   */\n      add\n        /* \"#utility.yul\":881:945   */\n      tag_51\n      jump\t// in\n    tag_70:\n        /* \"#utility.yul\":871:945   */\n      swap2\n      pop\n        /* \"#utility.yul\":827:955   */\n      pop\n        /* \"#utility.yul\":611:962   */\n      swap3\n      swap2\n      pop\n      pop\n      jump\t// out\n        /* \"#utility.yul\":968:1313   */\n    tag_22:\n        /* \"#utility.yul\":1035:1041   */\n      0x00\n        /* \"#utility.yul\":1084:1086   */\n      0x20\n        /* \"#utility.yul\":1072:1081   */\n      dup3\n        /* \"#utility.yul\":1063:1070   */\n      dup5\n        /* \"#utility.yul\":1059:1082   */\n      sub\n        /* \"#utility.yul\":1055:1087   */\n      slt\n        /* \"#utility.yul\":1052:1171   */\n      iszero\n      tag_72\n      jumpi\n        /* \"#utility.yul\":1090:1169   */\n      tag_73\n      tag_69\n      jump\t// in\n    tag_73:\n        /* \"#utility.yul\":1052:1171   */\n    tag_72:\n        /* \"#utility.yul\":1210:1211   */\n      0x00\n        /* \"#utility.yul\":1235:1296   */\n      tag_74\n        /* \"#utility.yul\":1288:1295   */\n      dup5\n        /* \"#utility.yul\":1279:1285   */\n      dup3\n        /* \"#utility.yul\":1268:1277   */\n      dup6\n        /* \"#utility.yul\":1264:1286   */\n      add\n        /* \"#utility.yul\":1235:1296   */\n      tag_55\n      jump\t// in\n    tag_74:\n        /* \"#utility.yul\":1225:1296   */\n      swap2\n      pop\n        /* \"#utility.yul\":1181:1306   */\n      pop\n        /* \"#utility.yul\":968:1313   */\n      swap3\n      swap2\n      pop\n      pop\n      jump\t// out\n        /* \"#utility.yul\":1319:1809   */\n    tag_18:\n        /* \"#utility.yul\":1395:1401   */\n      0x00\n        /* \"#utility.yul\":1403:1409   */\n      dup1\n        /* \"#utility.yul\":1452:1454   */\n      0x40\n        /* \"#utility.yul\":1440:1449   */\n      dup4\n        /* \"#utility.yul\":1431:1438   */\n      dup6\n        /* \"#utility.yul\":1427:1450   */\n      sub\n        /* \"#utility.yul\":1423:1455   */\n      slt\n        /* \"#utility.yul\":1420:1539   */\n      iszero\n      tag_76\n      jumpi\n        /* \"#utility.yul\":1458:1537   */\n      tag_77\n      tag_69\n      jump\t// in\n    tag_77:\n        /* \"#utility.yul\":1420:1539   */\n    tag_76:\n        /* \"#utility.yul\":1578:1579   */\n      0x00\n        /* \"#utility.yul\":1603:1664   */\n      tag_78\n        /* \"#utility.yul\":1656:1663   */\n      dup6\n        /* \"#utility.yul\":1647:1653   */\n      dup3\n        /* \"#utility.yul\":1636:1645   */\n      dup7\n        /* \"#utility.yul\":1632:1654   */\n      add\n        /* \"#utility.yul\":1603:1664   */\n      tag_55\n      jump\t// in\n    tag_78:\n        /* \"#utility.yul\":1593:1664   */\n      swap3\n      pop\n        /* \"#utility.yul\":1549:1674   */\n      pop\n        /* \"#utility.yul\":1713:1715   */\n      0x20\n        /* \"#utility.yul\":1739:1792   */\n      tag_79\n        /* \"#utility.yul\":1784:1791   */\n      dup6\n        /* \"#utility.yul\":1775:1781   */\n      dup3\n        /* \"#utility.yul\":1764:1773   */\n      dup7\n        /* \"#utility.yul\":1760:1782   */\n      add\n        /* \"#utility.yul\":1739:1792   */\n      tag_59\n      jump\t// in\n    tag_79:\n        /* \"#utility.yul\":1729:1792   */\n      swap2\n      pop\n        /* \"#utility.yul\":1684:1802   */\n      pop\n        /* \"#utility.yul\":1319:1809   */\n      swap3\n      pop\n      swap3\n      swap1\n      pop\n      jump\t// out\n        /* \"#utility.yul\":1815:2166   */\n    tag_29:\n        /* \"#utility.yul\":1885:1891   */\n      0x00\n        /* \"#utility.yul\":1934:1936   */\n      0x20\n        /* \"#utility.yul\":1922:1931   */\n      dup3\n        /* \"#utility.yul\":1913:1920   */\n      dup5\n        /* \"#utility.yul\":1909:1932   */\n      sub\n        /* \"#utility.yul\":1905:1937   */\n      slt\n        /* \"#utility.yul\":1902:2021   */\n      iszero\n      tag_81\n      jumpi\n        /* \"#utility.yul\":1940:2019   */\n      tag_82\n      tag_69\n      jump\t// in\n    tag_82:\n        /* \"#utility.yul\":1902:2021   */\n    tag_81:\n        /* \"#utility.yul\":2060:2061   */\n      0x00\n        /* \"#utility.yul\":2085:2149   */\n      tag_83\n        /* \"#utility.yul\":2141:2148   */\n      dup5\n        /* \"#utility.yul\":2132:2138   */\n      dup3\n        /* \"#utility.yul\":2121:2130   */\n      dup6\n        /* \"#utility.yul\":2117:2139   */\n      add\n        /* \"#utility.yul\":2085:2149   */\n      tag_63\n      jump\t// in\n    tag_83:\n        /* \"#utility.yul\":2075:2149   */\n      swap2\n      pop\n        /* \"#utility.yul\":2031:2159   */\n      pop\n        /* \"#utility.yul\":1815:2166   */\n      swap3\n      swap2\n      pop\n      pop\n      jump\t// out\n        /* \"#utility.yul\":2172:2290   */\n    tag_84:\n        /* \"#utility.yul\":2259:2283   */\n      tag_86\n        /* \"#utility.yul\":2277:2282   */\n      dup2\n        /* \"#utility.yul\":2259:2283   */\n      tag_87\n      jump\t// in\n    tag_86:\n        /* \"#utility.yul\":2254:2257   */\n      dup3\n        /* \"#utility.yul\":2247:2284   */\n      mstore\n        /* \"#utility.yul\":2172:2290   */\n      pop\n      pop\n      jump\t// out\n        /* \"#utility.yul\":2296:2405   */\n    tag_88:\n        /* \"#utility.yul\":2377:2398   */\n      tag_90\n        /* \"#utility.yul\":2392:2397   */\n      dup2\n        /* \"#utility.yul\":2377:2398   */\n      tag_91\n      jump\t// in\n    tag_90:\n        /* \"#utility.yul\":2372:2375   */\n      dup3\n        /* \"#utility.yul\":2365:2399   */\n      mstore\n        /* \"#utility.yul\":2296:2405   */\n      pop\n      pop\n      jump\t// out\n        /* \"#utility.yul\":2411:2771   */\n    tag_92:\n        /* \"#utility.yul\":2497:2500   */\n      0x00\n        /* \"#utility.yul\":2525:2563   */\n      tag_94\n        /* \"#utility.yul\":2557:2562   */\n      dup3\n        /* \"#utility.yul\":2525:2563   */\n      tag_95\n      jump\t// in\n    tag_94:\n        /* \"#utility.yul\":2579:2649   */\n      tag_96\n        /* \"#utility.yul\":2642:2648   */\n      dup2\n        /* \"#utility.yul\":2637:2640   */\n      dup6\n        /* \"#utility.yul\":2579:2649   */\n      tag_97\n      jump\t// in\n    tag_96:\n        /* \"#utility.yul\":2572:2649   */\n      swap4\n      pop\n        /* \"#utility.yul\":2658:2710   */\n      tag_98\n        /* \"#utility.yul\":2703:2709   */\n      dup2\n        /* \"#utility.yul\":2698:2701   */\n      dup6\n        /* \"#utility.yul\":2691:2695   */\n      0x20\n        /* \"#utility.yul\":2684:2689   */\n      dup7\n        /* \"#utility.yul\":2680:2696   */\n      add\n        /* \"#utility.yul\":2658:2710   */\n      tag_99\n      jump\t// in\n    tag_98:\n        /* \"#utility.yul\":2735:2764   */\n      tag_100\n        /* \"#utility.yul\":2757:2763   */\n      dup2\n        /* \"#utility.yul\":2735:2764   */\n      tag_101\n      jump\t// in\n    tag_100:\n        /* \"#utility.yul\":2730:2733   */\n      dup5\n        /* \"#utility.yul\":2726:2765   */\n      add\n        /* \"#utility.yul\":2719:2765   */\n      swap2\n      pop\n        /* \"#utility.yul\":2501:2771   */\n      pop\n        /* \"#utility.yul\":2411:2771   */\n      swap3\n      swap2\n      pop\n      pop\n      jump\t// out\n        /* \"#utility.yul\":2777:3175   */\n    tag_102:\n        /* \"#utility.yul\":2936:2939   */\n      0x00\n        /* \"#utility.yul\":2957:3040   */\n      tag_104\n        /* \"#utility.yul\":3038:3039   */\n      0x00\n        /* \"#utility.yul\":3033:3036   */\n      dup4\n        /* \"#utility.yul\":2957:3040   */\n      tag_105\n      jump\t// in\n    tag_104:\n        /* \"#utility.yul\":2950:3040   */\n      swap2\n      pop\n        /* \"#utility.yul\":3049:3142   */\n      tag_106\n        /* \"#utility.yul\":3138:3141   */\n      dup3\n        /* \"#utility.yul\":3049:3142   */\n      tag_107\n      jump\t// in\n    tag_106:\n        /* \"#utility.yul\":3167:3168   */\n      0x00\n        /* \"#utility.yul\":3162:3165   */\n      dup3\n        /* \"#utility.yul\":3158:3169   */\n      add\n        /* \"#utility.yul\":3151:3169   */\n      swap1\n      pop\n        /* \"#utility.yul\":2777:3175   */\n      swap2\n      swap1\n      pop\n      jump\t// out\n        /* \"#utility.yul\":3181:3299   */\n    tag_108:\n        /* \"#utility.yul\":3268:3292   */\n      tag_110\n        /* \"#utility.yul\":3286:3291   */\n      dup2\n        /* \"#utility.yul\":3268:3292   */\n      tag_111\n      jump\t// in\n    tag_110:\n        /* \"#utility.yul\":3263:3266   */\n      dup3\n        /* \"#utility.yul\":3256:3293   */\n      mstore\n        /* \"#utility.yul\":3181:3299   */\n      pop\n      pop\n      jump\t// out\n        /* \"#utility.yul\":3305:3684   */\n    tag_38:\n        /* \"#utility.yul\":3489:3492   */\n      0x00\n        /* \"#utility.yul\":3511:3658   */\n      tag_113\n        /* \"#utility.yul\":3654:3657   */\n      dup3\n        /* \"#utility.yul\":3511:3658   */\n      tag_102\n      jump\t// in\n    tag_113:\n        /* \"#utility.yul\":3504:3658   */\n      swap2\n      pop\n        /* \"#utility.yul\":3675:3678   */\n      dup2\n        /* \"#utility.yul\":3668:3678   */\n      swap1\n      pop\n        /* \"#utility.yul\":3305:3684   */\n      swap2\n      swap1\n      pop\n      jump\t// out\n        /* \"#utility.yul\":3690:3912   */\n    tag_15:\n        /* \"#utility.yul\":3783:3787   */\n      0x00\n        /* \"#utility.yul\":3821:3823   */\n      0x20\n        /* \"#utility.yul\":3810:3819   */\n      dup3\n        /* \"#utility.yul\":3806:3824   */\n      add\n        /* \"#utility.yul\":3798:3824   */\n      swap1\n      pop\n        /* \"#utility.yul\":3834:3905   */\n      tag_115\n        /* \"#utility.yul\":3902:3903   */\n      0x00\n        /* \"#utility.yul\":3891:3900   */\n      dup4\n        /* \"#utility.yul\":3887:3904   */\n      add\n        /* \"#utility.yul\":3878:3884   */\n      dup5\n        /* \"#utility.yul\":3834:3905   */\n      tag_84\n      jump\t// in\n    tag_115:\n        /* \"#utility.yul\":3690:3912   */\n      swap3\n      swap2\n      pop\n      pop\n      jump\t// out\n        /* \"#utility.yul\":3918:4325   */\n    tag_43:\n        /* \"#utility.yul\":4051:4055   */\n      0x00\n        /* \"#utility.yul\":4089:4091   */\n      0x40\n        /* \"#utility.yul\":4078:4087   */\n      dup3\n        /* \"#utility.yul\":4074:4092   */\n      add\n        /* \"#utility.yul\":4066:4092   */\n      swap1\n      pop\n        /* \"#utility.yul\":4102:4167   */\n      tag_117\n        /* \"#utility.yul\":4164:4165   */\n      0x00\n        /* \"#utility.yul\":4153:4162   */\n      dup4\n        /* \"#utility.yul\":4149:4166   */\n      add\n        /* \"#utility.yul\":4140:4146   */\n      dup6\n        /* \"#utility.yul\":4102:4167   */\n      tag_88\n      jump\t// in\n    tag_117:\n        /* \"#utility.yul\":4214:4223   */\n      dup2\n        /* \"#utility.yul\":4208:4212   */\n      dup2\n        /* \"#utility.yul\":4204:4224   */\n      sub\n        /* \"#utility.yul\":4199:4201   */\n      0x20\n        /* \"#utility.yul\":4188:4197   */\n      dup4\n        /* \"#utility.yul\":4184:4202   */\n      add\n        /* \"#utility.yul\":4177:4225   */\n      mstore\n        /* \"#utility.yul\":4242:4318   */\n      tag_118\n        /* \"#utility.yul\":4313:4317   */\n      dup2\n        /* \"#utility.yul\":4304:4310   */\n      dup5\n        /* \"#utility.yul\":4242:4318   */\n      tag_92\n      jump\t// in\n    tag_118:\n        /* \"#utility.yul\":4234:4318   */\n      swap1\n      pop\n        /* \"#utility.yul\":3918:4325   */\n      swap4\n      swap3\n      pop\n      pop\n      pop\n      jump\t// out\n        /* \"#utility.yul\":4331:4553   */\n    tag_10:\n        /* \"#utility.yul\":4424:4428   */\n      0x00\n        /* \"#utility.yul\":4462:4464   */\n      0x20\n        /* \"#utility.yul\":4451:4460   */\n      dup3\n        /* \"#utility.yul\":4447:4465   */\n      add\n        /* \"#utility.yul\":4439:4465   */\n      swap1\n      pop\n        /* \"#utility.yul\":4475:4546   */\n      tag_120\n        /* \"#utility.yul\":4543:4544   */\n      0x00\n        /* \"#utility.yul\":4532:4541   */\n      dup4\n        /* \"#utility.yul\":4528:4545   */\n      add\n        /* \"#utility.yul\":4519:4525   */\n      dup5\n        /* \"#utility.yul\":4475:4546   */\n      tag_108\n      jump\t// in\n    tag_120:\n        /* \"#utility.yul\":4331:4553   */\n      swap3\n      swap2\n      pop\n      pop\n      jump\t// out\n        /* \"#utility.yul\":4640:4738   */\n    tag_95:\n        /* \"#utility.yul\":4691:4697   */\n      0x00\n        /* \"#utility.yul\":4725:4730   */\n      dup2\n        /* \"#utility.yul\":4719:4731   */\n      mload\n        /* \"#utility.yul\":4709:4731   */\n      swap1\n      pop\n        /* \"#utility.yul\":4640:4738   */\n      swap2\n      swap1\n      pop\n      jump\t// out\n        /* \"#utility.yul\":4744:4912   */\n    tag_97:\n        /* \"#utility.yul\":4827:4838   */\n      0x00\n        /* \"#utility.yul\":4861:4867   */\n      dup3\n        /* \"#utility.yul\":4856:4859   */\n      dup3\n        /* \"#utility.yul\":4849:4868   */\n      mstore\n        /* \"#utility.yul\":4901:4905   */\n      0x20\n        /* \"#utility.yul\":4896:4899   */\n      dup3\n        /* \"#utility.yul\":4892:4906   */\n      add\n        /* \"#utility.yul\":4877:4906   */\n      swap1\n      pop\n        /* \"#utility.yul\":4744:4912   */\n      swap3\n      swap2\n      pop\n      pop\n      jump\t// out\n        /* \"#utility.yul\":4918:5065   */\n    tag_105:\n        /* \"#utility.yul\":5019:5030   */\n      0x00\n        /* \"#utility.yul\":5056:5059   */\n      dup2\n        /* \"#utility.yul\":5041:5059   */\n      swap1\n      pop\n        /* \"#utility.yul\":4918:5065   */\n      swap3\n      swap2\n      pop\n      pop\n      jump\t// out\n        /* \"#utility.yul\":5071:5167   */\n    tag_87:\n        /* \"#utility.yul\":5108:5115   */\n      0x00\n        /* \"#utility.yul\":5137:5161   */\n      tag_127\n        /* \"#utility.yul\":5155:5160   */\n      dup3\n        /* \"#utility.yul\":5137:5161   */\n      tag_128\n      jump\t// in\n    tag_127:\n        /* \"#utility.yul\":5126:5161   */\n      swap1\n      pop\n        /* \"#utility.yul\":5071:5167   */\n      swap2\n      swap1\n      pop\n      jump\t// out\n        /* \"#utility.yul\":5173:5277   */\n    tag_129:\n        /* \"#utility.yul\":5218:5225   */\n      0x00\n        /* \"#utility.yul\":5247:5271   */\n      tag_131\n        /* \"#utility.yul\":5265:5270   */\n      dup3\n        /* \"#utility.yul\":5247:5271   */\n      tag_128\n      jump\t// in\n    tag_131:\n        /* \"#utility.yul\":5236:5271   */\n      swap1\n      pop\n        /* \"#utility.yul\":5173:5277   */\n      swap2\n      swap1\n      pop\n      jump\t// out\n        /* \"#utility.yul\":5283:5373   */\n    tag_91:\n        /* \"#utility.yul\":5317:5324   */\n      0x00\n        /* \"#utility.yul\":5360:5365   */\n      dup2\n        /* \"#utility.yul\":5353:5366   */\n      iszero\n        /* \"#utility.yul\":5346:5367   */\n      iszero\n        /* \"#utility.yul\":5335:5367   */\n      swap1\n      pop\n        /* \"#utility.yul\":5283:5373   */\n      swap2\n      swap1\n      pop\n      jump\t// out\n        /* \"#utility.yul\":5379:5505   */\n    tag_128:\n        /* \"#utility.yul\":5416:5423   */\n      0x00\n        /* \"#utility.yul\":5456:5498   */\n      0xffffffffffffffffffffffffffffffffffffffff\n        /* \"#utility.yul\":5449:5454   */\n      dup3\n        /* \"#utility.yul\":5445:5499   */\n      and\n        /* \"#utility.yul\":5434:5499   */\n      swap1\n      pop\n        /* \"#utility.yul\":5379:5505   */\n      swap2\n      swap1\n      pop\n      jump\t// out\n        /* \"#utility.yul\":5511:5588   */\n    tag_111:\n        /* \"#utility.yul\":5548:5555   */\n      0x00\n        /* \"#utility.yul\":5577:5582   */\n      dup2\n        /* \"#utility.yul\":5566:5582   */\n      swap1\n      pop\n        /* \"#utility.yul\":5511:5588   */\n      swap2\n      swap1\n      pop\n      jump\t// out\n        /* \"#utility.yul\":5594:5901   */\n    tag_99:\n        /* \"#utility.yul\":5662:5663   */\n      0x00\n        /* \"#utility.yul\":5672:5785   */\n    tag_136:\n        /* \"#utility.yul\":5686:5692   */\n      dup4\n        /* \"#utility.yul\":5683:5684   */\n      dup2\n        /* \"#utility.yul\":5680:5693   */\n      lt\n        /* \"#utility.yul\":5672:5785   */\n      iszero\n      tag_138\n      jumpi\n        /* \"#utility.yul\":5771:5772   */\n      dup1\n        /* \"#utility.yul\":5766:5769   */\n      dup3\n        /* \"#utility.yul\":5762:5773   */\n      add\n        /* \"#utility.yul\":5756:5774   */\n      mload\n        /* \"#utility.yul\":5752:5753   */\n      dup2\n        /* \"#utility.yul\":5747:5750   */\n      dup5\n        /* \"#utility.yul\":5743:5754   */\n      add\n        /* \"#utility.yul\":5736:5775   */\n      mstore\n        /* \"#utility.yul\":5708:5710   */\n      0x20\n        /* \"#utility.yul\":5705:5706   */\n      dup2\n        /* \"#utility.yul\":5701:5711   */\n      add\n        /* \"#utility.yul\":5696:5711   */\n      swap1\n      pop\n        /* \"#utility.yul\":5672:5785   */\n      jump(tag_136)\n    tag_138:\n        /* \"#utility.yul\":5803:5809   */\n      dup4\n        /* \"#utility.yul\":5800:5801   */\n      dup2\n        /* \"#utility.yul\":5797:5810   */\n      gt\n        /* \"#utility.yul\":5794:5895   */\n      iszero\n      tag_139\n      jumpi\n        /* \"#utility.yul\":5883:5884   */\n      0x00\n        /* \"#utility.yul\":5874:5880   */\n      dup5\n        /* \"#utility.yul\":5869:5872   */\n      dup5\n        /* \"#utility.yul\":5865:5881   */\n      add\n        /* \"#utility.yul\":5858:5885   */\n      mstore\n        /* \"#utility.yul\":5794:5895   */\n    tag_139:\n        /* \"#utility.yul\":5643:5901   */\n      pop\n        /* \"#utility.yul\":5594:5901   */\n      pop\n      pop\n      pop\n      jump\t// out\n        /* \"#utility.yul\":6030:6147   */\n    tag_69:\n        /* \"#utility.yul\":6139:6140   */\n      0x00\n        /* \"#utility.yul\":6136:6137   */\n      dup1\n        /* \"#utility.yul\":6129:6141   */\n      revert\n        /* \"#utility.yul\":6153:6255   */\n    tag_101:\n        /* \"#utility.yul\":6194:6200   */\n      0x00\n        /* \"#utility.yul\":6245:6247   */\n      0x1f\n        /* \"#utility.yul\":6241:6248   */\n      not\n        /* \"#utility.yul\":6236:6238   */\n      0x1f\n        /* \"#utility.yul\":6229:6234   */\n      dup4\n        /* \"#utility.yul\":6225:6239   */\n      add\n        /* \"#utility.yul\":6221:6249   */\n      and\n        /* \"#utility.yul\":6211:6249   */\n      swap1\n      pop\n        /* \"#utility.yul\":6153:6255   */\n      swap2\n      swap1\n      pop\n      jump\t// out\n        /* \"#utility.yul\":6261:6375   */\n    tag_107:\n      pop\n      jump\t// out\n        /* \"#utility.yul\":6381:6503   */\n    tag_54:\n        /* \"#utility.yul\":6454:6478   */\n      tag_146\n        /* \"#utility.yul\":6472:6477   */\n      dup2\n        /* \"#utility.yul\":6454:6478   */\n      tag_87\n      jump\t// in\n    tag_146:\n        /* \"#utility.yul\":6447:6452   */\n      dup2\n        /* \"#utility.yul\":6444:6479   */\n      eq\n        /* \"#utility.yul\":6434:6497   */\n      tag_147\n      jumpi\n        /* \"#utility.yul\":6493:6494   */\n      0x00\n        /* \"#utility.yul\":6490:6491   */\n      dup1\n        /* \"#utility.yul\":6483:6495   */\n      revert\n        /* \"#utility.yul\":6434:6497   */\n    tag_147:\n        /* \"#utility.yul\":6381:6503   */\n      pop\n      jump\t// out\n        /* \"#utility.yul\":6509:6647   */\n    tag_58:\n        /* \"#utility.yul\":6590:6622   */\n      tag_149\n        /* \"#utility.yul\":6616:6621   */\n      dup2\n        /* \"#utility.yul\":6590:6622   */\n      tag_129\n      jump\t// in\n    tag_149:\n        /* \"#utility.yul\":6583:6588   */\n      dup2\n        /* \"#utility.yul\":6580:6623   */\n      eq\n        /* \"#utility.yul\":6570:6641   */\n      tag_150\n      jumpi\n        /* \"#utility.yul\":6637:6638   */\n      0x00\n        /* \"#utility.yul\":6634:6635   */\n      dup1\n        /* \"#utility.yul\":6627:6639   */\n      revert\n        /* \"#utility.yul\":6570:6641   */\n    tag_150:\n        /* \"#utility.yul\":6509:6647   */\n      pop\n      jump\t// out\n        /* \"#utility.yul\":6653:6775   */\n    tag_62:\n        /* \"#utility.yul\":6726:6750   */\n      tag_152\n        /* \"#utility.yul\":6744:6749   */\n      dup2\n        /* \"#utility.yul\":6726:6750   */\n      tag_111\n      jump\t// in\n    tag_152:\n        /* \"#utility.yul\":6719:6724   */\n      dup2\n        /* \"#utility.yul\":6716:6751   */\n      eq\n        /* \"#utility.yul\":6706:6769   */\n      tag_153\n      jumpi\n        /* \"#utility.yul\":6765:6766   */\n      0x00\n        /* \"#utility.yul\":6762:6763   */\n      dup1\n        /* \"#utility.yul\":6755:6767   */\n      revert\n        /* \"#utility.yul\":6706:6769   */\n    tag_153:\n        /* \"#utility.yul\":6653:6775   */\n      pop\n      jump\t// out\n\n    auxdata: 0xa2646970667358221220a9065bb81c68aa673bd2893b97edf721d9d1ac4145e96c269d80cd56304a538064736f6c63430008070033\n}\n\nsub_1: assembly {\n        /* \"contracts/11_CallContract.sol\":70:950  contract Receiver{... */\n      mstore(0x40, 0x80)\n      callvalue\n      dup1\n      iszero\n      tag_1\n      jumpi\n      0x00\n      dup1\n      revert\n    tag_1:\n      pop\n      dataSize(sub_0)\n      dup1\n      dataOffset(sub_0)\n      0x00\n      codecopy\n      0x00\n      return\n    stop\n\n    sub_0: assembly {\n            /* \"contracts/11_CallContract.sol\":70:950  contract Receiver{... */\n          mstore(0x40, 0x80)\n          jumpi(tag_1, lt(calldatasize, 0x04))\n          shr(0xe0, calldataload(0x00))\n          dup1\n          0x12065fe0\n          eq\n          tag_3\n          jumpi\n          dup1\n          0x24ccab8f\n          eq\n          tag_4\n          jumpi\n          dup1\n          0x38cc4831\n          eq\n          tag_5\n          jumpi\n          jump(tag_2)\n        tag_1:\n          jumpi(tag_2, calldatasize)\n            /* \"contracts/11_CallContract.sol\":318:371  Received(msg.sender,msg.value, \"Received was called\") */\n          0x59e04c3f0d44b7caf6e8ef854b61d9a51cf1960d7a88ff6356cc5e946b4b5832\n            /* \"contracts/11_CallContract.sol\":327:337  msg.sender */\n          caller\n            /* \"contracts/11_CallContract.sol\":338:347  msg.value */\n          callvalue\n            /* \"contracts/11_CallContract.sol\":318:371  Received(msg.sender,msg.value, \"Received was called\") */\n          mload(0x40)\n          tag_8\n          swap3\n          swap2\n          swap1\n          tag_9\n          jump\t// in\n        tag_8:\n          mload(0x40)\n          dup1\n          swap2\n          sub\n          swap1\n          log1\n            /* \"contracts/11_CallContract.sol\":70:950  contract Receiver{... */\n          stop\n        tag_2:\n            /* \"contracts/11_CallContract.sol\":534:587  Received(msg.sender,msg.value, \"Fallback was called\") */\n          0x59e04c3f0d44b7caf6e8ef854b61d9a51cf1960d7a88ff6356cc5e946b4b5832\n            /* \"contracts/11_CallContract.sol\":543:553  msg.sender */\n          caller\n            /* \"contracts/11_CallContract.sol\":554:563  msg.value */\n          callvalue\n            /* \"contracts/11_CallContract.sol\":534:587  Received(msg.sender,msg.value, \"Fallback was called\") */\n          mload(0x40)\n          tag_12\n          swap3\n          swap2\n          swap1\n          tag_13\n          jump\t// in\n        tag_12:\n          mload(0x40)\n          dup1\n          swap2\n          sub\n          swap1\n          log1\n            /* \"contracts/11_CallContract.sol\":70:950  contract Receiver{... */\n          stop\n            /* \"contracts/11_CallContract.sol\":855:947  function getBalance() public view returns(uint){... */\n        tag_3:\n          callvalue\n          dup1\n          iszero\n          tag_14\n          jumpi\n          0x00\n          dup1\n          revert\n        tag_14:\n          pop\n          tag_15\n          tag_16\n          jump\t// in\n        tag_15:\n          mload(0x40)\n          tag_17\n          swap2\n          swap1\n          tag_18\n          jump\t// in\n        tag_17:\n          mload(0x40)\n          dup1\n          swap2\n          sub\n          swap1\n          return\n            /* \"contracts/11_CallContract.sol\":600:755  function foo(string memory _message, uint _y) public payable returns(uint){... */\n        tag_4:\n          tag_19\n          0x04\n          dup1\n          calldatasize\n          sub\n          dup2\n          add\n          swap1\n          tag_20\n          swap2\n          swap1\n          tag_21\n          jump\t// in\n        tag_20:\n          tag_22\n          jump\t// in\n        tag_19:\n          mload(0x40)\n          tag_23\n          swap2\n          swap1\n          tag_18\n          jump\t// in\n        tag_23:\n          mload(0x40)\n          dup1\n          swap2\n          sub\n          swap1\n          return\n            /* \"contracts/11_CallContract.sol\":762:849  function getAddress() public view returns(address){... */\n        tag_5:\n          callvalue\n          dup1\n          iszero\n          tag_24\n          jumpi\n          0x00\n          dup1\n          revert\n        tag_24:\n          pop\n          tag_25\n          tag_26\n          jump\t// in\n        tag_25:\n          mload(0x40)\n          tag_27\n          swap2\n          swap1\n          tag_28\n          jump\t// in\n        tag_27:\n          mload(0x40)\n          dup1\n          swap2\n          sub\n          swap1\n          return\n            /* \"contracts/11_CallContract.sol\":855:947  function getBalance() public view returns(uint){... */\n        tag_16:\n            /* \"contracts/11_CallContract.sol\":897:901  uint */\n          0x00\n            /* \"contracts/11_CallContract.sol\":919:940  address(this).balance */\n          selfbalance\n            /* \"contracts/11_CallContract.sol\":912:940  return address(this).balance */\n          swap1\n          pop\n            /* \"contracts/11_CallContract.sol\":855:947  function getBalance() public view returns(uint){... */\n          swap1\n          jump\t// out\n            /* \"contracts/11_CallContract.sol\":600:755  function foo(string memory _message, uint _y) public payable returns(uint){... */\n        tag_22:\n            /* \"contracts/11_CallContract.sol\":669:673  uint */\n          0x00\n            /* \"contracts/11_CallContract.sol\":689:729  Received(msg.sender,msg.value, _message) */\n          0x59e04c3f0d44b7caf6e8ef854b61d9a51cf1960d7a88ff6356cc5e946b4b5832\n            /* \"contracts/11_CallContract.sol\":698:708  msg.sender */\n          caller\n            /* \"contracts/11_CallContract.sol\":709:718  msg.value */\n          callvalue\n            /* \"contracts/11_CallContract.sol\":720:728  _message */\n          dup6\n            /* \"contracts/11_CallContract.sol\":689:729  Received(msg.sender,msg.value, _message) */\n          mload(0x40)\n          tag_31\n          swap4\n          swap3\n          swap2\n          swap1\n          tag_32\n          jump\t// in\n        tag_31:\n          mload(0x40)\n          dup1\n          swap2\n          sub\n          swap1\n          log1\n            /* \"contracts/11_CallContract.sol\":746:748  _y */\n          dup2\n            /* \"contracts/11_CallContract.sol\":739:748  return _y */\n          swap1\n          pop\n            /* \"contracts/11_CallContract.sol\":600:755  function foo(string memory _message, uint _y) public payable returns(uint){... */\n          swap3\n          swap2\n          pop\n          pop\n          jump\t// out\n            /* \"contracts/11_CallContract.sol\":762:849  function getAddress() public view returns(address){... */\n        tag_26:\n            /* \"contracts/11_CallContract.sol\":804:811  address */\n          0x00\n            /* \"contracts/11_CallContract.sol\":837:841  this */\n          address\n            /* \"contracts/11_CallContract.sol\":822:842  return address(this) */\n          swap1\n          pop\n            /* \"contracts/11_CallContract.sol\":762:849  function getAddress() public view returns(address){... */\n          swap1\n          jump\t// out\n            /* \"#utility.yul\":7:419   */\n        tag_35:\n            /* \"#utility.yul\":85:90   */\n          0x00\n            /* \"#utility.yul\":110:176   */\n          tag_37\n            /* \"#utility.yul\":126:175   */\n          tag_38\n            /* \"#utility.yul\":168:174   */\n          dup5\n            /* \"#utility.yul\":126:175   */\n          tag_39\n          jump\t// in\n        tag_38:\n            /* \"#utility.yul\":110:176   */\n          tag_40\n          jump\t// in\n        tag_37:\n            /* \"#utility.yul\":101:176   */\n          swap1\n          pop\n            /* \"#utility.yul\":199:205   */\n          dup3\n            /* \"#utility.yul\":192:197   */\n          dup2\n            /* \"#utility.yul\":185:206   */\n          mstore\n            /* \"#utility.yul\":237:241   */\n          0x20\n            /* \"#utility.yul\":230:235   */\n          dup2\n            /* \"#utility.yul\":226:242   */\n          add\n            /* \"#utility.yul\":275:278   */\n          dup5\n            /* \"#utility.yul\":266:272   */\n          dup5\n            /* \"#utility.yul\":261:264   */\n          dup5\n            /* \"#utility.yul\":257:273   */\n          add\n            /* \"#utility.yul\":254:279   */\n          gt\n            /* \"#utility.yul\":251:363   */\n          iszero\n          tag_41\n          jumpi\n            /* \"#utility.yul\":282:361   */\n          tag_42\n          tag_43\n          jump\t// in\n        tag_42:\n            /* \"#utility.yul\":251:363   */\n        tag_41:\n            /* \"#utility.yul\":372:413   */\n          tag_44\n            /* \"#utility.yul\":406:412   */\n          dup5\n            /* \"#utility.yul\":401:404   */\n          dup3\n            /* \"#utility.yul\":396:399   */\n          dup6\n            /* \"#utility.yul\":372:413   */\n          tag_45\n          jump\t// in\n        tag_44:\n            /* \"#utility.yul\":91:419   */\n          pop\n            /* \"#utility.yul\":7:419   */\n          swap4\n          swap3\n          pop\n          pop\n          pop\n          jump\t// out\n            /* \"#utility.yul\":439:779   */\n        tag_46:\n            /* \"#utility.yul\":495:500   */\n          0x00\n            /* \"#utility.yul\":544:547   */\n          dup3\n            /* \"#utility.yul\":537:541   */\n          0x1f\n            /* \"#utility.yul\":529:535   */\n          dup4\n            /* \"#utility.yul\":525:542   */\n          add\n            /* \"#utility.yul\":521:548   */\n          slt\n            /* \"#utility.yul\":511:633   */\n          tag_48\n          jumpi\n            /* \"#utility.yul\":552:631   */\n          tag_49\n          tag_50\n          jump\t// in\n        tag_49:\n            /* \"#utility.yul\":511:633   */\n        tag_48:\n            /* \"#utility.yul\":669:675   */\n          dup2\n            /* \"#utility.yul\":656:676   */\n          calldataload\n            /* \"#utility.yul\":694:773   */\n          tag_51\n            /* \"#utility.yul\":769:772   */\n          dup5\n            /* \"#utility.yul\":761:767   */\n          dup3\n            /* \"#utility.yul\":754:758   */\n          0x20\n            /* \"#utility.yul\":746:752   */\n          dup7\n            /* \"#utility.yul\":742:759   */\n          add\n            /* \"#utility.yul\":694:773   */\n          tag_35\n          jump\t// in\n        tag_51:\n            /* \"#utility.yul\":685:773   */\n          swap2\n          pop\n            /* \"#utility.yul\":501:779   */\n          pop\n            /* \"#utility.yul\":439:779   */\n          swap3\n          swap2\n          pop\n          pop\n          jump\t// out\n            /* \"#utility.yul\":785:924   */\n        tag_52:\n            /* \"#utility.yul\":831:836   */\n          0x00\n            /* \"#utility.yul\":869:875   */\n          dup2\n            /* \"#utility.yul\":856:876   */\n          calldataload\n            /* \"#utility.yul\":847:876   */\n          swap1\n          pop\n            /* \"#utility.yul\":885:918   */\n          tag_54\n            /* \"#utility.yul\":912:917   */\n          dup2\n            /* \"#utility.yul\":885:918   */\n          tag_55\n          jump\t// in\n        tag_54:\n            /* \"#utility.yul\":785:924   */\n          swap3\n          swap2\n          pop\n          pop\n          jump\t// out\n            /* \"#utility.yul\":930:1584   */\n        tag_21:\n            /* \"#utility.yul\":1008:1014   */\n          0x00\n            /* \"#utility.yul\":1016:1022   */\n          dup1\n            /* \"#utility.yul\":1065:1067   */\n          0x40\n            /* \"#utility.yul\":1053:1062   */\n          dup4\n            /* \"#utility.yul\":1044:1051   */\n          dup6\n            /* \"#utility.yul\":1040:1063   */\n          sub\n            /* \"#utility.yul\":1036:1068   */\n          slt\n            /* \"#utility.yul\":1033:1152   */\n          iszero\n          tag_57\n          jumpi\n            /* \"#utility.yul\":1071:1150   */\n          tag_58\n          tag_59\n          jump\t// in\n        tag_58:\n            /* \"#utility.yul\":1033:1152   */\n        tag_57:\n            /* \"#utility.yul\":1219:1220   */\n          0x00\n            /* \"#utility.yul\":1208:1217   */\n          dup4\n            /* \"#utility.yul\":1204:1221   */\n          add\n            /* \"#utility.yul\":1191:1222   */\n          calldataload\n            /* \"#utility.yul\":1249:1267   */\n          0xffffffffffffffff\n            /* \"#utility.yul\":1241:1247   */\n          dup2\n            /* \"#utility.yul\":1238:1268   */\n          gt\n            /* \"#utility.yul\":1235:1352   */\n          iszero\n          tag_60\n          jumpi\n            /* \"#utility.yul\":1271:1350   */\n          tag_61\n          tag_62\n          jump\t// in\n        tag_61:\n            /* \"#utility.yul\":1235:1352   */\n        tag_60:\n            /* \"#utility.yul\":1376:1439   */\n          tag_63\n            /* \"#utility.yul\":1431:1438   */\n          dup6\n            /* \"#utility.yul\":1422:1428   */\n          dup3\n            /* \"#utility.yul\":1411:1420   */\n          dup7\n            /* \"#utility.yul\":1407:1429   */\n          add\n            /* \"#utility.yul\":1376:1439   */\n          tag_46\n          jump\t// in\n        tag_63:\n            /* \"#utility.yul\":1366:1439   */\n          swap3\n          pop\n            /* \"#utility.yul\":1162:1449   */\n          pop\n            /* \"#utility.yul\":1488:1490   */\n          0x20\n            /* \"#utility.yul\":1514:1567   */\n          tag_64\n            /* \"#utility.yul\":1559:1566   */\n          dup6\n            /* \"#utility.yul\":1550:1556   */\n          dup3\n            /* \"#utility.yul\":1539:1548   */\n          dup7\n            /* \"#utility.yul\":1535:1557   */\n          add\n            /* \"#utility.yul\":1514:1567   */\n          tag_52\n          jump\t// in\n        tag_64:\n            /* \"#utility.yul\":1504:1567   */\n          swap2\n          pop\n            /* \"#utility.yul\":1459:1577   */\n          pop\n            /* \"#utility.yul\":930:1584   */\n          swap3\n          pop\n          swap3\n          swap1\n          pop\n          jump\t// out\n            /* \"#utility.yul\":1590:1708   */\n        tag_65:\n            /* \"#utility.yul\":1677:1701   */\n          tag_67\n            /* \"#utility.yul\":1695:1700   */\n          dup2\n            /* \"#utility.yul\":1677:1701   */\n          tag_68\n          jump\t// in\n        tag_67:\n            /* \"#utility.yul\":1672:1675   */\n          dup3\n            /* \"#utility.yul\":1665:1702   */\n          mstore\n            /* \"#utility.yul\":1590:1708   */\n          pop\n          pop\n          jump\t// out\n            /* \"#utility.yul\":1714:2078   */\n        tag_69:\n            /* \"#utility.yul\":1802:1805   */\n          0x00\n            /* \"#utility.yul\":1830:1869   */\n          tag_71\n            /* \"#utility.yul\":1863:1868   */\n          dup3\n            /* \"#utility.yul\":1830:1869   */\n          tag_72\n          jump\t// in\n        tag_71:\n            /* \"#utility.yul\":1885:1956   */\n          tag_73\n            /* \"#utility.yul\":1949:1955   */\n          dup2\n            /* \"#utility.yul\":1944:1947   */\n          dup6\n            /* \"#utility.yul\":1885:1956   */\n          tag_74\n          jump\t// in\n        tag_73:\n            /* \"#utility.yul\":1878:1956   */\n          swap4\n          pop\n            /* \"#utility.yul\":1965:2017   */\n          tag_75\n            /* \"#utility.yul\":2010:2016   */\n          dup2\n            /* \"#utility.yul\":2005:2008   */\n          dup6\n            /* \"#utility.yul\":1998:2002   */\n          0x20\n            /* \"#utility.yul\":1991:1996   */\n          dup7\n            /* \"#utility.yul\":1987:2003   */\n          add\n            /* \"#utility.yul\":1965:2017   */\n          tag_76\n          jump\t// in\n        tag_75:\n            /* \"#utility.yul\":2042:2071   */\n          tag_77\n            /* \"#utility.yul\":2064:2070   */\n          dup2\n            /* \"#utility.yul\":2042:2071   */\n          tag_78\n          jump\t// in\n        tag_77:\n            /* \"#utility.yul\":2037:2040   */\n          dup5\n            /* \"#utility.yul\":2033:2072   */\n          add\n            /* \"#utility.yul\":2026:2072   */\n          swap2\n          pop\n            /* \"#utility.yul\":1806:2078   */\n          pop\n            /* \"#utility.yul\":1714:2078   */\n          swap3\n          swap2\n          pop\n          pop\n          jump\t// out\n            /* \"#utility.yul\":2084:2450   */\n        tag_79:\n            /* \"#utility.yul\":2226:2229   */\n          0x00\n            /* \"#utility.yul\":2247:2314   */\n          tag_81\n            /* \"#utility.yul\":2311:2313   */\n          0x13\n            /* \"#utility.yul\":2306:2309   */\n          dup4\n            /* \"#utility.yul\":2247:2314   */\n          tag_74\n          jump\t// in\n        tag_81:\n            /* \"#utility.yul\":2240:2314   */\n          swap2\n          pop\n            /* \"#utility.yul\":2323:2416   */\n          tag_82\n            /* \"#utility.yul\":2412:2415   */\n          dup3\n            /* \"#utility.yul\":2323:2416   */\n          tag_83\n          jump\t// in\n        tag_82:\n            /* \"#utility.yul\":2441:2443   */\n          0x20\n            /* \"#utility.yul\":2436:2439   */\n          dup3\n            /* \"#utility.yul\":2432:2444   */\n          add\n            /* \"#utility.yul\":2425:2444   */\n          swap1\n          pop\n            /* \"#utility.yul\":2084:2450   */\n          swap2\n          swap1\n          pop\n          jump\t// out\n            /* \"#utility.yul\":2456:2822   */\n        tag_84:\n            /* \"#utility.yul\":2598:2601   */\n          0x00\n            /* \"#utility.yul\":2619:2686   */\n          tag_86\n            /* \"#utility.yul\":2683:2685   */\n          0x13\n            /* \"#utility.yul\":2678:2681   */\n          dup4\n            /* \"#utility.yul\":2619:2686   */\n          tag_74\n          jump\t// in\n        tag_86:\n            /* \"#utility.yul\":2612:2686   */\n          swap2\n          pop\n            /* \"#utility.yul\":2695:2788   */\n          tag_87\n            /* \"#utility.yul\":2784:2787   */\n          dup3\n            /* \"#utility.yul\":2695:2788   */\n          tag_88\n          jump\t// in\n        tag_87:\n            /* \"#utility.yul\":2813:2815   */\n          0x20\n            /* \"#utility.yul\":2808:2811   */\n          dup3\n            /* \"#utility.yul\":2804:2816   */\n          add\n            /* \"#utility.yul\":2797:2816   */\n          swap1\n          pop\n            /* \"#utility.yul\":2456:2822   */\n          swap2\n          swap1\n          pop\n          jump\t// out\n            /* \"#utility.yul\":2828:2946   */\n        tag_89:\n            /* \"#utility.yul\":2915:2939   */\n          tag_91\n            /* \"#utility.yul\":2933:2938   */\n          dup2\n            /* \"#utility.yul\":2915:2939   */\n          tag_92\n          jump\t// in\n        tag_91:\n            /* \"#utility.yul\":2910:2913   */\n          dup3\n            /* \"#utility.yul\":2903:2940   */\n          mstore\n            /* \"#utility.yul\":2828:2946   */\n          pop\n          pop\n          jump\t// out\n            /* \"#utility.yul\":2952:3174   */\n        tag_28:\n            /* \"#utility.yul\":3045:3049   */\n          0x00\n            /* \"#utility.yul\":3083:3085   */\n          0x20\n            /* \"#utility.yul\":3072:3081   */\n          dup3\n            /* \"#utility.yul\":3068:3086   */\n          add\n            /* \"#utility.yul\":3060:3086   */\n          swap1\n          pop\n            /* \"#utility.yul\":3096:3167   */\n          tag_94\n            /* \"#utility.yul\":3164:3165   */\n          0x00\n            /* \"#utility.yul\":3153:3162   */\n          dup4\n            /* \"#utility.yul\":3149:3166   */\n          add\n            /* \"#utility.yul\":3140:3146   */\n          dup5\n            /* \"#utility.yul\":3096:3167   */\n          tag_65\n          jump\t// in\n        tag_94:\n            /* \"#utility.yul\":2952:3174   */\n          swap3\n          swap2\n          pop\n          pop\n          jump\t// out\n            /* \"#utility.yul\":3180:3713   */\n        tag_32:\n            /* \"#utility.yul\":3349:3353   */\n          0x00\n            /* \"#utility.yul\":3387:3389   */\n          0x60\n            /* \"#utility.yul\":3376:3385   */\n          dup3\n            /* \"#utility.yul\":3372:3390   */\n          add\n            /* \"#utility.yul\":3364:3390   */\n          swap1\n          pop\n            /* \"#utility.yul\":3400:3471   */\n          tag_96\n            /* \"#utility.yul\":3468:3469   */\n          0x00\n            /* \"#utility.yul\":3457:3466   */\n          dup4\n            /* \"#utility.yul\":3453:3470   */\n          add\n            /* \"#utility.yul\":3444:3450   */\n          dup7\n            /* \"#utility.yul\":3400:3471   */\n          tag_65\n          jump\t// in\n        tag_96:\n            /* \"#utility.yul\":3481:3553   */\n          tag_97\n            /* \"#utility.yul\":3549:3551   */\n          0x20\n            /* \"#utility.yul\":3538:3547   */\n          dup4\n            /* \"#utility.yul\":3534:3552   */\n          add\n            /* \"#utility.yul\":3525:3531   */\n          dup6\n            /* \"#utility.yul\":3481:3553   */\n          tag_89\n          jump\t// in\n        tag_97:\n            /* \"#utility.yul\":3600:3609   */\n          dup2\n            /* \"#utility.yul\":3594:3598   */\n          dup2\n            /* \"#utility.yul\":3590:3610   */\n          sub\n            /* \"#utility.yul\":3585:3587   */\n          0x40\n            /* \"#utility.yul\":3574:3583   */\n          dup4\n            /* \"#utility.yul\":3570:3588   */\n          add\n            /* \"#utility.yul\":3563:3611   */\n          mstore\n            /* \"#utility.yul\":3628:3706   */\n          tag_98\n            /* \"#utility.yul\":3701:3705   */\n          dup2\n            /* \"#utility.yul\":3692:3698   */\n          dup5\n            /* \"#utility.yul\":3628:3706   */\n          tag_69\n          jump\t// in\n        tag_98:\n            /* \"#utility.yul\":3620:3706   */\n          swap1\n          pop\n            /* \"#utility.yul\":3180:3713   */\n          swap5\n          swap4\n          pop\n          pop\n          pop\n          pop\n          jump\t// out\n            /* \"#utility.yul\":3719:4358   */\n        tag_13:\n            /* \"#utility.yul\":3941:3945   */\n          0x00\n            /* \"#utility.yul\":3979:3981   */\n          0x60\n            /* \"#utility.yul\":3968:3977   */\n          dup3\n            /* \"#utility.yul\":3964:3982   */\n          add\n            /* \"#utility.yul\":3956:3982   */\n          swap1\n          pop\n            /* \"#utility.yul\":3992:4063   */\n          tag_100\n            /* \"#utility.yul\":4060:4061   */\n          0x00\n            /* \"#utility.yul\":4049:4058   */\n          dup4\n            /* \"#utility.yul\":4045:4062   */\n          add\n            /* \"#utility.yul\":4036:4042   */\n          dup6\n            /* \"#utility.yul\":3992:4063   */\n          tag_65\n          jump\t// in\n        tag_100:\n            /* \"#utility.yul\":4073:4145   */\n          tag_101\n            /* \"#utility.yul\":4141:4143   */\n          0x20\n            /* \"#utility.yul\":4130:4139   */\n          dup4\n            /* \"#utility.yul\":4126:4144   */\n          add\n            /* \"#utility.yul\":4117:4123   */\n          dup5\n            /* \"#utility.yul\":4073:4145   */\n          tag_89\n          jump\t// in\n        tag_101:\n            /* \"#utility.yul\":4192:4201   */\n          dup2\n            /* \"#utility.yul\":4186:4190   */\n          dup2\n            /* \"#utility.yul\":4182:4202   */\n          sub\n            /* \"#utility.yul\":4177:4179   */\n          0x40\n            /* \"#utility.yul\":4166:4175   */\n          dup4\n            /* \"#utility.yul\":4162:4180   */\n          add\n            /* \"#utility.yul\":4155:4203   */\n          mstore\n            /* \"#utility.yul\":4220:4351   */\n          tag_102\n            /* \"#utility.yul\":4346:4350   */\n          dup2\n            /* \"#utility.yul\":4220:4351   */\n          tag_79\n          jump\t// in\n        tag_102:\n            /* \"#utility.yul\":4212:4351   */\n          swap1\n          pop\n            /* \"#utility.yul\":3719:4358   */\n          swap4\n          swap3\n          pop\n          pop\n          pop\n          jump\t// out\n            /* \"#utility.yul\":4364:5003   */\n        tag_9:\n            /* \"#utility.yul\":4586:4590   */\n          0x00\n            /* \"#utility.yul\":4624:4626   */\n          0x60\n            /* \"#utility.yul\":4613:4622   */\n          dup3\n            /* \"#utility.yul\":4609:4627   */\n          add\n            /* \"#utility.yul\":4601:4627   */\n          swap1\n          pop\n            /* \"#utility.yul\":4637:4708   */\n          tag_104\n            /* \"#utility.yul\":4705:4706   */\n          0x00\n            /* \"#utility.yul\":4694:4703   */\n          dup4\n            /* \"#utility.yul\":4690:4707   */\n          add\n            /* \"#utility.yul\":4681:4687   */\n          dup6\n            /* \"#utility.yul\":4637:4708   */\n          tag_65\n          jump\t// in\n        tag_104:\n            /* \"#utility.yul\":4718:4790   */\n          tag_105\n            /* \"#utility.yul\":4786:4788   */\n          0x20\n            /* \"#utility.yul\":4775:4784   */\n          dup4\n            /* \"#utility.yul\":4771:4789   */\n          add\n            /* \"#utility.yul\":4762:4768   */\n          dup5\n            /* \"#utility.yul\":4718:4790   */\n          tag_89\n          jump\t// in\n        tag_105:\n            /* \"#utility.yul\":4837:4846   */\n          dup2\n            /* \"#utility.yul\":4831:4835   */\n          dup2\n            /* \"#utility.yul\":4827:4847   */\n          sub\n            /* \"#utility.yul\":4822:4824   */\n          0x40\n            /* \"#utility.yul\":4811:4820   */\n          dup4\n            /* \"#utility.yul\":4807:4825   */\n          add\n            /* \"#utility.yul\":4800:4848   */\n          mstore\n            /* \"#utility.yul\":4865:4996   */\n          tag_106\n            /* \"#utility.yul\":4991:4995   */\n          dup2\n            /* \"#utility.yul\":4865:4996   */\n          tag_84\n          jump\t// in\n        tag_106:\n            /* \"#utility.yul\":4857:4996   */\n          swap1\n          pop\n            /* \"#utility.yul\":4364:5003   */\n          swap4\n          swap3\n          pop\n          pop\n          pop\n          jump\t// out\n            /* \"#utility.yul\":5009:5231   */\n        tag_18:\n            /* \"#utility.yul\":5102:5106   */\n          0x00\n            /* \"#utility.yul\":5140:5142   */\n          0x20\n            /* \"#utility.yul\":5129:5138   */\n          dup3\n            /* \"#utility.yul\":5125:5143   */\n          add\n            /* \"#utility.yul\":5117:5143   */\n          swap1\n          pop\n            /* \"#utility.yul\":5153:5224   */\n          tag_108\n            /* \"#utility.yul\":5221:5222   */\n          0x00\n            /* \"#utility.yul\":5210:5219   */\n          dup4\n            /* \"#utility.yul\":5206:5223   */\n          add\n            /* \"#utility.yul\":5197:5203   */\n          dup5\n            /* \"#utility.yul\":5153:5224   */\n          tag_89\n          jump\t// in\n        tag_108:\n            /* \"#utility.yul\":5009:5231   */\n          swap3\n          swap2\n          pop\n          pop\n          jump\t// out\n            /* \"#utility.yul\":5237:5366   */\n        tag_40:\n            /* \"#utility.yul\":5271:5277   */\n          0x00\n            /* \"#utility.yul\":5298:5318   */\n          tag_110\n          tag_111\n          jump\t// in\n        tag_110:\n            /* \"#utility.yul\":5288:5318   */\n          swap1\n          pop\n            /* \"#utility.yul\":5327:5360   */\n          tag_112\n            /* \"#utility.yul\":5355:5359   */\n          dup3\n            /* \"#utility.yul\":5347:5353   */\n          dup3\n            /* \"#utility.yul\":5327:5360   */\n          tag_113\n          jump\t// in\n        tag_112:\n            /* \"#utility.yul\":5237:5366   */\n          swap2\n          swap1\n          pop\n          jump\t// out\n            /* \"#utility.yul\":5372:5447   */\n        tag_111:\n            /* \"#utility.yul\":5405:5411   */\n          0x00\n            /* \"#utility.yul\":5438:5440   */\n          0x40\n            /* \"#utility.yul\":5432:5441   */\n          mload\n            /* \"#utility.yul\":5422:5441   */\n          swap1\n          pop\n            /* \"#utility.yul\":5372:5447   */\n          swap1\n          jump\t// out\n            /* \"#utility.yul\":5453:5761   */\n        tag_39:\n            /* \"#utility.yul\":5515:5519   */\n          0x00\n            /* \"#utility.yul\":5605:5623   */\n          0xffffffffffffffff\n            /* \"#utility.yul\":5597:5603   */\n          dup3\n            /* \"#utility.yul\":5594:5624   */\n          gt\n            /* \"#utility.yul\":5591:5647   */\n          iszero\n          tag_116\n          jumpi\n            /* \"#utility.yul\":5627:5645   */\n          tag_117\n          tag_118\n          jump\t// in\n        tag_117:\n            /* \"#utility.yul\":5591:5647   */\n        tag_116:\n            /* \"#utility.yul\":5665:5694   */\n          tag_119\n            /* \"#utility.yul\":5687:5693   */\n          dup3\n            /* \"#utility.yul\":5665:5694   */\n          tag_78\n          jump\t// in\n        tag_119:\n            /* \"#utility.yul\":5657:5694   */\n          swap1\n          pop\n            /* \"#utility.yul\":5749:5753   */\n          0x20\n            /* \"#utility.yul\":5743:5747   */\n          dup2\n            /* \"#utility.yul\":5739:5754   */\n          add\n            /* \"#utility.yul\":5731:5754   */\n          swap1\n          pop\n            /* \"#utility.yul\":5453:5761   */\n          swap2\n          swap1\n          pop\n          jump\t// out\n            /* \"#utility.yul\":5767:5866   */\n        tag_72:\n            /* \"#utility.yul\":5819:5825   */\n          0x00\n            /* \"#utility.yul\":5853:5858   */\n          dup2\n            /* \"#utility.yul\":5847:5859   */\n          mload\n            /* \"#utility.yul\":5837:5859   */\n          swap1\n          pop\n            /* \"#utility.yul\":5767:5866   */\n          swap2\n          swap1\n          pop\n          jump\t// out\n            /* \"#utility.yul\":5872:6041   */\n        tag_74:\n            /* \"#utility.yul\":5956:5967   */\n          0x00\n            /* \"#utility.yul\":5990:5996   */\n          dup3\n            /* \"#utility.yul\":5985:5988   */\n          dup3\n            /* \"#utility.yul\":5978:5997   */\n          mstore\n            /* \"#utility.yul\":6030:6034   */\n          0x20\n            /* \"#utility.yul\":6025:6028   */\n          dup3\n            /* \"#utility.yul\":6021:6035   */\n          add\n            /* \"#utility.yul\":6006:6035   */\n          swap1\n          pop\n            /* \"#utility.yul\":5872:6041   */\n          swap3\n          swap2\n          pop\n          pop\n          jump\t// out\n            /* \"#utility.yul\":6047:6143   */\n        tag_68:\n            /* \"#utility.yul\":6084:6091   */\n          0x00\n            /* \"#utility.yul\":6113:6137   */\n          tag_123\n            /* \"#utility.yul\":6131:6136   */\n          dup3\n            /* \"#utility.yul\":6113:6137   */\n          tag_124\n          jump\t// in\n        tag_123:\n            /* \"#utility.yul\":6102:6137   */\n          swap1\n          pop\n            /* \"#utility.yul\":6047:6143   */\n          swap2\n          swap1\n          pop\n          jump\t// out\n            /* \"#utility.yul\":6149:6275   */\n        tag_124:\n            /* \"#utility.yul\":6186:6193   */\n          0x00\n            /* \"#utility.yul\":6226:6268   */\n          0xffffffffffffffffffffffffffffffffffffffff\n            /* \"#utility.yul\":6219:6224   */\n          dup3\n            /* \"#utility.yul\":6215:6269   */\n          and\n            /* \"#utility.yul\":6204:6269   */\n          swap1\n          pop\n            /* \"#utility.yul\":6149:6275   */\n          swap2\n          swap1\n          pop\n          jump\t// out\n            /* \"#utility.yul\":6281:6358   */\n        tag_92:\n            /* \"#utility.yul\":6318:6325   */\n          0x00\n            /* \"#utility.yul\":6347:6352   */\n          dup2\n            /* \"#utility.yul\":6336:6352   */\n          swap1\n          pop\n            /* \"#utility.yul\":6281:6358   */\n          swap2\n          swap1\n          pop\n          jump\t// out\n            /* \"#utility.yul\":6364:6518   */\n        tag_45:\n            /* \"#utility.yul\":6448:6454   */\n          dup3\n            /* \"#utility.yul\":6443:6446   */\n          dup2\n            /* \"#utility.yul\":6438:6441   */\n          dup4\n            /* \"#utility.yul\":6425:6455   */\n          calldatacopy\n            /* \"#utility.yul\":6510:6511   */\n          0x00\n            /* \"#utility.yul\":6501:6507   */\n          dup4\n            /* \"#utility.yul\":6496:6499   */\n          dup4\n            /* \"#utility.yul\":6492:6508   */\n          add\n            /* \"#utility.yul\":6485:6512   */\n          mstore\n            /* \"#utility.yul\":6364:6518   */\n          pop\n          pop\n          pop\n          jump\t// out\n            /* \"#utility.yul\":6524:6831   */\n        tag_76:\n            /* \"#utility.yul\":6592:6593   */\n          0x00\n            /* \"#utility.yul\":6602:6715   */\n        tag_129:\n            /* \"#utility.yul\":6616:6622   */\n          dup4\n            /* \"#utility.yul\":6613:6614   */\n          dup2\n            /* \"#utility.yul\":6610:6623   */\n          lt\n            /* \"#utility.yul\":6602:6715   */\n          iszero\n          tag_131\n          jumpi\n            /* \"#utility.yul\":6701:6702   */\n          dup1\n            /* \"#utility.yul\":6696:6699   */\n          dup3\n            /* \"#utility.yul\":6692:6703   */\n          add\n            /* \"#utility.yul\":6686:6704   */\n          mload\n            /* \"#utility.yul\":6682:6683   */\n          dup2\n            /* \"#utility.yul\":6677:6680   */\n          dup5\n            /* \"#utility.yul\":6673:6684   */\n          add\n            /* \"#utility.yul\":6666:6705   */\n          mstore\n            /* \"#utility.yul\":6638:6640   */\n          0x20\n            /* \"#utility.yul\":6635:6636   */\n          dup2\n            /* \"#utility.yul\":6631:6641   */\n          add\n            /* \"#utility.yul\":6626:6641   */\n          swap1\n          pop\n            /* \"#utility.yul\":6602:6715   */\n          jump(tag_129)\n        tag_131:\n            /* \"#utility.yul\":6733:6739   */\n          dup4\n            /* \"#utility.yul\":6730:6731   */\n          dup2\n            /* \"#utility.yul\":6727:6740   */\n          gt\n            /* \"#utility.yul\":6724:6825   */\n          iszero\n          tag_132\n          jumpi\n            /* \"#utility.yul\":6813:6814   */\n          0x00\n            /* \"#utility.yul\":6804:6810   */\n          dup5\n            /* \"#utility.yul\":6799:6802   */\n          dup5\n            /* \"#utility.yul\":6795:6811   */\n          add\n            /* \"#utility.yul\":6788:6815   */\n          mstore\n            /* \"#utility.yul\":6724:6825   */\n        tag_132:\n            /* \"#utility.yul\":6573:6831   */\n          pop\n            /* \"#utility.yul\":6524:6831   */\n          pop\n          pop\n          pop\n          jump\t// out\n            /* \"#utility.yul\":6837:7118   */\n        tag_113:\n            /* \"#utility.yul\":6920:6947   */\n          tag_134\n            /* \"#utility.yul\":6942:6946   */\n          dup3\n            /* \"#utility.yul\":6920:6947   */\n          tag_78\n          jump\t// in\n        tag_134:\n            /* \"#utility.yul\":6912:6918   */\n          dup2\n            /* \"#utility.yul\":6908:6948   */\n          add\n            /* \"#utility.yul\":7050:7056   */\n          dup2\n            /* \"#utility.yul\":7038:7048   */\n          dup2\n            /* \"#utility.yul\":7035:7057   */\n          lt\n            /* \"#utility.yul\":7014:7032   */\n          0xffffffffffffffff\n            /* \"#utility.yul\":7002:7012   */\n          dup3\n            /* \"#utility.yul\":6999:7033   */\n          gt\n            /* \"#utility.yul\":6996:7058   */\n          or\n            /* \"#utility.yul\":6993:7081   */\n          iszero\n          tag_135\n          jumpi\n            /* \"#utility.yul\":7061:7079   */\n          tag_136\n          tag_118\n          jump\t// in\n        tag_136:\n            /* \"#utility.yul\":6993:7081   */\n        tag_135:\n            /* \"#utility.yul\":7101:7111   */\n          dup1\n            /* \"#utility.yul\":7097:7099   */\n          0x40\n            /* \"#utility.yul\":7090:7112   */\n          mstore\n            /* \"#utility.yul\":6880:7118   */\n          pop\n            /* \"#utility.yul\":6837:7118   */\n          pop\n          pop\n          jump\t// out\n            /* \"#utility.yul\":7124:7304   */\n        tag_118:\n            /* \"#utility.yul\":7172:7249   */\n          0x4e487b7100000000000000000000000000000000000000000000000000000000\n            /* \"#utility.yul\":7169:7170   */\n          0x00\n            /* \"#utility.yul\":7162:7250   */\n          mstore\n            /* \"#utility.yul\":7269:7273   */\n          0x41\n            /* \"#utility.yul\":7266:7267   */\n          0x04\n            /* \"#utility.yul\":7259:7274   */\n          mstore\n            /* \"#utility.yul\":7293:7297   */\n          0x24\n            /* \"#utility.yul\":7290:7291   */\n          0x00\n            /* \"#utility.yul\":7283:7298   */\n          revert\n            /* \"#utility.yul\":7310:7427   */\n        tag_50:\n            /* \"#utility.yul\":7419:7420   */\n          0x00\n            /* \"#utility.yul\":7416:7417   */\n          dup1\n            /* \"#utility.yul\":7409:7421   */\n          revert\n            /* \"#utility.yul\":7433:7550   */\n        tag_43:\n            /* \"#utility.yul\":7542:7543   */\n          0x00\n            /* \"#utility.yul\":7539:7540   */\n          dup1\n            /* \"#utility.yul\":7532:7544   */\n          revert\n            /* \"#utility.yul\":7556:7673   */\n        tag_62:\n            /* \"#utility.yul\":7665:7666   */\n          0x00\n            /* \"#utility.yul\":7662:7663   */\n          dup1\n            /* \"#utility.yul\":7655:7667   */\n          revert\n            /* \"#utility.yul\":7679:7796   */\n        tag_59:\n            /* \"#utility.yul\":7788:7789   */\n          0x00\n            /* \"#utility.yul\":7785:7786   */\n          dup1\n            /* \"#utility.yul\":7778:7790   */\n          revert\n            /* \"#utility.yul\":7802:7904   */\n        tag_78:\n            /* \"#utility.yul\":7843:7849   */\n          0x00\n            /* \"#utility.yul\":7894:7896   */\n          0x1f\n            /* \"#utility.yul\":7890:7897   */\n          not\n            /* \"#utility.yul\":7885:7887   */\n          0x1f\n            /* \"#utility.yul\":7878:7883   */\n          dup4\n            /* \"#utility.yul\":7874:7888   */\n          add\n            /* \"#utility.yul\":7870:7898   */\n          and\n            /* \"#utility.yul\":7860:7898   */\n          swap1\n          pop\n            /* \"#utility.yul\":7802:7904   */\n          swap2\n          swap1\n          pop\n          jump\t// out\n            /* \"#utility.yul\":7910:8079   */\n        tag_83:\n            /* \"#utility.yul\":8050:8071   */\n          0x46616c6c6261636b207761732063616c6c656400000000000000000000000000\n            /* \"#utility.yul\":8046:8047   */\n          0x00\n            /* \"#utility.yul\":8038:8044   */\n          dup3\n            /* \"#utility.yul\":8034:8048   */\n          add\n            /* \"#utility.yul\":8027:8072   */\n          mstore\n            /* \"#utility.yul\":7910:8079   */\n          pop\n          jump\t// out\n            /* \"#utility.yul\":8085:8254   */\n        tag_88:\n            /* \"#utility.yul\":8225:8246   */\n          0x5265636569766564207761732063616c6c656400000000000000000000000000\n            /* \"#utility.yul\":8221:8222   */\n          0x00\n            /* \"#utility.yul\":8213:8219   */\n          dup3\n            /* \"#utility.yul\":8209:8223   */\n          add\n            /* \"#utility.yul\":8202:8247   */\n          mstore\n            /* \"#utility.yul\":8085:8254   */\n          pop\n          jump\t// out\n            /* \"#utility.yul\":8260:8382   */\n        tag_55:\n            /* \"#utility.yul\":8333:8357   */\n          tag_146\n            /* \"#utility.yul\":8351:8356   */\n          dup2\n            /* \"#utility.yul\":8333:8357   */\n          tag_92\n          jump\t// in\n        tag_146:\n            /* \"#utility.yul\":8326:8331   */\n          dup2\n            /* \"#utility.yul\":8323:8358   */\n          eq\n            /* \"#utility.yul\":8313:8376   */\n          tag_147\n          jumpi\n            /* \"#utility.yul\":8372:8373   */\n          0x00\n            /* \"#utility.yul\":8369:8370   */\n          dup1\n            /* \"#utility.yul\":8362:8374   */\n          revert\n            /* \"#utility.yul\":8313:8376   */\n        tag_147:\n            /* \"#utility.yul\":8260:8382   */\n          pop\n          jump\t// out\n\n        auxdata: 0xa26469706673582212202f4ff8d05a0ed0343ea8886366b24b9a8184c42c2c371bb7778a682f511f41d464736f6c63430008070033\n    }\n}\n",
				"bytecode": {
					"linkReferences": {},
					"object": "608060405234801561001057600080fd5b5060405161001d9061007e565b604051809103906000f080158015610039573d6000803e3d6000fd5b506000806101000a81548173ffffffffffffffffffffffffffffffffffffffff021916908373ffffffffffffffffffffffffffffffffffffffff16021790555061008b565b61062d8061077883390190565b6106de8061009a6000396000f3fe60806040526004361061003f5760003560e01c806312065fe01461004457806338cc48311461006f57806359c75ada1461009a5780639a7557db146100b6575b600080fd5b34801561005057600080fd5b506100596100d2565b604051610066919061057b565b60405180910390f35b34801561007b57600080fd5b50610084610178565b6040516100919190610530565b60405180910390f35b6100b460048036038101906100af9190610425565b61021e565b005b6100d060048036038101906100cb91906103f8565b6102cb565b005b60008060009054906101000a900473ffffffffffffffffffffffffffffffffffffffff1673ffffffffffffffffffffffffffffffffffffffff166312065fe06040518163ffffffff1660e01b815260040160206040518083038186803b15801561013b57600080fd5b505afa15801561014f573d6000803e3d6000fd5b505050506040513d601f19601f820116820180604052508101906101739190610465565b905090565b60008060009054906101000a900473ffffffffffffffffffffffffffffffffffffffff1673ffffffffffffffffffffffffffffffffffffffff166338cc48316040518163ffffffff1660e01b815260040160206040518083038186803b1580156101e157600080fd5b505afa1580156101f5573d6000803e3d6000fd5b505050506040513d601f19601f8201168201806040525081019061021991906103cb565b905090565b6000808373ffffffffffffffffffffffffffffffffffffffff16346040516102459061051b565b60006040518083038185875af1925050503d8060008114610282576040519150601f19603f3d011682016040523d82523d6000602084013e610287565b606091505b50915091507f13848c3e38f8886f3f5d2ad9dff80d8092c2bbb8efd5b887a99c2c6cfc09ac2a82826040516102bd92919061054b565b60405180910390a150505050565b6000808273ffffffffffffffffffffffffffffffffffffffff16346040516102f29061051b565b60006040518083038185875af1925050503d806000811461032f576040519150601f19603f3d011682016040523d82523d6000602084013e610334565b606091505b50915091507f13848c3e38f8886f3f5d2ad9dff80d8092c2bbb8efd5b887a99c2c6cfc09ac2a828260405161036a92919061054b565b60405180910390a1505050565b60008151905061038681610663565b92915050565b60008135905061039b8161067a565b92915050565b6000813590506103b081610691565b92915050565b6000815190506103c581610691565b92915050565b6000602082840312156103e1576103e061064a565b5b60006103ef84828501610377565b91505092915050565b60006020828403121561040e5761040d61064a565b5b600061041c8482850161038c565b91505092915050565b6000806040838503121561043c5761043b61064a565b5b600061044a8582860161038c565b925050602061045b858286016103a1565b9150509250929050565b60006020828403121561047b5761047a61064a565b5b6000610489848285016103b6565b91505092915050565b61049b816105bd565b82525050565b6104aa816105e1565b82525050565b60006104bb82610596565b6104c581856105a1565b93506104d5818560208601610617565b6104de8161064f565b840191505092915050565b60006104f66000836105b2565b915061050182610660565b600082019050919050565b6105158161060d565b82525050565b6000610526826104e9565b9150819050919050565b60006020820190506105456000830184610492565b92915050565b600060408201905061056060008301856104a1565b818103602083015261057281846104b0565b90509392505050565b6000602082019050610590600083018461050c565b92915050565b600081519050919050565b600082825260208201905092915050565b600081905092915050565b60006105c8826105ed565b9050919050565b60006105da826105ed565b9050919050565b60008115159050919050565b600073ffffffffffffffffffffffffffffffffffffffff82169050919050565b6000819050919050565b60005b8381101561063557808201518184015260208101905061061a565b83811115610644576000848401525b50505050565b600080fd5b6000601f19601f8301169050919050565b50565b61066c816105bd565b811461067757600080fd5b50565b610683816105cf565b811461068e57600080fd5b50565b61069a8161060d565b81146106a557600080fd5b5056fea2646970667358221220a9065bb81c68aa673bd2893b97edf721d9d1ac4145e96c269d80cd56304a538064736f6c63430008070033608060405234801561001057600080fd5b5061060d806100206000396000f3fe6080604052600436106100385760003560e01c806312065fe0146100b357806324ccab8f146100de57806338cc48311461010e57610078565b36610078577f59e04c3f0d44b7caf6e8ef854b61d9a51cf1960d7a88ff6356cc5e946b4b5832333460405161006e9291906103a2565b60405180910390a1005b7f59e04c3f0d44b7caf6e8ef854b61d9a51cf1960d7a88ff6356cc5e946b4b583233346040516100a9929190610366565b60405180910390a1005b3480156100bf57600080fd5b506100c8610139565b6040516100d591906103de565b60405180910390f35b6100f860048036038101906100f39190610214565b610141565b60405161010591906103de565b60405180910390f35b34801561011a57600080fd5b50610123610187565b604051610130919061030d565b60405180910390f35b600047905090565b60007f59e04c3f0d44b7caf6e8ef854b61d9a51cf1960d7a88ff6356cc5e946b4b583233348560405161017693929190610328565b60405180910390a181905092915050565b600030905090565b60006101a261019d8461041e565b6103f9565b9050828152602081018484840111156101be576101bd61054e565b5b6101c98482856104a7565b509392505050565b600082601f8301126101e6576101e5610549565b5b81356101f684826020860161018f565b91505092915050565b60008135905061020e816105c0565b92915050565b6000806040838503121561022b5761022a610558565b5b600083013567ffffffffffffffff81111561024957610248610553565b5b610255858286016101d1565b9250506020610266858286016101ff565b9150509250929050565b6102798161046b565b82525050565b600061028a8261044f565b610294818561045a565b93506102a48185602086016104b6565b6102ad8161055d565b840191505092915050565b60006102c560138361045a565b91506102d08261056e565b602082019050919050565b60006102e860138361045a565b91506102f382610597565b602082019050919050565b6103078161049d565b82525050565b60006020820190506103226000830184610270565b92915050565b600060608201905061033d6000830186610270565b61034a60208301856102fe565b818103604083015261035c818461027f565b9050949350505050565b600060608201905061037b6000830185610270565b61038860208301846102fe565b8181036040830152610399816102b8565b90509392505050565b60006060820190506103b76000830185610270565b6103c460208301846102fe565b81810360408301526103d5816102db565b90509392505050565b60006020820190506103f360008301846102fe565b92915050565b6000610403610414565b905061040f82826104e9565b919050565b6000604051905090565b600067ffffffffffffffff8211156104395761043861051a565b5b6104428261055d565b9050602081019050919050565b600081519050919050565b600082825260208201905092915050565b60006104768261047d565b9050919050565b600073ffffffffffffffffffffffffffffffffffffffff82169050919050565b6000819050919050565b82818337600083830152505050565b60005b838110156104d45780820151818401526020810190506104b9565b838111156104e3576000848401525b50505050565b6104f28261055d565b810181811067ffffffffffffffff821117156105115761051061051a565b5b80604052505050565b7f4e487b7100000000000000000000000000000000000000000000000000000000600052604160045260246000fd5b600080fd5b600080fd5b600080fd5b600080fd5b6000601f19601f8301169050919050565b7f46616c6c6261636b207761732063616c6c656400000000000000000000000000600082015250565b7f5265636569766564207761732063616c6c656400000000000000000000000000600082015250565b6105c98161049d565b81146105d457600080fd5b5056fea26469706673582212202f4ff8d05a0ed0343ea8886366b24b9a8184c42c2c371bb7778a682f511f41d464736f6c63430008070033",
					"opcodes": "PUSH1 0x80 PUSH1 0x40 MSTORE CALLVALUE DUP1 ISZERO PUSH2 0x10 JUMPI PUSH1 0x0 DUP1 REVERT JUMPDEST POP PUSH1 0x40 MLOAD PUSH2 0x1D SWAP1 PUSH2 0x7E JUMP JUMPDEST PUSH1 0x40 MLOAD DUP1 SWAP2 SUB SWAP1 PUSH1 0x0 CREATE DUP1 ISZERO DUP1 ISZERO PUSH2 0x39 JUMPI RETURNDATASIZE PUSH1 0x0 DUP1 RETURNDATACOPY RETURNDATASIZE PUSH1 0x0 REVERT JUMPDEST POP PUSH1 0x0 DUP1 PUSH2 0x100 EXP DUP2 SLOAD DUP2 PUSH20 0xFFFFFFFFFFFFFFFFFFFFFFFFFFFFFFFFFFFFFFFF MUL NOT AND SWAP1 DUP4 PUSH20 0xFFFFFFFFFFFFFFFFFFFFFFFFFFFFFFFFFFFFFFFF AND MUL OR SWAP1 SSTORE POP PUSH2 0x8B JUMP JUMPDEST PUSH2 0x62D DUP1 PUSH2 0x778 DUP4 CODECOPY ADD SWAP1 JUMP JUMPDEST PUSH2 0x6DE DUP1 PUSH2 0x9A PUSH1 0x0 CODECOPY PUSH1 0x0 RETURN INVALID PUSH1 0x80 PUSH1 0x40 MSTORE PUSH1 0x4 CALLDATASIZE LT PUSH2 0x3F JUMPI PUSH1 0x0 CALLDATALOAD PUSH1 0xE0 SHR DUP1 PUSH4 0x12065FE0 EQ PUSH2 0x44 JUMPI DUP1 PUSH4 0x38CC4831 EQ PUSH2 0x6F JUMPI DUP1 PUSH4 0x59C75ADA EQ PUSH2 0x9A JUMPI DUP1 PUSH4 0x9A7557DB EQ PUSH2 0xB6 JUMPI JUMPDEST PUSH1 0x0 DUP1 REVERT JUMPDEST CALLVALUE DUP1 ISZERO PUSH2 0x50 JUMPI PUSH1 0x0 DUP1 REVERT JUMPDEST POP PUSH2 0x59 PUSH2 0xD2 JUMP JUMPDEST PUSH1 0x40 MLOAD PUSH2 0x66 SWAP2 SWAP1 PUSH2 0x57B JUMP JUMPDEST PUSH1 0x40 MLOAD DUP1 SWAP2 SUB SWAP1 RETURN JUMPDEST CALLVALUE DUP1 ISZERO PUSH2 0x7B JUMPI PUSH1 0x0 DUP1 REVERT JUMPDEST POP PUSH2 0x84 PUSH2 0x178 JUMP JUMPDEST PUSH1 0x40 MLOAD PUSH2 0x91 SWAP2 SWAP1 PUSH2 0x530 JUMP JUMPDEST PUSH1 0x40 MLOAD DUP1 SWAP2 SUB SWAP1 RETURN JUMPDEST PUSH2 0xB4 PUSH1 0x4 DUP1 CALLDATASIZE SUB DUP2 ADD SWAP1 PUSH2 0xAF SWAP2 SWAP1 PUSH2 0x425 JUMP JUMPDEST PUSH2 0x21E JUMP JUMPDEST STOP JUMPDEST PUSH2 0xD0 PUSH1 0x4 DUP1 CALLDATASIZE SUB DUP2 ADD SWAP1 PUSH2 0xCB SWAP2 SWAP1 PUSH2 0x3F8 JUMP JUMPDEST PUSH2 0x2CB JUMP JUMPDEST STOP JUMPDEST PUSH1 0x0 DUP1 PUSH1 0x0 SWAP1 SLOAD SWAP1 PUSH2 0x100 EXP SWAP1 DIV PUSH20 0xFFFFFFFFFFFFFFFFFFFFFFFFFFFFFFFFFFFFFFFF AND PUSH20 0xFFFFFFFFFFFFFFFFFFFFFFFFFFFFFFFFFFFFFFFF AND PUSH4 0x12065FE0 PUSH1 0x40 MLOAD DUP2 PUSH4 0xFFFFFFFF AND PUSH1 0xE0 SHL DUP2 MSTORE PUSH1 0x4 ADD PUSH1 0x20 PUSH1 0x40 MLOAD DUP1 DUP4 SUB DUP2 DUP7 DUP1 EXTCODESIZE ISZERO DUP1 ISZERO PUSH2 0x13B JUMPI PUSH1 0x0 DUP1 REVERT JUMPDEST POP GAS STATICCALL ISZERO DUP1 ISZERO PUSH2 0x14F JUMPI RETURNDATASIZE PUSH1 0x0 DUP1 RETURNDATACOPY RETURNDATASIZE PUSH1 0x0 REVERT JUMPDEST POP POP POP POP PUSH1 0x40 MLOAD RETURNDATASIZE PUSH1 0x1F NOT PUSH1 0x1F DUP3 ADD AND DUP3 ADD DUP1 PUSH1 0x40 MSTORE POP DUP2 ADD SWAP1 PUSH2 0x173 SWAP2 SWAP1 PUSH2 0x465 JUMP JUMPDEST SWAP1 POP SWAP1 JUMP JUMPDEST PUSH1 0x0 DUP1 PUSH1 0x0 SWAP1 SLOAD SWAP1 PUSH2 0x100 EXP SWAP1 DIV PUSH20 0xFFFFFFFFFFFFFFFFFFFFFFFFFFFFFFFFFFFFFFFF AND PUSH20 0xFFFFFFFFFFFFFFFFFFFFFFFFFFFFFFFFFFFFFFFF AND PUSH4 0x38CC4831 PUSH1 0x40 MLOAD DUP2 PUSH4 0xFFFFFFFF AND PUSH1 0xE0 SHL DUP2 MSTORE PUSH1 0x4 ADD PUSH1 0x20 PUSH1 0x40 MLOAD DUP1 DUP4 SUB DUP2 DUP7 DUP1 EXTCODESIZE ISZERO DUP1 ISZERO PUSH2 0x1E1 JUMPI PUSH1 0x0 DUP1 REVERT JUMPDEST POP GAS STATICCALL ISZERO DUP1 ISZERO PUSH2 0x1F5 JUMPI RETURNDATASIZE PUSH1 0x0 DUP1 RETURNDATACOPY RETURNDATASIZE PUSH1 0x0 REVERT JUMPDEST POP POP POP POP PUSH1 0x40 MLOAD RETURNDATASIZE PUSH1 0x1F NOT PUSH1 0x1F DUP3 ADD AND DUP3 ADD DUP1 PUSH1 0x40 MSTORE POP DUP2 ADD SWAP1 PUSH2 0x219 SWAP2 SWAP1 PUSH2 0x3CB JUMP JUMPDEST SWAP1 POP SWAP1 JUMP JUMPDEST PUSH1 0x0 DUP1 DUP4 PUSH20 0xFFFFFFFFFFFFFFFFFFFFFFFFFFFFFFFFFFFFFFFF AND CALLVALUE PUSH1 0x40 MLOAD PUSH2 0x245 SWAP1 PUSH2 0x51B JUMP JUMPDEST PUSH1 0x0 PUSH1 0x40 MLOAD DUP1 DUP4 SUB DUP2 DUP6 DUP8 GAS CALL SWAP3 POP POP POP RETURNDATASIZE DUP1 PUSH1 0x0 DUP2 EQ PUSH2 0x282 JUMPI PUSH1 0x40 MLOAD SWAP2 POP PUSH1 0x1F NOT PUSH1 0x3F RETURNDATASIZE ADD AND DUP3 ADD PUSH1 0x40 MSTORE RETURNDATASIZE DUP3 MSTORE RETURNDATASIZE PUSH1 0x0 PUSH1 0x20 DUP5 ADD RETURNDATACOPY PUSH2 0x287 JUMP JUMPDEST PUSH1 0x60 SWAP2 POP JUMPDEST POP SWAP2 POP SWAP2 POP PUSH32 0x13848C3E38F8886F3F5D2AD9DFF80D8092C2BBB8EFD5B887A99C2C6CFC09AC2A DUP3 DUP3 PUSH1 0x40 MLOAD PUSH2 0x2BD SWAP3 SWAP2 SWAP1 PUSH2 0x54B JUMP JUMPDEST PUSH1 0x40 MLOAD DUP1 SWAP2 SUB SWAP1 LOG1 POP POP POP POP JUMP JUMPDEST PUSH1 0x0 DUP1 DUP3 PUSH20 0xFFFFFFFFFFFFFFFFFFFFFFFFFFFFFFFFFFFFFFFF AND CALLVALUE PUSH1 0x40 MLOAD PUSH2 0x2F2 SWAP1 PUSH2 0x51B JUMP JUMPDEST PUSH1 0x0 PUSH1 0x40 MLOAD DUP1 DUP4 SUB DUP2 DUP6 DUP8 GAS CALL SWAP3 POP POP POP RETURNDATASIZE DUP1 PUSH1 0x0 DUP2 EQ PUSH2 0x32F JUMPI PUSH1 0x40 MLOAD SWAP2 POP PUSH1 0x1F NOT PUSH1 0x3F RETURNDATASIZE ADD AND DUP3 ADD PUSH1 0x40 MSTORE RETURNDATASIZE DUP3 MSTORE RETURNDATASIZE PUSH1 0x0 PUSH1 0x20 DUP5 ADD RETURNDATACOPY PUSH2 0x334 JUMP JUMPDEST PUSH1 0x60 SWAP2 POP JUMPDEST POP SWAP2 POP SWAP2 POP PUSH32 0x13848C3E38F8886F3F5D2AD9DFF80D8092C2BBB8EFD5B887A99C2C6CFC09AC2A DUP3 DUP3 PUSH1 0x40 MLOAD PUSH2 0x36A SWAP3 SWAP2 SWAP1 PUSH2 0x54B JUMP JUMPDEST PUSH1 0x40 MLOAD DUP1 SWAP2 SUB SWAP1 LOG1 POP POP POP JUMP JUMPDEST PUSH1 0x0 DUP2 MLOAD SWAP1 POP PUSH2 0x386 DUP2 PUSH2 0x663 JUMP JUMPDEST SWAP3 SWAP2 POP POP JUMP JUMPDEST PUSH1 0x0 DUP2 CALLDATALOAD SWAP1 POP PUSH2 0x39B DUP2 PUSH2 0x67A JUMP JUMPDEST SWAP3 SWAP2 POP POP JUMP JUMPDEST PUSH1 0x0 DUP2 CALLDATALOAD SWAP1 POP PUSH2 0x3B0 DUP2 PUSH2 0x691 JUMP JUMPDEST SWAP3 SWAP2 POP POP JUMP JUMPDEST PUSH1 0x0 DUP2 MLOAD SWAP1 POP PUSH2 0x3C5 DUP2 PUSH2 0x691 JUMP JUMPDEST SWAP3 SWAP2 POP POP JUMP JUMPDEST PUSH1 0x0 PUSH1 0x20 DUP3 DUP5 SUB SLT ISZERO PUSH2 0x3E1 JUMPI PUSH2 0x3E0 PUSH2 0x64A JUMP JUMPDEST JUMPDEST PUSH1 0x0 PUSH2 0x3EF DUP5 DUP3 DUP6 ADD PUSH2 0x377 JUMP JUMPDEST SWAP2 POP POP SWAP3 SWAP2 POP POP JUMP JUMPDEST PUSH1 0x0 PUSH1 0x20 DUP3 DUP5 SUB SLT ISZERO PUSH2 0x40E JUMPI PUSH2 0x40D PUSH2 0x64A JUMP JUMPDEST JUMPDEST PUSH1 0x0 PUSH2 0x41C DUP5 DUP3 DUP6 ADD PUSH2 0x38C JUMP JUMPDEST SWAP2 POP POP SWAP3 SWAP2 POP POP JUMP JUMPDEST PUSH1 0x0 DUP1 PUSH1 0x40 DUP4 DUP6 SUB SLT ISZERO PUSH2 0x43C JUMPI PUSH2 0x43B PUSH2 0x64A JUMP JUMPDEST JUMPDEST PUSH1 0x0 PUSH2 0x44A DUP6 DUP3 DUP7 ADD PUSH2 0x38C JUMP JUMPDEST SWAP3 POP POP PUSH1 0x20 PUSH2 0x45B DUP6 DUP3 DUP7 ADD PUSH2 0x3A1 JUMP JUMPDEST SWAP2 POP POP SWAP3 POP SWAP3 SWAP1 POP JUMP JUMPDEST PUSH1 0x0 PUSH1 0x20 DUP3 DUP5 SUB SLT ISZERO PUSH2 0x47B JUMPI PUSH2 0x47A PUSH2 0x64A JUMP JUMPDEST JUMPDEST PUSH1 0x0 PUSH2 0x489 DUP5 DUP3 DUP6 ADD PUSH2 0x3B6 JUMP JUMPDEST SWAP2 POP POP SWAP3 SWAP2 POP POP JUMP JUMPDEST PUSH2 0x49B DUP2 PUSH2 0x5BD JUMP JUMPDEST DUP3 MSTORE POP POP JUMP JUMPDEST PUSH2 0x4AA DUP2 PUSH2 0x5E1 JUMP JUMPDEST DUP3 MSTORE POP POP JUMP JUMPDEST PUSH1 0x0 PUSH2 0x4BB DUP3 PUSH2 0x596 JUMP JUMPDEST PUSH2 0x4C5 DUP2 DUP6 PUSH2 0x5A1 JUMP JUMPDEST SWAP4 POP PUSH2 0x4D5 DUP2 DUP6 PUSH1 0x20 DUP7 ADD PUSH2 0x617 JUMP JUMPDEST PUSH2 0x4DE DUP2 PUSH2 0x64F JUMP JUMPDEST DUP5 ADD SWAP2 POP POP SWAP3 SWAP2 POP POP JUMP JUMPDEST PUSH1 0x0 PUSH2 0x4F6 PUSH1 0x0 DUP4 PUSH2 0x5B2 JUMP JUMPDEST SWAP2 POP PUSH2 0x501 DUP3 PUSH2 0x660 JUMP JUMPDEST PUSH1 0x0 DUP3 ADD SWAP1 POP SWAP2 SWAP1 POP JUMP JUMPDEST PUSH2 0x515 DUP2 PUSH2 0x60D JUMP JUMPDEST DUP3 MSTORE POP POP JUMP JUMPDEST PUSH1 0x0 PUSH2 0x526 DUP3 PUSH2 0x4E9 JUMP JUMPDEST SWAP2 POP DUP2 SWAP1 POP SWAP2 SWAP1 POP JUMP JUMPDEST PUSH1 0x0 PUSH1 0x20 DUP3 ADD SWAP1 POP PUSH2 0x545 PUSH1 0x0 DUP4 ADD DUP5 PUSH2 0x492 JUMP JUMPDEST SWAP3 SWAP2 POP POP JUMP JUMPDEST PUSH1 0x0 PUSH1 0x40 DUP3 ADD SWAP1 POP PUSH2 0x560 PUSH1 0x0 DUP4 ADD DUP6 PUSH2 0x4A1 JUMP JUMPDEST DUP2 DUP2 SUB PUSH1 0x20 DUP4 ADD MSTORE PUSH2 0x572 DUP2 DUP5 PUSH2 0x4B0 JUMP JUMPDEST SWAP1 POP SWAP4 SWAP3 POP POP POP JUMP JUMPDEST PUSH1 0x0 PUSH1 0x20 DUP3 ADD SWAP1 POP PUSH2 0x590 PUSH1 0x0 DUP4 ADD DUP5 PUSH2 0x50C JUMP JUMPDEST SWAP3 SWAP2 POP POP JUMP JUMPDEST PUSH1 0x0 DUP2 MLOAD SWAP1 POP SWAP2 SWAP1 POP JUMP JUMPDEST PUSH1 0x0 DUP3 DUP3 MSTORE PUSH1 0x20 DUP3 ADD SWAP1 POP SWAP3 SWAP2 POP POP JUMP JUMPDEST PUSH1 0x0 DUP2 SWAP1 POP SWAP3 SWAP2 POP POP JUMP JUMPDEST PUSH1 0x0 PUSH2 0x5C8 DUP3 PUSH2 0x5ED JUMP JUMPDEST SWAP1 POP SWAP2 SWAP1 POP JUMP JUMPDEST PUSH1 0x0 PUSH2 0x5DA DUP3 PUSH2 0x5ED JUMP JUMPDEST SWAP1 POP SWAP2 SWAP1 POP JUMP JUMPDEST PUSH1 0x0 DUP2 ISZERO ISZERO SWAP1 POP SWAP2 SWAP1 POP JUMP JUMPDEST PUSH1 0x0 PUSH20 0xFFFFFFFFFFFFFFFFFFFFFFFFFFFFFFFFFFFFFFFF DUP3 AND SWAP1 POP SWAP2 SWAP1 POP JUMP JUMPDEST PUSH1 0x0 DUP2 SWAP1 POP SWAP2 SWAP1 POP JUMP JUMPDEST PUSH1 0x0 JUMPDEST DUP4 DUP2 LT ISZERO PUSH2 0x635 JUMPI DUP1 DUP3 ADD MLOAD DUP2 DUP5 ADD MSTORE PUSH1 0x20 DUP2 ADD SWAP1 POP PUSH2 0x61A JUMP JUMPDEST DUP4 DUP2 GT ISZERO PUSH2 0x644 JUMPI PUSH1 0x0 DUP5 DUP5 ADD MSTORE JUMPDEST POP POP POP POP JUMP JUMPDEST PUSH1 0x0 DUP1 REVERT JUMPDEST PUSH1 0x0 PUSH1 0x1F NOT PUSH1 0x1F DUP4 ADD AND SWAP1 POP SWAP2 SWAP1 POP JUMP JUMPDEST POP JUMP JUMPDEST PUSH2 0x66C DUP2 PUSH2 0x5BD JUMP JUMPDEST DUP2 EQ PUSH2 0x677 JUMPI PUSH1 0x0 DUP1 REVERT JUMPDEST POP JUMP JUMPDEST PUSH2 0x683 DUP2 PUSH2 0x5CF JUMP JUMPDEST DUP2 EQ PUSH2 0x68E JUMPI PUSH1 0x0 DUP1 REVERT JUMPDEST POP JUMP JUMPDEST PUSH2 0x69A DUP2 PUSH2 0x60D JUMP JUMPDEST DUP2 EQ PUSH2 0x6A5 JUMPI PUSH1 0x0 DUP1 REVERT JUMPDEST POP JUMP INVALID LOG2 PUSH5 0x6970667358 0x22 SLT KECCAK256 0xA9 MOD JUMPDEST 0xB8 SHR PUSH9 0xAA673BD2893B97EDF7 0x21 0xD9 0xD1 0xAC COINBASE GASLIMIT 0xE9 PUSH13 0x269D80CD56304A538064736F6C PUSH4 0x43000807 STOP CALLER PUSH1 0x80 PUSH1 0x40 MSTORE CALLVALUE DUP1 ISZERO PUSH2 0x10 JUMPI PUSH1 0x0 DUP1 REVERT JUMPDEST POP PUSH2 0x60D DUP1 PUSH2 0x20 PUSH1 0x0 CODECOPY PUSH1 0x0 RETURN INVALID PUSH1 0x80 PUSH1 0x40 MSTORE PUSH1 0x4 CALLDATASIZE LT PUSH2 0x38 JUMPI PUSH1 0x0 CALLDATALOAD PUSH1 0xE0 SHR DUP1 PUSH4 0x12065FE0 EQ PUSH2 0xB3 JUMPI DUP1 PUSH4 0x24CCAB8F EQ PUSH2 0xDE JUMPI DUP1 PUSH4 0x38CC4831 EQ PUSH2 0x10E JUMPI PUSH2 0x78 JUMP JUMPDEST CALLDATASIZE PUSH2 0x78 JUMPI PUSH32 0x59E04C3F0D44B7CAF6E8EF854B61D9A51CF1960D7A88FF6356CC5E946B4B5832 CALLER CALLVALUE PUSH1 0x40 MLOAD PUSH2 0x6E SWAP3 SWAP2 SWAP1 PUSH2 0x3A2 JUMP JUMPDEST PUSH1 0x40 MLOAD DUP1 SWAP2 SUB SWAP1 LOG1 STOP JUMPDEST PUSH32 0x59E04C3F0D44B7CAF6E8EF854B61D9A51CF1960D7A88FF6356CC5E946B4B5832 CALLER CALLVALUE PUSH1 0x40 MLOAD PUSH2 0xA9 SWAP3 SWAP2 SWAP1 PUSH2 0x366 JUMP JUMPDEST PUSH1 0x40 MLOAD DUP1 SWAP2 SUB SWAP1 LOG1 STOP JUMPDEST CALLVALUE DUP1 ISZERO PUSH2 0xBF JUMPI PUSH1 0x0 DUP1 REVERT JUMPDEST POP PUSH2 0xC8 PUSH2 0x139 JUMP JUMPDEST PUSH1 0x40 MLOAD PUSH2 0xD5 SWAP2 SWAP1 PUSH2 0x3DE JUMP JUMPDEST PUSH1 0x40 MLOAD DUP1 SWAP2 SUB SWAP1 RETURN JUMPDEST PUSH2 0xF8 PUSH1 0x4 DUP1 CALLDATASIZE SUB DUP2 ADD SWAP1 PUSH2 0xF3 SWAP2 SWAP1 PUSH2 0x214 JUMP JUMPDEST PUSH2 0x141 JUMP JUMPDEST PUSH1 0x40 MLOAD PUSH2 0x105 SWAP2 SWAP1 PUSH2 0x3DE JUMP JUMPDEST PUSH1 0x40 MLOAD DUP1 SWAP2 SUB SWAP1 RETURN JUMPDEST CALLVALUE DUP1 ISZERO PUSH2 0x11A JUMPI PUSH1 0x0 DUP1 REVERT JUMPDEST POP PUSH2 0x123 PUSH2 0x187 JUMP JUMPDEST PUSH1 0x40 MLOAD PUSH2 0x130 SWAP2 SWAP1 PUSH2 0x30D JUMP JUMPDEST PUSH1 0x40 MLOAD DUP1 SWAP2 SUB SWAP1 RETURN JUMPDEST PUSH1 0x0 SELFBALANCE SWAP1 POP SWAP1 JUMP JUMPDEST PUSH1 0x0 PUSH32 0x59E04C3F0D44B7CAF6E8EF854B61D9A51CF1960D7A88FF6356CC5E946B4B5832 CALLER CALLVALUE DUP6 PUSH1 0x40 MLOAD PUSH2 0x176 SWAP4 SWAP3 SWAP2 SWAP1 PUSH2 0x328 JUMP JUMPDEST PUSH1 0x40 MLOAD DUP1 SWAP2 SUB SWAP1 LOG1 DUP2 SWAP1 POP SWAP3 SWAP2 POP POP JUMP JUMPDEST PUSH1 0x0 ADDRESS SWAP1 POP SWAP1 JUMP JUMPDEST PUSH1 0x0 PUSH2 0x1A2 PUSH2 0x19D DUP5 PUSH2 0x41E JUMP JUMPDEST PUSH2 0x3F9 JUMP JUMPDEST SWAP1 POP DUP3 DUP2 MSTORE PUSH1 0x20 DUP2 ADD DUP5 DUP5 DUP5 ADD GT ISZERO PUSH2 0x1BE JUMPI PUSH2 0x1BD PUSH2 0x54E JUMP JUMPDEST JUMPDEST PUSH2 0x1C9 DUP5 DUP3 DUP6 PUSH2 0x4A7 JUMP JUMPDEST POP SWAP4 SWAP3 POP POP POP JUMP JUMPDEST PUSH1 0x0 DUP3 PUSH1 0x1F DUP4 ADD SLT PUSH2 0x1E6 JUMPI PUSH2 0x1E5 PUSH2 0x549 JUMP JUMPDEST JUMPDEST DUP2 CALLDATALOAD PUSH2 0x1F6 DUP5 DUP3 PUSH1 0x20 DUP7 ADD PUSH2 0x18F JUMP JUMPDEST SWAP2 POP POP SWAP3 SWAP2 POP POP JUMP JUMPDEST PUSH1 0x0 DUP2 CALLDATALOAD SWAP1 POP PUSH2 0x20E DUP2 PUSH2 0x5C0 JUMP JUMPDEST SWAP3 SWAP2 POP POP JUMP JUMPDEST PUSH1 0x0 DUP1 PUSH1 0x40 DUP4 DUP6 SUB SLT ISZERO PUSH2 0x22B JUMPI PUSH2 0x22A PUSH2 0x558 JUMP JUMPDEST JUMPDEST PUSH1 0x0 DUP4 ADD CALLDATALOAD PUSH8 0xFFFFFFFFFFFFFFFF DUP2 GT ISZERO PUSH2 0x249 JUMPI PUSH2 0x248 PUSH2 0x553 JUMP JUMPDEST JUMPDEST PUSH2 0x255 DUP6 DUP3 DUP7 ADD PUSH2 0x1D1 JUMP JUMPDEST SWAP3 POP POP PUSH1 0x20 PUSH2 0x266 DUP6 DUP3 DUP7 ADD PUSH2 0x1FF JUMP JUMPDEST SWAP2 POP POP SWAP3 POP SWAP3 SWAP1 POP JUMP JUMPDEST PUSH2 0x279 DUP2 PUSH2 0x46B JUMP JUMPDEST DUP3 MSTORE POP POP JUMP JUMPDEST PUSH1 0x0 PUSH2 0x28A DUP3 PUSH2 0x44F JUMP JUMPDEST PUSH2 0x294 DUP2 DUP6 PUSH2 0x45A JUMP JUMPDEST SWAP4 POP PUSH2 0x2A4 DUP2 DUP6 PUSH1 0x20 DUP7 ADD PUSH2 0x4B6 JUMP JUMPDEST PUSH2 0x2AD DUP2 PUSH2 0x55D JUMP JUMPDEST DUP5 ADD SWAP2 POP POP SWAP3 SWAP2 POP POP JUMP JUMPDEST PUSH1 0x0 PUSH2 0x2C5 PUSH1 0x13 DUP4 PUSH2 0x45A JUMP JUMPDEST SWAP2 POP PUSH2 0x2D0 DUP3 PUSH2 0x56E JUMP JUMPDEST PUSH1 0x20 DUP3 ADD SWAP1 POP SWAP2 SWAP1 POP JUMP JUMPDEST PUSH1 0x0 PUSH2 0x2E8 PUSH1 0x13 DUP4 PUSH2 0x45A JUMP JUMPDEST SWAP2 POP PUSH2 0x2F3 DUP3 PUSH2 0x597 JUMP JUMPDEST PUSH1 0x20 DUP3 ADD SWAP1 POP SWAP2 SWAP1 POP JUMP JUMPDEST PUSH2 0x307 DUP2 PUSH2 0x49D JUMP JUMPDEST DUP3 MSTORE POP POP JUMP JUMPDEST PUSH1 0x0 PUSH1 0x20 DUP3 ADD SWAP1 POP PUSH2 0x322 PUSH1 0x0 DUP4 ADD DUP5 PUSH2 0x270 JUMP JUMPDEST SWAP3 SWAP2 POP POP JUMP JUMPDEST PUSH1 0x0 PUSH1 0x60 DUP3 ADD SWAP1 POP PUSH2 0x33D PUSH1 0x0 DUP4 ADD DUP7 PUSH2 0x270 JUMP JUMPDEST PUSH2 0x34A PUSH1 0x20 DUP4 ADD DUP6 PUSH2 0x2FE JUMP JUMPDEST DUP2 DUP2 SUB PUSH1 0x40 DUP4 ADD MSTORE PUSH2 0x35C DUP2 DUP5 PUSH2 0x27F JUMP JUMPDEST SWAP1 POP SWAP5 SWAP4 POP POP POP POP JUMP JUMPDEST PUSH1 0x0 PUSH1 0x60 DUP3 ADD SWAP1 POP PUSH2 0x37B PUSH1 0x0 DUP4 ADD DUP6 PUSH2 0x270 JUMP JUMPDEST PUSH2 0x388 PUSH1 0x20 DUP4 ADD DUP5 PUSH2 0x2FE JUMP JUMPDEST DUP2 DUP2 SUB PUSH1 0x40 DUP4 ADD MSTORE PUSH2 0x399 DUP2 PUSH2 0x2B8 JUMP JUMPDEST SWAP1 POP SWAP4 SWAP3 POP POP POP JUMP JUMPDEST PUSH1 0x0 PUSH1 0x60 DUP3 ADD SWAP1 POP PUSH2 0x3B7 PUSH1 0x0 DUP4 ADD DUP6 PUSH2 0x270 JUMP JUMPDEST PUSH2 0x3C4 PUSH1 0x20 DUP4 ADD DUP5 PUSH2 0x2FE JUMP JUMPDEST DUP2 DUP2 SUB PUSH1 0x40 DUP4 ADD MSTORE PUSH2 0x3D5 DUP2 PUSH2 0x2DB JUMP JUMPDEST SWAP1 POP SWAP4 SWAP3 POP POP POP JUMP JUMPDEST PUSH1 0x0 PUSH1 0x20 DUP3 ADD SWAP1 POP PUSH2 0x3F3 PUSH1 0x0 DUP4 ADD DUP5 PUSH2 0x2FE JUMP JUMPDEST SWAP3 SWAP2 POP POP JUMP JUMPDEST PUSH1 0x0 PUSH2 0x403 PUSH2 0x414 JUMP JUMPDEST SWAP1 POP PUSH2 0x40F DUP3 DUP3 PUSH2 0x4E9 JUMP JUMPDEST SWAP2 SWAP1 POP JUMP JUMPDEST PUSH1 0x0 PUSH1 0x40 MLOAD SWAP1 POP SWAP1 JUMP JUMPDEST PUSH1 0x0 PUSH8 0xFFFFFFFFFFFFFFFF DUP3 GT ISZERO PUSH2 0x439 JUMPI PUSH2 0x438 PUSH2 0x51A JUMP JUMPDEST JUMPDEST PUSH2 0x442 DUP3 PUSH2 0x55D JUMP JUMPDEST SWAP1 POP PUSH1 0x20 DUP2 ADD SWAP1 POP SWAP2 SWAP1 POP JUMP JUMPDEST PUSH1 0x0 DUP2 MLOAD SWAP1 POP SWAP2 SWAP1 POP JUMP JUMPDEST PUSH1 0x0 DUP3 DUP3 MSTORE PUSH1 0x20 DUP3 ADD SWAP1 POP SWAP3 SWAP2 POP POP JUMP JUMPDEST PUSH1 0x0 PUSH2 0x476 DUP3 PUSH2 0x47D JUMP JUMPDEST SWAP1 POP SWAP2 SWAP1 POP JUMP JUMPDEST PUSH1 0x0 PUSH20 0xFFFFFFFFFFFFFFFFFFFFFFFFFFFFFFFFFFFFFFFF DUP3 AND SWAP1 POP SWAP2 SWAP1 POP JUMP JUMPDEST PUSH1 0x0 DUP2 SWAP1 POP SWAP2 SWAP1 POP JUMP JUMPDEST DUP3 DUP2 DUP4 CALLDATACOPY PUSH1 0x0 DUP4 DUP4 ADD MSTORE POP POP POP JUMP JUMPDEST PUSH1 0x0 JUMPDEST DUP4 DUP2 LT ISZERO PUSH2 0x4D4 JUMPI DUP1 DUP3 ADD MLOAD DUP2 DUP5 ADD MSTORE PUSH1 0x20 DUP2 ADD SWAP1 POP PUSH2 0x4B9 JUMP JUMPDEST DUP4 DUP2 GT ISZERO PUSH2 0x4E3 JUMPI PUSH1 0x0 DUP5 DUP5 ADD MSTORE JUMPDEST POP POP POP POP JUMP JUMPDEST PUSH2 0x4F2 DUP3 PUSH2 0x55D JUMP JUMPDEST DUP2 ADD DUP2 DUP2 LT PUSH8 0xFFFFFFFFFFFFFFFF DUP3 GT OR ISZERO PUSH2 0x511 JUMPI PUSH2 0x510 PUSH2 0x51A JUMP JUMPDEST JUMPDEST DUP1 PUSH1 0x40 MSTORE POP POP POP JUMP JUMPDEST PUSH32 0x4E487B7100000000000000000000000000000000000000000000000000000000 PUSH1 0x0 MSTORE PUSH1 0x41 PUSH1 0x4 MSTORE PUSH1 0x24 PUSH1 0x0 REVERT JUMPDEST PUSH1 0x0 DUP1 REVERT JUMPDEST PUSH1 0x0 DUP1 REVERT JUMPDEST PUSH1 0x0 DUP1 REVERT JUMPDEST PUSH1 0x0 DUP1 REVERT JUMPDEST PUSH1 0x0 PUSH1 0x1F NOT PUSH1 0x1F DUP4 ADD AND SWAP1 POP SWAP2 SWAP1 POP JUMP JUMPDEST PUSH32 0x46616C6C6261636B207761732063616C6C656400000000000000000000000000 PUSH1 0x0 DUP3 ADD MSTORE POP JUMP JUMPDEST PUSH32 0x5265636569766564207761732063616C6C656400000000000000000000000000 PUSH1 0x0 DUP3 ADD MSTORE POP JUMP JUMPDEST PUSH2 0x5C9 DUP2 PUSH2 0x49D JUMP JUMPDEST DUP2 EQ PUSH2 0x5D4 JUMPI PUSH1 0x0 DUP1 REVERT JUMPDEST POP JUMP INVALID LOG2 PUSH5 0x6970667358 0x22 SLT KECCAK256 0x2F 0x4F 0xF8 0xD0 GAS 0xE 0xD0 CALLVALUE RETURNDATACOPY 0xA8 DUP9 PUSH4 0x66B24B9A DUP2 DUP5 0xC4 0x2C 0x2C CALLDATACOPY SHL 0xB7 PUSH24 0x8A682F511F41D464736F6C63430008070033000000000000 "
				},
				"gasEstimates": {
					"creation": {
						"codeDepositCost": "351600",
						"executionCost": "infinite",
						"totalCost": "infinite"
					},
					"external": {
						"getAddress()": "infinite",
						"getBalance()": "infinite",
						"testCall(address,uint256)": "infinite",
						"testCall1(address)": "infinite"
					}
				},
				"methodIdentifiers": {
					"getAddress()": "38cc4831",
					"getBalance()": "12065fe0",
					"testCall(address,uint256)": "59c75ada",
					"testCall1(address)": "9a7557db"
				}
			},
			"storageLayout": {
				"storage": [
					{
						"astId": 80,
						"contract": "contracts/11_CallContract.sol:Caller",
						"label": "receiver",
						"offset": 0,
						"slot": "0",
						"type": "t_contract(Receiver)77"
					}
				],
				"types": {
					"t_contract(Receiver)77": {
						"encoding": "inplace",
						"label": "contract Receiver",
						"numberOfBytes": "20"
					}
				}
			},
			"userdoc": {
				"kind": "user",
				"methods": {},
				"version": 1
			}
		}
	}
}