{
	"contracts/19_Assembly.sol": {
		"Assem": {
			"abi": [
				{
					"inputs": [
						{
							"internalType": "uint256",
							"name": "a",
							"type": "uint256"
						},
						{
							"internalType": "uint256",
							"name": "b",
							"type": "uint256"
						}
					],
					"name": "add",
					"outputs": [
						{
							"internalType": "uint256",
							"name": "",
							"type": "uint256"
						}
					],
					"stateMutability": "pure",
					"type": "function"
				},
				{
					"inputs": [
						{
							"internalType": "uint256",
							"name": "a",
							"type": "uint256"
						}
					],
					"name": "call",
					"outputs": [
						{
							"internalType": "uint256",
							"name": "",
							"type": "uint256"
						}
					],
					"stateMutability": "pure",
					"type": "function"
				}
			],
			"devdoc": {
				"kind": "dev",
				"methods": {},
				"version": 1
			},
			"evm": {
				"assembly": "    /* \"contracts/19_Assembly.sol\":120:498  contract Assem{... */\n  mstore(0x40, 0x80)\n  callvalue\n  dup1\n  iszero\n  tag_1\n  jumpi\n  0x00\n  dup1\n  revert\ntag_1:\n  pop\n  dataSize(sub_0)\n  dup1\n  dataOffset(sub_0)\n  0x00\n  codecopy\n  0x00\n  return\nstop\n\nsub_0: assembly {\n        /* \"contracts/19_Assembly.sol\":120:498  contract Assem{... */\n      mstore(0x40, 0x80)\n      callvalue\n      dup1\n      iszero\n      tag_1\n      jumpi\n      0x00\n      dup1\n      revert\n    tag_1:\n      pop\n      jumpi(tag_2, lt(calldatasize, 0x04))\n      shr(0xe0, calldataload(0x00))\n      dup1\n      0x2b096926\n      eq\n      tag_3\n      jumpi\n      dup1\n      0x771602f7\n      eq\n      tag_4\n      jumpi\n    tag_2:\n      0x00\n      dup1\n      revert\n        /* \"contracts/19_Assembly.sol\":358:496  function call(uint a) public pure returns(uint){... */\n    tag_3:\n      tag_5\n      0x04\n      dup1\n      calldatasize\n      sub\n      dup2\n      add\n      swap1\n      tag_6\n      swap2\n      swap1\n      tag_7\n      jump\t// in\n    tag_6:\n      tag_8\n      jump\t// in\n    tag_5:\n      mload(0x40)\n      tag_9\n      swap2\n      swap1\n      tag_10\n      jump\t// in\n    tag_9:\n      mload(0x40)\n      dup1\n      swap2\n      sub\n      swap1\n      return\n        /* \"contracts/19_Assembly.sol\":153:330  function add(uint a, uint b) public pure returns(uint){... */\n    tag_4:\n      tag_11\n      0x04\n      dup1\n      calldatasize\n      sub\n      dup2\n      add\n      swap1\n      tag_12\n      swap2\n      swap1\n      tag_13\n      jump\t// in\n    tag_12:\n      tag_14\n      jump\t// in\n    tag_11:\n      mload(0x40)\n      tag_15\n      swap2\n      swap1\n      tag_10\n      jump\t// in\n    tag_15:\n      mload(0x40)\n      dup1\n      swap2\n      sub\n      swap1\n      return\n        /* \"contracts/19_Assembly.sol\":358:496  function call(uint a) public pure returns(uint){... */\n    tag_8:\n        /* \"contracts/19_Assembly.sol\":400:404  uint */\n      0x00\n        /* \"contracts/19_Assembly.sol\":415:425  bytes4 sig */\n      dup1\n        /* \"contracts/19_Assembly.sol\":435:458  keccak256(\"call(uint)\") */\n      0x3fe6f4f76c7eebcad2c55331438cb22c4b29299885f3791d0543b9db673a2ead\n        /* \"contracts/19_Assembly.sol\":415:459  bytes4 sig = bytes4(keccak256(\"call(uint)\")) */\n      swap1\n      pop\n        /* \"contracts/19_Assembly.sol\":478:490  {... */\n      pop\n        /* \"contracts/19_Assembly.sol\":358:496  function call(uint a) public pure returns(uint){... */\n      swap2\n      swap1\n      pop\n      jump\t// out\n        /* \"contracts/19_Assembly.sol\":153:330  function add(uint a, uint b) public pure returns(uint){... */\n    tag_14:\n        /* \"contracts/19_Assembly.sol\":202:206  uint */\n      0x00\n        /* \"contracts/19_Assembly.sol\":256:257  b */\n      dup2\n        /* \"contracts/19_Assembly.sol\":254:255  a */\n      dup4\n        /* \"contracts/19_Assembly.sol\":250:258  add(a,b) */\n      add\n        /* \"contracts/19_Assembly.sol\":282:285  sum */\n      dup1\n        /* \"contracts/19_Assembly.sol\":278:281  0x0 */\n      0x00\n        /* \"contracts/19_Assembly.sol\":271:286  mstore(0x0,sum) */\n      mstore\n        /* \"contracts/19_Assembly.sol\":311:313  32 */\n      0x20\n        /* \"contracts/19_Assembly.sol\":307:310  0x0 */\n      0x00\n        /* \"contracts/19_Assembly.sol\":299:314  return (0x0,32) */\n      return\n        /* \"#utility.yul\":7:146   */\n    tag_19:\n        /* \"#utility.yul\":53:58   */\n      0x00\n        /* \"#utility.yul\":91:97   */\n      dup2\n        /* \"#utility.yul\":78:98   */\n      calldataload\n        /* \"#utility.yul\":69:98   */\n      swap1\n      pop\n        /* \"#utility.yul\":107:140   */\n      tag_21\n        /* \"#utility.yul\":134:139   */\n      dup2\n        /* \"#utility.yul\":107:140   */\n      tag_22\n      jump\t// in\n    tag_21:\n        /* \"#utility.yul\":7:146   */\n      swap3\n      swap2\n      pop\n      pop\n      jump\t// out\n        /* \"#utility.yul\":152:481   */\n    tag_7:\n        /* \"#utility.yul\":211:217   */\n      0x00\n        /* \"#utility.yul\":260:262   */\n      0x20\n        /* \"#utility.yul\":248:257   */\n      dup3\n        /* \"#utility.yul\":239:246   */\n      dup5\n        /* \"#utility.yul\":235:258   */\n      sub\n        /* \"#utility.yul\":231:263   */\n      slt\n        /* \"#utility.yul\":228:347   */\n      iszero\n      tag_24\n      jumpi\n        /* \"#utility.yul\":266:345   */\n      tag_25\n      tag_26\n      jump\t// in\n    tag_25:\n        /* \"#utility.yul\":228:347   */\n    tag_24:\n        /* \"#utility.yul\":386:387   */\n      0x00\n        /* \"#utility.yul\":411:464   */\n      tag_27\n        /* \"#utility.yul\":456:463   */\n      dup5\n        /* \"#utility.yul\":447:453   */\n      dup3\n        /* \"#utility.yul\":436:445   */\n      dup6\n        /* \"#utility.yul\":432:454   */\n      add\n        /* \"#utility.yul\":411:464   */\n      tag_19\n      jump\t// in\n    tag_27:\n        /* \"#utility.yul\":401:464   */\n      swap2\n      pop\n        /* \"#utility.yul\":357:474   */\n      pop\n        /* \"#utility.yul\":152:481   */\n      swap3\n      swap2\n      pop\n      pop\n      jump\t// out\n        /* \"#utility.yul\":487:961   */\n    tag_13:\n        /* \"#utility.yul\":555:561   */\n      0x00\n        /* \"#utility.yul\":563:569   */\n      dup1\n        /* \"#utility.yul\":612:614   */\n      0x40\n        /* \"#utility.yul\":600:609   */\n      dup4\n        /* \"#utility.yul\":591:598   */\n      dup6\n        /* \"#utility.yul\":587:610   */\n      sub\n        /* \"#utility.yul\":583:615   */\n      slt\n        /* \"#utility.yul\":580:699   */\n      iszero\n      tag_29\n      jumpi\n        /* \"#utility.yul\":618:697   */\n      tag_30\n      tag_26\n      jump\t// in\n    tag_30:\n        /* \"#utility.yul\":580:699   */\n    tag_29:\n        /* \"#utility.yul\":738:739   */\n      0x00\n        /* \"#utility.yul\":763:816   */\n      tag_31\n        /* \"#utility.yul\":808:815   */\n      dup6\n        /* \"#utility.yul\":799:805   */\n      dup3\n        /* \"#utility.yul\":788:797   */\n      dup7\n        /* \"#utility.yul\":784:806   */\n      add\n        /* \"#utility.yul\":763:816   */\n      tag_19\n      jump\t// in\n    tag_31:\n        /* \"#utility.yul\":753:816   */\n      swap3\n      pop\n        /* \"#utility.yul\":709:826   */\n      pop\n        /* \"#utility.yul\":865:867   */\n      0x20\n        /* \"#utility.yul\":891:944   */\n      tag_32\n        /* \"#utility.yul\":936:943   */\n      dup6\n        /* \"#utility.yul\":927:933   */\n      dup3\n        /* \"#utility.yul\":916:925   */\n      dup7\n        /* \"#utility.yul\":912:934   */\n      add\n        /* \"#utility.yul\":891:944   */\n      tag_19\n      jump\t// in\n    tag_32:\n        /* \"#utility.yul\":881:944   */\n      swap2\n      pop\n        /* \"#utility.yul\":836:954   */\n      pop\n        /* \"#utility.yul\":487:961   */\n      swap3\n      pop\n      swap3\n      swap1\n      pop\n      jump\t// out\n        /* \"#utility.yul\":967:1085   */\n    tag_33:\n        /* \"#utility.yul\":1054:1078   */\n      tag_35\n        /* \"#utility.yul\":1072:1077   */\n      dup2\n        /* \"#utility.yul\":1054:1078   */\n      tag_36\n      jump\t// in\n    tag_35:\n        /* \"#utility.yul\":1049:1052   */\n      dup3\n        /* \"#utility.yul\":1042:1079   */\n      mstore\n        /* \"#utility.yul\":967:1085   */\n      pop\n      pop\n      jump\t// out\n        /* \"#utility.yul\":1091:1313   */\n    tag_10:\n        /* \"#utility.yul\":1184:1188   */\n      0x00\n        /* \"#utility.yul\":1222:1224   */\n      0x20\n        /* \"#utility.yul\":1211:1220   */\n      dup3\n        /* \"#utility.yul\":1207:1225   */\n      add\n        /* \"#utility.yul\":1199:1225   */\n      swap1\n      pop\n        /* \"#utility.yul\":1235:1306   */\n      tag_38\n        /* \"#utility.yul\":1303:1304   */\n      0x00\n        /* \"#utility.yul\":1292:1301   */\n      dup4\n        /* \"#utility.yul\":1288:1305   */\n      add\n        /* \"#utility.yul\":1279:1285   */\n      dup5\n        /* \"#utility.yul\":1235:1306   */\n      tag_33\n      jump\t// in\n    tag_38:\n        /* \"#utility.yul\":1091:1313   */\n      swap3\n      swap2\n      pop\n      pop\n      jump\t// out\n        /* \"#utility.yul\":1400:1477   */\n    tag_36:\n        /* \"#utility.yul\":1437:1444   */\n      0x00\n        /* \"#utility.yul\":1466:1471   */\n      dup2\n        /* \"#utility.yul\":1455:1471   */\n      swap1\n      pop\n        /* \"#utility.yul\":1400:1477   */\n      swap2\n      swap1\n      pop\n      jump\t// out\n        /* \"#utility.yul\":1606:1723   */\n    tag_26:\n        /* \"#utility.yul\":1715:1716   */\n      0x00\n        /* \"#utility.yul\":1712:1713   */\n      dup1\n        /* \"#utility.yul\":1705:1717   */\n      revert\n        /* \"#utility.yul\":1729:1851   */\n    tag_22:\n        /* \"#utility.yul\":1802:1826   */\n      tag_46\n        /* \"#utility.yul\":1820:1825   */\n      dup2\n        /* \"#utility.yul\":1802:1826   */\n      tag_36\n      jump\t// in\n    tag_46:\n        /* \"#utility.yul\":1795:1800   */\n      dup2\n        /* \"#utility.yul\":1792:1827   */\n      eq\n        /* \"#utility.yul\":1782:1845   */\n      tag_47\n      jumpi\n        /* \"#utility.yul\":1841:1842   */\n      0x00\n        /* \"#utility.yul\":1838:1839   */\n      dup1\n        /* \"#utility.yul\":1831:1843   */\n      revert\n        /* \"#utility.yul\":1782:1845   */\n    tag_47:\n        /* \"#utility.yul\":1729:1851   */\n      pop\n      jump\t// out\n\n    auxdata: 0xa264697066735822122086191ef0087fabb1ff6df002d41efee62ba2a379ee5b9698ea83f9a10abe037b64736f6c63430008070033\n}\n",
				"bytecode": {
					"linkReferences": {},
					"object": "608060405234801561001057600080fd5b506101de806100206000396000f3fe608060405234801561001057600080fd5b50600436106100365760003560e01c80632b0969261461003b578063771602f71461006b575b600080fd5b610055600480360381019061005091906100eb565b61009b565b6040516100629190610167565b60405180910390f35b61008560048036038101906100809190610118565b6100c7565b6040516100929190610167565b60405180910390f35b6000807f3fe6f4f76c7eebcad2c55331438cb22c4b29299885f3791d0543b9db673a2ead905050919050565b60008183018060005260206000f35b6000813590506100e581610191565b92915050565b6000602082840312156101015761010061018c565b5b600061010f848285016100d6565b91505092915050565b6000806040838503121561012f5761012e61018c565b5b600061013d858286016100d6565b925050602061014e858286016100d6565b9150509250929050565b61016181610182565b82525050565b600060208201905061017c6000830184610158565b92915050565b6000819050919050565b600080fd5b61019a81610182565b81146101a557600080fd5b5056fea264697066735822122086191ef0087fabb1ff6df002d41efee62ba2a379ee5b9698ea83f9a10abe037b64736f6c63430008070033",
					"opcodes": "PUSH1 0x80 PUSH1 0x40 MSTORE CALLVALUE DUP1 ISZERO PUSH2 0x10 JUMPI PUSH1 0x0 DUP1 REVERT JUMPDEST POP PUSH2 0x1DE DUP1 PUSH2 0x20 PUSH1 0x0 CODECOPY PUSH1 0x0 RETURN INVALID PUSH1 0x80 PUSH1 0x40 MSTORE CALLVALUE DUP1 ISZERO PUSH2 0x10 JUMPI PUSH1 0x0 DUP1 REVERT JUMPDEST POP PUSH1 0x4 CALLDATASIZE LT PUSH2 0x36 JUMPI PUSH1 0x0 CALLDATALOAD PUSH1 0xE0 SHR DUP1 PUSH4 0x2B096926 EQ PUSH2 0x3B JUMPI DUP1 PUSH4 0x771602F7 EQ PUSH2 0x6B JUMPI JUMPDEST PUSH1 0x0 DUP1 REVERT JUMPDEST PUSH2 0x55 PUSH1 0x4 DUP1 CALLDATASIZE SUB DUP2 ADD SWAP1 PUSH2 0x50 SWAP2 SWAP1 PUSH2 0xEB JUMP JUMPDEST PUSH2 0x9B JUMP JUMPDEST PUSH1 0x40 MLOAD PUSH2 0x62 SWAP2 SWAP1 PUSH2 0x167 JUMP JUMPDEST PUSH1 0x40 MLOAD DUP1 SWAP2 SUB SWAP1 RETURN JUMPDEST PUSH2 0x85 PUSH1 0x4 DUP1 CALLDATASIZE SUB DUP2 ADD SWAP1 PUSH2 0x80 SWAP2 SWAP1 PUSH2 0x118 JUMP JUMPDEST PUSH2 0xC7 JUMP JUMPDEST PUSH1 0x40 MLOAD PUSH2 0x92 SWAP2 SWAP1 PUSH2 0x167 JUMP JUMPDEST PUSH1 0x40 MLOAD DUP1 SWAP2 SUB SWAP1 RETURN JUMPDEST PUSH1 0x0 DUP1 PUSH32 0x3FE6F4F76C7EEBCAD2C55331438CB22C4B29299885F3791D0543B9DB673A2EAD SWAP1 POP POP SWAP2 SWAP1 POP JUMP JUMPDEST PUSH1 0x0 DUP2 DUP4 ADD DUP1 PUSH1 0x0 MSTORE PUSH1 0x20 PUSH1 0x0 RETURN JUMPDEST PUSH1 0x0 DUP2 CALLDATALOAD SWAP1 POP PUSH2 0xE5 DUP2 PUSH2 0x191 JUMP JUMPDEST SWAP3 SWAP2 POP POP JUMP JUMPDEST PUSH1 0x0 PUSH1 0x20 DUP3 DUP5 SUB SLT ISZERO PUSH2 0x101 JUMPI PUSH2 0x100 PUSH2 0x18C JUMP JUMPDEST JUMPDEST PUSH1 0x0 PUSH2 0x10F DUP5 DUP3 DUP6 ADD PUSH2 0xD6 JUMP JUMPDEST SWAP2 POP POP SWAP3 SWAP2 POP POP JUMP JUMPDEST PUSH1 0x0 DUP1 PUSH1 0x40 DUP4 DUP6 SUB SLT ISZERO PUSH2 0x12F JUMPI PUSH2 0x12E PUSH2 0x18C JUMP JUMPDEST JUMPDEST PUSH1 0x0 PUSH2 0x13D DUP6 DUP3 DUP7 ADD PUSH2 0xD6 JUMP JUMPDEST SWAP3 POP POP PUSH1 0x20 PUSH2 0x14E DUP6 DUP3 DUP7 ADD PUSH2 0xD6 JUMP JUMPDEST SWAP2 POP POP SWAP3 POP SWAP3 SWAP1 POP JUMP JUMPDEST PUSH2 0x161 DUP2 PUSH2 0x182 JUMP JUMPDEST DUP3 MSTORE POP POP JUMP JUMPDEST PUSH1 0x0 PUSH1 0x20 DUP3 ADD SWAP1 POP PUSH2 0x17C PUSH1 0x0 DUP4 ADD DUP5 PUSH2 0x158 JUMP JUMPDEST SWAP3 SWAP2 POP POP JUMP JUMPDEST PUSH1 0x0 DUP2 SWAP1 POP SWAP2 SWAP1 POP JUMP JUMPDEST PUSH1 0x0 DUP1 REVERT JUMPDEST PUSH2 0x19A DUP2 PUSH2 0x182 JUMP JUMPDEST DUP2 EQ PUSH2 0x1A5 JUMPI PUSH1 0x0 DUP1 REVERT JUMPDEST POP JUMP INVALID LOG2 PUSH5 0x6970667358 0x22 SLT KECCAK256 DUP7 NOT 0x1E CREATE ADDMOD PUSH32 0xABB1FF6DF002D41EFEE62BA2A379EE5B9698EA83F9A10ABE037B64736F6C6343 STOP ADDMOD SMOD STOP CALLER "
				},
				"gasEstimates": {
					"creation": {
						"codeDepositCost": "95600",
						"executionCost": "141",
						"totalCost": "95741"
					},
					"external": {
						"add(uint256,uint256)": "infinite",
						"call(uint256)": "infinite"
					}
				},
				"methodIdentifiers": {
					"add(uint256,uint256)": "771602f7",
					"call(uint256)": "2b096926"
				}
			},
			"storageLayout": {
				"storage": [],
				"types": null
			},
			"userdoc": {
				"kind": "user",
				"methods": {},
				"version": 1
			}
		}
	}
}