{
	"contracts/16_Dex.sol": {
		"DEX": {
			"abi": [
				{
					"inputs": [],
					"stateMutability": "nonpayable",
					"type": "constructor"
				},
				{
					"anonymous": false,
					"inputs": [
						{
							"indexed": false,
							"internalType": "uint256",
							"name": "amount",
							"type": "uint256"
						}
					],
					"name": "Bought",
					"type": "event"
				},
				{
					"anonymous": false,
					"inputs": [
						{
							"indexed": false,
							"internalType": "uint256",
							"name": "amount",
							"type": "uint256"
						}
					],
					"name": "Sold",
					"type": "event"
				},
				{
					"inputs": [
						{
							"internalType": "uint256",
							"name": "amount",
							"type": "uint256"
						}
					],
					"name": "approve",
					"outputs": [
						{
							"internalType": "bool",
							"name": "",
							"type": "bool"
						}
					],
					"stateMutability": "nonpayable",
					"type": "function"
				},
				{
					"inputs": [],
					"name": "buy",
					"outputs": [],
					"stateMutability": "payable",
					"type": "function"
				},
				{
					"inputs": [],
					"name": "getAddress",
					"outputs": [
						{
							"internalType": "address",
							"name": "",
							"type": "address"
						}
					],
					"stateMutability": "view",
					"type": "function"
				},
				{
					"inputs": [],
					"name": "getAllowance",
					"outputs": [
						{
							"internalType": "uint256",
							"name": "",
							"type": "uint256"
						}
					],
					"stateMutability": "view",
					"type": "function"
				},
				{
					"inputs": [],
					"name": "getDexBalance",
					"outputs": [
						{
							"internalType": "uint256",
							"name": "",
							"type": "uint256"
						}
					],
					"stateMutability": "view",
					"type": "function"
				},
				{
					"inputs": [],
					"name": "getOwnerBalance",
					"outputs": [
						{
							"internalType": "uint256",
							"name": "",
							"type": "uint256"
						}
					],
					"stateMutability": "view",
					"type": "function"
				},
				{
					"inputs": [],
					"name": "getSenderAddress",
					"outputs": [
						{
							"internalType": "address",
							"name": "",
							"type": "address"
						}
					],
					"stateMutability": "view",
					"type": "function"
				},
				{
					"inputs": [],
					"name": "getTokenAddress",
					"outputs": [
						{
							"internalType": "address",
							"name": "",
							"type": "address"
						}
					],
					"stateMutability": "view",
					"type": "function"
				},
				{
					"inputs": [],
					"name": "getTotalSupply",
					"outputs": [
						{
							"internalType": "uint256",
							"name": "",
							"type": "uint256"
						}
					],
					"stateMutability": "view",
					"type": "function"
				},
				{
					"inputs": [
						{
							"internalType": "uint256",
							"name": "amount",
							"type": "uint256"
						}
					],
					"name": "sell",
					"outputs": [],
					"stateMutability": "payable",
					"type": "function"
				},
				{
					"inputs": [],
					"name": "token",
					"outputs": [
						{
							"internalType": "contract IERC20",
							"name": "",
							"type": "address"
						}
					],
					"stateMutability": "view",
					"type": "function"
				}
			],
			"devdoc": {
				"kind": "dev",
				"methods": {},
				"version": 1
			},
			"evm": {
				"assembly": "    /* \"contracts/16_Dex.sol\":3234:5063  contract DEX{... */\n  mstore(0x40, 0x80)\n    /* \"contracts/16_Dex.sol\":3345:3397  constructor(){... */\n  callvalue\n  dup1\n  iszero\n  tag_1\n  jumpi\n  0x00\n  dup1\n  revert\ntag_1:\n  pop\n    /* \"contracts/16_Dex.sol\":3374:3390  new ERC20Basic() */\n  mload(0x40)\n  tag_4\n  swap1\n  tag_5\n  jump\t// in\ntag_4:\n  mload(0x40)\n  dup1\n  swap2\n  sub\n  swap1\n  0x00\n  create\n  dup1\n  iszero\n  dup1\n  iszero\n  tag_6\n  jumpi\n  returndatasize\n  0x00\n  dup1\n  returndatacopy\n  revert(0x00, returndatasize)\ntag_6:\n  pop\n    /* \"contracts/16_Dex.sol\":3368:3373  token */\n  0x00\n  dup1\n    /* \"contracts/16_Dex.sol\":3368:3390  token=new ERC20Basic() */\n  0x0100\n  exp\n  dup2\n  sload\n  dup2\n  0xffffffffffffffffffffffffffffffffffffffff\n  mul\n  not\n  and\n  swap1\n  dup4\n  0xffffffffffffffffffffffffffffffffffffffff\n  and\n  mul\n  or\n  swap1\n  sstore\n  pop\n    /* \"contracts/16_Dex.sol\":3234:5063  contract DEX{... */\n  jump(tag_7)\ntag_5:\n  dataSize(sub_1)\n  dup1\n  dataOffset(sub_1)\n  dup4\n  codecopy\n  add\n  swap1\n  jump\t// out\ntag_7:\n  dataSize(sub_0)\n  dup1\n  dataOffset(sub_0)\n  0x00\n  codecopy\n  0x00\n  return\nstop\n\nsub_0: assembly {\n        /* \"contracts/16_Dex.sol\":3234:5063  contract DEX{... */\n      mstore(0x40, 0x80)\n      jumpi(tag_1, lt(calldatasize, 0x04))\n      shr(0xe0, calldataload(0x00))\n      dup1\n      0x973e9b8b\n      gt\n      tag_13\n      jumpi\n      dup1\n      0x973e9b8b\n      eq\n      tag_7\n      jumpi\n      dup1\n      0xa6f2ae3a\n      eq\n      tag_8\n      jumpi\n      dup1\n      0xb759f954\n      eq\n      tag_9\n      jumpi\n      dup1\n      0xc4e41b22\n      eq\n      tag_10\n      jumpi\n      dup1\n      0xe4849b32\n      eq\n      tag_11\n      jumpi\n      dup1\n      0xfc0c546a\n      eq\n      tag_12\n      jumpi\n      jump(tag_1)\n    tag_13:\n      dup1\n      0x10fe9ae8\n      eq\n      tag_2\n      jumpi\n      dup1\n      0x38cc4831\n      eq\n      tag_3\n      jumpi\n      dup1\n      0x42948e18\n      eq\n      tag_4\n      jumpi\n      dup1\n      0x430f4801\n      eq\n      tag_5\n      jumpi\n      dup1\n      0x590791f2\n      eq\n      tag_6\n      jumpi\n    tag_1:\n      0x00\n      dup1\n      revert\n        /* \"contracts/16_Dex.sol\":4433:4530  function getTokenAddress() public view returns(address){... */\n    tag_2:\n      callvalue\n      dup1\n      iszero\n      tag_14\n      jumpi\n      0x00\n      dup1\n      revert\n    tag_14:\n      pop\n      tag_15\n      tag_16\n      jump\t// in\n    tag_15:\n      mload(0x40)\n      tag_17\n      swap2\n      swap1\n      tag_18\n      jump\t// in\n    tag_17:\n      mload(0x40)\n      dup1\n      swap2\n      sub\n      swap1\n      return\n        /* \"contracts/16_Dex.sol\":4340:4427  function getAddress() public view returns(address){... */\n    tag_3:\n      callvalue\n      dup1\n      iszero\n      tag_19\n      jumpi\n      0x00\n      dup1\n      revert\n    tag_19:\n      pop\n      tag_20\n      tag_21\n      jump\t// in\n    tag_20:\n      mload(0x40)\n      tag_22\n      swap2\n      swap1\n      tag_18\n      jump\t// in\n    tag_22:\n      mload(0x40)\n      dup1\n      swap2\n      sub\n      swap1\n      return\n        /* \"contracts/16_Dex.sol\":4639:4738  function getSenderAddress() public view returns(address){... */\n    tag_4:\n      callvalue\n      dup1\n      iszero\n      tag_23\n      jumpi\n      0x00\n      dup1\n      revert\n    tag_23:\n      pop\n      tag_24\n      tag_25\n      jump\t// in\n    tag_24:\n      mload(0x40)\n      tag_26\n      swap2\n      swap1\n      tag_18\n      jump\t// in\n    tag_26:\n      mload(0x40)\n      dup1\n      swap2\n      sub\n      swap1\n      return\n        /* \"contracts/16_Dex.sol\":4115:4222  function getDexBalance() public view returns(uint256){... */\n    tag_5:\n      callvalue\n      dup1\n      iszero\n      tag_27\n      jumpi\n      0x00\n      dup1\n      revert\n    tag_27:\n      pop\n      tag_28\n      tag_29\n      jump\t// in\n    tag_28:\n      mload(0x40)\n      tag_30\n      swap2\n      swap1\n      tag_31\n      jump\t// in\n    tag_30:\n      mload(0x40)\n      dup1\n      swap2\n      sub\n      swap1\n      return\n        /* \"contracts/16_Dex.sol\":4228:4334  function getOwnerBalance() public view returns(uint256){... */\n    tag_6:\n      callvalue\n      dup1\n      iszero\n      tag_32\n      jumpi\n      0x00\n      dup1\n      revert\n    tag_32:\n      pop\n      tag_33\n      tag_34\n      jump\t// in\n    tag_33:\n      mload(0x40)\n      tag_35\n      swap2\n      swap1\n      tag_31\n      jump\t// in\n    tag_35:\n      mload(0x40)\n      dup1\n      swap2\n      sub\n      swap1\n      return\n        /* \"contracts/16_Dex.sol\":4744:4898  function getAllowance() public view returns(uint256){... */\n    tag_7:\n      callvalue\n      dup1\n      iszero\n      tag_36\n      jumpi\n      0x00\n      dup1\n      revert\n    tag_36:\n      pop\n      tag_37\n      tag_38\n      jump\t// in\n    tag_37:\n      mload(0x40)\n      tag_39\n      swap2\n      swap1\n      tag_31\n      jump\t// in\n    tag_39:\n      mload(0x40)\n      dup1\n      swap2\n      sub\n      swap1\n      return\n        /* \"contracts/16_Dex.sol\":3403:3762  function buy() payable public{... */\n    tag_8:\n      tag_40\n      tag_41\n      jump\t// in\n    tag_40:\n      stop\n        /* \"contracts/16_Dex.sol\":4904:5061  function approve(uint256 amount) public returns(bool){... */\n    tag_9:\n      callvalue\n      dup1\n      iszero\n      tag_42\n      jumpi\n      0x00\n      dup1\n      revert\n    tag_42:\n      pop\n      tag_43\n      0x04\n      dup1\n      calldatasize\n      sub\n      dup2\n      add\n      swap1\n      tag_44\n      swap2\n      swap1\n      tag_45\n      jump\t// in\n    tag_44:\n      tag_46\n      jump\t// in\n    tag_43:\n      mload(0x40)\n      tag_47\n      swap2\n      swap1\n      tag_48\n      jump\t// in\n    tag_47:\n      mload(0x40)\n      dup1\n      swap2\n      sub\n      swap1\n      return\n        /* \"contracts/16_Dex.sol\":4536:4633  function getTotalSupply() public view returns(uint256){... */\n    tag_10:\n      callvalue\n      dup1\n      iszero\n      tag_49\n      jumpi\n      0x00\n      dup1\n      revert\n    tag_49:\n      pop\n      tag_50\n      tag_51\n      jump\t// in\n    tag_50:\n      mload(0x40)\n      tag_52\n      swap2\n      swap1\n      tag_31\n      jump\t// in\n    tag_52:\n      mload(0x40)\n      dup1\n      swap2\n      sub\n      swap1\n      return\n        /* \"contracts/16_Dex.sol\":3768:4109  function sell(uint256 amount) payable public{... */\n    tag_11:\n      tag_53\n      0x04\n      dup1\n      calldatasize\n      sub\n      dup2\n      add\n      swap1\n      tag_54\n      swap2\n      swap1\n      tag_45\n      jump\t// in\n    tag_54:\n      tag_55\n      jump\t// in\n    tag_53:\n      stop\n        /* \"contracts/16_Dex.sol\":3319:3338  IERC20 public token */\n    tag_12:\n      callvalue\n      dup1\n      iszero\n      tag_56\n      jumpi\n      0x00\n      dup1\n      revert\n    tag_56:\n      pop\n      tag_57\n      tag_58\n      jump\t// in\n    tag_57:\n      mload(0x40)\n      tag_59\n      swap2\n      swap1\n      tag_60\n      jump\t// in\n    tag_59:\n      mload(0x40)\n      dup1\n      swap2\n      sub\n      swap1\n      return\n        /* \"contracts/16_Dex.sol\":4433:4530  function getTokenAddress() public view returns(address){... */\n    tag_16:\n        /* \"contracts/16_Dex.sol\":4480:4487  address */\n      0x00\n        /* \"contracts/16_Dex.sol\":4505:4510  token */\n      dup1\n      0x00\n      swap1\n      sload\n      swap1\n      0x0100\n      exp\n      swap1\n      div\n      0xffffffffffffffffffffffffffffffffffffffff\n      and\n        /* \"contracts/16_Dex.sol\":4505:4521  token.getAddress */\n      0xffffffffffffffffffffffffffffffffffffffff\n      and\n      0x38cc4831\n        /* \"contracts/16_Dex.sol\":4505:4523  token.getAddress() */\n      mload(0x40)\n      dup2\n      0xffffffff\n      and\n      0xe0\n      shl\n      dup2\n      mstore\n      0x04\n      add\n      0x20\n      mload(0x40)\n      dup1\n      dup4\n      sub\n      dup2\n      dup7\n      gas\n      staticcall\n      iszero\n      dup1\n      iszero\n      tag_63\n      jumpi\n      returndatasize\n      0x00\n      dup1\n      returndatacopy\n      revert(0x00, returndatasize)\n    tag_63:\n      pop\n      pop\n      pop\n      pop\n      mload(0x40)\n      returndatasize\n      not(0x1f)\n      0x1f\n      dup3\n      add\n      and\n      dup3\n      add\n      dup1\n      0x40\n      mstore\n      pop\n      dup2\n      add\n      swap1\n      tag_64\n      swap2\n      swap1\n      tag_65\n      jump\t// in\n    tag_64:\n        /* \"contracts/16_Dex.sol\":4498:4523  return token.getAddress() */\n      swap1\n      pop\n        /* \"contracts/16_Dex.sol\":4433:4530  function getTokenAddress() public view returns(address){... */\n      swap1\n      jump\t// out\n        /* \"contracts/16_Dex.sol\":4340:4427  function getAddress() public view returns(address){... */\n    tag_21:\n        /* \"contracts/16_Dex.sol\":4382:4389  address */\n      0x00\n        /* \"contracts/16_Dex.sol\":4415:4419  this */\n      address\n        /* \"contracts/16_Dex.sol\":4400:4420  return address(this) */\n      swap1\n      pop\n        /* \"contracts/16_Dex.sol\":4340:4427  function getAddress() public view returns(address){... */\n      swap1\n      jump\t// out\n        /* \"contracts/16_Dex.sol\":4639:4738  function getSenderAddress() public view returns(address){... */\n    tag_25:\n        /* \"contracts/16_Dex.sol\":4687:4694  address */\n      0x00\n        /* \"contracts/16_Dex.sol\":4720:4730  msg.sender */\n      caller\n        /* \"contracts/16_Dex.sol\":4705:4731  return address(msg.sender) */\n      swap1\n      pop\n        /* \"contracts/16_Dex.sol\":4639:4738  function getSenderAddress() public view returns(address){... */\n      swap1\n      jump\t// out\n        /* \"contracts/16_Dex.sol\":4115:4222  function getDexBalance() public view returns(uint256){... */\n    tag_29:\n        /* \"contracts/16_Dex.sol\":4160:4167  uint256 */\n      0x00\n        /* \"contracts/16_Dex.sol\":4185:4190  token */\n      dup1\n      0x00\n      swap1\n      sload\n      swap1\n      0x0100\n      exp\n      swap1\n      div\n      0xffffffffffffffffffffffffffffffffffffffff\n      and\n        /* \"contracts/16_Dex.sol\":4185:4200  token.balanceOf */\n      0xffffffffffffffffffffffffffffffffffffffff\n      and\n      0x70a08231\n        /* \"contracts/16_Dex.sol\":4209:4213  this */\n      address\n        /* \"contracts/16_Dex.sol\":4185:4215  token.balanceOf(address(this)) */\n      mload(0x40)\n      dup3\n      0xffffffff\n      and\n      0xe0\n      shl\n      dup2\n      mstore\n      0x04\n      add\n      tag_69\n      swap2\n      swap1\n      tag_18\n      jump\t// in\n    tag_69:\n      0x20\n      mload(0x40)\n      dup1\n      dup4\n      sub\n      dup2\n      dup7\n      gas\n      staticcall\n      iszero\n      dup1\n      iszero\n      tag_71\n      jumpi\n      returndatasize\n      0x00\n      dup1\n      returndatacopy\n      revert(0x00, returndatasize)\n    tag_71:\n      pop\n      pop\n      pop\n      pop\n      mload(0x40)\n      returndatasize\n      not(0x1f)\n      0x1f\n      dup3\n      add\n      and\n      dup3\n      add\n      dup1\n      0x40\n      mstore\n      pop\n      dup2\n      add\n      swap1\n      tag_72\n      swap2\n      swap1\n      tag_73\n      jump\t// in\n    tag_72:\n        /* \"contracts/16_Dex.sol\":4178:4215  return token.balanceOf(address(this)) */\n      swap1\n      pop\n        /* \"contracts/16_Dex.sol\":4115:4222  function getDexBalance() public view returns(uint256){... */\n      swap1\n      jump\t// out\n        /* \"contracts/16_Dex.sol\":4228:4334  function getOwnerBalance() public view returns(uint256){... */\n    tag_34:\n        /* \"contracts/16_Dex.sol\":4275:4282  uint256 */\n      0x00\n        /* \"contracts/16_Dex.sol\":4300:4305  token */\n      dup1\n      0x00\n      swap1\n      sload\n      swap1\n      0x0100\n      exp\n      swap1\n      div\n      0xffffffffffffffffffffffffffffffffffffffff\n      and\n        /* \"contracts/16_Dex.sol\":4300:4315  token.balanceOf */\n      0xffffffffffffffffffffffffffffffffffffffff\n      and\n      0x70a08231\n        /* \"contracts/16_Dex.sol\":4316:4326  msg.sender */\n      caller\n        /* \"contracts/16_Dex.sol\":4300:4327  token.balanceOf(msg.sender) */\n      mload(0x40)\n      dup3\n      0xffffffff\n      and\n      0xe0\n      shl\n      dup2\n      mstore\n      0x04\n      add\n      tag_75\n      swap2\n      swap1\n      tag_18\n      jump\t// in\n    tag_75:\n      0x20\n      mload(0x40)\n      dup1\n      dup4\n      sub\n      dup2\n      dup7\n      gas\n      staticcall\n      iszero\n      dup1\n      iszero\n      tag_77\n      jumpi\n      returndatasize\n      0x00\n      dup1\n      returndatacopy\n      revert(0x00, returndatasize)\n    tag_77:\n      pop\n      pop\n      pop\n      pop\n      mload(0x40)\n      returndatasize\n      not(0x1f)\n      0x1f\n      dup3\n      add\n      and\n      dup3\n      add\n      dup1\n      0x40\n      mstore\n      pop\n      dup2\n      add\n      swap1\n      tag_78\n      swap2\n      swap1\n      tag_73\n      jump\t// in\n    tag_78:\n        /* \"contracts/16_Dex.sol\":4293:4327  return token.balanceOf(msg.sender) */\n      swap1\n      pop\n        /* \"contracts/16_Dex.sol\":4228:4334  function getOwnerBalance() public view returns(uint256){... */\n      swap1\n      jump\t// out\n        /* \"contracts/16_Dex.sol\":4744:4898  function getAllowance() public view returns(uint256){... */\n    tag_38:\n        /* \"contracts/16_Dex.sol\":4788:4795  uint256 */\n      0x00\n        /* \"contracts/16_Dex.sol\":4806:4823  uint256 allowance */\n      dup1\n        /* \"contracts/16_Dex.sol\":4824:4829  token */\n      0x00\n      dup1\n      sload\n      swap1\n      0x0100\n      exp\n      swap1\n      div\n      0xffffffffffffffffffffffffffffffffffffffff\n      and\n        /* \"contracts/16_Dex.sol\":4824:4839  token.allowance */\n      0xffffffffffffffffffffffffffffffffffffffff\n      and\n      0xdd62ed3e\n        /* \"contracts/16_Dex.sol\":4840:4850  msg.sender */\n      caller\n        /* \"contracts/16_Dex.sol\":4859:4863  this */\n      address\n        /* \"contracts/16_Dex.sol\":4824:4865  token.allowance(msg.sender,address(this)) */\n      mload(0x40)\n      dup4\n      0xffffffff\n      and\n      0xe0\n      shl\n      dup2\n      mstore\n      0x04\n      add\n      tag_80\n      swap3\n      swap2\n      swap1\n      tag_81\n      jump\t// in\n    tag_80:\n      0x20\n      mload(0x40)\n      dup1\n      dup4\n      sub\n      dup2\n      dup7\n      gas\n      staticcall\n      iszero\n      dup1\n      iszero\n      tag_83\n      jumpi\n      returndatasize\n      0x00\n      dup1\n      returndatacopy\n      revert(0x00, returndatasize)\n    tag_83:\n      pop\n      pop\n      pop\n      pop\n      mload(0x40)\n      returndatasize\n      not(0x1f)\n      0x1f\n      dup3\n      add\n      and\n      dup3\n      add\n      dup1\n      0x40\n      mstore\n      pop\n      dup2\n      add\n      swap1\n      tag_84\n      swap2\n      swap1\n      tag_73\n      jump\t// in\n    tag_84:\n        /* \"contracts/16_Dex.sol\":4806:4865  uint256 allowance=token.allowance(msg.sender,address(this)) */\n      swap1\n      pop\n        /* \"contracts/16_Dex.sol\":4882:4891  allowance */\n      dup1\n        /* \"contracts/16_Dex.sol\":4875:4891  return allowance */\n      swap2\n      pop\n      pop\n        /* \"contracts/16_Dex.sol\":4744:4898  function getAllowance() public view returns(uint256){... */\n      swap1\n      jump\t// out\n        /* \"contracts/16_Dex.sol\":3403:3762  function buy() payable public{... */\n    tag_41:\n        /* \"contracts/16_Dex.sol\":3442:3461  uint256 amountToBuy */\n      0x00\n        /* \"contracts/16_Dex.sol\":3462:3471  msg.value */\n      callvalue\n        /* \"contracts/16_Dex.sol\":3442:3471  uint256 amountToBuy=msg.value */\n      swap1\n      pop\n        /* \"contracts/16_Dex.sol\":3481:3499  uint256 dexBalance */\n      0x00\n        /* \"contracts/16_Dex.sol\":3500:3505  token */\n      dup1\n      0x00\n      swap1\n      sload\n      swap1\n      0x0100\n      exp\n      swap1\n      div\n      0xffffffffffffffffffffffffffffffffffffffff\n      and\n        /* \"contracts/16_Dex.sol\":3500:3515  token.balanceOf */\n      0xffffffffffffffffffffffffffffffffffffffff\n      and\n      0x70a08231\n        /* \"contracts/16_Dex.sol\":3524:3528  this */\n      address\n        /* \"contracts/16_Dex.sol\":3500:3530  token.balanceOf(address(this)) */\n      mload(0x40)\n      dup3\n      0xffffffff\n      and\n      0xe0\n      shl\n      dup2\n      mstore\n      0x04\n      add\n      tag_86\n      swap2\n      swap1\n      tag_18\n      jump\t// in\n    tag_86:\n      0x20\n      mload(0x40)\n      dup1\n      dup4\n      sub\n      dup2\n      dup7\n      gas\n      staticcall\n      iszero\n      dup1\n      iszero\n      tag_88\n      jumpi\n      returndatasize\n      0x00\n      dup1\n      returndatacopy\n      revert(0x00, returndatasize)\n    tag_88:\n      pop\n      pop\n      pop\n      pop\n      mload(0x40)\n      returndatasize\n      not(0x1f)\n      0x1f\n      dup3\n      add\n      and\n      dup3\n      add\n      dup1\n      0x40\n      mstore\n      pop\n      dup2\n      add\n      swap1\n      tag_89\n      swap2\n      swap1\n      tag_73\n      jump\t// in\n    tag_89:\n        /* \"contracts/16_Dex.sol\":3481:3530  uint256 dexBalance=token.balanceOf(address(this)) */\n      swap1\n      pop\n        /* \"contracts/16_Dex.sol\":3560:3561  0 */\n      0x00\n        /* \"contracts/16_Dex.sol\":3548:3559  amountToBuy */\n      dup3\n        /* \"contracts/16_Dex.sol\":3548:3561  amountToBuy>0 */\n      gt\n        /* \"contracts/16_Dex.sol\":3540:3594  require(amountToBuy>0, \"You need to send some ether!\") */\n      tag_90\n      jumpi\n      mload(0x40)\n      0x08c379a000000000000000000000000000000000000000000000000000000000\n      dup2\n      mstore\n      0x04\n      add\n      tag_91\n      swap1\n      tag_92\n      jump\t// in\n    tag_91:\n      mload(0x40)\n      dup1\n      swap2\n      sub\n      swap1\n      revert\n    tag_90:\n        /* \"contracts/16_Dex.sol\":3625:3635  dexBalance */\n      dup1\n        /* \"contracts/16_Dex.sol\":3612:3623  amountToBuy */\n      dup3\n        /* \"contracts/16_Dex.sol\":3612:3635  amountToBuy<=dexBalance */\n      gt\n      iszero\n        /* \"contracts/16_Dex.sol\":3604:3673  require(amountToBuy<=dexBalance, \"Not enough tokens in the reverse!\") */\n      tag_93\n      jumpi\n      mload(0x40)\n      0x08c379a000000000000000000000000000000000000000000000000000000000\n      dup2\n      mstore\n      0x04\n      add\n      tag_94\n      swap1\n      tag_95\n      jump\t// in\n    tag_94:\n      mload(0x40)\n      dup1\n      swap2\n      sub\n      swap1\n      revert\n    tag_93:\n        /* \"contracts/16_Dex.sol\":3683:3688  token */\n      0x00\n      dup1\n      sload\n      swap1\n      0x0100\n      exp\n      swap1\n      div\n      0xffffffffffffffffffffffffffffffffffffffff\n      and\n        /* \"contracts/16_Dex.sol\":3683:3697  token.transfer */\n      0xffffffffffffffffffffffffffffffffffffffff\n      and\n      0xa9059cbb\n        /* \"contracts/16_Dex.sol\":3698:3708  msg.sender */\n      caller\n        /* \"contracts/16_Dex.sol\":3709:3720  amountToBuy */\n      dup5\n        /* \"contracts/16_Dex.sol\":3683:3721  token.transfer(msg.sender,amountToBuy) */\n      mload(0x40)\n      dup4\n      0xffffffff\n      and\n      0xe0\n      shl\n      dup2\n      mstore\n      0x04\n      add\n      tag_96\n      swap3\n      swap2\n      swap1\n      tag_97\n      jump\t// in\n    tag_96:\n      0x20\n      mload(0x40)\n      dup1\n      dup4\n      sub\n      dup2\n      0x00\n      dup8\n      gas\n      call\n      iszero\n      dup1\n      iszero\n      tag_99\n      jumpi\n      returndatasize\n      0x00\n      dup1\n      returndatacopy\n      revert(0x00, returndatasize)\n    tag_99:\n      pop\n      pop\n      pop\n      pop\n      mload(0x40)\n      returndatasize\n      not(0x1f)\n      0x1f\n      dup3\n      add\n      and\n      dup3\n      add\n      dup1\n      0x40\n      mstore\n      pop\n      dup2\n      add\n      swap1\n      tag_100\n      swap2\n      swap1\n      tag_101\n      jump\t// in\n    tag_100:\n      pop\n        /* \"contracts/16_Dex.sol\":3736:3755  Bought(amountToBuy) */\n      0x4e08ba899977cf7d4c2964bce71c6b9a7ef76ee5166a4c1249a1e08016e33ef1\n        /* \"contracts/16_Dex.sol\":3743:3754  amountToBuy */\n      dup3\n        /* \"contracts/16_Dex.sol\":3736:3755  Bought(amountToBuy) */\n      mload(0x40)\n      tag_102\n      swap2\n      swap1\n      tag_31\n      jump\t// in\n    tag_102:\n      mload(0x40)\n      dup1\n      swap2\n      sub\n      swap1\n      log1\n        /* \"contracts/16_Dex.sol\":3432:3762  {... */\n      pop\n      pop\n        /* \"contracts/16_Dex.sol\":3403:3762  function buy() payable public{... */\n      jump\t// out\n        /* \"contracts/16_Dex.sol\":4904:5061  function approve(uint256 amount) public returns(bool){... */\n    tag_46:\n        /* \"contracts/16_Dex.sol\":4952:4956  bool */\n      0x00\n        /* \"contracts/16_Dex.sol\":4967:4981  bool isApprove */\n      dup1\n        /* \"contracts/16_Dex.sol\":4982:4987  token */\n      0x00\n      dup1\n      sload\n      swap1\n      0x0100\n      exp\n      swap1\n      div\n      0xffffffffffffffffffffffffffffffffffffffff\n      and\n        /* \"contracts/16_Dex.sol\":4982:4995  token.approve */\n      0xffffffffffffffffffffffffffffffffffffffff\n      and\n      0xe1f21c67\n        /* \"contracts/16_Dex.sol\":4996:5006  msg.sender */\n      caller\n        /* \"contracts/16_Dex.sol\":5015:5019  this */\n      address\n        /* \"contracts/16_Dex.sol\":5021:5027  amount */\n      dup7\n        /* \"contracts/16_Dex.sol\":4982:5028  token.approve(msg.sender,address(this),amount) */\n      mload(0x40)\n      dup5\n      0xffffffff\n      and\n      0xe0\n      shl\n      dup2\n      mstore\n      0x04\n      add\n      tag_104\n      swap4\n      swap3\n      swap2\n      swap1\n      tag_105\n      jump\t// in\n    tag_104:\n      0x20\n      mload(0x40)\n      dup1\n      dup4\n      sub\n      dup2\n      0x00\n      dup8\n      gas\n      call\n      iszero\n      dup1\n      iszero\n      tag_107\n      jumpi\n      returndatasize\n      0x00\n      dup1\n      returndatacopy\n      revert(0x00, returndatasize)\n    tag_107:\n      pop\n      pop\n      pop\n      pop\n      mload(0x40)\n      returndatasize\n      not(0x1f)\n      0x1f\n      dup3\n      add\n      and\n      dup3\n      add\n      dup1\n      0x40\n      mstore\n      pop\n      dup2\n      add\n      swap1\n      tag_108\n      swap2\n      swap1\n      tag_101\n      jump\t// in\n    tag_108:\n        /* \"contracts/16_Dex.sol\":4967:5028  bool isApprove=token.approve(msg.sender,address(this),amount) */\n      swap1\n      pop\n        /* \"contracts/16_Dex.sol\":5045:5054  isApprove */\n      dup1\n        /* \"contracts/16_Dex.sol\":5038:5054  return isApprove */\n      swap2\n      pop\n      pop\n        /* \"contracts/16_Dex.sol\":4904:5061  function approve(uint256 amount) public returns(bool){... */\n      swap2\n      swap1\n      pop\n      jump\t// out\n        /* \"contracts/16_Dex.sol\":4536:4633  function getTotalSupply() public view returns(uint256){... */\n    tag_51:\n        /* \"contracts/16_Dex.sol\":4582:4589  uint256 */\n      0x00\n        /* \"contracts/16_Dex.sol\":4607:4612  token */\n      dup1\n      0x00\n      swap1\n      sload\n      swap1\n      0x0100\n      exp\n      swap1\n      div\n      0xffffffffffffffffffffffffffffffffffffffff\n      and\n        /* \"contracts/16_Dex.sol\":4607:4624  token.totalSupply */\n      0xffffffffffffffffffffffffffffffffffffffff\n      and\n      0x18160ddd\n        /* \"contracts/16_Dex.sol\":4607:4626  token.totalSupply() */\n      mload(0x40)\n      dup2\n      0xffffffff\n      and\n      0xe0\n      shl\n      dup2\n      mstore\n      0x04\n      add\n      0x20\n      mload(0x40)\n      dup1\n      dup4\n      sub\n      dup2\n      dup7\n      gas\n      staticcall\n      iszero\n      dup1\n      iszero\n      tag_111\n      jumpi\n      returndatasize\n      0x00\n      dup1\n      returndatacopy\n      revert(0x00, returndatasize)\n    tag_111:\n      pop\n      pop\n      pop\n      pop\n      mload(0x40)\n      returndatasize\n      not(0x1f)\n      0x1f\n      dup3\n      add\n      and\n      dup3\n      add\n      dup1\n      0x40\n      mstore\n      pop\n      dup2\n      add\n      swap1\n      tag_112\n      swap2\n      swap1\n      tag_73\n      jump\t// in\n    tag_112:\n        /* \"contracts/16_Dex.sol\":4600:4626  return token.totalSupply() */\n      swap1\n      pop\n        /* \"contracts/16_Dex.sol\":4536:4633  function getTotalSupply() public view returns(uint256){... */\n      swap1\n      jump\t// out\n        /* \"contracts/16_Dex.sol\":3768:4109  function sell(uint256 amount) payable public{... */\n    tag_55:\n        /* \"contracts/16_Dex.sol\":3837:3838  0 */\n      0x00\n        /* \"contracts/16_Dex.sol\":3830:3836  amount */\n      dup2\n        /* \"contracts/16_Dex.sol\":3830:3838  amount>0 */\n      gt\n        /* \"contracts/16_Dex.sol\":3822:3877  require(amount>0, \"You need to sell at least 1 token!\") */\n      tag_114\n      jumpi\n      mload(0x40)\n      0x08c379a000000000000000000000000000000000000000000000000000000000\n      dup2\n      mstore\n      0x04\n      add\n      tag_115\n      swap1\n      tag_116\n      jump\t// in\n    tag_115:\n      mload(0x40)\n      dup1\n      swap2\n      sub\n      swap1\n      revert\n    tag_114:\n        /* \"contracts/16_Dex.sol\":3888:3905  uint256 allowance */\n      0x00\n        /* \"contracts/16_Dex.sol\":3907:3912  token */\n      dup1\n      0x00\n      swap1\n      sload\n      swap1\n      0x0100\n      exp\n      swap1\n      div\n      0xffffffffffffffffffffffffffffffffffffffff\n      and\n        /* \"contracts/16_Dex.sol\":3907:3922  token.allowance */\n      0xffffffffffffffffffffffffffffffffffffffff\n      and\n      0xdd62ed3e\n        /* \"contracts/16_Dex.sol\":3923:3933  msg.sender */\n      caller\n        /* \"contracts/16_Dex.sol\":3942:3946  this */\n      address\n        /* \"contracts/16_Dex.sol\":3907:3948  token.allowance(msg.sender,address(this)) */\n      mload(0x40)\n      dup4\n      0xffffffff\n      and\n      0xe0\n      shl\n      dup2\n      mstore\n      0x04\n      add\n      tag_117\n      swap3\n      swap2\n      swap1\n      tag_81\n      jump\t// in\n    tag_117:\n      0x20\n      mload(0x40)\n      dup1\n      dup4\n      sub\n      dup2\n      dup7\n      gas\n      staticcall\n      iszero\n      dup1\n      iszero\n      tag_119\n      jumpi\n      returndatasize\n      0x00\n      dup1\n      returndatacopy\n      revert(0x00, returndatasize)\n    tag_119:\n      pop\n      pop\n      pop\n      pop\n      mload(0x40)\n      returndatasize\n      not(0x1f)\n      0x1f\n      dup3\n      add\n      and\n      dup3\n      add\n      dup1\n      0x40\n      mstore\n      pop\n      dup2\n      add\n      swap1\n      tag_120\n      swap2\n      swap1\n      tag_73\n      jump\t// in\n    tag_120:\n        /* \"contracts/16_Dex.sol\":3888:3948  uint256 allowance =token.allowance(msg.sender,address(this)) */\n      swap1\n      pop\n        /* \"contracts/16_Dex.sol\":3977:3983  amount */\n      dup2\n        /* \"contracts/16_Dex.sol\":3966:3975  allowance */\n      dup2\n        /* \"contracts/16_Dex.sol\":3966:3983  allowance>=amount */\n      lt\n      iszero\n        /* \"contracts/16_Dex.sol\":3958:4013  require(allowance>=amount,\"Check the token allowance!\") */\n      tag_121\n      jumpi\n      mload(0x40)\n      0x08c379a000000000000000000000000000000000000000000000000000000000\n      dup2\n      mstore\n      0x04\n      add\n      tag_122\n      swap1\n      tag_123\n      jump\t// in\n    tag_122:\n      mload(0x40)\n      dup1\n      swap2\n      sub\n      swap1\n      revert\n    tag_121:\n        /* \"contracts/16_Dex.sol\":4024:4029  token */\n      0x00\n      dup1\n      sload\n      swap1\n      0x0100\n      exp\n      swap1\n      div\n      0xffffffffffffffffffffffffffffffffffffffff\n      and\n        /* \"contracts/16_Dex.sol\":4024:4042  token.transferFrom */\n      0xffffffffffffffffffffffffffffffffffffffff\n      and\n      0x23b872dd\n        /* \"contracts/16_Dex.sol\":4043:4053  msg.sender */\n      caller\n        /* \"contracts/16_Dex.sol\":4062:4066  this */\n      address\n        /* \"contracts/16_Dex.sol\":4068:4074  amount */\n      dup6\n        /* \"contracts/16_Dex.sol\":4024:4075  token.transferFrom(msg.sender,address(this),amount) */\n      mload(0x40)\n      dup5\n      0xffffffff\n      and\n      0xe0\n      shl\n      dup2\n      mstore\n      0x04\n      add\n      tag_124\n      swap4\n      swap3\n      swap2\n      swap1\n      tag_105\n      jump\t// in\n    tag_124:\n      0x20\n      mload(0x40)\n      dup1\n      dup4\n      sub\n      dup2\n      0x00\n      dup8\n      gas\n      call\n      iszero\n      dup1\n      iszero\n      tag_126\n      jumpi\n      returndatasize\n      0x00\n      dup1\n      returndatacopy\n      revert(0x00, returndatasize)\n    tag_126:\n      pop\n      pop\n      pop\n      pop\n      mload(0x40)\n      returndatasize\n      not(0x1f)\n      0x1f\n      dup3\n      add\n      and\n      dup3\n      add\n      dup1\n      0x40\n      mstore\n      pop\n      dup2\n      add\n      swap1\n      tag_127\n      swap2\n      swap1\n      tag_101\n      jump\t// in\n    tag_127:\n      pop\n        /* \"contracts/16_Dex.sol\":4090:4102  Sold(amount) */\n      0x92f64ca637d023f354075a4be751b169c1a8a9ccb6d33cdd0cb3520543995727\n        /* \"contracts/16_Dex.sol\":4095:4101  amount */\n      dup3\n        /* \"contracts/16_Dex.sol\":4090:4102  Sold(amount) */\n      mload(0x40)\n      tag_128\n      swap2\n      swap1\n      tag_31\n      jump\t// in\n    tag_128:\n      mload(0x40)\n      dup1\n      swap2\n      sub\n      swap1\n      log1\n        /* \"contracts/16_Dex.sol\":3812:4109  {... */\n      pop\n        /* \"contracts/16_Dex.sol\":3768:4109  function sell(uint256 amount) payable public{... */\n      pop\n      jump\t// out\n        /* \"contracts/16_Dex.sol\":3319:3338  IERC20 public token */\n    tag_58:\n      0x00\n      dup1\n      sload\n      swap1\n      0x0100\n      exp\n      swap1\n      div\n      0xffffffffffffffffffffffffffffffffffffffff\n      and\n      dup2\n      jump\t// out\n        /* \"#utility.yul\":7:133   */\n    tag_129:\n        /* \"#utility.yul\":44:51   */\n      0x00\n        /* \"#utility.yul\":84:126   */\n      0xffffffffffffffffffffffffffffffffffffffff\n        /* \"#utility.yul\":77:82   */\n      dup3\n        /* \"#utility.yul\":73:127   */\n      and\n        /* \"#utility.yul\":62:127   */\n      swap1\n      pop\n        /* \"#utility.yul\":7:133   */\n      swap2\n      swap1\n      pop\n      jump\t// out\n        /* \"#utility.yul\":139:235   */\n    tag_130:\n        /* \"#utility.yul\":176:183   */\n      0x00\n        /* \"#utility.yul\":205:229   */\n      tag_163\n        /* \"#utility.yul\":223:228   */\n      dup3\n        /* \"#utility.yul\":205:229   */\n      tag_129\n      jump\t// in\n    tag_163:\n        /* \"#utility.yul\":194:229   */\n      swap1\n      pop\n        /* \"#utility.yul\":139:235   */\n      swap2\n      swap1\n      pop\n      jump\t// out\n        /* \"#utility.yul\":241:359   */\n    tag_131:\n        /* \"#utility.yul\":328:352   */\n      tag_165\n        /* \"#utility.yul\":346:351   */\n      dup2\n        /* \"#utility.yul\":328:352   */\n      tag_130\n      jump\t// in\n    tag_165:\n        /* \"#utility.yul\":323:326   */\n      dup3\n        /* \"#utility.yul\":316:353   */\n      mstore\n        /* \"#utility.yul\":241:359   */\n      pop\n      pop\n      jump\t// out\n        /* \"#utility.yul\":365:587   */\n    tag_18:\n        /* \"#utility.yul\":458:462   */\n      0x00\n        /* \"#utility.yul\":496:498   */\n      0x20\n        /* \"#utility.yul\":485:494   */\n      dup3\n        /* \"#utility.yul\":481:499   */\n      add\n        /* \"#utility.yul\":473:499   */\n      swap1\n      pop\n        /* \"#utility.yul\":509:580   */\n      tag_167\n        /* \"#utility.yul\":577:578   */\n      0x00\n        /* \"#utility.yul\":566:575   */\n      dup4\n        /* \"#utility.yul\":562:579   */\n      add\n        /* \"#utility.yul\":553:559   */\n      dup5\n        /* \"#utility.yul\":509:580   */\n      tag_131\n      jump\t// in\n    tag_167:\n        /* \"#utility.yul\":365:587   */\n      swap3\n      swap2\n      pop\n      pop\n      jump\t// out\n        /* \"#utility.yul\":593:670   */\n    tag_132:\n        /* \"#utility.yul\":630:637   */\n      0x00\n        /* \"#utility.yul\":659:664   */\n      dup2\n        /* \"#utility.yul\":648:664   */\n      swap1\n      pop\n        /* \"#utility.yul\":593:670   */\n      swap2\n      swap1\n      pop\n      jump\t// out\n        /* \"#utility.yul\":676:794   */\n    tag_133:\n        /* \"#utility.yul\":763:787   */\n      tag_170\n        /* \"#utility.yul\":781:786   */\n      dup2\n        /* \"#utility.yul\":763:787   */\n      tag_132\n      jump\t// in\n    tag_170:\n        /* \"#utility.yul\":758:761   */\n      dup3\n        /* \"#utility.yul\":751:788   */\n      mstore\n        /* \"#utility.yul\":676:794   */\n      pop\n      pop\n      jump\t// out\n        /* \"#utility.yul\":800:1022   */\n    tag_31:\n        /* \"#utility.yul\":893:897   */\n      0x00\n        /* \"#utility.yul\":931:933   */\n      0x20\n        /* \"#utility.yul\":920:929   */\n      dup3\n        /* \"#utility.yul\":916:934   */\n      add\n        /* \"#utility.yul\":908:934   */\n      swap1\n      pop\n        /* \"#utility.yul\":944:1015   */\n      tag_172\n        /* \"#utility.yul\":1012:1013   */\n      0x00\n        /* \"#utility.yul\":1001:1010   */\n      dup4\n        /* \"#utility.yul\":997:1014   */\n      add\n        /* \"#utility.yul\":988:994   */\n      dup5\n        /* \"#utility.yul\":944:1015   */\n      tag_133\n      jump\t// in\n    tag_172:\n        /* \"#utility.yul\":800:1022   */\n      swap3\n      swap2\n      pop\n      pop\n      jump\t// out\n        /* \"#utility.yul\":1109:1226   */\n    tag_135:\n        /* \"#utility.yul\":1218:1219   */\n      0x00\n        /* \"#utility.yul\":1215:1216   */\n      dup1\n        /* \"#utility.yul\":1208:1220   */\n      revert\n        /* \"#utility.yul\":1355:1477   */\n    tag_137:\n        /* \"#utility.yul\":1428:1452   */\n      tag_177\n        /* \"#utility.yul\":1446:1451   */\n      dup2\n        /* \"#utility.yul\":1428:1452   */\n      tag_132\n      jump\t// in\n    tag_177:\n        /* \"#utility.yul\":1421:1426   */\n      dup2\n        /* \"#utility.yul\":1418:1453   */\n      eq\n        /* \"#utility.yul\":1408:1471   */\n      tag_178\n      jumpi\n        /* \"#utility.yul\":1467:1468   */\n      0x00\n        /* \"#utility.yul\":1464:1465   */\n      dup1\n        /* \"#utility.yul\":1457:1469   */\n      revert\n        /* \"#utility.yul\":1408:1471   */\n    tag_178:\n        /* \"#utility.yul\":1355:1477   */\n      pop\n      jump\t// out\n        /* \"#utility.yul\":1483:1622   */\n    tag_138:\n        /* \"#utility.yul\":1529:1534   */\n      0x00\n        /* \"#utility.yul\":1567:1573   */\n      dup2\n        /* \"#utility.yul\":1554:1574   */\n      calldataload\n        /* \"#utility.yul\":1545:1574   */\n      swap1\n      pop\n        /* \"#utility.yul\":1583:1616   */\n      tag_180\n        /* \"#utility.yul\":1610:1615   */\n      dup2\n        /* \"#utility.yul\":1583:1616   */\n      tag_137\n      jump\t// in\n    tag_180:\n        /* \"#utility.yul\":1483:1622   */\n      swap3\n      swap2\n      pop\n      pop\n      jump\t// out\n        /* \"#utility.yul\":1628:1957   */\n    tag_45:\n        /* \"#utility.yul\":1687:1693   */\n      0x00\n        /* \"#utility.yul\":1736:1738   */\n      0x20\n        /* \"#utility.yul\":1724:1733   */\n      dup3\n        /* \"#utility.yul\":1715:1722   */\n      dup5\n        /* \"#utility.yul\":1711:1734   */\n      sub\n        /* \"#utility.yul\":1707:1739   */\n      slt\n        /* \"#utility.yul\":1704:1823   */\n      iszero\n      tag_182\n      jumpi\n        /* \"#utility.yul\":1742:1821   */\n      tag_183\n      tag_135\n      jump\t// in\n    tag_183:\n        /* \"#utility.yul\":1704:1823   */\n    tag_182:\n        /* \"#utility.yul\":1862:1863   */\n      0x00\n        /* \"#utility.yul\":1887:1940   */\n      tag_184\n        /* \"#utility.yul\":1932:1939   */\n      dup5\n        /* \"#utility.yul\":1923:1929   */\n      dup3\n        /* \"#utility.yul\":1912:1921   */\n      dup6\n        /* \"#utility.yul\":1908:1930   */\n      add\n        /* \"#utility.yul\":1887:1940   */\n      tag_138\n      jump\t// in\n    tag_184:\n        /* \"#utility.yul\":1877:1940   */\n      swap2\n      pop\n        /* \"#utility.yul\":1833:1950   */\n      pop\n        /* \"#utility.yul\":1628:1957   */\n      swap3\n      swap2\n      pop\n      pop\n      jump\t// out\n        /* \"#utility.yul\":1963:2053   */\n    tag_139:\n        /* \"#utility.yul\":1997:2004   */\n      0x00\n        /* \"#utility.yul\":2040:2045   */\n      dup2\n        /* \"#utility.yul\":2033:2046   */\n      iszero\n        /* \"#utility.yul\":2026:2047   */\n      iszero\n        /* \"#utility.yul\":2015:2047   */\n      swap1\n      pop\n        /* \"#utility.yul\":1963:2053   */\n      swap2\n      swap1\n      pop\n      jump\t// out\n        /* \"#utility.yul\":2059:2168   */\n    tag_140:\n        /* \"#utility.yul\":2140:2161   */\n      tag_187\n        /* \"#utility.yul\":2155:2160   */\n      dup2\n        /* \"#utility.yul\":2140:2161   */\n      tag_139\n      jump\t// in\n    tag_187:\n        /* \"#utility.yul\":2135:2138   */\n      dup3\n        /* \"#utility.yul\":2128:2162   */\n      mstore\n        /* \"#utility.yul\":2059:2168   */\n      pop\n      pop\n      jump\t// out\n        /* \"#utility.yul\":2174:2384   */\n    tag_48:\n        /* \"#utility.yul\":2261:2265   */\n      0x00\n        /* \"#utility.yul\":2299:2301   */\n      0x20\n        /* \"#utility.yul\":2288:2297   */\n      dup3\n        /* \"#utility.yul\":2284:2302   */\n      add\n        /* \"#utility.yul\":2276:2302   */\n      swap1\n      pop\n        /* \"#utility.yul\":2312:2377   */\n      tag_189\n        /* \"#utility.yul\":2374:2375   */\n      0x00\n        /* \"#utility.yul\":2363:2372   */\n      dup4\n        /* \"#utility.yul\":2359:2376   */\n      add\n        /* \"#utility.yul\":2350:2356   */\n      dup5\n        /* \"#utility.yul\":2312:2377   */\n      tag_140\n      jump\t// in\n    tag_189:\n        /* \"#utility.yul\":2174:2384   */\n      swap3\n      swap2\n      pop\n      pop\n      jump\t// out\n        /* \"#utility.yul\":2390:2450   */\n    tag_141:\n        /* \"#utility.yul\":2418:2421   */\n      0x00\n        /* \"#utility.yul\":2439:2444   */\n      dup2\n        /* \"#utility.yul\":2432:2444   */\n      swap1\n      pop\n        /* \"#utility.yul\":2390:2450   */\n      swap2\n      swap1\n      pop\n      jump\t// out\n        /* \"#utility.yul\":2456:2598   */\n    tag_142:\n        /* \"#utility.yul\":2506:2515   */\n      0x00\n        /* \"#utility.yul\":2539:2592   */\n      tag_192\n        /* \"#utility.yul\":2557:2591   */\n      tag_193\n        /* \"#utility.yul\":2566:2590   */\n      tag_194\n        /* \"#utility.yul\":2584:2589   */\n      dup5\n        /* \"#utility.yul\":2566:2590   */\n      tag_129\n      jump\t// in\n    tag_194:\n        /* \"#utility.yul\":2557:2591   */\n      tag_141\n      jump\t// in\n    tag_193:\n        /* \"#utility.yul\":2539:2592   */\n      tag_129\n      jump\t// in\n    tag_192:\n        /* \"#utility.yul\":2526:2592   */\n      swap1\n      pop\n        /* \"#utility.yul\":2456:2598   */\n      swap2\n      swap1\n      pop\n      jump\t// out\n        /* \"#utility.yul\":2604:2730   */\n    tag_143:\n        /* \"#utility.yul\":2654:2663   */\n      0x00\n        /* \"#utility.yul\":2687:2724   */\n      tag_196\n        /* \"#utility.yul\":2718:2723   */\n      dup3\n        /* \"#utility.yul\":2687:2724   */\n      tag_142\n      jump\t// in\n    tag_196:\n        /* \"#utility.yul\":2674:2724   */\n      swap1\n      pop\n        /* \"#utility.yul\":2604:2730   */\n      swap2\n      swap1\n      pop\n      jump\t// out\n        /* \"#utility.yul\":2736:2876   */\n    tag_144:\n        /* \"#utility.yul\":2800:2809   */\n      0x00\n        /* \"#utility.yul\":2833:2870   */\n      tag_198\n        /* \"#utility.yul\":2864:2869   */\n      dup3\n        /* \"#utility.yul\":2833:2870   */\n      tag_143\n      jump\t// in\n    tag_198:\n        /* \"#utility.yul\":2820:2870   */\n      swap1\n      pop\n        /* \"#utility.yul\":2736:2876   */\n      swap2\n      swap1\n      pop\n      jump\t// out\n        /* \"#utility.yul\":2882:3041   */\n    tag_145:\n        /* \"#utility.yul\":2983:3034   */\n      tag_200\n        /* \"#utility.yul\":3028:3033   */\n      dup2\n        /* \"#utility.yul\":2983:3034   */\n      tag_144\n      jump\t// in\n    tag_200:\n        /* \"#utility.yul\":2978:2981   */\n      dup3\n        /* \"#utility.yul\":2971:3035   */\n      mstore\n        /* \"#utility.yul\":2882:3041   */\n      pop\n      pop\n      jump\t// out\n        /* \"#utility.yul\":3047:3297   */\n    tag_60:\n        /* \"#utility.yul\":3154:3158   */\n      0x00\n        /* \"#utility.yul\":3192:3194   */\n      0x20\n        /* \"#utility.yul\":3181:3190   */\n      dup3\n        /* \"#utility.yul\":3177:3195   */\n      add\n        /* \"#utility.yul\":3169:3195   */\n      swap1\n      pop\n        /* \"#utility.yul\":3205:3290   */\n      tag_202\n        /* \"#utility.yul\":3287:3288   */\n      0x00\n        /* \"#utility.yul\":3276:3285   */\n      dup4\n        /* \"#utility.yul\":3272:3289   */\n      add\n        /* \"#utility.yul\":3263:3269   */\n      dup5\n        /* \"#utility.yul\":3205:3290   */\n      tag_145\n      jump\t// in\n    tag_202:\n        /* \"#utility.yul\":3047:3297   */\n      swap3\n      swap2\n      pop\n      pop\n      jump\t// out\n        /* \"#utility.yul\":3303:3425   */\n    tag_146:\n        /* \"#utility.yul\":3376:3400   */\n      tag_204\n        /* \"#utility.yul\":3394:3399   */\n      dup2\n        /* \"#utility.yul\":3376:3400   */\n      tag_130\n      jump\t// in\n    tag_204:\n        /* \"#utility.yul\":3369:3374   */\n      dup2\n        /* \"#utility.yul\":3366:3401   */\n      eq\n        /* \"#utility.yul\":3356:3419   */\n      tag_205\n      jumpi\n        /* \"#utility.yul\":3415:3416   */\n      0x00\n        /* \"#utility.yul\":3412:3413   */\n      dup1\n        /* \"#utility.yul\":3405:3417   */\n      revert\n        /* \"#utility.yul\":3356:3419   */\n    tag_205:\n        /* \"#utility.yul\":3303:3425   */\n      pop\n      jump\t// out\n        /* \"#utility.yul\":3431:3574   */\n    tag_147:\n        /* \"#utility.yul\":3488:3493   */\n      0x00\n        /* \"#utility.yul\":3519:3525   */\n      dup2\n        /* \"#utility.yul\":3513:3526   */\n      mload\n        /* \"#utility.yul\":3504:3526   */\n      swap1\n      pop\n        /* \"#utility.yul\":3535:3568   */\n      tag_207\n        /* \"#utility.yul\":3562:3567   */\n      dup2\n        /* \"#utility.yul\":3535:3568   */\n      tag_146\n      jump\t// in\n    tag_207:\n        /* \"#utility.yul\":3431:3574   */\n      swap3\n      swap2\n      pop\n      pop\n      jump\t// out\n        /* \"#utility.yul\":3580:3931   */\n    tag_65:\n        /* \"#utility.yul\":3650:3656   */\n      0x00\n        /* \"#utility.yul\":3699:3701   */\n      0x20\n        /* \"#utility.yul\":3687:3696   */\n      dup3\n        /* \"#utility.yul\":3678:3685   */\n      dup5\n        /* \"#utility.yul\":3674:3697   */\n      sub\n        /* \"#utility.yul\":3670:3702   */\n      slt\n        /* \"#utility.yul\":3667:3786   */\n      iszero\n      tag_209\n      jumpi\n        /* \"#utility.yul\":3705:3784   */\n      tag_210\n      tag_135\n      jump\t// in\n    tag_210:\n        /* \"#utility.yul\":3667:3786   */\n    tag_209:\n        /* \"#utility.yul\":3825:3826   */\n      0x00\n        /* \"#utility.yul\":3850:3914   */\n      tag_211\n        /* \"#utility.yul\":3906:3913   */\n      dup5\n        /* \"#utility.yul\":3897:3903   */\n      dup3\n        /* \"#utility.yul\":3886:3895   */\n      dup6\n        /* \"#utility.yul\":3882:3904   */\n      add\n        /* \"#utility.yul\":3850:3914   */\n      tag_147\n      jump\t// in\n    tag_211:\n        /* \"#utility.yul\":3840:3914   */\n      swap2\n      pop\n        /* \"#utility.yul\":3796:3924   */\n      pop\n        /* \"#utility.yul\":3580:3931   */\n      swap3\n      swap2\n      pop\n      pop\n      jump\t// out\n        /* \"#utility.yul\":3937:4080   */\n    tag_148:\n        /* \"#utility.yul\":3994:3999   */\n      0x00\n        /* \"#utility.yul\":4025:4031   */\n      dup2\n        /* \"#utility.yul\":4019:4032   */\n      mload\n        /* \"#utility.yul\":4010:4032   */\n      swap1\n      pop\n        /* \"#utility.yul\":4041:4074   */\n      tag_213\n        /* \"#utility.yul\":4068:4073   */\n      dup2\n        /* \"#utility.yul\":4041:4074   */\n      tag_137\n      jump\t// in\n    tag_213:\n        /* \"#utility.yul\":3937:4080   */\n      swap3\n      swap2\n      pop\n      pop\n      jump\t// out\n        /* \"#utility.yul\":4086:4437   */\n    tag_73:\n        /* \"#utility.yul\":4156:4162   */\n      0x00\n        /* \"#utility.yul\":4205:4207   */\n      0x20\n        /* \"#utility.yul\":4193:4202   */\n      dup3\n        /* \"#utility.yul\":4184:4191   */\n      dup5\n        /* \"#utility.yul\":4180:4203   */\n      sub\n        /* \"#utility.yul\":4176:4208   */\n      slt\n        /* \"#utility.yul\":4173:4292   */\n      iszero\n      tag_215\n      jumpi\n        /* \"#utility.yul\":4211:4290   */\n      tag_216\n      tag_135\n      jump\t// in\n    tag_216:\n        /* \"#utility.yul\":4173:4292   */\n    tag_215:\n        /* \"#utility.yul\":4331:4332   */\n      0x00\n        /* \"#utility.yul\":4356:4420   */\n      tag_217\n        /* \"#utility.yul\":4412:4419   */\n      dup5\n        /* \"#utility.yul\":4403:4409   */\n      dup3\n        /* \"#utility.yul\":4392:4401   */\n      dup6\n        /* \"#utility.yul\":4388:4410   */\n      add\n        /* \"#utility.yul\":4356:4420   */\n      tag_148\n      jump\t// in\n    tag_217:\n        /* \"#utility.yul\":4346:4420   */\n      swap2\n      pop\n        /* \"#utility.yul\":4302:4430   */\n      pop\n        /* \"#utility.yul\":4086:4437   */\n      swap3\n      swap2\n      pop\n      pop\n      jump\t// out\n        /* \"#utility.yul\":4443:4775   */\n    tag_81:\n        /* \"#utility.yul\":4564:4568   */\n      0x00\n        /* \"#utility.yul\":4602:4604   */\n      0x40\n        /* \"#utility.yul\":4591:4600   */\n      dup3\n        /* \"#utility.yul\":4587:4605   */\n      add\n        /* \"#utility.yul\":4579:4605   */\n      swap1\n      pop\n        /* \"#utility.yul\":4615:4686   */\n      tag_219\n        /* \"#utility.yul\":4683:4684   */\n      0x00\n        /* \"#utility.yul\":4672:4681   */\n      dup4\n        /* \"#utility.yul\":4668:4685   */\n      add\n        /* \"#utility.yul\":4659:4665   */\n      dup6\n        /* \"#utility.yul\":4615:4686   */\n      tag_131\n      jump\t// in\n    tag_219:\n        /* \"#utility.yul\":4696:4768   */\n      tag_220\n        /* \"#utility.yul\":4764:4766   */\n      0x20\n        /* \"#utility.yul\":4753:4762   */\n      dup4\n        /* \"#utility.yul\":4749:4767   */\n      add\n        /* \"#utility.yul\":4740:4746   */\n      dup5\n        /* \"#utility.yul\":4696:4768   */\n      tag_131\n      jump\t// in\n    tag_220:\n        /* \"#utility.yul\":4443:4775   */\n      swap4\n      swap3\n      pop\n      pop\n      pop\n      jump\t// out\n        /* \"#utility.yul\":4781:4950   */\n    tag_149:\n        /* \"#utility.yul\":4865:4876   */\n      0x00\n        /* \"#utility.yul\":4899:4905   */\n      dup3\n        /* \"#utility.yul\":4894:4897   */\n      dup3\n        /* \"#utility.yul\":4887:4906   */\n      mstore\n        /* \"#utility.yul\":4939:4943   */\n      0x20\n        /* \"#utility.yul\":4934:4937   */\n      dup3\n        /* \"#utility.yul\":4930:4944   */\n      add\n        /* \"#utility.yul\":4915:4944   */\n      swap1\n      pop\n        /* \"#utility.yul\":4781:4950   */\n      swap3\n      swap2\n      pop\n      pop\n      jump\t// out\n        /* \"#utility.yul\":4956:5134   */\n    tag_150:\n        /* \"#utility.yul\":5096:5126   */\n      0x596f75206e65656420746f2073656e6420736f6d652065746865722100000000\n        /* \"#utility.yul\":5092:5093   */\n      0x00\n        /* \"#utility.yul\":5084:5090   */\n      dup3\n        /* \"#utility.yul\":5080:5094   */\n      add\n        /* \"#utility.yul\":5073:5127   */\n      mstore\n        /* \"#utility.yul\":4956:5134   */\n      pop\n      jump\t// out\n        /* \"#utility.yul\":5140:5506   */\n    tag_151:\n        /* \"#utility.yul\":5282:5285   */\n      0x00\n        /* \"#utility.yul\":5303:5370   */\n      tag_224\n        /* \"#utility.yul\":5367:5369   */\n      0x1c\n        /* \"#utility.yul\":5362:5365   */\n      dup4\n        /* \"#utility.yul\":5303:5370   */\n      tag_149\n      jump\t// in\n    tag_224:\n        /* \"#utility.yul\":5296:5370   */\n      swap2\n      pop\n        /* \"#utility.yul\":5379:5472   */\n      tag_225\n        /* \"#utility.yul\":5468:5471   */\n      dup3\n        /* \"#utility.yul\":5379:5472   */\n      tag_150\n      jump\t// in\n    tag_225:\n        /* \"#utility.yul\":5497:5499   */\n      0x20\n        /* \"#utility.yul\":5492:5495   */\n      dup3\n        /* \"#utility.yul\":5488:5500   */\n      add\n        /* \"#utility.yul\":5481:5500   */\n      swap1\n      pop\n        /* \"#utility.yul\":5140:5506   */\n      swap2\n      swap1\n      pop\n      jump\t// out\n        /* \"#utility.yul\":5512:5931   */\n    tag_92:\n        /* \"#utility.yul\":5678:5682   */\n      0x00\n        /* \"#utility.yul\":5716:5718   */\n      0x20\n        /* \"#utility.yul\":5705:5714   */\n      dup3\n        /* \"#utility.yul\":5701:5719   */\n      add\n        /* \"#utility.yul\":5693:5719   */\n      swap1\n      pop\n        /* \"#utility.yul\":5765:5774   */\n      dup2\n        /* \"#utility.yul\":5759:5763   */\n      dup2\n        /* \"#utility.yul\":5755:5775   */\n      sub\n        /* \"#utility.yul\":5751:5752   */\n      0x00\n        /* \"#utility.yul\":5740:5749   */\n      dup4\n        /* \"#utility.yul\":5736:5753   */\n      add\n        /* \"#utility.yul\":5729:5776   */\n      mstore\n        /* \"#utility.yul\":5793:5924   */\n      tag_227\n        /* \"#utility.yul\":5919:5923   */\n      dup2\n        /* \"#utility.yul\":5793:5924   */\n      tag_151\n      jump\t// in\n    tag_227:\n        /* \"#utility.yul\":5785:5924   */\n      swap1\n      pop\n        /* \"#utility.yul\":5512:5931   */\n      swap2\n      swap1\n      pop\n      jump\t// out\n        /* \"#utility.yul\":5937:6157   */\n    tag_152:\n        /* \"#utility.yul\":6077:6111   */\n      0x4e6f7420656e6f75676820746f6b656e7320696e207468652072657665727365\n        /* \"#utility.yul\":6073:6074   */\n      0x00\n        /* \"#utility.yul\":6065:6071   */\n      dup3\n        /* \"#utility.yul\":6061:6075   */\n      add\n        /* \"#utility.yul\":6054:6112   */\n      mstore\n        /* \"#utility.yul\":6146:6149   */\n      0x2100000000000000000000000000000000000000000000000000000000000000\n        /* \"#utility.yul\":6141:6143   */\n      0x20\n        /* \"#utility.yul\":6133:6139   */\n      dup3\n        /* \"#utility.yul\":6129:6144   */\n      add\n        /* \"#utility.yul\":6122:6150   */\n      mstore\n        /* \"#utility.yul\":5937:6157   */\n      pop\n      jump\t// out\n        /* \"#utility.yul\":6163:6529   */\n    tag_153:\n        /* \"#utility.yul\":6305:6308   */\n      0x00\n        /* \"#utility.yul\":6326:6393   */\n      tag_230\n        /* \"#utility.yul\":6390:6392   */\n      0x21\n        /* \"#utility.yul\":6385:6388   */\n      dup4\n        /* \"#utility.yul\":6326:6393   */\n      tag_149\n      jump\t// in\n    tag_230:\n        /* \"#utility.yul\":6319:6393   */\n      swap2\n      pop\n        /* \"#utility.yul\":6402:6495   */\n      tag_231\n        /* \"#utility.yul\":6491:6494   */\n      dup3\n        /* \"#utility.yul\":6402:6495   */\n      tag_152\n      jump\t// in\n    tag_231:\n        /* \"#utility.yul\":6520:6522   */\n      0x40\n        /* \"#utility.yul\":6515:6518   */\n      dup3\n        /* \"#utility.yul\":6511:6523   */\n      add\n        /* \"#utility.yul\":6504:6523   */\n      swap1\n      pop\n        /* \"#utility.yul\":6163:6529   */\n      swap2\n      swap1\n      pop\n      jump\t// out\n        /* \"#utility.yul\":6535:6954   */\n    tag_95:\n        /* \"#utility.yul\":6701:6705   */\n      0x00\n        /* \"#utility.yul\":6739:6741   */\n      0x20\n        /* \"#utility.yul\":6728:6737   */\n      dup3\n        /* \"#utility.yul\":6724:6742   */\n      add\n        /* \"#utility.yul\":6716:6742   */\n      swap1\n      pop\n        /* \"#utility.yul\":6788:6797   */\n      dup2\n        /* \"#utility.yul\":6782:6786   */\n      dup2\n        /* \"#utility.yul\":6778:6798   */\n      sub\n        /* \"#utility.yul\":6774:6775   */\n      0x00\n        /* \"#utility.yul\":6763:6772   */\n      dup4\n        /* \"#utility.yul\":6759:6776   */\n      add\n        /* \"#utility.yul\":6752:6799   */\n      mstore\n        /* \"#utility.yul\":6816:6947   */\n      tag_233\n        /* \"#utility.yul\":6942:6946   */\n      dup2\n        /* \"#utility.yul\":6816:6947   */\n      tag_153\n      jump\t// in\n    tag_233:\n        /* \"#utility.yul\":6808:6947   */\n      swap1\n      pop\n        /* \"#utility.yul\":6535:6954   */\n      swap2\n      swap1\n      pop\n      jump\t// out\n        /* \"#utility.yul\":6960:7292   */\n    tag_97:\n        /* \"#utility.yul\":7081:7085   */\n      0x00\n        /* \"#utility.yul\":7119:7121   */\n      0x40\n        /* \"#utility.yul\":7108:7117   */\n      dup3\n        /* \"#utility.yul\":7104:7122   */\n      add\n        /* \"#utility.yul\":7096:7122   */\n      swap1\n      pop\n        /* \"#utility.yul\":7132:7203   */\n      tag_235\n        /* \"#utility.yul\":7200:7201   */\n      0x00\n        /* \"#utility.yul\":7189:7198   */\n      dup4\n        /* \"#utility.yul\":7185:7202   */\n      add\n        /* \"#utility.yul\":7176:7182   */\n      dup6\n        /* \"#utility.yul\":7132:7203   */\n      tag_131\n      jump\t// in\n    tag_235:\n        /* \"#utility.yul\":7213:7285   */\n      tag_236\n        /* \"#utility.yul\":7281:7283   */\n      0x20\n        /* \"#utility.yul\":7270:7279   */\n      dup4\n        /* \"#utility.yul\":7266:7284   */\n      add\n        /* \"#utility.yul\":7257:7263   */\n      dup5\n        /* \"#utility.yul\":7213:7285   */\n      tag_133\n      jump\t// in\n    tag_236:\n        /* \"#utility.yul\":6960:7292   */\n      swap4\n      swap3\n      pop\n      pop\n      pop\n      jump\t// out\n        /* \"#utility.yul\":7298:7414   */\n    tag_154:\n        /* \"#utility.yul\":7368:7389   */\n      tag_238\n        /* \"#utility.yul\":7383:7388   */\n      dup2\n        /* \"#utility.yul\":7368:7389   */\n      tag_139\n      jump\t// in\n    tag_238:\n        /* \"#utility.yul\":7361:7366   */\n      dup2\n        /* \"#utility.yul\":7358:7390   */\n      eq\n        /* \"#utility.yul\":7348:7408   */\n      tag_239\n      jumpi\n        /* \"#utility.yul\":7404:7405   */\n      0x00\n        /* \"#utility.yul\":7401:7402   */\n      dup1\n        /* \"#utility.yul\":7394:7406   */\n      revert\n        /* \"#utility.yul\":7348:7408   */\n    tag_239:\n        /* \"#utility.yul\":7298:7414   */\n      pop\n      jump\t// out\n        /* \"#utility.yul\":7420:7557   */\n    tag_155:\n        /* \"#utility.yul\":7474:7479   */\n      0x00\n        /* \"#utility.yul\":7505:7511   */\n      dup2\n        /* \"#utility.yul\":7499:7512   */\n      mload\n        /* \"#utility.yul\":7490:7512   */\n      swap1\n      pop\n        /* \"#utility.yul\":7521:7551   */\n      tag_241\n        /* \"#utility.yul\":7545:7550   */\n      dup2\n        /* \"#utility.yul\":7521:7551   */\n      tag_154\n      jump\t// in\n    tag_241:\n        /* \"#utility.yul\":7420:7557   */\n      swap3\n      swap2\n      pop\n      pop\n      jump\t// out\n        /* \"#utility.yul\":7563:7908   */\n    tag_101:\n        /* \"#utility.yul\":7630:7636   */\n      0x00\n        /* \"#utility.yul\":7679:7681   */\n      0x20\n        /* \"#utility.yul\":7667:7676   */\n      dup3\n        /* \"#utility.yul\":7658:7665   */\n      dup5\n        /* \"#utility.yul\":7654:7677   */\n      sub\n        /* \"#utility.yul\":7650:7682   */\n      slt\n        /* \"#utility.yul\":7647:7766   */\n      iszero\n      tag_243\n      jumpi\n        /* \"#utility.yul\":7685:7764   */\n      tag_244\n      tag_135\n      jump\t// in\n    tag_244:\n        /* \"#utility.yul\":7647:7766   */\n    tag_243:\n        /* \"#utility.yul\":7805:7806   */\n      0x00\n        /* \"#utility.yul\":7830:7891   */\n      tag_245\n        /* \"#utility.yul\":7883:7890   */\n      dup5\n        /* \"#utility.yul\":7874:7880   */\n      dup3\n        /* \"#utility.yul\":7863:7872   */\n      dup6\n        /* \"#utility.yul\":7859:7881   */\n      add\n        /* \"#utility.yul\":7830:7891   */\n      tag_155\n      jump\t// in\n    tag_245:\n        /* \"#utility.yul\":7820:7891   */\n      swap2\n      pop\n        /* \"#utility.yul\":7776:7901   */\n      pop\n        /* \"#utility.yul\":7563:7908   */\n      swap3\n      swap2\n      pop\n      pop\n      jump\t// out\n        /* \"#utility.yul\":7914:8356   */\n    tag_105:\n        /* \"#utility.yul\":8063:8067   */\n      0x00\n        /* \"#utility.yul\":8101:8103   */\n      0x60\n        /* \"#utility.yul\":8090:8099   */\n      dup3\n        /* \"#utility.yul\":8086:8104   */\n      add\n        /* \"#utility.yul\":8078:8104   */\n      swap1\n      pop\n        /* \"#utility.yul\":8114:8185   */\n      tag_247\n        /* \"#utility.yul\":8182:8183   */\n      0x00\n        /* \"#utility.yul\":8171:8180   */\n      dup4\n        /* \"#utility.yul\":8167:8184   */\n      add\n        /* \"#utility.yul\":8158:8164   */\n      dup7\n        /* \"#utility.yul\":8114:8185   */\n      tag_131\n      jump\t// in\n    tag_247:\n        /* \"#utility.yul\":8195:8267   */\n      tag_248\n        /* \"#utility.yul\":8263:8265   */\n      0x20\n        /* \"#utility.yul\":8252:8261   */\n      dup4\n        /* \"#utility.yul\":8248:8266   */\n      add\n        /* \"#utility.yul\":8239:8245   */\n      dup6\n        /* \"#utility.yul\":8195:8267   */\n      tag_131\n      jump\t// in\n    tag_248:\n        /* \"#utility.yul\":8277:8349   */\n      tag_249\n        /* \"#utility.yul\":8345:8347   */\n      0x40\n        /* \"#utility.yul\":8334:8343   */\n      dup4\n        /* \"#utility.yul\":8330:8348   */\n      add\n        /* \"#utility.yul\":8321:8327   */\n      dup5\n        /* \"#utility.yul\":8277:8349   */\n      tag_133\n      jump\t// in\n    tag_249:\n        /* \"#utility.yul\":7914:8356   */\n      swap5\n      swap4\n      pop\n      pop\n      pop\n      pop\n      jump\t// out\n        /* \"#utility.yul\":8362:8583   */\n    tag_156:\n        /* \"#utility.yul\":8502:8536   */\n      0x596f75206e65656420746f2073656c6c206174206c65617374203120746f6b65\n        /* \"#utility.yul\":8498:8499   */\n      0x00\n        /* \"#utility.yul\":8490:8496   */\n      dup3\n        /* \"#utility.yul\":8486:8500   */\n      add\n        /* \"#utility.yul\":8479:8537   */\n      mstore\n        /* \"#utility.yul\":8571:8575   */\n      0x6e21000000000000000000000000000000000000000000000000000000000000\n        /* \"#utility.yul\":8566:8568   */\n      0x20\n        /* \"#utility.yul\":8558:8564   */\n      dup3\n        /* \"#utility.yul\":8554:8569   */\n      add\n        /* \"#utility.yul\":8547:8576   */\n      mstore\n        /* \"#utility.yul\":8362:8583   */\n      pop\n      jump\t// out\n        /* \"#utility.yul\":8589:8955   */\n    tag_157:\n        /* \"#utility.yul\":8731:8734   */\n      0x00\n        /* \"#utility.yul\":8752:8819   */\n      tag_252\n        /* \"#utility.yul\":8816:8818   */\n      0x22\n        /* \"#utility.yul\":8811:8814   */\n      dup4\n        /* \"#utility.yul\":8752:8819   */\n      tag_149\n      jump\t// in\n    tag_252:\n        /* \"#utility.yul\":8745:8819   */\n      swap2\n      pop\n        /* \"#utility.yul\":8828:8921   */\n      tag_253\n        /* \"#utility.yul\":8917:8920   */\n      dup3\n        /* \"#utility.yul\":8828:8921   */\n      tag_156\n      jump\t// in\n    tag_253:\n        /* \"#utility.yul\":8946:8948   */\n      0x40\n        /* \"#utility.yul\":8941:8944   */\n      dup3\n        /* \"#utility.yul\":8937:8949   */\n      add\n        /* \"#utility.yul\":8930:8949   */\n      swap1\n      pop\n        /* \"#utility.yul\":8589:8955   */\n      swap2\n      swap1\n      pop\n      jump\t// out\n        /* \"#utility.yul\":8961:9380   */\n    tag_116:\n        /* \"#utility.yul\":9127:9131   */\n      0x00\n        /* \"#utility.yul\":9165:9167   */\n      0x20\n        /* \"#utility.yul\":9154:9163   */\n      dup3\n        /* \"#utility.yul\":9150:9168   */\n      add\n        /* \"#utility.yul\":9142:9168   */\n      swap1\n      pop\n        /* \"#utility.yul\":9214:9223   */\n      dup2\n        /* \"#utility.yul\":9208:9212   */\n      dup2\n        /* \"#utility.yul\":9204:9224   */\n      sub\n        /* \"#utility.yul\":9200:9201   */\n      0x00\n        /* \"#utility.yul\":9189:9198   */\n      dup4\n        /* \"#utility.yul\":9185:9202   */\n      add\n        /* \"#utility.yul\":9178:9225   */\n      mstore\n        /* \"#utility.yul\":9242:9373   */\n      tag_255\n        /* \"#utility.yul\":9368:9372   */\n      dup2\n        /* \"#utility.yul\":9242:9373   */\n      tag_157\n      jump\t// in\n    tag_255:\n        /* \"#utility.yul\":9234:9373   */\n      swap1\n      pop\n        /* \"#utility.yul\":8961:9380   */\n      swap2\n      swap1\n      pop\n      jump\t// out\n        /* \"#utility.yul\":9386:9562   */\n    tag_158:\n        /* \"#utility.yul\":9526:9554   */\n      0x436865636b2074686520746f6b656e20616c6c6f77616e636521000000000000\n        /* \"#utility.yul\":9522:9523   */\n      0x00\n        /* \"#utility.yul\":9514:9520   */\n      dup3\n        /* \"#utility.yul\":9510:9524   */\n      add\n        /* \"#utility.yul\":9503:9555   */\n      mstore\n        /* \"#utility.yul\":9386:9562   */\n      pop\n      jump\t// out\n        /* \"#utility.yul\":9568:9934   */\n    tag_159:\n        /* \"#utility.yul\":9710:9713   */\n      0x00\n        /* \"#utility.yul\":9731:9798   */\n      tag_258\n        /* \"#utility.yul\":9795:9797   */\n      0x1a\n        /* \"#utility.yul\":9790:9793   */\n      dup4\n        /* \"#utility.yul\":9731:9798   */\n      tag_149\n      jump\t// in\n    tag_258:\n        /* \"#utility.yul\":9724:9798   */\n      swap2\n      pop\n        /* \"#utility.yul\":9807:9900   */\n      tag_259\n        /* \"#utility.yul\":9896:9899   */\n      dup3\n        /* \"#utility.yul\":9807:9900   */\n      tag_158\n      jump\t// in\n    tag_259:\n        /* \"#utility.yul\":9925:9927   */\n      0x20\n        /* \"#utility.yul\":9920:9923   */\n      dup3\n        /* \"#utility.yul\":9916:9928   */\n      add\n        /* \"#utility.yul\":9909:9928   */\n      swap1\n      pop\n        /* \"#utility.yul\":9568:9934   */\n      swap2\n      swap1\n      pop\n      jump\t// out\n        /* \"#utility.yul\":9940:10359   */\n    tag_123:\n        /* \"#utility.yul\":10106:10110   */\n      0x00\n        /* \"#utility.yul\":10144:10146   */\n      0x20\n        /* \"#utility.yul\":10133:10142   */\n      dup3\n        /* \"#utility.yul\":10129:10147   */\n      add\n        /* \"#utility.yul\":10121:10147   */\n      swap1\n      pop\n        /* \"#utility.yul\":10193:10202   */\n      dup2\n        /* \"#utility.yul\":10187:10191   */\n      dup2\n        /* \"#utility.yul\":10183:10203   */\n      sub\n        /* \"#utility.yul\":10179:10180   */\n      0x00\n        /* \"#utility.yul\":10168:10177   */\n      dup4\n        /* \"#utility.yul\":10164:10181   */\n      add\n        /* \"#utility.yul\":10157:10204   */\n      mstore\n        /* \"#utility.yul\":10221:10352   */\n      tag_261\n        /* \"#utility.yul\":10347:10351   */\n      dup2\n        /* \"#utility.yul\":10221:10352   */\n      tag_159\n      jump\t// in\n    tag_261:\n        /* \"#utility.yul\":10213:10352   */\n      swap1\n      pop\n        /* \"#utility.yul\":9940:10359   */\n      swap2\n      swap1\n      pop\n      jump\t// out\n\n    auxdata: 0xa2646970667358221220bf47e3b81702f0bdbfa1b10731d860e3f9ef63544b131c88cdd546ecc3cb6eb864736f6c634300080b0033\n}\n\nsub_1: assembly {\n        /* \"contracts/16_Dex.sol\":1154:3202  contract ERC20Basic is IERC20{... */\n      mstore(0x40, 0x80)\n        /* \"contracts/16_Dex.sol\":1491:1499  10 ether */\n      0x8ac7230489e80000\n        /* \"contracts/16_Dex.sol\":1468:1499  uint256 totalSupply_ = 10 ether */\n      0x02\n      sstore\n        /* \"contracts/16_Dex.sol\":1539:1602  constructor(){... */\n      callvalue\n      dup1\n      iszero\n      tag_1\n      jumpi\n      0x00\n      dup1\n      revert\n    tag_1:\n      pop\n        /* \"contracts/16_Dex.sol\":1583:1595  totalSupply_ */\n      sload(0x02)\n        /* \"contracts/16_Dex.sol\":1562:1570  balances */\n      0x00\n        /* \"contracts/16_Dex.sol\":1562:1582  balances[msg.sender] */\n      dup1\n        /* \"contracts/16_Dex.sol\":1571:1581  msg.sender */\n      caller\n        /* \"contracts/16_Dex.sol\":1562:1582  balances[msg.sender] */\n      0xffffffffffffffffffffffffffffffffffffffff\n      and\n      0xffffffffffffffffffffffffffffffffffffffff\n      and\n      dup2\n      mstore\n      0x20\n      add\n      swap1\n      dup2\n      mstore\n      0x20\n      add\n      0x00\n      keccak256\n        /* \"contracts/16_Dex.sol\":1562:1595  balances[msg.sender]=totalSupply_ */\n      dup2\n      swap1\n      sstore\n      pop\n        /* \"contracts/16_Dex.sol\":1154:3202  contract ERC20Basic is IERC20{... */\n      dataSize(sub_0)\n      dup1\n      dataOffset(sub_0)\n      0x00\n      codecopy\n      0x00\n      return\n    stop\n\n    sub_0: assembly {\n            /* \"contracts/16_Dex.sol\":1154:3202  contract ERC20Basic is IERC20{... */\n          mstore(0x40, 0x80)\n          callvalue\n          dup1\n          iszero\n          tag_1\n          jumpi\n          0x00\n          dup1\n          revert\n        tag_1:\n          pop\n          jumpi(tag_2, lt(calldatasize, 0x04))\n          shr(0xe0, calldataload(0x00))\n          dup1\n          0x70a08231\n          gt\n          tag_13\n          jumpi\n          dup1\n          0x70a08231\n          eq\n          tag_8\n          jumpi\n          dup1\n          0x95d89b41\n          eq\n          tag_9\n          jumpi\n          dup1\n          0xa9059cbb\n          eq\n          tag_10\n          jumpi\n          dup1\n          0xdd62ed3e\n          eq\n          tag_11\n          jumpi\n          dup1\n          0xe1f21c67\n          eq\n          tag_12\n          jumpi\n          jump(tag_2)\n        tag_13:\n          dup1\n          0x06fdde03\n          eq\n          tag_3\n          jumpi\n          dup1\n          0x18160ddd\n          eq\n          tag_4\n          jumpi\n          dup1\n          0x23b872dd\n          eq\n          tag_5\n          jumpi\n          dup1\n          0x313ce567\n          eq\n          tag_6\n          jumpi\n          dup1\n          0x38cc4831\n          eq\n          tag_7\n          jumpi\n        tag_2:\n          0x00\n          dup1\n          revert\n            /* \"contracts/16_Dex.sol\":1189:1237  string public constant name=\"ERC20-XiaochunCoin\" */\n        tag_3:\n          tag_14\n          tag_15\n          jump\t// in\n        tag_14:\n          mload(0x40)\n          tag_16\n          swap2\n          swap1\n          tag_17\n          jump\t// in\n        tag_16:\n          mload(0x40)\n          dup1\n          swap2\n          sub\n          swap1\n          return\n            /* \"contracts/16_Dex.sol\":1710:1806  function totalSupply() public override view returns(uint256){... */\n        tag_4:\n          tag_18\n          tag_19\n          jump\t// in\n        tag_18:\n          mload(0x40)\n          tag_20\n          swap2\n          swap1\n          tag_21\n          jump\t// in\n        tag_20:\n          mload(0x40)\n          dup1\n          swap2\n          sub\n          swap1\n          return\n            /* \"contracts/16_Dex.sol\":2742:3200  function transferFrom(address owner, address buyer, uint256 numTokens) external override returns (bool){... */\n        tag_5:\n          tag_22\n          0x04\n          dup1\n          calldatasize\n          sub\n          dup2\n          add\n          swap1\n          tag_23\n          swap2\n          swap1\n          tag_24\n          jump\t// in\n        tag_23:\n          tag_25\n          jump\t// in\n        tag_22:\n          mload(0x40)\n          tag_26\n          swap2\n          swap1\n          tag_27\n          jump\t// in\n        tag_26:\n          mload(0x40)\n          dup1\n          swap2\n          sub\n          swap1\n          return\n            /* \"contracts/16_Dex.sol\":1316:1349  uint8 public constant decimals=18 */\n        tag_6:\n          tag_28\n          tag_29\n          jump\t// in\n        tag_28:\n          mload(0x40)\n          tag_30\n          swap2\n          swap1\n          tag_31\n          jump\t// in\n        tag_30:\n          mload(0x40)\n          dup1\n          swap2\n          sub\n          swap1\n          return\n            /* \"contracts/16_Dex.sol\":1608:1704  function getAddress() public override view returns(address){... */\n        tag_7:\n          tag_32\n          tag_33\n          jump\t// in\n        tag_32:\n          mload(0x40)\n          tag_34\n          swap2\n          swap1\n          tag_35\n          jump\t// in\n        tag_34:\n          mload(0x40)\n          dup1\n          swap2\n          sub\n          swap1\n          return\n            /* \"contracts/16_Dex.sol\":1812:1932  function balanceOf(address tokenOwner) public override view returns(uint256){... */\n        tag_8:\n          tag_36\n          0x04\n          dup1\n          calldatasize\n          sub\n          dup2\n          add\n          swap1\n          tag_37\n          swap2\n          swap1\n          tag_38\n          jump\t// in\n        tag_37:\n          tag_39\n          jump\t// in\n        tag_36:\n          mload(0x40)\n          tag_40\n          swap2\n          swap1\n          tag_21\n          jump\t// in\n        tag_40:\n          mload(0x40)\n          dup1\n          swap2\n          sub\n          swap1\n          return\n            /* \"contracts/16_Dex.sol\":1257:1296  string public constant symbol=\"ERC-XCC\" */\n        tag_9:\n          tag_41\n          tag_42\n          jump\t// in\n        tag_41:\n          mload(0x40)\n          tag_43\n          swap2\n          swap1\n          tag_17\n          jump\t// in\n        tag_43:\n          mload(0x40)\n          dup1\n          swap2\n          sub\n          swap1\n          return\n            /* \"contracts/16_Dex.sol\":2020:2363  function transfer(address receiver, uint256 numTokens) public override returns(bool){... */\n        tag_10:\n          tag_44\n          0x04\n          dup1\n          calldatasize\n          sub\n          dup2\n          add\n          swap1\n          tag_45\n          swap2\n          swap1\n          tag_46\n          jump\t// in\n        tag_45:\n          tag_47\n          jump\t// in\n        tag_44:\n          mload(0x40)\n          tag_48\n          swap2\n          swap1\n          tag_27\n          jump\t// in\n        tag_48:\n          mload(0x40)\n          dup1\n          swap2\n          sub\n          swap1\n          return\n            /* \"contracts/16_Dex.sol\":2597:2736  function allowance(address owner, address delegate) external override view returns(uint256){... */\n        tag_11:\n          tag_49\n          0x04\n          dup1\n          calldatasize\n          sub\n          dup2\n          add\n          swap1\n          tag_50\n          swap2\n          swap1\n          tag_51\n          jump\t// in\n        tag_50:\n          tag_52\n          jump\t// in\n        tag_49:\n          mload(0x40)\n          tag_53\n          swap2\n          swap1\n          tag_21\n          jump\t// in\n        tag_53:\n          mload(0x40)\n          dup1\n          swap2\n          sub\n          swap1\n          return\n            /* \"contracts/16_Dex.sol\":2369:2591  function approve(address owner, address delegate, uint256 numTokens) external override returns (bool){... */\n        tag_12:\n          tag_54\n          0x04\n          dup1\n          calldatasize\n          sub\n          dup2\n          add\n          swap1\n          tag_55\n          swap2\n          swap1\n          tag_24\n          jump\t// in\n        tag_55:\n          tag_56\n          jump\t// in\n        tag_54:\n          mload(0x40)\n          tag_57\n          swap2\n          swap1\n          tag_27\n          jump\t// in\n        tag_57:\n          mload(0x40)\n          dup1\n          swap2\n          sub\n          swap1\n          return\n            /* \"contracts/16_Dex.sol\":1189:1237  string public constant name=\"ERC20-XiaochunCoin\" */\n        tag_15:\n          mload(0x40)\n          dup1\n          0x40\n          add\n          0x40\n          mstore\n          dup1\n          0x12\n          dup2\n          mstore\n          0x20\n          add\n          0x45524332302d5869616f6368756e436f696e0000000000000000000000000000\n          dup2\n          mstore\n          pop\n          dup2\n          jump\t// out\n            /* \"contracts/16_Dex.sol\":1710:1806  function totalSupply() public override view returns(uint256){... */\n        tag_19:\n            /* \"contracts/16_Dex.sol\":1762:1769  uint256 */\n          0x00\n            /* \"contracts/16_Dex.sol\":1787:1799  totalSupply_ */\n          sload(0x02)\n            /* \"contracts/16_Dex.sol\":1780:1799  return totalSupply_ */\n          swap1\n          pop\n            /* \"contracts/16_Dex.sol\":1710:1806  function totalSupply() public override view returns(uint256){... */\n          swap1\n          jump\t// out\n            /* \"contracts/16_Dex.sol\":2742:3200  function transferFrom(address owner, address buyer, uint256 numTokens) external override returns (bool){... */\n        tag_25:\n            /* \"contracts/16_Dex.sol\":2840:2844  bool */\n          0x00\n            /* \"contracts/16_Dex.sol\":2874:2882  balances */\n          dup1\n            /* \"contracts/16_Dex.sol\":2874:2889  balances[owner] */\n          0x00\n            /* \"contracts/16_Dex.sol\":2883:2888  owner */\n          dup6\n            /* \"contracts/16_Dex.sol\":2874:2889  balances[owner] */\n          0xffffffffffffffffffffffffffffffffffffffff\n          and\n          0xffffffffffffffffffffffffffffffffffffffff\n          and\n          dup2\n          mstore\n          0x20\n          add\n          swap1\n          dup2\n          mstore\n          0x20\n          add\n          0x00\n          keccak256\n          sload\n            /* \"contracts/16_Dex.sol\":2863:2872  numTokens */\n          dup3\n            /* \"contracts/16_Dex.sol\":2863:2889  numTokens<=balances[owner] */\n          gt\n          iszero\n            /* \"contracts/16_Dex.sol\":2855:2890  require(numTokens<=balances[owner]) */\n          tag_60\n          jumpi\n          0x00\n          dup1\n          revert\n        tag_60:\n            /* \"contracts/16_Dex.sol\":2919:2926  allowed */\n          0x01\n            /* \"contracts/16_Dex.sol\":2919:2933  allowed[owner] */\n          0x00\n            /* \"contracts/16_Dex.sol\":2927:2932  owner */\n          dup6\n            /* \"contracts/16_Dex.sol\":2919:2933  allowed[owner] */\n          0xffffffffffffffffffffffffffffffffffffffff\n          and\n          0xffffffffffffffffffffffffffffffffffffffff\n          and\n          dup2\n          mstore\n          0x20\n          add\n          swap1\n          dup2\n          mstore\n          0x20\n          add\n          0x00\n          keccak256\n            /* \"contracts/16_Dex.sol\":2919:2945  allowed[owner][msg.sender] */\n          0x00\n            /* \"contracts/16_Dex.sol\":2934:2944  msg.sender */\n          caller\n            /* \"contracts/16_Dex.sol\":2919:2945  allowed[owner][msg.sender] */\n          0xffffffffffffffffffffffffffffffffffffffff\n          and\n          0xffffffffffffffffffffffffffffffffffffffff\n          and\n          dup2\n          mstore\n          0x20\n          add\n          swap1\n          dup2\n          mstore\n          0x20\n          add\n          0x00\n          keccak256\n          sload\n            /* \"contracts/16_Dex.sol\":2908:2917  numTokens */\n          dup3\n            /* \"contracts/16_Dex.sol\":2908:2945  numTokens<=allowed[owner][msg.sender] */\n          gt\n          iszero\n            /* \"contracts/16_Dex.sol\":2900:2946  require(numTokens<=allowed[owner][msg.sender]) */\n          tag_61\n          jumpi\n          0x00\n          dup1\n          revert\n        tag_61:\n            /* \"contracts/16_Dex.sol\":2973:3003  balances[owner].sub(numTokens) */\n          tag_62\n            /* \"contracts/16_Dex.sol\":2993:3002  numTokens */\n          dup3\n            /* \"contracts/16_Dex.sol\":2973:2981  balances */\n          0x00\n            /* \"contracts/16_Dex.sol\":2973:2988  balances[owner] */\n          dup1\n            /* \"contracts/16_Dex.sol\":2982:2987  owner */\n          dup8\n            /* \"contracts/16_Dex.sol\":2973:2988  balances[owner] */\n          0xffffffffffffffffffffffffffffffffffffffff\n          and\n          0xffffffffffffffffffffffffffffffffffffffff\n          and\n          dup2\n          mstore\n          0x20\n          add\n          swap1\n          dup2\n          mstore\n          0x20\n          add\n          0x00\n          keccak256\n          sload\n            /* \"contracts/16_Dex.sol\":2973:2992  balances[owner].sub */\n          tag_63\n          swap1\n            /* \"contracts/16_Dex.sol\":2973:3003  balances[owner].sub(numTokens) */\n          swap2\n          swap1\n          0xffffffff\n          and\n          jump\t// in\n        tag_62:\n            /* \"contracts/16_Dex.sol\":2957:2965  balances */\n          0x00\n            /* \"contracts/16_Dex.sol\":2957:2972  balances[owner] */\n          dup1\n            /* \"contracts/16_Dex.sol\":2966:2971  owner */\n          dup7\n            /* \"contracts/16_Dex.sol\":2957:2972  balances[owner] */\n          0xffffffffffffffffffffffffffffffffffffffff\n          and\n          0xffffffffffffffffffffffffffffffffffffffff\n          and\n          dup2\n          mstore\n          0x20\n          add\n          swap1\n          dup2\n          mstore\n          0x20\n          add\n          0x00\n          keccak256\n            /* \"contracts/16_Dex.sol\":2957:3003  balances[owner]=balances[owner].sub(numTokens) */\n          dup2\n          swap1\n          sstore\n          pop\n            /* \"contracts/16_Dex.sol\":3035:3071  allowed[owner][buyer].sub(numTokens) */\n          tag_64\n            /* \"contracts/16_Dex.sol\":3061:3070  numTokens */\n          dup3\n            /* \"contracts/16_Dex.sol\":3035:3042  allowed */\n          0x01\n            /* \"contracts/16_Dex.sol\":3035:3049  allowed[owner] */\n          0x00\n            /* \"contracts/16_Dex.sol\":3043:3048  owner */\n          dup8\n            /* \"contracts/16_Dex.sol\":3035:3049  allowed[owner] */\n          0xffffffffffffffffffffffffffffffffffffffff\n          and\n          0xffffffffffffffffffffffffffffffffffffffff\n          and\n          dup2\n          mstore\n          0x20\n          add\n          swap1\n          dup2\n          mstore\n          0x20\n          add\n          0x00\n          keccak256\n            /* \"contracts/16_Dex.sol\":3035:3056  allowed[owner][buyer] */\n          0x00\n            /* \"contracts/16_Dex.sol\":3050:3055  buyer */\n          dup7\n            /* \"contracts/16_Dex.sol\":3035:3056  allowed[owner][buyer] */\n          0xffffffffffffffffffffffffffffffffffffffff\n          and\n          0xffffffffffffffffffffffffffffffffffffffff\n          and\n          dup2\n          mstore\n          0x20\n          add\n          swap1\n          dup2\n          mstore\n          0x20\n          add\n          0x00\n          keccak256\n          sload\n            /* \"contracts/16_Dex.sol\":3035:3060  allowed[owner][buyer].sub */\n          tag_63\n          swap1\n            /* \"contracts/16_Dex.sol\":3035:3071  allowed[owner][buyer].sub(numTokens) */\n          swap2\n          swap1\n          0xffffffff\n          and\n          jump\t// in\n        tag_64:\n            /* \"contracts/16_Dex.sol\":3013:3020  allowed */\n          0x01\n            /* \"contracts/16_Dex.sol\":3013:3027  allowed[owner] */\n          0x00\n            /* \"contracts/16_Dex.sol\":3021:3026  owner */\n          dup7\n            /* \"contracts/16_Dex.sol\":3013:3027  allowed[owner] */\n          0xffffffffffffffffffffffffffffffffffffffff\n          and\n          0xffffffffffffffffffffffffffffffffffffffff\n          and\n          dup2\n          mstore\n          0x20\n          add\n          swap1\n          dup2\n          mstore\n          0x20\n          add\n          0x00\n          keccak256\n            /* \"contracts/16_Dex.sol\":3013:3034  allowed[owner][buyer] */\n          0x00\n            /* \"contracts/16_Dex.sol\":3028:3033  buyer */\n          dup6\n            /* \"contracts/16_Dex.sol\":3013:3034  allowed[owner][buyer] */\n          0xffffffffffffffffffffffffffffffffffffffff\n          and\n          0xffffffffffffffffffffffffffffffffffffffff\n          and\n          dup2\n          mstore\n          0x20\n          add\n          swap1\n          dup2\n          mstore\n          0x20\n          add\n          0x00\n          keccak256\n            /* \"contracts/16_Dex.sol\":3013:3071  allowed[owner][buyer]=allowed[owner][buyer].sub(numTokens) */\n          dup2\n          swap1\n          sstore\n          pop\n            /* \"contracts/16_Dex.sol\":3097:3127  balances[buyer].add(numTokens) */\n          tag_65\n            /* \"contracts/16_Dex.sol\":3117:3126  numTokens */\n          dup3\n            /* \"contracts/16_Dex.sol\":3097:3105  balances */\n          0x00\n            /* \"contracts/16_Dex.sol\":3097:3112  balances[buyer] */\n          dup1\n            /* \"contracts/16_Dex.sol\":3106:3111  buyer */\n          dup7\n            /* \"contracts/16_Dex.sol\":3097:3112  balances[buyer] */\n          0xffffffffffffffffffffffffffffffffffffffff\n          and\n          0xffffffffffffffffffffffffffffffffffffffff\n          and\n          dup2\n          mstore\n          0x20\n          add\n          swap1\n          dup2\n          mstore\n          0x20\n          add\n          0x00\n          keccak256\n          sload\n            /* \"contracts/16_Dex.sol\":3097:3116  balances[buyer].add */\n          tag_66\n          swap1\n            /* \"contracts/16_Dex.sol\":3097:3127  balances[buyer].add(numTokens) */\n          swap2\n          swap1\n          0xffffffff\n          and\n          jump\t// in\n        tag_65:\n            /* \"contracts/16_Dex.sol\":3081:3089  balances */\n          0x00\n            /* \"contracts/16_Dex.sol\":3081:3096  balances[buyer] */\n          dup1\n            /* \"contracts/16_Dex.sol\":3090:3095  buyer */\n          dup6\n            /* \"contracts/16_Dex.sol\":3081:3096  balances[buyer] */\n          0xffffffffffffffffffffffffffffffffffffffff\n          and\n          0xffffffffffffffffffffffffffffffffffffffff\n          and\n          dup2\n          mstore\n          0x20\n          add\n          swap1\n          dup2\n          mstore\n          0x20\n          add\n          0x00\n          keccak256\n            /* \"contracts/16_Dex.sol\":3081:3127  balances[buyer]=balances[buyer].add(numTokens) */\n          dup2\n          swap1\n          sstore\n          pop\n            /* \"contracts/16_Dex.sol\":3156:3161  buyer */\n          dup3\n            /* \"contracts/16_Dex.sol\":3142:3172  Tranfer(owner,buyer,numTokens) */\n          0xffffffffffffffffffffffffffffffffffffffff\n          and\n            /* \"contracts/16_Dex.sol\":3150:3155  owner */\n          dup5\n            /* \"contracts/16_Dex.sol\":3142:3172  Tranfer(owner,buyer,numTokens) */\n          0xffffffffffffffffffffffffffffffffffffffff\n          and\n          0x5225eac2a7facfbeb099c00a4cc7c457701324f1fd84b84b14033f9e911374a4\n            /* \"contracts/16_Dex.sol\":3162:3171  numTokens */\n          dup5\n            /* \"contracts/16_Dex.sol\":3142:3172  Tranfer(owner,buyer,numTokens) */\n          mload(0x40)\n          tag_67\n          swap2\n          swap1\n          tag_21\n          jump\t// in\n        tag_67:\n          mload(0x40)\n          dup1\n          swap2\n          sub\n          swap1\n          log3\n            /* \"contracts/16_Dex.sol\":3189:3193  true */\n          0x01\n            /* \"contracts/16_Dex.sol\":3182:3193  return true */\n          swap1\n          pop\n            /* \"contracts/16_Dex.sol\":2742:3200  function transferFrom(address owner, address buyer, uint256 numTokens) external override returns (bool){... */\n          swap4\n          swap3\n          pop\n          pop\n          pop\n          jump\t// out\n            /* \"contracts/16_Dex.sol\":1316:1349  uint8 public constant decimals=18 */\n        tag_29:\n            /* \"contracts/16_Dex.sol\":1347:1349  18 */\n          0x12\n            /* \"contracts/16_Dex.sol\":1316:1349  uint8 public constant decimals=18 */\n          dup2\n          jump\t// out\n            /* \"contracts/16_Dex.sol\":1608:1704  function getAddress() public override view returns(address){... */\n        tag_33:\n            /* \"contracts/16_Dex.sol\":1659:1666  address */\n          0x00\n            /* \"contracts/16_Dex.sol\":1692:1696  this */\n          address\n            /* \"contracts/16_Dex.sol\":1677:1697  return address(this) */\n          swap1\n          pop\n            /* \"contracts/16_Dex.sol\":1608:1704  function getAddress() public override view returns(address){... */\n          swap1\n          jump\t// out\n            /* \"contracts/16_Dex.sol\":1812:1932  function balanceOf(address tokenOwner) public override view returns(uint256){... */\n        tag_39:\n            /* \"contracts/16_Dex.sol\":1880:1887  uint256 */\n          0x00\n            /* \"contracts/16_Dex.sol\":1905:1913  balances */\n          dup1\n            /* \"contracts/16_Dex.sol\":1905:1925  balances[tokenOwner] */\n          0x00\n            /* \"contracts/16_Dex.sol\":1914:1924  tokenOwner */\n          dup4\n            /* \"contracts/16_Dex.sol\":1905:1925  balances[tokenOwner] */\n          0xffffffffffffffffffffffffffffffffffffffff\n          and\n          0xffffffffffffffffffffffffffffffffffffffff\n          and\n          dup2\n          mstore\n          0x20\n          add\n          swap1\n          dup2\n          mstore\n          0x20\n          add\n          0x00\n          keccak256\n          sload\n            /* \"contracts/16_Dex.sol\":1898:1925  return balances[tokenOwner] */\n          swap1\n          pop\n            /* \"contracts/16_Dex.sol\":1812:1932  function balanceOf(address tokenOwner) public override view returns(uint256){... */\n          swap2\n          swap1\n          pop\n          jump\t// out\n            /* \"contracts/16_Dex.sol\":1257:1296  string public constant symbol=\"ERC-XCC\" */\n        tag_42:\n          mload(0x40)\n          dup1\n          0x40\n          add\n          0x40\n          mstore\n          dup1\n          0x07\n          dup2\n          mstore\n          0x20\n          add\n          0x4552432d58434300000000000000000000000000000000000000000000000000\n          dup2\n          mstore\n          pop\n          dup2\n          jump\t// out\n            /* \"contracts/16_Dex.sol\":2020:2363  function transfer(address receiver, uint256 numTokens) public override returns(bool){... */\n        tag_47:\n            /* \"contracts/16_Dex.sol\":2099:2103  bool */\n          0x00\n            /* \"contracts/16_Dex.sol\":2133:2141  balances */\n          dup1\n            /* \"contracts/16_Dex.sol\":2133:2153  balances[msg.sender] */\n          0x00\n            /* \"contracts/16_Dex.sol\":2142:2152  msg.sender */\n          caller\n            /* \"contracts/16_Dex.sol\":2133:2153  balances[msg.sender] */\n          0xffffffffffffffffffffffffffffffffffffffff\n          and\n          0xffffffffffffffffffffffffffffffffffffffff\n          and\n          dup2\n          mstore\n          0x20\n          add\n          swap1\n          dup2\n          mstore\n          0x20\n          add\n          0x00\n          keccak256\n          sload\n            /* \"contracts/16_Dex.sol\":2122:2131  numTokens */\n          dup3\n            /* \"contracts/16_Dex.sol\":2122:2153  numTokens<=balances[msg.sender] */\n          gt\n          iszero\n            /* \"contracts/16_Dex.sol\":2114:2154  require(numTokens<=balances[msg.sender]) */\n          tag_71\n          jumpi\n          0x00\n          dup1\n          revert\n        tag_71:\n            /* \"contracts/16_Dex.sol\":2185:2220  balances[msg.sender].sub(numTokens) */\n          tag_72\n            /* \"contracts/16_Dex.sol\":2210:2219  numTokens */\n          dup3\n            /* \"contracts/16_Dex.sol\":2185:2193  balances */\n          0x00\n            /* \"contracts/16_Dex.sol\":2185:2205  balances[msg.sender] */\n          dup1\n            /* \"contracts/16_Dex.sol\":2194:2204  msg.sender */\n          caller\n            /* \"contracts/16_Dex.sol\":2185:2205  balances[msg.sender] */\n          0xffffffffffffffffffffffffffffffffffffffff\n          and\n          0xffffffffffffffffffffffffffffffffffffffff\n          and\n          dup2\n          mstore\n          0x20\n          add\n          swap1\n          dup2\n          mstore\n          0x20\n          add\n          0x00\n          keccak256\n          sload\n            /* \"contracts/16_Dex.sol\":2185:2209  balances[msg.sender].sub */\n          tag_63\n          swap1\n            /* \"contracts/16_Dex.sol\":2185:2220  balances[msg.sender].sub(numTokens) */\n          swap2\n          swap1\n          0xffffffff\n          and\n          jump\t// in\n        tag_72:\n            /* \"contracts/16_Dex.sol\":2164:2172  balances */\n          0x00\n            /* \"contracts/16_Dex.sol\":2164:2184  balances[msg.sender] */\n          dup1\n            /* \"contracts/16_Dex.sol\":2173:2183  msg.sender */\n          caller\n            /* \"contracts/16_Dex.sol\":2164:2184  balances[msg.sender] */\n          0xffffffffffffffffffffffffffffffffffffffff\n          and\n          0xffffffffffffffffffffffffffffffffffffffff\n          and\n          dup2\n          mstore\n          0x20\n          add\n          swap1\n          dup2\n          mstore\n          0x20\n          add\n          0x00\n          keccak256\n            /* \"contracts/16_Dex.sol\":2164:2220  balances[msg.sender]=balances[msg.sender].sub(numTokens) */\n          dup2\n          swap1\n          sstore\n          pop\n            /* \"contracts/16_Dex.sol\":2249:2282  balances[receiver].add(numTokens) */\n          tag_73\n            /* \"contracts/16_Dex.sol\":2272:2281  numTokens */\n          dup3\n            /* \"contracts/16_Dex.sol\":2249:2257  balances */\n          0x00\n            /* \"contracts/16_Dex.sol\":2249:2267  balances[receiver] */\n          dup1\n            /* \"contracts/16_Dex.sol\":2258:2266  receiver */\n          dup7\n            /* \"contracts/16_Dex.sol\":2249:2267  balances[receiver] */\n          0xffffffffffffffffffffffffffffffffffffffff\n          and\n          0xffffffffffffffffffffffffffffffffffffffff\n          and\n          dup2\n          mstore\n          0x20\n          add\n          swap1\n          dup2\n          mstore\n          0x20\n          add\n          0x00\n          keccak256\n          sload\n            /* \"contracts/16_Dex.sol\":2249:2271  balances[receiver].add */\n          tag_66\n          swap1\n            /* \"contracts/16_Dex.sol\":2249:2282  balances[receiver].add(numTokens) */\n          swap2\n          swap1\n          0xffffffff\n          and\n          jump\t// in\n        tag_73:\n            /* \"contracts/16_Dex.sol\":2230:2238  balances */\n          0x00\n            /* \"contracts/16_Dex.sol\":2230:2248  balances[receiver] */\n          dup1\n            /* \"contracts/16_Dex.sol\":2239:2247  receiver */\n          dup6\n            /* \"contracts/16_Dex.sol\":2230:2248  balances[receiver] */\n          0xffffffffffffffffffffffffffffffffffffffff\n          and\n          0xffffffffffffffffffffffffffffffffffffffff\n          and\n          dup2\n          mstore\n          0x20\n          add\n          swap1\n          dup2\n          mstore\n          0x20\n          add\n          0x00\n          keccak256\n            /* \"contracts/16_Dex.sol\":2230:2282  balances[receiver]=balances[receiver].add(numTokens) */\n          dup2\n          swap1\n          sstore\n          pop\n            /* \"contracts/16_Dex.sol\":2316:2324  receiver */\n          dup3\n            /* \"contracts/16_Dex.sol\":2297:2335  Tranfer(msg.sender,receiver,numTokens) */\n          0xffffffffffffffffffffffffffffffffffffffff\n          and\n            /* \"contracts/16_Dex.sol\":2305:2315  msg.sender */\n          caller\n            /* \"contracts/16_Dex.sol\":2297:2335  Tranfer(msg.sender,receiver,numTokens) */\n          0xffffffffffffffffffffffffffffffffffffffff\n          and\n          0x5225eac2a7facfbeb099c00a4cc7c457701324f1fd84b84b14033f9e911374a4\n            /* \"contracts/16_Dex.sol\":2325:2334  numTokens */\n          dup5\n            /* \"contracts/16_Dex.sol\":2297:2335  Tranfer(msg.sender,receiver,numTokens) */\n          mload(0x40)\n          tag_74\n          swap2\n          swap1\n          tag_21\n          jump\t// in\n        tag_74:\n          mload(0x40)\n          dup1\n          swap2\n          sub\n          swap1\n          log3\n            /* \"contracts/16_Dex.sol\":2352:2356  true */\n          0x01\n            /* \"contracts/16_Dex.sol\":2345:2356  return true */\n          swap1\n          pop\n            /* \"contracts/16_Dex.sol\":2020:2363  function transfer(address receiver, uint256 numTokens) public override returns(bool){... */\n          swap3\n          swap2\n          pop\n          pop\n          jump\t// out\n            /* \"contracts/16_Dex.sol\":2597:2736  function allowance(address owner, address delegate) external override view returns(uint256){... */\n        tag_52:\n            /* \"contracts/16_Dex.sol\":2680:2687  uint256 */\n          0x00\n            /* \"contracts/16_Dex.sol\":2705:2712  allowed */\n          0x01\n            /* \"contracts/16_Dex.sol\":2705:2719  allowed[owner] */\n          0x00\n            /* \"contracts/16_Dex.sol\":2713:2718  owner */\n          dup5\n            /* \"contracts/16_Dex.sol\":2705:2719  allowed[owner] */\n          0xffffffffffffffffffffffffffffffffffffffff\n          and\n          0xffffffffffffffffffffffffffffffffffffffff\n          and\n          dup2\n          mstore\n          0x20\n          add\n          swap1\n          dup2\n          mstore\n          0x20\n          add\n          0x00\n          keccak256\n            /* \"contracts/16_Dex.sol\":2705:2729  allowed[owner][delegate] */\n          0x00\n            /* \"contracts/16_Dex.sol\":2720:2728  delegate */\n          dup4\n            /* \"contracts/16_Dex.sol\":2705:2729  allowed[owner][delegate] */\n          0xffffffffffffffffffffffffffffffffffffffff\n          and\n          0xffffffffffffffffffffffffffffffffffffffff\n          and\n          dup2\n          mstore\n          0x20\n          add\n          swap1\n          dup2\n          mstore\n          0x20\n          add\n          0x00\n          keccak256\n          sload\n            /* \"contracts/16_Dex.sol\":2698:2729  return allowed[owner][delegate] */\n          swap1\n          pop\n            /* \"contracts/16_Dex.sol\":2597:2736  function allowance(address owner, address delegate) external override view returns(uint256){... */\n          swap3\n          swap2\n          pop\n          pop\n          jump\t// out\n            /* \"contracts/16_Dex.sol\":2369:2591  function approve(address owner, address delegate, uint256 numTokens) external override returns (bool){... */\n        tag_56:\n            /* \"contracts/16_Dex.sol\":2465:2469  bool */\n          0x00\n            /* \"contracts/16_Dex.sol\":2505:2514  numTokens */\n          dup2\n            /* \"contracts/16_Dex.sol\":2480:2487  allowed */\n          0x01\n            /* \"contracts/16_Dex.sol\":2480:2494  allowed[owner] */\n          0x00\n            /* \"contracts/16_Dex.sol\":2488:2493  owner */\n          dup7\n            /* \"contracts/16_Dex.sol\":2480:2494  allowed[owner] */\n          0xffffffffffffffffffffffffffffffffffffffff\n          and\n          0xffffffffffffffffffffffffffffffffffffffff\n          and\n          dup2\n          mstore\n          0x20\n          add\n          swap1\n          dup2\n          mstore\n          0x20\n          add\n          0x00\n          keccak256\n            /* \"contracts/16_Dex.sol\":2480:2504  allowed[owner][delegate] */\n          0x00\n            /* \"contracts/16_Dex.sol\":2495:2503  delegate */\n          dup6\n            /* \"contracts/16_Dex.sol\":2480:2504  allowed[owner][delegate] */\n          0xffffffffffffffffffffffffffffffffffffffff\n          and\n          0xffffffffffffffffffffffffffffffffffffffff\n          and\n          dup2\n          mstore\n          0x20\n          add\n          swap1\n          dup2\n          mstore\n          0x20\n          add\n          0x00\n          keccak256\n            /* \"contracts/16_Dex.sol\":2480:2514  allowed[owner][delegate]=numTokens */\n          dup2\n          swap1\n          sstore\n          pop\n            /* \"contracts/16_Dex.sol\":2544:2552  delegate */\n          dup3\n            /* \"contracts/16_Dex.sol\":2529:2563  Approval(owner,delegate,numTokens) */\n          0xffffffffffffffffffffffffffffffffffffffff\n          and\n            /* \"contracts/16_Dex.sol\":2538:2543  owner */\n          dup5\n            /* \"contracts/16_Dex.sol\":2529:2563  Approval(owner,delegate,numTokens) */\n          0xffffffffffffffffffffffffffffffffffffffff\n          and\n          0x8c5be1e5ebec7d5bd14f71427d1e84f3dd0314c0f7b2291e5b200ac8c7c3b925\n            /* \"contracts/16_Dex.sol\":2553:2562  numTokens */\n          dup5\n            /* \"contracts/16_Dex.sol\":2529:2563  Approval(owner,delegate,numTokens) */\n          mload(0x40)\n          tag_77\n          swap2\n          swap1\n          tag_21\n          jump\t// in\n        tag_77:\n          mload(0x40)\n          dup1\n          swap2\n          sub\n          swap1\n          log3\n            /* \"contracts/16_Dex.sol\":2580:2584  true */\n          0x01\n            /* \"contracts/16_Dex.sol\":2573:2584  return true */\n          swap1\n          pop\n            /* \"contracts/16_Dex.sol\":2369:2591  function approve(address owner, address delegate, uint256 numTokens) external override returns (bool){... */\n          swap4\n          swap3\n          pop\n          pop\n          pop\n          jump\t// out\n            /* \"contracts/16_Dex.sol\":110:224  function sub(uint256 a, uint256 b) internal pure returns(uint256){... */\n        tag_63:\n            /* \"contracts/16_Dex.sol\":167:174  uint256 */\n          0x00\n            /* \"contracts/16_Dex.sol\":195:196  a */\n          dup3\n            /* \"contracts/16_Dex.sol\":192:193  b */\n          dup3\n            /* \"contracts/16_Dex.sol\":192:196  b<=a */\n          gt\n          iszero\n            /* \"contracts/16_Dex.sol\":185:197  assert(b<=a) */\n          tag_79\n          jumpi\n          tag_80\n          tag_81\n          jump\t// in\n        tag_80:\n        tag_79:\n            /* \"contracts/16_Dex.sol\":216:217  b */\n          dup2\n            /* \"contracts/16_Dex.sol\":214:215  a */\n          dup4\n            /* \"contracts/16_Dex.sol\":214:217  a-b */\n          tag_82\n          swap2\n          swap1\n          tag_83\n          jump\t// in\n        tag_82:\n            /* \"contracts/16_Dex.sol\":207:217  return a-b */\n          swap1\n          pop\n            /* \"contracts/16_Dex.sol\":110:224  function sub(uint256 a, uint256 b) internal pure returns(uint256){... */\n          swap3\n          swap2\n          pop\n          pop\n          jump\t// out\n            /* \"contracts/16_Dex.sol\":229:364  function add(uint256 a, uint256 b) internal pure returns(uint256){... */\n        tag_66:\n            /* \"contracts/16_Dex.sol\":286:293  uint256 */\n          0x00\n            /* \"contracts/16_Dex.sol\":304:313  uint256 c */\n          dup1\n            /* \"contracts/16_Dex.sol\":316:317  b */\n          dup3\n            /* \"contracts/16_Dex.sol\":314:315  a */\n          dup5\n            /* \"contracts/16_Dex.sol\":314:317  a+b */\n          tag_85\n          swap2\n          swap1\n          tag_86\n          jump\t// in\n        tag_85:\n            /* \"contracts/16_Dex.sol\":304:317  uint256 c=a+b */\n          swap1\n          pop\n            /* \"contracts/16_Dex.sol\":337:338  a */\n          dup4\n            /* \"contracts/16_Dex.sol\":334:335  c */\n          dup2\n            /* \"contracts/16_Dex.sol\":334:338  c>=a */\n          lt\n          iszero\n            /* \"contracts/16_Dex.sol\":327:339  assert(c>=a) */\n          tag_87\n          jumpi\n          tag_88\n          tag_81\n          jump\t// in\n        tag_88:\n        tag_87:\n            /* \"contracts/16_Dex.sol\":356:357  c */\n          dup1\n            /* \"contracts/16_Dex.sol\":349:357  return c */\n          swap2\n          pop\n          pop\n            /* \"contracts/16_Dex.sol\":229:364  function add(uint256 a, uint256 b) internal pure returns(uint256){... */\n          swap3\n          swap2\n          pop\n          pop\n          jump\t// out\n            /* \"#utility.yul\":7:106   */\n        tag_89:\n            /* \"#utility.yul\":59:65   */\n          0x00\n            /* \"#utility.yul\":93:98   */\n          dup2\n            /* \"#utility.yul\":87:99   */\n          mload\n            /* \"#utility.yul\":77:99   */\n          swap1\n          pop\n            /* \"#utility.yul\":7:106   */\n          swap2\n          swap1\n          pop\n          jump\t// out\n            /* \"#utility.yul\":112:281   */\n        tag_90:\n            /* \"#utility.yul\":196:207   */\n          0x00\n            /* \"#utility.yul\":230:236   */\n          dup3\n            /* \"#utility.yul\":225:228   */\n          dup3\n            /* \"#utility.yul\":218:237   */\n          mstore\n            /* \"#utility.yul\":270:274   */\n          0x20\n            /* \"#utility.yul\":265:268   */\n          dup3\n            /* \"#utility.yul\":261:275   */\n          add\n            /* \"#utility.yul\":246:275   */\n          swap1\n          pop\n            /* \"#utility.yul\":112:281   */\n          swap3\n          swap2\n          pop\n          pop\n          jump\t// out\n            /* \"#utility.yul\":287:594   */\n        tag_91:\n            /* \"#utility.yul\":355:356   */\n          0x00\n            /* \"#utility.yul\":365:478   */\n        tag_115:\n            /* \"#utility.yul\":379:385   */\n          dup4\n            /* \"#utility.yul\":376:377   */\n          dup2\n            /* \"#utility.yul\":373:386   */\n          lt\n            /* \"#utility.yul\":365:478   */\n          iszero\n          tag_117\n          jumpi\n            /* \"#utility.yul\":464:465   */\n          dup1\n            /* \"#utility.yul\":459:462   */\n          dup3\n            /* \"#utility.yul\":455:466   */\n          add\n            /* \"#utility.yul\":449:467   */\n          mload\n            /* \"#utility.yul\":445:446   */\n          dup2\n            /* \"#utility.yul\":440:443   */\n          dup5\n            /* \"#utility.yul\":436:447   */\n          add\n            /* \"#utility.yul\":429:468   */\n          mstore\n            /* \"#utility.yul\":401:403   */\n          0x20\n            /* \"#utility.yul\":398:399   */\n          dup2\n            /* \"#utility.yul\":394:404   */\n          add\n            /* \"#utility.yul\":389:404   */\n          swap1\n          pop\n            /* \"#utility.yul\":365:478   */\n          jump(tag_115)\n        tag_117:\n            /* \"#utility.yul\":496:502   */\n          dup4\n            /* \"#utility.yul\":493:494   */\n          dup2\n            /* \"#utility.yul\":490:503   */\n          gt\n            /* \"#utility.yul\":487:588   */\n          iszero\n          tag_118\n          jumpi\n            /* \"#utility.yul\":576:577   */\n          0x00\n            /* \"#utility.yul\":567:573   */\n          dup5\n            /* \"#utility.yul\":562:565   */\n          dup5\n            /* \"#utility.yul\":558:574   */\n          add\n            /* \"#utility.yul\":551:578   */\n          mstore\n            /* \"#utility.yul\":487:588   */\n        tag_118:\n            /* \"#utility.yul\":336:594   */\n          pop\n            /* \"#utility.yul\":287:594   */\n          pop\n          pop\n          pop\n          jump\t// out\n            /* \"#utility.yul\":600:702   */\n        tag_92:\n            /* \"#utility.yul\":641:647   */\n          0x00\n            /* \"#utility.yul\":692:694   */\n          0x1f\n            /* \"#utility.yul\":688:695   */\n          not\n            /* \"#utility.yul\":683:685   */\n          0x1f\n            /* \"#utility.yul\":676:681   */\n          dup4\n            /* \"#utility.yul\":672:686   */\n          add\n            /* \"#utility.yul\":668:696   */\n          and\n            /* \"#utility.yul\":658:696   */\n          swap1\n          pop\n            /* \"#utility.yul\":600:702   */\n          swap2\n          swap1\n          pop\n          jump\t// out\n            /* \"#utility.yul\":708:1072   */\n        tag_93:\n            /* \"#utility.yul\":796:799   */\n          0x00\n            /* \"#utility.yul\":824:863   */\n          tag_121\n            /* \"#utility.yul\":857:862   */\n          dup3\n            /* \"#utility.yul\":824:863   */\n          tag_89\n          jump\t// in\n        tag_121:\n            /* \"#utility.yul\":879:950   */\n          tag_122\n            /* \"#utility.yul\":943:949   */\n          dup2\n            /* \"#utility.yul\":938:941   */\n          dup6\n            /* \"#utility.yul\":879:950   */\n          tag_90\n          jump\t// in\n        tag_122:\n            /* \"#utility.yul\":872:950   */\n          swap4\n          pop\n            /* \"#utility.yul\":959:1011   */\n          tag_123\n            /* \"#utility.yul\":1004:1010   */\n          dup2\n            /* \"#utility.yul\":999:1002   */\n          dup6\n            /* \"#utility.yul\":992:996   */\n          0x20\n            /* \"#utility.yul\":985:990   */\n          dup7\n            /* \"#utility.yul\":981:997   */\n          add\n            /* \"#utility.yul\":959:1011   */\n          tag_91\n          jump\t// in\n        tag_123:\n            /* \"#utility.yul\":1036:1065   */\n          tag_124\n            /* \"#utility.yul\":1058:1064   */\n          dup2\n            /* \"#utility.yul\":1036:1065   */\n          tag_92\n          jump\t// in\n        tag_124:\n            /* \"#utility.yul\":1031:1034   */\n          dup5\n            /* \"#utility.yul\":1027:1066   */\n          add\n            /* \"#utility.yul\":1020:1066   */\n          swap2\n          pop\n            /* \"#utility.yul\":800:1072   */\n          pop\n            /* \"#utility.yul\":708:1072   */\n          swap3\n          swap2\n          pop\n          pop\n          jump\t// out\n            /* \"#utility.yul\":1078:1391   */\n        tag_17:\n            /* \"#utility.yul\":1191:1195   */\n          0x00\n            /* \"#utility.yul\":1229:1231   */\n          0x20\n            /* \"#utility.yul\":1218:1227   */\n          dup3\n            /* \"#utility.yul\":1214:1232   */\n          add\n            /* \"#utility.yul\":1206:1232   */\n          swap1\n          pop\n            /* \"#utility.yul\":1278:1287   */\n          dup2\n            /* \"#utility.yul\":1272:1276   */\n          dup2\n            /* \"#utility.yul\":1268:1288   */\n          sub\n            /* \"#utility.yul\":1264:1265   */\n          0x00\n            /* \"#utility.yul\":1253:1262   */\n          dup4\n            /* \"#utility.yul\":1249:1266   */\n          add\n            /* \"#utility.yul\":1242:1289   */\n          mstore\n            /* \"#utility.yul\":1306:1384   */\n          tag_126\n            /* \"#utility.yul\":1379:1383   */\n          dup2\n            /* \"#utility.yul\":1370:1376   */\n          dup5\n            /* \"#utility.yul\":1306:1384   */\n          tag_93\n          jump\t// in\n        tag_126:\n            /* \"#utility.yul\":1298:1384   */\n          swap1\n          pop\n            /* \"#utility.yul\":1078:1391   */\n          swap3\n          swap2\n          pop\n          pop\n          jump\t// out\n            /* \"#utility.yul\":1397:1474   */\n        tag_94:\n            /* \"#utility.yul\":1434:1441   */\n          0x00\n            /* \"#utility.yul\":1463:1468   */\n          dup2\n            /* \"#utility.yul\":1452:1468   */\n          swap1\n          pop\n            /* \"#utility.yul\":1397:1474   */\n          swap2\n          swap1\n          pop\n          jump\t// out\n            /* \"#utility.yul\":1480:1598   */\n        tag_95:\n            /* \"#utility.yul\":1567:1591   */\n          tag_129\n            /* \"#utility.yul\":1585:1590   */\n          dup2\n            /* \"#utility.yul\":1567:1591   */\n          tag_94\n          jump\t// in\n        tag_129:\n            /* \"#utility.yul\":1562:1565   */\n          dup3\n            /* \"#utility.yul\":1555:1592   */\n          mstore\n            /* \"#utility.yul\":1480:1598   */\n          pop\n          pop\n          jump\t// out\n            /* \"#utility.yul\":1604:1826   */\n        tag_21:\n            /* \"#utility.yul\":1697:1701   */\n          0x00\n            /* \"#utility.yul\":1735:1737   */\n          0x20\n            /* \"#utility.yul\":1724:1733   */\n          dup3\n            /* \"#utility.yul\":1720:1738   */\n          add\n            /* \"#utility.yul\":1712:1738   */\n          swap1\n          pop\n            /* \"#utility.yul\":1748:1819   */\n          tag_131\n            /* \"#utility.yul\":1816:1817   */\n          0x00\n            /* \"#utility.yul\":1805:1814   */\n          dup4\n            /* \"#utility.yul\":1801:1818   */\n          add\n            /* \"#utility.yul\":1792:1798   */\n          dup5\n            /* \"#utility.yul\":1748:1819   */\n          tag_95\n          jump\t// in\n        tag_131:\n            /* \"#utility.yul\":1604:1826   */\n          swap3\n          swap2\n          pop\n          pop\n          jump\t// out\n            /* \"#utility.yul\":1913:2030   */\n        tag_97:\n            /* \"#utility.yul\":2022:2023   */\n          0x00\n            /* \"#utility.yul\":2019:2020   */\n          dup1\n            /* \"#utility.yul\":2012:2024   */\n          revert\n            /* \"#utility.yul\":2159:2285   */\n        tag_99:\n            /* \"#utility.yul\":2196:2203   */\n          0x00\n            /* \"#utility.yul\":2236:2278   */\n          0xffffffffffffffffffffffffffffffffffffffff\n            /* \"#utility.yul\":2229:2234   */\n          dup3\n            /* \"#utility.yul\":2225:2279   */\n          and\n            /* \"#utility.yul\":2214:2279   */\n          swap1\n          pop\n            /* \"#utility.yul\":2159:2285   */\n          swap2\n          swap1\n          pop\n          jump\t// out\n            /* \"#utility.yul\":2291:2387   */\n        tag_100:\n            /* \"#utility.yul\":2328:2335   */\n          0x00\n            /* \"#utility.yul\":2357:2381   */\n          tag_137\n            /* \"#utility.yul\":2375:2380   */\n          dup3\n            /* \"#utility.yul\":2357:2381   */\n          tag_99\n          jump\t// in\n        tag_137:\n            /* \"#utility.yul\":2346:2381   */\n          swap1\n          pop\n            /* \"#utility.yul\":2291:2387   */\n          swap2\n          swap1\n          pop\n          jump\t// out\n            /* \"#utility.yul\":2393:2515   */\n        tag_101:\n            /* \"#utility.yul\":2466:2490   */\n          tag_139\n            /* \"#utility.yul\":2484:2489   */\n          dup2\n            /* \"#utility.yul\":2466:2490   */\n          tag_100\n          jump\t// in\n        tag_139:\n            /* \"#utility.yul\":2459:2464   */\n          dup2\n            /* \"#utility.yul\":2456:2491   */\n          eq\n            /* \"#utility.yul\":2446:2509   */\n          tag_140\n          jumpi\n            /* \"#utility.yul\":2505:2506   */\n          0x00\n            /* \"#utility.yul\":2502:2503   */\n          dup1\n            /* \"#utility.yul\":2495:2507   */\n          revert\n            /* \"#utility.yul\":2446:2509   */\n        tag_140:\n            /* \"#utility.yul\":2393:2515   */\n          pop\n          jump\t// out\n            /* \"#utility.yul\":2521:2660   */\n        tag_102:\n            /* \"#utility.yul\":2567:2572   */\n          0x00\n            /* \"#utility.yul\":2605:2611   */\n          dup2\n            /* \"#utility.yul\":2592:2612   */\n          calldataload\n            /* \"#utility.yul\":2583:2612   */\n          swap1\n          pop\n            /* \"#utility.yul\":2621:2654   */\n          tag_142\n            /* \"#utility.yul\":2648:2653   */\n          dup2\n            /* \"#utility.yul\":2621:2654   */\n          tag_101\n          jump\t// in\n        tag_142:\n            /* \"#utility.yul\":2521:2660   */\n          swap3\n          swap2\n          pop\n          pop\n          jump\t// out\n            /* \"#utility.yul\":2666:2788   */\n        tag_103:\n            /* \"#utility.yul\":2739:2763   */\n          tag_144\n            /* \"#utility.yul\":2757:2762   */\n          dup2\n            /* \"#utility.yul\":2739:2763   */\n          tag_94\n          jump\t// in\n        tag_144:\n            /* \"#utility.yul\":2732:2737   */\n          dup2\n            /* \"#utility.yul\":2729:2764   */\n          eq\n            /* \"#utility.yul\":2719:2782   */\n          tag_145\n          jumpi\n            /* \"#utility.yul\":2778:2779   */\n          0x00\n            /* \"#utility.yul\":2775:2776   */\n          dup1\n            /* \"#utility.yul\":2768:2780   */\n          revert\n            /* \"#utility.yul\":2719:2782   */\n        tag_145:\n            /* \"#utility.yul\":2666:2788   */\n          pop\n          jump\t// out\n            /* \"#utility.yul\":2794:2933   */\n        tag_104:\n            /* \"#utility.yul\":2840:2845   */\n          0x00\n            /* \"#utility.yul\":2878:2884   */\n          dup2\n            /* \"#utility.yul\":2865:2885   */\n          calldataload\n            /* \"#utility.yul\":2856:2885   */\n          swap1\n          pop\n            /* \"#utility.yul\":2894:2927   */\n          tag_147\n            /* \"#utility.yul\":2921:2926   */\n          dup2\n            /* \"#utility.yul\":2894:2927   */\n          tag_103\n          jump\t// in\n        tag_147:\n            /* \"#utility.yul\":2794:2933   */\n          swap3\n          swap2\n          pop\n          pop\n          jump\t// out\n            /* \"#utility.yul\":2939:3558   */\n        tag_24:\n            /* \"#utility.yul\":3016:3022   */\n          0x00\n            /* \"#utility.yul\":3024:3030   */\n          dup1\n            /* \"#utility.yul\":3032:3038   */\n          0x00\n            /* \"#utility.yul\":3081:3083   */\n          0x60\n            /* \"#utility.yul\":3069:3078   */\n          dup5\n            /* \"#utility.yul\":3060:3067   */\n          dup7\n            /* \"#utility.yul\":3056:3079   */\n          sub\n            /* \"#utility.yul\":3052:3084   */\n          slt\n            /* \"#utility.yul\":3049:3168   */\n          iszero\n          tag_149\n          jumpi\n            /* \"#utility.yul\":3087:3166   */\n          tag_150\n          tag_97\n          jump\t// in\n        tag_150:\n            /* \"#utility.yul\":3049:3168   */\n        tag_149:\n            /* \"#utility.yul\":3207:3208   */\n          0x00\n            /* \"#utility.yul\":3232:3285   */\n          tag_151\n            /* \"#utility.yul\":3277:3284   */\n          dup7\n            /* \"#utility.yul\":3268:3274   */\n          dup3\n            /* \"#utility.yul\":3257:3266   */\n          dup8\n            /* \"#utility.yul\":3253:3275   */\n          add\n            /* \"#utility.yul\":3232:3285   */\n          tag_102\n          jump\t// in\n        tag_151:\n            /* \"#utility.yul\":3222:3285   */\n          swap4\n          pop\n            /* \"#utility.yul\":3178:3295   */\n          pop\n            /* \"#utility.yul\":3334:3336   */\n          0x20\n            /* \"#utility.yul\":3360:3413   */\n          tag_152\n            /* \"#utility.yul\":3405:3412   */\n          dup7\n            /* \"#utility.yul\":3396:3402   */\n          dup3\n            /* \"#utility.yul\":3385:3394   */\n          dup8\n            /* \"#utility.yul\":3381:3403   */\n          add\n            /* \"#utility.yul\":3360:3413   */\n          tag_102\n          jump\t// in\n        tag_152:\n            /* \"#utility.yul\":3350:3413   */\n          swap3\n          pop\n            /* \"#utility.yul\":3305:3423   */\n          pop\n            /* \"#utility.yul\":3462:3464   */\n          0x40\n            /* \"#utility.yul\":3488:3541   */\n          tag_153\n            /* \"#utility.yul\":3533:3540   */\n          dup7\n            /* \"#utility.yul\":3524:3530   */\n          dup3\n            /* \"#utility.yul\":3513:3522   */\n          dup8\n            /* \"#utility.yul\":3509:3531   */\n          add\n            /* \"#utility.yul\":3488:3541   */\n          tag_104\n          jump\t// in\n        tag_153:\n            /* \"#utility.yul\":3478:3541   */\n          swap2\n          pop\n            /* \"#utility.yul\":3433:3551   */\n          pop\n            /* \"#utility.yul\":2939:3558   */\n          swap3\n          pop\n          swap3\n          pop\n          swap3\n          jump\t// out\n            /* \"#utility.yul\":3564:3654   */\n        tag_105:\n            /* \"#utility.yul\":3598:3605   */\n          0x00\n            /* \"#utility.yul\":3641:3646   */\n          dup2\n            /* \"#utility.yul\":3634:3647   */\n          iszero\n            /* \"#utility.yul\":3627:3648   */\n          iszero\n            /* \"#utility.yul\":3616:3648   */\n          swap1\n          pop\n            /* \"#utility.yul\":3564:3654   */\n          swap2\n          swap1\n          pop\n          jump\t// out\n            /* \"#utility.yul\":3660:3769   */\n        tag_106:\n            /* \"#utility.yul\":3741:3762   */\n          tag_156\n            /* \"#utility.yul\":3756:3761   */\n          dup2\n            /* \"#utility.yul\":3741:3762   */\n          tag_105\n          jump\t// in\n        tag_156:\n            /* \"#utility.yul\":3736:3739   */\n          dup3\n            /* \"#utility.yul\":3729:3763   */\n          mstore\n            /* \"#utility.yul\":3660:3769   */\n          pop\n          pop\n          jump\t// out\n            /* \"#utility.yul\":3775:3985   */\n        tag_27:\n            /* \"#utility.yul\":3862:3866   */\n          0x00\n            /* \"#utility.yul\":3900:3902   */\n          0x20\n            /* \"#utility.yul\":3889:3898   */\n          dup3\n            /* \"#utility.yul\":3885:3903   */\n          add\n            /* \"#utility.yul\":3877:3903   */\n          swap1\n          pop\n            /* \"#utility.yul\":3913:3978   */\n          tag_158\n            /* \"#utility.yul\":3975:3976   */\n          0x00\n            /* \"#utility.yul\":3964:3973   */\n          dup4\n            /* \"#utility.yul\":3960:3977   */\n          add\n            /* \"#utility.yul\":3951:3957   */\n          dup5\n            /* \"#utility.yul\":3913:3978   */\n          tag_106\n          jump\t// in\n        tag_158:\n            /* \"#utility.yul\":3775:3985   */\n          swap3\n          swap2\n          pop\n          pop\n          jump\t// out\n            /* \"#utility.yul\":3991:4077   */\n        tag_107:\n            /* \"#utility.yul\":4026:4033   */\n          0x00\n            /* \"#utility.yul\":4066:4070   */\n          0xff\n            /* \"#utility.yul\":4059:4064   */\n          dup3\n            /* \"#utility.yul\":4055:4071   */\n          and\n            /* \"#utility.yul\":4044:4071   */\n          swap1\n          pop\n            /* \"#utility.yul\":3991:4077   */\n          swap2\n          swap1\n          pop\n          jump\t// out\n            /* \"#utility.yul\":4083:4195   */\n        tag_108:\n            /* \"#utility.yul\":4166:4188   */\n          tag_161\n            /* \"#utility.yul\":4182:4187   */\n          dup2\n            /* \"#utility.yul\":4166:4188   */\n          tag_107\n          jump\t// in\n        tag_161:\n            /* \"#utility.yul\":4161:4164   */\n          dup3\n            /* \"#utility.yul\":4154:4189   */\n          mstore\n            /* \"#utility.yul\":4083:4195   */\n          pop\n          pop\n          jump\t// out\n            /* \"#utility.yul\":4201:4415   */\n        tag_31:\n            /* \"#utility.yul\":4290:4294   */\n          0x00\n            /* \"#utility.yul\":4328:4330   */\n          0x20\n            /* \"#utility.yul\":4317:4326   */\n          dup3\n            /* \"#utility.yul\":4313:4331   */\n          add\n            /* \"#utility.yul\":4305:4331   */\n          swap1\n          pop\n            /* \"#utility.yul\":4341:4408   */\n          tag_163\n            /* \"#utility.yul\":4405:4406   */\n          0x00\n            /* \"#utility.yul\":4394:4403   */\n          dup4\n            /* \"#utility.yul\":4390:4407   */\n          add\n            /* \"#utility.yul\":4381:4387   */\n          dup5\n            /* \"#utility.yul\":4341:4408   */\n          tag_108\n          jump\t// in\n        tag_163:\n            /* \"#utility.yul\":4201:4415   */\n          swap3\n          swap2\n          pop\n          pop\n          jump\t// out\n            /* \"#utility.yul\":4421:4539   */\n        tag_109:\n            /* \"#utility.yul\":4508:4532   */\n          tag_165\n            /* \"#utility.yul\":4526:4531   */\n          dup2\n            /* \"#utility.yul\":4508:4532   */\n          tag_100\n          jump\t// in\n        tag_165:\n            /* \"#utility.yul\":4503:4506   */\n          dup3\n            /* \"#utility.yul\":4496:4533   */\n          mstore\n            /* \"#utility.yul\":4421:4539   */\n          pop\n          pop\n          jump\t// out\n            /* \"#utility.yul\":4545:4767   */\n        tag_35:\n            /* \"#utility.yul\":4638:4642   */\n          0x00\n            /* \"#utility.yul\":4676:4678   */\n          0x20\n            /* \"#utility.yul\":4665:4674   */\n          dup3\n            /* \"#utility.yul\":4661:4679   */\n          add\n            /* \"#utility.yul\":4653:4679   */\n          swap1\n          pop\n            /* \"#utility.yul\":4689:4760   */\n          tag_167\n            /* \"#utility.yul\":4757:4758   */\n          0x00\n            /* \"#utility.yul\":4746:4755   */\n          dup4\n            /* \"#utility.yul\":4742:4759   */\n          add\n            /* \"#utility.yul\":4733:4739   */\n          dup5\n            /* \"#utility.yul\":4689:4760   */\n          tag_109\n          jump\t// in\n        tag_167:\n            /* \"#utility.yul\":4545:4767   */\n          swap3\n          swap2\n          pop\n          pop\n          jump\t// out\n            /* \"#utility.yul\":4773:5102   */\n        tag_38:\n            /* \"#utility.yul\":4832:4838   */\n          0x00\n            /* \"#utility.yul\":4881:4883   */\n          0x20\n            /* \"#utility.yul\":4869:4878   */\n          dup3\n            /* \"#utility.yul\":4860:4867   */\n          dup5\n            /* \"#utility.yul\":4856:4879   */\n          sub\n            /* \"#utility.yul\":4852:4884   */\n          slt\n            /* \"#utility.yul\":4849:4968   */\n          iszero\n          tag_169\n          jumpi\n            /* \"#utility.yul\":4887:4966   */\n          tag_170\n          tag_97\n          jump\t// in\n        tag_170:\n            /* \"#utility.yul\":4849:4968   */\n        tag_169:\n            /* \"#utility.yul\":5007:5008   */\n          0x00\n            /* \"#utility.yul\":5032:5085   */\n          tag_171\n            /* \"#utility.yul\":5077:5084   */\n          dup5\n            /* \"#utility.yul\":5068:5074   */\n          dup3\n            /* \"#utility.yul\":5057:5066   */\n          dup6\n            /* \"#utility.yul\":5053:5075   */\n          add\n            /* \"#utility.yul\":5032:5085   */\n          tag_102\n          jump\t// in\n        tag_171:\n            /* \"#utility.yul\":5022:5085   */\n          swap2\n          pop\n            /* \"#utility.yul\":4978:5095   */\n          pop\n            /* \"#utility.yul\":4773:5102   */\n          swap3\n          swap2\n          pop\n          pop\n          jump\t// out\n            /* \"#utility.yul\":5108:5582   */\n        tag_46:\n            /* \"#utility.yul\":5176:5182   */\n          0x00\n            /* \"#utility.yul\":5184:5190   */\n          dup1\n            /* \"#utility.yul\":5233:5235   */\n          0x40\n            /* \"#utility.yul\":5221:5230   */\n          dup4\n            /* \"#utility.yul\":5212:5219   */\n          dup6\n            /* \"#utility.yul\":5208:5231   */\n          sub\n            /* \"#utility.yul\":5204:5236   */\n          slt\n            /* \"#utility.yul\":5201:5320   */\n          iszero\n          tag_173\n          jumpi\n            /* \"#utility.yul\":5239:5318   */\n          tag_174\n          tag_97\n          jump\t// in\n        tag_174:\n            /* \"#utility.yul\":5201:5320   */\n        tag_173:\n            /* \"#utility.yul\":5359:5360   */\n          0x00\n            /* \"#utility.yul\":5384:5437   */\n          tag_175\n            /* \"#utility.yul\":5429:5436   */\n          dup6\n            /* \"#utility.yul\":5420:5426   */\n          dup3\n            /* \"#utility.yul\":5409:5418   */\n          dup7\n            /* \"#utility.yul\":5405:5427   */\n          add\n            /* \"#utility.yul\":5384:5437   */\n          tag_102\n          jump\t// in\n        tag_175:\n            /* \"#utility.yul\":5374:5437   */\n          swap3\n          pop\n            /* \"#utility.yul\":5330:5447   */\n          pop\n            /* \"#utility.yul\":5486:5488   */\n          0x20\n            /* \"#utility.yul\":5512:5565   */\n          tag_176\n            /* \"#utility.yul\":5557:5564   */\n          dup6\n            /* \"#utility.yul\":5548:5554   */\n          dup3\n            /* \"#utility.yul\":5537:5546   */\n          dup7\n            /* \"#utility.yul\":5533:5555   */\n          add\n            /* \"#utility.yul\":5512:5565   */\n          tag_104\n          jump\t// in\n        tag_176:\n            /* \"#utility.yul\":5502:5565   */\n          swap2\n          pop\n            /* \"#utility.yul\":5457:5575   */\n          pop\n            /* \"#utility.yul\":5108:5582   */\n          swap3\n          pop\n          swap3\n          swap1\n          pop\n          jump\t// out\n            /* \"#utility.yul\":5588:6062   */\n        tag_51:\n            /* \"#utility.yul\":5656:5662   */\n          0x00\n            /* \"#utility.yul\":5664:5670   */\n          dup1\n            /* \"#utility.yul\":5713:5715   */\n          0x40\n            /* \"#utility.yul\":5701:5710   */\n          dup4\n            /* \"#utility.yul\":5692:5699   */\n          dup6\n            /* \"#utility.yul\":5688:5711   */\n          sub\n            /* \"#utility.yul\":5684:5716   */\n          slt\n            /* \"#utility.yul\":5681:5800   */\n          iszero\n          tag_178\n          jumpi\n            /* \"#utility.yul\":5719:5798   */\n          tag_179\n          tag_97\n          jump\t// in\n        tag_179:\n            /* \"#utility.yul\":5681:5800   */\n        tag_178:\n            /* \"#utility.yul\":5839:5840   */\n          0x00\n            /* \"#utility.yul\":5864:5917   */\n          tag_180\n            /* \"#utility.yul\":5909:5916   */\n          dup6\n            /* \"#utility.yul\":5900:5906   */\n          dup3\n            /* \"#utility.yul\":5889:5898   */\n          dup7\n            /* \"#utility.yul\":5885:5907   */\n          add\n            /* \"#utility.yul\":5864:5917   */\n          tag_102\n          jump\t// in\n        tag_180:\n            /* \"#utility.yul\":5854:5917   */\n          swap3\n          pop\n            /* \"#utility.yul\":5810:5927   */\n          pop\n            /* \"#utility.yul\":5966:5968   */\n          0x20\n            /* \"#utility.yul\":5992:6045   */\n          tag_181\n            /* \"#utility.yul\":6037:6044   */\n          dup6\n            /* \"#utility.yul\":6028:6034   */\n          dup3\n            /* \"#utility.yul\":6017:6026   */\n          dup7\n            /* \"#utility.yul\":6013:6035   */\n          add\n            /* \"#utility.yul\":5992:6045   */\n          tag_102\n          jump\t// in\n        tag_181:\n            /* \"#utility.yul\":5982:6045   */\n          swap2\n          pop\n            /* \"#utility.yul\":5937:6055   */\n          pop\n            /* \"#utility.yul\":5588:6062   */\n          swap3\n          pop\n          swap3\n          swap1\n          pop\n          jump\t// out\n            /* \"#utility.yul\":6068:6248   */\n        tag_81:\n            /* \"#utility.yul\":6116:6193   */\n          0x4e487b7100000000000000000000000000000000000000000000000000000000\n            /* \"#utility.yul\":6113:6114   */\n          0x00\n            /* \"#utility.yul\":6106:6194   */\n          mstore\n            /* \"#utility.yul\":6213:6217   */\n          0x01\n            /* \"#utility.yul\":6210:6211   */\n          0x04\n            /* \"#utility.yul\":6203:6218   */\n          mstore\n            /* \"#utility.yul\":6237:6241   */\n          0x24\n            /* \"#utility.yul\":6234:6235   */\n          0x00\n            /* \"#utility.yul\":6227:6242   */\n          revert\n            /* \"#utility.yul\":6254:6434   */\n        tag_110:\n            /* \"#utility.yul\":6302:6379   */\n          0x4e487b7100000000000000000000000000000000000000000000000000000000\n            /* \"#utility.yul\":6299:6300   */\n          0x00\n            /* \"#utility.yul\":6292:6380   */\n          mstore\n            /* \"#utility.yul\":6399:6403   */\n          0x11\n            /* \"#utility.yul\":6396:6397   */\n          0x04\n            /* \"#utility.yul\":6389:6404   */\n          mstore\n            /* \"#utility.yul\":6423:6427   */\n          0x24\n            /* \"#utility.yul\":6420:6421   */\n          0x00\n            /* \"#utility.yul\":6413:6428   */\n          revert\n            /* \"#utility.yul\":6440:6631   */\n        tag_83:\n            /* \"#utility.yul\":6480:6484   */\n          0x00\n            /* \"#utility.yul\":6500:6520   */\n          tag_185\n            /* \"#utility.yul\":6518:6519   */\n          dup3\n            /* \"#utility.yul\":6500:6520   */\n          tag_94\n          jump\t// in\n        tag_185:\n            /* \"#utility.yul\":6495:6520   */\n          swap2\n          pop\n            /* \"#utility.yul\":6534:6554   */\n          tag_186\n            /* \"#utility.yul\":6552:6553   */\n          dup4\n            /* \"#utility.yul\":6534:6554   */\n          tag_94\n          jump\t// in\n        tag_186:\n            /* \"#utility.yul\":6529:6554   */\n          swap3\n          pop\n            /* \"#utility.yul\":6573:6574   */\n          dup3\n            /* \"#utility.yul\":6570:6571   */\n          dup3\n            /* \"#utility.yul\":6567:6575   */\n          lt\n            /* \"#utility.yul\":6564:6598   */\n          iszero\n          tag_187\n          jumpi\n            /* \"#utility.yul\":6578:6596   */\n          tag_188\n          tag_110\n          jump\t// in\n        tag_188:\n            /* \"#utility.yul\":6564:6598   */\n        tag_187:\n            /* \"#utility.yul\":6623:6624   */\n          dup3\n            /* \"#utility.yul\":6620:6621   */\n          dup3\n            /* \"#utility.yul\":6616:6625   */\n          sub\n            /* \"#utility.yul\":6608:6625   */\n          swap1\n          pop\n            /* \"#utility.yul\":6440:6631   */\n          swap3\n          swap2\n          pop\n          pop\n          jump\t// out\n            /* \"#utility.yul\":6637:6942   */\n        tag_86:\n            /* \"#utility.yul\":6677:6680   */\n          0x00\n            /* \"#utility.yul\":6696:6716   */\n          tag_190\n            /* \"#utility.yul\":6714:6715   */\n          dup3\n            /* \"#utility.yul\":6696:6716   */\n          tag_94\n          jump\t// in\n        tag_190:\n            /* \"#utility.yul\":6691:6716   */\n          swap2\n          pop\n            /* \"#utility.yul\":6730:6750   */\n          tag_191\n            /* \"#utility.yul\":6748:6749   */\n          dup4\n            /* \"#utility.yul\":6730:6750   */\n          tag_94\n          jump\t// in\n        tag_191:\n            /* \"#utility.yul\":6725:6750   */\n          swap3\n          pop\n            /* \"#utility.yul\":6884:6885   */\n          dup3\n            /* \"#utility.yul\":6816:6882   */\n          0xffffffffffffffffffffffffffffffffffffffffffffffffffffffffffffffff\n            /* \"#utility.yul\":6812:6886   */\n          sub\n            /* \"#utility.yul\":6809:6810   */\n          dup3\n            /* \"#utility.yul\":6806:6887   */\n          gt\n            /* \"#utility.yul\":6803:6910   */\n          iszero\n          tag_192\n          jumpi\n            /* \"#utility.yul\":6890:6908   */\n          tag_193\n          tag_110\n          jump\t// in\n        tag_193:\n            /* \"#utility.yul\":6803:6910   */\n        tag_192:\n            /* \"#utility.yul\":6934:6935   */\n          dup3\n            /* \"#utility.yul\":6931:6932   */\n          dup3\n            /* \"#utility.yul\":6927:6936   */\n          add\n            /* \"#utility.yul\":6920:6936   */\n          swap1\n          pop\n            /* \"#utility.yul\":6637:6942   */\n          swap3\n          swap2\n          pop\n          pop\n          jump\t// out\n\n        auxdata: 0xa2646970667358221220f9ce6d267765ba437ea3647b4bb902767546cab7e568f464d6520299bf4c728d64736f6c634300080b0033\n    }\n}\n",
				"bytecode": {
					"linkReferences": {},
					"object": "608060405234801561001057600080fd5b5060405161001d9061007e565b604051809103906000f080158015610039573d6000803e3d6000fd5b506000806101000a81548173ffffffffffffffffffffffffffffffffffffffff021916908373ffffffffffffffffffffffffffffffffffffffff16021790555061008b565b610ec88061105783390190565b610fbd8061009a6000396000f3fe60806040526004361061009c5760003560e01c8063973e9b8b11610064578063973e9b8b14610178578063a6f2ae3a146101a3578063b759f954146101ad578063c4e41b22146101ea578063e4849b3214610215578063fc0c546a146102315761009c565b806310fe9ae8146100a157806338cc4831146100cc57806342948e18146100f7578063430f480114610122578063590791f21461014d575b600080fd5b3480156100ad57600080fd5b506100b661025c565b6040516100c39190610aa0565b60405180910390f35b3480156100d857600080fd5b506100e16102f3565b6040516100ee9190610aa0565b60405180910390f35b34801561010357600080fd5b5061010c6102fb565b6040516101199190610aa0565b60405180910390f35b34801561012e57600080fd5b50610137610303565b6040516101449190610ad4565b60405180910390f35b34801561015957600080fd5b506101626103a5565b60405161016f9190610ad4565b60405180910390f35b34801561018457600080fd5b5061018d610447565b60405161019a9190610ad4565b60405180910390f35b6101ab6104ef565b005b3480156101b957600080fd5b506101d460048036038101906101cf9190610b20565b6106f3565b6040516101e19190610b68565b60405180910390f35b3480156101f657600080fd5b506101ff6107a1565b60405161020c9190610ad4565b60405180910390f35b61022f600480360381019061022a9190610b20565b610838565b005b34801561023d57600080fd5b50610246610a3b565b6040516102539190610be2565b60405180910390f35b60008060009054906101000a900473ffffffffffffffffffffffffffffffffffffffff1673ffffffffffffffffffffffffffffffffffffffff166338cc48316040518163ffffffff1660e01b8152600401602060405180830381865afa1580156102ca573d6000803e3d6000fd5b505050506040513d601f19601f820116820180604052508101906102ee9190610c29565b905090565b600030905090565b600033905090565b60008060009054906101000a900473ffffffffffffffffffffffffffffffffffffffff1673ffffffffffffffffffffffffffffffffffffffff166370a08231306040518263ffffffff1660e01b815260040161035f9190610aa0565b602060405180830381865afa15801561037c573d6000803e3d6000fd5b505050506040513d601f19601f820116820180604052508101906103a09190610c6b565b905090565b60008060009054906101000a900473ffffffffffffffffffffffffffffffffffffffff1673ffffffffffffffffffffffffffffffffffffffff166370a08231336040518263ffffffff1660e01b81526004016104019190610aa0565b602060405180830381865afa15801561041e573d6000803e3d6000fd5b505050506040513d601f19601f820116820180604052508101906104429190610c6b565b905090565b60008060008054906101000a900473ffffffffffffffffffffffffffffffffffffffff1673ffffffffffffffffffffffffffffffffffffffff1663dd62ed3e33306040518363ffffffff1660e01b81526004016104a5929190610c98565b602060405180830381865afa1580156104c2573d6000803e3d6000fd5b505050506040513d601f19601f820116820180604052508101906104e69190610c6b565b90508091505090565b600034905060008060009054906101000a900473ffffffffffffffffffffffffffffffffffffffff1673ffffffffffffffffffffffffffffffffffffffff166370a08231306040518263ffffffff1660e01b81526004016105509190610aa0565b602060405180830381865afa15801561056d573d6000803e3d6000fd5b505050506040513d601f19601f820116820180604052508101906105919190610c6b565b9050600082116105d6576040517f08c379a00000000000000000000000000000000000000000000000000000000081526004016105cd90610d1e565b60405180910390fd5b80821115610619576040517f08c379a000000000000000000000000000000000000000000000000000000000815260040161061090610db0565b60405180910390fd5b60008054906101000a900473ffffffffffffffffffffffffffffffffffffffff1673ffffffffffffffffffffffffffffffffffffffff1663a9059cbb33846040518363ffffffff1660e01b8152600401610674929190610dd0565b6020604051808303816000875af1158015610693573d6000803e3d6000fd5b505050506040513d601f19601f820116820180604052508101906106b79190610e25565b507f4e08ba899977cf7d4c2964bce71c6b9a7ef76ee5166a4c1249a1e08016e33ef1826040516106e79190610ad4565b60405180910390a15050565b60008060008054906101000a900473ffffffffffffffffffffffffffffffffffffffff1673ffffffffffffffffffffffffffffffffffffffff1663e1f21c673330866040518463ffffffff1660e01b815260040161075393929190610e52565b6020604051808303816000875af1158015610772573d6000803e3d6000fd5b505050506040513d601f19601f820116820180604052508101906107969190610e25565b905080915050919050565b60008060009054906101000a900473ffffffffffffffffffffffffffffffffffffffff1673ffffffffffffffffffffffffffffffffffffffff166318160ddd6040518163ffffffff1660e01b8152600401602060405180830381865afa15801561080f573d6000803e3d6000fd5b505050506040513d601f19601f820116820180604052508101906108339190610c6b565b905090565b6000811161087b576040517f08c379a000000000000000000000000000000000000000000000000000000000815260040161087290610efb565b60405180910390fd5b60008060009054906101000a900473ffffffffffffffffffffffffffffffffffffffff1673ffffffffffffffffffffffffffffffffffffffff1663dd62ed3e33306040518363ffffffff1660e01b81526004016108d9929190610c98565b602060405180830381865afa1580156108f6573d6000803e3d6000fd5b505050506040513d601f19601f8201168201806040525081019061091a9190610c6b565b90508181101561095f576040517f08c379a000000000000000000000000000000000000000000000000000000000815260040161095690610f67565b60405180910390fd5b60008054906101000a900473ffffffffffffffffffffffffffffffffffffffff1673ffffffffffffffffffffffffffffffffffffffff166323b872dd3330856040518463ffffffff1660e01b81526004016109bc93929190610e52565b6020604051808303816000875af11580156109db573d6000803e3d6000fd5b505050506040513d601f19601f820116820180604052508101906109ff9190610e25565b507f92f64ca637d023f354075a4be751b169c1a8a9ccb6d33cdd0cb352054399572782604051610a2f9190610ad4565b60405180910390a15050565b60008054906101000a900473ffffffffffffffffffffffffffffffffffffffff1681565b600073ffffffffffffffffffffffffffffffffffffffff82169050919050565b6000610a8a82610a5f565b9050919050565b610a9a81610a7f565b82525050565b6000602082019050610ab56000830184610a91565b92915050565b6000819050919050565b610ace81610abb565b82525050565b6000602082019050610ae96000830184610ac5565b92915050565b600080fd5b610afd81610abb565b8114610b0857600080fd5b50565b600081359050610b1a81610af4565b92915050565b600060208284031215610b3657610b35610aef565b5b6000610b4484828501610b0b565b91505092915050565b60008115159050919050565b610b6281610b4d565b82525050565b6000602082019050610b7d6000830184610b59565b92915050565b6000819050919050565b6000610ba8610ba3610b9e84610a5f565b610b83565b610a5f565b9050919050565b6000610bba82610b8d565b9050919050565b6000610bcc82610baf565b9050919050565b610bdc81610bc1565b82525050565b6000602082019050610bf76000830184610bd3565b92915050565b610c0681610a7f565b8114610c1157600080fd5b50565b600081519050610c2381610bfd565b92915050565b600060208284031215610c3f57610c3e610aef565b5b6000610c4d84828501610c14565b91505092915050565b600081519050610c6581610af4565b92915050565b600060208284031215610c8157610c80610aef565b5b6000610c8f84828501610c56565b91505092915050565b6000604082019050610cad6000830185610a91565b610cba6020830184610a91565b9392505050565b600082825260208201905092915050565b7f596f75206e65656420746f2073656e6420736f6d652065746865722100000000600082015250565b6000610d08601c83610cc1565b9150610d1382610cd2565b602082019050919050565b60006020820190508181036000830152610d3781610cfb565b9050919050565b7f4e6f7420656e6f75676820746f6b656e7320696e20746865207265766572736560008201527f2100000000000000000000000000000000000000000000000000000000000000602082015250565b6000610d9a602183610cc1565b9150610da582610d3e565b604082019050919050565b60006020820190508181036000830152610dc981610d8d565b9050919050565b6000604082019050610de56000830185610a91565b610df26020830184610ac5565b9392505050565b610e0281610b4d565b8114610e0d57600080fd5b50565b600081519050610e1f81610df9565b92915050565b600060208284031215610e3b57610e3a610aef565b5b6000610e4984828501610e10565b91505092915050565b6000606082019050610e676000830186610a91565b610e746020830185610a91565b610e816040830184610ac5565b949350505050565b7f596f75206e65656420746f2073656c6c206174206c65617374203120746f6b6560008201527f6e21000000000000000000000000000000000000000000000000000000000000602082015250565b6000610ee5602283610cc1565b9150610ef082610e89565b604082019050919050565b60006020820190508181036000830152610f1481610ed8565b9050919050565b7f436865636b2074686520746f6b656e20616c6c6f77616e636521000000000000600082015250565b6000610f51601a83610cc1565b9150610f5c82610f1b565b602082019050919050565b60006020820190508181036000830152610f8081610f44565b905091905056fea2646970667358221220bf47e3b81702f0bdbfa1b10731d860e3f9ef63544b131c88cdd546ecc3cb6eb864736f6c634300080b00336080604052678ac7230489e8000060025534801561001c57600080fd5b506002546000803373ffffffffffffffffffffffffffffffffffffffff1673ffffffffffffffffffffffffffffffffffffffff16815260200190815260200160002081905550610e57806100716000396000f3fe608060405234801561001057600080fd5b506004361061009e5760003560e01c806370a082311161006657806370a082311461014b57806395d89b411461017b578063a9059cbb14610199578063dd62ed3e146101c9578063e1f21c67146101f95761009e565b806306fdde03146100a357806318160ddd146100c157806323b872dd146100df578063313ce5671461010f57806338cc48311461012d575b600080fd5b6100ab610229565b6040516100b89190610abd565b60405180910390f35b6100c9610262565b6040516100d69190610af8565b60405180910390f35b6100f960048036038101906100f49190610ba2565b61026c565b6040516101069190610c10565b60405180910390f35b6101176105e7565b6040516101249190610c47565b60405180910390f35b6101356105ec565b6040516101429190610c71565b60405180910390f35b61016560048036038101906101609190610c8c565b6105f4565b6040516101729190610af8565b60405180910390f35b61018361063c565b6040516101909190610abd565b60405180910390f35b6101b360048036038101906101ae9190610cb9565b610675565b6040516101c09190610c10565b60405180910390f35b6101e360048036038101906101de9190610cf9565b610857565b6040516101f09190610af8565b60405180910390f35b610213600480360381019061020e9190610ba2565b6108de565b6040516102209190610c10565b60405180910390f35b6040518060400160405280601281526020017f45524332302d5869616f6368756e436f696e000000000000000000000000000081525081565b6000600254905090565b60008060008573ffffffffffffffffffffffffffffffffffffffff1673ffffffffffffffffffffffffffffffffffffffff168152602001908152602001600020548211156102b957600080fd5b600160008573ffffffffffffffffffffffffffffffffffffffff1673ffffffffffffffffffffffffffffffffffffffff16815260200190815260200160002060003373ffffffffffffffffffffffffffffffffffffffff1673ffffffffffffffffffffffffffffffffffffffff1681526020019081526020016000205482111561034257600080fd5b610393826000808773ffffffffffffffffffffffffffffffffffffffff1673ffffffffffffffffffffffffffffffffffffffff168152602001908152602001600020546109d190919063ffffffff16565b6000808673ffffffffffffffffffffffffffffffffffffffff1673ffffffffffffffffffffffffffffffffffffffff1681526020019081526020016000208190555061046482600160008773ffffffffffffffffffffffffffffffffffffffff1673ffffffffffffffffffffffffffffffffffffffff16815260200190815260200160002060008673ffffffffffffffffffffffffffffffffffffffff1673ffffffffffffffffffffffffffffffffffffffff168152602001908152602001600020546109d190919063ffffffff16565b600160008673ffffffffffffffffffffffffffffffffffffffff1673ffffffffffffffffffffffffffffffffffffffff16815260200190815260200160002060008573ffffffffffffffffffffffffffffffffffffffff1673ffffffffffffffffffffffffffffffffffffffff16815260200190815260200160002081905550610535826000808673ffffffffffffffffffffffffffffffffffffffff1673ffffffffffffffffffffffffffffffffffffffff168152602001908152602001600020546109f890919063ffffffff16565b6000808573ffffffffffffffffffffffffffffffffffffffff1673ffffffffffffffffffffffffffffffffffffffff168152602001908152602001600020819055508273ffffffffffffffffffffffffffffffffffffffff168473ffffffffffffffffffffffffffffffffffffffff167f5225eac2a7facfbeb099c00a4cc7c457701324f1fd84b84b14033f9e911374a4846040516105d49190610af8565b60405180910390a3600190509392505050565b601281565b600030905090565b60008060008373ffffffffffffffffffffffffffffffffffffffff1673ffffffffffffffffffffffffffffffffffffffff168152602001908152602001600020549050919050565b6040518060400160405280600781526020017f4552432d5843430000000000000000000000000000000000000000000000000081525081565b60008060003373ffffffffffffffffffffffffffffffffffffffff1673ffffffffffffffffffffffffffffffffffffffff168152602001908152602001600020548211156106c257600080fd5b610713826000803373ffffffffffffffffffffffffffffffffffffffff1673ffffffffffffffffffffffffffffffffffffffff168152602001908152602001600020546109d190919063ffffffff16565b6000803373ffffffffffffffffffffffffffffffffffffffff1673ffffffffffffffffffffffffffffffffffffffff168152602001908152602001600020819055506107a6826000808673ffffffffffffffffffffffffffffffffffffffff1673ffffffffffffffffffffffffffffffffffffffff168152602001908152602001600020546109f890919063ffffffff16565b6000808573ffffffffffffffffffffffffffffffffffffffff1673ffffffffffffffffffffffffffffffffffffffff168152602001908152602001600020819055508273ffffffffffffffffffffffffffffffffffffffff163373ffffffffffffffffffffffffffffffffffffffff167f5225eac2a7facfbeb099c00a4cc7c457701324f1fd84b84b14033f9e911374a4846040516108459190610af8565b60405180910390a36001905092915050565b6000600160008473ffffffffffffffffffffffffffffffffffffffff1673ffffffffffffffffffffffffffffffffffffffff16815260200190815260200160002060008373ffffffffffffffffffffffffffffffffffffffff1673ffffffffffffffffffffffffffffffffffffffff16815260200190815260200160002054905092915050565b600081600160008673ffffffffffffffffffffffffffffffffffffffff1673ffffffffffffffffffffffffffffffffffffffff16815260200190815260200160002060008573ffffffffffffffffffffffffffffffffffffffff1673ffffffffffffffffffffffffffffffffffffffff168152602001908152602001600020819055508273ffffffffffffffffffffffffffffffffffffffff168473ffffffffffffffffffffffffffffffffffffffff167f8c5be1e5ebec7d5bd14f71427d1e84f3dd0314c0f7b2291e5b200ac8c7c3b925846040516109be9190610af8565b60405180910390a3600190509392505050565b6000828211156109e4576109e3610d39565b5b81836109f09190610d97565b905092915050565b6000808284610a079190610dcb565b905083811015610a1a57610a19610d39565b5b8091505092915050565b600081519050919050565b600082825260208201905092915050565b60005b83811015610a5e578082015181840152602081019050610a43565b83811115610a6d576000848401525b50505050565b6000601f19601f8301169050919050565b6000610a8f82610a24565b610a998185610a2f565b9350610aa9818560208601610a40565b610ab281610a73565b840191505092915050565b60006020820190508181036000830152610ad78184610a84565b905092915050565b6000819050919050565b610af281610adf565b82525050565b6000602082019050610b0d6000830184610ae9565b92915050565b600080fd5b600073ffffffffffffffffffffffffffffffffffffffff82169050919050565b6000610b4382610b18565b9050919050565b610b5381610b38565b8114610b5e57600080fd5b50565b600081359050610b7081610b4a565b92915050565b610b7f81610adf565b8114610b8a57600080fd5b50565b600081359050610b9c81610b76565b92915050565b600080600060608486031215610bbb57610bba610b13565b5b6000610bc986828701610b61565b9350506020610bda86828701610b61565b9250506040610beb86828701610b8d565b9150509250925092565b60008115159050919050565b610c0a81610bf5565b82525050565b6000602082019050610c256000830184610c01565b92915050565b600060ff82169050919050565b610c4181610c2b565b82525050565b6000602082019050610c5c6000830184610c38565b92915050565b610c6b81610b38565b82525050565b6000602082019050610c866000830184610c62565b92915050565b600060208284031215610ca257610ca1610b13565b5b6000610cb084828501610b61565b91505092915050565b60008060408385031215610cd057610ccf610b13565b5b6000610cde85828601610b61565b9250506020610cef85828601610b8d565b9150509250929050565b60008060408385031215610d1057610d0f610b13565b5b6000610d1e85828601610b61565b9250506020610d2f85828601610b61565b9150509250929050565b7f4e487b7100000000000000000000000000000000000000000000000000000000600052600160045260246000fd5b7f4e487b7100000000000000000000000000000000000000000000000000000000600052601160045260246000fd5b6000610da282610adf565b9150610dad83610adf565b925082821015610dc057610dbf610d68565b5b828203905092915050565b6000610dd682610adf565b9150610de183610adf565b9250827fffffffffffffffffffffffffffffffffffffffffffffffffffffffffffffffff03821115610e1657610e15610d68565b5b82820190509291505056fea2646970667358221220f9ce6d267765ba437ea3647b4bb902767546cab7e568f464d6520299bf4c728d64736f6c634300080b0033",
					"opcodes": "PUSH1 0x80 PUSH1 0x40 MSTORE CALLVALUE DUP1 ISZERO PUSH2 0x10 JUMPI PUSH1 0x0 DUP1 REVERT JUMPDEST POP PUSH1 0x40 MLOAD PUSH2 0x1D SWAP1 PUSH2 0x7E JUMP JUMPDEST PUSH1 0x40 MLOAD DUP1 SWAP2 SUB SWAP1 PUSH1 0x0 CREATE DUP1 ISZERO DUP1 ISZERO PUSH2 0x39 JUMPI RETURNDATASIZE PUSH1 0x0 DUP1 RETURNDATACOPY RETURNDATASIZE PUSH1 0x0 REVERT JUMPDEST POP PUSH1 0x0 DUP1 PUSH2 0x100 EXP DUP2 SLOAD DUP2 PUSH20 0xFFFFFFFFFFFFFFFFFFFFFFFFFFFFFFFFFFFFFFFF MUL NOT AND SWAP1 DUP4 PUSH20 0xFFFFFFFFFFFFFFFFFFFFFFFFFFFFFFFFFFFFFFFF AND MUL OR SWAP1 SSTORE POP PUSH2 0x8B JUMP JUMPDEST PUSH2 0xEC8 DUP1 PUSH2 0x1057 DUP4 CODECOPY ADD SWAP1 JUMP JUMPDEST PUSH2 0xFBD DUP1 PUSH2 0x9A PUSH1 0x0 CODECOPY PUSH1 0x0 RETURN INVALID PUSH1 0x80 PUSH1 0x40 MSTORE PUSH1 0x4 CALLDATASIZE LT PUSH2 0x9C JUMPI PUSH1 0x0 CALLDATALOAD PUSH1 0xE0 SHR DUP1 PUSH4 0x973E9B8B GT PUSH2 0x64 JUMPI DUP1 PUSH4 0x973E9B8B EQ PUSH2 0x178 JUMPI DUP1 PUSH4 0xA6F2AE3A EQ PUSH2 0x1A3 JUMPI DUP1 PUSH4 0xB759F954 EQ PUSH2 0x1AD JUMPI DUP1 PUSH4 0xC4E41B22 EQ PUSH2 0x1EA JUMPI DUP1 PUSH4 0xE4849B32 EQ PUSH2 0x215 JUMPI DUP1 PUSH4 0xFC0C546A EQ PUSH2 0x231 JUMPI PUSH2 0x9C JUMP JUMPDEST DUP1 PUSH4 0x10FE9AE8 EQ PUSH2 0xA1 JUMPI DUP1 PUSH4 0x38CC4831 EQ PUSH2 0xCC JUMPI DUP1 PUSH4 0x42948E18 EQ PUSH2 0xF7 JUMPI DUP1 PUSH4 0x430F4801 EQ PUSH2 0x122 JUMPI DUP1 PUSH4 0x590791F2 EQ PUSH2 0x14D JUMPI JUMPDEST PUSH1 0x0 DUP1 REVERT JUMPDEST CALLVALUE DUP1 ISZERO PUSH2 0xAD JUMPI PUSH1 0x0 DUP1 REVERT JUMPDEST POP PUSH2 0xB6 PUSH2 0x25C JUMP JUMPDEST PUSH1 0x40 MLOAD PUSH2 0xC3 SWAP2 SWAP1 PUSH2 0xAA0 JUMP JUMPDEST PUSH1 0x40 MLOAD DUP1 SWAP2 SUB SWAP1 RETURN JUMPDEST CALLVALUE DUP1 ISZERO PUSH2 0xD8 JUMPI PUSH1 0x0 DUP1 REVERT JUMPDEST POP PUSH2 0xE1 PUSH2 0x2F3 JUMP JUMPDEST PUSH1 0x40 MLOAD PUSH2 0xEE SWAP2 SWAP1 PUSH2 0xAA0 JUMP JUMPDEST PUSH1 0x40 MLOAD DUP1 SWAP2 SUB SWAP1 RETURN JUMPDEST CALLVALUE DUP1 ISZERO PUSH2 0x103 JUMPI PUSH1 0x0 DUP1 REVERT JUMPDEST POP PUSH2 0x10C PUSH2 0x2FB JUMP JUMPDEST PUSH1 0x40 MLOAD PUSH2 0x119 SWAP2 SWAP1 PUSH2 0xAA0 JUMP JUMPDEST PUSH1 0x40 MLOAD DUP1 SWAP2 SUB SWAP1 RETURN JUMPDEST CALLVALUE DUP1 ISZERO PUSH2 0x12E JUMPI PUSH1 0x0 DUP1 REVERT JUMPDEST POP PUSH2 0x137 PUSH2 0x303 JUMP JUMPDEST PUSH1 0x40 MLOAD PUSH2 0x144 SWAP2 SWAP1 PUSH2 0xAD4 JUMP JUMPDEST PUSH1 0x40 MLOAD DUP1 SWAP2 SUB SWAP1 RETURN JUMPDEST CALLVALUE DUP1 ISZERO PUSH2 0x159 JUMPI PUSH1 0x0 DUP1 REVERT JUMPDEST POP PUSH2 0x162 PUSH2 0x3A5 JUMP JUMPDEST PUSH1 0x40 MLOAD PUSH2 0x16F SWAP2 SWAP1 PUSH2 0xAD4 JUMP JUMPDEST PUSH1 0x40 MLOAD DUP1 SWAP2 SUB SWAP1 RETURN JUMPDEST CALLVALUE DUP1 ISZERO PUSH2 0x184 JUMPI PUSH1 0x0 DUP1 REVERT JUMPDEST POP PUSH2 0x18D PUSH2 0x447 JUMP JUMPDEST PUSH1 0x40 MLOAD PUSH2 0x19A SWAP2 SWAP1 PUSH2 0xAD4 JUMP JUMPDEST PUSH1 0x40 MLOAD DUP1 SWAP2 SUB SWAP1 RETURN JUMPDEST PUSH2 0x1AB PUSH2 0x4EF JUMP JUMPDEST STOP JUMPDEST CALLVALUE DUP1 ISZERO PUSH2 0x1B9 JUMPI PUSH1 0x0 DUP1 REVERT JUMPDEST POP PUSH2 0x1D4 PUSH1 0x4 DUP1 CALLDATASIZE SUB DUP2 ADD SWAP1 PUSH2 0x1CF SWAP2 SWAP1 PUSH2 0xB20 JUMP JUMPDEST PUSH2 0x6F3 JUMP JUMPDEST PUSH1 0x40 MLOAD PUSH2 0x1E1 SWAP2 SWAP1 PUSH2 0xB68 JUMP JUMPDEST PUSH1 0x40 MLOAD DUP1 SWAP2 SUB SWAP1 RETURN JUMPDEST CALLVALUE DUP1 ISZERO PUSH2 0x1F6 JUMPI PUSH1 0x0 DUP1 REVERT JUMPDEST POP PUSH2 0x1FF PUSH2 0x7A1 JUMP JUMPDEST PUSH1 0x40 MLOAD PUSH2 0x20C SWAP2 SWAP1 PUSH2 0xAD4 JUMP JUMPDEST PUSH1 0x40 MLOAD DUP1 SWAP2 SUB SWAP1 RETURN JUMPDEST PUSH2 0x22F PUSH1 0x4 DUP1 CALLDATASIZE SUB DUP2 ADD SWAP1 PUSH2 0x22A SWAP2 SWAP1 PUSH2 0xB20 JUMP JUMPDEST PUSH2 0x838 JUMP JUMPDEST STOP JUMPDEST CALLVALUE DUP1 ISZERO PUSH2 0x23D JUMPI PUSH1 0x0 DUP1 REVERT JUMPDEST POP PUSH2 0x246 PUSH2 0xA3B JUMP JUMPDEST PUSH1 0x40 MLOAD PUSH2 0x253 SWAP2 SWAP1 PUSH2 0xBE2 JUMP JUMPDEST PUSH1 0x40 MLOAD DUP1 SWAP2 SUB SWAP1 RETURN JUMPDEST PUSH1 0x0 DUP1 PUSH1 0x0 SWAP1 SLOAD SWAP1 PUSH2 0x100 EXP SWAP1 DIV PUSH20 0xFFFFFFFFFFFFFFFFFFFFFFFFFFFFFFFFFFFFFFFF AND PUSH20 0xFFFFFFFFFFFFFFFFFFFFFFFFFFFFFFFFFFFFFFFF AND PUSH4 0x38CC4831 PUSH1 0x40 MLOAD DUP2 PUSH4 0xFFFFFFFF AND PUSH1 0xE0 SHL DUP2 MSTORE PUSH1 0x4 ADD PUSH1 0x20 PUSH1 0x40 MLOAD DUP1 DUP4 SUB DUP2 DUP7 GAS STATICCALL ISZERO DUP1 ISZERO PUSH2 0x2CA JUMPI RETURNDATASIZE PUSH1 0x0 DUP1 RETURNDATACOPY RETURNDATASIZE PUSH1 0x0 REVERT JUMPDEST POP POP POP POP PUSH1 0x40 MLOAD RETURNDATASIZE PUSH1 0x1F NOT PUSH1 0x1F DUP3 ADD AND DUP3 ADD DUP1 PUSH1 0x40 MSTORE POP DUP2 ADD SWAP1 PUSH2 0x2EE SWAP2 SWAP1 PUSH2 0xC29 JUMP JUMPDEST SWAP1 POP SWAP1 JUMP JUMPDEST PUSH1 0x0 ADDRESS SWAP1 POP SWAP1 JUMP JUMPDEST PUSH1 0x0 CALLER SWAP1 POP SWAP1 JUMP JUMPDEST PUSH1 0x0 DUP1 PUSH1 0x0 SWAP1 SLOAD SWAP1 PUSH2 0x100 EXP SWAP1 DIV PUSH20 0xFFFFFFFFFFFFFFFFFFFFFFFFFFFFFFFFFFFFFFFF AND PUSH20 0xFFFFFFFFFFFFFFFFFFFFFFFFFFFFFFFFFFFFFFFF AND PUSH4 0x70A08231 ADDRESS PUSH1 0x40 MLOAD DUP3 PUSH4 0xFFFFFFFF AND PUSH1 0xE0 SHL DUP2 MSTORE PUSH1 0x4 ADD PUSH2 0x35F SWAP2 SWAP1 PUSH2 0xAA0 JUMP JUMPDEST PUSH1 0x20 PUSH1 0x40 MLOAD DUP1 DUP4 SUB DUP2 DUP7 GAS STATICCALL ISZERO DUP1 ISZERO PUSH2 0x37C JUMPI RETURNDATASIZE PUSH1 0x0 DUP1 RETURNDATACOPY RETURNDATASIZE PUSH1 0x0 REVERT JUMPDEST POP POP POP POP PUSH1 0x40 MLOAD RETURNDATASIZE PUSH1 0x1F NOT PUSH1 0x1F DUP3 ADD AND DUP3 ADD DUP1 PUSH1 0x40 MSTORE POP DUP2 ADD SWAP1 PUSH2 0x3A0 SWAP2 SWAP1 PUSH2 0xC6B JUMP JUMPDEST SWAP1 POP SWAP1 JUMP JUMPDEST PUSH1 0x0 DUP1 PUSH1 0x0 SWAP1 SLOAD SWAP1 PUSH2 0x100 EXP SWAP1 DIV PUSH20 0xFFFFFFFFFFFFFFFFFFFFFFFFFFFFFFFFFFFFFFFF AND PUSH20 0xFFFFFFFFFFFFFFFFFFFFFFFFFFFFFFFFFFFFFFFF AND PUSH4 0x70A08231 CALLER PUSH1 0x40 MLOAD DUP3 PUSH4 0xFFFFFFFF AND PUSH1 0xE0 SHL DUP2 MSTORE PUSH1 0x4 ADD PUSH2 0x401 SWAP2 SWAP1 PUSH2 0xAA0 JUMP JUMPDEST PUSH1 0x20 PUSH1 0x40 MLOAD DUP1 DUP4 SUB DUP2 DUP7 GAS STATICCALL ISZERO DUP1 ISZERO PUSH2 0x41E JUMPI RETURNDATASIZE PUSH1 0x0 DUP1 RETURNDATACOPY RETURNDATASIZE PUSH1 0x0 REVERT JUMPDEST POP POP POP POP PUSH1 0x40 MLOAD RETURNDATASIZE PUSH1 0x1F NOT PUSH1 0x1F DUP3 ADD AND DUP3 ADD DUP1 PUSH1 0x40 MSTORE POP DUP2 ADD SWAP1 PUSH2 0x442 SWAP2 SWAP1 PUSH2 0xC6B JUMP JUMPDEST SWAP1 POP SWAP1 JUMP JUMPDEST PUSH1 0x0 DUP1 PUSH1 0x0 DUP1 SLOAD SWAP1 PUSH2 0x100 EXP SWAP1 DIV PUSH20 0xFFFFFFFFFFFFFFFFFFFFFFFFFFFFFFFFFFFFFFFF AND PUSH20 0xFFFFFFFFFFFFFFFFFFFFFFFFFFFFFFFFFFFFFFFF AND PUSH4 0xDD62ED3E CALLER ADDRESS PUSH1 0x40 MLOAD DUP4 PUSH4 0xFFFFFFFF AND PUSH1 0xE0 SHL DUP2 MSTORE PUSH1 0x4 ADD PUSH2 0x4A5 SWAP3 SWAP2 SWAP1 PUSH2 0xC98 JUMP JUMPDEST PUSH1 0x20 PUSH1 0x40 MLOAD DUP1 DUP4 SUB DUP2 DUP7 GAS STATICCALL ISZERO DUP1 ISZERO PUSH2 0x4C2 JUMPI RETURNDATASIZE PUSH1 0x0 DUP1 RETURNDATACOPY RETURNDATASIZE PUSH1 0x0 REVERT JUMPDEST POP POP POP POP PUSH1 0x40 MLOAD RETURNDATASIZE PUSH1 0x1F NOT PUSH1 0x1F DUP3 ADD AND DUP3 ADD DUP1 PUSH1 0x40 MSTORE POP DUP2 ADD SWAP1 PUSH2 0x4E6 SWAP2 SWAP1 PUSH2 0xC6B JUMP JUMPDEST SWAP1 POP DUP1 SWAP2 POP POP SWAP1 JUMP JUMPDEST PUSH1 0x0 CALLVALUE SWAP1 POP PUSH1 0x0 DUP1 PUSH1 0x0 SWAP1 SLOAD SWAP1 PUSH2 0x100 EXP SWAP1 DIV PUSH20 0xFFFFFFFFFFFFFFFFFFFFFFFFFFFFFFFFFFFFFFFF AND PUSH20 0xFFFFFFFFFFFFFFFFFFFFFFFFFFFFFFFFFFFFFFFF AND PUSH4 0x70A08231 ADDRESS PUSH1 0x40 MLOAD DUP3 PUSH4 0xFFFFFFFF AND PUSH1 0xE0 SHL DUP2 MSTORE PUSH1 0x4 ADD PUSH2 0x550 SWAP2 SWAP1 PUSH2 0xAA0 JUMP JUMPDEST PUSH1 0x20 PUSH1 0x40 MLOAD DUP1 DUP4 SUB DUP2 DUP7 GAS STATICCALL ISZERO DUP1 ISZERO PUSH2 0x56D JUMPI RETURNDATASIZE PUSH1 0x0 DUP1 RETURNDATACOPY RETURNDATASIZE PUSH1 0x0 REVERT JUMPDEST POP POP POP POP PUSH1 0x40 MLOAD RETURNDATASIZE PUSH1 0x1F NOT PUSH1 0x1F DUP3 ADD AND DUP3 ADD DUP1 PUSH1 0x40 MSTORE POP DUP2 ADD SWAP1 PUSH2 0x591 SWAP2 SWAP1 PUSH2 0xC6B JUMP JUMPDEST SWAP1 POP PUSH1 0x0 DUP3 GT PUSH2 0x5D6 JUMPI PUSH1 0x40 MLOAD PUSH32 0x8C379A000000000000000000000000000000000000000000000000000000000 DUP2 MSTORE PUSH1 0x4 ADD PUSH2 0x5CD SWAP1 PUSH2 0xD1E JUMP JUMPDEST PUSH1 0x40 MLOAD DUP1 SWAP2 SUB SWAP1 REVERT JUMPDEST DUP1 DUP3 GT ISZERO PUSH2 0x619 JUMPI PUSH1 0x40 MLOAD PUSH32 0x8C379A000000000000000000000000000000000000000000000000000000000 DUP2 MSTORE PUSH1 0x4 ADD PUSH2 0x610 SWAP1 PUSH2 0xDB0 JUMP JUMPDEST PUSH1 0x40 MLOAD DUP1 SWAP2 SUB SWAP1 REVERT JUMPDEST PUSH1 0x0 DUP1 SLOAD SWAP1 PUSH2 0x100 EXP SWAP1 DIV PUSH20 0xFFFFFFFFFFFFFFFFFFFFFFFFFFFFFFFFFFFFFFFF AND PUSH20 0xFFFFFFFFFFFFFFFFFFFFFFFFFFFFFFFFFFFFFFFF AND PUSH4 0xA9059CBB CALLER DUP5 PUSH1 0x40 MLOAD DUP4 PUSH4 0xFFFFFFFF AND PUSH1 0xE0 SHL DUP2 MSTORE PUSH1 0x4 ADD PUSH2 0x674 SWAP3 SWAP2 SWAP1 PUSH2 0xDD0 JUMP JUMPDEST PUSH1 0x20 PUSH1 0x40 MLOAD DUP1 DUP4 SUB DUP2 PUSH1 0x0 DUP8 GAS CALL ISZERO DUP1 ISZERO PUSH2 0x693 JUMPI RETURNDATASIZE PUSH1 0x0 DUP1 RETURNDATACOPY RETURNDATASIZE PUSH1 0x0 REVERT JUMPDEST POP POP POP POP PUSH1 0x40 MLOAD RETURNDATASIZE PUSH1 0x1F NOT PUSH1 0x1F DUP3 ADD AND DUP3 ADD DUP1 PUSH1 0x40 MSTORE POP DUP2 ADD SWAP1 PUSH2 0x6B7 SWAP2 SWAP1 PUSH2 0xE25 JUMP JUMPDEST POP PUSH32 0x4E08BA899977CF7D4C2964BCE71C6B9A7EF76EE5166A4C1249A1E08016E33EF1 DUP3 PUSH1 0x40 MLOAD PUSH2 0x6E7 SWAP2 SWAP1 PUSH2 0xAD4 JUMP JUMPDEST PUSH1 0x40 MLOAD DUP1 SWAP2 SUB SWAP1 LOG1 POP POP JUMP JUMPDEST PUSH1 0x0 DUP1 PUSH1 0x0 DUP1 SLOAD SWAP1 PUSH2 0x100 EXP SWAP1 DIV PUSH20 0xFFFFFFFFFFFFFFFFFFFFFFFFFFFFFFFFFFFFFFFF AND PUSH20 0xFFFFFFFFFFFFFFFFFFFFFFFFFFFFFFFFFFFFFFFF AND PUSH4 0xE1F21C67 CALLER ADDRESS DUP7 PUSH1 0x40 MLOAD DUP5 PUSH4 0xFFFFFFFF AND PUSH1 0xE0 SHL DUP2 MSTORE PUSH1 0x4 ADD PUSH2 0x753 SWAP4 SWAP3 SWAP2 SWAP1 PUSH2 0xE52 JUMP JUMPDEST PUSH1 0x20 PUSH1 0x40 MLOAD DUP1 DUP4 SUB DUP2 PUSH1 0x0 DUP8 GAS CALL ISZERO DUP1 ISZERO PUSH2 0x772 JUMPI RETURNDATASIZE PUSH1 0x0 DUP1 RETURNDATACOPY RETURNDATASIZE PUSH1 0x0 REVERT JUMPDEST POP POP POP POP PUSH1 0x40 MLOAD RETURNDATASIZE PUSH1 0x1F NOT PUSH1 0x1F DUP3 ADD AND DUP3 ADD DUP1 PUSH1 0x40 MSTORE POP DUP2 ADD SWAP1 PUSH2 0x796 SWAP2 SWAP1 PUSH2 0xE25 JUMP JUMPDEST SWAP1 POP DUP1 SWAP2 POP POP SWAP2 SWAP1 POP JUMP JUMPDEST PUSH1 0x0 DUP1 PUSH1 0x0 SWAP1 SLOAD SWAP1 PUSH2 0x100 EXP SWAP1 DIV PUSH20 0xFFFFFFFFFFFFFFFFFFFFFFFFFFFFFFFFFFFFFFFF AND PUSH20 0xFFFFFFFFFFFFFFFFFFFFFFFFFFFFFFFFFFFFFFFF AND PUSH4 0x18160DDD PUSH1 0x40 MLOAD DUP2 PUSH4 0xFFFFFFFF AND PUSH1 0xE0 SHL DUP2 MSTORE PUSH1 0x4 ADD PUSH1 0x20 PUSH1 0x40 MLOAD DUP1 DUP4 SUB DUP2 DUP7 GAS STATICCALL ISZERO DUP1 ISZERO PUSH2 0x80F JUMPI RETURNDATASIZE PUSH1 0x0 DUP1 RETURNDATACOPY RETURNDATASIZE PUSH1 0x0 REVERT JUMPDEST POP POP POP POP PUSH1 0x40 MLOAD RETURNDATASIZE PUSH1 0x1F NOT PUSH1 0x1F DUP3 ADD AND DUP3 ADD DUP1 PUSH1 0x40 MSTORE POP DUP2 ADD SWAP1 PUSH2 0x833 SWAP2 SWAP1 PUSH2 0xC6B JUMP JUMPDEST SWAP1 POP SWAP1 JUMP JUMPDEST PUSH1 0x0 DUP2 GT PUSH2 0x87B JUMPI PUSH1 0x40 MLOAD PUSH32 0x8C379A000000000000000000000000000000000000000000000000000000000 DUP2 MSTORE PUSH1 0x4 ADD PUSH2 0x872 SWAP1 PUSH2 0xEFB JUMP JUMPDEST PUSH1 0x40 MLOAD DUP1 SWAP2 SUB SWAP1 REVERT JUMPDEST PUSH1 0x0 DUP1 PUSH1 0x0 SWAP1 SLOAD SWAP1 PUSH2 0x100 EXP SWAP1 DIV PUSH20 0xFFFFFFFFFFFFFFFFFFFFFFFFFFFFFFFFFFFFFFFF AND PUSH20 0xFFFFFFFFFFFFFFFFFFFFFFFFFFFFFFFFFFFFFFFF AND PUSH4 0xDD62ED3E CALLER ADDRESS PUSH1 0x40 MLOAD DUP4 PUSH4 0xFFFFFFFF AND PUSH1 0xE0 SHL DUP2 MSTORE PUSH1 0x4 ADD PUSH2 0x8D9 SWAP3 SWAP2 SWAP1 PUSH2 0xC98 JUMP JUMPDEST PUSH1 0x20 PUSH1 0x40 MLOAD DUP1 DUP4 SUB DUP2 DUP7 GAS STATICCALL ISZERO DUP1 ISZERO PUSH2 0x8F6 JUMPI RETURNDATASIZE PUSH1 0x0 DUP1 RETURNDATACOPY RETURNDATASIZE PUSH1 0x0 REVERT JUMPDEST POP POP POP POP PUSH1 0x40 MLOAD RETURNDATASIZE PUSH1 0x1F NOT PUSH1 0x1F DUP3 ADD AND DUP3 ADD DUP1 PUSH1 0x40 MSTORE POP DUP2 ADD SWAP1 PUSH2 0x91A SWAP2 SWAP1 PUSH2 0xC6B JUMP JUMPDEST SWAP1 POP DUP2 DUP2 LT ISZERO PUSH2 0x95F JUMPI PUSH1 0x40 MLOAD PUSH32 0x8C379A000000000000000000000000000000000000000000000000000000000 DUP2 MSTORE PUSH1 0x4 ADD PUSH2 0x956 SWAP1 PUSH2 0xF67 JUMP JUMPDEST PUSH1 0x40 MLOAD DUP1 SWAP2 SUB SWAP1 REVERT JUMPDEST PUSH1 0x0 DUP1 SLOAD SWAP1 PUSH2 0x100 EXP SWAP1 DIV PUSH20 0xFFFFFFFFFFFFFFFFFFFFFFFFFFFFFFFFFFFFFFFF AND PUSH20 0xFFFFFFFFFFFFFFFFFFFFFFFFFFFFFFFFFFFFFFFF AND PUSH4 0x23B872DD CALLER ADDRESS DUP6 PUSH1 0x40 MLOAD DUP5 PUSH4 0xFFFFFFFF AND PUSH1 0xE0 SHL DUP2 MSTORE PUSH1 0x4 ADD PUSH2 0x9BC SWAP4 SWAP3 SWAP2 SWAP1 PUSH2 0xE52 JUMP JUMPDEST PUSH1 0x20 PUSH1 0x40 MLOAD DUP1 DUP4 SUB DUP2 PUSH1 0x0 DUP8 GAS CALL ISZERO DUP1 ISZERO PUSH2 0x9DB JUMPI RETURNDATASIZE PUSH1 0x0 DUP1 RETURNDATACOPY RETURNDATASIZE PUSH1 0x0 REVERT JUMPDEST POP POP POP POP PUSH1 0x40 MLOAD RETURNDATASIZE PUSH1 0x1F NOT PUSH1 0x1F DUP3 ADD AND DUP3 ADD DUP1 PUSH1 0x40 MSTORE POP DUP2 ADD SWAP1 PUSH2 0x9FF SWAP2 SWAP1 PUSH2 0xE25 JUMP JUMPDEST POP PUSH32 0x92F64CA637D023F354075A4BE751B169C1A8A9CCB6D33CDD0CB3520543995727 DUP3 PUSH1 0x40 MLOAD PUSH2 0xA2F SWAP2 SWAP1 PUSH2 0xAD4 JUMP JUMPDEST PUSH1 0x40 MLOAD DUP1 SWAP2 SUB SWAP1 LOG1 POP POP JUMP JUMPDEST PUSH1 0x0 DUP1 SLOAD SWAP1 PUSH2 0x100 EXP SWAP1 DIV PUSH20 0xFFFFFFFFFFFFFFFFFFFFFFFFFFFFFFFFFFFFFFFF AND DUP2 JUMP JUMPDEST PUSH1 0x0 PUSH20 0xFFFFFFFFFFFFFFFFFFFFFFFFFFFFFFFFFFFFFFFF DUP3 AND SWAP1 POP SWAP2 SWAP1 POP JUMP JUMPDEST PUSH1 0x0 PUSH2 0xA8A DUP3 PUSH2 0xA5F JUMP JUMPDEST SWAP1 POP SWAP2 SWAP1 POP JUMP JUMPDEST PUSH2 0xA9A DUP2 PUSH2 0xA7F JUMP JUMPDEST DUP3 MSTORE POP POP JUMP JUMPDEST PUSH1 0x0 PUSH1 0x20 DUP3 ADD SWAP1 POP PUSH2 0xAB5 PUSH1 0x0 DUP4 ADD DUP5 PUSH2 0xA91 JUMP JUMPDEST SWAP3 SWAP2 POP POP JUMP JUMPDEST PUSH1 0x0 DUP2 SWAP1 POP SWAP2 SWAP1 POP JUMP JUMPDEST PUSH2 0xACE DUP2 PUSH2 0xABB JUMP JUMPDEST DUP3 MSTORE POP POP JUMP JUMPDEST PUSH1 0x0 PUSH1 0x20 DUP3 ADD SWAP1 POP PUSH2 0xAE9 PUSH1 0x0 DUP4 ADD DUP5 PUSH2 0xAC5 JUMP JUMPDEST SWAP3 SWAP2 POP POP JUMP JUMPDEST PUSH1 0x0 DUP1 REVERT JUMPDEST PUSH2 0xAFD DUP2 PUSH2 0xABB JUMP JUMPDEST DUP2 EQ PUSH2 0xB08 JUMPI PUSH1 0x0 DUP1 REVERT JUMPDEST POP JUMP JUMPDEST PUSH1 0x0 DUP2 CALLDATALOAD SWAP1 POP PUSH2 0xB1A DUP2 PUSH2 0xAF4 JUMP JUMPDEST SWAP3 SWAP2 POP POP JUMP JUMPDEST PUSH1 0x0 PUSH1 0x20 DUP3 DUP5 SUB SLT ISZERO PUSH2 0xB36 JUMPI PUSH2 0xB35 PUSH2 0xAEF JUMP JUMPDEST JUMPDEST PUSH1 0x0 PUSH2 0xB44 DUP5 DUP3 DUP6 ADD PUSH2 0xB0B JUMP JUMPDEST SWAP2 POP POP SWAP3 SWAP2 POP POP JUMP JUMPDEST PUSH1 0x0 DUP2 ISZERO ISZERO SWAP1 POP SWAP2 SWAP1 POP JUMP JUMPDEST PUSH2 0xB62 DUP2 PUSH2 0xB4D JUMP JUMPDEST DUP3 MSTORE POP POP JUMP JUMPDEST PUSH1 0x0 PUSH1 0x20 DUP3 ADD SWAP1 POP PUSH2 0xB7D PUSH1 0x0 DUP4 ADD DUP5 PUSH2 0xB59 JUMP JUMPDEST SWAP3 SWAP2 POP POP JUMP JUMPDEST PUSH1 0x0 DUP2 SWAP1 POP SWAP2 SWAP1 POP JUMP JUMPDEST PUSH1 0x0 PUSH2 0xBA8 PUSH2 0xBA3 PUSH2 0xB9E DUP5 PUSH2 0xA5F JUMP JUMPDEST PUSH2 0xB83 JUMP JUMPDEST PUSH2 0xA5F JUMP JUMPDEST SWAP1 POP SWAP2 SWAP1 POP JUMP JUMPDEST PUSH1 0x0 PUSH2 0xBBA DUP3 PUSH2 0xB8D JUMP JUMPDEST SWAP1 POP SWAP2 SWAP1 POP JUMP JUMPDEST PUSH1 0x0 PUSH2 0xBCC DUP3 PUSH2 0xBAF JUMP JUMPDEST SWAP1 POP SWAP2 SWAP1 POP JUMP JUMPDEST PUSH2 0xBDC DUP2 PUSH2 0xBC1 JUMP JUMPDEST DUP3 MSTORE POP POP JUMP JUMPDEST PUSH1 0x0 PUSH1 0x20 DUP3 ADD SWAP1 POP PUSH2 0xBF7 PUSH1 0x0 DUP4 ADD DUP5 PUSH2 0xBD3 JUMP JUMPDEST SWAP3 SWAP2 POP POP JUMP JUMPDEST PUSH2 0xC06 DUP2 PUSH2 0xA7F JUMP JUMPDEST DUP2 EQ PUSH2 0xC11 JUMPI PUSH1 0x0 DUP1 REVERT JUMPDEST POP JUMP JUMPDEST PUSH1 0x0 DUP2 MLOAD SWAP1 POP PUSH2 0xC23 DUP2 PUSH2 0xBFD JUMP JUMPDEST SWAP3 SWAP2 POP POP JUMP JUMPDEST PUSH1 0x0 PUSH1 0x20 DUP3 DUP5 SUB SLT ISZERO PUSH2 0xC3F JUMPI PUSH2 0xC3E PUSH2 0xAEF JUMP JUMPDEST JUMPDEST PUSH1 0x0 PUSH2 0xC4D DUP5 DUP3 DUP6 ADD PUSH2 0xC14 JUMP JUMPDEST SWAP2 POP POP SWAP3 SWAP2 POP POP JUMP JUMPDEST PUSH1 0x0 DUP2 MLOAD SWAP1 POP PUSH2 0xC65 DUP2 PUSH2 0xAF4 JUMP JUMPDEST SWAP3 SWAP2 POP POP JUMP JUMPDEST PUSH1 0x0 PUSH1 0x20 DUP3 DUP5 SUB SLT ISZERO PUSH2 0xC81 JUMPI PUSH2 0xC80 PUSH2 0xAEF JUMP JUMPDEST JUMPDEST PUSH1 0x0 PUSH2 0xC8F DUP5 DUP3 DUP6 ADD PUSH2 0xC56 JUMP JUMPDEST SWAP2 POP POP SWAP3 SWAP2 POP POP JUMP JUMPDEST PUSH1 0x0 PUSH1 0x40 DUP3 ADD SWAP1 POP PUSH2 0xCAD PUSH1 0x0 DUP4 ADD DUP6 PUSH2 0xA91 JUMP JUMPDEST PUSH2 0xCBA PUSH1 0x20 DUP4 ADD DUP5 PUSH2 0xA91 JUMP JUMPDEST SWAP4 SWAP3 POP POP POP JUMP JUMPDEST PUSH1 0x0 DUP3 DUP3 MSTORE PUSH1 0x20 DUP3 ADD SWAP1 POP SWAP3 SWAP2 POP POP JUMP JUMPDEST PUSH32 0x596F75206E65656420746F2073656E6420736F6D652065746865722100000000 PUSH1 0x0 DUP3 ADD MSTORE POP JUMP JUMPDEST PUSH1 0x0 PUSH2 0xD08 PUSH1 0x1C DUP4 PUSH2 0xCC1 JUMP JUMPDEST SWAP2 POP PUSH2 0xD13 DUP3 PUSH2 0xCD2 JUMP JUMPDEST PUSH1 0x20 DUP3 ADD SWAP1 POP SWAP2 SWAP1 POP JUMP JUMPDEST PUSH1 0x0 PUSH1 0x20 DUP3 ADD SWAP1 POP DUP2 DUP2 SUB PUSH1 0x0 DUP4 ADD MSTORE PUSH2 0xD37 DUP2 PUSH2 0xCFB JUMP JUMPDEST SWAP1 POP SWAP2 SWAP1 POP JUMP JUMPDEST PUSH32 0x4E6F7420656E6F75676820746F6B656E7320696E207468652072657665727365 PUSH1 0x0 DUP3 ADD MSTORE PUSH32 0x2100000000000000000000000000000000000000000000000000000000000000 PUSH1 0x20 DUP3 ADD MSTORE POP JUMP JUMPDEST PUSH1 0x0 PUSH2 0xD9A PUSH1 0x21 DUP4 PUSH2 0xCC1 JUMP JUMPDEST SWAP2 POP PUSH2 0xDA5 DUP3 PUSH2 0xD3E JUMP JUMPDEST PUSH1 0x40 DUP3 ADD SWAP1 POP SWAP2 SWAP1 POP JUMP JUMPDEST PUSH1 0x0 PUSH1 0x20 DUP3 ADD SWAP1 POP DUP2 DUP2 SUB PUSH1 0x0 DUP4 ADD MSTORE PUSH2 0xDC9 DUP2 PUSH2 0xD8D JUMP JUMPDEST SWAP1 POP SWAP2 SWAP1 POP JUMP JUMPDEST PUSH1 0x0 PUSH1 0x40 DUP3 ADD SWAP1 POP PUSH2 0xDE5 PUSH1 0x0 DUP4 ADD DUP6 PUSH2 0xA91 JUMP JUMPDEST PUSH2 0xDF2 PUSH1 0x20 DUP4 ADD DUP5 PUSH2 0xAC5 JUMP JUMPDEST SWAP4 SWAP3 POP POP POP JUMP JUMPDEST PUSH2 0xE02 DUP2 PUSH2 0xB4D JUMP JUMPDEST DUP2 EQ PUSH2 0xE0D JUMPI PUSH1 0x0 DUP1 REVERT JUMPDEST POP JUMP JUMPDEST PUSH1 0x0 DUP2 MLOAD SWAP1 POP PUSH2 0xE1F DUP2 PUSH2 0xDF9 JUMP JUMPDEST SWAP3 SWAP2 POP POP JUMP JUMPDEST PUSH1 0x0 PUSH1 0x20 DUP3 DUP5 SUB SLT ISZERO PUSH2 0xE3B JUMPI PUSH2 0xE3A PUSH2 0xAEF JUMP JUMPDEST JUMPDEST PUSH1 0x0 PUSH2 0xE49 DUP5 DUP3 DUP6 ADD PUSH2 0xE10 JUMP JUMPDEST SWAP2 POP POP SWAP3 SWAP2 POP POP JUMP JUMPDEST PUSH1 0x0 PUSH1 0x60 DUP3 ADD SWAP1 POP PUSH2 0xE67 PUSH1 0x0 DUP4 ADD DUP7 PUSH2 0xA91 JUMP JUMPDEST PUSH2 0xE74 PUSH1 0x20 DUP4 ADD DUP6 PUSH2 0xA91 JUMP JUMPDEST PUSH2 0xE81 PUSH1 0x40 DUP4 ADD DUP5 PUSH2 0xAC5 JUMP JUMPDEST SWAP5 SWAP4 POP POP POP POP JUMP JUMPDEST PUSH32 0x596F75206E65656420746F2073656C6C206174206C65617374203120746F6B65 PUSH1 0x0 DUP3 ADD MSTORE PUSH32 0x6E21000000000000000000000000000000000000000000000000000000000000 PUSH1 0x20 DUP3 ADD MSTORE POP JUMP JUMPDEST PUSH1 0x0 PUSH2 0xEE5 PUSH1 0x22 DUP4 PUSH2 0xCC1 JUMP JUMPDEST SWAP2 POP PUSH2 0xEF0 DUP3 PUSH2 0xE89 JUMP JUMPDEST PUSH1 0x40 DUP3 ADD SWAP1 POP SWAP2 SWAP1 POP JUMP JUMPDEST PUSH1 0x0 PUSH1 0x20 DUP3 ADD SWAP1 POP DUP2 DUP2 SUB PUSH1 0x0 DUP4 ADD MSTORE PUSH2 0xF14 DUP2 PUSH2 0xED8 JUMP JUMPDEST SWAP1 POP SWAP2 SWAP1 POP JUMP JUMPDEST PUSH32 0x436865636B2074686520746F6B656E20616C6C6F77616E636521000000000000 PUSH1 0x0 DUP3 ADD MSTORE POP JUMP JUMPDEST PUSH1 0x0 PUSH2 0xF51 PUSH1 0x1A DUP4 PUSH2 0xCC1 JUMP JUMPDEST SWAP2 POP PUSH2 0xF5C DUP3 PUSH2 0xF1B JUMP JUMPDEST PUSH1 0x20 DUP3 ADD SWAP1 POP SWAP2 SWAP1 POP JUMP JUMPDEST PUSH1 0x0 PUSH1 0x20 DUP3 ADD SWAP1 POP DUP2 DUP2 SUB PUSH1 0x0 DUP4 ADD MSTORE PUSH2 0xF80 DUP2 PUSH2 0xF44 JUMP JUMPDEST SWAP1 POP SWAP2 SWAP1 POP JUMP INVALID LOG2 PUSH5 0x6970667358 0x22 SLT KECCAK256 0xBF SELFBALANCE 0xE3 0xB8 OR MUL CREATE 0xBD 0xBF LOG1 0xB1 SMOD BALANCE 0xD8 PUSH1 0xE3 0xF9 0xEF PUSH4 0x544B131C DUP9 0xCD 0xD5 CHAINID 0xEC 0xC3 0xCB PUSH15 0xB864736F6C634300080B0033608060 BLOCKHASH MSTORE PUSH8 0x8AC7230489E80000 PUSH1 0x2 SSTORE CALLVALUE DUP1 ISZERO PUSH2 0x1C JUMPI PUSH1 0x0 DUP1 REVERT JUMPDEST POP PUSH1 0x2 SLOAD PUSH1 0x0 DUP1 CALLER PUSH20 0xFFFFFFFFFFFFFFFFFFFFFFFFFFFFFFFFFFFFFFFF AND PUSH20 0xFFFFFFFFFFFFFFFFFFFFFFFFFFFFFFFFFFFFFFFF AND DUP2 MSTORE PUSH1 0x20 ADD SWAP1 DUP2 MSTORE PUSH1 0x20 ADD PUSH1 0x0 KECCAK256 DUP2 SWAP1 SSTORE POP PUSH2 0xE57 DUP1 PUSH2 0x71 PUSH1 0x0 CODECOPY PUSH1 0x0 RETURN INVALID PUSH1 0x80 PUSH1 0x40 MSTORE CALLVALUE DUP1 ISZERO PUSH2 0x10 JUMPI PUSH1 0x0 DUP1 REVERT JUMPDEST POP PUSH1 0x4 CALLDATASIZE LT PUSH2 0x9E JUMPI PUSH1 0x0 CALLDATALOAD PUSH1 0xE0 SHR DUP1 PUSH4 0x70A08231 GT PUSH2 0x66 JUMPI DUP1 PUSH4 0x70A08231 EQ PUSH2 0x14B JUMPI DUP1 PUSH4 0x95D89B41 EQ PUSH2 0x17B JUMPI DUP1 PUSH4 0xA9059CBB EQ PUSH2 0x199 JUMPI DUP1 PUSH4 0xDD62ED3E EQ PUSH2 0x1C9 JUMPI DUP1 PUSH4 0xE1F21C67 EQ PUSH2 0x1F9 JUMPI PUSH2 0x9E JUMP JUMPDEST DUP1 PUSH4 0x6FDDE03 EQ PUSH2 0xA3 JUMPI DUP1 PUSH4 0x18160DDD EQ PUSH2 0xC1 JUMPI DUP1 PUSH4 0x23B872DD EQ PUSH2 0xDF JUMPI DUP1 PUSH4 0x313CE567 EQ PUSH2 0x10F JUMPI DUP1 PUSH4 0x38CC4831 EQ PUSH2 0x12D JUMPI JUMPDEST PUSH1 0x0 DUP1 REVERT JUMPDEST PUSH2 0xAB PUSH2 0x229 JUMP JUMPDEST PUSH1 0x40 MLOAD PUSH2 0xB8 SWAP2 SWAP1 PUSH2 0xABD JUMP JUMPDEST PUSH1 0x40 MLOAD DUP1 SWAP2 SUB SWAP1 RETURN JUMPDEST PUSH2 0xC9 PUSH2 0x262 JUMP JUMPDEST PUSH1 0x40 MLOAD PUSH2 0xD6 SWAP2 SWAP1 PUSH2 0xAF8 JUMP JUMPDEST PUSH1 0x40 MLOAD DUP1 SWAP2 SUB SWAP1 RETURN JUMPDEST PUSH2 0xF9 PUSH1 0x4 DUP1 CALLDATASIZE SUB DUP2 ADD SWAP1 PUSH2 0xF4 SWAP2 SWAP1 PUSH2 0xBA2 JUMP JUMPDEST PUSH2 0x26C JUMP JUMPDEST PUSH1 0x40 MLOAD PUSH2 0x106 SWAP2 SWAP1 PUSH2 0xC10 JUMP JUMPDEST PUSH1 0x40 MLOAD DUP1 SWAP2 SUB SWAP1 RETURN JUMPDEST PUSH2 0x117 PUSH2 0x5E7 JUMP JUMPDEST PUSH1 0x40 MLOAD PUSH2 0x124 SWAP2 SWAP1 PUSH2 0xC47 JUMP JUMPDEST PUSH1 0x40 MLOAD DUP1 SWAP2 SUB SWAP1 RETURN JUMPDEST PUSH2 0x135 PUSH2 0x5EC JUMP JUMPDEST PUSH1 0x40 MLOAD PUSH2 0x142 SWAP2 SWAP1 PUSH2 0xC71 JUMP JUMPDEST PUSH1 0x40 MLOAD DUP1 SWAP2 SUB SWAP1 RETURN JUMPDEST PUSH2 0x165 PUSH1 0x4 DUP1 CALLDATASIZE SUB DUP2 ADD SWAP1 PUSH2 0x160 SWAP2 SWAP1 PUSH2 0xC8C JUMP JUMPDEST PUSH2 0x5F4 JUMP JUMPDEST PUSH1 0x40 MLOAD PUSH2 0x172 SWAP2 SWAP1 PUSH2 0xAF8 JUMP JUMPDEST PUSH1 0x40 MLOAD DUP1 SWAP2 SUB SWAP1 RETURN JUMPDEST PUSH2 0x183 PUSH2 0x63C JUMP JUMPDEST PUSH1 0x40 MLOAD PUSH2 0x190 SWAP2 SWAP1 PUSH2 0xABD JUMP JUMPDEST PUSH1 0x40 MLOAD DUP1 SWAP2 SUB SWAP1 RETURN JUMPDEST PUSH2 0x1B3 PUSH1 0x4 DUP1 CALLDATASIZE SUB DUP2 ADD SWAP1 PUSH2 0x1AE SWAP2 SWAP1 PUSH2 0xCB9 JUMP JUMPDEST PUSH2 0x675 JUMP JUMPDEST PUSH1 0x40 MLOAD PUSH2 0x1C0 SWAP2 SWAP1 PUSH2 0xC10 JUMP JUMPDEST PUSH1 0x40 MLOAD DUP1 SWAP2 SUB SWAP1 RETURN JUMPDEST PUSH2 0x1E3 PUSH1 0x4 DUP1 CALLDATASIZE SUB DUP2 ADD SWAP1 PUSH2 0x1DE SWAP2 SWAP1 PUSH2 0xCF9 JUMP JUMPDEST PUSH2 0x857 JUMP JUMPDEST PUSH1 0x40 MLOAD PUSH2 0x1F0 SWAP2 SWAP1 PUSH2 0xAF8 JUMP JUMPDEST PUSH1 0x40 MLOAD DUP1 SWAP2 SUB SWAP1 RETURN JUMPDEST PUSH2 0x213 PUSH1 0x4 DUP1 CALLDATASIZE SUB DUP2 ADD SWAP1 PUSH2 0x20E SWAP2 SWAP1 PUSH2 0xBA2 JUMP JUMPDEST PUSH2 0x8DE JUMP JUMPDEST PUSH1 0x40 MLOAD PUSH2 0x220 SWAP2 SWAP1 PUSH2 0xC10 JUMP JUMPDEST PUSH1 0x40 MLOAD DUP1 SWAP2 SUB SWAP1 RETURN JUMPDEST PUSH1 0x40 MLOAD DUP1 PUSH1 0x40 ADD PUSH1 0x40 MSTORE DUP1 PUSH1 0x12 DUP2 MSTORE PUSH1 0x20 ADD PUSH32 0x45524332302D5869616F6368756E436F696E0000000000000000000000000000 DUP2 MSTORE POP DUP2 JUMP JUMPDEST PUSH1 0x0 PUSH1 0x2 SLOAD SWAP1 POP SWAP1 JUMP JUMPDEST PUSH1 0x0 DUP1 PUSH1 0x0 DUP6 PUSH20 0xFFFFFFFFFFFFFFFFFFFFFFFFFFFFFFFFFFFFFFFF AND PUSH20 0xFFFFFFFFFFFFFFFFFFFFFFFFFFFFFFFFFFFFFFFF AND DUP2 MSTORE PUSH1 0x20 ADD SWAP1 DUP2 MSTORE PUSH1 0x20 ADD PUSH1 0x0 KECCAK256 SLOAD DUP3 GT ISZERO PUSH2 0x2B9 JUMPI PUSH1 0x0 DUP1 REVERT JUMPDEST PUSH1 0x1 PUSH1 0x0 DUP6 PUSH20 0xFFFFFFFFFFFFFFFFFFFFFFFFFFFFFFFFFFFFFFFF AND PUSH20 0xFFFFFFFFFFFFFFFFFFFFFFFFFFFFFFFFFFFFFFFF AND DUP2 MSTORE PUSH1 0x20 ADD SWAP1 DUP2 MSTORE PUSH1 0x20 ADD PUSH1 0x0 KECCAK256 PUSH1 0x0 CALLER PUSH20 0xFFFFFFFFFFFFFFFFFFFFFFFFFFFFFFFFFFFFFFFF AND PUSH20 0xFFFFFFFFFFFFFFFFFFFFFFFFFFFFFFFFFFFFFFFF AND DUP2 MSTORE PUSH1 0x20 ADD SWAP1 DUP2 MSTORE PUSH1 0x20 ADD PUSH1 0x0 KECCAK256 SLOAD DUP3 GT ISZERO PUSH2 0x342 JUMPI PUSH1 0x0 DUP1 REVERT JUMPDEST PUSH2 0x393 DUP3 PUSH1 0x0 DUP1 DUP8 PUSH20 0xFFFFFFFFFFFFFFFFFFFFFFFFFFFFFFFFFFFFFFFF AND PUSH20 0xFFFFFFFFFFFFFFFFFFFFFFFFFFFFFFFFFFFFFFFF AND DUP2 MSTORE PUSH1 0x20 ADD SWAP1 DUP2 MSTORE PUSH1 0x20 ADD PUSH1 0x0 KECCAK256 SLOAD PUSH2 0x9D1 SWAP1 SWAP2 SWAP1 PUSH4 0xFFFFFFFF AND JUMP JUMPDEST PUSH1 0x0 DUP1 DUP7 PUSH20 0xFFFFFFFFFFFFFFFFFFFFFFFFFFFFFFFFFFFFFFFF AND PUSH20 0xFFFFFFFFFFFFFFFFFFFFFFFFFFFFFFFFFFFFFFFF AND DUP2 MSTORE PUSH1 0x20 ADD SWAP1 DUP2 MSTORE PUSH1 0x20 ADD PUSH1 0x0 KECCAK256 DUP2 SWAP1 SSTORE POP PUSH2 0x464 DUP3 PUSH1 0x1 PUSH1 0x0 DUP8 PUSH20 0xFFFFFFFFFFFFFFFFFFFFFFFFFFFFFFFFFFFFFFFF AND PUSH20 0xFFFFFFFFFFFFFFFFFFFFFFFFFFFFFFFFFFFFFFFF AND DUP2 MSTORE PUSH1 0x20 ADD SWAP1 DUP2 MSTORE PUSH1 0x20 ADD PUSH1 0x0 KECCAK256 PUSH1 0x0 DUP7 PUSH20 0xFFFFFFFFFFFFFFFFFFFFFFFFFFFFFFFFFFFFFFFF AND PUSH20 0xFFFFFFFFFFFFFFFFFFFFFFFFFFFFFFFFFFFFFFFF AND DUP2 MSTORE PUSH1 0x20 ADD SWAP1 DUP2 MSTORE PUSH1 0x20 ADD PUSH1 0x0 KECCAK256 SLOAD PUSH2 0x9D1 SWAP1 SWAP2 SWAP1 PUSH4 0xFFFFFFFF AND JUMP JUMPDEST PUSH1 0x1 PUSH1 0x0 DUP7 PUSH20 0xFFFFFFFFFFFFFFFFFFFFFFFFFFFFFFFFFFFFFFFF AND PUSH20 0xFFFFFFFFFFFFFFFFFFFFFFFFFFFFFFFFFFFFFFFF AND DUP2 MSTORE PUSH1 0x20 ADD SWAP1 DUP2 MSTORE PUSH1 0x20 ADD PUSH1 0x0 KECCAK256 PUSH1 0x0 DUP6 PUSH20 0xFFFFFFFFFFFFFFFFFFFFFFFFFFFFFFFFFFFFFFFF AND PUSH20 0xFFFFFFFFFFFFFFFFFFFFFFFFFFFFFFFFFFFFFFFF AND DUP2 MSTORE PUSH1 0x20 ADD SWAP1 DUP2 MSTORE PUSH1 0x20 ADD PUSH1 0x0 KECCAK256 DUP2 SWAP1 SSTORE POP PUSH2 0x535 DUP3 PUSH1 0x0 DUP1 DUP7 PUSH20 0xFFFFFFFFFFFFFFFFFFFFFFFFFFFFFFFFFFFFFFFF AND PUSH20 0xFFFFFFFFFFFFFFFFFFFFFFFFFFFFFFFFFFFFFFFF AND DUP2 MSTORE PUSH1 0x20 ADD SWAP1 DUP2 MSTORE PUSH1 0x20 ADD PUSH1 0x0 KECCAK256 SLOAD PUSH2 0x9F8 SWAP1 SWAP2 SWAP1 PUSH4 0xFFFFFFFF AND JUMP JUMPDEST PUSH1 0x0 DUP1 DUP6 PUSH20 0xFFFFFFFFFFFFFFFFFFFFFFFFFFFFFFFFFFFFFFFF AND PUSH20 0xFFFFFFFFFFFFFFFFFFFFFFFFFFFFFFFFFFFFFFFF AND DUP2 MSTORE PUSH1 0x20 ADD SWAP1 DUP2 MSTORE PUSH1 0x20 ADD PUSH1 0x0 KECCAK256 DUP2 SWAP1 SSTORE POP DUP3 PUSH20 0xFFFFFFFFFFFFFFFFFFFFFFFFFFFFFFFFFFFFFFFF AND DUP5 PUSH20 0xFFFFFFFFFFFFFFFFFFFFFFFFFFFFFFFFFFFFFFFF AND PUSH32 0x5225EAC2A7FACFBEB099C00A4CC7C457701324F1FD84B84B14033F9E911374A4 DUP5 PUSH1 0x40 MLOAD PUSH2 0x5D4 SWAP2 SWAP1 PUSH2 0xAF8 JUMP JUMPDEST PUSH1 0x40 MLOAD DUP1 SWAP2 SUB SWAP1 LOG3 PUSH1 0x1 SWAP1 POP SWAP4 SWAP3 POP POP POP JUMP JUMPDEST PUSH1 0x12 DUP2 JUMP JUMPDEST PUSH1 0x0 ADDRESS SWAP1 POP SWAP1 JUMP JUMPDEST PUSH1 0x0 DUP1 PUSH1 0x0 DUP4 PUSH20 0xFFFFFFFFFFFFFFFFFFFFFFFFFFFFFFFFFFFFFFFF AND PUSH20 0xFFFFFFFFFFFFFFFFFFFFFFFFFFFFFFFFFFFFFFFF AND DUP2 MSTORE PUSH1 0x20 ADD SWAP1 DUP2 MSTORE PUSH1 0x20 ADD PUSH1 0x0 KECCAK256 SLOAD SWAP1 POP SWAP2 SWAP1 POP JUMP JUMPDEST PUSH1 0x40 MLOAD DUP1 PUSH1 0x40 ADD PUSH1 0x40 MSTORE DUP1 PUSH1 0x7 DUP2 MSTORE PUSH1 0x20 ADD PUSH32 0x4552432D58434300000000000000000000000000000000000000000000000000 DUP2 MSTORE POP DUP2 JUMP JUMPDEST PUSH1 0x0 DUP1 PUSH1 0x0 CALLER PUSH20 0xFFFFFFFFFFFFFFFFFFFFFFFFFFFFFFFFFFFFFFFF AND PUSH20 0xFFFFFFFFFFFFFFFFFFFFFFFFFFFFFFFFFFFFFFFF AND DUP2 MSTORE PUSH1 0x20 ADD SWAP1 DUP2 MSTORE PUSH1 0x20 ADD PUSH1 0x0 KECCAK256 SLOAD DUP3 GT ISZERO PUSH2 0x6C2 JUMPI PUSH1 0x0 DUP1 REVERT JUMPDEST PUSH2 0x713 DUP3 PUSH1 0x0 DUP1 CALLER PUSH20 0xFFFFFFFFFFFFFFFFFFFFFFFFFFFFFFFFFFFFFFFF AND PUSH20 0xFFFFFFFFFFFFFFFFFFFFFFFFFFFFFFFFFFFFFFFF AND DUP2 MSTORE PUSH1 0x20 ADD SWAP1 DUP2 MSTORE PUSH1 0x20 ADD PUSH1 0x0 KECCAK256 SLOAD PUSH2 0x9D1 SWAP1 SWAP2 SWAP1 PUSH4 0xFFFFFFFF AND JUMP JUMPDEST PUSH1 0x0 DUP1 CALLER PUSH20 0xFFFFFFFFFFFFFFFFFFFFFFFFFFFFFFFFFFFFFFFF AND PUSH20 0xFFFFFFFFFFFFFFFFFFFFFFFFFFFFFFFFFFFFFFFF AND DUP2 MSTORE PUSH1 0x20 ADD SWAP1 DUP2 MSTORE PUSH1 0x20 ADD PUSH1 0x0 KECCAK256 DUP2 SWAP1 SSTORE POP PUSH2 0x7A6 DUP3 PUSH1 0x0 DUP1 DUP7 PUSH20 0xFFFFFFFFFFFFFFFFFFFFFFFFFFFFFFFFFFFFFFFF AND PUSH20 0xFFFFFFFFFFFFFFFFFFFFFFFFFFFFFFFFFFFFFFFF AND DUP2 MSTORE PUSH1 0x20 ADD SWAP1 DUP2 MSTORE PUSH1 0x20 ADD PUSH1 0x0 KECCAK256 SLOAD PUSH2 0x9F8 SWAP1 SWAP2 SWAP1 PUSH4 0xFFFFFFFF AND JUMP JUMPDEST PUSH1 0x0 DUP1 DUP6 PUSH20 0xFFFFFFFFFFFFFFFFFFFFFFFFFFFFFFFFFFFFFFFF AND PUSH20 0xFFFFFFFFFFFFFFFFFFFFFFFFFFFFFFFFFFFFFFFF AND DUP2 MSTORE PUSH1 0x20 ADD SWAP1 DUP2 MSTORE PUSH1 0x20 ADD PUSH1 0x0 KECCAK256 DUP2 SWAP1 SSTORE POP DUP3 PUSH20 0xFFFFFFFFFFFFFFFFFFFFFFFFFFFFFFFFFFFFFFFF AND CALLER PUSH20 0xFFFFFFFFFFFFFFFFFFFFFFFFFFFFFFFFFFFFFFFF AND PUSH32 0x5225EAC2A7FACFBEB099C00A4CC7C457701324F1FD84B84B14033F9E911374A4 DUP5 PUSH1 0x40 MLOAD PUSH2 0x845 SWAP2 SWAP1 PUSH2 0xAF8 JUMP JUMPDEST PUSH1 0x40 MLOAD DUP1 SWAP2 SUB SWAP1 LOG3 PUSH1 0x1 SWAP1 POP SWAP3 SWAP2 POP POP JUMP JUMPDEST PUSH1 0x0 PUSH1 0x1 PUSH1 0x0 DUP5 PUSH20 0xFFFFFFFFFFFFFFFFFFFFFFFFFFFFFFFFFFFFFFFF AND PUSH20 0xFFFFFFFFFFFFFFFFFFFFFFFFFFFFFFFFFFFFFFFF AND DUP2 MSTORE PUSH1 0x20 ADD SWAP1 DUP2 MSTORE PUSH1 0x20 ADD PUSH1 0x0 KECCAK256 PUSH1 0x0 DUP4 PUSH20 0xFFFFFFFFFFFFFFFFFFFFFFFFFFFFFFFFFFFFFFFF AND PUSH20 0xFFFFFFFFFFFFFFFFFFFFFFFFFFFFFFFFFFFFFFFF AND DUP2 MSTORE PUSH1 0x20 ADD SWAP1 DUP2 MSTORE PUSH1 0x20 ADD PUSH1 0x0 KECCAK256 SLOAD SWAP1 POP SWAP3 SWAP2 POP POP JUMP JUMPDEST PUSH1 0x0 DUP2 PUSH1 0x1 PUSH1 0x0 DUP7 PUSH20 0xFFFFFFFFFFFFFFFFFFFFFFFFFFFFFFFFFFFFFFFF AND PUSH20 0xFFFFFFFFFFFFFFFFFFFFFFFFFFFFFFFFFFFFFFFF AND DUP2 MSTORE PUSH1 0x20 ADD SWAP1 DUP2 MSTORE PUSH1 0x20 ADD PUSH1 0x0 KECCAK256 PUSH1 0x0 DUP6 PUSH20 0xFFFFFFFFFFFFFFFFFFFFFFFFFFFFFFFFFFFFFFFF AND PUSH20 0xFFFFFFFFFFFFFFFFFFFFFFFFFFFFFFFFFFFFFFFF AND DUP2 MSTORE PUSH1 0x20 ADD SWAP1 DUP2 MSTORE PUSH1 0x20 ADD PUSH1 0x0 KECCAK256 DUP2 SWAP1 SSTORE POP DUP3 PUSH20 0xFFFFFFFFFFFFFFFFFFFFFFFFFFFFFFFFFFFFFFFF AND DUP5 PUSH20 0xFFFFFFFFFFFFFFFFFFFFFFFFFFFFFFFFFFFFFFFF AND PUSH32 0x8C5BE1E5EBEC7D5BD14F71427D1E84F3DD0314C0F7B2291E5B200AC8C7C3B925 DUP5 PUSH1 0x40 MLOAD PUSH2 0x9BE SWAP2 SWAP1 PUSH2 0xAF8 JUMP JUMPDEST PUSH1 0x40 MLOAD DUP1 SWAP2 SUB SWAP1 LOG3 PUSH1 0x1 SWAP1 POP SWAP4 SWAP3 POP POP POP JUMP JUMPDEST PUSH1 0x0 DUP3 DUP3 GT ISZERO PUSH2 0x9E4 JUMPI PUSH2 0x9E3 PUSH2 0xD39 JUMP JUMPDEST JUMPDEST DUP2 DUP4 PUSH2 0x9F0 SWAP2 SWAP1 PUSH2 0xD97 JUMP JUMPDEST SWAP1 POP SWAP3 SWAP2 POP POP JUMP JUMPDEST PUSH1 0x0 DUP1 DUP3 DUP5 PUSH2 0xA07 SWAP2 SWAP1 PUSH2 0xDCB JUMP JUMPDEST SWAP1 POP DUP4 DUP2 LT ISZERO PUSH2 0xA1A JUMPI PUSH2 0xA19 PUSH2 0xD39 JUMP JUMPDEST JUMPDEST DUP1 SWAP2 POP POP SWAP3 SWAP2 POP POP JUMP JUMPDEST PUSH1 0x0 DUP2 MLOAD SWAP1 POP SWAP2 SWAP1 POP JUMP JUMPDEST PUSH1 0x0 DUP3 DUP3 MSTORE PUSH1 0x20 DUP3 ADD SWAP1 POP SWAP3 SWAP2 POP POP JUMP JUMPDEST PUSH1 0x0 JUMPDEST DUP4 DUP2 LT ISZERO PUSH2 0xA5E JUMPI DUP1 DUP3 ADD MLOAD DUP2 DUP5 ADD MSTORE PUSH1 0x20 DUP2 ADD SWAP1 POP PUSH2 0xA43 JUMP JUMPDEST DUP4 DUP2 GT ISZERO PUSH2 0xA6D JUMPI PUSH1 0x0 DUP5 DUP5 ADD MSTORE JUMPDEST POP POP POP POP JUMP JUMPDEST PUSH1 0x0 PUSH1 0x1F NOT PUSH1 0x1F DUP4 ADD AND SWAP1 POP SWAP2 SWAP1 POP JUMP JUMPDEST PUSH1 0x0 PUSH2 0xA8F DUP3 PUSH2 0xA24 JUMP JUMPDEST PUSH2 0xA99 DUP2 DUP6 PUSH2 0xA2F JUMP JUMPDEST SWAP4 POP PUSH2 0xAA9 DUP2 DUP6 PUSH1 0x20 DUP7 ADD PUSH2 0xA40 JUMP JUMPDEST PUSH2 0xAB2 DUP2 PUSH2 0xA73 JUMP JUMPDEST DUP5 ADD SWAP2 POP POP SWAP3 SWAP2 POP POP JUMP JUMPDEST PUSH1 0x0 PUSH1 0x20 DUP3 ADD SWAP1 POP DUP2 DUP2 SUB PUSH1 0x0 DUP4 ADD MSTORE PUSH2 0xAD7 DUP2 DUP5 PUSH2 0xA84 JUMP JUMPDEST SWAP1 POP SWAP3 SWAP2 POP POP JUMP JUMPDEST PUSH1 0x0 DUP2 SWAP1 POP SWAP2 SWAP1 POP JUMP JUMPDEST PUSH2 0xAF2 DUP2 PUSH2 0xADF JUMP JUMPDEST DUP3 MSTORE POP POP JUMP JUMPDEST PUSH1 0x0 PUSH1 0x20 DUP3 ADD SWAP1 POP PUSH2 0xB0D PUSH1 0x0 DUP4 ADD DUP5 PUSH2 0xAE9 JUMP JUMPDEST SWAP3 SWAP2 POP POP JUMP JUMPDEST PUSH1 0x0 DUP1 REVERT JUMPDEST PUSH1 0x0 PUSH20 0xFFFFFFFFFFFFFFFFFFFFFFFFFFFFFFFFFFFFFFFF DUP3 AND SWAP1 POP SWAP2 SWAP1 POP JUMP JUMPDEST PUSH1 0x0 PUSH2 0xB43 DUP3 PUSH2 0xB18 JUMP JUMPDEST SWAP1 POP SWAP2 SWAP1 POP JUMP JUMPDEST PUSH2 0xB53 DUP2 PUSH2 0xB38 JUMP JUMPDEST DUP2 EQ PUSH2 0xB5E JUMPI PUSH1 0x0 DUP1 REVERT JUMPDEST POP JUMP JUMPDEST PUSH1 0x0 DUP2 CALLDATALOAD SWAP1 POP PUSH2 0xB70 DUP2 PUSH2 0xB4A JUMP JUMPDEST SWAP3 SWAP2 POP POP JUMP JUMPDEST PUSH2 0xB7F DUP2 PUSH2 0xADF JUMP JUMPDEST DUP2 EQ PUSH2 0xB8A JUMPI PUSH1 0x0 DUP1 REVERT JUMPDEST POP JUMP JUMPDEST PUSH1 0x0 DUP2 CALLDATALOAD SWAP1 POP PUSH2 0xB9C DUP2 PUSH2 0xB76 JUMP JUMPDEST SWAP3 SWAP2 POP POP JUMP JUMPDEST PUSH1 0x0 DUP1 PUSH1 0x0 PUSH1 0x60 DUP5 DUP7 SUB SLT ISZERO PUSH2 0xBBB JUMPI PUSH2 0xBBA PUSH2 0xB13 JUMP JUMPDEST JUMPDEST PUSH1 0x0 PUSH2 0xBC9 DUP7 DUP3 DUP8 ADD PUSH2 0xB61 JUMP JUMPDEST SWAP4 POP POP PUSH1 0x20 PUSH2 0xBDA DUP7 DUP3 DUP8 ADD PUSH2 0xB61 JUMP JUMPDEST SWAP3 POP POP PUSH1 0x40 PUSH2 0xBEB DUP7 DUP3 DUP8 ADD PUSH2 0xB8D JUMP JUMPDEST SWAP2 POP POP SWAP3 POP SWAP3 POP SWAP3 JUMP JUMPDEST PUSH1 0x0 DUP2 ISZERO ISZERO SWAP1 POP SWAP2 SWAP1 POP JUMP JUMPDEST PUSH2 0xC0A DUP2 PUSH2 0xBF5 JUMP JUMPDEST DUP3 MSTORE POP POP JUMP JUMPDEST PUSH1 0x0 PUSH1 0x20 DUP3 ADD SWAP1 POP PUSH2 0xC25 PUSH1 0x0 DUP4 ADD DUP5 PUSH2 0xC01 JUMP JUMPDEST SWAP3 SWAP2 POP POP JUMP JUMPDEST PUSH1 0x0 PUSH1 0xFF DUP3 AND SWAP1 POP SWAP2 SWAP1 POP JUMP JUMPDEST PUSH2 0xC41 DUP2 PUSH2 0xC2B JUMP JUMPDEST DUP3 MSTORE POP POP JUMP JUMPDEST PUSH1 0x0 PUSH1 0x20 DUP3 ADD SWAP1 POP PUSH2 0xC5C PUSH1 0x0 DUP4 ADD DUP5 PUSH2 0xC38 JUMP JUMPDEST SWAP3 SWAP2 POP POP JUMP JUMPDEST PUSH2 0xC6B DUP2 PUSH2 0xB38 JUMP JUMPDEST DUP3 MSTORE POP POP JUMP JUMPDEST PUSH1 0x0 PUSH1 0x20 DUP3 ADD SWAP1 POP PUSH2 0xC86 PUSH1 0x0 DUP4 ADD DUP5 PUSH2 0xC62 JUMP JUMPDEST SWAP3 SWAP2 POP POP JUMP JUMPDEST PUSH1 0x0 PUSH1 0x20 DUP3 DUP5 SUB SLT ISZERO PUSH2 0xCA2 JUMPI PUSH2 0xCA1 PUSH2 0xB13 JUMP JUMPDEST JUMPDEST PUSH1 0x0 PUSH2 0xCB0 DUP5 DUP3 DUP6 ADD PUSH2 0xB61 JUMP JUMPDEST SWAP2 POP POP SWAP3 SWAP2 POP POP JUMP JUMPDEST PUSH1 0x0 DUP1 PUSH1 0x40 DUP4 DUP6 SUB SLT ISZERO PUSH2 0xCD0 JUMPI PUSH2 0xCCF PUSH2 0xB13 JUMP JUMPDEST JUMPDEST PUSH1 0x0 PUSH2 0xCDE DUP6 DUP3 DUP7 ADD PUSH2 0xB61 JUMP JUMPDEST SWAP3 POP POP PUSH1 0x20 PUSH2 0xCEF DUP6 DUP3 DUP7 ADD PUSH2 0xB8D JUMP JUMPDEST SWAP2 POP POP SWAP3 POP SWAP3 SWAP1 POP JUMP JUMPDEST PUSH1 0x0 DUP1 PUSH1 0x40 DUP4 DUP6 SUB SLT ISZERO PUSH2 0xD10 JUMPI PUSH2 0xD0F PUSH2 0xB13 JUMP JUMPDEST JUMPDEST PUSH1 0x0 PUSH2 0xD1E DUP6 DUP3 DUP7 ADD PUSH2 0xB61 JUMP JUMPDEST SWAP3 POP POP PUSH1 0x20 PUSH2 0xD2F DUP6 DUP3 DUP7 ADD PUSH2 0xB61 JUMP JUMPDEST SWAP2 POP POP SWAP3 POP SWAP3 SWAP1 POP JUMP JUMPDEST PUSH32 0x4E487B7100000000000000000000000000000000000000000000000000000000 PUSH1 0x0 MSTORE PUSH1 0x1 PUSH1 0x4 MSTORE PUSH1 0x24 PUSH1 0x0 REVERT JUMPDEST PUSH32 0x4E487B7100000000000000000000000000000000000000000000000000000000 PUSH1 0x0 MSTORE PUSH1 0x11 PUSH1 0x4 MSTORE PUSH1 0x24 PUSH1 0x0 REVERT JUMPDEST PUSH1 0x0 PUSH2 0xDA2 DUP3 PUSH2 0xADF JUMP JUMPDEST SWAP2 POP PUSH2 0xDAD DUP4 PUSH2 0xADF JUMP JUMPDEST SWAP3 POP DUP3 DUP3 LT ISZERO PUSH2 0xDC0 JUMPI PUSH2 0xDBF PUSH2 0xD68 JUMP JUMPDEST JUMPDEST DUP3 DUP3 SUB SWAP1 POP SWAP3 SWAP2 POP POP JUMP JUMPDEST PUSH1 0x0 PUSH2 0xDD6 DUP3 PUSH2 0xADF JUMP JUMPDEST SWAP2 POP PUSH2 0xDE1 DUP4 PUSH2 0xADF JUMP JUMPDEST SWAP3 POP DUP3 PUSH32 0xFFFFFFFFFFFFFFFFFFFFFFFFFFFFFFFFFFFFFFFFFFFFFFFFFFFFFFFFFFFFFFFF SUB DUP3 GT ISZERO PUSH2 0xE16 JUMPI PUSH2 0xE15 PUSH2 0xD68 JUMP JUMPDEST JUMPDEST DUP3 DUP3 ADD SWAP1 POP SWAP3 SWAP2 POP POP JUMP INVALID LOG2 PUSH5 0x6970667358 0x22 SLT KECCAK256 0xF9 0xCE PUSH14 0x267765BA437EA3647B4BB9027675 CHAINID 0xCA 0xB7 0xE5 PUSH9 0xF464D6520299BF4C72 DUP14 PUSH5 0x736F6C6343 STOP ADDMOD SIGNEXTEND STOP CALLER "
				},
				"gasEstimates": {
					"creation": {
						"codeDepositCost": "805800",
						"executionCost": "infinite",
						"totalCost": "infinite"
					},
					"external": {
						"approve(uint256)": "infinite",
						"buy()": "infinite",
						"getAddress()": "408",
						"getAllowance()": "infinite",
						"getDexBalance()": "infinite",
						"getOwnerBalance()": "infinite",
						"getSenderAddress()": "430",
						"getTokenAddress()": "infinite",
						"getTotalSupply()": "infinite",
						"sell(uint256)": "infinite",
						"token()": "infinite"
					}
				},
				"methodIdentifiers": {
					"approve(uint256)": "b759f954",
					"buy()": "a6f2ae3a",
					"getAddress()": "38cc4831",
					"getAllowance()": "973e9b8b",
					"getDexBalance()": "430f4801",
					"getOwnerBalance()": "590791f2",
					"getSenderAddress()": "42948e18",
					"getTokenAddress()": "10fe9ae8",
					"getTotalSupply()": "c4e41b22",
					"sell(uint256)": "e4849b32",
					"token()": "fc0c546a"
				}
			},
			"storageLayout": {
				"storage": [
					{
						"astId": 380,
						"contract": "contracts/16_Dex.sol:DEX",
						"label": "token",
						"offset": 0,
						"slot": "0",
						"type": "t_contract(IERC20)120"
					}
				],
				"types": {
					"t_contract(IERC20)120": {
						"encoding": "inplace",
						"label": "contract IERC20",
						"numberOfBytes": "20"
					}
				}
			},
			"userdoc": {
				"kind": "user",
				"methods": {},
				"version": 1
			}
		}
	}
}