{
	"contracts/11_CallContract.sol": {
		"Caller": {
			"abi": [
				{
					"inputs": [],
					"stateMutability": "nonpayable",
					"type": "constructor"
				},
				{
					"inputs": [],
					"name": "getAddress",
					"outputs": [
						{
							"internalType": "address",
							"name": "",
							"type": "address"
						}
					],
					"stateMutability": "view",
					"type": "function"
				},
				{
					"inputs": [],
					"name": "getBalance",
					"outputs": [
						{
							"internalType": "uint256",
							"name": "",
							"type": "uint256"
						}
					],
					"stateMutability": "view",
					"type": "function"
				}
			],
			"devdoc": {
				"kind": "dev",
				"methods": {},
				"version": 1
			},
			"evm": {
				"assembly": "    /* \"contracts/11_CallContract.sol\":523:829  contract Caller{... */\n  mstore(0x40, 0x80)\n    /* \"contracts/11_CallContract.sol\":568:623  constructor(){... */\n  callvalue\n  dup1\n  iszero\n  tag_1\n  jumpi\n  0x00\n  dup1\n  revert\ntag_1:\n  pop\n    /* \"contracts/11_CallContract.sol\":602:616  new Receiver() */\n  mload(0x40)\n  tag_4\n  swap1\n  tag_5\n  jump\t// in\ntag_4:\n  mload(0x40)\n  dup1\n  swap2\n  sub\n  swap1\n  0x00\n  create\n  dup1\n  iszero\n  dup1\n  iszero\n  tag_6\n  jumpi\n  returndatasize\n  0x00\n  dup1\n  returndatacopy\n  revert(0x00, returndatasize)\ntag_6:\n  pop\n    /* \"contracts/11_CallContract.sol\":591:599  receiver */\n  0x00\n  dup1\n    /* \"contracts/11_CallContract.sol\":591:616  receiver = new Receiver() */\n  0x0100\n  exp\n  dup2\n  sload\n  dup2\n  0xffffffffffffffffffffffffffffffffffffffff\n  mul\n  not\n  and\n  swap1\n  dup4\n  0xffffffffffffffffffffffffffffffffffffffff\n  and\n  mul\n  or\n  swap1\n  sstore\n  pop\n    /* \"contracts/11_CallContract.sol\":523:829  contract Caller{... */\n  jump(tag_7)\ntag_5:\n  dataSize(sub_1)\n  dup1\n  dataOffset(sub_1)\n  dup4\n  codecopy\n  add\n  swap1\n  jump\t// out\ntag_7:\n  dataSize(sub_0)\n  dup1\n  dataOffset(sub_0)\n  0x00\n  codecopy\n  0x00\n  return\nstop\n\nsub_0: assembly {\n        /* \"contracts/11_CallContract.sol\":523:829  contract Caller{... */\n      mstore(0x40, 0x80)\n      callvalue\n      dup1\n      iszero\n      tag_1\n      jumpi\n      0x00\n      dup1\n      revert\n    tag_1:\n      pop\n      jumpi(tag_2, lt(calldatasize, 0x04))\n      shr(0xe0, calldataload(0x00))\n      dup1\n      0x12065fe0\n      eq\n      tag_3\n      jumpi\n      dup1\n      0x38cc4831\n      eq\n      tag_4\n      jumpi\n    tag_2:\n      0x00\n      dup1\n      revert\n        /* \"contracts/11_CallContract.sol\":735:827  function getBalance() public view returns(uint){... */\n    tag_3:\n      tag_5\n      tag_6\n      jump\t// in\n    tag_5:\n      mload(0x40)\n      tag_7\n      swap2\n      swap1\n      tag_8\n      jump\t// in\n    tag_7:\n      mload(0x40)\n      dup1\n      swap2\n      sub\n      swap1\n      return\n        /* \"contracts/11_CallContract.sol\":634:729  function getAddress() public view returns(address){... */\n    tag_4:\n      tag_9\n      tag_10\n      jump\t// in\n    tag_9:\n      mload(0x40)\n      tag_11\n      swap2\n      swap1\n      tag_12\n      jump\t// in\n    tag_11:\n      mload(0x40)\n      dup1\n      swap2\n      sub\n      swap1\n      return\n        /* \"contracts/11_CallContract.sol\":735:827  function getBalance() public view returns(uint){... */\n    tag_6:\n        /* \"contracts/11_CallContract.sol\":777:781  uint */\n      0x00\n        /* \"contracts/11_CallContract.sol\":799:807  receiver */\n      dup1\n      0x00\n      swap1\n      sload\n      swap1\n      0x0100\n      exp\n      swap1\n      div\n      0xffffffffffffffffffffffffffffffffffffffff\n      and\n        /* \"contracts/11_CallContract.sol\":799:818  receiver.getBalance */\n      0xffffffffffffffffffffffffffffffffffffffff\n      and\n      0x12065fe0\n        /* \"contracts/11_CallContract.sol\":799:820  receiver.getBalance() */\n      mload(0x40)\n      dup2\n      0xffffffff\n      and\n      0xe0\n      shl\n      dup2\n      mstore\n      0x04\n      add\n      0x20\n      mload(0x40)\n      dup1\n      dup4\n      sub\n      dup2\n      dup7\n      dup1\n      extcodesize\n      iszero\n      dup1\n      iszero\n      tag_14\n      jumpi\n      0x00\n      dup1\n      revert\n    tag_14:\n      pop\n      gas\n      staticcall\n      iszero\n      dup1\n      iszero\n      tag_16\n      jumpi\n      returndatasize\n      0x00\n      dup1\n      returndatacopy\n      revert(0x00, returndatasize)\n    tag_16:\n      pop\n      pop\n      pop\n      pop\n      mload(0x40)\n      returndatasize\n      not(0x1f)\n      0x1f\n      dup3\n      add\n      and\n      dup3\n      add\n      dup1\n      0x40\n      mstore\n      pop\n      dup2\n      add\n      swap1\n      tag_17\n      swap2\n      swap1\n      tag_18\n      jump\t// in\n    tag_17:\n        /* \"contracts/11_CallContract.sol\":792:820  return receiver.getBalance() */\n      swap1\n      pop\n        /* \"contracts/11_CallContract.sol\":735:827  function getBalance() public view returns(uint){... */\n      swap1\n      jump\t// out\n        /* \"contracts/11_CallContract.sol\":634:729  function getAddress() public view returns(address){... */\n    tag_10:\n        /* \"contracts/11_CallContract.sol\":676:683  address */\n      0x00\n        /* \"contracts/11_CallContract.sol\":701:709  receiver */\n      dup1\n      0x00\n      swap1\n      sload\n      swap1\n      0x0100\n      exp\n      swap1\n      div\n      0xffffffffffffffffffffffffffffffffffffffff\n      and\n        /* \"contracts/11_CallContract.sol\":701:720  receiver.getAddress */\n      0xffffffffffffffffffffffffffffffffffffffff\n      and\n      0x38cc4831\n        /* \"contracts/11_CallContract.sol\":701:722  receiver.getAddress() */\n      mload(0x40)\n      dup2\n      0xffffffff\n      and\n      0xe0\n      shl\n      dup2\n      mstore\n      0x04\n      add\n      0x20\n      mload(0x40)\n      dup1\n      dup4\n      sub\n      dup2\n      dup7\n      dup1\n      extcodesize\n      iszero\n      dup1\n      iszero\n      tag_20\n      jumpi\n      0x00\n      dup1\n      revert\n    tag_20:\n      pop\n      gas\n      staticcall\n      iszero\n      dup1\n      iszero\n      tag_22\n      jumpi\n      returndatasize\n      0x00\n      dup1\n      returndatacopy\n      revert(0x00, returndatasize)\n    tag_22:\n      pop\n      pop\n      pop\n      pop\n      mload(0x40)\n      returndatasize\n      not(0x1f)\n      0x1f\n      dup3\n      add\n      and\n      dup3\n      add\n      dup1\n      0x40\n      mstore\n      pop\n      dup2\n      add\n      swap1\n      tag_23\n      swap2\n      swap1\n      tag_24\n      jump\t// in\n    tag_23:\n        /* \"contracts/11_CallContract.sol\":694:722  return receiver.getAddress() */\n      swap1\n      pop\n        /* \"contracts/11_CallContract.sol\":634:729  function getAddress() public view returns(address){... */\n      swap1\n      jump\t// out\n        /* \"#utility.yul\":7:150   */\n    tag_26:\n        /* \"#utility.yul\":64:69   */\n      0x00\n        /* \"#utility.yul\":95:101   */\n      dup2\n        /* \"#utility.yul\":89:102   */\n      mload\n        /* \"#utility.yul\":80:102   */\n      swap1\n      pop\n        /* \"#utility.yul\":111:144   */\n      tag_28\n        /* \"#utility.yul\":138:143   */\n      dup2\n        /* \"#utility.yul\":111:144   */\n      tag_29\n      jump\t// in\n    tag_28:\n        /* \"#utility.yul\":7:150   */\n      swap3\n      swap2\n      pop\n      pop\n      jump\t// out\n        /* \"#utility.yul\":156:299   */\n    tag_30:\n        /* \"#utility.yul\":213:218   */\n      0x00\n        /* \"#utility.yul\":244:250   */\n      dup2\n        /* \"#utility.yul\":238:251   */\n      mload\n        /* \"#utility.yul\":229:251   */\n      swap1\n      pop\n        /* \"#utility.yul\":260:293   */\n      tag_32\n        /* \"#utility.yul\":287:292   */\n      dup2\n        /* \"#utility.yul\":260:293   */\n      tag_33\n      jump\t// in\n    tag_32:\n        /* \"#utility.yul\":156:299   */\n      swap3\n      swap2\n      pop\n      pop\n      jump\t// out\n        /* \"#utility.yul\":305:656   */\n    tag_24:\n        /* \"#utility.yul\":375:381   */\n      0x00\n        /* \"#utility.yul\":424:426   */\n      0x20\n        /* \"#utility.yul\":412:421   */\n      dup3\n        /* \"#utility.yul\":403:410   */\n      dup5\n        /* \"#utility.yul\":399:422   */\n      sub\n        /* \"#utility.yul\":395:427   */\n      slt\n        /* \"#utility.yul\":392:511   */\n      iszero\n      tag_35\n      jumpi\n        /* \"#utility.yul\":430:509   */\n      tag_36\n      tag_37\n      jump\t// in\n    tag_36:\n        /* \"#utility.yul\":392:511   */\n    tag_35:\n        /* \"#utility.yul\":550:551   */\n      0x00\n        /* \"#utility.yul\":575:639   */\n      tag_38\n        /* \"#utility.yul\":631:638   */\n      dup5\n        /* \"#utility.yul\":622:628   */\n      dup3\n        /* \"#utility.yul\":611:620   */\n      dup6\n        /* \"#utility.yul\":607:629   */\n      add\n        /* \"#utility.yul\":575:639   */\n      tag_26\n      jump\t// in\n    tag_38:\n        /* \"#utility.yul\":565:639   */\n      swap2\n      pop\n        /* \"#utility.yul\":521:649   */\n      pop\n        /* \"#utility.yul\":305:656   */\n      swap3\n      swap2\n      pop\n      pop\n      jump\t// out\n        /* \"#utility.yul\":662:1013   */\n    tag_18:\n        /* \"#utility.yul\":732:738   */\n      0x00\n        /* \"#utility.yul\":781:783   */\n      0x20\n        /* \"#utility.yul\":769:778   */\n      dup3\n        /* \"#utility.yul\":760:767   */\n      dup5\n        /* \"#utility.yul\":756:779   */\n      sub\n        /* \"#utility.yul\":752:784   */\n      slt\n        /* \"#utility.yul\":749:868   */\n      iszero\n      tag_40\n      jumpi\n        /* \"#utility.yul\":787:866   */\n      tag_41\n      tag_37\n      jump\t// in\n    tag_41:\n        /* \"#utility.yul\":749:868   */\n    tag_40:\n        /* \"#utility.yul\":907:908   */\n      0x00\n        /* \"#utility.yul\":932:996   */\n      tag_42\n        /* \"#utility.yul\":988:995   */\n      dup5\n        /* \"#utility.yul\":979:985   */\n      dup3\n        /* \"#utility.yul\":968:977   */\n      dup6\n        /* \"#utility.yul\":964:986   */\n      add\n        /* \"#utility.yul\":932:996   */\n      tag_30\n      jump\t// in\n    tag_42:\n        /* \"#utility.yul\":922:996   */\n      swap2\n      pop\n        /* \"#utility.yul\":878:1006   */\n      pop\n        /* \"#utility.yul\":662:1013   */\n      swap3\n      swap2\n      pop\n      pop\n      jump\t// out\n        /* \"#utility.yul\":1019:1137   */\n    tag_43:\n        /* \"#utility.yul\":1106:1130   */\n      tag_45\n        /* \"#utility.yul\":1124:1129   */\n      dup2\n        /* \"#utility.yul\":1106:1130   */\n      tag_46\n      jump\t// in\n    tag_45:\n        /* \"#utility.yul\":1101:1104   */\n      dup3\n        /* \"#utility.yul\":1094:1131   */\n      mstore\n        /* \"#utility.yul\":1019:1137   */\n      pop\n      pop\n      jump\t// out\n        /* \"#utility.yul\":1143:1261   */\n    tag_47:\n        /* \"#utility.yul\":1230:1254   */\n      tag_49\n        /* \"#utility.yul\":1248:1253   */\n      dup2\n        /* \"#utility.yul\":1230:1254   */\n      tag_50\n      jump\t// in\n    tag_49:\n        /* \"#utility.yul\":1225:1228   */\n      dup3\n        /* \"#utility.yul\":1218:1255   */\n      mstore\n        /* \"#utility.yul\":1143:1261   */\n      pop\n      pop\n      jump\t// out\n        /* \"#utility.yul\":1267:1489   */\n    tag_12:\n        /* \"#utility.yul\":1360:1364   */\n      0x00\n        /* \"#utility.yul\":1398:1400   */\n      0x20\n        /* \"#utility.yul\":1387:1396   */\n      dup3\n        /* \"#utility.yul\":1383:1401   */\n      add\n        /* \"#utility.yul\":1375:1401   */\n      swap1\n      pop\n        /* \"#utility.yul\":1411:1482   */\n      tag_52\n        /* \"#utility.yul\":1479:1480   */\n      0x00\n        /* \"#utility.yul\":1468:1477   */\n      dup4\n        /* \"#utility.yul\":1464:1481   */\n      add\n        /* \"#utility.yul\":1455:1461   */\n      dup5\n        /* \"#utility.yul\":1411:1482   */\n      tag_43\n      jump\t// in\n    tag_52:\n        /* \"#utility.yul\":1267:1489   */\n      swap3\n      swap2\n      pop\n      pop\n      jump\t// out\n        /* \"#utility.yul\":1495:1717   */\n    tag_8:\n        /* \"#utility.yul\":1588:1592   */\n      0x00\n        /* \"#utility.yul\":1626:1628   */\n      0x20\n        /* \"#utility.yul\":1615:1624   */\n      dup3\n        /* \"#utility.yul\":1611:1629   */\n      add\n        /* \"#utility.yul\":1603:1629   */\n      swap1\n      pop\n        /* \"#utility.yul\":1639:1710   */\n      tag_54\n        /* \"#utility.yul\":1707:1708   */\n      0x00\n        /* \"#utility.yul\":1696:1705   */\n      dup4\n        /* \"#utility.yul\":1692:1709   */\n      add\n        /* \"#utility.yul\":1683:1689   */\n      dup5\n        /* \"#utility.yul\":1639:1710   */\n      tag_47\n      jump\t// in\n    tag_54:\n        /* \"#utility.yul\":1495:1717   */\n      swap3\n      swap2\n      pop\n      pop\n      jump\t// out\n        /* \"#utility.yul\":1804:1900   */\n    tag_46:\n        /* \"#utility.yul\":1841:1848   */\n      0x00\n        /* \"#utility.yul\":1870:1894   */\n      tag_58\n        /* \"#utility.yul\":1888:1893   */\n      dup3\n        /* \"#utility.yul\":1870:1894   */\n      tag_59\n      jump\t// in\n    tag_58:\n        /* \"#utility.yul\":1859:1894   */\n      swap1\n      pop\n        /* \"#utility.yul\":1804:1900   */\n      swap2\n      swap1\n      pop\n      jump\t// out\n        /* \"#utility.yul\":1906:2032   */\n    tag_59:\n        /* \"#utility.yul\":1943:1950   */\n      0x00\n        /* \"#utility.yul\":1983:2025   */\n      0xffffffffffffffffffffffffffffffffffffffff\n        /* \"#utility.yul\":1976:1981   */\n      dup3\n        /* \"#utility.yul\":1972:2026   */\n      and\n        /* \"#utility.yul\":1961:2026   */\n      swap1\n      pop\n        /* \"#utility.yul\":1906:2032   */\n      swap2\n      swap1\n      pop\n      jump\t// out\n        /* \"#utility.yul\":2038:2115   */\n    tag_50:\n        /* \"#utility.yul\":2075:2082   */\n      0x00\n        /* \"#utility.yul\":2104:2109   */\n      dup2\n        /* \"#utility.yul\":2093:2109   */\n      swap1\n      pop\n        /* \"#utility.yul\":2038:2115   */\n      swap2\n      swap1\n      pop\n      jump\t// out\n        /* \"#utility.yul\":2244:2361   */\n    tag_37:\n        /* \"#utility.yul\":2353:2354   */\n      0x00\n        /* \"#utility.yul\":2350:2351   */\n      dup1\n        /* \"#utility.yul\":2343:2355   */\n      revert\n        /* \"#utility.yul\":2367:2489   */\n    tag_29:\n        /* \"#utility.yul\":2440:2464   */\n      tag_66\n        /* \"#utility.yul\":2458:2463   */\n      dup2\n        /* \"#utility.yul\":2440:2464   */\n      tag_46\n      jump\t// in\n    tag_66:\n        /* \"#utility.yul\":2433:2438   */\n      dup2\n        /* \"#utility.yul\":2430:2465   */\n      eq\n        /* \"#utility.yul\":2420:2483   */\n      tag_67\n      jumpi\n        /* \"#utility.yul\":2479:2480   */\n      0x00\n        /* \"#utility.yul\":2476:2477   */\n      dup1\n        /* \"#utility.yul\":2469:2481   */\n      revert\n        /* \"#utility.yul\":2420:2483   */\n    tag_67:\n        /* \"#utility.yul\":2367:2489   */\n      pop\n      jump\t// out\n        /* \"#utility.yul\":2495:2617   */\n    tag_33:\n        /* \"#utility.yul\":2568:2592   */\n      tag_69\n        /* \"#utility.yul\":2586:2591   */\n      dup2\n        /* \"#utility.yul\":2568:2592   */\n      tag_50\n      jump\t// in\n    tag_69:\n        /* \"#utility.yul\":2561:2566   */\n      dup2\n        /* \"#utility.yul\":2558:2593   */\n      eq\n        /* \"#utility.yul\":2548:2611   */\n      tag_70\n      jumpi\n        /* \"#utility.yul\":2607:2608   */\n      0x00\n        /* \"#utility.yul\":2604:2605   */\n      dup1\n        /* \"#utility.yul\":2597:2609   */\n      revert\n        /* \"#utility.yul\":2548:2611   */\n    tag_70:\n        /* \"#utility.yul\":2495:2617   */\n      pop\n      jump\t// out\n\n    auxdata: 0xa2646970667358221220306602027ddca53ec39ec109108837a4710e5c6ae6fa4e15dd6c0430a059bf8f64736f6c63430008070033\n}\n\nsub_1: assembly {\n        /* \"contracts/11_CallContract.sol\":70:521  contract Receiver{... */\n      mstore(0x40, 0x80)\n      callvalue\n      dup1\n      iszero\n      tag_1\n      jumpi\n      0x00\n      dup1\n      revert\n    tag_1:\n      pop\n      dataSize(sub_0)\n      dup1\n      dataOffset(sub_0)\n      0x00\n      codecopy\n      0x00\n      return\n    stop\n\n    sub_0: assembly {\n            /* \"contracts/11_CallContract.sol\":70:521  contract Receiver{... */\n          mstore(0x40, 0x80)\n          jumpi(tag_1, lt(calldatasize, 0x04))\n          shr(0xe0, calldataload(0x00))\n          dup1\n          0x12065fe0\n          eq\n          tag_3\n          jumpi\n          dup1\n          0x38cc4831\n          eq\n          tag_4\n          jumpi\n          jump(tag_2)\n        tag_1:\n          jumpi(tag_2, calldatasize)\n            /* \"contracts/11_CallContract.sol\":267:320  Received(msg.sender,msg.value, \"Received was called\") */\n          0x59e04c3f0d44b7caf6e8ef854b61d9a51cf1960d7a88ff6356cc5e946b4b5832\n            /* \"contracts/11_CallContract.sol\":276:286  msg.sender */\n          caller\n            /* \"contracts/11_CallContract.sol\":287:296  msg.value */\n          callvalue\n            /* \"contracts/11_CallContract.sol\":267:320  Received(msg.sender,msg.value, \"Received was called\") */\n          mload(0x40)\n          tag_7\n          swap3\n          swap2\n          swap1\n          tag_8\n          jump\t// in\n        tag_7:\n          mload(0x40)\n          dup1\n          swap2\n          sub\n          swap1\n          log1\n            /* \"contracts/11_CallContract.sol\":70:521  contract Receiver{... */\n          stop\n        tag_2:\n          0x00\n          dup1\n          revert\n            /* \"contracts/11_CallContract.sol\":426:518  function getBalance() public view returns(uint){... */\n        tag_3:\n          callvalue\n          dup1\n          iszero\n          tag_9\n          jumpi\n          0x00\n          dup1\n          revert\n        tag_9:\n          pop\n          tag_10\n          tag_11\n          jump\t// in\n        tag_10:\n          mload(0x40)\n          tag_12\n          swap2\n          swap1\n          tag_13\n          jump\t// in\n        tag_12:\n          mload(0x40)\n          dup1\n          swap2\n          sub\n          swap1\n          return\n            /* \"contracts/11_CallContract.sol\":333:420  function getAddress() public view returns(address){... */\n        tag_4:\n          callvalue\n          dup1\n          iszero\n          tag_14\n          jumpi\n          0x00\n          dup1\n          revert\n        tag_14:\n          pop\n          tag_15\n          tag_16\n          jump\t// in\n        tag_15:\n          mload(0x40)\n          tag_17\n          swap2\n          swap1\n          tag_18\n          jump\t// in\n        tag_17:\n          mload(0x40)\n          dup1\n          swap2\n          sub\n          swap1\n          return\n            /* \"contracts/11_CallContract.sol\":426:518  function getBalance() public view returns(uint){... */\n        tag_11:\n            /* \"contracts/11_CallContract.sol\":468:472  uint */\n          0x00\n            /* \"contracts/11_CallContract.sol\":490:511  address(this).balance */\n          selfbalance\n            /* \"contracts/11_CallContract.sol\":483:511  return address(this).balance */\n          swap1\n          pop\n            /* \"contracts/11_CallContract.sol\":426:518  function getBalance() public view returns(uint){... */\n          swap1\n          jump\t// out\n            /* \"contracts/11_CallContract.sol\":333:420  function getAddress() public view returns(address){... */\n        tag_16:\n            /* \"contracts/11_CallContract.sol\":375:382  address */\n          0x00\n            /* \"contracts/11_CallContract.sol\":408:412  this */\n          address\n            /* \"contracts/11_CallContract.sol\":393:413  return address(this) */\n          swap1\n          pop\n            /* \"contracts/11_CallContract.sol\":333:420  function getAddress() public view returns(address){... */\n          swap1\n          jump\t// out\n            /* \"#utility.yul\":7:125   */\n        tag_22:\n            /* \"#utility.yul\":94:118   */\n          tag_24\n            /* \"#utility.yul\":112:117   */\n          dup2\n            /* \"#utility.yul\":94:118   */\n          tag_25\n          jump\t// in\n        tag_24:\n            /* \"#utility.yul\":89:92   */\n          dup3\n            /* \"#utility.yul\":82:119   */\n          mstore\n            /* \"#utility.yul\":7:125   */\n          pop\n          pop\n          jump\t// out\n            /* \"#utility.yul\":131:497   */\n        tag_26:\n            /* \"#utility.yul\":273:276   */\n          0x00\n            /* \"#utility.yul\":294:361   */\n          tag_28\n            /* \"#utility.yul\":358:360   */\n          0x13\n            /* \"#utility.yul\":353:356   */\n          dup4\n            /* \"#utility.yul\":294:361   */\n          tag_29\n          jump\t// in\n        tag_28:\n            /* \"#utility.yul\":287:361   */\n          swap2\n          pop\n            /* \"#utility.yul\":370:463   */\n          tag_30\n            /* \"#utility.yul\":459:462   */\n          dup3\n            /* \"#utility.yul\":370:463   */\n          tag_31\n          jump\t// in\n        tag_30:\n            /* \"#utility.yul\":488:490   */\n          0x20\n            /* \"#utility.yul\":483:486   */\n          dup3\n            /* \"#utility.yul\":479:491   */\n          add\n            /* \"#utility.yul\":472:491   */\n          swap1\n          pop\n            /* \"#utility.yul\":131:497   */\n          swap2\n          swap1\n          pop\n          jump\t// out\n            /* \"#utility.yul\":503:621   */\n        tag_32:\n            /* \"#utility.yul\":590:614   */\n          tag_34\n            /* \"#utility.yul\":608:613   */\n          dup2\n            /* \"#utility.yul\":590:614   */\n          tag_35\n          jump\t// in\n        tag_34:\n            /* \"#utility.yul\":585:588   */\n          dup3\n            /* \"#utility.yul\":578:615   */\n          mstore\n            /* \"#utility.yul\":503:621   */\n          pop\n          pop\n          jump\t// out\n            /* \"#utility.yul\":627:849   */\n        tag_18:\n            /* \"#utility.yul\":720:724   */\n          0x00\n            /* \"#utility.yul\":758:760   */\n          0x20\n            /* \"#utility.yul\":747:756   */\n          dup3\n            /* \"#utility.yul\":743:761   */\n          add\n            /* \"#utility.yul\":735:761   */\n          swap1\n          pop\n            /* \"#utility.yul\":771:842   */\n          tag_37\n            /* \"#utility.yul\":839:840   */\n          0x00\n            /* \"#utility.yul\":828:837   */\n          dup4\n            /* \"#utility.yul\":824:841   */\n          add\n            /* \"#utility.yul\":815:821   */\n          dup5\n            /* \"#utility.yul\":771:842   */\n          tag_22\n          jump\t// in\n        tag_37:\n            /* \"#utility.yul\":627:849   */\n          swap3\n          swap2\n          pop\n          pop\n          jump\t// out\n            /* \"#utility.yul\":855:1494   */\n        tag_8:\n            /* \"#utility.yul\":1077:1081   */\n          0x00\n            /* \"#utility.yul\":1115:1117   */\n          0x60\n            /* \"#utility.yul\":1104:1113   */\n          dup3\n            /* \"#utility.yul\":1100:1118   */\n          add\n            /* \"#utility.yul\":1092:1118   */\n          swap1\n          pop\n            /* \"#utility.yul\":1128:1199   */\n          tag_39\n            /* \"#utility.yul\":1196:1197   */\n          0x00\n            /* \"#utility.yul\":1185:1194   */\n          dup4\n            /* \"#utility.yul\":1181:1198   */\n          add\n            /* \"#utility.yul\":1172:1178   */\n          dup6\n            /* \"#utility.yul\":1128:1199   */\n          tag_22\n          jump\t// in\n        tag_39:\n            /* \"#utility.yul\":1209:1281   */\n          tag_40\n            /* \"#utility.yul\":1277:1279   */\n          0x20\n            /* \"#utility.yul\":1266:1275   */\n          dup4\n            /* \"#utility.yul\":1262:1280   */\n          add\n            /* \"#utility.yul\":1253:1259   */\n          dup5\n            /* \"#utility.yul\":1209:1281   */\n          tag_32\n          jump\t// in\n        tag_40:\n            /* \"#utility.yul\":1328:1337   */\n          dup2\n            /* \"#utility.yul\":1322:1326   */\n          dup2\n            /* \"#utility.yul\":1318:1338   */\n          sub\n            /* \"#utility.yul\":1313:1315   */\n          0x40\n            /* \"#utility.yul\":1302:1311   */\n          dup4\n            /* \"#utility.yul\":1298:1316   */\n          add\n            /* \"#utility.yul\":1291:1339   */\n          mstore\n            /* \"#utility.yul\":1356:1487   */\n          tag_41\n            /* \"#utility.yul\":1482:1486   */\n          dup2\n            /* \"#utility.yul\":1356:1487   */\n          tag_26\n          jump\t// in\n        tag_41:\n            /* \"#utility.yul\":1348:1487   */\n          swap1\n          pop\n            /* \"#utility.yul\":855:1494   */\n          swap4\n          swap3\n          pop\n          pop\n          pop\n          jump\t// out\n            /* \"#utility.yul\":1500:1722   */\n        tag_13:\n            /* \"#utility.yul\":1593:1597   */\n          0x00\n            /* \"#utility.yul\":1631:1633   */\n          0x20\n            /* \"#utility.yul\":1620:1629   */\n          dup3\n            /* \"#utility.yul\":1616:1634   */\n          add\n            /* \"#utility.yul\":1608:1634   */\n          swap1\n          pop\n            /* \"#utility.yul\":1644:1715   */\n          tag_43\n            /* \"#utility.yul\":1712:1713   */\n          0x00\n            /* \"#utility.yul\":1701:1710   */\n          dup4\n            /* \"#utility.yul\":1697:1714   */\n          add\n            /* \"#utility.yul\":1688:1694   */\n          dup5\n            /* \"#utility.yul\":1644:1715   */\n          tag_32\n          jump\t// in\n        tag_43:\n            /* \"#utility.yul\":1500:1722   */\n          swap3\n          swap2\n          pop\n          pop\n          jump\t// out\n            /* \"#utility.yul\":1728:1897   */\n        tag_29:\n            /* \"#utility.yul\":1812:1823   */\n          0x00\n            /* \"#utility.yul\":1846:1852   */\n          dup3\n            /* \"#utility.yul\":1841:1844   */\n          dup3\n            /* \"#utility.yul\":1834:1853   */\n          mstore\n            /* \"#utility.yul\":1886:1890   */\n          0x20\n            /* \"#utility.yul\":1881:1884   */\n          dup3\n            /* \"#utility.yul\":1877:1891   */\n          add\n            /* \"#utility.yul\":1862:1891   */\n          swap1\n          pop\n            /* \"#utility.yul\":1728:1897   */\n          swap3\n          swap2\n          pop\n          pop\n          jump\t// out\n            /* \"#utility.yul\":1903:1999   */\n        tag_25:\n            /* \"#utility.yul\":1940:1947   */\n          0x00\n            /* \"#utility.yul\":1969:1993   */\n          tag_46\n            /* \"#utility.yul\":1987:1992   */\n          dup3\n            /* \"#utility.yul\":1969:1993   */\n          tag_47\n          jump\t// in\n        tag_46:\n            /* \"#utility.yul\":1958:1993   */\n          swap1\n          pop\n            /* \"#utility.yul\":1903:1999   */\n          swap2\n          swap1\n          pop\n          jump\t// out\n            /* \"#utility.yul\":2005:2131   */\n        tag_47:\n            /* \"#utility.yul\":2042:2049   */\n          0x00\n            /* \"#utility.yul\":2082:2124   */\n          0xffffffffffffffffffffffffffffffffffffffff\n            /* \"#utility.yul\":2075:2080   */\n          dup3\n            /* \"#utility.yul\":2071:2125   */\n          and\n            /* \"#utility.yul\":2060:2125   */\n          swap1\n          pop\n            /* \"#utility.yul\":2005:2131   */\n          swap2\n          swap1\n          pop\n          jump\t// out\n            /* \"#utility.yul\":2137:2214   */\n        tag_35:\n            /* \"#utility.yul\":2174:2181   */\n          0x00\n            /* \"#utility.yul\":2203:2208   */\n          dup2\n            /* \"#utility.yul\":2192:2208   */\n          swap1\n          pop\n            /* \"#utility.yul\":2137:2214   */\n          swap2\n          swap1\n          pop\n          jump\t// out\n            /* \"#utility.yul\":2220:2389   */\n        tag_31:\n            /* \"#utility.yul\":2360:2381   */\n          0x5265636569766564207761732063616c6c656400000000000000000000000000\n            /* \"#utility.yul\":2356:2357   */\n          0x00\n            /* \"#utility.yul\":2348:2354   */\n          dup3\n            /* \"#utility.yul\":2344:2358   */\n          add\n            /* \"#utility.yul\":2337:2382   */\n          mstore\n            /* \"#utility.yul\":2220:2389   */\n          pop\n          jump\t// out\n\n        auxdata: 0xa264697066735822122010a7a600002b24ed919c48a878545b46041179091abf510de5236ebfe2c4850964736f6c63430008070033\n    }\n}\n",
				"bytecode": {
					"linkReferences": {},
					"object": "608060405234801561001057600080fd5b5060405161001d9061007e565b604051809103906000f080158015610039573d6000803e3d6000fd5b506000806101000a81548173ffffffffffffffffffffffffffffffffffffffff021916908373ffffffffffffffffffffffffffffffffffffffff16021790555061008b565b610257806103da83390190565b6103408061009a6000396000f3fe608060405234801561001057600080fd5b50600436106100365760003560e01c806312065fe01461003b57806338cc483114610059575b600080fd5b610043610077565b6040516100509190610280565b60405180910390f35b61006161011d565b60405161006e9190610265565b60405180910390f35b60008060009054906101000a900473ffffffffffffffffffffffffffffffffffffffff1673ffffffffffffffffffffffffffffffffffffffff166312065fe06040518163ffffffff1660e01b815260040160206040518083038186803b1580156100e057600080fd5b505afa1580156100f4573d6000803e3d6000fd5b505050506040513d601f19601f82011682018060405250810190610118919061021a565b905090565b60008060009054906101000a900473ffffffffffffffffffffffffffffffffffffffff1673ffffffffffffffffffffffffffffffffffffffff166338cc48316040518163ffffffff1660e01b815260040160206040518083038186803b15801561018657600080fd5b505afa15801561019a573d6000803e3d6000fd5b505050506040513d601f19601f820116820180604052508101906101be91906101ed565b905090565b6000815190506101d2816102dc565b92915050565b6000815190506101e7816102f3565b92915050565b600060208284031215610203576102026102d7565b5b6000610211848285016101c3565b91505092915050565b6000602082840312156102305761022f6102d7565b5b600061023e848285016101d8565b91505092915050565b6102508161029b565b82525050565b61025f816102cd565b82525050565b600060208201905061027a6000830184610247565b92915050565b60006020820190506102956000830184610256565b92915050565b60006102a6826102ad565b9050919050565b600073ffffffffffffffffffffffffffffffffffffffff82169050919050565b6000819050919050565b600080fd5b6102e58161029b565b81146102f057600080fd5b50565b6102fc816102cd565b811461030757600080fd5b5056fea2646970667358221220306602027ddca53ec39ec109108837a4710e5c6ae6fa4e15dd6c0430a059bf8f64736f6c63430008070033608060405234801561001057600080fd5b50610237806100206000396000f3fe60806040526004361061002d5760003560e01c806312065fe01461007257806338cc48311461009d5761006d565b3661006d577f59e04c3f0d44b7caf6e8ef854b61d9a51cf1960d7a88ff6356cc5e946b4b58323334604051610063929190610134565b60405180910390a1005b600080fd5b34801561007e57600080fd5b506100876100c8565b6040516100949190610170565b60405180910390f35b3480156100a957600080fd5b506100b26100d0565b6040516100bf9190610119565b60405180910390f35b600047905090565b600030905090565b6100e18161019c565b82525050565b60006100f460138361018b565b91506100ff826101d8565b602082019050919050565b610113816101ce565b82525050565b600060208201905061012e60008301846100d8565b92915050565b600060608201905061014960008301856100d8565b610156602083018461010a565b8181036040830152610167816100e7565b90509392505050565b6000602082019050610185600083018461010a565b92915050565b600082825260208201905092915050565b60006101a7826101ae565b9050919050565b600073ffffffffffffffffffffffffffffffffffffffff82169050919050565b6000819050919050565b7f5265636569766564207761732063616c6c65640000000000000000000000000060008201525056fea264697066735822122010a7a600002b24ed919c48a878545b46041179091abf510de5236ebfe2c4850964736f6c63430008070033",
					"opcodes": "PUSH1 0x80 PUSH1 0x40 MSTORE CALLVALUE DUP1 ISZERO PUSH2 0x10 JUMPI PUSH1 0x0 DUP1 REVERT JUMPDEST POP PUSH1 0x40 MLOAD PUSH2 0x1D SWAP1 PUSH2 0x7E JUMP JUMPDEST PUSH1 0x40 MLOAD DUP1 SWAP2 SUB SWAP1 PUSH1 0x0 CREATE DUP1 ISZERO DUP1 ISZERO PUSH2 0x39 JUMPI RETURNDATASIZE PUSH1 0x0 DUP1 RETURNDATACOPY RETURNDATASIZE PUSH1 0x0 REVERT JUMPDEST POP PUSH1 0x0 DUP1 PUSH2 0x100 EXP DUP2 SLOAD DUP2 PUSH20 0xFFFFFFFFFFFFFFFFFFFFFFFFFFFFFFFFFFFFFFFF MUL NOT AND SWAP1 DUP4 PUSH20 0xFFFFFFFFFFFFFFFFFFFFFFFFFFFFFFFFFFFFFFFF AND MUL OR SWAP1 SSTORE POP PUSH2 0x8B JUMP JUMPDEST PUSH2 0x257 DUP1 PUSH2 0x3DA DUP4 CODECOPY ADD SWAP1 JUMP JUMPDEST PUSH2 0x340 DUP1 PUSH2 0x9A PUSH1 0x0 CODECOPY PUSH1 0x0 RETURN INVALID PUSH1 0x80 PUSH1 0x40 MSTORE CALLVALUE DUP1 ISZERO PUSH2 0x10 JUMPI PUSH1 0x0 DUP1 REVERT JUMPDEST POP PUSH1 0x4 CALLDATASIZE LT PUSH2 0x36 JUMPI PUSH1 0x0 CALLDATALOAD PUSH1 0xE0 SHR DUP1 PUSH4 0x12065FE0 EQ PUSH2 0x3B JUMPI DUP1 PUSH4 0x38CC4831 EQ PUSH2 0x59 JUMPI JUMPDEST PUSH1 0x0 DUP1 REVERT JUMPDEST PUSH2 0x43 PUSH2 0x77 JUMP JUMPDEST PUSH1 0x40 MLOAD PUSH2 0x50 SWAP2 SWAP1 PUSH2 0x280 JUMP JUMPDEST PUSH1 0x40 MLOAD DUP1 SWAP2 SUB SWAP1 RETURN JUMPDEST PUSH2 0x61 PUSH2 0x11D JUMP JUMPDEST PUSH1 0x40 MLOAD PUSH2 0x6E SWAP2 SWAP1 PUSH2 0x265 JUMP JUMPDEST PUSH1 0x40 MLOAD DUP1 SWAP2 SUB SWAP1 RETURN JUMPDEST PUSH1 0x0 DUP1 PUSH1 0x0 SWAP1 SLOAD SWAP1 PUSH2 0x100 EXP SWAP1 DIV PUSH20 0xFFFFFFFFFFFFFFFFFFFFFFFFFFFFFFFFFFFFFFFF AND PUSH20 0xFFFFFFFFFFFFFFFFFFFFFFFFFFFFFFFFFFFFFFFF AND PUSH4 0x12065FE0 PUSH1 0x40 MLOAD DUP2 PUSH4 0xFFFFFFFF AND PUSH1 0xE0 SHL DUP2 MSTORE PUSH1 0x4 ADD PUSH1 0x20 PUSH1 0x40 MLOAD DUP1 DUP4 SUB DUP2 DUP7 DUP1 EXTCODESIZE ISZERO DUP1 ISZERO PUSH2 0xE0 JUMPI PUSH1 0x0 DUP1 REVERT JUMPDEST POP GAS STATICCALL ISZERO DUP1 ISZERO PUSH2 0xF4 JUMPI RETURNDATASIZE PUSH1 0x0 DUP1 RETURNDATACOPY RETURNDATASIZE PUSH1 0x0 REVERT JUMPDEST POP POP POP POP PUSH1 0x40 MLOAD RETURNDATASIZE PUSH1 0x1F NOT PUSH1 0x1F DUP3 ADD AND DUP3 ADD DUP1 PUSH1 0x40 MSTORE POP DUP2 ADD SWAP1 PUSH2 0x118 SWAP2 SWAP1 PUSH2 0x21A JUMP JUMPDEST SWAP1 POP SWAP1 JUMP JUMPDEST PUSH1 0x0 DUP1 PUSH1 0x0 SWAP1 SLOAD SWAP1 PUSH2 0x100 EXP SWAP1 DIV PUSH20 0xFFFFFFFFFFFFFFFFFFFFFFFFFFFFFFFFFFFFFFFF AND PUSH20 0xFFFFFFFFFFFFFFFFFFFFFFFFFFFFFFFFFFFFFFFF AND PUSH4 0x38CC4831 PUSH1 0x40 MLOAD DUP2 PUSH4 0xFFFFFFFF AND PUSH1 0xE0 SHL DUP2 MSTORE PUSH1 0x4 ADD PUSH1 0x20 PUSH1 0x40 MLOAD DUP1 DUP4 SUB DUP2 DUP7 DUP1 EXTCODESIZE ISZERO DUP1 ISZERO PUSH2 0x186 JUMPI PUSH1 0x0 DUP1 REVERT JUMPDEST POP GAS STATICCALL ISZERO DUP1 ISZERO PUSH2 0x19A JUMPI RETURNDATASIZE PUSH1 0x0 DUP1 RETURNDATACOPY RETURNDATASIZE PUSH1 0x0 REVERT JUMPDEST POP POP POP POP PUSH1 0x40 MLOAD RETURNDATASIZE PUSH1 0x1F NOT PUSH1 0x1F DUP3 ADD AND DUP3 ADD DUP1 PUSH1 0x40 MSTORE POP DUP2 ADD SWAP1 PUSH2 0x1BE SWAP2 SWAP1 PUSH2 0x1ED JUMP JUMPDEST SWAP1 POP SWAP1 JUMP JUMPDEST PUSH1 0x0 DUP2 MLOAD SWAP1 POP PUSH2 0x1D2 DUP2 PUSH2 0x2DC JUMP JUMPDEST SWAP3 SWAP2 POP POP JUMP JUMPDEST PUSH1 0x0 DUP2 MLOAD SWAP1 POP PUSH2 0x1E7 DUP2 PUSH2 0x2F3 JUMP JUMPDEST SWAP3 SWAP2 POP POP JUMP JUMPDEST PUSH1 0x0 PUSH1 0x20 DUP3 DUP5 SUB SLT ISZERO PUSH2 0x203 JUMPI PUSH2 0x202 PUSH2 0x2D7 JUMP JUMPDEST JUMPDEST PUSH1 0x0 PUSH2 0x211 DUP5 DUP3 DUP6 ADD PUSH2 0x1C3 JUMP JUMPDEST SWAP2 POP POP SWAP3 SWAP2 POP POP JUMP JUMPDEST PUSH1 0x0 PUSH1 0x20 DUP3 DUP5 SUB SLT ISZERO PUSH2 0x230 JUMPI PUSH2 0x22F PUSH2 0x2D7 JUMP JUMPDEST JUMPDEST PUSH1 0x0 PUSH2 0x23E DUP5 DUP3 DUP6 ADD PUSH2 0x1D8 JUMP JUMPDEST SWAP2 POP POP SWAP3 SWAP2 POP POP JUMP JUMPDEST PUSH2 0x250 DUP2 PUSH2 0x29B JUMP JUMPDEST DUP3 MSTORE POP POP JUMP JUMPDEST PUSH2 0x25F DUP2 PUSH2 0x2CD JUMP JUMPDEST DUP3 MSTORE POP POP JUMP JUMPDEST PUSH1 0x0 PUSH1 0x20 DUP3 ADD SWAP1 POP PUSH2 0x27A PUSH1 0x0 DUP4 ADD DUP5 PUSH2 0x247 JUMP JUMPDEST SWAP3 SWAP2 POP POP JUMP JUMPDEST PUSH1 0x0 PUSH1 0x20 DUP3 ADD SWAP1 POP PUSH2 0x295 PUSH1 0x0 DUP4 ADD DUP5 PUSH2 0x256 JUMP JUMPDEST SWAP3 SWAP2 POP POP JUMP JUMPDEST PUSH1 0x0 PUSH2 0x2A6 DUP3 PUSH2 0x2AD JUMP JUMPDEST SWAP1 POP SWAP2 SWAP1 POP JUMP JUMPDEST PUSH1 0x0 PUSH20 0xFFFFFFFFFFFFFFFFFFFFFFFFFFFFFFFFFFFFFFFF DUP3 AND SWAP1 POP SWAP2 SWAP1 POP JUMP JUMPDEST PUSH1 0x0 DUP2 SWAP1 POP SWAP2 SWAP1 POP JUMP JUMPDEST PUSH1 0x0 DUP1 REVERT JUMPDEST PUSH2 0x2E5 DUP2 PUSH2 0x29B JUMP JUMPDEST DUP2 EQ PUSH2 0x2F0 JUMPI PUSH1 0x0 DUP1 REVERT JUMPDEST POP JUMP JUMPDEST PUSH2 0x2FC DUP2 PUSH2 0x2CD JUMP JUMPDEST DUP2 EQ PUSH2 0x307 JUMPI PUSH1 0x0 DUP1 REVERT JUMPDEST POP JUMP INVALID LOG2 PUSH5 0x6970667358 0x22 SLT KECCAK256 ADDRESS PUSH7 0x2027DDCA53EC3 SWAP15 0xC1 MULMOD LT DUP9 CALLDATACOPY LOG4 PUSH18 0xE5C6AE6FA4E15DD6C0430A059BF8F64736F PUSH13 0x63430008070033608060405234 DUP1 ISZERO PUSH2 0x10 JUMPI PUSH1 0x0 DUP1 REVERT JUMPDEST POP PUSH2 0x237 DUP1 PUSH2 0x20 PUSH1 0x0 CODECOPY PUSH1 0x0 RETURN INVALID PUSH1 0x80 PUSH1 0x40 MSTORE PUSH1 0x4 CALLDATASIZE LT PUSH2 0x2D JUMPI PUSH1 0x0 CALLDATALOAD PUSH1 0xE0 SHR DUP1 PUSH4 0x12065FE0 EQ PUSH2 0x72 JUMPI DUP1 PUSH4 0x38CC4831 EQ PUSH2 0x9D JUMPI PUSH2 0x6D JUMP JUMPDEST CALLDATASIZE PUSH2 0x6D JUMPI PUSH32 0x59E04C3F0D44B7CAF6E8EF854B61D9A51CF1960D7A88FF6356CC5E946B4B5832 CALLER CALLVALUE PUSH1 0x40 MLOAD PUSH2 0x63 SWAP3 SWAP2 SWAP1 PUSH2 0x134 JUMP JUMPDEST PUSH1 0x40 MLOAD DUP1 SWAP2 SUB SWAP1 LOG1 STOP JUMPDEST PUSH1 0x0 DUP1 REVERT JUMPDEST CALLVALUE DUP1 ISZERO PUSH2 0x7E JUMPI PUSH1 0x0 DUP1 REVERT JUMPDEST POP PUSH2 0x87 PUSH2 0xC8 JUMP JUMPDEST PUSH1 0x40 MLOAD PUSH2 0x94 SWAP2 SWAP1 PUSH2 0x170 JUMP JUMPDEST PUSH1 0x40 MLOAD DUP1 SWAP2 SUB SWAP1 RETURN JUMPDEST CALLVALUE DUP1 ISZERO PUSH2 0xA9 JUMPI PUSH1 0x0 DUP1 REVERT JUMPDEST POP PUSH2 0xB2 PUSH2 0xD0 JUMP JUMPDEST PUSH1 0x40 MLOAD PUSH2 0xBF SWAP2 SWAP1 PUSH2 0x119 JUMP JUMPDEST PUSH1 0x40 MLOAD DUP1 SWAP2 SUB SWAP1 RETURN JUMPDEST PUSH1 0x0 SELFBALANCE SWAP1 POP SWAP1 JUMP JUMPDEST PUSH1 0x0 ADDRESS SWAP1 POP SWAP1 JUMP JUMPDEST PUSH2 0xE1 DUP2 PUSH2 0x19C JUMP JUMPDEST DUP3 MSTORE POP POP JUMP JUMPDEST PUSH1 0x0 PUSH2 0xF4 PUSH1 0x13 DUP4 PUSH2 0x18B JUMP JUMPDEST SWAP2 POP PUSH2 0xFF DUP3 PUSH2 0x1D8 JUMP JUMPDEST PUSH1 0x20 DUP3 ADD SWAP1 POP SWAP2 SWAP1 POP JUMP JUMPDEST PUSH2 0x113 DUP2 PUSH2 0x1CE JUMP JUMPDEST DUP3 MSTORE POP POP JUMP JUMPDEST PUSH1 0x0 PUSH1 0x20 DUP3 ADD SWAP1 POP PUSH2 0x12E PUSH1 0x0 DUP4 ADD DUP5 PUSH2 0xD8 JUMP JUMPDEST SWAP3 SWAP2 POP POP JUMP JUMPDEST PUSH1 0x0 PUSH1 0x60 DUP3 ADD SWAP1 POP PUSH2 0x149 PUSH1 0x0 DUP4 ADD DUP6 PUSH2 0xD8 JUMP JUMPDEST PUSH2 0x156 PUSH1 0x20 DUP4 ADD DUP5 PUSH2 0x10A JUMP JUMPDEST DUP2 DUP2 SUB PUSH1 0x40 DUP4 ADD MSTORE PUSH2 0x167 DUP2 PUSH2 0xE7 JUMP JUMPDEST SWAP1 POP SWAP4 SWAP3 POP POP POP JUMP JUMPDEST PUSH1 0x0 PUSH1 0x20 DUP3 ADD SWAP1 POP PUSH2 0x185 PUSH1 0x0 DUP4 ADD DUP5 PUSH2 0x10A JUMP JUMPDEST SWAP3 SWAP2 POP POP JUMP JUMPDEST PUSH1 0x0 DUP3 DUP3 MSTORE PUSH1 0x20 DUP3 ADD SWAP1 POP SWAP3 SWAP2 POP POP JUMP JUMPDEST PUSH1 0x0 PUSH2 0x1A7 DUP3 PUSH2 0x1AE JUMP JUMPDEST SWAP1 POP SWAP2 SWAP1 POP JUMP JUMPDEST PUSH1 0x0 PUSH20 0xFFFFFFFFFFFFFFFFFFFFFFFFFFFFFFFFFFFFFFFF DUP3 AND SWAP1 POP SWAP2 SWAP1 POP JUMP JUMPDEST PUSH1 0x0 DUP2 SWAP1 POP SWAP2 SWAP1 POP JUMP JUMPDEST PUSH32 0x5265636569766564207761732063616C6C656400000000000000000000000000 PUSH1 0x0 DUP3 ADD MSTORE POP JUMP INVALID LOG2 PUSH5 0x6970667358 0x22 SLT KECCAK256 LT 0xA7 0xA6 STOP STOP 0x2B 0x24 0xED SWAP2 SWAP13 BASEFEE 0xA8 PUSH25 0x545B46041179091ABF510DE5236EBFE2C4850964736F6C6343 STOP ADDMOD SMOD STOP CALLER "
				},
				"gasEstimates": {
					"creation": {
						"codeDepositCost": "166400",
						"executionCost": "infinite",
						"totalCost": "infinite"
					},
					"external": {
						"getAddress()": "infinite",
						"getBalance()": "infinite"
					}
				},
				"methodIdentifiers": {
					"getAddress()": "38cc4831",
					"getBalance()": "12065fe0"
				}
			},
			"storageLayout": {
				"storage": [
					{
						"astId": 48,
						"contract": "contracts/11_CallContract.sol:Caller",
						"label": "receiver",
						"offset": 0,
						"slot": "0",
						"type": "t_contract(Receiver)45"
					}
				],
				"types": {
					"t_contract(Receiver)45": {
						"encoding": "inplace",
						"label": "contract Receiver",
						"numberOfBytes": "20"
					}
				}
			},
			"userdoc": {
				"kind": "user",
				"methods": {},
				"version": 1
			}
		}
	}
}