{
	"contracts/11_CallContract.sol": {
		"Caller": {
			"abi": [
				{
					"anonymous": false,
					"inputs": [
						{
							"indexed": false,
							"internalType": "address",
							"name": "caller",
							"type": "address"
						},
						{
							"indexed": false,
							"internalType": "uint256",
							"name": "amount",
							"type": "uint256"
						},
						{
							"indexed": false,
							"internalType": "string",
							"name": "message",
							"type": "string"
						}
					],
					"name": "Received",
					"type": "event"
				},
				{
					"inputs": [],
					"name": "getAddress",
					"outputs": [
						{
							"internalType": "address",
							"name": "",
							"type": "address"
						}
					],
					"stateMutability": "view",
					"type": "function"
				},
				{
					"stateMutability": "payable",
					"type": "receive"
				}
			],
			"devdoc": {
				"kind": "dev",
				"methods": {},
				"version": 1
			},
			"evm": {
				"assembly": "    /* \"contracts/11_CallContract.sol\":94:445  contract Caller{... */\n  mstore(0x40, 0x80)\n  callvalue\n  dup1\n  iszero\n  tag_1\n  jumpi\n  0x00\n  dup1\n  revert\ntag_1:\n  pop\n  dataSize(sub_0)\n  dup1\n  dataOffset(sub_0)\n  0x00\n  codecopy\n  0x00\n  return\nstop\n\nsub_0: assembly {\n        /* \"contracts/11_CallContract.sol\":94:445  contract Caller{... */\n      mstore(0x40, 0x80)\n      jumpi(tag_1, lt(calldatasize, 0x04))\n      shr(0xe0, calldataload(0x00))\n      dup1\n      0x38cc4831\n      eq\n      tag_3\n      jumpi\n      jump(tag_2)\n    tag_1:\n      jumpi(tag_2, calldatasize)\n        /* \"contracts/11_CallContract.sol\":290:343  Received(msg.sender,msg.value, \"Received was called\") */\n      0x59e04c3f0d44b7caf6e8ef854b61d9a51cf1960d7a88ff6356cc5e946b4b5832\n        /* \"contracts/11_CallContract.sol\":299:309  msg.sender */\n      caller\n        /* \"contracts/11_CallContract.sol\":310:319  msg.value */\n      callvalue\n        /* \"contracts/11_CallContract.sol\":290:343  Received(msg.sender,msg.value, \"Received was called\") */\n      mload(0x40)\n      tag_6\n      swap3\n      swap2\n      swap1\n      tag_7\n      jump\t// in\n    tag_6:\n      mload(0x40)\n      dup1\n      swap2\n      sub\n      swap1\n      log1\n        /* \"contracts/11_CallContract.sol\":94:445  contract Caller{... */\n      stop\n    tag_2:\n      0x00\n      dup1\n      revert\n        /* \"contracts/11_CallContract.sol\":356:443  function getAddress() public view returns(address){... */\n    tag_3:\n      callvalue\n      dup1\n      iszero\n      tag_8\n      jumpi\n      0x00\n      dup1\n      revert\n    tag_8:\n      pop\n      tag_9\n      tag_10\n      jump\t// in\n    tag_9:\n      mload(0x40)\n      tag_11\n      swap2\n      swap1\n      tag_12\n      jump\t// in\n    tag_11:\n      mload(0x40)\n      dup1\n      swap2\n      sub\n      swap1\n      return\n    tag_10:\n        /* \"contracts/11_CallContract.sol\":398:405  address */\n      0x00\n        /* \"contracts/11_CallContract.sol\":431:435  this */\n      address\n        /* \"contracts/11_CallContract.sol\":416:436  return address(this) */\n      swap1\n      pop\n        /* \"contracts/11_CallContract.sol\":356:443  function getAddress() public view returns(address){... */\n      swap1\n      jump\t// out\n        /* \"#utility.yul\":7:125   */\n    tag_15:\n        /* \"#utility.yul\":94:118   */\n      tag_17\n        /* \"#utility.yul\":112:117   */\n      dup2\n        /* \"#utility.yul\":94:118   */\n      tag_18\n      jump\t// in\n    tag_17:\n        /* \"#utility.yul\":89:92   */\n      dup3\n        /* \"#utility.yul\":82:119   */\n      mstore\n        /* \"#utility.yul\":7:125   */\n      pop\n      pop\n      jump\t// out\n        /* \"#utility.yul\":131:497   */\n    tag_19:\n        /* \"#utility.yul\":273:276   */\n      0x00\n        /* \"#utility.yul\":294:361   */\n      tag_21\n        /* \"#utility.yul\":358:360   */\n      0x13\n        /* \"#utility.yul\":353:356   */\n      dup4\n        /* \"#utility.yul\":294:361   */\n      tag_22\n      jump\t// in\n    tag_21:\n        /* \"#utility.yul\":287:361   */\n      swap2\n      pop\n        /* \"#utility.yul\":370:463   */\n      tag_23\n        /* \"#utility.yul\":459:462   */\n      dup3\n        /* \"#utility.yul\":370:463   */\n      tag_24\n      jump\t// in\n    tag_23:\n        /* \"#utility.yul\":488:490   */\n      0x20\n        /* \"#utility.yul\":483:486   */\n      dup3\n        /* \"#utility.yul\":479:491   */\n      add\n        /* \"#utility.yul\":472:491   */\n      swap1\n      pop\n        /* \"#utility.yul\":131:497   */\n      swap2\n      swap1\n      pop\n      jump\t// out\n        /* \"#utility.yul\":503:621   */\n    tag_25:\n        /* \"#utility.yul\":590:614   */\n      tag_27\n        /* \"#utility.yul\":608:613   */\n      dup2\n        /* \"#utility.yul\":590:614   */\n      tag_28\n      jump\t// in\n    tag_27:\n        /* \"#utility.yul\":585:588   */\n      dup3\n        /* \"#utility.yul\":578:615   */\n      mstore\n        /* \"#utility.yul\":503:621   */\n      pop\n      pop\n      jump\t// out\n        /* \"#utility.yul\":627:849   */\n    tag_12:\n        /* \"#utility.yul\":720:724   */\n      0x00\n        /* \"#utility.yul\":758:760   */\n      0x20\n        /* \"#utility.yul\":747:756   */\n      dup3\n        /* \"#utility.yul\":743:761   */\n      add\n        /* \"#utility.yul\":735:761   */\n      swap1\n      pop\n        /* \"#utility.yul\":771:842   */\n      tag_30\n        /* \"#utility.yul\":839:840   */\n      0x00\n        /* \"#utility.yul\":828:837   */\n      dup4\n        /* \"#utility.yul\":824:841   */\n      add\n        /* \"#utility.yul\":815:821   */\n      dup5\n        /* \"#utility.yul\":771:842   */\n      tag_15\n      jump\t// in\n    tag_30:\n        /* \"#utility.yul\":627:849   */\n      swap3\n      swap2\n      pop\n      pop\n      jump\t// out\n        /* \"#utility.yul\":855:1494   */\n    tag_7:\n        /* \"#utility.yul\":1077:1081   */\n      0x00\n        /* \"#utility.yul\":1115:1117   */\n      0x60\n        /* \"#utility.yul\":1104:1113   */\n      dup3\n        /* \"#utility.yul\":1100:1118   */\n      add\n        /* \"#utility.yul\":1092:1118   */\n      swap1\n      pop\n        /* \"#utility.yul\":1128:1199   */\n      tag_32\n        /* \"#utility.yul\":1196:1197   */\n      0x00\n        /* \"#utility.yul\":1185:1194   */\n      dup4\n        /* \"#utility.yul\":1181:1198   */\n      add\n        /* \"#utility.yul\":1172:1178   */\n      dup6\n        /* \"#utility.yul\":1128:1199   */\n      tag_15\n      jump\t// in\n    tag_32:\n        /* \"#utility.yul\":1209:1281   */\n      tag_33\n        /* \"#utility.yul\":1277:1279   */\n      0x20\n        /* \"#utility.yul\":1266:1275   */\n      dup4\n        /* \"#utility.yul\":1262:1280   */\n      add\n        /* \"#utility.yul\":1253:1259   */\n      dup5\n        /* \"#utility.yul\":1209:1281   */\n      tag_25\n      jump\t// in\n    tag_33:\n        /* \"#utility.yul\":1328:1337   */\n      dup2\n        /* \"#utility.yul\":1322:1326   */\n      dup2\n        /* \"#utility.yul\":1318:1338   */\n      sub\n        /* \"#utility.yul\":1313:1315   */\n      0x40\n        /* \"#utility.yul\":1302:1311   */\n      dup4\n        /* \"#utility.yul\":1298:1316   */\n      add\n        /* \"#utility.yul\":1291:1339   */\n      mstore\n        /* \"#utility.yul\":1356:1487   */\n      tag_34\n        /* \"#utility.yul\":1482:1486   */\n      dup2\n        /* \"#utility.yul\":1356:1487   */\n      tag_19\n      jump\t// in\n    tag_34:\n        /* \"#utility.yul\":1348:1487   */\n      swap1\n      pop\n        /* \"#utility.yul\":855:1494   */\n      swap4\n      swap3\n      pop\n      pop\n      pop\n      jump\t// out\n        /* \"#utility.yul\":1500:1669   */\n    tag_22:\n        /* \"#utility.yul\":1584:1595   */\n      0x00\n        /* \"#utility.yul\":1618:1624   */\n      dup3\n        /* \"#utility.yul\":1613:1616   */\n      dup3\n        /* \"#utility.yul\":1606:1625   */\n      mstore\n        /* \"#utility.yul\":1658:1662   */\n      0x20\n        /* \"#utility.yul\":1653:1656   */\n      dup3\n        /* \"#utility.yul\":1649:1663   */\n      add\n        /* \"#utility.yul\":1634:1663   */\n      swap1\n      pop\n        /* \"#utility.yul\":1500:1669   */\n      swap3\n      swap2\n      pop\n      pop\n      jump\t// out\n        /* \"#utility.yul\":1675:1771   */\n    tag_18:\n        /* \"#utility.yul\":1712:1719   */\n      0x00\n        /* \"#utility.yul\":1741:1765   */\n      tag_37\n        /* \"#utility.yul\":1759:1764   */\n      dup3\n        /* \"#utility.yul\":1741:1765   */\n      tag_38\n      jump\t// in\n    tag_37:\n        /* \"#utility.yul\":1730:1765   */\n      swap1\n      pop\n        /* \"#utility.yul\":1675:1771   */\n      swap2\n      swap1\n      pop\n      jump\t// out\n        /* \"#utility.yul\":1777:1903   */\n    tag_38:\n        /* \"#utility.yul\":1814:1821   */\n      0x00\n        /* \"#utility.yul\":1854:1896   */\n      0xffffffffffffffffffffffffffffffffffffffff\n        /* \"#utility.yul\":1847:1852   */\n      dup3\n        /* \"#utility.yul\":1843:1897   */\n      and\n        /* \"#utility.yul\":1832:1897   */\n      swap1\n      pop\n        /* \"#utility.yul\":1777:1903   */\n      swap2\n      swap1\n      pop\n      jump\t// out\n        /* \"#utility.yul\":1909:1986   */\n    tag_28:\n        /* \"#utility.yul\":1946:1953   */\n      0x00\n        /* \"#utility.yul\":1975:1980   */\n      dup2\n        /* \"#utility.yul\":1964:1980   */\n      swap1\n      pop\n        /* \"#utility.yul\":1909:1986   */\n      swap2\n      swap1\n      pop\n      jump\t// out\n        /* \"#utility.yul\":1992:2161   */\n    tag_24:\n        /* \"#utility.yul\":2132:2153   */\n      0x5265636569766564207761732063616c6c656400000000000000000000000000\n        /* \"#utility.yul\":2128:2129   */\n      0x00\n        /* \"#utility.yul\":2120:2126   */\n      dup3\n        /* \"#utility.yul\":2116:2130   */\n      add\n        /* \"#utility.yul\":2109:2154   */\n      mstore\n        /* \"#utility.yul\":1992:2161   */\n      pop\n      jump\t// out\n\n    auxdata: 0xa26469706673582212200af0a159ffdbae0ff75e0749a58ff7c48912eb639ec792f0fd28b6597241765d64736f6c63430008070033\n}\n",
				"bytecode": {
					"linkReferences": {},
					"object": "608060405234801561001057600080fd5b506101de806100206000396000f3fe6080604052600436106100225760003560e01c806338cc48311461006757610062565b36610062577f59e04c3f0d44b7caf6e8ef854b61d9a51cf1960d7a88ff6356cc5e946b4b583233346040516100589291906100f6565b60405180910390a1005b600080fd5b34801561007357600080fd5b5061007c610092565b60405161008991906100db565b60405180910390f35b600030905090565b6100a381610143565b82525050565b60006100b6601383610132565b91506100c18261017f565b602082019050919050565b6100d581610175565b82525050565b60006020820190506100f0600083018461009a565b92915050565b600060608201905061010b600083018561009a565b61011860208301846100cc565b8181036040830152610129816100a9565b90509392505050565b600082825260208201905092915050565b600061014e82610155565b9050919050565b600073ffffffffffffffffffffffffffffffffffffffff82169050919050565b6000819050919050565b7f5265636569766564207761732063616c6c65640000000000000000000000000060008201525056fea26469706673582212200af0a159ffdbae0ff75e0749a58ff7c48912eb639ec792f0fd28b6597241765d64736f6c63430008070033",
					"opcodes": "PUSH1 0x80 PUSH1 0x40 MSTORE CALLVALUE DUP1 ISZERO PUSH2 0x10 JUMPI PUSH1 0x0 DUP1 REVERT JUMPDEST POP PUSH2 0x1DE DUP1 PUSH2 0x20 PUSH1 0x0 CODECOPY PUSH1 0x0 RETURN INVALID PUSH1 0x80 PUSH1 0x40 MSTORE PUSH1 0x4 CALLDATASIZE LT PUSH2 0x22 JUMPI PUSH1 0x0 CALLDATALOAD PUSH1 0xE0 SHR DUP1 PUSH4 0x38CC4831 EQ PUSH2 0x67 JUMPI PUSH2 0x62 JUMP JUMPDEST CALLDATASIZE PUSH2 0x62 JUMPI PUSH32 0x59E04C3F0D44B7CAF6E8EF854B61D9A51CF1960D7A88FF6356CC5E946B4B5832 CALLER CALLVALUE PUSH1 0x40 MLOAD PUSH2 0x58 SWAP3 SWAP2 SWAP1 PUSH2 0xF6 JUMP JUMPDEST PUSH1 0x40 MLOAD DUP1 SWAP2 SUB SWAP1 LOG1 STOP JUMPDEST PUSH1 0x0 DUP1 REVERT JUMPDEST CALLVALUE DUP1 ISZERO PUSH2 0x73 JUMPI PUSH1 0x0 DUP1 REVERT JUMPDEST POP PUSH2 0x7C PUSH2 0x92 JUMP JUMPDEST PUSH1 0x40 MLOAD PUSH2 0x89 SWAP2 SWAP1 PUSH2 0xDB JUMP JUMPDEST PUSH1 0x40 MLOAD DUP1 SWAP2 SUB SWAP1 RETURN JUMPDEST PUSH1 0x0 ADDRESS SWAP1 POP SWAP1 JUMP JUMPDEST PUSH2 0xA3 DUP2 PUSH2 0x143 JUMP JUMPDEST DUP3 MSTORE POP POP JUMP JUMPDEST PUSH1 0x0 PUSH2 0xB6 PUSH1 0x13 DUP4 PUSH2 0x132 JUMP JUMPDEST SWAP2 POP PUSH2 0xC1 DUP3 PUSH2 0x17F JUMP JUMPDEST PUSH1 0x20 DUP3 ADD SWAP1 POP SWAP2 SWAP1 POP JUMP JUMPDEST PUSH2 0xD5 DUP2 PUSH2 0x175 JUMP JUMPDEST DUP3 MSTORE POP POP JUMP JUMPDEST PUSH1 0x0 PUSH1 0x20 DUP3 ADD SWAP1 POP PUSH2 0xF0 PUSH1 0x0 DUP4 ADD DUP5 PUSH2 0x9A JUMP JUMPDEST SWAP3 SWAP2 POP POP JUMP JUMPDEST PUSH1 0x0 PUSH1 0x60 DUP3 ADD SWAP1 POP PUSH2 0x10B PUSH1 0x0 DUP4 ADD DUP6 PUSH2 0x9A JUMP JUMPDEST PUSH2 0x118 PUSH1 0x20 DUP4 ADD DUP5 PUSH2 0xCC JUMP JUMPDEST DUP2 DUP2 SUB PUSH1 0x40 DUP4 ADD MSTORE PUSH2 0x129 DUP2 PUSH2 0xA9 JUMP JUMPDEST SWAP1 POP SWAP4 SWAP3 POP POP POP JUMP JUMPDEST PUSH1 0x0 DUP3 DUP3 MSTORE PUSH1 0x20 DUP3 ADD SWAP1 POP SWAP3 SWAP2 POP POP JUMP JUMPDEST PUSH1 0x0 PUSH2 0x14E DUP3 PUSH2 0x155 JUMP JUMPDEST SWAP1 POP SWAP2 SWAP1 POP JUMP JUMPDEST PUSH1 0x0 PUSH20 0xFFFFFFFFFFFFFFFFFFFFFFFFFFFFFFFFFFFFFFFF DUP3 AND SWAP1 POP SWAP2 SWAP1 POP JUMP JUMPDEST PUSH1 0x0 DUP2 SWAP1 POP SWAP2 SWAP1 POP JUMP JUMPDEST PUSH32 0x5265636569766564207761732063616C6C656400000000000000000000000000 PUSH1 0x0 DUP3 ADD MSTORE POP JUMP INVALID LOG2 PUSH5 0x6970667358 0x22 SLT KECCAK256 EXP CREATE LOG1 MSIZE SELFDESTRUCT 0xDB 0xAE 0xF 0xF7 0x5E SMOD 0x49 0xA5 DUP16 0xF7 0xC4 DUP10 SLT 0xEB PUSH4 0x9EC792F0 REVERT 0x28 0xB6 MSIZE PUSH19 0x41765D64736F6C634300080700330000000000 "
				},
				"gasEstimates": {
					"creation": {
						"codeDepositCost": "95600",
						"executionCost": "141",
						"totalCost": "95741"
					},
					"external": {
						"getAddress()": "363"
					}
				},
				"methodIdentifiers": {
					"getAddress()": "38cc4831"
				}
			},
			"storageLayout": {
				"storage": [],
				"types": null
			},
			"userdoc": {
				"kind": "user",
				"methods": {},
				"version": 1
			}
		}
	}
}