{
	"contracts/9_AddresssStudy.sol": {
		"AddressStudy": {
			"abi": [
				{
					"inputs": [],
					"stateMutability": "nonpayable",
					"type": "constructor"
				},
				{
					"inputs": [],
					"name": "getBalance",
					"outputs": [
						{
							"internalType": "uint256",
							"name": "",
							"type": "uint256"
						},
						{
							"internalType": "uint256",
							"name": "",
							"type": "uint256"
						},
						{
							"internalType": "uint256",
							"name": "",
							"type": "uint256"
						}
					],
					"stateMutability": "view",
					"type": "function"
				},
				{
					"inputs": [],
					"name": "getContractAddress",
					"outputs": [
						{
							"internalType": "address",
							"name": "",
							"type": "address"
						}
					],
					"stateMutability": "view",
					"type": "function"
				},
				{
					"inputs": [],
					"name": "getOwnerAddress",
					"outputs": [
						{
							"internalType": "address",
							"name": "",
							"type": "address"
						}
					],
					"stateMutability": "view",
					"type": "function"
				},
				{
					"inputs": [],
					"name": "getSenderAddress",
					"outputs": [
						{
							"internalType": "address",
							"name": "",
							"type": "address"
						}
					],
					"stateMutability": "view",
					"type": "function"
				}
			],
			"devdoc": {
				"kind": "dev",
				"methods": {},
				"version": 1
			},
			"evm": {
				"assembly": "    /* \"contracts/9_AddresssStudy.sol\":70:809  contract AddressStudy{... */\n  mstore(0x40, 0x80)\n    /* \"contracts/9_AddresssStudy.sol\":121:171  constructor(){... */\n  callvalue\n  dup1\n  iszero\n  tag_1\n  jumpi\n  0x00\n  dup1\n  revert\ntag_1:\n  pop\n    /* \"contracts/9_AddresssStudy.sol\":154:164  msg.sender */\n  caller\n    /* \"contracts/9_AddresssStudy.sol\":144:153  ownerAddr */\n  0x00\n  dup1\n    /* \"contracts/9_AddresssStudy.sol\":144:164  ownerAddr=msg.sender */\n  0x0100\n  exp\n  dup2\n  sload\n  dup2\n  0xffffffffffffffffffffffffffffffffffffffff\n  mul\n  not\n  and\n  swap1\n  dup4\n  0xffffffffffffffffffffffffffffffffffffffff\n  and\n  mul\n  or\n  swap1\n  sstore\n  pop\n    /* \"contracts/9_AddresssStudy.sol\":70:809  contract AddressStudy{... */\n  dataSize(sub_0)\n  dup1\n  dataOffset(sub_0)\n  0x00\n  codecopy\n  0x00\n  return\nstop\n\nsub_0: assembly {\n        /* \"contracts/9_AddresssStudy.sol\":70:809  contract AddressStudy{... */\n      mstore(0x40, 0x80)\n      callvalue\n      dup1\n      iszero\n      tag_1\n      jumpi\n      0x00\n      dup1\n      revert\n    tag_1:\n      pop\n      jumpi(tag_2, lt(calldatasize, 0x04))\n      shr(0xe0, calldataload(0x00))\n      dup1\n      0x0c4f65bd\n      eq\n      tag_3\n      jumpi\n      dup1\n      0x12065fe0\n      eq\n      tag_4\n      jumpi\n      dup1\n      0x32a2c5d0\n      eq\n      tag_5\n      jumpi\n      dup1\n      0x42948e18\n      eq\n      tag_6\n      jumpi\n    tag_2:\n      0x00\n      dup1\n      revert\n        /* \"contracts/9_AddresssStudy.sol\":440:530  function getOwnerAddress() external view returns(address){... */\n    tag_3:\n      tag_7\n      tag_8\n      jump\t// in\n    tag_7:\n      mload(0x40)\n      tag_9\n      swap2\n      swap1\n      tag_10\n      jump\t// in\n    tag_9:\n      mload(0x40)\n      dup1\n      swap2\n      sub\n      swap1\n      return\n        /* \"contracts/9_AddresssStudy.sol\":536:807  function getBalance() external view returns(uint,uint,uint){... */\n    tag_4:\n      tag_11\n      tag_12\n      jump\t// in\n    tag_11:\n      mload(0x40)\n      tag_13\n      swap4\n      swap3\n      swap2\n      swap1\n      tag_14\n      jump\t// in\n    tag_13:\n      mload(0x40)\n      dup1\n      swap2\n      sub\n      swap1\n      return\n        /* \"contracts/9_AddresssStudy.sol\":202:299  function getContractAddress() external view returns(address){... */\n    tag_5:\n      tag_15\n      tag_16\n      jump\t// in\n    tag_15:\n      mload(0x40)\n      tag_17\n      swap2\n      swap1\n      tag_10\n      jump\t// in\n    tag_17:\n      mload(0x40)\n      dup1\n      swap2\n      sub\n      swap1\n      return\n        /* \"contracts/9_AddresssStudy.sol\":342:434  function getSenderAddress() external view returns(address){... */\n    tag_6:\n      tag_18\n      tag_19\n      jump\t// in\n    tag_18:\n      mload(0x40)\n      tag_20\n      swap2\n      swap1\n      tag_10\n      jump\t// in\n    tag_20:\n      mload(0x40)\n      dup1\n      swap2\n      sub\n      swap1\n      return\n        /* \"contracts/9_AddresssStudy.sol\":440:530  function getOwnerAddress() external view returns(address){... */\n    tag_8:\n        /* \"contracts/9_AddresssStudy.sol\":489:496  address */\n      0x00\n        /* \"contracts/9_AddresssStudy.sol\":514:523  ownerAddr */\n      dup1\n      0x00\n      swap1\n      sload\n      swap1\n      0x0100\n      exp\n      swap1\n      div\n      0xffffffffffffffffffffffffffffffffffffffff\n      and\n        /* \"contracts/9_AddresssStudy.sol\":507:523  return ownerAddr */\n      swap1\n      pop\n        /* \"contracts/9_AddresssStudy.sol\":440:530  function getOwnerAddress() external view returns(address){... */\n      swap1\n      jump\t// out\n        /* \"contracts/9_AddresssStudy.sol\":536:807  function getBalance() external view returns(uint,uint,uint){... */\n    tag_12:\n        /* \"contracts/9_AddresssStudy.sol\":580:584  uint */\n      0x00\n        /* \"contracts/9_AddresssStudy.sol\":585:589  uint */\n      dup1\n        /* \"contracts/9_AddresssStudy.sol\":590:594  uint */\n      0x00\n        /* \"contracts/9_AddresssStudy.sol\":605:625  uint contractBalance */\n      dup1\n        /* \"contracts/9_AddresssStudy.sol\":626:647  address(this).balance */\n      selfbalance\n        /* \"contracts/9_AddresssStudy.sol\":605:647  uint contractBalance=address(this).balance */\n      swap1\n      pop\n        /* \"contracts/9_AddresssStudy.sol\":657:675  uint senderBalance */\n      0x00\n        /* \"contracts/9_AddresssStudy.sol\":676:686  msg.sender */\n      caller\n        /* \"contracts/9_AddresssStudy.sol\":676:694  msg.sender.balance */\n      0xffffffffffffffffffffffffffffffffffffffff\n      and\n      balance\n        /* \"contracts/9_AddresssStudy.sol\":657:694  uint senderBalance=msg.sender.balance */\n      swap1\n      pop\n        /* \"contracts/9_AddresssStudy.sol\":704:721  uint ownerBalance */\n      0x00\n        /* \"contracts/9_AddresssStudy.sol\":722:731  ownerAddr */\n      dup1\n      0x00\n      swap1\n      sload\n      swap1\n      0x0100\n      exp\n      swap1\n      div\n      0xffffffffffffffffffffffffffffffffffffffff\n      and\n        /* \"contracts/9_AddresssStudy.sol\":722:739  ownerAddr.balance */\n      0xffffffffffffffffffffffffffffffffffffffff\n      and\n      balance\n        /* \"contracts/9_AddresssStudy.sol\":704:739  uint ownerBalance=ownerAddr.balance */\n      swap1\n      pop\n        /* \"contracts/9_AddresssStudy.sol\":757:772  contractBalance */\n      dup3\n        /* \"contracts/9_AddresssStudy.sol\":773:786  senderBalance */\n      dup3\n        /* \"contracts/9_AddresssStudy.sol\":787:799  ownerBalance */\n      dup3\n        /* \"contracts/9_AddresssStudy.sol\":749:800  return (contractBalance,senderBalance,ownerBalance) */\n      swap6\n      pop\n      swap6\n      pop\n      swap6\n      pop\n      pop\n      pop\n      pop\n        /* \"contracts/9_AddresssStudy.sol\":536:807  function getBalance() external view returns(uint,uint,uint){... */\n      swap1\n      swap2\n      swap3\n      jump\t// out\n        /* \"contracts/9_AddresssStudy.sol\":202:299  function getContractAddress() external view returns(address){... */\n    tag_16:\n        /* \"contracts/9_AddresssStudy.sol\":254:261  address */\n      0x00\n        /* \"contracts/9_AddresssStudy.sol\":287:291  this */\n      address\n        /* \"contracts/9_AddresssStudy.sol\":272:292  return address(this) */\n      swap1\n      pop\n        /* \"contracts/9_AddresssStudy.sol\":202:299  function getContractAddress() external view returns(address){... */\n      swap1\n      jump\t// out\n        /* \"contracts/9_AddresssStudy.sol\":342:434  function getSenderAddress() external view returns(address){... */\n    tag_19:\n        /* \"contracts/9_AddresssStudy.sol\":392:399  address */\n      0x00\n        /* \"contracts/9_AddresssStudy.sol\":417:427  msg.sender */\n      caller\n        /* \"contracts/9_AddresssStudy.sol\":410:427  return msg.sender */\n      swap1\n      pop\n        /* \"contracts/9_AddresssStudy.sol\":342:434  function getSenderAddress() external view returns(address){... */\n      swap1\n      jump\t// out\n        /* \"#utility.yul\":7:125   */\n    tag_26:\n        /* \"#utility.yul\":94:118   */\n      tag_28\n        /* \"#utility.yul\":112:117   */\n      dup2\n        /* \"#utility.yul\":94:118   */\n      tag_29\n      jump\t// in\n    tag_28:\n        /* \"#utility.yul\":89:92   */\n      dup3\n        /* \"#utility.yul\":82:119   */\n      mstore\n        /* \"#utility.yul\":7:125   */\n      pop\n      pop\n      jump\t// out\n        /* \"#utility.yul\":131:249   */\n    tag_30:\n        /* \"#utility.yul\":218:242   */\n      tag_32\n        /* \"#utility.yul\":236:241   */\n      dup2\n        /* \"#utility.yul\":218:242   */\n      tag_33\n      jump\t// in\n    tag_32:\n        /* \"#utility.yul\":213:216   */\n      dup3\n        /* \"#utility.yul\":206:243   */\n      mstore\n        /* \"#utility.yul\":131:249   */\n      pop\n      pop\n      jump\t// out\n        /* \"#utility.yul\":255:477   */\n    tag_10:\n        /* \"#utility.yul\":348:352   */\n      0x00\n        /* \"#utility.yul\":386:388   */\n      0x20\n        /* \"#utility.yul\":375:384   */\n      dup3\n        /* \"#utility.yul\":371:389   */\n      add\n        /* \"#utility.yul\":363:389   */\n      swap1\n      pop\n        /* \"#utility.yul\":399:470   */\n      tag_35\n        /* \"#utility.yul\":467:468   */\n      0x00\n        /* \"#utility.yul\":456:465   */\n      dup4\n        /* \"#utility.yul\":452:469   */\n      add\n        /* \"#utility.yul\":443:449   */\n      dup5\n        /* \"#utility.yul\":399:470   */\n      tag_26\n      jump\t// in\n    tag_35:\n        /* \"#utility.yul\":255:477   */\n      swap3\n      swap2\n      pop\n      pop\n      jump\t// out\n        /* \"#utility.yul\":483:925   */\n    tag_14:\n        /* \"#utility.yul\":632:636   */\n      0x00\n        /* \"#utility.yul\":670:672   */\n      0x60\n        /* \"#utility.yul\":659:668   */\n      dup3\n        /* \"#utility.yul\":655:673   */\n      add\n        /* \"#utility.yul\":647:673   */\n      swap1\n      pop\n        /* \"#utility.yul\":683:754   */\n      tag_37\n        /* \"#utility.yul\":751:752   */\n      0x00\n        /* \"#utility.yul\":740:749   */\n      dup4\n        /* \"#utility.yul\":736:753   */\n      add\n        /* \"#utility.yul\":727:733   */\n      dup7\n        /* \"#utility.yul\":683:754   */\n      tag_30\n      jump\t// in\n    tag_37:\n        /* \"#utility.yul\":764:836   */\n      tag_38\n        /* \"#utility.yul\":832:834   */\n      0x20\n        /* \"#utility.yul\":821:830   */\n      dup4\n        /* \"#utility.yul\":817:835   */\n      add\n        /* \"#utility.yul\":808:814   */\n      dup6\n        /* \"#utility.yul\":764:836   */\n      tag_30\n      jump\t// in\n    tag_38:\n        /* \"#utility.yul\":846:918   */\n      tag_39\n        /* \"#utility.yul\":914:916   */\n      0x40\n        /* \"#utility.yul\":903:912   */\n      dup4\n        /* \"#utility.yul\":899:917   */\n      add\n        /* \"#utility.yul\":890:896   */\n      dup5\n        /* \"#utility.yul\":846:918   */\n      tag_30\n      jump\t// in\n    tag_39:\n        /* \"#utility.yul\":483:925   */\n      swap5\n      swap4\n      pop\n      pop\n      pop\n      pop\n      jump\t// out\n        /* \"#utility.yul\":931:1027   */\n    tag_29:\n        /* \"#utility.yul\":968:975   */\n      0x00\n        /* \"#utility.yul\":997:1021   */\n      tag_41\n        /* \"#utility.yul\":1015:1020   */\n      dup3\n        /* \"#utility.yul\":997:1021   */\n      tag_42\n      jump\t// in\n    tag_41:\n        /* \"#utility.yul\":986:1021   */\n      swap1\n      pop\n        /* \"#utility.yul\":931:1027   */\n      swap2\n      swap1\n      pop\n      jump\t// out\n        /* \"#utility.yul\":1033:1159   */\n    tag_42:\n        /* \"#utility.yul\":1070:1077   */\n      0x00\n        /* \"#utility.yul\":1110:1152   */\n      0xffffffffffffffffffffffffffffffffffffffff\n        /* \"#utility.yul\":1103:1108   */\n      dup3\n        /* \"#utility.yul\":1099:1153   */\n      and\n        /* \"#utility.yul\":1088:1153   */\n      swap1\n      pop\n        /* \"#utility.yul\":1033:1159   */\n      swap2\n      swap1\n      pop\n      jump\t// out\n        /* \"#utility.yul\":1165:1242   */\n    tag_33:\n        /* \"#utility.yul\":1202:1209   */\n      0x00\n        /* \"#utility.yul\":1231:1236   */\n      dup2\n        /* \"#utility.yul\":1220:1236   */\n      swap1\n      pop\n        /* \"#utility.yul\":1165:1242   */\n      swap2\n      swap1\n      pop\n      jump\t// out\n\n    auxdata: 0xa264697066735822122028d89d361878e793dc01d2ab4e5b6497a3211629ba02d3ec92d1d99612a30d4064736f6c63430008070033\n}\n",
				"bytecode": {
					"linkReferences": {},
					"object": "608060405234801561001057600080fd5b50336000806101000a81548173ffffffffffffffffffffffffffffffffffffffff021916908373ffffffffffffffffffffffffffffffffffffffff160217905550610259806100606000396000f3fe608060405234801561001057600080fd5b506004361061004c5760003560e01c80630c4f65bd1461005157806312065fe01461006f57806332a2c5d01461008f57806342948e18146100ad575b600080fd5b6100596100cb565b6040516100669190610195565b60405180910390f35b6100776100f4565b604051610086939291906101b0565b60405180910390f35b610097610167565b6040516100a49190610195565b60405180910390f35b6100b561016f565b6040516100c29190610195565b60405180910390f35b60008060009054906101000a900473ffffffffffffffffffffffffffffffffffffffff16905090565b60008060008047905060003373ffffffffffffffffffffffffffffffffffffffff1631905060008060009054906101000a900473ffffffffffffffffffffffffffffffffffffffff1673ffffffffffffffffffffffffffffffffffffffff16319050828282955095509550505050909192565b600030905090565b600033905090565b610180816101e7565b82525050565b61018f81610219565b82525050565b60006020820190506101aa6000830184610177565b92915050565b60006060820190506101c56000830186610186565b6101d26020830185610186565b6101df6040830184610186565b949350505050565b60006101f2826101f9565b9050919050565b600073ffffffffffffffffffffffffffffffffffffffff82169050919050565b600081905091905056fea264697066735822122028d89d361878e793dc01d2ab4e5b6497a3211629ba02d3ec92d1d99612a30d4064736f6c63430008070033",
					"opcodes": "PUSH1 0x80 PUSH1 0x40 MSTORE CALLVALUE DUP1 ISZERO PUSH2 0x10 JUMPI PUSH1 0x0 DUP1 REVERT JUMPDEST POP CALLER PUSH1 0x0 DUP1 PUSH2 0x100 EXP DUP2 SLOAD DUP2 PUSH20 0xFFFFFFFFFFFFFFFFFFFFFFFFFFFFFFFFFFFFFFFF MUL NOT AND SWAP1 DUP4 PUSH20 0xFFFFFFFFFFFFFFFFFFFFFFFFFFFFFFFFFFFFFFFF AND MUL OR SWAP1 SSTORE POP PUSH2 0x259 DUP1 PUSH2 0x60 PUSH1 0x0 CODECOPY PUSH1 0x0 RETURN INVALID PUSH1 0x80 PUSH1 0x40 MSTORE CALLVALUE DUP1 ISZERO PUSH2 0x10 JUMPI PUSH1 0x0 DUP1 REVERT JUMPDEST POP PUSH1 0x4 CALLDATASIZE LT PUSH2 0x4C JUMPI PUSH1 0x0 CALLDATALOAD PUSH1 0xE0 SHR DUP1 PUSH4 0xC4F65BD EQ PUSH2 0x51 JUMPI DUP1 PUSH4 0x12065FE0 EQ PUSH2 0x6F JUMPI DUP1 PUSH4 0x32A2C5D0 EQ PUSH2 0x8F JUMPI DUP1 PUSH4 0x42948E18 EQ PUSH2 0xAD JUMPI JUMPDEST PUSH1 0x0 DUP1 REVERT JUMPDEST PUSH2 0x59 PUSH2 0xCB JUMP JUMPDEST PUSH1 0x40 MLOAD PUSH2 0x66 SWAP2 SWAP1 PUSH2 0x195 JUMP JUMPDEST PUSH1 0x40 MLOAD DUP1 SWAP2 SUB SWAP1 RETURN JUMPDEST PUSH2 0x77 PUSH2 0xF4 JUMP JUMPDEST PUSH1 0x40 MLOAD PUSH2 0x86 SWAP4 SWAP3 SWAP2 SWAP1 PUSH2 0x1B0 JUMP JUMPDEST PUSH1 0x40 MLOAD DUP1 SWAP2 SUB SWAP1 RETURN JUMPDEST PUSH2 0x97 PUSH2 0x167 JUMP JUMPDEST PUSH1 0x40 MLOAD PUSH2 0xA4 SWAP2 SWAP1 PUSH2 0x195 JUMP JUMPDEST PUSH1 0x40 MLOAD DUP1 SWAP2 SUB SWAP1 RETURN JUMPDEST PUSH2 0xB5 PUSH2 0x16F JUMP JUMPDEST PUSH1 0x40 MLOAD PUSH2 0xC2 SWAP2 SWAP1 PUSH2 0x195 JUMP JUMPDEST PUSH1 0x40 MLOAD DUP1 SWAP2 SUB SWAP1 RETURN JUMPDEST PUSH1 0x0 DUP1 PUSH1 0x0 SWAP1 SLOAD SWAP1 PUSH2 0x100 EXP SWAP1 DIV PUSH20 0xFFFFFFFFFFFFFFFFFFFFFFFFFFFFFFFFFFFFFFFF AND SWAP1 POP SWAP1 JUMP JUMPDEST PUSH1 0x0 DUP1 PUSH1 0x0 DUP1 SELFBALANCE SWAP1 POP PUSH1 0x0 CALLER PUSH20 0xFFFFFFFFFFFFFFFFFFFFFFFFFFFFFFFFFFFFFFFF AND BALANCE SWAP1 POP PUSH1 0x0 DUP1 PUSH1 0x0 SWAP1 SLOAD SWAP1 PUSH2 0x100 EXP SWAP1 DIV PUSH20 0xFFFFFFFFFFFFFFFFFFFFFFFFFFFFFFFFFFFFFFFF AND PUSH20 0xFFFFFFFFFFFFFFFFFFFFFFFFFFFFFFFFFFFFFFFF AND BALANCE SWAP1 POP DUP3 DUP3 DUP3 SWAP6 POP SWAP6 POP SWAP6 POP POP POP POP SWAP1 SWAP2 SWAP3 JUMP JUMPDEST PUSH1 0x0 ADDRESS SWAP1 POP SWAP1 JUMP JUMPDEST PUSH1 0x0 CALLER SWAP1 POP SWAP1 JUMP JUMPDEST PUSH2 0x180 DUP2 PUSH2 0x1E7 JUMP JUMPDEST DUP3 MSTORE POP POP JUMP JUMPDEST PUSH2 0x18F DUP2 PUSH2 0x219 JUMP JUMPDEST DUP3 MSTORE POP POP JUMP JUMPDEST PUSH1 0x0 PUSH1 0x20 DUP3 ADD SWAP1 POP PUSH2 0x1AA PUSH1 0x0 DUP4 ADD DUP5 PUSH2 0x177 JUMP JUMPDEST SWAP3 SWAP2 POP POP JUMP JUMPDEST PUSH1 0x0 PUSH1 0x60 DUP3 ADD SWAP1 POP PUSH2 0x1C5 PUSH1 0x0 DUP4 ADD DUP7 PUSH2 0x186 JUMP JUMPDEST PUSH2 0x1D2 PUSH1 0x20 DUP4 ADD DUP6 PUSH2 0x186 JUMP JUMPDEST PUSH2 0x1DF PUSH1 0x40 DUP4 ADD DUP5 PUSH2 0x186 JUMP JUMPDEST SWAP5 SWAP4 POP POP POP POP JUMP JUMPDEST PUSH1 0x0 PUSH2 0x1F2 DUP3 PUSH2 0x1F9 JUMP JUMPDEST SWAP1 POP SWAP2 SWAP1 POP JUMP JUMPDEST PUSH1 0x0 PUSH20 0xFFFFFFFFFFFFFFFFFFFFFFFFFFFFFFFFFFFFFFFF DUP3 AND SWAP1 POP SWAP2 SWAP1 POP JUMP JUMPDEST PUSH1 0x0 DUP2 SWAP1 POP SWAP2 SWAP1 POP JUMP INVALID LOG2 PUSH5 0x6970667358 0x22 SLT KECCAK256 0x28 0xD8 SWAP14 CALLDATASIZE XOR PUSH25 0xE793DC01D2AB4E5B6497A3211629BA02D3EC92D1D99612A30D BLOCKHASH PUSH5 0x736F6C6343 STOP ADDMOD SMOD STOP CALLER "
				},
				"gasEstimates": {
					"creation": {
						"codeDepositCost": "120200",
						"executionCost": "24431",
						"totalCost": "144631"
					},
					"external": {
						"getBalance()": "infinite",
						"getContractAddress()": "407",
						"getOwnerAddress()": "2500",
						"getSenderAddress()": "429"
					}
				},
				"methodIdentifiers": {
					"getBalance()": "12065fe0",
					"getContractAddress()": "32a2c5d0",
					"getOwnerAddress()": "0c4f65bd",
					"getSenderAddress()": "42948e18"
				}
			},
			"storageLayout": {
				"storage": [
					{
						"astId": 3,
						"contract": "contracts/9_AddresssStudy.sol:AddressStudy",
						"label": "ownerAddr",
						"offset": 0,
						"slot": "0",
						"type": "t_address"
					}
				],
				"types": {
					"t_address": {
						"encoding": "inplace",
						"label": "address",
						"numberOfBytes": "20"
					}
				}
			},
			"userdoc": {
				"kind": "user",
				"methods": {},
				"version": 1
			}
		}
	}
}