{
	"contracts/10_ZhuanzhangStudy.sol": {
		"ZhuanzhangStudy": {
			"abi": [
				{
					"inputs": [
						{
							"internalType": "address payable",
							"name": "_to",
							"type": "address"
						}
					],
					"name": "send",
					"outputs": [],
					"stateMutability": "payable",
					"type": "function"
				},
				{
					"inputs": [
						{
							"internalType": "address payable",
							"name": "_to",
							"type": "address"
						}
					],
					"name": "transfer",
					"outputs": [],
					"stateMutability": "payable",
					"type": "function"
				}
			],
			"devdoc": {
				"kind": "dev",
				"methods": {},
				"version": 1
			},
			"evm": {
				"assembly": "    /* \"contracts/10_ZhuanzhangStudy.sol\":70:484  contract ZhuanzhangStudy{... */\n  mstore(0x40, 0x80)\n  callvalue\n  dup1\n  iszero\n  tag_1\n  jumpi\n  0x00\n  dup1\n  revert\ntag_1:\n  pop\n  dataSize(sub_0)\n  dup1\n  dataOffset(sub_0)\n  0x00\n  codecopy\n  0x00\n  return\nstop\n\nsub_0: assembly {\n        /* \"contracts/10_ZhuanzhangStudy.sol\":70:484  contract ZhuanzhangStudy{... */\n      mstore(0x40, 0x80)\n      jumpi(tag_1, lt(calldatasize, 0x04))\n      shr(0xe0, calldataload(0x00))\n      dup1\n      0x1a695230\n      eq\n      tag_2\n      jumpi\n      dup1\n      0x3e58c58c\n      eq\n      tag_3\n      jumpi\n    tag_1:\n      0x00\n      dup1\n      revert\n        /* \"contracts/10_ZhuanzhangStudy.sol\":316:482  function transfer(address payable _to) public payable{... */\n    tag_2:\n      tag_4\n      0x04\n      dup1\n      calldatasize\n      sub\n      dup2\n      add\n      swap1\n      tag_5\n      swap2\n      swap1\n      tag_6\n      jump\t// in\n    tag_5:\n      tag_7\n      jump\t// in\n    tag_4:\n      stop\n        /* \"contracts/10_ZhuanzhangStudy.sol\":100:310  function send(address payable _to) public payable{... */\n    tag_3:\n      tag_8\n      0x04\n      dup1\n      calldatasize\n      sub\n      dup2\n      add\n      swap1\n      tag_9\n      swap2\n      swap1\n      tag_6\n      jump\t// in\n    tag_9:\n      tag_10\n      jump\t// in\n    tag_8:\n      stop\n        /* \"contracts/10_ZhuanzhangStudy.sol\":316:482  function transfer(address payable _to) public payable{... */\n    tag_7:\n        /* \"contracts/10_ZhuanzhangStudy.sol\":379:382  _to */\n      dup1\n        /* \"contracts/10_ZhuanzhangStudy.sol\":379:391  _to.transfer */\n      0xffffffffffffffffffffffffffffffffffffffff\n      and\n        /* \"contracts/10_ZhuanzhangStudy.sol\":379:402  _to.transfer(msg.value) */\n      0x08fc\n        /* \"contracts/10_ZhuanzhangStudy.sol\":392:401  msg.value */\n      callvalue\n        /* \"contracts/10_ZhuanzhangStudy.sol\":379:402  _to.transfer(msg.value) */\n      swap1\n      dup2\n      iszero\n      mul\n      swap1\n      mload(0x40)\n      0x00\n      mload(0x40)\n      dup1\n      dup4\n      sub\n      dup2\n      dup6\n      dup9\n      dup9\n      call\n      swap4\n      pop\n      pop\n      pop\n      pop\n      iszero\n      dup1\n      iszero\n      tag_13\n      jumpi\n      returndatasize\n      0x00\n      dup1\n      returndatacopy\n      revert(0x00, returndatasize)\n    tag_13:\n      pop\n        /* \"contracts/10_ZhuanzhangStudy.sol\":316:482  function transfer(address payable _to) public payable{... */\n      pop\n      jump\t// out\n        /* \"contracts/10_ZhuanzhangStudy.sol\":100:310  function send(address payable _to) public payable{... */\n    tag_10:\n        /* \"contracts/10_ZhuanzhangStudy.sol\":159:170  bool isSend */\n      0x00\n        /* \"contracts/10_ZhuanzhangStudy.sol\":173:176  _to */\n      dup2\n        /* \"contracts/10_ZhuanzhangStudy.sol\":173:181  _to.send */\n      0xffffffffffffffffffffffffffffffffffffffff\n      and\n        /* \"contracts/10_ZhuanzhangStudy.sol\":173:192  _to.send(msg.value) */\n      0x08fc\n        /* \"contracts/10_ZhuanzhangStudy.sol\":182:191  msg.value */\n      callvalue\n        /* \"contracts/10_ZhuanzhangStudy.sol\":173:192  _to.send(msg.value) */\n      swap1\n      dup2\n      iszero\n      mul\n      swap1\n      mload(0x40)\n      0x00\n      mload(0x40)\n      dup1\n      dup4\n      sub\n      dup2\n      dup6\n      dup9\n      dup9\n      call\n      swap4\n      pop\n      pop\n      pop\n      pop\n        /* \"contracts/10_ZhuanzhangStudy.sol\":159:192  bool isSend = _to.send(msg.value) */\n      swap1\n      pop\n        /* \"contracts/10_ZhuanzhangStudy.sol\":283:289  isSend */\n      dup1\n        /* \"contracts/10_ZhuanzhangStudy.sol\":275:303  require(isSend, \"Send fail\") */\n      tag_16\n      jumpi\n      mload(0x40)\n      0x08c379a000000000000000000000000000000000000000000000000000000000\n      dup2\n      mstore\n      0x04\n      add\n      tag_17\n      swap1\n      tag_18\n      jump\t// in\n    tag_17:\n      mload(0x40)\n      dup1\n      swap2\n      sub\n      swap1\n      revert\n    tag_16:\n        /* \"contracts/10_ZhuanzhangStudy.sol\":149:310  {... */\n      pop\n        /* \"contracts/10_ZhuanzhangStudy.sol\":100:310  function send(address payable _to) public payable{... */\n      pop\n      jump\t// out\n        /* \"#utility.yul\":7:162   */\n    tag_20:\n        /* \"#utility.yul\":61:66   */\n      0x00\n        /* \"#utility.yul\":99:105   */\n      dup2\n        /* \"#utility.yul\":86:106   */\n      calldataload\n        /* \"#utility.yul\":77:106   */\n      swap1\n      pop\n        /* \"#utility.yul\":115:156   */\n      tag_22\n        /* \"#utility.yul\":150:155   */\n      dup2\n        /* \"#utility.yul\":115:156   */\n      tag_23\n      jump\t// in\n    tag_22:\n        /* \"#utility.yul\":7:162   */\n      swap3\n      swap2\n      pop\n      pop\n      jump\t// out\n        /* \"#utility.yul\":168:513   */\n    tag_6:\n        /* \"#utility.yul\":235:241   */\n      0x00\n        /* \"#utility.yul\":284:286   */\n      0x20\n        /* \"#utility.yul\":272:281   */\n      dup3\n        /* \"#utility.yul\":263:270   */\n      dup5\n        /* \"#utility.yul\":259:282   */\n      sub\n        /* \"#utility.yul\":255:287   */\n      slt\n        /* \"#utility.yul\":252:371   */\n      iszero\n      tag_25\n      jumpi\n        /* \"#utility.yul\":290:369   */\n      tag_26\n      tag_27\n      jump\t// in\n    tag_26:\n        /* \"#utility.yul\":252:371   */\n    tag_25:\n        /* \"#utility.yul\":410:411   */\n      0x00\n        /* \"#utility.yul\":435:496   */\n      tag_28\n        /* \"#utility.yul\":488:495   */\n      dup5\n        /* \"#utility.yul\":479:485   */\n      dup3\n        /* \"#utility.yul\":468:477   */\n      dup6\n        /* \"#utility.yul\":464:486   */\n      add\n        /* \"#utility.yul\":435:496   */\n      tag_20\n      jump\t// in\n    tag_28:\n        /* \"#utility.yul\":425:496   */\n      swap2\n      pop\n        /* \"#utility.yul\":381:506   */\n      pop\n        /* \"#utility.yul\":168:513   */\n      swap3\n      swap2\n      pop\n      pop\n      jump\t// out\n        /* \"#utility.yul\":519:884   */\n    tag_29:\n        /* \"#utility.yul\":661:664   */\n      0x00\n        /* \"#utility.yul\":682:748   */\n      tag_31\n        /* \"#utility.yul\":746:747   */\n      0x09\n        /* \"#utility.yul\":741:744   */\n      dup4\n        /* \"#utility.yul\":682:748   */\n      tag_32\n      jump\t// in\n    tag_31:\n        /* \"#utility.yul\":675:748   */\n      swap2\n      pop\n        /* \"#utility.yul\":757:850   */\n      tag_33\n        /* \"#utility.yul\":846:849   */\n      dup3\n        /* \"#utility.yul\":757:850   */\n      tag_34\n      jump\t// in\n    tag_33:\n        /* \"#utility.yul\":875:877   */\n      0x20\n        /* \"#utility.yul\":870:873   */\n      dup3\n        /* \"#utility.yul\":866:878   */\n      add\n        /* \"#utility.yul\":859:878   */\n      swap1\n      pop\n        /* \"#utility.yul\":519:884   */\n      swap2\n      swap1\n      pop\n      jump\t// out\n        /* \"#utility.yul\":890:1309   */\n    tag_18:\n        /* \"#utility.yul\":1056:1060   */\n      0x00\n        /* \"#utility.yul\":1094:1096   */\n      0x20\n        /* \"#utility.yul\":1083:1092   */\n      dup3\n        /* \"#utility.yul\":1079:1097   */\n      add\n        /* \"#utility.yul\":1071:1097   */\n      swap1\n      pop\n        /* \"#utility.yul\":1143:1152   */\n      dup2\n        /* \"#utility.yul\":1137:1141   */\n      dup2\n        /* \"#utility.yul\":1133:1153   */\n      sub\n        /* \"#utility.yul\":1129:1130   */\n      0x00\n        /* \"#utility.yul\":1118:1127   */\n      dup4\n        /* \"#utility.yul\":1114:1131   */\n      add\n        /* \"#utility.yul\":1107:1154   */\n      mstore\n        /* \"#utility.yul\":1171:1302   */\n      tag_36\n        /* \"#utility.yul\":1297:1301   */\n      dup2\n        /* \"#utility.yul\":1171:1302   */\n      tag_29\n      jump\t// in\n    tag_36:\n        /* \"#utility.yul\":1163:1302   */\n      swap1\n      pop\n        /* \"#utility.yul\":890:1309   */\n      swap2\n      swap1\n      pop\n      jump\t// out\n        /* \"#utility.yul\":1396:1565   */\n    tag_32:\n        /* \"#utility.yul\":1480:1491   */\n      0x00\n        /* \"#utility.yul\":1514:1520   */\n      dup3\n        /* \"#utility.yul\":1509:1512   */\n      dup3\n        /* \"#utility.yul\":1502:1521   */\n      mstore\n        /* \"#utility.yul\":1554:1558   */\n      0x20\n        /* \"#utility.yul\":1549:1552   */\n      dup3\n        /* \"#utility.yul\":1545:1559   */\n      add\n        /* \"#utility.yul\":1530:1559   */\n      swap1\n      pop\n        /* \"#utility.yul\":1396:1565   */\n      swap3\n      swap2\n      pop\n      pop\n      jump\t// out\n        /* \"#utility.yul\":1571:1675   */\n    tag_40:\n        /* \"#utility.yul\":1616:1623   */\n      0x00\n        /* \"#utility.yul\":1645:1669   */\n      tag_42\n        /* \"#utility.yul\":1663:1668   */\n      dup3\n        /* \"#utility.yul\":1645:1669   */\n      tag_43\n      jump\t// in\n    tag_42:\n        /* \"#utility.yul\":1634:1669   */\n      swap1\n      pop\n        /* \"#utility.yul\":1571:1675   */\n      swap2\n      swap1\n      pop\n      jump\t// out\n        /* \"#utility.yul\":1681:1807   */\n    tag_43:\n        /* \"#utility.yul\":1718:1725   */\n      0x00\n        /* \"#utility.yul\":1758:1800   */\n      0xffffffffffffffffffffffffffffffffffffffff\n        /* \"#utility.yul\":1751:1756   */\n      dup3\n        /* \"#utility.yul\":1747:1801   */\n      and\n        /* \"#utility.yul\":1736:1801   */\n      swap1\n      pop\n        /* \"#utility.yul\":1681:1807   */\n      swap2\n      swap1\n      pop\n      jump\t// out\n        /* \"#utility.yul\":1936:2053   */\n    tag_27:\n        /* \"#utility.yul\":2045:2046   */\n      0x00\n        /* \"#utility.yul\":2042:2043   */\n      dup1\n        /* \"#utility.yul\":2035:2047   */\n      revert\n        /* \"#utility.yul\":2059:2218   */\n    tag_34:\n        /* \"#utility.yul\":2199:2210   */\n      0x53656e64206661696c0000000000000000000000000000000000000000000000\n        /* \"#utility.yul\":2195:2196   */\n      0x00\n        /* \"#utility.yul\":2187:2193   */\n      dup3\n        /* \"#utility.yul\":2183:2197   */\n      add\n        /* \"#utility.yul\":2176:2211   */\n      mstore\n        /* \"#utility.yul\":2059:2218   */\n      pop\n      jump\t// out\n        /* \"#utility.yul\":2224:2362   */\n    tag_23:\n        /* \"#utility.yul\":2305:2337   */\n      tag_50\n        /* \"#utility.yul\":2331:2336   */\n      dup2\n        /* \"#utility.yul\":2305:2337   */\n      tag_40\n      jump\t// in\n    tag_50:\n        /* \"#utility.yul\":2298:2303   */\n      dup2\n        /* \"#utility.yul\":2295:2338   */\n      eq\n        /* \"#utility.yul\":2285:2356   */\n      tag_51\n      jumpi\n        /* \"#utility.yul\":2352:2353   */\n      0x00\n        /* \"#utility.yul\":2349:2350   */\n      dup1\n        /* \"#utility.yul\":2342:2354   */\n      revert\n        /* \"#utility.yul\":2285:2356   */\n    tag_51:\n        /* \"#utility.yul\":2224:2362   */\n      pop\n      jump\t// out\n\n    auxdata: 0xa2646970667358221220ad8aa46184536f0041a93ab779cebd56511ddf9e8c5b79e5c5e5b3f99bf58ddf64736f6c63430008070033\n}\n",
				"bytecode": {
					"linkReferences": {},
					"object": "608060405234801561001057600080fd5b50610270806100206000396000f3fe6080604052600436106100295760003560e01c80631a6952301461002e5780633e58c58c1461004a575b600080fd5b61004860048036038101906100439190610142565b610066565b005b610064600480360381019061005f9190610142565b6100b0565b005b8073ffffffffffffffffffffffffffffffffffffffff166108fc349081150290604051600060405180830381858888f193505050501580156100ac573d6000803e3d6000fd5b5050565b60008173ffffffffffffffffffffffffffffffffffffffff166108fc349081150290604051600060405180830381858888f19350505050905080610129576040517f08c379a000000000000000000000000000000000000000000000000000000000815260040161012090610192565b60405180910390fd5b5050565b60008135905061013c81610223565b92915050565b600060208284031215610158576101576101f5565b5b60006101668482850161012d565b91505092915050565b600061017c6009836101b2565b9150610187826101fa565b602082019050919050565b600060208201905081810360008301526101ab8161016f565b9050919050565b600082825260208201905092915050565b60006101ce826101d5565b9050919050565b600073ffffffffffffffffffffffffffffffffffffffff82169050919050565b600080fd5b7f53656e64206661696c0000000000000000000000000000000000000000000000600082015250565b61022c816101c3565b811461023757600080fd5b5056fea2646970667358221220ad8aa46184536f0041a93ab779cebd56511ddf9e8c5b79e5c5e5b3f99bf58ddf64736f6c63430008070033",
					"opcodes": "PUSH1 0x80 PUSH1 0x40 MSTORE CALLVALUE DUP1 ISZERO PUSH2 0x10 JUMPI PUSH1 0x0 DUP1 REVERT JUMPDEST POP PUSH2 0x270 DUP1 PUSH2 0x20 PUSH1 0x0 CODECOPY PUSH1 0x0 RETURN INVALID PUSH1 0x80 PUSH1 0x40 MSTORE PUSH1 0x4 CALLDATASIZE LT PUSH2 0x29 JUMPI PUSH1 0x0 CALLDATALOAD PUSH1 0xE0 SHR DUP1 PUSH4 0x1A695230 EQ PUSH2 0x2E JUMPI DUP1 PUSH4 0x3E58C58C EQ PUSH2 0x4A JUMPI JUMPDEST PUSH1 0x0 DUP1 REVERT JUMPDEST PUSH2 0x48 PUSH1 0x4 DUP1 CALLDATASIZE SUB DUP2 ADD SWAP1 PUSH2 0x43 SWAP2 SWAP1 PUSH2 0x142 JUMP JUMPDEST PUSH2 0x66 JUMP JUMPDEST STOP JUMPDEST PUSH2 0x64 PUSH1 0x4 DUP1 CALLDATASIZE SUB DUP2 ADD SWAP1 PUSH2 0x5F SWAP2 SWAP1 PUSH2 0x142 JUMP JUMPDEST PUSH2 0xB0 JUMP JUMPDEST STOP JUMPDEST DUP1 PUSH20 0xFFFFFFFFFFFFFFFFFFFFFFFFFFFFFFFFFFFFFFFF AND PUSH2 0x8FC CALLVALUE SWAP1 DUP2 ISZERO MUL SWAP1 PUSH1 0x40 MLOAD PUSH1 0x0 PUSH1 0x40 MLOAD DUP1 DUP4 SUB DUP2 DUP6 DUP9 DUP9 CALL SWAP4 POP POP POP POP ISZERO DUP1 ISZERO PUSH2 0xAC JUMPI RETURNDATASIZE PUSH1 0x0 DUP1 RETURNDATACOPY RETURNDATASIZE PUSH1 0x0 REVERT JUMPDEST POP POP JUMP JUMPDEST PUSH1 0x0 DUP2 PUSH20 0xFFFFFFFFFFFFFFFFFFFFFFFFFFFFFFFFFFFFFFFF AND PUSH2 0x8FC CALLVALUE SWAP1 DUP2 ISZERO MUL SWAP1 PUSH1 0x40 MLOAD PUSH1 0x0 PUSH1 0x40 MLOAD DUP1 DUP4 SUB DUP2 DUP6 DUP9 DUP9 CALL SWAP4 POP POP POP POP SWAP1 POP DUP1 PUSH2 0x129 JUMPI PUSH1 0x40 MLOAD PUSH32 0x8C379A000000000000000000000000000000000000000000000000000000000 DUP2 MSTORE PUSH1 0x4 ADD PUSH2 0x120 SWAP1 PUSH2 0x192 JUMP JUMPDEST PUSH1 0x40 MLOAD DUP1 SWAP2 SUB SWAP1 REVERT JUMPDEST POP POP JUMP JUMPDEST PUSH1 0x0 DUP2 CALLDATALOAD SWAP1 POP PUSH2 0x13C DUP2 PUSH2 0x223 JUMP JUMPDEST SWAP3 SWAP2 POP POP JUMP JUMPDEST PUSH1 0x0 PUSH1 0x20 DUP3 DUP5 SUB SLT ISZERO PUSH2 0x158 JUMPI PUSH2 0x157 PUSH2 0x1F5 JUMP JUMPDEST JUMPDEST PUSH1 0x0 PUSH2 0x166 DUP5 DUP3 DUP6 ADD PUSH2 0x12D JUMP JUMPDEST SWAP2 POP POP SWAP3 SWAP2 POP POP JUMP JUMPDEST PUSH1 0x0 PUSH2 0x17C PUSH1 0x9 DUP4 PUSH2 0x1B2 JUMP JUMPDEST SWAP2 POP PUSH2 0x187 DUP3 PUSH2 0x1FA JUMP JUMPDEST PUSH1 0x20 DUP3 ADD SWAP1 POP SWAP2 SWAP1 POP JUMP JUMPDEST PUSH1 0x0 PUSH1 0x20 DUP3 ADD SWAP1 POP DUP2 DUP2 SUB PUSH1 0x0 DUP4 ADD MSTORE PUSH2 0x1AB DUP2 PUSH2 0x16F JUMP JUMPDEST SWAP1 POP SWAP2 SWAP1 POP JUMP JUMPDEST PUSH1 0x0 DUP3 DUP3 MSTORE PUSH1 0x20 DUP3 ADD SWAP1 POP SWAP3 SWAP2 POP POP JUMP JUMPDEST PUSH1 0x0 PUSH2 0x1CE DUP3 PUSH2 0x1D5 JUMP JUMPDEST SWAP1 POP SWAP2 SWAP1 POP JUMP JUMPDEST PUSH1 0x0 PUSH20 0xFFFFFFFFFFFFFFFFFFFFFFFFFFFFFFFFFFFFFFFF DUP3 AND SWAP1 POP SWAP2 SWAP1 POP JUMP JUMPDEST PUSH1 0x0 DUP1 REVERT JUMPDEST PUSH32 0x53656E64206661696C0000000000000000000000000000000000000000000000 PUSH1 0x0 DUP3 ADD MSTORE POP JUMP JUMPDEST PUSH2 0x22C DUP2 PUSH2 0x1C3 JUMP JUMPDEST DUP2 EQ PUSH2 0x237 JUMPI PUSH1 0x0 DUP1 REVERT JUMPDEST POP JUMP INVALID LOG2 PUSH5 0x6970667358 0x22 SLT KECCAK256 0xAD DUP11 LOG4 PUSH2 0x8453 PUSH16 0x41A93AB779CEBD56511DDF9E8C5B79 0xE5 0xC5 0xE5 0xB3 0xF9 SWAP12 CREATE2 DUP14 0xDF PUSH5 0x736F6C6343 STOP ADDMOD SMOD STOP CALLER "
				},
				"gasEstimates": {
					"creation": {
						"codeDepositCost": "124800",
						"executionCost": "171",
						"totalCost": "124971"
					},
					"external": {
						"send(address)": "infinite",
						"transfer(address)": "infinite"
					}
				},
				"methodIdentifiers": {
					"send(address)": "3e58c58c",
					"transfer(address)": "1a695230"
				}
			},
			"storageLayout": {
				"storage": [],
				"types": null
			},
			"userdoc": {
				"kind": "user",
				"methods": {},
				"version": 1
			}
		}
	}
}