{
	"contracts/11_CallContract.sol": {
		"Caller": {
			"abi": [
				{
					"inputs": [],
					"stateMutability": "nonpayable",
					"type": "constructor"
				},
				{
					"anonymous": false,
					"inputs": [
						{
							"indexed": false,
							"internalType": "bool",
							"name": "success",
							"type": "bool"
						},
						{
							"indexed": false,
							"internalType": "bytes",
							"name": "data",
							"type": "bytes"
						}
					],
					"name": "Response",
					"type": "event"
				},
				{
					"inputs": [],
					"name": "getAddress",
					"outputs": [
						{
							"internalType": "address",
							"name": "",
							"type": "address"
						}
					],
					"stateMutability": "view",
					"type": "function"
				},
				{
					"inputs": [],
					"name": "getBalance",
					"outputs": [
						{
							"internalType": "uint256",
							"name": "",
							"type": "uint256"
						}
					],
					"stateMutability": "view",
					"type": "function"
				},
				{
					"inputs": [
						{
							"internalType": "address payable",
							"name": "_addr",
							"type": "address"
						},
						{
							"internalType": "uint256",
							"name": "_y",
							"type": "uint256"
						}
					],
					"name": "testCall",
					"outputs": [],
					"stateMutability": "payable",
					"type": "function"
				}
			],
			"devdoc": {
				"kind": "dev",
				"methods": {},
				"version": 1
			},
			"evm": {
				"assembly": "    /* \"contracts/11_CallContract.sol\":952:1711  contract Caller{... */\n  mstore(0x40, 0x80)\n    /* \"contracts/11_CallContract.sol\":997:1052  constructor(){... */\n  callvalue\n  dup1\n  iszero\n  tag_1\n  jumpi\n  0x00\n  dup1\n  revert\ntag_1:\n  pop\n    /* \"contracts/11_CallContract.sol\":1031:1045  new Receiver() */\n  mload(0x40)\n  tag_4\n  swap1\n  tag_5\n  jump\t// in\ntag_4:\n  mload(0x40)\n  dup1\n  swap2\n  sub\n  swap1\n  0x00\n  create\n  dup1\n  iszero\n  dup1\n  iszero\n  tag_6\n  jumpi\n  returndatasize\n  0x00\n  dup1\n  returndatacopy\n  revert(0x00, returndatasize)\ntag_6:\n  pop\n    /* \"contracts/11_CallContract.sol\":1020:1028  receiver */\n  0x00\n  dup1\n    /* \"contracts/11_CallContract.sol\":1020:1045  receiver = new Receiver() */\n  0x0100\n  exp\n  dup2\n  sload\n  dup2\n  0xffffffffffffffffffffffffffffffffffffffff\n  mul\n  not\n  and\n  swap1\n  dup4\n  0xffffffffffffffffffffffffffffffffffffffff\n  and\n  mul\n  or\n  swap1\n  sstore\n  pop\n    /* \"contracts/11_CallContract.sol\":952:1711  contract Caller{... */\n  jump(tag_7)\ntag_5:\n  dataSize(sub_1)\n  dup1\n  dataOffset(sub_1)\n  dup4\n  codecopy\n  add\n  swap1\n  jump\t// out\ntag_7:\n  dataSize(sub_0)\n  dup1\n  dataOffset(sub_0)\n  0x00\n  codecopy\n  0x00\n  return\nstop\n\nsub_0: assembly {\n        /* \"contracts/11_CallContract.sol\":952:1711  contract Caller{... */\n      mstore(0x40, 0x80)\n      jumpi(tag_1, lt(calldatasize, 0x04))\n      shr(0xe0, calldataload(0x00))\n      dup1\n      0x12065fe0\n      eq\n      tag_2\n      jumpi\n      dup1\n      0x38cc4831\n      eq\n      tag_3\n      jumpi\n      dup1\n      0x59c75ada\n      eq\n      tag_4\n      jumpi\n    tag_1:\n      0x00\n      dup1\n      revert\n        /* \"contracts/11_CallContract.sol\":1617:1709  function getBalance() public view returns(uint){... */\n    tag_2:\n      callvalue\n      dup1\n      iszero\n      tag_5\n      jumpi\n      0x00\n      dup1\n      revert\n    tag_5:\n      pop\n      tag_6\n      tag_7\n      jump\t// in\n    tag_6:\n      mload(0x40)\n      tag_8\n      swap2\n      swap1\n      tag_9\n      jump\t// in\n    tag_8:\n      mload(0x40)\n      dup1\n      swap2\n      sub\n      swap1\n      return\n        /* \"contracts/11_CallContract.sol\":1516:1611  function getAddress() public view returns(address){... */\n    tag_3:\n      callvalue\n      dup1\n      iszero\n      tag_10\n      jumpi\n      0x00\n      dup1\n      revert\n    tag_10:\n      pop\n      tag_11\n      tag_12\n      jump\t// in\n    tag_11:\n      mload(0x40)\n      tag_13\n      swap2\n      swap1\n      tag_14\n      jump\t// in\n    tag_13:\n      mload(0x40)\n      dup1\n      swap2\n      sub\n      swap1\n      return\n        /* \"contracts/11_CallContract.sol\":1105:1505  function testCall(address payable _addr, uint _y) public payable{... */\n    tag_4:\n      tag_15\n      0x04\n      dup1\n      calldatasize\n      sub\n      dup2\n      add\n      swap1\n      tag_16\n      swap2\n      swap1\n      tag_17\n      jump\t// in\n    tag_16:\n      tag_18\n      jump\t// in\n    tag_15:\n      stop\n        /* \"contracts/11_CallContract.sol\":1617:1709  function getBalance() public view returns(uint){... */\n    tag_7:\n        /* \"contracts/11_CallContract.sol\":1659:1663  uint */\n      0x00\n        /* \"contracts/11_CallContract.sol\":1681:1689  receiver */\n      dup1\n      0x00\n      swap1\n      sload\n      swap1\n      0x0100\n      exp\n      swap1\n      div\n      0xffffffffffffffffffffffffffffffffffffffff\n      and\n        /* \"contracts/11_CallContract.sol\":1681:1700  receiver.getBalance */\n      0xffffffffffffffffffffffffffffffffffffffff\n      and\n      0x12065fe0\n        /* \"contracts/11_CallContract.sol\":1681:1702  receiver.getBalance() */\n      mload(0x40)\n      dup2\n      0xffffffff\n      and\n      0xe0\n      shl\n      dup2\n      mstore\n      0x04\n      add\n      0x20\n      mload(0x40)\n      dup1\n      dup4\n      sub\n      dup2\n      dup7\n      dup1\n      extcodesize\n      iszero\n      dup1\n      iszero\n      tag_20\n      jumpi\n      0x00\n      dup1\n      revert\n    tag_20:\n      pop\n      gas\n      staticcall\n      iszero\n      dup1\n      iszero\n      tag_22\n      jumpi\n      returndatasize\n      0x00\n      dup1\n      returndatacopy\n      revert(0x00, returndatasize)\n    tag_22:\n      pop\n      pop\n      pop\n      pop\n      mload(0x40)\n      returndatasize\n      not(0x1f)\n      0x1f\n      dup3\n      add\n      and\n      dup3\n      add\n      dup1\n      0x40\n      mstore\n      pop\n      dup2\n      add\n      swap1\n      tag_23\n      swap2\n      swap1\n      tag_24\n      jump\t// in\n    tag_23:\n        /* \"contracts/11_CallContract.sol\":1674:1702  return receiver.getBalance() */\n      swap1\n      pop\n        /* \"contracts/11_CallContract.sol\":1617:1709  function getBalance() public view returns(uint){... */\n      swap1\n      jump\t// out\n        /* \"contracts/11_CallContract.sol\":1516:1611  function getAddress() public view returns(address){... */\n    tag_12:\n        /* \"contracts/11_CallContract.sol\":1558:1565  address */\n      0x00\n        /* \"contracts/11_CallContract.sol\":1583:1591  receiver */\n      dup1\n      0x00\n      swap1\n      sload\n      swap1\n      0x0100\n      exp\n      swap1\n      div\n      0xffffffffffffffffffffffffffffffffffffffff\n      and\n        /* \"contracts/11_CallContract.sol\":1583:1602  receiver.getAddress */\n      0xffffffffffffffffffffffffffffffffffffffff\n      and\n      0x38cc4831\n        /* \"contracts/11_CallContract.sol\":1583:1604  receiver.getAddress() */\n      mload(0x40)\n      dup2\n      0xffffffff\n      and\n      0xe0\n      shl\n      dup2\n      mstore\n      0x04\n      add\n      0x20\n      mload(0x40)\n      dup1\n      dup4\n      sub\n      dup2\n      dup7\n      dup1\n      extcodesize\n      iszero\n      dup1\n      iszero\n      tag_26\n      jumpi\n      0x00\n      dup1\n      revert\n    tag_26:\n      pop\n      gas\n      staticcall\n      iszero\n      dup1\n      iszero\n      tag_28\n      jumpi\n      returndatasize\n      0x00\n      dup1\n      returndatacopy\n      revert(0x00, returndatasize)\n    tag_28:\n      pop\n      pop\n      pop\n      pop\n      mload(0x40)\n      returndatasize\n      not(0x1f)\n      0x1f\n      dup3\n      add\n      and\n      dup3\n      add\n      dup1\n      0x40\n      mstore\n      pop\n      dup2\n      add\n      swap1\n      tag_29\n      swap2\n      swap1\n      tag_30\n      jump\t// in\n    tag_29:\n        /* \"contracts/11_CallContract.sol\":1576:1604  return receiver.getAddress() */\n      swap1\n      pop\n        /* \"contracts/11_CallContract.sol\":1516:1611  function getAddress() public view returns(address){... */\n      swap1\n      jump\t// out\n        /* \"contracts/11_CallContract.sol\":1105:1505  function testCall(address payable _addr, uint _y) public payable{... */\n    tag_18:\n        /* \"contracts/11_CallContract.sol\":1180:1192  bool success */\n      0x00\n        /* \"contracts/11_CallContract.sol\":1194:1211  bytes memory data */\n      dup1\n        /* \"contracts/11_CallContract.sol\":1215:1220  _addr */\n      dup4\n        /* \"contracts/11_CallContract.sol\":1215:1225  _addr.call */\n      0xffffffffffffffffffffffffffffffffffffffff\n      and\n        /* \"contracts/11_CallContract.sol\":1232:1241  msg.value */\n      callvalue\n        /* \"contracts/11_CallContract.sol\":1215:1249  _addr.call{value:msg.value}(\"abc\") */\n      mload(0x40)\n      tag_32\n      swap1\n      tag_33\n      jump\t// in\n    tag_32:\n      0x00\n      mload(0x40)\n      dup1\n      dup4\n      sub\n      dup2\n      dup6\n      dup8\n      gas\n      call\n      swap3\n      pop\n      pop\n      pop\n      returndatasize\n      dup1\n      0x00\n      dup2\n      eq\n      tag_36\n      jumpi\n      mload(0x40)\n      swap2\n      pop\n      and(add(returndatasize, 0x3f), not(0x1f))\n      dup3\n      add\n      0x40\n      mstore\n      returndatasize\n      dup3\n      mstore\n      returndatasize\n      0x00\n      0x20\n      dup5\n      add\n      returndatacopy\n      jump(tag_35)\n    tag_36:\n      0x60\n      swap2\n      pop\n    tag_35:\n      pop\n        /* \"contracts/11_CallContract.sol\":1179:1249  (bool success, bytes memory data) = _addr.call{value:msg.value}(\"abc\") */\n      swap2\n      pop\n      swap2\n      pop\n        /* \"contracts/11_CallContract.sol\":1476:1498  Response(success,data) */\n      0x13848c3e38f8886f3f5d2ad9dff80d8092c2bbb8efd5b887a99c2c6cfc09ac2a\n        /* \"contracts/11_CallContract.sol\":1485:1492  success */\n      dup3\n        /* \"contracts/11_CallContract.sol\":1493:1497  data */\n      dup3\n        /* \"contracts/11_CallContract.sol\":1476:1498  Response(success,data) */\n      mload(0x40)\n      tag_37\n      swap3\n      swap2\n      swap1\n      tag_38\n      jump\t// in\n    tag_37:\n      mload(0x40)\n      dup1\n      swap2\n      sub\n      swap1\n      log1\n        /* \"contracts/11_CallContract.sol\":1169:1505  {... */\n      pop\n      pop\n        /* \"contracts/11_CallContract.sol\":1105:1505  function testCall(address payable _addr, uint _y) public payable{... */\n      pop\n      pop\n      jump\t// out\n        /* \"#utility.yul\":7:150   */\n    tag_40:\n        /* \"#utility.yul\":64:69   */\n      0x00\n        /* \"#utility.yul\":95:101   */\n      dup2\n        /* \"#utility.yul\":89:102   */\n      mload\n        /* \"#utility.yul\":80:102   */\n      swap1\n      pop\n        /* \"#utility.yul\":111:144   */\n      tag_42\n        /* \"#utility.yul\":138:143   */\n      dup2\n        /* \"#utility.yul\":111:144   */\n      tag_43\n      jump\t// in\n    tag_42:\n        /* \"#utility.yul\":7:150   */\n      swap3\n      swap2\n      pop\n      pop\n      jump\t// out\n        /* \"#utility.yul\":156:311   */\n    tag_44:\n        /* \"#utility.yul\":210:215   */\n      0x00\n        /* \"#utility.yul\":248:254   */\n      dup2\n        /* \"#utility.yul\":235:255   */\n      calldataload\n        /* \"#utility.yul\":226:255   */\n      swap1\n      pop\n        /* \"#utility.yul\":264:305   */\n      tag_46\n        /* \"#utility.yul\":299:304   */\n      dup2\n        /* \"#utility.yul\":264:305   */\n      tag_47\n      jump\t// in\n    tag_46:\n        /* \"#utility.yul\":156:311   */\n      swap3\n      swap2\n      pop\n      pop\n      jump\t// out\n        /* \"#utility.yul\":317:456   */\n    tag_48:\n        /* \"#utility.yul\":363:368   */\n      0x00\n        /* \"#utility.yul\":401:407   */\n      dup2\n        /* \"#utility.yul\":388:408   */\n      calldataload\n        /* \"#utility.yul\":379:408   */\n      swap1\n      pop\n        /* \"#utility.yul\":417:450   */\n      tag_50\n        /* \"#utility.yul\":444:449   */\n      dup2\n        /* \"#utility.yul\":417:450   */\n      tag_51\n      jump\t// in\n    tag_50:\n        /* \"#utility.yul\":317:456   */\n      swap3\n      swap2\n      pop\n      pop\n      jump\t// out\n        /* \"#utility.yul\":462:605   */\n    tag_52:\n        /* \"#utility.yul\":519:524   */\n      0x00\n        /* \"#utility.yul\":550:556   */\n      dup2\n        /* \"#utility.yul\":544:557   */\n      mload\n        /* \"#utility.yul\":535:557   */\n      swap1\n      pop\n        /* \"#utility.yul\":566:599   */\n      tag_54\n        /* \"#utility.yul\":593:598   */\n      dup2\n        /* \"#utility.yul\":566:599   */\n      tag_51\n      jump\t// in\n    tag_54:\n        /* \"#utility.yul\":462:605   */\n      swap3\n      swap2\n      pop\n      pop\n      jump\t// out\n        /* \"#utility.yul\":611:962   */\n    tag_30:\n        /* \"#utility.yul\":681:687   */\n      0x00\n        /* \"#utility.yul\":730:732   */\n      0x20\n        /* \"#utility.yul\":718:727   */\n      dup3\n        /* \"#utility.yul\":709:716   */\n      dup5\n        /* \"#utility.yul\":705:728   */\n      sub\n        /* \"#utility.yul\":701:733   */\n      slt\n        /* \"#utility.yul\":698:817   */\n      iszero\n      tag_56\n      jumpi\n        /* \"#utility.yul\":736:815   */\n      tag_57\n      tag_58\n      jump\t// in\n    tag_57:\n        /* \"#utility.yul\":698:817   */\n    tag_56:\n        /* \"#utility.yul\":856:857   */\n      0x00\n        /* \"#utility.yul\":881:945   */\n      tag_59\n        /* \"#utility.yul\":937:944   */\n      dup5\n        /* \"#utility.yul\":928:934   */\n      dup3\n        /* \"#utility.yul\":917:926   */\n      dup6\n        /* \"#utility.yul\":913:935   */\n      add\n        /* \"#utility.yul\":881:945   */\n      tag_40\n      jump\t// in\n    tag_59:\n        /* \"#utility.yul\":871:945   */\n      swap2\n      pop\n        /* \"#utility.yul\":827:955   */\n      pop\n        /* \"#utility.yul\":611:962   */\n      swap3\n      swap2\n      pop\n      pop\n      jump\t// out\n        /* \"#utility.yul\":968:1458   */\n    tag_17:\n        /* \"#utility.yul\":1044:1050   */\n      0x00\n        /* \"#utility.yul\":1052:1058   */\n      dup1\n        /* \"#utility.yul\":1101:1103   */\n      0x40\n        /* \"#utility.yul\":1089:1098   */\n      dup4\n        /* \"#utility.yul\":1080:1087   */\n      dup6\n        /* \"#utility.yul\":1076:1099   */\n      sub\n        /* \"#utility.yul\":1072:1104   */\n      slt\n        /* \"#utility.yul\":1069:1188   */\n      iszero\n      tag_61\n      jumpi\n        /* \"#utility.yul\":1107:1186   */\n      tag_62\n      tag_58\n      jump\t// in\n    tag_62:\n        /* \"#utility.yul\":1069:1188   */\n    tag_61:\n        /* \"#utility.yul\":1227:1228   */\n      0x00\n        /* \"#utility.yul\":1252:1313   */\n      tag_63\n        /* \"#utility.yul\":1305:1312   */\n      dup6\n        /* \"#utility.yul\":1296:1302   */\n      dup3\n        /* \"#utility.yul\":1285:1294   */\n      dup7\n        /* \"#utility.yul\":1281:1303   */\n      add\n        /* \"#utility.yul\":1252:1313   */\n      tag_44\n      jump\t// in\n    tag_63:\n        /* \"#utility.yul\":1242:1313   */\n      swap3\n      pop\n        /* \"#utility.yul\":1198:1323   */\n      pop\n        /* \"#utility.yul\":1362:1364   */\n      0x20\n        /* \"#utility.yul\":1388:1441   */\n      tag_64\n        /* \"#utility.yul\":1433:1440   */\n      dup6\n        /* \"#utility.yul\":1424:1430   */\n      dup3\n        /* \"#utility.yul\":1413:1422   */\n      dup7\n        /* \"#utility.yul\":1409:1431   */\n      add\n        /* \"#utility.yul\":1388:1441   */\n      tag_48\n      jump\t// in\n    tag_64:\n        /* \"#utility.yul\":1378:1441   */\n      swap2\n      pop\n        /* \"#utility.yul\":1333:1451   */\n      pop\n        /* \"#utility.yul\":968:1458   */\n      swap3\n      pop\n      swap3\n      swap1\n      pop\n      jump\t// out\n        /* \"#utility.yul\":1464:1815   */\n    tag_24:\n        /* \"#utility.yul\":1534:1540   */\n      0x00\n        /* \"#utility.yul\":1583:1585   */\n      0x20\n        /* \"#utility.yul\":1571:1580   */\n      dup3\n        /* \"#utility.yul\":1562:1569   */\n      dup5\n        /* \"#utility.yul\":1558:1581   */\n      sub\n        /* \"#utility.yul\":1554:1586   */\n      slt\n        /* \"#utility.yul\":1551:1670   */\n      iszero\n      tag_66\n      jumpi\n        /* \"#utility.yul\":1589:1668   */\n      tag_67\n      tag_58\n      jump\t// in\n    tag_67:\n        /* \"#utility.yul\":1551:1670   */\n    tag_66:\n        /* \"#utility.yul\":1709:1710   */\n      0x00\n        /* \"#utility.yul\":1734:1798   */\n      tag_68\n        /* \"#utility.yul\":1790:1797   */\n      dup5\n        /* \"#utility.yul\":1781:1787   */\n      dup3\n        /* \"#utility.yul\":1770:1779   */\n      dup6\n        /* \"#utility.yul\":1766:1788   */\n      add\n        /* \"#utility.yul\":1734:1798   */\n      tag_52\n      jump\t// in\n    tag_68:\n        /* \"#utility.yul\":1724:1798   */\n      swap2\n      pop\n        /* \"#utility.yul\":1680:1808   */\n      pop\n        /* \"#utility.yul\":1464:1815   */\n      swap3\n      swap2\n      pop\n      pop\n      jump\t// out\n        /* \"#utility.yul\":1821:1939   */\n    tag_69:\n        /* \"#utility.yul\":1908:1932   */\n      tag_71\n        /* \"#utility.yul\":1926:1931   */\n      dup2\n        /* \"#utility.yul\":1908:1932   */\n      tag_72\n      jump\t// in\n    tag_71:\n        /* \"#utility.yul\":1903:1906   */\n      dup3\n        /* \"#utility.yul\":1896:1933   */\n      mstore\n        /* \"#utility.yul\":1821:1939   */\n      pop\n      pop\n      jump\t// out\n        /* \"#utility.yul\":1945:2054   */\n    tag_73:\n        /* \"#utility.yul\":2026:2047   */\n      tag_75\n        /* \"#utility.yul\":2041:2046   */\n      dup2\n        /* \"#utility.yul\":2026:2047   */\n      tag_76\n      jump\t// in\n    tag_75:\n        /* \"#utility.yul\":2021:2024   */\n      dup3\n        /* \"#utility.yul\":2014:2048   */\n      mstore\n        /* \"#utility.yul\":1945:2054   */\n      pop\n      pop\n      jump\t// out\n        /* \"#utility.yul\":2060:2420   */\n    tag_77:\n        /* \"#utility.yul\":2146:2149   */\n      0x00\n        /* \"#utility.yul\":2174:2212   */\n      tag_79\n        /* \"#utility.yul\":2206:2211   */\n      dup3\n        /* \"#utility.yul\":2174:2212   */\n      tag_80\n      jump\t// in\n    tag_79:\n        /* \"#utility.yul\":2228:2298   */\n      tag_81\n        /* \"#utility.yul\":2291:2297   */\n      dup2\n        /* \"#utility.yul\":2286:2289   */\n      dup6\n        /* \"#utility.yul\":2228:2298   */\n      tag_82\n      jump\t// in\n    tag_81:\n        /* \"#utility.yul\":2221:2298   */\n      swap4\n      pop\n        /* \"#utility.yul\":2307:2359   */\n      tag_83\n        /* \"#utility.yul\":2352:2358   */\n      dup2\n        /* \"#utility.yul\":2347:2350   */\n      dup6\n        /* \"#utility.yul\":2340:2344   */\n      0x20\n        /* \"#utility.yul\":2333:2338   */\n      dup7\n        /* \"#utility.yul\":2329:2345   */\n      add\n        /* \"#utility.yul\":2307:2359   */\n      tag_84\n      jump\t// in\n    tag_83:\n        /* \"#utility.yul\":2384:2413   */\n      tag_85\n        /* \"#utility.yul\":2406:2412   */\n      dup2\n        /* \"#utility.yul\":2384:2413   */\n      tag_86\n      jump\t// in\n    tag_85:\n        /* \"#utility.yul\":2379:2382   */\n      dup5\n        /* \"#utility.yul\":2375:2414   */\n      add\n        /* \"#utility.yul\":2368:2414   */\n      swap2\n      pop\n        /* \"#utility.yul\":2150:2420   */\n      pop\n        /* \"#utility.yul\":2060:2420   */\n      swap3\n      swap2\n      pop\n      pop\n      jump\t// out\n        /* \"#utility.yul\":2426:2824   */\n    tag_87:\n        /* \"#utility.yul\":2585:2588   */\n      0x00\n        /* \"#utility.yul\":2606:2689   */\n      tag_89\n        /* \"#utility.yul\":2687:2688   */\n      0x03\n        /* \"#utility.yul\":2682:2685   */\n      dup4\n        /* \"#utility.yul\":2606:2689   */\n      tag_90\n      jump\t// in\n    tag_89:\n        /* \"#utility.yul\":2599:2689   */\n      swap2\n      pop\n        /* \"#utility.yul\":2698:2791   */\n      tag_91\n        /* \"#utility.yul\":2787:2790   */\n      dup3\n        /* \"#utility.yul\":2698:2791   */\n      tag_92\n      jump\t// in\n    tag_91:\n        /* \"#utility.yul\":2816:2817   */\n      0x03\n        /* \"#utility.yul\":2811:2814   */\n      dup3\n        /* \"#utility.yul\":2807:2818   */\n      add\n        /* \"#utility.yul\":2800:2818   */\n      swap1\n      pop\n        /* \"#utility.yul\":2426:2824   */\n      swap2\n      swap1\n      pop\n      jump\t// out\n        /* \"#utility.yul\":2830:2948   */\n    tag_93:\n        /* \"#utility.yul\":2917:2941   */\n      tag_95\n        /* \"#utility.yul\":2935:2940   */\n      dup2\n        /* \"#utility.yul\":2917:2941   */\n      tag_96\n      jump\t// in\n    tag_95:\n        /* \"#utility.yul\":2912:2915   */\n      dup3\n        /* \"#utility.yul\":2905:2942   */\n      mstore\n        /* \"#utility.yul\":2830:2948   */\n      pop\n      pop\n      jump\t// out\n        /* \"#utility.yul\":2954:3333   */\n    tag_33:\n        /* \"#utility.yul\":3138:3141   */\n      0x00\n        /* \"#utility.yul\":3160:3307   */\n      tag_98\n        /* \"#utility.yul\":3303:3306   */\n      dup3\n        /* \"#utility.yul\":3160:3307   */\n      tag_87\n      jump\t// in\n    tag_98:\n        /* \"#utility.yul\":3153:3307   */\n      swap2\n      pop\n        /* \"#utility.yul\":3324:3327   */\n      dup2\n        /* \"#utility.yul\":3317:3327   */\n      swap1\n      pop\n        /* \"#utility.yul\":2954:3333   */\n      swap2\n      swap1\n      pop\n      jump\t// out\n        /* \"#utility.yul\":3339:3561   */\n    tag_14:\n        /* \"#utility.yul\":3432:3436   */\n      0x00\n        /* \"#utility.yul\":3470:3472   */\n      0x20\n        /* \"#utility.yul\":3459:3468   */\n      dup3\n        /* \"#utility.yul\":3455:3473   */\n      add\n        /* \"#utility.yul\":3447:3473   */\n      swap1\n      pop\n        /* \"#utility.yul\":3483:3554   */\n      tag_100\n        /* \"#utility.yul\":3551:3552   */\n      0x00\n        /* \"#utility.yul\":3540:3549   */\n      dup4\n        /* \"#utility.yul\":3536:3553   */\n      add\n        /* \"#utility.yul\":3527:3533   */\n      dup5\n        /* \"#utility.yul\":3483:3554   */\n      tag_69\n      jump\t// in\n    tag_100:\n        /* \"#utility.yul\":3339:3561   */\n      swap3\n      swap2\n      pop\n      pop\n      jump\t// out\n        /* \"#utility.yul\":3567:3974   */\n    tag_38:\n        /* \"#utility.yul\":3700:3704   */\n      0x00\n        /* \"#utility.yul\":3738:3740   */\n      0x40\n        /* \"#utility.yul\":3727:3736   */\n      dup3\n        /* \"#utility.yul\":3723:3741   */\n      add\n        /* \"#utility.yul\":3715:3741   */\n      swap1\n      pop\n        /* \"#utility.yul\":3751:3816   */\n      tag_102\n        /* \"#utility.yul\":3813:3814   */\n      0x00\n        /* \"#utility.yul\":3802:3811   */\n      dup4\n        /* \"#utility.yul\":3798:3815   */\n      add\n        /* \"#utility.yul\":3789:3795   */\n      dup6\n        /* \"#utility.yul\":3751:3816   */\n      tag_73\n      jump\t// in\n    tag_102:\n        /* \"#utility.yul\":3863:3872   */\n      dup2\n        /* \"#utility.yul\":3857:3861   */\n      dup2\n        /* \"#utility.yul\":3853:3873   */\n      sub\n        /* \"#utility.yul\":3848:3850   */\n      0x20\n        /* \"#utility.yul\":3837:3846   */\n      dup4\n        /* \"#utility.yul\":3833:3851   */\n      add\n        /* \"#utility.yul\":3826:3874   */\n      mstore\n        /* \"#utility.yul\":3891:3967   */\n      tag_103\n        /* \"#utility.yul\":3962:3966   */\n      dup2\n        /* \"#utility.yul\":3953:3959   */\n      dup5\n        /* \"#utility.yul\":3891:3967   */\n      tag_77\n      jump\t// in\n    tag_103:\n        /* \"#utility.yul\":3883:3967   */\n      swap1\n      pop\n        /* \"#utility.yul\":3567:3974   */\n      swap4\n      swap3\n      pop\n      pop\n      pop\n      jump\t// out\n        /* \"#utility.yul\":3980:4202   */\n    tag_9:\n        /* \"#utility.yul\":4073:4077   */\n      0x00\n        /* \"#utility.yul\":4111:4113   */\n      0x20\n        /* \"#utility.yul\":4100:4109   */\n      dup3\n        /* \"#utility.yul\":4096:4114   */\n      add\n        /* \"#utility.yul\":4088:4114   */\n      swap1\n      pop\n        /* \"#utility.yul\":4124:4195   */\n      tag_105\n        /* \"#utility.yul\":4192:4193   */\n      0x00\n        /* \"#utility.yul\":4181:4190   */\n      dup4\n        /* \"#utility.yul\":4177:4194   */\n      add\n        /* \"#utility.yul\":4168:4174   */\n      dup5\n        /* \"#utility.yul\":4124:4195   */\n      tag_93\n      jump\t// in\n    tag_105:\n        /* \"#utility.yul\":3980:4202   */\n      swap3\n      swap2\n      pop\n      pop\n      jump\t// out\n        /* \"#utility.yul\":4289:4387   */\n    tag_80:\n        /* \"#utility.yul\":4340:4346   */\n      0x00\n        /* \"#utility.yul\":4374:4379   */\n      dup2\n        /* \"#utility.yul\":4368:4380   */\n      mload\n        /* \"#utility.yul\":4358:4380   */\n      swap1\n      pop\n        /* \"#utility.yul\":4289:4387   */\n      swap2\n      swap1\n      pop\n      jump\t// out\n        /* \"#utility.yul\":4393:4561   */\n    tag_82:\n        /* \"#utility.yul\":4476:4487   */\n      0x00\n        /* \"#utility.yul\":4510:4516   */\n      dup3\n        /* \"#utility.yul\":4505:4508   */\n      dup3\n        /* \"#utility.yul\":4498:4517   */\n      mstore\n        /* \"#utility.yul\":4550:4554   */\n      0x20\n        /* \"#utility.yul\":4545:4548   */\n      dup3\n        /* \"#utility.yul\":4541:4555   */\n      add\n        /* \"#utility.yul\":4526:4555   */\n      swap1\n      pop\n        /* \"#utility.yul\":4393:4561   */\n      swap3\n      swap2\n      pop\n      pop\n      jump\t// out\n        /* \"#utility.yul\":4567:4714   */\n    tag_90:\n        /* \"#utility.yul\":4668:4679   */\n      0x00\n        /* \"#utility.yul\":4705:4708   */\n      dup2\n        /* \"#utility.yul\":4690:4708   */\n      swap1\n      pop\n        /* \"#utility.yul\":4567:4714   */\n      swap3\n      swap2\n      pop\n      pop\n      jump\t// out\n        /* \"#utility.yul\":4720:4816   */\n    tag_72:\n        /* \"#utility.yul\":4757:4764   */\n      0x00\n        /* \"#utility.yul\":4786:4810   */\n      tag_112\n        /* \"#utility.yul\":4804:4809   */\n      dup3\n        /* \"#utility.yul\":4786:4810   */\n      tag_113\n      jump\t// in\n    tag_112:\n        /* \"#utility.yul\":4775:4810   */\n      swap1\n      pop\n        /* \"#utility.yul\":4720:4816   */\n      swap2\n      swap1\n      pop\n      jump\t// out\n        /* \"#utility.yul\":4822:4926   */\n    tag_114:\n        /* \"#utility.yul\":4867:4874   */\n      0x00\n        /* \"#utility.yul\":4896:4920   */\n      tag_116\n        /* \"#utility.yul\":4914:4919   */\n      dup3\n        /* \"#utility.yul\":4896:4920   */\n      tag_113\n      jump\t// in\n    tag_116:\n        /* \"#utility.yul\":4885:4920   */\n      swap1\n      pop\n        /* \"#utility.yul\":4822:4926   */\n      swap2\n      swap1\n      pop\n      jump\t// out\n        /* \"#utility.yul\":4932:5022   */\n    tag_76:\n        /* \"#utility.yul\":4966:4973   */\n      0x00\n        /* \"#utility.yul\":5009:5014   */\n      dup2\n        /* \"#utility.yul\":5002:5015   */\n      iszero\n        /* \"#utility.yul\":4995:5016   */\n      iszero\n        /* \"#utility.yul\":4984:5016   */\n      swap1\n      pop\n        /* \"#utility.yul\":4932:5022   */\n      swap2\n      swap1\n      pop\n      jump\t// out\n        /* \"#utility.yul\":5028:5154   */\n    tag_113:\n        /* \"#utility.yul\":5065:5072   */\n      0x00\n        /* \"#utility.yul\":5105:5147   */\n      0xffffffffffffffffffffffffffffffffffffffff\n        /* \"#utility.yul\":5098:5103   */\n      dup3\n        /* \"#utility.yul\":5094:5148   */\n      and\n        /* \"#utility.yul\":5083:5148   */\n      swap1\n      pop\n        /* \"#utility.yul\":5028:5154   */\n      swap2\n      swap1\n      pop\n      jump\t// out\n        /* \"#utility.yul\":5160:5237   */\n    tag_96:\n        /* \"#utility.yul\":5197:5204   */\n      0x00\n        /* \"#utility.yul\":5226:5231   */\n      dup2\n        /* \"#utility.yul\":5215:5231   */\n      swap1\n      pop\n        /* \"#utility.yul\":5160:5237   */\n      swap2\n      swap1\n      pop\n      jump\t// out\n        /* \"#utility.yul\":5243:5550   */\n    tag_84:\n        /* \"#utility.yul\":5311:5312   */\n      0x00\n        /* \"#utility.yul\":5321:5434   */\n    tag_121:\n        /* \"#utility.yul\":5335:5341   */\n      dup4\n        /* \"#utility.yul\":5332:5333   */\n      dup2\n        /* \"#utility.yul\":5329:5342   */\n      lt\n        /* \"#utility.yul\":5321:5434   */\n      iszero\n      tag_123\n      jumpi\n        /* \"#utility.yul\":5420:5421   */\n      dup1\n        /* \"#utility.yul\":5415:5418   */\n      dup3\n        /* \"#utility.yul\":5411:5422   */\n      add\n        /* \"#utility.yul\":5405:5423   */\n      mload\n        /* \"#utility.yul\":5401:5402   */\n      dup2\n        /* \"#utility.yul\":5396:5399   */\n      dup5\n        /* \"#utility.yul\":5392:5403   */\n      add\n        /* \"#utility.yul\":5385:5424   */\n      mstore\n        /* \"#utility.yul\":5357:5359   */\n      0x20\n        /* \"#utility.yul\":5354:5355   */\n      dup2\n        /* \"#utility.yul\":5350:5360   */\n      add\n        /* \"#utility.yul\":5345:5360   */\n      swap1\n      pop\n        /* \"#utility.yul\":5321:5434   */\n      jump(tag_121)\n    tag_123:\n        /* \"#utility.yul\":5452:5458   */\n      dup4\n        /* \"#utility.yul\":5449:5450   */\n      dup2\n        /* \"#utility.yul\":5446:5459   */\n      gt\n        /* \"#utility.yul\":5443:5544   */\n      iszero\n      tag_124\n      jumpi\n        /* \"#utility.yul\":5532:5533   */\n      0x00\n        /* \"#utility.yul\":5523:5529   */\n      dup5\n        /* \"#utility.yul\":5518:5521   */\n      dup5\n        /* \"#utility.yul\":5514:5530   */\n      add\n        /* \"#utility.yul\":5507:5534   */\n      mstore\n        /* \"#utility.yul\":5443:5544   */\n    tag_124:\n        /* \"#utility.yul\":5292:5550   */\n      pop\n        /* \"#utility.yul\":5243:5550   */\n      pop\n      pop\n      pop\n      jump\t// out\n        /* \"#utility.yul\":5679:5796   */\n    tag_58:\n        /* \"#utility.yul\":5788:5789   */\n      0x00\n        /* \"#utility.yul\":5785:5786   */\n      dup1\n        /* \"#utility.yul\":5778:5790   */\n      revert\n        /* \"#utility.yul\":5802:5904   */\n    tag_86:\n        /* \"#utility.yul\":5843:5849   */\n      0x00\n        /* \"#utility.yul\":5894:5896   */\n      0x1f\n        /* \"#utility.yul\":5890:5897   */\n      not\n        /* \"#utility.yul\":5885:5887   */\n      0x1f\n        /* \"#utility.yul\":5878:5883   */\n      dup4\n        /* \"#utility.yul\":5874:5888   */\n      add\n        /* \"#utility.yul\":5870:5898   */\n      and\n        /* \"#utility.yul\":5860:5898   */\n      swap1\n      pop\n        /* \"#utility.yul\":5802:5904   */\n      swap2\n      swap1\n      pop\n      jump\t// out\n        /* \"#utility.yul\":5910:6063   */\n    tag_92:\n        /* \"#utility.yul\":6050:6055   */\n      0x6162630000000000000000000000000000000000000000000000000000000000\n        /* \"#utility.yul\":6046:6047   */\n      0x00\n        /* \"#utility.yul\":6038:6044   */\n      dup3\n        /* \"#utility.yul\":6034:6048   */\n      add\n        /* \"#utility.yul\":6027:6056   */\n      mstore\n        /* \"#utility.yul\":5910:6063   */\n      pop\n      jump\t// out\n        /* \"#utility.yul\":6069:6191   */\n    tag_43:\n        /* \"#utility.yul\":6142:6166   */\n      tag_131\n        /* \"#utility.yul\":6160:6165   */\n      dup2\n        /* \"#utility.yul\":6142:6166   */\n      tag_72\n      jump\t// in\n    tag_131:\n        /* \"#utility.yul\":6135:6140   */\n      dup2\n        /* \"#utility.yul\":6132:6167   */\n      eq\n        /* \"#utility.yul\":6122:6185   */\n      tag_132\n      jumpi\n        /* \"#utility.yul\":6181:6182   */\n      0x00\n        /* \"#utility.yul\":6178:6179   */\n      dup1\n        /* \"#utility.yul\":6171:6183   */\n      revert\n        /* \"#utility.yul\":6122:6185   */\n    tag_132:\n        /* \"#utility.yul\":6069:6191   */\n      pop\n      jump\t// out\n        /* \"#utility.yul\":6197:6335   */\n    tag_47:\n        /* \"#utility.yul\":6278:6310   */\n      tag_134\n        /* \"#utility.yul\":6304:6309   */\n      dup2\n        /* \"#utility.yul\":6278:6310   */\n      tag_114\n      jump\t// in\n    tag_134:\n        /* \"#utility.yul\":6271:6276   */\n      dup2\n        /* \"#utility.yul\":6268:6311   */\n      eq\n        /* \"#utility.yul\":6258:6329   */\n      tag_135\n      jumpi\n        /* \"#utility.yul\":6325:6326   */\n      0x00\n        /* \"#utility.yul\":6322:6323   */\n      dup1\n        /* \"#utility.yul\":6315:6327   */\n      revert\n        /* \"#utility.yul\":6258:6329   */\n    tag_135:\n        /* \"#utility.yul\":6197:6335   */\n      pop\n      jump\t// out\n        /* \"#utility.yul\":6341:6463   */\n    tag_51:\n        /* \"#utility.yul\":6414:6438   */\n      tag_137\n        /* \"#utility.yul\":6432:6437   */\n      dup2\n        /* \"#utility.yul\":6414:6438   */\n      tag_96\n      jump\t// in\n    tag_137:\n        /* \"#utility.yul\":6407:6412   */\n      dup2\n        /* \"#utility.yul\":6404:6439   */\n      eq\n        /* \"#utility.yul\":6394:6457   */\n      tag_138\n      jumpi\n        /* \"#utility.yul\":6453:6454   */\n      0x00\n        /* \"#utility.yul\":6450:6451   */\n      dup1\n        /* \"#utility.yul\":6443:6455   */\n      revert\n        /* \"#utility.yul\":6394:6457   */\n    tag_138:\n        /* \"#utility.yul\":6341:6463   */\n      pop\n      jump\t// out\n\n    auxdata: 0xa26469706673582212202f3525c70f9b6994b74c3d8b3f7395d1f785bd175f8cd07ee268ac459a2bdbe764736f6c63430008070033\n}\n\nsub_1: assembly {\n        /* \"contracts/11_CallContract.sol\":70:950  contract Receiver{... */\n      mstore(0x40, 0x80)\n      callvalue\n      dup1\n      iszero\n      tag_1\n      jumpi\n      0x00\n      dup1\n      revert\n    tag_1:\n      pop\n      dataSize(sub_0)\n      dup1\n      dataOffset(sub_0)\n      0x00\n      codecopy\n      0x00\n      return\n    stop\n\n    sub_0: assembly {\n            /* \"contracts/11_CallContract.sol\":70:950  contract Receiver{... */\n          mstore(0x40, 0x80)\n          jumpi(tag_1, lt(calldatasize, 0x04))\n          shr(0xe0, calldataload(0x00))\n          dup1\n          0x12065fe0\n          eq\n          tag_3\n          jumpi\n          dup1\n          0x24ccab8f\n          eq\n          tag_4\n          jumpi\n          dup1\n          0x38cc4831\n          eq\n          tag_5\n          jumpi\n          jump(tag_2)\n        tag_1:\n          jumpi(tag_2, calldatasize)\n            /* \"contracts/11_CallContract.sol\":318:371  Received(msg.sender,msg.value, \"Received was called\") */\n          0x59e04c3f0d44b7caf6e8ef854b61d9a51cf1960d7a88ff6356cc5e946b4b5832\n            /* \"contracts/11_CallContract.sol\":327:337  msg.sender */\n          caller\n            /* \"contracts/11_CallContract.sol\":338:347  msg.value */\n          callvalue\n            /* \"contracts/11_CallContract.sol\":318:371  Received(msg.sender,msg.value, \"Received was called\") */\n          mload(0x40)\n          tag_8\n          swap3\n          swap2\n          swap1\n          tag_9\n          jump\t// in\n        tag_8:\n          mload(0x40)\n          dup1\n          swap2\n          sub\n          swap1\n          log1\n            /* \"contracts/11_CallContract.sol\":70:950  contract Receiver{... */\n          stop\n        tag_2:\n            /* \"contracts/11_CallContract.sol\":534:587  Received(msg.sender,msg.value, \"Fallback was called\") */\n          0x59e04c3f0d44b7caf6e8ef854b61d9a51cf1960d7a88ff6356cc5e946b4b5832\n            /* \"contracts/11_CallContract.sol\":543:553  msg.sender */\n          caller\n            /* \"contracts/11_CallContract.sol\":554:563  msg.value */\n          callvalue\n            /* \"contracts/11_CallContract.sol\":534:587  Received(msg.sender,msg.value, \"Fallback was called\") */\n          mload(0x40)\n          tag_12\n          swap3\n          swap2\n          swap1\n          tag_13\n          jump\t// in\n        tag_12:\n          mload(0x40)\n          dup1\n          swap2\n          sub\n          swap1\n          log1\n            /* \"contracts/11_CallContract.sol\":70:950  contract Receiver{... */\n          stop\n            /* \"contracts/11_CallContract.sol\":855:947  function getBalance() public view returns(uint){... */\n        tag_3:\n          callvalue\n          dup1\n          iszero\n          tag_14\n          jumpi\n          0x00\n          dup1\n          revert\n        tag_14:\n          pop\n          tag_15\n          tag_16\n          jump\t// in\n        tag_15:\n          mload(0x40)\n          tag_17\n          swap2\n          swap1\n          tag_18\n          jump\t// in\n        tag_17:\n          mload(0x40)\n          dup1\n          swap2\n          sub\n          swap1\n          return\n            /* \"contracts/11_CallContract.sol\":600:755  function foo(string memory _message, uint _y) public payable returns(uint){... */\n        tag_4:\n          tag_19\n          0x04\n          dup1\n          calldatasize\n          sub\n          dup2\n          add\n          swap1\n          tag_20\n          swap2\n          swap1\n          tag_21\n          jump\t// in\n        tag_20:\n          tag_22\n          jump\t// in\n        tag_19:\n          mload(0x40)\n          tag_23\n          swap2\n          swap1\n          tag_18\n          jump\t// in\n        tag_23:\n          mload(0x40)\n          dup1\n          swap2\n          sub\n          swap1\n          return\n            /* \"contracts/11_CallContract.sol\":762:849  function getAddress() public view returns(address){... */\n        tag_5:\n          callvalue\n          dup1\n          iszero\n          tag_24\n          jumpi\n          0x00\n          dup1\n          revert\n        tag_24:\n          pop\n          tag_25\n          tag_26\n          jump\t// in\n        tag_25:\n          mload(0x40)\n          tag_27\n          swap2\n          swap1\n          tag_28\n          jump\t// in\n        tag_27:\n          mload(0x40)\n          dup1\n          swap2\n          sub\n          swap1\n          return\n            /* \"contracts/11_CallContract.sol\":855:947  function getBalance() public view returns(uint){... */\n        tag_16:\n            /* \"contracts/11_CallContract.sol\":897:901  uint */\n          0x00\n            /* \"contracts/11_CallContract.sol\":919:940  address(this).balance */\n          selfbalance\n            /* \"contracts/11_CallContract.sol\":912:940  return address(this).balance */\n          swap1\n          pop\n            /* \"contracts/11_CallContract.sol\":855:947  function getBalance() public view returns(uint){... */\n          swap1\n          jump\t// out\n            /* \"contracts/11_CallContract.sol\":600:755  function foo(string memory _message, uint _y) public payable returns(uint){... */\n        tag_22:\n            /* \"contracts/11_CallContract.sol\":669:673  uint */\n          0x00\n            /* \"contracts/11_CallContract.sol\":689:729  Received(msg.sender,msg.value, _message) */\n          0x59e04c3f0d44b7caf6e8ef854b61d9a51cf1960d7a88ff6356cc5e946b4b5832\n            /* \"contracts/11_CallContract.sol\":698:708  msg.sender */\n          caller\n            /* \"contracts/11_CallContract.sol\":709:718  msg.value */\n          callvalue\n            /* \"contracts/11_CallContract.sol\":720:728  _message */\n          dup6\n            /* \"contracts/11_CallContract.sol\":689:729  Received(msg.sender,msg.value, _message) */\n          mload(0x40)\n          tag_31\n          swap4\n          swap3\n          swap2\n          swap1\n          tag_32\n          jump\t// in\n        tag_31:\n          mload(0x40)\n          dup1\n          swap2\n          sub\n          swap1\n          log1\n            /* \"contracts/11_CallContract.sol\":746:748  _y */\n          dup2\n            /* \"contracts/11_CallContract.sol\":739:748  return _y */\n          swap1\n          pop\n            /* \"contracts/11_CallContract.sol\":600:755  function foo(string memory _message, uint _y) public payable returns(uint){... */\n          swap3\n          swap2\n          pop\n          pop\n          jump\t// out\n            /* \"contracts/11_CallContract.sol\":762:849  function getAddress() public view returns(address){... */\n        tag_26:\n            /* \"contracts/11_CallContract.sol\":804:811  address */\n          0x00\n            /* \"contracts/11_CallContract.sol\":837:841  this */\n          address\n            /* \"contracts/11_CallContract.sol\":822:842  return address(this) */\n          swap1\n          pop\n            /* \"contracts/11_CallContract.sol\":762:849  function getAddress() public view returns(address){... */\n          swap1\n          jump\t// out\n            /* \"#utility.yul\":7:419   */\n        tag_35:\n            /* \"#utility.yul\":85:90   */\n          0x00\n            /* \"#utility.yul\":110:176   */\n          tag_37\n            /* \"#utility.yul\":126:175   */\n          tag_38\n            /* \"#utility.yul\":168:174   */\n          dup5\n            /* \"#utility.yul\":126:175   */\n          tag_39\n          jump\t// in\n        tag_38:\n            /* \"#utility.yul\":110:176   */\n          tag_40\n          jump\t// in\n        tag_37:\n            /* \"#utility.yul\":101:176   */\n          swap1\n          pop\n            /* \"#utility.yul\":199:205   */\n          dup3\n            /* \"#utility.yul\":192:197   */\n          dup2\n            /* \"#utility.yul\":185:206   */\n          mstore\n            /* \"#utility.yul\":237:241   */\n          0x20\n            /* \"#utility.yul\":230:235   */\n          dup2\n            /* \"#utility.yul\":226:242   */\n          add\n            /* \"#utility.yul\":275:278   */\n          dup5\n            /* \"#utility.yul\":266:272   */\n          dup5\n            /* \"#utility.yul\":261:264   */\n          dup5\n            /* \"#utility.yul\":257:273   */\n          add\n            /* \"#utility.yul\":254:279   */\n          gt\n            /* \"#utility.yul\":251:363   */\n          iszero\n          tag_41\n          jumpi\n            /* \"#utility.yul\":282:361   */\n          tag_42\n          tag_43\n          jump\t// in\n        tag_42:\n            /* \"#utility.yul\":251:363   */\n        tag_41:\n            /* \"#utility.yul\":372:413   */\n          tag_44\n            /* \"#utility.yul\":406:412   */\n          dup5\n            /* \"#utility.yul\":401:404   */\n          dup3\n            /* \"#utility.yul\":396:399   */\n          dup6\n            /* \"#utility.yul\":372:413   */\n          tag_45\n          jump\t// in\n        tag_44:\n            /* \"#utility.yul\":91:419   */\n          pop\n            /* \"#utility.yul\":7:419   */\n          swap4\n          swap3\n          pop\n          pop\n          pop\n          jump\t// out\n            /* \"#utility.yul\":439:779   */\n        tag_46:\n            /* \"#utility.yul\":495:500   */\n          0x00\n            /* \"#utility.yul\":544:547   */\n          dup3\n            /* \"#utility.yul\":537:541   */\n          0x1f\n            /* \"#utility.yul\":529:535   */\n          dup4\n            /* \"#utility.yul\":525:542   */\n          add\n            /* \"#utility.yul\":521:548   */\n          slt\n            /* \"#utility.yul\":511:633   */\n          tag_48\n          jumpi\n            /* \"#utility.yul\":552:631   */\n          tag_49\n          tag_50\n          jump\t// in\n        tag_49:\n            /* \"#utility.yul\":511:633   */\n        tag_48:\n            /* \"#utility.yul\":669:675   */\n          dup2\n            /* \"#utility.yul\":656:676   */\n          calldataload\n            /* \"#utility.yul\":694:773   */\n          tag_51\n            /* \"#utility.yul\":769:772   */\n          dup5\n            /* \"#utility.yul\":761:767   */\n          dup3\n            /* \"#utility.yul\":754:758   */\n          0x20\n            /* \"#utility.yul\":746:752   */\n          dup7\n            /* \"#utility.yul\":742:759   */\n          add\n            /* \"#utility.yul\":694:773   */\n          tag_35\n          jump\t// in\n        tag_51:\n            /* \"#utility.yul\":685:773   */\n          swap2\n          pop\n            /* \"#utility.yul\":501:779   */\n          pop\n            /* \"#utility.yul\":439:779   */\n          swap3\n          swap2\n          pop\n          pop\n          jump\t// out\n            /* \"#utility.yul\":785:924   */\n        tag_52:\n            /* \"#utility.yul\":831:836   */\n          0x00\n            /* \"#utility.yul\":869:875   */\n          dup2\n            /* \"#utility.yul\":856:876   */\n          calldataload\n            /* \"#utility.yul\":847:876   */\n          swap1\n          pop\n            /* \"#utility.yul\":885:918   */\n          tag_54\n            /* \"#utility.yul\":912:917   */\n          dup2\n            /* \"#utility.yul\":885:918   */\n          tag_55\n          jump\t// in\n        tag_54:\n            /* \"#utility.yul\":785:924   */\n          swap3\n          swap2\n          pop\n          pop\n          jump\t// out\n            /* \"#utility.yul\":930:1584   */\n        tag_21:\n            /* \"#utility.yul\":1008:1014   */\n          0x00\n            /* \"#utility.yul\":1016:1022   */\n          dup1\n            /* \"#utility.yul\":1065:1067   */\n          0x40\n            /* \"#utility.yul\":1053:1062   */\n          dup4\n            /* \"#utility.yul\":1044:1051   */\n          dup6\n            /* \"#utility.yul\":1040:1063   */\n          sub\n            /* \"#utility.yul\":1036:1068   */\n          slt\n            /* \"#utility.yul\":1033:1152   */\n          iszero\n          tag_57\n          jumpi\n            /* \"#utility.yul\":1071:1150   */\n          tag_58\n          tag_59\n          jump\t// in\n        tag_58:\n            /* \"#utility.yul\":1033:1152   */\n        tag_57:\n            /* \"#utility.yul\":1219:1220   */\n          0x00\n            /* \"#utility.yul\":1208:1217   */\n          dup4\n            /* \"#utility.yul\":1204:1221   */\n          add\n            /* \"#utility.yul\":1191:1222   */\n          calldataload\n            /* \"#utility.yul\":1249:1267   */\n          0xffffffffffffffff\n            /* \"#utility.yul\":1241:1247   */\n          dup2\n            /* \"#utility.yul\":1238:1268   */\n          gt\n            /* \"#utility.yul\":1235:1352   */\n          iszero\n          tag_60\n          jumpi\n            /* \"#utility.yul\":1271:1350   */\n          tag_61\n          tag_62\n          jump\t// in\n        tag_61:\n            /* \"#utility.yul\":1235:1352   */\n        tag_60:\n            /* \"#utility.yul\":1376:1439   */\n          tag_63\n            /* \"#utility.yul\":1431:1438   */\n          dup6\n            /* \"#utility.yul\":1422:1428   */\n          dup3\n            /* \"#utility.yul\":1411:1420   */\n          dup7\n            /* \"#utility.yul\":1407:1429   */\n          add\n            /* \"#utility.yul\":1376:1439   */\n          tag_46\n          jump\t// in\n        tag_63:\n            /* \"#utility.yul\":1366:1439   */\n          swap3\n          pop\n            /* \"#utility.yul\":1162:1449   */\n          pop\n            /* \"#utility.yul\":1488:1490   */\n          0x20\n            /* \"#utility.yul\":1514:1567   */\n          tag_64\n            /* \"#utility.yul\":1559:1566   */\n          dup6\n            /* \"#utility.yul\":1550:1556   */\n          dup3\n            /* \"#utility.yul\":1539:1548   */\n          dup7\n            /* \"#utility.yul\":1535:1557   */\n          add\n            /* \"#utility.yul\":1514:1567   */\n          tag_52\n          jump\t// in\n        tag_64:\n            /* \"#utility.yul\":1504:1567   */\n          swap2\n          pop\n            /* \"#utility.yul\":1459:1577   */\n          pop\n            /* \"#utility.yul\":930:1584   */\n          swap3\n          pop\n          swap3\n          swap1\n          pop\n          jump\t// out\n            /* \"#utility.yul\":1590:1708   */\n        tag_65:\n            /* \"#utility.yul\":1677:1701   */\n          tag_67\n            /* \"#utility.yul\":1695:1700   */\n          dup2\n            /* \"#utility.yul\":1677:1701   */\n          tag_68\n          jump\t// in\n        tag_67:\n            /* \"#utility.yul\":1672:1675   */\n          dup3\n            /* \"#utility.yul\":1665:1702   */\n          mstore\n            /* \"#utility.yul\":1590:1708   */\n          pop\n          pop\n          jump\t// out\n            /* \"#utility.yul\":1714:2078   */\n        tag_69:\n            /* \"#utility.yul\":1802:1805   */\n          0x00\n            /* \"#utility.yul\":1830:1869   */\n          tag_71\n            /* \"#utility.yul\":1863:1868   */\n          dup3\n            /* \"#utility.yul\":1830:1869   */\n          tag_72\n          jump\t// in\n        tag_71:\n            /* \"#utility.yul\":1885:1956   */\n          tag_73\n            /* \"#utility.yul\":1949:1955   */\n          dup2\n            /* \"#utility.yul\":1944:1947   */\n          dup6\n            /* \"#utility.yul\":1885:1956   */\n          tag_74\n          jump\t// in\n        tag_73:\n            /* \"#utility.yul\":1878:1956   */\n          swap4\n          pop\n            /* \"#utility.yul\":1965:2017   */\n          tag_75\n            /* \"#utility.yul\":2010:2016   */\n          dup2\n            /* \"#utility.yul\":2005:2008   */\n          dup6\n            /* \"#utility.yul\":1998:2002   */\n          0x20\n            /* \"#utility.yul\":1991:1996   */\n          dup7\n            /* \"#utility.yul\":1987:2003   */\n          add\n            /* \"#utility.yul\":1965:2017   */\n          tag_76\n          jump\t// in\n        tag_75:\n            /* \"#utility.yul\":2042:2071   */\n          tag_77\n            /* \"#utility.yul\":2064:2070   */\n          dup2\n            /* \"#utility.yul\":2042:2071   */\n          tag_78\n          jump\t// in\n        tag_77:\n            /* \"#utility.yul\":2037:2040   */\n          dup5\n            /* \"#utility.yul\":2033:2072   */\n          add\n            /* \"#utility.yul\":2026:2072   */\n          swap2\n          pop\n            /* \"#utility.yul\":1806:2078   */\n          pop\n            /* \"#utility.yul\":1714:2078   */\n          swap3\n          swap2\n          pop\n          pop\n          jump\t// out\n            /* \"#utility.yul\":2084:2450   */\n        tag_79:\n            /* \"#utility.yul\":2226:2229   */\n          0x00\n            /* \"#utility.yul\":2247:2314   */\n          tag_81\n            /* \"#utility.yul\":2311:2313   */\n          0x13\n            /* \"#utility.yul\":2306:2309   */\n          dup4\n            /* \"#utility.yul\":2247:2314   */\n          tag_74\n          jump\t// in\n        tag_81:\n            /* \"#utility.yul\":2240:2314   */\n          swap2\n          pop\n            /* \"#utility.yul\":2323:2416   */\n          tag_82\n            /* \"#utility.yul\":2412:2415   */\n          dup3\n            /* \"#utility.yul\":2323:2416   */\n          tag_83\n          jump\t// in\n        tag_82:\n            /* \"#utility.yul\":2441:2443   */\n          0x20\n            /* \"#utility.yul\":2436:2439   */\n          dup3\n            /* \"#utility.yul\":2432:2444   */\n          add\n            /* \"#utility.yul\":2425:2444   */\n          swap1\n          pop\n            /* \"#utility.yul\":2084:2450   */\n          swap2\n          swap1\n          pop\n          jump\t// out\n            /* \"#utility.yul\":2456:2822   */\n        tag_84:\n            /* \"#utility.yul\":2598:2601   */\n          0x00\n            /* \"#utility.yul\":2619:2686   */\n          tag_86\n            /* \"#utility.yul\":2683:2685   */\n          0x13\n            /* \"#utility.yul\":2678:2681   */\n          dup4\n            /* \"#utility.yul\":2619:2686   */\n          tag_74\n          jump\t// in\n        tag_86:\n            /* \"#utility.yul\":2612:2686   */\n          swap2\n          pop\n            /* \"#utility.yul\":2695:2788   */\n          tag_87\n            /* \"#utility.yul\":2784:2787   */\n          dup3\n            /* \"#utility.yul\":2695:2788   */\n          tag_88\n          jump\t// in\n        tag_87:\n            /* \"#utility.yul\":2813:2815   */\n          0x20\n            /* \"#utility.yul\":2808:2811   */\n          dup3\n            /* \"#utility.yul\":2804:2816   */\n          add\n            /* \"#utility.yul\":2797:2816   */\n          swap1\n          pop\n            /* \"#utility.yul\":2456:2822   */\n          swap2\n          swap1\n          pop\n          jump\t// out\n            /* \"#utility.yul\":2828:2946   */\n        tag_89:\n            /* \"#utility.yul\":2915:2939   */\n          tag_91\n            /* \"#utility.yul\":2933:2938   */\n          dup2\n            /* \"#utility.yul\":2915:2939   */\n          tag_92\n          jump\t// in\n        tag_91:\n            /* \"#utility.yul\":2910:2913   */\n          dup3\n            /* \"#utility.yul\":2903:2940   */\n          mstore\n            /* \"#utility.yul\":2828:2946   */\n          pop\n          pop\n          jump\t// out\n            /* \"#utility.yul\":2952:3174   */\n        tag_28:\n            /* \"#utility.yul\":3045:3049   */\n          0x00\n            /* \"#utility.yul\":3083:3085   */\n          0x20\n            /* \"#utility.yul\":3072:3081   */\n          dup3\n            /* \"#utility.yul\":3068:3086   */\n          add\n            /* \"#utility.yul\":3060:3086   */\n          swap1\n          pop\n            /* \"#utility.yul\":3096:3167   */\n          tag_94\n            /* \"#utility.yul\":3164:3165   */\n          0x00\n            /* \"#utility.yul\":3153:3162   */\n          dup4\n            /* \"#utility.yul\":3149:3166   */\n          add\n            /* \"#utility.yul\":3140:3146   */\n          dup5\n            /* \"#utility.yul\":3096:3167   */\n          tag_65\n          jump\t// in\n        tag_94:\n            /* \"#utility.yul\":2952:3174   */\n          swap3\n          swap2\n          pop\n          pop\n          jump\t// out\n            /* \"#utility.yul\":3180:3713   */\n        tag_32:\n            /* \"#utility.yul\":3349:3353   */\n          0x00\n            /* \"#utility.yul\":3387:3389   */\n          0x60\n            /* \"#utility.yul\":3376:3385   */\n          dup3\n            /* \"#utility.yul\":3372:3390   */\n          add\n            /* \"#utility.yul\":3364:3390   */\n          swap1\n          pop\n            /* \"#utility.yul\":3400:3471   */\n          tag_96\n            /* \"#utility.yul\":3468:3469   */\n          0x00\n            /* \"#utility.yul\":3457:3466   */\n          dup4\n            /* \"#utility.yul\":3453:3470   */\n          add\n            /* \"#utility.yul\":3444:3450   */\n          dup7\n            /* \"#utility.yul\":3400:3471   */\n          tag_65\n          jump\t// in\n        tag_96:\n            /* \"#utility.yul\":3481:3553   */\n          tag_97\n            /* \"#utility.yul\":3549:3551   */\n          0x20\n            /* \"#utility.yul\":3538:3547   */\n          dup4\n            /* \"#utility.yul\":3534:3552   */\n          add\n            /* \"#utility.yul\":3525:3531   */\n          dup6\n            /* \"#utility.yul\":3481:3553   */\n          tag_89\n          jump\t// in\n        tag_97:\n            /* \"#utility.yul\":3600:3609   */\n          dup2\n            /* \"#utility.yul\":3594:3598   */\n          dup2\n            /* \"#utility.yul\":3590:3610   */\n          sub\n            /* \"#utility.yul\":3585:3587   */\n          0x40\n            /* \"#utility.yul\":3574:3583   */\n          dup4\n            /* \"#utility.yul\":3570:3588   */\n          add\n            /* \"#utility.yul\":3563:3611   */\n          mstore\n            /* \"#utility.yul\":3628:3706   */\n          tag_98\n            /* \"#utility.yul\":3701:3705   */\n          dup2\n            /* \"#utility.yul\":3692:3698   */\n          dup5\n            /* \"#utility.yul\":3628:3706   */\n          tag_69\n          jump\t// in\n        tag_98:\n            /* \"#utility.yul\":3620:3706   */\n          swap1\n          pop\n            /* \"#utility.yul\":3180:3713   */\n          swap5\n          swap4\n          pop\n          pop\n          pop\n          pop\n          jump\t// out\n            /* \"#utility.yul\":3719:4358   */\n        tag_13:\n            /* \"#utility.yul\":3941:3945   */\n          0x00\n            /* \"#utility.yul\":3979:3981   */\n          0x60\n            /* \"#utility.yul\":3968:3977   */\n          dup3\n            /* \"#utility.yul\":3964:3982   */\n          add\n            /* \"#utility.yul\":3956:3982   */\n          swap1\n          pop\n            /* \"#utility.yul\":3992:4063   */\n          tag_100\n            /* \"#utility.yul\":4060:4061   */\n          0x00\n            /* \"#utility.yul\":4049:4058   */\n          dup4\n            /* \"#utility.yul\":4045:4062   */\n          add\n            /* \"#utility.yul\":4036:4042   */\n          dup6\n            /* \"#utility.yul\":3992:4063   */\n          tag_65\n          jump\t// in\n        tag_100:\n            /* \"#utility.yul\":4073:4145   */\n          tag_101\n            /* \"#utility.yul\":4141:4143   */\n          0x20\n            /* \"#utility.yul\":4130:4139   */\n          dup4\n            /* \"#utility.yul\":4126:4144   */\n          add\n            /* \"#utility.yul\":4117:4123   */\n          dup5\n            /* \"#utility.yul\":4073:4145   */\n          tag_89\n          jump\t// in\n        tag_101:\n            /* \"#utility.yul\":4192:4201   */\n          dup2\n            /* \"#utility.yul\":4186:4190   */\n          dup2\n            /* \"#utility.yul\":4182:4202   */\n          sub\n            /* \"#utility.yul\":4177:4179   */\n          0x40\n            /* \"#utility.yul\":4166:4175   */\n          dup4\n            /* \"#utility.yul\":4162:4180   */\n          add\n            /* \"#utility.yul\":4155:4203   */\n          mstore\n            /* \"#utility.yul\":4220:4351   */\n          tag_102\n            /* \"#utility.yul\":4346:4350   */\n          dup2\n            /* \"#utility.yul\":4220:4351   */\n          tag_79\n          jump\t// in\n        tag_102:\n            /* \"#utility.yul\":4212:4351   */\n          swap1\n          pop\n            /* \"#utility.yul\":3719:4358   */\n          swap4\n          swap3\n          pop\n          pop\n          pop\n          jump\t// out\n            /* \"#utility.yul\":4364:5003   */\n        tag_9:\n            /* \"#utility.yul\":4586:4590   */\n          0x00\n            /* \"#utility.yul\":4624:4626   */\n          0x60\n            /* \"#utility.yul\":4613:4622   */\n          dup3\n            /* \"#utility.yul\":4609:4627   */\n          add\n            /* \"#utility.yul\":4601:4627   */\n          swap1\n          pop\n            /* \"#utility.yul\":4637:4708   */\n          tag_104\n            /* \"#utility.yul\":4705:4706   */\n          0x00\n            /* \"#utility.yul\":4694:4703   */\n          dup4\n            /* \"#utility.yul\":4690:4707   */\n          add\n            /* \"#utility.yul\":4681:4687   */\n          dup6\n            /* \"#utility.yul\":4637:4708   */\n          tag_65\n          jump\t// in\n        tag_104:\n            /* \"#utility.yul\":4718:4790   */\n          tag_105\n            /* \"#utility.yul\":4786:4788   */\n          0x20\n            /* \"#utility.yul\":4775:4784   */\n          dup4\n            /* \"#utility.yul\":4771:4789   */\n          add\n            /* \"#utility.yul\":4762:4768   */\n          dup5\n            /* \"#utility.yul\":4718:4790   */\n          tag_89\n          jump\t// in\n        tag_105:\n            /* \"#utility.yul\":4837:4846   */\n          dup2\n            /* \"#utility.yul\":4831:4835   */\n          dup2\n            /* \"#utility.yul\":4827:4847   */\n          sub\n            /* \"#utility.yul\":4822:4824   */\n          0x40\n            /* \"#utility.yul\":4811:4820   */\n          dup4\n            /* \"#utility.yul\":4807:4825   */\n          add\n            /* \"#utility.yul\":4800:4848   */\n          mstore\n            /* \"#utility.yul\":4865:4996   */\n          tag_106\n            /* \"#utility.yul\":4991:4995   */\n          dup2\n            /* \"#utility.yul\":4865:4996   */\n          tag_84\n          jump\t// in\n        tag_106:\n            /* \"#utility.yul\":4857:4996   */\n          swap1\n          pop\n            /* \"#utility.yul\":4364:5003   */\n          swap4\n          swap3\n          pop\n          pop\n          pop\n          jump\t// out\n            /* \"#utility.yul\":5009:5231   */\n        tag_18:\n            /* \"#utility.yul\":5102:5106   */\n          0x00\n            /* \"#utility.yul\":5140:5142   */\n          0x20\n            /* \"#utility.yul\":5129:5138   */\n          dup3\n            /* \"#utility.yul\":5125:5143   */\n          add\n            /* \"#utility.yul\":5117:5143   */\n          swap1\n          pop\n            /* \"#utility.yul\":5153:5224   */\n          tag_108\n            /* \"#utility.yul\":5221:5222   */\n          0x00\n            /* \"#utility.yul\":5210:5219   */\n          dup4\n            /* \"#utility.yul\":5206:5223   */\n          add\n            /* \"#utility.yul\":5197:5203   */\n          dup5\n            /* \"#utility.yul\":5153:5224   */\n          tag_89\n          jump\t// in\n        tag_108:\n            /* \"#utility.yul\":5009:5231   */\n          swap3\n          swap2\n          pop\n          pop\n          jump\t// out\n            /* \"#utility.yul\":5237:5366   */\n        tag_40:\n            /* \"#utility.yul\":5271:5277   */\n          0x00\n            /* \"#utility.yul\":5298:5318   */\n          tag_110\n          tag_111\n          jump\t// in\n        tag_110:\n            /* \"#utility.yul\":5288:5318   */\n          swap1\n          pop\n            /* \"#utility.yul\":5327:5360   */\n          tag_112\n            /* \"#utility.yul\":5355:5359   */\n          dup3\n            /* \"#utility.yul\":5347:5353   */\n          dup3\n            /* \"#utility.yul\":5327:5360   */\n          tag_113\n          jump\t// in\n        tag_112:\n            /* \"#utility.yul\":5237:5366   */\n          swap2\n          swap1\n          pop\n          jump\t// out\n            /* \"#utility.yul\":5372:5447   */\n        tag_111:\n            /* \"#utility.yul\":5405:5411   */\n          0x00\n            /* \"#utility.yul\":5438:5440   */\n          0x40\n            /* \"#utility.yul\":5432:5441   */\n          mload\n            /* \"#utility.yul\":5422:5441   */\n          swap1\n          pop\n            /* \"#utility.yul\":5372:5447   */\n          swap1\n          jump\t// out\n            /* \"#utility.yul\":5453:5761   */\n        tag_39:\n            /* \"#utility.yul\":5515:5519   */\n          0x00\n            /* \"#utility.yul\":5605:5623   */\n          0xffffffffffffffff\n            /* \"#utility.yul\":5597:5603   */\n          dup3\n            /* \"#utility.yul\":5594:5624   */\n          gt\n            /* \"#utility.yul\":5591:5647   */\n          iszero\n          tag_116\n          jumpi\n            /* \"#utility.yul\":5627:5645   */\n          tag_117\n          tag_118\n          jump\t// in\n        tag_117:\n            /* \"#utility.yul\":5591:5647   */\n        tag_116:\n            /* \"#utility.yul\":5665:5694   */\n          tag_119\n            /* \"#utility.yul\":5687:5693   */\n          dup3\n            /* \"#utility.yul\":5665:5694   */\n          tag_78\n          jump\t// in\n        tag_119:\n            /* \"#utility.yul\":5657:5694   */\n          swap1\n          pop\n            /* \"#utility.yul\":5749:5753   */\n          0x20\n            /* \"#utility.yul\":5743:5747   */\n          dup2\n            /* \"#utility.yul\":5739:5754   */\n          add\n            /* \"#utility.yul\":5731:5754   */\n          swap1\n          pop\n            /* \"#utility.yul\":5453:5761   */\n          swap2\n          swap1\n          pop\n          jump\t// out\n            /* \"#utility.yul\":5767:5866   */\n        tag_72:\n            /* \"#utility.yul\":5819:5825   */\n          0x00\n            /* \"#utility.yul\":5853:5858   */\n          dup2\n            /* \"#utility.yul\":5847:5859   */\n          mload\n            /* \"#utility.yul\":5837:5859   */\n          swap1\n          pop\n            /* \"#utility.yul\":5767:5866   */\n          swap2\n          swap1\n          pop\n          jump\t// out\n            /* \"#utility.yul\":5872:6041   */\n        tag_74:\n            /* \"#utility.yul\":5956:5967   */\n          0x00\n            /* \"#utility.yul\":5990:5996   */\n          dup3\n            /* \"#utility.yul\":5985:5988   */\n          dup3\n            /* \"#utility.yul\":5978:5997   */\n          mstore\n            /* \"#utility.yul\":6030:6034   */\n          0x20\n            /* \"#utility.yul\":6025:6028   */\n          dup3\n            /* \"#utility.yul\":6021:6035   */\n          add\n            /* \"#utility.yul\":6006:6035   */\n          swap1\n          pop\n            /* \"#utility.yul\":5872:6041   */\n          swap3\n          swap2\n          pop\n          pop\n          jump\t// out\n            /* \"#utility.yul\":6047:6143   */\n        tag_68:\n            /* \"#utility.yul\":6084:6091   */\n          0x00\n            /* \"#utility.yul\":6113:6137   */\n          tag_123\n            /* \"#utility.yul\":6131:6136   */\n          dup3\n            /* \"#utility.yul\":6113:6137   */\n          tag_124\n          jump\t// in\n        tag_123:\n            /* \"#utility.yul\":6102:6137   */\n          swap1\n          pop\n            /* \"#utility.yul\":6047:6143   */\n          swap2\n          swap1\n          pop\n          jump\t// out\n            /* \"#utility.yul\":6149:6275   */\n        tag_124:\n            /* \"#utility.yul\":6186:6193   */\n          0x00\n            /* \"#utility.yul\":6226:6268   */\n          0xffffffffffffffffffffffffffffffffffffffff\n            /* \"#utility.yul\":6219:6224   */\n          dup3\n            /* \"#utility.yul\":6215:6269   */\n          and\n            /* \"#utility.yul\":6204:6269   */\n          swap1\n          pop\n            /* \"#utility.yul\":6149:6275   */\n          swap2\n          swap1\n          pop\n          jump\t// out\n            /* \"#utility.yul\":6281:6358   */\n        tag_92:\n            /* \"#utility.yul\":6318:6325   */\n          0x00\n            /* \"#utility.yul\":6347:6352   */\n          dup2\n            /* \"#utility.yul\":6336:6352   */\n          swap1\n          pop\n            /* \"#utility.yul\":6281:6358   */\n          swap2\n          swap1\n          pop\n          jump\t// out\n            /* \"#utility.yul\":6364:6518   */\n        tag_45:\n            /* \"#utility.yul\":6448:6454   */\n          dup3\n            /* \"#utility.yul\":6443:6446   */\n          dup2\n            /* \"#utility.yul\":6438:6441   */\n          dup4\n            /* \"#utility.yul\":6425:6455   */\n          calldatacopy\n            /* \"#utility.yul\":6510:6511   */\n          0x00\n            /* \"#utility.yul\":6501:6507   */\n          dup4\n            /* \"#utility.yul\":6496:6499   */\n          dup4\n            /* \"#utility.yul\":6492:6508   */\n          add\n            /* \"#utility.yul\":6485:6512   */\n          mstore\n            /* \"#utility.yul\":6364:6518   */\n          pop\n          pop\n          pop\n          jump\t// out\n            /* \"#utility.yul\":6524:6831   */\n        tag_76:\n            /* \"#utility.yul\":6592:6593   */\n          0x00\n            /* \"#utility.yul\":6602:6715   */\n        tag_129:\n            /* \"#utility.yul\":6616:6622   */\n          dup4\n            /* \"#utility.yul\":6613:6614   */\n          dup2\n            /* \"#utility.yul\":6610:6623   */\n          lt\n            /* \"#utility.yul\":6602:6715   */\n          iszero\n          tag_131\n          jumpi\n            /* \"#utility.yul\":6701:6702   */\n          dup1\n            /* \"#utility.yul\":6696:6699   */\n          dup3\n            /* \"#utility.yul\":6692:6703   */\n          add\n            /* \"#utility.yul\":6686:6704   */\n          mload\n            /* \"#utility.yul\":6682:6683   */\n          dup2\n            /* \"#utility.yul\":6677:6680   */\n          dup5\n            /* \"#utility.yul\":6673:6684   */\n          add\n            /* \"#utility.yul\":6666:6705   */\n          mstore\n            /* \"#utility.yul\":6638:6640   */\n          0x20\n            /* \"#utility.yul\":6635:6636   */\n          dup2\n            /* \"#utility.yul\":6631:6641   */\n          add\n            /* \"#utility.yul\":6626:6641   */\n          swap1\n          pop\n            /* \"#utility.yul\":6602:6715   */\n          jump(tag_129)\n        tag_131:\n            /* \"#utility.yul\":6733:6739   */\n          dup4\n            /* \"#utility.yul\":6730:6731   */\n          dup2\n            /* \"#utility.yul\":6727:6740   */\n          gt\n            /* \"#utility.yul\":6724:6825   */\n          iszero\n          tag_132\n          jumpi\n            /* \"#utility.yul\":6813:6814   */\n          0x00\n            /* \"#utility.yul\":6804:6810   */\n          dup5\n            /* \"#utility.yul\":6799:6802   */\n          dup5\n            /* \"#utility.yul\":6795:6811   */\n          add\n            /* \"#utility.yul\":6788:6815   */\n          mstore\n            /* \"#utility.yul\":6724:6825   */\n        tag_132:\n            /* \"#utility.yul\":6573:6831   */\n          pop\n            /* \"#utility.yul\":6524:6831   */\n          pop\n          pop\n          pop\n          jump\t// out\n            /* \"#utility.yul\":6837:7118   */\n        tag_113:\n            /* \"#utility.yul\":6920:6947   */\n          tag_134\n            /* \"#utility.yul\":6942:6946   */\n          dup3\n            /* \"#utility.yul\":6920:6947   */\n          tag_78\n          jump\t// in\n        tag_134:\n            /* \"#utility.yul\":6912:6918   */\n          dup2\n            /* \"#utility.yul\":6908:6948   */\n          add\n            /* \"#utility.yul\":7050:7056   */\n          dup2\n            /* \"#utility.yul\":7038:7048   */\n          dup2\n            /* \"#utility.yul\":7035:7057   */\n          lt\n            /* \"#utility.yul\":7014:7032   */\n          0xffffffffffffffff\n            /* \"#utility.yul\":7002:7012   */\n          dup3\n            /* \"#utility.yul\":6999:7033   */\n          gt\n            /* \"#utility.yul\":6996:7058   */\n          or\n            /* \"#utility.yul\":6993:7081   */\n          iszero\n          tag_135\n          jumpi\n            /* \"#utility.yul\":7061:7079   */\n          tag_136\n          tag_118\n          jump\t// in\n        tag_136:\n            /* \"#utility.yul\":6993:7081   */\n        tag_135:\n            /* \"#utility.yul\":7101:7111   */\n          dup1\n            /* \"#utility.yul\":7097:7099   */\n          0x40\n            /* \"#utility.yul\":7090:7112   */\n          mstore\n            /* \"#utility.yul\":6880:7118   */\n          pop\n            /* \"#utility.yul\":6837:7118   */\n          pop\n          pop\n          jump\t// out\n            /* \"#utility.yul\":7124:7304   */\n        tag_118:\n            /* \"#utility.yul\":7172:7249   */\n          0x4e487b7100000000000000000000000000000000000000000000000000000000\n            /* \"#utility.yul\":7169:7170   */\n          0x00\n            /* \"#utility.yul\":7162:7250   */\n          mstore\n            /* \"#utility.yul\":7269:7273   */\n          0x41\n            /* \"#utility.yul\":7266:7267   */\n          0x04\n            /* \"#utility.yul\":7259:7274   */\n          mstore\n            /* \"#utility.yul\":7293:7297   */\n          0x24\n            /* \"#utility.yul\":7290:7291   */\n          0x00\n            /* \"#utility.yul\":7283:7298   */\n          revert\n            /* \"#utility.yul\":7310:7427   */\n        tag_50:\n            /* \"#utility.yul\":7419:7420   */\n          0x00\n            /* \"#utility.yul\":7416:7417   */\n          dup1\n            /* \"#utility.yul\":7409:7421   */\n          revert\n            /* \"#utility.yul\":7433:7550   */\n        tag_43:\n            /* \"#utility.yul\":7542:7543   */\n          0x00\n            /* \"#utility.yul\":7539:7540   */\n          dup1\n            /* \"#utility.yul\":7532:7544   */\n          revert\n            /* \"#utility.yul\":7556:7673   */\n        tag_62:\n            /* \"#utility.yul\":7665:7666   */\n          0x00\n            /* \"#utility.yul\":7662:7663   */\n          dup1\n            /* \"#utility.yul\":7655:7667   */\n          revert\n            /* \"#utility.yul\":7679:7796   */\n        tag_59:\n            /* \"#utility.yul\":7788:7789   */\n          0x00\n            /* \"#utility.yul\":7785:7786   */\n          dup1\n            /* \"#utility.yul\":7778:7790   */\n          revert\n            /* \"#utility.yul\":7802:7904   */\n        tag_78:\n            /* \"#utility.yul\":7843:7849   */\n          0x00\n            /* \"#utility.yul\":7894:7896   */\n          0x1f\n            /* \"#utility.yul\":7890:7897   */\n          not\n            /* \"#utility.yul\":7885:7887   */\n          0x1f\n            /* \"#utility.yul\":7878:7883   */\n          dup4\n            /* \"#utility.yul\":7874:7888   */\n          add\n            /* \"#utility.yul\":7870:7898   */\n          and\n            /* \"#utility.yul\":7860:7898   */\n          swap1\n          pop\n            /* \"#utility.yul\":7802:7904   */\n          swap2\n          swap1\n          pop\n          jump\t// out\n            /* \"#utility.yul\":7910:8079   */\n        tag_83:\n            /* \"#utility.yul\":8050:8071   */\n          0x46616c6c6261636b207761732063616c6c656400000000000000000000000000\n            /* \"#utility.yul\":8046:8047   */\n          0x00\n            /* \"#utility.yul\":8038:8044   */\n          dup3\n            /* \"#utility.yul\":8034:8048   */\n          add\n            /* \"#utility.yul\":8027:8072   */\n          mstore\n            /* \"#utility.yul\":7910:8079   */\n          pop\n          jump\t// out\n            /* \"#utility.yul\":8085:8254   */\n        tag_88:\n            /* \"#utility.yul\":8225:8246   */\n          0x5265636569766564207761732063616c6c656400000000000000000000000000\n            /* \"#utility.yul\":8221:8222   */\n          0x00\n            /* \"#utility.yul\":8213:8219   */\n          dup3\n            /* \"#utility.yul\":8209:8223   */\n          add\n            /* \"#utility.yul\":8202:8247   */\n          mstore\n            /* \"#utility.yul\":8085:8254   */\n          pop\n          jump\t// out\n            /* \"#utility.yul\":8260:8382   */\n        tag_55:\n            /* \"#utility.yul\":8333:8357   */\n          tag_146\n            /* \"#utility.yul\":8351:8356   */\n          dup2\n            /* \"#utility.yul\":8333:8357   */\n          tag_92\n          jump\t// in\n        tag_146:\n            /* \"#utility.yul\":8326:8331   */\n          dup2\n            /* \"#utility.yul\":8323:8358   */\n          eq\n            /* \"#utility.yul\":8313:8376   */\n          tag_147\n          jumpi\n            /* \"#utility.yul\":8372:8373   */\n          0x00\n            /* \"#utility.yul\":8369:8370   */\n          dup1\n            /* \"#utility.yul\":8362:8374   */\n          revert\n            /* \"#utility.yul\":8313:8376   */\n        tag_147:\n            /* \"#utility.yul\":8260:8382   */\n          pop\n          jump\t// out\n\n        auxdata: 0xa2646970667358221220ed5c9fb245cb25bad227ff7559295e3978296001c6b11c432d044049823ab8b664736f6c63430008070033\n    }\n}\n",
				"bytecode": {
					"linkReferences": {},
					"object": "608060405234801561001057600080fd5b5060405161001d9061007e565b604051809103906000f080158015610039573d6000803e3d6000fd5b506000806101000a81548173ffffffffffffffffffffffffffffffffffffffff021916908373ffffffffffffffffffffffffffffffffffffffff16021790555061008b565b61062d8061069e83390190565b6106048061009a6000396000f3fe6080604052600436106100345760003560e01c806312065fe01461003957806338cc48311461006457806359c75ada1461008f575b600080fd5b34801561004557600080fd5b5061004e6100ab565b60405161005b919061047b565b60405180910390f35b34801561007057600080fd5b50610079610151565b6040516100869190610430565b60405180910390f35b6100a960048036038101906100a49190610325565b6101f7565b005b60008060009054906101000a900473ffffffffffffffffffffffffffffffffffffffff1673ffffffffffffffffffffffffffffffffffffffff166312065fe06040518163ffffffff1660e01b815260040160206040518083038186803b15801561011457600080fd5b505afa158015610128573d6000803e3d6000fd5b505050506040513d601f19601f8201168201806040525081019061014c9190610365565b905090565b60008060009054906101000a900473ffffffffffffffffffffffffffffffffffffffff1673ffffffffffffffffffffffffffffffffffffffff166338cc48316040518163ffffffff1660e01b815260040160206040518083038186803b1580156101ba57600080fd5b505afa1580156101ce573d6000803e3d6000fd5b505050506040513d601f19601f820116820180604052508101906101f291906102f8565b905090565b6000808373ffffffffffffffffffffffffffffffffffffffff163460405161021e9061041b565b60006040518083038185875af1925050503d806000811461025b576040519150601f19603f3d011682016040523d82523d6000602084013e610260565b606091505b50915091507f13848c3e38f8886f3f5d2ad9dff80d8092c2bbb8efd5b887a99c2c6cfc09ac2a828260405161029692919061044b565b60405180910390a150505050565b6000815190506102b381610589565b92915050565b6000813590506102c8816105a0565b92915050565b6000813590506102dd816105b7565b92915050565b6000815190506102f2816105b7565b92915050565b60006020828403121561030e5761030d61054a565b5b600061031c848285016102a4565b91505092915050565b6000806040838503121561033c5761033b61054a565b5b600061034a858286016102b9565b925050602061035b858286016102ce565b9150509250929050565b60006020828403121561037b5761037a61054a565b5b6000610389848285016102e3565b91505092915050565b61039b816104bd565b82525050565b6103aa816104e1565b82525050565b60006103bb82610496565b6103c581856104a1565b93506103d5818560208601610517565b6103de8161054f565b840191505092915050565b60006103f66003836104b2565b915061040182610560565b600382019050919050565b6104158161050d565b82525050565b6000610426826103e9565b9150819050919050565b60006020820190506104456000830184610392565b92915050565b600060408201905061046060008301856103a1565b818103602083015261047281846103b0565b90509392505050565b6000602082019050610490600083018461040c565b92915050565b600081519050919050565b600082825260208201905092915050565b600081905092915050565b60006104c8826104ed565b9050919050565b60006104da826104ed565b9050919050565b60008115159050919050565b600073ffffffffffffffffffffffffffffffffffffffff82169050919050565b6000819050919050565b60005b8381101561053557808201518184015260208101905061051a565b83811115610544576000848401525b50505050565b600080fd5b6000601f19601f8301169050919050565b7f6162630000000000000000000000000000000000000000000000000000000000600082015250565b610592816104bd565b811461059d57600080fd5b50565b6105a9816104cf565b81146105b457600080fd5b50565b6105c08161050d565b81146105cb57600080fd5b5056fea26469706673582212202f3525c70f9b6994b74c3d8b3f7395d1f785bd175f8cd07ee268ac459a2bdbe764736f6c63430008070033608060405234801561001057600080fd5b5061060d806100206000396000f3fe6080604052600436106100385760003560e01c806312065fe0146100b357806324ccab8f146100de57806338cc48311461010e57610078565b36610078577f59e04c3f0d44b7caf6e8ef854b61d9a51cf1960d7a88ff6356cc5e946b4b5832333460405161006e9291906103a2565b60405180910390a1005b7f59e04c3f0d44b7caf6e8ef854b61d9a51cf1960d7a88ff6356cc5e946b4b583233346040516100a9929190610366565b60405180910390a1005b3480156100bf57600080fd5b506100c8610139565b6040516100d591906103de565b60405180910390f35b6100f860048036038101906100f39190610214565b610141565b60405161010591906103de565b60405180910390f35b34801561011a57600080fd5b50610123610187565b604051610130919061030d565b60405180910390f35b600047905090565b60007f59e04c3f0d44b7caf6e8ef854b61d9a51cf1960d7a88ff6356cc5e946b4b583233348560405161017693929190610328565b60405180910390a181905092915050565b600030905090565b60006101a261019d8461041e565b6103f9565b9050828152602081018484840111156101be576101bd61054e565b5b6101c98482856104a7565b509392505050565b600082601f8301126101e6576101e5610549565b5b81356101f684826020860161018f565b91505092915050565b60008135905061020e816105c0565b92915050565b6000806040838503121561022b5761022a610558565b5b600083013567ffffffffffffffff81111561024957610248610553565b5b610255858286016101d1565b9250506020610266858286016101ff565b9150509250929050565b6102798161046b565b82525050565b600061028a8261044f565b610294818561045a565b93506102a48185602086016104b6565b6102ad8161055d565b840191505092915050565b60006102c560138361045a565b91506102d08261056e565b602082019050919050565b60006102e860138361045a565b91506102f382610597565b602082019050919050565b6103078161049d565b82525050565b60006020820190506103226000830184610270565b92915050565b600060608201905061033d6000830186610270565b61034a60208301856102fe565b818103604083015261035c818461027f565b9050949350505050565b600060608201905061037b6000830185610270565b61038860208301846102fe565b8181036040830152610399816102b8565b90509392505050565b60006060820190506103b76000830185610270565b6103c460208301846102fe565b81810360408301526103d5816102db565b90509392505050565b60006020820190506103f360008301846102fe565b92915050565b6000610403610414565b905061040f82826104e9565b919050565b6000604051905090565b600067ffffffffffffffff8211156104395761043861051a565b5b6104428261055d565b9050602081019050919050565b600081519050919050565b600082825260208201905092915050565b60006104768261047d565b9050919050565b600073ffffffffffffffffffffffffffffffffffffffff82169050919050565b6000819050919050565b82818337600083830152505050565b60005b838110156104d45780820151818401526020810190506104b9565b838111156104e3576000848401525b50505050565b6104f28261055d565b810181811067ffffffffffffffff821117156105115761051061051a565b5b80604052505050565b7f4e487b7100000000000000000000000000000000000000000000000000000000600052604160045260246000fd5b600080fd5b600080fd5b600080fd5b600080fd5b6000601f19601f8301169050919050565b7f46616c6c6261636b207761732063616c6c656400000000000000000000000000600082015250565b7f5265636569766564207761732063616c6c656400000000000000000000000000600082015250565b6105c98161049d565b81146105d457600080fd5b5056fea2646970667358221220ed5c9fb245cb25bad227ff7559295e3978296001c6b11c432d044049823ab8b664736f6c63430008070033",
					"opcodes": "PUSH1 0x80 PUSH1 0x40 MSTORE CALLVALUE DUP1 ISZERO PUSH2 0x10 JUMPI PUSH1 0x0 DUP1 REVERT JUMPDEST POP PUSH1 0x40 MLOAD PUSH2 0x1D SWAP1 PUSH2 0x7E JUMP JUMPDEST PUSH1 0x40 MLOAD DUP1 SWAP2 SUB SWAP1 PUSH1 0x0 CREATE DUP1 ISZERO DUP1 ISZERO PUSH2 0x39 JUMPI RETURNDATASIZE PUSH1 0x0 DUP1 RETURNDATACOPY RETURNDATASIZE PUSH1 0x0 REVERT JUMPDEST POP PUSH1 0x0 DUP1 PUSH2 0x100 EXP DUP2 SLOAD DUP2 PUSH20 0xFFFFFFFFFFFFFFFFFFFFFFFFFFFFFFFFFFFFFFFF MUL NOT AND SWAP1 DUP4 PUSH20 0xFFFFFFFFFFFFFFFFFFFFFFFFFFFFFFFFFFFFFFFF AND MUL OR SWAP1 SSTORE POP PUSH2 0x8B JUMP JUMPDEST PUSH2 0x62D DUP1 PUSH2 0x69E DUP4 CODECOPY ADD SWAP1 JUMP JUMPDEST PUSH2 0x604 DUP1 PUSH2 0x9A PUSH1 0x0 CODECOPY PUSH1 0x0 RETURN INVALID PUSH1 0x80 PUSH1 0x40 MSTORE PUSH1 0x4 CALLDATASIZE LT PUSH2 0x34 JUMPI PUSH1 0x0 CALLDATALOAD PUSH1 0xE0 SHR DUP1 PUSH4 0x12065FE0 EQ PUSH2 0x39 JUMPI DUP1 PUSH4 0x38CC4831 EQ PUSH2 0x64 JUMPI DUP1 PUSH4 0x59C75ADA EQ PUSH2 0x8F JUMPI JUMPDEST PUSH1 0x0 DUP1 REVERT JUMPDEST CALLVALUE DUP1 ISZERO PUSH2 0x45 JUMPI PUSH1 0x0 DUP1 REVERT JUMPDEST POP PUSH2 0x4E PUSH2 0xAB JUMP JUMPDEST PUSH1 0x40 MLOAD PUSH2 0x5B SWAP2 SWAP1 PUSH2 0x47B JUMP JUMPDEST PUSH1 0x40 MLOAD DUP1 SWAP2 SUB SWAP1 RETURN JUMPDEST CALLVALUE DUP1 ISZERO PUSH2 0x70 JUMPI PUSH1 0x0 DUP1 REVERT JUMPDEST POP PUSH2 0x79 PUSH2 0x151 JUMP JUMPDEST PUSH1 0x40 MLOAD PUSH2 0x86 SWAP2 SWAP1 PUSH2 0x430 JUMP JUMPDEST PUSH1 0x40 MLOAD DUP1 SWAP2 SUB SWAP1 RETURN JUMPDEST PUSH2 0xA9 PUSH1 0x4 DUP1 CALLDATASIZE SUB DUP2 ADD SWAP1 PUSH2 0xA4 SWAP2 SWAP1 PUSH2 0x325 JUMP JUMPDEST PUSH2 0x1F7 JUMP JUMPDEST STOP JUMPDEST PUSH1 0x0 DUP1 PUSH1 0x0 SWAP1 SLOAD SWAP1 PUSH2 0x100 EXP SWAP1 DIV PUSH20 0xFFFFFFFFFFFFFFFFFFFFFFFFFFFFFFFFFFFFFFFF AND PUSH20 0xFFFFFFFFFFFFFFFFFFFFFFFFFFFFFFFFFFFFFFFF AND PUSH4 0x12065FE0 PUSH1 0x40 MLOAD DUP2 PUSH4 0xFFFFFFFF AND PUSH1 0xE0 SHL DUP2 MSTORE PUSH1 0x4 ADD PUSH1 0x20 PUSH1 0x40 MLOAD DUP1 DUP4 SUB DUP2 DUP7 DUP1 EXTCODESIZE ISZERO DUP1 ISZERO PUSH2 0x114 JUMPI PUSH1 0x0 DUP1 REVERT JUMPDEST POP GAS STATICCALL ISZERO DUP1 ISZERO PUSH2 0x128 JUMPI RETURNDATASIZE PUSH1 0x0 DUP1 RETURNDATACOPY RETURNDATASIZE PUSH1 0x0 REVERT JUMPDEST POP POP POP POP PUSH1 0x40 MLOAD RETURNDATASIZE PUSH1 0x1F NOT PUSH1 0x1F DUP3 ADD AND DUP3 ADD DUP1 PUSH1 0x40 MSTORE POP DUP2 ADD SWAP1 PUSH2 0x14C SWAP2 SWAP1 PUSH2 0x365 JUMP JUMPDEST SWAP1 POP SWAP1 JUMP JUMPDEST PUSH1 0x0 DUP1 PUSH1 0x0 SWAP1 SLOAD SWAP1 PUSH2 0x100 EXP SWAP1 DIV PUSH20 0xFFFFFFFFFFFFFFFFFFFFFFFFFFFFFFFFFFFFFFFF AND PUSH20 0xFFFFFFFFFFFFFFFFFFFFFFFFFFFFFFFFFFFFFFFF AND PUSH4 0x38CC4831 PUSH1 0x40 MLOAD DUP2 PUSH4 0xFFFFFFFF AND PUSH1 0xE0 SHL DUP2 MSTORE PUSH1 0x4 ADD PUSH1 0x20 PUSH1 0x40 MLOAD DUP1 DUP4 SUB DUP2 DUP7 DUP1 EXTCODESIZE ISZERO DUP1 ISZERO PUSH2 0x1BA JUMPI PUSH1 0x0 DUP1 REVERT JUMPDEST POP GAS STATICCALL ISZERO DUP1 ISZERO PUSH2 0x1CE JUMPI RETURNDATASIZE PUSH1 0x0 DUP1 RETURNDATACOPY RETURNDATASIZE PUSH1 0x0 REVERT JUMPDEST POP POP POP POP PUSH1 0x40 MLOAD RETURNDATASIZE PUSH1 0x1F NOT PUSH1 0x1F DUP3 ADD AND DUP3 ADD DUP1 PUSH1 0x40 MSTORE POP DUP2 ADD SWAP1 PUSH2 0x1F2 SWAP2 SWAP1 PUSH2 0x2F8 JUMP JUMPDEST SWAP1 POP SWAP1 JUMP JUMPDEST PUSH1 0x0 DUP1 DUP4 PUSH20 0xFFFFFFFFFFFFFFFFFFFFFFFFFFFFFFFFFFFFFFFF AND CALLVALUE PUSH1 0x40 MLOAD PUSH2 0x21E SWAP1 PUSH2 0x41B JUMP JUMPDEST PUSH1 0x0 PUSH1 0x40 MLOAD DUP1 DUP4 SUB DUP2 DUP6 DUP8 GAS CALL SWAP3 POP POP POP RETURNDATASIZE DUP1 PUSH1 0x0 DUP2 EQ PUSH2 0x25B JUMPI PUSH1 0x40 MLOAD SWAP2 POP PUSH1 0x1F NOT PUSH1 0x3F RETURNDATASIZE ADD AND DUP3 ADD PUSH1 0x40 MSTORE RETURNDATASIZE DUP3 MSTORE RETURNDATASIZE PUSH1 0x0 PUSH1 0x20 DUP5 ADD RETURNDATACOPY PUSH2 0x260 JUMP JUMPDEST PUSH1 0x60 SWAP2 POP JUMPDEST POP SWAP2 POP SWAP2 POP PUSH32 0x13848C3E38F8886F3F5D2AD9DFF80D8092C2BBB8EFD5B887A99C2C6CFC09AC2A DUP3 DUP3 PUSH1 0x40 MLOAD PUSH2 0x296 SWAP3 SWAP2 SWAP1 PUSH2 0x44B JUMP JUMPDEST PUSH1 0x40 MLOAD DUP1 SWAP2 SUB SWAP1 LOG1 POP POP POP POP JUMP JUMPDEST PUSH1 0x0 DUP2 MLOAD SWAP1 POP PUSH2 0x2B3 DUP2 PUSH2 0x589 JUMP JUMPDEST SWAP3 SWAP2 POP POP JUMP JUMPDEST PUSH1 0x0 DUP2 CALLDATALOAD SWAP1 POP PUSH2 0x2C8 DUP2 PUSH2 0x5A0 JUMP JUMPDEST SWAP3 SWAP2 POP POP JUMP JUMPDEST PUSH1 0x0 DUP2 CALLDATALOAD SWAP1 POP PUSH2 0x2DD DUP2 PUSH2 0x5B7 JUMP JUMPDEST SWAP3 SWAP2 POP POP JUMP JUMPDEST PUSH1 0x0 DUP2 MLOAD SWAP1 POP PUSH2 0x2F2 DUP2 PUSH2 0x5B7 JUMP JUMPDEST SWAP3 SWAP2 POP POP JUMP JUMPDEST PUSH1 0x0 PUSH1 0x20 DUP3 DUP5 SUB SLT ISZERO PUSH2 0x30E JUMPI PUSH2 0x30D PUSH2 0x54A JUMP JUMPDEST JUMPDEST PUSH1 0x0 PUSH2 0x31C DUP5 DUP3 DUP6 ADD PUSH2 0x2A4 JUMP JUMPDEST SWAP2 POP POP SWAP3 SWAP2 POP POP JUMP JUMPDEST PUSH1 0x0 DUP1 PUSH1 0x40 DUP4 DUP6 SUB SLT ISZERO PUSH2 0x33C JUMPI PUSH2 0x33B PUSH2 0x54A JUMP JUMPDEST JUMPDEST PUSH1 0x0 PUSH2 0x34A DUP6 DUP3 DUP7 ADD PUSH2 0x2B9 JUMP JUMPDEST SWAP3 POP POP PUSH1 0x20 PUSH2 0x35B DUP6 DUP3 DUP7 ADD PUSH2 0x2CE JUMP JUMPDEST SWAP2 POP POP SWAP3 POP SWAP3 SWAP1 POP JUMP JUMPDEST PUSH1 0x0 PUSH1 0x20 DUP3 DUP5 SUB SLT ISZERO PUSH2 0x37B JUMPI PUSH2 0x37A PUSH2 0x54A JUMP JUMPDEST JUMPDEST PUSH1 0x0 PUSH2 0x389 DUP5 DUP3 DUP6 ADD PUSH2 0x2E3 JUMP JUMPDEST SWAP2 POP POP SWAP3 SWAP2 POP POP JUMP JUMPDEST PUSH2 0x39B DUP2 PUSH2 0x4BD JUMP JUMPDEST DUP3 MSTORE POP POP JUMP JUMPDEST PUSH2 0x3AA DUP2 PUSH2 0x4E1 JUMP JUMPDEST DUP3 MSTORE POP POP JUMP JUMPDEST PUSH1 0x0 PUSH2 0x3BB DUP3 PUSH2 0x496 JUMP JUMPDEST PUSH2 0x3C5 DUP2 DUP6 PUSH2 0x4A1 JUMP JUMPDEST SWAP4 POP PUSH2 0x3D5 DUP2 DUP6 PUSH1 0x20 DUP7 ADD PUSH2 0x517 JUMP JUMPDEST PUSH2 0x3DE DUP2 PUSH2 0x54F JUMP JUMPDEST DUP5 ADD SWAP2 POP POP SWAP3 SWAP2 POP POP JUMP JUMPDEST PUSH1 0x0 PUSH2 0x3F6 PUSH1 0x3 DUP4 PUSH2 0x4B2 JUMP JUMPDEST SWAP2 POP PUSH2 0x401 DUP3 PUSH2 0x560 JUMP JUMPDEST PUSH1 0x3 DUP3 ADD SWAP1 POP SWAP2 SWAP1 POP JUMP JUMPDEST PUSH2 0x415 DUP2 PUSH2 0x50D JUMP JUMPDEST DUP3 MSTORE POP POP JUMP JUMPDEST PUSH1 0x0 PUSH2 0x426 DUP3 PUSH2 0x3E9 JUMP JUMPDEST SWAP2 POP DUP2 SWAP1 POP SWAP2 SWAP1 POP JUMP JUMPDEST PUSH1 0x0 PUSH1 0x20 DUP3 ADD SWAP1 POP PUSH2 0x445 PUSH1 0x0 DUP4 ADD DUP5 PUSH2 0x392 JUMP JUMPDEST SWAP3 SWAP2 POP POP JUMP JUMPDEST PUSH1 0x0 PUSH1 0x40 DUP3 ADD SWAP1 POP PUSH2 0x460 PUSH1 0x0 DUP4 ADD DUP6 PUSH2 0x3A1 JUMP JUMPDEST DUP2 DUP2 SUB PUSH1 0x20 DUP4 ADD MSTORE PUSH2 0x472 DUP2 DUP5 PUSH2 0x3B0 JUMP JUMPDEST SWAP1 POP SWAP4 SWAP3 POP POP POP JUMP JUMPDEST PUSH1 0x0 PUSH1 0x20 DUP3 ADD SWAP1 POP PUSH2 0x490 PUSH1 0x0 DUP4 ADD DUP5 PUSH2 0x40C JUMP JUMPDEST SWAP3 SWAP2 POP POP JUMP JUMPDEST PUSH1 0x0 DUP2 MLOAD SWAP1 POP SWAP2 SWAP1 POP JUMP JUMPDEST PUSH1 0x0 DUP3 DUP3 MSTORE PUSH1 0x20 DUP3 ADD SWAP1 POP SWAP3 SWAP2 POP POP JUMP JUMPDEST PUSH1 0x0 DUP2 SWAP1 POP SWAP3 SWAP2 POP POP JUMP JUMPDEST PUSH1 0x0 PUSH2 0x4C8 DUP3 PUSH2 0x4ED JUMP JUMPDEST SWAP1 POP SWAP2 SWAP1 POP JUMP JUMPDEST PUSH1 0x0 PUSH2 0x4DA DUP3 PUSH2 0x4ED JUMP JUMPDEST SWAP1 POP SWAP2 SWAP1 POP JUMP JUMPDEST PUSH1 0x0 DUP2 ISZERO ISZERO SWAP1 POP SWAP2 SWAP1 POP JUMP JUMPDEST PUSH1 0x0 PUSH20 0xFFFFFFFFFFFFFFFFFFFFFFFFFFFFFFFFFFFFFFFF DUP3 AND SWAP1 POP SWAP2 SWAP1 POP JUMP JUMPDEST PUSH1 0x0 DUP2 SWAP1 POP SWAP2 SWAP1 POP JUMP JUMPDEST PUSH1 0x0 JUMPDEST DUP4 DUP2 LT ISZERO PUSH2 0x535 JUMPI DUP1 DUP3 ADD MLOAD DUP2 DUP5 ADD MSTORE PUSH1 0x20 DUP2 ADD SWAP1 POP PUSH2 0x51A JUMP JUMPDEST DUP4 DUP2 GT ISZERO PUSH2 0x544 JUMPI PUSH1 0x0 DUP5 DUP5 ADD MSTORE JUMPDEST POP POP POP POP JUMP JUMPDEST PUSH1 0x0 DUP1 REVERT JUMPDEST PUSH1 0x0 PUSH1 0x1F NOT PUSH1 0x1F DUP4 ADD AND SWAP1 POP SWAP2 SWAP1 POP JUMP JUMPDEST PUSH32 0x6162630000000000000000000000000000000000000000000000000000000000 PUSH1 0x0 DUP3 ADD MSTORE POP JUMP JUMPDEST PUSH2 0x592 DUP2 PUSH2 0x4BD JUMP JUMPDEST DUP2 EQ PUSH2 0x59D JUMPI PUSH1 0x0 DUP1 REVERT JUMPDEST POP JUMP JUMPDEST PUSH2 0x5A9 DUP2 PUSH2 0x4CF JUMP JUMPDEST DUP2 EQ PUSH2 0x5B4 JUMPI PUSH1 0x0 DUP1 REVERT JUMPDEST POP JUMP JUMPDEST PUSH2 0x5C0 DUP2 PUSH2 0x50D JUMP JUMPDEST DUP2 EQ PUSH2 0x5CB JUMPI PUSH1 0x0 DUP1 REVERT JUMPDEST POP JUMP INVALID LOG2 PUSH5 0x6970667358 0x22 SLT KECCAK256 0x2F CALLDATALOAD 0x25 0xC7 0xF SWAP12 PUSH10 0x94B74C3D8B3F7395D1F7 DUP6 0xBD OR 0x5F DUP13 0xD0 PUSH31 0xE268AC459A2BDBE764736F6C63430008070033608060405234801561001057 PUSH1 0x0 DUP1 REVERT JUMPDEST POP PUSH2 0x60D DUP1 PUSH2 0x20 PUSH1 0x0 CODECOPY PUSH1 0x0 RETURN INVALID PUSH1 0x80 PUSH1 0x40 MSTORE PUSH1 0x4 CALLDATASIZE LT PUSH2 0x38 JUMPI PUSH1 0x0 CALLDATALOAD PUSH1 0xE0 SHR DUP1 PUSH4 0x12065FE0 EQ PUSH2 0xB3 JUMPI DUP1 PUSH4 0x24CCAB8F EQ PUSH2 0xDE JUMPI DUP1 PUSH4 0x38CC4831 EQ PUSH2 0x10E JUMPI PUSH2 0x78 JUMP JUMPDEST CALLDATASIZE PUSH2 0x78 JUMPI PUSH32 0x59E04C3F0D44B7CAF6E8EF854B61D9A51CF1960D7A88FF6356CC5E946B4B5832 CALLER CALLVALUE PUSH1 0x40 MLOAD PUSH2 0x6E SWAP3 SWAP2 SWAP1 PUSH2 0x3A2 JUMP JUMPDEST PUSH1 0x40 MLOAD DUP1 SWAP2 SUB SWAP1 LOG1 STOP JUMPDEST PUSH32 0x59E04C3F0D44B7CAF6E8EF854B61D9A51CF1960D7A88FF6356CC5E946B4B5832 CALLER CALLVALUE PUSH1 0x40 MLOAD PUSH2 0xA9 SWAP3 SWAP2 SWAP1 PUSH2 0x366 JUMP JUMPDEST PUSH1 0x40 MLOAD DUP1 SWAP2 SUB SWAP1 LOG1 STOP JUMPDEST CALLVALUE DUP1 ISZERO PUSH2 0xBF JUMPI PUSH1 0x0 DUP1 REVERT JUMPDEST POP PUSH2 0xC8 PUSH2 0x139 JUMP JUMPDEST PUSH1 0x40 MLOAD PUSH2 0xD5 SWAP2 SWAP1 PUSH2 0x3DE JUMP JUMPDEST PUSH1 0x40 MLOAD DUP1 SWAP2 SUB SWAP1 RETURN JUMPDEST PUSH2 0xF8 PUSH1 0x4 DUP1 CALLDATASIZE SUB DUP2 ADD SWAP1 PUSH2 0xF3 SWAP2 SWAP1 PUSH2 0x214 JUMP JUMPDEST PUSH2 0x141 JUMP JUMPDEST PUSH1 0x40 MLOAD PUSH2 0x105 SWAP2 SWAP1 PUSH2 0x3DE JUMP JUMPDEST PUSH1 0x40 MLOAD DUP1 SWAP2 SUB SWAP1 RETURN JUMPDEST CALLVALUE DUP1 ISZERO PUSH2 0x11A JUMPI PUSH1 0x0 DUP1 REVERT JUMPDEST POP PUSH2 0x123 PUSH2 0x187 JUMP JUMPDEST PUSH1 0x40 MLOAD PUSH2 0x130 SWAP2 SWAP1 PUSH2 0x30D JUMP JUMPDEST PUSH1 0x40 MLOAD DUP1 SWAP2 SUB SWAP1 RETURN JUMPDEST PUSH1 0x0 SELFBALANCE SWAP1 POP SWAP1 JUMP JUMPDEST PUSH1 0x0 PUSH32 0x59E04C3F0D44B7CAF6E8EF854B61D9A51CF1960D7A88FF6356CC5E946B4B5832 CALLER CALLVALUE DUP6 PUSH1 0x40 MLOAD PUSH2 0x176 SWAP4 SWAP3 SWAP2 SWAP1 PUSH2 0x328 JUMP JUMPDEST PUSH1 0x40 MLOAD DUP1 SWAP2 SUB SWAP1 LOG1 DUP2 SWAP1 POP SWAP3 SWAP2 POP POP JUMP JUMPDEST PUSH1 0x0 ADDRESS SWAP1 POP SWAP1 JUMP JUMPDEST PUSH1 0x0 PUSH2 0x1A2 PUSH2 0x19D DUP5 PUSH2 0x41E JUMP JUMPDEST PUSH2 0x3F9 JUMP JUMPDEST SWAP1 POP DUP3 DUP2 MSTORE PUSH1 0x20 DUP2 ADD DUP5 DUP5 DUP5 ADD GT ISZERO PUSH2 0x1BE JUMPI PUSH2 0x1BD PUSH2 0x54E JUMP JUMPDEST JUMPDEST PUSH2 0x1C9 DUP5 DUP3 DUP6 PUSH2 0x4A7 JUMP JUMPDEST POP SWAP4 SWAP3 POP POP POP JUMP JUMPDEST PUSH1 0x0 DUP3 PUSH1 0x1F DUP4 ADD SLT PUSH2 0x1E6 JUMPI PUSH2 0x1E5 PUSH2 0x549 JUMP JUMPDEST JUMPDEST DUP2 CALLDATALOAD PUSH2 0x1F6 DUP5 DUP3 PUSH1 0x20 DUP7 ADD PUSH2 0x18F JUMP JUMPDEST SWAP2 POP POP SWAP3 SWAP2 POP POP JUMP JUMPDEST PUSH1 0x0 DUP2 CALLDATALOAD SWAP1 POP PUSH2 0x20E DUP2 PUSH2 0x5C0 JUMP JUMPDEST SWAP3 SWAP2 POP POP JUMP JUMPDEST PUSH1 0x0 DUP1 PUSH1 0x40 DUP4 DUP6 SUB SLT ISZERO PUSH2 0x22B JUMPI PUSH2 0x22A PUSH2 0x558 JUMP JUMPDEST JUMPDEST PUSH1 0x0 DUP4 ADD CALLDATALOAD PUSH8 0xFFFFFFFFFFFFFFFF DUP2 GT ISZERO PUSH2 0x249 JUMPI PUSH2 0x248 PUSH2 0x553 JUMP JUMPDEST JUMPDEST PUSH2 0x255 DUP6 DUP3 DUP7 ADD PUSH2 0x1D1 JUMP JUMPDEST SWAP3 POP POP PUSH1 0x20 PUSH2 0x266 DUP6 DUP3 DUP7 ADD PUSH2 0x1FF JUMP JUMPDEST SWAP2 POP POP SWAP3 POP SWAP3 SWAP1 POP JUMP JUMPDEST PUSH2 0x279 DUP2 PUSH2 0x46B JUMP JUMPDEST DUP3 MSTORE POP POP JUMP JUMPDEST PUSH1 0x0 PUSH2 0x28A DUP3 PUSH2 0x44F JUMP JUMPDEST PUSH2 0x294 DUP2 DUP6 PUSH2 0x45A JUMP JUMPDEST SWAP4 POP PUSH2 0x2A4 DUP2 DUP6 PUSH1 0x20 DUP7 ADD PUSH2 0x4B6 JUMP JUMPDEST PUSH2 0x2AD DUP2 PUSH2 0x55D JUMP JUMPDEST DUP5 ADD SWAP2 POP POP SWAP3 SWAP2 POP POP JUMP JUMPDEST PUSH1 0x0 PUSH2 0x2C5 PUSH1 0x13 DUP4 PUSH2 0x45A JUMP JUMPDEST SWAP2 POP PUSH2 0x2D0 DUP3 PUSH2 0x56E JUMP JUMPDEST PUSH1 0x20 DUP3 ADD SWAP1 POP SWAP2 SWAP1 POP JUMP JUMPDEST PUSH1 0x0 PUSH2 0x2E8 PUSH1 0x13 DUP4 PUSH2 0x45A JUMP JUMPDEST SWAP2 POP PUSH2 0x2F3 DUP3 PUSH2 0x597 JUMP JUMPDEST PUSH1 0x20 DUP3 ADD SWAP1 POP SWAP2 SWAP1 POP JUMP JUMPDEST PUSH2 0x307 DUP2 PUSH2 0x49D JUMP JUMPDEST DUP3 MSTORE POP POP JUMP JUMPDEST PUSH1 0x0 PUSH1 0x20 DUP3 ADD SWAP1 POP PUSH2 0x322 PUSH1 0x0 DUP4 ADD DUP5 PUSH2 0x270 JUMP JUMPDEST SWAP3 SWAP2 POP POP JUMP JUMPDEST PUSH1 0x0 PUSH1 0x60 DUP3 ADD SWAP1 POP PUSH2 0x33D PUSH1 0x0 DUP4 ADD DUP7 PUSH2 0x270 JUMP JUMPDEST PUSH2 0x34A PUSH1 0x20 DUP4 ADD DUP6 PUSH2 0x2FE JUMP JUMPDEST DUP2 DUP2 SUB PUSH1 0x40 DUP4 ADD MSTORE PUSH2 0x35C DUP2 DUP5 PUSH2 0x27F JUMP JUMPDEST SWAP1 POP SWAP5 SWAP4 POP POP POP POP JUMP JUMPDEST PUSH1 0x0 PUSH1 0x60 DUP3 ADD SWAP1 POP PUSH2 0x37B PUSH1 0x0 DUP4 ADD DUP6 PUSH2 0x270 JUMP JUMPDEST PUSH2 0x388 PUSH1 0x20 DUP4 ADD DUP5 PUSH2 0x2FE JUMP JUMPDEST DUP2 DUP2 SUB PUSH1 0x40 DUP4 ADD MSTORE PUSH2 0x399 DUP2 PUSH2 0x2B8 JUMP JUMPDEST SWAP1 POP SWAP4 SWAP3 POP POP POP JUMP JUMPDEST PUSH1 0x0 PUSH1 0x60 DUP3 ADD SWAP1 POP PUSH2 0x3B7 PUSH1 0x0 DUP4 ADD DUP6 PUSH2 0x270 JUMP JUMPDEST PUSH2 0x3C4 PUSH1 0x20 DUP4 ADD DUP5 PUSH2 0x2FE JUMP JUMPDEST DUP2 DUP2 SUB PUSH1 0x40 DUP4 ADD MSTORE PUSH2 0x3D5 DUP2 PUSH2 0x2DB JUMP JUMPDEST SWAP1 POP SWAP4 SWAP3 POP POP POP JUMP JUMPDEST PUSH1 0x0 PUSH1 0x20 DUP3 ADD SWAP1 POP PUSH2 0x3F3 PUSH1 0x0 DUP4 ADD DUP5 PUSH2 0x2FE JUMP JUMPDEST SWAP3 SWAP2 POP POP JUMP JUMPDEST PUSH1 0x0 PUSH2 0x403 PUSH2 0x414 JUMP JUMPDEST SWAP1 POP PUSH2 0x40F DUP3 DUP3 PUSH2 0x4E9 JUMP JUMPDEST SWAP2 SWAP1 POP JUMP JUMPDEST PUSH1 0x0 PUSH1 0x40 MLOAD SWAP1 POP SWAP1 JUMP JUMPDEST PUSH1 0x0 PUSH8 0xFFFFFFFFFFFFFFFF DUP3 GT ISZERO PUSH2 0x439 JUMPI PUSH2 0x438 PUSH2 0x51A JUMP JUMPDEST JUMPDEST PUSH2 0x442 DUP3 PUSH2 0x55D JUMP JUMPDEST SWAP1 POP PUSH1 0x20 DUP2 ADD SWAP1 POP SWAP2 SWAP1 POP JUMP JUMPDEST PUSH1 0x0 DUP2 MLOAD SWAP1 POP SWAP2 SWAP1 POP JUMP JUMPDEST PUSH1 0x0 DUP3 DUP3 MSTORE PUSH1 0x20 DUP3 ADD SWAP1 POP SWAP3 SWAP2 POP POP JUMP JUMPDEST PUSH1 0x0 PUSH2 0x476 DUP3 PUSH2 0x47D JUMP JUMPDEST SWAP1 POP SWAP2 SWAP1 POP JUMP JUMPDEST PUSH1 0x0 PUSH20 0xFFFFFFFFFFFFFFFFFFFFFFFFFFFFFFFFFFFFFFFF DUP3 AND SWAP1 POP SWAP2 SWAP1 POP JUMP JUMPDEST PUSH1 0x0 DUP2 SWAP1 POP SWAP2 SWAP1 POP JUMP JUMPDEST DUP3 DUP2 DUP4 CALLDATACOPY PUSH1 0x0 DUP4 DUP4 ADD MSTORE POP POP POP JUMP JUMPDEST PUSH1 0x0 JUMPDEST DUP4 DUP2 LT ISZERO PUSH2 0x4D4 JUMPI DUP1 DUP3 ADD MLOAD DUP2 DUP5 ADD MSTORE PUSH1 0x20 DUP2 ADD SWAP1 POP PUSH2 0x4B9 JUMP JUMPDEST DUP4 DUP2 GT ISZERO PUSH2 0x4E3 JUMPI PUSH1 0x0 DUP5 DUP5 ADD MSTORE JUMPDEST POP POP POP POP JUMP JUMPDEST PUSH2 0x4F2 DUP3 PUSH2 0x55D JUMP JUMPDEST DUP2 ADD DUP2 DUP2 LT PUSH8 0xFFFFFFFFFFFFFFFF DUP3 GT OR ISZERO PUSH2 0x511 JUMPI PUSH2 0x510 PUSH2 0x51A JUMP JUMPDEST JUMPDEST DUP1 PUSH1 0x40 MSTORE POP POP POP JUMP JUMPDEST PUSH32 0x4E487B7100000000000000000000000000000000000000000000000000000000 PUSH1 0x0 MSTORE PUSH1 0x41 PUSH1 0x4 MSTORE PUSH1 0x24 PUSH1 0x0 REVERT JUMPDEST PUSH1 0x0 DUP1 REVERT JUMPDEST PUSH1 0x0 DUP1 REVERT JUMPDEST PUSH1 0x0 DUP1 REVERT JUMPDEST PUSH1 0x0 DUP1 REVERT JUMPDEST PUSH1 0x0 PUSH1 0x1F NOT PUSH1 0x1F DUP4 ADD AND SWAP1 POP SWAP2 SWAP1 POP JUMP JUMPDEST PUSH32 0x46616C6C6261636B207761732063616C6C656400000000000000000000000000 PUSH1 0x0 DUP3 ADD MSTORE POP JUMP JUMPDEST PUSH32 0x5265636569766564207761732063616C6C656400000000000000000000000000 PUSH1 0x0 DUP3 ADD MSTORE POP JUMP JUMPDEST PUSH2 0x5C9 DUP2 PUSH2 0x49D JUMP JUMPDEST DUP2 EQ PUSH2 0x5D4 JUMPI PUSH1 0x0 DUP1 REVERT JUMPDEST POP JUMP INVALID LOG2 PUSH5 0x6970667358 0x22 SLT KECCAK256 0xED 0x5C SWAP16 0xB2 GASLIMIT 0xCB 0x25 0xBA 0xD2 0x27 SELFDESTRUCT PUSH22 0x59295E3978296001C6B11C432D044049823AB8B66473 PUSH16 0x6C634300080700330000000000000000 "
				},
				"gasEstimates": {
					"creation": {
						"codeDepositCost": "308000",
						"executionCost": "infinite",
						"totalCost": "infinite"
					},
					"external": {
						"getAddress()": "infinite",
						"getBalance()": "infinite",
						"testCall(address,uint256)": "infinite"
					}
				},
				"methodIdentifiers": {
					"getAddress()": "38cc4831",
					"getBalance()": "12065fe0",
					"testCall(address,uint256)": "59c75ada"
				}
			},
			"storageLayout": {
				"storage": [
					{
						"astId": 80,
						"contract": "contracts/11_CallContract.sol:Caller",
						"label": "receiver",
						"offset": 0,
						"slot": "0",
						"type": "t_contract(Receiver)77"
					}
				],
				"types": {
					"t_contract(Receiver)77": {
						"encoding": "inplace",
						"label": "contract Receiver",
						"numberOfBytes": "20"
					}
				}
			},
			"userdoc": {
				"kind": "user",
				"methods": {},
				"version": 1
			}
		}
	}
}