{
	"contracts/22_Encode.sol": {
		"A": {
			"abi": [
				{
					"inputs": [
						{
							"internalType": "address",
							"name": "_address",
							"type": "address"
						},
						{
							"internalType": "uint256",
							"name": "_num",
							"type": "uint256"
						},
						{
							"internalType": "string",
							"name": "_message",
							"type": "string"
						}
					],
					"name": "callBFunction",
					"outputs": [
						{
							"internalType": "bool",
							"name": "",
							"type": "bool"
						}
					],
					"stateMutability": "nonpayable",
					"type": "function"
				}
			],
			"devdoc": {
				"kind": "dev",
				"methods": {},
				"version": 1
			},
			"evm": {
				"assembly": "    /* \"contracts/22_Encode.sol\":70:502  contract A{... */\n  mstore(0x40, 0x80)\n  callvalue\n  dup1\n  iszero\n  tag_1\n  jumpi\n  0x00\n  dup1\n  revert\ntag_1:\n  pop\n  dataSize(sub_0)\n  dup1\n  dataOffset(sub_0)\n  0x00\n  codecopy\n  0x00\n  return\nstop\n\nsub_0: assembly {\n        /* \"contracts/22_Encode.sol\":70:502  contract A{... */\n      mstore(0x40, 0x80)\n      callvalue\n      dup1\n      iszero\n      tag_1\n      jumpi\n      0x00\n      dup1\n      revert\n    tag_1:\n      pop\n      jumpi(tag_2, lt(calldatasize, 0x04))\n      shr(0xe0, calldataload(0x00))\n      dup1\n      0x5d0917ce\n      eq\n      tag_3\n      jumpi\n    tag_2:\n      0x00\n      dup1\n      revert\n        /* \"contracts/22_Encode.sol\":87:499  function callBFunction(address _address, uint256 _num, string memory _message) public returns(bool){... */\n    tag_3:\n      tag_4\n      0x04\n      dup1\n      calldatasize\n      sub\n      dup2\n      add\n      swap1\n      tag_5\n      swap2\n      swap1\n      tag_6\n      jump\t// in\n    tag_5:\n      tag_7\n      jump\t// in\n    tag_4:\n      mload(0x40)\n      tag_8\n      swap2\n      swap1\n      tag_9\n      jump\t// in\n    tag_8:\n      mload(0x40)\n      dup1\n      swap2\n      sub\n      swap1\n      return\n    tag_7:\n        /* \"contracts/22_Encode.sol\":181:185  bool */\n      0x00\n        /* \"contracts/22_Encode.sol\":205:215  bytes4 sig */\n      dup1\n        /* \"contracts/22_Encode.sol\":225:263  keccak256(\"bFunction(uint256,string)\") */\n      0xf36b7e206372020ac6f133c51128b98ce9b6dec42947a3bcc529d82e524842d2\n        /* \"contracts/22_Encode.sol\":205:264  bytes4 sig = bytes4(keccak256(\"bFunction(uint256,string)\")) */\n      swap1\n      pop\n        /* \"contracts/22_Encode.sol\":274:292  bytes memory _bNum */\n      0x00\n        /* \"contracts/22_Encode.sol\":306:310  _num */\n      dup5\n        /* \"contracts/22_Encode.sol\":295:311  abi.encode(_num) */\n      add(0x20, mload(0x40))\n      tag_11\n      swap2\n      swap1\n      tag_12\n      jump\t// in\n    tag_11:\n      mload(0x40)\n      0x20\n      dup2\n      dup4\n      sub\n      sub\n      dup2\n      mstore\n      swap1\n      0x40\n      mstore\n        /* \"contracts/22_Encode.sol\":274:311  bytes memory _bNum = abi.encode(_num) */\n      swap1\n      pop\n        /* \"contracts/22_Encode.sol\":321:343  bytes memory _bMessage */\n      0x00\n        /* \"contracts/22_Encode.sol\":357:365  _message */\n      dup5\n        /* \"contracts/22_Encode.sol\":346:366  abi.encode(_message) */\n      add(0x20, mload(0x40))\n      tag_13\n      swap2\n      swap1\n      tag_14\n      jump\t// in\n    tag_13:\n      mload(0x40)\n      0x20\n      dup2\n      dup4\n      sub\n      sub\n      dup2\n      mstore\n      swap1\n      0x40\n      mstore\n        /* \"contracts/22_Encode.sol\":321:366  bytes memory _bMessage = abi.encode(_message) */\n      swap1\n      pop\n        /* \"contracts/22_Encode.sol\":377:389  bool success */\n      0x00\n        /* \"contracts/22_Encode.sol\":394:402  _address */\n      dup8\n        /* \"contracts/22_Encode.sol\":394:407  _address.call */\n      0xffffffffffffffffffffffffffffffffffffffff\n      and\n        /* \"contracts/22_Encode.sol\":438:441  sig */\n      dup5\n        /* \"contracts/22_Encode.sol\":442:447  _bNum */\n      dup5\n        /* \"contracts/22_Encode.sol\":448:457  _bMessage */\n      dup5\n        /* \"contracts/22_Encode.sol\":421:458  abi.encodePacked(sig,_bNum,_bMessage) */\n      add(0x20, mload(0x40))\n      tag_15\n      swap4\n      swap3\n      swap2\n      swap1\n      tag_16\n      jump\t// in\n    tag_15:\n      mload(0x40)\n      0x20\n      dup2\n      dup4\n      sub\n      sub\n      dup2\n      mstore\n      swap1\n      0x40\n      mstore\n        /* \"contracts/22_Encode.sol\":394:468  _address.call(... */\n      mload(0x40)\n      tag_17\n      swap2\n      swap1\n      tag_18\n      jump\t// in\n    tag_17:\n      0x00\n      mload(0x40)\n      dup1\n      dup4\n      sub\n      dup2\n      0x00\n      dup7\n      gas\n      call\n      swap2\n      pop\n      pop\n      returndatasize\n      dup1\n      0x00\n      dup2\n      eq\n      tag_21\n      jumpi\n      mload(0x40)\n      swap2\n      pop\n      and(add(returndatasize, 0x3f), not(0x1f))\n      dup3\n      add\n      0x40\n      mstore\n      returndatasize\n      dup3\n      mstore\n      returndatasize\n      0x00\n      0x20\n      dup5\n      add\n      returndatacopy\n      jump(tag_20)\n    tag_21:\n      0x60\n      swap2\n      pop\n    tag_20:\n      pop\n        /* \"contracts/22_Encode.sol\":376:468  (bool success,) = _address.call(... */\n      pop\n      swap1\n      pop\n        /* \"contracts/22_Encode.sol\":485:492  success */\n      dup1\n        /* \"contracts/22_Encode.sol\":478:492  return success */\n      swap5\n      pop\n      pop\n      pop\n      pop\n      pop\n        /* \"contracts/22_Encode.sol\":87:499  function callBFunction(address _address, uint256 _num, string memory _message) public returns(bool){... */\n      swap4\n      swap3\n      pop\n      pop\n      pop\n      jump\t// out\n        /* \"#utility.yul\":7:419   */\n    tag_23:\n        /* \"#utility.yul\":85:90   */\n      0x00\n        /* \"#utility.yul\":110:176   */\n      tag_25\n        /* \"#utility.yul\":126:175   */\n      tag_26\n        /* \"#utility.yul\":168:174   */\n      dup5\n        /* \"#utility.yul\":126:175   */\n      tag_27\n      jump\t// in\n    tag_26:\n        /* \"#utility.yul\":110:176   */\n      tag_28\n      jump\t// in\n    tag_25:\n        /* \"#utility.yul\":101:176   */\n      swap1\n      pop\n        /* \"#utility.yul\":199:205   */\n      dup3\n        /* \"#utility.yul\":192:197   */\n      dup2\n        /* \"#utility.yul\":185:206   */\n      mstore\n        /* \"#utility.yul\":237:241   */\n      0x20\n        /* \"#utility.yul\":230:235   */\n      dup2\n        /* \"#utility.yul\":226:242   */\n      add\n        /* \"#utility.yul\":275:278   */\n      dup5\n        /* \"#utility.yul\":266:272   */\n      dup5\n        /* \"#utility.yul\":261:264   */\n      dup5\n        /* \"#utility.yul\":257:273   */\n      add\n        /* \"#utility.yul\":254:279   */\n      gt\n        /* \"#utility.yul\":251:363   */\n      iszero\n      tag_29\n      jumpi\n        /* \"#utility.yul\":282:361   */\n      tag_30\n      tag_31\n      jump\t// in\n    tag_30:\n        /* \"#utility.yul\":251:363   */\n    tag_29:\n        /* \"#utility.yul\":372:413   */\n      tag_32\n        /* \"#utility.yul\":406:412   */\n      dup5\n        /* \"#utility.yul\":401:404   */\n      dup3\n        /* \"#utility.yul\":396:399   */\n      dup6\n        /* \"#utility.yul\":372:413   */\n      tag_33\n      jump\t// in\n    tag_32:\n        /* \"#utility.yul\":91:419   */\n      pop\n        /* \"#utility.yul\":7:419   */\n      swap4\n      swap3\n      pop\n      pop\n      pop\n      jump\t// out\n        /* \"#utility.yul\":425:564   */\n    tag_34:\n        /* \"#utility.yul\":471:476   */\n      0x00\n        /* \"#utility.yul\":509:515   */\n      dup2\n        /* \"#utility.yul\":496:516   */\n      calldataload\n        /* \"#utility.yul\":487:516   */\n      swap1\n      pop\n        /* \"#utility.yul\":525:558   */\n      tag_36\n        /* \"#utility.yul\":552:557   */\n      dup2\n        /* \"#utility.yul\":525:558   */\n      tag_37\n      jump\t// in\n    tag_36:\n        /* \"#utility.yul\":425:564   */\n      swap3\n      swap2\n      pop\n      pop\n      jump\t// out\n        /* \"#utility.yul\":584:924   */\n    tag_38:\n        /* \"#utility.yul\":640:645   */\n      0x00\n        /* \"#utility.yul\":689:692   */\n      dup3\n        /* \"#utility.yul\":682:686   */\n      0x1f\n        /* \"#utility.yul\":674:680   */\n      dup4\n        /* \"#utility.yul\":670:687   */\n      add\n        /* \"#utility.yul\":666:693   */\n      slt\n        /* \"#utility.yul\":656:778   */\n      tag_40\n      jumpi\n        /* \"#utility.yul\":697:776   */\n      tag_41\n      tag_42\n      jump\t// in\n    tag_41:\n        /* \"#utility.yul\":656:778   */\n    tag_40:\n        /* \"#utility.yul\":814:820   */\n      dup2\n        /* \"#utility.yul\":801:821   */\n      calldataload\n        /* \"#utility.yul\":839:918   */\n      tag_43\n        /* \"#utility.yul\":914:917   */\n      dup5\n        /* \"#utility.yul\":906:912   */\n      dup3\n        /* \"#utility.yul\":899:903   */\n      0x20\n        /* \"#utility.yul\":891:897   */\n      dup7\n        /* \"#utility.yul\":887:904   */\n      add\n        /* \"#utility.yul\":839:918   */\n      tag_23\n      jump\t// in\n    tag_43:\n        /* \"#utility.yul\":830:918   */\n      swap2\n      pop\n        /* \"#utility.yul\":646:924   */\n      pop\n        /* \"#utility.yul\":584:924   */\n      swap3\n      swap2\n      pop\n      pop\n      jump\t// out\n        /* \"#utility.yul\":930:1069   */\n    tag_44:\n        /* \"#utility.yul\":976:981   */\n      0x00\n        /* \"#utility.yul\":1014:1020   */\n      dup2\n        /* \"#utility.yul\":1001:1021   */\n      calldataload\n        /* \"#utility.yul\":992:1021   */\n      swap1\n      pop\n        /* \"#utility.yul\":1030:1063   */\n      tag_46\n        /* \"#utility.yul\":1057:1062   */\n      dup2\n        /* \"#utility.yul\":1030:1063   */\n      tag_47\n      jump\t// in\n    tag_46:\n        /* \"#utility.yul\":930:1069   */\n      swap3\n      swap2\n      pop\n      pop\n      jump\t// out\n        /* \"#utility.yul\":1075:1874   */\n    tag_6:\n        /* \"#utility.yul\":1162:1168   */\n      0x00\n        /* \"#utility.yul\":1170:1176   */\n      dup1\n        /* \"#utility.yul\":1178:1184   */\n      0x00\n        /* \"#utility.yul\":1227:1229   */\n      0x60\n        /* \"#utility.yul\":1215:1224   */\n      dup5\n        /* \"#utility.yul\":1206:1213   */\n      dup7\n        /* \"#utility.yul\":1202:1225   */\n      sub\n        /* \"#utility.yul\":1198:1230   */\n      slt\n        /* \"#utility.yul\":1195:1314   */\n      iszero\n      tag_49\n      jumpi\n        /* \"#utility.yul\":1233:1312   */\n      tag_50\n      tag_51\n      jump\t// in\n    tag_50:\n        /* \"#utility.yul\":1195:1314   */\n    tag_49:\n        /* \"#utility.yul\":1353:1354   */\n      0x00\n        /* \"#utility.yul\":1378:1431   */\n      tag_52\n        /* \"#utility.yul\":1423:1430   */\n      dup7\n        /* \"#utility.yul\":1414:1420   */\n      dup3\n        /* \"#utility.yul\":1403:1412   */\n      dup8\n        /* \"#utility.yul\":1399:1421   */\n      add\n        /* \"#utility.yul\":1378:1431   */\n      tag_34\n      jump\t// in\n    tag_52:\n        /* \"#utility.yul\":1368:1431   */\n      swap4\n      pop\n        /* \"#utility.yul\":1324:1441   */\n      pop\n        /* \"#utility.yul\":1480:1482   */\n      0x20\n        /* \"#utility.yul\":1506:1559   */\n      tag_53\n        /* \"#utility.yul\":1551:1558   */\n      dup7\n        /* \"#utility.yul\":1542:1548   */\n      dup3\n        /* \"#utility.yul\":1531:1540   */\n      dup8\n        /* \"#utility.yul\":1527:1549   */\n      add\n        /* \"#utility.yul\":1506:1559   */\n      tag_44\n      jump\t// in\n    tag_53:\n        /* \"#utility.yul\":1496:1559   */\n      swap3\n      pop\n        /* \"#utility.yul\":1451:1569   */\n      pop\n        /* \"#utility.yul\":1636:1638   */\n      0x40\n        /* \"#utility.yul\":1625:1634   */\n      dup5\n        /* \"#utility.yul\":1621:1639   */\n      add\n        /* \"#utility.yul\":1608:1640   */\n      calldataload\n        /* \"#utility.yul\":1667:1685   */\n      0xffffffffffffffff\n        /* \"#utility.yul\":1659:1665   */\n      dup2\n        /* \"#utility.yul\":1656:1686   */\n      gt\n        /* \"#utility.yul\":1653:1770   */\n      iszero\n      tag_54\n      jumpi\n        /* \"#utility.yul\":1689:1768   */\n      tag_55\n      tag_56\n      jump\t// in\n    tag_55:\n        /* \"#utility.yul\":1653:1770   */\n    tag_54:\n        /* \"#utility.yul\":1794:1857   */\n      tag_57\n        /* \"#utility.yul\":1849:1856   */\n      dup7\n        /* \"#utility.yul\":1840:1846   */\n      dup3\n        /* \"#utility.yul\":1829:1838   */\n      dup8\n        /* \"#utility.yul\":1825:1847   */\n      add\n        /* \"#utility.yul\":1794:1857   */\n      tag_38\n      jump\t// in\n    tag_57:\n        /* \"#utility.yul\":1784:1857   */\n      swap2\n      pop\n        /* \"#utility.yul\":1579:1867   */\n      pop\n        /* \"#utility.yul\":1075:1874   */\n      swap3\n      pop\n      swap3\n      pop\n      swap3\n      jump\t// out\n        /* \"#utility.yul\":1880:1989   */\n    tag_58:\n        /* \"#utility.yul\":1961:1982   */\n      tag_60\n        /* \"#utility.yul\":1976:1981   */\n      dup2\n        /* \"#utility.yul\":1961:1982   */\n      tag_61\n      jump\t// in\n    tag_60:\n        /* \"#utility.yul\":1956:1959   */\n      dup3\n        /* \"#utility.yul\":1949:1983   */\n      mstore\n        /* \"#utility.yul\":1880:1989   */\n      pop\n      pop\n      jump\t// out\n        /* \"#utility.yul\":1995:2148   */\n    tag_62:\n        /* \"#utility.yul\":2098:2141   */\n      tag_64\n        /* \"#utility.yul\":2117:2140   */\n      tag_65\n        /* \"#utility.yul\":2134:2139   */\n      dup3\n        /* \"#utility.yul\":2117:2140   */\n      tag_66\n      jump\t// in\n    tag_65:\n        /* \"#utility.yul\":2098:2141   */\n      tag_67\n      jump\t// in\n    tag_64:\n        /* \"#utility.yul\":2093:2096   */\n      dup3\n        /* \"#utility.yul\":2086:2142   */\n      mstore\n        /* \"#utility.yul\":1995:2148   */\n      pop\n      pop\n      jump\t// out\n        /* \"#utility.yul\":2154:2527   */\n    tag_68:\n        /* \"#utility.yul\":2258:2261   */\n      0x00\n        /* \"#utility.yul\":2286:2324   */\n      tag_70\n        /* \"#utility.yul\":2318:2323   */\n      dup3\n        /* \"#utility.yul\":2286:2324   */\n      tag_71\n      jump\t// in\n    tag_70:\n        /* \"#utility.yul\":2340:2428   */\n      tag_72\n        /* \"#utility.yul\":2421:2427   */\n      dup2\n        /* \"#utility.yul\":2416:2419   */\n      dup6\n        /* \"#utility.yul\":2340:2428   */\n      tag_73\n      jump\t// in\n    tag_72:\n        /* \"#utility.yul\":2333:2428   */\n      swap4\n      pop\n        /* \"#utility.yul\":2437:2489   */\n      tag_74\n        /* \"#utility.yul\":2482:2488   */\n      dup2\n        /* \"#utility.yul\":2477:2480   */\n      dup6\n        /* \"#utility.yul\":2470:2474   */\n      0x20\n        /* \"#utility.yul\":2463:2468   */\n      dup7\n        /* \"#utility.yul\":2459:2475   */\n      add\n        /* \"#utility.yul\":2437:2489   */\n      tag_75\n      jump\t// in\n    tag_74:\n        /* \"#utility.yul\":2514:2520   */\n      dup1\n        /* \"#utility.yul\":2509:2512   */\n      dup5\n        /* \"#utility.yul\":2505:2521   */\n      add\n        /* \"#utility.yul\":2498:2521   */\n      swap2\n      pop\n        /* \"#utility.yul\":2262:2527   */\n      pop\n        /* \"#utility.yul\":2154:2527   */\n      swap3\n      swap2\n      pop\n      pop\n      jump\t// out\n        /* \"#utility.yul\":2533:2897   */\n    tag_76:\n        /* \"#utility.yul\":2621:2624   */\n      0x00\n        /* \"#utility.yul\":2649:2688   */\n      tag_78\n        /* \"#utility.yul\":2682:2687   */\n      dup3\n        /* \"#utility.yul\":2649:2688   */\n      tag_79\n      jump\t// in\n    tag_78:\n        /* \"#utility.yul\":2704:2775   */\n      tag_80\n        /* \"#utility.yul\":2768:2774   */\n      dup2\n        /* \"#utility.yul\":2763:2766   */\n      dup6\n        /* \"#utility.yul\":2704:2775   */\n      tag_81\n      jump\t// in\n    tag_80:\n        /* \"#utility.yul\":2697:2775   */\n      swap4\n      pop\n        /* \"#utility.yul\":2784:2836   */\n      tag_82\n        /* \"#utility.yul\":2829:2835   */\n      dup2\n        /* \"#utility.yul\":2824:2827   */\n      dup6\n        /* \"#utility.yul\":2817:2821   */\n      0x20\n        /* \"#utility.yul\":2810:2815   */\n      dup7\n        /* \"#utility.yul\":2806:2822   */\n      add\n        /* \"#utility.yul\":2784:2836   */\n      tag_75\n      jump\t// in\n    tag_82:\n        /* \"#utility.yul\":2861:2890   */\n      tag_83\n        /* \"#utility.yul\":2883:2889   */\n      dup2\n        /* \"#utility.yul\":2861:2890   */\n      tag_84\n      jump\t// in\n    tag_83:\n        /* \"#utility.yul\":2856:2859   */\n      dup5\n        /* \"#utility.yul\":2852:2891   */\n      add\n        /* \"#utility.yul\":2845:2891   */\n      swap2\n      pop\n        /* \"#utility.yul\":2625:2897   */\n      pop\n        /* \"#utility.yul\":2533:2897   */\n      swap3\n      swap2\n      pop\n      pop\n      jump\t// out\n        /* \"#utility.yul\":2903:3021   */\n    tag_85:\n        /* \"#utility.yul\":2990:3014   */\n      tag_87\n        /* \"#utility.yul\":3008:3013   */\n      dup2\n        /* \"#utility.yul\":2990:3014   */\n      tag_88\n      jump\t// in\n    tag_87:\n        /* \"#utility.yul\":2985:2988   */\n      dup3\n        /* \"#utility.yul\":2978:3015   */\n      mstore\n        /* \"#utility.yul\":2903:3021   */\n      pop\n      pop\n      jump\t// out\n        /* \"#utility.yul\":3027:3590   */\n    tag_16:\n        /* \"#utility.yul\":3229:3232   */\n      0x00\n        /* \"#utility.yul\":3244:3317   */\n      tag_90\n        /* \"#utility.yul\":3313:3316   */\n      dup3\n        /* \"#utility.yul\":3304:3310   */\n      dup7\n        /* \"#utility.yul\":3244:3317   */\n      tag_62\n      jump\t// in\n    tag_90:\n        /* \"#utility.yul\":3342:3343   */\n      0x04\n        /* \"#utility.yul\":3337:3340   */\n      dup3\n        /* \"#utility.yul\":3333:3344   */\n      add\n        /* \"#utility.yul\":3326:3344   */\n      swap2\n      pop\n        /* \"#utility.yul\":3361:3454   */\n      tag_91\n        /* \"#utility.yul\":3450:3453   */\n      dup3\n        /* \"#utility.yul\":3441:3447   */\n      dup6\n        /* \"#utility.yul\":3361:3454   */\n      tag_68\n      jump\t// in\n    tag_91:\n        /* \"#utility.yul\":3354:3454   */\n      swap2\n      pop\n        /* \"#utility.yul\":3471:3564   */\n      tag_92\n        /* \"#utility.yul\":3560:3563   */\n      dup3\n        /* \"#utility.yul\":3551:3557   */\n      dup5\n        /* \"#utility.yul\":3471:3564   */\n      tag_68\n      jump\t// in\n    tag_92:\n        /* \"#utility.yul\":3464:3564   */\n      swap2\n      pop\n        /* \"#utility.yul\":3581:3584   */\n      dup2\n        /* \"#utility.yul\":3574:3584   */\n      swap1\n      pop\n        /* \"#utility.yul\":3027:3590   */\n      swap5\n      swap4\n      pop\n      pop\n      pop\n      pop\n      jump\t// out\n        /* \"#utility.yul\":3596:3867   */\n    tag_18:\n        /* \"#utility.yul\":3726:3729   */\n      0x00\n        /* \"#utility.yul\":3748:3841   */\n      tag_94\n        /* \"#utility.yul\":3837:3840   */\n      dup3\n        /* \"#utility.yul\":3828:3834   */\n      dup5\n        /* \"#utility.yul\":3748:3841   */\n      tag_68\n      jump\t// in\n    tag_94:\n        /* \"#utility.yul\":3741:3841   */\n      swap2\n      pop\n        /* \"#utility.yul\":3858:3861   */\n      dup2\n        /* \"#utility.yul\":3851:3861   */\n      swap1\n      pop\n        /* \"#utility.yul\":3596:3867   */\n      swap3\n      swap2\n      pop\n      pop\n      jump\t// out\n        /* \"#utility.yul\":3873:4083   */\n    tag_9:\n        /* \"#utility.yul\":3960:3964   */\n      0x00\n        /* \"#utility.yul\":3998:4000   */\n      0x20\n        /* \"#utility.yul\":3987:3996   */\n      dup3\n        /* \"#utility.yul\":3983:4001   */\n      add\n        /* \"#utility.yul\":3975:4001   */\n      swap1\n      pop\n        /* \"#utility.yul\":4011:4076   */\n      tag_96\n        /* \"#utility.yul\":4073:4074   */\n      0x00\n        /* \"#utility.yul\":4062:4071   */\n      dup4\n        /* \"#utility.yul\":4058:4075   */\n      add\n        /* \"#utility.yul\":4049:4055   */\n      dup5\n        /* \"#utility.yul\":4011:4076   */\n      tag_58\n      jump\t// in\n    tag_96:\n        /* \"#utility.yul\":3873:4083   */\n      swap3\n      swap2\n      pop\n      pop\n      jump\t// out\n        /* \"#utility.yul\":4089:4402   */\n    tag_14:\n        /* \"#utility.yul\":4202:4206   */\n      0x00\n        /* \"#utility.yul\":4240:4242   */\n      0x20\n        /* \"#utility.yul\":4229:4238   */\n      dup3\n        /* \"#utility.yul\":4225:4243   */\n      add\n        /* \"#utility.yul\":4217:4243   */\n      swap1\n      pop\n        /* \"#utility.yul\":4289:4298   */\n      dup2\n        /* \"#utility.yul\":4283:4287   */\n      dup2\n        /* \"#utility.yul\":4279:4299   */\n      sub\n        /* \"#utility.yul\":4275:4276   */\n      0x00\n        /* \"#utility.yul\":4264:4273   */\n      dup4\n        /* \"#utility.yul\":4260:4277   */\n      add\n        /* \"#utility.yul\":4253:4300   */\n      mstore\n        /* \"#utility.yul\":4317:4395   */\n      tag_98\n        /* \"#utility.yul\":4390:4394   */\n      dup2\n        /* \"#utility.yul\":4381:4387   */\n      dup5\n        /* \"#utility.yul\":4317:4395   */\n      tag_76\n      jump\t// in\n    tag_98:\n        /* \"#utility.yul\":4309:4395   */\n      swap1\n      pop\n        /* \"#utility.yul\":4089:4402   */\n      swap3\n      swap2\n      pop\n      pop\n      jump\t// out\n        /* \"#utility.yul\":4408:4630   */\n    tag_12:\n        /* \"#utility.yul\":4501:4505   */\n      0x00\n        /* \"#utility.yul\":4539:4541   */\n      0x20\n        /* \"#utility.yul\":4528:4537   */\n      dup3\n        /* \"#utility.yul\":4524:4542   */\n      add\n        /* \"#utility.yul\":4516:4542   */\n      swap1\n      pop\n        /* \"#utility.yul\":4552:4623   */\n      tag_100\n        /* \"#utility.yul\":4620:4621   */\n      0x00\n        /* \"#utility.yul\":4609:4618   */\n      dup4\n        /* \"#utility.yul\":4605:4622   */\n      add\n        /* \"#utility.yul\":4596:4602   */\n      dup5\n        /* \"#utility.yul\":4552:4623   */\n      tag_85\n      jump\t// in\n    tag_100:\n        /* \"#utility.yul\":4408:4630   */\n      swap3\n      swap2\n      pop\n      pop\n      jump\t// out\n        /* \"#utility.yul\":4636:4765   */\n    tag_28:\n        /* \"#utility.yul\":4670:4676   */\n      0x00\n        /* \"#utility.yul\":4697:4717   */\n      tag_102\n      tag_103\n      jump\t// in\n    tag_102:\n        /* \"#utility.yul\":4687:4717   */\n      swap1\n      pop\n        /* \"#utility.yul\":4726:4759   */\n      tag_104\n        /* \"#utility.yul\":4754:4758   */\n      dup3\n        /* \"#utility.yul\":4746:4752   */\n      dup3\n        /* \"#utility.yul\":4726:4759   */\n      tag_105\n      jump\t// in\n    tag_104:\n        /* \"#utility.yul\":4636:4765   */\n      swap2\n      swap1\n      pop\n      jump\t// out\n        /* \"#utility.yul\":4771:4846   */\n    tag_103:\n        /* \"#utility.yul\":4804:4810   */\n      0x00\n        /* \"#utility.yul\":4837:4839   */\n      0x40\n        /* \"#utility.yul\":4831:4840   */\n      mload\n        /* \"#utility.yul\":4821:4840   */\n      swap1\n      pop\n        /* \"#utility.yul\":4771:4846   */\n      swap1\n      jump\t// out\n        /* \"#utility.yul\":4852:5160   */\n    tag_27:\n        /* \"#utility.yul\":4914:4918   */\n      0x00\n        /* \"#utility.yul\":5004:5022   */\n      0xffffffffffffffff\n        /* \"#utility.yul\":4996:5002   */\n      dup3\n        /* \"#utility.yul\":4993:5023   */\n      gt\n        /* \"#utility.yul\":4990:5046   */\n      iszero\n      tag_108\n      jumpi\n        /* \"#utility.yul\":5026:5044   */\n      tag_109\n      tag_110\n      jump\t// in\n    tag_109:\n        /* \"#utility.yul\":4990:5046   */\n    tag_108:\n        /* \"#utility.yul\":5064:5093   */\n      tag_111\n        /* \"#utility.yul\":5086:5092   */\n      dup3\n        /* \"#utility.yul\":5064:5093   */\n      tag_84\n      jump\t// in\n    tag_111:\n        /* \"#utility.yul\":5056:5093   */\n      swap1\n      pop\n        /* \"#utility.yul\":5148:5152   */\n      0x20\n        /* \"#utility.yul\":5142:5146   */\n      dup2\n        /* \"#utility.yul\":5138:5153   */\n      add\n        /* \"#utility.yul\":5130:5153   */\n      swap1\n      pop\n        /* \"#utility.yul\":4852:5160   */\n      swap2\n      swap1\n      pop\n      jump\t// out\n        /* \"#utility.yul\":5166:5264   */\n    tag_71:\n        /* \"#utility.yul\":5217:5223   */\n      0x00\n        /* \"#utility.yul\":5251:5256   */\n      dup2\n        /* \"#utility.yul\":5245:5257   */\n      mload\n        /* \"#utility.yul\":5235:5257   */\n      swap1\n      pop\n        /* \"#utility.yul\":5166:5264   */\n      swap2\n      swap1\n      pop\n      jump\t// out\n        /* \"#utility.yul\":5270:5369   */\n    tag_79:\n        /* \"#utility.yul\":5322:5328   */\n      0x00\n        /* \"#utility.yul\":5356:5361   */\n      dup2\n        /* \"#utility.yul\":5350:5362   */\n      mload\n        /* \"#utility.yul\":5340:5362   */\n      swap1\n      pop\n        /* \"#utility.yul\":5270:5369   */\n      swap2\n      swap1\n      pop\n      jump\t// out\n        /* \"#utility.yul\":5375:5522   */\n    tag_73:\n        /* \"#utility.yul\":5476:5487   */\n      0x00\n        /* \"#utility.yul\":5513:5516   */\n      dup2\n        /* \"#utility.yul\":5498:5516   */\n      swap1\n      pop\n        /* \"#utility.yul\":5375:5522   */\n      swap3\n      swap2\n      pop\n      pop\n      jump\t// out\n        /* \"#utility.yul\":5528:5697   */\n    tag_81:\n        /* \"#utility.yul\":5612:5623   */\n      0x00\n        /* \"#utility.yul\":5646:5652   */\n      dup3\n        /* \"#utility.yul\":5641:5644   */\n      dup3\n        /* \"#utility.yul\":5634:5653   */\n      mstore\n        /* \"#utility.yul\":5686:5690   */\n      0x20\n        /* \"#utility.yul\":5681:5684   */\n      dup3\n        /* \"#utility.yul\":5677:5691   */\n      add\n        /* \"#utility.yul\":5662:5691   */\n      swap1\n      pop\n        /* \"#utility.yul\":5528:5697   */\n      swap3\n      swap2\n      pop\n      pop\n      jump\t// out\n        /* \"#utility.yul\":5703:5799   */\n    tag_116:\n        /* \"#utility.yul\":5740:5747   */\n      0x00\n        /* \"#utility.yul\":5769:5793   */\n      tag_118\n        /* \"#utility.yul\":5787:5792   */\n      dup3\n        /* \"#utility.yul\":5769:5793   */\n      tag_119\n      jump\t// in\n    tag_118:\n        /* \"#utility.yul\":5758:5793   */\n      swap1\n      pop\n        /* \"#utility.yul\":5703:5799   */\n      swap2\n      swap1\n      pop\n      jump\t// out\n        /* \"#utility.yul\":5805:5895   */\n    tag_61:\n        /* \"#utility.yul\":5839:5846   */\n      0x00\n        /* \"#utility.yul\":5882:5887   */\n      dup2\n        /* \"#utility.yul\":5875:5888   */\n      iszero\n        /* \"#utility.yul\":5868:5889   */\n      iszero\n        /* \"#utility.yul\":5857:5889   */\n      swap1\n      pop\n        /* \"#utility.yul\":5805:5895   */\n      swap2\n      swap1\n      pop\n      jump\t// out\n        /* \"#utility.yul\":5901:6050   */\n    tag_66:\n        /* \"#utility.yul\":5937:5944   */\n      0x00\n        /* \"#utility.yul\":5977:6043   */\n      0xffffffff00000000000000000000000000000000000000000000000000000000\n        /* \"#utility.yul\":5970:5975   */\n      dup3\n        /* \"#utility.yul\":5966:6044   */\n      and\n        /* \"#utility.yul\":5955:6044   */\n      swap1\n      pop\n        /* \"#utility.yul\":5901:6050   */\n      swap2\n      swap1\n      pop\n      jump\t// out\n        /* \"#utility.yul\":6056:6182   */\n    tag_119:\n        /* \"#utility.yul\":6093:6100   */\n      0x00\n        /* \"#utility.yul\":6133:6175   */\n      0xffffffffffffffffffffffffffffffffffffffff\n        /* \"#utility.yul\":6126:6131   */\n      dup3\n        /* \"#utility.yul\":6122:6176   */\n      and\n        /* \"#utility.yul\":6111:6176   */\n      swap1\n      pop\n        /* \"#utility.yul\":6056:6182   */\n      swap2\n      swap1\n      pop\n      jump\t// out\n        /* \"#utility.yul\":6188:6265   */\n    tag_88:\n        /* \"#utility.yul\":6225:6232   */\n      0x00\n        /* \"#utility.yul\":6254:6259   */\n      dup2\n        /* \"#utility.yul\":6243:6259   */\n      swap1\n      pop\n        /* \"#utility.yul\":6188:6265   */\n      swap2\n      swap1\n      pop\n      jump\t// out\n        /* \"#utility.yul\":6271:6425   */\n    tag_33:\n        /* \"#utility.yul\":6355:6361   */\n      dup3\n        /* \"#utility.yul\":6350:6353   */\n      dup2\n        /* \"#utility.yul\":6345:6348   */\n      dup4\n        /* \"#utility.yul\":6332:6362   */\n      calldatacopy\n        /* \"#utility.yul\":6417:6418   */\n      0x00\n        /* \"#utility.yul\":6408:6414   */\n      dup4\n        /* \"#utility.yul\":6403:6406   */\n      dup4\n        /* \"#utility.yul\":6399:6415   */\n      add\n        /* \"#utility.yul\":6392:6419   */\n      mstore\n        /* \"#utility.yul\":6271:6425   */\n      pop\n      pop\n      pop\n      jump\t// out\n        /* \"#utility.yul\":6431:6738   */\n    tag_75:\n        /* \"#utility.yul\":6499:6500   */\n      0x00\n        /* \"#utility.yul\":6509:6622   */\n    tag_126:\n        /* \"#utility.yul\":6523:6529   */\n      dup4\n        /* \"#utility.yul\":6520:6521   */\n      dup2\n        /* \"#utility.yul\":6517:6530   */\n      lt\n        /* \"#utility.yul\":6509:6622   */\n      iszero\n      tag_128\n      jumpi\n        /* \"#utility.yul\":6608:6609   */\n      dup1\n        /* \"#utility.yul\":6603:6606   */\n      dup3\n        /* \"#utility.yul\":6599:6610   */\n      add\n        /* \"#utility.yul\":6593:6611   */\n      mload\n        /* \"#utility.yul\":6589:6590   */\n      dup2\n        /* \"#utility.yul\":6584:6587   */\n      dup5\n        /* \"#utility.yul\":6580:6591   */\n      add\n        /* \"#utility.yul\":6573:6612   */\n      mstore\n        /* \"#utility.yul\":6545:6547   */\n      0x20\n        /* \"#utility.yul\":6542:6543   */\n      dup2\n        /* \"#utility.yul\":6538:6548   */\n      add\n        /* \"#utility.yul\":6533:6548   */\n      swap1\n      pop\n        /* \"#utility.yul\":6509:6622   */\n      jump(tag_126)\n    tag_128:\n        /* \"#utility.yul\":6640:6646   */\n      dup4\n        /* \"#utility.yul\":6637:6638   */\n      dup2\n        /* \"#utility.yul\":6634:6647   */\n      gt\n        /* \"#utility.yul\":6631:6732   */\n      iszero\n      tag_129\n      jumpi\n        /* \"#utility.yul\":6720:6721   */\n      0x00\n        /* \"#utility.yul\":6711:6717   */\n      dup5\n        /* \"#utility.yul\":6706:6709   */\n      dup5\n        /* \"#utility.yul\":6702:6718   */\n      add\n        /* \"#utility.yul\":6695:6722   */\n      mstore\n        /* \"#utility.yul\":6631:6732   */\n    tag_129:\n        /* \"#utility.yul\":6480:6738   */\n      pop\n        /* \"#utility.yul\":6431:6738   */\n      pop\n      pop\n      pop\n      jump\t// out\n        /* \"#utility.yul\":6744:7025   */\n    tag_105:\n        /* \"#utility.yul\":6827:6854   */\n      tag_131\n        /* \"#utility.yul\":6849:6853   */\n      dup3\n        /* \"#utility.yul\":6827:6854   */\n      tag_84\n      jump\t// in\n    tag_131:\n        /* \"#utility.yul\":6819:6825   */\n      dup2\n        /* \"#utility.yul\":6815:6855   */\n      add\n        /* \"#utility.yul\":6957:6963   */\n      dup2\n        /* \"#utility.yul\":6945:6955   */\n      dup2\n        /* \"#utility.yul\":6942:6964   */\n      lt\n        /* \"#utility.yul\":6921:6939   */\n      0xffffffffffffffff\n        /* \"#utility.yul\":6909:6919   */\n      dup3\n        /* \"#utility.yul\":6906:6940   */\n      gt\n        /* \"#utility.yul\":6903:6965   */\n      or\n        /* \"#utility.yul\":6900:6988   */\n      iszero\n      tag_132\n      jumpi\n        /* \"#utility.yul\":6968:6986   */\n      tag_133\n      tag_110\n      jump\t// in\n    tag_133:\n        /* \"#utility.yul\":6900:6988   */\n    tag_132:\n        /* \"#utility.yul\":7008:7018   */\n      dup1\n        /* \"#utility.yul\":7004:7006   */\n      0x40\n        /* \"#utility.yul\":6997:7019   */\n      mstore\n        /* \"#utility.yul\":6787:7025   */\n      pop\n        /* \"#utility.yul\":6744:7025   */\n      pop\n      pop\n      jump\t// out\n        /* \"#utility.yul\":7031:7109   */\n    tag_67:\n        /* \"#utility.yul\":7069:7076   */\n      0x00\n        /* \"#utility.yul\":7098:7103   */\n      dup2\n        /* \"#utility.yul\":7087:7103   */\n      swap1\n      pop\n        /* \"#utility.yul\":7031:7109   */\n      swap2\n      swap1\n      pop\n      jump\t// out\n        /* \"#utility.yul\":7115:7295   */\n    tag_110:\n        /* \"#utility.yul\":7163:7240   */\n      0x4e487b7100000000000000000000000000000000000000000000000000000000\n        /* \"#utility.yul\":7160:7161   */\n      0x00\n        /* \"#utility.yul\":7153:7241   */\n      mstore\n        /* \"#utility.yul\":7260:7264   */\n      0x41\n        /* \"#utility.yul\":7257:7258   */\n      0x04\n        /* \"#utility.yul\":7250:7265   */\n      mstore\n        /* \"#utility.yul\":7284:7288   */\n      0x24\n        /* \"#utility.yul\":7281:7282   */\n      0x00\n        /* \"#utility.yul\":7274:7289   */\n      revert\n        /* \"#utility.yul\":7301:7418   */\n    tag_42:\n        /* \"#utility.yul\":7410:7411   */\n      0x00\n        /* \"#utility.yul\":7407:7408   */\n      dup1\n        /* \"#utility.yul\":7400:7412   */\n      revert\n        /* \"#utility.yul\":7424:7541   */\n    tag_31:\n        /* \"#utility.yul\":7533:7534   */\n      0x00\n        /* \"#utility.yul\":7530:7531   */\n      dup1\n        /* \"#utility.yul\":7523:7535   */\n      revert\n        /* \"#utility.yul\":7547:7664   */\n    tag_56:\n        /* \"#utility.yul\":7656:7657   */\n      0x00\n        /* \"#utility.yul\":7653:7654   */\n      dup1\n        /* \"#utility.yul\":7646:7658   */\n      revert\n        /* \"#utility.yul\":7670:7787   */\n    tag_51:\n        /* \"#utility.yul\":7779:7780   */\n      0x00\n        /* \"#utility.yul\":7776:7777   */\n      dup1\n        /* \"#utility.yul\":7769:7781   */\n      revert\n        /* \"#utility.yul\":7793:7895   */\n    tag_84:\n        /* \"#utility.yul\":7834:7840   */\n      0x00\n        /* \"#utility.yul\":7885:7887   */\n      0x1f\n        /* \"#utility.yul\":7881:7888   */\n      not\n        /* \"#utility.yul\":7876:7878   */\n      0x1f\n        /* \"#utility.yul\":7869:7874   */\n      dup4\n        /* \"#utility.yul\":7865:7879   */\n      add\n        /* \"#utility.yul\":7861:7889   */\n      and\n        /* \"#utility.yul\":7851:7889   */\n      swap1\n      pop\n        /* \"#utility.yul\":7793:7895   */\n      swap2\n      swap1\n      pop\n      jump\t// out\n        /* \"#utility.yul\":7901:8023   */\n    tag_37:\n        /* \"#utility.yul\":7974:7998   */\n      tag_142\n        /* \"#utility.yul\":7992:7997   */\n      dup2\n        /* \"#utility.yul\":7974:7998   */\n      tag_116\n      jump\t// in\n    tag_142:\n        /* \"#utility.yul\":7967:7972   */\n      dup2\n        /* \"#utility.yul\":7964:7999   */\n      eq\n        /* \"#utility.yul\":7954:8017   */\n      tag_143\n      jumpi\n        /* \"#utility.yul\":8013:8014   */\n      0x00\n        /* \"#utility.yul\":8010:8011   */\n      dup1\n        /* \"#utility.yul\":8003:8015   */\n      revert\n        /* \"#utility.yul\":7954:8017   */\n    tag_143:\n        /* \"#utility.yul\":7901:8023   */\n      pop\n      jump\t// out\n        /* \"#utility.yul\":8029:8151   */\n    tag_47:\n        /* \"#utility.yul\":8102:8126   */\n      tag_145\n        /* \"#utility.yul\":8120:8125   */\n      dup2\n        /* \"#utility.yul\":8102:8126   */\n      tag_88\n      jump\t// in\n    tag_145:\n        /* \"#utility.yul\":8095:8100   */\n      dup2\n        /* \"#utility.yul\":8092:8127   */\n      eq\n        /* \"#utility.yul\":8082:8145   */\n      tag_146\n      jumpi\n        /* \"#utility.yul\":8141:8142   */\n      0x00\n        /* \"#utility.yul\":8138:8139   */\n      dup1\n        /* \"#utility.yul\":8131:8143   */\n      revert\n        /* \"#utility.yul\":8082:8145   */\n    tag_146:\n        /* \"#utility.yul\":8029:8151   */\n      pop\n      jump\t// out\n\n    auxdata: 0xa2646970667358221220e67d5fae0594a4f017f37652fe3964a73293c47060cb75a28c89606a9db2e58764736f6c63430008070033\n}\n",
				"bytecode": {
					"linkReferences": {},
					"object": "608060405234801561001057600080fd5b506105e9806100206000396000f3fe608060405234801561001057600080fd5b506004361061002b5760003560e01c80635d0917ce14610030575b600080fd5b61004a60048036038101906100459190610206565b610060565b6040516100579190610360565b60405180910390f35b6000807ff36b7e206372020ac6f133c51128b98ce9b6dec42947a3bcc529d82e524842d29050600084604051602001610099919061039d565b60405160208183030381529060405290506000846040516020016100bd919061037b565b604051602081830303815290604052905060008773ffffffffffffffffffffffffffffffffffffffff168484846040516020016100fc93929190610314565b6040516020818303038152906040526040516101189190610349565b6000604051808303816000865af19150503d8060008114610155576040519150601f19603f3d011682016040523d82523d6000602084013e61015a565b606091505b50509050809450505050509392505050565b600061017f61017a846103dd565b6103b8565b90508281526020810184848401111561019b5761019a610565565b5b6101a68482856104b4565b509392505050565b6000813590506101bd81610585565b92915050565b600082601f8301126101d8576101d7610560565b5b81356101e884826020860161016c565b91505092915050565b6000813590506102008161059c565b92915050565b60008060006060848603121561021f5761021e61056f565b5b600061022d868287016101ae565b935050602061023e868287016101f1565b925050604084013567ffffffffffffffff81111561025f5761025e61056a565b5b61026b868287016101c3565b9150509250925092565b61027e81610452565b82525050565b6102956102908261045e565b610527565b82525050565b60006102a68261040e565b6102b08185610424565b93506102c08185602086016104c3565b80840191505092915050565b60006102d782610419565b6102e1818561042f565b93506102f18185602086016104c3565b6102fa81610574565b840191505092915050565b61030e816104aa565b82525050565b60006103208286610284565b600482019150610330828561029b565b915061033c828461029b565b9150819050949350505050565b6000610355828461029b565b915081905092915050565b60006020820190506103756000830184610275565b92915050565b6000602082019050818103600083015261039581846102cc565b905092915050565b60006020820190506103b26000830184610305565b92915050565b60006103c26103d3565b90506103ce82826104f6565b919050565b6000604051905090565b600067ffffffffffffffff8211156103f8576103f7610531565b5b61040182610574565b9050602081019050919050565b600081519050919050565b600081519050919050565b600081905092915050565b600082825260208201905092915050565b600061044b8261048a565b9050919050565b60008115159050919050565b60007fffffffff0000000000000000000000000000000000000000000000000000000082169050919050565b600073ffffffffffffffffffffffffffffffffffffffff82169050919050565b6000819050919050565b82818337600083830152505050565b60005b838110156104e15780820151818401526020810190506104c6565b838111156104f0576000848401525b50505050565b6104ff82610574565b810181811067ffffffffffffffff8211171561051e5761051d610531565b5b80604052505050565b6000819050919050565b7f4e487b7100000000000000000000000000000000000000000000000000000000600052604160045260246000fd5b600080fd5b600080fd5b600080fd5b600080fd5b6000601f19601f8301169050919050565b61058e81610440565b811461059957600080fd5b50565b6105a5816104aa565b81146105b057600080fd5b5056fea2646970667358221220e67d5fae0594a4f017f37652fe3964a73293c47060cb75a28c89606a9db2e58764736f6c63430008070033",
					"opcodes": "PUSH1 0x80 PUSH1 0x40 MSTORE CALLVALUE DUP1 ISZERO PUSH2 0x10 JUMPI PUSH1 0x0 DUP1 REVERT JUMPDEST POP PUSH2 0x5E9 DUP1 PUSH2 0x20 PUSH1 0x0 CODECOPY PUSH1 0x0 RETURN INVALID PUSH1 0x80 PUSH1 0x40 MSTORE CALLVALUE DUP1 ISZERO PUSH2 0x10 JUMPI PUSH1 0x0 DUP1 REVERT JUMPDEST POP PUSH1 0x4 CALLDATASIZE LT PUSH2 0x2B JUMPI PUSH1 0x0 CALLDATALOAD PUSH1 0xE0 SHR DUP1 PUSH4 0x5D0917CE EQ PUSH2 0x30 JUMPI JUMPDEST PUSH1 0x0 DUP1 REVERT JUMPDEST PUSH2 0x4A PUSH1 0x4 DUP1 CALLDATASIZE SUB DUP2 ADD SWAP1 PUSH2 0x45 SWAP2 SWAP1 PUSH2 0x206 JUMP JUMPDEST PUSH2 0x60 JUMP JUMPDEST PUSH1 0x40 MLOAD PUSH2 0x57 SWAP2 SWAP1 PUSH2 0x360 JUMP JUMPDEST PUSH1 0x40 MLOAD DUP1 SWAP2 SUB SWAP1 RETURN JUMPDEST PUSH1 0x0 DUP1 PUSH32 0xF36B7E206372020AC6F133C51128B98CE9B6DEC42947A3BCC529D82E524842D2 SWAP1 POP PUSH1 0x0 DUP5 PUSH1 0x40 MLOAD PUSH1 0x20 ADD PUSH2 0x99 SWAP2 SWAP1 PUSH2 0x39D JUMP JUMPDEST PUSH1 0x40 MLOAD PUSH1 0x20 DUP2 DUP4 SUB SUB DUP2 MSTORE SWAP1 PUSH1 0x40 MSTORE SWAP1 POP PUSH1 0x0 DUP5 PUSH1 0x40 MLOAD PUSH1 0x20 ADD PUSH2 0xBD SWAP2 SWAP1 PUSH2 0x37B JUMP JUMPDEST PUSH1 0x40 MLOAD PUSH1 0x20 DUP2 DUP4 SUB SUB DUP2 MSTORE SWAP1 PUSH1 0x40 MSTORE SWAP1 POP PUSH1 0x0 DUP8 PUSH20 0xFFFFFFFFFFFFFFFFFFFFFFFFFFFFFFFFFFFFFFFF AND DUP5 DUP5 DUP5 PUSH1 0x40 MLOAD PUSH1 0x20 ADD PUSH2 0xFC SWAP4 SWAP3 SWAP2 SWAP1 PUSH2 0x314 JUMP JUMPDEST PUSH1 0x40 MLOAD PUSH1 0x20 DUP2 DUP4 SUB SUB DUP2 MSTORE SWAP1 PUSH1 0x40 MSTORE PUSH1 0x40 MLOAD PUSH2 0x118 SWAP2 SWAP1 PUSH2 0x349 JUMP JUMPDEST PUSH1 0x0 PUSH1 0x40 MLOAD DUP1 DUP4 SUB DUP2 PUSH1 0x0 DUP7 GAS CALL SWAP2 POP POP RETURNDATASIZE DUP1 PUSH1 0x0 DUP2 EQ PUSH2 0x155 JUMPI PUSH1 0x40 MLOAD SWAP2 POP PUSH1 0x1F NOT PUSH1 0x3F RETURNDATASIZE ADD AND DUP3 ADD PUSH1 0x40 MSTORE RETURNDATASIZE DUP3 MSTORE RETURNDATASIZE PUSH1 0x0 PUSH1 0x20 DUP5 ADD RETURNDATACOPY PUSH2 0x15A JUMP JUMPDEST PUSH1 0x60 SWAP2 POP JUMPDEST POP POP SWAP1 POP DUP1 SWAP5 POP POP POP POP POP SWAP4 SWAP3 POP POP POP JUMP JUMPDEST PUSH1 0x0 PUSH2 0x17F PUSH2 0x17A DUP5 PUSH2 0x3DD JUMP JUMPDEST PUSH2 0x3B8 JUMP JUMPDEST SWAP1 POP DUP3 DUP2 MSTORE PUSH1 0x20 DUP2 ADD DUP5 DUP5 DUP5 ADD GT ISZERO PUSH2 0x19B JUMPI PUSH2 0x19A PUSH2 0x565 JUMP JUMPDEST JUMPDEST PUSH2 0x1A6 DUP5 DUP3 DUP6 PUSH2 0x4B4 JUMP JUMPDEST POP SWAP4 SWAP3 POP POP POP JUMP JUMPDEST PUSH1 0x0 DUP2 CALLDATALOAD SWAP1 POP PUSH2 0x1BD DUP2 PUSH2 0x585 JUMP JUMPDEST SWAP3 SWAP2 POP POP JUMP JUMPDEST PUSH1 0x0 DUP3 PUSH1 0x1F DUP4 ADD SLT PUSH2 0x1D8 JUMPI PUSH2 0x1D7 PUSH2 0x560 JUMP JUMPDEST JUMPDEST DUP2 CALLDATALOAD PUSH2 0x1E8 DUP5 DUP3 PUSH1 0x20 DUP7 ADD PUSH2 0x16C JUMP JUMPDEST SWAP2 POP POP SWAP3 SWAP2 POP POP JUMP JUMPDEST PUSH1 0x0 DUP2 CALLDATALOAD SWAP1 POP PUSH2 0x200 DUP2 PUSH2 0x59C JUMP JUMPDEST SWAP3 SWAP2 POP POP JUMP JUMPDEST PUSH1 0x0 DUP1 PUSH1 0x0 PUSH1 0x60 DUP5 DUP7 SUB SLT ISZERO PUSH2 0x21F JUMPI PUSH2 0x21E PUSH2 0x56F JUMP JUMPDEST JUMPDEST PUSH1 0x0 PUSH2 0x22D DUP7 DUP3 DUP8 ADD PUSH2 0x1AE JUMP JUMPDEST SWAP4 POP POP PUSH1 0x20 PUSH2 0x23E DUP7 DUP3 DUP8 ADD PUSH2 0x1F1 JUMP JUMPDEST SWAP3 POP POP PUSH1 0x40 DUP5 ADD CALLDATALOAD PUSH8 0xFFFFFFFFFFFFFFFF DUP2 GT ISZERO PUSH2 0x25F JUMPI PUSH2 0x25E PUSH2 0x56A JUMP JUMPDEST JUMPDEST PUSH2 0x26B DUP7 DUP3 DUP8 ADD PUSH2 0x1C3 JUMP JUMPDEST SWAP2 POP POP SWAP3 POP SWAP3 POP SWAP3 JUMP JUMPDEST PUSH2 0x27E DUP2 PUSH2 0x452 JUMP JUMPDEST DUP3 MSTORE POP POP JUMP JUMPDEST PUSH2 0x295 PUSH2 0x290 DUP3 PUSH2 0x45E JUMP JUMPDEST PUSH2 0x527 JUMP JUMPDEST DUP3 MSTORE POP POP JUMP JUMPDEST PUSH1 0x0 PUSH2 0x2A6 DUP3 PUSH2 0x40E JUMP JUMPDEST PUSH2 0x2B0 DUP2 DUP6 PUSH2 0x424 JUMP JUMPDEST SWAP4 POP PUSH2 0x2C0 DUP2 DUP6 PUSH1 0x20 DUP7 ADD PUSH2 0x4C3 JUMP JUMPDEST DUP1 DUP5 ADD SWAP2 POP POP SWAP3 SWAP2 POP POP JUMP JUMPDEST PUSH1 0x0 PUSH2 0x2D7 DUP3 PUSH2 0x419 JUMP JUMPDEST PUSH2 0x2E1 DUP2 DUP6 PUSH2 0x42F JUMP JUMPDEST SWAP4 POP PUSH2 0x2F1 DUP2 DUP6 PUSH1 0x20 DUP7 ADD PUSH2 0x4C3 JUMP JUMPDEST PUSH2 0x2FA DUP2 PUSH2 0x574 JUMP JUMPDEST DUP5 ADD SWAP2 POP POP SWAP3 SWAP2 POP POP JUMP JUMPDEST PUSH2 0x30E DUP2 PUSH2 0x4AA JUMP JUMPDEST DUP3 MSTORE POP POP JUMP JUMPDEST PUSH1 0x0 PUSH2 0x320 DUP3 DUP7 PUSH2 0x284 JUMP JUMPDEST PUSH1 0x4 DUP3 ADD SWAP2 POP PUSH2 0x330 DUP3 DUP6 PUSH2 0x29B JUMP JUMPDEST SWAP2 POP PUSH2 0x33C DUP3 DUP5 PUSH2 0x29B JUMP JUMPDEST SWAP2 POP DUP2 SWAP1 POP SWAP5 SWAP4 POP POP POP POP JUMP JUMPDEST PUSH1 0x0 PUSH2 0x355 DUP3 DUP5 PUSH2 0x29B JUMP JUMPDEST SWAP2 POP DUP2 SWAP1 POP SWAP3 SWAP2 POP POP JUMP JUMPDEST PUSH1 0x0 PUSH1 0x20 DUP3 ADD SWAP1 POP PUSH2 0x375 PUSH1 0x0 DUP4 ADD DUP5 PUSH2 0x275 JUMP JUMPDEST SWAP3 SWAP2 POP POP JUMP JUMPDEST PUSH1 0x0 PUSH1 0x20 DUP3 ADD SWAP1 POP DUP2 DUP2 SUB PUSH1 0x0 DUP4 ADD MSTORE PUSH2 0x395 DUP2 DUP5 PUSH2 0x2CC JUMP JUMPDEST SWAP1 POP SWAP3 SWAP2 POP POP JUMP JUMPDEST PUSH1 0x0 PUSH1 0x20 DUP3 ADD SWAP1 POP PUSH2 0x3B2 PUSH1 0x0 DUP4 ADD DUP5 PUSH2 0x305 JUMP JUMPDEST SWAP3 SWAP2 POP POP JUMP JUMPDEST PUSH1 0x0 PUSH2 0x3C2 PUSH2 0x3D3 JUMP JUMPDEST SWAP1 POP PUSH2 0x3CE DUP3 DUP3 PUSH2 0x4F6 JUMP JUMPDEST SWAP2 SWAP1 POP JUMP JUMPDEST PUSH1 0x0 PUSH1 0x40 MLOAD SWAP1 POP SWAP1 JUMP JUMPDEST PUSH1 0x0 PUSH8 0xFFFFFFFFFFFFFFFF DUP3 GT ISZERO PUSH2 0x3F8 JUMPI PUSH2 0x3F7 PUSH2 0x531 JUMP JUMPDEST JUMPDEST PUSH2 0x401 DUP3 PUSH2 0x574 JUMP JUMPDEST SWAP1 POP PUSH1 0x20 DUP2 ADD SWAP1 POP SWAP2 SWAP1 POP JUMP JUMPDEST PUSH1 0x0 DUP2 MLOAD SWAP1 POP SWAP2 SWAP1 POP JUMP JUMPDEST PUSH1 0x0 DUP2 MLOAD SWAP1 POP SWAP2 SWAP1 POP JUMP JUMPDEST PUSH1 0x0 DUP2 SWAP1 POP SWAP3 SWAP2 POP POP JUMP JUMPDEST PUSH1 0x0 DUP3 DUP3 MSTORE PUSH1 0x20 DUP3 ADD SWAP1 POP SWAP3 SWAP2 POP POP JUMP JUMPDEST PUSH1 0x0 PUSH2 0x44B DUP3 PUSH2 0x48A JUMP JUMPDEST SWAP1 POP SWAP2 SWAP1 POP JUMP JUMPDEST PUSH1 0x0 DUP2 ISZERO ISZERO SWAP1 POP SWAP2 SWAP1 POP JUMP JUMPDEST PUSH1 0x0 PUSH32 0xFFFFFFFF00000000000000000000000000000000000000000000000000000000 DUP3 AND SWAP1 POP SWAP2 SWAP1 POP JUMP JUMPDEST PUSH1 0x0 PUSH20 0xFFFFFFFFFFFFFFFFFFFFFFFFFFFFFFFFFFFFFFFF DUP3 AND SWAP1 POP SWAP2 SWAP1 POP JUMP JUMPDEST PUSH1 0x0 DUP2 SWAP1 POP SWAP2 SWAP1 POP JUMP JUMPDEST DUP3 DUP2 DUP4 CALLDATACOPY PUSH1 0x0 DUP4 DUP4 ADD MSTORE POP POP POP JUMP JUMPDEST PUSH1 0x0 JUMPDEST DUP4 DUP2 LT ISZERO PUSH2 0x4E1 JUMPI DUP1 DUP3 ADD MLOAD DUP2 DUP5 ADD MSTORE PUSH1 0x20 DUP2 ADD SWAP1 POP PUSH2 0x4C6 JUMP JUMPDEST DUP4 DUP2 GT ISZERO PUSH2 0x4F0 JUMPI PUSH1 0x0 DUP5 DUP5 ADD MSTORE JUMPDEST POP POP POP POP JUMP JUMPDEST PUSH2 0x4FF DUP3 PUSH2 0x574 JUMP JUMPDEST DUP2 ADD DUP2 DUP2 LT PUSH8 0xFFFFFFFFFFFFFFFF DUP3 GT OR ISZERO PUSH2 0x51E JUMPI PUSH2 0x51D PUSH2 0x531 JUMP JUMPDEST JUMPDEST DUP1 PUSH1 0x40 MSTORE POP POP POP JUMP JUMPDEST PUSH1 0x0 DUP2 SWAP1 POP SWAP2 SWAP1 POP JUMP JUMPDEST PUSH32 0x4E487B7100000000000000000000000000000000000000000000000000000000 PUSH1 0x0 MSTORE PUSH1 0x41 PUSH1 0x4 MSTORE PUSH1 0x24 PUSH1 0x0 REVERT JUMPDEST PUSH1 0x0 DUP1 REVERT JUMPDEST PUSH1 0x0 DUP1 REVERT JUMPDEST PUSH1 0x0 DUP1 REVERT JUMPDEST PUSH1 0x0 DUP1 REVERT JUMPDEST PUSH1 0x0 PUSH1 0x1F NOT PUSH1 0x1F DUP4 ADD AND SWAP1 POP SWAP2 SWAP1 POP JUMP JUMPDEST PUSH2 0x58E DUP2 PUSH2 0x440 JUMP JUMPDEST DUP2 EQ PUSH2 0x599 JUMPI PUSH1 0x0 DUP1 REVERT JUMPDEST POP JUMP JUMPDEST PUSH2 0x5A5 DUP2 PUSH2 0x4AA JUMP JUMPDEST DUP2 EQ PUSH2 0x5B0 JUMPI PUSH1 0x0 DUP1 REVERT JUMPDEST POP JUMP INVALID LOG2 PUSH5 0x6970667358 0x22 SLT KECCAK256 0xE6 PUSH30 0x5FAE0594A4F017F37652FE3964A73293C47060CB75A28C89606A9DB2E587 PUSH5 0x736F6C6343 STOP ADDMOD SMOD STOP CALLER "
				},
				"gasEstimates": {
					"creation": {
						"codeDepositCost": "302600",
						"executionCost": "343",
						"totalCost": "302943"
					},
					"external": {
						"callBFunction(address,uint256,string)": "infinite"
					}
				},
				"methodIdentifiers": {
					"callBFunction(address,uint256,string)": "5d0917ce"
				}
			},
			"storageLayout": {
				"storage": [],
				"types": null
			},
			"userdoc": {
				"kind": "user",
				"methods": {},
				"version": 1
			}
		}
	}
}