{
	"contracts/16_Dex.sol": {
		"ERC20Basic": {
			"abi": [
				{
					"inputs": [],
					"stateMutability": "nonpayable",
					"type": "constructor"
				},
				{
					"anonymous": false,
					"inputs": [
						{
							"indexed": true,
							"internalType": "address",
							"name": "owner",
							"type": "address"
						},
						{
							"indexed": true,
							"internalType": "address",
							"name": "spender",
							"type": "address"
						},
						{
							"indexed": false,
							"internalType": "uint256",
							"name": "value",
							"type": "uint256"
						}
					],
					"name": "Approval",
					"type": "event"
				},
				{
					"anonymous": false,
					"inputs": [
						{
							"indexed": true,
							"internalType": "address",
							"name": "from",
							"type": "address"
						},
						{
							"indexed": true,
							"internalType": "address",
							"name": "to",
							"type": "address"
						},
						{
							"indexed": false,
							"internalType": "uint256",
							"name": "value",
							"type": "uint256"
						}
					],
					"name": "Tranfer",
					"type": "event"
				},
				{
					"inputs": [
						{
							"internalType": "address",
							"name": "owner",
							"type": "address"
						},
						{
							"internalType": "address",
							"name": "delegate",
							"type": "address"
						}
					],
					"name": "allowance",
					"outputs": [
						{
							"internalType": "uint256",
							"name": "",
							"type": "uint256"
						}
					],
					"stateMutability": "view",
					"type": "function"
				},
				{
					"inputs": [
						{
							"internalType": "address",
							"name": "owner",
							"type": "address"
						},
						{
							"internalType": "address",
							"name": "delegate",
							"type": "address"
						},
						{
							"internalType": "uint256",
							"name": "numTokens",
							"type": "uint256"
						}
					],
					"name": "approve",
					"outputs": [
						{
							"internalType": "bool",
							"name": "",
							"type": "bool"
						}
					],
					"stateMutability": "nonpayable",
					"type": "function"
				},
				{
					"inputs": [
						{
							"internalType": "address",
							"name": "tokenOwner",
							"type": "address"
						}
					],
					"name": "balanceOf",
					"outputs": [
						{
							"internalType": "uint256",
							"name": "",
							"type": "uint256"
						}
					],
					"stateMutability": "view",
					"type": "function"
				},
				{
					"inputs": [],
					"name": "decimals",
					"outputs": [
						{
							"internalType": "uint8",
							"name": "",
							"type": "uint8"
						}
					],
					"stateMutability": "view",
					"type": "function"
				},
				{
					"inputs": [],
					"name": "getAddress",
					"outputs": [
						{
							"internalType": "address",
							"name": "",
							"type": "address"
						}
					],
					"stateMutability": "view",
					"type": "function"
				},
				{
					"inputs": [],
					"name": "name",
					"outputs": [
						{
							"internalType": "string",
							"name": "",
							"type": "string"
						}
					],
					"stateMutability": "view",
					"type": "function"
				},
				{
					"inputs": [],
					"name": "symbol",
					"outputs": [
						{
							"internalType": "string",
							"name": "",
							"type": "string"
						}
					],
					"stateMutability": "view",
					"type": "function"
				},
				{
					"inputs": [],
					"name": "totalSupply",
					"outputs": [
						{
							"internalType": "uint256",
							"name": "",
							"type": "uint256"
						}
					],
					"stateMutability": "view",
					"type": "function"
				},
				{
					"inputs": [
						{
							"internalType": "address",
							"name": "receiver",
							"type": "address"
						},
						{
							"internalType": "uint256",
							"name": "numTokens",
							"type": "uint256"
						}
					],
					"name": "transfer",
					"outputs": [
						{
							"internalType": "bool",
							"name": "",
							"type": "bool"
						}
					],
					"stateMutability": "nonpayable",
					"type": "function"
				},
				{
					"inputs": [
						{
							"internalType": "address",
							"name": "owner",
							"type": "address"
						},
						{
							"internalType": "address",
							"name": "buyer",
							"type": "address"
						},
						{
							"internalType": "uint256",
							"name": "numTokens",
							"type": "uint256"
						}
					],
					"name": "transferFrom",
					"outputs": [
						{
							"internalType": "bool",
							"name": "",
							"type": "bool"
						}
					],
					"stateMutability": "nonpayable",
					"type": "function"
				}
			],
			"devdoc": {
				"kind": "dev",
				"methods": {},
				"version": 1
			},
			"evm": {
				"assembly": "    /* \"contracts/16_Dex.sol\":1154:3160  contract ERC20Basic is IERC20{... */\n  mstore(0x40, 0x80)\n    /* \"contracts/16_Dex.sol\":1449:1457  10 ether */\n  0x8ac7230489e80000\n    /* \"contracts/16_Dex.sol\":1426:1457  uint256 totalSupply_ = 10 ether */\n  0x02\n  sstore\n    /* \"contracts/16_Dex.sol\":1497:1560  constructor(){... */\n  callvalue\n  dup1\n  iszero\n  tag_1\n  jumpi\n  0x00\n  dup1\n  revert\ntag_1:\n  pop\n    /* \"contracts/16_Dex.sol\":1541:1553  totalSupply_ */\n  sload(0x02)\n    /* \"contracts/16_Dex.sol\":1520:1528  balances */\n  0x00\n    /* \"contracts/16_Dex.sol\":1520:1540  balances[msg.sender] */\n  dup1\n    /* \"contracts/16_Dex.sol\":1529:1539  msg.sender */\n  caller\n    /* \"contracts/16_Dex.sol\":1520:1540  balances[msg.sender] */\n  0xffffffffffffffffffffffffffffffffffffffff\n  and\n  0xffffffffffffffffffffffffffffffffffffffff\n  and\n  dup2\n  mstore\n  0x20\n  add\n  swap1\n  dup2\n  mstore\n  0x20\n  add\n  0x00\n  keccak256\n    /* \"contracts/16_Dex.sol\":1520:1553  balances[msg.sender]=totalSupply_ */\n  dup2\n  swap1\n  sstore\n  pop\n    /* \"contracts/16_Dex.sol\":1154:3160  contract ERC20Basic is IERC20{... */\n  dataSize(sub_0)\n  dup1\n  dataOffset(sub_0)\n  0x00\n  codecopy\n  0x00\n  return\nstop\n\nsub_0: assembly {\n        /* \"contracts/16_Dex.sol\":1154:3160  contract ERC20Basic is IERC20{... */\n      mstore(0x40, 0x80)\n      callvalue\n      dup1\n      iszero\n      tag_1\n      jumpi\n      0x00\n      dup1\n      revert\n    tag_1:\n      pop\n      jumpi(tag_2, lt(calldatasize, 0x04))\n      shr(0xe0, calldataload(0x00))\n      dup1\n      0x70a08231\n      gt\n      tag_13\n      jumpi\n      dup1\n      0x70a08231\n      eq\n      tag_8\n      jumpi\n      dup1\n      0x95d89b41\n      eq\n      tag_9\n      jumpi\n      dup1\n      0xa9059cbb\n      eq\n      tag_10\n      jumpi\n      dup1\n      0xdd62ed3e\n      eq\n      tag_11\n      jumpi\n      dup1\n      0xe1f21c67\n      eq\n      tag_12\n      jumpi\n      jump(tag_2)\n    tag_13:\n      dup1\n      0x06fdde03\n      eq\n      tag_3\n      jumpi\n      dup1\n      0x18160ddd\n      eq\n      tag_4\n      jumpi\n      dup1\n      0x23b872dd\n      eq\n      tag_5\n      jumpi\n      dup1\n      0x313ce567\n      eq\n      tag_6\n      jumpi\n      dup1\n      0x38cc4831\n      eq\n      tag_7\n      jumpi\n    tag_2:\n      0x00\n      dup1\n      revert\n        /* \"contracts/16_Dex.sol\":1189:1237  string public constant name=\"ERC20-XiaochunCoin\" */\n    tag_3:\n      tag_14\n      tag_15\n      jump\t// in\n    tag_14:\n      mload(0x40)\n      tag_16\n      swap2\n      swap1\n      tag_17\n      jump\t// in\n    tag_16:\n      mload(0x40)\n      dup1\n      swap2\n      sub\n      swap1\n      return\n        /* \"contracts/16_Dex.sol\":1668:1764  function totalSupply() public override view returns(uint256){... */\n    tag_4:\n      tag_18\n      tag_19\n      jump\t// in\n    tag_18:\n      mload(0x40)\n      tag_20\n      swap2\n      swap1\n      tag_21\n      jump\t// in\n    tag_20:\n      mload(0x40)\n      dup1\n      swap2\n      sub\n      swap1\n      return\n        /* \"contracts/16_Dex.sol\":2700:3158  function transferFrom(address owner, address buyer, uint256 numTokens) external override returns (bool){... */\n    tag_5:\n      tag_22\n      0x04\n      dup1\n      calldatasize\n      sub\n      dup2\n      add\n      swap1\n      tag_23\n      swap2\n      swap1\n      tag_24\n      jump\t// in\n    tag_23:\n      tag_25\n      jump\t// in\n    tag_22:\n      mload(0x40)\n      tag_26\n      swap2\n      swap1\n      tag_27\n      jump\t// in\n    tag_26:\n      mload(0x40)\n      dup1\n      swap2\n      sub\n      swap1\n      return\n        /* \"contracts/16_Dex.sol\":1288:1321  uint8 public constant decimals=18 */\n    tag_6:\n      tag_28\n      tag_29\n      jump\t// in\n    tag_28:\n      mload(0x40)\n      tag_30\n      swap2\n      swap1\n      tag_31\n      jump\t// in\n    tag_30:\n      mload(0x40)\n      dup1\n      swap2\n      sub\n      swap1\n      return\n        /* \"contracts/16_Dex.sol\":1566:1662  function getAddress() public override view returns(address){... */\n    tag_7:\n      tag_32\n      tag_33\n      jump\t// in\n    tag_32:\n      mload(0x40)\n      tag_34\n      swap2\n      swap1\n      tag_35\n      jump\t// in\n    tag_34:\n      mload(0x40)\n      dup1\n      swap2\n      sub\n      swap1\n      return\n        /* \"contracts/16_Dex.sol\":1770:1890  function balanceOf(address tokenOwner) public override view returns(uint256){... */\n    tag_8:\n      tag_36\n      0x04\n      dup1\n      calldatasize\n      sub\n      dup2\n      add\n      swap1\n      tag_37\n      swap2\n      swap1\n      tag_38\n      jump\t// in\n    tag_37:\n      tag_39\n      jump\t// in\n    tag_36:\n      mload(0x40)\n      tag_40\n      swap2\n      swap1\n      tag_21\n      jump\t// in\n    tag_40:\n      mload(0x40)\n      dup1\n      swap2\n      sub\n      swap1\n      return\n        /* \"contracts/16_Dex.sol\":1243:1282  string public constant symbol=\"ERC-XCC\" */\n    tag_9:\n      tag_41\n      tag_42\n      jump\t// in\n    tag_41:\n      mload(0x40)\n      tag_43\n      swap2\n      swap1\n      tag_17\n      jump\t// in\n    tag_43:\n      mload(0x40)\n      dup1\n      swap2\n      sub\n      swap1\n      return\n        /* \"contracts/16_Dex.sol\":1978:2321  function transfer(address receiver, uint256 numTokens) public override returns(bool){... */\n    tag_10:\n      tag_44\n      0x04\n      dup1\n      calldatasize\n      sub\n      dup2\n      add\n      swap1\n      tag_45\n      swap2\n      swap1\n      tag_46\n      jump\t// in\n    tag_45:\n      tag_47\n      jump\t// in\n    tag_44:\n      mload(0x40)\n      tag_48\n      swap2\n      swap1\n      tag_27\n      jump\t// in\n    tag_48:\n      mload(0x40)\n      dup1\n      swap2\n      sub\n      swap1\n      return\n        /* \"contracts/16_Dex.sol\":2555:2694  function allowance(address owner, address delegate) external override view returns(uint256){... */\n    tag_11:\n      tag_49\n      0x04\n      dup1\n      calldatasize\n      sub\n      dup2\n      add\n      swap1\n      tag_50\n      swap2\n      swap1\n      tag_51\n      jump\t// in\n    tag_50:\n      tag_52\n      jump\t// in\n    tag_49:\n      mload(0x40)\n      tag_53\n      swap2\n      swap1\n      tag_21\n      jump\t// in\n    tag_53:\n      mload(0x40)\n      dup1\n      swap2\n      sub\n      swap1\n      return\n        /* \"contracts/16_Dex.sol\":2327:2549  function approve(address owner, address delegate, uint256 numTokens) external override returns (bool){... */\n    tag_12:\n      tag_54\n      0x04\n      dup1\n      calldatasize\n      sub\n      dup2\n      add\n      swap1\n      tag_55\n      swap2\n      swap1\n      tag_24\n      jump\t// in\n    tag_55:\n      tag_56\n      jump\t// in\n    tag_54:\n      mload(0x40)\n      tag_57\n      swap2\n      swap1\n      tag_27\n      jump\t// in\n    tag_57:\n      mload(0x40)\n      dup1\n      swap2\n      sub\n      swap1\n      return\n        /* \"contracts/16_Dex.sol\":1189:1237  string public constant name=\"ERC20-XiaochunCoin\" */\n    tag_15:\n      mload(0x40)\n      dup1\n      0x40\n      add\n      0x40\n      mstore\n      dup1\n      0x12\n      dup2\n      mstore\n      0x20\n      add\n      0x45524332302d5869616f6368756e436f696e0000000000000000000000000000\n      dup2\n      mstore\n      pop\n      dup2\n      jump\t// out\n        /* \"contracts/16_Dex.sol\":1668:1764  function totalSupply() public override view returns(uint256){... */\n    tag_19:\n        /* \"contracts/16_Dex.sol\":1720:1727  uint256 */\n      0x00\n        /* \"contracts/16_Dex.sol\":1745:1757  totalSupply_ */\n      sload(0x02)\n        /* \"contracts/16_Dex.sol\":1738:1757  return totalSupply_ */\n      swap1\n      pop\n        /* \"contracts/16_Dex.sol\":1668:1764  function totalSupply() public override view returns(uint256){... */\n      swap1\n      jump\t// out\n        /* \"contracts/16_Dex.sol\":2700:3158  function transferFrom(address owner, address buyer, uint256 numTokens) external override returns (bool){... */\n    tag_25:\n        /* \"contracts/16_Dex.sol\":2798:2802  bool */\n      0x00\n        /* \"contracts/16_Dex.sol\":2832:2840  balances */\n      dup1\n        /* \"contracts/16_Dex.sol\":2832:2847  balances[owner] */\n      0x00\n        /* \"contracts/16_Dex.sol\":2841:2846  owner */\n      dup6\n        /* \"contracts/16_Dex.sol\":2832:2847  balances[owner] */\n      0xffffffffffffffffffffffffffffffffffffffff\n      and\n      0xffffffffffffffffffffffffffffffffffffffff\n      and\n      dup2\n      mstore\n      0x20\n      add\n      swap1\n      dup2\n      mstore\n      0x20\n      add\n      0x00\n      keccak256\n      sload\n        /* \"contracts/16_Dex.sol\":2821:2830  numTokens */\n      dup3\n        /* \"contracts/16_Dex.sol\":2821:2847  numTokens<=balances[owner] */\n      gt\n      iszero\n        /* \"contracts/16_Dex.sol\":2813:2848  require(numTokens<=balances[owner]) */\n      tag_60\n      jumpi\n      0x00\n      dup1\n      revert\n    tag_60:\n        /* \"contracts/16_Dex.sol\":2877:2884  allowed */\n      0x01\n        /* \"contracts/16_Dex.sol\":2877:2891  allowed[owner] */\n      0x00\n        /* \"contracts/16_Dex.sol\":2885:2890  owner */\n      dup6\n        /* \"contracts/16_Dex.sol\":2877:2891  allowed[owner] */\n      0xffffffffffffffffffffffffffffffffffffffff\n      and\n      0xffffffffffffffffffffffffffffffffffffffff\n      and\n      dup2\n      mstore\n      0x20\n      add\n      swap1\n      dup2\n      mstore\n      0x20\n      add\n      0x00\n      keccak256\n        /* \"contracts/16_Dex.sol\":2877:2903  allowed[owner][msg.sender] */\n      0x00\n        /* \"contracts/16_Dex.sol\":2892:2902  msg.sender */\n      caller\n        /* \"contracts/16_Dex.sol\":2877:2903  allowed[owner][msg.sender] */\n      0xffffffffffffffffffffffffffffffffffffffff\n      and\n      0xffffffffffffffffffffffffffffffffffffffff\n      and\n      dup2\n      mstore\n      0x20\n      add\n      swap1\n      dup2\n      mstore\n      0x20\n      add\n      0x00\n      keccak256\n      sload\n        /* \"contracts/16_Dex.sol\":2866:2875  numTokens */\n      dup3\n        /* \"contracts/16_Dex.sol\":2866:2903  numTokens<=allowed[owner][msg.sender] */\n      gt\n      iszero\n        /* \"contracts/16_Dex.sol\":2858:2904  require(numTokens<=allowed[owner][msg.sender]) */\n      tag_61\n      jumpi\n      0x00\n      dup1\n      revert\n    tag_61:\n        /* \"contracts/16_Dex.sol\":2931:2961  balances[owner].sub(numTokens) */\n      tag_62\n        /* \"contracts/16_Dex.sol\":2951:2960  numTokens */\n      dup3\n        /* \"contracts/16_Dex.sol\":2931:2939  balances */\n      0x00\n        /* \"contracts/16_Dex.sol\":2931:2946  balances[owner] */\n      dup1\n        /* \"contracts/16_Dex.sol\":2940:2945  owner */\n      dup8\n        /* \"contracts/16_Dex.sol\":2931:2946  balances[owner] */\n      0xffffffffffffffffffffffffffffffffffffffff\n      and\n      0xffffffffffffffffffffffffffffffffffffffff\n      and\n      dup2\n      mstore\n      0x20\n      add\n      swap1\n      dup2\n      mstore\n      0x20\n      add\n      0x00\n      keccak256\n      sload\n        /* \"contracts/16_Dex.sol\":2931:2950  balances[owner].sub */\n      tag_63\n      swap1\n        /* \"contracts/16_Dex.sol\":2931:2961  balances[owner].sub(numTokens) */\n      swap2\n      swap1\n      0xffffffff\n      and\n      jump\t// in\n    tag_62:\n        /* \"contracts/16_Dex.sol\":2915:2923  balances */\n      0x00\n        /* \"contracts/16_Dex.sol\":2915:2930  balances[owner] */\n      dup1\n        /* \"contracts/16_Dex.sol\":2924:2929  owner */\n      dup7\n        /* \"contracts/16_Dex.sol\":2915:2930  balances[owner] */\n      0xffffffffffffffffffffffffffffffffffffffff\n      and\n      0xffffffffffffffffffffffffffffffffffffffff\n      and\n      dup2\n      mstore\n      0x20\n      add\n      swap1\n      dup2\n      mstore\n      0x20\n      add\n      0x00\n      keccak256\n        /* \"contracts/16_Dex.sol\":2915:2961  balances[owner]=balances[owner].sub(numTokens) */\n      dup2\n      swap1\n      sstore\n      pop\n        /* \"contracts/16_Dex.sol\":2993:3029  allowed[owner][buyer].sub(numTokens) */\n      tag_64\n        /* \"contracts/16_Dex.sol\":3019:3028  numTokens */\n      dup3\n        /* \"contracts/16_Dex.sol\":2993:3000  allowed */\n      0x01\n        /* \"contracts/16_Dex.sol\":2993:3007  allowed[owner] */\n      0x00\n        /* \"contracts/16_Dex.sol\":3001:3006  owner */\n      dup8\n        /* \"contracts/16_Dex.sol\":2993:3007  allowed[owner] */\n      0xffffffffffffffffffffffffffffffffffffffff\n      and\n      0xffffffffffffffffffffffffffffffffffffffff\n      and\n      dup2\n      mstore\n      0x20\n      add\n      swap1\n      dup2\n      mstore\n      0x20\n      add\n      0x00\n      keccak256\n        /* \"contracts/16_Dex.sol\":2993:3014  allowed[owner][buyer] */\n      0x00\n        /* \"contracts/16_Dex.sol\":3008:3013  buyer */\n      dup7\n        /* \"contracts/16_Dex.sol\":2993:3014  allowed[owner][buyer] */\n      0xffffffffffffffffffffffffffffffffffffffff\n      and\n      0xffffffffffffffffffffffffffffffffffffffff\n      and\n      dup2\n      mstore\n      0x20\n      add\n      swap1\n      dup2\n      mstore\n      0x20\n      add\n      0x00\n      keccak256\n      sload\n        /* \"contracts/16_Dex.sol\":2993:3018  allowed[owner][buyer].sub */\n      tag_63\n      swap1\n        /* \"contracts/16_Dex.sol\":2993:3029  allowed[owner][buyer].sub(numTokens) */\n      swap2\n      swap1\n      0xffffffff\n      and\n      jump\t// in\n    tag_64:\n        /* \"contracts/16_Dex.sol\":2971:2978  allowed */\n      0x01\n        /* \"contracts/16_Dex.sol\":2971:2985  allowed[owner] */\n      0x00\n        /* \"contracts/16_Dex.sol\":2979:2984  owner */\n      dup7\n        /* \"contracts/16_Dex.sol\":2971:2985  allowed[owner] */\n      0xffffffffffffffffffffffffffffffffffffffff\n      and\n      0xffffffffffffffffffffffffffffffffffffffff\n      and\n      dup2\n      mstore\n      0x20\n      add\n      swap1\n      dup2\n      mstore\n      0x20\n      add\n      0x00\n      keccak256\n        /* \"contracts/16_Dex.sol\":2971:2992  allowed[owner][buyer] */\n      0x00\n        /* \"contracts/16_Dex.sol\":2986:2991  buyer */\n      dup6\n        /* \"contracts/16_Dex.sol\":2971:2992  allowed[owner][buyer] */\n      0xffffffffffffffffffffffffffffffffffffffff\n      and\n      0xffffffffffffffffffffffffffffffffffffffff\n      and\n      dup2\n      mstore\n      0x20\n      add\n      swap1\n      dup2\n      mstore\n      0x20\n      add\n      0x00\n      keccak256\n        /* \"contracts/16_Dex.sol\":2971:3029  allowed[owner][buyer]=allowed[owner][buyer].sub(numTokens) */\n      dup2\n      swap1\n      sstore\n      pop\n        /* \"contracts/16_Dex.sol\":3055:3085  balances[buyer].add(numTokens) */\n      tag_65\n        /* \"contracts/16_Dex.sol\":3075:3084  numTokens */\n      dup3\n        /* \"contracts/16_Dex.sol\":3055:3063  balances */\n      0x00\n        /* \"contracts/16_Dex.sol\":3055:3070  balances[buyer] */\n      dup1\n        /* \"contracts/16_Dex.sol\":3064:3069  buyer */\n      dup7\n        /* \"contracts/16_Dex.sol\":3055:3070  balances[buyer] */\n      0xffffffffffffffffffffffffffffffffffffffff\n      and\n      0xffffffffffffffffffffffffffffffffffffffff\n      and\n      dup2\n      mstore\n      0x20\n      add\n      swap1\n      dup2\n      mstore\n      0x20\n      add\n      0x00\n      keccak256\n      sload\n        /* \"contracts/16_Dex.sol\":3055:3074  balances[buyer].add */\n      tag_66\n      swap1\n        /* \"contracts/16_Dex.sol\":3055:3085  balances[buyer].add(numTokens) */\n      swap2\n      swap1\n      0xffffffff\n      and\n      jump\t// in\n    tag_65:\n        /* \"contracts/16_Dex.sol\":3039:3047  balances */\n      0x00\n        /* \"contracts/16_Dex.sol\":3039:3054  balances[buyer] */\n      dup1\n        /* \"contracts/16_Dex.sol\":3048:3053  buyer */\n      dup6\n        /* \"contracts/16_Dex.sol\":3039:3054  balances[buyer] */\n      0xffffffffffffffffffffffffffffffffffffffff\n      and\n      0xffffffffffffffffffffffffffffffffffffffff\n      and\n      dup2\n      mstore\n      0x20\n      add\n      swap1\n      dup2\n      mstore\n      0x20\n      add\n      0x00\n      keccak256\n        /* \"contracts/16_Dex.sol\":3039:3085  balances[buyer]=balances[buyer].add(numTokens) */\n      dup2\n      swap1\n      sstore\n      pop\n        /* \"contracts/16_Dex.sol\":3114:3119  buyer */\n      dup3\n        /* \"contracts/16_Dex.sol\":3100:3130  Tranfer(owner,buyer,numTokens) */\n      0xffffffffffffffffffffffffffffffffffffffff\n      and\n        /* \"contracts/16_Dex.sol\":3108:3113  owner */\n      dup5\n        /* \"contracts/16_Dex.sol\":3100:3130  Tranfer(owner,buyer,numTokens) */\n      0xffffffffffffffffffffffffffffffffffffffff\n      and\n      0x5225eac2a7facfbeb099c00a4cc7c457701324f1fd84b84b14033f9e911374a4\n        /* \"contracts/16_Dex.sol\":3120:3129  numTokens */\n      dup5\n        /* \"contracts/16_Dex.sol\":3100:3130  Tranfer(owner,buyer,numTokens) */\n      mload(0x40)\n      tag_67\n      swap2\n      swap1\n      tag_21\n      jump\t// in\n    tag_67:\n      mload(0x40)\n      dup1\n      swap2\n      sub\n      swap1\n      log3\n        /* \"contracts/16_Dex.sol\":3147:3151  true */\n      0x01\n        /* \"contracts/16_Dex.sol\":3140:3151  return true */\n      swap1\n      pop\n        /* \"contracts/16_Dex.sol\":2700:3158  function transferFrom(address owner, address buyer, uint256 numTokens) external override returns (bool){... */\n      swap4\n      swap3\n      pop\n      pop\n      pop\n      jump\t// out\n        /* \"contracts/16_Dex.sol\":1288:1321  uint8 public constant decimals=18 */\n    tag_29:\n        /* \"contracts/16_Dex.sol\":1319:1321  18 */\n      0x12\n        /* \"contracts/16_Dex.sol\":1288:1321  uint8 public constant decimals=18 */\n      dup2\n      jump\t// out\n        /* \"contracts/16_Dex.sol\":1566:1662  function getAddress() public override view returns(address){... */\n    tag_33:\n        /* \"contracts/16_Dex.sol\":1617:1624  address */\n      0x00\n        /* \"contracts/16_Dex.sol\":1650:1654  this */\n      address\n        /* \"contracts/16_Dex.sol\":1635:1655  return address(this) */\n      swap1\n      pop\n        /* \"contracts/16_Dex.sol\":1566:1662  function getAddress() public override view returns(address){... */\n      swap1\n      jump\t// out\n        /* \"contracts/16_Dex.sol\":1770:1890  function balanceOf(address tokenOwner) public override view returns(uint256){... */\n    tag_39:\n        /* \"contracts/16_Dex.sol\":1838:1845  uint256 */\n      0x00\n        /* \"contracts/16_Dex.sol\":1863:1871  balances */\n      dup1\n        /* \"contracts/16_Dex.sol\":1863:1883  balances[tokenOwner] */\n      0x00\n        /* \"contracts/16_Dex.sol\":1872:1882  tokenOwner */\n      dup4\n        /* \"contracts/16_Dex.sol\":1863:1883  balances[tokenOwner] */\n      0xffffffffffffffffffffffffffffffffffffffff\n      and\n      0xffffffffffffffffffffffffffffffffffffffff\n      and\n      dup2\n      mstore\n      0x20\n      add\n      swap1\n      dup2\n      mstore\n      0x20\n      add\n      0x00\n      keccak256\n      sload\n        /* \"contracts/16_Dex.sol\":1856:1883  return balances[tokenOwner] */\n      swap1\n      pop\n        /* \"contracts/16_Dex.sol\":1770:1890  function balanceOf(address tokenOwner) public override view returns(uint256){... */\n      swap2\n      swap1\n      pop\n      jump\t// out\n        /* \"contracts/16_Dex.sol\":1243:1282  string public constant symbol=\"ERC-XCC\" */\n    tag_42:\n      mload(0x40)\n      dup1\n      0x40\n      add\n      0x40\n      mstore\n      dup1\n      0x07\n      dup2\n      mstore\n      0x20\n      add\n      0x4552432d58434300000000000000000000000000000000000000000000000000\n      dup2\n      mstore\n      pop\n      dup2\n      jump\t// out\n        /* \"contracts/16_Dex.sol\":1978:2321  function transfer(address receiver, uint256 numTokens) public override returns(bool){... */\n    tag_47:\n        /* \"contracts/16_Dex.sol\":2057:2061  bool */\n      0x00\n        /* \"contracts/16_Dex.sol\":2091:2099  balances */\n      dup1\n        /* \"contracts/16_Dex.sol\":2091:2111  balances[msg.sender] */\n      0x00\n        /* \"contracts/16_Dex.sol\":2100:2110  msg.sender */\n      caller\n        /* \"contracts/16_Dex.sol\":2091:2111  balances[msg.sender] */\n      0xffffffffffffffffffffffffffffffffffffffff\n      and\n      0xffffffffffffffffffffffffffffffffffffffff\n      and\n      dup2\n      mstore\n      0x20\n      add\n      swap1\n      dup2\n      mstore\n      0x20\n      add\n      0x00\n      keccak256\n      sload\n        /* \"contracts/16_Dex.sol\":2080:2089  numTokens */\n      dup3\n        /* \"contracts/16_Dex.sol\":2080:2111  numTokens<=balances[msg.sender] */\n      gt\n      iszero\n        /* \"contracts/16_Dex.sol\":2072:2112  require(numTokens<=balances[msg.sender]) */\n      tag_71\n      jumpi\n      0x00\n      dup1\n      revert\n    tag_71:\n        /* \"contracts/16_Dex.sol\":2143:2178  balances[msg.sender].sub(numTokens) */\n      tag_72\n        /* \"contracts/16_Dex.sol\":2168:2177  numTokens */\n      dup3\n        /* \"contracts/16_Dex.sol\":2143:2151  balances */\n      0x00\n        /* \"contracts/16_Dex.sol\":2143:2163  balances[msg.sender] */\n      dup1\n        /* \"contracts/16_Dex.sol\":2152:2162  msg.sender */\n      caller\n        /* \"contracts/16_Dex.sol\":2143:2163  balances[msg.sender] */\n      0xffffffffffffffffffffffffffffffffffffffff\n      and\n      0xffffffffffffffffffffffffffffffffffffffff\n      and\n      dup2\n      mstore\n      0x20\n      add\n      swap1\n      dup2\n      mstore\n      0x20\n      add\n      0x00\n      keccak256\n      sload\n        /* \"contracts/16_Dex.sol\":2143:2167  balances[msg.sender].sub */\n      tag_63\n      swap1\n        /* \"contracts/16_Dex.sol\":2143:2178  balances[msg.sender].sub(numTokens) */\n      swap2\n      swap1\n      0xffffffff\n      and\n      jump\t// in\n    tag_72:\n        /* \"contracts/16_Dex.sol\":2122:2130  balances */\n      0x00\n        /* \"contracts/16_Dex.sol\":2122:2142  balances[msg.sender] */\n      dup1\n        /* \"contracts/16_Dex.sol\":2131:2141  msg.sender */\n      caller\n        /* \"contracts/16_Dex.sol\":2122:2142  balances[msg.sender] */\n      0xffffffffffffffffffffffffffffffffffffffff\n      and\n      0xffffffffffffffffffffffffffffffffffffffff\n      and\n      dup2\n      mstore\n      0x20\n      add\n      swap1\n      dup2\n      mstore\n      0x20\n      add\n      0x00\n      keccak256\n        /* \"contracts/16_Dex.sol\":2122:2178  balances[msg.sender]=balances[msg.sender].sub(numTokens) */\n      dup2\n      swap1\n      sstore\n      pop\n        /* \"contracts/16_Dex.sol\":2207:2240  balances[receiver].add(numTokens) */\n      tag_73\n        /* \"contracts/16_Dex.sol\":2230:2239  numTokens */\n      dup3\n        /* \"contracts/16_Dex.sol\":2207:2215  balances */\n      0x00\n        /* \"contracts/16_Dex.sol\":2207:2225  balances[receiver] */\n      dup1\n        /* \"contracts/16_Dex.sol\":2216:2224  receiver */\n      dup7\n        /* \"contracts/16_Dex.sol\":2207:2225  balances[receiver] */\n      0xffffffffffffffffffffffffffffffffffffffff\n      and\n      0xffffffffffffffffffffffffffffffffffffffff\n      and\n      dup2\n      mstore\n      0x20\n      add\n      swap1\n      dup2\n      mstore\n      0x20\n      add\n      0x00\n      keccak256\n      sload\n        /* \"contracts/16_Dex.sol\":2207:2229  balances[receiver].add */\n      tag_66\n      swap1\n        /* \"contracts/16_Dex.sol\":2207:2240  balances[receiver].add(numTokens) */\n      swap2\n      swap1\n      0xffffffff\n      and\n      jump\t// in\n    tag_73:\n        /* \"contracts/16_Dex.sol\":2188:2196  balances */\n      0x00\n        /* \"contracts/16_Dex.sol\":2188:2206  balances[receiver] */\n      dup1\n        /* \"contracts/16_Dex.sol\":2197:2205  receiver */\n      dup6\n        /* \"contracts/16_Dex.sol\":2188:2206  balances[receiver] */\n      0xffffffffffffffffffffffffffffffffffffffff\n      and\n      0xffffffffffffffffffffffffffffffffffffffff\n      and\n      dup2\n      mstore\n      0x20\n      add\n      swap1\n      dup2\n      mstore\n      0x20\n      add\n      0x00\n      keccak256\n        /* \"contracts/16_Dex.sol\":2188:2240  balances[receiver]=balances[receiver].add(numTokens) */\n      dup2\n      swap1\n      sstore\n      pop\n        /* \"contracts/16_Dex.sol\":2274:2282  receiver */\n      dup3\n        /* \"contracts/16_Dex.sol\":2255:2293  Tranfer(msg.sender,receiver,numTokens) */\n      0xffffffffffffffffffffffffffffffffffffffff\n      and\n        /* \"contracts/16_Dex.sol\":2263:2273  msg.sender */\n      caller\n        /* \"contracts/16_Dex.sol\":2255:2293  Tranfer(msg.sender,receiver,numTokens) */\n      0xffffffffffffffffffffffffffffffffffffffff\n      and\n      0x5225eac2a7facfbeb099c00a4cc7c457701324f1fd84b84b14033f9e911374a4\n        /* \"contracts/16_Dex.sol\":2283:2292  numTokens */\n      dup5\n        /* \"contracts/16_Dex.sol\":2255:2293  Tranfer(msg.sender,receiver,numTokens) */\n      mload(0x40)\n      tag_74\n      swap2\n      swap1\n      tag_21\n      jump\t// in\n    tag_74:\n      mload(0x40)\n      dup1\n      swap2\n      sub\n      swap1\n      log3\n        /* \"contracts/16_Dex.sol\":2310:2314  true */\n      0x01\n        /* \"contracts/16_Dex.sol\":2303:2314  return true */\n      swap1\n      pop\n        /* \"contracts/16_Dex.sol\":1978:2321  function transfer(address receiver, uint256 numTokens) public override returns(bool){... */\n      swap3\n      swap2\n      pop\n      pop\n      jump\t// out\n        /* \"contracts/16_Dex.sol\":2555:2694  function allowance(address owner, address delegate) external override view returns(uint256){... */\n    tag_52:\n        /* \"contracts/16_Dex.sol\":2638:2645  uint256 */\n      0x00\n        /* \"contracts/16_Dex.sol\":2663:2670  allowed */\n      0x01\n        /* \"contracts/16_Dex.sol\":2663:2677  allowed[owner] */\n      0x00\n        /* \"contracts/16_Dex.sol\":2671:2676  owner */\n      dup5\n        /* \"contracts/16_Dex.sol\":2663:2677  allowed[owner] */\n      0xffffffffffffffffffffffffffffffffffffffff\n      and\n      0xffffffffffffffffffffffffffffffffffffffff\n      and\n      dup2\n      mstore\n      0x20\n      add\n      swap1\n      dup2\n      mstore\n      0x20\n      add\n      0x00\n      keccak256\n        /* \"contracts/16_Dex.sol\":2663:2687  allowed[owner][delegate] */\n      0x00\n        /* \"contracts/16_Dex.sol\":2678:2686  delegate */\n      dup4\n        /* \"contracts/16_Dex.sol\":2663:2687  allowed[owner][delegate] */\n      0xffffffffffffffffffffffffffffffffffffffff\n      and\n      0xffffffffffffffffffffffffffffffffffffffff\n      and\n      dup2\n      mstore\n      0x20\n      add\n      swap1\n      dup2\n      mstore\n      0x20\n      add\n      0x00\n      keccak256\n      sload\n        /* \"contracts/16_Dex.sol\":2656:2687  return allowed[owner][delegate] */\n      swap1\n      pop\n        /* \"contracts/16_Dex.sol\":2555:2694  function allowance(address owner, address delegate) external override view returns(uint256){... */\n      swap3\n      swap2\n      pop\n      pop\n      jump\t// out\n        /* \"contracts/16_Dex.sol\":2327:2549  function approve(address owner, address delegate, uint256 numTokens) external override returns (bool){... */\n    tag_56:\n        /* \"contracts/16_Dex.sol\":2423:2427  bool */\n      0x00\n        /* \"contracts/16_Dex.sol\":2463:2472  numTokens */\n      dup2\n        /* \"contracts/16_Dex.sol\":2438:2445  allowed */\n      0x01\n        /* \"contracts/16_Dex.sol\":2438:2452  allowed[owner] */\n      0x00\n        /* \"contracts/16_Dex.sol\":2446:2451  owner */\n      dup7\n        /* \"contracts/16_Dex.sol\":2438:2452  allowed[owner] */\n      0xffffffffffffffffffffffffffffffffffffffff\n      and\n      0xffffffffffffffffffffffffffffffffffffffff\n      and\n      dup2\n      mstore\n      0x20\n      add\n      swap1\n      dup2\n      mstore\n      0x20\n      add\n      0x00\n      keccak256\n        /* \"contracts/16_Dex.sol\":2438:2462  allowed[owner][delegate] */\n      0x00\n        /* \"contracts/16_Dex.sol\":2453:2461  delegate */\n      dup6\n        /* \"contracts/16_Dex.sol\":2438:2462  allowed[owner][delegate] */\n      0xffffffffffffffffffffffffffffffffffffffff\n      and\n      0xffffffffffffffffffffffffffffffffffffffff\n      and\n      dup2\n      mstore\n      0x20\n      add\n      swap1\n      dup2\n      mstore\n      0x20\n      add\n      0x00\n      keccak256\n        /* \"contracts/16_Dex.sol\":2438:2472  allowed[owner][delegate]=numTokens */\n      dup2\n      swap1\n      sstore\n      pop\n        /* \"contracts/16_Dex.sol\":2502:2510  delegate */\n      dup3\n        /* \"contracts/16_Dex.sol\":2487:2521  Approval(owner,delegate,numTokens) */\n      0xffffffffffffffffffffffffffffffffffffffff\n      and\n        /* \"contracts/16_Dex.sol\":2496:2501  owner */\n      dup5\n        /* \"contracts/16_Dex.sol\":2487:2521  Approval(owner,delegate,numTokens) */\n      0xffffffffffffffffffffffffffffffffffffffff\n      and\n      0x8c5be1e5ebec7d5bd14f71427d1e84f3dd0314c0f7b2291e5b200ac8c7c3b925\n        /* \"contracts/16_Dex.sol\":2511:2520  numTokens */\n      dup5\n        /* \"contracts/16_Dex.sol\":2487:2521  Approval(owner,delegate,numTokens) */\n      mload(0x40)\n      tag_77\n      swap2\n      swap1\n      tag_21\n      jump\t// in\n    tag_77:\n      mload(0x40)\n      dup1\n      swap2\n      sub\n      swap1\n      log3\n        /* \"contracts/16_Dex.sol\":2538:2542  true */\n      0x01\n        /* \"contracts/16_Dex.sol\":2531:2542  return true */\n      swap1\n      pop\n        /* \"contracts/16_Dex.sol\":2327:2549  function approve(address owner, address delegate, uint256 numTokens) external override returns (bool){... */\n      swap4\n      swap3\n      pop\n      pop\n      pop\n      jump\t// out\n        /* \"contracts/16_Dex.sol\":110:224  function sub(uint256 a, uint256 b) internal pure returns(uint256){... */\n    tag_63:\n        /* \"contracts/16_Dex.sol\":167:174  uint256 */\n      0x00\n        /* \"contracts/16_Dex.sol\":195:196  a */\n      dup3\n        /* \"contracts/16_Dex.sol\":192:193  b */\n      dup3\n        /* \"contracts/16_Dex.sol\":192:196  b<=a */\n      gt\n      iszero\n        /* \"contracts/16_Dex.sol\":185:197  assert(b<=a) */\n      tag_79\n      jumpi\n      tag_80\n      tag_81\n      jump\t// in\n    tag_80:\n    tag_79:\n        /* \"contracts/16_Dex.sol\":216:217  b */\n      dup2\n        /* \"contracts/16_Dex.sol\":214:215  a */\n      dup4\n        /* \"contracts/16_Dex.sol\":214:217  a-b */\n      tag_82\n      swap2\n      swap1\n      tag_83\n      jump\t// in\n    tag_82:\n        /* \"contracts/16_Dex.sol\":207:217  return a-b */\n      swap1\n      pop\n        /* \"contracts/16_Dex.sol\":110:224  function sub(uint256 a, uint256 b) internal pure returns(uint256){... */\n      swap3\n      swap2\n      pop\n      pop\n      jump\t// out\n        /* \"contracts/16_Dex.sol\":229:364  function add(uint256 a, uint256 b) internal pure returns(uint256){... */\n    tag_66:\n        /* \"contracts/16_Dex.sol\":286:293  uint256 */\n      0x00\n        /* \"contracts/16_Dex.sol\":304:313  uint256 c */\n      dup1\n        /* \"contracts/16_Dex.sol\":316:317  b */\n      dup3\n        /* \"contracts/16_Dex.sol\":314:315  a */\n      dup5\n        /* \"contracts/16_Dex.sol\":314:317  a+b */\n      tag_85\n      swap2\n      swap1\n      tag_86\n      jump\t// in\n    tag_85:\n        /* \"contracts/16_Dex.sol\":304:317  uint256 c=a+b */\n      swap1\n      pop\n        /* \"contracts/16_Dex.sol\":337:338  a */\n      dup4\n        /* \"contracts/16_Dex.sol\":334:335  c */\n      dup2\n        /* \"contracts/16_Dex.sol\":334:338  c>=a */\n      lt\n      iszero\n        /* \"contracts/16_Dex.sol\":327:339  assert(c>=a) */\n      tag_87\n      jumpi\n      tag_88\n      tag_81\n      jump\t// in\n    tag_88:\n    tag_87:\n        /* \"contracts/16_Dex.sol\":356:357  c */\n      dup1\n        /* \"contracts/16_Dex.sol\":349:357  return c */\n      swap2\n      pop\n      pop\n        /* \"contracts/16_Dex.sol\":229:364  function add(uint256 a, uint256 b) internal pure returns(uint256){... */\n      swap3\n      swap2\n      pop\n      pop\n      jump\t// out\n        /* \"#utility.yul\":7:146   */\n    tag_90:\n        /* \"#utility.yul\":53:58   */\n      0x00\n        /* \"#utility.yul\":91:97   */\n      dup2\n        /* \"#utility.yul\":78:98   */\n      calldataload\n        /* \"#utility.yul\":69:98   */\n      swap1\n      pop\n        /* \"#utility.yul\":107:140   */\n      tag_92\n        /* \"#utility.yul\":134:139   */\n      dup2\n        /* \"#utility.yul\":107:140   */\n      tag_93\n      jump\t// in\n    tag_92:\n        /* \"#utility.yul\":7:146   */\n      swap3\n      swap2\n      pop\n      pop\n      jump\t// out\n        /* \"#utility.yul\":152:291   */\n    tag_94:\n        /* \"#utility.yul\":198:203   */\n      0x00\n        /* \"#utility.yul\":236:242   */\n      dup2\n        /* \"#utility.yul\":223:243   */\n      calldataload\n        /* \"#utility.yul\":214:243   */\n      swap1\n      pop\n        /* \"#utility.yul\":252:285   */\n      tag_96\n        /* \"#utility.yul\":279:284   */\n      dup2\n        /* \"#utility.yul\":252:285   */\n      tag_97\n      jump\t// in\n    tag_96:\n        /* \"#utility.yul\":152:291   */\n      swap3\n      swap2\n      pop\n      pop\n      jump\t// out\n        /* \"#utility.yul\":297:626   */\n    tag_38:\n        /* \"#utility.yul\":356:362   */\n      0x00\n        /* \"#utility.yul\":405:407   */\n      0x20\n        /* \"#utility.yul\":393:402   */\n      dup3\n        /* \"#utility.yul\":384:391   */\n      dup5\n        /* \"#utility.yul\":380:403   */\n      sub\n        /* \"#utility.yul\":376:408   */\n      slt\n        /* \"#utility.yul\":373:492   */\n      iszero\n      tag_99\n      jumpi\n        /* \"#utility.yul\":411:490   */\n      tag_100\n      tag_101\n      jump\t// in\n    tag_100:\n        /* \"#utility.yul\":373:492   */\n    tag_99:\n        /* \"#utility.yul\":531:532   */\n      0x00\n        /* \"#utility.yul\":556:609   */\n      tag_102\n        /* \"#utility.yul\":601:608   */\n      dup5\n        /* \"#utility.yul\":592:598   */\n      dup3\n        /* \"#utility.yul\":581:590   */\n      dup6\n        /* \"#utility.yul\":577:599   */\n      add\n        /* \"#utility.yul\":556:609   */\n      tag_90\n      jump\t// in\n    tag_102:\n        /* \"#utility.yul\":546:609   */\n      swap2\n      pop\n        /* \"#utility.yul\":502:619   */\n      pop\n        /* \"#utility.yul\":297:626   */\n      swap3\n      swap2\n      pop\n      pop\n      jump\t// out\n        /* \"#utility.yul\":632:1106   */\n    tag_51:\n        /* \"#utility.yul\":700:706   */\n      0x00\n        /* \"#utility.yul\":708:714   */\n      dup1\n        /* \"#utility.yul\":757:759   */\n      0x40\n        /* \"#utility.yul\":745:754   */\n      dup4\n        /* \"#utility.yul\":736:743   */\n      dup6\n        /* \"#utility.yul\":732:755   */\n      sub\n        /* \"#utility.yul\":728:760   */\n      slt\n        /* \"#utility.yul\":725:844   */\n      iszero\n      tag_104\n      jumpi\n        /* \"#utility.yul\":763:842   */\n      tag_105\n      tag_101\n      jump\t// in\n    tag_105:\n        /* \"#utility.yul\":725:844   */\n    tag_104:\n        /* \"#utility.yul\":883:884   */\n      0x00\n        /* \"#utility.yul\":908:961   */\n      tag_106\n        /* \"#utility.yul\":953:960   */\n      dup6\n        /* \"#utility.yul\":944:950   */\n      dup3\n        /* \"#utility.yul\":933:942   */\n      dup7\n        /* \"#utility.yul\":929:951   */\n      add\n        /* \"#utility.yul\":908:961   */\n      tag_90\n      jump\t// in\n    tag_106:\n        /* \"#utility.yul\":898:961   */\n      swap3\n      pop\n        /* \"#utility.yul\":854:971   */\n      pop\n        /* \"#utility.yul\":1010:1012   */\n      0x20\n        /* \"#utility.yul\":1036:1089   */\n      tag_107\n        /* \"#utility.yul\":1081:1088   */\n      dup6\n        /* \"#utility.yul\":1072:1078   */\n      dup3\n        /* \"#utility.yul\":1061:1070   */\n      dup7\n        /* \"#utility.yul\":1057:1079   */\n      add\n        /* \"#utility.yul\":1036:1089   */\n      tag_90\n      jump\t// in\n    tag_107:\n        /* \"#utility.yul\":1026:1089   */\n      swap2\n      pop\n        /* \"#utility.yul\":981:1099   */\n      pop\n        /* \"#utility.yul\":632:1106   */\n      swap3\n      pop\n      swap3\n      swap1\n      pop\n      jump\t// out\n        /* \"#utility.yul\":1112:1731   */\n    tag_24:\n        /* \"#utility.yul\":1189:1195   */\n      0x00\n        /* \"#utility.yul\":1197:1203   */\n      dup1\n        /* \"#utility.yul\":1205:1211   */\n      0x00\n        /* \"#utility.yul\":1254:1256   */\n      0x60\n        /* \"#utility.yul\":1242:1251   */\n      dup5\n        /* \"#utility.yul\":1233:1240   */\n      dup7\n        /* \"#utility.yul\":1229:1252   */\n      sub\n        /* \"#utility.yul\":1225:1257   */\n      slt\n        /* \"#utility.yul\":1222:1341   */\n      iszero\n      tag_109\n      jumpi\n        /* \"#utility.yul\":1260:1339   */\n      tag_110\n      tag_101\n      jump\t// in\n    tag_110:\n        /* \"#utility.yul\":1222:1341   */\n    tag_109:\n        /* \"#utility.yul\":1380:1381   */\n      0x00\n        /* \"#utility.yul\":1405:1458   */\n      tag_111\n        /* \"#utility.yul\":1450:1457   */\n      dup7\n        /* \"#utility.yul\":1441:1447   */\n      dup3\n        /* \"#utility.yul\":1430:1439   */\n      dup8\n        /* \"#utility.yul\":1426:1448   */\n      add\n        /* \"#utility.yul\":1405:1458   */\n      tag_90\n      jump\t// in\n    tag_111:\n        /* \"#utility.yul\":1395:1458   */\n      swap4\n      pop\n        /* \"#utility.yul\":1351:1468   */\n      pop\n        /* \"#utility.yul\":1507:1509   */\n      0x20\n        /* \"#utility.yul\":1533:1586   */\n      tag_112\n        /* \"#utility.yul\":1578:1585   */\n      dup7\n        /* \"#utility.yul\":1569:1575   */\n      dup3\n        /* \"#utility.yul\":1558:1567   */\n      dup8\n        /* \"#utility.yul\":1554:1576   */\n      add\n        /* \"#utility.yul\":1533:1586   */\n      tag_90\n      jump\t// in\n    tag_112:\n        /* \"#utility.yul\":1523:1586   */\n      swap3\n      pop\n        /* \"#utility.yul\":1478:1596   */\n      pop\n        /* \"#utility.yul\":1635:1637   */\n      0x40\n        /* \"#utility.yul\":1661:1714   */\n      tag_113\n        /* \"#utility.yul\":1706:1713   */\n      dup7\n        /* \"#utility.yul\":1697:1703   */\n      dup3\n        /* \"#utility.yul\":1686:1695   */\n      dup8\n        /* \"#utility.yul\":1682:1704   */\n      add\n        /* \"#utility.yul\":1661:1714   */\n      tag_94\n      jump\t// in\n    tag_113:\n        /* \"#utility.yul\":1651:1714   */\n      swap2\n      pop\n        /* \"#utility.yul\":1606:1724   */\n      pop\n        /* \"#utility.yul\":1112:1731   */\n      swap3\n      pop\n      swap3\n      pop\n      swap3\n      jump\t// out\n        /* \"#utility.yul\":1737:2211   */\n    tag_46:\n        /* \"#utility.yul\":1805:1811   */\n      0x00\n        /* \"#utility.yul\":1813:1819   */\n      dup1\n        /* \"#utility.yul\":1862:1864   */\n      0x40\n        /* \"#utility.yul\":1850:1859   */\n      dup4\n        /* \"#utility.yul\":1841:1848   */\n      dup6\n        /* \"#utility.yul\":1837:1860   */\n      sub\n        /* \"#utility.yul\":1833:1865   */\n      slt\n        /* \"#utility.yul\":1830:1949   */\n      iszero\n      tag_115\n      jumpi\n        /* \"#utility.yul\":1868:1947   */\n      tag_116\n      tag_101\n      jump\t// in\n    tag_116:\n        /* \"#utility.yul\":1830:1949   */\n    tag_115:\n        /* \"#utility.yul\":1988:1989   */\n      0x00\n        /* \"#utility.yul\":2013:2066   */\n      tag_117\n        /* \"#utility.yul\":2058:2065   */\n      dup6\n        /* \"#utility.yul\":2049:2055   */\n      dup3\n        /* \"#utility.yul\":2038:2047   */\n      dup7\n        /* \"#utility.yul\":2034:2056   */\n      add\n        /* \"#utility.yul\":2013:2066   */\n      tag_90\n      jump\t// in\n    tag_117:\n        /* \"#utility.yul\":2003:2066   */\n      swap3\n      pop\n        /* \"#utility.yul\":1959:2076   */\n      pop\n        /* \"#utility.yul\":2115:2117   */\n      0x20\n        /* \"#utility.yul\":2141:2194   */\n      tag_118\n        /* \"#utility.yul\":2186:2193   */\n      dup6\n        /* \"#utility.yul\":2177:2183   */\n      dup3\n        /* \"#utility.yul\":2166:2175   */\n      dup7\n        /* \"#utility.yul\":2162:2184   */\n      add\n        /* \"#utility.yul\":2141:2194   */\n      tag_94\n      jump\t// in\n    tag_118:\n        /* \"#utility.yul\":2131:2194   */\n      swap2\n      pop\n        /* \"#utility.yul\":2086:2204   */\n      pop\n        /* \"#utility.yul\":1737:2211   */\n      swap3\n      pop\n      swap3\n      swap1\n      pop\n      jump\t// out\n        /* \"#utility.yul\":2217:2335   */\n    tag_119:\n        /* \"#utility.yul\":2304:2328   */\n      tag_121\n        /* \"#utility.yul\":2322:2327   */\n      dup2\n        /* \"#utility.yul\":2304:2328   */\n      tag_122\n      jump\t// in\n    tag_121:\n        /* \"#utility.yul\":2299:2302   */\n      dup3\n        /* \"#utility.yul\":2292:2329   */\n      mstore\n        /* \"#utility.yul\":2217:2335   */\n      pop\n      pop\n      jump\t// out\n        /* \"#utility.yul\":2341:2450   */\n    tag_123:\n        /* \"#utility.yul\":2422:2443   */\n      tag_125\n        /* \"#utility.yul\":2437:2442   */\n      dup2\n        /* \"#utility.yul\":2422:2443   */\n      tag_126\n      jump\t// in\n    tag_125:\n        /* \"#utility.yul\":2417:2420   */\n      dup3\n        /* \"#utility.yul\":2410:2444   */\n      mstore\n        /* \"#utility.yul\":2341:2450   */\n      pop\n      pop\n      jump\t// out\n        /* \"#utility.yul\":2456:2820   */\n    tag_127:\n        /* \"#utility.yul\":2544:2547   */\n      0x00\n        /* \"#utility.yul\":2572:2611   */\n      tag_129\n        /* \"#utility.yul\":2605:2610   */\n      dup3\n        /* \"#utility.yul\":2572:2611   */\n      tag_130\n      jump\t// in\n    tag_129:\n        /* \"#utility.yul\":2627:2698   */\n      tag_131\n        /* \"#utility.yul\":2691:2697   */\n      dup2\n        /* \"#utility.yul\":2686:2689   */\n      dup6\n        /* \"#utility.yul\":2627:2698   */\n      tag_132\n      jump\t// in\n    tag_131:\n        /* \"#utility.yul\":2620:2698   */\n      swap4\n      pop\n        /* \"#utility.yul\":2707:2759   */\n      tag_133\n        /* \"#utility.yul\":2752:2758   */\n      dup2\n        /* \"#utility.yul\":2747:2750   */\n      dup6\n        /* \"#utility.yul\":2740:2744   */\n      0x20\n        /* \"#utility.yul\":2733:2738   */\n      dup7\n        /* \"#utility.yul\":2729:2745   */\n      add\n        /* \"#utility.yul\":2707:2759   */\n      tag_134\n      jump\t// in\n    tag_133:\n        /* \"#utility.yul\":2784:2813   */\n      tag_135\n        /* \"#utility.yul\":2806:2812   */\n      dup2\n        /* \"#utility.yul\":2784:2813   */\n      tag_136\n      jump\t// in\n    tag_135:\n        /* \"#utility.yul\":2779:2782   */\n      dup5\n        /* \"#utility.yul\":2775:2814   */\n      add\n        /* \"#utility.yul\":2768:2814   */\n      swap2\n      pop\n        /* \"#utility.yul\":2548:2820   */\n      pop\n        /* \"#utility.yul\":2456:2820   */\n      swap3\n      swap2\n      pop\n      pop\n      jump\t// out\n        /* \"#utility.yul\":2826:2944   */\n    tag_137:\n        /* \"#utility.yul\":2913:2937   */\n      tag_139\n        /* \"#utility.yul\":2931:2936   */\n      dup2\n        /* \"#utility.yul\":2913:2937   */\n      tag_140\n      jump\t// in\n    tag_139:\n        /* \"#utility.yul\":2908:2911   */\n      dup3\n        /* \"#utility.yul\":2901:2938   */\n      mstore\n        /* \"#utility.yul\":2826:2944   */\n      pop\n      pop\n      jump\t// out\n        /* \"#utility.yul\":2950:3062   */\n    tag_141:\n        /* \"#utility.yul\":3033:3055   */\n      tag_143\n        /* \"#utility.yul\":3049:3054   */\n      dup2\n        /* \"#utility.yul\":3033:3055   */\n      tag_144\n      jump\t// in\n    tag_143:\n        /* \"#utility.yul\":3028:3031   */\n      dup3\n        /* \"#utility.yul\":3021:3056   */\n      mstore\n        /* \"#utility.yul\":2950:3062   */\n      pop\n      pop\n      jump\t// out\n        /* \"#utility.yul\":3068:3290   */\n    tag_35:\n        /* \"#utility.yul\":3161:3165   */\n      0x00\n        /* \"#utility.yul\":3199:3201   */\n      0x20\n        /* \"#utility.yul\":3188:3197   */\n      dup3\n        /* \"#utility.yul\":3184:3202   */\n      add\n        /* \"#utility.yul\":3176:3202   */\n      swap1\n      pop\n        /* \"#utility.yul\":3212:3283   */\n      tag_146\n        /* \"#utility.yul\":3280:3281   */\n      0x00\n        /* \"#utility.yul\":3269:3278   */\n      dup4\n        /* \"#utility.yul\":3265:3282   */\n      add\n        /* \"#utility.yul\":3256:3262   */\n      dup5\n        /* \"#utility.yul\":3212:3283   */\n      tag_119\n      jump\t// in\n    tag_146:\n        /* \"#utility.yul\":3068:3290   */\n      swap3\n      swap2\n      pop\n      pop\n      jump\t// out\n        /* \"#utility.yul\":3296:3506   */\n    tag_27:\n        /* \"#utility.yul\":3383:3387   */\n      0x00\n        /* \"#utility.yul\":3421:3423   */\n      0x20\n        /* \"#utility.yul\":3410:3419   */\n      dup3\n        /* \"#utility.yul\":3406:3424   */\n      add\n        /* \"#utility.yul\":3398:3424   */\n      swap1\n      pop\n        /* \"#utility.yul\":3434:3499   */\n      tag_148\n        /* \"#utility.yul\":3496:3497   */\n      0x00\n        /* \"#utility.yul\":3485:3494   */\n      dup4\n        /* \"#utility.yul\":3481:3498   */\n      add\n        /* \"#utility.yul\":3472:3478   */\n      dup5\n        /* \"#utility.yul\":3434:3499   */\n      tag_123\n      jump\t// in\n    tag_148:\n        /* \"#utility.yul\":3296:3506   */\n      swap3\n      swap2\n      pop\n      pop\n      jump\t// out\n        /* \"#utility.yul\":3512:3825   */\n    tag_17:\n        /* \"#utility.yul\":3625:3629   */\n      0x00\n        /* \"#utility.yul\":3663:3665   */\n      0x20\n        /* \"#utility.yul\":3652:3661   */\n      dup3\n        /* \"#utility.yul\":3648:3666   */\n      add\n        /* \"#utility.yul\":3640:3666   */\n      swap1\n      pop\n        /* \"#utility.yul\":3712:3721   */\n      dup2\n        /* \"#utility.yul\":3706:3710   */\n      dup2\n        /* \"#utility.yul\":3702:3722   */\n      sub\n        /* \"#utility.yul\":3698:3699   */\n      0x00\n        /* \"#utility.yul\":3687:3696   */\n      dup4\n        /* \"#utility.yul\":3683:3700   */\n      add\n        /* \"#utility.yul\":3676:3723   */\n      mstore\n        /* \"#utility.yul\":3740:3818   */\n      tag_150\n        /* \"#utility.yul\":3813:3817   */\n      dup2\n        /* \"#utility.yul\":3804:3810   */\n      dup5\n        /* \"#utility.yul\":3740:3818   */\n      tag_127\n      jump\t// in\n    tag_150:\n        /* \"#utility.yul\":3732:3818   */\n      swap1\n      pop\n        /* \"#utility.yul\":3512:3825   */\n      swap3\n      swap2\n      pop\n      pop\n      jump\t// out\n        /* \"#utility.yul\":3831:4053   */\n    tag_21:\n        /* \"#utility.yul\":3924:3928   */\n      0x00\n        /* \"#utility.yul\":3962:3964   */\n      0x20\n        /* \"#utility.yul\":3951:3960   */\n      dup3\n        /* \"#utility.yul\":3947:3965   */\n      add\n        /* \"#utility.yul\":3939:3965   */\n      swap1\n      pop\n        /* \"#utility.yul\":3975:4046   */\n      tag_152\n        /* \"#utility.yul\":4043:4044   */\n      0x00\n        /* \"#utility.yul\":4032:4041   */\n      dup4\n        /* \"#utility.yul\":4028:4045   */\n      add\n        /* \"#utility.yul\":4019:4025   */\n      dup5\n        /* \"#utility.yul\":3975:4046   */\n      tag_137\n      jump\t// in\n    tag_152:\n        /* \"#utility.yul\":3831:4053   */\n      swap3\n      swap2\n      pop\n      pop\n      jump\t// out\n        /* \"#utility.yul\":4059:4273   */\n    tag_31:\n        /* \"#utility.yul\":4148:4152   */\n      0x00\n        /* \"#utility.yul\":4186:4188   */\n      0x20\n        /* \"#utility.yul\":4175:4184   */\n      dup3\n        /* \"#utility.yul\":4171:4189   */\n      add\n        /* \"#utility.yul\":4163:4189   */\n      swap1\n      pop\n        /* \"#utility.yul\":4199:4266   */\n      tag_154\n        /* \"#utility.yul\":4263:4264   */\n      0x00\n        /* \"#utility.yul\":4252:4261   */\n      dup4\n        /* \"#utility.yul\":4248:4265   */\n      add\n        /* \"#utility.yul\":4239:4245   */\n      dup5\n        /* \"#utility.yul\":4199:4266   */\n      tag_141\n      jump\t// in\n    tag_154:\n        /* \"#utility.yul\":4059:4273   */\n      swap3\n      swap2\n      pop\n      pop\n      jump\t// out\n        /* \"#utility.yul\":4360:4459   */\n    tag_130:\n        /* \"#utility.yul\":4412:4418   */\n      0x00\n        /* \"#utility.yul\":4446:4451   */\n      dup2\n        /* \"#utility.yul\":4440:4452   */\n      mload\n        /* \"#utility.yul\":4430:4452   */\n      swap1\n      pop\n        /* \"#utility.yul\":4360:4459   */\n      swap2\n      swap1\n      pop\n      jump\t// out\n        /* \"#utility.yul\":4465:4634   */\n    tag_132:\n        /* \"#utility.yul\":4549:4560   */\n      0x00\n        /* \"#utility.yul\":4583:4589   */\n      dup3\n        /* \"#utility.yul\":4578:4581   */\n      dup3\n        /* \"#utility.yul\":4571:4590   */\n      mstore\n        /* \"#utility.yul\":4623:4627   */\n      0x20\n        /* \"#utility.yul\":4618:4621   */\n      dup3\n        /* \"#utility.yul\":4614:4628   */\n      add\n        /* \"#utility.yul\":4599:4628   */\n      swap1\n      pop\n        /* \"#utility.yul\":4465:4634   */\n      swap3\n      swap2\n      pop\n      pop\n      jump\t// out\n        /* \"#utility.yul\":4640:4945   */\n    tag_86:\n        /* \"#utility.yul\":4680:4683   */\n      0x00\n        /* \"#utility.yul\":4699:4719   */\n      tag_160\n        /* \"#utility.yul\":4717:4718   */\n      dup3\n        /* \"#utility.yul\":4699:4719   */\n      tag_140\n      jump\t// in\n    tag_160:\n        /* \"#utility.yul\":4694:4719   */\n      swap2\n      pop\n        /* \"#utility.yul\":4733:4753   */\n      tag_161\n        /* \"#utility.yul\":4751:4752   */\n      dup4\n        /* \"#utility.yul\":4733:4753   */\n      tag_140\n      jump\t// in\n    tag_161:\n        /* \"#utility.yul\":4728:4753   */\n      swap3\n      pop\n        /* \"#utility.yul\":4887:4888   */\n      dup3\n        /* \"#utility.yul\":4819:4885   */\n      0xffffffffffffffffffffffffffffffffffffffffffffffffffffffffffffffff\n        /* \"#utility.yul\":4815:4889   */\n      sub\n        /* \"#utility.yul\":4812:4813   */\n      dup3\n        /* \"#utility.yul\":4809:4890   */\n      gt\n        /* \"#utility.yul\":4806:4913   */\n      iszero\n      tag_162\n      jumpi\n        /* \"#utility.yul\":4893:4911   */\n      tag_163\n      tag_164\n      jump\t// in\n    tag_163:\n        /* \"#utility.yul\":4806:4913   */\n    tag_162:\n        /* \"#utility.yul\":4937:4938   */\n      dup3\n        /* \"#utility.yul\":4934:4935   */\n      dup3\n        /* \"#utility.yul\":4930:4939   */\n      add\n        /* \"#utility.yul\":4923:4939   */\n      swap1\n      pop\n        /* \"#utility.yul\":4640:4945   */\n      swap3\n      swap2\n      pop\n      pop\n      jump\t// out\n        /* \"#utility.yul\":4951:5142   */\n    tag_83:\n        /* \"#utility.yul\":4991:4995   */\n      0x00\n        /* \"#utility.yul\":5011:5031   */\n      tag_166\n        /* \"#utility.yul\":5029:5030   */\n      dup3\n        /* \"#utility.yul\":5011:5031   */\n      tag_140\n      jump\t// in\n    tag_166:\n        /* \"#utility.yul\":5006:5031   */\n      swap2\n      pop\n        /* \"#utility.yul\":5045:5065   */\n      tag_167\n        /* \"#utility.yul\":5063:5064   */\n      dup4\n        /* \"#utility.yul\":5045:5065   */\n      tag_140\n      jump\t// in\n    tag_167:\n        /* \"#utility.yul\":5040:5065   */\n      swap3\n      pop\n        /* \"#utility.yul\":5084:5085   */\n      dup3\n        /* \"#utility.yul\":5081:5082   */\n      dup3\n        /* \"#utility.yul\":5078:5086   */\n      lt\n        /* \"#utility.yul\":5075:5109   */\n      iszero\n      tag_168\n      jumpi\n        /* \"#utility.yul\":5089:5107   */\n      tag_169\n      tag_164\n      jump\t// in\n    tag_169:\n        /* \"#utility.yul\":5075:5109   */\n    tag_168:\n        /* \"#utility.yul\":5134:5135   */\n      dup3\n        /* \"#utility.yul\":5131:5132   */\n      dup3\n        /* \"#utility.yul\":5127:5136   */\n      sub\n        /* \"#utility.yul\":5119:5136   */\n      swap1\n      pop\n        /* \"#utility.yul\":4951:5142   */\n      swap3\n      swap2\n      pop\n      pop\n      jump\t// out\n        /* \"#utility.yul\":5148:5244   */\n    tag_122:\n        /* \"#utility.yul\":5185:5192   */\n      0x00\n        /* \"#utility.yul\":5214:5238   */\n      tag_171\n        /* \"#utility.yul\":5232:5237   */\n      dup3\n        /* \"#utility.yul\":5214:5238   */\n      tag_172\n      jump\t// in\n    tag_171:\n        /* \"#utility.yul\":5203:5238   */\n      swap1\n      pop\n        /* \"#utility.yul\":5148:5244   */\n      swap2\n      swap1\n      pop\n      jump\t// out\n        /* \"#utility.yul\":5250:5340   */\n    tag_126:\n        /* \"#utility.yul\":5284:5291   */\n      0x00\n        /* \"#utility.yul\":5327:5332   */\n      dup2\n        /* \"#utility.yul\":5320:5333   */\n      iszero\n        /* \"#utility.yul\":5313:5334   */\n      iszero\n        /* \"#utility.yul\":5302:5334   */\n      swap1\n      pop\n        /* \"#utility.yul\":5250:5340   */\n      swap2\n      swap1\n      pop\n      jump\t// out\n        /* \"#utility.yul\":5346:5472   */\n    tag_172:\n        /* \"#utility.yul\":5383:5390   */\n      0x00\n        /* \"#utility.yul\":5423:5465   */\n      0xffffffffffffffffffffffffffffffffffffffff\n        /* \"#utility.yul\":5416:5421   */\n      dup3\n        /* \"#utility.yul\":5412:5466   */\n      and\n        /* \"#utility.yul\":5401:5466   */\n      swap1\n      pop\n        /* \"#utility.yul\":5346:5472   */\n      swap2\n      swap1\n      pop\n      jump\t// out\n        /* \"#utility.yul\":5478:5555   */\n    tag_140:\n        /* \"#utility.yul\":5515:5522   */\n      0x00\n        /* \"#utility.yul\":5544:5549   */\n      dup2\n        /* \"#utility.yul\":5533:5549   */\n      swap1\n      pop\n        /* \"#utility.yul\":5478:5555   */\n      swap2\n      swap1\n      pop\n      jump\t// out\n        /* \"#utility.yul\":5561:5647   */\n    tag_144:\n        /* \"#utility.yul\":5596:5603   */\n      0x00\n        /* \"#utility.yul\":5636:5640   */\n      0xff\n        /* \"#utility.yul\":5629:5634   */\n      dup3\n        /* \"#utility.yul\":5625:5641   */\n      and\n        /* \"#utility.yul\":5614:5641   */\n      swap1\n      pop\n        /* \"#utility.yul\":5561:5647   */\n      swap2\n      swap1\n      pop\n      jump\t// out\n        /* \"#utility.yul\":5653:5960   */\n    tag_134:\n        /* \"#utility.yul\":5721:5722   */\n      0x00\n        /* \"#utility.yul\":5731:5844   */\n    tag_178:\n        /* \"#utility.yul\":5745:5751   */\n      dup4\n        /* \"#utility.yul\":5742:5743   */\n      dup2\n        /* \"#utility.yul\":5739:5752   */\n      lt\n        /* \"#utility.yul\":5731:5844   */\n      iszero\n      tag_180\n      jumpi\n        /* \"#utility.yul\":5830:5831   */\n      dup1\n        /* \"#utility.yul\":5825:5828   */\n      dup3\n        /* \"#utility.yul\":5821:5832   */\n      add\n        /* \"#utility.yul\":5815:5833   */\n      mload\n        /* \"#utility.yul\":5811:5812   */\n      dup2\n        /* \"#utility.yul\":5806:5809   */\n      dup5\n        /* \"#utility.yul\":5802:5813   */\n      add\n        /* \"#utility.yul\":5795:5834   */\n      mstore\n        /* \"#utility.yul\":5767:5769   */\n      0x20\n        /* \"#utility.yul\":5764:5765   */\n      dup2\n        /* \"#utility.yul\":5760:5770   */\n      add\n        /* \"#utility.yul\":5755:5770   */\n      swap1\n      pop\n        /* \"#utility.yul\":5731:5844   */\n      jump(tag_178)\n    tag_180:\n        /* \"#utility.yul\":5862:5868   */\n      dup4\n        /* \"#utility.yul\":5859:5860   */\n      dup2\n        /* \"#utility.yul\":5856:5869   */\n      gt\n        /* \"#utility.yul\":5853:5954   */\n      iszero\n      tag_181\n      jumpi\n        /* \"#utility.yul\":5942:5943   */\n      0x00\n        /* \"#utility.yul\":5933:5939   */\n      dup5\n        /* \"#utility.yul\":5928:5931   */\n      dup5\n        /* \"#utility.yul\":5924:5940   */\n      add\n        /* \"#utility.yul\":5917:5944   */\n      mstore\n        /* \"#utility.yul\":5853:5954   */\n    tag_181:\n        /* \"#utility.yul\":5702:5960   */\n      pop\n        /* \"#utility.yul\":5653:5960   */\n      pop\n      pop\n      pop\n      jump\t// out\n        /* \"#utility.yul\":5966:6146   */\n    tag_81:\n        /* \"#utility.yul\":6014:6091   */\n      0x4e487b7100000000000000000000000000000000000000000000000000000000\n        /* \"#utility.yul\":6011:6012   */\n      0x00\n        /* \"#utility.yul\":6004:6092   */\n      mstore\n        /* \"#utility.yul\":6111:6115   */\n      0x01\n        /* \"#utility.yul\":6108:6109   */\n      0x04\n        /* \"#utility.yul\":6101:6116   */\n      mstore\n        /* \"#utility.yul\":6135:6139   */\n      0x24\n        /* \"#utility.yul\":6132:6133   */\n      0x00\n        /* \"#utility.yul\":6125:6140   */\n      revert\n        /* \"#utility.yul\":6152:6332   */\n    tag_164:\n        /* \"#utility.yul\":6200:6277   */\n      0x4e487b7100000000000000000000000000000000000000000000000000000000\n        /* \"#utility.yul\":6197:6198   */\n      0x00\n        /* \"#utility.yul\":6190:6278   */\n      mstore\n        /* \"#utility.yul\":6297:6301   */\n      0x11\n        /* \"#utility.yul\":6294:6295   */\n      0x04\n        /* \"#utility.yul\":6287:6302   */\n      mstore\n        /* \"#utility.yul\":6321:6325   */\n      0x24\n        /* \"#utility.yul\":6318:6319   */\n      0x00\n        /* \"#utility.yul\":6311:6326   */\n      revert\n        /* \"#utility.yul\":6461:6578   */\n    tag_101:\n        /* \"#utility.yul\":6570:6571   */\n      0x00\n        /* \"#utility.yul\":6567:6568   */\n      dup1\n        /* \"#utility.yul\":6560:6572   */\n      revert\n        /* \"#utility.yul\":6584:6686   */\n    tag_136:\n        /* \"#utility.yul\":6625:6631   */\n      0x00\n        /* \"#utility.yul\":6676:6678   */\n      0x1f\n        /* \"#utility.yul\":6672:6679   */\n      not\n        /* \"#utility.yul\":6667:6669   */\n      0x1f\n        /* \"#utility.yul\":6660:6665   */\n      dup4\n        /* \"#utility.yul\":6656:6670   */\n      add\n        /* \"#utility.yul\":6652:6680   */\n      and\n        /* \"#utility.yul\":6642:6680   */\n      swap1\n      pop\n        /* \"#utility.yul\":6584:6686   */\n      swap2\n      swap1\n      pop\n      jump\t// out\n        /* \"#utility.yul\":6692:6814   */\n    tag_93:\n        /* \"#utility.yul\":6765:6789   */\n      tag_189\n        /* \"#utility.yul\":6783:6788   */\n      dup2\n        /* \"#utility.yul\":6765:6789   */\n      tag_122\n      jump\t// in\n    tag_189:\n        /* \"#utility.yul\":6758:6763   */\n      dup2\n        /* \"#utility.yul\":6755:6790   */\n      eq\n        /* \"#utility.yul\":6745:6808   */\n      tag_190\n      jumpi\n        /* \"#utility.yul\":6804:6805   */\n      0x00\n        /* \"#utility.yul\":6801:6802   */\n      dup1\n        /* \"#utility.yul\":6794:6806   */\n      revert\n        /* \"#utility.yul\":6745:6808   */\n    tag_190:\n        /* \"#utility.yul\":6692:6814   */\n      pop\n      jump\t// out\n        /* \"#utility.yul\":6820:6942   */\n    tag_97:\n        /* \"#utility.yul\":6893:6917   */\n      tag_192\n        /* \"#utility.yul\":6911:6916   */\n      dup2\n        /* \"#utility.yul\":6893:6917   */\n      tag_140\n      jump\t// in\n    tag_192:\n        /* \"#utility.yul\":6886:6891   */\n      dup2\n        /* \"#utility.yul\":6883:6918   */\n      eq\n        /* \"#utility.yul\":6873:6936   */\n      tag_193\n      jumpi\n        /* \"#utility.yul\":6932:6933   */\n      0x00\n        /* \"#utility.yul\":6929:6930   */\n      dup1\n        /* \"#utility.yul\":6922:6934   */\n      revert\n        /* \"#utility.yul\":6873:6936   */\n    tag_193:\n        /* \"#utility.yul\":6820:6942   */\n      pop\n      jump\t// out\n\n    auxdata: 0xa26469706673582212206f67708371b6a226a693533ffa2f5a10cf1ff6572476f7ac8b55425ac19a0c6764736f6c63430008070033\n}\n",
				"bytecode": {
					"linkReferences": {},
					"object": "6080604052678ac7230489e8000060025534801561001c57600080fd5b506002546000803373ffffffffffffffffffffffffffffffffffffffff1673ffffffffffffffffffffffffffffffffffffffff16815260200190815260200160002081905550610e57806100716000396000f3fe608060405234801561001057600080fd5b506004361061009e5760003560e01c806370a082311161006657806370a082311461014b57806395d89b411461017b578063a9059cbb14610199578063dd62ed3e146101c9578063e1f21c67146101f95761009e565b806306fdde03146100a357806318160ddd146100c157806323b872dd146100df578063313ce5671461010f57806338cc48311461012d575b600080fd5b6100ab610229565b6040516100b89190610bf9565b60405180910390f35b6100c9610262565b6040516100d69190610c1b565b60405180910390f35b6100f960048036038101906100f49190610abb565b61026c565b6040516101069190610bde565b60405180910390f35b6101176105e7565b6040516101249190610c36565b60405180910390f35b6101356105ec565b6040516101429190610bc3565b60405180910390f35b61016560048036038101906101609190610a4e565b6105f4565b6040516101729190610c1b565b60405180910390f35b61018361063c565b6040516101909190610bf9565b60405180910390f35b6101b360048036038101906101ae9190610b0e565b610675565b6040516101c09190610bde565b60405180910390f35b6101e360048036038101906101de9190610a7b565b610857565b6040516101f09190610c1b565b60405180910390f35b610213600480360381019061020e9190610abb565b6108de565b6040516102209190610bde565b60405180910390f35b6040518060400160405280601281526020017f45524332302d5869616f6368756e436f696e000000000000000000000000000081525081565b6000600254905090565b60008060008573ffffffffffffffffffffffffffffffffffffffff1673ffffffffffffffffffffffffffffffffffffffff168152602001908152602001600020548211156102b957600080fd5b600160008573ffffffffffffffffffffffffffffffffffffffff1673ffffffffffffffffffffffffffffffffffffffff16815260200190815260200160002060003373ffffffffffffffffffffffffffffffffffffffff1673ffffffffffffffffffffffffffffffffffffffff1681526020019081526020016000205482111561034257600080fd5b610393826000808773ffffffffffffffffffffffffffffffffffffffff1673ffffffffffffffffffffffffffffffffffffffff168152602001908152602001600020546109d190919063ffffffff16565b6000808673ffffffffffffffffffffffffffffffffffffffff1673ffffffffffffffffffffffffffffffffffffffff1681526020019081526020016000208190555061046482600160008773ffffffffffffffffffffffffffffffffffffffff1673ffffffffffffffffffffffffffffffffffffffff16815260200190815260200160002060008673ffffffffffffffffffffffffffffffffffffffff1673ffffffffffffffffffffffffffffffffffffffff168152602001908152602001600020546109d190919063ffffffff16565b600160008673ffffffffffffffffffffffffffffffffffffffff1673ffffffffffffffffffffffffffffffffffffffff16815260200190815260200160002060008573ffffffffffffffffffffffffffffffffffffffff1673ffffffffffffffffffffffffffffffffffffffff16815260200190815260200160002081905550610535826000808673ffffffffffffffffffffffffffffffffffffffff1673ffffffffffffffffffffffffffffffffffffffff168152602001908152602001600020546109f890919063ffffffff16565b6000808573ffffffffffffffffffffffffffffffffffffffff1673ffffffffffffffffffffffffffffffffffffffff168152602001908152602001600020819055508273ffffffffffffffffffffffffffffffffffffffff168473ffffffffffffffffffffffffffffffffffffffff167f5225eac2a7facfbeb099c00a4cc7c457701324f1fd84b84b14033f9e911374a4846040516105d49190610c1b565b60405180910390a3600190509392505050565b601281565b600030905090565b60008060008373ffffffffffffffffffffffffffffffffffffffff1673ffffffffffffffffffffffffffffffffffffffff168152602001908152602001600020549050919050565b6040518060400160405280600781526020017f4552432d5843430000000000000000000000000000000000000000000000000081525081565b60008060003373ffffffffffffffffffffffffffffffffffffffff1673ffffffffffffffffffffffffffffffffffffffff168152602001908152602001600020548211156106c257600080fd5b610713826000803373ffffffffffffffffffffffffffffffffffffffff1673ffffffffffffffffffffffffffffffffffffffff168152602001908152602001600020546109d190919063ffffffff16565b6000803373ffffffffffffffffffffffffffffffffffffffff1673ffffffffffffffffffffffffffffffffffffffff168152602001908152602001600020819055506107a6826000808673ffffffffffffffffffffffffffffffffffffffff1673ffffffffffffffffffffffffffffffffffffffff168152602001908152602001600020546109f890919063ffffffff16565b6000808573ffffffffffffffffffffffffffffffffffffffff1673ffffffffffffffffffffffffffffffffffffffff168152602001908152602001600020819055508273ffffffffffffffffffffffffffffffffffffffff163373ffffffffffffffffffffffffffffffffffffffff167f5225eac2a7facfbeb099c00a4cc7c457701324f1fd84b84b14033f9e911374a4846040516108459190610c1b565b60405180910390a36001905092915050565b6000600160008473ffffffffffffffffffffffffffffffffffffffff1673ffffffffffffffffffffffffffffffffffffffff16815260200190815260200160002060008373ffffffffffffffffffffffffffffffffffffffff1673ffffffffffffffffffffffffffffffffffffffff16815260200190815260200160002054905092915050565b600081600160008673ffffffffffffffffffffffffffffffffffffffff1673ffffffffffffffffffffffffffffffffffffffff16815260200190815260200160002060008573ffffffffffffffffffffffffffffffffffffffff1673ffffffffffffffffffffffffffffffffffffffff168152602001908152602001600020819055508273ffffffffffffffffffffffffffffffffffffffff168473ffffffffffffffffffffffffffffffffffffffff167f8c5be1e5ebec7d5bd14f71427d1e84f3dd0314c0f7b2291e5b200ac8c7c3b925846040516109be9190610c1b565b60405180910390a3600190509392505050565b6000828211156109e4576109e3610d7f565b5b81836109f09190610cc3565b905092915050565b6000808284610a079190610c6d565b905083811015610a1a57610a19610d7f565b5b8091505092915050565b600081359050610a3381610df3565b92915050565b600081359050610a4881610e0a565b92915050565b600060208284031215610a6457610a63610ddd565b5b6000610a7284828501610a24565b91505092915050565b60008060408385031215610a9257610a91610ddd565b5b6000610aa085828601610a24565b9250506020610ab185828601610a24565b9150509250929050565b600080600060608486031215610ad457610ad3610ddd565b5b6000610ae286828701610a24565b9350506020610af386828701610a24565b9250506040610b0486828701610a39565b9150509250925092565b60008060408385031215610b2557610b24610ddd565b5b6000610b3385828601610a24565b9250506020610b4485828601610a39565b9150509250929050565b610b5781610cf7565b82525050565b610b6681610d09565b82525050565b6000610b7782610c51565b610b818185610c5c565b9350610b91818560208601610d4c565b610b9a81610de2565b840191505092915050565b610bae81610d35565b82525050565b610bbd81610d3f565b82525050565b6000602082019050610bd86000830184610b4e565b92915050565b6000602082019050610bf36000830184610b5d565b92915050565b60006020820190508181036000830152610c138184610b6c565b905092915050565b6000602082019050610c306000830184610ba5565b92915050565b6000602082019050610c4b6000830184610bb4565b92915050565b600081519050919050565b600082825260208201905092915050565b6000610c7882610d35565b9150610c8383610d35565b9250827fffffffffffffffffffffffffffffffffffffffffffffffffffffffffffffffff03821115610cb857610cb7610dae565b5b828201905092915050565b6000610cce82610d35565b9150610cd983610d35565b925082821015610cec57610ceb610dae565b5b828203905092915050565b6000610d0282610d15565b9050919050565b60008115159050919050565b600073ffffffffffffffffffffffffffffffffffffffff82169050919050565b6000819050919050565b600060ff82169050919050565b60005b83811015610d6a578082015181840152602081019050610d4f565b83811115610d79576000848401525b50505050565b7f4e487b7100000000000000000000000000000000000000000000000000000000600052600160045260246000fd5b7f4e487b7100000000000000000000000000000000000000000000000000000000600052601160045260246000fd5b600080fd5b6000601f19601f8301169050919050565b610dfc81610cf7565b8114610e0757600080fd5b50565b610e1381610d35565b8114610e1e57600080fd5b5056fea26469706673582212206f67708371b6a226a693533ffa2f5a10cf1ff6572476f7ac8b55425ac19a0c6764736f6c63430008070033",
					"opcodes": "PUSH1 0x80 PUSH1 0x40 MSTORE PUSH8 0x8AC7230489E80000 PUSH1 0x2 SSTORE CALLVALUE DUP1 ISZERO PUSH2 0x1C JUMPI PUSH1 0x0 DUP1 REVERT JUMPDEST POP PUSH1 0x2 SLOAD PUSH1 0x0 DUP1 CALLER PUSH20 0xFFFFFFFFFFFFFFFFFFFFFFFFFFFFFFFFFFFFFFFF AND PUSH20 0xFFFFFFFFFFFFFFFFFFFFFFFFFFFFFFFFFFFFFFFF AND DUP2 MSTORE PUSH1 0x20 ADD SWAP1 DUP2 MSTORE PUSH1 0x20 ADD PUSH1 0x0 KECCAK256 DUP2 SWAP1 SSTORE POP PUSH2 0xE57 DUP1 PUSH2 0x71 PUSH1 0x0 CODECOPY PUSH1 0x0 RETURN INVALID PUSH1 0x80 PUSH1 0x40 MSTORE CALLVALUE DUP1 ISZERO PUSH2 0x10 JUMPI PUSH1 0x0 DUP1 REVERT JUMPDEST POP PUSH1 0x4 CALLDATASIZE LT PUSH2 0x9E JUMPI PUSH1 0x0 CALLDATALOAD PUSH1 0xE0 SHR DUP1 PUSH4 0x70A08231 GT PUSH2 0x66 JUMPI DUP1 PUSH4 0x70A08231 EQ PUSH2 0x14B JUMPI DUP1 PUSH4 0x95D89B41 EQ PUSH2 0x17B JUMPI DUP1 PUSH4 0xA9059CBB EQ PUSH2 0x199 JUMPI DUP1 PUSH4 0xDD62ED3E EQ PUSH2 0x1C9 JUMPI DUP1 PUSH4 0xE1F21C67 EQ PUSH2 0x1F9 JUMPI PUSH2 0x9E JUMP JUMPDEST DUP1 PUSH4 0x6FDDE03 EQ PUSH2 0xA3 JUMPI DUP1 PUSH4 0x18160DDD EQ PUSH2 0xC1 JUMPI DUP1 PUSH4 0x23B872DD EQ PUSH2 0xDF JUMPI DUP1 PUSH4 0x313CE567 EQ PUSH2 0x10F JUMPI DUP1 PUSH4 0x38CC4831 EQ PUSH2 0x12D JUMPI JUMPDEST PUSH1 0x0 DUP1 REVERT JUMPDEST PUSH2 0xAB PUSH2 0x229 JUMP JUMPDEST PUSH1 0x40 MLOAD PUSH2 0xB8 SWAP2 SWAP1 PUSH2 0xBF9 JUMP JUMPDEST PUSH1 0x40 MLOAD DUP1 SWAP2 SUB SWAP1 RETURN JUMPDEST PUSH2 0xC9 PUSH2 0x262 JUMP JUMPDEST PUSH1 0x40 MLOAD PUSH2 0xD6 SWAP2 SWAP1 PUSH2 0xC1B JUMP JUMPDEST PUSH1 0x40 MLOAD DUP1 SWAP2 SUB SWAP1 RETURN JUMPDEST PUSH2 0xF9 PUSH1 0x4 DUP1 CALLDATASIZE SUB DUP2 ADD SWAP1 PUSH2 0xF4 SWAP2 SWAP1 PUSH2 0xABB JUMP JUMPDEST PUSH2 0x26C JUMP JUMPDEST PUSH1 0x40 MLOAD PUSH2 0x106 SWAP2 SWAP1 PUSH2 0xBDE JUMP JUMPDEST PUSH1 0x40 MLOAD DUP1 SWAP2 SUB SWAP1 RETURN JUMPDEST PUSH2 0x117 PUSH2 0x5E7 JUMP JUMPDEST PUSH1 0x40 MLOAD PUSH2 0x124 SWAP2 SWAP1 PUSH2 0xC36 JUMP JUMPDEST PUSH1 0x40 MLOAD DUP1 SWAP2 SUB SWAP1 RETURN JUMPDEST PUSH2 0x135 PUSH2 0x5EC JUMP JUMPDEST PUSH1 0x40 MLOAD PUSH2 0x142 SWAP2 SWAP1 PUSH2 0xBC3 JUMP JUMPDEST PUSH1 0x40 MLOAD DUP1 SWAP2 SUB SWAP1 RETURN JUMPDEST PUSH2 0x165 PUSH1 0x4 DUP1 CALLDATASIZE SUB DUP2 ADD SWAP1 PUSH2 0x160 SWAP2 SWAP1 PUSH2 0xA4E JUMP JUMPDEST PUSH2 0x5F4 JUMP JUMPDEST PUSH1 0x40 MLOAD PUSH2 0x172 SWAP2 SWAP1 PUSH2 0xC1B JUMP JUMPDEST PUSH1 0x40 MLOAD DUP1 SWAP2 SUB SWAP1 RETURN JUMPDEST PUSH2 0x183 PUSH2 0x63C JUMP JUMPDEST PUSH1 0x40 MLOAD PUSH2 0x190 SWAP2 SWAP1 PUSH2 0xBF9 JUMP JUMPDEST PUSH1 0x40 MLOAD DUP1 SWAP2 SUB SWAP1 RETURN JUMPDEST PUSH2 0x1B3 PUSH1 0x4 DUP1 CALLDATASIZE SUB DUP2 ADD SWAP1 PUSH2 0x1AE SWAP2 SWAP1 PUSH2 0xB0E JUMP JUMPDEST PUSH2 0x675 JUMP JUMPDEST PUSH1 0x40 MLOAD PUSH2 0x1C0 SWAP2 SWAP1 PUSH2 0xBDE JUMP JUMPDEST PUSH1 0x40 MLOAD DUP1 SWAP2 SUB SWAP1 RETURN JUMPDEST PUSH2 0x1E3 PUSH1 0x4 DUP1 CALLDATASIZE SUB DUP2 ADD SWAP1 PUSH2 0x1DE SWAP2 SWAP1 PUSH2 0xA7B JUMP JUMPDEST PUSH2 0x857 JUMP JUMPDEST PUSH1 0x40 MLOAD PUSH2 0x1F0 SWAP2 SWAP1 PUSH2 0xC1B JUMP JUMPDEST PUSH1 0x40 MLOAD DUP1 SWAP2 SUB SWAP1 RETURN JUMPDEST PUSH2 0x213 PUSH1 0x4 DUP1 CALLDATASIZE SUB DUP2 ADD SWAP1 PUSH2 0x20E SWAP2 SWAP1 PUSH2 0xABB JUMP JUMPDEST PUSH2 0x8DE JUMP JUMPDEST PUSH1 0x40 MLOAD PUSH2 0x220 SWAP2 SWAP1 PUSH2 0xBDE JUMP JUMPDEST PUSH1 0x40 MLOAD DUP1 SWAP2 SUB SWAP1 RETURN JUMPDEST PUSH1 0x40 MLOAD DUP1 PUSH1 0x40 ADD PUSH1 0x40 MSTORE DUP1 PUSH1 0x12 DUP2 MSTORE PUSH1 0x20 ADD PUSH32 0x45524332302D5869616F6368756E436F696E0000000000000000000000000000 DUP2 MSTORE POP DUP2 JUMP JUMPDEST PUSH1 0x0 PUSH1 0x2 SLOAD SWAP1 POP SWAP1 JUMP JUMPDEST PUSH1 0x0 DUP1 PUSH1 0x0 DUP6 PUSH20 0xFFFFFFFFFFFFFFFFFFFFFFFFFFFFFFFFFFFFFFFF AND PUSH20 0xFFFFFFFFFFFFFFFFFFFFFFFFFFFFFFFFFFFFFFFF AND DUP2 MSTORE PUSH1 0x20 ADD SWAP1 DUP2 MSTORE PUSH1 0x20 ADD PUSH1 0x0 KECCAK256 SLOAD DUP3 GT ISZERO PUSH2 0x2B9 JUMPI PUSH1 0x0 DUP1 REVERT JUMPDEST PUSH1 0x1 PUSH1 0x0 DUP6 PUSH20 0xFFFFFFFFFFFFFFFFFFFFFFFFFFFFFFFFFFFFFFFF AND PUSH20 0xFFFFFFFFFFFFFFFFFFFFFFFFFFFFFFFFFFFFFFFF AND DUP2 MSTORE PUSH1 0x20 ADD SWAP1 DUP2 MSTORE PUSH1 0x20 ADD PUSH1 0x0 KECCAK256 PUSH1 0x0 CALLER PUSH20 0xFFFFFFFFFFFFFFFFFFFFFFFFFFFFFFFFFFFFFFFF AND PUSH20 0xFFFFFFFFFFFFFFFFFFFFFFFFFFFFFFFFFFFFFFFF AND DUP2 MSTORE PUSH1 0x20 ADD SWAP1 DUP2 MSTORE PUSH1 0x20 ADD PUSH1 0x0 KECCAK256 SLOAD DUP3 GT ISZERO PUSH2 0x342 JUMPI PUSH1 0x0 DUP1 REVERT JUMPDEST PUSH2 0x393 DUP3 PUSH1 0x0 DUP1 DUP8 PUSH20 0xFFFFFFFFFFFFFFFFFFFFFFFFFFFFFFFFFFFFFFFF AND PUSH20 0xFFFFFFFFFFFFFFFFFFFFFFFFFFFFFFFFFFFFFFFF AND DUP2 MSTORE PUSH1 0x20 ADD SWAP1 DUP2 MSTORE PUSH1 0x20 ADD PUSH1 0x0 KECCAK256 SLOAD PUSH2 0x9D1 SWAP1 SWAP2 SWAP1 PUSH4 0xFFFFFFFF AND JUMP JUMPDEST PUSH1 0x0 DUP1 DUP7 PUSH20 0xFFFFFFFFFFFFFFFFFFFFFFFFFFFFFFFFFFFFFFFF AND PUSH20 0xFFFFFFFFFFFFFFFFFFFFFFFFFFFFFFFFFFFFFFFF AND DUP2 MSTORE PUSH1 0x20 ADD SWAP1 DUP2 MSTORE PUSH1 0x20 ADD PUSH1 0x0 KECCAK256 DUP2 SWAP1 SSTORE POP PUSH2 0x464 DUP3 PUSH1 0x1 PUSH1 0x0 DUP8 PUSH20 0xFFFFFFFFFFFFFFFFFFFFFFFFFFFFFFFFFFFFFFFF AND PUSH20 0xFFFFFFFFFFFFFFFFFFFFFFFFFFFFFFFFFFFFFFFF AND DUP2 MSTORE PUSH1 0x20 ADD SWAP1 DUP2 MSTORE PUSH1 0x20 ADD PUSH1 0x0 KECCAK256 PUSH1 0x0 DUP7 PUSH20 0xFFFFFFFFFFFFFFFFFFFFFFFFFFFFFFFFFFFFFFFF AND PUSH20 0xFFFFFFFFFFFFFFFFFFFFFFFFFFFFFFFFFFFFFFFF AND DUP2 MSTORE PUSH1 0x20 ADD SWAP1 DUP2 MSTORE PUSH1 0x20 ADD PUSH1 0x0 KECCAK256 SLOAD PUSH2 0x9D1 SWAP1 SWAP2 SWAP1 PUSH4 0xFFFFFFFF AND JUMP JUMPDEST PUSH1 0x1 PUSH1 0x0 DUP7 PUSH20 0xFFFFFFFFFFFFFFFFFFFFFFFFFFFFFFFFFFFFFFFF AND PUSH20 0xFFFFFFFFFFFFFFFFFFFFFFFFFFFFFFFFFFFFFFFF AND DUP2 MSTORE PUSH1 0x20 ADD SWAP1 DUP2 MSTORE PUSH1 0x20 ADD PUSH1 0x0 KECCAK256 PUSH1 0x0 DUP6 PUSH20 0xFFFFFFFFFFFFFFFFFFFFFFFFFFFFFFFFFFFFFFFF AND PUSH20 0xFFFFFFFFFFFFFFFFFFFFFFFFFFFFFFFFFFFFFFFF AND DUP2 MSTORE PUSH1 0x20 ADD SWAP1 DUP2 MSTORE PUSH1 0x20 ADD PUSH1 0x0 KECCAK256 DUP2 SWAP1 SSTORE POP PUSH2 0x535 DUP3 PUSH1 0x0 DUP1 DUP7 PUSH20 0xFFFFFFFFFFFFFFFFFFFFFFFFFFFFFFFFFFFFFFFF AND PUSH20 0xFFFFFFFFFFFFFFFFFFFFFFFFFFFFFFFFFFFFFFFF AND DUP2 MSTORE PUSH1 0x20 ADD SWAP1 DUP2 MSTORE PUSH1 0x20 ADD PUSH1 0x0 KECCAK256 SLOAD PUSH2 0x9F8 SWAP1 SWAP2 SWAP1 PUSH4 0xFFFFFFFF AND JUMP JUMPDEST PUSH1 0x0 DUP1 DUP6 PUSH20 0xFFFFFFFFFFFFFFFFFFFFFFFFFFFFFFFFFFFFFFFF AND PUSH20 0xFFFFFFFFFFFFFFFFFFFFFFFFFFFFFFFFFFFFFFFF AND DUP2 MSTORE PUSH1 0x20 ADD SWAP1 DUP2 MSTORE PUSH1 0x20 ADD PUSH1 0x0 KECCAK256 DUP2 SWAP1 SSTORE POP DUP3 PUSH20 0xFFFFFFFFFFFFFFFFFFFFFFFFFFFFFFFFFFFFFFFF AND DUP5 PUSH20 0xFFFFFFFFFFFFFFFFFFFFFFFFFFFFFFFFFFFFFFFF AND PUSH32 0x5225EAC2A7FACFBEB099C00A4CC7C457701324F1FD84B84B14033F9E911374A4 DUP5 PUSH1 0x40 MLOAD PUSH2 0x5D4 SWAP2 SWAP1 PUSH2 0xC1B JUMP JUMPDEST PUSH1 0x40 MLOAD DUP1 SWAP2 SUB SWAP1 LOG3 PUSH1 0x1 SWAP1 POP SWAP4 SWAP3 POP POP POP JUMP JUMPDEST PUSH1 0x12 DUP2 JUMP JUMPDEST PUSH1 0x0 ADDRESS SWAP1 POP SWAP1 JUMP JUMPDEST PUSH1 0x0 DUP1 PUSH1 0x0 DUP4 PUSH20 0xFFFFFFFFFFFFFFFFFFFFFFFFFFFFFFFFFFFFFFFF AND PUSH20 0xFFFFFFFFFFFFFFFFFFFFFFFFFFFFFFFFFFFFFFFF AND DUP2 MSTORE PUSH1 0x20 ADD SWAP1 DUP2 MSTORE PUSH1 0x20 ADD PUSH1 0x0 KECCAK256 SLOAD SWAP1 POP SWAP2 SWAP1 POP JUMP JUMPDEST PUSH1 0x40 MLOAD DUP1 PUSH1 0x40 ADD PUSH1 0x40 MSTORE DUP1 PUSH1 0x7 DUP2 MSTORE PUSH1 0x20 ADD PUSH32 0x4552432D58434300000000000000000000000000000000000000000000000000 DUP2 MSTORE POP DUP2 JUMP JUMPDEST PUSH1 0x0 DUP1 PUSH1 0x0 CALLER PUSH20 0xFFFFFFFFFFFFFFFFFFFFFFFFFFFFFFFFFFFFFFFF AND PUSH20 0xFFFFFFFFFFFFFFFFFFFFFFFFFFFFFFFFFFFFFFFF AND DUP2 MSTORE PUSH1 0x20 ADD SWAP1 DUP2 MSTORE PUSH1 0x20 ADD PUSH1 0x0 KECCAK256 SLOAD DUP3 GT ISZERO PUSH2 0x6C2 JUMPI PUSH1 0x0 DUP1 REVERT JUMPDEST PUSH2 0x713 DUP3 PUSH1 0x0 DUP1 CALLER PUSH20 0xFFFFFFFFFFFFFFFFFFFFFFFFFFFFFFFFFFFFFFFF AND PUSH20 0xFFFFFFFFFFFFFFFFFFFFFFFFFFFFFFFFFFFFFFFF AND DUP2 MSTORE PUSH1 0x20 ADD SWAP1 DUP2 MSTORE PUSH1 0x20 ADD PUSH1 0x0 KECCAK256 SLOAD PUSH2 0x9D1 SWAP1 SWAP2 SWAP1 PUSH4 0xFFFFFFFF AND JUMP JUMPDEST PUSH1 0x0 DUP1 CALLER PUSH20 0xFFFFFFFFFFFFFFFFFFFFFFFFFFFFFFFFFFFFFFFF AND PUSH20 0xFFFFFFFFFFFFFFFFFFFFFFFFFFFFFFFFFFFFFFFF AND DUP2 MSTORE PUSH1 0x20 ADD SWAP1 DUP2 MSTORE PUSH1 0x20 ADD PUSH1 0x0 KECCAK256 DUP2 SWAP1 SSTORE POP PUSH2 0x7A6 DUP3 PUSH1 0x0 DUP1 DUP7 PUSH20 0xFFFFFFFFFFFFFFFFFFFFFFFFFFFFFFFFFFFFFFFF AND PUSH20 0xFFFFFFFFFFFFFFFFFFFFFFFFFFFFFFFFFFFFFFFF AND DUP2 MSTORE PUSH1 0x20 ADD SWAP1 DUP2 MSTORE PUSH1 0x20 ADD PUSH1 0x0 KECCAK256 SLOAD PUSH2 0x9F8 SWAP1 SWAP2 SWAP1 PUSH4 0xFFFFFFFF AND JUMP JUMPDEST PUSH1 0x0 DUP1 DUP6 PUSH20 0xFFFFFFFFFFFFFFFFFFFFFFFFFFFFFFFFFFFFFFFF AND PUSH20 0xFFFFFFFFFFFFFFFFFFFFFFFFFFFFFFFFFFFFFFFF AND DUP2 MSTORE PUSH1 0x20 ADD SWAP1 DUP2 MSTORE PUSH1 0x20 ADD PUSH1 0x0 KECCAK256 DUP2 SWAP1 SSTORE POP DUP3 PUSH20 0xFFFFFFFFFFFFFFFFFFFFFFFFFFFFFFFFFFFFFFFF AND CALLER PUSH20 0xFFFFFFFFFFFFFFFFFFFFFFFFFFFFFFFFFFFFFFFF AND PUSH32 0x5225EAC2A7FACFBEB099C00A4CC7C457701324F1FD84B84B14033F9E911374A4 DUP5 PUSH1 0x40 MLOAD PUSH2 0x845 SWAP2 SWAP1 PUSH2 0xC1B JUMP JUMPDEST PUSH1 0x40 MLOAD DUP1 SWAP2 SUB SWAP1 LOG3 PUSH1 0x1 SWAP1 POP SWAP3 SWAP2 POP POP JUMP JUMPDEST PUSH1 0x0 PUSH1 0x1 PUSH1 0x0 DUP5 PUSH20 0xFFFFFFFFFFFFFFFFFFFFFFFFFFFFFFFFFFFFFFFF AND PUSH20 0xFFFFFFFFFFFFFFFFFFFFFFFFFFFFFFFFFFFFFFFF AND DUP2 MSTORE PUSH1 0x20 ADD SWAP1 DUP2 MSTORE PUSH1 0x20 ADD PUSH1 0x0 KECCAK256 PUSH1 0x0 DUP4 PUSH20 0xFFFFFFFFFFFFFFFFFFFFFFFFFFFFFFFFFFFFFFFF AND PUSH20 0xFFFFFFFFFFFFFFFFFFFFFFFFFFFFFFFFFFFFFFFF AND DUP2 MSTORE PUSH1 0x20 ADD SWAP1 DUP2 MSTORE PUSH1 0x20 ADD PUSH1 0x0 KECCAK256 SLOAD SWAP1 POP SWAP3 SWAP2 POP POP JUMP JUMPDEST PUSH1 0x0 DUP2 PUSH1 0x1 PUSH1 0x0 DUP7 PUSH20 0xFFFFFFFFFFFFFFFFFFFFFFFFFFFFFFFFFFFFFFFF AND PUSH20 0xFFFFFFFFFFFFFFFFFFFFFFFFFFFFFFFFFFFFFFFF AND DUP2 MSTORE PUSH1 0x20 ADD SWAP1 DUP2 MSTORE PUSH1 0x20 ADD PUSH1 0x0 KECCAK256 PUSH1 0x0 DUP6 PUSH20 0xFFFFFFFFFFFFFFFFFFFFFFFFFFFFFFFFFFFFFFFF AND PUSH20 0xFFFFFFFFFFFFFFFFFFFFFFFFFFFFFFFFFFFFFFFF AND DUP2 MSTORE PUSH1 0x20 ADD SWAP1 DUP2 MSTORE PUSH1 0x20 ADD PUSH1 0x0 KECCAK256 DUP2 SWAP1 SSTORE POP DUP3 PUSH20 0xFFFFFFFFFFFFFFFFFFFFFFFFFFFFFFFFFFFFFFFF AND DUP5 PUSH20 0xFFFFFFFFFFFFFFFFFFFFFFFFFFFFFFFFFFFFFFFF AND PUSH32 0x8C5BE1E5EBEC7D5BD14F71427D1E84F3DD0314C0F7B2291E5B200AC8C7C3B925 DUP5 PUSH1 0x40 MLOAD PUSH2 0x9BE SWAP2 SWAP1 PUSH2 0xC1B JUMP JUMPDEST PUSH1 0x40 MLOAD DUP1 SWAP2 SUB SWAP1 LOG3 PUSH1 0x1 SWAP1 POP SWAP4 SWAP3 POP POP POP JUMP JUMPDEST PUSH1 0x0 DUP3 DUP3 GT ISZERO PUSH2 0x9E4 JUMPI PUSH2 0x9E3 PUSH2 0xD7F JUMP JUMPDEST JUMPDEST DUP2 DUP4 PUSH2 0x9F0 SWAP2 SWAP1 PUSH2 0xCC3 JUMP JUMPDEST SWAP1 POP SWAP3 SWAP2 POP POP JUMP JUMPDEST PUSH1 0x0 DUP1 DUP3 DUP5 PUSH2 0xA07 SWAP2 SWAP1 PUSH2 0xC6D JUMP JUMPDEST SWAP1 POP DUP4 DUP2 LT ISZERO PUSH2 0xA1A JUMPI PUSH2 0xA19 PUSH2 0xD7F JUMP JUMPDEST JUMPDEST DUP1 SWAP2 POP POP SWAP3 SWAP2 POP POP JUMP JUMPDEST PUSH1 0x0 DUP2 CALLDATALOAD SWAP1 POP PUSH2 0xA33 DUP2 PUSH2 0xDF3 JUMP JUMPDEST SWAP3 SWAP2 POP POP JUMP JUMPDEST PUSH1 0x0 DUP2 CALLDATALOAD SWAP1 POP PUSH2 0xA48 DUP2 PUSH2 0xE0A JUMP JUMPDEST SWAP3 SWAP2 POP POP JUMP JUMPDEST PUSH1 0x0 PUSH1 0x20 DUP3 DUP5 SUB SLT ISZERO PUSH2 0xA64 JUMPI PUSH2 0xA63 PUSH2 0xDDD JUMP JUMPDEST JUMPDEST PUSH1 0x0 PUSH2 0xA72 DUP5 DUP3 DUP6 ADD PUSH2 0xA24 JUMP JUMPDEST SWAP2 POP POP SWAP3 SWAP2 POP POP JUMP JUMPDEST PUSH1 0x0 DUP1 PUSH1 0x40 DUP4 DUP6 SUB SLT ISZERO PUSH2 0xA92 JUMPI PUSH2 0xA91 PUSH2 0xDDD JUMP JUMPDEST JUMPDEST PUSH1 0x0 PUSH2 0xAA0 DUP6 DUP3 DUP7 ADD PUSH2 0xA24 JUMP JUMPDEST SWAP3 POP POP PUSH1 0x20 PUSH2 0xAB1 DUP6 DUP3 DUP7 ADD PUSH2 0xA24 JUMP JUMPDEST SWAP2 POP POP SWAP3 POP SWAP3 SWAP1 POP JUMP JUMPDEST PUSH1 0x0 DUP1 PUSH1 0x0 PUSH1 0x60 DUP5 DUP7 SUB SLT ISZERO PUSH2 0xAD4 JUMPI PUSH2 0xAD3 PUSH2 0xDDD JUMP JUMPDEST JUMPDEST PUSH1 0x0 PUSH2 0xAE2 DUP7 DUP3 DUP8 ADD PUSH2 0xA24 JUMP JUMPDEST SWAP4 POP POP PUSH1 0x20 PUSH2 0xAF3 DUP7 DUP3 DUP8 ADD PUSH2 0xA24 JUMP JUMPDEST SWAP3 POP POP PUSH1 0x40 PUSH2 0xB04 DUP7 DUP3 DUP8 ADD PUSH2 0xA39 JUMP JUMPDEST SWAP2 POP POP SWAP3 POP SWAP3 POP SWAP3 JUMP JUMPDEST PUSH1 0x0 DUP1 PUSH1 0x40 DUP4 DUP6 SUB SLT ISZERO PUSH2 0xB25 JUMPI PUSH2 0xB24 PUSH2 0xDDD JUMP JUMPDEST JUMPDEST PUSH1 0x0 PUSH2 0xB33 DUP6 DUP3 DUP7 ADD PUSH2 0xA24 JUMP JUMPDEST SWAP3 POP POP PUSH1 0x20 PUSH2 0xB44 DUP6 DUP3 DUP7 ADD PUSH2 0xA39 JUMP JUMPDEST SWAP2 POP POP SWAP3 POP SWAP3 SWAP1 POP JUMP JUMPDEST PUSH2 0xB57 DUP2 PUSH2 0xCF7 JUMP JUMPDEST DUP3 MSTORE POP POP JUMP JUMPDEST PUSH2 0xB66 DUP2 PUSH2 0xD09 JUMP JUMPDEST DUP3 MSTORE POP POP JUMP JUMPDEST PUSH1 0x0 PUSH2 0xB77 DUP3 PUSH2 0xC51 JUMP JUMPDEST PUSH2 0xB81 DUP2 DUP6 PUSH2 0xC5C JUMP JUMPDEST SWAP4 POP PUSH2 0xB91 DUP2 DUP6 PUSH1 0x20 DUP7 ADD PUSH2 0xD4C JUMP JUMPDEST PUSH2 0xB9A DUP2 PUSH2 0xDE2 JUMP JUMPDEST DUP5 ADD SWAP2 POP POP SWAP3 SWAP2 POP POP JUMP JUMPDEST PUSH2 0xBAE DUP2 PUSH2 0xD35 JUMP JUMPDEST DUP3 MSTORE POP POP JUMP JUMPDEST PUSH2 0xBBD DUP2 PUSH2 0xD3F JUMP JUMPDEST DUP3 MSTORE POP POP JUMP JUMPDEST PUSH1 0x0 PUSH1 0x20 DUP3 ADD SWAP1 POP PUSH2 0xBD8 PUSH1 0x0 DUP4 ADD DUP5 PUSH2 0xB4E JUMP JUMPDEST SWAP3 SWAP2 POP POP JUMP JUMPDEST PUSH1 0x0 PUSH1 0x20 DUP3 ADD SWAP1 POP PUSH2 0xBF3 PUSH1 0x0 DUP4 ADD DUP5 PUSH2 0xB5D JUMP JUMPDEST SWAP3 SWAP2 POP POP JUMP JUMPDEST PUSH1 0x0 PUSH1 0x20 DUP3 ADD SWAP1 POP DUP2 DUP2 SUB PUSH1 0x0 DUP4 ADD MSTORE PUSH2 0xC13 DUP2 DUP5 PUSH2 0xB6C JUMP JUMPDEST SWAP1 POP SWAP3 SWAP2 POP POP JUMP JUMPDEST PUSH1 0x0 PUSH1 0x20 DUP3 ADD SWAP1 POP PUSH2 0xC30 PUSH1 0x0 DUP4 ADD DUP5 PUSH2 0xBA5 JUMP JUMPDEST SWAP3 SWAP2 POP POP JUMP JUMPDEST PUSH1 0x0 PUSH1 0x20 DUP3 ADD SWAP1 POP PUSH2 0xC4B PUSH1 0x0 DUP4 ADD DUP5 PUSH2 0xBB4 JUMP JUMPDEST SWAP3 SWAP2 POP POP JUMP JUMPDEST PUSH1 0x0 DUP2 MLOAD SWAP1 POP SWAP2 SWAP1 POP JUMP JUMPDEST PUSH1 0x0 DUP3 DUP3 MSTORE PUSH1 0x20 DUP3 ADD SWAP1 POP SWAP3 SWAP2 POP POP JUMP JUMPDEST PUSH1 0x0 PUSH2 0xC78 DUP3 PUSH2 0xD35 JUMP JUMPDEST SWAP2 POP PUSH2 0xC83 DUP4 PUSH2 0xD35 JUMP JUMPDEST SWAP3 POP DUP3 PUSH32 0xFFFFFFFFFFFFFFFFFFFFFFFFFFFFFFFFFFFFFFFFFFFFFFFFFFFFFFFFFFFFFFFF SUB DUP3 GT ISZERO PUSH2 0xCB8 JUMPI PUSH2 0xCB7 PUSH2 0xDAE JUMP JUMPDEST JUMPDEST DUP3 DUP3 ADD SWAP1 POP SWAP3 SWAP2 POP POP JUMP JUMPDEST PUSH1 0x0 PUSH2 0xCCE DUP3 PUSH2 0xD35 JUMP JUMPDEST SWAP2 POP PUSH2 0xCD9 DUP4 PUSH2 0xD35 JUMP JUMPDEST SWAP3 POP DUP3 DUP3 LT ISZERO PUSH2 0xCEC JUMPI PUSH2 0xCEB PUSH2 0xDAE JUMP JUMPDEST JUMPDEST DUP3 DUP3 SUB SWAP1 POP SWAP3 SWAP2 POP POP JUMP JUMPDEST PUSH1 0x0 PUSH2 0xD02 DUP3 PUSH2 0xD15 JUMP JUMPDEST SWAP1 POP SWAP2 SWAP1 POP JUMP JUMPDEST PUSH1 0x0 DUP2 ISZERO ISZERO SWAP1 POP SWAP2 SWAP1 POP JUMP JUMPDEST PUSH1 0x0 PUSH20 0xFFFFFFFFFFFFFFFFFFFFFFFFFFFFFFFFFFFFFFFF DUP3 AND SWAP1 POP SWAP2 SWAP1 POP JUMP JUMPDEST PUSH1 0x0 DUP2 SWAP1 POP SWAP2 SWAP1 POP JUMP JUMPDEST PUSH1 0x0 PUSH1 0xFF DUP3 AND SWAP1 POP SWAP2 SWAP1 POP JUMP JUMPDEST PUSH1 0x0 JUMPDEST DUP4 DUP2 LT ISZERO PUSH2 0xD6A JUMPI DUP1 DUP3 ADD MLOAD DUP2 DUP5 ADD MSTORE PUSH1 0x20 DUP2 ADD SWAP1 POP PUSH2 0xD4F JUMP JUMPDEST DUP4 DUP2 GT ISZERO PUSH2 0xD79 JUMPI PUSH1 0x0 DUP5 DUP5 ADD MSTORE JUMPDEST POP POP POP POP JUMP JUMPDEST PUSH32 0x4E487B7100000000000000000000000000000000000000000000000000000000 PUSH1 0x0 MSTORE PUSH1 0x1 PUSH1 0x4 MSTORE PUSH1 0x24 PUSH1 0x0 REVERT JUMPDEST PUSH32 0x4E487B7100000000000000000000000000000000000000000000000000000000 PUSH1 0x0 MSTORE PUSH1 0x11 PUSH1 0x4 MSTORE PUSH1 0x24 PUSH1 0x0 REVERT JUMPDEST PUSH1 0x0 DUP1 REVERT JUMPDEST PUSH1 0x0 PUSH1 0x1F NOT PUSH1 0x1F DUP4 ADD AND SWAP1 POP SWAP2 SWAP1 POP JUMP JUMPDEST PUSH2 0xDFC DUP2 PUSH2 0xCF7 JUMP JUMPDEST DUP2 EQ PUSH2 0xE07 JUMPI PUSH1 0x0 DUP1 REVERT JUMPDEST POP JUMP JUMPDEST PUSH2 0xE13 DUP2 PUSH2 0xD35 JUMP JUMPDEST DUP2 EQ PUSH2 0xE1E JUMPI PUSH1 0x0 DUP1 REVERT JUMPDEST POP JUMP INVALID LOG2 PUSH5 0x6970667358 0x22 SLT KECCAK256 PUSH16 0x67708371B6A226A693533FFA2F5A10CF 0x1F 0xF6 JUMPI 0x24 PUSH23 0xF7AC8B55425AC19A0C6764736F6C634300080700330000 "
				},
				"gasEstimates": {
					"creation": {
						"codeDepositCost": "734200",
						"executionCost": "47175",
						"totalCost": "781375"
					},
					"external": {
						"allowance(address,address)": "infinite",
						"approve(address,address,uint256)": "infinite",
						"balanceOf(address)": "2841",
						"decimals()": "402",
						"getAddress()": "474",
						"name()": "infinite",
						"symbol()": "infinite",
						"totalSupply()": "2460",
						"transfer(address,uint256)": "infinite",
						"transferFrom(address,address,uint256)": "infinite"
					}
				},
				"methodIdentifiers": {
					"allowance(address,address)": "dd62ed3e",
					"approve(address,address,uint256)": "e1f21c67",
					"balanceOf(address)": "70a08231",
					"decimals()": "313ce567",
					"getAddress()": "38cc4831",
					"name()": "06fdde03",
					"symbol()": "95d89b41",
					"totalSupply()": "18160ddd",
					"transfer(address,uint256)": "a9059cbb",
					"transferFrom(address,address,uint256)": "23b872dd"
				}
			},
			"storageLayout": {
				"storage": [
					{
						"astId": 135,
						"contract": "contracts/16_Dex.sol:ERC20Basic",
						"label": "balances",
						"offset": 0,
						"slot": "0",
						"type": "t_mapping(t_address,t_uint256)"
					},
					{
						"astId": 141,
						"contract": "contracts/16_Dex.sol:ERC20Basic",
						"label": "allowed",
						"offset": 0,
						"slot": "1",
						"type": "t_mapping(t_address,t_mapping(t_address,t_uint256))"
					},
					{
						"astId": 144,
						"contract": "contracts/16_Dex.sol:ERC20Basic",
						"label": "totalSupply_",
						"offset": 0,
						"slot": "2",
						"type": "t_uint256"
					}
				],
				"types": {
					"t_address": {
						"encoding": "inplace",
						"label": "address",
						"numberOfBytes": "20"
					},
					"t_mapping(t_address,t_mapping(t_address,t_uint256))": {
						"encoding": "mapping",
						"key": "t_address",
						"label": "mapping(address => mapping(address => uint256))",
						"numberOfBytes": "32",
						"value": "t_mapping(t_address,t_uint256)"
					},
					"t_mapping(t_address,t_uint256)": {
						"encoding": "mapping",
						"key": "t_address",
						"label": "mapping(address => uint256)",
						"numberOfBytes": "32",
						"value": "t_uint256"
					},
					"t_uint256": {
						"encoding": "inplace",
						"label": "uint256",
						"numberOfBytes": "32"
					}
				}
			},
			"userdoc": {
				"kind": "user",
				"methods": {},
				"version": 1
			}
		}
	}
}