{
	"contracts/16_Dex.sol": {
		"DEX": {
			"abi": [
				{
					"inputs": [],
					"stateMutability": "nonpayable",
					"type": "constructor"
				},
				{
					"anonymous": false,
					"inputs": [
						{
							"indexed": false,
							"internalType": "uint256",
							"name": "amount",
							"type": "uint256"
						}
					],
					"name": "Bought",
					"type": "event"
				},
				{
					"anonymous": false,
					"inputs": [
						{
							"indexed": false,
							"internalType": "uint256",
							"name": "amount",
							"type": "uint256"
						}
					],
					"name": "Sold",
					"type": "event"
				},
				{
					"inputs": [],
					"name": "buy",
					"outputs": [],
					"stateMutability": "payable",
					"type": "function"
				},
				{
					"inputs": [],
					"name": "getAddress",
					"outputs": [
						{
							"internalType": "address",
							"name": "",
							"type": "address"
						}
					],
					"stateMutability": "view",
					"type": "function"
				},
				{
					"inputs": [],
					"name": "getDexBalance",
					"outputs": [
						{
							"internalType": "uint256",
							"name": "",
							"type": "uint256"
						}
					],
					"stateMutability": "view",
					"type": "function"
				},
				{
					"inputs": [],
					"name": "getOwnerBalance",
					"outputs": [
						{
							"internalType": "uint256",
							"name": "",
							"type": "uint256"
						}
					],
					"stateMutability": "view",
					"type": "function"
				},
				{
					"inputs": [],
					"name": "getTokenAddress",
					"outputs": [
						{
							"internalType": "address",
							"name": "",
							"type": "address"
						}
					],
					"stateMutability": "view",
					"type": "function"
				},
				{
					"inputs": [
						{
							"internalType": "uint256",
							"name": "amount",
							"type": "uint256"
						}
					],
					"name": "sell",
					"outputs": [],
					"stateMutability": "payable",
					"type": "function"
				},
				{
					"inputs": [],
					"name": "token",
					"outputs": [
						{
							"internalType": "contract IERC20",
							"name": "",
							"type": "address"
						}
					],
					"stateMutability": "view",
					"type": "function"
				}
			],
			"devdoc": {
				"kind": "dev",
				"methods": {},
				"version": 1
			},
			"evm": {
				"assembly": "    /* \"contracts/16_Dex.sol\":3192:4490  contract DEX{... */\n  mstore(0x40, 0x80)\n    /* \"contracts/16_Dex.sol\":3303:3355  constructor(){... */\n  callvalue\n  dup1\n  iszero\n  tag_1\n  jumpi\n  0x00\n  dup1\n  revert\ntag_1:\n  pop\n    /* \"contracts/16_Dex.sol\":3332:3348  new ERC20Basic() */\n  mload(0x40)\n  tag_4\n  swap1\n  tag_5\n  jump\t// in\ntag_4:\n  mload(0x40)\n  dup1\n  swap2\n  sub\n  swap1\n  0x00\n  create\n  dup1\n  iszero\n  dup1\n  iszero\n  tag_6\n  jumpi\n  returndatasize\n  0x00\n  dup1\n  returndatacopy\n  revert(0x00, returndatasize)\ntag_6:\n  pop\n    /* \"contracts/16_Dex.sol\":3326:3331  token */\n  0x00\n  dup1\n    /* \"contracts/16_Dex.sol\":3326:3348  token=new ERC20Basic() */\n  0x0100\n  exp\n  dup2\n  sload\n  dup2\n  0xffffffffffffffffffffffffffffffffffffffff\n  mul\n  not\n  and\n  swap1\n  dup4\n  0xffffffffffffffffffffffffffffffffffffffff\n  and\n  mul\n  or\n  swap1\n  sstore\n  pop\n    /* \"contracts/16_Dex.sol\":3192:4490  contract DEX{... */\n  jump(tag_7)\ntag_5:\n  dataSize(sub_1)\n  dup1\n  dataOffset(sub_1)\n  dup4\n  codecopy\n  add\n  swap1\n  jump\t// out\ntag_7:\n  dataSize(sub_0)\n  dup1\n  dataOffset(sub_0)\n  0x00\n  codecopy\n  0x00\n  return\nstop\n\nsub_0: assembly {\n        /* \"contracts/16_Dex.sol\":3192:4490  contract DEX{... */\n      mstore(0x40, 0x80)\n      jumpi(tag_1, lt(calldatasize, 0x04))\n      shr(0xe0, calldataload(0x00))\n      dup1\n      0x590791f2\n      gt\n      tag_9\n      jumpi\n      dup1\n      0x590791f2\n      eq\n      tag_5\n      jumpi\n      dup1\n      0xa6f2ae3a\n      eq\n      tag_6\n      jumpi\n      dup1\n      0xe4849b32\n      eq\n      tag_7\n      jumpi\n      dup1\n      0xfc0c546a\n      eq\n      tag_8\n      jumpi\n      jump(tag_1)\n    tag_9:\n      dup1\n      0x10fe9ae8\n      eq\n      tag_2\n      jumpi\n      dup1\n      0x38cc4831\n      eq\n      tag_3\n      jumpi\n      dup1\n      0x430f4801\n      eq\n      tag_4\n      jumpi\n    tag_1:\n      0x00\n      dup1\n      revert\n        /* \"contracts/16_Dex.sol\":4391:4488  function getTokenAddress() public view returns(address){... */\n    tag_2:\n      callvalue\n      dup1\n      iszero\n      tag_10\n      jumpi\n      0x00\n      dup1\n      revert\n    tag_10:\n      pop\n      tag_11\n      tag_12\n      jump\t// in\n    tag_11:\n      mload(0x40)\n      tag_13\n      swap2\n      swap1\n      tag_14\n      jump\t// in\n    tag_13:\n      mload(0x40)\n      dup1\n      swap2\n      sub\n      swap1\n      return\n        /* \"contracts/16_Dex.sol\":4298:4385  function getAddress() public view returns(address){... */\n    tag_3:\n      callvalue\n      dup1\n      iszero\n      tag_15\n      jumpi\n      0x00\n      dup1\n      revert\n    tag_15:\n      pop\n      tag_16\n      tag_17\n      jump\t// in\n    tag_16:\n      mload(0x40)\n      tag_18\n      swap2\n      swap1\n      tag_14\n      jump\t// in\n    tag_18:\n      mload(0x40)\n      dup1\n      swap2\n      sub\n      swap1\n      return\n        /* \"contracts/16_Dex.sol\":4073:4180  function getDexBalance() public view returns(uint256){... */\n    tag_4:\n      callvalue\n      dup1\n      iszero\n      tag_19\n      jumpi\n      0x00\n      dup1\n      revert\n    tag_19:\n      pop\n      tag_20\n      tag_21\n      jump\t// in\n    tag_20:\n      mload(0x40)\n      tag_22\n      swap2\n      swap1\n      tag_23\n      jump\t// in\n    tag_22:\n      mload(0x40)\n      dup1\n      swap2\n      sub\n      swap1\n      return\n        /* \"contracts/16_Dex.sol\":4186:4292  function getOwnerBalance() public view returns(uint256){... */\n    tag_5:\n      callvalue\n      dup1\n      iszero\n      tag_24\n      jumpi\n      0x00\n      dup1\n      revert\n    tag_24:\n      pop\n      tag_25\n      tag_26\n      jump\t// in\n    tag_25:\n      mload(0x40)\n      tag_27\n      swap2\n      swap1\n      tag_23\n      jump\t// in\n    tag_27:\n      mload(0x40)\n      dup1\n      swap2\n      sub\n      swap1\n      return\n        /* \"contracts/16_Dex.sol\":3361:3720  function buy() payable public{... */\n    tag_6:\n      tag_28\n      tag_29\n      jump\t// in\n    tag_28:\n      stop\n        /* \"contracts/16_Dex.sol\":3726:4067  function sell(uint256 amount) payable public{... */\n    tag_7:\n      tag_30\n      0x04\n      dup1\n      calldatasize\n      sub\n      dup2\n      add\n      swap1\n      tag_31\n      swap2\n      swap1\n      tag_32\n      jump\t// in\n    tag_31:\n      tag_33\n      jump\t// in\n    tag_30:\n      stop\n        /* \"contracts/16_Dex.sol\":3277:3296  IERC20 public token */\n    tag_8:\n      callvalue\n      dup1\n      iszero\n      tag_34\n      jumpi\n      0x00\n      dup1\n      revert\n    tag_34:\n      pop\n      tag_35\n      tag_36\n      jump\t// in\n    tag_35:\n      mload(0x40)\n      tag_37\n      swap2\n      swap1\n      tag_38\n      jump\t// in\n    tag_37:\n      mload(0x40)\n      dup1\n      swap2\n      sub\n      swap1\n      return\n        /* \"contracts/16_Dex.sol\":4391:4488  function getTokenAddress() public view returns(address){... */\n    tag_12:\n        /* \"contracts/16_Dex.sol\":4438:4445  address */\n      0x00\n        /* \"contracts/16_Dex.sol\":4463:4468  token */\n      dup1\n      0x00\n      swap1\n      sload\n      swap1\n      0x0100\n      exp\n      swap1\n      div\n      0xffffffffffffffffffffffffffffffffffffffff\n      and\n        /* \"contracts/16_Dex.sol\":4463:4479  token.getAddress */\n      0xffffffffffffffffffffffffffffffffffffffff\n      and\n      0x38cc4831\n        /* \"contracts/16_Dex.sol\":4463:4481  token.getAddress() */\n      mload(0x40)\n      dup2\n      0xffffffff\n      and\n      0xe0\n      shl\n      dup2\n      mstore\n      0x04\n      add\n      0x20\n      mload(0x40)\n      dup1\n      dup4\n      sub\n      dup2\n      dup7\n      dup1\n      extcodesize\n      iszero\n      dup1\n      iszero\n      tag_40\n      jumpi\n      0x00\n      dup1\n      revert\n    tag_40:\n      pop\n      gas\n      staticcall\n      iszero\n      dup1\n      iszero\n      tag_42\n      jumpi\n      returndatasize\n      0x00\n      dup1\n      returndatacopy\n      revert(0x00, returndatasize)\n    tag_42:\n      pop\n      pop\n      pop\n      pop\n      mload(0x40)\n      returndatasize\n      not(0x1f)\n      0x1f\n      dup3\n      add\n      and\n      dup3\n      add\n      dup1\n      0x40\n      mstore\n      pop\n      dup2\n      add\n      swap1\n      tag_43\n      swap2\n      swap1\n      tag_44\n      jump\t// in\n    tag_43:\n        /* \"contracts/16_Dex.sol\":4456:4481  return token.getAddress() */\n      swap1\n      pop\n        /* \"contracts/16_Dex.sol\":4391:4488  function getTokenAddress() public view returns(address){... */\n      swap1\n      jump\t// out\n        /* \"contracts/16_Dex.sol\":4298:4385  function getAddress() public view returns(address){... */\n    tag_17:\n        /* \"contracts/16_Dex.sol\":4340:4347  address */\n      0x00\n        /* \"contracts/16_Dex.sol\":4373:4377  this */\n      address\n        /* \"contracts/16_Dex.sol\":4358:4378  return address(this) */\n      swap1\n      pop\n        /* \"contracts/16_Dex.sol\":4298:4385  function getAddress() public view returns(address){... */\n      swap1\n      jump\t// out\n        /* \"contracts/16_Dex.sol\":4073:4180  function getDexBalance() public view returns(uint256){... */\n    tag_21:\n        /* \"contracts/16_Dex.sol\":4118:4125  uint256 */\n      0x00\n        /* \"contracts/16_Dex.sol\":4143:4148  token */\n      dup1\n      0x00\n      swap1\n      sload\n      swap1\n      0x0100\n      exp\n      swap1\n      div\n      0xffffffffffffffffffffffffffffffffffffffff\n      and\n        /* \"contracts/16_Dex.sol\":4143:4158  token.balanceOf */\n      0xffffffffffffffffffffffffffffffffffffffff\n      and\n      0x70a08231\n        /* \"contracts/16_Dex.sol\":4167:4171  this */\n      address\n        /* \"contracts/16_Dex.sol\":4143:4173  token.balanceOf(address(this)) */\n      mload(0x40)\n      dup3\n      0xffffffff\n      and\n      0xe0\n      shl\n      dup2\n      mstore\n      0x04\n      add\n      tag_47\n      swap2\n      swap1\n      tag_14\n      jump\t// in\n    tag_47:\n      0x20\n      mload(0x40)\n      dup1\n      dup4\n      sub\n      dup2\n      dup7\n      dup1\n      extcodesize\n      iszero\n      dup1\n      iszero\n      tag_48\n      jumpi\n      0x00\n      dup1\n      revert\n    tag_48:\n      pop\n      gas\n      staticcall\n      iszero\n      dup1\n      iszero\n      tag_50\n      jumpi\n      returndatasize\n      0x00\n      dup1\n      returndatacopy\n      revert(0x00, returndatasize)\n    tag_50:\n      pop\n      pop\n      pop\n      pop\n      mload(0x40)\n      returndatasize\n      not(0x1f)\n      0x1f\n      dup3\n      add\n      and\n      dup3\n      add\n      dup1\n      0x40\n      mstore\n      pop\n      dup2\n      add\n      swap1\n      tag_51\n      swap2\n      swap1\n      tag_52\n      jump\t// in\n    tag_51:\n        /* \"contracts/16_Dex.sol\":4136:4173  return token.balanceOf(address(this)) */\n      swap1\n      pop\n        /* \"contracts/16_Dex.sol\":4073:4180  function getDexBalance() public view returns(uint256){... */\n      swap1\n      jump\t// out\n        /* \"contracts/16_Dex.sol\":4186:4292  function getOwnerBalance() public view returns(uint256){... */\n    tag_26:\n        /* \"contracts/16_Dex.sol\":4233:4240  uint256 */\n      0x00\n        /* \"contracts/16_Dex.sol\":4258:4263  token */\n      dup1\n      0x00\n      swap1\n      sload\n      swap1\n      0x0100\n      exp\n      swap1\n      div\n      0xffffffffffffffffffffffffffffffffffffffff\n      and\n        /* \"contracts/16_Dex.sol\":4258:4273  token.balanceOf */\n      0xffffffffffffffffffffffffffffffffffffffff\n      and\n      0x70a08231\n        /* \"contracts/16_Dex.sol\":4274:4284  msg.sender */\n      caller\n        /* \"contracts/16_Dex.sol\":4258:4285  token.balanceOf(msg.sender) */\n      mload(0x40)\n      dup3\n      0xffffffff\n      and\n      0xe0\n      shl\n      dup2\n      mstore\n      0x04\n      add\n      tag_54\n      swap2\n      swap1\n      tag_14\n      jump\t// in\n    tag_54:\n      0x20\n      mload(0x40)\n      dup1\n      dup4\n      sub\n      dup2\n      dup7\n      dup1\n      extcodesize\n      iszero\n      dup1\n      iszero\n      tag_55\n      jumpi\n      0x00\n      dup1\n      revert\n    tag_55:\n      pop\n      gas\n      staticcall\n      iszero\n      dup1\n      iszero\n      tag_57\n      jumpi\n      returndatasize\n      0x00\n      dup1\n      returndatacopy\n      revert(0x00, returndatasize)\n    tag_57:\n      pop\n      pop\n      pop\n      pop\n      mload(0x40)\n      returndatasize\n      not(0x1f)\n      0x1f\n      dup3\n      add\n      and\n      dup3\n      add\n      dup1\n      0x40\n      mstore\n      pop\n      dup2\n      add\n      swap1\n      tag_58\n      swap2\n      swap1\n      tag_52\n      jump\t// in\n    tag_58:\n        /* \"contracts/16_Dex.sol\":4251:4285  return token.balanceOf(msg.sender) */\n      swap1\n      pop\n        /* \"contracts/16_Dex.sol\":4186:4292  function getOwnerBalance() public view returns(uint256){... */\n      swap1\n      jump\t// out\n        /* \"contracts/16_Dex.sol\":3361:3720  function buy() payable public{... */\n    tag_29:\n        /* \"contracts/16_Dex.sol\":3400:3419  uint256 amountToBuy */\n      0x00\n        /* \"contracts/16_Dex.sol\":3420:3429  msg.value */\n      callvalue\n        /* \"contracts/16_Dex.sol\":3400:3429  uint256 amountToBuy=msg.value */\n      swap1\n      pop\n        /* \"contracts/16_Dex.sol\":3439:3457  uint256 dexBalance */\n      0x00\n        /* \"contracts/16_Dex.sol\":3458:3463  token */\n      dup1\n      0x00\n      swap1\n      sload\n      swap1\n      0x0100\n      exp\n      swap1\n      div\n      0xffffffffffffffffffffffffffffffffffffffff\n      and\n        /* \"contracts/16_Dex.sol\":3458:3473  token.balanceOf */\n      0xffffffffffffffffffffffffffffffffffffffff\n      and\n      0x70a08231\n        /* \"contracts/16_Dex.sol\":3482:3486  this */\n      address\n        /* \"contracts/16_Dex.sol\":3458:3488  token.balanceOf(address(this)) */\n      mload(0x40)\n      dup3\n      0xffffffff\n      and\n      0xe0\n      shl\n      dup2\n      mstore\n      0x04\n      add\n      tag_60\n      swap2\n      swap1\n      tag_14\n      jump\t// in\n    tag_60:\n      0x20\n      mload(0x40)\n      dup1\n      dup4\n      sub\n      dup2\n      dup7\n      dup1\n      extcodesize\n      iszero\n      dup1\n      iszero\n      tag_61\n      jumpi\n      0x00\n      dup1\n      revert\n    tag_61:\n      pop\n      gas\n      staticcall\n      iszero\n      dup1\n      iszero\n      tag_63\n      jumpi\n      returndatasize\n      0x00\n      dup1\n      returndatacopy\n      revert(0x00, returndatasize)\n    tag_63:\n      pop\n      pop\n      pop\n      pop\n      mload(0x40)\n      returndatasize\n      not(0x1f)\n      0x1f\n      dup3\n      add\n      and\n      dup3\n      add\n      dup1\n      0x40\n      mstore\n      pop\n      dup2\n      add\n      swap1\n      tag_64\n      swap2\n      swap1\n      tag_52\n      jump\t// in\n    tag_64:\n        /* \"contracts/16_Dex.sol\":3439:3488  uint256 dexBalance=token.balanceOf(address(this)) */\n      swap1\n      pop\n        /* \"contracts/16_Dex.sol\":3518:3519  0 */\n      0x00\n        /* \"contracts/16_Dex.sol\":3506:3517  amountToBuy */\n      dup3\n        /* \"contracts/16_Dex.sol\":3506:3519  amountToBuy>0 */\n      gt\n        /* \"contracts/16_Dex.sol\":3498:3552  require(amountToBuy>0, \"You need to send some ether!\") */\n      tag_65\n      jumpi\n      mload(0x40)\n      0x08c379a000000000000000000000000000000000000000000000000000000000\n      dup2\n      mstore\n      0x04\n      add\n      tag_66\n      swap1\n      tag_67\n      jump\t// in\n    tag_66:\n      mload(0x40)\n      dup1\n      swap2\n      sub\n      swap1\n      revert\n    tag_65:\n        /* \"contracts/16_Dex.sol\":3583:3593  dexBalance */\n      dup1\n        /* \"contracts/16_Dex.sol\":3570:3581  amountToBuy */\n      dup3\n        /* \"contracts/16_Dex.sol\":3570:3593  amountToBuy<=dexBalance */\n      gt\n      iszero\n        /* \"contracts/16_Dex.sol\":3562:3631  require(amountToBuy<=dexBalance, \"Not enough tokens in the reverse!\") */\n      tag_68\n      jumpi\n      mload(0x40)\n      0x08c379a000000000000000000000000000000000000000000000000000000000\n      dup2\n      mstore\n      0x04\n      add\n      tag_69\n      swap1\n      tag_70\n      jump\t// in\n    tag_69:\n      mload(0x40)\n      dup1\n      swap2\n      sub\n      swap1\n      revert\n    tag_68:\n        /* \"contracts/16_Dex.sol\":3641:3646  token */\n      0x00\n      dup1\n      sload\n      swap1\n      0x0100\n      exp\n      swap1\n      div\n      0xffffffffffffffffffffffffffffffffffffffff\n      and\n        /* \"contracts/16_Dex.sol\":3641:3655  token.transfer */\n      0xffffffffffffffffffffffffffffffffffffffff\n      and\n      0xa9059cbb\n        /* \"contracts/16_Dex.sol\":3656:3666  msg.sender */\n      caller\n        /* \"contracts/16_Dex.sol\":3667:3678  amountToBuy */\n      dup5\n        /* \"contracts/16_Dex.sol\":3641:3679  token.transfer(msg.sender,amountToBuy) */\n      mload(0x40)\n      dup4\n      0xffffffff\n      and\n      0xe0\n      shl\n      dup2\n      mstore\n      0x04\n      add\n      tag_71\n      swap3\n      swap2\n      swap1\n      tag_72\n      jump\t// in\n    tag_71:\n      0x20\n      mload(0x40)\n      dup1\n      dup4\n      sub\n      dup2\n      0x00\n      dup8\n      dup1\n      extcodesize\n      iszero\n      dup1\n      iszero\n      tag_73\n      jumpi\n      0x00\n      dup1\n      revert\n    tag_73:\n      pop\n      gas\n      call\n      iszero\n      dup1\n      iszero\n      tag_75\n      jumpi\n      returndatasize\n      0x00\n      dup1\n      returndatacopy\n      revert(0x00, returndatasize)\n    tag_75:\n      pop\n      pop\n      pop\n      pop\n      mload(0x40)\n      returndatasize\n      not(0x1f)\n      0x1f\n      dup3\n      add\n      and\n      dup3\n      add\n      dup1\n      0x40\n      mstore\n      pop\n      dup2\n      add\n      swap1\n      tag_76\n      swap2\n      swap1\n      tag_77\n      jump\t// in\n    tag_76:\n      pop\n        /* \"contracts/16_Dex.sol\":3694:3713  Bought(amountToBuy) */\n      0x4e08ba899977cf7d4c2964bce71c6b9a7ef76ee5166a4c1249a1e08016e33ef1\n        /* \"contracts/16_Dex.sol\":3701:3712  amountToBuy */\n      dup3\n        /* \"contracts/16_Dex.sol\":3694:3713  Bought(amountToBuy) */\n      mload(0x40)\n      tag_78\n      swap2\n      swap1\n      tag_23\n      jump\t// in\n    tag_78:\n      mload(0x40)\n      dup1\n      swap2\n      sub\n      swap1\n      log1\n        /* \"contracts/16_Dex.sol\":3390:3720  {... */\n      pop\n      pop\n        /* \"contracts/16_Dex.sol\":3361:3720  function buy() payable public{... */\n      jump\t// out\n        /* \"contracts/16_Dex.sol\":3726:4067  function sell(uint256 amount) payable public{... */\n    tag_33:\n        /* \"contracts/16_Dex.sol\":3795:3796  0 */\n      0x00\n        /* \"contracts/16_Dex.sol\":3788:3794  amount */\n      dup2\n        /* \"contracts/16_Dex.sol\":3788:3796  amount>0 */\n      gt\n        /* \"contracts/16_Dex.sol\":3780:3835  require(amount>0, \"You need to sell at least 1 token!\") */\n      tag_80\n      jumpi\n      mload(0x40)\n      0x08c379a000000000000000000000000000000000000000000000000000000000\n      dup2\n      mstore\n      0x04\n      add\n      tag_81\n      swap1\n      tag_82\n      jump\t// in\n    tag_81:\n      mload(0x40)\n      dup1\n      swap2\n      sub\n      swap1\n      revert\n    tag_80:\n        /* \"contracts/16_Dex.sol\":3846:3863  uint256 allowance */\n      0x00\n        /* \"contracts/16_Dex.sol\":3865:3870  token */\n      dup1\n      0x00\n      swap1\n      sload\n      swap1\n      0x0100\n      exp\n      swap1\n      div\n      0xffffffffffffffffffffffffffffffffffffffff\n      and\n        /* \"contracts/16_Dex.sol\":3865:3880  token.allowance */\n      0xffffffffffffffffffffffffffffffffffffffff\n      and\n      0xdd62ed3e\n        /* \"contracts/16_Dex.sol\":3881:3891  msg.sender */\n      caller\n        /* \"contracts/16_Dex.sol\":3900:3904  this */\n      address\n        /* \"contracts/16_Dex.sol\":3865:3906  token.allowance(msg.sender,address(this)) */\n      mload(0x40)\n      dup4\n      0xffffffff\n      and\n      0xe0\n      shl\n      dup2\n      mstore\n      0x04\n      add\n      tag_83\n      swap3\n      swap2\n      swap1\n      tag_84\n      jump\t// in\n    tag_83:\n      0x20\n      mload(0x40)\n      dup1\n      dup4\n      sub\n      dup2\n      dup7\n      dup1\n      extcodesize\n      iszero\n      dup1\n      iszero\n      tag_85\n      jumpi\n      0x00\n      dup1\n      revert\n    tag_85:\n      pop\n      gas\n      staticcall\n      iszero\n      dup1\n      iszero\n      tag_87\n      jumpi\n      returndatasize\n      0x00\n      dup1\n      returndatacopy\n      revert(0x00, returndatasize)\n    tag_87:\n      pop\n      pop\n      pop\n      pop\n      mload(0x40)\n      returndatasize\n      not(0x1f)\n      0x1f\n      dup3\n      add\n      and\n      dup3\n      add\n      dup1\n      0x40\n      mstore\n      pop\n      dup2\n      add\n      swap1\n      tag_88\n      swap2\n      swap1\n      tag_52\n      jump\t// in\n    tag_88:\n        /* \"contracts/16_Dex.sol\":3846:3906  uint256 allowance =token.allowance(msg.sender,address(this)) */\n      swap1\n      pop\n        /* \"contracts/16_Dex.sol\":3935:3941  amount */\n      dup2\n        /* \"contracts/16_Dex.sol\":3924:3933  allowance */\n      dup2\n        /* \"contracts/16_Dex.sol\":3924:3941  allowance>=amount */\n      lt\n      iszero\n        /* \"contracts/16_Dex.sol\":3916:3971  require(allowance>=amount,\"Check the token allowance!\") */\n      tag_89\n      jumpi\n      mload(0x40)\n      0x08c379a000000000000000000000000000000000000000000000000000000000\n      dup2\n      mstore\n      0x04\n      add\n      tag_90\n      swap1\n      tag_91\n      jump\t// in\n    tag_90:\n      mload(0x40)\n      dup1\n      swap2\n      sub\n      swap1\n      revert\n    tag_89:\n        /* \"contracts/16_Dex.sol\":3982:3987  token */\n      0x00\n      dup1\n      sload\n      swap1\n      0x0100\n      exp\n      swap1\n      div\n      0xffffffffffffffffffffffffffffffffffffffff\n      and\n        /* \"contracts/16_Dex.sol\":3982:4000  token.transferFrom */\n      0xffffffffffffffffffffffffffffffffffffffff\n      and\n      0x23b872dd\n        /* \"contracts/16_Dex.sol\":4001:4011  msg.sender */\n      caller\n        /* \"contracts/16_Dex.sol\":4020:4024  this */\n      address\n        /* \"contracts/16_Dex.sol\":4026:4032  amount */\n      dup6\n        /* \"contracts/16_Dex.sol\":3982:4033  token.transferFrom(msg.sender,address(this),amount) */\n      mload(0x40)\n      dup5\n      0xffffffff\n      and\n      0xe0\n      shl\n      dup2\n      mstore\n      0x04\n      add\n      tag_92\n      swap4\n      swap3\n      swap2\n      swap1\n      tag_93\n      jump\t// in\n    tag_92:\n      0x20\n      mload(0x40)\n      dup1\n      dup4\n      sub\n      dup2\n      0x00\n      dup8\n      dup1\n      extcodesize\n      iszero\n      dup1\n      iszero\n      tag_94\n      jumpi\n      0x00\n      dup1\n      revert\n    tag_94:\n      pop\n      gas\n      call\n      iszero\n      dup1\n      iszero\n      tag_96\n      jumpi\n      returndatasize\n      0x00\n      dup1\n      returndatacopy\n      revert(0x00, returndatasize)\n    tag_96:\n      pop\n      pop\n      pop\n      pop\n      mload(0x40)\n      returndatasize\n      not(0x1f)\n      0x1f\n      dup3\n      add\n      and\n      dup3\n      add\n      dup1\n      0x40\n      mstore\n      pop\n      dup2\n      add\n      swap1\n      tag_97\n      swap2\n      swap1\n      tag_77\n      jump\t// in\n    tag_97:\n      pop\n        /* \"contracts/16_Dex.sol\":4048:4060  Sold(amount) */\n      0x92f64ca637d023f354075a4be751b169c1a8a9ccb6d33cdd0cb3520543995727\n        /* \"contracts/16_Dex.sol\":4053:4059  amount */\n      dup3\n        /* \"contracts/16_Dex.sol\":4048:4060  Sold(amount) */\n      mload(0x40)\n      tag_98\n      swap2\n      swap1\n      tag_23\n      jump\t// in\n    tag_98:\n      mload(0x40)\n      dup1\n      swap2\n      sub\n      swap1\n      log1\n        /* \"contracts/16_Dex.sol\":3770:4067  {... */\n      pop\n        /* \"contracts/16_Dex.sol\":3726:4067  function sell(uint256 amount) payable public{... */\n      pop\n      jump\t// out\n        /* \"contracts/16_Dex.sol\":3277:3296  IERC20 public token */\n    tag_36:\n      0x00\n      dup1\n      sload\n      swap1\n      0x0100\n      exp\n      swap1\n      div\n      0xffffffffffffffffffffffffffffffffffffffff\n      and\n      dup2\n      jump\t// out\n        /* \"#utility.yul\":7:150   */\n    tag_100:\n        /* \"#utility.yul\":64:69   */\n      0x00\n        /* \"#utility.yul\":95:101   */\n      dup2\n        /* \"#utility.yul\":89:102   */\n      mload\n        /* \"#utility.yul\":80:102   */\n      swap1\n      pop\n        /* \"#utility.yul\":111:144   */\n      tag_102\n        /* \"#utility.yul\":138:143   */\n      dup2\n        /* \"#utility.yul\":111:144   */\n      tag_103\n      jump\t// in\n    tag_102:\n        /* \"#utility.yul\":7:150   */\n      swap3\n      swap2\n      pop\n      pop\n      jump\t// out\n        /* \"#utility.yul\":156:293   */\n    tag_104:\n        /* \"#utility.yul\":210:215   */\n      0x00\n        /* \"#utility.yul\":241:247   */\n      dup2\n        /* \"#utility.yul\":235:248   */\n      mload\n        /* \"#utility.yul\":226:248   */\n      swap1\n      pop\n        /* \"#utility.yul\":257:287   */\n      tag_106\n        /* \"#utility.yul\":281:286   */\n      dup2\n        /* \"#utility.yul\":257:287   */\n      tag_107\n      jump\t// in\n    tag_106:\n        /* \"#utility.yul\":156:293   */\n      swap3\n      swap2\n      pop\n      pop\n      jump\t// out\n        /* \"#utility.yul\":299:438   */\n    tag_108:\n        /* \"#utility.yul\":345:350   */\n      0x00\n        /* \"#utility.yul\":383:389   */\n      dup2\n        /* \"#utility.yul\":370:390   */\n      calldataload\n        /* \"#utility.yul\":361:390   */\n      swap1\n      pop\n        /* \"#utility.yul\":399:432   */\n      tag_110\n        /* \"#utility.yul\":426:431   */\n      dup2\n        /* \"#utility.yul\":399:432   */\n      tag_111\n      jump\t// in\n    tag_110:\n        /* \"#utility.yul\":299:438   */\n      swap3\n      swap2\n      pop\n      pop\n      jump\t// out\n        /* \"#utility.yul\":444:587   */\n    tag_112:\n        /* \"#utility.yul\":501:506   */\n      0x00\n        /* \"#utility.yul\":532:538   */\n      dup2\n        /* \"#utility.yul\":526:539   */\n      mload\n        /* \"#utility.yul\":517:539   */\n      swap1\n      pop\n        /* \"#utility.yul\":548:581   */\n      tag_114\n        /* \"#utility.yul\":575:580   */\n      dup2\n        /* \"#utility.yul\":548:581   */\n      tag_111\n      jump\t// in\n    tag_114:\n        /* \"#utility.yul\":444:587   */\n      swap3\n      swap2\n      pop\n      pop\n      jump\t// out\n        /* \"#utility.yul\":593:944   */\n    tag_44:\n        /* \"#utility.yul\":663:669   */\n      0x00\n        /* \"#utility.yul\":712:714   */\n      0x20\n        /* \"#utility.yul\":700:709   */\n      dup3\n        /* \"#utility.yul\":691:698   */\n      dup5\n        /* \"#utility.yul\":687:710   */\n      sub\n        /* \"#utility.yul\":683:715   */\n      slt\n        /* \"#utility.yul\":680:799   */\n      iszero\n      tag_116\n      jumpi\n        /* \"#utility.yul\":718:797   */\n      tag_117\n      tag_118\n      jump\t// in\n    tag_117:\n        /* \"#utility.yul\":680:799   */\n    tag_116:\n        /* \"#utility.yul\":838:839   */\n      0x00\n        /* \"#utility.yul\":863:927   */\n      tag_119\n        /* \"#utility.yul\":919:926   */\n      dup5\n        /* \"#utility.yul\":910:916   */\n      dup3\n        /* \"#utility.yul\":899:908   */\n      dup6\n        /* \"#utility.yul\":895:917   */\n      add\n        /* \"#utility.yul\":863:927   */\n      tag_100\n      jump\t// in\n    tag_119:\n        /* \"#utility.yul\":853:927   */\n      swap2\n      pop\n        /* \"#utility.yul\":809:937   */\n      pop\n        /* \"#utility.yul\":593:944   */\n      swap3\n      swap2\n      pop\n      pop\n      jump\t// out\n        /* \"#utility.yul\":950:1295   */\n    tag_77:\n        /* \"#utility.yul\":1017:1023   */\n      0x00\n        /* \"#utility.yul\":1066:1068   */\n      0x20\n        /* \"#utility.yul\":1054:1063   */\n      dup3\n        /* \"#utility.yul\":1045:1052   */\n      dup5\n        /* \"#utility.yul\":1041:1064   */\n      sub\n        /* \"#utility.yul\":1037:1069   */\n      slt\n        /* \"#utility.yul\":1034:1153   */\n      iszero\n      tag_121\n      jumpi\n        /* \"#utility.yul\":1072:1151   */\n      tag_122\n      tag_118\n      jump\t// in\n    tag_122:\n        /* \"#utility.yul\":1034:1153   */\n    tag_121:\n        /* \"#utility.yul\":1192:1193   */\n      0x00\n        /* \"#utility.yul\":1217:1278   */\n      tag_123\n        /* \"#utility.yul\":1270:1277   */\n      dup5\n        /* \"#utility.yul\":1261:1267   */\n      dup3\n        /* \"#utility.yul\":1250:1259   */\n      dup6\n        /* \"#utility.yul\":1246:1268   */\n      add\n        /* \"#utility.yul\":1217:1278   */\n      tag_104\n      jump\t// in\n    tag_123:\n        /* \"#utility.yul\":1207:1278   */\n      swap2\n      pop\n        /* \"#utility.yul\":1163:1288   */\n      pop\n        /* \"#utility.yul\":950:1295   */\n      swap3\n      swap2\n      pop\n      pop\n      jump\t// out\n        /* \"#utility.yul\":1301:1630   */\n    tag_32:\n        /* \"#utility.yul\":1360:1366   */\n      0x00\n        /* \"#utility.yul\":1409:1411   */\n      0x20\n        /* \"#utility.yul\":1397:1406   */\n      dup3\n        /* \"#utility.yul\":1388:1395   */\n      dup5\n        /* \"#utility.yul\":1384:1407   */\n      sub\n        /* \"#utility.yul\":1380:1412   */\n      slt\n        /* \"#utility.yul\":1377:1496   */\n      iszero\n      tag_125\n      jumpi\n        /* \"#utility.yul\":1415:1494   */\n      tag_126\n      tag_118\n      jump\t// in\n    tag_126:\n        /* \"#utility.yul\":1377:1496   */\n    tag_125:\n        /* \"#utility.yul\":1535:1536   */\n      0x00\n        /* \"#utility.yul\":1560:1613   */\n      tag_127\n        /* \"#utility.yul\":1605:1612   */\n      dup5\n        /* \"#utility.yul\":1596:1602   */\n      dup3\n        /* \"#utility.yul\":1585:1594   */\n      dup6\n        /* \"#utility.yul\":1581:1603   */\n      add\n        /* \"#utility.yul\":1560:1613   */\n      tag_108\n      jump\t// in\n    tag_127:\n        /* \"#utility.yul\":1550:1613   */\n      swap2\n      pop\n        /* \"#utility.yul\":1506:1623   */\n      pop\n        /* \"#utility.yul\":1301:1630   */\n      swap3\n      swap2\n      pop\n      pop\n      jump\t// out\n        /* \"#utility.yul\":1636:1987   */\n    tag_52:\n        /* \"#utility.yul\":1706:1712   */\n      0x00\n        /* \"#utility.yul\":1755:1757   */\n      0x20\n        /* \"#utility.yul\":1743:1752   */\n      dup3\n        /* \"#utility.yul\":1734:1741   */\n      dup5\n        /* \"#utility.yul\":1730:1753   */\n      sub\n        /* \"#utility.yul\":1726:1758   */\n      slt\n        /* \"#utility.yul\":1723:1842   */\n      iszero\n      tag_129\n      jumpi\n        /* \"#utility.yul\":1761:1840   */\n      tag_130\n      tag_118\n      jump\t// in\n    tag_130:\n        /* \"#utility.yul\":1723:1842   */\n    tag_129:\n        /* \"#utility.yul\":1881:1882   */\n      0x00\n        /* \"#utility.yul\":1906:1970   */\n      tag_131\n        /* \"#utility.yul\":1962:1969   */\n      dup5\n        /* \"#utility.yul\":1953:1959   */\n      dup3\n        /* \"#utility.yul\":1942:1951   */\n      dup6\n        /* \"#utility.yul\":1938:1960   */\n      add\n        /* \"#utility.yul\":1906:1970   */\n      tag_112\n      jump\t// in\n    tag_131:\n        /* \"#utility.yul\":1896:1970   */\n      swap2\n      pop\n        /* \"#utility.yul\":1852:1980   */\n      pop\n        /* \"#utility.yul\":1636:1987   */\n      swap3\n      swap2\n      pop\n      pop\n      jump\t// out\n        /* \"#utility.yul\":1993:2111   */\n    tag_132:\n        /* \"#utility.yul\":2080:2104   */\n      tag_134\n        /* \"#utility.yul\":2098:2103   */\n      dup2\n        /* \"#utility.yul\":2080:2104   */\n      tag_135\n      jump\t// in\n    tag_134:\n        /* \"#utility.yul\":2075:2078   */\n      dup3\n        /* \"#utility.yul\":2068:2105   */\n      mstore\n        /* \"#utility.yul\":1993:2111   */\n      pop\n      pop\n      jump\t// out\n        /* \"#utility.yul\":2117:2276   */\n    tag_136:\n        /* \"#utility.yul\":2218:2269   */\n      tag_138\n        /* \"#utility.yul\":2263:2268   */\n      dup2\n        /* \"#utility.yul\":2218:2269   */\n      tag_139\n      jump\t// in\n    tag_138:\n        /* \"#utility.yul\":2213:2216   */\n      dup3\n        /* \"#utility.yul\":2206:2270   */\n      mstore\n        /* \"#utility.yul\":2117:2276   */\n      pop\n      pop\n      jump\t// out\n        /* \"#utility.yul\":2282:2648   */\n    tag_140:\n        /* \"#utility.yul\":2424:2427   */\n      0x00\n        /* \"#utility.yul\":2445:2512   */\n      tag_142\n        /* \"#utility.yul\":2509:2511   */\n      0x22\n        /* \"#utility.yul\":2504:2507   */\n      dup4\n        /* \"#utility.yul\":2445:2512   */\n      tag_143\n      jump\t// in\n    tag_142:\n        /* \"#utility.yul\":2438:2512   */\n      swap2\n      pop\n        /* \"#utility.yul\":2521:2614   */\n      tag_144\n        /* \"#utility.yul\":2610:2613   */\n      dup3\n        /* \"#utility.yul\":2521:2614   */\n      tag_145\n      jump\t// in\n    tag_144:\n        /* \"#utility.yul\":2639:2641   */\n      0x40\n        /* \"#utility.yul\":2634:2637   */\n      dup3\n        /* \"#utility.yul\":2630:2642   */\n      add\n        /* \"#utility.yul\":2623:2642   */\n      swap1\n      pop\n        /* \"#utility.yul\":2282:2648   */\n      swap2\n      swap1\n      pop\n      jump\t// out\n        /* \"#utility.yul\":2654:3020   */\n    tag_146:\n        /* \"#utility.yul\":2796:2799   */\n      0x00\n        /* \"#utility.yul\":2817:2884   */\n      tag_148\n        /* \"#utility.yul\":2881:2883   */\n      0x21\n        /* \"#utility.yul\":2876:2879   */\n      dup4\n        /* \"#utility.yul\":2817:2884   */\n      tag_143\n      jump\t// in\n    tag_148:\n        /* \"#utility.yul\":2810:2884   */\n      swap2\n      pop\n        /* \"#utility.yul\":2893:2986   */\n      tag_149\n        /* \"#utility.yul\":2982:2985   */\n      dup3\n        /* \"#utility.yul\":2893:2986   */\n      tag_150\n      jump\t// in\n    tag_149:\n        /* \"#utility.yul\":3011:3013   */\n      0x40\n        /* \"#utility.yul\":3006:3009   */\n      dup3\n        /* \"#utility.yul\":3002:3014   */\n      add\n        /* \"#utility.yul\":2995:3014   */\n      swap1\n      pop\n        /* \"#utility.yul\":2654:3020   */\n      swap2\n      swap1\n      pop\n      jump\t// out\n        /* \"#utility.yul\":3026:3392   */\n    tag_151:\n        /* \"#utility.yul\":3168:3171   */\n      0x00\n        /* \"#utility.yul\":3189:3256   */\n      tag_153\n        /* \"#utility.yul\":3253:3255   */\n      0x1c\n        /* \"#utility.yul\":3248:3251   */\n      dup4\n        /* \"#utility.yul\":3189:3256   */\n      tag_143\n      jump\t// in\n    tag_153:\n        /* \"#utility.yul\":3182:3256   */\n      swap2\n      pop\n        /* \"#utility.yul\":3265:3358   */\n      tag_154\n        /* \"#utility.yul\":3354:3357   */\n      dup3\n        /* \"#utility.yul\":3265:3358   */\n      tag_155\n      jump\t// in\n    tag_154:\n        /* \"#utility.yul\":3383:3385   */\n      0x20\n        /* \"#utility.yul\":3378:3381   */\n      dup3\n        /* \"#utility.yul\":3374:3386   */\n      add\n        /* \"#utility.yul\":3367:3386   */\n      swap1\n      pop\n        /* \"#utility.yul\":3026:3392   */\n      swap2\n      swap1\n      pop\n      jump\t// out\n        /* \"#utility.yul\":3398:3764   */\n    tag_156:\n        /* \"#utility.yul\":3540:3543   */\n      0x00\n        /* \"#utility.yul\":3561:3628   */\n      tag_158\n        /* \"#utility.yul\":3625:3627   */\n      0x1a\n        /* \"#utility.yul\":3620:3623   */\n      dup4\n        /* \"#utility.yul\":3561:3628   */\n      tag_143\n      jump\t// in\n    tag_158:\n        /* \"#utility.yul\":3554:3628   */\n      swap2\n      pop\n        /* \"#utility.yul\":3637:3730   */\n      tag_159\n        /* \"#utility.yul\":3726:3729   */\n      dup3\n        /* \"#utility.yul\":3637:3730   */\n      tag_160\n      jump\t// in\n    tag_159:\n        /* \"#utility.yul\":3755:3757   */\n      0x20\n        /* \"#utility.yul\":3750:3753   */\n      dup3\n        /* \"#utility.yul\":3746:3758   */\n      add\n        /* \"#utility.yul\":3739:3758   */\n      swap1\n      pop\n        /* \"#utility.yul\":3398:3764   */\n      swap2\n      swap1\n      pop\n      jump\t// out\n        /* \"#utility.yul\":3770:3888   */\n    tag_161:\n        /* \"#utility.yul\":3857:3881   */\n      tag_163\n        /* \"#utility.yul\":3875:3880   */\n      dup2\n        /* \"#utility.yul\":3857:3881   */\n      tag_164\n      jump\t// in\n    tag_163:\n        /* \"#utility.yul\":3852:3855   */\n      dup3\n        /* \"#utility.yul\":3845:3882   */\n      mstore\n        /* \"#utility.yul\":3770:3888   */\n      pop\n      pop\n      jump\t// out\n        /* \"#utility.yul\":3894:4116   */\n    tag_14:\n        /* \"#utility.yul\":3987:3991   */\n      0x00\n        /* \"#utility.yul\":4025:4027   */\n      0x20\n        /* \"#utility.yul\":4014:4023   */\n      dup3\n        /* \"#utility.yul\":4010:4028   */\n      add\n        /* \"#utility.yul\":4002:4028   */\n      swap1\n      pop\n        /* \"#utility.yul\":4038:4109   */\n      tag_166\n        /* \"#utility.yul\":4106:4107   */\n      0x00\n        /* \"#utility.yul\":4095:4104   */\n      dup4\n        /* \"#utility.yul\":4091:4108   */\n      add\n        /* \"#utility.yul\":4082:4088   */\n      dup5\n        /* \"#utility.yul\":4038:4109   */\n      tag_132\n      jump\t// in\n    tag_166:\n        /* \"#utility.yul\":3894:4116   */\n      swap3\n      swap2\n      pop\n      pop\n      jump\t// out\n        /* \"#utility.yul\":4122:4454   */\n    tag_84:\n        /* \"#utility.yul\":4243:4247   */\n      0x00\n        /* \"#utility.yul\":4281:4283   */\n      0x40\n        /* \"#utility.yul\":4270:4279   */\n      dup3\n        /* \"#utility.yul\":4266:4284   */\n      add\n        /* \"#utility.yul\":4258:4284   */\n      swap1\n      pop\n        /* \"#utility.yul\":4294:4365   */\n      tag_168\n        /* \"#utility.yul\":4362:4363   */\n      0x00\n        /* \"#utility.yul\":4351:4360   */\n      dup4\n        /* \"#utility.yul\":4347:4364   */\n      add\n        /* \"#utility.yul\":4338:4344   */\n      dup6\n        /* \"#utility.yul\":4294:4365   */\n      tag_132\n      jump\t// in\n    tag_168:\n        /* \"#utility.yul\":4375:4447   */\n      tag_169\n        /* \"#utility.yul\":4443:4445   */\n      0x20\n        /* \"#utility.yul\":4432:4441   */\n      dup4\n        /* \"#utility.yul\":4428:4446   */\n      add\n        /* \"#utility.yul\":4419:4425   */\n      dup5\n        /* \"#utility.yul\":4375:4447   */\n      tag_132\n      jump\t// in\n    tag_169:\n        /* \"#utility.yul\":4122:4454   */\n      swap4\n      swap3\n      pop\n      pop\n      pop\n      jump\t// out\n        /* \"#utility.yul\":4460:4902   */\n    tag_93:\n        /* \"#utility.yul\":4609:4613   */\n      0x00\n        /* \"#utility.yul\":4647:4649   */\n      0x60\n        /* \"#utility.yul\":4636:4645   */\n      dup3\n        /* \"#utility.yul\":4632:4650   */\n      add\n        /* \"#utility.yul\":4624:4650   */\n      swap1\n      pop\n        /* \"#utility.yul\":4660:4731   */\n      tag_171\n        /* \"#utility.yul\":4728:4729   */\n      0x00\n        /* \"#utility.yul\":4717:4726   */\n      dup4\n        /* \"#utility.yul\":4713:4730   */\n      add\n        /* \"#utility.yul\":4704:4710   */\n      dup7\n        /* \"#utility.yul\":4660:4731   */\n      tag_132\n      jump\t// in\n    tag_171:\n        /* \"#utility.yul\":4741:4813   */\n      tag_172\n        /* \"#utility.yul\":4809:4811   */\n      0x20\n        /* \"#utility.yul\":4798:4807   */\n      dup4\n        /* \"#utility.yul\":4794:4812   */\n      add\n        /* \"#utility.yul\":4785:4791   */\n      dup6\n        /* \"#utility.yul\":4741:4813   */\n      tag_132\n      jump\t// in\n    tag_172:\n        /* \"#utility.yul\":4823:4895   */\n      tag_173\n        /* \"#utility.yul\":4891:4893   */\n      0x40\n        /* \"#utility.yul\":4880:4889   */\n      dup4\n        /* \"#utility.yul\":4876:4894   */\n      add\n        /* \"#utility.yul\":4867:4873   */\n      dup5\n        /* \"#utility.yul\":4823:4895   */\n      tag_161\n      jump\t// in\n    tag_173:\n        /* \"#utility.yul\":4460:4902   */\n      swap5\n      swap4\n      pop\n      pop\n      pop\n      pop\n      jump\t// out\n        /* \"#utility.yul\":4908:5240   */\n    tag_72:\n        /* \"#utility.yul\":5029:5033   */\n      0x00\n        /* \"#utility.yul\":5067:5069   */\n      0x40\n        /* \"#utility.yul\":5056:5065   */\n      dup3\n        /* \"#utility.yul\":5052:5070   */\n      add\n        /* \"#utility.yul\":5044:5070   */\n      swap1\n      pop\n        /* \"#utility.yul\":5080:5151   */\n      tag_175\n        /* \"#utility.yul\":5148:5149   */\n      0x00\n        /* \"#utility.yul\":5137:5146   */\n      dup4\n        /* \"#utility.yul\":5133:5150   */\n      add\n        /* \"#utility.yul\":5124:5130   */\n      dup6\n        /* \"#utility.yul\":5080:5151   */\n      tag_132\n      jump\t// in\n    tag_175:\n        /* \"#utility.yul\":5161:5233   */\n      tag_176\n        /* \"#utility.yul\":5229:5231   */\n      0x20\n        /* \"#utility.yul\":5218:5227   */\n      dup4\n        /* \"#utility.yul\":5214:5232   */\n      add\n        /* \"#utility.yul\":5205:5211   */\n      dup5\n        /* \"#utility.yul\":5161:5233   */\n      tag_161\n      jump\t// in\n    tag_176:\n        /* \"#utility.yul\":4908:5240   */\n      swap4\n      swap3\n      pop\n      pop\n      pop\n      jump\t// out\n        /* \"#utility.yul\":5246:5496   */\n    tag_38:\n        /* \"#utility.yul\":5353:5357   */\n      0x00\n        /* \"#utility.yul\":5391:5393   */\n      0x20\n        /* \"#utility.yul\":5380:5389   */\n      dup3\n        /* \"#utility.yul\":5376:5394   */\n      add\n        /* \"#utility.yul\":5368:5394   */\n      swap1\n      pop\n        /* \"#utility.yul\":5404:5489   */\n      tag_178\n        /* \"#utility.yul\":5486:5487   */\n      0x00\n        /* \"#utility.yul\":5475:5484   */\n      dup4\n        /* \"#utility.yul\":5471:5488   */\n      add\n        /* \"#utility.yul\":5462:5468   */\n      dup5\n        /* \"#utility.yul\":5404:5489   */\n      tag_136\n      jump\t// in\n    tag_178:\n        /* \"#utility.yul\":5246:5496   */\n      swap3\n      swap2\n      pop\n      pop\n      jump\t// out\n        /* \"#utility.yul\":5502:5921   */\n    tag_82:\n        /* \"#utility.yul\":5668:5672   */\n      0x00\n        /* \"#utility.yul\":5706:5708   */\n      0x20\n        /* \"#utility.yul\":5695:5704   */\n      dup3\n        /* \"#utility.yul\":5691:5709   */\n      add\n        /* \"#utility.yul\":5683:5709   */\n      swap1\n      pop\n        /* \"#utility.yul\":5755:5764   */\n      dup2\n        /* \"#utility.yul\":5749:5753   */\n      dup2\n        /* \"#utility.yul\":5745:5765   */\n      sub\n        /* \"#utility.yul\":5741:5742   */\n      0x00\n        /* \"#utility.yul\":5730:5739   */\n      dup4\n        /* \"#utility.yul\":5726:5743   */\n      add\n        /* \"#utility.yul\":5719:5766   */\n      mstore\n        /* \"#utility.yul\":5783:5914   */\n      tag_180\n        /* \"#utility.yul\":5909:5913   */\n      dup2\n        /* \"#utility.yul\":5783:5914   */\n      tag_140\n      jump\t// in\n    tag_180:\n        /* \"#utility.yul\":5775:5914   */\n      swap1\n      pop\n        /* \"#utility.yul\":5502:5921   */\n      swap2\n      swap1\n      pop\n      jump\t// out\n        /* \"#utility.yul\":5927:6346   */\n    tag_70:\n        /* \"#utility.yul\":6093:6097   */\n      0x00\n        /* \"#utility.yul\":6131:6133   */\n      0x20\n        /* \"#utility.yul\":6120:6129   */\n      dup3\n        /* \"#utility.yul\":6116:6134   */\n      add\n        /* \"#utility.yul\":6108:6134   */\n      swap1\n      pop\n        /* \"#utility.yul\":6180:6189   */\n      dup2\n        /* \"#utility.yul\":6174:6178   */\n      dup2\n        /* \"#utility.yul\":6170:6190   */\n      sub\n        /* \"#utility.yul\":6166:6167   */\n      0x00\n        /* \"#utility.yul\":6155:6164   */\n      dup4\n        /* \"#utility.yul\":6151:6168   */\n      add\n        /* \"#utility.yul\":6144:6191   */\n      mstore\n        /* \"#utility.yul\":6208:6339   */\n      tag_182\n        /* \"#utility.yul\":6334:6338   */\n      dup2\n        /* \"#utility.yul\":6208:6339   */\n      tag_146\n      jump\t// in\n    tag_182:\n        /* \"#utility.yul\":6200:6339   */\n      swap1\n      pop\n        /* \"#utility.yul\":5927:6346   */\n      swap2\n      swap1\n      pop\n      jump\t// out\n        /* \"#utility.yul\":6352:6771   */\n    tag_67:\n        /* \"#utility.yul\":6518:6522   */\n      0x00\n        /* \"#utility.yul\":6556:6558   */\n      0x20\n        /* \"#utility.yul\":6545:6554   */\n      dup3\n        /* \"#utility.yul\":6541:6559   */\n      add\n        /* \"#utility.yul\":6533:6559   */\n      swap1\n      pop\n        /* \"#utility.yul\":6605:6614   */\n      dup2\n        /* \"#utility.yul\":6599:6603   */\n      dup2\n        /* \"#utility.yul\":6595:6615   */\n      sub\n        /* \"#utility.yul\":6591:6592   */\n      0x00\n        /* \"#utility.yul\":6580:6589   */\n      dup4\n        /* \"#utility.yul\":6576:6593   */\n      add\n        /* \"#utility.yul\":6569:6616   */\n      mstore\n        /* \"#utility.yul\":6633:6764   */\n      tag_184\n        /* \"#utility.yul\":6759:6763   */\n      dup2\n        /* \"#utility.yul\":6633:6764   */\n      tag_151\n      jump\t// in\n    tag_184:\n        /* \"#utility.yul\":6625:6764   */\n      swap1\n      pop\n        /* \"#utility.yul\":6352:6771   */\n      swap2\n      swap1\n      pop\n      jump\t// out\n        /* \"#utility.yul\":6777:7196   */\n    tag_91:\n        /* \"#utility.yul\":6943:6947   */\n      0x00\n        /* \"#utility.yul\":6981:6983   */\n      0x20\n        /* \"#utility.yul\":6970:6979   */\n      dup3\n        /* \"#utility.yul\":6966:6984   */\n      add\n        /* \"#utility.yul\":6958:6984   */\n      swap1\n      pop\n        /* \"#utility.yul\":7030:7039   */\n      dup2\n        /* \"#utility.yul\":7024:7028   */\n      dup2\n        /* \"#utility.yul\":7020:7040   */\n      sub\n        /* \"#utility.yul\":7016:7017   */\n      0x00\n        /* \"#utility.yul\":7005:7014   */\n      dup4\n        /* \"#utility.yul\":7001:7018   */\n      add\n        /* \"#utility.yul\":6994:7041   */\n      mstore\n        /* \"#utility.yul\":7058:7189   */\n      tag_186\n        /* \"#utility.yul\":7184:7188   */\n      dup2\n        /* \"#utility.yul\":7058:7189   */\n      tag_156\n      jump\t// in\n    tag_186:\n        /* \"#utility.yul\":7050:7189   */\n      swap1\n      pop\n        /* \"#utility.yul\":6777:7196   */\n      swap2\n      swap1\n      pop\n      jump\t// out\n        /* \"#utility.yul\":7202:7424   */\n    tag_23:\n        /* \"#utility.yul\":7295:7299   */\n      0x00\n        /* \"#utility.yul\":7333:7335   */\n      0x20\n        /* \"#utility.yul\":7322:7331   */\n      dup3\n        /* \"#utility.yul\":7318:7336   */\n      add\n        /* \"#utility.yul\":7310:7336   */\n      swap1\n      pop\n        /* \"#utility.yul\":7346:7417   */\n      tag_188\n        /* \"#utility.yul\":7414:7415   */\n      0x00\n        /* \"#utility.yul\":7403:7412   */\n      dup4\n        /* \"#utility.yul\":7399:7416   */\n      add\n        /* \"#utility.yul\":7390:7396   */\n      dup5\n        /* \"#utility.yul\":7346:7417   */\n      tag_161\n      jump\t// in\n    tag_188:\n        /* \"#utility.yul\":7202:7424   */\n      swap3\n      swap2\n      pop\n      pop\n      jump\t// out\n        /* \"#utility.yul\":7511:7680   */\n    tag_143:\n        /* \"#utility.yul\":7595:7606   */\n      0x00\n        /* \"#utility.yul\":7629:7635   */\n      dup3\n        /* \"#utility.yul\":7624:7627   */\n      dup3\n        /* \"#utility.yul\":7617:7636   */\n      mstore\n        /* \"#utility.yul\":7669:7673   */\n      0x20\n        /* \"#utility.yul\":7664:7667   */\n      dup3\n        /* \"#utility.yul\":7660:7674   */\n      add\n        /* \"#utility.yul\":7645:7674   */\n      swap1\n      pop\n        /* \"#utility.yul\":7511:7680   */\n      swap3\n      swap2\n      pop\n      pop\n      jump\t// out\n        /* \"#utility.yul\":7686:7782   */\n    tag_135:\n        /* \"#utility.yul\":7723:7730   */\n      0x00\n        /* \"#utility.yul\":7752:7776   */\n      tag_193\n        /* \"#utility.yul\":7770:7775   */\n      dup3\n        /* \"#utility.yul\":7752:7776   */\n      tag_194\n      jump\t// in\n    tag_193:\n        /* \"#utility.yul\":7741:7776   */\n      swap1\n      pop\n        /* \"#utility.yul\":7686:7782   */\n      swap2\n      swap1\n      pop\n      jump\t// out\n        /* \"#utility.yul\":7788:7878   */\n    tag_195:\n        /* \"#utility.yul\":7822:7829   */\n      0x00\n        /* \"#utility.yul\":7865:7870   */\n      dup2\n        /* \"#utility.yul\":7858:7871   */\n      iszero\n        /* \"#utility.yul\":7851:7872   */\n      iszero\n        /* \"#utility.yul\":7840:7872   */\n      swap1\n      pop\n        /* \"#utility.yul\":7788:7878   */\n      swap2\n      swap1\n      pop\n      jump\t// out\n        /* \"#utility.yul\":7884:8010   */\n    tag_194:\n        /* \"#utility.yul\":7921:7928   */\n      0x00\n        /* \"#utility.yul\":7961:8003   */\n      0xffffffffffffffffffffffffffffffffffffffff\n        /* \"#utility.yul\":7954:7959   */\n      dup3\n        /* \"#utility.yul\":7950:8004   */\n      and\n        /* \"#utility.yul\":7939:8004   */\n      swap1\n      pop\n        /* \"#utility.yul\":7884:8010   */\n      swap2\n      swap1\n      pop\n      jump\t// out\n        /* \"#utility.yul\":8016:8093   */\n    tag_164:\n        /* \"#utility.yul\":8053:8060   */\n      0x00\n        /* \"#utility.yul\":8082:8087   */\n      dup2\n        /* \"#utility.yul\":8071:8087   */\n      swap1\n      pop\n        /* \"#utility.yul\":8016:8093   */\n      swap2\n      swap1\n      pop\n      jump\t// out\n        /* \"#utility.yul\":8099:8239   */\n    tag_139:\n        /* \"#utility.yul\":8163:8172   */\n      0x00\n        /* \"#utility.yul\":8196:8233   */\n      tag_200\n        /* \"#utility.yul\":8227:8232   */\n      dup3\n        /* \"#utility.yul\":8196:8233   */\n      tag_201\n      jump\t// in\n    tag_200:\n        /* \"#utility.yul\":8183:8233   */\n      swap1\n      pop\n        /* \"#utility.yul\":8099:8239   */\n      swap2\n      swap1\n      pop\n      jump\t// out\n        /* \"#utility.yul\":8245:8371   */\n    tag_201:\n        /* \"#utility.yul\":8295:8304   */\n      0x00\n        /* \"#utility.yul\":8328:8365   */\n      tag_203\n        /* \"#utility.yul\":8359:8364   */\n      dup3\n        /* \"#utility.yul\":8328:8365   */\n      tag_204\n      jump\t// in\n    tag_203:\n        /* \"#utility.yul\":8315:8365   */\n      swap1\n      pop\n        /* \"#utility.yul\":8245:8371   */\n      swap2\n      swap1\n      pop\n      jump\t// out\n        /* \"#utility.yul\":8377:8490   */\n    tag_204:\n        /* \"#utility.yul\":8427:8436   */\n      0x00\n        /* \"#utility.yul\":8460:8484   */\n      tag_206\n        /* \"#utility.yul\":8478:8483   */\n      dup3\n        /* \"#utility.yul\":8460:8484   */\n      tag_194\n      jump\t// in\n    tag_206:\n        /* \"#utility.yul\":8447:8484   */\n      swap1\n      pop\n        /* \"#utility.yul\":8377:8490   */\n      swap2\n      swap1\n      pop\n      jump\t// out\n        /* \"#utility.yul\":8619:8736   */\n    tag_118:\n        /* \"#utility.yul\":8728:8729   */\n      0x00\n        /* \"#utility.yul\":8725:8726   */\n      dup1\n        /* \"#utility.yul\":8718:8730   */\n      revert\n        /* \"#utility.yul\":8742:8963   */\n    tag_145:\n        /* \"#utility.yul\":8882:8916   */\n      0x596f75206e65656420746f2073656c6c206174206c65617374203120746f6b65\n        /* \"#utility.yul\":8878:8879   */\n      0x00\n        /* \"#utility.yul\":8870:8876   */\n      dup3\n        /* \"#utility.yul\":8866:8880   */\n      add\n        /* \"#utility.yul\":8859:8917   */\n      mstore\n        /* \"#utility.yul\":8951:8955   */\n      0x6e21000000000000000000000000000000000000000000000000000000000000\n        /* \"#utility.yul\":8946:8948   */\n      0x20\n        /* \"#utility.yul\":8938:8944   */\n      dup3\n        /* \"#utility.yul\":8934:8949   */\n      add\n        /* \"#utility.yul\":8927:8956   */\n      mstore\n        /* \"#utility.yul\":8742:8963   */\n      pop\n      jump\t// out\n        /* \"#utility.yul\":8969:9189   */\n    tag_150:\n        /* \"#utility.yul\":9109:9143   */\n      0x4e6f7420656e6f75676820746f6b656e7320696e207468652072657665727365\n        /* \"#utility.yul\":9105:9106   */\n      0x00\n        /* \"#utility.yul\":9097:9103   */\n      dup3\n        /* \"#utility.yul\":9093:9107   */\n      add\n        /* \"#utility.yul\":9086:9144   */\n      mstore\n        /* \"#utility.yul\":9178:9181   */\n      0x2100000000000000000000000000000000000000000000000000000000000000\n        /* \"#utility.yul\":9173:9175   */\n      0x20\n        /* \"#utility.yul\":9165:9171   */\n      dup3\n        /* \"#utility.yul\":9161:9176   */\n      add\n        /* \"#utility.yul\":9154:9182   */\n      mstore\n        /* \"#utility.yul\":8969:9189   */\n      pop\n      jump\t// out\n        /* \"#utility.yul\":9195:9373   */\n    tag_155:\n        /* \"#utility.yul\":9335:9365   */\n      0x596f75206e65656420746f2073656e6420736f6d652065746865722100000000\n        /* \"#utility.yul\":9331:9332   */\n      0x00\n        /* \"#utility.yul\":9323:9329   */\n      dup3\n        /* \"#utility.yul\":9319:9333   */\n      add\n        /* \"#utility.yul\":9312:9366   */\n      mstore\n        /* \"#utility.yul\":9195:9373   */\n      pop\n      jump\t// out\n        /* \"#utility.yul\":9379:9555   */\n    tag_160:\n        /* \"#utility.yul\":9519:9547   */\n      0x436865636b2074686520746f6b656e20616c6c6f77616e636521000000000000\n        /* \"#utility.yul\":9515:9516   */\n      0x00\n        /* \"#utility.yul\":9507:9513   */\n      dup3\n        /* \"#utility.yul\":9503:9517   */\n      add\n        /* \"#utility.yul\":9496:9548   */\n      mstore\n        /* \"#utility.yul\":9379:9555   */\n      pop\n      jump\t// out\n        /* \"#utility.yul\":9561:9683   */\n    tag_103:\n        /* \"#utility.yul\":9634:9658   */\n      tag_215\n        /* \"#utility.yul\":9652:9657   */\n      dup2\n        /* \"#utility.yul\":9634:9658   */\n      tag_135\n      jump\t// in\n    tag_215:\n        /* \"#utility.yul\":9627:9632   */\n      dup2\n        /* \"#utility.yul\":9624:9659   */\n      eq\n        /* \"#utility.yul\":9614:9677   */\n      tag_216\n      jumpi\n        /* \"#utility.yul\":9673:9674   */\n      0x00\n        /* \"#utility.yul\":9670:9671   */\n      dup1\n        /* \"#utility.yul\":9663:9675   */\n      revert\n        /* \"#utility.yul\":9614:9677   */\n    tag_216:\n        /* \"#utility.yul\":9561:9683   */\n      pop\n      jump\t// out\n        /* \"#utility.yul\":9689:9805   */\n    tag_107:\n        /* \"#utility.yul\":9759:9780   */\n      tag_218\n        /* \"#utility.yul\":9774:9779   */\n      dup2\n        /* \"#utility.yul\":9759:9780   */\n      tag_195\n      jump\t// in\n    tag_218:\n        /* \"#utility.yul\":9752:9757   */\n      dup2\n        /* \"#utility.yul\":9749:9781   */\n      eq\n        /* \"#utility.yul\":9739:9799   */\n      tag_219\n      jumpi\n        /* \"#utility.yul\":9795:9796   */\n      0x00\n        /* \"#utility.yul\":9792:9793   */\n      dup1\n        /* \"#utility.yul\":9785:9797   */\n      revert\n        /* \"#utility.yul\":9739:9799   */\n    tag_219:\n        /* \"#utility.yul\":9689:9805   */\n      pop\n      jump\t// out\n        /* \"#utility.yul\":9811:9933   */\n    tag_111:\n        /* \"#utility.yul\":9884:9908   */\n      tag_221\n        /* \"#utility.yul\":9902:9907   */\n      dup2\n        /* \"#utility.yul\":9884:9908   */\n      tag_164\n      jump\t// in\n    tag_221:\n        /* \"#utility.yul\":9877:9882   */\n      dup2\n        /* \"#utility.yul\":9874:9909   */\n      eq\n        /* \"#utility.yul\":9864:9927   */\n      tag_222\n      jumpi\n        /* \"#utility.yul\":9923:9924   */\n      0x00\n        /* \"#utility.yul\":9920:9921   */\n      dup1\n        /* \"#utility.yul\":9913:9925   */\n      revert\n        /* \"#utility.yul\":9864:9927   */\n    tag_222:\n        /* \"#utility.yul\":9811:9933   */\n      pop\n      jump\t// out\n\n    auxdata: 0xa2646970667358221220efa26a7bc35cc4187cd9aa9a5e9d8fd734a5db7ffed8725dfa37b8d4326e494264736f6c63430008070033\n}\n\nsub_1: assembly {\n        /* \"contracts/16_Dex.sol\":1154:3160  contract ERC20Basic is IERC20{... */\n      mstore(0x40, 0x80)\n        /* \"contracts/16_Dex.sol\":1449:1457  10 ether */\n      0x8ac7230489e80000\n        /* \"contracts/16_Dex.sol\":1426:1457  uint256 totalSupply_ = 10 ether */\n      0x02\n      sstore\n        /* \"contracts/16_Dex.sol\":1497:1560  constructor(){... */\n      callvalue\n      dup1\n      iszero\n      tag_1\n      jumpi\n      0x00\n      dup1\n      revert\n    tag_1:\n      pop\n        /* \"contracts/16_Dex.sol\":1541:1553  totalSupply_ */\n      sload(0x02)\n        /* \"contracts/16_Dex.sol\":1520:1528  balances */\n      0x00\n        /* \"contracts/16_Dex.sol\":1520:1540  balances[msg.sender] */\n      dup1\n        /* \"contracts/16_Dex.sol\":1529:1539  msg.sender */\n      caller\n        /* \"contracts/16_Dex.sol\":1520:1540  balances[msg.sender] */\n      0xffffffffffffffffffffffffffffffffffffffff\n      and\n      0xffffffffffffffffffffffffffffffffffffffff\n      and\n      dup2\n      mstore\n      0x20\n      add\n      swap1\n      dup2\n      mstore\n      0x20\n      add\n      0x00\n      keccak256\n        /* \"contracts/16_Dex.sol\":1520:1553  balances[msg.sender]=totalSupply_ */\n      dup2\n      swap1\n      sstore\n      pop\n        /* \"contracts/16_Dex.sol\":1154:3160  contract ERC20Basic is IERC20{... */\n      dataSize(sub_0)\n      dup1\n      dataOffset(sub_0)\n      0x00\n      codecopy\n      0x00\n      return\n    stop\n\n    sub_0: assembly {\n            /* \"contracts/16_Dex.sol\":1154:3160  contract ERC20Basic is IERC20{... */\n          mstore(0x40, 0x80)\n          callvalue\n          dup1\n          iszero\n          tag_1\n          jumpi\n          0x00\n          dup1\n          revert\n        tag_1:\n          pop\n          jumpi(tag_2, lt(calldatasize, 0x04))\n          shr(0xe0, calldataload(0x00))\n          dup1\n          0x70a08231\n          gt\n          tag_13\n          jumpi\n          dup1\n          0x70a08231\n          eq\n          tag_8\n          jumpi\n          dup1\n          0x95d89b41\n          eq\n          tag_9\n          jumpi\n          dup1\n          0xa9059cbb\n          eq\n          tag_10\n          jumpi\n          dup1\n          0xdd62ed3e\n          eq\n          tag_11\n          jumpi\n          dup1\n          0xe1f21c67\n          eq\n          tag_12\n          jumpi\n          jump(tag_2)\n        tag_13:\n          dup1\n          0x06fdde03\n          eq\n          tag_3\n          jumpi\n          dup1\n          0x18160ddd\n          eq\n          tag_4\n          jumpi\n          dup1\n          0x23b872dd\n          eq\n          tag_5\n          jumpi\n          dup1\n          0x313ce567\n          eq\n          tag_6\n          jumpi\n          dup1\n          0x38cc4831\n          eq\n          tag_7\n          jumpi\n        tag_2:\n          0x00\n          dup1\n          revert\n            /* \"contracts/16_Dex.sol\":1189:1237  string public constant name=\"ERC20-XiaochunCoin\" */\n        tag_3:\n          tag_14\n          tag_15\n          jump\t// in\n        tag_14:\n          mload(0x40)\n          tag_16\n          swap2\n          swap1\n          tag_17\n          jump\t// in\n        tag_16:\n          mload(0x40)\n          dup1\n          swap2\n          sub\n          swap1\n          return\n            /* \"contracts/16_Dex.sol\":1668:1764  function totalSupply() public override view returns(uint256){... */\n        tag_4:\n          tag_18\n          tag_19\n          jump\t// in\n        tag_18:\n          mload(0x40)\n          tag_20\n          swap2\n          swap1\n          tag_21\n          jump\t// in\n        tag_20:\n          mload(0x40)\n          dup1\n          swap2\n          sub\n          swap1\n          return\n            /* \"contracts/16_Dex.sol\":2700:3158  function transferFrom(address owner, address buyer, uint256 numTokens) external override returns (bool){... */\n        tag_5:\n          tag_22\n          0x04\n          dup1\n          calldatasize\n          sub\n          dup2\n          add\n          swap1\n          tag_23\n          swap2\n          swap1\n          tag_24\n          jump\t// in\n        tag_23:\n          tag_25\n          jump\t// in\n        tag_22:\n          mload(0x40)\n          tag_26\n          swap2\n          swap1\n          tag_27\n          jump\t// in\n        tag_26:\n          mload(0x40)\n          dup1\n          swap2\n          sub\n          swap1\n          return\n            /* \"contracts/16_Dex.sol\":1288:1321  uint8 public constant decimals=18 */\n        tag_6:\n          tag_28\n          tag_29\n          jump\t// in\n        tag_28:\n          mload(0x40)\n          tag_30\n          swap2\n          swap1\n          tag_31\n          jump\t// in\n        tag_30:\n          mload(0x40)\n          dup1\n          swap2\n          sub\n          swap1\n          return\n            /* \"contracts/16_Dex.sol\":1566:1662  function getAddress() public override view returns(address){... */\n        tag_7:\n          tag_32\n          tag_33\n          jump\t// in\n        tag_32:\n          mload(0x40)\n          tag_34\n          swap2\n          swap1\n          tag_35\n          jump\t// in\n        tag_34:\n          mload(0x40)\n          dup1\n          swap2\n          sub\n          swap1\n          return\n            /* \"contracts/16_Dex.sol\":1770:1890  function balanceOf(address tokenOwner) public override view returns(uint256){... */\n        tag_8:\n          tag_36\n          0x04\n          dup1\n          calldatasize\n          sub\n          dup2\n          add\n          swap1\n          tag_37\n          swap2\n          swap1\n          tag_38\n          jump\t// in\n        tag_37:\n          tag_39\n          jump\t// in\n        tag_36:\n          mload(0x40)\n          tag_40\n          swap2\n          swap1\n          tag_21\n          jump\t// in\n        tag_40:\n          mload(0x40)\n          dup1\n          swap2\n          sub\n          swap1\n          return\n            /* \"contracts/16_Dex.sol\":1243:1282  string public constant symbol=\"ERC-XCC\" */\n        tag_9:\n          tag_41\n          tag_42\n          jump\t// in\n        tag_41:\n          mload(0x40)\n          tag_43\n          swap2\n          swap1\n          tag_17\n          jump\t// in\n        tag_43:\n          mload(0x40)\n          dup1\n          swap2\n          sub\n          swap1\n          return\n            /* \"contracts/16_Dex.sol\":1978:2321  function transfer(address receiver, uint256 numTokens) public override returns(bool){... */\n        tag_10:\n          tag_44\n          0x04\n          dup1\n          calldatasize\n          sub\n          dup2\n          add\n          swap1\n          tag_45\n          swap2\n          swap1\n          tag_46\n          jump\t// in\n        tag_45:\n          tag_47\n          jump\t// in\n        tag_44:\n          mload(0x40)\n          tag_48\n          swap2\n          swap1\n          tag_27\n          jump\t// in\n        tag_48:\n          mload(0x40)\n          dup1\n          swap2\n          sub\n          swap1\n          return\n            /* \"contracts/16_Dex.sol\":2555:2694  function allowance(address owner, address delegate) external override view returns(uint256){... */\n        tag_11:\n          tag_49\n          0x04\n          dup1\n          calldatasize\n          sub\n          dup2\n          add\n          swap1\n          tag_50\n          swap2\n          swap1\n          tag_51\n          jump\t// in\n        tag_50:\n          tag_52\n          jump\t// in\n        tag_49:\n          mload(0x40)\n          tag_53\n          swap2\n          swap1\n          tag_21\n          jump\t// in\n        tag_53:\n          mload(0x40)\n          dup1\n          swap2\n          sub\n          swap1\n          return\n            /* \"contracts/16_Dex.sol\":2327:2549  function approve(address owner, address delegate, uint256 numTokens) external override returns (bool){... */\n        tag_12:\n          tag_54\n          0x04\n          dup1\n          calldatasize\n          sub\n          dup2\n          add\n          swap1\n          tag_55\n          swap2\n          swap1\n          tag_24\n          jump\t// in\n        tag_55:\n          tag_56\n          jump\t// in\n        tag_54:\n          mload(0x40)\n          tag_57\n          swap2\n          swap1\n          tag_27\n          jump\t// in\n        tag_57:\n          mload(0x40)\n          dup1\n          swap2\n          sub\n          swap1\n          return\n            /* \"contracts/16_Dex.sol\":1189:1237  string public constant name=\"ERC20-XiaochunCoin\" */\n        tag_15:\n          mload(0x40)\n          dup1\n          0x40\n          add\n          0x40\n          mstore\n          dup1\n          0x12\n          dup2\n          mstore\n          0x20\n          add\n          0x45524332302d5869616f6368756e436f696e0000000000000000000000000000\n          dup2\n          mstore\n          pop\n          dup2\n          jump\t// out\n            /* \"contracts/16_Dex.sol\":1668:1764  function totalSupply() public override view returns(uint256){... */\n        tag_19:\n            /* \"contracts/16_Dex.sol\":1720:1727  uint256 */\n          0x00\n            /* \"contracts/16_Dex.sol\":1745:1757  totalSupply_ */\n          sload(0x02)\n            /* \"contracts/16_Dex.sol\":1738:1757  return totalSupply_ */\n          swap1\n          pop\n            /* \"contracts/16_Dex.sol\":1668:1764  function totalSupply() public override view returns(uint256){... */\n          swap1\n          jump\t// out\n            /* \"contracts/16_Dex.sol\":2700:3158  function transferFrom(address owner, address buyer, uint256 numTokens) external override returns (bool){... */\n        tag_25:\n            /* \"contracts/16_Dex.sol\":2798:2802  bool */\n          0x00\n            /* \"contracts/16_Dex.sol\":2832:2840  balances */\n          dup1\n            /* \"contracts/16_Dex.sol\":2832:2847  balances[owner] */\n          0x00\n            /* \"contracts/16_Dex.sol\":2841:2846  owner */\n          dup6\n            /* \"contracts/16_Dex.sol\":2832:2847  balances[owner] */\n          0xffffffffffffffffffffffffffffffffffffffff\n          and\n          0xffffffffffffffffffffffffffffffffffffffff\n          and\n          dup2\n          mstore\n          0x20\n          add\n          swap1\n          dup2\n          mstore\n          0x20\n          add\n          0x00\n          keccak256\n          sload\n            /* \"contracts/16_Dex.sol\":2821:2830  numTokens */\n          dup3\n            /* \"contracts/16_Dex.sol\":2821:2847  numTokens<=balances[owner] */\n          gt\n          iszero\n            /* \"contracts/16_Dex.sol\":2813:2848  require(numTokens<=balances[owner]) */\n          tag_60\n          jumpi\n          0x00\n          dup1\n          revert\n        tag_60:\n            /* \"contracts/16_Dex.sol\":2877:2884  allowed */\n          0x01\n            /* \"contracts/16_Dex.sol\":2877:2891  allowed[owner] */\n          0x00\n            /* \"contracts/16_Dex.sol\":2885:2890  owner */\n          dup6\n            /* \"contracts/16_Dex.sol\":2877:2891  allowed[owner] */\n          0xffffffffffffffffffffffffffffffffffffffff\n          and\n          0xffffffffffffffffffffffffffffffffffffffff\n          and\n          dup2\n          mstore\n          0x20\n          add\n          swap1\n          dup2\n          mstore\n          0x20\n          add\n          0x00\n          keccak256\n            /* \"contracts/16_Dex.sol\":2877:2903  allowed[owner][msg.sender] */\n          0x00\n            /* \"contracts/16_Dex.sol\":2892:2902  msg.sender */\n          caller\n            /* \"contracts/16_Dex.sol\":2877:2903  allowed[owner][msg.sender] */\n          0xffffffffffffffffffffffffffffffffffffffff\n          and\n          0xffffffffffffffffffffffffffffffffffffffff\n          and\n          dup2\n          mstore\n          0x20\n          add\n          swap1\n          dup2\n          mstore\n          0x20\n          add\n          0x00\n          keccak256\n          sload\n            /* \"contracts/16_Dex.sol\":2866:2875  numTokens */\n          dup3\n            /* \"contracts/16_Dex.sol\":2866:2903  numTokens<=allowed[owner][msg.sender] */\n          gt\n          iszero\n            /* \"contracts/16_Dex.sol\":2858:2904  require(numTokens<=allowed[owner][msg.sender]) */\n          tag_61\n          jumpi\n          0x00\n          dup1\n          revert\n        tag_61:\n            /* \"contracts/16_Dex.sol\":2931:2961  balances[owner].sub(numTokens) */\n          tag_62\n            /* \"contracts/16_Dex.sol\":2951:2960  numTokens */\n          dup3\n            /* \"contracts/16_Dex.sol\":2931:2939  balances */\n          0x00\n            /* \"contracts/16_Dex.sol\":2931:2946  balances[owner] */\n          dup1\n            /* \"contracts/16_Dex.sol\":2940:2945  owner */\n          dup8\n            /* \"contracts/16_Dex.sol\":2931:2946  balances[owner] */\n          0xffffffffffffffffffffffffffffffffffffffff\n          and\n          0xffffffffffffffffffffffffffffffffffffffff\n          and\n          dup2\n          mstore\n          0x20\n          add\n          swap1\n          dup2\n          mstore\n          0x20\n          add\n          0x00\n          keccak256\n          sload\n            /* \"contracts/16_Dex.sol\":2931:2950  balances[owner].sub */\n          tag_63\n          swap1\n            /* \"contracts/16_Dex.sol\":2931:2961  balances[owner].sub(numTokens) */\n          swap2\n          swap1\n          0xffffffff\n          and\n          jump\t// in\n        tag_62:\n            /* \"contracts/16_Dex.sol\":2915:2923  balances */\n          0x00\n            /* \"contracts/16_Dex.sol\":2915:2930  balances[owner] */\n          dup1\n            /* \"contracts/16_Dex.sol\":2924:2929  owner */\n          dup7\n            /* \"contracts/16_Dex.sol\":2915:2930  balances[owner] */\n          0xffffffffffffffffffffffffffffffffffffffff\n          and\n          0xffffffffffffffffffffffffffffffffffffffff\n          and\n          dup2\n          mstore\n          0x20\n          add\n          swap1\n          dup2\n          mstore\n          0x20\n          add\n          0x00\n          keccak256\n            /* \"contracts/16_Dex.sol\":2915:2961  balances[owner]=balances[owner].sub(numTokens) */\n          dup2\n          swap1\n          sstore\n          pop\n            /* \"contracts/16_Dex.sol\":2993:3029  allowed[owner][buyer].sub(numTokens) */\n          tag_64\n            /* \"contracts/16_Dex.sol\":3019:3028  numTokens */\n          dup3\n            /* \"contracts/16_Dex.sol\":2993:3000  allowed */\n          0x01\n            /* \"contracts/16_Dex.sol\":2993:3007  allowed[owner] */\n          0x00\n            /* \"contracts/16_Dex.sol\":3001:3006  owner */\n          dup8\n            /* \"contracts/16_Dex.sol\":2993:3007  allowed[owner] */\n          0xffffffffffffffffffffffffffffffffffffffff\n          and\n          0xffffffffffffffffffffffffffffffffffffffff\n          and\n          dup2\n          mstore\n          0x20\n          add\n          swap1\n          dup2\n          mstore\n          0x20\n          add\n          0x00\n          keccak256\n            /* \"contracts/16_Dex.sol\":2993:3014  allowed[owner][buyer] */\n          0x00\n            /* \"contracts/16_Dex.sol\":3008:3013  buyer */\n          dup7\n            /* \"contracts/16_Dex.sol\":2993:3014  allowed[owner][buyer] */\n          0xffffffffffffffffffffffffffffffffffffffff\n          and\n          0xffffffffffffffffffffffffffffffffffffffff\n          and\n          dup2\n          mstore\n          0x20\n          add\n          swap1\n          dup2\n          mstore\n          0x20\n          add\n          0x00\n          keccak256\n          sload\n            /* \"contracts/16_Dex.sol\":2993:3018  allowed[owner][buyer].sub */\n          tag_63\n          swap1\n            /* \"contracts/16_Dex.sol\":2993:3029  allowed[owner][buyer].sub(numTokens) */\n          swap2\n          swap1\n          0xffffffff\n          and\n          jump\t// in\n        tag_64:\n            /* \"contracts/16_Dex.sol\":2971:2978  allowed */\n          0x01\n            /* \"contracts/16_Dex.sol\":2971:2985  allowed[owner] */\n          0x00\n            /* \"contracts/16_Dex.sol\":2979:2984  owner */\n          dup7\n            /* \"contracts/16_Dex.sol\":2971:2985  allowed[owner] */\n          0xffffffffffffffffffffffffffffffffffffffff\n          and\n          0xffffffffffffffffffffffffffffffffffffffff\n          and\n          dup2\n          mstore\n          0x20\n          add\n          swap1\n          dup2\n          mstore\n          0x20\n          add\n          0x00\n          keccak256\n            /* \"contracts/16_Dex.sol\":2971:2992  allowed[owner][buyer] */\n          0x00\n            /* \"contracts/16_Dex.sol\":2986:2991  buyer */\n          dup6\n            /* \"contracts/16_Dex.sol\":2971:2992  allowed[owner][buyer] */\n          0xffffffffffffffffffffffffffffffffffffffff\n          and\n          0xffffffffffffffffffffffffffffffffffffffff\n          and\n          dup2\n          mstore\n          0x20\n          add\n          swap1\n          dup2\n          mstore\n          0x20\n          add\n          0x00\n          keccak256\n            /* \"contracts/16_Dex.sol\":2971:3029  allowed[owner][buyer]=allowed[owner][buyer].sub(numTokens) */\n          dup2\n          swap1\n          sstore\n          pop\n            /* \"contracts/16_Dex.sol\":3055:3085  balances[buyer].add(numTokens) */\n          tag_65\n            /* \"contracts/16_Dex.sol\":3075:3084  numTokens */\n          dup3\n            /* \"contracts/16_Dex.sol\":3055:3063  balances */\n          0x00\n            /* \"contracts/16_Dex.sol\":3055:3070  balances[buyer] */\n          dup1\n            /* \"contracts/16_Dex.sol\":3064:3069  buyer */\n          dup7\n            /* \"contracts/16_Dex.sol\":3055:3070  balances[buyer] */\n          0xffffffffffffffffffffffffffffffffffffffff\n          and\n          0xffffffffffffffffffffffffffffffffffffffff\n          and\n          dup2\n          mstore\n          0x20\n          add\n          swap1\n          dup2\n          mstore\n          0x20\n          add\n          0x00\n          keccak256\n          sload\n            /* \"contracts/16_Dex.sol\":3055:3074  balances[buyer].add */\n          tag_66\n          swap1\n            /* \"contracts/16_Dex.sol\":3055:3085  balances[buyer].add(numTokens) */\n          swap2\n          swap1\n          0xffffffff\n          and\n          jump\t// in\n        tag_65:\n            /* \"contracts/16_Dex.sol\":3039:3047  balances */\n          0x00\n            /* \"contracts/16_Dex.sol\":3039:3054  balances[buyer] */\n          dup1\n            /* \"contracts/16_Dex.sol\":3048:3053  buyer */\n          dup6\n            /* \"contracts/16_Dex.sol\":3039:3054  balances[buyer] */\n          0xffffffffffffffffffffffffffffffffffffffff\n          and\n          0xffffffffffffffffffffffffffffffffffffffff\n          and\n          dup2\n          mstore\n          0x20\n          add\n          swap1\n          dup2\n          mstore\n          0x20\n          add\n          0x00\n          keccak256\n            /* \"contracts/16_Dex.sol\":3039:3085  balances[buyer]=balances[buyer].add(numTokens) */\n          dup2\n          swap1\n          sstore\n          pop\n            /* \"contracts/16_Dex.sol\":3114:3119  buyer */\n          dup3\n            /* \"contracts/16_Dex.sol\":3100:3130  Tranfer(owner,buyer,numTokens) */\n          0xffffffffffffffffffffffffffffffffffffffff\n          and\n            /* \"contracts/16_Dex.sol\":3108:3113  owner */\n          dup5\n            /* \"contracts/16_Dex.sol\":3100:3130  Tranfer(owner,buyer,numTokens) */\n          0xffffffffffffffffffffffffffffffffffffffff\n          and\n          0x5225eac2a7facfbeb099c00a4cc7c457701324f1fd84b84b14033f9e911374a4\n            /* \"contracts/16_Dex.sol\":3120:3129  numTokens */\n          dup5\n            /* \"contracts/16_Dex.sol\":3100:3130  Tranfer(owner,buyer,numTokens) */\n          mload(0x40)\n          tag_67\n          swap2\n          swap1\n          tag_21\n          jump\t// in\n        tag_67:\n          mload(0x40)\n          dup1\n          swap2\n          sub\n          swap1\n          log3\n            /* \"contracts/16_Dex.sol\":3147:3151  true */\n          0x01\n            /* \"contracts/16_Dex.sol\":3140:3151  return true */\n          swap1\n          pop\n            /* \"contracts/16_Dex.sol\":2700:3158  function transferFrom(address owner, address buyer, uint256 numTokens) external override returns (bool){... */\n          swap4\n          swap3\n          pop\n          pop\n          pop\n          jump\t// out\n            /* \"contracts/16_Dex.sol\":1288:1321  uint8 public constant decimals=18 */\n        tag_29:\n            /* \"contracts/16_Dex.sol\":1319:1321  18 */\n          0x12\n            /* \"contracts/16_Dex.sol\":1288:1321  uint8 public constant decimals=18 */\n          dup2\n          jump\t// out\n            /* \"contracts/16_Dex.sol\":1566:1662  function getAddress() public override view returns(address){... */\n        tag_33:\n            /* \"contracts/16_Dex.sol\":1617:1624  address */\n          0x00\n            /* \"contracts/16_Dex.sol\":1650:1654  this */\n          address\n            /* \"contracts/16_Dex.sol\":1635:1655  return address(this) */\n          swap1\n          pop\n            /* \"contracts/16_Dex.sol\":1566:1662  function getAddress() public override view returns(address){... */\n          swap1\n          jump\t// out\n            /* \"contracts/16_Dex.sol\":1770:1890  function balanceOf(address tokenOwner) public override view returns(uint256){... */\n        tag_39:\n            /* \"contracts/16_Dex.sol\":1838:1845  uint256 */\n          0x00\n            /* \"contracts/16_Dex.sol\":1863:1871  balances */\n          dup1\n            /* \"contracts/16_Dex.sol\":1863:1883  balances[tokenOwner] */\n          0x00\n            /* \"contracts/16_Dex.sol\":1872:1882  tokenOwner */\n          dup4\n            /* \"contracts/16_Dex.sol\":1863:1883  balances[tokenOwner] */\n          0xffffffffffffffffffffffffffffffffffffffff\n          and\n          0xffffffffffffffffffffffffffffffffffffffff\n          and\n          dup2\n          mstore\n          0x20\n          add\n          swap1\n          dup2\n          mstore\n          0x20\n          add\n          0x00\n          keccak256\n          sload\n            /* \"contracts/16_Dex.sol\":1856:1883  return balances[tokenOwner] */\n          swap1\n          pop\n            /* \"contracts/16_Dex.sol\":1770:1890  function balanceOf(address tokenOwner) public override view returns(uint256){... */\n          swap2\n          swap1\n          pop\n          jump\t// out\n            /* \"contracts/16_Dex.sol\":1243:1282  string public constant symbol=\"ERC-XCC\" */\n        tag_42:\n          mload(0x40)\n          dup1\n          0x40\n          add\n          0x40\n          mstore\n          dup1\n          0x07\n          dup2\n          mstore\n          0x20\n          add\n          0x4552432d58434300000000000000000000000000000000000000000000000000\n          dup2\n          mstore\n          pop\n          dup2\n          jump\t// out\n            /* \"contracts/16_Dex.sol\":1978:2321  function transfer(address receiver, uint256 numTokens) public override returns(bool){... */\n        tag_47:\n            /* \"contracts/16_Dex.sol\":2057:2061  bool */\n          0x00\n            /* \"contracts/16_Dex.sol\":2091:2099  balances */\n          dup1\n            /* \"contracts/16_Dex.sol\":2091:2111  balances[msg.sender] */\n          0x00\n            /* \"contracts/16_Dex.sol\":2100:2110  msg.sender */\n          caller\n            /* \"contracts/16_Dex.sol\":2091:2111  balances[msg.sender] */\n          0xffffffffffffffffffffffffffffffffffffffff\n          and\n          0xffffffffffffffffffffffffffffffffffffffff\n          and\n          dup2\n          mstore\n          0x20\n          add\n          swap1\n          dup2\n          mstore\n          0x20\n          add\n          0x00\n          keccak256\n          sload\n            /* \"contracts/16_Dex.sol\":2080:2089  numTokens */\n          dup3\n            /* \"contracts/16_Dex.sol\":2080:2111  numTokens<=balances[msg.sender] */\n          gt\n          iszero\n            /* \"contracts/16_Dex.sol\":2072:2112  require(numTokens<=balances[msg.sender]) */\n          tag_71\n          jumpi\n          0x00\n          dup1\n          revert\n        tag_71:\n            /* \"contracts/16_Dex.sol\":2143:2178  balances[msg.sender].sub(numTokens) */\n          tag_72\n            /* \"contracts/16_Dex.sol\":2168:2177  numTokens */\n          dup3\n            /* \"contracts/16_Dex.sol\":2143:2151  balances */\n          0x00\n            /* \"contracts/16_Dex.sol\":2143:2163  balances[msg.sender] */\n          dup1\n            /* \"contracts/16_Dex.sol\":2152:2162  msg.sender */\n          caller\n            /* \"contracts/16_Dex.sol\":2143:2163  balances[msg.sender] */\n          0xffffffffffffffffffffffffffffffffffffffff\n          and\n          0xffffffffffffffffffffffffffffffffffffffff\n          and\n          dup2\n          mstore\n          0x20\n          add\n          swap1\n          dup2\n          mstore\n          0x20\n          add\n          0x00\n          keccak256\n          sload\n            /* \"contracts/16_Dex.sol\":2143:2167  balances[msg.sender].sub */\n          tag_63\n          swap1\n            /* \"contracts/16_Dex.sol\":2143:2178  balances[msg.sender].sub(numTokens) */\n          swap2\n          swap1\n          0xffffffff\n          and\n          jump\t// in\n        tag_72:\n            /* \"contracts/16_Dex.sol\":2122:2130  balances */\n          0x00\n            /* \"contracts/16_Dex.sol\":2122:2142  balances[msg.sender] */\n          dup1\n            /* \"contracts/16_Dex.sol\":2131:2141  msg.sender */\n          caller\n            /* \"contracts/16_Dex.sol\":2122:2142  balances[msg.sender] */\n          0xffffffffffffffffffffffffffffffffffffffff\n          and\n          0xffffffffffffffffffffffffffffffffffffffff\n          and\n          dup2\n          mstore\n          0x20\n          add\n          swap1\n          dup2\n          mstore\n          0x20\n          add\n          0x00\n          keccak256\n            /* \"contracts/16_Dex.sol\":2122:2178  balances[msg.sender]=balances[msg.sender].sub(numTokens) */\n          dup2\n          swap1\n          sstore\n          pop\n            /* \"contracts/16_Dex.sol\":2207:2240  balances[receiver].add(numTokens) */\n          tag_73\n            /* \"contracts/16_Dex.sol\":2230:2239  numTokens */\n          dup3\n            /* \"contracts/16_Dex.sol\":2207:2215  balances */\n          0x00\n            /* \"contracts/16_Dex.sol\":2207:2225  balances[receiver] */\n          dup1\n            /* \"contracts/16_Dex.sol\":2216:2224  receiver */\n          dup7\n            /* \"contracts/16_Dex.sol\":2207:2225  balances[receiver] */\n          0xffffffffffffffffffffffffffffffffffffffff\n          and\n          0xffffffffffffffffffffffffffffffffffffffff\n          and\n          dup2\n          mstore\n          0x20\n          add\n          swap1\n          dup2\n          mstore\n          0x20\n          add\n          0x00\n          keccak256\n          sload\n            /* \"contracts/16_Dex.sol\":2207:2229  balances[receiver].add */\n          tag_66\n          swap1\n            /* \"contracts/16_Dex.sol\":2207:2240  balances[receiver].add(numTokens) */\n          swap2\n          swap1\n          0xffffffff\n          and\n          jump\t// in\n        tag_73:\n            /* \"contracts/16_Dex.sol\":2188:2196  balances */\n          0x00\n            /* \"contracts/16_Dex.sol\":2188:2206  balances[receiver] */\n          dup1\n            /* \"contracts/16_Dex.sol\":2197:2205  receiver */\n          dup6\n            /* \"contracts/16_Dex.sol\":2188:2206  balances[receiver] */\n          0xffffffffffffffffffffffffffffffffffffffff\n          and\n          0xffffffffffffffffffffffffffffffffffffffff\n          and\n          dup2\n          mstore\n          0x20\n          add\n          swap1\n          dup2\n          mstore\n          0x20\n          add\n          0x00\n          keccak256\n            /* \"contracts/16_Dex.sol\":2188:2240  balances[receiver]=balances[receiver].add(numTokens) */\n          dup2\n          swap1\n          sstore\n          pop\n            /* \"contracts/16_Dex.sol\":2274:2282  receiver */\n          dup3\n            /* \"contracts/16_Dex.sol\":2255:2293  Tranfer(msg.sender,receiver,numTokens) */\n          0xffffffffffffffffffffffffffffffffffffffff\n          and\n            /* \"contracts/16_Dex.sol\":2263:2273  msg.sender */\n          caller\n            /* \"contracts/16_Dex.sol\":2255:2293  Tranfer(msg.sender,receiver,numTokens) */\n          0xffffffffffffffffffffffffffffffffffffffff\n          and\n          0x5225eac2a7facfbeb099c00a4cc7c457701324f1fd84b84b14033f9e911374a4\n            /* \"contracts/16_Dex.sol\":2283:2292  numTokens */\n          dup5\n            /* \"contracts/16_Dex.sol\":2255:2293  Tranfer(msg.sender,receiver,numTokens) */\n          mload(0x40)\n          tag_74\n          swap2\n          swap1\n          tag_21\n          jump\t// in\n        tag_74:\n          mload(0x40)\n          dup1\n          swap2\n          sub\n          swap1\n          log3\n            /* \"contracts/16_Dex.sol\":2310:2314  true */\n          0x01\n            /* \"contracts/16_Dex.sol\":2303:2314  return true */\n          swap1\n          pop\n            /* \"contracts/16_Dex.sol\":1978:2321  function transfer(address receiver, uint256 numTokens) public override returns(bool){... */\n          swap3\n          swap2\n          pop\n          pop\n          jump\t// out\n            /* \"contracts/16_Dex.sol\":2555:2694  function allowance(address owner, address delegate) external override view returns(uint256){... */\n        tag_52:\n            /* \"contracts/16_Dex.sol\":2638:2645  uint256 */\n          0x00\n            /* \"contracts/16_Dex.sol\":2663:2670  allowed */\n          0x01\n            /* \"contracts/16_Dex.sol\":2663:2677  allowed[owner] */\n          0x00\n            /* \"contracts/16_Dex.sol\":2671:2676  owner */\n          dup5\n            /* \"contracts/16_Dex.sol\":2663:2677  allowed[owner] */\n          0xffffffffffffffffffffffffffffffffffffffff\n          and\n          0xffffffffffffffffffffffffffffffffffffffff\n          and\n          dup2\n          mstore\n          0x20\n          add\n          swap1\n          dup2\n          mstore\n          0x20\n          add\n          0x00\n          keccak256\n            /* \"contracts/16_Dex.sol\":2663:2687  allowed[owner][delegate] */\n          0x00\n            /* \"contracts/16_Dex.sol\":2678:2686  delegate */\n          dup4\n            /* \"contracts/16_Dex.sol\":2663:2687  allowed[owner][delegate] */\n          0xffffffffffffffffffffffffffffffffffffffff\n          and\n          0xffffffffffffffffffffffffffffffffffffffff\n          and\n          dup2\n          mstore\n          0x20\n          add\n          swap1\n          dup2\n          mstore\n          0x20\n          add\n          0x00\n          keccak256\n          sload\n            /* \"contracts/16_Dex.sol\":2656:2687  return allowed[owner][delegate] */\n          swap1\n          pop\n            /* \"contracts/16_Dex.sol\":2555:2694  function allowance(address owner, address delegate) external override view returns(uint256){... */\n          swap3\n          swap2\n          pop\n          pop\n          jump\t// out\n            /* \"contracts/16_Dex.sol\":2327:2549  function approve(address owner, address delegate, uint256 numTokens) external override returns (bool){... */\n        tag_56:\n            /* \"contracts/16_Dex.sol\":2423:2427  bool */\n          0x00\n            /* \"contracts/16_Dex.sol\":2463:2472  numTokens */\n          dup2\n            /* \"contracts/16_Dex.sol\":2438:2445  allowed */\n          0x01\n            /* \"contracts/16_Dex.sol\":2438:2452  allowed[owner] */\n          0x00\n            /* \"contracts/16_Dex.sol\":2446:2451  owner */\n          dup7\n            /* \"contracts/16_Dex.sol\":2438:2452  allowed[owner] */\n          0xffffffffffffffffffffffffffffffffffffffff\n          and\n          0xffffffffffffffffffffffffffffffffffffffff\n          and\n          dup2\n          mstore\n          0x20\n          add\n          swap1\n          dup2\n          mstore\n          0x20\n          add\n          0x00\n          keccak256\n            /* \"contracts/16_Dex.sol\":2438:2462  allowed[owner][delegate] */\n          0x00\n            /* \"contracts/16_Dex.sol\":2453:2461  delegate */\n          dup6\n            /* \"contracts/16_Dex.sol\":2438:2462  allowed[owner][delegate] */\n          0xffffffffffffffffffffffffffffffffffffffff\n          and\n          0xffffffffffffffffffffffffffffffffffffffff\n          and\n          dup2\n          mstore\n          0x20\n          add\n          swap1\n          dup2\n          mstore\n          0x20\n          add\n          0x00\n          keccak256\n            /* \"contracts/16_Dex.sol\":2438:2472  allowed[owner][delegate]=numTokens */\n          dup2\n          swap1\n          sstore\n          pop\n            /* \"contracts/16_Dex.sol\":2502:2510  delegate */\n          dup3\n            /* \"contracts/16_Dex.sol\":2487:2521  Approval(owner,delegate,numTokens) */\n          0xffffffffffffffffffffffffffffffffffffffff\n          and\n            /* \"contracts/16_Dex.sol\":2496:2501  owner */\n          dup5\n            /* \"contracts/16_Dex.sol\":2487:2521  Approval(owner,delegate,numTokens) */\n          0xffffffffffffffffffffffffffffffffffffffff\n          and\n          0x8c5be1e5ebec7d5bd14f71427d1e84f3dd0314c0f7b2291e5b200ac8c7c3b925\n            /* \"contracts/16_Dex.sol\":2511:2520  numTokens */\n          dup5\n            /* \"contracts/16_Dex.sol\":2487:2521  Approval(owner,delegate,numTokens) */\n          mload(0x40)\n          tag_77\n          swap2\n          swap1\n          tag_21\n          jump\t// in\n        tag_77:\n          mload(0x40)\n          dup1\n          swap2\n          sub\n          swap1\n          log3\n            /* \"contracts/16_Dex.sol\":2538:2542  true */\n          0x01\n            /* \"contracts/16_Dex.sol\":2531:2542  return true */\n          swap1\n          pop\n            /* \"contracts/16_Dex.sol\":2327:2549  function approve(address owner, address delegate, uint256 numTokens) external override returns (bool){... */\n          swap4\n          swap3\n          pop\n          pop\n          pop\n          jump\t// out\n            /* \"contracts/16_Dex.sol\":110:224  function sub(uint256 a, uint256 b) internal pure returns(uint256){... */\n        tag_63:\n            /* \"contracts/16_Dex.sol\":167:174  uint256 */\n          0x00\n            /* \"contracts/16_Dex.sol\":195:196  a */\n          dup3\n            /* \"contracts/16_Dex.sol\":192:193  b */\n          dup3\n            /* \"contracts/16_Dex.sol\":192:196  b<=a */\n          gt\n          iszero\n            /* \"contracts/16_Dex.sol\":185:197  assert(b<=a) */\n          tag_79\n          jumpi\n          tag_80\n          tag_81\n          jump\t// in\n        tag_80:\n        tag_79:\n            /* \"contracts/16_Dex.sol\":216:217  b */\n          dup2\n            /* \"contracts/16_Dex.sol\":214:215  a */\n          dup4\n            /* \"contracts/16_Dex.sol\":214:217  a-b */\n          tag_82\n          swap2\n          swap1\n          tag_83\n          jump\t// in\n        tag_82:\n            /* \"contracts/16_Dex.sol\":207:217  return a-b */\n          swap1\n          pop\n            /* \"contracts/16_Dex.sol\":110:224  function sub(uint256 a, uint256 b) internal pure returns(uint256){... */\n          swap3\n          swap2\n          pop\n          pop\n          jump\t// out\n            /* \"contracts/16_Dex.sol\":229:364  function add(uint256 a, uint256 b) internal pure returns(uint256){... */\n        tag_66:\n            /* \"contracts/16_Dex.sol\":286:293  uint256 */\n          0x00\n            /* \"contracts/16_Dex.sol\":304:313  uint256 c */\n          dup1\n            /* \"contracts/16_Dex.sol\":316:317  b */\n          dup3\n            /* \"contracts/16_Dex.sol\":314:315  a */\n          dup5\n            /* \"contracts/16_Dex.sol\":314:317  a+b */\n          tag_85\n          swap2\n          swap1\n          tag_86\n          jump\t// in\n        tag_85:\n            /* \"contracts/16_Dex.sol\":304:317  uint256 c=a+b */\n          swap1\n          pop\n            /* \"contracts/16_Dex.sol\":337:338  a */\n          dup4\n            /* \"contracts/16_Dex.sol\":334:335  c */\n          dup2\n            /* \"contracts/16_Dex.sol\":334:338  c>=a */\n          lt\n          iszero\n            /* \"contracts/16_Dex.sol\":327:339  assert(c>=a) */\n          tag_87\n          jumpi\n          tag_88\n          tag_81\n          jump\t// in\n        tag_88:\n        tag_87:\n            /* \"contracts/16_Dex.sol\":356:357  c */\n          dup1\n            /* \"contracts/16_Dex.sol\":349:357  return c */\n          swap2\n          pop\n          pop\n            /* \"contracts/16_Dex.sol\":229:364  function add(uint256 a, uint256 b) internal pure returns(uint256){... */\n          swap3\n          swap2\n          pop\n          pop\n          jump\t// out\n            /* \"#utility.yul\":7:146   */\n        tag_90:\n            /* \"#utility.yul\":53:58   */\n          0x00\n            /* \"#utility.yul\":91:97   */\n          dup2\n            /* \"#utility.yul\":78:98   */\n          calldataload\n            /* \"#utility.yul\":69:98   */\n          swap1\n          pop\n            /* \"#utility.yul\":107:140   */\n          tag_92\n            /* \"#utility.yul\":134:139   */\n          dup2\n            /* \"#utility.yul\":107:140   */\n          tag_93\n          jump\t// in\n        tag_92:\n            /* \"#utility.yul\":7:146   */\n          swap3\n          swap2\n          pop\n          pop\n          jump\t// out\n            /* \"#utility.yul\":152:291   */\n        tag_94:\n            /* \"#utility.yul\":198:203   */\n          0x00\n            /* \"#utility.yul\":236:242   */\n          dup2\n            /* \"#utility.yul\":223:243   */\n          calldataload\n            /* \"#utility.yul\":214:243   */\n          swap1\n          pop\n            /* \"#utility.yul\":252:285   */\n          tag_96\n            /* \"#utility.yul\":279:284   */\n          dup2\n            /* \"#utility.yul\":252:285   */\n          tag_97\n          jump\t// in\n        tag_96:\n            /* \"#utility.yul\":152:291   */\n          swap3\n          swap2\n          pop\n          pop\n          jump\t// out\n            /* \"#utility.yul\":297:626   */\n        tag_38:\n            /* \"#utility.yul\":356:362   */\n          0x00\n            /* \"#utility.yul\":405:407   */\n          0x20\n            /* \"#utility.yul\":393:402   */\n          dup3\n            /* \"#utility.yul\":384:391   */\n          dup5\n            /* \"#utility.yul\":380:403   */\n          sub\n            /* \"#utility.yul\":376:408   */\n          slt\n            /* \"#utility.yul\":373:492   */\n          iszero\n          tag_99\n          jumpi\n            /* \"#utility.yul\":411:490   */\n          tag_100\n          tag_101\n          jump\t// in\n        tag_100:\n            /* \"#utility.yul\":373:492   */\n        tag_99:\n            /* \"#utility.yul\":531:532   */\n          0x00\n            /* \"#utility.yul\":556:609   */\n          tag_102\n            /* \"#utility.yul\":601:608   */\n          dup5\n            /* \"#utility.yul\":592:598   */\n          dup3\n            /* \"#utility.yul\":581:590   */\n          dup6\n            /* \"#utility.yul\":577:599   */\n          add\n            /* \"#utility.yul\":556:609   */\n          tag_90\n          jump\t// in\n        tag_102:\n            /* \"#utility.yul\":546:609   */\n          swap2\n          pop\n            /* \"#utility.yul\":502:619   */\n          pop\n            /* \"#utility.yul\":297:626   */\n          swap3\n          swap2\n          pop\n          pop\n          jump\t// out\n            /* \"#utility.yul\":632:1106   */\n        tag_51:\n            /* \"#utility.yul\":700:706   */\n          0x00\n            /* \"#utility.yul\":708:714   */\n          dup1\n            /* \"#utility.yul\":757:759   */\n          0x40\n            /* \"#utility.yul\":745:754   */\n          dup4\n            /* \"#utility.yul\":736:743   */\n          dup6\n            /* \"#utility.yul\":732:755   */\n          sub\n            /* \"#utility.yul\":728:760   */\n          slt\n            /* \"#utility.yul\":725:844   */\n          iszero\n          tag_104\n          jumpi\n            /* \"#utility.yul\":763:842   */\n          tag_105\n          tag_101\n          jump\t// in\n        tag_105:\n            /* \"#utility.yul\":725:844   */\n        tag_104:\n            /* \"#utility.yul\":883:884   */\n          0x00\n            /* \"#utility.yul\":908:961   */\n          tag_106\n            /* \"#utility.yul\":953:960   */\n          dup6\n            /* \"#utility.yul\":944:950   */\n          dup3\n            /* \"#utility.yul\":933:942   */\n          dup7\n            /* \"#utility.yul\":929:951   */\n          add\n            /* \"#utility.yul\":908:961   */\n          tag_90\n          jump\t// in\n        tag_106:\n            /* \"#utility.yul\":898:961   */\n          swap3\n          pop\n            /* \"#utility.yul\":854:971   */\n          pop\n            /* \"#utility.yul\":1010:1012   */\n          0x20\n            /* \"#utility.yul\":1036:1089   */\n          tag_107\n            /* \"#utility.yul\":1081:1088   */\n          dup6\n            /* \"#utility.yul\":1072:1078   */\n          dup3\n            /* \"#utility.yul\":1061:1070   */\n          dup7\n            /* \"#utility.yul\":1057:1079   */\n          add\n            /* \"#utility.yul\":1036:1089   */\n          tag_90\n          jump\t// in\n        tag_107:\n            /* \"#utility.yul\":1026:1089   */\n          swap2\n          pop\n            /* \"#utility.yul\":981:1099   */\n          pop\n            /* \"#utility.yul\":632:1106   */\n          swap3\n          pop\n          swap3\n          swap1\n          pop\n          jump\t// out\n            /* \"#utility.yul\":1112:1731   */\n        tag_24:\n            /* \"#utility.yul\":1189:1195   */\n          0x00\n            /* \"#utility.yul\":1197:1203   */\n          dup1\n            /* \"#utility.yul\":1205:1211   */\n          0x00\n            /* \"#utility.yul\":1254:1256   */\n          0x60\n            /* \"#utility.yul\":1242:1251   */\n          dup5\n            /* \"#utility.yul\":1233:1240   */\n          dup7\n            /* \"#utility.yul\":1229:1252   */\n          sub\n            /* \"#utility.yul\":1225:1257   */\n          slt\n            /* \"#utility.yul\":1222:1341   */\n          iszero\n          tag_109\n          jumpi\n            /* \"#utility.yul\":1260:1339   */\n          tag_110\n          tag_101\n          jump\t// in\n        tag_110:\n            /* \"#utility.yul\":1222:1341   */\n        tag_109:\n            /* \"#utility.yul\":1380:1381   */\n          0x00\n            /* \"#utility.yul\":1405:1458   */\n          tag_111\n            /* \"#utility.yul\":1450:1457   */\n          dup7\n            /* \"#utility.yul\":1441:1447   */\n          dup3\n            /* \"#utility.yul\":1430:1439   */\n          dup8\n            /* \"#utility.yul\":1426:1448   */\n          add\n            /* \"#utility.yul\":1405:1458   */\n          tag_90\n          jump\t// in\n        tag_111:\n            /* \"#utility.yul\":1395:1458   */\n          swap4\n          pop\n            /* \"#utility.yul\":1351:1468   */\n          pop\n            /* \"#utility.yul\":1507:1509   */\n          0x20\n            /* \"#utility.yul\":1533:1586   */\n          tag_112\n            /* \"#utility.yul\":1578:1585   */\n          dup7\n            /* \"#utility.yul\":1569:1575   */\n          dup3\n            /* \"#utility.yul\":1558:1567   */\n          dup8\n            /* \"#utility.yul\":1554:1576   */\n          add\n            /* \"#utility.yul\":1533:1586   */\n          tag_90\n          jump\t// in\n        tag_112:\n            /* \"#utility.yul\":1523:1586   */\n          swap3\n          pop\n            /* \"#utility.yul\":1478:1596   */\n          pop\n            /* \"#utility.yul\":1635:1637   */\n          0x40\n            /* \"#utility.yul\":1661:1714   */\n          tag_113\n            /* \"#utility.yul\":1706:1713   */\n          dup7\n            /* \"#utility.yul\":1697:1703   */\n          dup3\n            /* \"#utility.yul\":1686:1695   */\n          dup8\n            /* \"#utility.yul\":1682:1704   */\n          add\n            /* \"#utility.yul\":1661:1714   */\n          tag_94\n          jump\t// in\n        tag_113:\n            /* \"#utility.yul\":1651:1714   */\n          swap2\n          pop\n            /* \"#utility.yul\":1606:1724   */\n          pop\n            /* \"#utility.yul\":1112:1731   */\n          swap3\n          pop\n          swap3\n          pop\n          swap3\n          jump\t// out\n            /* \"#utility.yul\":1737:2211   */\n        tag_46:\n            /* \"#utility.yul\":1805:1811   */\n          0x00\n            /* \"#utility.yul\":1813:1819   */\n          dup1\n            /* \"#utility.yul\":1862:1864   */\n          0x40\n            /* \"#utility.yul\":1850:1859   */\n          dup4\n            /* \"#utility.yul\":1841:1848   */\n          dup6\n            /* \"#utility.yul\":1837:1860   */\n          sub\n            /* \"#utility.yul\":1833:1865   */\n          slt\n            /* \"#utility.yul\":1830:1949   */\n          iszero\n          tag_115\n          jumpi\n            /* \"#utility.yul\":1868:1947   */\n          tag_116\n          tag_101\n          jump\t// in\n        tag_116:\n            /* \"#utility.yul\":1830:1949   */\n        tag_115:\n            /* \"#utility.yul\":1988:1989   */\n          0x00\n            /* \"#utility.yul\":2013:2066   */\n          tag_117\n            /* \"#utility.yul\":2058:2065   */\n          dup6\n            /* \"#utility.yul\":2049:2055   */\n          dup3\n            /* \"#utility.yul\":2038:2047   */\n          dup7\n            /* \"#utility.yul\":2034:2056   */\n          add\n            /* \"#utility.yul\":2013:2066   */\n          tag_90\n          jump\t// in\n        tag_117:\n            /* \"#utility.yul\":2003:2066   */\n          swap3\n          pop\n            /* \"#utility.yul\":1959:2076   */\n          pop\n            /* \"#utility.yul\":2115:2117   */\n          0x20\n            /* \"#utility.yul\":2141:2194   */\n          tag_118\n            /* \"#utility.yul\":2186:2193   */\n          dup6\n            /* \"#utility.yul\":2177:2183   */\n          dup3\n            /* \"#utility.yul\":2166:2175   */\n          dup7\n            /* \"#utility.yul\":2162:2184   */\n          add\n            /* \"#utility.yul\":2141:2194   */\n          tag_94\n          jump\t// in\n        tag_118:\n            /* \"#utility.yul\":2131:2194   */\n          swap2\n          pop\n            /* \"#utility.yul\":2086:2204   */\n          pop\n            /* \"#utility.yul\":1737:2211   */\n          swap3\n          pop\n          swap3\n          swap1\n          pop\n          jump\t// out\n            /* \"#utility.yul\":2217:2335   */\n        tag_119:\n            /* \"#utility.yul\":2304:2328   */\n          tag_121\n            /* \"#utility.yul\":2322:2327   */\n          dup2\n            /* \"#utility.yul\":2304:2328   */\n          tag_122\n          jump\t// in\n        tag_121:\n            /* \"#utility.yul\":2299:2302   */\n          dup3\n            /* \"#utility.yul\":2292:2329   */\n          mstore\n            /* \"#utility.yul\":2217:2335   */\n          pop\n          pop\n          jump\t// out\n            /* \"#utility.yul\":2341:2450   */\n        tag_123:\n            /* \"#utility.yul\":2422:2443   */\n          tag_125\n            /* \"#utility.yul\":2437:2442   */\n          dup2\n            /* \"#utility.yul\":2422:2443   */\n          tag_126\n          jump\t// in\n        tag_125:\n            /* \"#utility.yul\":2417:2420   */\n          dup3\n            /* \"#utility.yul\":2410:2444   */\n          mstore\n            /* \"#utility.yul\":2341:2450   */\n          pop\n          pop\n          jump\t// out\n            /* \"#utility.yul\":2456:2820   */\n        tag_127:\n            /* \"#utility.yul\":2544:2547   */\n          0x00\n            /* \"#utility.yul\":2572:2611   */\n          tag_129\n            /* \"#utility.yul\":2605:2610   */\n          dup3\n            /* \"#utility.yul\":2572:2611   */\n          tag_130\n          jump\t// in\n        tag_129:\n            /* \"#utility.yul\":2627:2698   */\n          tag_131\n            /* \"#utility.yul\":2691:2697   */\n          dup2\n            /* \"#utility.yul\":2686:2689   */\n          dup6\n            /* \"#utility.yul\":2627:2698   */\n          tag_132\n          jump\t// in\n        tag_131:\n            /* \"#utility.yul\":2620:2698   */\n          swap4\n          pop\n            /* \"#utility.yul\":2707:2759   */\n          tag_133\n            /* \"#utility.yul\":2752:2758   */\n          dup2\n            /* \"#utility.yul\":2747:2750   */\n          dup6\n            /* \"#utility.yul\":2740:2744   */\n          0x20\n            /* \"#utility.yul\":2733:2738   */\n          dup7\n            /* \"#utility.yul\":2729:2745   */\n          add\n            /* \"#utility.yul\":2707:2759   */\n          tag_134\n          jump\t// in\n        tag_133:\n            /* \"#utility.yul\":2784:2813   */\n          tag_135\n            /* \"#utility.yul\":2806:2812   */\n          dup2\n            /* \"#utility.yul\":2784:2813   */\n          tag_136\n          jump\t// in\n        tag_135:\n            /* \"#utility.yul\":2779:2782   */\n          dup5\n            /* \"#utility.yul\":2775:2814   */\n          add\n            /* \"#utility.yul\":2768:2814   */\n          swap2\n          pop\n            /* \"#utility.yul\":2548:2820   */\n          pop\n            /* \"#utility.yul\":2456:2820   */\n          swap3\n          swap2\n          pop\n          pop\n          jump\t// out\n            /* \"#utility.yul\":2826:2944   */\n        tag_137:\n            /* \"#utility.yul\":2913:2937   */\n          tag_139\n            /* \"#utility.yul\":2931:2936   */\n          dup2\n            /* \"#utility.yul\":2913:2937   */\n          tag_140\n          jump\t// in\n        tag_139:\n            /* \"#utility.yul\":2908:2911   */\n          dup3\n            /* \"#utility.yul\":2901:2938   */\n          mstore\n            /* \"#utility.yul\":2826:2944   */\n          pop\n          pop\n          jump\t// out\n            /* \"#utility.yul\":2950:3062   */\n        tag_141:\n            /* \"#utility.yul\":3033:3055   */\n          tag_143\n            /* \"#utility.yul\":3049:3054   */\n          dup2\n            /* \"#utility.yul\":3033:3055   */\n          tag_144\n          jump\t// in\n        tag_143:\n            /* \"#utility.yul\":3028:3031   */\n          dup3\n            /* \"#utility.yul\":3021:3056   */\n          mstore\n            /* \"#utility.yul\":2950:3062   */\n          pop\n          pop\n          jump\t// out\n            /* \"#utility.yul\":3068:3290   */\n        tag_35:\n            /* \"#utility.yul\":3161:3165   */\n          0x00\n            /* \"#utility.yul\":3199:3201   */\n          0x20\n            /* \"#utility.yul\":3188:3197   */\n          dup3\n            /* \"#utility.yul\":3184:3202   */\n          add\n            /* \"#utility.yul\":3176:3202   */\n          swap1\n          pop\n            /* \"#utility.yul\":3212:3283   */\n          tag_146\n            /* \"#utility.yul\":3280:3281   */\n          0x00\n            /* \"#utility.yul\":3269:3278   */\n          dup4\n            /* \"#utility.yul\":3265:3282   */\n          add\n            /* \"#utility.yul\":3256:3262   */\n          dup5\n            /* \"#utility.yul\":3212:3283   */\n          tag_119\n          jump\t// in\n        tag_146:\n            /* \"#utility.yul\":3068:3290   */\n          swap3\n          swap2\n          pop\n          pop\n          jump\t// out\n            /* \"#utility.yul\":3296:3506   */\n        tag_27:\n            /* \"#utility.yul\":3383:3387   */\n          0x00\n            /* \"#utility.yul\":3421:3423   */\n          0x20\n            /* \"#utility.yul\":3410:3419   */\n          dup3\n            /* \"#utility.yul\":3406:3424   */\n          add\n            /* \"#utility.yul\":3398:3424   */\n          swap1\n          pop\n            /* \"#utility.yul\":3434:3499   */\n          tag_148\n            /* \"#utility.yul\":3496:3497   */\n          0x00\n            /* \"#utility.yul\":3485:3494   */\n          dup4\n            /* \"#utility.yul\":3481:3498   */\n          add\n            /* \"#utility.yul\":3472:3478   */\n          dup5\n            /* \"#utility.yul\":3434:3499   */\n          tag_123\n          jump\t// in\n        tag_148:\n            /* \"#utility.yul\":3296:3506   */\n          swap3\n          swap2\n          pop\n          pop\n          jump\t// out\n            /* \"#utility.yul\":3512:3825   */\n        tag_17:\n            /* \"#utility.yul\":3625:3629   */\n          0x00\n            /* \"#utility.yul\":3663:3665   */\n          0x20\n            /* \"#utility.yul\":3652:3661   */\n          dup3\n            /* \"#utility.yul\":3648:3666   */\n          add\n            /* \"#utility.yul\":3640:3666   */\n          swap1\n          pop\n            /* \"#utility.yul\":3712:3721   */\n          dup2\n            /* \"#utility.yul\":3706:3710   */\n          dup2\n            /* \"#utility.yul\":3702:3722   */\n          sub\n            /* \"#utility.yul\":3698:3699   */\n          0x00\n            /* \"#utility.yul\":3687:3696   */\n          dup4\n            /* \"#utility.yul\":3683:3700   */\n          add\n            /* \"#utility.yul\":3676:3723   */\n          mstore\n            /* \"#utility.yul\":3740:3818   */\n          tag_150\n            /* \"#utility.yul\":3813:3817   */\n          dup2\n            /* \"#utility.yul\":3804:3810   */\n          dup5\n            /* \"#utility.yul\":3740:3818   */\n          tag_127\n          jump\t// in\n        tag_150:\n            /* \"#utility.yul\":3732:3818   */\n          swap1\n          pop\n            /* \"#utility.yul\":3512:3825   */\n          swap3\n          swap2\n          pop\n          pop\n          jump\t// out\n            /* \"#utility.yul\":3831:4053   */\n        tag_21:\n            /* \"#utility.yul\":3924:3928   */\n          0x00\n            /* \"#utility.yul\":3962:3964   */\n          0x20\n            /* \"#utility.yul\":3951:3960   */\n          dup3\n            /* \"#utility.yul\":3947:3965   */\n          add\n            /* \"#utility.yul\":3939:3965   */\n          swap1\n          pop\n            /* \"#utility.yul\":3975:4046   */\n          tag_152\n            /* \"#utility.yul\":4043:4044   */\n          0x00\n            /* \"#utility.yul\":4032:4041   */\n          dup4\n            /* \"#utility.yul\":4028:4045   */\n          add\n            /* \"#utility.yul\":4019:4025   */\n          dup5\n            /* \"#utility.yul\":3975:4046   */\n          tag_137\n          jump\t// in\n        tag_152:\n            /* \"#utility.yul\":3831:4053   */\n          swap3\n          swap2\n          pop\n          pop\n          jump\t// out\n            /* \"#utility.yul\":4059:4273   */\n        tag_31:\n            /* \"#utility.yul\":4148:4152   */\n          0x00\n            /* \"#utility.yul\":4186:4188   */\n          0x20\n            /* \"#utility.yul\":4175:4184   */\n          dup3\n            /* \"#utility.yul\":4171:4189   */\n          add\n            /* \"#utility.yul\":4163:4189   */\n          swap1\n          pop\n            /* \"#utility.yul\":4199:4266   */\n          tag_154\n            /* \"#utility.yul\":4263:4264   */\n          0x00\n            /* \"#utility.yul\":4252:4261   */\n          dup4\n            /* \"#utility.yul\":4248:4265   */\n          add\n            /* \"#utility.yul\":4239:4245   */\n          dup5\n            /* \"#utility.yul\":4199:4266   */\n          tag_141\n          jump\t// in\n        tag_154:\n            /* \"#utility.yul\":4059:4273   */\n          swap3\n          swap2\n          pop\n          pop\n          jump\t// out\n            /* \"#utility.yul\":4360:4459   */\n        tag_130:\n            /* \"#utility.yul\":4412:4418   */\n          0x00\n            /* \"#utility.yul\":4446:4451   */\n          dup2\n            /* \"#utility.yul\":4440:4452   */\n          mload\n            /* \"#utility.yul\":4430:4452   */\n          swap1\n          pop\n            /* \"#utility.yul\":4360:4459   */\n          swap2\n          swap1\n          pop\n          jump\t// out\n            /* \"#utility.yul\":4465:4634   */\n        tag_132:\n            /* \"#utility.yul\":4549:4560   */\n          0x00\n            /* \"#utility.yul\":4583:4589   */\n          dup3\n            /* \"#utility.yul\":4578:4581   */\n          dup3\n            /* \"#utility.yul\":4571:4590   */\n          mstore\n            /* \"#utility.yul\":4623:4627   */\n          0x20\n            /* \"#utility.yul\":4618:4621   */\n          dup3\n            /* \"#utility.yul\":4614:4628   */\n          add\n            /* \"#utility.yul\":4599:4628   */\n          swap1\n          pop\n            /* \"#utility.yul\":4465:4634   */\n          swap3\n          swap2\n          pop\n          pop\n          jump\t// out\n            /* \"#utility.yul\":4640:4945   */\n        tag_86:\n            /* \"#utility.yul\":4680:4683   */\n          0x00\n            /* \"#utility.yul\":4699:4719   */\n          tag_160\n            /* \"#utility.yul\":4717:4718   */\n          dup3\n            /* \"#utility.yul\":4699:4719   */\n          tag_140\n          jump\t// in\n        tag_160:\n            /* \"#utility.yul\":4694:4719   */\n          swap2\n          pop\n            /* \"#utility.yul\":4733:4753   */\n          tag_161\n            /* \"#utility.yul\":4751:4752   */\n          dup4\n            /* \"#utility.yul\":4733:4753   */\n          tag_140\n          jump\t// in\n        tag_161:\n            /* \"#utility.yul\":4728:4753   */\n          swap3\n          pop\n            /* \"#utility.yul\":4887:4888   */\n          dup3\n            /* \"#utility.yul\":4819:4885   */\n          0xffffffffffffffffffffffffffffffffffffffffffffffffffffffffffffffff\n            /* \"#utility.yul\":4815:4889   */\n          sub\n            /* \"#utility.yul\":4812:4813   */\n          dup3\n            /* \"#utility.yul\":4809:4890   */\n          gt\n            /* \"#utility.yul\":4806:4913   */\n          iszero\n          tag_162\n          jumpi\n            /* \"#utility.yul\":4893:4911   */\n          tag_163\n          tag_164\n          jump\t// in\n        tag_163:\n            /* \"#utility.yul\":4806:4913   */\n        tag_162:\n            /* \"#utility.yul\":4937:4938   */\n          dup3\n            /* \"#utility.yul\":4934:4935   */\n          dup3\n            /* \"#utility.yul\":4930:4939   */\n          add\n            /* \"#utility.yul\":4923:4939   */\n          swap1\n          pop\n            /* \"#utility.yul\":4640:4945   */\n          swap3\n          swap2\n          pop\n          pop\n          jump\t// out\n            /* \"#utility.yul\":4951:5142   */\n        tag_83:\n            /* \"#utility.yul\":4991:4995   */\n          0x00\n            /* \"#utility.yul\":5011:5031   */\n          tag_166\n            /* \"#utility.yul\":5029:5030   */\n          dup3\n            /* \"#utility.yul\":5011:5031   */\n          tag_140\n          jump\t// in\n        tag_166:\n            /* \"#utility.yul\":5006:5031   */\n          swap2\n          pop\n            /* \"#utility.yul\":5045:5065   */\n          tag_167\n            /* \"#utility.yul\":5063:5064   */\n          dup4\n            /* \"#utility.yul\":5045:5065   */\n          tag_140\n          jump\t// in\n        tag_167:\n            /* \"#utility.yul\":5040:5065   */\n          swap3\n          pop\n            /* \"#utility.yul\":5084:5085   */\n          dup3\n            /* \"#utility.yul\":5081:5082   */\n          dup3\n            /* \"#utility.yul\":5078:5086   */\n          lt\n            /* \"#utility.yul\":5075:5109   */\n          iszero\n          tag_168\n          jumpi\n            /* \"#utility.yul\":5089:5107   */\n          tag_169\n          tag_164\n          jump\t// in\n        tag_169:\n            /* \"#utility.yul\":5075:5109   */\n        tag_168:\n            /* \"#utility.yul\":5134:5135   */\n          dup3\n            /* \"#utility.yul\":5131:5132   */\n          dup3\n            /* \"#utility.yul\":5127:5136   */\n          sub\n            /* \"#utility.yul\":5119:5136   */\n          swap1\n          pop\n            /* \"#utility.yul\":4951:5142   */\n          swap3\n          swap2\n          pop\n          pop\n          jump\t// out\n            /* \"#utility.yul\":5148:5244   */\n        tag_122:\n            /* \"#utility.yul\":5185:5192   */\n          0x00\n            /* \"#utility.yul\":5214:5238   */\n          tag_171\n            /* \"#utility.yul\":5232:5237   */\n          dup3\n            /* \"#utility.yul\":5214:5238   */\n          tag_172\n          jump\t// in\n        tag_171:\n            /* \"#utility.yul\":5203:5238   */\n          swap1\n          pop\n            /* \"#utility.yul\":5148:5244   */\n          swap2\n          swap1\n          pop\n          jump\t// out\n            /* \"#utility.yul\":5250:5340   */\n        tag_126:\n            /* \"#utility.yul\":5284:5291   */\n          0x00\n            /* \"#utility.yul\":5327:5332   */\n          dup2\n            /* \"#utility.yul\":5320:5333   */\n          iszero\n            /* \"#utility.yul\":5313:5334   */\n          iszero\n            /* \"#utility.yul\":5302:5334   */\n          swap1\n          pop\n            /* \"#utility.yul\":5250:5340   */\n          swap2\n          swap1\n          pop\n          jump\t// out\n            /* \"#utility.yul\":5346:5472   */\n        tag_172:\n            /* \"#utility.yul\":5383:5390   */\n          0x00\n            /* \"#utility.yul\":5423:5465   */\n          0xffffffffffffffffffffffffffffffffffffffff\n            /* \"#utility.yul\":5416:5421   */\n          dup3\n            /* \"#utility.yul\":5412:5466   */\n          and\n            /* \"#utility.yul\":5401:5466   */\n          swap1\n          pop\n            /* \"#utility.yul\":5346:5472   */\n          swap2\n          swap1\n          pop\n          jump\t// out\n            /* \"#utility.yul\":5478:5555   */\n        tag_140:\n            /* \"#utility.yul\":5515:5522   */\n          0x00\n            /* \"#utility.yul\":5544:5549   */\n          dup2\n            /* \"#utility.yul\":5533:5549   */\n          swap1\n          pop\n            /* \"#utility.yul\":5478:5555   */\n          swap2\n          swap1\n          pop\n          jump\t// out\n            /* \"#utility.yul\":5561:5647   */\n        tag_144:\n            /* \"#utility.yul\":5596:5603   */\n          0x00\n            /* \"#utility.yul\":5636:5640   */\n          0xff\n            /* \"#utility.yul\":5629:5634   */\n          dup3\n            /* \"#utility.yul\":5625:5641   */\n          and\n            /* \"#utility.yul\":5614:5641   */\n          swap1\n          pop\n            /* \"#utility.yul\":5561:5647   */\n          swap2\n          swap1\n          pop\n          jump\t// out\n            /* \"#utility.yul\":5653:5960   */\n        tag_134:\n            /* \"#utility.yul\":5721:5722   */\n          0x00\n            /* \"#utility.yul\":5731:5844   */\n        tag_178:\n            /* \"#utility.yul\":5745:5751   */\n          dup4\n            /* \"#utility.yul\":5742:5743   */\n          dup2\n            /* \"#utility.yul\":5739:5752   */\n          lt\n            /* \"#utility.yul\":5731:5844   */\n          iszero\n          tag_180\n          jumpi\n            /* \"#utility.yul\":5830:5831   */\n          dup1\n            /* \"#utility.yul\":5825:5828   */\n          dup3\n            /* \"#utility.yul\":5821:5832   */\n          add\n            /* \"#utility.yul\":5815:5833   */\n          mload\n            /* \"#utility.yul\":5811:5812   */\n          dup2\n            /* \"#utility.yul\":5806:5809   */\n          dup5\n            /* \"#utility.yul\":5802:5813   */\n          add\n            /* \"#utility.yul\":5795:5834   */\n          mstore\n            /* \"#utility.yul\":5767:5769   */\n          0x20\n            /* \"#utility.yul\":5764:5765   */\n          dup2\n            /* \"#utility.yul\":5760:5770   */\n          add\n            /* \"#utility.yul\":5755:5770   */\n          swap1\n          pop\n            /* \"#utility.yul\":5731:5844   */\n          jump(tag_178)\n        tag_180:\n            /* \"#utility.yul\":5862:5868   */\n          dup4\n            /* \"#utility.yul\":5859:5860   */\n          dup2\n            /* \"#utility.yul\":5856:5869   */\n          gt\n            /* \"#utility.yul\":5853:5954   */\n          iszero\n          tag_181\n          jumpi\n            /* \"#utility.yul\":5942:5943   */\n          0x00\n            /* \"#utility.yul\":5933:5939   */\n          dup5\n            /* \"#utility.yul\":5928:5931   */\n          dup5\n            /* \"#utility.yul\":5924:5940   */\n          add\n            /* \"#utility.yul\":5917:5944   */\n          mstore\n            /* \"#utility.yul\":5853:5954   */\n        tag_181:\n            /* \"#utility.yul\":5702:5960   */\n          pop\n            /* \"#utility.yul\":5653:5960   */\n          pop\n          pop\n          pop\n          jump\t// out\n            /* \"#utility.yul\":5966:6146   */\n        tag_81:\n            /* \"#utility.yul\":6014:6091   */\n          0x4e487b7100000000000000000000000000000000000000000000000000000000\n            /* \"#utility.yul\":6011:6012   */\n          0x00\n            /* \"#utility.yul\":6004:6092   */\n          mstore\n            /* \"#utility.yul\":6111:6115   */\n          0x01\n            /* \"#utility.yul\":6108:6109   */\n          0x04\n            /* \"#utility.yul\":6101:6116   */\n          mstore\n            /* \"#utility.yul\":6135:6139   */\n          0x24\n            /* \"#utility.yul\":6132:6133   */\n          0x00\n            /* \"#utility.yul\":6125:6140   */\n          revert\n            /* \"#utility.yul\":6152:6332   */\n        tag_164:\n            /* \"#utility.yul\":6200:6277   */\n          0x4e487b7100000000000000000000000000000000000000000000000000000000\n            /* \"#utility.yul\":6197:6198   */\n          0x00\n            /* \"#utility.yul\":6190:6278   */\n          mstore\n            /* \"#utility.yul\":6297:6301   */\n          0x11\n            /* \"#utility.yul\":6294:6295   */\n          0x04\n            /* \"#utility.yul\":6287:6302   */\n          mstore\n            /* \"#utility.yul\":6321:6325   */\n          0x24\n            /* \"#utility.yul\":6318:6319   */\n          0x00\n            /* \"#utility.yul\":6311:6326   */\n          revert\n            /* \"#utility.yul\":6461:6578   */\n        tag_101:\n            /* \"#utility.yul\":6570:6571   */\n          0x00\n            /* \"#utility.yul\":6567:6568   */\n          dup1\n            /* \"#utility.yul\":6560:6572   */\n          revert\n            /* \"#utility.yul\":6584:6686   */\n        tag_136:\n            /* \"#utility.yul\":6625:6631   */\n          0x00\n            /* \"#utility.yul\":6676:6678   */\n          0x1f\n            /* \"#utility.yul\":6672:6679   */\n          not\n            /* \"#utility.yul\":6667:6669   */\n          0x1f\n            /* \"#utility.yul\":6660:6665   */\n          dup4\n            /* \"#utility.yul\":6656:6670   */\n          add\n            /* \"#utility.yul\":6652:6680   */\n          and\n            /* \"#utility.yul\":6642:6680   */\n          swap1\n          pop\n            /* \"#utility.yul\":6584:6686   */\n          swap2\n          swap1\n          pop\n          jump\t// out\n            /* \"#utility.yul\":6692:6814   */\n        tag_93:\n            /* \"#utility.yul\":6765:6789   */\n          tag_189\n            /* \"#utility.yul\":6783:6788   */\n          dup2\n            /* \"#utility.yul\":6765:6789   */\n          tag_122\n          jump\t// in\n        tag_189:\n            /* \"#utility.yul\":6758:6763   */\n          dup2\n            /* \"#utility.yul\":6755:6790   */\n          eq\n            /* \"#utility.yul\":6745:6808   */\n          tag_190\n          jumpi\n            /* \"#utility.yul\":6804:6805   */\n          0x00\n            /* \"#utility.yul\":6801:6802   */\n          dup1\n            /* \"#utility.yul\":6794:6806   */\n          revert\n            /* \"#utility.yul\":6745:6808   */\n        tag_190:\n            /* \"#utility.yul\":6692:6814   */\n          pop\n          jump\t// out\n            /* \"#utility.yul\":6820:6942   */\n        tag_97:\n            /* \"#utility.yul\":6893:6917   */\n          tag_192\n            /* \"#utility.yul\":6911:6916   */\n          dup2\n            /* \"#utility.yul\":6893:6917   */\n          tag_140\n          jump\t// in\n        tag_192:\n            /* \"#utility.yul\":6886:6891   */\n          dup2\n            /* \"#utility.yul\":6883:6918   */\n          eq\n            /* \"#utility.yul\":6873:6936   */\n          tag_193\n          jumpi\n            /* \"#utility.yul\":6932:6933   */\n          0x00\n            /* \"#utility.yul\":6929:6930   */\n          dup1\n            /* \"#utility.yul\":6922:6934   */\n          revert\n            /* \"#utility.yul\":6873:6936   */\n        tag_193:\n            /* \"#utility.yul\":6820:6942   */\n          pop\n          jump\t// out\n\n        auxdata: 0xa26469706673582212206f67708371b6a226a693533ffa2f5a10cf1ff6572476f7ac8b55425ac19a0c6764736f6c63430008070033\n    }\n}\n",
				"bytecode": {
					"linkReferences": {},
					"object": "608060405234801561001057600080fd5b5060405161001d9061007e565b604051809103906000f080158015610039573d6000803e3d6000fd5b506000806101000a81548173ffffffffffffffffffffffffffffffffffffffff021916908373ffffffffffffffffffffffffffffffffffffffff16021790555061008b565b610ec880610d9d83390190565b610d038061009a6000396000f3fe6080604052600436106100705760003560e01c8063590791f21161004e578063590791f2146100f6578063a6f2ae3a14610121578063e4849b321461012b578063fc0c546a1461014757610070565b806310fe9ae81461007557806338cc4831146100a0578063430f4801146100cb575b600080fd5b34801561008157600080fd5b5061008a610172565b60405161009791906109aa565b60405180910390f35b3480156100ac57600080fd5b506100b5610218565b6040516100c291906109aa565b60405180910390f35b3480156100d757600080fd5b506100e0610220565b6040516100ed9190610ae9565b60405180910390f35b34801561010257600080fd5b5061010b6102d1565b6040516101189190610ae9565b60405180910390f35b610129610382565b005b61014560048036038101906101409190610897565b6105a4565b005b34801561015357600080fd5b5061015c6107c5565b6040516101699190610a4e565b60405180910390f35b60008060009054906101000a900473ffffffffffffffffffffffffffffffffffffffff1673ffffffffffffffffffffffffffffffffffffffff166338cc48316040518163ffffffff1660e01b815260040160206040518083038186803b1580156101db57600080fd5b505afa1580156101ef573d6000803e3d6000fd5b505050506040513d601f19601f82011682018060405250810190610213919061083d565b905090565b600030905090565b60008060009054906101000a900473ffffffffffffffffffffffffffffffffffffffff1673ffffffffffffffffffffffffffffffffffffffff166370a08231306040518263ffffffff1660e01b815260040161027c91906109aa565b60206040518083038186803b15801561029457600080fd5b505afa1580156102a8573d6000803e3d6000fd5b505050506040513d601f19601f820116820180604052508101906102cc91906108c4565b905090565b60008060009054906101000a900473ffffffffffffffffffffffffffffffffffffffff1673ffffffffffffffffffffffffffffffffffffffff166370a08231336040518263ffffffff1660e01b815260040161032d91906109aa565b60206040518083038186803b15801561034557600080fd5b505afa158015610359573d6000803e3d6000fd5b505050506040513d601f19601f8201168201806040525081019061037d91906108c4565b905090565b600034905060008060009054906101000a900473ffffffffffffffffffffffffffffffffffffffff1673ffffffffffffffffffffffffffffffffffffffff166370a08231306040518263ffffffff1660e01b81526004016103e391906109aa565b60206040518083038186803b1580156103fb57600080fd5b505afa15801561040f573d6000803e3d6000fd5b505050506040513d601f19601f8201168201806040525081019061043391906108c4565b905060008211610478576040517f08c379a000000000000000000000000000000000000000000000000000000000815260040161046f90610aa9565b60405180910390fd5b808211156104bb576040517f08c379a00000000000000000000000000000000000000000000000000000000081526004016104b290610a89565b60405180910390fd5b60008054906101000a900473ffffffffffffffffffffffffffffffffffffffff1673ffffffffffffffffffffffffffffffffffffffff1663a9059cbb33846040518363ffffffff1660e01b8152600401610516929190610a25565b602060405180830381600087803b15801561053057600080fd5b505af1158015610544573d6000803e3d6000fd5b505050506040513d601f19601f82011682018060405250810190610568919061086a565b507f4e08ba899977cf7d4c2964bce71c6b9a7ef76ee5166a4c1249a1e08016e33ef1826040516105989190610ae9565b60405180910390a15050565b600081116105e7576040517f08c379a00000000000000000000000000000000000000000000000000000000081526004016105de90610a69565b60405180910390fd5b60008060009054906101000a900473ffffffffffffffffffffffffffffffffffffffff1673ffffffffffffffffffffffffffffffffffffffff1663dd62ed3e33306040518363ffffffff1660e01b81526004016106459291906109c5565b60206040518083038186803b15801561065d57600080fd5b505afa158015610671573d6000803e3d6000fd5b505050506040513d601f19601f8201168201806040525081019061069591906108c4565b9050818110156106da576040517f08c379a00000000000000000000000000000000000000000000000000000000081526004016106d190610ac9565b60405180910390fd5b60008054906101000a900473ffffffffffffffffffffffffffffffffffffffff1673ffffffffffffffffffffffffffffffffffffffff166323b872dd3330856040518463ffffffff1660e01b8152600401610737939291906109ee565b602060405180830381600087803b15801561075157600080fd5b505af1158015610765573d6000803e3d6000fd5b505050506040513d601f19601f82011682018060405250810190610789919061086a565b507f92f64ca637d023f354075a4be751b169c1a8a9ccb6d33cdd0cb3520543995727826040516107b99190610ae9565b60405180910390a15050565b60008054906101000a900473ffffffffffffffffffffffffffffffffffffffff1681565b6000815190506107f881610c88565b92915050565b60008151905061080d81610c9f565b92915050565b60008135905061082281610cb6565b92915050565b60008151905061083781610cb6565b92915050565b60006020828403121561085357610852610b93565b5b6000610861848285016107e9565b91505092915050565b6000602082840312156108805761087f610b93565b5b600061088e848285016107fe565b91505092915050565b6000602082840312156108ad576108ac610b93565b5b60006108bb84828501610813565b91505092915050565b6000602082840312156108da576108d9610b93565b5b60006108e884828501610828565b91505092915050565b6108fa81610b15565b82525050565b61090981610b5d565b82525050565b600061091c602283610b04565b915061092782610b98565b604082019050919050565b600061093f602183610b04565b915061094a82610be7565b604082019050919050565b6000610962601c83610b04565b915061096d82610c36565b602082019050919050565b6000610985601a83610b04565b915061099082610c5f565b602082019050919050565b6109a481610b53565b82525050565b60006020820190506109bf60008301846108f1565b92915050565b60006040820190506109da60008301856108f1565b6109e760208301846108f1565b9392505050565b6000606082019050610a0360008301866108f1565b610a1060208301856108f1565b610a1d604083018461099b565b949350505050565b6000604082019050610a3a60008301856108f1565b610a47602083018461099b565b9392505050565b6000602082019050610a636000830184610900565b92915050565b60006020820190508181036000830152610a828161090f565b9050919050565b60006020820190508181036000830152610aa281610932565b9050919050565b60006020820190508181036000830152610ac281610955565b9050919050565b60006020820190508181036000830152610ae281610978565b9050919050565b6000602082019050610afe600083018461099b565b92915050565b600082825260208201905092915050565b6000610b2082610b33565b9050919050565b60008115159050919050565b600073ffffffffffffffffffffffffffffffffffffffff82169050919050565b6000819050919050565b6000610b6882610b6f565b9050919050565b6000610b7a82610b81565b9050919050565b6000610b8c82610b33565b9050919050565b600080fd5b7f596f75206e65656420746f2073656c6c206174206c65617374203120746f6b6560008201527f6e21000000000000000000000000000000000000000000000000000000000000602082015250565b7f4e6f7420656e6f75676820746f6b656e7320696e20746865207265766572736560008201527f2100000000000000000000000000000000000000000000000000000000000000602082015250565b7f596f75206e65656420746f2073656e6420736f6d652065746865722100000000600082015250565b7f436865636b2074686520746f6b656e20616c6c6f77616e636521000000000000600082015250565b610c9181610b15565b8114610c9c57600080fd5b50565b610ca881610b27565b8114610cb357600080fd5b50565b610cbf81610b53565b8114610cca57600080fd5b5056fea2646970667358221220efa26a7bc35cc4187cd9aa9a5e9d8fd734a5db7ffed8725dfa37b8d4326e494264736f6c634300080700336080604052678ac7230489e8000060025534801561001c57600080fd5b506002546000803373ffffffffffffffffffffffffffffffffffffffff1673ffffffffffffffffffffffffffffffffffffffff16815260200190815260200160002081905550610e57806100716000396000f3fe608060405234801561001057600080fd5b506004361061009e5760003560e01c806370a082311161006657806370a082311461014b57806395d89b411461017b578063a9059cbb14610199578063dd62ed3e146101c9578063e1f21c67146101f95761009e565b806306fdde03146100a357806318160ddd146100c157806323b872dd146100df578063313ce5671461010f57806338cc48311461012d575b600080fd5b6100ab610229565b6040516100b89190610bf9565b60405180910390f35b6100c9610262565b6040516100d69190610c1b565b60405180910390f35b6100f960048036038101906100f49190610abb565b61026c565b6040516101069190610bde565b60405180910390f35b6101176105e7565b6040516101249190610c36565b60405180910390f35b6101356105ec565b6040516101429190610bc3565b60405180910390f35b61016560048036038101906101609190610a4e565b6105f4565b6040516101729190610c1b565b60405180910390f35b61018361063c565b6040516101909190610bf9565b60405180910390f35b6101b360048036038101906101ae9190610b0e565b610675565b6040516101c09190610bde565b60405180910390f35b6101e360048036038101906101de9190610a7b565b610857565b6040516101f09190610c1b565b60405180910390f35b610213600480360381019061020e9190610abb565b6108de565b6040516102209190610bde565b60405180910390f35b6040518060400160405280601281526020017f45524332302d5869616f6368756e436f696e000000000000000000000000000081525081565b6000600254905090565b60008060008573ffffffffffffffffffffffffffffffffffffffff1673ffffffffffffffffffffffffffffffffffffffff168152602001908152602001600020548211156102b957600080fd5b600160008573ffffffffffffffffffffffffffffffffffffffff1673ffffffffffffffffffffffffffffffffffffffff16815260200190815260200160002060003373ffffffffffffffffffffffffffffffffffffffff1673ffffffffffffffffffffffffffffffffffffffff1681526020019081526020016000205482111561034257600080fd5b610393826000808773ffffffffffffffffffffffffffffffffffffffff1673ffffffffffffffffffffffffffffffffffffffff168152602001908152602001600020546109d190919063ffffffff16565b6000808673ffffffffffffffffffffffffffffffffffffffff1673ffffffffffffffffffffffffffffffffffffffff1681526020019081526020016000208190555061046482600160008773ffffffffffffffffffffffffffffffffffffffff1673ffffffffffffffffffffffffffffffffffffffff16815260200190815260200160002060008673ffffffffffffffffffffffffffffffffffffffff1673ffffffffffffffffffffffffffffffffffffffff168152602001908152602001600020546109d190919063ffffffff16565b600160008673ffffffffffffffffffffffffffffffffffffffff1673ffffffffffffffffffffffffffffffffffffffff16815260200190815260200160002060008573ffffffffffffffffffffffffffffffffffffffff1673ffffffffffffffffffffffffffffffffffffffff16815260200190815260200160002081905550610535826000808673ffffffffffffffffffffffffffffffffffffffff1673ffffffffffffffffffffffffffffffffffffffff168152602001908152602001600020546109f890919063ffffffff16565b6000808573ffffffffffffffffffffffffffffffffffffffff1673ffffffffffffffffffffffffffffffffffffffff168152602001908152602001600020819055508273ffffffffffffffffffffffffffffffffffffffff168473ffffffffffffffffffffffffffffffffffffffff167f5225eac2a7facfbeb099c00a4cc7c457701324f1fd84b84b14033f9e911374a4846040516105d49190610c1b565b60405180910390a3600190509392505050565b601281565b600030905090565b60008060008373ffffffffffffffffffffffffffffffffffffffff1673ffffffffffffffffffffffffffffffffffffffff168152602001908152602001600020549050919050565b6040518060400160405280600781526020017f4552432d5843430000000000000000000000000000000000000000000000000081525081565b60008060003373ffffffffffffffffffffffffffffffffffffffff1673ffffffffffffffffffffffffffffffffffffffff168152602001908152602001600020548211156106c257600080fd5b610713826000803373ffffffffffffffffffffffffffffffffffffffff1673ffffffffffffffffffffffffffffffffffffffff168152602001908152602001600020546109d190919063ffffffff16565b6000803373ffffffffffffffffffffffffffffffffffffffff1673ffffffffffffffffffffffffffffffffffffffff168152602001908152602001600020819055506107a6826000808673ffffffffffffffffffffffffffffffffffffffff1673ffffffffffffffffffffffffffffffffffffffff168152602001908152602001600020546109f890919063ffffffff16565b6000808573ffffffffffffffffffffffffffffffffffffffff1673ffffffffffffffffffffffffffffffffffffffff168152602001908152602001600020819055508273ffffffffffffffffffffffffffffffffffffffff163373ffffffffffffffffffffffffffffffffffffffff167f5225eac2a7facfbeb099c00a4cc7c457701324f1fd84b84b14033f9e911374a4846040516108459190610c1b565b60405180910390a36001905092915050565b6000600160008473ffffffffffffffffffffffffffffffffffffffff1673ffffffffffffffffffffffffffffffffffffffff16815260200190815260200160002060008373ffffffffffffffffffffffffffffffffffffffff1673ffffffffffffffffffffffffffffffffffffffff16815260200190815260200160002054905092915050565b600081600160008673ffffffffffffffffffffffffffffffffffffffff1673ffffffffffffffffffffffffffffffffffffffff16815260200190815260200160002060008573ffffffffffffffffffffffffffffffffffffffff1673ffffffffffffffffffffffffffffffffffffffff168152602001908152602001600020819055508273ffffffffffffffffffffffffffffffffffffffff168473ffffffffffffffffffffffffffffffffffffffff167f8c5be1e5ebec7d5bd14f71427d1e84f3dd0314c0f7b2291e5b200ac8c7c3b925846040516109be9190610c1b565b60405180910390a3600190509392505050565b6000828211156109e4576109e3610d7f565b5b81836109f09190610cc3565b905092915050565b6000808284610a079190610c6d565b905083811015610a1a57610a19610d7f565b5b8091505092915050565b600081359050610a3381610df3565b92915050565b600081359050610a4881610e0a565b92915050565b600060208284031215610a6457610a63610ddd565b5b6000610a7284828501610a24565b91505092915050565b60008060408385031215610a9257610a91610ddd565b5b6000610aa085828601610a24565b9250506020610ab185828601610a24565b9150509250929050565b600080600060608486031215610ad457610ad3610ddd565b5b6000610ae286828701610a24565b9350506020610af386828701610a24565b9250506040610b0486828701610a39565b9150509250925092565b60008060408385031215610b2557610b24610ddd565b5b6000610b3385828601610a24565b9250506020610b4485828601610a39565b9150509250929050565b610b5781610cf7565b82525050565b610b6681610d09565b82525050565b6000610b7782610c51565b610b818185610c5c565b9350610b91818560208601610d4c565b610b9a81610de2565b840191505092915050565b610bae81610d35565b82525050565b610bbd81610d3f565b82525050565b6000602082019050610bd86000830184610b4e565b92915050565b6000602082019050610bf36000830184610b5d565b92915050565b60006020820190508181036000830152610c138184610b6c565b905092915050565b6000602082019050610c306000830184610ba5565b92915050565b6000602082019050610c4b6000830184610bb4565b92915050565b600081519050919050565b600082825260208201905092915050565b6000610c7882610d35565b9150610c8383610d35565b9250827fffffffffffffffffffffffffffffffffffffffffffffffffffffffffffffffff03821115610cb857610cb7610dae565b5b828201905092915050565b6000610cce82610d35565b9150610cd983610d35565b925082821015610cec57610ceb610dae565b5b828203905092915050565b6000610d0282610d15565b9050919050565b60008115159050919050565b600073ffffffffffffffffffffffffffffffffffffffff82169050919050565b6000819050919050565b600060ff82169050919050565b60005b83811015610d6a578082015181840152602081019050610d4f565b83811115610d79576000848401525b50505050565b7f4e487b7100000000000000000000000000000000000000000000000000000000600052600160045260246000fd5b7f4e487b7100000000000000000000000000000000000000000000000000000000600052601160045260246000fd5b600080fd5b6000601f19601f8301169050919050565b610dfc81610cf7565b8114610e0757600080fd5b50565b610e1381610d35565b8114610e1e57600080fd5b5056fea26469706673582212206f67708371b6a226a693533ffa2f5a10cf1ff6572476f7ac8b55425ac19a0c6764736f6c63430008070033",
					"opcodes": "PUSH1 0x80 PUSH1 0x40 MSTORE CALLVALUE DUP1 ISZERO PUSH2 0x10 JUMPI PUSH1 0x0 DUP1 REVERT JUMPDEST POP PUSH1 0x40 MLOAD PUSH2 0x1D SWAP1 PUSH2 0x7E JUMP JUMPDEST PUSH1 0x40 MLOAD DUP1 SWAP2 SUB SWAP1 PUSH1 0x0 CREATE DUP1 ISZERO DUP1 ISZERO PUSH2 0x39 JUMPI RETURNDATASIZE PUSH1 0x0 DUP1 RETURNDATACOPY RETURNDATASIZE PUSH1 0x0 REVERT JUMPDEST POP PUSH1 0x0 DUP1 PUSH2 0x100 EXP DUP2 SLOAD DUP2 PUSH20 0xFFFFFFFFFFFFFFFFFFFFFFFFFFFFFFFFFFFFFFFF MUL NOT AND SWAP1 DUP4 PUSH20 0xFFFFFFFFFFFFFFFFFFFFFFFFFFFFFFFFFFFFFFFF AND MUL OR SWAP1 SSTORE POP PUSH2 0x8B JUMP JUMPDEST PUSH2 0xEC8 DUP1 PUSH2 0xD9D DUP4 CODECOPY ADD SWAP1 JUMP JUMPDEST PUSH2 0xD03 DUP1 PUSH2 0x9A PUSH1 0x0 CODECOPY PUSH1 0x0 RETURN INVALID PUSH1 0x80 PUSH1 0x40 MSTORE PUSH1 0x4 CALLDATASIZE LT PUSH2 0x70 JUMPI PUSH1 0x0 CALLDATALOAD PUSH1 0xE0 SHR DUP1 PUSH4 0x590791F2 GT PUSH2 0x4E JUMPI DUP1 PUSH4 0x590791F2 EQ PUSH2 0xF6 JUMPI DUP1 PUSH4 0xA6F2AE3A EQ PUSH2 0x121 JUMPI DUP1 PUSH4 0xE4849B32 EQ PUSH2 0x12B JUMPI DUP1 PUSH4 0xFC0C546A EQ PUSH2 0x147 JUMPI PUSH2 0x70 JUMP JUMPDEST DUP1 PUSH4 0x10FE9AE8 EQ PUSH2 0x75 JUMPI DUP1 PUSH4 0x38CC4831 EQ PUSH2 0xA0 JUMPI DUP1 PUSH4 0x430F4801 EQ PUSH2 0xCB JUMPI JUMPDEST PUSH1 0x0 DUP1 REVERT JUMPDEST CALLVALUE DUP1 ISZERO PUSH2 0x81 JUMPI PUSH1 0x0 DUP1 REVERT JUMPDEST POP PUSH2 0x8A PUSH2 0x172 JUMP JUMPDEST PUSH1 0x40 MLOAD PUSH2 0x97 SWAP2 SWAP1 PUSH2 0x9AA JUMP JUMPDEST PUSH1 0x40 MLOAD DUP1 SWAP2 SUB SWAP1 RETURN JUMPDEST CALLVALUE DUP1 ISZERO PUSH2 0xAC JUMPI PUSH1 0x0 DUP1 REVERT JUMPDEST POP PUSH2 0xB5 PUSH2 0x218 JUMP JUMPDEST PUSH1 0x40 MLOAD PUSH2 0xC2 SWAP2 SWAP1 PUSH2 0x9AA JUMP JUMPDEST PUSH1 0x40 MLOAD DUP1 SWAP2 SUB SWAP1 RETURN JUMPDEST CALLVALUE DUP1 ISZERO PUSH2 0xD7 JUMPI PUSH1 0x0 DUP1 REVERT JUMPDEST POP PUSH2 0xE0 PUSH2 0x220 JUMP JUMPDEST PUSH1 0x40 MLOAD PUSH2 0xED SWAP2 SWAP1 PUSH2 0xAE9 JUMP JUMPDEST PUSH1 0x40 MLOAD DUP1 SWAP2 SUB SWAP1 RETURN JUMPDEST CALLVALUE DUP1 ISZERO PUSH2 0x102 JUMPI PUSH1 0x0 DUP1 REVERT JUMPDEST POP PUSH2 0x10B PUSH2 0x2D1 JUMP JUMPDEST PUSH1 0x40 MLOAD PUSH2 0x118 SWAP2 SWAP1 PUSH2 0xAE9 JUMP JUMPDEST PUSH1 0x40 MLOAD DUP1 SWAP2 SUB SWAP1 RETURN JUMPDEST PUSH2 0x129 PUSH2 0x382 JUMP JUMPDEST STOP JUMPDEST PUSH2 0x145 PUSH1 0x4 DUP1 CALLDATASIZE SUB DUP2 ADD SWAP1 PUSH2 0x140 SWAP2 SWAP1 PUSH2 0x897 JUMP JUMPDEST PUSH2 0x5A4 JUMP JUMPDEST STOP JUMPDEST CALLVALUE DUP1 ISZERO PUSH2 0x153 JUMPI PUSH1 0x0 DUP1 REVERT JUMPDEST POP PUSH2 0x15C PUSH2 0x7C5 JUMP JUMPDEST PUSH1 0x40 MLOAD PUSH2 0x169 SWAP2 SWAP1 PUSH2 0xA4E JUMP JUMPDEST PUSH1 0x40 MLOAD DUP1 SWAP2 SUB SWAP1 RETURN JUMPDEST PUSH1 0x0 DUP1 PUSH1 0x0 SWAP1 SLOAD SWAP1 PUSH2 0x100 EXP SWAP1 DIV PUSH20 0xFFFFFFFFFFFFFFFFFFFFFFFFFFFFFFFFFFFFFFFF AND PUSH20 0xFFFFFFFFFFFFFFFFFFFFFFFFFFFFFFFFFFFFFFFF AND PUSH4 0x38CC4831 PUSH1 0x40 MLOAD DUP2 PUSH4 0xFFFFFFFF AND PUSH1 0xE0 SHL DUP2 MSTORE PUSH1 0x4 ADD PUSH1 0x20 PUSH1 0x40 MLOAD DUP1 DUP4 SUB DUP2 DUP7 DUP1 EXTCODESIZE ISZERO DUP1 ISZERO PUSH2 0x1DB JUMPI PUSH1 0x0 DUP1 REVERT JUMPDEST POP GAS STATICCALL ISZERO DUP1 ISZERO PUSH2 0x1EF JUMPI RETURNDATASIZE PUSH1 0x0 DUP1 RETURNDATACOPY RETURNDATASIZE PUSH1 0x0 REVERT JUMPDEST POP POP POP POP PUSH1 0x40 MLOAD RETURNDATASIZE PUSH1 0x1F NOT PUSH1 0x1F DUP3 ADD AND DUP3 ADD DUP1 PUSH1 0x40 MSTORE POP DUP2 ADD SWAP1 PUSH2 0x213 SWAP2 SWAP1 PUSH2 0x83D JUMP JUMPDEST SWAP1 POP SWAP1 JUMP JUMPDEST PUSH1 0x0 ADDRESS SWAP1 POP SWAP1 JUMP JUMPDEST PUSH1 0x0 DUP1 PUSH1 0x0 SWAP1 SLOAD SWAP1 PUSH2 0x100 EXP SWAP1 DIV PUSH20 0xFFFFFFFFFFFFFFFFFFFFFFFFFFFFFFFFFFFFFFFF AND PUSH20 0xFFFFFFFFFFFFFFFFFFFFFFFFFFFFFFFFFFFFFFFF AND PUSH4 0x70A08231 ADDRESS PUSH1 0x40 MLOAD DUP3 PUSH4 0xFFFFFFFF AND PUSH1 0xE0 SHL DUP2 MSTORE PUSH1 0x4 ADD PUSH2 0x27C SWAP2 SWAP1 PUSH2 0x9AA JUMP JUMPDEST PUSH1 0x20 PUSH1 0x40 MLOAD DUP1 DUP4 SUB DUP2 DUP7 DUP1 EXTCODESIZE ISZERO DUP1 ISZERO PUSH2 0x294 JUMPI PUSH1 0x0 DUP1 REVERT JUMPDEST POP GAS STATICCALL ISZERO DUP1 ISZERO PUSH2 0x2A8 JUMPI RETURNDATASIZE PUSH1 0x0 DUP1 RETURNDATACOPY RETURNDATASIZE PUSH1 0x0 REVERT JUMPDEST POP POP POP POP PUSH1 0x40 MLOAD RETURNDATASIZE PUSH1 0x1F NOT PUSH1 0x1F DUP3 ADD AND DUP3 ADD DUP1 PUSH1 0x40 MSTORE POP DUP2 ADD SWAP1 PUSH2 0x2CC SWAP2 SWAP1 PUSH2 0x8C4 JUMP JUMPDEST SWAP1 POP SWAP1 JUMP JUMPDEST PUSH1 0x0 DUP1 PUSH1 0x0 SWAP1 SLOAD SWAP1 PUSH2 0x100 EXP SWAP1 DIV PUSH20 0xFFFFFFFFFFFFFFFFFFFFFFFFFFFFFFFFFFFFFFFF AND PUSH20 0xFFFFFFFFFFFFFFFFFFFFFFFFFFFFFFFFFFFFFFFF AND PUSH4 0x70A08231 CALLER PUSH1 0x40 MLOAD DUP3 PUSH4 0xFFFFFFFF AND PUSH1 0xE0 SHL DUP2 MSTORE PUSH1 0x4 ADD PUSH2 0x32D SWAP2 SWAP1 PUSH2 0x9AA JUMP JUMPDEST PUSH1 0x20 PUSH1 0x40 MLOAD DUP1 DUP4 SUB DUP2 DUP7 DUP1 EXTCODESIZE ISZERO DUP1 ISZERO PUSH2 0x345 JUMPI PUSH1 0x0 DUP1 REVERT JUMPDEST POP GAS STATICCALL ISZERO DUP1 ISZERO PUSH2 0x359 JUMPI RETURNDATASIZE PUSH1 0x0 DUP1 RETURNDATACOPY RETURNDATASIZE PUSH1 0x0 REVERT JUMPDEST POP POP POP POP PUSH1 0x40 MLOAD RETURNDATASIZE PUSH1 0x1F NOT PUSH1 0x1F DUP3 ADD AND DUP3 ADD DUP1 PUSH1 0x40 MSTORE POP DUP2 ADD SWAP1 PUSH2 0x37D SWAP2 SWAP1 PUSH2 0x8C4 JUMP JUMPDEST SWAP1 POP SWAP1 JUMP JUMPDEST PUSH1 0x0 CALLVALUE SWAP1 POP PUSH1 0x0 DUP1 PUSH1 0x0 SWAP1 SLOAD SWAP1 PUSH2 0x100 EXP SWAP1 DIV PUSH20 0xFFFFFFFFFFFFFFFFFFFFFFFFFFFFFFFFFFFFFFFF AND PUSH20 0xFFFFFFFFFFFFFFFFFFFFFFFFFFFFFFFFFFFFFFFF AND PUSH4 0x70A08231 ADDRESS PUSH1 0x40 MLOAD DUP3 PUSH4 0xFFFFFFFF AND PUSH1 0xE0 SHL DUP2 MSTORE PUSH1 0x4 ADD PUSH2 0x3E3 SWAP2 SWAP1 PUSH2 0x9AA JUMP JUMPDEST PUSH1 0x20 PUSH1 0x40 MLOAD DUP1 DUP4 SUB DUP2 DUP7 DUP1 EXTCODESIZE ISZERO DUP1 ISZERO PUSH2 0x3FB JUMPI PUSH1 0x0 DUP1 REVERT JUMPDEST POP GAS STATICCALL ISZERO DUP1 ISZERO PUSH2 0x40F JUMPI RETURNDATASIZE PUSH1 0x0 DUP1 RETURNDATACOPY RETURNDATASIZE PUSH1 0x0 REVERT JUMPDEST POP POP POP POP PUSH1 0x40 MLOAD RETURNDATASIZE PUSH1 0x1F NOT PUSH1 0x1F DUP3 ADD AND DUP3 ADD DUP1 PUSH1 0x40 MSTORE POP DUP2 ADD SWAP1 PUSH2 0x433 SWAP2 SWAP1 PUSH2 0x8C4 JUMP JUMPDEST SWAP1 POP PUSH1 0x0 DUP3 GT PUSH2 0x478 JUMPI PUSH1 0x40 MLOAD PUSH32 0x8C379A000000000000000000000000000000000000000000000000000000000 DUP2 MSTORE PUSH1 0x4 ADD PUSH2 0x46F SWAP1 PUSH2 0xAA9 JUMP JUMPDEST PUSH1 0x40 MLOAD DUP1 SWAP2 SUB SWAP1 REVERT JUMPDEST DUP1 DUP3 GT ISZERO PUSH2 0x4BB JUMPI PUSH1 0x40 MLOAD PUSH32 0x8C379A000000000000000000000000000000000000000000000000000000000 DUP2 MSTORE PUSH1 0x4 ADD PUSH2 0x4B2 SWAP1 PUSH2 0xA89 JUMP JUMPDEST PUSH1 0x40 MLOAD DUP1 SWAP2 SUB SWAP1 REVERT JUMPDEST PUSH1 0x0 DUP1 SLOAD SWAP1 PUSH2 0x100 EXP SWAP1 DIV PUSH20 0xFFFFFFFFFFFFFFFFFFFFFFFFFFFFFFFFFFFFFFFF AND PUSH20 0xFFFFFFFFFFFFFFFFFFFFFFFFFFFFFFFFFFFFFFFF AND PUSH4 0xA9059CBB CALLER DUP5 PUSH1 0x40 MLOAD DUP4 PUSH4 0xFFFFFFFF AND PUSH1 0xE0 SHL DUP2 MSTORE PUSH1 0x4 ADD PUSH2 0x516 SWAP3 SWAP2 SWAP1 PUSH2 0xA25 JUMP JUMPDEST PUSH1 0x20 PUSH1 0x40 MLOAD DUP1 DUP4 SUB DUP2 PUSH1 0x0 DUP8 DUP1 EXTCODESIZE ISZERO DUP1 ISZERO PUSH2 0x530 JUMPI PUSH1 0x0 DUP1 REVERT JUMPDEST POP GAS CALL ISZERO DUP1 ISZERO PUSH2 0x544 JUMPI RETURNDATASIZE PUSH1 0x0 DUP1 RETURNDATACOPY RETURNDATASIZE PUSH1 0x0 REVERT JUMPDEST POP POP POP POP PUSH1 0x40 MLOAD RETURNDATASIZE PUSH1 0x1F NOT PUSH1 0x1F DUP3 ADD AND DUP3 ADD DUP1 PUSH1 0x40 MSTORE POP DUP2 ADD SWAP1 PUSH2 0x568 SWAP2 SWAP1 PUSH2 0x86A JUMP JUMPDEST POP PUSH32 0x4E08BA899977CF7D4C2964BCE71C6B9A7EF76EE5166A4C1249A1E08016E33EF1 DUP3 PUSH1 0x40 MLOAD PUSH2 0x598 SWAP2 SWAP1 PUSH2 0xAE9 JUMP JUMPDEST PUSH1 0x40 MLOAD DUP1 SWAP2 SUB SWAP1 LOG1 POP POP JUMP JUMPDEST PUSH1 0x0 DUP2 GT PUSH2 0x5E7 JUMPI PUSH1 0x40 MLOAD PUSH32 0x8C379A000000000000000000000000000000000000000000000000000000000 DUP2 MSTORE PUSH1 0x4 ADD PUSH2 0x5DE SWAP1 PUSH2 0xA69 JUMP JUMPDEST PUSH1 0x40 MLOAD DUP1 SWAP2 SUB SWAP1 REVERT JUMPDEST PUSH1 0x0 DUP1 PUSH1 0x0 SWAP1 SLOAD SWAP1 PUSH2 0x100 EXP SWAP1 DIV PUSH20 0xFFFFFFFFFFFFFFFFFFFFFFFFFFFFFFFFFFFFFFFF AND PUSH20 0xFFFFFFFFFFFFFFFFFFFFFFFFFFFFFFFFFFFFFFFF AND PUSH4 0xDD62ED3E CALLER ADDRESS PUSH1 0x40 MLOAD DUP4 PUSH4 0xFFFFFFFF AND PUSH1 0xE0 SHL DUP2 MSTORE PUSH1 0x4 ADD PUSH2 0x645 SWAP3 SWAP2 SWAP1 PUSH2 0x9C5 JUMP JUMPDEST PUSH1 0x20 PUSH1 0x40 MLOAD DUP1 DUP4 SUB DUP2 DUP7 DUP1 EXTCODESIZE ISZERO DUP1 ISZERO PUSH2 0x65D JUMPI PUSH1 0x0 DUP1 REVERT JUMPDEST POP GAS STATICCALL ISZERO DUP1 ISZERO PUSH2 0x671 JUMPI RETURNDATASIZE PUSH1 0x0 DUP1 RETURNDATACOPY RETURNDATASIZE PUSH1 0x0 REVERT JUMPDEST POP POP POP POP PUSH1 0x40 MLOAD RETURNDATASIZE PUSH1 0x1F NOT PUSH1 0x1F DUP3 ADD AND DUP3 ADD DUP1 PUSH1 0x40 MSTORE POP DUP2 ADD SWAP1 PUSH2 0x695 SWAP2 SWAP1 PUSH2 0x8C4 JUMP JUMPDEST SWAP1 POP DUP2 DUP2 LT ISZERO PUSH2 0x6DA JUMPI PUSH1 0x40 MLOAD PUSH32 0x8C379A000000000000000000000000000000000000000000000000000000000 DUP2 MSTORE PUSH1 0x4 ADD PUSH2 0x6D1 SWAP1 PUSH2 0xAC9 JUMP JUMPDEST PUSH1 0x40 MLOAD DUP1 SWAP2 SUB SWAP1 REVERT JUMPDEST PUSH1 0x0 DUP1 SLOAD SWAP1 PUSH2 0x100 EXP SWAP1 DIV PUSH20 0xFFFFFFFFFFFFFFFFFFFFFFFFFFFFFFFFFFFFFFFF AND PUSH20 0xFFFFFFFFFFFFFFFFFFFFFFFFFFFFFFFFFFFFFFFF AND PUSH4 0x23B872DD CALLER ADDRESS DUP6 PUSH1 0x40 MLOAD DUP5 PUSH4 0xFFFFFFFF AND PUSH1 0xE0 SHL DUP2 MSTORE PUSH1 0x4 ADD PUSH2 0x737 SWAP4 SWAP3 SWAP2 SWAP1 PUSH2 0x9EE JUMP JUMPDEST PUSH1 0x20 PUSH1 0x40 MLOAD DUP1 DUP4 SUB DUP2 PUSH1 0x0 DUP8 DUP1 EXTCODESIZE ISZERO DUP1 ISZERO PUSH2 0x751 JUMPI PUSH1 0x0 DUP1 REVERT JUMPDEST POP GAS CALL ISZERO DUP1 ISZERO PUSH2 0x765 JUMPI RETURNDATASIZE PUSH1 0x0 DUP1 RETURNDATACOPY RETURNDATASIZE PUSH1 0x0 REVERT JUMPDEST POP POP POP POP PUSH1 0x40 MLOAD RETURNDATASIZE PUSH1 0x1F NOT PUSH1 0x1F DUP3 ADD AND DUP3 ADD DUP1 PUSH1 0x40 MSTORE POP DUP2 ADD SWAP1 PUSH2 0x789 SWAP2 SWAP1 PUSH2 0x86A JUMP JUMPDEST POP PUSH32 0x92F64CA637D023F354075A4BE751B169C1A8A9CCB6D33CDD0CB3520543995727 DUP3 PUSH1 0x40 MLOAD PUSH2 0x7B9 SWAP2 SWAP1 PUSH2 0xAE9 JUMP JUMPDEST PUSH1 0x40 MLOAD DUP1 SWAP2 SUB SWAP1 LOG1 POP POP JUMP JUMPDEST PUSH1 0x0 DUP1 SLOAD SWAP1 PUSH2 0x100 EXP SWAP1 DIV PUSH20 0xFFFFFFFFFFFFFFFFFFFFFFFFFFFFFFFFFFFFFFFF AND DUP2 JUMP JUMPDEST PUSH1 0x0 DUP2 MLOAD SWAP1 POP PUSH2 0x7F8 DUP2 PUSH2 0xC88 JUMP JUMPDEST SWAP3 SWAP2 POP POP JUMP JUMPDEST PUSH1 0x0 DUP2 MLOAD SWAP1 POP PUSH2 0x80D DUP2 PUSH2 0xC9F JUMP JUMPDEST SWAP3 SWAP2 POP POP JUMP JUMPDEST PUSH1 0x0 DUP2 CALLDATALOAD SWAP1 POP PUSH2 0x822 DUP2 PUSH2 0xCB6 JUMP JUMPDEST SWAP3 SWAP2 POP POP JUMP JUMPDEST PUSH1 0x0 DUP2 MLOAD SWAP1 POP PUSH2 0x837 DUP2 PUSH2 0xCB6 JUMP JUMPDEST SWAP3 SWAP2 POP POP JUMP JUMPDEST PUSH1 0x0 PUSH1 0x20 DUP3 DUP5 SUB SLT ISZERO PUSH2 0x853 JUMPI PUSH2 0x852 PUSH2 0xB93 JUMP JUMPDEST JUMPDEST PUSH1 0x0 PUSH2 0x861 DUP5 DUP3 DUP6 ADD PUSH2 0x7E9 JUMP JUMPDEST SWAP2 POP POP SWAP3 SWAP2 POP POP JUMP JUMPDEST PUSH1 0x0 PUSH1 0x20 DUP3 DUP5 SUB SLT ISZERO PUSH2 0x880 JUMPI PUSH2 0x87F PUSH2 0xB93 JUMP JUMPDEST JUMPDEST PUSH1 0x0 PUSH2 0x88E DUP5 DUP3 DUP6 ADD PUSH2 0x7FE JUMP JUMPDEST SWAP2 POP POP SWAP3 SWAP2 POP POP JUMP JUMPDEST PUSH1 0x0 PUSH1 0x20 DUP3 DUP5 SUB SLT ISZERO PUSH2 0x8AD JUMPI PUSH2 0x8AC PUSH2 0xB93 JUMP JUMPDEST JUMPDEST PUSH1 0x0 PUSH2 0x8BB DUP5 DUP3 DUP6 ADD PUSH2 0x813 JUMP JUMPDEST SWAP2 POP POP SWAP3 SWAP2 POP POP JUMP JUMPDEST PUSH1 0x0 PUSH1 0x20 DUP3 DUP5 SUB SLT ISZERO PUSH2 0x8DA JUMPI PUSH2 0x8D9 PUSH2 0xB93 JUMP JUMPDEST JUMPDEST PUSH1 0x0 PUSH2 0x8E8 DUP5 DUP3 DUP6 ADD PUSH2 0x828 JUMP JUMPDEST SWAP2 POP POP SWAP3 SWAP2 POP POP JUMP JUMPDEST PUSH2 0x8FA DUP2 PUSH2 0xB15 JUMP JUMPDEST DUP3 MSTORE POP POP JUMP JUMPDEST PUSH2 0x909 DUP2 PUSH2 0xB5D JUMP JUMPDEST DUP3 MSTORE POP POP JUMP JUMPDEST PUSH1 0x0 PUSH2 0x91C PUSH1 0x22 DUP4 PUSH2 0xB04 JUMP JUMPDEST SWAP2 POP PUSH2 0x927 DUP3 PUSH2 0xB98 JUMP JUMPDEST PUSH1 0x40 DUP3 ADD SWAP1 POP SWAP2 SWAP1 POP JUMP JUMPDEST PUSH1 0x0 PUSH2 0x93F PUSH1 0x21 DUP4 PUSH2 0xB04 JUMP JUMPDEST SWAP2 POP PUSH2 0x94A DUP3 PUSH2 0xBE7 JUMP JUMPDEST PUSH1 0x40 DUP3 ADD SWAP1 POP SWAP2 SWAP1 POP JUMP JUMPDEST PUSH1 0x0 PUSH2 0x962 PUSH1 0x1C DUP4 PUSH2 0xB04 JUMP JUMPDEST SWAP2 POP PUSH2 0x96D DUP3 PUSH2 0xC36 JUMP JUMPDEST PUSH1 0x20 DUP3 ADD SWAP1 POP SWAP2 SWAP1 POP JUMP JUMPDEST PUSH1 0x0 PUSH2 0x985 PUSH1 0x1A DUP4 PUSH2 0xB04 JUMP JUMPDEST SWAP2 POP PUSH2 0x990 DUP3 PUSH2 0xC5F JUMP JUMPDEST PUSH1 0x20 DUP3 ADD SWAP1 POP SWAP2 SWAP1 POP JUMP JUMPDEST PUSH2 0x9A4 DUP2 PUSH2 0xB53 JUMP JUMPDEST DUP3 MSTORE POP POP JUMP JUMPDEST PUSH1 0x0 PUSH1 0x20 DUP3 ADD SWAP1 POP PUSH2 0x9BF PUSH1 0x0 DUP4 ADD DUP5 PUSH2 0x8F1 JUMP JUMPDEST SWAP3 SWAP2 POP POP JUMP JUMPDEST PUSH1 0x0 PUSH1 0x40 DUP3 ADD SWAP1 POP PUSH2 0x9DA PUSH1 0x0 DUP4 ADD DUP6 PUSH2 0x8F1 JUMP JUMPDEST PUSH2 0x9E7 PUSH1 0x20 DUP4 ADD DUP5 PUSH2 0x8F1 JUMP JUMPDEST SWAP4 SWAP3 POP POP POP JUMP JUMPDEST PUSH1 0x0 PUSH1 0x60 DUP3 ADD SWAP1 POP PUSH2 0xA03 PUSH1 0x0 DUP4 ADD DUP7 PUSH2 0x8F1 JUMP JUMPDEST PUSH2 0xA10 PUSH1 0x20 DUP4 ADD DUP6 PUSH2 0x8F1 JUMP JUMPDEST PUSH2 0xA1D PUSH1 0x40 DUP4 ADD DUP5 PUSH2 0x99B JUMP JUMPDEST SWAP5 SWAP4 POP POP POP POP JUMP JUMPDEST PUSH1 0x0 PUSH1 0x40 DUP3 ADD SWAP1 POP PUSH2 0xA3A PUSH1 0x0 DUP4 ADD DUP6 PUSH2 0x8F1 JUMP JUMPDEST PUSH2 0xA47 PUSH1 0x20 DUP4 ADD DUP5 PUSH2 0x99B JUMP JUMPDEST SWAP4 SWAP3 POP POP POP JUMP JUMPDEST PUSH1 0x0 PUSH1 0x20 DUP3 ADD SWAP1 POP PUSH2 0xA63 PUSH1 0x0 DUP4 ADD DUP5 PUSH2 0x900 JUMP JUMPDEST SWAP3 SWAP2 POP POP JUMP JUMPDEST PUSH1 0x0 PUSH1 0x20 DUP3 ADD SWAP1 POP DUP2 DUP2 SUB PUSH1 0x0 DUP4 ADD MSTORE PUSH2 0xA82 DUP2 PUSH2 0x90F JUMP JUMPDEST SWAP1 POP SWAP2 SWAP1 POP JUMP JUMPDEST PUSH1 0x0 PUSH1 0x20 DUP3 ADD SWAP1 POP DUP2 DUP2 SUB PUSH1 0x0 DUP4 ADD MSTORE PUSH2 0xAA2 DUP2 PUSH2 0x932 JUMP JUMPDEST SWAP1 POP SWAP2 SWAP1 POP JUMP JUMPDEST PUSH1 0x0 PUSH1 0x20 DUP3 ADD SWAP1 POP DUP2 DUP2 SUB PUSH1 0x0 DUP4 ADD MSTORE PUSH2 0xAC2 DUP2 PUSH2 0x955 JUMP JUMPDEST SWAP1 POP SWAP2 SWAP1 POP JUMP JUMPDEST PUSH1 0x0 PUSH1 0x20 DUP3 ADD SWAP1 POP DUP2 DUP2 SUB PUSH1 0x0 DUP4 ADD MSTORE PUSH2 0xAE2 DUP2 PUSH2 0x978 JUMP JUMPDEST SWAP1 POP SWAP2 SWAP1 POP JUMP JUMPDEST PUSH1 0x0 PUSH1 0x20 DUP3 ADD SWAP1 POP PUSH2 0xAFE PUSH1 0x0 DUP4 ADD DUP5 PUSH2 0x99B JUMP JUMPDEST SWAP3 SWAP2 POP POP JUMP JUMPDEST PUSH1 0x0 DUP3 DUP3 MSTORE PUSH1 0x20 DUP3 ADD SWAP1 POP SWAP3 SWAP2 POP POP JUMP JUMPDEST PUSH1 0x0 PUSH2 0xB20 DUP3 PUSH2 0xB33 JUMP JUMPDEST SWAP1 POP SWAP2 SWAP1 POP JUMP JUMPDEST PUSH1 0x0 DUP2 ISZERO ISZERO SWAP1 POP SWAP2 SWAP1 POP JUMP JUMPDEST PUSH1 0x0 PUSH20 0xFFFFFFFFFFFFFFFFFFFFFFFFFFFFFFFFFFFFFFFF DUP3 AND SWAP1 POP SWAP2 SWAP1 POP JUMP JUMPDEST PUSH1 0x0 DUP2 SWAP1 POP SWAP2 SWAP1 POP JUMP JUMPDEST PUSH1 0x0 PUSH2 0xB68 DUP3 PUSH2 0xB6F JUMP JUMPDEST SWAP1 POP SWAP2 SWAP1 POP JUMP JUMPDEST PUSH1 0x0 PUSH2 0xB7A DUP3 PUSH2 0xB81 JUMP JUMPDEST SWAP1 POP SWAP2 SWAP1 POP JUMP JUMPDEST PUSH1 0x0 PUSH2 0xB8C DUP3 PUSH2 0xB33 JUMP JUMPDEST SWAP1 POP SWAP2 SWAP1 POP JUMP JUMPDEST PUSH1 0x0 DUP1 REVERT JUMPDEST PUSH32 0x596F75206E65656420746F2073656C6C206174206C65617374203120746F6B65 PUSH1 0x0 DUP3 ADD MSTORE PUSH32 0x6E21000000000000000000000000000000000000000000000000000000000000 PUSH1 0x20 DUP3 ADD MSTORE POP JUMP JUMPDEST PUSH32 0x4E6F7420656E6F75676820746F6B656E7320696E207468652072657665727365 PUSH1 0x0 DUP3 ADD MSTORE PUSH32 0x2100000000000000000000000000000000000000000000000000000000000000 PUSH1 0x20 DUP3 ADD MSTORE POP JUMP JUMPDEST PUSH32 0x596F75206E65656420746F2073656E6420736F6D652065746865722100000000 PUSH1 0x0 DUP3 ADD MSTORE POP JUMP JUMPDEST PUSH32 0x436865636B2074686520746F6B656E20616C6C6F77616E636521000000000000 PUSH1 0x0 DUP3 ADD MSTORE POP JUMP JUMPDEST PUSH2 0xC91 DUP2 PUSH2 0xB15 JUMP JUMPDEST DUP2 EQ PUSH2 0xC9C JUMPI PUSH1 0x0 DUP1 REVERT JUMPDEST POP JUMP JUMPDEST PUSH2 0xCA8 DUP2 PUSH2 0xB27 JUMP JUMPDEST DUP2 EQ PUSH2 0xCB3 JUMPI PUSH1 0x0 DUP1 REVERT JUMPDEST POP JUMP JUMPDEST PUSH2 0xCBF DUP2 PUSH2 0xB53 JUMP JUMPDEST DUP2 EQ PUSH2 0xCCA JUMPI PUSH1 0x0 DUP1 REVERT JUMPDEST POP JUMP INVALID LOG2 PUSH5 0x6970667358 0x22 SLT KECCAK256 0xEF LOG2 PUSH11 0x7BC35CC4187CD9AA9A5E9D DUP16 0xD7 CALLVALUE 0xA5 0xDB PUSH32 0xFED8725DFA37B8D4326E494264736F6C634300080700336080604052678AC723 DIV DUP10 0xE8 STOP STOP PUSH1 0x2 SSTORE CALLVALUE DUP1 ISZERO PUSH2 0x1C JUMPI PUSH1 0x0 DUP1 REVERT JUMPDEST POP PUSH1 0x2 SLOAD PUSH1 0x0 DUP1 CALLER PUSH20 0xFFFFFFFFFFFFFFFFFFFFFFFFFFFFFFFFFFFFFFFF AND PUSH20 0xFFFFFFFFFFFFFFFFFFFFFFFFFFFFFFFFFFFFFFFF AND DUP2 MSTORE PUSH1 0x20 ADD SWAP1 DUP2 MSTORE PUSH1 0x20 ADD PUSH1 0x0 KECCAK256 DUP2 SWAP1 SSTORE POP PUSH2 0xE57 DUP1 PUSH2 0x71 PUSH1 0x0 CODECOPY PUSH1 0x0 RETURN INVALID PUSH1 0x80 PUSH1 0x40 MSTORE CALLVALUE DUP1 ISZERO PUSH2 0x10 JUMPI PUSH1 0x0 DUP1 REVERT JUMPDEST POP PUSH1 0x4 CALLDATASIZE LT PUSH2 0x9E JUMPI PUSH1 0x0 CALLDATALOAD PUSH1 0xE0 SHR DUP1 PUSH4 0x70A08231 GT PUSH2 0x66 JUMPI DUP1 PUSH4 0x70A08231 EQ PUSH2 0x14B JUMPI DUP1 PUSH4 0x95D89B41 EQ PUSH2 0x17B JUMPI DUP1 PUSH4 0xA9059CBB EQ PUSH2 0x199 JUMPI DUP1 PUSH4 0xDD62ED3E EQ PUSH2 0x1C9 JUMPI DUP1 PUSH4 0xE1F21C67 EQ PUSH2 0x1F9 JUMPI PUSH2 0x9E JUMP JUMPDEST DUP1 PUSH4 0x6FDDE03 EQ PUSH2 0xA3 JUMPI DUP1 PUSH4 0x18160DDD EQ PUSH2 0xC1 JUMPI DUP1 PUSH4 0x23B872DD EQ PUSH2 0xDF JUMPI DUP1 PUSH4 0x313CE567 EQ PUSH2 0x10F JUMPI DUP1 PUSH4 0x38CC4831 EQ PUSH2 0x12D JUMPI JUMPDEST PUSH1 0x0 DUP1 REVERT JUMPDEST PUSH2 0xAB PUSH2 0x229 JUMP JUMPDEST PUSH1 0x40 MLOAD PUSH2 0xB8 SWAP2 SWAP1 PUSH2 0xBF9 JUMP JUMPDEST PUSH1 0x40 MLOAD DUP1 SWAP2 SUB SWAP1 RETURN JUMPDEST PUSH2 0xC9 PUSH2 0x262 JUMP JUMPDEST PUSH1 0x40 MLOAD PUSH2 0xD6 SWAP2 SWAP1 PUSH2 0xC1B JUMP JUMPDEST PUSH1 0x40 MLOAD DUP1 SWAP2 SUB SWAP1 RETURN JUMPDEST PUSH2 0xF9 PUSH1 0x4 DUP1 CALLDATASIZE SUB DUP2 ADD SWAP1 PUSH2 0xF4 SWAP2 SWAP1 PUSH2 0xABB JUMP JUMPDEST PUSH2 0x26C JUMP JUMPDEST PUSH1 0x40 MLOAD PUSH2 0x106 SWAP2 SWAP1 PUSH2 0xBDE JUMP JUMPDEST PUSH1 0x40 MLOAD DUP1 SWAP2 SUB SWAP1 RETURN JUMPDEST PUSH2 0x117 PUSH2 0x5E7 JUMP JUMPDEST PUSH1 0x40 MLOAD PUSH2 0x124 SWAP2 SWAP1 PUSH2 0xC36 JUMP JUMPDEST PUSH1 0x40 MLOAD DUP1 SWAP2 SUB SWAP1 RETURN JUMPDEST PUSH2 0x135 PUSH2 0x5EC JUMP JUMPDEST PUSH1 0x40 MLOAD PUSH2 0x142 SWAP2 SWAP1 PUSH2 0xBC3 JUMP JUMPDEST PUSH1 0x40 MLOAD DUP1 SWAP2 SUB SWAP1 RETURN JUMPDEST PUSH2 0x165 PUSH1 0x4 DUP1 CALLDATASIZE SUB DUP2 ADD SWAP1 PUSH2 0x160 SWAP2 SWAP1 PUSH2 0xA4E JUMP JUMPDEST PUSH2 0x5F4 JUMP JUMPDEST PUSH1 0x40 MLOAD PUSH2 0x172 SWAP2 SWAP1 PUSH2 0xC1B JUMP JUMPDEST PUSH1 0x40 MLOAD DUP1 SWAP2 SUB SWAP1 RETURN JUMPDEST PUSH2 0x183 PUSH2 0x63C JUMP JUMPDEST PUSH1 0x40 MLOAD PUSH2 0x190 SWAP2 SWAP1 PUSH2 0xBF9 JUMP JUMPDEST PUSH1 0x40 MLOAD DUP1 SWAP2 SUB SWAP1 RETURN JUMPDEST PUSH2 0x1B3 PUSH1 0x4 DUP1 CALLDATASIZE SUB DUP2 ADD SWAP1 PUSH2 0x1AE SWAP2 SWAP1 PUSH2 0xB0E JUMP JUMPDEST PUSH2 0x675 JUMP JUMPDEST PUSH1 0x40 MLOAD PUSH2 0x1C0 SWAP2 SWAP1 PUSH2 0xBDE JUMP JUMPDEST PUSH1 0x40 MLOAD DUP1 SWAP2 SUB SWAP1 RETURN JUMPDEST PUSH2 0x1E3 PUSH1 0x4 DUP1 CALLDATASIZE SUB DUP2 ADD SWAP1 PUSH2 0x1DE SWAP2 SWAP1 PUSH2 0xA7B JUMP JUMPDEST PUSH2 0x857 JUMP JUMPDEST PUSH1 0x40 MLOAD PUSH2 0x1F0 SWAP2 SWAP1 PUSH2 0xC1B JUMP JUMPDEST PUSH1 0x40 MLOAD DUP1 SWAP2 SUB SWAP1 RETURN JUMPDEST PUSH2 0x213 PUSH1 0x4 DUP1 CALLDATASIZE SUB DUP2 ADD SWAP1 PUSH2 0x20E SWAP2 SWAP1 PUSH2 0xABB JUMP JUMPDEST PUSH2 0x8DE JUMP JUMPDEST PUSH1 0x40 MLOAD PUSH2 0x220 SWAP2 SWAP1 PUSH2 0xBDE JUMP JUMPDEST PUSH1 0x40 MLOAD DUP1 SWAP2 SUB SWAP1 RETURN JUMPDEST PUSH1 0x40 MLOAD DUP1 PUSH1 0x40 ADD PUSH1 0x40 MSTORE DUP1 PUSH1 0x12 DUP2 MSTORE PUSH1 0x20 ADD PUSH32 0x45524332302D5869616F6368756E436F696E0000000000000000000000000000 DUP2 MSTORE POP DUP2 JUMP JUMPDEST PUSH1 0x0 PUSH1 0x2 SLOAD SWAP1 POP SWAP1 JUMP JUMPDEST PUSH1 0x0 DUP1 PUSH1 0x0 DUP6 PUSH20 0xFFFFFFFFFFFFFFFFFFFFFFFFFFFFFFFFFFFFFFFF AND PUSH20 0xFFFFFFFFFFFFFFFFFFFFFFFFFFFFFFFFFFFFFFFF AND DUP2 MSTORE PUSH1 0x20 ADD SWAP1 DUP2 MSTORE PUSH1 0x20 ADD PUSH1 0x0 KECCAK256 SLOAD DUP3 GT ISZERO PUSH2 0x2B9 JUMPI PUSH1 0x0 DUP1 REVERT JUMPDEST PUSH1 0x1 PUSH1 0x0 DUP6 PUSH20 0xFFFFFFFFFFFFFFFFFFFFFFFFFFFFFFFFFFFFFFFF AND PUSH20 0xFFFFFFFFFFFFFFFFFFFFFFFFFFFFFFFFFFFFFFFF AND DUP2 MSTORE PUSH1 0x20 ADD SWAP1 DUP2 MSTORE PUSH1 0x20 ADD PUSH1 0x0 KECCAK256 PUSH1 0x0 CALLER PUSH20 0xFFFFFFFFFFFFFFFFFFFFFFFFFFFFFFFFFFFFFFFF AND PUSH20 0xFFFFFFFFFFFFFFFFFFFFFFFFFFFFFFFFFFFFFFFF AND DUP2 MSTORE PUSH1 0x20 ADD SWAP1 DUP2 MSTORE PUSH1 0x20 ADD PUSH1 0x0 KECCAK256 SLOAD DUP3 GT ISZERO PUSH2 0x342 JUMPI PUSH1 0x0 DUP1 REVERT JUMPDEST PUSH2 0x393 DUP3 PUSH1 0x0 DUP1 DUP8 PUSH20 0xFFFFFFFFFFFFFFFFFFFFFFFFFFFFFFFFFFFFFFFF AND PUSH20 0xFFFFFFFFFFFFFFFFFFFFFFFFFFFFFFFFFFFFFFFF AND DUP2 MSTORE PUSH1 0x20 ADD SWAP1 DUP2 MSTORE PUSH1 0x20 ADD PUSH1 0x0 KECCAK256 SLOAD PUSH2 0x9D1 SWAP1 SWAP2 SWAP1 PUSH4 0xFFFFFFFF AND JUMP JUMPDEST PUSH1 0x0 DUP1 DUP7 PUSH20 0xFFFFFFFFFFFFFFFFFFFFFFFFFFFFFFFFFFFFFFFF AND PUSH20 0xFFFFFFFFFFFFFFFFFFFFFFFFFFFFFFFFFFFFFFFF AND DUP2 MSTORE PUSH1 0x20 ADD SWAP1 DUP2 MSTORE PUSH1 0x20 ADD PUSH1 0x0 KECCAK256 DUP2 SWAP1 SSTORE POP PUSH2 0x464 DUP3 PUSH1 0x1 PUSH1 0x0 DUP8 PUSH20 0xFFFFFFFFFFFFFFFFFFFFFFFFFFFFFFFFFFFFFFFF AND PUSH20 0xFFFFFFFFFFFFFFFFFFFFFFFFFFFFFFFFFFFFFFFF AND DUP2 MSTORE PUSH1 0x20 ADD SWAP1 DUP2 MSTORE PUSH1 0x20 ADD PUSH1 0x0 KECCAK256 PUSH1 0x0 DUP7 PUSH20 0xFFFFFFFFFFFFFFFFFFFFFFFFFFFFFFFFFFFFFFFF AND PUSH20 0xFFFFFFFFFFFFFFFFFFFFFFFFFFFFFFFFFFFFFFFF AND DUP2 MSTORE PUSH1 0x20 ADD SWAP1 DUP2 MSTORE PUSH1 0x20 ADD PUSH1 0x0 KECCAK256 SLOAD PUSH2 0x9D1 SWAP1 SWAP2 SWAP1 PUSH4 0xFFFFFFFF AND JUMP JUMPDEST PUSH1 0x1 PUSH1 0x0 DUP7 PUSH20 0xFFFFFFFFFFFFFFFFFFFFFFFFFFFFFFFFFFFFFFFF AND PUSH20 0xFFFFFFFFFFFFFFFFFFFFFFFFFFFFFFFFFFFFFFFF AND DUP2 MSTORE PUSH1 0x20 ADD SWAP1 DUP2 MSTORE PUSH1 0x20 ADD PUSH1 0x0 KECCAK256 PUSH1 0x0 DUP6 PUSH20 0xFFFFFFFFFFFFFFFFFFFFFFFFFFFFFFFFFFFFFFFF AND PUSH20 0xFFFFFFFFFFFFFFFFFFFFFFFFFFFFFFFFFFFFFFFF AND DUP2 MSTORE PUSH1 0x20 ADD SWAP1 DUP2 MSTORE PUSH1 0x20 ADD PUSH1 0x0 KECCAK256 DUP2 SWAP1 SSTORE POP PUSH2 0x535 DUP3 PUSH1 0x0 DUP1 DUP7 PUSH20 0xFFFFFFFFFFFFFFFFFFFFFFFFFFFFFFFFFFFFFFFF AND PUSH20 0xFFFFFFFFFFFFFFFFFFFFFFFFFFFFFFFFFFFFFFFF AND DUP2 MSTORE PUSH1 0x20 ADD SWAP1 DUP2 MSTORE PUSH1 0x20 ADD PUSH1 0x0 KECCAK256 SLOAD PUSH2 0x9F8 SWAP1 SWAP2 SWAP1 PUSH4 0xFFFFFFFF AND JUMP JUMPDEST PUSH1 0x0 DUP1 DUP6 PUSH20 0xFFFFFFFFFFFFFFFFFFFFFFFFFFFFFFFFFFFFFFFF AND PUSH20 0xFFFFFFFFFFFFFFFFFFFFFFFFFFFFFFFFFFFFFFFF AND DUP2 MSTORE PUSH1 0x20 ADD SWAP1 DUP2 MSTORE PUSH1 0x20 ADD PUSH1 0x0 KECCAK256 DUP2 SWAP1 SSTORE POP DUP3 PUSH20 0xFFFFFFFFFFFFFFFFFFFFFFFFFFFFFFFFFFFFFFFF AND DUP5 PUSH20 0xFFFFFFFFFFFFFFFFFFFFFFFFFFFFFFFFFFFFFFFF AND PUSH32 0x5225EAC2A7FACFBEB099C00A4CC7C457701324F1FD84B84B14033F9E911374A4 DUP5 PUSH1 0x40 MLOAD PUSH2 0x5D4 SWAP2 SWAP1 PUSH2 0xC1B JUMP JUMPDEST PUSH1 0x40 MLOAD DUP1 SWAP2 SUB SWAP1 LOG3 PUSH1 0x1 SWAP1 POP SWAP4 SWAP3 POP POP POP JUMP JUMPDEST PUSH1 0x12 DUP2 JUMP JUMPDEST PUSH1 0x0 ADDRESS SWAP1 POP SWAP1 JUMP JUMPDEST PUSH1 0x0 DUP1 PUSH1 0x0 DUP4 PUSH20 0xFFFFFFFFFFFFFFFFFFFFFFFFFFFFFFFFFFFFFFFF AND PUSH20 0xFFFFFFFFFFFFFFFFFFFFFFFFFFFFFFFFFFFFFFFF AND DUP2 MSTORE PUSH1 0x20 ADD SWAP1 DUP2 MSTORE PUSH1 0x20 ADD PUSH1 0x0 KECCAK256 SLOAD SWAP1 POP SWAP2 SWAP1 POP JUMP JUMPDEST PUSH1 0x40 MLOAD DUP1 PUSH1 0x40 ADD PUSH1 0x40 MSTORE DUP1 PUSH1 0x7 DUP2 MSTORE PUSH1 0x20 ADD PUSH32 0x4552432D58434300000000000000000000000000000000000000000000000000 DUP2 MSTORE POP DUP2 JUMP JUMPDEST PUSH1 0x0 DUP1 PUSH1 0x0 CALLER PUSH20 0xFFFFFFFFFFFFFFFFFFFFFFFFFFFFFFFFFFFFFFFF AND PUSH20 0xFFFFFFFFFFFFFFFFFFFFFFFFFFFFFFFFFFFFFFFF AND DUP2 MSTORE PUSH1 0x20 ADD SWAP1 DUP2 MSTORE PUSH1 0x20 ADD PUSH1 0x0 KECCAK256 SLOAD DUP3 GT ISZERO PUSH2 0x6C2 JUMPI PUSH1 0x0 DUP1 REVERT JUMPDEST PUSH2 0x713 DUP3 PUSH1 0x0 DUP1 CALLER PUSH20 0xFFFFFFFFFFFFFFFFFFFFFFFFFFFFFFFFFFFFFFFF AND PUSH20 0xFFFFFFFFFFFFFFFFFFFFFFFFFFFFFFFFFFFFFFFF AND DUP2 MSTORE PUSH1 0x20 ADD SWAP1 DUP2 MSTORE PUSH1 0x20 ADD PUSH1 0x0 KECCAK256 SLOAD PUSH2 0x9D1 SWAP1 SWAP2 SWAP1 PUSH4 0xFFFFFFFF AND JUMP JUMPDEST PUSH1 0x0 DUP1 CALLER PUSH20 0xFFFFFFFFFFFFFFFFFFFFFFFFFFFFFFFFFFFFFFFF AND PUSH20 0xFFFFFFFFFFFFFFFFFFFFFFFFFFFFFFFFFFFFFFFF AND DUP2 MSTORE PUSH1 0x20 ADD SWAP1 DUP2 MSTORE PUSH1 0x20 ADD PUSH1 0x0 KECCAK256 DUP2 SWAP1 SSTORE POP PUSH2 0x7A6 DUP3 PUSH1 0x0 DUP1 DUP7 PUSH20 0xFFFFFFFFFFFFFFFFFFFFFFFFFFFFFFFFFFFFFFFF AND PUSH20 0xFFFFFFFFFFFFFFFFFFFFFFFFFFFFFFFFFFFFFFFF AND DUP2 MSTORE PUSH1 0x20 ADD SWAP1 DUP2 MSTORE PUSH1 0x20 ADD PUSH1 0x0 KECCAK256 SLOAD PUSH2 0x9F8 SWAP1 SWAP2 SWAP1 PUSH4 0xFFFFFFFF AND JUMP JUMPDEST PUSH1 0x0 DUP1 DUP6 PUSH20 0xFFFFFFFFFFFFFFFFFFFFFFFFFFFFFFFFFFFFFFFF AND PUSH20 0xFFFFFFFFFFFFFFFFFFFFFFFFFFFFFFFFFFFFFFFF AND DUP2 MSTORE PUSH1 0x20 ADD SWAP1 DUP2 MSTORE PUSH1 0x20 ADD PUSH1 0x0 KECCAK256 DUP2 SWAP1 SSTORE POP DUP3 PUSH20 0xFFFFFFFFFFFFFFFFFFFFFFFFFFFFFFFFFFFFFFFF AND CALLER PUSH20 0xFFFFFFFFFFFFFFFFFFFFFFFFFFFFFFFFFFFFFFFF AND PUSH32 0x5225EAC2A7FACFBEB099C00A4CC7C457701324F1FD84B84B14033F9E911374A4 DUP5 PUSH1 0x40 MLOAD PUSH2 0x845 SWAP2 SWAP1 PUSH2 0xC1B JUMP JUMPDEST PUSH1 0x40 MLOAD DUP1 SWAP2 SUB SWAP1 LOG3 PUSH1 0x1 SWAP1 POP SWAP3 SWAP2 POP POP JUMP JUMPDEST PUSH1 0x0 PUSH1 0x1 PUSH1 0x0 DUP5 PUSH20 0xFFFFFFFFFFFFFFFFFFFFFFFFFFFFFFFFFFFFFFFF AND PUSH20 0xFFFFFFFFFFFFFFFFFFFFFFFFFFFFFFFFFFFFFFFF AND DUP2 MSTORE PUSH1 0x20 ADD SWAP1 DUP2 MSTORE PUSH1 0x20 ADD PUSH1 0x0 KECCAK256 PUSH1 0x0 DUP4 PUSH20 0xFFFFFFFFFFFFFFFFFFFFFFFFFFFFFFFFFFFFFFFF AND PUSH20 0xFFFFFFFFFFFFFFFFFFFFFFFFFFFFFFFFFFFFFFFF AND DUP2 MSTORE PUSH1 0x20 ADD SWAP1 DUP2 MSTORE PUSH1 0x20 ADD PUSH1 0x0 KECCAK256 SLOAD SWAP1 POP SWAP3 SWAP2 POP POP JUMP JUMPDEST PUSH1 0x0 DUP2 PUSH1 0x1 PUSH1 0x0 DUP7 PUSH20 0xFFFFFFFFFFFFFFFFFFFFFFFFFFFFFFFFFFFFFFFF AND PUSH20 0xFFFFFFFFFFFFFFFFFFFFFFFFFFFFFFFFFFFFFFFF AND DUP2 MSTORE PUSH1 0x20 ADD SWAP1 DUP2 MSTORE PUSH1 0x20 ADD PUSH1 0x0 KECCAK256 PUSH1 0x0 DUP6 PUSH20 0xFFFFFFFFFFFFFFFFFFFFFFFFFFFFFFFFFFFFFFFF AND PUSH20 0xFFFFFFFFFFFFFFFFFFFFFFFFFFFFFFFFFFFFFFFF AND DUP2 MSTORE PUSH1 0x20 ADD SWAP1 DUP2 MSTORE PUSH1 0x20 ADD PUSH1 0x0 KECCAK256 DUP2 SWAP1 SSTORE POP DUP3 PUSH20 0xFFFFFFFFFFFFFFFFFFFFFFFFFFFFFFFFFFFFFFFF AND DUP5 PUSH20 0xFFFFFFFFFFFFFFFFFFFFFFFFFFFFFFFFFFFFFFFF AND PUSH32 0x8C5BE1E5EBEC7D5BD14F71427D1E84F3DD0314C0F7B2291E5B200AC8C7C3B925 DUP5 PUSH1 0x40 MLOAD PUSH2 0x9BE SWAP2 SWAP1 PUSH2 0xC1B JUMP JUMPDEST PUSH1 0x40 MLOAD DUP1 SWAP2 SUB SWAP1 LOG3 PUSH1 0x1 SWAP1 POP SWAP4 SWAP3 POP POP POP JUMP JUMPDEST PUSH1 0x0 DUP3 DUP3 GT ISZERO PUSH2 0x9E4 JUMPI PUSH2 0x9E3 PUSH2 0xD7F JUMP JUMPDEST JUMPDEST DUP2 DUP4 PUSH2 0x9F0 SWAP2 SWAP1 PUSH2 0xCC3 JUMP JUMPDEST SWAP1 POP SWAP3 SWAP2 POP POP JUMP JUMPDEST PUSH1 0x0 DUP1 DUP3 DUP5 PUSH2 0xA07 SWAP2 SWAP1 PUSH2 0xC6D JUMP JUMPDEST SWAP1 POP DUP4 DUP2 LT ISZERO PUSH2 0xA1A JUMPI PUSH2 0xA19 PUSH2 0xD7F JUMP JUMPDEST JUMPDEST DUP1 SWAP2 POP POP SWAP3 SWAP2 POP POP JUMP JUMPDEST PUSH1 0x0 DUP2 CALLDATALOAD SWAP1 POP PUSH2 0xA33 DUP2 PUSH2 0xDF3 JUMP JUMPDEST SWAP3 SWAP2 POP POP JUMP JUMPDEST PUSH1 0x0 DUP2 CALLDATALOAD SWAP1 POP PUSH2 0xA48 DUP2 PUSH2 0xE0A JUMP JUMPDEST SWAP3 SWAP2 POP POP JUMP JUMPDEST PUSH1 0x0 PUSH1 0x20 DUP3 DUP5 SUB SLT ISZERO PUSH2 0xA64 JUMPI PUSH2 0xA63 PUSH2 0xDDD JUMP JUMPDEST JUMPDEST PUSH1 0x0 PUSH2 0xA72 DUP5 DUP3 DUP6 ADD PUSH2 0xA24 JUMP JUMPDEST SWAP2 POP POP SWAP3 SWAP2 POP POP JUMP JUMPDEST PUSH1 0x0 DUP1 PUSH1 0x40 DUP4 DUP6 SUB SLT ISZERO PUSH2 0xA92 JUMPI PUSH2 0xA91 PUSH2 0xDDD JUMP JUMPDEST JUMPDEST PUSH1 0x0 PUSH2 0xAA0 DUP6 DUP3 DUP7 ADD PUSH2 0xA24 JUMP JUMPDEST SWAP3 POP POP PUSH1 0x20 PUSH2 0xAB1 DUP6 DUP3 DUP7 ADD PUSH2 0xA24 JUMP JUMPDEST SWAP2 POP POP SWAP3 POP SWAP3 SWAP1 POP JUMP JUMPDEST PUSH1 0x0 DUP1 PUSH1 0x0 PUSH1 0x60 DUP5 DUP7 SUB SLT ISZERO PUSH2 0xAD4 JUMPI PUSH2 0xAD3 PUSH2 0xDDD JUMP JUMPDEST JUMPDEST PUSH1 0x0 PUSH2 0xAE2 DUP7 DUP3 DUP8 ADD PUSH2 0xA24 JUMP JUMPDEST SWAP4 POP POP PUSH1 0x20 PUSH2 0xAF3 DUP7 DUP3 DUP8 ADD PUSH2 0xA24 JUMP JUMPDEST SWAP3 POP POP PUSH1 0x40 PUSH2 0xB04 DUP7 DUP3 DUP8 ADD PUSH2 0xA39 JUMP JUMPDEST SWAP2 POP POP SWAP3 POP SWAP3 POP SWAP3 JUMP JUMPDEST PUSH1 0x0 DUP1 PUSH1 0x40 DUP4 DUP6 SUB SLT ISZERO PUSH2 0xB25 JUMPI PUSH2 0xB24 PUSH2 0xDDD JUMP JUMPDEST JUMPDEST PUSH1 0x0 PUSH2 0xB33 DUP6 DUP3 DUP7 ADD PUSH2 0xA24 JUMP JUMPDEST SWAP3 POP POP PUSH1 0x20 PUSH2 0xB44 DUP6 DUP3 DUP7 ADD PUSH2 0xA39 JUMP JUMPDEST SWAP2 POP POP SWAP3 POP SWAP3 SWAP1 POP JUMP JUMPDEST PUSH2 0xB57 DUP2 PUSH2 0xCF7 JUMP JUMPDEST DUP3 MSTORE POP POP JUMP JUMPDEST PUSH2 0xB66 DUP2 PUSH2 0xD09 JUMP JUMPDEST DUP3 MSTORE POP POP JUMP JUMPDEST PUSH1 0x0 PUSH2 0xB77 DUP3 PUSH2 0xC51 JUMP JUMPDEST PUSH2 0xB81 DUP2 DUP6 PUSH2 0xC5C JUMP JUMPDEST SWAP4 POP PUSH2 0xB91 DUP2 DUP6 PUSH1 0x20 DUP7 ADD PUSH2 0xD4C JUMP JUMPDEST PUSH2 0xB9A DUP2 PUSH2 0xDE2 JUMP JUMPDEST DUP5 ADD SWAP2 POP POP SWAP3 SWAP2 POP POP JUMP JUMPDEST PUSH2 0xBAE DUP2 PUSH2 0xD35 JUMP JUMPDEST DUP3 MSTORE POP POP JUMP JUMPDEST PUSH2 0xBBD DUP2 PUSH2 0xD3F JUMP JUMPDEST DUP3 MSTORE POP POP JUMP JUMPDEST PUSH1 0x0 PUSH1 0x20 DUP3 ADD SWAP1 POP PUSH2 0xBD8 PUSH1 0x0 DUP4 ADD DUP5 PUSH2 0xB4E JUMP JUMPDEST SWAP3 SWAP2 POP POP JUMP JUMPDEST PUSH1 0x0 PUSH1 0x20 DUP3 ADD SWAP1 POP PUSH2 0xBF3 PUSH1 0x0 DUP4 ADD DUP5 PUSH2 0xB5D JUMP JUMPDEST SWAP3 SWAP2 POP POP JUMP JUMPDEST PUSH1 0x0 PUSH1 0x20 DUP3 ADD SWAP1 POP DUP2 DUP2 SUB PUSH1 0x0 DUP4 ADD MSTORE PUSH2 0xC13 DUP2 DUP5 PUSH2 0xB6C JUMP JUMPDEST SWAP1 POP SWAP3 SWAP2 POP POP JUMP JUMPDEST PUSH1 0x0 PUSH1 0x20 DUP3 ADD SWAP1 POP PUSH2 0xC30 PUSH1 0x0 DUP4 ADD DUP5 PUSH2 0xBA5 JUMP JUMPDEST SWAP3 SWAP2 POP POP JUMP JUMPDEST PUSH1 0x0 PUSH1 0x20 DUP3 ADD SWAP1 POP PUSH2 0xC4B PUSH1 0x0 DUP4 ADD DUP5 PUSH2 0xBB4 JUMP JUMPDEST SWAP3 SWAP2 POP POP JUMP JUMPDEST PUSH1 0x0 DUP2 MLOAD SWAP1 POP SWAP2 SWAP1 POP JUMP JUMPDEST PUSH1 0x0 DUP3 DUP3 MSTORE PUSH1 0x20 DUP3 ADD SWAP1 POP SWAP3 SWAP2 POP POP JUMP JUMPDEST PUSH1 0x0 PUSH2 0xC78 DUP3 PUSH2 0xD35 JUMP JUMPDEST SWAP2 POP PUSH2 0xC83 DUP4 PUSH2 0xD35 JUMP JUMPDEST SWAP3 POP DUP3 PUSH32 0xFFFFFFFFFFFFFFFFFFFFFFFFFFFFFFFFFFFFFFFFFFFFFFFFFFFFFFFFFFFFFFFF SUB DUP3 GT ISZERO PUSH2 0xCB8 JUMPI PUSH2 0xCB7 PUSH2 0xDAE JUMP JUMPDEST JUMPDEST DUP3 DUP3 ADD SWAP1 POP SWAP3 SWAP2 POP POP JUMP JUMPDEST PUSH1 0x0 PUSH2 0xCCE DUP3 PUSH2 0xD35 JUMP JUMPDEST SWAP2 POP PUSH2 0xCD9 DUP4 PUSH2 0xD35 JUMP JUMPDEST SWAP3 POP DUP3 DUP3 LT ISZERO PUSH2 0xCEC JUMPI PUSH2 0xCEB PUSH2 0xDAE JUMP JUMPDEST JUMPDEST DUP3 DUP3 SUB SWAP1 POP SWAP3 SWAP2 POP POP JUMP JUMPDEST PUSH1 0x0 PUSH2 0xD02 DUP3 PUSH2 0xD15 JUMP JUMPDEST SWAP1 POP SWAP2 SWAP1 POP JUMP JUMPDEST PUSH1 0x0 DUP2 ISZERO ISZERO SWAP1 POP SWAP2 SWAP1 POP JUMP JUMPDEST PUSH1 0x0 PUSH20 0xFFFFFFFFFFFFFFFFFFFFFFFFFFFFFFFFFFFFFFFF DUP3 AND SWAP1 POP SWAP2 SWAP1 POP JUMP JUMPDEST PUSH1 0x0 DUP2 SWAP1 POP SWAP2 SWAP1 POP JUMP JUMPDEST PUSH1 0x0 PUSH1 0xFF DUP3 AND SWAP1 POP SWAP2 SWAP1 POP JUMP JUMPDEST PUSH1 0x0 JUMPDEST DUP4 DUP2 LT ISZERO PUSH2 0xD6A JUMPI DUP1 DUP3 ADD MLOAD DUP2 DUP5 ADD MSTORE PUSH1 0x20 DUP2 ADD SWAP1 POP PUSH2 0xD4F JUMP JUMPDEST DUP4 DUP2 GT ISZERO PUSH2 0xD79 JUMPI PUSH1 0x0 DUP5 DUP5 ADD MSTORE JUMPDEST POP POP POP POP JUMP JUMPDEST PUSH32 0x4E487B7100000000000000000000000000000000000000000000000000000000 PUSH1 0x0 MSTORE PUSH1 0x1 PUSH1 0x4 MSTORE PUSH1 0x24 PUSH1 0x0 REVERT JUMPDEST PUSH32 0x4E487B7100000000000000000000000000000000000000000000000000000000 PUSH1 0x0 MSTORE PUSH1 0x11 PUSH1 0x4 MSTORE PUSH1 0x24 PUSH1 0x0 REVERT JUMPDEST PUSH1 0x0 DUP1 REVERT JUMPDEST PUSH1 0x0 PUSH1 0x1F NOT PUSH1 0x1F DUP4 ADD AND SWAP1 POP SWAP2 SWAP1 POP JUMP JUMPDEST PUSH2 0xDFC DUP2 PUSH2 0xCF7 JUMP JUMPDEST DUP2 EQ PUSH2 0xE07 JUMPI PUSH1 0x0 DUP1 REVERT JUMPDEST POP JUMP JUMPDEST PUSH2 0xE13 DUP2 PUSH2 0xD35 JUMP JUMPDEST DUP2 EQ PUSH2 0xE1E JUMPI PUSH1 0x0 DUP1 REVERT JUMPDEST POP JUMP INVALID LOG2 PUSH5 0x6970667358 0x22 SLT KECCAK256 PUSH16 0x67708371B6A226A693533FFA2F5A10CF 0x1F 0xF6 JUMPI 0x24 PUSH23 0xF7AC8B55425AC19A0C6764736F6C634300080700330000 "
				},
				"gasEstimates": {
					"creation": {
						"codeDepositCost": "666200",
						"executionCost": "infinite",
						"totalCost": "infinite"
					},
					"external": {
						"buy()": "infinite",
						"getAddress()": "408",
						"getDexBalance()": "infinite",
						"getOwnerBalance()": "infinite",
						"getTokenAddress()": "infinite",
						"sell(uint256)": "infinite",
						"token()": "2663"
					}
				},
				"methodIdentifiers": {
					"buy()": "a6f2ae3a",
					"getAddress()": "38cc4831",
					"getDexBalance()": "430f4801",
					"getOwnerBalance()": "590791f2",
					"getTokenAddress()": "10fe9ae8",
					"sell(uint256)": "e4849b32",
					"token()": "fc0c546a"
				}
			},
			"storageLayout": {
				"storage": [
					{
						"astId": 380,
						"contract": "contracts/16_Dex.sol:DEX",
						"label": "token",
						"offset": 0,
						"slot": "0",
						"type": "t_contract(IERC20)120"
					}
				],
				"types": {
					"t_contract(IERC20)120": {
						"encoding": "inplace",
						"label": "contract IERC20",
						"numberOfBytes": "20"
					}
				}
			},
			"userdoc": {
				"kind": "user",
				"methods": {},
				"version": 1
			}
		}
	}
}