{
	"contracts/6_EventStudy.sol": {
		"EventStudy": {
			"abi": [
				{
					"anonymous": false,
					"inputs": [
						{
							"indexed": false,
							"internalType": "address",
							"name": "_from",
							"type": "address"
						},
						{
							"indexed": false,
							"internalType": "string",
							"name": "_name",
							"type": "string"
						},
						{
							"indexed": false,
							"internalType": "uint256",
							"name": "_value",
							"type": "uint256"
						}
					],
					"name": "Deposite",
					"type": "event"
				},
				{
					"inputs": [
						{
							"internalType": "string",
							"name": "_name",
							"type": "string"
						}
					],
					"name": "deposite",
					"outputs": [],
					"stateMutability": "payable",
					"type": "function"
				}
			],
			"devdoc": {
				"kind": "dev",
				"methods": {},
				"version": 1
			},
			"evm": {
				"assembly": "    /* \"contracts/6_EventStudy.sol\":70:276  contract EventStudy{... */\n  mstore(0x40, 0x80)\n  callvalue\n  dup1\n  iszero\n  tag_1\n  jumpi\n  0x00\n  dup1\n  revert\ntag_1:\n  pop\n  dataSize(sub_0)\n  dup1\n  dataOffset(sub_0)\n  0x00\n  codecopy\n  0x00\n  return\nstop\n\nsub_0: assembly {\n        /* \"contracts/6_EventStudy.sol\":70:276  contract EventStudy{... */\n      mstore(0x40, 0x80)\n      jumpi(tag_1, lt(calldatasize, 0x04))\n      shr(0xe0, calldataload(0x00))\n      dup1\n      0x70ef58fb\n      eq\n      tag_2\n      jumpi\n    tag_1:\n      0x00\n      dup1\n      revert\n        /* \"contracts/6_EventStudy.sol\":161:274  function deposite(string memory _name) public payable{... */\n    tag_2:\n      tag_3\n      0x04\n      dup1\n      calldatasize\n      sub\n      dup2\n      add\n      swap1\n      tag_4\n      swap2\n      swap1\n      tag_5\n      jump\t// in\n    tag_4:\n      tag_6\n      jump\t// in\n    tag_3:\n      stop\n    tag_6:\n        /* \"contracts/6_EventStudy.sol\":229:267  Deposite(msg.sender, _name, msg.value) */\n      0xa039e83ed22ecf46584c3b924c362d0c075e6d4ac0c1bf6e76295fd33b6e30ae\n        /* \"contracts/6_EventStudy.sol\":238:248  msg.sender */\n      caller\n        /* \"contracts/6_EventStudy.sol\":250:255  _name */\n      dup3\n        /* \"contracts/6_EventStudy.sol\":257:266  msg.value */\n      callvalue\n        /* \"contracts/6_EventStudy.sol\":229:267  Deposite(msg.sender, _name, msg.value) */\n      mload(0x40)\n      tag_8\n      swap4\n      swap3\n      swap2\n      swap1\n      tag_9\n      jump\t// in\n    tag_8:\n      mload(0x40)\n      dup1\n      swap2\n      sub\n      swap1\n      log1\n        /* \"contracts/6_EventStudy.sol\":161:274  function deposite(string memory _name) public payable{... */\n      pop\n      jump\t// out\n        /* \"#utility.yul\":7:419   */\n    tag_11:\n        /* \"#utility.yul\":85:90   */\n      0x00\n        /* \"#utility.yul\":110:176   */\n      tag_13\n        /* \"#utility.yul\":126:175   */\n      tag_14\n        /* \"#utility.yul\":168:174   */\n      dup5\n        /* \"#utility.yul\":126:175   */\n      tag_15\n      jump\t// in\n    tag_14:\n        /* \"#utility.yul\":110:176   */\n      tag_16\n      jump\t// in\n    tag_13:\n        /* \"#utility.yul\":101:176   */\n      swap1\n      pop\n        /* \"#utility.yul\":199:205   */\n      dup3\n        /* \"#utility.yul\":192:197   */\n      dup2\n        /* \"#utility.yul\":185:206   */\n      mstore\n        /* \"#utility.yul\":237:241   */\n      0x20\n        /* \"#utility.yul\":230:235   */\n      dup2\n        /* \"#utility.yul\":226:242   */\n      add\n        /* \"#utility.yul\":275:278   */\n      dup5\n        /* \"#utility.yul\":266:272   */\n      dup5\n        /* \"#utility.yul\":261:264   */\n      dup5\n        /* \"#utility.yul\":257:273   */\n      add\n        /* \"#utility.yul\":254:279   */\n      gt\n        /* \"#utility.yul\":251:363   */\n      iszero\n      tag_17\n      jumpi\n        /* \"#utility.yul\":282:361   */\n      tag_18\n      tag_19\n      jump\t// in\n    tag_18:\n        /* \"#utility.yul\":251:363   */\n    tag_17:\n        /* \"#utility.yul\":372:413   */\n      tag_20\n        /* \"#utility.yul\":406:412   */\n      dup5\n        /* \"#utility.yul\":401:404   */\n      dup3\n        /* \"#utility.yul\":396:399   */\n      dup6\n        /* \"#utility.yul\":372:413   */\n      tag_21\n      jump\t// in\n    tag_20:\n        /* \"#utility.yul\":91:419   */\n      pop\n        /* \"#utility.yul\":7:419   */\n      swap4\n      swap3\n      pop\n      pop\n      pop\n      jump\t// out\n        /* \"#utility.yul\":439:779   */\n    tag_22:\n        /* \"#utility.yul\":495:500   */\n      0x00\n        /* \"#utility.yul\":544:547   */\n      dup3\n        /* \"#utility.yul\":537:541   */\n      0x1f\n        /* \"#utility.yul\":529:535   */\n      dup4\n        /* \"#utility.yul\":525:542   */\n      add\n        /* \"#utility.yul\":521:548   */\n      slt\n        /* \"#utility.yul\":511:633   */\n      tag_24\n      jumpi\n        /* \"#utility.yul\":552:631   */\n      tag_25\n      tag_26\n      jump\t// in\n    tag_25:\n        /* \"#utility.yul\":511:633   */\n    tag_24:\n        /* \"#utility.yul\":669:675   */\n      dup2\n        /* \"#utility.yul\":656:676   */\n      calldataload\n        /* \"#utility.yul\":694:773   */\n      tag_27\n        /* \"#utility.yul\":769:772   */\n      dup5\n        /* \"#utility.yul\":761:767   */\n      dup3\n        /* \"#utility.yul\":754:758   */\n      0x20\n        /* \"#utility.yul\":746:752   */\n      dup7\n        /* \"#utility.yul\":742:759   */\n      add\n        /* \"#utility.yul\":694:773   */\n      tag_11\n      jump\t// in\n    tag_27:\n        /* \"#utility.yul\":685:773   */\n      swap2\n      pop\n        /* \"#utility.yul\":501:779   */\n      pop\n        /* \"#utility.yul\":439:779   */\n      swap3\n      swap2\n      pop\n      pop\n      jump\t// out\n        /* \"#utility.yul\":785:1294   */\n    tag_5:\n        /* \"#utility.yul\":854:860   */\n      0x00\n        /* \"#utility.yul\":903:905   */\n      0x20\n        /* \"#utility.yul\":891:900   */\n      dup3\n        /* \"#utility.yul\":882:889   */\n      dup5\n        /* \"#utility.yul\":878:901   */\n      sub\n        /* \"#utility.yul\":874:906   */\n      slt\n        /* \"#utility.yul\":871:990   */\n      iszero\n      tag_29\n      jumpi\n        /* \"#utility.yul\":909:988   */\n      tag_30\n      tag_31\n      jump\t// in\n    tag_30:\n        /* \"#utility.yul\":871:990   */\n    tag_29:\n        /* \"#utility.yul\":1057:1058   */\n      0x00\n        /* \"#utility.yul\":1046:1055   */\n      dup3\n        /* \"#utility.yul\":1042:1059   */\n      add\n        /* \"#utility.yul\":1029:1060   */\n      calldataload\n        /* \"#utility.yul\":1087:1105   */\n      0xffffffffffffffff\n        /* \"#utility.yul\":1079:1085   */\n      dup2\n        /* \"#utility.yul\":1076:1106   */\n      gt\n        /* \"#utility.yul\":1073:1190   */\n      iszero\n      tag_32\n      jumpi\n        /* \"#utility.yul\":1109:1188   */\n      tag_33\n      tag_34\n      jump\t// in\n    tag_33:\n        /* \"#utility.yul\":1073:1190   */\n    tag_32:\n        /* \"#utility.yul\":1214:1277   */\n      tag_35\n        /* \"#utility.yul\":1269:1276   */\n      dup5\n        /* \"#utility.yul\":1260:1266   */\n      dup3\n        /* \"#utility.yul\":1249:1258   */\n      dup6\n        /* \"#utility.yul\":1245:1267   */\n      add\n        /* \"#utility.yul\":1214:1277   */\n      tag_22\n      jump\t// in\n    tag_35:\n        /* \"#utility.yul\":1204:1277   */\n      swap2\n      pop\n        /* \"#utility.yul\":1000:1287   */\n      pop\n        /* \"#utility.yul\":785:1294   */\n      swap3\n      swap2\n      pop\n      pop\n      jump\t// out\n        /* \"#utility.yul\":1300:1418   */\n    tag_36:\n        /* \"#utility.yul\":1387:1411   */\n      tag_38\n        /* \"#utility.yul\":1405:1410   */\n      dup2\n        /* \"#utility.yul\":1387:1411   */\n      tag_39\n      jump\t// in\n    tag_38:\n        /* \"#utility.yul\":1382:1385   */\n      dup3\n        /* \"#utility.yul\":1375:1412   */\n      mstore\n        /* \"#utility.yul\":1300:1418   */\n      pop\n      pop\n      jump\t// out\n        /* \"#utility.yul\":1424:1788   */\n    tag_40:\n        /* \"#utility.yul\":1512:1515   */\n      0x00\n        /* \"#utility.yul\":1540:1579   */\n      tag_42\n        /* \"#utility.yul\":1573:1578   */\n      dup3\n        /* \"#utility.yul\":1540:1579   */\n      tag_43\n      jump\t// in\n    tag_42:\n        /* \"#utility.yul\":1595:1666   */\n      tag_44\n        /* \"#utility.yul\":1659:1665   */\n      dup2\n        /* \"#utility.yul\":1654:1657   */\n      dup6\n        /* \"#utility.yul\":1595:1666   */\n      tag_45\n      jump\t// in\n    tag_44:\n        /* \"#utility.yul\":1588:1666   */\n      swap4\n      pop\n        /* \"#utility.yul\":1675:1727   */\n      tag_46\n        /* \"#utility.yul\":1720:1726   */\n      dup2\n        /* \"#utility.yul\":1715:1718   */\n      dup6\n        /* \"#utility.yul\":1708:1712   */\n      0x20\n        /* \"#utility.yul\":1701:1706   */\n      dup7\n        /* \"#utility.yul\":1697:1713   */\n      add\n        /* \"#utility.yul\":1675:1727   */\n      tag_47\n      jump\t// in\n    tag_46:\n        /* \"#utility.yul\":1752:1781   */\n      tag_48\n        /* \"#utility.yul\":1774:1780   */\n      dup2\n        /* \"#utility.yul\":1752:1781   */\n      tag_49\n      jump\t// in\n    tag_48:\n        /* \"#utility.yul\":1747:1750   */\n      dup5\n        /* \"#utility.yul\":1743:1782   */\n      add\n        /* \"#utility.yul\":1736:1782   */\n      swap2\n      pop\n        /* \"#utility.yul\":1516:1788   */\n      pop\n        /* \"#utility.yul\":1424:1788   */\n      swap3\n      swap2\n      pop\n      pop\n      jump\t// out\n        /* \"#utility.yul\":1794:1912   */\n    tag_50:\n        /* \"#utility.yul\":1881:1905   */\n      tag_52\n        /* \"#utility.yul\":1899:1904   */\n      dup2\n        /* \"#utility.yul\":1881:1905   */\n      tag_53\n      jump\t// in\n    tag_52:\n        /* \"#utility.yul\":1876:1879   */\n      dup3\n        /* \"#utility.yul\":1869:1906   */\n      mstore\n        /* \"#utility.yul\":1794:1912   */\n      pop\n      pop\n      jump\t// out\n        /* \"#utility.yul\":1918:2451   */\n    tag_9:\n        /* \"#utility.yul\":2087:2091   */\n      0x00\n        /* \"#utility.yul\":2125:2127   */\n      0x60\n        /* \"#utility.yul\":2114:2123   */\n      dup3\n        /* \"#utility.yul\":2110:2128   */\n      add\n        /* \"#utility.yul\":2102:2128   */\n      swap1\n      pop\n        /* \"#utility.yul\":2138:2209   */\n      tag_55\n        /* \"#utility.yul\":2206:2207   */\n      0x00\n        /* \"#utility.yul\":2195:2204   */\n      dup4\n        /* \"#utility.yul\":2191:2208   */\n      add\n        /* \"#utility.yul\":2182:2188   */\n      dup7\n        /* \"#utility.yul\":2138:2209   */\n      tag_36\n      jump\t// in\n    tag_55:\n        /* \"#utility.yul\":2256:2265   */\n      dup2\n        /* \"#utility.yul\":2250:2254   */\n      dup2\n        /* \"#utility.yul\":2246:2266   */\n      sub\n        /* \"#utility.yul\":2241:2243   */\n      0x20\n        /* \"#utility.yul\":2230:2239   */\n      dup4\n        /* \"#utility.yul\":2226:2244   */\n      add\n        /* \"#utility.yul\":2219:2267   */\n      mstore\n        /* \"#utility.yul\":2284:2362   */\n      tag_56\n        /* \"#utility.yul\":2357:2361   */\n      dup2\n        /* \"#utility.yul\":2348:2354   */\n      dup6\n        /* \"#utility.yul\":2284:2362   */\n      tag_40\n      jump\t// in\n    tag_56:\n        /* \"#utility.yul\":2276:2362   */\n      swap1\n      pop\n        /* \"#utility.yul\":2372:2444   */\n      tag_57\n        /* \"#utility.yul\":2440:2442   */\n      0x40\n        /* \"#utility.yul\":2429:2438   */\n      dup4\n        /* \"#utility.yul\":2425:2443   */\n      add\n        /* \"#utility.yul\":2416:2422   */\n      dup5\n        /* \"#utility.yul\":2372:2444   */\n      tag_50\n      jump\t// in\n    tag_57:\n        /* \"#utility.yul\":1918:2451   */\n      swap5\n      swap4\n      pop\n      pop\n      pop\n      pop\n      jump\t// out\n        /* \"#utility.yul\":2457:2586   */\n    tag_16:\n        /* \"#utility.yul\":2491:2497   */\n      0x00\n        /* \"#utility.yul\":2518:2538   */\n      tag_59\n      tag_60\n      jump\t// in\n    tag_59:\n        /* \"#utility.yul\":2508:2538   */\n      swap1\n      pop\n        /* \"#utility.yul\":2547:2580   */\n      tag_61\n        /* \"#utility.yul\":2575:2579   */\n      dup3\n        /* \"#utility.yul\":2567:2573   */\n      dup3\n        /* \"#utility.yul\":2547:2580   */\n      tag_62\n      jump\t// in\n    tag_61:\n        /* \"#utility.yul\":2457:2586   */\n      swap2\n      swap1\n      pop\n      jump\t// out\n        /* \"#utility.yul\":2592:2667   */\n    tag_60:\n        /* \"#utility.yul\":2625:2631   */\n      0x00\n        /* \"#utility.yul\":2658:2660   */\n      0x40\n        /* \"#utility.yul\":2652:2661   */\n      mload\n        /* \"#utility.yul\":2642:2661   */\n      swap1\n      pop\n        /* \"#utility.yul\":2592:2667   */\n      swap1\n      jump\t// out\n        /* \"#utility.yul\":2673:2981   */\n    tag_15:\n        /* \"#utility.yul\":2735:2739   */\n      0x00\n        /* \"#utility.yul\":2825:2843   */\n      0xffffffffffffffff\n        /* \"#utility.yul\":2817:2823   */\n      dup3\n        /* \"#utility.yul\":2814:2844   */\n      gt\n        /* \"#utility.yul\":2811:2867   */\n      iszero\n      tag_65\n      jumpi\n        /* \"#utility.yul\":2847:2865   */\n      tag_66\n      tag_67\n      jump\t// in\n    tag_66:\n        /* \"#utility.yul\":2811:2867   */\n    tag_65:\n        /* \"#utility.yul\":2885:2914   */\n      tag_68\n        /* \"#utility.yul\":2907:2913   */\n      dup3\n        /* \"#utility.yul\":2885:2914   */\n      tag_49\n      jump\t// in\n    tag_68:\n        /* \"#utility.yul\":2877:2914   */\n      swap1\n      pop\n        /* \"#utility.yul\":2969:2973   */\n      0x20\n        /* \"#utility.yul\":2963:2967   */\n      dup2\n        /* \"#utility.yul\":2959:2974   */\n      add\n        /* \"#utility.yul\":2951:2974   */\n      swap1\n      pop\n        /* \"#utility.yul\":2673:2981   */\n      swap2\n      swap1\n      pop\n      jump\t// out\n        /* \"#utility.yul\":2987:3086   */\n    tag_43:\n        /* \"#utility.yul\":3039:3045   */\n      0x00\n        /* \"#utility.yul\":3073:3078   */\n      dup2\n        /* \"#utility.yul\":3067:3079   */\n      mload\n        /* \"#utility.yul\":3057:3079   */\n      swap1\n      pop\n        /* \"#utility.yul\":2987:3086   */\n      swap2\n      swap1\n      pop\n      jump\t// out\n        /* \"#utility.yul\":3092:3261   */\n    tag_45:\n        /* \"#utility.yul\":3176:3187   */\n      0x00\n        /* \"#utility.yul\":3210:3216   */\n      dup3\n        /* \"#utility.yul\":3205:3208   */\n      dup3\n        /* \"#utility.yul\":3198:3217   */\n      mstore\n        /* \"#utility.yul\":3250:3254   */\n      0x20\n        /* \"#utility.yul\":3245:3248   */\n      dup3\n        /* \"#utility.yul\":3241:3255   */\n      add\n        /* \"#utility.yul\":3226:3255   */\n      swap1\n      pop\n        /* \"#utility.yul\":3092:3261   */\n      swap3\n      swap2\n      pop\n      pop\n      jump\t// out\n        /* \"#utility.yul\":3267:3363   */\n    tag_39:\n        /* \"#utility.yul\":3304:3311   */\n      0x00\n        /* \"#utility.yul\":3333:3357   */\n      tag_72\n        /* \"#utility.yul\":3351:3356   */\n      dup3\n        /* \"#utility.yul\":3333:3357   */\n      tag_73\n      jump\t// in\n    tag_72:\n        /* \"#utility.yul\":3322:3357   */\n      swap1\n      pop\n        /* \"#utility.yul\":3267:3363   */\n      swap2\n      swap1\n      pop\n      jump\t// out\n        /* \"#utility.yul\":3369:3495   */\n    tag_73:\n        /* \"#utility.yul\":3406:3413   */\n      0x00\n        /* \"#utility.yul\":3446:3488   */\n      0xffffffffffffffffffffffffffffffffffffffff\n        /* \"#utility.yul\":3439:3444   */\n      dup3\n        /* \"#utility.yul\":3435:3489   */\n      and\n        /* \"#utility.yul\":3424:3489   */\n      swap1\n      pop\n        /* \"#utility.yul\":3369:3495   */\n      swap2\n      swap1\n      pop\n      jump\t// out\n        /* \"#utility.yul\":3501:3578   */\n    tag_53:\n        /* \"#utility.yul\":3538:3545   */\n      0x00\n        /* \"#utility.yul\":3567:3572   */\n      dup2\n        /* \"#utility.yul\":3556:3572   */\n      swap1\n      pop\n        /* \"#utility.yul\":3501:3578   */\n      swap2\n      swap1\n      pop\n      jump\t// out\n        /* \"#utility.yul\":3584:3738   */\n    tag_21:\n        /* \"#utility.yul\":3668:3674   */\n      dup3\n        /* \"#utility.yul\":3663:3666   */\n      dup2\n        /* \"#utility.yul\":3658:3661   */\n      dup4\n        /* \"#utility.yul\":3645:3675   */\n      calldatacopy\n        /* \"#utility.yul\":3730:3731   */\n      0x00\n        /* \"#utility.yul\":3721:3727   */\n      dup4\n        /* \"#utility.yul\":3716:3719   */\n      dup4\n        /* \"#utility.yul\":3712:3728   */\n      add\n        /* \"#utility.yul\":3705:3732   */\n      mstore\n        /* \"#utility.yul\":3584:3738   */\n      pop\n      pop\n      pop\n      jump\t// out\n        /* \"#utility.yul\":3744:4051   */\n    tag_47:\n        /* \"#utility.yul\":3812:3813   */\n      0x00\n        /* \"#utility.yul\":3822:3935   */\n    tag_78:\n        /* \"#utility.yul\":3836:3842   */\n      dup4\n        /* \"#utility.yul\":3833:3834   */\n      dup2\n        /* \"#utility.yul\":3830:3843   */\n      lt\n        /* \"#utility.yul\":3822:3935   */\n      iszero\n      tag_80\n      jumpi\n        /* \"#utility.yul\":3921:3922   */\n      dup1\n        /* \"#utility.yul\":3916:3919   */\n      dup3\n        /* \"#utility.yul\":3912:3923   */\n      add\n        /* \"#utility.yul\":3906:3924   */\n      mload\n        /* \"#utility.yul\":3902:3903   */\n      dup2\n        /* \"#utility.yul\":3897:3900   */\n      dup5\n        /* \"#utility.yul\":3893:3904   */\n      add\n        /* \"#utility.yul\":3886:3925   */\n      mstore\n        /* \"#utility.yul\":3858:3860   */\n      0x20\n        /* \"#utility.yul\":3855:3856   */\n      dup2\n        /* \"#utility.yul\":3851:3861   */\n      add\n        /* \"#utility.yul\":3846:3861   */\n      swap1\n      pop\n        /* \"#utility.yul\":3822:3935   */\n      jump(tag_78)\n    tag_80:\n        /* \"#utility.yul\":3953:3959   */\n      dup4\n        /* \"#utility.yul\":3950:3951   */\n      dup2\n        /* \"#utility.yul\":3947:3960   */\n      gt\n        /* \"#utility.yul\":3944:4045   */\n      iszero\n      tag_81\n      jumpi\n        /* \"#utility.yul\":4033:4034   */\n      0x00\n        /* \"#utility.yul\":4024:4030   */\n      dup5\n        /* \"#utility.yul\":4019:4022   */\n      dup5\n        /* \"#utility.yul\":4015:4031   */\n      add\n        /* \"#utility.yul\":4008:4035   */\n      mstore\n        /* \"#utility.yul\":3944:4045   */\n    tag_81:\n        /* \"#utility.yul\":3793:4051   */\n      pop\n        /* \"#utility.yul\":3744:4051   */\n      pop\n      pop\n      pop\n      jump\t// out\n        /* \"#utility.yul\":4057:4338   */\n    tag_62:\n        /* \"#utility.yul\":4140:4167   */\n      tag_83\n        /* \"#utility.yul\":4162:4166   */\n      dup3\n        /* \"#utility.yul\":4140:4167   */\n      tag_49\n      jump\t// in\n    tag_83:\n        /* \"#utility.yul\":4132:4138   */\n      dup2\n        /* \"#utility.yul\":4128:4168   */\n      add\n        /* \"#utility.yul\":4270:4276   */\n      dup2\n        /* \"#utility.yul\":4258:4268   */\n      dup2\n        /* \"#utility.yul\":4255:4277   */\n      lt\n        /* \"#utility.yul\":4234:4252   */\n      0xffffffffffffffff\n        /* \"#utility.yul\":4222:4232   */\n      dup3\n        /* \"#utility.yul\":4219:4253   */\n      gt\n        /* \"#utility.yul\":4216:4278   */\n      or\n        /* \"#utility.yul\":4213:4301   */\n      iszero\n      tag_84\n      jumpi\n        /* \"#utility.yul\":4281:4299   */\n      tag_85\n      tag_67\n      jump\t// in\n    tag_85:\n        /* \"#utility.yul\":4213:4301   */\n    tag_84:\n        /* \"#utility.yul\":4321:4331   */\n      dup1\n        /* \"#utility.yul\":4317:4319   */\n      0x40\n        /* \"#utility.yul\":4310:4332   */\n      mstore\n        /* \"#utility.yul\":4100:4338   */\n      pop\n        /* \"#utility.yul\":4057:4338   */\n      pop\n      pop\n      jump\t// out\n        /* \"#utility.yul\":4344:4524   */\n    tag_67:\n        /* \"#utility.yul\":4392:4469   */\n      0x4e487b7100000000000000000000000000000000000000000000000000000000\n        /* \"#utility.yul\":4389:4390   */\n      0x00\n        /* \"#utility.yul\":4382:4470   */\n      mstore\n        /* \"#utility.yul\":4489:4493   */\n      0x41\n        /* \"#utility.yul\":4486:4487   */\n      0x04\n        /* \"#utility.yul\":4479:4494   */\n      mstore\n        /* \"#utility.yul\":4513:4517   */\n      0x24\n        /* \"#utility.yul\":4510:4511   */\n      0x00\n        /* \"#utility.yul\":4503:4518   */\n      revert\n        /* \"#utility.yul\":4530:4647   */\n    tag_26:\n        /* \"#utility.yul\":4639:4640   */\n      0x00\n        /* \"#utility.yul\":4636:4637   */\n      dup1\n        /* \"#utility.yul\":4629:4641   */\n      revert\n        /* \"#utility.yul\":4653:4770   */\n    tag_19:\n        /* \"#utility.yul\":4762:4763   */\n      0x00\n        /* \"#utility.yul\":4759:4760   */\n      dup1\n        /* \"#utility.yul\":4752:4764   */\n      revert\n        /* \"#utility.yul\":4776:4893   */\n    tag_34:\n        /* \"#utility.yul\":4885:4886   */\n      0x00\n        /* \"#utility.yul\":4882:4883   */\n      dup1\n        /* \"#utility.yul\":4875:4887   */\n      revert\n        /* \"#utility.yul\":4899:5016   */\n    tag_31:\n        /* \"#utility.yul\":5008:5009   */\n      0x00\n        /* \"#utility.yul\":5005:5006   */\n      dup1\n        /* \"#utility.yul\":4998:5010   */\n      revert\n        /* \"#utility.yul\":5022:5124   */\n    tag_49:\n        /* \"#utility.yul\":5063:5069   */\n      0x00\n        /* \"#utility.yul\":5114:5116   */\n      0x1f\n        /* \"#utility.yul\":5110:5117   */\n      not\n        /* \"#utility.yul\":5105:5107   */\n      0x1f\n        /* \"#utility.yul\":5098:5103   */\n      dup4\n        /* \"#utility.yul\":5094:5108   */\n      add\n        /* \"#utility.yul\":5090:5118   */\n      and\n        /* \"#utility.yul\":5080:5118   */\n      swap1\n      pop\n        /* \"#utility.yul\":5022:5124   */\n      swap2\n      swap1\n      pop\n      jump\t// out\n\n    auxdata: 0xa264697066735822122038b7296ee934de024715eed7aca94cadbd11203ad73d7d8eab1258e8a033dc6264736f6c63430008070033\n}\n",
				"bytecode": {
					"linkReferences": {},
					"object": "608060405234801561001057600080fd5b50610376806100206000396000f3fe60806040526004361061001e5760003560e01c806370ef58fb14610023575b600080fd5b61003d600480360381019061003891906100ed565b61003f565b005b7fa039e83ed22ecf46584c3b924c362d0c075e6d4ac0c1bf6e76295fd33b6e30ae3382346040516100729392919061018d565b60405180910390a150565b600061009061008b846101f0565b6101cb565b9050828152602081018484840111156100ac576100ab610320565b5b6100b7848285610279565b509392505050565b600082601f8301126100d4576100d361031b565b5b81356100e484826020860161007d565b91505092915050565b6000602082840312156101035761010261032a565b5b600082013567ffffffffffffffff81111561012157610120610325565b5b61012d848285016100bf565b91505092915050565b61013f8161023d565b82525050565b600061015082610221565b61015a818561022c565b935061016a818560208601610288565b6101738161032f565b840191505092915050565b6101878161026f565b82525050565b60006060820190506101a26000830186610136565b81810360208301526101b48185610145565b90506101c3604083018461017e565b949350505050565b60006101d56101e6565b90506101e182826102bb565b919050565b6000604051905090565b600067ffffffffffffffff82111561020b5761020a6102ec565b5b6102148261032f565b9050602081019050919050565b600081519050919050565b600082825260208201905092915050565b60006102488261024f565b9050919050565b600073ffffffffffffffffffffffffffffffffffffffff82169050919050565b6000819050919050565b82818337600083830152505050565b60005b838110156102a657808201518184015260208101905061028b565b838111156102b5576000848401525b50505050565b6102c48261032f565b810181811067ffffffffffffffff821117156102e3576102e26102ec565b5b80604052505050565b7f4e487b7100000000000000000000000000000000000000000000000000000000600052604160045260246000fd5b600080fd5b600080fd5b600080fd5b600080fd5b6000601f19601f830116905091905056fea264697066735822122038b7296ee934de024715eed7aca94cadbd11203ad73d7d8eab1258e8a033dc6264736f6c63430008070033",
					"opcodes": "PUSH1 0x80 PUSH1 0x40 MSTORE CALLVALUE DUP1 ISZERO PUSH2 0x10 JUMPI PUSH1 0x0 DUP1 REVERT JUMPDEST POP PUSH2 0x376 DUP1 PUSH2 0x20 PUSH1 0x0 CODECOPY PUSH1 0x0 RETURN INVALID PUSH1 0x80 PUSH1 0x40 MSTORE PUSH1 0x4 CALLDATASIZE LT PUSH2 0x1E JUMPI PUSH1 0x0 CALLDATALOAD PUSH1 0xE0 SHR DUP1 PUSH4 0x70EF58FB EQ PUSH2 0x23 JUMPI JUMPDEST PUSH1 0x0 DUP1 REVERT JUMPDEST PUSH2 0x3D PUSH1 0x4 DUP1 CALLDATASIZE SUB DUP2 ADD SWAP1 PUSH2 0x38 SWAP2 SWAP1 PUSH2 0xED JUMP JUMPDEST PUSH2 0x3F JUMP JUMPDEST STOP JUMPDEST PUSH32 0xA039E83ED22ECF46584C3B924C362D0C075E6D4AC0C1BF6E76295FD33B6E30AE CALLER DUP3 CALLVALUE PUSH1 0x40 MLOAD PUSH2 0x72 SWAP4 SWAP3 SWAP2 SWAP1 PUSH2 0x18D JUMP JUMPDEST PUSH1 0x40 MLOAD DUP1 SWAP2 SUB SWAP1 LOG1 POP JUMP JUMPDEST PUSH1 0x0 PUSH2 0x90 PUSH2 0x8B DUP5 PUSH2 0x1F0 JUMP JUMPDEST PUSH2 0x1CB JUMP JUMPDEST SWAP1 POP DUP3 DUP2 MSTORE PUSH1 0x20 DUP2 ADD DUP5 DUP5 DUP5 ADD GT ISZERO PUSH2 0xAC JUMPI PUSH2 0xAB PUSH2 0x320 JUMP JUMPDEST JUMPDEST PUSH2 0xB7 DUP5 DUP3 DUP6 PUSH2 0x279 JUMP JUMPDEST POP SWAP4 SWAP3 POP POP POP JUMP JUMPDEST PUSH1 0x0 DUP3 PUSH1 0x1F DUP4 ADD SLT PUSH2 0xD4 JUMPI PUSH2 0xD3 PUSH2 0x31B JUMP JUMPDEST JUMPDEST DUP2 CALLDATALOAD PUSH2 0xE4 DUP5 DUP3 PUSH1 0x20 DUP7 ADD PUSH2 0x7D JUMP JUMPDEST SWAP2 POP POP SWAP3 SWAP2 POP POP JUMP JUMPDEST PUSH1 0x0 PUSH1 0x20 DUP3 DUP5 SUB SLT ISZERO PUSH2 0x103 JUMPI PUSH2 0x102 PUSH2 0x32A JUMP JUMPDEST JUMPDEST PUSH1 0x0 DUP3 ADD CALLDATALOAD PUSH8 0xFFFFFFFFFFFFFFFF DUP2 GT ISZERO PUSH2 0x121 JUMPI PUSH2 0x120 PUSH2 0x325 JUMP JUMPDEST JUMPDEST PUSH2 0x12D DUP5 DUP3 DUP6 ADD PUSH2 0xBF JUMP JUMPDEST SWAP2 POP POP SWAP3 SWAP2 POP POP JUMP JUMPDEST PUSH2 0x13F DUP2 PUSH2 0x23D JUMP JUMPDEST DUP3 MSTORE POP POP JUMP JUMPDEST PUSH1 0x0 PUSH2 0x150 DUP3 PUSH2 0x221 JUMP JUMPDEST PUSH2 0x15A DUP2 DUP6 PUSH2 0x22C JUMP JUMPDEST SWAP4 POP PUSH2 0x16A DUP2 DUP6 PUSH1 0x20 DUP7 ADD PUSH2 0x288 JUMP JUMPDEST PUSH2 0x173 DUP2 PUSH2 0x32F JUMP JUMPDEST DUP5 ADD SWAP2 POP POP SWAP3 SWAP2 POP POP JUMP JUMPDEST PUSH2 0x187 DUP2 PUSH2 0x26F JUMP JUMPDEST DUP3 MSTORE POP POP JUMP JUMPDEST PUSH1 0x0 PUSH1 0x60 DUP3 ADD SWAP1 POP PUSH2 0x1A2 PUSH1 0x0 DUP4 ADD DUP7 PUSH2 0x136 JUMP JUMPDEST DUP2 DUP2 SUB PUSH1 0x20 DUP4 ADD MSTORE PUSH2 0x1B4 DUP2 DUP6 PUSH2 0x145 JUMP JUMPDEST SWAP1 POP PUSH2 0x1C3 PUSH1 0x40 DUP4 ADD DUP5 PUSH2 0x17E JUMP JUMPDEST SWAP5 SWAP4 POP POP POP POP JUMP JUMPDEST PUSH1 0x0 PUSH2 0x1D5 PUSH2 0x1E6 JUMP JUMPDEST SWAP1 POP PUSH2 0x1E1 DUP3 DUP3 PUSH2 0x2BB JUMP JUMPDEST SWAP2 SWAP1 POP JUMP JUMPDEST PUSH1 0x0 PUSH1 0x40 MLOAD SWAP1 POP SWAP1 JUMP JUMPDEST PUSH1 0x0 PUSH8 0xFFFFFFFFFFFFFFFF DUP3 GT ISZERO PUSH2 0x20B JUMPI PUSH2 0x20A PUSH2 0x2EC JUMP JUMPDEST JUMPDEST PUSH2 0x214 DUP3 PUSH2 0x32F JUMP JUMPDEST SWAP1 POP PUSH1 0x20 DUP2 ADD SWAP1 POP SWAP2 SWAP1 POP JUMP JUMPDEST PUSH1 0x0 DUP2 MLOAD SWAP1 POP SWAP2 SWAP1 POP JUMP JUMPDEST PUSH1 0x0 DUP3 DUP3 MSTORE PUSH1 0x20 DUP3 ADD SWAP1 POP SWAP3 SWAP2 POP POP JUMP JUMPDEST PUSH1 0x0 PUSH2 0x248 DUP3 PUSH2 0x24F JUMP JUMPDEST SWAP1 POP SWAP2 SWAP1 POP JUMP JUMPDEST PUSH1 0x0 PUSH20 0xFFFFFFFFFFFFFFFFFFFFFFFFFFFFFFFFFFFFFFFF DUP3 AND SWAP1 POP SWAP2 SWAP1 POP JUMP JUMPDEST PUSH1 0x0 DUP2 SWAP1 POP SWAP2 SWAP1 POP JUMP JUMPDEST DUP3 DUP2 DUP4 CALLDATACOPY PUSH1 0x0 DUP4 DUP4 ADD MSTORE POP POP POP JUMP JUMPDEST PUSH1 0x0 JUMPDEST DUP4 DUP2 LT ISZERO PUSH2 0x2A6 JUMPI DUP1 DUP3 ADD MLOAD DUP2 DUP5 ADD MSTORE PUSH1 0x20 DUP2 ADD SWAP1 POP PUSH2 0x28B JUMP JUMPDEST DUP4 DUP2 GT ISZERO PUSH2 0x2B5 JUMPI PUSH1 0x0 DUP5 DUP5 ADD MSTORE JUMPDEST POP POP POP POP JUMP JUMPDEST PUSH2 0x2C4 DUP3 PUSH2 0x32F JUMP JUMPDEST DUP2 ADD DUP2 DUP2 LT PUSH8 0xFFFFFFFFFFFFFFFF DUP3 GT OR ISZERO PUSH2 0x2E3 JUMPI PUSH2 0x2E2 PUSH2 0x2EC JUMP JUMPDEST JUMPDEST DUP1 PUSH1 0x40 MSTORE POP POP POP JUMP JUMPDEST PUSH32 0x4E487B7100000000000000000000000000000000000000000000000000000000 PUSH1 0x0 MSTORE PUSH1 0x41 PUSH1 0x4 MSTORE PUSH1 0x24 PUSH1 0x0 REVERT JUMPDEST PUSH1 0x0 DUP1 REVERT JUMPDEST PUSH1 0x0 DUP1 REVERT JUMPDEST PUSH1 0x0 DUP1 REVERT JUMPDEST PUSH1 0x0 DUP1 REVERT JUMPDEST PUSH1 0x0 PUSH1 0x1F NOT PUSH1 0x1F DUP4 ADD AND SWAP1 POP SWAP2 SWAP1 POP JUMP INVALID LOG2 PUSH5 0x6970667358 0x22 SLT KECCAK256 CODESIZE 0xB7 0x29 PUSH15 0xE934DE024715EED7ACA94CADBD1120 GASPRICE 0xD7 RETURNDATASIZE PUSH30 0x8EAB1258E8A033DC6264736F6C6343000807003300000000000000000000 "
				},
				"gasEstimates": {
					"creation": {
						"codeDepositCost": "177200",
						"executionCost": "220",
						"totalCost": "177420"
					},
					"external": {
						"deposite(string)": "infinite"
					}
				},
				"methodIdentifiers": {
					"deposite(string)": "70ef58fb"
				}
			},
			"storageLayout": {
				"storage": [],
				"types": null
			},
			"userdoc": {
				"kind": "user",
				"methods": {},
				"version": 1
			}
		}
	}
}