{
	"contracts/16_Dex.sol": {
		"DEX": {
			"abi": [
				{
					"inputs": [],
					"stateMutability": "nonpayable",
					"type": "constructor"
				},
				{
					"anonymous": false,
					"inputs": [
						{
							"indexed": false,
							"internalType": "uint256",
							"name": "amount",
							"type": "uint256"
						}
					],
					"name": "Bought",
					"type": "event"
				},
				{
					"anonymous": false,
					"inputs": [
						{
							"indexed": false,
							"internalType": "uint256",
							"name": "amount",
							"type": "uint256"
						}
					],
					"name": "Sold",
					"type": "event"
				},
				{
					"inputs": [],
					"name": "buy",
					"outputs": [],
					"stateMutability": "payable",
					"type": "function"
				},
				{
					"inputs": [],
					"name": "getDexBalance",
					"outputs": [
						{
							"internalType": "uint256",
							"name": "",
							"type": "uint256"
						}
					],
					"stateMutability": "view",
					"type": "function"
				},
				{
					"inputs": [],
					"name": "getOwnerBalance",
					"outputs": [
						{
							"internalType": "uint256",
							"name": "",
							"type": "uint256"
						}
					],
					"stateMutability": "view",
					"type": "function"
				},
				{
					"inputs": [
						{
							"internalType": "uint256",
							"name": "amount",
							"type": "uint256"
						}
					],
					"name": "sell",
					"outputs": [],
					"stateMutability": "payable",
					"type": "function"
				},
				{
					"inputs": [],
					"name": "token",
					"outputs": [
						{
							"internalType": "contract IERC20",
							"name": "",
							"type": "address"
						}
					],
					"stateMutability": "view",
					"type": "function"
				}
			],
			"devdoc": {
				"kind": "dev",
				"methods": {},
				"version": 1
			},
			"evm": {
				"assembly": "    /* \"contracts/16_Dex.sol\":3192:4300  contract DEX{... */\n  mstore(0x40, 0x80)\n    /* \"contracts/16_Dex.sol\":3303:3355  constructor(){... */\n  callvalue\n  dup1\n  iszero\n  tag_1\n  jumpi\n  0x00\n  dup1\n  revert\ntag_1:\n  pop\n    /* \"contracts/16_Dex.sol\":3332:3348  new ERC20Basic() */\n  mload(0x40)\n  tag_4\n  swap1\n  tag_5\n  jump\t// in\ntag_4:\n  mload(0x40)\n  dup1\n  swap2\n  sub\n  swap1\n  0x00\n  create\n  dup1\n  iszero\n  dup1\n  iszero\n  tag_6\n  jumpi\n  returndatasize\n  0x00\n  dup1\n  returndatacopy\n  revert(0x00, returndatasize)\ntag_6:\n  pop\n    /* \"contracts/16_Dex.sol\":3326:3331  token */\n  0x00\n  dup1\n    /* \"contracts/16_Dex.sol\":3326:3348  token=new ERC20Basic() */\n  0x0100\n  exp\n  dup2\n  sload\n  dup2\n  0xffffffffffffffffffffffffffffffffffffffff\n  mul\n  not\n  and\n  swap1\n  dup4\n  0xffffffffffffffffffffffffffffffffffffffff\n  and\n  mul\n  or\n  swap1\n  sstore\n  pop\n    /* \"contracts/16_Dex.sol\":3192:4300  contract DEX{... */\n  jump(tag_7)\ntag_5:\n  dataSize(sub_1)\n  dup1\n  dataOffset(sub_1)\n  dup4\n  codecopy\n  add\n  swap1\n  jump\t// out\ntag_7:\n  dataSize(sub_0)\n  dup1\n  dataOffset(sub_0)\n  0x00\n  codecopy\n  0x00\n  return\nstop\n\nsub_0: assembly {\n        /* \"contracts/16_Dex.sol\":3192:4300  contract DEX{... */\n      mstore(0x40, 0x80)\n      jumpi(tag_1, lt(calldatasize, 0x04))\n      shr(0xe0, calldataload(0x00))\n      dup1\n      0x430f4801\n      eq\n      tag_2\n      jumpi\n      dup1\n      0x590791f2\n      eq\n      tag_3\n      jumpi\n      dup1\n      0xa6f2ae3a\n      eq\n      tag_4\n      jumpi\n      dup1\n      0xe4849b32\n      eq\n      tag_5\n      jumpi\n      dup1\n      0xfc0c546a\n      eq\n      tag_6\n      jumpi\n    tag_1:\n      0x00\n      dup1\n      revert\n        /* \"contracts/16_Dex.sol\":4073:4180  function getDexBalance() public view returns(uint256){... */\n    tag_2:\n      callvalue\n      dup1\n      iszero\n      tag_7\n      jumpi\n      0x00\n      dup1\n      revert\n    tag_7:\n      pop\n      tag_8\n      tag_9\n      jump\t// in\n    tag_8:\n      mload(0x40)\n      tag_10\n      swap2\n      swap1\n      tag_11\n      jump\t// in\n    tag_10:\n      mload(0x40)\n      dup1\n      swap2\n      sub\n      swap1\n      return\n        /* \"contracts/16_Dex.sol\":4186:4292  function getOwnerBalance() public view returns(uint256){... */\n    tag_3:\n      callvalue\n      dup1\n      iszero\n      tag_12\n      jumpi\n      0x00\n      dup1\n      revert\n    tag_12:\n      pop\n      tag_13\n      tag_14\n      jump\t// in\n    tag_13:\n      mload(0x40)\n      tag_15\n      swap2\n      swap1\n      tag_11\n      jump\t// in\n    tag_15:\n      mload(0x40)\n      dup1\n      swap2\n      sub\n      swap1\n      return\n        /* \"contracts/16_Dex.sol\":3361:3720  function buy() payable public{... */\n    tag_4:\n      tag_16\n      tag_17\n      jump\t// in\n    tag_16:\n      stop\n        /* \"contracts/16_Dex.sol\":3726:4067  function sell(uint256 amount) payable public{... */\n    tag_5:\n      tag_18\n      0x04\n      dup1\n      calldatasize\n      sub\n      dup2\n      add\n      swap1\n      tag_19\n      swap2\n      swap1\n      tag_20\n      jump\t// in\n    tag_19:\n      tag_21\n      jump\t// in\n    tag_18:\n      stop\n        /* \"contracts/16_Dex.sol\":3277:3296  IERC20 public token */\n    tag_6:\n      callvalue\n      dup1\n      iszero\n      tag_22\n      jumpi\n      0x00\n      dup1\n      revert\n    tag_22:\n      pop\n      tag_23\n      tag_24\n      jump\t// in\n    tag_23:\n      mload(0x40)\n      tag_25\n      swap2\n      swap1\n      tag_26\n      jump\t// in\n    tag_25:\n      mload(0x40)\n      dup1\n      swap2\n      sub\n      swap1\n      return\n        /* \"contracts/16_Dex.sol\":4073:4180  function getDexBalance() public view returns(uint256){... */\n    tag_9:\n        /* \"contracts/16_Dex.sol\":4118:4125  uint256 */\n      0x00\n        /* \"contracts/16_Dex.sol\":4143:4148  token */\n      dup1\n      0x00\n      swap1\n      sload\n      swap1\n      0x0100\n      exp\n      swap1\n      div\n      0xffffffffffffffffffffffffffffffffffffffff\n      and\n        /* \"contracts/16_Dex.sol\":4143:4158  token.balanceOf */\n      0xffffffffffffffffffffffffffffffffffffffff\n      and\n      0x70a08231\n        /* \"contracts/16_Dex.sol\":4167:4171  this */\n      address\n        /* \"contracts/16_Dex.sol\":4143:4173  token.balanceOf(address(this)) */\n      mload(0x40)\n      dup3\n      0xffffffff\n      and\n      0xe0\n      shl\n      dup2\n      mstore\n      0x04\n      add\n      tag_28\n      swap2\n      swap1\n      tag_29\n      jump\t// in\n    tag_28:\n      0x20\n      mload(0x40)\n      dup1\n      dup4\n      sub\n      dup2\n      dup7\n      dup1\n      extcodesize\n      iszero\n      dup1\n      iszero\n      tag_30\n      jumpi\n      0x00\n      dup1\n      revert\n    tag_30:\n      pop\n      gas\n      staticcall\n      iszero\n      dup1\n      iszero\n      tag_32\n      jumpi\n      returndatasize\n      0x00\n      dup1\n      returndatacopy\n      revert(0x00, returndatasize)\n    tag_32:\n      pop\n      pop\n      pop\n      pop\n      mload(0x40)\n      returndatasize\n      not(0x1f)\n      0x1f\n      dup3\n      add\n      and\n      dup3\n      add\n      dup1\n      0x40\n      mstore\n      pop\n      dup2\n      add\n      swap1\n      tag_33\n      swap2\n      swap1\n      tag_34\n      jump\t// in\n    tag_33:\n        /* \"contracts/16_Dex.sol\":4136:4173  return token.balanceOf(address(this)) */\n      swap1\n      pop\n        /* \"contracts/16_Dex.sol\":4073:4180  function getDexBalance() public view returns(uint256){... */\n      swap1\n      jump\t// out\n        /* \"contracts/16_Dex.sol\":4186:4292  function getOwnerBalance() public view returns(uint256){... */\n    tag_14:\n        /* \"contracts/16_Dex.sol\":4233:4240  uint256 */\n      0x00\n        /* \"contracts/16_Dex.sol\":4258:4263  token */\n      dup1\n      0x00\n      swap1\n      sload\n      swap1\n      0x0100\n      exp\n      swap1\n      div\n      0xffffffffffffffffffffffffffffffffffffffff\n      and\n        /* \"contracts/16_Dex.sol\":4258:4273  token.balanceOf */\n      0xffffffffffffffffffffffffffffffffffffffff\n      and\n      0x70a08231\n        /* \"contracts/16_Dex.sol\":4274:4284  msg.sender */\n      caller\n        /* \"contracts/16_Dex.sol\":4258:4285  token.balanceOf(msg.sender) */\n      mload(0x40)\n      dup3\n      0xffffffff\n      and\n      0xe0\n      shl\n      dup2\n      mstore\n      0x04\n      add\n      tag_36\n      swap2\n      swap1\n      tag_29\n      jump\t// in\n    tag_36:\n      0x20\n      mload(0x40)\n      dup1\n      dup4\n      sub\n      dup2\n      dup7\n      dup1\n      extcodesize\n      iszero\n      dup1\n      iszero\n      tag_37\n      jumpi\n      0x00\n      dup1\n      revert\n    tag_37:\n      pop\n      gas\n      staticcall\n      iszero\n      dup1\n      iszero\n      tag_39\n      jumpi\n      returndatasize\n      0x00\n      dup1\n      returndatacopy\n      revert(0x00, returndatasize)\n    tag_39:\n      pop\n      pop\n      pop\n      pop\n      mload(0x40)\n      returndatasize\n      not(0x1f)\n      0x1f\n      dup3\n      add\n      and\n      dup3\n      add\n      dup1\n      0x40\n      mstore\n      pop\n      dup2\n      add\n      swap1\n      tag_40\n      swap2\n      swap1\n      tag_34\n      jump\t// in\n    tag_40:\n        /* \"contracts/16_Dex.sol\":4251:4285  return token.balanceOf(msg.sender) */\n      swap1\n      pop\n        /* \"contracts/16_Dex.sol\":4186:4292  function getOwnerBalance() public view returns(uint256){... */\n      swap1\n      jump\t// out\n        /* \"contracts/16_Dex.sol\":3361:3720  function buy() payable public{... */\n    tag_17:\n        /* \"contracts/16_Dex.sol\":3400:3419  uint256 amountToBuy */\n      0x00\n        /* \"contracts/16_Dex.sol\":3420:3429  msg.value */\n      callvalue\n        /* \"contracts/16_Dex.sol\":3400:3429  uint256 amountToBuy=msg.value */\n      swap1\n      pop\n        /* \"contracts/16_Dex.sol\":3439:3457  uint256 dexBalance */\n      0x00\n        /* \"contracts/16_Dex.sol\":3458:3463  token */\n      dup1\n      0x00\n      swap1\n      sload\n      swap1\n      0x0100\n      exp\n      swap1\n      div\n      0xffffffffffffffffffffffffffffffffffffffff\n      and\n        /* \"contracts/16_Dex.sol\":3458:3473  token.balanceOf */\n      0xffffffffffffffffffffffffffffffffffffffff\n      and\n      0x70a08231\n        /* \"contracts/16_Dex.sol\":3482:3486  this */\n      address\n        /* \"contracts/16_Dex.sol\":3458:3488  token.balanceOf(address(this)) */\n      mload(0x40)\n      dup3\n      0xffffffff\n      and\n      0xe0\n      shl\n      dup2\n      mstore\n      0x04\n      add\n      tag_42\n      swap2\n      swap1\n      tag_29\n      jump\t// in\n    tag_42:\n      0x20\n      mload(0x40)\n      dup1\n      dup4\n      sub\n      dup2\n      dup7\n      dup1\n      extcodesize\n      iszero\n      dup1\n      iszero\n      tag_43\n      jumpi\n      0x00\n      dup1\n      revert\n    tag_43:\n      pop\n      gas\n      staticcall\n      iszero\n      dup1\n      iszero\n      tag_45\n      jumpi\n      returndatasize\n      0x00\n      dup1\n      returndatacopy\n      revert(0x00, returndatasize)\n    tag_45:\n      pop\n      pop\n      pop\n      pop\n      mload(0x40)\n      returndatasize\n      not(0x1f)\n      0x1f\n      dup3\n      add\n      and\n      dup3\n      add\n      dup1\n      0x40\n      mstore\n      pop\n      dup2\n      add\n      swap1\n      tag_46\n      swap2\n      swap1\n      tag_34\n      jump\t// in\n    tag_46:\n        /* \"contracts/16_Dex.sol\":3439:3488  uint256 dexBalance=token.balanceOf(address(this)) */\n      swap1\n      pop\n        /* \"contracts/16_Dex.sol\":3518:3519  0 */\n      0x00\n        /* \"contracts/16_Dex.sol\":3506:3517  amountToBuy */\n      dup3\n        /* \"contracts/16_Dex.sol\":3506:3519  amountToBuy>0 */\n      gt\n        /* \"contracts/16_Dex.sol\":3498:3552  require(amountToBuy>0, \"You need to send some ether!\") */\n      tag_47\n      jumpi\n      mload(0x40)\n      0x08c379a000000000000000000000000000000000000000000000000000000000\n      dup2\n      mstore\n      0x04\n      add\n      tag_48\n      swap1\n      tag_49\n      jump\t// in\n    tag_48:\n      mload(0x40)\n      dup1\n      swap2\n      sub\n      swap1\n      revert\n    tag_47:\n        /* \"contracts/16_Dex.sol\":3583:3593  dexBalance */\n      dup1\n        /* \"contracts/16_Dex.sol\":3570:3581  amountToBuy */\n      dup3\n        /* \"contracts/16_Dex.sol\":3570:3593  amountToBuy<=dexBalance */\n      gt\n      iszero\n        /* \"contracts/16_Dex.sol\":3562:3631  require(amountToBuy<=dexBalance, \"Not enough tokens in the reverse!\") */\n      tag_50\n      jumpi\n      mload(0x40)\n      0x08c379a000000000000000000000000000000000000000000000000000000000\n      dup2\n      mstore\n      0x04\n      add\n      tag_51\n      swap1\n      tag_52\n      jump\t// in\n    tag_51:\n      mload(0x40)\n      dup1\n      swap2\n      sub\n      swap1\n      revert\n    tag_50:\n        /* \"contracts/16_Dex.sol\":3641:3646  token */\n      0x00\n      dup1\n      sload\n      swap1\n      0x0100\n      exp\n      swap1\n      div\n      0xffffffffffffffffffffffffffffffffffffffff\n      and\n        /* \"contracts/16_Dex.sol\":3641:3655  token.transfer */\n      0xffffffffffffffffffffffffffffffffffffffff\n      and\n      0xa9059cbb\n        /* \"contracts/16_Dex.sol\":3656:3666  msg.sender */\n      caller\n        /* \"contracts/16_Dex.sol\":3667:3678  amountToBuy */\n      dup5\n        /* \"contracts/16_Dex.sol\":3641:3679  token.transfer(msg.sender,amountToBuy) */\n      mload(0x40)\n      dup4\n      0xffffffff\n      and\n      0xe0\n      shl\n      dup2\n      mstore\n      0x04\n      add\n      tag_53\n      swap3\n      swap2\n      swap1\n      tag_54\n      jump\t// in\n    tag_53:\n      0x20\n      mload(0x40)\n      dup1\n      dup4\n      sub\n      dup2\n      0x00\n      dup8\n      dup1\n      extcodesize\n      iszero\n      dup1\n      iszero\n      tag_55\n      jumpi\n      0x00\n      dup1\n      revert\n    tag_55:\n      pop\n      gas\n      call\n      iszero\n      dup1\n      iszero\n      tag_57\n      jumpi\n      returndatasize\n      0x00\n      dup1\n      returndatacopy\n      revert(0x00, returndatasize)\n    tag_57:\n      pop\n      pop\n      pop\n      pop\n      mload(0x40)\n      returndatasize\n      not(0x1f)\n      0x1f\n      dup3\n      add\n      and\n      dup3\n      add\n      dup1\n      0x40\n      mstore\n      pop\n      dup2\n      add\n      swap1\n      tag_58\n      swap2\n      swap1\n      tag_59\n      jump\t// in\n    tag_58:\n      pop\n        /* \"contracts/16_Dex.sol\":3694:3713  Bought(amountToBuy) */\n      0x4e08ba899977cf7d4c2964bce71c6b9a7ef76ee5166a4c1249a1e08016e33ef1\n        /* \"contracts/16_Dex.sol\":3701:3712  amountToBuy */\n      dup3\n        /* \"contracts/16_Dex.sol\":3694:3713  Bought(amountToBuy) */\n      mload(0x40)\n      tag_60\n      swap2\n      swap1\n      tag_11\n      jump\t// in\n    tag_60:\n      mload(0x40)\n      dup1\n      swap2\n      sub\n      swap1\n      log1\n        /* \"contracts/16_Dex.sol\":3390:3720  {... */\n      pop\n      pop\n        /* \"contracts/16_Dex.sol\":3361:3720  function buy() payable public{... */\n      jump\t// out\n        /* \"contracts/16_Dex.sol\":3726:4067  function sell(uint256 amount) payable public{... */\n    tag_21:\n        /* \"contracts/16_Dex.sol\":3795:3796  0 */\n      0x00\n        /* \"contracts/16_Dex.sol\":3788:3794  amount */\n      dup2\n        /* \"contracts/16_Dex.sol\":3788:3796  amount>0 */\n      gt\n        /* \"contracts/16_Dex.sol\":3780:3835  require(amount>0, \"You need to sell at least 1 token!\") */\n      tag_62\n      jumpi\n      mload(0x40)\n      0x08c379a000000000000000000000000000000000000000000000000000000000\n      dup2\n      mstore\n      0x04\n      add\n      tag_63\n      swap1\n      tag_64\n      jump\t// in\n    tag_63:\n      mload(0x40)\n      dup1\n      swap2\n      sub\n      swap1\n      revert\n    tag_62:\n        /* \"contracts/16_Dex.sol\":3846:3863  uint256 allowance */\n      0x00\n        /* \"contracts/16_Dex.sol\":3865:3870  token */\n      dup1\n      0x00\n      swap1\n      sload\n      swap1\n      0x0100\n      exp\n      swap1\n      div\n      0xffffffffffffffffffffffffffffffffffffffff\n      and\n        /* \"contracts/16_Dex.sol\":3865:3880  token.allowance */\n      0xffffffffffffffffffffffffffffffffffffffff\n      and\n      0xdd62ed3e\n        /* \"contracts/16_Dex.sol\":3881:3891  msg.sender */\n      caller\n        /* \"contracts/16_Dex.sol\":3900:3904  this */\n      address\n        /* \"contracts/16_Dex.sol\":3865:3906  token.allowance(msg.sender,address(this)) */\n      mload(0x40)\n      dup4\n      0xffffffff\n      and\n      0xe0\n      shl\n      dup2\n      mstore\n      0x04\n      add\n      tag_65\n      swap3\n      swap2\n      swap1\n      tag_66\n      jump\t// in\n    tag_65:\n      0x20\n      mload(0x40)\n      dup1\n      dup4\n      sub\n      dup2\n      dup7\n      dup1\n      extcodesize\n      iszero\n      dup1\n      iszero\n      tag_67\n      jumpi\n      0x00\n      dup1\n      revert\n    tag_67:\n      pop\n      gas\n      staticcall\n      iszero\n      dup1\n      iszero\n      tag_69\n      jumpi\n      returndatasize\n      0x00\n      dup1\n      returndatacopy\n      revert(0x00, returndatasize)\n    tag_69:\n      pop\n      pop\n      pop\n      pop\n      mload(0x40)\n      returndatasize\n      not(0x1f)\n      0x1f\n      dup3\n      add\n      and\n      dup3\n      add\n      dup1\n      0x40\n      mstore\n      pop\n      dup2\n      add\n      swap1\n      tag_70\n      swap2\n      swap1\n      tag_34\n      jump\t// in\n    tag_70:\n        /* \"contracts/16_Dex.sol\":3846:3906  uint256 allowance =token.allowance(msg.sender,address(this)) */\n      swap1\n      pop\n        /* \"contracts/16_Dex.sol\":3935:3941  amount */\n      dup2\n        /* \"contracts/16_Dex.sol\":3924:3933  allowance */\n      dup2\n        /* \"contracts/16_Dex.sol\":3924:3941  allowance>=amount */\n      lt\n      iszero\n        /* \"contracts/16_Dex.sol\":3916:3971  require(allowance>=amount,\"Check the token allowance!\") */\n      tag_71\n      jumpi\n      mload(0x40)\n      0x08c379a000000000000000000000000000000000000000000000000000000000\n      dup2\n      mstore\n      0x04\n      add\n      tag_72\n      swap1\n      tag_73\n      jump\t// in\n    tag_72:\n      mload(0x40)\n      dup1\n      swap2\n      sub\n      swap1\n      revert\n    tag_71:\n        /* \"contracts/16_Dex.sol\":3982:3987  token */\n      0x00\n      dup1\n      sload\n      swap1\n      0x0100\n      exp\n      swap1\n      div\n      0xffffffffffffffffffffffffffffffffffffffff\n      and\n        /* \"contracts/16_Dex.sol\":3982:4000  token.transferFrom */\n      0xffffffffffffffffffffffffffffffffffffffff\n      and\n      0x23b872dd\n        /* \"contracts/16_Dex.sol\":4001:4011  msg.sender */\n      caller\n        /* \"contracts/16_Dex.sol\":4020:4024  this */\n      address\n        /* \"contracts/16_Dex.sol\":4026:4032  amount */\n      dup6\n        /* \"contracts/16_Dex.sol\":3982:4033  token.transferFrom(msg.sender,address(this),amount) */\n      mload(0x40)\n      dup5\n      0xffffffff\n      and\n      0xe0\n      shl\n      dup2\n      mstore\n      0x04\n      add\n      tag_74\n      swap4\n      swap3\n      swap2\n      swap1\n      tag_75\n      jump\t// in\n    tag_74:\n      0x20\n      mload(0x40)\n      dup1\n      dup4\n      sub\n      dup2\n      0x00\n      dup8\n      dup1\n      extcodesize\n      iszero\n      dup1\n      iszero\n      tag_76\n      jumpi\n      0x00\n      dup1\n      revert\n    tag_76:\n      pop\n      gas\n      call\n      iszero\n      dup1\n      iszero\n      tag_78\n      jumpi\n      returndatasize\n      0x00\n      dup1\n      returndatacopy\n      revert(0x00, returndatasize)\n    tag_78:\n      pop\n      pop\n      pop\n      pop\n      mload(0x40)\n      returndatasize\n      not(0x1f)\n      0x1f\n      dup3\n      add\n      and\n      dup3\n      add\n      dup1\n      0x40\n      mstore\n      pop\n      dup2\n      add\n      swap1\n      tag_79\n      swap2\n      swap1\n      tag_59\n      jump\t// in\n    tag_79:\n      pop\n        /* \"contracts/16_Dex.sol\":4048:4060  Sold(amount) */\n      0x92f64ca637d023f354075a4be751b169c1a8a9ccb6d33cdd0cb3520543995727\n        /* \"contracts/16_Dex.sol\":4053:4059  amount */\n      dup3\n        /* \"contracts/16_Dex.sol\":4048:4060  Sold(amount) */\n      mload(0x40)\n      tag_80\n      swap2\n      swap1\n      tag_11\n      jump\t// in\n    tag_80:\n      mload(0x40)\n      dup1\n      swap2\n      sub\n      swap1\n      log1\n        /* \"contracts/16_Dex.sol\":3770:4067  {... */\n      pop\n        /* \"contracts/16_Dex.sol\":3726:4067  function sell(uint256 amount) payable public{... */\n      pop\n      jump\t// out\n        /* \"contracts/16_Dex.sol\":3277:3296  IERC20 public token */\n    tag_24:\n      0x00\n      dup1\n      sload\n      swap1\n      0x0100\n      exp\n      swap1\n      div\n      0xffffffffffffffffffffffffffffffffffffffff\n      and\n      dup2\n      jump\t// out\n        /* \"#utility.yul\":7:144   */\n    tag_82:\n        /* \"#utility.yul\":61:66   */\n      0x00\n        /* \"#utility.yul\":92:98   */\n      dup2\n        /* \"#utility.yul\":86:99   */\n      mload\n        /* \"#utility.yul\":77:99   */\n      swap1\n      pop\n        /* \"#utility.yul\":108:138   */\n      tag_84\n        /* \"#utility.yul\":132:137   */\n      dup2\n        /* \"#utility.yul\":108:138   */\n      tag_85\n      jump\t// in\n    tag_84:\n        /* \"#utility.yul\":7:144   */\n      swap3\n      swap2\n      pop\n      pop\n      jump\t// out\n        /* \"#utility.yul\":150:289   */\n    tag_86:\n        /* \"#utility.yul\":196:201   */\n      0x00\n        /* \"#utility.yul\":234:240   */\n      dup2\n        /* \"#utility.yul\":221:241   */\n      calldataload\n        /* \"#utility.yul\":212:241   */\n      swap1\n      pop\n        /* \"#utility.yul\":250:283   */\n      tag_88\n        /* \"#utility.yul\":277:282   */\n      dup2\n        /* \"#utility.yul\":250:283   */\n      tag_89\n      jump\t// in\n    tag_88:\n        /* \"#utility.yul\":150:289   */\n      swap3\n      swap2\n      pop\n      pop\n      jump\t// out\n        /* \"#utility.yul\":295:438   */\n    tag_90:\n        /* \"#utility.yul\":352:357   */\n      0x00\n        /* \"#utility.yul\":383:389   */\n      dup2\n        /* \"#utility.yul\":377:390   */\n      mload\n        /* \"#utility.yul\":368:390   */\n      swap1\n      pop\n        /* \"#utility.yul\":399:432   */\n      tag_92\n        /* \"#utility.yul\":426:431   */\n      dup2\n        /* \"#utility.yul\":399:432   */\n      tag_89\n      jump\t// in\n    tag_92:\n        /* \"#utility.yul\":295:438   */\n      swap3\n      swap2\n      pop\n      pop\n      jump\t// out\n        /* \"#utility.yul\":444:789   */\n    tag_59:\n        /* \"#utility.yul\":511:517   */\n      0x00\n        /* \"#utility.yul\":560:562   */\n      0x20\n        /* \"#utility.yul\":548:557   */\n      dup3\n        /* \"#utility.yul\":539:546   */\n      dup5\n        /* \"#utility.yul\":535:558   */\n      sub\n        /* \"#utility.yul\":531:563   */\n      slt\n        /* \"#utility.yul\":528:647   */\n      iszero\n      tag_94\n      jumpi\n        /* \"#utility.yul\":566:645   */\n      tag_95\n      tag_96\n      jump\t// in\n    tag_95:\n        /* \"#utility.yul\":528:647   */\n    tag_94:\n        /* \"#utility.yul\":686:687   */\n      0x00\n        /* \"#utility.yul\":711:772   */\n      tag_97\n        /* \"#utility.yul\":764:771   */\n      dup5\n        /* \"#utility.yul\":755:761   */\n      dup3\n        /* \"#utility.yul\":744:753   */\n      dup6\n        /* \"#utility.yul\":740:762   */\n      add\n        /* \"#utility.yul\":711:772   */\n      tag_82\n      jump\t// in\n    tag_97:\n        /* \"#utility.yul\":701:772   */\n      swap2\n      pop\n        /* \"#utility.yul\":657:782   */\n      pop\n        /* \"#utility.yul\":444:789   */\n      swap3\n      swap2\n      pop\n      pop\n      jump\t// out\n        /* \"#utility.yul\":795:1124   */\n    tag_20:\n        /* \"#utility.yul\":854:860   */\n      0x00\n        /* \"#utility.yul\":903:905   */\n      0x20\n        /* \"#utility.yul\":891:900   */\n      dup3\n        /* \"#utility.yul\":882:889   */\n      dup5\n        /* \"#utility.yul\":878:901   */\n      sub\n        /* \"#utility.yul\":874:906   */\n      slt\n        /* \"#utility.yul\":871:990   */\n      iszero\n      tag_99\n      jumpi\n        /* \"#utility.yul\":909:988   */\n      tag_100\n      tag_96\n      jump\t// in\n    tag_100:\n        /* \"#utility.yul\":871:990   */\n    tag_99:\n        /* \"#utility.yul\":1029:1030   */\n      0x00\n        /* \"#utility.yul\":1054:1107   */\n      tag_101\n        /* \"#utility.yul\":1099:1106   */\n      dup5\n        /* \"#utility.yul\":1090:1096   */\n      dup3\n        /* \"#utility.yul\":1079:1088   */\n      dup6\n        /* \"#utility.yul\":1075:1097   */\n      add\n        /* \"#utility.yul\":1054:1107   */\n      tag_86\n      jump\t// in\n    tag_101:\n        /* \"#utility.yul\":1044:1107   */\n      swap2\n      pop\n        /* \"#utility.yul\":1000:1117   */\n      pop\n        /* \"#utility.yul\":795:1124   */\n      swap3\n      swap2\n      pop\n      pop\n      jump\t// out\n        /* \"#utility.yul\":1130:1481   */\n    tag_34:\n        /* \"#utility.yul\":1200:1206   */\n      0x00\n        /* \"#utility.yul\":1249:1251   */\n      0x20\n        /* \"#utility.yul\":1237:1246   */\n      dup3\n        /* \"#utility.yul\":1228:1235   */\n      dup5\n        /* \"#utility.yul\":1224:1247   */\n      sub\n        /* \"#utility.yul\":1220:1252   */\n      slt\n        /* \"#utility.yul\":1217:1336   */\n      iszero\n      tag_103\n      jumpi\n        /* \"#utility.yul\":1255:1334   */\n      tag_104\n      tag_96\n      jump\t// in\n    tag_104:\n        /* \"#utility.yul\":1217:1336   */\n    tag_103:\n        /* \"#utility.yul\":1375:1376   */\n      0x00\n        /* \"#utility.yul\":1400:1464   */\n      tag_105\n        /* \"#utility.yul\":1456:1463   */\n      dup5\n        /* \"#utility.yul\":1447:1453   */\n      dup3\n        /* \"#utility.yul\":1436:1445   */\n      dup6\n        /* \"#utility.yul\":1432:1454   */\n      add\n        /* \"#utility.yul\":1400:1464   */\n      tag_90\n      jump\t// in\n    tag_105:\n        /* \"#utility.yul\":1390:1464   */\n      swap2\n      pop\n        /* \"#utility.yul\":1346:1474   */\n      pop\n        /* \"#utility.yul\":1130:1481   */\n      swap3\n      swap2\n      pop\n      pop\n      jump\t// out\n        /* \"#utility.yul\":1487:1605   */\n    tag_106:\n        /* \"#utility.yul\":1574:1598   */\n      tag_108\n        /* \"#utility.yul\":1592:1597   */\n      dup2\n        /* \"#utility.yul\":1574:1598   */\n      tag_109\n      jump\t// in\n    tag_108:\n        /* \"#utility.yul\":1569:1572   */\n      dup3\n        /* \"#utility.yul\":1562:1599   */\n      mstore\n        /* \"#utility.yul\":1487:1605   */\n      pop\n      pop\n      jump\t// out\n        /* \"#utility.yul\":1611:1770   */\n    tag_110:\n        /* \"#utility.yul\":1712:1763   */\n      tag_112\n        /* \"#utility.yul\":1757:1762   */\n      dup2\n        /* \"#utility.yul\":1712:1763   */\n      tag_113\n      jump\t// in\n    tag_112:\n        /* \"#utility.yul\":1707:1710   */\n      dup3\n        /* \"#utility.yul\":1700:1764   */\n      mstore\n        /* \"#utility.yul\":1611:1770   */\n      pop\n      pop\n      jump\t// out\n        /* \"#utility.yul\":1776:2142   */\n    tag_114:\n        /* \"#utility.yul\":1918:1921   */\n      0x00\n        /* \"#utility.yul\":1939:2006   */\n      tag_116\n        /* \"#utility.yul\":2003:2005   */\n      0x22\n        /* \"#utility.yul\":1998:2001   */\n      dup4\n        /* \"#utility.yul\":1939:2006   */\n      tag_117\n      jump\t// in\n    tag_116:\n        /* \"#utility.yul\":1932:2006   */\n      swap2\n      pop\n        /* \"#utility.yul\":2015:2108   */\n      tag_118\n        /* \"#utility.yul\":2104:2107   */\n      dup3\n        /* \"#utility.yul\":2015:2108   */\n      tag_119\n      jump\t// in\n    tag_118:\n        /* \"#utility.yul\":2133:2135   */\n      0x40\n        /* \"#utility.yul\":2128:2131   */\n      dup3\n        /* \"#utility.yul\":2124:2136   */\n      add\n        /* \"#utility.yul\":2117:2136   */\n      swap1\n      pop\n        /* \"#utility.yul\":1776:2142   */\n      swap2\n      swap1\n      pop\n      jump\t// out\n        /* \"#utility.yul\":2148:2514   */\n    tag_120:\n        /* \"#utility.yul\":2290:2293   */\n      0x00\n        /* \"#utility.yul\":2311:2378   */\n      tag_122\n        /* \"#utility.yul\":2375:2377   */\n      0x21\n        /* \"#utility.yul\":2370:2373   */\n      dup4\n        /* \"#utility.yul\":2311:2378   */\n      tag_117\n      jump\t// in\n    tag_122:\n        /* \"#utility.yul\":2304:2378   */\n      swap2\n      pop\n        /* \"#utility.yul\":2387:2480   */\n      tag_123\n        /* \"#utility.yul\":2476:2479   */\n      dup3\n        /* \"#utility.yul\":2387:2480   */\n      tag_124\n      jump\t// in\n    tag_123:\n        /* \"#utility.yul\":2505:2507   */\n      0x40\n        /* \"#utility.yul\":2500:2503   */\n      dup3\n        /* \"#utility.yul\":2496:2508   */\n      add\n        /* \"#utility.yul\":2489:2508   */\n      swap1\n      pop\n        /* \"#utility.yul\":2148:2514   */\n      swap2\n      swap1\n      pop\n      jump\t// out\n        /* \"#utility.yul\":2520:2886   */\n    tag_125:\n        /* \"#utility.yul\":2662:2665   */\n      0x00\n        /* \"#utility.yul\":2683:2750   */\n      tag_127\n        /* \"#utility.yul\":2747:2749   */\n      0x1c\n        /* \"#utility.yul\":2742:2745   */\n      dup4\n        /* \"#utility.yul\":2683:2750   */\n      tag_117\n      jump\t// in\n    tag_127:\n        /* \"#utility.yul\":2676:2750   */\n      swap2\n      pop\n        /* \"#utility.yul\":2759:2852   */\n      tag_128\n        /* \"#utility.yul\":2848:2851   */\n      dup3\n        /* \"#utility.yul\":2759:2852   */\n      tag_129\n      jump\t// in\n    tag_128:\n        /* \"#utility.yul\":2877:2879   */\n      0x20\n        /* \"#utility.yul\":2872:2875   */\n      dup3\n        /* \"#utility.yul\":2868:2880   */\n      add\n        /* \"#utility.yul\":2861:2880   */\n      swap1\n      pop\n        /* \"#utility.yul\":2520:2886   */\n      swap2\n      swap1\n      pop\n      jump\t// out\n        /* \"#utility.yul\":2892:3258   */\n    tag_130:\n        /* \"#utility.yul\":3034:3037   */\n      0x00\n        /* \"#utility.yul\":3055:3122   */\n      tag_132\n        /* \"#utility.yul\":3119:3121   */\n      0x1a\n        /* \"#utility.yul\":3114:3117   */\n      dup4\n        /* \"#utility.yul\":3055:3122   */\n      tag_117\n      jump\t// in\n    tag_132:\n        /* \"#utility.yul\":3048:3122   */\n      swap2\n      pop\n        /* \"#utility.yul\":3131:3224   */\n      tag_133\n        /* \"#utility.yul\":3220:3223   */\n      dup3\n        /* \"#utility.yul\":3131:3224   */\n      tag_134\n      jump\t// in\n    tag_133:\n        /* \"#utility.yul\":3249:3251   */\n      0x20\n        /* \"#utility.yul\":3244:3247   */\n      dup3\n        /* \"#utility.yul\":3240:3252   */\n      add\n        /* \"#utility.yul\":3233:3252   */\n      swap1\n      pop\n        /* \"#utility.yul\":2892:3258   */\n      swap2\n      swap1\n      pop\n      jump\t// out\n        /* \"#utility.yul\":3264:3382   */\n    tag_135:\n        /* \"#utility.yul\":3351:3375   */\n      tag_137\n        /* \"#utility.yul\":3369:3374   */\n      dup2\n        /* \"#utility.yul\":3351:3375   */\n      tag_138\n      jump\t// in\n    tag_137:\n        /* \"#utility.yul\":3346:3349   */\n      dup3\n        /* \"#utility.yul\":3339:3376   */\n      mstore\n        /* \"#utility.yul\":3264:3382   */\n      pop\n      pop\n      jump\t// out\n        /* \"#utility.yul\":3388:3610   */\n    tag_29:\n        /* \"#utility.yul\":3481:3485   */\n      0x00\n        /* \"#utility.yul\":3519:3521   */\n      0x20\n        /* \"#utility.yul\":3508:3517   */\n      dup3\n        /* \"#utility.yul\":3504:3522   */\n      add\n        /* \"#utility.yul\":3496:3522   */\n      swap1\n      pop\n        /* \"#utility.yul\":3532:3603   */\n      tag_140\n        /* \"#utility.yul\":3600:3601   */\n      0x00\n        /* \"#utility.yul\":3589:3598   */\n      dup4\n        /* \"#utility.yul\":3585:3602   */\n      add\n        /* \"#utility.yul\":3576:3582   */\n      dup5\n        /* \"#utility.yul\":3532:3603   */\n      tag_106\n      jump\t// in\n    tag_140:\n        /* \"#utility.yul\":3388:3610   */\n      swap3\n      swap2\n      pop\n      pop\n      jump\t// out\n        /* \"#utility.yul\":3616:3948   */\n    tag_66:\n        /* \"#utility.yul\":3737:3741   */\n      0x00\n        /* \"#utility.yul\":3775:3777   */\n      0x40\n        /* \"#utility.yul\":3764:3773   */\n      dup3\n        /* \"#utility.yul\":3760:3778   */\n      add\n        /* \"#utility.yul\":3752:3778   */\n      swap1\n      pop\n        /* \"#utility.yul\":3788:3859   */\n      tag_142\n        /* \"#utility.yul\":3856:3857   */\n      0x00\n        /* \"#utility.yul\":3845:3854   */\n      dup4\n        /* \"#utility.yul\":3841:3858   */\n      add\n        /* \"#utility.yul\":3832:3838   */\n      dup6\n        /* \"#utility.yul\":3788:3859   */\n      tag_106\n      jump\t// in\n    tag_142:\n        /* \"#utility.yul\":3869:3941   */\n      tag_143\n        /* \"#utility.yul\":3937:3939   */\n      0x20\n        /* \"#utility.yul\":3926:3935   */\n      dup4\n        /* \"#utility.yul\":3922:3940   */\n      add\n        /* \"#utility.yul\":3913:3919   */\n      dup5\n        /* \"#utility.yul\":3869:3941   */\n      tag_106\n      jump\t// in\n    tag_143:\n        /* \"#utility.yul\":3616:3948   */\n      swap4\n      swap3\n      pop\n      pop\n      pop\n      jump\t// out\n        /* \"#utility.yul\":3954:4396   */\n    tag_75:\n        /* \"#utility.yul\":4103:4107   */\n      0x00\n        /* \"#utility.yul\":4141:4143   */\n      0x60\n        /* \"#utility.yul\":4130:4139   */\n      dup3\n        /* \"#utility.yul\":4126:4144   */\n      add\n        /* \"#utility.yul\":4118:4144   */\n      swap1\n      pop\n        /* \"#utility.yul\":4154:4225   */\n      tag_145\n        /* \"#utility.yul\":4222:4223   */\n      0x00\n        /* \"#utility.yul\":4211:4220   */\n      dup4\n        /* \"#utility.yul\":4207:4224   */\n      add\n        /* \"#utility.yul\":4198:4204   */\n      dup7\n        /* \"#utility.yul\":4154:4225   */\n      tag_106\n      jump\t// in\n    tag_145:\n        /* \"#utility.yul\":4235:4307   */\n      tag_146\n        /* \"#utility.yul\":4303:4305   */\n      0x20\n        /* \"#utility.yul\":4292:4301   */\n      dup4\n        /* \"#utility.yul\":4288:4306   */\n      add\n        /* \"#utility.yul\":4279:4285   */\n      dup6\n        /* \"#utility.yul\":4235:4307   */\n      tag_106\n      jump\t// in\n    tag_146:\n        /* \"#utility.yul\":4317:4389   */\n      tag_147\n        /* \"#utility.yul\":4385:4387   */\n      0x40\n        /* \"#utility.yul\":4374:4383   */\n      dup4\n        /* \"#utility.yul\":4370:4388   */\n      add\n        /* \"#utility.yul\":4361:4367   */\n      dup5\n        /* \"#utility.yul\":4317:4389   */\n      tag_135\n      jump\t// in\n    tag_147:\n        /* \"#utility.yul\":3954:4396   */\n      swap5\n      swap4\n      pop\n      pop\n      pop\n      pop\n      jump\t// out\n        /* \"#utility.yul\":4402:4734   */\n    tag_54:\n        /* \"#utility.yul\":4523:4527   */\n      0x00\n        /* \"#utility.yul\":4561:4563   */\n      0x40\n        /* \"#utility.yul\":4550:4559   */\n      dup3\n        /* \"#utility.yul\":4546:4564   */\n      add\n        /* \"#utility.yul\":4538:4564   */\n      swap1\n      pop\n        /* \"#utility.yul\":4574:4645   */\n      tag_149\n        /* \"#utility.yul\":4642:4643   */\n      0x00\n        /* \"#utility.yul\":4631:4640   */\n      dup4\n        /* \"#utility.yul\":4627:4644   */\n      add\n        /* \"#utility.yul\":4618:4624   */\n      dup6\n        /* \"#utility.yul\":4574:4645   */\n      tag_106\n      jump\t// in\n    tag_149:\n        /* \"#utility.yul\":4655:4727   */\n      tag_150\n        /* \"#utility.yul\":4723:4725   */\n      0x20\n        /* \"#utility.yul\":4712:4721   */\n      dup4\n        /* \"#utility.yul\":4708:4726   */\n      add\n        /* \"#utility.yul\":4699:4705   */\n      dup5\n        /* \"#utility.yul\":4655:4727   */\n      tag_135\n      jump\t// in\n    tag_150:\n        /* \"#utility.yul\":4402:4734   */\n      swap4\n      swap3\n      pop\n      pop\n      pop\n      jump\t// out\n        /* \"#utility.yul\":4740:4990   */\n    tag_26:\n        /* \"#utility.yul\":4847:4851   */\n      0x00\n        /* \"#utility.yul\":4885:4887   */\n      0x20\n        /* \"#utility.yul\":4874:4883   */\n      dup3\n        /* \"#utility.yul\":4870:4888   */\n      add\n        /* \"#utility.yul\":4862:4888   */\n      swap1\n      pop\n        /* \"#utility.yul\":4898:4983   */\n      tag_152\n        /* \"#utility.yul\":4980:4981   */\n      0x00\n        /* \"#utility.yul\":4969:4978   */\n      dup4\n        /* \"#utility.yul\":4965:4982   */\n      add\n        /* \"#utility.yul\":4956:4962   */\n      dup5\n        /* \"#utility.yul\":4898:4983   */\n      tag_110\n      jump\t// in\n    tag_152:\n        /* \"#utility.yul\":4740:4990   */\n      swap3\n      swap2\n      pop\n      pop\n      jump\t// out\n        /* \"#utility.yul\":4996:5415   */\n    tag_64:\n        /* \"#utility.yul\":5162:5166   */\n      0x00\n        /* \"#utility.yul\":5200:5202   */\n      0x20\n        /* \"#utility.yul\":5189:5198   */\n      dup3\n        /* \"#utility.yul\":5185:5203   */\n      add\n        /* \"#utility.yul\":5177:5203   */\n      swap1\n      pop\n        /* \"#utility.yul\":5249:5258   */\n      dup2\n        /* \"#utility.yul\":5243:5247   */\n      dup2\n        /* \"#utility.yul\":5239:5259   */\n      sub\n        /* \"#utility.yul\":5235:5236   */\n      0x00\n        /* \"#utility.yul\":5224:5233   */\n      dup4\n        /* \"#utility.yul\":5220:5237   */\n      add\n        /* \"#utility.yul\":5213:5260   */\n      mstore\n        /* \"#utility.yul\":5277:5408   */\n      tag_154\n        /* \"#utility.yul\":5403:5407   */\n      dup2\n        /* \"#utility.yul\":5277:5408   */\n      tag_114\n      jump\t// in\n    tag_154:\n        /* \"#utility.yul\":5269:5408   */\n      swap1\n      pop\n        /* \"#utility.yul\":4996:5415   */\n      swap2\n      swap1\n      pop\n      jump\t// out\n        /* \"#utility.yul\":5421:5840   */\n    tag_52:\n        /* \"#utility.yul\":5587:5591   */\n      0x00\n        /* \"#utility.yul\":5625:5627   */\n      0x20\n        /* \"#utility.yul\":5614:5623   */\n      dup3\n        /* \"#utility.yul\":5610:5628   */\n      add\n        /* \"#utility.yul\":5602:5628   */\n      swap1\n      pop\n        /* \"#utility.yul\":5674:5683   */\n      dup2\n        /* \"#utility.yul\":5668:5672   */\n      dup2\n        /* \"#utility.yul\":5664:5684   */\n      sub\n        /* \"#utility.yul\":5660:5661   */\n      0x00\n        /* \"#utility.yul\":5649:5658   */\n      dup4\n        /* \"#utility.yul\":5645:5662   */\n      add\n        /* \"#utility.yul\":5638:5685   */\n      mstore\n        /* \"#utility.yul\":5702:5833   */\n      tag_156\n        /* \"#utility.yul\":5828:5832   */\n      dup2\n        /* \"#utility.yul\":5702:5833   */\n      tag_120\n      jump\t// in\n    tag_156:\n        /* \"#utility.yul\":5694:5833   */\n      swap1\n      pop\n        /* \"#utility.yul\":5421:5840   */\n      swap2\n      swap1\n      pop\n      jump\t// out\n        /* \"#utility.yul\":5846:6265   */\n    tag_49:\n        /* \"#utility.yul\":6012:6016   */\n      0x00\n        /* \"#utility.yul\":6050:6052   */\n      0x20\n        /* \"#utility.yul\":6039:6048   */\n      dup3\n        /* \"#utility.yul\":6035:6053   */\n      add\n        /* \"#utility.yul\":6027:6053   */\n      swap1\n      pop\n        /* \"#utility.yul\":6099:6108   */\n      dup2\n        /* \"#utility.yul\":6093:6097   */\n      dup2\n        /* \"#utility.yul\":6089:6109   */\n      sub\n        /* \"#utility.yul\":6085:6086   */\n      0x00\n        /* \"#utility.yul\":6074:6083   */\n      dup4\n        /* \"#utility.yul\":6070:6087   */\n      add\n        /* \"#utility.yul\":6063:6110   */\n      mstore\n        /* \"#utility.yul\":6127:6258   */\n      tag_158\n        /* \"#utility.yul\":6253:6257   */\n      dup2\n        /* \"#utility.yul\":6127:6258   */\n      tag_125\n      jump\t// in\n    tag_158:\n        /* \"#utility.yul\":6119:6258   */\n      swap1\n      pop\n        /* \"#utility.yul\":5846:6265   */\n      swap2\n      swap1\n      pop\n      jump\t// out\n        /* \"#utility.yul\":6271:6690   */\n    tag_73:\n        /* \"#utility.yul\":6437:6441   */\n      0x00\n        /* \"#utility.yul\":6475:6477   */\n      0x20\n        /* \"#utility.yul\":6464:6473   */\n      dup3\n        /* \"#utility.yul\":6460:6478   */\n      add\n        /* \"#utility.yul\":6452:6478   */\n      swap1\n      pop\n        /* \"#utility.yul\":6524:6533   */\n      dup2\n        /* \"#utility.yul\":6518:6522   */\n      dup2\n        /* \"#utility.yul\":6514:6534   */\n      sub\n        /* \"#utility.yul\":6510:6511   */\n      0x00\n        /* \"#utility.yul\":6499:6508   */\n      dup4\n        /* \"#utility.yul\":6495:6512   */\n      add\n        /* \"#utility.yul\":6488:6535   */\n      mstore\n        /* \"#utility.yul\":6552:6683   */\n      tag_160\n        /* \"#utility.yul\":6678:6682   */\n      dup2\n        /* \"#utility.yul\":6552:6683   */\n      tag_130\n      jump\t// in\n    tag_160:\n        /* \"#utility.yul\":6544:6683   */\n      swap1\n      pop\n        /* \"#utility.yul\":6271:6690   */\n      swap2\n      swap1\n      pop\n      jump\t// out\n        /* \"#utility.yul\":6696:6918   */\n    tag_11:\n        /* \"#utility.yul\":6789:6793   */\n      0x00\n        /* \"#utility.yul\":6827:6829   */\n      0x20\n        /* \"#utility.yul\":6816:6825   */\n      dup3\n        /* \"#utility.yul\":6812:6830   */\n      add\n        /* \"#utility.yul\":6804:6830   */\n      swap1\n      pop\n        /* \"#utility.yul\":6840:6911   */\n      tag_162\n        /* \"#utility.yul\":6908:6909   */\n      0x00\n        /* \"#utility.yul\":6897:6906   */\n      dup4\n        /* \"#utility.yul\":6893:6910   */\n      add\n        /* \"#utility.yul\":6884:6890   */\n      dup5\n        /* \"#utility.yul\":6840:6911   */\n      tag_135\n      jump\t// in\n    tag_162:\n        /* \"#utility.yul\":6696:6918   */\n      swap3\n      swap2\n      pop\n      pop\n      jump\t// out\n        /* \"#utility.yul\":7005:7174   */\n    tag_117:\n        /* \"#utility.yul\":7089:7100   */\n      0x00\n        /* \"#utility.yul\":7123:7129   */\n      dup3\n        /* \"#utility.yul\":7118:7121   */\n      dup3\n        /* \"#utility.yul\":7111:7130   */\n      mstore\n        /* \"#utility.yul\":7163:7167   */\n      0x20\n        /* \"#utility.yul\":7158:7161   */\n      dup3\n        /* \"#utility.yul\":7154:7168   */\n      add\n        /* \"#utility.yul\":7139:7168   */\n      swap1\n      pop\n        /* \"#utility.yul\":7005:7174   */\n      swap3\n      swap2\n      pop\n      pop\n      jump\t// out\n        /* \"#utility.yul\":7180:7276   */\n    tag_109:\n        /* \"#utility.yul\":7217:7224   */\n      0x00\n        /* \"#utility.yul\":7246:7270   */\n      tag_167\n        /* \"#utility.yul\":7264:7269   */\n      dup3\n        /* \"#utility.yul\":7246:7270   */\n      tag_168\n      jump\t// in\n    tag_167:\n        /* \"#utility.yul\":7235:7270   */\n      swap1\n      pop\n        /* \"#utility.yul\":7180:7276   */\n      swap2\n      swap1\n      pop\n      jump\t// out\n        /* \"#utility.yul\":7282:7372   */\n    tag_169:\n        /* \"#utility.yul\":7316:7323   */\n      0x00\n        /* \"#utility.yul\":7359:7364   */\n      dup2\n        /* \"#utility.yul\":7352:7365   */\n      iszero\n        /* \"#utility.yul\":7345:7366   */\n      iszero\n        /* \"#utility.yul\":7334:7366   */\n      swap1\n      pop\n        /* \"#utility.yul\":7282:7372   */\n      swap2\n      swap1\n      pop\n      jump\t// out\n        /* \"#utility.yul\":7378:7504   */\n    tag_168:\n        /* \"#utility.yul\":7415:7422   */\n      0x00\n        /* \"#utility.yul\":7455:7497   */\n      0xffffffffffffffffffffffffffffffffffffffff\n        /* \"#utility.yul\":7448:7453   */\n      dup3\n        /* \"#utility.yul\":7444:7498   */\n      and\n        /* \"#utility.yul\":7433:7498   */\n      swap1\n      pop\n        /* \"#utility.yul\":7378:7504   */\n      swap2\n      swap1\n      pop\n      jump\t// out\n        /* \"#utility.yul\":7510:7587   */\n    tag_138:\n        /* \"#utility.yul\":7547:7554   */\n      0x00\n        /* \"#utility.yul\":7576:7581   */\n      dup2\n        /* \"#utility.yul\":7565:7581   */\n      swap1\n      pop\n        /* \"#utility.yul\":7510:7587   */\n      swap2\n      swap1\n      pop\n      jump\t// out\n        /* \"#utility.yul\":7593:7733   */\n    tag_113:\n        /* \"#utility.yul\":7657:7666   */\n      0x00\n        /* \"#utility.yul\":7690:7727   */\n      tag_174\n        /* \"#utility.yul\":7721:7726   */\n      dup3\n        /* \"#utility.yul\":7690:7727   */\n      tag_175\n      jump\t// in\n    tag_174:\n        /* \"#utility.yul\":7677:7727   */\n      swap1\n      pop\n        /* \"#utility.yul\":7593:7733   */\n      swap2\n      swap1\n      pop\n      jump\t// out\n        /* \"#utility.yul\":7739:7865   */\n    tag_175:\n        /* \"#utility.yul\":7789:7798   */\n      0x00\n        /* \"#utility.yul\":7822:7859   */\n      tag_177\n        /* \"#utility.yul\":7853:7858   */\n      dup3\n        /* \"#utility.yul\":7822:7859   */\n      tag_178\n      jump\t// in\n    tag_177:\n        /* \"#utility.yul\":7809:7859   */\n      swap1\n      pop\n        /* \"#utility.yul\":7739:7865   */\n      swap2\n      swap1\n      pop\n      jump\t// out\n        /* \"#utility.yul\":7871:7984   */\n    tag_178:\n        /* \"#utility.yul\":7921:7930   */\n      0x00\n        /* \"#utility.yul\":7954:7978   */\n      tag_180\n        /* \"#utility.yul\":7972:7977   */\n      dup3\n        /* \"#utility.yul\":7954:7978   */\n      tag_168\n      jump\t// in\n    tag_180:\n        /* \"#utility.yul\":7941:7978   */\n      swap1\n      pop\n        /* \"#utility.yul\":7871:7984   */\n      swap2\n      swap1\n      pop\n      jump\t// out\n        /* \"#utility.yul\":8113:8230   */\n    tag_96:\n        /* \"#utility.yul\":8222:8223   */\n      0x00\n        /* \"#utility.yul\":8219:8220   */\n      dup1\n        /* \"#utility.yul\":8212:8224   */\n      revert\n        /* \"#utility.yul\":8236:8457   */\n    tag_119:\n        /* \"#utility.yul\":8376:8410   */\n      0x596f75206e65656420746f2073656c6c206174206c65617374203120746f6b65\n        /* \"#utility.yul\":8372:8373   */\n      0x00\n        /* \"#utility.yul\":8364:8370   */\n      dup3\n        /* \"#utility.yul\":8360:8374   */\n      add\n        /* \"#utility.yul\":8353:8411   */\n      mstore\n        /* \"#utility.yul\":8445:8449   */\n      0x6e21000000000000000000000000000000000000000000000000000000000000\n        /* \"#utility.yul\":8440:8442   */\n      0x20\n        /* \"#utility.yul\":8432:8438   */\n      dup3\n        /* \"#utility.yul\":8428:8443   */\n      add\n        /* \"#utility.yul\":8421:8450   */\n      mstore\n        /* \"#utility.yul\":8236:8457   */\n      pop\n      jump\t// out\n        /* \"#utility.yul\":8463:8683   */\n    tag_124:\n        /* \"#utility.yul\":8603:8637   */\n      0x4e6f7420656e6f75676820746f6b656e7320696e207468652072657665727365\n        /* \"#utility.yul\":8599:8600   */\n      0x00\n        /* \"#utility.yul\":8591:8597   */\n      dup3\n        /* \"#utility.yul\":8587:8601   */\n      add\n        /* \"#utility.yul\":8580:8638   */\n      mstore\n        /* \"#utility.yul\":8672:8675   */\n      0x2100000000000000000000000000000000000000000000000000000000000000\n        /* \"#utility.yul\":8667:8669   */\n      0x20\n        /* \"#utility.yul\":8659:8665   */\n      dup3\n        /* \"#utility.yul\":8655:8670   */\n      add\n        /* \"#utility.yul\":8648:8676   */\n      mstore\n        /* \"#utility.yul\":8463:8683   */\n      pop\n      jump\t// out\n        /* \"#utility.yul\":8689:8867   */\n    tag_129:\n        /* \"#utility.yul\":8829:8859   */\n      0x596f75206e65656420746f2073656e6420736f6d652065746865722100000000\n        /* \"#utility.yul\":8825:8826   */\n      0x00\n        /* \"#utility.yul\":8817:8823   */\n      dup3\n        /* \"#utility.yul\":8813:8827   */\n      add\n        /* \"#utility.yul\":8806:8860   */\n      mstore\n        /* \"#utility.yul\":8689:8867   */\n      pop\n      jump\t// out\n        /* \"#utility.yul\":8873:9049   */\n    tag_134:\n        /* \"#utility.yul\":9013:9041   */\n      0x436865636b2074686520746f6b656e20616c6c6f77616e636521000000000000\n        /* \"#utility.yul\":9009:9010   */\n      0x00\n        /* \"#utility.yul\":9001:9007   */\n      dup3\n        /* \"#utility.yul\":8997:9011   */\n      add\n        /* \"#utility.yul\":8990:9042   */\n      mstore\n        /* \"#utility.yul\":8873:9049   */\n      pop\n      jump\t// out\n        /* \"#utility.yul\":9055:9171   */\n    tag_85:\n        /* \"#utility.yul\":9125:9146   */\n      tag_189\n        /* \"#utility.yul\":9140:9145   */\n      dup2\n        /* \"#utility.yul\":9125:9146   */\n      tag_169\n      jump\t// in\n    tag_189:\n        /* \"#utility.yul\":9118:9123   */\n      dup2\n        /* \"#utility.yul\":9115:9147   */\n      eq\n        /* \"#utility.yul\":9105:9165   */\n      tag_190\n      jumpi\n        /* \"#utility.yul\":9161:9162   */\n      0x00\n        /* \"#utility.yul\":9158:9159   */\n      dup1\n        /* \"#utility.yul\":9151:9163   */\n      revert\n        /* \"#utility.yul\":9105:9165   */\n    tag_190:\n        /* \"#utility.yul\":9055:9171   */\n      pop\n      jump\t// out\n        /* \"#utility.yul\":9177:9299   */\n    tag_89:\n        /* \"#utility.yul\":9250:9274   */\n      tag_192\n        /* \"#utility.yul\":9268:9273   */\n      dup2\n        /* \"#utility.yul\":9250:9274   */\n      tag_138\n      jump\t// in\n    tag_192:\n        /* \"#utility.yul\":9243:9248   */\n      dup2\n        /* \"#utility.yul\":9240:9275   */\n      eq\n        /* \"#utility.yul\":9230:9293   */\n      tag_193\n      jumpi\n        /* \"#utility.yul\":9289:9290   */\n      0x00\n        /* \"#utility.yul\":9286:9287   */\n      dup1\n        /* \"#utility.yul\":9279:9291   */\n      revert\n        /* \"#utility.yul\":9230:9293   */\n    tag_193:\n        /* \"#utility.yul\":9177:9299   */\n      pop\n      jump\t// out\n\n    auxdata: 0xa2646970667358221220c9ced96958d811a6b0ab7f6f5b61092aeb9befce5e08f5e880391b17100279a864736f6c63430008070033\n}\n\nsub_1: assembly {\n        /* \"contracts/16_Dex.sol\":1154:3160  contract ERC20Basic is IERC20{... */\n      mstore(0x40, 0x80)\n        /* \"contracts/16_Dex.sol\":1449:1457  10 ether */\n      0x8ac7230489e80000\n        /* \"contracts/16_Dex.sol\":1426:1457  uint256 totalSupply_ = 10 ether */\n      0x02\n      sstore\n        /* \"contracts/16_Dex.sol\":1497:1560  constructor(){... */\n      callvalue\n      dup1\n      iszero\n      tag_1\n      jumpi\n      0x00\n      dup1\n      revert\n    tag_1:\n      pop\n        /* \"contracts/16_Dex.sol\":1541:1553  totalSupply_ */\n      sload(0x02)\n        /* \"contracts/16_Dex.sol\":1520:1528  balances */\n      0x00\n        /* \"contracts/16_Dex.sol\":1520:1540  balances[msg.sender] */\n      dup1\n        /* \"contracts/16_Dex.sol\":1529:1539  msg.sender */\n      caller\n        /* \"contracts/16_Dex.sol\":1520:1540  balances[msg.sender] */\n      0xffffffffffffffffffffffffffffffffffffffff\n      and\n      0xffffffffffffffffffffffffffffffffffffffff\n      and\n      dup2\n      mstore\n      0x20\n      add\n      swap1\n      dup2\n      mstore\n      0x20\n      add\n      0x00\n      keccak256\n        /* \"contracts/16_Dex.sol\":1520:1553  balances[msg.sender]=totalSupply_ */\n      dup2\n      swap1\n      sstore\n      pop\n        /* \"contracts/16_Dex.sol\":1154:3160  contract ERC20Basic is IERC20{... */\n      dataSize(sub_0)\n      dup1\n      dataOffset(sub_0)\n      0x00\n      codecopy\n      0x00\n      return\n    stop\n\n    sub_0: assembly {\n            /* \"contracts/16_Dex.sol\":1154:3160  contract ERC20Basic is IERC20{... */\n          mstore(0x40, 0x80)\n          callvalue\n          dup1\n          iszero\n          tag_1\n          jumpi\n          0x00\n          dup1\n          revert\n        tag_1:\n          pop\n          jumpi(tag_2, lt(calldatasize, 0x04))\n          shr(0xe0, calldataload(0x00))\n          dup1\n          0x70a08231\n          gt\n          tag_13\n          jumpi\n          dup1\n          0x70a08231\n          eq\n          tag_8\n          jumpi\n          dup1\n          0x95d89b41\n          eq\n          tag_9\n          jumpi\n          dup1\n          0xa9059cbb\n          eq\n          tag_10\n          jumpi\n          dup1\n          0xdd62ed3e\n          eq\n          tag_11\n          jumpi\n          dup1\n          0xe1f21c67\n          eq\n          tag_12\n          jumpi\n          jump(tag_2)\n        tag_13:\n          dup1\n          0x06fdde03\n          eq\n          tag_3\n          jumpi\n          dup1\n          0x18160ddd\n          eq\n          tag_4\n          jumpi\n          dup1\n          0x23b872dd\n          eq\n          tag_5\n          jumpi\n          dup1\n          0x313ce567\n          eq\n          tag_6\n          jumpi\n          dup1\n          0x38cc4831\n          eq\n          tag_7\n          jumpi\n        tag_2:\n          0x00\n          dup1\n          revert\n            /* \"contracts/16_Dex.sol\":1189:1237  string public constant name=\"ERC20-XiaochunCoin\" */\n        tag_3:\n          tag_14\n          tag_15\n          jump\t// in\n        tag_14:\n          mload(0x40)\n          tag_16\n          swap2\n          swap1\n          tag_17\n          jump\t// in\n        tag_16:\n          mload(0x40)\n          dup1\n          swap2\n          sub\n          swap1\n          return\n            /* \"contracts/16_Dex.sol\":1668:1764  function totalSupply() public override view returns(uint256){... */\n        tag_4:\n          tag_18\n          tag_19\n          jump\t// in\n        tag_18:\n          mload(0x40)\n          tag_20\n          swap2\n          swap1\n          tag_21\n          jump\t// in\n        tag_20:\n          mload(0x40)\n          dup1\n          swap2\n          sub\n          swap1\n          return\n            /* \"contracts/16_Dex.sol\":2700:3158  function transferFrom(address owner, address buyer, uint256 numTokens) external override returns (bool){... */\n        tag_5:\n          tag_22\n          0x04\n          dup1\n          calldatasize\n          sub\n          dup2\n          add\n          swap1\n          tag_23\n          swap2\n          swap1\n          tag_24\n          jump\t// in\n        tag_23:\n          tag_25\n          jump\t// in\n        tag_22:\n          mload(0x40)\n          tag_26\n          swap2\n          swap1\n          tag_27\n          jump\t// in\n        tag_26:\n          mload(0x40)\n          dup1\n          swap2\n          sub\n          swap1\n          return\n            /* \"contracts/16_Dex.sol\":1288:1321  uint8 public constant decimals=18 */\n        tag_6:\n          tag_28\n          tag_29\n          jump\t// in\n        tag_28:\n          mload(0x40)\n          tag_30\n          swap2\n          swap1\n          tag_31\n          jump\t// in\n        tag_30:\n          mload(0x40)\n          dup1\n          swap2\n          sub\n          swap1\n          return\n            /* \"contracts/16_Dex.sol\":1566:1662  function getAddress() public override view returns(address){... */\n        tag_7:\n          tag_32\n          tag_33\n          jump\t// in\n        tag_32:\n          mload(0x40)\n          tag_34\n          swap2\n          swap1\n          tag_35\n          jump\t// in\n        tag_34:\n          mload(0x40)\n          dup1\n          swap2\n          sub\n          swap1\n          return\n            /* \"contracts/16_Dex.sol\":1770:1890  function balanceOf(address tokenOwner) public override view returns(uint256){... */\n        tag_8:\n          tag_36\n          0x04\n          dup1\n          calldatasize\n          sub\n          dup2\n          add\n          swap1\n          tag_37\n          swap2\n          swap1\n          tag_38\n          jump\t// in\n        tag_37:\n          tag_39\n          jump\t// in\n        tag_36:\n          mload(0x40)\n          tag_40\n          swap2\n          swap1\n          tag_21\n          jump\t// in\n        tag_40:\n          mload(0x40)\n          dup1\n          swap2\n          sub\n          swap1\n          return\n            /* \"contracts/16_Dex.sol\":1243:1282  string public constant symbol=\"ERC-XCC\" */\n        tag_9:\n          tag_41\n          tag_42\n          jump\t// in\n        tag_41:\n          mload(0x40)\n          tag_43\n          swap2\n          swap1\n          tag_17\n          jump\t// in\n        tag_43:\n          mload(0x40)\n          dup1\n          swap2\n          sub\n          swap1\n          return\n            /* \"contracts/16_Dex.sol\":1978:2321  function transfer(address receiver, uint256 numTokens) public override returns(bool){... */\n        tag_10:\n          tag_44\n          0x04\n          dup1\n          calldatasize\n          sub\n          dup2\n          add\n          swap1\n          tag_45\n          swap2\n          swap1\n          tag_46\n          jump\t// in\n        tag_45:\n          tag_47\n          jump\t// in\n        tag_44:\n          mload(0x40)\n          tag_48\n          swap2\n          swap1\n          tag_27\n          jump\t// in\n        tag_48:\n          mload(0x40)\n          dup1\n          swap2\n          sub\n          swap1\n          return\n            /* \"contracts/16_Dex.sol\":2555:2694  function allowance(address owner, address delegate) external override view returns(uint256){... */\n        tag_11:\n          tag_49\n          0x04\n          dup1\n          calldatasize\n          sub\n          dup2\n          add\n          swap1\n          tag_50\n          swap2\n          swap1\n          tag_51\n          jump\t// in\n        tag_50:\n          tag_52\n          jump\t// in\n        tag_49:\n          mload(0x40)\n          tag_53\n          swap2\n          swap1\n          tag_21\n          jump\t// in\n        tag_53:\n          mload(0x40)\n          dup1\n          swap2\n          sub\n          swap1\n          return\n            /* \"contracts/16_Dex.sol\":2327:2549  function approve(address owner, address delegate, uint256 numTokens) external override returns (bool){... */\n        tag_12:\n          tag_54\n          0x04\n          dup1\n          calldatasize\n          sub\n          dup2\n          add\n          swap1\n          tag_55\n          swap2\n          swap1\n          tag_24\n          jump\t// in\n        tag_55:\n          tag_56\n          jump\t// in\n        tag_54:\n          mload(0x40)\n          tag_57\n          swap2\n          swap1\n          tag_27\n          jump\t// in\n        tag_57:\n          mload(0x40)\n          dup1\n          swap2\n          sub\n          swap1\n          return\n            /* \"contracts/16_Dex.sol\":1189:1237  string public constant name=\"ERC20-XiaochunCoin\" */\n        tag_15:\n          mload(0x40)\n          dup1\n          0x40\n          add\n          0x40\n          mstore\n          dup1\n          0x12\n          dup2\n          mstore\n          0x20\n          add\n          0x45524332302d5869616f6368756e436f696e0000000000000000000000000000\n          dup2\n          mstore\n          pop\n          dup2\n          jump\t// out\n            /* \"contracts/16_Dex.sol\":1668:1764  function totalSupply() public override view returns(uint256){... */\n        tag_19:\n            /* \"contracts/16_Dex.sol\":1720:1727  uint256 */\n          0x00\n            /* \"contracts/16_Dex.sol\":1745:1757  totalSupply_ */\n          sload(0x02)\n            /* \"contracts/16_Dex.sol\":1738:1757  return totalSupply_ */\n          swap1\n          pop\n            /* \"contracts/16_Dex.sol\":1668:1764  function totalSupply() public override view returns(uint256){... */\n          swap1\n          jump\t// out\n            /* \"contracts/16_Dex.sol\":2700:3158  function transferFrom(address owner, address buyer, uint256 numTokens) external override returns (bool){... */\n        tag_25:\n            /* \"contracts/16_Dex.sol\":2798:2802  bool */\n          0x00\n            /* \"contracts/16_Dex.sol\":2832:2840  balances */\n          dup1\n            /* \"contracts/16_Dex.sol\":2832:2847  balances[owner] */\n          0x00\n            /* \"contracts/16_Dex.sol\":2841:2846  owner */\n          dup6\n            /* \"contracts/16_Dex.sol\":2832:2847  balances[owner] */\n          0xffffffffffffffffffffffffffffffffffffffff\n          and\n          0xffffffffffffffffffffffffffffffffffffffff\n          and\n          dup2\n          mstore\n          0x20\n          add\n          swap1\n          dup2\n          mstore\n          0x20\n          add\n          0x00\n          keccak256\n          sload\n            /* \"contracts/16_Dex.sol\":2821:2830  numTokens */\n          dup3\n            /* \"contracts/16_Dex.sol\":2821:2847  numTokens<=balances[owner] */\n          gt\n          iszero\n            /* \"contracts/16_Dex.sol\":2813:2848  require(numTokens<=balances[owner]) */\n          tag_60\n          jumpi\n          0x00\n          dup1\n          revert\n        tag_60:\n            /* \"contracts/16_Dex.sol\":2877:2884  allowed */\n          0x01\n            /* \"contracts/16_Dex.sol\":2877:2891  allowed[owner] */\n          0x00\n            /* \"contracts/16_Dex.sol\":2885:2890  owner */\n          dup6\n            /* \"contracts/16_Dex.sol\":2877:2891  allowed[owner] */\n          0xffffffffffffffffffffffffffffffffffffffff\n          and\n          0xffffffffffffffffffffffffffffffffffffffff\n          and\n          dup2\n          mstore\n          0x20\n          add\n          swap1\n          dup2\n          mstore\n          0x20\n          add\n          0x00\n          keccak256\n            /* \"contracts/16_Dex.sol\":2877:2903  allowed[owner][msg.sender] */\n          0x00\n            /* \"contracts/16_Dex.sol\":2892:2902  msg.sender */\n          caller\n            /* \"contracts/16_Dex.sol\":2877:2903  allowed[owner][msg.sender] */\n          0xffffffffffffffffffffffffffffffffffffffff\n          and\n          0xffffffffffffffffffffffffffffffffffffffff\n          and\n          dup2\n          mstore\n          0x20\n          add\n          swap1\n          dup2\n          mstore\n          0x20\n          add\n          0x00\n          keccak256\n          sload\n            /* \"contracts/16_Dex.sol\":2866:2875  numTokens */\n          dup3\n            /* \"contracts/16_Dex.sol\":2866:2903  numTokens<=allowed[owner][msg.sender] */\n          gt\n          iszero\n            /* \"contracts/16_Dex.sol\":2858:2904  require(numTokens<=allowed[owner][msg.sender]) */\n          tag_61\n          jumpi\n          0x00\n          dup1\n          revert\n        tag_61:\n            /* \"contracts/16_Dex.sol\":2931:2961  balances[owner].sub(numTokens) */\n          tag_62\n            /* \"contracts/16_Dex.sol\":2951:2960  numTokens */\n          dup3\n            /* \"contracts/16_Dex.sol\":2931:2939  balances */\n          0x00\n            /* \"contracts/16_Dex.sol\":2931:2946  balances[owner] */\n          dup1\n            /* \"contracts/16_Dex.sol\":2940:2945  owner */\n          dup8\n            /* \"contracts/16_Dex.sol\":2931:2946  balances[owner] */\n          0xffffffffffffffffffffffffffffffffffffffff\n          and\n          0xffffffffffffffffffffffffffffffffffffffff\n          and\n          dup2\n          mstore\n          0x20\n          add\n          swap1\n          dup2\n          mstore\n          0x20\n          add\n          0x00\n          keccak256\n          sload\n            /* \"contracts/16_Dex.sol\":2931:2950  balances[owner].sub */\n          tag_63\n          swap1\n            /* \"contracts/16_Dex.sol\":2931:2961  balances[owner].sub(numTokens) */\n          swap2\n          swap1\n          0xffffffff\n          and\n          jump\t// in\n        tag_62:\n            /* \"contracts/16_Dex.sol\":2915:2923  balances */\n          0x00\n            /* \"contracts/16_Dex.sol\":2915:2930  balances[owner] */\n          dup1\n            /* \"contracts/16_Dex.sol\":2924:2929  owner */\n          dup7\n            /* \"contracts/16_Dex.sol\":2915:2930  balances[owner] */\n          0xffffffffffffffffffffffffffffffffffffffff\n          and\n          0xffffffffffffffffffffffffffffffffffffffff\n          and\n          dup2\n          mstore\n          0x20\n          add\n          swap1\n          dup2\n          mstore\n          0x20\n          add\n          0x00\n          keccak256\n            /* \"contracts/16_Dex.sol\":2915:2961  balances[owner]=balances[owner].sub(numTokens) */\n          dup2\n          swap1\n          sstore\n          pop\n            /* \"contracts/16_Dex.sol\":2993:3029  allowed[owner][buyer].sub(numTokens) */\n          tag_64\n            /* \"contracts/16_Dex.sol\":3019:3028  numTokens */\n          dup3\n            /* \"contracts/16_Dex.sol\":2993:3000  allowed */\n          0x01\n            /* \"contracts/16_Dex.sol\":2993:3007  allowed[owner] */\n          0x00\n            /* \"contracts/16_Dex.sol\":3001:3006  owner */\n          dup8\n            /* \"contracts/16_Dex.sol\":2993:3007  allowed[owner] */\n          0xffffffffffffffffffffffffffffffffffffffff\n          and\n          0xffffffffffffffffffffffffffffffffffffffff\n          and\n          dup2\n          mstore\n          0x20\n          add\n          swap1\n          dup2\n          mstore\n          0x20\n          add\n          0x00\n          keccak256\n            /* \"contracts/16_Dex.sol\":2993:3014  allowed[owner][buyer] */\n          0x00\n            /* \"contracts/16_Dex.sol\":3008:3013  buyer */\n          dup7\n            /* \"contracts/16_Dex.sol\":2993:3014  allowed[owner][buyer] */\n          0xffffffffffffffffffffffffffffffffffffffff\n          and\n          0xffffffffffffffffffffffffffffffffffffffff\n          and\n          dup2\n          mstore\n          0x20\n          add\n          swap1\n          dup2\n          mstore\n          0x20\n          add\n          0x00\n          keccak256\n          sload\n            /* \"contracts/16_Dex.sol\":2993:3018  allowed[owner][buyer].sub */\n          tag_63\n          swap1\n            /* \"contracts/16_Dex.sol\":2993:3029  allowed[owner][buyer].sub(numTokens) */\n          swap2\n          swap1\n          0xffffffff\n          and\n          jump\t// in\n        tag_64:\n            /* \"contracts/16_Dex.sol\":2971:2978  allowed */\n          0x01\n            /* \"contracts/16_Dex.sol\":2971:2985  allowed[owner] */\n          0x00\n            /* \"contracts/16_Dex.sol\":2979:2984  owner */\n          dup7\n            /* \"contracts/16_Dex.sol\":2971:2985  allowed[owner] */\n          0xffffffffffffffffffffffffffffffffffffffff\n          and\n          0xffffffffffffffffffffffffffffffffffffffff\n          and\n          dup2\n          mstore\n          0x20\n          add\n          swap1\n          dup2\n          mstore\n          0x20\n          add\n          0x00\n          keccak256\n            /* \"contracts/16_Dex.sol\":2971:2992  allowed[owner][buyer] */\n          0x00\n            /* \"contracts/16_Dex.sol\":2986:2991  buyer */\n          dup6\n            /* \"contracts/16_Dex.sol\":2971:2992  allowed[owner][buyer] */\n          0xffffffffffffffffffffffffffffffffffffffff\n          and\n          0xffffffffffffffffffffffffffffffffffffffff\n          and\n          dup2\n          mstore\n          0x20\n          add\n          swap1\n          dup2\n          mstore\n          0x20\n          add\n          0x00\n          keccak256\n            /* \"contracts/16_Dex.sol\":2971:3029  allowed[owner][buyer]=allowed[owner][buyer].sub(numTokens) */\n          dup2\n          swap1\n          sstore\n          pop\n            /* \"contracts/16_Dex.sol\":3055:3085  balances[buyer].add(numTokens) */\n          tag_65\n            /* \"contracts/16_Dex.sol\":3075:3084  numTokens */\n          dup3\n            /* \"contracts/16_Dex.sol\":3055:3063  balances */\n          0x00\n            /* \"contracts/16_Dex.sol\":3055:3070  balances[buyer] */\n          dup1\n            /* \"contracts/16_Dex.sol\":3064:3069  buyer */\n          dup7\n            /* \"contracts/16_Dex.sol\":3055:3070  balances[buyer] */\n          0xffffffffffffffffffffffffffffffffffffffff\n          and\n          0xffffffffffffffffffffffffffffffffffffffff\n          and\n          dup2\n          mstore\n          0x20\n          add\n          swap1\n          dup2\n          mstore\n          0x20\n          add\n          0x00\n          keccak256\n          sload\n            /* \"contracts/16_Dex.sol\":3055:3074  balances[buyer].add */\n          tag_66\n          swap1\n            /* \"contracts/16_Dex.sol\":3055:3085  balances[buyer].add(numTokens) */\n          swap2\n          swap1\n          0xffffffff\n          and\n          jump\t// in\n        tag_65:\n            /* \"contracts/16_Dex.sol\":3039:3047  balances */\n          0x00\n            /* \"contracts/16_Dex.sol\":3039:3054  balances[buyer] */\n          dup1\n            /* \"contracts/16_Dex.sol\":3048:3053  buyer */\n          dup6\n            /* \"contracts/16_Dex.sol\":3039:3054  balances[buyer] */\n          0xffffffffffffffffffffffffffffffffffffffff\n          and\n          0xffffffffffffffffffffffffffffffffffffffff\n          and\n          dup2\n          mstore\n          0x20\n          add\n          swap1\n          dup2\n          mstore\n          0x20\n          add\n          0x00\n          keccak256\n            /* \"contracts/16_Dex.sol\":3039:3085  balances[buyer]=balances[buyer].add(numTokens) */\n          dup2\n          swap1\n          sstore\n          pop\n            /* \"contracts/16_Dex.sol\":3114:3119  buyer */\n          dup3\n            /* \"contracts/16_Dex.sol\":3100:3130  Tranfer(owner,buyer,numTokens) */\n          0xffffffffffffffffffffffffffffffffffffffff\n          and\n            /* \"contracts/16_Dex.sol\":3108:3113  owner */\n          dup5\n            /* \"contracts/16_Dex.sol\":3100:3130  Tranfer(owner,buyer,numTokens) */\n          0xffffffffffffffffffffffffffffffffffffffff\n          and\n          0x5225eac2a7facfbeb099c00a4cc7c457701324f1fd84b84b14033f9e911374a4\n            /* \"contracts/16_Dex.sol\":3120:3129  numTokens */\n          dup5\n            /* \"contracts/16_Dex.sol\":3100:3130  Tranfer(owner,buyer,numTokens) */\n          mload(0x40)\n          tag_67\n          swap2\n          swap1\n          tag_21\n          jump\t// in\n        tag_67:\n          mload(0x40)\n          dup1\n          swap2\n          sub\n          swap1\n          log3\n            /* \"contracts/16_Dex.sol\":3147:3151  true */\n          0x01\n            /* \"contracts/16_Dex.sol\":3140:3151  return true */\n          swap1\n          pop\n            /* \"contracts/16_Dex.sol\":2700:3158  function transferFrom(address owner, address buyer, uint256 numTokens) external override returns (bool){... */\n          swap4\n          swap3\n          pop\n          pop\n          pop\n          jump\t// out\n            /* \"contracts/16_Dex.sol\":1288:1321  uint8 public constant decimals=18 */\n        tag_29:\n            /* \"contracts/16_Dex.sol\":1319:1321  18 */\n          0x12\n            /* \"contracts/16_Dex.sol\":1288:1321  uint8 public constant decimals=18 */\n          dup2\n          jump\t// out\n            /* \"contracts/16_Dex.sol\":1566:1662  function getAddress() public override view returns(address){... */\n        tag_33:\n            /* \"contracts/16_Dex.sol\":1617:1624  address */\n          0x00\n            /* \"contracts/16_Dex.sol\":1650:1654  this */\n          address\n            /* \"contracts/16_Dex.sol\":1635:1655  return address(this) */\n          swap1\n          pop\n            /* \"contracts/16_Dex.sol\":1566:1662  function getAddress() public override view returns(address){... */\n          swap1\n          jump\t// out\n            /* \"contracts/16_Dex.sol\":1770:1890  function balanceOf(address tokenOwner) public override view returns(uint256){... */\n        tag_39:\n            /* \"contracts/16_Dex.sol\":1838:1845  uint256 */\n          0x00\n            /* \"contracts/16_Dex.sol\":1863:1871  balances */\n          dup1\n            /* \"contracts/16_Dex.sol\":1863:1883  balances[tokenOwner] */\n          0x00\n            /* \"contracts/16_Dex.sol\":1872:1882  tokenOwner */\n          dup4\n            /* \"contracts/16_Dex.sol\":1863:1883  balances[tokenOwner] */\n          0xffffffffffffffffffffffffffffffffffffffff\n          and\n          0xffffffffffffffffffffffffffffffffffffffff\n          and\n          dup2\n          mstore\n          0x20\n          add\n          swap1\n          dup2\n          mstore\n          0x20\n          add\n          0x00\n          keccak256\n          sload\n            /* \"contracts/16_Dex.sol\":1856:1883  return balances[tokenOwner] */\n          swap1\n          pop\n            /* \"contracts/16_Dex.sol\":1770:1890  function balanceOf(address tokenOwner) public override view returns(uint256){... */\n          swap2\n          swap1\n          pop\n          jump\t// out\n            /* \"contracts/16_Dex.sol\":1243:1282  string public constant symbol=\"ERC-XCC\" */\n        tag_42:\n          mload(0x40)\n          dup1\n          0x40\n          add\n          0x40\n          mstore\n          dup1\n          0x07\n          dup2\n          mstore\n          0x20\n          add\n          0x4552432d58434300000000000000000000000000000000000000000000000000\n          dup2\n          mstore\n          pop\n          dup2\n          jump\t// out\n            /* \"contracts/16_Dex.sol\":1978:2321  function transfer(address receiver, uint256 numTokens) public override returns(bool){... */\n        tag_47:\n            /* \"contracts/16_Dex.sol\":2057:2061  bool */\n          0x00\n            /* \"contracts/16_Dex.sol\":2091:2099  balances */\n          dup1\n            /* \"contracts/16_Dex.sol\":2091:2111  balances[msg.sender] */\n          0x00\n            /* \"contracts/16_Dex.sol\":2100:2110  msg.sender */\n          caller\n            /* \"contracts/16_Dex.sol\":2091:2111  balances[msg.sender] */\n          0xffffffffffffffffffffffffffffffffffffffff\n          and\n          0xffffffffffffffffffffffffffffffffffffffff\n          and\n          dup2\n          mstore\n          0x20\n          add\n          swap1\n          dup2\n          mstore\n          0x20\n          add\n          0x00\n          keccak256\n          sload\n            /* \"contracts/16_Dex.sol\":2080:2089  numTokens */\n          dup3\n            /* \"contracts/16_Dex.sol\":2080:2111  numTokens<=balances[msg.sender] */\n          gt\n          iszero\n            /* \"contracts/16_Dex.sol\":2072:2112  require(numTokens<=balances[msg.sender]) */\n          tag_71\n          jumpi\n          0x00\n          dup1\n          revert\n        tag_71:\n            /* \"contracts/16_Dex.sol\":2143:2178  balances[msg.sender].sub(numTokens) */\n          tag_72\n            /* \"contracts/16_Dex.sol\":2168:2177  numTokens */\n          dup3\n            /* \"contracts/16_Dex.sol\":2143:2151  balances */\n          0x00\n            /* \"contracts/16_Dex.sol\":2143:2163  balances[msg.sender] */\n          dup1\n            /* \"contracts/16_Dex.sol\":2152:2162  msg.sender */\n          caller\n            /* \"contracts/16_Dex.sol\":2143:2163  balances[msg.sender] */\n          0xffffffffffffffffffffffffffffffffffffffff\n          and\n          0xffffffffffffffffffffffffffffffffffffffff\n          and\n          dup2\n          mstore\n          0x20\n          add\n          swap1\n          dup2\n          mstore\n          0x20\n          add\n          0x00\n          keccak256\n          sload\n            /* \"contracts/16_Dex.sol\":2143:2167  balances[msg.sender].sub */\n          tag_63\n          swap1\n            /* \"contracts/16_Dex.sol\":2143:2178  balances[msg.sender].sub(numTokens) */\n          swap2\n          swap1\n          0xffffffff\n          and\n          jump\t// in\n        tag_72:\n            /* \"contracts/16_Dex.sol\":2122:2130  balances */\n          0x00\n            /* \"contracts/16_Dex.sol\":2122:2142  balances[msg.sender] */\n          dup1\n            /* \"contracts/16_Dex.sol\":2131:2141  msg.sender */\n          caller\n            /* \"contracts/16_Dex.sol\":2122:2142  balances[msg.sender] */\n          0xffffffffffffffffffffffffffffffffffffffff\n          and\n          0xffffffffffffffffffffffffffffffffffffffff\n          and\n          dup2\n          mstore\n          0x20\n          add\n          swap1\n          dup2\n          mstore\n          0x20\n          add\n          0x00\n          keccak256\n            /* \"contracts/16_Dex.sol\":2122:2178  balances[msg.sender]=balances[msg.sender].sub(numTokens) */\n          dup2\n          swap1\n          sstore\n          pop\n            /* \"contracts/16_Dex.sol\":2207:2240  balances[receiver].add(numTokens) */\n          tag_73\n            /* \"contracts/16_Dex.sol\":2230:2239  numTokens */\n          dup3\n            /* \"contracts/16_Dex.sol\":2207:2215  balances */\n          0x00\n            /* \"contracts/16_Dex.sol\":2207:2225  balances[receiver] */\n          dup1\n            /* \"contracts/16_Dex.sol\":2216:2224  receiver */\n          dup7\n            /* \"contracts/16_Dex.sol\":2207:2225  balances[receiver] */\n          0xffffffffffffffffffffffffffffffffffffffff\n          and\n          0xffffffffffffffffffffffffffffffffffffffff\n          and\n          dup2\n          mstore\n          0x20\n          add\n          swap1\n          dup2\n          mstore\n          0x20\n          add\n          0x00\n          keccak256\n          sload\n            /* \"contracts/16_Dex.sol\":2207:2229  balances[receiver].add */\n          tag_66\n          swap1\n            /* \"contracts/16_Dex.sol\":2207:2240  balances[receiver].add(numTokens) */\n          swap2\n          swap1\n          0xffffffff\n          and\n          jump\t// in\n        tag_73:\n            /* \"contracts/16_Dex.sol\":2188:2196  balances */\n          0x00\n            /* \"contracts/16_Dex.sol\":2188:2206  balances[receiver] */\n          dup1\n            /* \"contracts/16_Dex.sol\":2197:2205  receiver */\n          dup6\n            /* \"contracts/16_Dex.sol\":2188:2206  balances[receiver] */\n          0xffffffffffffffffffffffffffffffffffffffff\n          and\n          0xffffffffffffffffffffffffffffffffffffffff\n          and\n          dup2\n          mstore\n          0x20\n          add\n          swap1\n          dup2\n          mstore\n          0x20\n          add\n          0x00\n          keccak256\n            /* \"contracts/16_Dex.sol\":2188:2240  balances[receiver]=balances[receiver].add(numTokens) */\n          dup2\n          swap1\n          sstore\n          pop\n            /* \"contracts/16_Dex.sol\":2274:2282  receiver */\n          dup3\n            /* \"contracts/16_Dex.sol\":2255:2293  Tranfer(msg.sender,receiver,numTokens) */\n          0xffffffffffffffffffffffffffffffffffffffff\n          and\n            /* \"contracts/16_Dex.sol\":2263:2273  msg.sender */\n          caller\n            /* \"contracts/16_Dex.sol\":2255:2293  Tranfer(msg.sender,receiver,numTokens) */\n          0xffffffffffffffffffffffffffffffffffffffff\n          and\n          0x5225eac2a7facfbeb099c00a4cc7c457701324f1fd84b84b14033f9e911374a4\n            /* \"contracts/16_Dex.sol\":2283:2292  numTokens */\n          dup5\n            /* \"contracts/16_Dex.sol\":2255:2293  Tranfer(msg.sender,receiver,numTokens) */\n          mload(0x40)\n          tag_74\n          swap2\n          swap1\n          tag_21\n          jump\t// in\n        tag_74:\n          mload(0x40)\n          dup1\n          swap2\n          sub\n          swap1\n          log3\n            /* \"contracts/16_Dex.sol\":2310:2314  true */\n          0x01\n            /* \"contracts/16_Dex.sol\":2303:2314  return true */\n          swap1\n          pop\n            /* \"contracts/16_Dex.sol\":1978:2321  function transfer(address receiver, uint256 numTokens) public override returns(bool){... */\n          swap3\n          swap2\n          pop\n          pop\n          jump\t// out\n            /* \"contracts/16_Dex.sol\":2555:2694  function allowance(address owner, address delegate) external override view returns(uint256){... */\n        tag_52:\n            /* \"contracts/16_Dex.sol\":2638:2645  uint256 */\n          0x00\n            /* \"contracts/16_Dex.sol\":2663:2670  allowed */\n          0x01\n            /* \"contracts/16_Dex.sol\":2663:2677  allowed[owner] */\n          0x00\n            /* \"contracts/16_Dex.sol\":2671:2676  owner */\n          dup5\n            /* \"contracts/16_Dex.sol\":2663:2677  allowed[owner] */\n          0xffffffffffffffffffffffffffffffffffffffff\n          and\n          0xffffffffffffffffffffffffffffffffffffffff\n          and\n          dup2\n          mstore\n          0x20\n          add\n          swap1\n          dup2\n          mstore\n          0x20\n          add\n          0x00\n          keccak256\n            /* \"contracts/16_Dex.sol\":2663:2687  allowed[owner][delegate] */\n          0x00\n            /* \"contracts/16_Dex.sol\":2678:2686  delegate */\n          dup4\n            /* \"contracts/16_Dex.sol\":2663:2687  allowed[owner][delegate] */\n          0xffffffffffffffffffffffffffffffffffffffff\n          and\n          0xffffffffffffffffffffffffffffffffffffffff\n          and\n          dup2\n          mstore\n          0x20\n          add\n          swap1\n          dup2\n          mstore\n          0x20\n          add\n          0x00\n          keccak256\n          sload\n            /* \"contracts/16_Dex.sol\":2656:2687  return allowed[owner][delegate] */\n          swap1\n          pop\n            /* \"contracts/16_Dex.sol\":2555:2694  function allowance(address owner, address delegate) external override view returns(uint256){... */\n          swap3\n          swap2\n          pop\n          pop\n          jump\t// out\n            /* \"contracts/16_Dex.sol\":2327:2549  function approve(address owner, address delegate, uint256 numTokens) external override returns (bool){... */\n        tag_56:\n            /* \"contracts/16_Dex.sol\":2423:2427  bool */\n          0x00\n            /* \"contracts/16_Dex.sol\":2463:2472  numTokens */\n          dup2\n            /* \"contracts/16_Dex.sol\":2438:2445  allowed */\n          0x01\n            /* \"contracts/16_Dex.sol\":2438:2452  allowed[owner] */\n          0x00\n            /* \"contracts/16_Dex.sol\":2446:2451  owner */\n          dup7\n            /* \"contracts/16_Dex.sol\":2438:2452  allowed[owner] */\n          0xffffffffffffffffffffffffffffffffffffffff\n          and\n          0xffffffffffffffffffffffffffffffffffffffff\n          and\n          dup2\n          mstore\n          0x20\n          add\n          swap1\n          dup2\n          mstore\n          0x20\n          add\n          0x00\n          keccak256\n            /* \"contracts/16_Dex.sol\":2438:2462  allowed[owner][delegate] */\n          0x00\n            /* \"contracts/16_Dex.sol\":2453:2461  delegate */\n          dup6\n            /* \"contracts/16_Dex.sol\":2438:2462  allowed[owner][delegate] */\n          0xffffffffffffffffffffffffffffffffffffffff\n          and\n          0xffffffffffffffffffffffffffffffffffffffff\n          and\n          dup2\n          mstore\n          0x20\n          add\n          swap1\n          dup2\n          mstore\n          0x20\n          add\n          0x00\n          keccak256\n            /* \"contracts/16_Dex.sol\":2438:2472  allowed[owner][delegate]=numTokens */\n          dup2\n          swap1\n          sstore\n          pop\n            /* \"contracts/16_Dex.sol\":2502:2510  delegate */\n          dup3\n            /* \"contracts/16_Dex.sol\":2487:2521  Approval(owner,delegate,numTokens) */\n          0xffffffffffffffffffffffffffffffffffffffff\n          and\n            /* \"contracts/16_Dex.sol\":2496:2501  owner */\n          dup5\n            /* \"contracts/16_Dex.sol\":2487:2521  Approval(owner,delegate,numTokens) */\n          0xffffffffffffffffffffffffffffffffffffffff\n          and\n          0x8c5be1e5ebec7d5bd14f71427d1e84f3dd0314c0f7b2291e5b200ac8c7c3b925\n            /* \"contracts/16_Dex.sol\":2511:2520  numTokens */\n          dup5\n            /* \"contracts/16_Dex.sol\":2487:2521  Approval(owner,delegate,numTokens) */\n          mload(0x40)\n          tag_77\n          swap2\n          swap1\n          tag_21\n          jump\t// in\n        tag_77:\n          mload(0x40)\n          dup1\n          swap2\n          sub\n          swap1\n          log3\n            /* \"contracts/16_Dex.sol\":2538:2542  true */\n          0x01\n            /* \"contracts/16_Dex.sol\":2531:2542  return true */\n          swap1\n          pop\n            /* \"contracts/16_Dex.sol\":2327:2549  function approve(address owner, address delegate, uint256 numTokens) external override returns (bool){... */\n          swap4\n          swap3\n          pop\n          pop\n          pop\n          jump\t// out\n            /* \"contracts/16_Dex.sol\":110:224  function sub(uint256 a, uint256 b) internal pure returns(uint256){... */\n        tag_63:\n            /* \"contracts/16_Dex.sol\":167:174  uint256 */\n          0x00\n            /* \"contracts/16_Dex.sol\":195:196  a */\n          dup3\n            /* \"contracts/16_Dex.sol\":192:193  b */\n          dup3\n            /* \"contracts/16_Dex.sol\":192:196  b<=a */\n          gt\n          iszero\n            /* \"contracts/16_Dex.sol\":185:197  assert(b<=a) */\n          tag_79\n          jumpi\n          tag_80\n          tag_81\n          jump\t// in\n        tag_80:\n        tag_79:\n            /* \"contracts/16_Dex.sol\":216:217  b */\n          dup2\n            /* \"contracts/16_Dex.sol\":214:215  a */\n          dup4\n            /* \"contracts/16_Dex.sol\":214:217  a-b */\n          tag_82\n          swap2\n          swap1\n          tag_83\n          jump\t// in\n        tag_82:\n            /* \"contracts/16_Dex.sol\":207:217  return a-b */\n          swap1\n          pop\n            /* \"contracts/16_Dex.sol\":110:224  function sub(uint256 a, uint256 b) internal pure returns(uint256){... */\n          swap3\n          swap2\n          pop\n          pop\n          jump\t// out\n            /* \"contracts/16_Dex.sol\":229:364  function add(uint256 a, uint256 b) internal pure returns(uint256){... */\n        tag_66:\n            /* \"contracts/16_Dex.sol\":286:293  uint256 */\n          0x00\n            /* \"contracts/16_Dex.sol\":304:313  uint256 c */\n          dup1\n            /* \"contracts/16_Dex.sol\":316:317  b */\n          dup3\n            /* \"contracts/16_Dex.sol\":314:315  a */\n          dup5\n            /* \"contracts/16_Dex.sol\":314:317  a+b */\n          tag_85\n          swap2\n          swap1\n          tag_86\n          jump\t// in\n        tag_85:\n            /* \"contracts/16_Dex.sol\":304:317  uint256 c=a+b */\n          swap1\n          pop\n            /* \"contracts/16_Dex.sol\":337:338  a */\n          dup4\n            /* \"contracts/16_Dex.sol\":334:335  c */\n          dup2\n            /* \"contracts/16_Dex.sol\":334:338  c>=a */\n          lt\n          iszero\n            /* \"contracts/16_Dex.sol\":327:339  assert(c>=a) */\n          tag_87\n          jumpi\n          tag_88\n          tag_81\n          jump\t// in\n        tag_88:\n        tag_87:\n            /* \"contracts/16_Dex.sol\":356:357  c */\n          dup1\n            /* \"contracts/16_Dex.sol\":349:357  return c */\n          swap2\n          pop\n          pop\n            /* \"contracts/16_Dex.sol\":229:364  function add(uint256 a, uint256 b) internal pure returns(uint256){... */\n          swap3\n          swap2\n          pop\n          pop\n          jump\t// out\n            /* \"#utility.yul\":7:146   */\n        tag_90:\n            /* \"#utility.yul\":53:58   */\n          0x00\n            /* \"#utility.yul\":91:97   */\n          dup2\n            /* \"#utility.yul\":78:98   */\n          calldataload\n            /* \"#utility.yul\":69:98   */\n          swap1\n          pop\n            /* \"#utility.yul\":107:140   */\n          tag_92\n            /* \"#utility.yul\":134:139   */\n          dup2\n            /* \"#utility.yul\":107:140   */\n          tag_93\n          jump\t// in\n        tag_92:\n            /* \"#utility.yul\":7:146   */\n          swap3\n          swap2\n          pop\n          pop\n          jump\t// out\n            /* \"#utility.yul\":152:291   */\n        tag_94:\n            /* \"#utility.yul\":198:203   */\n          0x00\n            /* \"#utility.yul\":236:242   */\n          dup2\n            /* \"#utility.yul\":223:243   */\n          calldataload\n            /* \"#utility.yul\":214:243   */\n          swap1\n          pop\n            /* \"#utility.yul\":252:285   */\n          tag_96\n            /* \"#utility.yul\":279:284   */\n          dup2\n            /* \"#utility.yul\":252:285   */\n          tag_97\n          jump\t// in\n        tag_96:\n            /* \"#utility.yul\":152:291   */\n          swap3\n          swap2\n          pop\n          pop\n          jump\t// out\n            /* \"#utility.yul\":297:626   */\n        tag_38:\n            /* \"#utility.yul\":356:362   */\n          0x00\n            /* \"#utility.yul\":405:407   */\n          0x20\n            /* \"#utility.yul\":393:402   */\n          dup3\n            /* \"#utility.yul\":384:391   */\n          dup5\n            /* \"#utility.yul\":380:403   */\n          sub\n            /* \"#utility.yul\":376:408   */\n          slt\n            /* \"#utility.yul\":373:492   */\n          iszero\n          tag_99\n          jumpi\n            /* \"#utility.yul\":411:490   */\n          tag_100\n          tag_101\n          jump\t// in\n        tag_100:\n            /* \"#utility.yul\":373:492   */\n        tag_99:\n            /* \"#utility.yul\":531:532   */\n          0x00\n            /* \"#utility.yul\":556:609   */\n          tag_102\n            /* \"#utility.yul\":601:608   */\n          dup5\n            /* \"#utility.yul\":592:598   */\n          dup3\n            /* \"#utility.yul\":581:590   */\n          dup6\n            /* \"#utility.yul\":577:599   */\n          add\n            /* \"#utility.yul\":556:609   */\n          tag_90\n          jump\t// in\n        tag_102:\n            /* \"#utility.yul\":546:609   */\n          swap2\n          pop\n            /* \"#utility.yul\":502:619   */\n          pop\n            /* \"#utility.yul\":297:626   */\n          swap3\n          swap2\n          pop\n          pop\n          jump\t// out\n            /* \"#utility.yul\":632:1106   */\n        tag_51:\n            /* \"#utility.yul\":700:706   */\n          0x00\n            /* \"#utility.yul\":708:714   */\n          dup1\n            /* \"#utility.yul\":757:759   */\n          0x40\n            /* \"#utility.yul\":745:754   */\n          dup4\n            /* \"#utility.yul\":736:743   */\n          dup6\n            /* \"#utility.yul\":732:755   */\n          sub\n            /* \"#utility.yul\":728:760   */\n          slt\n            /* \"#utility.yul\":725:844   */\n          iszero\n          tag_104\n          jumpi\n            /* \"#utility.yul\":763:842   */\n          tag_105\n          tag_101\n          jump\t// in\n        tag_105:\n            /* \"#utility.yul\":725:844   */\n        tag_104:\n            /* \"#utility.yul\":883:884   */\n          0x00\n            /* \"#utility.yul\":908:961   */\n          tag_106\n            /* \"#utility.yul\":953:960   */\n          dup6\n            /* \"#utility.yul\":944:950   */\n          dup3\n            /* \"#utility.yul\":933:942   */\n          dup7\n            /* \"#utility.yul\":929:951   */\n          add\n            /* \"#utility.yul\":908:961   */\n          tag_90\n          jump\t// in\n        tag_106:\n            /* \"#utility.yul\":898:961   */\n          swap3\n          pop\n            /* \"#utility.yul\":854:971   */\n          pop\n            /* \"#utility.yul\":1010:1012   */\n          0x20\n            /* \"#utility.yul\":1036:1089   */\n          tag_107\n            /* \"#utility.yul\":1081:1088   */\n          dup6\n            /* \"#utility.yul\":1072:1078   */\n          dup3\n            /* \"#utility.yul\":1061:1070   */\n          dup7\n            /* \"#utility.yul\":1057:1079   */\n          add\n            /* \"#utility.yul\":1036:1089   */\n          tag_90\n          jump\t// in\n        tag_107:\n            /* \"#utility.yul\":1026:1089   */\n          swap2\n          pop\n            /* \"#utility.yul\":981:1099   */\n          pop\n            /* \"#utility.yul\":632:1106   */\n          swap3\n          pop\n          swap3\n          swap1\n          pop\n          jump\t// out\n            /* \"#utility.yul\":1112:1731   */\n        tag_24:\n            /* \"#utility.yul\":1189:1195   */\n          0x00\n            /* \"#utility.yul\":1197:1203   */\n          dup1\n            /* \"#utility.yul\":1205:1211   */\n          0x00\n            /* \"#utility.yul\":1254:1256   */\n          0x60\n            /* \"#utility.yul\":1242:1251   */\n          dup5\n            /* \"#utility.yul\":1233:1240   */\n          dup7\n            /* \"#utility.yul\":1229:1252   */\n          sub\n            /* \"#utility.yul\":1225:1257   */\n          slt\n            /* \"#utility.yul\":1222:1341   */\n          iszero\n          tag_109\n          jumpi\n            /* \"#utility.yul\":1260:1339   */\n          tag_110\n          tag_101\n          jump\t// in\n        tag_110:\n            /* \"#utility.yul\":1222:1341   */\n        tag_109:\n            /* \"#utility.yul\":1380:1381   */\n          0x00\n            /* \"#utility.yul\":1405:1458   */\n          tag_111\n            /* \"#utility.yul\":1450:1457   */\n          dup7\n            /* \"#utility.yul\":1441:1447   */\n          dup3\n            /* \"#utility.yul\":1430:1439   */\n          dup8\n            /* \"#utility.yul\":1426:1448   */\n          add\n            /* \"#utility.yul\":1405:1458   */\n          tag_90\n          jump\t// in\n        tag_111:\n            /* \"#utility.yul\":1395:1458   */\n          swap4\n          pop\n            /* \"#utility.yul\":1351:1468   */\n          pop\n            /* \"#utility.yul\":1507:1509   */\n          0x20\n            /* \"#utility.yul\":1533:1586   */\n          tag_112\n            /* \"#utility.yul\":1578:1585   */\n          dup7\n            /* \"#utility.yul\":1569:1575   */\n          dup3\n            /* \"#utility.yul\":1558:1567   */\n          dup8\n            /* \"#utility.yul\":1554:1576   */\n          add\n            /* \"#utility.yul\":1533:1586   */\n          tag_90\n          jump\t// in\n        tag_112:\n            /* \"#utility.yul\":1523:1586   */\n          swap3\n          pop\n            /* \"#utility.yul\":1478:1596   */\n          pop\n            /* \"#utility.yul\":1635:1637   */\n          0x40\n            /* \"#utility.yul\":1661:1714   */\n          tag_113\n            /* \"#utility.yul\":1706:1713   */\n          dup7\n            /* \"#utility.yul\":1697:1703   */\n          dup3\n            /* \"#utility.yul\":1686:1695   */\n          dup8\n            /* \"#utility.yul\":1682:1704   */\n          add\n            /* \"#utility.yul\":1661:1714   */\n          tag_94\n          jump\t// in\n        tag_113:\n            /* \"#utility.yul\":1651:1714   */\n          swap2\n          pop\n            /* \"#utility.yul\":1606:1724   */\n          pop\n            /* \"#utility.yul\":1112:1731   */\n          swap3\n          pop\n          swap3\n          pop\n          swap3\n          jump\t// out\n            /* \"#utility.yul\":1737:2211   */\n        tag_46:\n            /* \"#utility.yul\":1805:1811   */\n          0x00\n            /* \"#utility.yul\":1813:1819   */\n          dup1\n            /* \"#utility.yul\":1862:1864   */\n          0x40\n            /* \"#utility.yul\":1850:1859   */\n          dup4\n            /* \"#utility.yul\":1841:1848   */\n          dup6\n            /* \"#utility.yul\":1837:1860   */\n          sub\n            /* \"#utility.yul\":1833:1865   */\n          slt\n            /* \"#utility.yul\":1830:1949   */\n          iszero\n          tag_115\n          jumpi\n            /* \"#utility.yul\":1868:1947   */\n          tag_116\n          tag_101\n          jump\t// in\n        tag_116:\n            /* \"#utility.yul\":1830:1949   */\n        tag_115:\n            /* \"#utility.yul\":1988:1989   */\n          0x00\n            /* \"#utility.yul\":2013:2066   */\n          tag_117\n            /* \"#utility.yul\":2058:2065   */\n          dup6\n            /* \"#utility.yul\":2049:2055   */\n          dup3\n            /* \"#utility.yul\":2038:2047   */\n          dup7\n            /* \"#utility.yul\":2034:2056   */\n          add\n            /* \"#utility.yul\":2013:2066   */\n          tag_90\n          jump\t// in\n        tag_117:\n            /* \"#utility.yul\":2003:2066   */\n          swap3\n          pop\n            /* \"#utility.yul\":1959:2076   */\n          pop\n            /* \"#utility.yul\":2115:2117   */\n          0x20\n            /* \"#utility.yul\":2141:2194   */\n          tag_118\n            /* \"#utility.yul\":2186:2193   */\n          dup6\n            /* \"#utility.yul\":2177:2183   */\n          dup3\n            /* \"#utility.yul\":2166:2175   */\n          dup7\n            /* \"#utility.yul\":2162:2184   */\n          add\n            /* \"#utility.yul\":2141:2194   */\n          tag_94\n          jump\t// in\n        tag_118:\n            /* \"#utility.yul\":2131:2194   */\n          swap2\n          pop\n            /* \"#utility.yul\":2086:2204   */\n          pop\n            /* \"#utility.yul\":1737:2211   */\n          swap3\n          pop\n          swap3\n          swap1\n          pop\n          jump\t// out\n            /* \"#utility.yul\":2217:2335   */\n        tag_119:\n            /* \"#utility.yul\":2304:2328   */\n          tag_121\n            /* \"#utility.yul\":2322:2327   */\n          dup2\n            /* \"#utility.yul\":2304:2328   */\n          tag_122\n          jump\t// in\n        tag_121:\n            /* \"#utility.yul\":2299:2302   */\n          dup3\n            /* \"#utility.yul\":2292:2329   */\n          mstore\n            /* \"#utility.yul\":2217:2335   */\n          pop\n          pop\n          jump\t// out\n            /* \"#utility.yul\":2341:2450   */\n        tag_123:\n            /* \"#utility.yul\":2422:2443   */\n          tag_125\n            /* \"#utility.yul\":2437:2442   */\n          dup2\n            /* \"#utility.yul\":2422:2443   */\n          tag_126\n          jump\t// in\n        tag_125:\n            /* \"#utility.yul\":2417:2420   */\n          dup3\n            /* \"#utility.yul\":2410:2444   */\n          mstore\n            /* \"#utility.yul\":2341:2450   */\n          pop\n          pop\n          jump\t// out\n            /* \"#utility.yul\":2456:2820   */\n        tag_127:\n            /* \"#utility.yul\":2544:2547   */\n          0x00\n            /* \"#utility.yul\":2572:2611   */\n          tag_129\n            /* \"#utility.yul\":2605:2610   */\n          dup3\n            /* \"#utility.yul\":2572:2611   */\n          tag_130\n          jump\t// in\n        tag_129:\n            /* \"#utility.yul\":2627:2698   */\n          tag_131\n            /* \"#utility.yul\":2691:2697   */\n          dup2\n            /* \"#utility.yul\":2686:2689   */\n          dup6\n            /* \"#utility.yul\":2627:2698   */\n          tag_132\n          jump\t// in\n        tag_131:\n            /* \"#utility.yul\":2620:2698   */\n          swap4\n          pop\n            /* \"#utility.yul\":2707:2759   */\n          tag_133\n            /* \"#utility.yul\":2752:2758   */\n          dup2\n            /* \"#utility.yul\":2747:2750   */\n          dup6\n            /* \"#utility.yul\":2740:2744   */\n          0x20\n            /* \"#utility.yul\":2733:2738   */\n          dup7\n            /* \"#utility.yul\":2729:2745   */\n          add\n            /* \"#utility.yul\":2707:2759   */\n          tag_134\n          jump\t// in\n        tag_133:\n            /* \"#utility.yul\":2784:2813   */\n          tag_135\n            /* \"#utility.yul\":2806:2812   */\n          dup2\n            /* \"#utility.yul\":2784:2813   */\n          tag_136\n          jump\t// in\n        tag_135:\n            /* \"#utility.yul\":2779:2782   */\n          dup5\n            /* \"#utility.yul\":2775:2814   */\n          add\n            /* \"#utility.yul\":2768:2814   */\n          swap2\n          pop\n            /* \"#utility.yul\":2548:2820   */\n          pop\n            /* \"#utility.yul\":2456:2820   */\n          swap3\n          swap2\n          pop\n          pop\n          jump\t// out\n            /* \"#utility.yul\":2826:2944   */\n        tag_137:\n            /* \"#utility.yul\":2913:2937   */\n          tag_139\n            /* \"#utility.yul\":2931:2936   */\n          dup2\n            /* \"#utility.yul\":2913:2937   */\n          tag_140\n          jump\t// in\n        tag_139:\n            /* \"#utility.yul\":2908:2911   */\n          dup3\n            /* \"#utility.yul\":2901:2938   */\n          mstore\n            /* \"#utility.yul\":2826:2944   */\n          pop\n          pop\n          jump\t// out\n            /* \"#utility.yul\":2950:3062   */\n        tag_141:\n            /* \"#utility.yul\":3033:3055   */\n          tag_143\n            /* \"#utility.yul\":3049:3054   */\n          dup2\n            /* \"#utility.yul\":3033:3055   */\n          tag_144\n          jump\t// in\n        tag_143:\n            /* \"#utility.yul\":3028:3031   */\n          dup3\n            /* \"#utility.yul\":3021:3056   */\n          mstore\n            /* \"#utility.yul\":2950:3062   */\n          pop\n          pop\n          jump\t// out\n            /* \"#utility.yul\":3068:3290   */\n        tag_35:\n            /* \"#utility.yul\":3161:3165   */\n          0x00\n            /* \"#utility.yul\":3199:3201   */\n          0x20\n            /* \"#utility.yul\":3188:3197   */\n          dup3\n            /* \"#utility.yul\":3184:3202   */\n          add\n            /* \"#utility.yul\":3176:3202   */\n          swap1\n          pop\n            /* \"#utility.yul\":3212:3283   */\n          tag_146\n            /* \"#utility.yul\":3280:3281   */\n          0x00\n            /* \"#utility.yul\":3269:3278   */\n          dup4\n            /* \"#utility.yul\":3265:3282   */\n          add\n            /* \"#utility.yul\":3256:3262   */\n          dup5\n            /* \"#utility.yul\":3212:3283   */\n          tag_119\n          jump\t// in\n        tag_146:\n            /* \"#utility.yul\":3068:3290   */\n          swap3\n          swap2\n          pop\n          pop\n          jump\t// out\n            /* \"#utility.yul\":3296:3506   */\n        tag_27:\n            /* \"#utility.yul\":3383:3387   */\n          0x00\n            /* \"#utility.yul\":3421:3423   */\n          0x20\n            /* \"#utility.yul\":3410:3419   */\n          dup3\n            /* \"#utility.yul\":3406:3424   */\n          add\n            /* \"#utility.yul\":3398:3424   */\n          swap1\n          pop\n            /* \"#utility.yul\":3434:3499   */\n          tag_148\n            /* \"#utility.yul\":3496:3497   */\n          0x00\n            /* \"#utility.yul\":3485:3494   */\n          dup4\n            /* \"#utility.yul\":3481:3498   */\n          add\n            /* \"#utility.yul\":3472:3478   */\n          dup5\n            /* \"#utility.yul\":3434:3499   */\n          tag_123\n          jump\t// in\n        tag_148:\n            /* \"#utility.yul\":3296:3506   */\n          swap3\n          swap2\n          pop\n          pop\n          jump\t// out\n            /* \"#utility.yul\":3512:3825   */\n        tag_17:\n            /* \"#utility.yul\":3625:3629   */\n          0x00\n            /* \"#utility.yul\":3663:3665   */\n          0x20\n            /* \"#utility.yul\":3652:3661   */\n          dup3\n            /* \"#utility.yul\":3648:3666   */\n          add\n            /* \"#utility.yul\":3640:3666   */\n          swap1\n          pop\n            /* \"#utility.yul\":3712:3721   */\n          dup2\n            /* \"#utility.yul\":3706:3710   */\n          dup2\n            /* \"#utility.yul\":3702:3722   */\n          sub\n            /* \"#utility.yul\":3698:3699   */\n          0x00\n            /* \"#utility.yul\":3687:3696   */\n          dup4\n            /* \"#utility.yul\":3683:3700   */\n          add\n            /* \"#utility.yul\":3676:3723   */\n          mstore\n            /* \"#utility.yul\":3740:3818   */\n          tag_150\n            /* \"#utility.yul\":3813:3817   */\n          dup2\n            /* \"#utility.yul\":3804:3810   */\n          dup5\n            /* \"#utility.yul\":3740:3818   */\n          tag_127\n          jump\t// in\n        tag_150:\n            /* \"#utility.yul\":3732:3818   */\n          swap1\n          pop\n            /* \"#utility.yul\":3512:3825   */\n          swap3\n          swap2\n          pop\n          pop\n          jump\t// out\n            /* \"#utility.yul\":3831:4053   */\n        tag_21:\n            /* \"#utility.yul\":3924:3928   */\n          0x00\n            /* \"#utility.yul\":3962:3964   */\n          0x20\n            /* \"#utility.yul\":3951:3960   */\n          dup3\n            /* \"#utility.yul\":3947:3965   */\n          add\n            /* \"#utility.yul\":3939:3965   */\n          swap1\n          pop\n            /* \"#utility.yul\":3975:4046   */\n          tag_152\n            /* \"#utility.yul\":4043:4044   */\n          0x00\n            /* \"#utility.yul\":4032:4041   */\n          dup4\n            /* \"#utility.yul\":4028:4045   */\n          add\n            /* \"#utility.yul\":4019:4025   */\n          dup5\n            /* \"#utility.yul\":3975:4046   */\n          tag_137\n          jump\t// in\n        tag_152:\n            /* \"#utility.yul\":3831:4053   */\n          swap3\n          swap2\n          pop\n          pop\n          jump\t// out\n            /* \"#utility.yul\":4059:4273   */\n        tag_31:\n            /* \"#utility.yul\":4148:4152   */\n          0x00\n            /* \"#utility.yul\":4186:4188   */\n          0x20\n            /* \"#utility.yul\":4175:4184   */\n          dup3\n            /* \"#utility.yul\":4171:4189   */\n          add\n            /* \"#utility.yul\":4163:4189   */\n          swap1\n          pop\n            /* \"#utility.yul\":4199:4266   */\n          tag_154\n            /* \"#utility.yul\":4263:4264   */\n          0x00\n            /* \"#utility.yul\":4252:4261   */\n          dup4\n            /* \"#utility.yul\":4248:4265   */\n          add\n            /* \"#utility.yul\":4239:4245   */\n          dup5\n            /* \"#utility.yul\":4199:4266   */\n          tag_141\n          jump\t// in\n        tag_154:\n            /* \"#utility.yul\":4059:4273   */\n          swap3\n          swap2\n          pop\n          pop\n          jump\t// out\n            /* \"#utility.yul\":4360:4459   */\n        tag_130:\n            /* \"#utility.yul\":4412:4418   */\n          0x00\n            /* \"#utility.yul\":4446:4451   */\n          dup2\n            /* \"#utility.yul\":4440:4452   */\n          mload\n            /* \"#utility.yul\":4430:4452   */\n          swap1\n          pop\n            /* \"#utility.yul\":4360:4459   */\n          swap2\n          swap1\n          pop\n          jump\t// out\n            /* \"#utility.yul\":4465:4634   */\n        tag_132:\n            /* \"#utility.yul\":4549:4560   */\n          0x00\n            /* \"#utility.yul\":4583:4589   */\n          dup3\n            /* \"#utility.yul\":4578:4581   */\n          dup3\n            /* \"#utility.yul\":4571:4590   */\n          mstore\n            /* \"#utility.yul\":4623:4627   */\n          0x20\n            /* \"#utility.yul\":4618:4621   */\n          dup3\n            /* \"#utility.yul\":4614:4628   */\n          add\n            /* \"#utility.yul\":4599:4628   */\n          swap1\n          pop\n            /* \"#utility.yul\":4465:4634   */\n          swap3\n          swap2\n          pop\n          pop\n          jump\t// out\n            /* \"#utility.yul\":4640:4945   */\n        tag_86:\n            /* \"#utility.yul\":4680:4683   */\n          0x00\n            /* \"#utility.yul\":4699:4719   */\n          tag_160\n            /* \"#utility.yul\":4717:4718   */\n          dup3\n            /* \"#utility.yul\":4699:4719   */\n          tag_140\n          jump\t// in\n        tag_160:\n            /* \"#utility.yul\":4694:4719   */\n          swap2\n          pop\n            /* \"#utility.yul\":4733:4753   */\n          tag_161\n            /* \"#utility.yul\":4751:4752   */\n          dup4\n            /* \"#utility.yul\":4733:4753   */\n          tag_140\n          jump\t// in\n        tag_161:\n            /* \"#utility.yul\":4728:4753   */\n          swap3\n          pop\n            /* \"#utility.yul\":4887:4888   */\n          dup3\n            /* \"#utility.yul\":4819:4885   */\n          0xffffffffffffffffffffffffffffffffffffffffffffffffffffffffffffffff\n            /* \"#utility.yul\":4815:4889   */\n          sub\n            /* \"#utility.yul\":4812:4813   */\n          dup3\n            /* \"#utility.yul\":4809:4890   */\n          gt\n            /* \"#utility.yul\":4806:4913   */\n          iszero\n          tag_162\n          jumpi\n            /* \"#utility.yul\":4893:4911   */\n          tag_163\n          tag_164\n          jump\t// in\n        tag_163:\n            /* \"#utility.yul\":4806:4913   */\n        tag_162:\n            /* \"#utility.yul\":4937:4938   */\n          dup3\n            /* \"#utility.yul\":4934:4935   */\n          dup3\n            /* \"#utility.yul\":4930:4939   */\n          add\n            /* \"#utility.yul\":4923:4939   */\n          swap1\n          pop\n            /* \"#utility.yul\":4640:4945   */\n          swap3\n          swap2\n          pop\n          pop\n          jump\t// out\n            /* \"#utility.yul\":4951:5142   */\n        tag_83:\n            /* \"#utility.yul\":4991:4995   */\n          0x00\n            /* \"#utility.yul\":5011:5031   */\n          tag_166\n            /* \"#utility.yul\":5029:5030   */\n          dup3\n            /* \"#utility.yul\":5011:5031   */\n          tag_140\n          jump\t// in\n        tag_166:\n            /* \"#utility.yul\":5006:5031   */\n          swap2\n          pop\n            /* \"#utility.yul\":5045:5065   */\n          tag_167\n            /* \"#utility.yul\":5063:5064   */\n          dup4\n            /* \"#utility.yul\":5045:5065   */\n          tag_140\n          jump\t// in\n        tag_167:\n            /* \"#utility.yul\":5040:5065   */\n          swap3\n          pop\n            /* \"#utility.yul\":5084:5085   */\n          dup3\n            /* \"#utility.yul\":5081:5082   */\n          dup3\n            /* \"#utility.yul\":5078:5086   */\n          lt\n            /* \"#utility.yul\":5075:5109   */\n          iszero\n          tag_168\n          jumpi\n            /* \"#utility.yul\":5089:5107   */\n          tag_169\n          tag_164\n          jump\t// in\n        tag_169:\n            /* \"#utility.yul\":5075:5109   */\n        tag_168:\n            /* \"#utility.yul\":5134:5135   */\n          dup3\n            /* \"#utility.yul\":5131:5132   */\n          dup3\n            /* \"#utility.yul\":5127:5136   */\n          sub\n            /* \"#utility.yul\":5119:5136   */\n          swap1\n          pop\n            /* \"#utility.yul\":4951:5142   */\n          swap3\n          swap2\n          pop\n          pop\n          jump\t// out\n            /* \"#utility.yul\":5148:5244   */\n        tag_122:\n            /* \"#utility.yul\":5185:5192   */\n          0x00\n            /* \"#utility.yul\":5214:5238   */\n          tag_171\n            /* \"#utility.yul\":5232:5237   */\n          dup3\n            /* \"#utility.yul\":5214:5238   */\n          tag_172\n          jump\t// in\n        tag_171:\n            /* \"#utility.yul\":5203:5238   */\n          swap1\n          pop\n            /* \"#utility.yul\":5148:5244   */\n          swap2\n          swap1\n          pop\n          jump\t// out\n            /* \"#utility.yul\":5250:5340   */\n        tag_126:\n            /* \"#utility.yul\":5284:5291   */\n          0x00\n            /* \"#utility.yul\":5327:5332   */\n          dup2\n            /* \"#utility.yul\":5320:5333   */\n          iszero\n            /* \"#utility.yul\":5313:5334   */\n          iszero\n            /* \"#utility.yul\":5302:5334   */\n          swap1\n          pop\n            /* \"#utility.yul\":5250:5340   */\n          swap2\n          swap1\n          pop\n          jump\t// out\n            /* \"#utility.yul\":5346:5472   */\n        tag_172:\n            /* \"#utility.yul\":5383:5390   */\n          0x00\n            /* \"#utility.yul\":5423:5465   */\n          0xffffffffffffffffffffffffffffffffffffffff\n            /* \"#utility.yul\":5416:5421   */\n          dup3\n            /* \"#utility.yul\":5412:5466   */\n          and\n            /* \"#utility.yul\":5401:5466   */\n          swap1\n          pop\n            /* \"#utility.yul\":5346:5472   */\n          swap2\n          swap1\n          pop\n          jump\t// out\n            /* \"#utility.yul\":5478:5555   */\n        tag_140:\n            /* \"#utility.yul\":5515:5522   */\n          0x00\n            /* \"#utility.yul\":5544:5549   */\n          dup2\n            /* \"#utility.yul\":5533:5549   */\n          swap1\n          pop\n            /* \"#utility.yul\":5478:5555   */\n          swap2\n          swap1\n          pop\n          jump\t// out\n            /* \"#utility.yul\":5561:5647   */\n        tag_144:\n            /* \"#utility.yul\":5596:5603   */\n          0x00\n            /* \"#utility.yul\":5636:5640   */\n          0xff\n            /* \"#utility.yul\":5629:5634   */\n          dup3\n            /* \"#utility.yul\":5625:5641   */\n          and\n            /* \"#utility.yul\":5614:5641   */\n          swap1\n          pop\n            /* \"#utility.yul\":5561:5647   */\n          swap2\n          swap1\n          pop\n          jump\t// out\n            /* \"#utility.yul\":5653:5960   */\n        tag_134:\n            /* \"#utility.yul\":5721:5722   */\n          0x00\n            /* \"#utility.yul\":5731:5844   */\n        tag_178:\n            /* \"#utility.yul\":5745:5751   */\n          dup4\n            /* \"#utility.yul\":5742:5743   */\n          dup2\n            /* \"#utility.yul\":5739:5752   */\n          lt\n            /* \"#utility.yul\":5731:5844   */\n          iszero\n          tag_180\n          jumpi\n            /* \"#utility.yul\":5830:5831   */\n          dup1\n            /* \"#utility.yul\":5825:5828   */\n          dup3\n            /* \"#utility.yul\":5821:5832   */\n          add\n            /* \"#utility.yul\":5815:5833   */\n          mload\n            /* \"#utility.yul\":5811:5812   */\n          dup2\n            /* \"#utility.yul\":5806:5809   */\n          dup5\n            /* \"#utility.yul\":5802:5813   */\n          add\n            /* \"#utility.yul\":5795:5834   */\n          mstore\n            /* \"#utility.yul\":5767:5769   */\n          0x20\n            /* \"#utility.yul\":5764:5765   */\n          dup2\n            /* \"#utility.yul\":5760:5770   */\n          add\n            /* \"#utility.yul\":5755:5770   */\n          swap1\n          pop\n            /* \"#utility.yul\":5731:5844   */\n          jump(tag_178)\n        tag_180:\n            /* \"#utility.yul\":5862:5868   */\n          dup4\n            /* \"#utility.yul\":5859:5860   */\n          dup2\n            /* \"#utility.yul\":5856:5869   */\n          gt\n            /* \"#utility.yul\":5853:5954   */\n          iszero\n          tag_181\n          jumpi\n            /* \"#utility.yul\":5942:5943   */\n          0x00\n            /* \"#utility.yul\":5933:5939   */\n          dup5\n            /* \"#utility.yul\":5928:5931   */\n          dup5\n            /* \"#utility.yul\":5924:5940   */\n          add\n            /* \"#utility.yul\":5917:5944   */\n          mstore\n            /* \"#utility.yul\":5853:5954   */\n        tag_181:\n            /* \"#utility.yul\":5702:5960   */\n          pop\n            /* \"#utility.yul\":5653:5960   */\n          pop\n          pop\n          pop\n          jump\t// out\n            /* \"#utility.yul\":5966:6146   */\n        tag_81:\n            /* \"#utility.yul\":6014:6091   */\n          0x4e487b7100000000000000000000000000000000000000000000000000000000\n            /* \"#utility.yul\":6011:6012   */\n          0x00\n            /* \"#utility.yul\":6004:6092   */\n          mstore\n            /* \"#utility.yul\":6111:6115   */\n          0x01\n            /* \"#utility.yul\":6108:6109   */\n          0x04\n            /* \"#utility.yul\":6101:6116   */\n          mstore\n            /* \"#utility.yul\":6135:6139   */\n          0x24\n            /* \"#utility.yul\":6132:6133   */\n          0x00\n            /* \"#utility.yul\":6125:6140   */\n          revert\n            /* \"#utility.yul\":6152:6332   */\n        tag_164:\n            /* \"#utility.yul\":6200:6277   */\n          0x4e487b7100000000000000000000000000000000000000000000000000000000\n            /* \"#utility.yul\":6197:6198   */\n          0x00\n            /* \"#utility.yul\":6190:6278   */\n          mstore\n            /* \"#utility.yul\":6297:6301   */\n          0x11\n            /* \"#utility.yul\":6294:6295   */\n          0x04\n            /* \"#utility.yul\":6287:6302   */\n          mstore\n            /* \"#utility.yul\":6321:6325   */\n          0x24\n            /* \"#utility.yul\":6318:6319   */\n          0x00\n            /* \"#utility.yul\":6311:6326   */\n          revert\n            /* \"#utility.yul\":6461:6578   */\n        tag_101:\n            /* \"#utility.yul\":6570:6571   */\n          0x00\n            /* \"#utility.yul\":6567:6568   */\n          dup1\n            /* \"#utility.yul\":6560:6572   */\n          revert\n            /* \"#utility.yul\":6584:6686   */\n        tag_136:\n            /* \"#utility.yul\":6625:6631   */\n          0x00\n            /* \"#utility.yul\":6676:6678   */\n          0x1f\n            /* \"#utility.yul\":6672:6679   */\n          not\n            /* \"#utility.yul\":6667:6669   */\n          0x1f\n            /* \"#utility.yul\":6660:6665   */\n          dup4\n            /* \"#utility.yul\":6656:6670   */\n          add\n            /* \"#utility.yul\":6652:6680   */\n          and\n            /* \"#utility.yul\":6642:6680   */\n          swap1\n          pop\n            /* \"#utility.yul\":6584:6686   */\n          swap2\n          swap1\n          pop\n          jump\t// out\n            /* \"#utility.yul\":6692:6814   */\n        tag_93:\n            /* \"#utility.yul\":6765:6789   */\n          tag_189\n            /* \"#utility.yul\":6783:6788   */\n          dup2\n            /* \"#utility.yul\":6765:6789   */\n          tag_122\n          jump\t// in\n        tag_189:\n            /* \"#utility.yul\":6758:6763   */\n          dup2\n            /* \"#utility.yul\":6755:6790   */\n          eq\n            /* \"#utility.yul\":6745:6808   */\n          tag_190\n          jumpi\n            /* \"#utility.yul\":6804:6805   */\n          0x00\n            /* \"#utility.yul\":6801:6802   */\n          dup1\n            /* \"#utility.yul\":6794:6806   */\n          revert\n            /* \"#utility.yul\":6745:6808   */\n        tag_190:\n            /* \"#utility.yul\":6692:6814   */\n          pop\n          jump\t// out\n            /* \"#utility.yul\":6820:6942   */\n        tag_97:\n            /* \"#utility.yul\":6893:6917   */\n          tag_192\n            /* \"#utility.yul\":6911:6916   */\n          dup2\n            /* \"#utility.yul\":6893:6917   */\n          tag_140\n          jump\t// in\n        tag_192:\n            /* \"#utility.yul\":6886:6891   */\n          dup2\n            /* \"#utility.yul\":6883:6918   */\n          eq\n            /* \"#utility.yul\":6873:6936   */\n          tag_193\n          jumpi\n            /* \"#utility.yul\":6932:6933   */\n          0x00\n            /* \"#utility.yul\":6929:6930   */\n          dup1\n            /* \"#utility.yul\":6922:6934   */\n          revert\n            /* \"#utility.yul\":6873:6936   */\n        tag_193:\n            /* \"#utility.yul\":6820:6942   */\n          pop\n          jump\t// out\n\n        auxdata: 0xa26469706673582212207c472ff0be7cb5e121d2731dfad2ec9f01cd0a9ba5d18e4536eafd447009379664736f6c63430008070033\n    }\n}\n",
				"bytecode": {
					"linkReferences": {},
					"object": "608060405234801561001057600080fd5b5060405161001d9061007e565b604051809103906000f080158015610039573d6000803e3d6000fd5b506000806101000a81548173ffffffffffffffffffffffffffffffffffffffff021916908373ffffffffffffffffffffffffffffffffffffffff16021790555061008b565b610ec880610c1a83390190565b610b808061009a6000396000f3fe60806040526004361061004a5760003560e01c8063430f48011461004f578063590791f21461007a578063a6f2ae3a146100a5578063e4849b32146100af578063fc0c546a146100cb575b600080fd5b34801561005b57600080fd5b506100646100f6565b604051610071919061097d565b60405180910390f35b34801561008657600080fd5b5061008f6101a7565b60405161009c919061097d565b60405180910390f35b6100ad610258565b005b6100c960048036038101906100c4919061072b565b61047a565b005b3480156100d757600080fd5b506100e061069b565b6040516100ed91906108e2565b60405180910390f35b60008060009054906101000a900473ffffffffffffffffffffffffffffffffffffffff1673ffffffffffffffffffffffffffffffffffffffff166370a08231306040518263ffffffff1660e01b8152600401610152919061083e565b60206040518083038186803b15801561016a57600080fd5b505afa15801561017e573d6000803e3d6000fd5b505050506040513d601f19601f820116820180604052508101906101a29190610758565b905090565b60008060009054906101000a900473ffffffffffffffffffffffffffffffffffffffff1673ffffffffffffffffffffffffffffffffffffffff166370a08231336040518263ffffffff1660e01b8152600401610203919061083e565b60206040518083038186803b15801561021b57600080fd5b505afa15801561022f573d6000803e3d6000fd5b505050506040513d601f19601f820116820180604052508101906102539190610758565b905090565b600034905060008060009054906101000a900473ffffffffffffffffffffffffffffffffffffffff1673ffffffffffffffffffffffffffffffffffffffff166370a08231306040518263ffffffff1660e01b81526004016102b9919061083e565b60206040518083038186803b1580156102d157600080fd5b505afa1580156102e5573d6000803e3d6000fd5b505050506040513d601f19601f820116820180604052508101906103099190610758565b90506000821161034e576040517f08c379a00000000000000000000000000000000000000000000000000000000081526004016103459061093d565b60405180910390fd5b80821115610391576040517f08c379a00000000000000000000000000000000000000000000000000000000081526004016103889061091d565b60405180910390fd5b60008054906101000a900473ffffffffffffffffffffffffffffffffffffffff1673ffffffffffffffffffffffffffffffffffffffff1663a9059cbb33846040518363ffffffff1660e01b81526004016103ec9291906108b9565b602060405180830381600087803b15801561040657600080fd5b505af115801561041a573d6000803e3d6000fd5b505050506040513d601f19601f8201168201806040525081019061043e91906106fe565b507f4e08ba899977cf7d4c2964bce71c6b9a7ef76ee5166a4c1249a1e08016e33ef18260405161046e919061097d565b60405180910390a15050565b600081116104bd576040517f08c379a00000000000000000000000000000000000000000000000000000000081526004016104b4906108fd565b60405180910390fd5b60008060009054906101000a900473ffffffffffffffffffffffffffffffffffffffff1673ffffffffffffffffffffffffffffffffffffffff1663dd62ed3e33306040518363ffffffff1660e01b815260040161051b929190610859565b60206040518083038186803b15801561053357600080fd5b505afa158015610547573d6000803e3d6000fd5b505050506040513d601f19601f8201168201806040525081019061056b9190610758565b9050818110156105b0576040517f08c379a00000000000000000000000000000000000000000000000000000000081526004016105a79061095d565b60405180910390fd5b60008054906101000a900473ffffffffffffffffffffffffffffffffffffffff1673ffffffffffffffffffffffffffffffffffffffff166323b872dd3330856040518463ffffffff1660e01b815260040161060d93929190610882565b602060405180830381600087803b15801561062757600080fd5b505af115801561063b573d6000803e3d6000fd5b505050506040513d601f19601f8201168201806040525081019061065f91906106fe565b507f92f64ca637d023f354075a4be751b169c1a8a9ccb6d33cdd0cb35205439957278260405161068f919061097d565b60405180910390a15050565b60008054906101000a900473ffffffffffffffffffffffffffffffffffffffff1681565b6000815190506106ce81610b1c565b92915050565b6000813590506106e381610b33565b92915050565b6000815190506106f881610b33565b92915050565b60006020828403121561071457610713610a27565b5b6000610722848285016106bf565b91505092915050565b60006020828403121561074157610740610a27565b5b600061074f848285016106d4565b91505092915050565b60006020828403121561076e5761076d610a27565b5b600061077c848285016106e9565b91505092915050565b61078e816109a9565b82525050565b61079d816109f1565b82525050565b60006107b0602283610998565b91506107bb82610a2c565b604082019050919050565b60006107d3602183610998565b91506107de82610a7b565b604082019050919050565b60006107f6601c83610998565b915061080182610aca565b602082019050919050565b6000610819601a83610998565b915061082482610af3565b602082019050919050565b610838816109e7565b82525050565b60006020820190506108536000830184610785565b92915050565b600060408201905061086e6000830185610785565b61087b6020830184610785565b9392505050565b60006060820190506108976000830186610785565b6108a46020830185610785565b6108b1604083018461082f565b949350505050565b60006040820190506108ce6000830185610785565b6108db602083018461082f565b9392505050565b60006020820190506108f76000830184610794565b92915050565b60006020820190508181036000830152610916816107a3565b9050919050565b60006020820190508181036000830152610936816107c6565b9050919050565b60006020820190508181036000830152610956816107e9565b9050919050565b600060208201905081810360008301526109768161080c565b9050919050565b6000602082019050610992600083018461082f565b92915050565b600082825260208201905092915050565b60006109b4826109c7565b9050919050565b60008115159050919050565b600073ffffffffffffffffffffffffffffffffffffffff82169050919050565b6000819050919050565b60006109fc82610a03565b9050919050565b6000610a0e82610a15565b9050919050565b6000610a20826109c7565b9050919050565b600080fd5b7f596f75206e65656420746f2073656c6c206174206c65617374203120746f6b6560008201527f6e21000000000000000000000000000000000000000000000000000000000000602082015250565b7f4e6f7420656e6f75676820746f6b656e7320696e20746865207265766572736560008201527f2100000000000000000000000000000000000000000000000000000000000000602082015250565b7f596f75206e65656420746f2073656e6420736f6d652065746865722100000000600082015250565b7f436865636b2074686520746f6b656e20616c6c6f77616e636521000000000000600082015250565b610b25816109bb565b8114610b3057600080fd5b50565b610b3c816109e7565b8114610b4757600080fd5b5056fea2646970667358221220c9ced96958d811a6b0ab7f6f5b61092aeb9befce5e08f5e880391b17100279a864736f6c634300080700336080604052678ac7230489e8000060025534801561001c57600080fd5b506002546000803373ffffffffffffffffffffffffffffffffffffffff1673ffffffffffffffffffffffffffffffffffffffff16815260200190815260200160002081905550610e57806100716000396000f3fe608060405234801561001057600080fd5b506004361061009e5760003560e01c806370a082311161006657806370a082311461014b57806395d89b411461017b578063a9059cbb14610199578063dd62ed3e146101c9578063e1f21c67146101f95761009e565b806306fdde03146100a357806318160ddd146100c157806323b872dd146100df578063313ce5671461010f57806338cc48311461012d575b600080fd5b6100ab610229565b6040516100b89190610bf9565b60405180910390f35b6100c9610262565b6040516100d69190610c1b565b60405180910390f35b6100f960048036038101906100f49190610abb565b61026c565b6040516101069190610bde565b60405180910390f35b6101176105e7565b6040516101249190610c36565b60405180910390f35b6101356105ec565b6040516101429190610bc3565b60405180910390f35b61016560048036038101906101609190610a4e565b6105f4565b6040516101729190610c1b565b60405180910390f35b61018361063c565b6040516101909190610bf9565b60405180910390f35b6101b360048036038101906101ae9190610b0e565b610675565b6040516101c09190610bde565b60405180910390f35b6101e360048036038101906101de9190610a7b565b610857565b6040516101f09190610c1b565b60405180910390f35b610213600480360381019061020e9190610abb565b6108de565b6040516102209190610bde565b60405180910390f35b6040518060400160405280601281526020017f45524332302d5869616f6368756e436f696e000000000000000000000000000081525081565b6000600254905090565b60008060008573ffffffffffffffffffffffffffffffffffffffff1673ffffffffffffffffffffffffffffffffffffffff168152602001908152602001600020548211156102b957600080fd5b600160008573ffffffffffffffffffffffffffffffffffffffff1673ffffffffffffffffffffffffffffffffffffffff16815260200190815260200160002060003373ffffffffffffffffffffffffffffffffffffffff1673ffffffffffffffffffffffffffffffffffffffff1681526020019081526020016000205482111561034257600080fd5b610393826000808773ffffffffffffffffffffffffffffffffffffffff1673ffffffffffffffffffffffffffffffffffffffff168152602001908152602001600020546109d190919063ffffffff16565b6000808673ffffffffffffffffffffffffffffffffffffffff1673ffffffffffffffffffffffffffffffffffffffff1681526020019081526020016000208190555061046482600160008773ffffffffffffffffffffffffffffffffffffffff1673ffffffffffffffffffffffffffffffffffffffff16815260200190815260200160002060008673ffffffffffffffffffffffffffffffffffffffff1673ffffffffffffffffffffffffffffffffffffffff168152602001908152602001600020546109d190919063ffffffff16565b600160008673ffffffffffffffffffffffffffffffffffffffff1673ffffffffffffffffffffffffffffffffffffffff16815260200190815260200160002060008573ffffffffffffffffffffffffffffffffffffffff1673ffffffffffffffffffffffffffffffffffffffff16815260200190815260200160002081905550610535826000808673ffffffffffffffffffffffffffffffffffffffff1673ffffffffffffffffffffffffffffffffffffffff168152602001908152602001600020546109f890919063ffffffff16565b6000808573ffffffffffffffffffffffffffffffffffffffff1673ffffffffffffffffffffffffffffffffffffffff168152602001908152602001600020819055508273ffffffffffffffffffffffffffffffffffffffff168473ffffffffffffffffffffffffffffffffffffffff167f5225eac2a7facfbeb099c00a4cc7c457701324f1fd84b84b14033f9e911374a4846040516105d49190610c1b565b60405180910390a3600190509392505050565b601281565b600030905090565b60008060008373ffffffffffffffffffffffffffffffffffffffff1673ffffffffffffffffffffffffffffffffffffffff168152602001908152602001600020549050919050565b6040518060400160405280600781526020017f4552432d5843430000000000000000000000000000000000000000000000000081525081565b60008060003373ffffffffffffffffffffffffffffffffffffffff1673ffffffffffffffffffffffffffffffffffffffff168152602001908152602001600020548211156106c257600080fd5b610713826000803373ffffffffffffffffffffffffffffffffffffffff1673ffffffffffffffffffffffffffffffffffffffff168152602001908152602001600020546109d190919063ffffffff16565b6000803373ffffffffffffffffffffffffffffffffffffffff1673ffffffffffffffffffffffffffffffffffffffff168152602001908152602001600020819055506107a6826000808673ffffffffffffffffffffffffffffffffffffffff1673ffffffffffffffffffffffffffffffffffffffff168152602001908152602001600020546109f890919063ffffffff16565b6000808573ffffffffffffffffffffffffffffffffffffffff1673ffffffffffffffffffffffffffffffffffffffff168152602001908152602001600020819055508273ffffffffffffffffffffffffffffffffffffffff163373ffffffffffffffffffffffffffffffffffffffff167f5225eac2a7facfbeb099c00a4cc7c457701324f1fd84b84b14033f9e911374a4846040516108459190610c1b565b60405180910390a36001905092915050565b6000600160008473ffffffffffffffffffffffffffffffffffffffff1673ffffffffffffffffffffffffffffffffffffffff16815260200190815260200160002060008373ffffffffffffffffffffffffffffffffffffffff1673ffffffffffffffffffffffffffffffffffffffff16815260200190815260200160002054905092915050565b600081600160008673ffffffffffffffffffffffffffffffffffffffff1673ffffffffffffffffffffffffffffffffffffffff16815260200190815260200160002060008573ffffffffffffffffffffffffffffffffffffffff1673ffffffffffffffffffffffffffffffffffffffff168152602001908152602001600020819055508273ffffffffffffffffffffffffffffffffffffffff168473ffffffffffffffffffffffffffffffffffffffff167f8c5be1e5ebec7d5bd14f71427d1e84f3dd0314c0f7b2291e5b200ac8c7c3b925846040516109be9190610c1b565b60405180910390a3600190509392505050565b6000828211156109e4576109e3610d7f565b5b81836109f09190610cc3565b905092915050565b6000808284610a079190610c6d565b905083811015610a1a57610a19610d7f565b5b8091505092915050565b600081359050610a3381610df3565b92915050565b600081359050610a4881610e0a565b92915050565b600060208284031215610a6457610a63610ddd565b5b6000610a7284828501610a24565b91505092915050565b60008060408385031215610a9257610a91610ddd565b5b6000610aa085828601610a24565b9250506020610ab185828601610a24565b9150509250929050565b600080600060608486031215610ad457610ad3610ddd565b5b6000610ae286828701610a24565b9350506020610af386828701610a24565b9250506040610b0486828701610a39565b9150509250925092565b60008060408385031215610b2557610b24610ddd565b5b6000610b3385828601610a24565b9250506020610b4485828601610a39565b9150509250929050565b610b5781610cf7565b82525050565b610b6681610d09565b82525050565b6000610b7782610c51565b610b818185610c5c565b9350610b91818560208601610d4c565b610b9a81610de2565b840191505092915050565b610bae81610d35565b82525050565b610bbd81610d3f565b82525050565b6000602082019050610bd86000830184610b4e565b92915050565b6000602082019050610bf36000830184610b5d565b92915050565b60006020820190508181036000830152610c138184610b6c565b905092915050565b6000602082019050610c306000830184610ba5565b92915050565b6000602082019050610c4b6000830184610bb4565b92915050565b600081519050919050565b600082825260208201905092915050565b6000610c7882610d35565b9150610c8383610d35565b9250827fffffffffffffffffffffffffffffffffffffffffffffffffffffffffffffffff03821115610cb857610cb7610dae565b5b828201905092915050565b6000610cce82610d35565b9150610cd983610d35565b925082821015610cec57610ceb610dae565b5b828203905092915050565b6000610d0282610d15565b9050919050565b60008115159050919050565b600073ffffffffffffffffffffffffffffffffffffffff82169050919050565b6000819050919050565b600060ff82169050919050565b60005b83811015610d6a578082015181840152602081019050610d4f565b83811115610d79576000848401525b50505050565b7f4e487b7100000000000000000000000000000000000000000000000000000000600052600160045260246000fd5b7f4e487b7100000000000000000000000000000000000000000000000000000000600052601160045260246000fd5b600080fd5b6000601f19601f8301169050919050565b610dfc81610cf7565b8114610e0757600080fd5b50565b610e1381610d35565b8114610e1e57600080fd5b5056fea26469706673582212207c472ff0be7cb5e121d2731dfad2ec9f01cd0a9ba5d18e4536eafd447009379664736f6c63430008070033",
					"opcodes": "PUSH1 0x80 PUSH1 0x40 MSTORE CALLVALUE DUP1 ISZERO PUSH2 0x10 JUMPI PUSH1 0x0 DUP1 REVERT JUMPDEST POP PUSH1 0x40 MLOAD PUSH2 0x1D SWAP1 PUSH2 0x7E JUMP JUMPDEST PUSH1 0x40 MLOAD DUP1 SWAP2 SUB SWAP1 PUSH1 0x0 CREATE DUP1 ISZERO DUP1 ISZERO PUSH2 0x39 JUMPI RETURNDATASIZE PUSH1 0x0 DUP1 RETURNDATACOPY RETURNDATASIZE PUSH1 0x0 REVERT JUMPDEST POP PUSH1 0x0 DUP1 PUSH2 0x100 EXP DUP2 SLOAD DUP2 PUSH20 0xFFFFFFFFFFFFFFFFFFFFFFFFFFFFFFFFFFFFFFFF MUL NOT AND SWAP1 DUP4 PUSH20 0xFFFFFFFFFFFFFFFFFFFFFFFFFFFFFFFFFFFFFFFF AND MUL OR SWAP1 SSTORE POP PUSH2 0x8B JUMP JUMPDEST PUSH2 0xEC8 DUP1 PUSH2 0xC1A DUP4 CODECOPY ADD SWAP1 JUMP JUMPDEST PUSH2 0xB80 DUP1 PUSH2 0x9A PUSH1 0x0 CODECOPY PUSH1 0x0 RETURN INVALID PUSH1 0x80 PUSH1 0x40 MSTORE PUSH1 0x4 CALLDATASIZE LT PUSH2 0x4A JUMPI PUSH1 0x0 CALLDATALOAD PUSH1 0xE0 SHR DUP1 PUSH4 0x430F4801 EQ PUSH2 0x4F JUMPI DUP1 PUSH4 0x590791F2 EQ PUSH2 0x7A JUMPI DUP1 PUSH4 0xA6F2AE3A EQ PUSH2 0xA5 JUMPI DUP1 PUSH4 0xE4849B32 EQ PUSH2 0xAF JUMPI DUP1 PUSH4 0xFC0C546A EQ PUSH2 0xCB JUMPI JUMPDEST PUSH1 0x0 DUP1 REVERT JUMPDEST CALLVALUE DUP1 ISZERO PUSH2 0x5B JUMPI PUSH1 0x0 DUP1 REVERT JUMPDEST POP PUSH2 0x64 PUSH2 0xF6 JUMP JUMPDEST PUSH1 0x40 MLOAD PUSH2 0x71 SWAP2 SWAP1 PUSH2 0x97D JUMP JUMPDEST PUSH1 0x40 MLOAD DUP1 SWAP2 SUB SWAP1 RETURN JUMPDEST CALLVALUE DUP1 ISZERO PUSH2 0x86 JUMPI PUSH1 0x0 DUP1 REVERT JUMPDEST POP PUSH2 0x8F PUSH2 0x1A7 JUMP JUMPDEST PUSH1 0x40 MLOAD PUSH2 0x9C SWAP2 SWAP1 PUSH2 0x97D JUMP JUMPDEST PUSH1 0x40 MLOAD DUP1 SWAP2 SUB SWAP1 RETURN JUMPDEST PUSH2 0xAD PUSH2 0x258 JUMP JUMPDEST STOP JUMPDEST PUSH2 0xC9 PUSH1 0x4 DUP1 CALLDATASIZE SUB DUP2 ADD SWAP1 PUSH2 0xC4 SWAP2 SWAP1 PUSH2 0x72B JUMP JUMPDEST PUSH2 0x47A JUMP JUMPDEST STOP JUMPDEST CALLVALUE DUP1 ISZERO PUSH2 0xD7 JUMPI PUSH1 0x0 DUP1 REVERT JUMPDEST POP PUSH2 0xE0 PUSH2 0x69B JUMP JUMPDEST PUSH1 0x40 MLOAD PUSH2 0xED SWAP2 SWAP1 PUSH2 0x8E2 JUMP JUMPDEST PUSH1 0x40 MLOAD DUP1 SWAP2 SUB SWAP1 RETURN JUMPDEST PUSH1 0x0 DUP1 PUSH1 0x0 SWAP1 SLOAD SWAP1 PUSH2 0x100 EXP SWAP1 DIV PUSH20 0xFFFFFFFFFFFFFFFFFFFFFFFFFFFFFFFFFFFFFFFF AND PUSH20 0xFFFFFFFFFFFFFFFFFFFFFFFFFFFFFFFFFFFFFFFF AND PUSH4 0x70A08231 ADDRESS PUSH1 0x40 MLOAD DUP3 PUSH4 0xFFFFFFFF AND PUSH1 0xE0 SHL DUP2 MSTORE PUSH1 0x4 ADD PUSH2 0x152 SWAP2 SWAP1 PUSH2 0x83E JUMP JUMPDEST PUSH1 0x20 PUSH1 0x40 MLOAD DUP1 DUP4 SUB DUP2 DUP7 DUP1 EXTCODESIZE ISZERO DUP1 ISZERO PUSH2 0x16A JUMPI PUSH1 0x0 DUP1 REVERT JUMPDEST POP GAS STATICCALL ISZERO DUP1 ISZERO PUSH2 0x17E JUMPI RETURNDATASIZE PUSH1 0x0 DUP1 RETURNDATACOPY RETURNDATASIZE PUSH1 0x0 REVERT JUMPDEST POP POP POP POP PUSH1 0x40 MLOAD RETURNDATASIZE PUSH1 0x1F NOT PUSH1 0x1F DUP3 ADD AND DUP3 ADD DUP1 PUSH1 0x40 MSTORE POP DUP2 ADD SWAP1 PUSH2 0x1A2 SWAP2 SWAP1 PUSH2 0x758 JUMP JUMPDEST SWAP1 POP SWAP1 JUMP JUMPDEST PUSH1 0x0 DUP1 PUSH1 0x0 SWAP1 SLOAD SWAP1 PUSH2 0x100 EXP SWAP1 DIV PUSH20 0xFFFFFFFFFFFFFFFFFFFFFFFFFFFFFFFFFFFFFFFF AND PUSH20 0xFFFFFFFFFFFFFFFFFFFFFFFFFFFFFFFFFFFFFFFF AND PUSH4 0x70A08231 CALLER PUSH1 0x40 MLOAD DUP3 PUSH4 0xFFFFFFFF AND PUSH1 0xE0 SHL DUP2 MSTORE PUSH1 0x4 ADD PUSH2 0x203 SWAP2 SWAP1 PUSH2 0x83E JUMP JUMPDEST PUSH1 0x20 PUSH1 0x40 MLOAD DUP1 DUP4 SUB DUP2 DUP7 DUP1 EXTCODESIZE ISZERO DUP1 ISZERO PUSH2 0x21B JUMPI PUSH1 0x0 DUP1 REVERT JUMPDEST POP GAS STATICCALL ISZERO DUP1 ISZERO PUSH2 0x22F JUMPI RETURNDATASIZE PUSH1 0x0 DUP1 RETURNDATACOPY RETURNDATASIZE PUSH1 0x0 REVERT JUMPDEST POP POP POP POP PUSH1 0x40 MLOAD RETURNDATASIZE PUSH1 0x1F NOT PUSH1 0x1F DUP3 ADD AND DUP3 ADD DUP1 PUSH1 0x40 MSTORE POP DUP2 ADD SWAP1 PUSH2 0x253 SWAP2 SWAP1 PUSH2 0x758 JUMP JUMPDEST SWAP1 POP SWAP1 JUMP JUMPDEST PUSH1 0x0 CALLVALUE SWAP1 POP PUSH1 0x0 DUP1 PUSH1 0x0 SWAP1 SLOAD SWAP1 PUSH2 0x100 EXP SWAP1 DIV PUSH20 0xFFFFFFFFFFFFFFFFFFFFFFFFFFFFFFFFFFFFFFFF AND PUSH20 0xFFFFFFFFFFFFFFFFFFFFFFFFFFFFFFFFFFFFFFFF AND PUSH4 0x70A08231 ADDRESS PUSH1 0x40 MLOAD DUP3 PUSH4 0xFFFFFFFF AND PUSH1 0xE0 SHL DUP2 MSTORE PUSH1 0x4 ADD PUSH2 0x2B9 SWAP2 SWAP1 PUSH2 0x83E JUMP JUMPDEST PUSH1 0x20 PUSH1 0x40 MLOAD DUP1 DUP4 SUB DUP2 DUP7 DUP1 EXTCODESIZE ISZERO DUP1 ISZERO PUSH2 0x2D1 JUMPI PUSH1 0x0 DUP1 REVERT JUMPDEST POP GAS STATICCALL ISZERO DUP1 ISZERO PUSH2 0x2E5 JUMPI RETURNDATASIZE PUSH1 0x0 DUP1 RETURNDATACOPY RETURNDATASIZE PUSH1 0x0 REVERT JUMPDEST POP POP POP POP PUSH1 0x40 MLOAD RETURNDATASIZE PUSH1 0x1F NOT PUSH1 0x1F DUP3 ADD AND DUP3 ADD DUP1 PUSH1 0x40 MSTORE POP DUP2 ADD SWAP1 PUSH2 0x309 SWAP2 SWAP1 PUSH2 0x758 JUMP JUMPDEST SWAP1 POP PUSH1 0x0 DUP3 GT PUSH2 0x34E JUMPI PUSH1 0x40 MLOAD PUSH32 0x8C379A000000000000000000000000000000000000000000000000000000000 DUP2 MSTORE PUSH1 0x4 ADD PUSH2 0x345 SWAP1 PUSH2 0x93D JUMP JUMPDEST PUSH1 0x40 MLOAD DUP1 SWAP2 SUB SWAP1 REVERT JUMPDEST DUP1 DUP3 GT ISZERO PUSH2 0x391 JUMPI PUSH1 0x40 MLOAD PUSH32 0x8C379A000000000000000000000000000000000000000000000000000000000 DUP2 MSTORE PUSH1 0x4 ADD PUSH2 0x388 SWAP1 PUSH2 0x91D JUMP JUMPDEST PUSH1 0x40 MLOAD DUP1 SWAP2 SUB SWAP1 REVERT JUMPDEST PUSH1 0x0 DUP1 SLOAD SWAP1 PUSH2 0x100 EXP SWAP1 DIV PUSH20 0xFFFFFFFFFFFFFFFFFFFFFFFFFFFFFFFFFFFFFFFF AND PUSH20 0xFFFFFFFFFFFFFFFFFFFFFFFFFFFFFFFFFFFFFFFF AND PUSH4 0xA9059CBB CALLER DUP5 PUSH1 0x40 MLOAD DUP4 PUSH4 0xFFFFFFFF AND PUSH1 0xE0 SHL DUP2 MSTORE PUSH1 0x4 ADD PUSH2 0x3EC SWAP3 SWAP2 SWAP1 PUSH2 0x8B9 JUMP JUMPDEST PUSH1 0x20 PUSH1 0x40 MLOAD DUP1 DUP4 SUB DUP2 PUSH1 0x0 DUP8 DUP1 EXTCODESIZE ISZERO DUP1 ISZERO PUSH2 0x406 JUMPI PUSH1 0x0 DUP1 REVERT JUMPDEST POP GAS CALL ISZERO DUP1 ISZERO PUSH2 0x41A JUMPI RETURNDATASIZE PUSH1 0x0 DUP1 RETURNDATACOPY RETURNDATASIZE PUSH1 0x0 REVERT JUMPDEST POP POP POP POP PUSH1 0x40 MLOAD RETURNDATASIZE PUSH1 0x1F NOT PUSH1 0x1F DUP3 ADD AND DUP3 ADD DUP1 PUSH1 0x40 MSTORE POP DUP2 ADD SWAP1 PUSH2 0x43E SWAP2 SWAP1 PUSH2 0x6FE JUMP JUMPDEST POP PUSH32 0x4E08BA899977CF7D4C2964BCE71C6B9A7EF76EE5166A4C1249A1E08016E33EF1 DUP3 PUSH1 0x40 MLOAD PUSH2 0x46E SWAP2 SWAP1 PUSH2 0x97D JUMP JUMPDEST PUSH1 0x40 MLOAD DUP1 SWAP2 SUB SWAP1 LOG1 POP POP JUMP JUMPDEST PUSH1 0x0 DUP2 GT PUSH2 0x4BD JUMPI PUSH1 0x40 MLOAD PUSH32 0x8C379A000000000000000000000000000000000000000000000000000000000 DUP2 MSTORE PUSH1 0x4 ADD PUSH2 0x4B4 SWAP1 PUSH2 0x8FD JUMP JUMPDEST PUSH1 0x40 MLOAD DUP1 SWAP2 SUB SWAP1 REVERT JUMPDEST PUSH1 0x0 DUP1 PUSH1 0x0 SWAP1 SLOAD SWAP1 PUSH2 0x100 EXP SWAP1 DIV PUSH20 0xFFFFFFFFFFFFFFFFFFFFFFFFFFFFFFFFFFFFFFFF AND PUSH20 0xFFFFFFFFFFFFFFFFFFFFFFFFFFFFFFFFFFFFFFFF AND PUSH4 0xDD62ED3E CALLER ADDRESS PUSH1 0x40 MLOAD DUP4 PUSH4 0xFFFFFFFF AND PUSH1 0xE0 SHL DUP2 MSTORE PUSH1 0x4 ADD PUSH2 0x51B SWAP3 SWAP2 SWAP1 PUSH2 0x859 JUMP JUMPDEST PUSH1 0x20 PUSH1 0x40 MLOAD DUP1 DUP4 SUB DUP2 DUP7 DUP1 EXTCODESIZE ISZERO DUP1 ISZERO PUSH2 0x533 JUMPI PUSH1 0x0 DUP1 REVERT JUMPDEST POP GAS STATICCALL ISZERO DUP1 ISZERO PUSH2 0x547 JUMPI RETURNDATASIZE PUSH1 0x0 DUP1 RETURNDATACOPY RETURNDATASIZE PUSH1 0x0 REVERT JUMPDEST POP POP POP POP PUSH1 0x40 MLOAD RETURNDATASIZE PUSH1 0x1F NOT PUSH1 0x1F DUP3 ADD AND DUP3 ADD DUP1 PUSH1 0x40 MSTORE POP DUP2 ADD SWAP1 PUSH2 0x56B SWAP2 SWAP1 PUSH2 0x758 JUMP JUMPDEST SWAP1 POP DUP2 DUP2 LT ISZERO PUSH2 0x5B0 JUMPI PUSH1 0x40 MLOAD PUSH32 0x8C379A000000000000000000000000000000000000000000000000000000000 DUP2 MSTORE PUSH1 0x4 ADD PUSH2 0x5A7 SWAP1 PUSH2 0x95D JUMP JUMPDEST PUSH1 0x40 MLOAD DUP1 SWAP2 SUB SWAP1 REVERT JUMPDEST PUSH1 0x0 DUP1 SLOAD SWAP1 PUSH2 0x100 EXP SWAP1 DIV PUSH20 0xFFFFFFFFFFFFFFFFFFFFFFFFFFFFFFFFFFFFFFFF AND PUSH20 0xFFFFFFFFFFFFFFFFFFFFFFFFFFFFFFFFFFFFFFFF AND PUSH4 0x23B872DD CALLER ADDRESS DUP6 PUSH1 0x40 MLOAD DUP5 PUSH4 0xFFFFFFFF AND PUSH1 0xE0 SHL DUP2 MSTORE PUSH1 0x4 ADD PUSH2 0x60D SWAP4 SWAP3 SWAP2 SWAP1 PUSH2 0x882 JUMP JUMPDEST PUSH1 0x20 PUSH1 0x40 MLOAD DUP1 DUP4 SUB DUP2 PUSH1 0x0 DUP8 DUP1 EXTCODESIZE ISZERO DUP1 ISZERO PUSH2 0x627 JUMPI PUSH1 0x0 DUP1 REVERT JUMPDEST POP GAS CALL ISZERO DUP1 ISZERO PUSH2 0x63B JUMPI RETURNDATASIZE PUSH1 0x0 DUP1 RETURNDATACOPY RETURNDATASIZE PUSH1 0x0 REVERT JUMPDEST POP POP POP POP PUSH1 0x40 MLOAD RETURNDATASIZE PUSH1 0x1F NOT PUSH1 0x1F DUP3 ADD AND DUP3 ADD DUP1 PUSH1 0x40 MSTORE POP DUP2 ADD SWAP1 PUSH2 0x65F SWAP2 SWAP1 PUSH2 0x6FE JUMP JUMPDEST POP PUSH32 0x92F64CA637D023F354075A4BE751B169C1A8A9CCB6D33CDD0CB3520543995727 DUP3 PUSH1 0x40 MLOAD PUSH2 0x68F SWAP2 SWAP1 PUSH2 0x97D JUMP JUMPDEST PUSH1 0x40 MLOAD DUP1 SWAP2 SUB SWAP1 LOG1 POP POP JUMP JUMPDEST PUSH1 0x0 DUP1 SLOAD SWAP1 PUSH2 0x100 EXP SWAP1 DIV PUSH20 0xFFFFFFFFFFFFFFFFFFFFFFFFFFFFFFFFFFFFFFFF AND DUP2 JUMP JUMPDEST PUSH1 0x0 DUP2 MLOAD SWAP1 POP PUSH2 0x6CE DUP2 PUSH2 0xB1C JUMP JUMPDEST SWAP3 SWAP2 POP POP JUMP JUMPDEST PUSH1 0x0 DUP2 CALLDATALOAD SWAP1 POP PUSH2 0x6E3 DUP2 PUSH2 0xB33 JUMP JUMPDEST SWAP3 SWAP2 POP POP JUMP JUMPDEST PUSH1 0x0 DUP2 MLOAD SWAP1 POP PUSH2 0x6F8 DUP2 PUSH2 0xB33 JUMP JUMPDEST SWAP3 SWAP2 POP POP JUMP JUMPDEST PUSH1 0x0 PUSH1 0x20 DUP3 DUP5 SUB SLT ISZERO PUSH2 0x714 JUMPI PUSH2 0x713 PUSH2 0xA27 JUMP JUMPDEST JUMPDEST PUSH1 0x0 PUSH2 0x722 DUP5 DUP3 DUP6 ADD PUSH2 0x6BF JUMP JUMPDEST SWAP2 POP POP SWAP3 SWAP2 POP POP JUMP JUMPDEST PUSH1 0x0 PUSH1 0x20 DUP3 DUP5 SUB SLT ISZERO PUSH2 0x741 JUMPI PUSH2 0x740 PUSH2 0xA27 JUMP JUMPDEST JUMPDEST PUSH1 0x0 PUSH2 0x74F DUP5 DUP3 DUP6 ADD PUSH2 0x6D4 JUMP JUMPDEST SWAP2 POP POP SWAP3 SWAP2 POP POP JUMP JUMPDEST PUSH1 0x0 PUSH1 0x20 DUP3 DUP5 SUB SLT ISZERO PUSH2 0x76E JUMPI PUSH2 0x76D PUSH2 0xA27 JUMP JUMPDEST JUMPDEST PUSH1 0x0 PUSH2 0x77C DUP5 DUP3 DUP6 ADD PUSH2 0x6E9 JUMP JUMPDEST SWAP2 POP POP SWAP3 SWAP2 POP POP JUMP JUMPDEST PUSH2 0x78E DUP2 PUSH2 0x9A9 JUMP JUMPDEST DUP3 MSTORE POP POP JUMP JUMPDEST PUSH2 0x79D DUP2 PUSH2 0x9F1 JUMP JUMPDEST DUP3 MSTORE POP POP JUMP JUMPDEST PUSH1 0x0 PUSH2 0x7B0 PUSH1 0x22 DUP4 PUSH2 0x998 JUMP JUMPDEST SWAP2 POP PUSH2 0x7BB DUP3 PUSH2 0xA2C JUMP JUMPDEST PUSH1 0x40 DUP3 ADD SWAP1 POP SWAP2 SWAP1 POP JUMP JUMPDEST PUSH1 0x0 PUSH2 0x7D3 PUSH1 0x21 DUP4 PUSH2 0x998 JUMP JUMPDEST SWAP2 POP PUSH2 0x7DE DUP3 PUSH2 0xA7B JUMP JUMPDEST PUSH1 0x40 DUP3 ADD SWAP1 POP SWAP2 SWAP1 POP JUMP JUMPDEST PUSH1 0x0 PUSH2 0x7F6 PUSH1 0x1C DUP4 PUSH2 0x998 JUMP JUMPDEST SWAP2 POP PUSH2 0x801 DUP3 PUSH2 0xACA JUMP JUMPDEST PUSH1 0x20 DUP3 ADD SWAP1 POP SWAP2 SWAP1 POP JUMP JUMPDEST PUSH1 0x0 PUSH2 0x819 PUSH1 0x1A DUP4 PUSH2 0x998 JUMP JUMPDEST SWAP2 POP PUSH2 0x824 DUP3 PUSH2 0xAF3 JUMP JUMPDEST PUSH1 0x20 DUP3 ADD SWAP1 POP SWAP2 SWAP1 POP JUMP JUMPDEST PUSH2 0x838 DUP2 PUSH2 0x9E7 JUMP JUMPDEST DUP3 MSTORE POP POP JUMP JUMPDEST PUSH1 0x0 PUSH1 0x20 DUP3 ADD SWAP1 POP PUSH2 0x853 PUSH1 0x0 DUP4 ADD DUP5 PUSH2 0x785 JUMP JUMPDEST SWAP3 SWAP2 POP POP JUMP JUMPDEST PUSH1 0x0 PUSH1 0x40 DUP3 ADD SWAP1 POP PUSH2 0x86E PUSH1 0x0 DUP4 ADD DUP6 PUSH2 0x785 JUMP JUMPDEST PUSH2 0x87B PUSH1 0x20 DUP4 ADD DUP5 PUSH2 0x785 JUMP JUMPDEST SWAP4 SWAP3 POP POP POP JUMP JUMPDEST PUSH1 0x0 PUSH1 0x60 DUP3 ADD SWAP1 POP PUSH2 0x897 PUSH1 0x0 DUP4 ADD DUP7 PUSH2 0x785 JUMP JUMPDEST PUSH2 0x8A4 PUSH1 0x20 DUP4 ADD DUP6 PUSH2 0x785 JUMP JUMPDEST PUSH2 0x8B1 PUSH1 0x40 DUP4 ADD DUP5 PUSH2 0x82F JUMP JUMPDEST SWAP5 SWAP4 POP POP POP POP JUMP JUMPDEST PUSH1 0x0 PUSH1 0x40 DUP3 ADD SWAP1 POP PUSH2 0x8CE PUSH1 0x0 DUP4 ADD DUP6 PUSH2 0x785 JUMP JUMPDEST PUSH2 0x8DB PUSH1 0x20 DUP4 ADD DUP5 PUSH2 0x82F JUMP JUMPDEST SWAP4 SWAP3 POP POP POP JUMP JUMPDEST PUSH1 0x0 PUSH1 0x20 DUP3 ADD SWAP1 POP PUSH2 0x8F7 PUSH1 0x0 DUP4 ADD DUP5 PUSH2 0x794 JUMP JUMPDEST SWAP3 SWAP2 POP POP JUMP JUMPDEST PUSH1 0x0 PUSH1 0x20 DUP3 ADD SWAP1 POP DUP2 DUP2 SUB PUSH1 0x0 DUP4 ADD MSTORE PUSH2 0x916 DUP2 PUSH2 0x7A3 JUMP JUMPDEST SWAP1 POP SWAP2 SWAP1 POP JUMP JUMPDEST PUSH1 0x0 PUSH1 0x20 DUP3 ADD SWAP1 POP DUP2 DUP2 SUB PUSH1 0x0 DUP4 ADD MSTORE PUSH2 0x936 DUP2 PUSH2 0x7C6 JUMP JUMPDEST SWAP1 POP SWAP2 SWAP1 POP JUMP JUMPDEST PUSH1 0x0 PUSH1 0x20 DUP3 ADD SWAP1 POP DUP2 DUP2 SUB PUSH1 0x0 DUP4 ADD MSTORE PUSH2 0x956 DUP2 PUSH2 0x7E9 JUMP JUMPDEST SWAP1 POP SWAP2 SWAP1 POP JUMP JUMPDEST PUSH1 0x0 PUSH1 0x20 DUP3 ADD SWAP1 POP DUP2 DUP2 SUB PUSH1 0x0 DUP4 ADD MSTORE PUSH2 0x976 DUP2 PUSH2 0x80C JUMP JUMPDEST SWAP1 POP SWAP2 SWAP1 POP JUMP JUMPDEST PUSH1 0x0 PUSH1 0x20 DUP3 ADD SWAP1 POP PUSH2 0x992 PUSH1 0x0 DUP4 ADD DUP5 PUSH2 0x82F JUMP JUMPDEST SWAP3 SWAP2 POP POP JUMP JUMPDEST PUSH1 0x0 DUP3 DUP3 MSTORE PUSH1 0x20 DUP3 ADD SWAP1 POP SWAP3 SWAP2 POP POP JUMP JUMPDEST PUSH1 0x0 PUSH2 0x9B4 DUP3 PUSH2 0x9C7 JUMP JUMPDEST SWAP1 POP SWAP2 SWAP1 POP JUMP JUMPDEST PUSH1 0x0 DUP2 ISZERO ISZERO SWAP1 POP SWAP2 SWAP1 POP JUMP JUMPDEST PUSH1 0x0 PUSH20 0xFFFFFFFFFFFFFFFFFFFFFFFFFFFFFFFFFFFFFFFF DUP3 AND SWAP1 POP SWAP2 SWAP1 POP JUMP JUMPDEST PUSH1 0x0 DUP2 SWAP1 POP SWAP2 SWAP1 POP JUMP JUMPDEST PUSH1 0x0 PUSH2 0x9FC DUP3 PUSH2 0xA03 JUMP JUMPDEST SWAP1 POP SWAP2 SWAP1 POP JUMP JUMPDEST PUSH1 0x0 PUSH2 0xA0E DUP3 PUSH2 0xA15 JUMP JUMPDEST SWAP1 POP SWAP2 SWAP1 POP JUMP JUMPDEST PUSH1 0x0 PUSH2 0xA20 DUP3 PUSH2 0x9C7 JUMP JUMPDEST SWAP1 POP SWAP2 SWAP1 POP JUMP JUMPDEST PUSH1 0x0 DUP1 REVERT JUMPDEST PUSH32 0x596F75206E65656420746F2073656C6C206174206C65617374203120746F6B65 PUSH1 0x0 DUP3 ADD MSTORE PUSH32 0x6E21000000000000000000000000000000000000000000000000000000000000 PUSH1 0x20 DUP3 ADD MSTORE POP JUMP JUMPDEST PUSH32 0x4E6F7420656E6F75676820746F6B656E7320696E207468652072657665727365 PUSH1 0x0 DUP3 ADD MSTORE PUSH32 0x2100000000000000000000000000000000000000000000000000000000000000 PUSH1 0x20 DUP3 ADD MSTORE POP JUMP JUMPDEST PUSH32 0x596F75206E65656420746F2073656E6420736F6D652065746865722100000000 PUSH1 0x0 DUP3 ADD MSTORE POP JUMP JUMPDEST PUSH32 0x436865636B2074686520746F6B656E20616C6C6F77616E636521000000000000 PUSH1 0x0 DUP3 ADD MSTORE POP JUMP JUMPDEST PUSH2 0xB25 DUP2 PUSH2 0x9BB JUMP JUMPDEST DUP2 EQ PUSH2 0xB30 JUMPI PUSH1 0x0 DUP1 REVERT JUMPDEST POP JUMP JUMPDEST PUSH2 0xB3C DUP2 PUSH2 0x9E7 JUMP JUMPDEST DUP2 EQ PUSH2 0xB47 JUMPI PUSH1 0x0 DUP1 REVERT JUMPDEST POP JUMP INVALID LOG2 PUSH5 0x6970667358 0x22 SLT KECCAK256 0xC9 0xCE 0xD9 PUSH10 0x58D811A6B0AB7F6F5B61 MULMOD 0x2A 0xEB SWAP12 0xEF 0xCE 0x5E ADDMOD CREATE2 0xE8 DUP1 CODECOPY SHL OR LT MUL PUSH26 0xA864736F6C634300080700336080604052678AC7230489E80000 PUSH1 0x2 SSTORE CALLVALUE DUP1 ISZERO PUSH2 0x1C JUMPI PUSH1 0x0 DUP1 REVERT JUMPDEST POP PUSH1 0x2 SLOAD PUSH1 0x0 DUP1 CALLER PUSH20 0xFFFFFFFFFFFFFFFFFFFFFFFFFFFFFFFFFFFFFFFF AND PUSH20 0xFFFFFFFFFFFFFFFFFFFFFFFFFFFFFFFFFFFFFFFF AND DUP2 MSTORE PUSH1 0x20 ADD SWAP1 DUP2 MSTORE PUSH1 0x20 ADD PUSH1 0x0 KECCAK256 DUP2 SWAP1 SSTORE POP PUSH2 0xE57 DUP1 PUSH2 0x71 PUSH1 0x0 CODECOPY PUSH1 0x0 RETURN INVALID PUSH1 0x80 PUSH1 0x40 MSTORE CALLVALUE DUP1 ISZERO PUSH2 0x10 JUMPI PUSH1 0x0 DUP1 REVERT JUMPDEST POP PUSH1 0x4 CALLDATASIZE LT PUSH2 0x9E JUMPI PUSH1 0x0 CALLDATALOAD PUSH1 0xE0 SHR DUP1 PUSH4 0x70A08231 GT PUSH2 0x66 JUMPI DUP1 PUSH4 0x70A08231 EQ PUSH2 0x14B JUMPI DUP1 PUSH4 0x95D89B41 EQ PUSH2 0x17B JUMPI DUP1 PUSH4 0xA9059CBB EQ PUSH2 0x199 JUMPI DUP1 PUSH4 0xDD62ED3E EQ PUSH2 0x1C9 JUMPI DUP1 PUSH4 0xE1F21C67 EQ PUSH2 0x1F9 JUMPI PUSH2 0x9E JUMP JUMPDEST DUP1 PUSH4 0x6FDDE03 EQ PUSH2 0xA3 JUMPI DUP1 PUSH4 0x18160DDD EQ PUSH2 0xC1 JUMPI DUP1 PUSH4 0x23B872DD EQ PUSH2 0xDF JUMPI DUP1 PUSH4 0x313CE567 EQ PUSH2 0x10F JUMPI DUP1 PUSH4 0x38CC4831 EQ PUSH2 0x12D JUMPI JUMPDEST PUSH1 0x0 DUP1 REVERT JUMPDEST PUSH2 0xAB PUSH2 0x229 JUMP JUMPDEST PUSH1 0x40 MLOAD PUSH2 0xB8 SWAP2 SWAP1 PUSH2 0xBF9 JUMP JUMPDEST PUSH1 0x40 MLOAD DUP1 SWAP2 SUB SWAP1 RETURN JUMPDEST PUSH2 0xC9 PUSH2 0x262 JUMP JUMPDEST PUSH1 0x40 MLOAD PUSH2 0xD6 SWAP2 SWAP1 PUSH2 0xC1B JUMP JUMPDEST PUSH1 0x40 MLOAD DUP1 SWAP2 SUB SWAP1 RETURN JUMPDEST PUSH2 0xF9 PUSH1 0x4 DUP1 CALLDATASIZE SUB DUP2 ADD SWAP1 PUSH2 0xF4 SWAP2 SWAP1 PUSH2 0xABB JUMP JUMPDEST PUSH2 0x26C JUMP JUMPDEST PUSH1 0x40 MLOAD PUSH2 0x106 SWAP2 SWAP1 PUSH2 0xBDE JUMP JUMPDEST PUSH1 0x40 MLOAD DUP1 SWAP2 SUB SWAP1 RETURN JUMPDEST PUSH2 0x117 PUSH2 0x5E7 JUMP JUMPDEST PUSH1 0x40 MLOAD PUSH2 0x124 SWAP2 SWAP1 PUSH2 0xC36 JUMP JUMPDEST PUSH1 0x40 MLOAD DUP1 SWAP2 SUB SWAP1 RETURN JUMPDEST PUSH2 0x135 PUSH2 0x5EC JUMP JUMPDEST PUSH1 0x40 MLOAD PUSH2 0x142 SWAP2 SWAP1 PUSH2 0xBC3 JUMP JUMPDEST PUSH1 0x40 MLOAD DUP1 SWAP2 SUB SWAP1 RETURN JUMPDEST PUSH2 0x165 PUSH1 0x4 DUP1 CALLDATASIZE SUB DUP2 ADD SWAP1 PUSH2 0x160 SWAP2 SWAP1 PUSH2 0xA4E JUMP JUMPDEST PUSH2 0x5F4 JUMP JUMPDEST PUSH1 0x40 MLOAD PUSH2 0x172 SWAP2 SWAP1 PUSH2 0xC1B JUMP JUMPDEST PUSH1 0x40 MLOAD DUP1 SWAP2 SUB SWAP1 RETURN JUMPDEST PUSH2 0x183 PUSH2 0x63C JUMP JUMPDEST PUSH1 0x40 MLOAD PUSH2 0x190 SWAP2 SWAP1 PUSH2 0xBF9 JUMP JUMPDEST PUSH1 0x40 MLOAD DUP1 SWAP2 SUB SWAP1 RETURN JUMPDEST PUSH2 0x1B3 PUSH1 0x4 DUP1 CALLDATASIZE SUB DUP2 ADD SWAP1 PUSH2 0x1AE SWAP2 SWAP1 PUSH2 0xB0E JUMP JUMPDEST PUSH2 0x675 JUMP JUMPDEST PUSH1 0x40 MLOAD PUSH2 0x1C0 SWAP2 SWAP1 PUSH2 0xBDE JUMP JUMPDEST PUSH1 0x40 MLOAD DUP1 SWAP2 SUB SWAP1 RETURN JUMPDEST PUSH2 0x1E3 PUSH1 0x4 DUP1 CALLDATASIZE SUB DUP2 ADD SWAP1 PUSH2 0x1DE SWAP2 SWAP1 PUSH2 0xA7B JUMP JUMPDEST PUSH2 0x857 JUMP JUMPDEST PUSH1 0x40 MLOAD PUSH2 0x1F0 SWAP2 SWAP1 PUSH2 0xC1B JUMP JUMPDEST PUSH1 0x40 MLOAD DUP1 SWAP2 SUB SWAP1 RETURN JUMPDEST PUSH2 0x213 PUSH1 0x4 DUP1 CALLDATASIZE SUB DUP2 ADD SWAP1 PUSH2 0x20E SWAP2 SWAP1 PUSH2 0xABB JUMP JUMPDEST PUSH2 0x8DE JUMP JUMPDEST PUSH1 0x40 MLOAD PUSH2 0x220 SWAP2 SWAP1 PUSH2 0xBDE JUMP JUMPDEST PUSH1 0x40 MLOAD DUP1 SWAP2 SUB SWAP1 RETURN JUMPDEST PUSH1 0x40 MLOAD DUP1 PUSH1 0x40 ADD PUSH1 0x40 MSTORE DUP1 PUSH1 0x12 DUP2 MSTORE PUSH1 0x20 ADD PUSH32 0x45524332302D5869616F6368756E436F696E0000000000000000000000000000 DUP2 MSTORE POP DUP2 JUMP JUMPDEST PUSH1 0x0 PUSH1 0x2 SLOAD SWAP1 POP SWAP1 JUMP JUMPDEST PUSH1 0x0 DUP1 PUSH1 0x0 DUP6 PUSH20 0xFFFFFFFFFFFFFFFFFFFFFFFFFFFFFFFFFFFFFFFF AND PUSH20 0xFFFFFFFFFFFFFFFFFFFFFFFFFFFFFFFFFFFFFFFF AND DUP2 MSTORE PUSH1 0x20 ADD SWAP1 DUP2 MSTORE PUSH1 0x20 ADD PUSH1 0x0 KECCAK256 SLOAD DUP3 GT ISZERO PUSH2 0x2B9 JUMPI PUSH1 0x0 DUP1 REVERT JUMPDEST PUSH1 0x1 PUSH1 0x0 DUP6 PUSH20 0xFFFFFFFFFFFFFFFFFFFFFFFFFFFFFFFFFFFFFFFF AND PUSH20 0xFFFFFFFFFFFFFFFFFFFFFFFFFFFFFFFFFFFFFFFF AND DUP2 MSTORE PUSH1 0x20 ADD SWAP1 DUP2 MSTORE PUSH1 0x20 ADD PUSH1 0x0 KECCAK256 PUSH1 0x0 CALLER PUSH20 0xFFFFFFFFFFFFFFFFFFFFFFFFFFFFFFFFFFFFFFFF AND PUSH20 0xFFFFFFFFFFFFFFFFFFFFFFFFFFFFFFFFFFFFFFFF AND DUP2 MSTORE PUSH1 0x20 ADD SWAP1 DUP2 MSTORE PUSH1 0x20 ADD PUSH1 0x0 KECCAK256 SLOAD DUP3 GT ISZERO PUSH2 0x342 JUMPI PUSH1 0x0 DUP1 REVERT JUMPDEST PUSH2 0x393 DUP3 PUSH1 0x0 DUP1 DUP8 PUSH20 0xFFFFFFFFFFFFFFFFFFFFFFFFFFFFFFFFFFFFFFFF AND PUSH20 0xFFFFFFFFFFFFFFFFFFFFFFFFFFFFFFFFFFFFFFFF AND DUP2 MSTORE PUSH1 0x20 ADD SWAP1 DUP2 MSTORE PUSH1 0x20 ADD PUSH1 0x0 KECCAK256 SLOAD PUSH2 0x9D1 SWAP1 SWAP2 SWAP1 PUSH4 0xFFFFFFFF AND JUMP JUMPDEST PUSH1 0x0 DUP1 DUP7 PUSH20 0xFFFFFFFFFFFFFFFFFFFFFFFFFFFFFFFFFFFFFFFF AND PUSH20 0xFFFFFFFFFFFFFFFFFFFFFFFFFFFFFFFFFFFFFFFF AND DUP2 MSTORE PUSH1 0x20 ADD SWAP1 DUP2 MSTORE PUSH1 0x20 ADD PUSH1 0x0 KECCAK256 DUP2 SWAP1 SSTORE POP PUSH2 0x464 DUP3 PUSH1 0x1 PUSH1 0x0 DUP8 PUSH20 0xFFFFFFFFFFFFFFFFFFFFFFFFFFFFFFFFFFFFFFFF AND PUSH20 0xFFFFFFFFFFFFFFFFFFFFFFFFFFFFFFFFFFFFFFFF AND DUP2 MSTORE PUSH1 0x20 ADD SWAP1 DUP2 MSTORE PUSH1 0x20 ADD PUSH1 0x0 KECCAK256 PUSH1 0x0 DUP7 PUSH20 0xFFFFFFFFFFFFFFFFFFFFFFFFFFFFFFFFFFFFFFFF AND PUSH20 0xFFFFFFFFFFFFFFFFFFFFFFFFFFFFFFFFFFFFFFFF AND DUP2 MSTORE PUSH1 0x20 ADD SWAP1 DUP2 MSTORE PUSH1 0x20 ADD PUSH1 0x0 KECCAK256 SLOAD PUSH2 0x9D1 SWAP1 SWAP2 SWAP1 PUSH4 0xFFFFFFFF AND JUMP JUMPDEST PUSH1 0x1 PUSH1 0x0 DUP7 PUSH20 0xFFFFFFFFFFFFFFFFFFFFFFFFFFFFFFFFFFFFFFFF AND PUSH20 0xFFFFFFFFFFFFFFFFFFFFFFFFFFFFFFFFFFFFFFFF AND DUP2 MSTORE PUSH1 0x20 ADD SWAP1 DUP2 MSTORE PUSH1 0x20 ADD PUSH1 0x0 KECCAK256 PUSH1 0x0 DUP6 PUSH20 0xFFFFFFFFFFFFFFFFFFFFFFFFFFFFFFFFFFFFFFFF AND PUSH20 0xFFFFFFFFFFFFFFFFFFFFFFFFFFFFFFFFFFFFFFFF AND DUP2 MSTORE PUSH1 0x20 ADD SWAP1 DUP2 MSTORE PUSH1 0x20 ADD PUSH1 0x0 KECCAK256 DUP2 SWAP1 SSTORE POP PUSH2 0x535 DUP3 PUSH1 0x0 DUP1 DUP7 PUSH20 0xFFFFFFFFFFFFFFFFFFFFFFFFFFFFFFFFFFFFFFFF AND PUSH20 0xFFFFFFFFFFFFFFFFFFFFFFFFFFFFFFFFFFFFFFFF AND DUP2 MSTORE PUSH1 0x20 ADD SWAP1 DUP2 MSTORE PUSH1 0x20 ADD PUSH1 0x0 KECCAK256 SLOAD PUSH2 0x9F8 SWAP1 SWAP2 SWAP1 PUSH4 0xFFFFFFFF AND JUMP JUMPDEST PUSH1 0x0 DUP1 DUP6 PUSH20 0xFFFFFFFFFFFFFFFFFFFFFFFFFFFFFFFFFFFFFFFF AND PUSH20 0xFFFFFFFFFFFFFFFFFFFFFFFFFFFFFFFFFFFFFFFF AND DUP2 MSTORE PUSH1 0x20 ADD SWAP1 DUP2 MSTORE PUSH1 0x20 ADD PUSH1 0x0 KECCAK256 DUP2 SWAP1 SSTORE POP DUP3 PUSH20 0xFFFFFFFFFFFFFFFFFFFFFFFFFFFFFFFFFFFFFFFF AND DUP5 PUSH20 0xFFFFFFFFFFFFFFFFFFFFFFFFFFFFFFFFFFFFFFFF AND PUSH32 0x5225EAC2A7FACFBEB099C00A4CC7C457701324F1FD84B84B14033F9E911374A4 DUP5 PUSH1 0x40 MLOAD PUSH2 0x5D4 SWAP2 SWAP1 PUSH2 0xC1B JUMP JUMPDEST PUSH1 0x40 MLOAD DUP1 SWAP2 SUB SWAP1 LOG3 PUSH1 0x1 SWAP1 POP SWAP4 SWAP3 POP POP POP JUMP JUMPDEST PUSH1 0x12 DUP2 JUMP JUMPDEST PUSH1 0x0 ADDRESS SWAP1 POP SWAP1 JUMP JUMPDEST PUSH1 0x0 DUP1 PUSH1 0x0 DUP4 PUSH20 0xFFFFFFFFFFFFFFFFFFFFFFFFFFFFFFFFFFFFFFFF AND PUSH20 0xFFFFFFFFFFFFFFFFFFFFFFFFFFFFFFFFFFFFFFFF AND DUP2 MSTORE PUSH1 0x20 ADD SWAP1 DUP2 MSTORE PUSH1 0x20 ADD PUSH1 0x0 KECCAK256 SLOAD SWAP1 POP SWAP2 SWAP1 POP JUMP JUMPDEST PUSH1 0x40 MLOAD DUP1 PUSH1 0x40 ADD PUSH1 0x40 MSTORE DUP1 PUSH1 0x7 DUP2 MSTORE PUSH1 0x20 ADD PUSH32 0x4552432D58434300000000000000000000000000000000000000000000000000 DUP2 MSTORE POP DUP2 JUMP JUMPDEST PUSH1 0x0 DUP1 PUSH1 0x0 CALLER PUSH20 0xFFFFFFFFFFFFFFFFFFFFFFFFFFFFFFFFFFFFFFFF AND PUSH20 0xFFFFFFFFFFFFFFFFFFFFFFFFFFFFFFFFFFFFFFFF AND DUP2 MSTORE PUSH1 0x20 ADD SWAP1 DUP2 MSTORE PUSH1 0x20 ADD PUSH1 0x0 KECCAK256 SLOAD DUP3 GT ISZERO PUSH2 0x6C2 JUMPI PUSH1 0x0 DUP1 REVERT JUMPDEST PUSH2 0x713 DUP3 PUSH1 0x0 DUP1 CALLER PUSH20 0xFFFFFFFFFFFFFFFFFFFFFFFFFFFFFFFFFFFFFFFF AND PUSH20 0xFFFFFFFFFFFFFFFFFFFFFFFFFFFFFFFFFFFFFFFF AND DUP2 MSTORE PUSH1 0x20 ADD SWAP1 DUP2 MSTORE PUSH1 0x20 ADD PUSH1 0x0 KECCAK256 SLOAD PUSH2 0x9D1 SWAP1 SWAP2 SWAP1 PUSH4 0xFFFFFFFF AND JUMP JUMPDEST PUSH1 0x0 DUP1 CALLER PUSH20 0xFFFFFFFFFFFFFFFFFFFFFFFFFFFFFFFFFFFFFFFF AND PUSH20 0xFFFFFFFFFFFFFFFFFFFFFFFFFFFFFFFFFFFFFFFF AND DUP2 MSTORE PUSH1 0x20 ADD SWAP1 DUP2 MSTORE PUSH1 0x20 ADD PUSH1 0x0 KECCAK256 DUP2 SWAP1 SSTORE POP PUSH2 0x7A6 DUP3 PUSH1 0x0 DUP1 DUP7 PUSH20 0xFFFFFFFFFFFFFFFFFFFFFFFFFFFFFFFFFFFFFFFF AND PUSH20 0xFFFFFFFFFFFFFFFFFFFFFFFFFFFFFFFFFFFFFFFF AND DUP2 MSTORE PUSH1 0x20 ADD SWAP1 DUP2 MSTORE PUSH1 0x20 ADD PUSH1 0x0 KECCAK256 SLOAD PUSH2 0x9F8 SWAP1 SWAP2 SWAP1 PUSH4 0xFFFFFFFF AND JUMP JUMPDEST PUSH1 0x0 DUP1 DUP6 PUSH20 0xFFFFFFFFFFFFFFFFFFFFFFFFFFFFFFFFFFFFFFFF AND PUSH20 0xFFFFFFFFFFFFFFFFFFFFFFFFFFFFFFFFFFFFFFFF AND DUP2 MSTORE PUSH1 0x20 ADD SWAP1 DUP2 MSTORE PUSH1 0x20 ADD PUSH1 0x0 KECCAK256 DUP2 SWAP1 SSTORE POP DUP3 PUSH20 0xFFFFFFFFFFFFFFFFFFFFFFFFFFFFFFFFFFFFFFFF AND CALLER PUSH20 0xFFFFFFFFFFFFFFFFFFFFFFFFFFFFFFFFFFFFFFFF AND PUSH32 0x5225EAC2A7FACFBEB099C00A4CC7C457701324F1FD84B84B14033F9E911374A4 DUP5 PUSH1 0x40 MLOAD PUSH2 0x845 SWAP2 SWAP1 PUSH2 0xC1B JUMP JUMPDEST PUSH1 0x40 MLOAD DUP1 SWAP2 SUB SWAP1 LOG3 PUSH1 0x1 SWAP1 POP SWAP3 SWAP2 POP POP JUMP JUMPDEST PUSH1 0x0 PUSH1 0x1 PUSH1 0x0 DUP5 PUSH20 0xFFFFFFFFFFFFFFFFFFFFFFFFFFFFFFFFFFFFFFFF AND PUSH20 0xFFFFFFFFFFFFFFFFFFFFFFFFFFFFFFFFFFFFFFFF AND DUP2 MSTORE PUSH1 0x20 ADD SWAP1 DUP2 MSTORE PUSH1 0x20 ADD PUSH1 0x0 KECCAK256 PUSH1 0x0 DUP4 PUSH20 0xFFFFFFFFFFFFFFFFFFFFFFFFFFFFFFFFFFFFFFFF AND PUSH20 0xFFFFFFFFFFFFFFFFFFFFFFFFFFFFFFFFFFFFFFFF AND DUP2 MSTORE PUSH1 0x20 ADD SWAP1 DUP2 MSTORE PUSH1 0x20 ADD PUSH1 0x0 KECCAK256 SLOAD SWAP1 POP SWAP3 SWAP2 POP POP JUMP JUMPDEST PUSH1 0x0 DUP2 PUSH1 0x1 PUSH1 0x0 DUP7 PUSH20 0xFFFFFFFFFFFFFFFFFFFFFFFFFFFFFFFFFFFFFFFF AND PUSH20 0xFFFFFFFFFFFFFFFFFFFFFFFFFFFFFFFFFFFFFFFF AND DUP2 MSTORE PUSH1 0x20 ADD SWAP1 DUP2 MSTORE PUSH1 0x20 ADD PUSH1 0x0 KECCAK256 PUSH1 0x0 DUP6 PUSH20 0xFFFFFFFFFFFFFFFFFFFFFFFFFFFFFFFFFFFFFFFF AND PUSH20 0xFFFFFFFFFFFFFFFFFFFFFFFFFFFFFFFFFFFFFFFF AND DUP2 MSTORE PUSH1 0x20 ADD SWAP1 DUP2 MSTORE PUSH1 0x20 ADD PUSH1 0x0 KECCAK256 DUP2 SWAP1 SSTORE POP DUP3 PUSH20 0xFFFFFFFFFFFFFFFFFFFFFFFFFFFFFFFFFFFFFFFF AND DUP5 PUSH20 0xFFFFFFFFFFFFFFFFFFFFFFFFFFFFFFFFFFFFFFFF AND PUSH32 0x8C5BE1E5EBEC7D5BD14F71427D1E84F3DD0314C0F7B2291E5B200AC8C7C3B925 DUP5 PUSH1 0x40 MLOAD PUSH2 0x9BE SWAP2 SWAP1 PUSH2 0xC1B JUMP JUMPDEST PUSH1 0x40 MLOAD DUP1 SWAP2 SUB SWAP1 LOG3 PUSH1 0x1 SWAP1 POP SWAP4 SWAP3 POP POP POP JUMP JUMPDEST PUSH1 0x0 DUP3 DUP3 GT ISZERO PUSH2 0x9E4 JUMPI PUSH2 0x9E3 PUSH2 0xD7F JUMP JUMPDEST JUMPDEST DUP2 DUP4 PUSH2 0x9F0 SWAP2 SWAP1 PUSH2 0xCC3 JUMP JUMPDEST SWAP1 POP SWAP3 SWAP2 POP POP JUMP JUMPDEST PUSH1 0x0 DUP1 DUP3 DUP5 PUSH2 0xA07 SWAP2 SWAP1 PUSH2 0xC6D JUMP JUMPDEST SWAP1 POP DUP4 DUP2 LT ISZERO PUSH2 0xA1A JUMPI PUSH2 0xA19 PUSH2 0xD7F JUMP JUMPDEST JUMPDEST DUP1 SWAP2 POP POP SWAP3 SWAP2 POP POP JUMP JUMPDEST PUSH1 0x0 DUP2 CALLDATALOAD SWAP1 POP PUSH2 0xA33 DUP2 PUSH2 0xDF3 JUMP JUMPDEST SWAP3 SWAP2 POP POP JUMP JUMPDEST PUSH1 0x0 DUP2 CALLDATALOAD SWAP1 POP PUSH2 0xA48 DUP2 PUSH2 0xE0A JUMP JUMPDEST SWAP3 SWAP2 POP POP JUMP JUMPDEST PUSH1 0x0 PUSH1 0x20 DUP3 DUP5 SUB SLT ISZERO PUSH2 0xA64 JUMPI PUSH2 0xA63 PUSH2 0xDDD JUMP JUMPDEST JUMPDEST PUSH1 0x0 PUSH2 0xA72 DUP5 DUP3 DUP6 ADD PUSH2 0xA24 JUMP JUMPDEST SWAP2 POP POP SWAP3 SWAP2 POP POP JUMP JUMPDEST PUSH1 0x0 DUP1 PUSH1 0x40 DUP4 DUP6 SUB SLT ISZERO PUSH2 0xA92 JUMPI PUSH2 0xA91 PUSH2 0xDDD JUMP JUMPDEST JUMPDEST PUSH1 0x0 PUSH2 0xAA0 DUP6 DUP3 DUP7 ADD PUSH2 0xA24 JUMP JUMPDEST SWAP3 POP POP PUSH1 0x20 PUSH2 0xAB1 DUP6 DUP3 DUP7 ADD PUSH2 0xA24 JUMP JUMPDEST SWAP2 POP POP SWAP3 POP SWAP3 SWAP1 POP JUMP JUMPDEST PUSH1 0x0 DUP1 PUSH1 0x0 PUSH1 0x60 DUP5 DUP7 SUB SLT ISZERO PUSH2 0xAD4 JUMPI PUSH2 0xAD3 PUSH2 0xDDD JUMP JUMPDEST JUMPDEST PUSH1 0x0 PUSH2 0xAE2 DUP7 DUP3 DUP8 ADD PUSH2 0xA24 JUMP JUMPDEST SWAP4 POP POP PUSH1 0x20 PUSH2 0xAF3 DUP7 DUP3 DUP8 ADD PUSH2 0xA24 JUMP JUMPDEST SWAP3 POP POP PUSH1 0x40 PUSH2 0xB04 DUP7 DUP3 DUP8 ADD PUSH2 0xA39 JUMP JUMPDEST SWAP2 POP POP SWAP3 POP SWAP3 POP SWAP3 JUMP JUMPDEST PUSH1 0x0 DUP1 PUSH1 0x40 DUP4 DUP6 SUB SLT ISZERO PUSH2 0xB25 JUMPI PUSH2 0xB24 PUSH2 0xDDD JUMP JUMPDEST JUMPDEST PUSH1 0x0 PUSH2 0xB33 DUP6 DUP3 DUP7 ADD PUSH2 0xA24 JUMP JUMPDEST SWAP3 POP POP PUSH1 0x20 PUSH2 0xB44 DUP6 DUP3 DUP7 ADD PUSH2 0xA39 JUMP JUMPDEST SWAP2 POP POP SWAP3 POP SWAP3 SWAP1 POP JUMP JUMPDEST PUSH2 0xB57 DUP2 PUSH2 0xCF7 JUMP JUMPDEST DUP3 MSTORE POP POP JUMP JUMPDEST PUSH2 0xB66 DUP2 PUSH2 0xD09 JUMP JUMPDEST DUP3 MSTORE POP POP JUMP JUMPDEST PUSH1 0x0 PUSH2 0xB77 DUP3 PUSH2 0xC51 JUMP JUMPDEST PUSH2 0xB81 DUP2 DUP6 PUSH2 0xC5C JUMP JUMPDEST SWAP4 POP PUSH2 0xB91 DUP2 DUP6 PUSH1 0x20 DUP7 ADD PUSH2 0xD4C JUMP JUMPDEST PUSH2 0xB9A DUP2 PUSH2 0xDE2 JUMP JUMPDEST DUP5 ADD SWAP2 POP POP SWAP3 SWAP2 POP POP JUMP JUMPDEST PUSH2 0xBAE DUP2 PUSH2 0xD35 JUMP JUMPDEST DUP3 MSTORE POP POP JUMP JUMPDEST PUSH2 0xBBD DUP2 PUSH2 0xD3F JUMP JUMPDEST DUP3 MSTORE POP POP JUMP JUMPDEST PUSH1 0x0 PUSH1 0x20 DUP3 ADD SWAP1 POP PUSH2 0xBD8 PUSH1 0x0 DUP4 ADD DUP5 PUSH2 0xB4E JUMP JUMPDEST SWAP3 SWAP2 POP POP JUMP JUMPDEST PUSH1 0x0 PUSH1 0x20 DUP3 ADD SWAP1 POP PUSH2 0xBF3 PUSH1 0x0 DUP4 ADD DUP5 PUSH2 0xB5D JUMP JUMPDEST SWAP3 SWAP2 POP POP JUMP JUMPDEST PUSH1 0x0 PUSH1 0x20 DUP3 ADD SWAP1 POP DUP2 DUP2 SUB PUSH1 0x0 DUP4 ADD MSTORE PUSH2 0xC13 DUP2 DUP5 PUSH2 0xB6C JUMP JUMPDEST SWAP1 POP SWAP3 SWAP2 POP POP JUMP JUMPDEST PUSH1 0x0 PUSH1 0x20 DUP3 ADD SWAP1 POP PUSH2 0xC30 PUSH1 0x0 DUP4 ADD DUP5 PUSH2 0xBA5 JUMP JUMPDEST SWAP3 SWAP2 POP POP JUMP JUMPDEST PUSH1 0x0 PUSH1 0x20 DUP3 ADD SWAP1 POP PUSH2 0xC4B PUSH1 0x0 DUP4 ADD DUP5 PUSH2 0xBB4 JUMP JUMPDEST SWAP3 SWAP2 POP POP JUMP JUMPDEST PUSH1 0x0 DUP2 MLOAD SWAP1 POP SWAP2 SWAP1 POP JUMP JUMPDEST PUSH1 0x0 DUP3 DUP3 MSTORE PUSH1 0x20 DUP3 ADD SWAP1 POP SWAP3 SWAP2 POP POP JUMP JUMPDEST PUSH1 0x0 PUSH2 0xC78 DUP3 PUSH2 0xD35 JUMP JUMPDEST SWAP2 POP PUSH2 0xC83 DUP4 PUSH2 0xD35 JUMP JUMPDEST SWAP3 POP DUP3 PUSH32 0xFFFFFFFFFFFFFFFFFFFFFFFFFFFFFFFFFFFFFFFFFFFFFFFFFFFFFFFFFFFFFFFF SUB DUP3 GT ISZERO PUSH2 0xCB8 JUMPI PUSH2 0xCB7 PUSH2 0xDAE JUMP JUMPDEST JUMPDEST DUP3 DUP3 ADD SWAP1 POP SWAP3 SWAP2 POP POP JUMP JUMPDEST PUSH1 0x0 PUSH2 0xCCE DUP3 PUSH2 0xD35 JUMP JUMPDEST SWAP2 POP PUSH2 0xCD9 DUP4 PUSH2 0xD35 JUMP JUMPDEST SWAP3 POP DUP3 DUP3 LT ISZERO PUSH2 0xCEC JUMPI PUSH2 0xCEB PUSH2 0xDAE JUMP JUMPDEST JUMPDEST DUP3 DUP3 SUB SWAP1 POP SWAP3 SWAP2 POP POP JUMP JUMPDEST PUSH1 0x0 PUSH2 0xD02 DUP3 PUSH2 0xD15 JUMP JUMPDEST SWAP1 POP SWAP2 SWAP1 POP JUMP JUMPDEST PUSH1 0x0 DUP2 ISZERO ISZERO SWAP1 POP SWAP2 SWAP1 POP JUMP JUMPDEST PUSH1 0x0 PUSH20 0xFFFFFFFFFFFFFFFFFFFFFFFFFFFFFFFFFFFFFFFF DUP3 AND SWAP1 POP SWAP2 SWAP1 POP JUMP JUMPDEST PUSH1 0x0 DUP2 SWAP1 POP SWAP2 SWAP1 POP JUMP JUMPDEST PUSH1 0x0 PUSH1 0xFF DUP3 AND SWAP1 POP SWAP2 SWAP1 POP JUMP JUMPDEST PUSH1 0x0 JUMPDEST DUP4 DUP2 LT ISZERO PUSH2 0xD6A JUMPI DUP1 DUP3 ADD MLOAD DUP2 DUP5 ADD MSTORE PUSH1 0x20 DUP2 ADD SWAP1 POP PUSH2 0xD4F JUMP JUMPDEST DUP4 DUP2 GT ISZERO PUSH2 0xD79 JUMPI PUSH1 0x0 DUP5 DUP5 ADD MSTORE JUMPDEST POP POP POP POP JUMP JUMPDEST PUSH32 0x4E487B7100000000000000000000000000000000000000000000000000000000 PUSH1 0x0 MSTORE PUSH1 0x1 PUSH1 0x4 MSTORE PUSH1 0x24 PUSH1 0x0 REVERT JUMPDEST PUSH32 0x4E487B7100000000000000000000000000000000000000000000000000000000 PUSH1 0x0 MSTORE PUSH1 0x11 PUSH1 0x4 MSTORE PUSH1 0x24 PUSH1 0x0 REVERT JUMPDEST PUSH1 0x0 DUP1 REVERT JUMPDEST PUSH1 0x0 PUSH1 0x1F NOT PUSH1 0x1F DUP4 ADD AND SWAP1 POP SWAP2 SWAP1 POP JUMP JUMPDEST PUSH2 0xDFC DUP2 PUSH2 0xCF7 JUMP JUMPDEST DUP2 EQ PUSH2 0xE07 JUMPI PUSH1 0x0 DUP1 REVERT JUMPDEST POP JUMP JUMPDEST PUSH2 0xE13 DUP2 PUSH2 0xD35 JUMP JUMPDEST DUP2 EQ PUSH2 0xE1E JUMPI PUSH1 0x0 DUP1 REVERT JUMPDEST POP JUMP INVALID LOG2 PUSH5 0x6970667358 0x22 SLT KECCAK256 PUSH29 0x472FF0BE7CB5E121D2731DFAD2EC9F01CD0A9BA5D18E4536EAFD447009 CALLDATACOPY SWAP7 PUSH5 0x736F6C6343 STOP ADDMOD SMOD STOP CALLER "
				},
				"gasEstimates": {
					"creation": {
						"codeDepositCost": "588800",
						"executionCost": "infinite",
						"totalCost": "infinite"
					},
					"external": {
						"buy()": "infinite",
						"getDexBalance()": "infinite",
						"getOwnerBalance()": "infinite",
						"sell(uint256)": "infinite",
						"token()": "2663"
					}
				},
				"methodIdentifiers": {
					"buy()": "a6f2ae3a",
					"getDexBalance()": "430f4801",
					"getOwnerBalance()": "590791f2",
					"sell(uint256)": "e4849b32",
					"token()": "fc0c546a"
				}
			},
			"storageLayout": {
				"storage": [
					{
						"astId": 380,
						"contract": "contracts/16_Dex.sol:DEX",
						"label": "token",
						"offset": 0,
						"slot": "0",
						"type": "t_contract(IERC20)120"
					}
				],
				"types": {
					"t_contract(IERC20)120": {
						"encoding": "inplace",
						"label": "contract IERC20",
						"numberOfBytes": "20"
					}
				}
			},
			"userdoc": {
				"kind": "user",
				"methods": {},
				"version": 1
			}
		}
	}
}