{
	"contracts/11_CallContract.sol": {
		"Receiver": {
			"abi": [
				{
					"anonymous": false,
					"inputs": [
						{
							"indexed": false,
							"internalType": "address",
							"name": "caller",
							"type": "address"
						},
						{
							"indexed": false,
							"internalType": "uint256",
							"name": "amount",
							"type": "uint256"
						},
						{
							"indexed": false,
							"internalType": "string",
							"name": "message",
							"type": "string"
						}
					],
					"name": "Received",
					"type": "event"
				},
				{
					"stateMutability": "payable",
					"type": "fallback"
				},
				{
					"inputs": [
						{
							"internalType": "string",
							"name": "_message",
							"type": "string"
						},
						{
							"internalType": "uint256",
							"name": "_y",
							"type": "uint256"
						}
					],
					"name": "foo",
					"outputs": [
						{
							"internalType": "uint256",
							"name": "",
							"type": "uint256"
						}
					],
					"stateMutability": "payable",
					"type": "function"
				},
				{
					"inputs": [],
					"name": "getAddress",
					"outputs": [
						{
							"internalType": "address",
							"name": "",
							"type": "address"
						}
					],
					"stateMutability": "view",
					"type": "function"
				},
				{
					"inputs": [],
					"name": "getBalance",
					"outputs": [
						{
							"internalType": "uint256",
							"name": "",
							"type": "uint256"
						}
					],
					"stateMutability": "view",
					"type": "function"
				},
				{
					"stateMutability": "payable",
					"type": "receive"
				}
			],
			"devdoc": {
				"kind": "dev",
				"methods": {},
				"version": 1
			},
			"evm": {
				"assembly": "    /* \"contracts/11_CallContract.sol\":70:942  contract Receiver{... */\n  mstore(0x40, 0x80)\n  callvalue\n  dup1\n  iszero\n  tag_1\n  jumpi\n  0x00\n  dup1\n  revert\ntag_1:\n  pop\n  dataSize(sub_0)\n  dup1\n  dataOffset(sub_0)\n  0x00\n  codecopy\n  0x00\n  return\nstop\n\nsub_0: assembly {\n        /* \"contracts/11_CallContract.sol\":70:942  contract Receiver{... */\n      mstore(0x40, 0x80)\n      jumpi(tag_1, lt(calldatasize, 0x04))\n      shr(0xe0, calldataload(0x00))\n      dup1\n      0x12065fe0\n      eq\n      tag_3\n      jumpi\n      dup1\n      0x24ccab8f\n      eq\n      tag_4\n      jumpi\n      dup1\n      0x38cc4831\n      eq\n      tag_5\n      jumpi\n      jump(tag_2)\n    tag_1:\n      jumpi(tag_2, calldatasize)\n        /* \"contracts/11_CallContract.sol\":321:374  Received(msg.sender,msg.value, \"Received was called\") */\n      0x59e04c3f0d44b7caf6e8ef854b61d9a51cf1960d7a88ff6356cc5e946b4b5832\n        /* \"contracts/11_CallContract.sol\":330:340  msg.sender */\n      caller\n        /* \"contracts/11_CallContract.sol\":341:350  msg.value */\n      callvalue\n        /* \"contracts/11_CallContract.sol\":321:374  Received(msg.sender,msg.value, \"Received was called\") */\n      mload(0x40)\n      tag_8\n      swap3\n      swap2\n      swap1\n      tag_9\n      jump\t// in\n    tag_8:\n      mload(0x40)\n      dup1\n      swap2\n      sub\n      swap1\n      log1\n        /* \"contracts/11_CallContract.sol\":70:942  contract Receiver{... */\n      stop\n    tag_2:\n        /* \"contracts/11_CallContract.sol\":526:579  Received(msg.sender,msg.value, \"Fallback was called\") */\n      0x59e04c3f0d44b7caf6e8ef854b61d9a51cf1960d7a88ff6356cc5e946b4b5832\n        /* \"contracts/11_CallContract.sol\":535:545  msg.sender */\n      caller\n        /* \"contracts/11_CallContract.sol\":546:555  msg.value */\n      callvalue\n        /* \"contracts/11_CallContract.sol\":526:579  Received(msg.sender,msg.value, \"Fallback was called\") */\n      mload(0x40)\n      tag_12\n      swap3\n      swap2\n      swap1\n      tag_13\n      jump\t// in\n    tag_12:\n      mload(0x40)\n      dup1\n      swap2\n      sub\n      swap1\n      log1\n        /* \"contracts/11_CallContract.sol\":70:942  contract Receiver{... */\n      stop\n        /* \"contracts/11_CallContract.sol\":847:939  function getBalance() public view returns(uint){... */\n    tag_3:\n      callvalue\n      dup1\n      iszero\n      tag_14\n      jumpi\n      0x00\n      dup1\n      revert\n    tag_14:\n      pop\n      tag_15\n      tag_16\n      jump\t// in\n    tag_15:\n      mload(0x40)\n      tag_17\n      swap2\n      swap1\n      tag_18\n      jump\t// in\n    tag_17:\n      mload(0x40)\n      dup1\n      swap2\n      sub\n      swap1\n      return\n        /* \"contracts/11_CallContract.sol\":592:747  function foo(string memory _message, uint _y) public payable returns(uint){... */\n    tag_4:\n      tag_19\n      0x04\n      dup1\n      calldatasize\n      sub\n      dup2\n      add\n      swap1\n      tag_20\n      swap2\n      swap1\n      tag_21\n      jump\t// in\n    tag_20:\n      tag_22\n      jump\t// in\n    tag_19:\n      mload(0x40)\n      tag_23\n      swap2\n      swap1\n      tag_18\n      jump\t// in\n    tag_23:\n      mload(0x40)\n      dup1\n      swap2\n      sub\n      swap1\n      return\n        /* \"contracts/11_CallContract.sol\":754:841  function getAddress() public view returns(address){... */\n    tag_5:\n      callvalue\n      dup1\n      iszero\n      tag_24\n      jumpi\n      0x00\n      dup1\n      revert\n    tag_24:\n      pop\n      tag_25\n      tag_26\n      jump\t// in\n    tag_25:\n      mload(0x40)\n      tag_27\n      swap2\n      swap1\n      tag_28\n      jump\t// in\n    tag_27:\n      mload(0x40)\n      dup1\n      swap2\n      sub\n      swap1\n      return\n        /* \"contracts/11_CallContract.sol\":847:939  function getBalance() public view returns(uint){... */\n    tag_16:\n        /* \"contracts/11_CallContract.sol\":889:893  uint */\n      0x00\n        /* \"contracts/11_CallContract.sol\":911:932  address(this).balance */\n      selfbalance\n        /* \"contracts/11_CallContract.sol\":904:932  return address(this).balance */\n      swap1\n      pop\n        /* \"contracts/11_CallContract.sol\":847:939  function getBalance() public view returns(uint){... */\n      swap1\n      jump\t// out\n        /* \"contracts/11_CallContract.sol\":592:747  function foo(string memory _message, uint _y) public payable returns(uint){... */\n    tag_22:\n        /* \"contracts/11_CallContract.sol\":661:665  uint */\n      0x00\n        /* \"contracts/11_CallContract.sol\":681:721  Received(msg.sender,msg.value, _message) */\n      0x59e04c3f0d44b7caf6e8ef854b61d9a51cf1960d7a88ff6356cc5e946b4b5832\n        /* \"contracts/11_CallContract.sol\":690:700  msg.sender */\n      caller\n        /* \"contracts/11_CallContract.sol\":701:710  msg.value */\n      callvalue\n        /* \"contracts/11_CallContract.sol\":712:720  _message */\n      dup6\n        /* \"contracts/11_CallContract.sol\":681:721  Received(msg.sender,msg.value, _message) */\n      mload(0x40)\n      tag_31\n      swap4\n      swap3\n      swap2\n      swap1\n      tag_32\n      jump\t// in\n    tag_31:\n      mload(0x40)\n      dup1\n      swap2\n      sub\n      swap1\n      log1\n        /* \"contracts/11_CallContract.sol\":738:740  _y */\n      dup2\n        /* \"contracts/11_CallContract.sol\":731:740  return _y */\n      swap1\n      pop\n        /* \"contracts/11_CallContract.sol\":592:747  function foo(string memory _message, uint _y) public payable returns(uint){... */\n      swap3\n      swap2\n      pop\n      pop\n      jump\t// out\n        /* \"contracts/11_CallContract.sol\":754:841  function getAddress() public view returns(address){... */\n    tag_26:\n        /* \"contracts/11_CallContract.sol\":796:803  address */\n      0x00\n        /* \"contracts/11_CallContract.sol\":829:833  this */\n      address\n        /* \"contracts/11_CallContract.sol\":814:834  return address(this) */\n      swap1\n      pop\n        /* \"contracts/11_CallContract.sol\":754:841  function getAddress() public view returns(address){... */\n      swap1\n      jump\t// out\n        /* \"#utility.yul\":7:419   */\n    tag_35:\n        /* \"#utility.yul\":85:90   */\n      0x00\n        /* \"#utility.yul\":110:176   */\n      tag_37\n        /* \"#utility.yul\":126:175   */\n      tag_38\n        /* \"#utility.yul\":168:174   */\n      dup5\n        /* \"#utility.yul\":126:175   */\n      tag_39\n      jump\t// in\n    tag_38:\n        /* \"#utility.yul\":110:176   */\n      tag_40\n      jump\t// in\n    tag_37:\n        /* \"#utility.yul\":101:176   */\n      swap1\n      pop\n        /* \"#utility.yul\":199:205   */\n      dup3\n        /* \"#utility.yul\":192:197   */\n      dup2\n        /* \"#utility.yul\":185:206   */\n      mstore\n        /* \"#utility.yul\":237:241   */\n      0x20\n        /* \"#utility.yul\":230:235   */\n      dup2\n        /* \"#utility.yul\":226:242   */\n      add\n        /* \"#utility.yul\":275:278   */\n      dup5\n        /* \"#utility.yul\":266:272   */\n      dup5\n        /* \"#utility.yul\":261:264   */\n      dup5\n        /* \"#utility.yul\":257:273   */\n      add\n        /* \"#utility.yul\":254:279   */\n      gt\n        /* \"#utility.yul\":251:363   */\n      iszero\n      tag_41\n      jumpi\n        /* \"#utility.yul\":282:361   */\n      tag_42\n      tag_43\n      jump\t// in\n    tag_42:\n        /* \"#utility.yul\":251:363   */\n    tag_41:\n        /* \"#utility.yul\":372:413   */\n      tag_44\n        /* \"#utility.yul\":406:412   */\n      dup5\n        /* \"#utility.yul\":401:404   */\n      dup3\n        /* \"#utility.yul\":396:399   */\n      dup6\n        /* \"#utility.yul\":372:413   */\n      tag_45\n      jump\t// in\n    tag_44:\n        /* \"#utility.yul\":91:419   */\n      pop\n        /* \"#utility.yul\":7:419   */\n      swap4\n      swap3\n      pop\n      pop\n      pop\n      jump\t// out\n        /* \"#utility.yul\":439:779   */\n    tag_46:\n        /* \"#utility.yul\":495:500   */\n      0x00\n        /* \"#utility.yul\":544:547   */\n      dup3\n        /* \"#utility.yul\":537:541   */\n      0x1f\n        /* \"#utility.yul\":529:535   */\n      dup4\n        /* \"#utility.yul\":525:542   */\n      add\n        /* \"#utility.yul\":521:548   */\n      slt\n        /* \"#utility.yul\":511:633   */\n      tag_48\n      jumpi\n        /* \"#utility.yul\":552:631   */\n      tag_49\n      tag_50\n      jump\t// in\n    tag_49:\n        /* \"#utility.yul\":511:633   */\n    tag_48:\n        /* \"#utility.yul\":669:675   */\n      dup2\n        /* \"#utility.yul\":656:676   */\n      calldataload\n        /* \"#utility.yul\":694:773   */\n      tag_51\n        /* \"#utility.yul\":769:772   */\n      dup5\n        /* \"#utility.yul\":761:767   */\n      dup3\n        /* \"#utility.yul\":754:758   */\n      0x20\n        /* \"#utility.yul\":746:752   */\n      dup7\n        /* \"#utility.yul\":742:759   */\n      add\n        /* \"#utility.yul\":694:773   */\n      tag_35\n      jump\t// in\n    tag_51:\n        /* \"#utility.yul\":685:773   */\n      swap2\n      pop\n        /* \"#utility.yul\":501:779   */\n      pop\n        /* \"#utility.yul\":439:779   */\n      swap3\n      swap2\n      pop\n      pop\n      jump\t// out\n        /* \"#utility.yul\":785:924   */\n    tag_52:\n        /* \"#utility.yul\":831:836   */\n      0x00\n        /* \"#utility.yul\":869:875   */\n      dup2\n        /* \"#utility.yul\":856:876   */\n      calldataload\n        /* \"#utility.yul\":847:876   */\n      swap1\n      pop\n        /* \"#utility.yul\":885:918   */\n      tag_54\n        /* \"#utility.yul\":912:917   */\n      dup2\n        /* \"#utility.yul\":885:918   */\n      tag_55\n      jump\t// in\n    tag_54:\n        /* \"#utility.yul\":785:924   */\n      swap3\n      swap2\n      pop\n      pop\n      jump\t// out\n        /* \"#utility.yul\":930:1584   */\n    tag_21:\n        /* \"#utility.yul\":1008:1014   */\n      0x00\n        /* \"#utility.yul\":1016:1022   */\n      dup1\n        /* \"#utility.yul\":1065:1067   */\n      0x40\n        /* \"#utility.yul\":1053:1062   */\n      dup4\n        /* \"#utility.yul\":1044:1051   */\n      dup6\n        /* \"#utility.yul\":1040:1063   */\n      sub\n        /* \"#utility.yul\":1036:1068   */\n      slt\n        /* \"#utility.yul\":1033:1152   */\n      iszero\n      tag_57\n      jumpi\n        /* \"#utility.yul\":1071:1150   */\n      tag_58\n      tag_59\n      jump\t// in\n    tag_58:\n        /* \"#utility.yul\":1033:1152   */\n    tag_57:\n        /* \"#utility.yul\":1219:1220   */\n      0x00\n        /* \"#utility.yul\":1208:1217   */\n      dup4\n        /* \"#utility.yul\":1204:1221   */\n      add\n        /* \"#utility.yul\":1191:1222   */\n      calldataload\n        /* \"#utility.yul\":1249:1267   */\n      0xffffffffffffffff\n        /* \"#utility.yul\":1241:1247   */\n      dup2\n        /* \"#utility.yul\":1238:1268   */\n      gt\n        /* \"#utility.yul\":1235:1352   */\n      iszero\n      tag_60\n      jumpi\n        /* \"#utility.yul\":1271:1350   */\n      tag_61\n      tag_62\n      jump\t// in\n    tag_61:\n        /* \"#utility.yul\":1235:1352   */\n    tag_60:\n        /* \"#utility.yul\":1376:1439   */\n      tag_63\n        /* \"#utility.yul\":1431:1438   */\n      dup6\n        /* \"#utility.yul\":1422:1428   */\n      dup3\n        /* \"#utility.yul\":1411:1420   */\n      dup7\n        /* \"#utility.yul\":1407:1429   */\n      add\n        /* \"#utility.yul\":1376:1439   */\n      tag_46\n      jump\t// in\n    tag_63:\n        /* \"#utility.yul\":1366:1439   */\n      swap3\n      pop\n        /* \"#utility.yul\":1162:1449   */\n      pop\n        /* \"#utility.yul\":1488:1490   */\n      0x20\n        /* \"#utility.yul\":1514:1567   */\n      tag_64\n        /* \"#utility.yul\":1559:1566   */\n      dup6\n        /* \"#utility.yul\":1550:1556   */\n      dup3\n        /* \"#utility.yul\":1539:1548   */\n      dup7\n        /* \"#utility.yul\":1535:1557   */\n      add\n        /* \"#utility.yul\":1514:1567   */\n      tag_52\n      jump\t// in\n    tag_64:\n        /* \"#utility.yul\":1504:1567   */\n      swap2\n      pop\n        /* \"#utility.yul\":1459:1577   */\n      pop\n        /* \"#utility.yul\":930:1584   */\n      swap3\n      pop\n      swap3\n      swap1\n      pop\n      jump\t// out\n        /* \"#utility.yul\":1590:1708   */\n    tag_65:\n        /* \"#utility.yul\":1677:1701   */\n      tag_67\n        /* \"#utility.yul\":1695:1700   */\n      dup2\n        /* \"#utility.yul\":1677:1701   */\n      tag_68\n      jump\t// in\n    tag_67:\n        /* \"#utility.yul\":1672:1675   */\n      dup3\n        /* \"#utility.yul\":1665:1702   */\n      mstore\n        /* \"#utility.yul\":1590:1708   */\n      pop\n      pop\n      jump\t// out\n        /* \"#utility.yul\":1714:2078   */\n    tag_69:\n        /* \"#utility.yul\":1802:1805   */\n      0x00\n        /* \"#utility.yul\":1830:1869   */\n      tag_71\n        /* \"#utility.yul\":1863:1868   */\n      dup3\n        /* \"#utility.yul\":1830:1869   */\n      tag_72\n      jump\t// in\n    tag_71:\n        /* \"#utility.yul\":1885:1956   */\n      tag_73\n        /* \"#utility.yul\":1949:1955   */\n      dup2\n        /* \"#utility.yul\":1944:1947   */\n      dup6\n        /* \"#utility.yul\":1885:1956   */\n      tag_74\n      jump\t// in\n    tag_73:\n        /* \"#utility.yul\":1878:1956   */\n      swap4\n      pop\n        /* \"#utility.yul\":1965:2017   */\n      tag_75\n        /* \"#utility.yul\":2010:2016   */\n      dup2\n        /* \"#utility.yul\":2005:2008   */\n      dup6\n        /* \"#utility.yul\":1998:2002   */\n      0x20\n        /* \"#utility.yul\":1991:1996   */\n      dup7\n        /* \"#utility.yul\":1987:2003   */\n      add\n        /* \"#utility.yul\":1965:2017   */\n      tag_76\n      jump\t// in\n    tag_75:\n        /* \"#utility.yul\":2042:2071   */\n      tag_77\n        /* \"#utility.yul\":2064:2070   */\n      dup2\n        /* \"#utility.yul\":2042:2071   */\n      tag_78\n      jump\t// in\n    tag_77:\n        /* \"#utility.yul\":2037:2040   */\n      dup5\n        /* \"#utility.yul\":2033:2072   */\n      add\n        /* \"#utility.yul\":2026:2072   */\n      swap2\n      pop\n        /* \"#utility.yul\":1806:2078   */\n      pop\n        /* \"#utility.yul\":1714:2078   */\n      swap3\n      swap2\n      pop\n      pop\n      jump\t// out\n        /* \"#utility.yul\":2084:2450   */\n    tag_79:\n        /* \"#utility.yul\":2226:2229   */\n      0x00\n        /* \"#utility.yul\":2247:2314   */\n      tag_81\n        /* \"#utility.yul\":2311:2313   */\n      0x13\n        /* \"#utility.yul\":2306:2309   */\n      dup4\n        /* \"#utility.yul\":2247:2314   */\n      tag_74\n      jump\t// in\n    tag_81:\n        /* \"#utility.yul\":2240:2314   */\n      swap2\n      pop\n        /* \"#utility.yul\":2323:2416   */\n      tag_82\n        /* \"#utility.yul\":2412:2415   */\n      dup3\n        /* \"#utility.yul\":2323:2416   */\n      tag_83\n      jump\t// in\n    tag_82:\n        /* \"#utility.yul\":2441:2443   */\n      0x20\n        /* \"#utility.yul\":2436:2439   */\n      dup3\n        /* \"#utility.yul\":2432:2444   */\n      add\n        /* \"#utility.yul\":2425:2444   */\n      swap1\n      pop\n        /* \"#utility.yul\":2084:2450   */\n      swap2\n      swap1\n      pop\n      jump\t// out\n        /* \"#utility.yul\":2456:2822   */\n    tag_84:\n        /* \"#utility.yul\":2598:2601   */\n      0x00\n        /* \"#utility.yul\":2619:2686   */\n      tag_86\n        /* \"#utility.yul\":2683:2685   */\n      0x13\n        /* \"#utility.yul\":2678:2681   */\n      dup4\n        /* \"#utility.yul\":2619:2686   */\n      tag_74\n      jump\t// in\n    tag_86:\n        /* \"#utility.yul\":2612:2686   */\n      swap2\n      pop\n        /* \"#utility.yul\":2695:2788   */\n      tag_87\n        /* \"#utility.yul\":2784:2787   */\n      dup3\n        /* \"#utility.yul\":2695:2788   */\n      tag_88\n      jump\t// in\n    tag_87:\n        /* \"#utility.yul\":2813:2815   */\n      0x20\n        /* \"#utility.yul\":2808:2811   */\n      dup3\n        /* \"#utility.yul\":2804:2816   */\n      add\n        /* \"#utility.yul\":2797:2816   */\n      swap1\n      pop\n        /* \"#utility.yul\":2456:2822   */\n      swap2\n      swap1\n      pop\n      jump\t// out\n        /* \"#utility.yul\":2828:2946   */\n    tag_89:\n        /* \"#utility.yul\":2915:2939   */\n      tag_91\n        /* \"#utility.yul\":2933:2938   */\n      dup2\n        /* \"#utility.yul\":2915:2939   */\n      tag_92\n      jump\t// in\n    tag_91:\n        /* \"#utility.yul\":2910:2913   */\n      dup3\n        /* \"#utility.yul\":2903:2940   */\n      mstore\n        /* \"#utility.yul\":2828:2946   */\n      pop\n      pop\n      jump\t// out\n        /* \"#utility.yul\":2952:3174   */\n    tag_28:\n        /* \"#utility.yul\":3045:3049   */\n      0x00\n        /* \"#utility.yul\":3083:3085   */\n      0x20\n        /* \"#utility.yul\":3072:3081   */\n      dup3\n        /* \"#utility.yul\":3068:3086   */\n      add\n        /* \"#utility.yul\":3060:3086   */\n      swap1\n      pop\n        /* \"#utility.yul\":3096:3167   */\n      tag_94\n        /* \"#utility.yul\":3164:3165   */\n      0x00\n        /* \"#utility.yul\":3153:3162   */\n      dup4\n        /* \"#utility.yul\":3149:3166   */\n      add\n        /* \"#utility.yul\":3140:3146   */\n      dup5\n        /* \"#utility.yul\":3096:3167   */\n      tag_65\n      jump\t// in\n    tag_94:\n        /* \"#utility.yul\":2952:3174   */\n      swap3\n      swap2\n      pop\n      pop\n      jump\t// out\n        /* \"#utility.yul\":3180:3713   */\n    tag_32:\n        /* \"#utility.yul\":3349:3353   */\n      0x00\n        /* \"#utility.yul\":3387:3389   */\n      0x60\n        /* \"#utility.yul\":3376:3385   */\n      dup3\n        /* \"#utility.yul\":3372:3390   */\n      add\n        /* \"#utility.yul\":3364:3390   */\n      swap1\n      pop\n        /* \"#utility.yul\":3400:3471   */\n      tag_96\n        /* \"#utility.yul\":3468:3469   */\n      0x00\n        /* \"#utility.yul\":3457:3466   */\n      dup4\n        /* \"#utility.yul\":3453:3470   */\n      add\n        /* \"#utility.yul\":3444:3450   */\n      dup7\n        /* \"#utility.yul\":3400:3471   */\n      tag_65\n      jump\t// in\n    tag_96:\n        /* \"#utility.yul\":3481:3553   */\n      tag_97\n        /* \"#utility.yul\":3549:3551   */\n      0x20\n        /* \"#utility.yul\":3538:3547   */\n      dup4\n        /* \"#utility.yul\":3534:3552   */\n      add\n        /* \"#utility.yul\":3525:3531   */\n      dup6\n        /* \"#utility.yul\":3481:3553   */\n      tag_89\n      jump\t// in\n    tag_97:\n        /* \"#utility.yul\":3600:3609   */\n      dup2\n        /* \"#utility.yul\":3594:3598   */\n      dup2\n        /* \"#utility.yul\":3590:3610   */\n      sub\n        /* \"#utility.yul\":3585:3587   */\n      0x40\n        /* \"#utility.yul\":3574:3583   */\n      dup4\n        /* \"#utility.yul\":3570:3588   */\n      add\n        /* \"#utility.yul\":3563:3611   */\n      mstore\n        /* \"#utility.yul\":3628:3706   */\n      tag_98\n        /* \"#utility.yul\":3701:3705   */\n      dup2\n        /* \"#utility.yul\":3692:3698   */\n      dup5\n        /* \"#utility.yul\":3628:3706   */\n      tag_69\n      jump\t// in\n    tag_98:\n        /* \"#utility.yul\":3620:3706   */\n      swap1\n      pop\n        /* \"#utility.yul\":3180:3713   */\n      swap5\n      swap4\n      pop\n      pop\n      pop\n      pop\n      jump\t// out\n        /* \"#utility.yul\":3719:4358   */\n    tag_13:\n        /* \"#utility.yul\":3941:3945   */\n      0x00\n        /* \"#utility.yul\":3979:3981   */\n      0x60\n        /* \"#utility.yul\":3968:3977   */\n      dup3\n        /* \"#utility.yul\":3964:3982   */\n      add\n        /* \"#utility.yul\":3956:3982   */\n      swap1\n      pop\n        /* \"#utility.yul\":3992:4063   */\n      tag_100\n        /* \"#utility.yul\":4060:4061   */\n      0x00\n        /* \"#utility.yul\":4049:4058   */\n      dup4\n        /* \"#utility.yul\":4045:4062   */\n      add\n        /* \"#utility.yul\":4036:4042   */\n      dup6\n        /* \"#utility.yul\":3992:4063   */\n      tag_65\n      jump\t// in\n    tag_100:\n        /* \"#utility.yul\":4073:4145   */\n      tag_101\n        /* \"#utility.yul\":4141:4143   */\n      0x20\n        /* \"#utility.yul\":4130:4139   */\n      dup4\n        /* \"#utility.yul\":4126:4144   */\n      add\n        /* \"#utility.yul\":4117:4123   */\n      dup5\n        /* \"#utility.yul\":4073:4145   */\n      tag_89\n      jump\t// in\n    tag_101:\n        /* \"#utility.yul\":4192:4201   */\n      dup2\n        /* \"#utility.yul\":4186:4190   */\n      dup2\n        /* \"#utility.yul\":4182:4202   */\n      sub\n        /* \"#utility.yul\":4177:4179   */\n      0x40\n        /* \"#utility.yul\":4166:4175   */\n      dup4\n        /* \"#utility.yul\":4162:4180   */\n      add\n        /* \"#utility.yul\":4155:4203   */\n      mstore\n        /* \"#utility.yul\":4220:4351   */\n      tag_102\n        /* \"#utility.yul\":4346:4350   */\n      dup2\n        /* \"#utility.yul\":4220:4351   */\n      tag_79\n      jump\t// in\n    tag_102:\n        /* \"#utility.yul\":4212:4351   */\n      swap1\n      pop\n        /* \"#utility.yul\":3719:4358   */\n      swap4\n      swap3\n      pop\n      pop\n      pop\n      jump\t// out\n        /* \"#utility.yul\":4364:5003   */\n    tag_9:\n        /* \"#utility.yul\":4586:4590   */\n      0x00\n        /* \"#utility.yul\":4624:4626   */\n      0x60\n        /* \"#utility.yul\":4613:4622   */\n      dup3\n        /* \"#utility.yul\":4609:4627   */\n      add\n        /* \"#utility.yul\":4601:4627   */\n      swap1\n      pop\n        /* \"#utility.yul\":4637:4708   */\n      tag_104\n        /* \"#utility.yul\":4705:4706   */\n      0x00\n        /* \"#utility.yul\":4694:4703   */\n      dup4\n        /* \"#utility.yul\":4690:4707   */\n      add\n        /* \"#utility.yul\":4681:4687   */\n      dup6\n        /* \"#utility.yul\":4637:4708   */\n      tag_65\n      jump\t// in\n    tag_104:\n        /* \"#utility.yul\":4718:4790   */\n      tag_105\n        /* \"#utility.yul\":4786:4788   */\n      0x20\n        /* \"#utility.yul\":4775:4784   */\n      dup4\n        /* \"#utility.yul\":4771:4789   */\n      add\n        /* \"#utility.yul\":4762:4768   */\n      dup5\n        /* \"#utility.yul\":4718:4790   */\n      tag_89\n      jump\t// in\n    tag_105:\n        /* \"#utility.yul\":4837:4846   */\n      dup2\n        /* \"#utility.yul\":4831:4835   */\n      dup2\n        /* \"#utility.yul\":4827:4847   */\n      sub\n        /* \"#utility.yul\":4822:4824   */\n      0x40\n        /* \"#utility.yul\":4811:4820   */\n      dup4\n        /* \"#utility.yul\":4807:4825   */\n      add\n        /* \"#utility.yul\":4800:4848   */\n      mstore\n        /* \"#utility.yul\":4865:4996   */\n      tag_106\n        /* \"#utility.yul\":4991:4995   */\n      dup2\n        /* \"#utility.yul\":4865:4996   */\n      tag_84\n      jump\t// in\n    tag_106:\n        /* \"#utility.yul\":4857:4996   */\n      swap1\n      pop\n        /* \"#utility.yul\":4364:5003   */\n      swap4\n      swap3\n      pop\n      pop\n      pop\n      jump\t// out\n        /* \"#utility.yul\":5009:5231   */\n    tag_18:\n        /* \"#utility.yul\":5102:5106   */\n      0x00\n        /* \"#utility.yul\":5140:5142   */\n      0x20\n        /* \"#utility.yul\":5129:5138   */\n      dup3\n        /* \"#utility.yul\":5125:5143   */\n      add\n        /* \"#utility.yul\":5117:5143   */\n      swap1\n      pop\n        /* \"#utility.yul\":5153:5224   */\n      tag_108\n        /* \"#utility.yul\":5221:5222   */\n      0x00\n        /* \"#utility.yul\":5210:5219   */\n      dup4\n        /* \"#utility.yul\":5206:5223   */\n      add\n        /* \"#utility.yul\":5197:5203   */\n      dup5\n        /* \"#utility.yul\":5153:5224   */\n      tag_89\n      jump\t// in\n    tag_108:\n        /* \"#utility.yul\":5009:5231   */\n      swap3\n      swap2\n      pop\n      pop\n      jump\t// out\n        /* \"#utility.yul\":5237:5366   */\n    tag_40:\n        /* \"#utility.yul\":5271:5277   */\n      0x00\n        /* \"#utility.yul\":5298:5318   */\n      tag_110\n      tag_111\n      jump\t// in\n    tag_110:\n        /* \"#utility.yul\":5288:5318   */\n      swap1\n      pop\n        /* \"#utility.yul\":5327:5360   */\n      tag_112\n        /* \"#utility.yul\":5355:5359   */\n      dup3\n        /* \"#utility.yul\":5347:5353   */\n      dup3\n        /* \"#utility.yul\":5327:5360   */\n      tag_113\n      jump\t// in\n    tag_112:\n        /* \"#utility.yul\":5237:5366   */\n      swap2\n      swap1\n      pop\n      jump\t// out\n        /* \"#utility.yul\":5372:5447   */\n    tag_111:\n        /* \"#utility.yul\":5405:5411   */\n      0x00\n        /* \"#utility.yul\":5438:5440   */\n      0x40\n        /* \"#utility.yul\":5432:5441   */\n      mload\n        /* \"#utility.yul\":5422:5441   */\n      swap1\n      pop\n        /* \"#utility.yul\":5372:5447   */\n      swap1\n      jump\t// out\n        /* \"#utility.yul\":5453:5761   */\n    tag_39:\n        /* \"#utility.yul\":5515:5519   */\n      0x00\n        /* \"#utility.yul\":5605:5623   */\n      0xffffffffffffffff\n        /* \"#utility.yul\":5597:5603   */\n      dup3\n        /* \"#utility.yul\":5594:5624   */\n      gt\n        /* \"#utility.yul\":5591:5647   */\n      iszero\n      tag_116\n      jumpi\n        /* \"#utility.yul\":5627:5645   */\n      tag_117\n      tag_118\n      jump\t// in\n    tag_117:\n        /* \"#utility.yul\":5591:5647   */\n    tag_116:\n        /* \"#utility.yul\":5665:5694   */\n      tag_119\n        /* \"#utility.yul\":5687:5693   */\n      dup3\n        /* \"#utility.yul\":5665:5694   */\n      tag_78\n      jump\t// in\n    tag_119:\n        /* \"#utility.yul\":5657:5694   */\n      swap1\n      pop\n        /* \"#utility.yul\":5749:5753   */\n      0x20\n        /* \"#utility.yul\":5743:5747   */\n      dup2\n        /* \"#utility.yul\":5739:5754   */\n      add\n        /* \"#utility.yul\":5731:5754   */\n      swap1\n      pop\n        /* \"#utility.yul\":5453:5761   */\n      swap2\n      swap1\n      pop\n      jump\t// out\n        /* \"#utility.yul\":5767:5866   */\n    tag_72:\n        /* \"#utility.yul\":5819:5825   */\n      0x00\n        /* \"#utility.yul\":5853:5858   */\n      dup2\n        /* \"#utility.yul\":5847:5859   */\n      mload\n        /* \"#utility.yul\":5837:5859   */\n      swap1\n      pop\n        /* \"#utility.yul\":5767:5866   */\n      swap2\n      swap1\n      pop\n      jump\t// out\n        /* \"#utility.yul\":5872:6041   */\n    tag_74:\n        /* \"#utility.yul\":5956:5967   */\n      0x00\n        /* \"#utility.yul\":5990:5996   */\n      dup3\n        /* \"#utility.yul\":5985:5988   */\n      dup3\n        /* \"#utility.yul\":5978:5997   */\n      mstore\n        /* \"#utility.yul\":6030:6034   */\n      0x20\n        /* \"#utility.yul\":6025:6028   */\n      dup3\n        /* \"#utility.yul\":6021:6035   */\n      add\n        /* \"#utility.yul\":6006:6035   */\n      swap1\n      pop\n        /* \"#utility.yul\":5872:6041   */\n      swap3\n      swap2\n      pop\n      pop\n      jump\t// out\n        /* \"#utility.yul\":6047:6143   */\n    tag_68:\n        /* \"#utility.yul\":6084:6091   */\n      0x00\n        /* \"#utility.yul\":6113:6137   */\n      tag_123\n        /* \"#utility.yul\":6131:6136   */\n      dup3\n        /* \"#utility.yul\":6113:6137   */\n      tag_124\n      jump\t// in\n    tag_123:\n        /* \"#utility.yul\":6102:6137   */\n      swap1\n      pop\n        /* \"#utility.yul\":6047:6143   */\n      swap2\n      swap1\n      pop\n      jump\t// out\n        /* \"#utility.yul\":6149:6275   */\n    tag_124:\n        /* \"#utility.yul\":6186:6193   */\n      0x00\n        /* \"#utility.yul\":6226:6268   */\n      0xffffffffffffffffffffffffffffffffffffffff\n        /* \"#utility.yul\":6219:6224   */\n      dup3\n        /* \"#utility.yul\":6215:6269   */\n      and\n        /* \"#utility.yul\":6204:6269   */\n      swap1\n      pop\n        /* \"#utility.yul\":6149:6275   */\n      swap2\n      swap1\n      pop\n      jump\t// out\n        /* \"#utility.yul\":6281:6358   */\n    tag_92:\n        /* \"#utility.yul\":6318:6325   */\n      0x00\n        /* \"#utility.yul\":6347:6352   */\n      dup2\n        /* \"#utility.yul\":6336:6352   */\n      swap1\n      pop\n        /* \"#utility.yul\":6281:6358   */\n      swap2\n      swap1\n      pop\n      jump\t// out\n        /* \"#utility.yul\":6364:6518   */\n    tag_45:\n        /* \"#utility.yul\":6448:6454   */\n      dup3\n        /* \"#utility.yul\":6443:6446   */\n      dup2\n        /* \"#utility.yul\":6438:6441   */\n      dup4\n        /* \"#utility.yul\":6425:6455   */\n      calldatacopy\n        /* \"#utility.yul\":6510:6511   */\n      0x00\n        /* \"#utility.yul\":6501:6507   */\n      dup4\n        /* \"#utility.yul\":6496:6499   */\n      dup4\n        /* \"#utility.yul\":6492:6508   */\n      add\n        /* \"#utility.yul\":6485:6512   */\n      mstore\n        /* \"#utility.yul\":6364:6518   */\n      pop\n      pop\n      pop\n      jump\t// out\n        /* \"#utility.yul\":6524:6831   */\n    tag_76:\n        /* \"#utility.yul\":6592:6593   */\n      0x00\n        /* \"#utility.yul\":6602:6715   */\n    tag_129:\n        /* \"#utility.yul\":6616:6622   */\n      dup4\n        /* \"#utility.yul\":6613:6614   */\n      dup2\n        /* \"#utility.yul\":6610:6623   */\n      lt\n        /* \"#utility.yul\":6602:6715   */\n      iszero\n      tag_131\n      jumpi\n        /* \"#utility.yul\":6701:6702   */\n      dup1\n        /* \"#utility.yul\":6696:6699   */\n      dup3\n        /* \"#utility.yul\":6692:6703   */\n      add\n        /* \"#utility.yul\":6686:6704   */\n      mload\n        /* \"#utility.yul\":6682:6683   */\n      dup2\n        /* \"#utility.yul\":6677:6680   */\n      dup5\n        /* \"#utility.yul\":6673:6684   */\n      add\n        /* \"#utility.yul\":6666:6705   */\n      mstore\n        /* \"#utility.yul\":6638:6640   */\n      0x20\n        /* \"#utility.yul\":6635:6636   */\n      dup2\n        /* \"#utility.yul\":6631:6641   */\n      add\n        /* \"#utility.yul\":6626:6641   */\n      swap1\n      pop\n        /* \"#utility.yul\":6602:6715   */\n      jump(tag_129)\n    tag_131:\n        /* \"#utility.yul\":6733:6739   */\n      dup4\n        /* \"#utility.yul\":6730:6731   */\n      dup2\n        /* \"#utility.yul\":6727:6740   */\n      gt\n        /* \"#utility.yul\":6724:6825   */\n      iszero\n      tag_132\n      jumpi\n        /* \"#utility.yul\":6813:6814   */\n      0x00\n        /* \"#utility.yul\":6804:6810   */\n      dup5\n        /* \"#utility.yul\":6799:6802   */\n      dup5\n        /* \"#utility.yul\":6795:6811   */\n      add\n        /* \"#utility.yul\":6788:6815   */\n      mstore\n        /* \"#utility.yul\":6724:6825   */\n    tag_132:\n        /* \"#utility.yul\":6573:6831   */\n      pop\n        /* \"#utility.yul\":6524:6831   */\n      pop\n      pop\n      pop\n      jump\t// out\n        /* \"#utility.yul\":6837:7118   */\n    tag_113:\n        /* \"#utility.yul\":6920:6947   */\n      tag_134\n        /* \"#utility.yul\":6942:6946   */\n      dup3\n        /* \"#utility.yul\":6920:6947   */\n      tag_78\n      jump\t// in\n    tag_134:\n        /* \"#utility.yul\":6912:6918   */\n      dup2\n        /* \"#utility.yul\":6908:6948   */\n      add\n        /* \"#utility.yul\":7050:7056   */\n      dup2\n        /* \"#utility.yul\":7038:7048   */\n      dup2\n        /* \"#utility.yul\":7035:7057   */\n      lt\n        /* \"#utility.yul\":7014:7032   */\n      0xffffffffffffffff\n        /* \"#utility.yul\":7002:7012   */\n      dup3\n        /* \"#utility.yul\":6999:7033   */\n      gt\n        /* \"#utility.yul\":6996:7058   */\n      or\n        /* \"#utility.yul\":6993:7081   */\n      iszero\n      tag_135\n      jumpi\n        /* \"#utility.yul\":7061:7079   */\n      tag_136\n      tag_118\n      jump\t// in\n    tag_136:\n        /* \"#utility.yul\":6993:7081   */\n    tag_135:\n        /* \"#utility.yul\":7101:7111   */\n      dup1\n        /* \"#utility.yul\":7097:7099   */\n      0x40\n        /* \"#utility.yul\":7090:7112   */\n      mstore\n        /* \"#utility.yul\":6880:7118   */\n      pop\n        /* \"#utility.yul\":6837:7118   */\n      pop\n      pop\n      jump\t// out\n        /* \"#utility.yul\":7124:7304   */\n    tag_118:\n        /* \"#utility.yul\":7172:7249   */\n      0x4e487b7100000000000000000000000000000000000000000000000000000000\n        /* \"#utility.yul\":7169:7170   */\n      0x00\n        /* \"#utility.yul\":7162:7250   */\n      mstore\n        /* \"#utility.yul\":7269:7273   */\n      0x41\n        /* \"#utility.yul\":7266:7267   */\n      0x04\n        /* \"#utility.yul\":7259:7274   */\n      mstore\n        /* \"#utility.yul\":7293:7297   */\n      0x24\n        /* \"#utility.yul\":7290:7291   */\n      0x00\n        /* \"#utility.yul\":7283:7298   */\n      revert\n        /* \"#utility.yul\":7310:7427   */\n    tag_50:\n        /* \"#utility.yul\":7419:7420   */\n      0x00\n        /* \"#utility.yul\":7416:7417   */\n      dup1\n        /* \"#utility.yul\":7409:7421   */\n      revert\n        /* \"#utility.yul\":7433:7550   */\n    tag_43:\n        /* \"#utility.yul\":7542:7543   */\n      0x00\n        /* \"#utility.yul\":7539:7540   */\n      dup1\n        /* \"#utility.yul\":7532:7544   */\n      revert\n        /* \"#utility.yul\":7556:7673   */\n    tag_62:\n        /* \"#utility.yul\":7665:7666   */\n      0x00\n        /* \"#utility.yul\":7662:7663   */\n      dup1\n        /* \"#utility.yul\":7655:7667   */\n      revert\n        /* \"#utility.yul\":7679:7796   */\n    tag_59:\n        /* \"#utility.yul\":7788:7789   */\n      0x00\n        /* \"#utility.yul\":7785:7786   */\n      dup1\n        /* \"#utility.yul\":7778:7790   */\n      revert\n        /* \"#utility.yul\":7802:7904   */\n    tag_78:\n        /* \"#utility.yul\":7843:7849   */\n      0x00\n        /* \"#utility.yul\":7894:7896   */\n      0x1f\n        /* \"#utility.yul\":7890:7897   */\n      not\n        /* \"#utility.yul\":7885:7887   */\n      0x1f\n        /* \"#utility.yul\":7878:7883   */\n      dup4\n        /* \"#utility.yul\":7874:7888   */\n      add\n        /* \"#utility.yul\":7870:7898   */\n      and\n        /* \"#utility.yul\":7860:7898   */\n      swap1\n      pop\n        /* \"#utility.yul\":7802:7904   */\n      swap2\n      swap1\n      pop\n      jump\t// out\n        /* \"#utility.yul\":7910:8079   */\n    tag_83:\n        /* \"#utility.yul\":8050:8071   */\n      0x46616c6c6261636b207761732063616c6c656400000000000000000000000000\n        /* \"#utility.yul\":8046:8047   */\n      0x00\n        /* \"#utility.yul\":8038:8044   */\n      dup3\n        /* \"#utility.yul\":8034:8048   */\n      add\n        /* \"#utility.yul\":8027:8072   */\n      mstore\n        /* \"#utility.yul\":7910:8079   */\n      pop\n      jump\t// out\n        /* \"#utility.yul\":8085:8254   */\n    tag_88:\n        /* \"#utility.yul\":8225:8246   */\n      0x5265636569766564207761732063616c6c656400000000000000000000000000\n        /* \"#utility.yul\":8221:8222   */\n      0x00\n        /* \"#utility.yul\":8213:8219   */\n      dup3\n        /* \"#utility.yul\":8209:8223   */\n      add\n        /* \"#utility.yul\":8202:8247   */\n      mstore\n        /* \"#utility.yul\":8085:8254   */\n      pop\n      jump\t// out\n        /* \"#utility.yul\":8260:8382   */\n    tag_55:\n        /* \"#utility.yul\":8333:8357   */\n      tag_146\n        /* \"#utility.yul\":8351:8356   */\n      dup2\n        /* \"#utility.yul\":8333:8357   */\n      tag_92\n      jump\t// in\n    tag_146:\n        /* \"#utility.yul\":8326:8331   */\n      dup2\n        /* \"#utility.yul\":8323:8358   */\n      eq\n        /* \"#utility.yul\":8313:8376   */\n      tag_147\n      jumpi\n        /* \"#utility.yul\":8372:8373   */\n      0x00\n        /* \"#utility.yul\":8369:8370   */\n      dup1\n        /* \"#utility.yul\":8362:8374   */\n      revert\n        /* \"#utility.yul\":8313:8376   */\n    tag_147:\n        /* \"#utility.yul\":8260:8382   */\n      pop\n      jump\t// out\n\n    auxdata: 0xa2646970667358221220062e54ed3b84925d72ac3a4071dab08d4ca43d38943d845abee17731c10d4d1764736f6c63430008070033\n}\n",
				"bytecode": {
					"linkReferences": {},
					"object": "608060405234801561001057600080fd5b5061060d806100206000396000f3fe6080604052600436106100385760003560e01c806312065fe0146100b357806324ccab8f146100de57806338cc48311461010e57610078565b36610078577f59e04c3f0d44b7caf6e8ef854b61d9a51cf1960d7a88ff6356cc5e946b4b5832333460405161006e9291906103a2565b60405180910390a1005b7f59e04c3f0d44b7caf6e8ef854b61d9a51cf1960d7a88ff6356cc5e946b4b583233346040516100a9929190610366565b60405180910390a1005b3480156100bf57600080fd5b506100c8610139565b6040516100d591906103de565b60405180910390f35b6100f860048036038101906100f39190610214565b610141565b60405161010591906103de565b60405180910390f35b34801561011a57600080fd5b50610123610187565b604051610130919061030d565b60405180910390f35b600047905090565b60007f59e04c3f0d44b7caf6e8ef854b61d9a51cf1960d7a88ff6356cc5e946b4b583233348560405161017693929190610328565b60405180910390a181905092915050565b600030905090565b60006101a261019d8461041e565b6103f9565b9050828152602081018484840111156101be576101bd61054e565b5b6101c98482856104a7565b509392505050565b600082601f8301126101e6576101e5610549565b5b81356101f684826020860161018f565b91505092915050565b60008135905061020e816105c0565b92915050565b6000806040838503121561022b5761022a610558565b5b600083013567ffffffffffffffff81111561024957610248610553565b5b610255858286016101d1565b9250506020610266858286016101ff565b9150509250929050565b6102798161046b565b82525050565b600061028a8261044f565b610294818561045a565b93506102a48185602086016104b6565b6102ad8161055d565b840191505092915050565b60006102c560138361045a565b91506102d08261056e565b602082019050919050565b60006102e860138361045a565b91506102f382610597565b602082019050919050565b6103078161049d565b82525050565b60006020820190506103226000830184610270565b92915050565b600060608201905061033d6000830186610270565b61034a60208301856102fe565b818103604083015261035c818461027f565b9050949350505050565b600060608201905061037b6000830185610270565b61038860208301846102fe565b8181036040830152610399816102b8565b90509392505050565b60006060820190506103b76000830185610270565b6103c460208301846102fe565b81810360408301526103d5816102db565b90509392505050565b60006020820190506103f360008301846102fe565b92915050565b6000610403610414565b905061040f82826104e9565b919050565b6000604051905090565b600067ffffffffffffffff8211156104395761043861051a565b5b6104428261055d565b9050602081019050919050565b600081519050919050565b600082825260208201905092915050565b60006104768261047d565b9050919050565b600073ffffffffffffffffffffffffffffffffffffffff82169050919050565b6000819050919050565b82818337600083830152505050565b60005b838110156104d45780820151818401526020810190506104b9565b838111156104e3576000848401525b50505050565b6104f28261055d565b810181811067ffffffffffffffff821117156105115761051061051a565b5b80604052505050565b7f4e487b7100000000000000000000000000000000000000000000000000000000600052604160045260246000fd5b600080fd5b600080fd5b600080fd5b600080fd5b6000601f19601f8301169050919050565b7f46616c6c6261636b207761732063616c6c656400000000000000000000000000600082015250565b7f5265636569766564207761732063616c6c656400000000000000000000000000600082015250565b6105c98161049d565b81146105d457600080fd5b5056fea2646970667358221220062e54ed3b84925d72ac3a4071dab08d4ca43d38943d845abee17731c10d4d1764736f6c63430008070033",
					"opcodes": "PUSH1 0x80 PUSH1 0x40 MSTORE CALLVALUE DUP1 ISZERO PUSH2 0x10 JUMPI PUSH1 0x0 DUP1 REVERT JUMPDEST POP PUSH2 0x60D DUP1 PUSH2 0x20 PUSH1 0x0 CODECOPY PUSH1 0x0 RETURN INVALID PUSH1 0x80 PUSH1 0x40 MSTORE PUSH1 0x4 CALLDATASIZE LT PUSH2 0x38 JUMPI PUSH1 0x0 CALLDATALOAD PUSH1 0xE0 SHR DUP1 PUSH4 0x12065FE0 EQ PUSH2 0xB3 JUMPI DUP1 PUSH4 0x24CCAB8F EQ PUSH2 0xDE JUMPI DUP1 PUSH4 0x38CC4831 EQ PUSH2 0x10E JUMPI PUSH2 0x78 JUMP JUMPDEST CALLDATASIZE PUSH2 0x78 JUMPI PUSH32 0x59E04C3F0D44B7CAF6E8EF854B61D9A51CF1960D7A88FF6356CC5E946B4B5832 CALLER CALLVALUE PUSH1 0x40 MLOAD PUSH2 0x6E SWAP3 SWAP2 SWAP1 PUSH2 0x3A2 JUMP JUMPDEST PUSH1 0x40 MLOAD DUP1 SWAP2 SUB SWAP1 LOG1 STOP JUMPDEST PUSH32 0x59E04C3F0D44B7CAF6E8EF854B61D9A51CF1960D7A88FF6356CC5E946B4B5832 CALLER CALLVALUE PUSH1 0x40 MLOAD PUSH2 0xA9 SWAP3 SWAP2 SWAP1 PUSH2 0x366 JUMP JUMPDEST PUSH1 0x40 MLOAD DUP1 SWAP2 SUB SWAP1 LOG1 STOP JUMPDEST CALLVALUE DUP1 ISZERO PUSH2 0xBF JUMPI PUSH1 0x0 DUP1 REVERT JUMPDEST POP PUSH2 0xC8 PUSH2 0x139 JUMP JUMPDEST PUSH1 0x40 MLOAD PUSH2 0xD5 SWAP2 SWAP1 PUSH2 0x3DE JUMP JUMPDEST PUSH1 0x40 MLOAD DUP1 SWAP2 SUB SWAP1 RETURN JUMPDEST PUSH2 0xF8 PUSH1 0x4 DUP1 CALLDATASIZE SUB DUP2 ADD SWAP1 PUSH2 0xF3 SWAP2 SWAP1 PUSH2 0x214 JUMP JUMPDEST PUSH2 0x141 JUMP JUMPDEST PUSH1 0x40 MLOAD PUSH2 0x105 SWAP2 SWAP1 PUSH2 0x3DE JUMP JUMPDEST PUSH1 0x40 MLOAD DUP1 SWAP2 SUB SWAP1 RETURN JUMPDEST CALLVALUE DUP1 ISZERO PUSH2 0x11A JUMPI PUSH1 0x0 DUP1 REVERT JUMPDEST POP PUSH2 0x123 PUSH2 0x187 JUMP JUMPDEST PUSH1 0x40 MLOAD PUSH2 0x130 SWAP2 SWAP1 PUSH2 0x30D JUMP JUMPDEST PUSH1 0x40 MLOAD DUP1 SWAP2 SUB SWAP1 RETURN JUMPDEST PUSH1 0x0 SELFBALANCE SWAP1 POP SWAP1 JUMP JUMPDEST PUSH1 0x0 PUSH32 0x59E04C3F0D44B7CAF6E8EF854B61D9A51CF1960D7A88FF6356CC5E946B4B5832 CALLER CALLVALUE DUP6 PUSH1 0x40 MLOAD PUSH2 0x176 SWAP4 SWAP3 SWAP2 SWAP1 PUSH2 0x328 JUMP JUMPDEST PUSH1 0x40 MLOAD DUP1 SWAP2 SUB SWAP1 LOG1 DUP2 SWAP1 POP SWAP3 SWAP2 POP POP JUMP JUMPDEST PUSH1 0x0 ADDRESS SWAP1 POP SWAP1 JUMP JUMPDEST PUSH1 0x0 PUSH2 0x1A2 PUSH2 0x19D DUP5 PUSH2 0x41E JUMP JUMPDEST PUSH2 0x3F9 JUMP JUMPDEST SWAP1 POP DUP3 DUP2 MSTORE PUSH1 0x20 DUP2 ADD DUP5 DUP5 DUP5 ADD GT ISZERO PUSH2 0x1BE JUMPI PUSH2 0x1BD PUSH2 0x54E JUMP JUMPDEST JUMPDEST PUSH2 0x1C9 DUP5 DUP3 DUP6 PUSH2 0x4A7 JUMP JUMPDEST POP SWAP4 SWAP3 POP POP POP JUMP JUMPDEST PUSH1 0x0 DUP3 PUSH1 0x1F DUP4 ADD SLT PUSH2 0x1E6 JUMPI PUSH2 0x1E5 PUSH2 0x549 JUMP JUMPDEST JUMPDEST DUP2 CALLDATALOAD PUSH2 0x1F6 DUP5 DUP3 PUSH1 0x20 DUP7 ADD PUSH2 0x18F JUMP JUMPDEST SWAP2 POP POP SWAP3 SWAP2 POP POP JUMP JUMPDEST PUSH1 0x0 DUP2 CALLDATALOAD SWAP1 POP PUSH2 0x20E DUP2 PUSH2 0x5C0 JUMP JUMPDEST SWAP3 SWAP2 POP POP JUMP JUMPDEST PUSH1 0x0 DUP1 PUSH1 0x40 DUP4 DUP6 SUB SLT ISZERO PUSH2 0x22B JUMPI PUSH2 0x22A PUSH2 0x558 JUMP JUMPDEST JUMPDEST PUSH1 0x0 DUP4 ADD CALLDATALOAD PUSH8 0xFFFFFFFFFFFFFFFF DUP2 GT ISZERO PUSH2 0x249 JUMPI PUSH2 0x248 PUSH2 0x553 JUMP JUMPDEST JUMPDEST PUSH2 0x255 DUP6 DUP3 DUP7 ADD PUSH2 0x1D1 JUMP JUMPDEST SWAP3 POP POP PUSH1 0x20 PUSH2 0x266 DUP6 DUP3 DUP7 ADD PUSH2 0x1FF JUMP JUMPDEST SWAP2 POP POP SWAP3 POP SWAP3 SWAP1 POP JUMP JUMPDEST PUSH2 0x279 DUP2 PUSH2 0x46B JUMP JUMPDEST DUP3 MSTORE POP POP JUMP JUMPDEST PUSH1 0x0 PUSH2 0x28A DUP3 PUSH2 0x44F JUMP JUMPDEST PUSH2 0x294 DUP2 DUP6 PUSH2 0x45A JUMP JUMPDEST SWAP4 POP PUSH2 0x2A4 DUP2 DUP6 PUSH1 0x20 DUP7 ADD PUSH2 0x4B6 JUMP JUMPDEST PUSH2 0x2AD DUP2 PUSH2 0x55D JUMP JUMPDEST DUP5 ADD SWAP2 POP POP SWAP3 SWAP2 POP POP JUMP JUMPDEST PUSH1 0x0 PUSH2 0x2C5 PUSH1 0x13 DUP4 PUSH2 0x45A JUMP JUMPDEST SWAP2 POP PUSH2 0x2D0 DUP3 PUSH2 0x56E JUMP JUMPDEST PUSH1 0x20 DUP3 ADD SWAP1 POP SWAP2 SWAP1 POP JUMP JUMPDEST PUSH1 0x0 PUSH2 0x2E8 PUSH1 0x13 DUP4 PUSH2 0x45A JUMP JUMPDEST SWAP2 POP PUSH2 0x2F3 DUP3 PUSH2 0x597 JUMP JUMPDEST PUSH1 0x20 DUP3 ADD SWAP1 POP SWAP2 SWAP1 POP JUMP JUMPDEST PUSH2 0x307 DUP2 PUSH2 0x49D JUMP JUMPDEST DUP3 MSTORE POP POP JUMP JUMPDEST PUSH1 0x0 PUSH1 0x20 DUP3 ADD SWAP1 POP PUSH2 0x322 PUSH1 0x0 DUP4 ADD DUP5 PUSH2 0x270 JUMP JUMPDEST SWAP3 SWAP2 POP POP JUMP JUMPDEST PUSH1 0x0 PUSH1 0x60 DUP3 ADD SWAP1 POP PUSH2 0x33D PUSH1 0x0 DUP4 ADD DUP7 PUSH2 0x270 JUMP JUMPDEST PUSH2 0x34A PUSH1 0x20 DUP4 ADD DUP6 PUSH2 0x2FE JUMP JUMPDEST DUP2 DUP2 SUB PUSH1 0x40 DUP4 ADD MSTORE PUSH2 0x35C DUP2 DUP5 PUSH2 0x27F JUMP JUMPDEST SWAP1 POP SWAP5 SWAP4 POP POP POP POP JUMP JUMPDEST PUSH1 0x0 PUSH1 0x60 DUP3 ADD SWAP1 POP PUSH2 0x37B PUSH1 0x0 DUP4 ADD DUP6 PUSH2 0x270 JUMP JUMPDEST PUSH2 0x388 PUSH1 0x20 DUP4 ADD DUP5 PUSH2 0x2FE JUMP JUMPDEST DUP2 DUP2 SUB PUSH1 0x40 DUP4 ADD MSTORE PUSH2 0x399 DUP2 PUSH2 0x2B8 JUMP JUMPDEST SWAP1 POP SWAP4 SWAP3 POP POP POP JUMP JUMPDEST PUSH1 0x0 PUSH1 0x60 DUP3 ADD SWAP1 POP PUSH2 0x3B7 PUSH1 0x0 DUP4 ADD DUP6 PUSH2 0x270 JUMP JUMPDEST PUSH2 0x3C4 PUSH1 0x20 DUP4 ADD DUP5 PUSH2 0x2FE JUMP JUMPDEST DUP2 DUP2 SUB PUSH1 0x40 DUP4 ADD MSTORE PUSH2 0x3D5 DUP2 PUSH2 0x2DB JUMP JUMPDEST SWAP1 POP SWAP4 SWAP3 POP POP POP JUMP JUMPDEST PUSH1 0x0 PUSH1 0x20 DUP3 ADD SWAP1 POP PUSH2 0x3F3 PUSH1 0x0 DUP4 ADD DUP5 PUSH2 0x2FE JUMP JUMPDEST SWAP3 SWAP2 POP POP JUMP JUMPDEST PUSH1 0x0 PUSH2 0x403 PUSH2 0x414 JUMP JUMPDEST SWAP1 POP PUSH2 0x40F DUP3 DUP3 PUSH2 0x4E9 JUMP JUMPDEST SWAP2 SWAP1 POP JUMP JUMPDEST PUSH1 0x0 PUSH1 0x40 MLOAD SWAP1 POP SWAP1 JUMP JUMPDEST PUSH1 0x0 PUSH8 0xFFFFFFFFFFFFFFFF DUP3 GT ISZERO PUSH2 0x439 JUMPI PUSH2 0x438 PUSH2 0x51A JUMP JUMPDEST JUMPDEST PUSH2 0x442 DUP3 PUSH2 0x55D JUMP JUMPDEST SWAP1 POP PUSH1 0x20 DUP2 ADD SWAP1 POP SWAP2 SWAP1 POP JUMP JUMPDEST PUSH1 0x0 DUP2 MLOAD SWAP1 POP SWAP2 SWAP1 POP JUMP JUMPDEST PUSH1 0x0 DUP3 DUP3 MSTORE PUSH1 0x20 DUP3 ADD SWAP1 POP SWAP3 SWAP2 POP POP JUMP JUMPDEST PUSH1 0x0 PUSH2 0x476 DUP3 PUSH2 0x47D JUMP JUMPDEST SWAP1 POP SWAP2 SWAP1 POP JUMP JUMPDEST PUSH1 0x0 PUSH20 0xFFFFFFFFFFFFFFFFFFFFFFFFFFFFFFFFFFFFFFFF DUP3 AND SWAP1 POP SWAP2 SWAP1 POP JUMP JUMPDEST PUSH1 0x0 DUP2 SWAP1 POP SWAP2 SWAP1 POP JUMP JUMPDEST DUP3 DUP2 DUP4 CALLDATACOPY PUSH1 0x0 DUP4 DUP4 ADD MSTORE POP POP POP JUMP JUMPDEST PUSH1 0x0 JUMPDEST DUP4 DUP2 LT ISZERO PUSH2 0x4D4 JUMPI DUP1 DUP3 ADD MLOAD DUP2 DUP5 ADD MSTORE PUSH1 0x20 DUP2 ADD SWAP1 POP PUSH2 0x4B9 JUMP JUMPDEST DUP4 DUP2 GT ISZERO PUSH2 0x4E3 JUMPI PUSH1 0x0 DUP5 DUP5 ADD MSTORE JUMPDEST POP POP POP POP JUMP JUMPDEST PUSH2 0x4F2 DUP3 PUSH2 0x55D JUMP JUMPDEST DUP2 ADD DUP2 DUP2 LT PUSH8 0xFFFFFFFFFFFFFFFF DUP3 GT OR ISZERO PUSH2 0x511 JUMPI PUSH2 0x510 PUSH2 0x51A JUMP JUMPDEST JUMPDEST DUP1 PUSH1 0x40 MSTORE POP POP POP JUMP JUMPDEST PUSH32 0x4E487B7100000000000000000000000000000000000000000000000000000000 PUSH1 0x0 MSTORE PUSH1 0x41 PUSH1 0x4 MSTORE PUSH1 0x24 PUSH1 0x0 REVERT JUMPDEST PUSH1 0x0 DUP1 REVERT JUMPDEST PUSH1 0x0 DUP1 REVERT JUMPDEST PUSH1 0x0 DUP1 REVERT JUMPDEST PUSH1 0x0 DUP1 REVERT JUMPDEST PUSH1 0x0 PUSH1 0x1F NOT PUSH1 0x1F DUP4 ADD AND SWAP1 POP SWAP2 SWAP1 POP JUMP JUMPDEST PUSH32 0x46616C6C6261636B207761732063616C6C656400000000000000000000000000 PUSH1 0x0 DUP3 ADD MSTORE POP JUMP JUMPDEST PUSH32 0x5265636569766564207761732063616C6C656400000000000000000000000000 PUSH1 0x0 DUP3 ADD MSTORE POP JUMP JUMPDEST PUSH2 0x5C9 DUP2 PUSH2 0x49D JUMP JUMPDEST DUP2 EQ PUSH2 0x5D4 JUMPI PUSH1 0x0 DUP1 REVERT JUMPDEST POP JUMP INVALID LOG2 PUSH5 0x6970667358 0x22 SLT KECCAK256 MOD 0x2E SLOAD 0xED EXTCODESIZE DUP5 SWAP3 0x5D PUSH19 0xAC3A4071DAB08D4CA43D38943D845ABEE17731 0xC1 0xD 0x4D OR PUSH5 0x736F6C6343 STOP ADDMOD SMOD STOP CALLER "
				},
				"gasEstimates": {
					"creation": {
						"codeDepositCost": "309800",
						"executionCost": "349",
						"totalCost": "310149"
					},
					"external": {
						"": "2696",
						"foo(string,uint256)": "infinite",
						"getAddress()": "407",
						"getBalance()": "317"
					}
				},
				"methodIdentifiers": {
					"foo(string,uint256)": "24ccab8f",
					"getAddress()": "38cc4831",
					"getBalance()": "12065fe0"
				}
			},
			"storageLayout": {
				"storage": [],
				"types": null
			},
			"userdoc": {
				"kind": "user",
				"methods": {},
				"version": 1
			}
		}
	}
}