{
	"contracts/11_CallContract.sol": {
		"Caller": {
			"abi": [
				{
					"inputs": [],
					"stateMutability": "nonpayable",
					"type": "constructor"
				},
				{
					"anonymous": false,
					"inputs": [
						{
							"indexed": false,
							"internalType": "bool",
							"name": "success",
							"type": "bool"
						},
						{
							"indexed": false,
							"internalType": "bytes",
							"name": "data",
							"type": "bytes"
						}
					],
					"name": "Response",
					"type": "event"
				},
				{
					"inputs": [],
					"name": "getAddress",
					"outputs": [
						{
							"internalType": "address",
							"name": "",
							"type": "address"
						}
					],
					"stateMutability": "view",
					"type": "function"
				},
				{
					"inputs": [],
					"name": "getBalance",
					"outputs": [
						{
							"internalType": "uint256",
							"name": "",
							"type": "uint256"
						}
					],
					"stateMutability": "view",
					"type": "function"
				},
				{
					"inputs": [
						{
							"internalType": "address payable",
							"name": "_addr",
							"type": "address"
						},
						{
							"internalType": "uint256",
							"name": "_y",
							"type": "uint256"
						}
					],
					"name": "testCall",
					"outputs": [],
					"stateMutability": "payable",
					"type": "function"
				}
			],
			"devdoc": {
				"kind": "dev",
				"methods": {},
				"version": 1
			},
			"evm": {
				"assembly": "    /* \"contracts/11_CallContract.sol\":944:1701  contract Caller{... */\n  mstore(0x40, 0x80)\n    /* \"contracts/11_CallContract.sol\":989:1044  constructor(){... */\n  callvalue\n  dup1\n  iszero\n  tag_1\n  jumpi\n  0x00\n  dup1\n  revert\ntag_1:\n  pop\n    /* \"contracts/11_CallContract.sol\":1023:1037  new Receiver() */\n  mload(0x40)\n  tag_4\n  swap1\n  tag_5\n  jump\t// in\ntag_4:\n  mload(0x40)\n  dup1\n  swap2\n  sub\n  swap1\n  0x00\n  create\n  dup1\n  iszero\n  dup1\n  iszero\n  tag_6\n  jumpi\n  returndatasize\n  0x00\n  dup1\n  returndatacopy\n  revert(0x00, returndatasize)\ntag_6:\n  pop\n    /* \"contracts/11_CallContract.sol\":1012:1020  receiver */\n  0x00\n  dup1\n    /* \"contracts/11_CallContract.sol\":1012:1037  receiver = new Receiver() */\n  0x0100\n  exp\n  dup2\n  sload\n  dup2\n  0xffffffffffffffffffffffffffffffffffffffff\n  mul\n  not\n  and\n  swap1\n  dup4\n  0xffffffffffffffffffffffffffffffffffffffff\n  and\n  mul\n  or\n  swap1\n  sstore\n  pop\n    /* \"contracts/11_CallContract.sol\":944:1701  contract Caller{... */\n  jump(tag_7)\ntag_5:\n  dataSize(sub_1)\n  dup1\n  dataOffset(sub_1)\n  dup4\n  codecopy\n  add\n  swap1\n  jump\t// out\ntag_7:\n  dataSize(sub_0)\n  dup1\n  dataOffset(sub_0)\n  0x00\n  codecopy\n  0x00\n  return\nstop\n\nsub_0: assembly {\n        /* \"contracts/11_CallContract.sol\":944:1701  contract Caller{... */\n      mstore(0x40, 0x80)\n      jumpi(tag_1, lt(calldatasize, 0x04))\n      shr(0xe0, calldataload(0x00))\n      dup1\n      0x12065fe0\n      eq\n      tag_2\n      jumpi\n      dup1\n      0x38cc4831\n      eq\n      tag_3\n      jumpi\n      dup1\n      0x59c75ada\n      eq\n      tag_4\n      jumpi\n    tag_1:\n      0x00\n      dup1\n      revert\n        /* \"contracts/11_CallContract.sol\":1607:1699  function getBalance() public view returns(uint){... */\n    tag_2:\n      callvalue\n      dup1\n      iszero\n      tag_5\n      jumpi\n      0x00\n      dup1\n      revert\n    tag_5:\n      pop\n      tag_6\n      tag_7\n      jump\t// in\n    tag_6:\n      mload(0x40)\n      tag_8\n      swap2\n      swap1\n      tag_9\n      jump\t// in\n    tag_8:\n      mload(0x40)\n      dup1\n      swap2\n      sub\n      swap1\n      return\n        /* \"contracts/11_CallContract.sol\":1506:1601  function getAddress() public view returns(address){... */\n    tag_3:\n      callvalue\n      dup1\n      iszero\n      tag_10\n      jumpi\n      0x00\n      dup1\n      revert\n    tag_10:\n      pop\n      tag_11\n      tag_12\n      jump\t// in\n    tag_11:\n      mload(0x40)\n      tag_13\n      swap2\n      swap1\n      tag_14\n      jump\t// in\n    tag_13:\n      mload(0x40)\n      dup1\n      swap2\n      sub\n      swap1\n      return\n        /* \"contracts/11_CallContract.sol\":1097:1495  function testCall(address payable _addr, uint _y) public payable{... */\n    tag_4:\n      tag_15\n      0x04\n      dup1\n      calldatasize\n      sub\n      dup2\n      add\n      swap1\n      tag_16\n      swap2\n      swap1\n      tag_17\n      jump\t// in\n    tag_16:\n      tag_18\n      jump\t// in\n    tag_15:\n      stop\n        /* \"contracts/11_CallContract.sol\":1607:1699  function getBalance() public view returns(uint){... */\n    tag_7:\n        /* \"contracts/11_CallContract.sol\":1649:1653  uint */\n      0x00\n        /* \"contracts/11_CallContract.sol\":1671:1679  receiver */\n      dup1\n      0x00\n      swap1\n      sload\n      swap1\n      0x0100\n      exp\n      swap1\n      div\n      0xffffffffffffffffffffffffffffffffffffffff\n      and\n        /* \"contracts/11_CallContract.sol\":1671:1690  receiver.getBalance */\n      0xffffffffffffffffffffffffffffffffffffffff\n      and\n      0x12065fe0\n        /* \"contracts/11_CallContract.sol\":1671:1692  receiver.getBalance() */\n      mload(0x40)\n      dup2\n      0xffffffff\n      and\n      0xe0\n      shl\n      dup2\n      mstore\n      0x04\n      add\n      0x20\n      mload(0x40)\n      dup1\n      dup4\n      sub\n      dup2\n      dup7\n      dup1\n      extcodesize\n      iszero\n      dup1\n      iszero\n      tag_20\n      jumpi\n      0x00\n      dup1\n      revert\n    tag_20:\n      pop\n      gas\n      staticcall\n      iszero\n      dup1\n      iszero\n      tag_22\n      jumpi\n      returndatasize\n      0x00\n      dup1\n      returndatacopy\n      revert(0x00, returndatasize)\n    tag_22:\n      pop\n      pop\n      pop\n      pop\n      mload(0x40)\n      returndatasize\n      not(0x1f)\n      0x1f\n      dup3\n      add\n      and\n      dup3\n      add\n      dup1\n      0x40\n      mstore\n      pop\n      dup2\n      add\n      swap1\n      tag_23\n      swap2\n      swap1\n      tag_24\n      jump\t// in\n    tag_23:\n        /* \"contracts/11_CallContract.sol\":1664:1692  return receiver.getBalance() */\n      swap1\n      pop\n        /* \"contracts/11_CallContract.sol\":1607:1699  function getBalance() public view returns(uint){... */\n      swap1\n      jump\t// out\n        /* \"contracts/11_CallContract.sol\":1506:1601  function getAddress() public view returns(address){... */\n    tag_12:\n        /* \"contracts/11_CallContract.sol\":1548:1555  address */\n      0x00\n        /* \"contracts/11_CallContract.sol\":1573:1581  receiver */\n      dup1\n      0x00\n      swap1\n      sload\n      swap1\n      0x0100\n      exp\n      swap1\n      div\n      0xffffffffffffffffffffffffffffffffffffffff\n      and\n        /* \"contracts/11_CallContract.sol\":1573:1592  receiver.getAddress */\n      0xffffffffffffffffffffffffffffffffffffffff\n      and\n      0x38cc4831\n        /* \"contracts/11_CallContract.sol\":1573:1594  receiver.getAddress() */\n      mload(0x40)\n      dup2\n      0xffffffff\n      and\n      0xe0\n      shl\n      dup2\n      mstore\n      0x04\n      add\n      0x20\n      mload(0x40)\n      dup1\n      dup4\n      sub\n      dup2\n      dup7\n      dup1\n      extcodesize\n      iszero\n      dup1\n      iszero\n      tag_26\n      jumpi\n      0x00\n      dup1\n      revert\n    tag_26:\n      pop\n      gas\n      staticcall\n      iszero\n      dup1\n      iszero\n      tag_28\n      jumpi\n      returndatasize\n      0x00\n      dup1\n      returndatacopy\n      revert(0x00, returndatasize)\n    tag_28:\n      pop\n      pop\n      pop\n      pop\n      mload(0x40)\n      returndatasize\n      not(0x1f)\n      0x1f\n      dup3\n      add\n      and\n      dup3\n      add\n      dup1\n      0x40\n      mstore\n      pop\n      dup2\n      add\n      swap1\n      tag_29\n      swap2\n      swap1\n      tag_30\n      jump\t// in\n    tag_29:\n        /* \"contracts/11_CallContract.sol\":1566:1594  return receiver.getAddress() */\n      swap1\n      pop\n        /* \"contracts/11_CallContract.sol\":1506:1601  function getAddress() public view returns(address){... */\n      swap1\n      jump\t// out\n        /* \"contracts/11_CallContract.sol\":1097:1495  function testCall(address payable _addr, uint _y) public payable{... */\n    tag_18:\n        /* \"contracts/11_CallContract.sol\":1254:1266  bool success */\n      0x00\n        /* \"contracts/11_CallContract.sol\":1268:1285  bytes memory data */\n      dup1\n        /* \"contracts/11_CallContract.sol\":1289:1294  _addr */\n      dup4\n        /* \"contracts/11_CallContract.sol\":1289:1299  _addr.call */\n      0xffffffffffffffffffffffffffffffffffffffff\n      and\n        /* \"contracts/11_CallContract.sol\":1306:1315  msg.value */\n      callvalue\n        /* \"contracts/11_CallContract.sol\":1384:1386  _y */\n      dup5\n        /* \"contracts/11_CallContract.sol\":1326:1387  abi.encodeWithSignature(\"foo(string,uint256)\", \"call foo\",_y) */\n      add(0x24, mload(0x40))\n      tag_32\n      swap2\n      swap1\n      tag_33\n      jump\t// in\n    tag_32:\n      mload(0x40)\n      0x20\n      dup2\n      dup4\n      sub\n      sub\n      dup2\n      mstore\n      swap1\n      0x40\n      mstore\n      and(not(0xffffffffffffffffffffffffffffffffffffffffffffffffffffffff), 0x24ccab8f00000000000000000000000000000000000000000000000000000000)\n      0x20\n      dup3\n      add\n      dup1\n      mload\n      0xffffffffffffffffffffffffffffffffffffffffffffffffffffffff\n      dup4\n      dup2\n      dup4\n      and\n      or\n      dup4\n      mstore\n      pop\n      pop\n      pop\n      pop\n        /* \"contracts/11_CallContract.sol\":1289:1388  _addr.call{value:msg.value}(... */\n      mload(0x40)\n      tag_34\n      swap2\n      swap1\n      tag_35\n      jump\t// in\n    tag_34:\n      0x00\n      mload(0x40)\n      dup1\n      dup4\n      sub\n      dup2\n      dup6\n      dup8\n      gas\n      call\n      swap3\n      pop\n      pop\n      pop\n      returndatasize\n      dup1\n      0x00\n      dup2\n      eq\n      tag_38\n      jumpi\n      mload(0x40)\n      swap2\n      pop\n      and(add(returndatasize, 0x3f), not(0x1f))\n      dup3\n      add\n      0x40\n      mstore\n      returndatasize\n      dup3\n      mstore\n      returndatasize\n      0x00\n      0x20\n      dup5\n      add\n      returndatacopy\n      jump(tag_37)\n    tag_38:\n      0x60\n      swap2\n      pop\n    tag_37:\n      pop\n        /* \"contracts/11_CallContract.sol\":1253:1388  (bool success, bytes memory data) = _addr.call{value:msg.value}(... */\n      swap2\n      pop\n      swap2\n      pop\n        /* \"contracts/11_CallContract.sol\":1466:1488  Response(success,data) */\n      0x13848c3e38f8886f3f5d2ad9dff80d8092c2bbb8efd5b887a99c2c6cfc09ac2a\n        /* \"contracts/11_CallContract.sol\":1475:1482  success */\n      dup3\n        /* \"contracts/11_CallContract.sol\":1483:1487  data */\n      dup3\n        /* \"contracts/11_CallContract.sol\":1466:1488  Response(success,data) */\n      mload(0x40)\n      tag_39\n      swap3\n      swap2\n      swap1\n      tag_40\n      jump\t// in\n    tag_39:\n      mload(0x40)\n      dup1\n      swap2\n      sub\n      swap1\n      log1\n        /* \"contracts/11_CallContract.sol\":1161:1495  {... */\n      pop\n      pop\n        /* \"contracts/11_CallContract.sol\":1097:1495  function testCall(address payable _addr, uint _y) public payable{... */\n      pop\n      pop\n      jump\t// out\n        /* \"#utility.yul\":7:150   */\n    tag_42:\n        /* \"#utility.yul\":64:69   */\n      0x00\n        /* \"#utility.yul\":95:101   */\n      dup2\n        /* \"#utility.yul\":89:102   */\n      mload\n        /* \"#utility.yul\":80:102   */\n      swap1\n      pop\n        /* \"#utility.yul\":111:144   */\n      tag_44\n        /* \"#utility.yul\":138:143   */\n      dup2\n        /* \"#utility.yul\":111:144   */\n      tag_45\n      jump\t// in\n    tag_44:\n        /* \"#utility.yul\":7:150   */\n      swap3\n      swap2\n      pop\n      pop\n      jump\t// out\n        /* \"#utility.yul\":156:311   */\n    tag_46:\n        /* \"#utility.yul\":210:215   */\n      0x00\n        /* \"#utility.yul\":248:254   */\n      dup2\n        /* \"#utility.yul\":235:255   */\n      calldataload\n        /* \"#utility.yul\":226:255   */\n      swap1\n      pop\n        /* \"#utility.yul\":264:305   */\n      tag_48\n        /* \"#utility.yul\":299:304   */\n      dup2\n        /* \"#utility.yul\":264:305   */\n      tag_49\n      jump\t// in\n    tag_48:\n        /* \"#utility.yul\":156:311   */\n      swap3\n      swap2\n      pop\n      pop\n      jump\t// out\n        /* \"#utility.yul\":317:456   */\n    tag_50:\n        /* \"#utility.yul\":363:368   */\n      0x00\n        /* \"#utility.yul\":401:407   */\n      dup2\n        /* \"#utility.yul\":388:408   */\n      calldataload\n        /* \"#utility.yul\":379:408   */\n      swap1\n      pop\n        /* \"#utility.yul\":417:450   */\n      tag_52\n        /* \"#utility.yul\":444:449   */\n      dup2\n        /* \"#utility.yul\":417:450   */\n      tag_53\n      jump\t// in\n    tag_52:\n        /* \"#utility.yul\":317:456   */\n      swap3\n      swap2\n      pop\n      pop\n      jump\t// out\n        /* \"#utility.yul\":462:605   */\n    tag_54:\n        /* \"#utility.yul\":519:524   */\n      0x00\n        /* \"#utility.yul\":550:556   */\n      dup2\n        /* \"#utility.yul\":544:557   */\n      mload\n        /* \"#utility.yul\":535:557   */\n      swap1\n      pop\n        /* \"#utility.yul\":566:599   */\n      tag_56\n        /* \"#utility.yul\":593:598   */\n      dup2\n        /* \"#utility.yul\":566:599   */\n      tag_53\n      jump\t// in\n    tag_56:\n        /* \"#utility.yul\":462:605   */\n      swap3\n      swap2\n      pop\n      pop\n      jump\t// out\n        /* \"#utility.yul\":611:962   */\n    tag_30:\n        /* \"#utility.yul\":681:687   */\n      0x00\n        /* \"#utility.yul\":730:732   */\n      0x20\n        /* \"#utility.yul\":718:727   */\n      dup3\n        /* \"#utility.yul\":709:716   */\n      dup5\n        /* \"#utility.yul\":705:728   */\n      sub\n        /* \"#utility.yul\":701:733   */\n      slt\n        /* \"#utility.yul\":698:817   */\n      iszero\n      tag_58\n      jumpi\n        /* \"#utility.yul\":736:815   */\n      tag_59\n      tag_60\n      jump\t// in\n    tag_59:\n        /* \"#utility.yul\":698:817   */\n    tag_58:\n        /* \"#utility.yul\":856:857   */\n      0x00\n        /* \"#utility.yul\":881:945   */\n      tag_61\n        /* \"#utility.yul\":937:944   */\n      dup5\n        /* \"#utility.yul\":928:934   */\n      dup3\n        /* \"#utility.yul\":917:926   */\n      dup6\n        /* \"#utility.yul\":913:935   */\n      add\n        /* \"#utility.yul\":881:945   */\n      tag_42\n      jump\t// in\n    tag_61:\n        /* \"#utility.yul\":871:945   */\n      swap2\n      pop\n        /* \"#utility.yul\":827:955   */\n      pop\n        /* \"#utility.yul\":611:962   */\n      swap3\n      swap2\n      pop\n      pop\n      jump\t// out\n        /* \"#utility.yul\":968:1458   */\n    tag_17:\n        /* \"#utility.yul\":1044:1050   */\n      0x00\n        /* \"#utility.yul\":1052:1058   */\n      dup1\n        /* \"#utility.yul\":1101:1103   */\n      0x40\n        /* \"#utility.yul\":1089:1098   */\n      dup4\n        /* \"#utility.yul\":1080:1087   */\n      dup6\n        /* \"#utility.yul\":1076:1099   */\n      sub\n        /* \"#utility.yul\":1072:1104   */\n      slt\n        /* \"#utility.yul\":1069:1188   */\n      iszero\n      tag_63\n      jumpi\n        /* \"#utility.yul\":1107:1186   */\n      tag_64\n      tag_60\n      jump\t// in\n    tag_64:\n        /* \"#utility.yul\":1069:1188   */\n    tag_63:\n        /* \"#utility.yul\":1227:1228   */\n      0x00\n        /* \"#utility.yul\":1252:1313   */\n      tag_65\n        /* \"#utility.yul\":1305:1312   */\n      dup6\n        /* \"#utility.yul\":1296:1302   */\n      dup3\n        /* \"#utility.yul\":1285:1294   */\n      dup7\n        /* \"#utility.yul\":1281:1303   */\n      add\n        /* \"#utility.yul\":1252:1313   */\n      tag_46\n      jump\t// in\n    tag_65:\n        /* \"#utility.yul\":1242:1313   */\n      swap3\n      pop\n        /* \"#utility.yul\":1198:1323   */\n      pop\n        /* \"#utility.yul\":1362:1364   */\n      0x20\n        /* \"#utility.yul\":1388:1441   */\n      tag_66\n        /* \"#utility.yul\":1433:1440   */\n      dup6\n        /* \"#utility.yul\":1424:1430   */\n      dup3\n        /* \"#utility.yul\":1413:1422   */\n      dup7\n        /* \"#utility.yul\":1409:1431   */\n      add\n        /* \"#utility.yul\":1388:1441   */\n      tag_50\n      jump\t// in\n    tag_66:\n        /* \"#utility.yul\":1378:1441   */\n      swap2\n      pop\n        /* \"#utility.yul\":1333:1451   */\n      pop\n        /* \"#utility.yul\":968:1458   */\n      swap3\n      pop\n      swap3\n      swap1\n      pop\n      jump\t// out\n        /* \"#utility.yul\":1464:1815   */\n    tag_24:\n        /* \"#utility.yul\":1534:1540   */\n      0x00\n        /* \"#utility.yul\":1583:1585   */\n      0x20\n        /* \"#utility.yul\":1571:1580   */\n      dup3\n        /* \"#utility.yul\":1562:1569   */\n      dup5\n        /* \"#utility.yul\":1558:1581   */\n      sub\n        /* \"#utility.yul\":1554:1586   */\n      slt\n        /* \"#utility.yul\":1551:1670   */\n      iszero\n      tag_68\n      jumpi\n        /* \"#utility.yul\":1589:1668   */\n      tag_69\n      tag_60\n      jump\t// in\n    tag_69:\n        /* \"#utility.yul\":1551:1670   */\n    tag_68:\n        /* \"#utility.yul\":1709:1710   */\n      0x00\n        /* \"#utility.yul\":1734:1798   */\n      tag_70\n        /* \"#utility.yul\":1790:1797   */\n      dup5\n        /* \"#utility.yul\":1781:1787   */\n      dup3\n        /* \"#utility.yul\":1770:1779   */\n      dup6\n        /* \"#utility.yul\":1766:1788   */\n      add\n        /* \"#utility.yul\":1734:1798   */\n      tag_54\n      jump\t// in\n    tag_70:\n        /* \"#utility.yul\":1724:1798   */\n      swap2\n      pop\n        /* \"#utility.yul\":1680:1808   */\n      pop\n        /* \"#utility.yul\":1464:1815   */\n      swap3\n      swap2\n      pop\n      pop\n      jump\t// out\n        /* \"#utility.yul\":1821:1939   */\n    tag_71:\n        /* \"#utility.yul\":1908:1932   */\n      tag_73\n        /* \"#utility.yul\":1926:1931   */\n      dup2\n        /* \"#utility.yul\":1908:1932   */\n      tag_74\n      jump\t// in\n    tag_73:\n        /* \"#utility.yul\":1903:1906   */\n      dup3\n        /* \"#utility.yul\":1896:1933   */\n      mstore\n        /* \"#utility.yul\":1821:1939   */\n      pop\n      pop\n      jump\t// out\n        /* \"#utility.yul\":1945:2054   */\n    tag_75:\n        /* \"#utility.yul\":2026:2047   */\n      tag_77\n        /* \"#utility.yul\":2041:2046   */\n      dup2\n        /* \"#utility.yul\":2026:2047   */\n      tag_78\n      jump\t// in\n    tag_77:\n        /* \"#utility.yul\":2021:2024   */\n      dup3\n        /* \"#utility.yul\":2014:2048   */\n      mstore\n        /* \"#utility.yul\":1945:2054   */\n      pop\n      pop\n      jump\t// out\n        /* \"#utility.yul\":2060:2420   */\n    tag_79:\n        /* \"#utility.yul\":2146:2149   */\n      0x00\n        /* \"#utility.yul\":2174:2212   */\n      tag_81\n        /* \"#utility.yul\":2206:2211   */\n      dup3\n        /* \"#utility.yul\":2174:2212   */\n      tag_82\n      jump\t// in\n    tag_81:\n        /* \"#utility.yul\":2228:2298   */\n      tag_83\n        /* \"#utility.yul\":2291:2297   */\n      dup2\n        /* \"#utility.yul\":2286:2289   */\n      dup6\n        /* \"#utility.yul\":2228:2298   */\n      tag_84\n      jump\t// in\n    tag_83:\n        /* \"#utility.yul\":2221:2298   */\n      swap4\n      pop\n        /* \"#utility.yul\":2307:2359   */\n      tag_85\n        /* \"#utility.yul\":2352:2358   */\n      dup2\n        /* \"#utility.yul\":2347:2350   */\n      dup6\n        /* \"#utility.yul\":2340:2344   */\n      0x20\n        /* \"#utility.yul\":2333:2338   */\n      dup7\n        /* \"#utility.yul\":2329:2345   */\n      add\n        /* \"#utility.yul\":2307:2359   */\n      tag_86\n      jump\t// in\n    tag_85:\n        /* \"#utility.yul\":2384:2413   */\n      tag_87\n        /* \"#utility.yul\":2406:2412   */\n      dup2\n        /* \"#utility.yul\":2384:2413   */\n      tag_88\n      jump\t// in\n    tag_87:\n        /* \"#utility.yul\":2379:2382   */\n      dup5\n        /* \"#utility.yul\":2375:2414   */\n      add\n        /* \"#utility.yul\":2368:2414   */\n      swap2\n      pop\n        /* \"#utility.yul\":2150:2420   */\n      pop\n        /* \"#utility.yul\":2060:2420   */\n      swap3\n      swap2\n      pop\n      pop\n      jump\t// out\n        /* \"#utility.yul\":2426:2799   */\n    tag_89:\n        /* \"#utility.yul\":2530:2533   */\n      0x00\n        /* \"#utility.yul\":2558:2596   */\n      tag_91\n        /* \"#utility.yul\":2590:2595   */\n      dup3\n        /* \"#utility.yul\":2558:2596   */\n      tag_82\n      jump\t// in\n    tag_91:\n        /* \"#utility.yul\":2612:2700   */\n      tag_92\n        /* \"#utility.yul\":2693:2699   */\n      dup2\n        /* \"#utility.yul\":2688:2691   */\n      dup6\n        /* \"#utility.yul\":2612:2700   */\n      tag_93\n      jump\t// in\n    tag_92:\n        /* \"#utility.yul\":2605:2700   */\n      swap4\n      pop\n        /* \"#utility.yul\":2709:2761   */\n      tag_94\n        /* \"#utility.yul\":2754:2760   */\n      dup2\n        /* \"#utility.yul\":2749:2752   */\n      dup6\n        /* \"#utility.yul\":2742:2746   */\n      0x20\n        /* \"#utility.yul\":2735:2740   */\n      dup7\n        /* \"#utility.yul\":2731:2747   */\n      add\n        /* \"#utility.yul\":2709:2761   */\n      tag_86\n      jump\t// in\n    tag_94:\n        /* \"#utility.yul\":2786:2792   */\n      dup1\n        /* \"#utility.yul\":2781:2784   */\n      dup5\n        /* \"#utility.yul\":2777:2793   */\n      add\n        /* \"#utility.yul\":2770:2793   */\n      swap2\n      pop\n        /* \"#utility.yul\":2534:2799   */\n      pop\n        /* \"#utility.yul\":2426:2799   */\n      swap3\n      swap2\n      pop\n      pop\n      jump\t// out\n        /* \"#utility.yul\":2805:3170   */\n    tag_95:\n        /* \"#utility.yul\":2947:2950   */\n      0x00\n        /* \"#utility.yul\":2968:3034   */\n      tag_97\n        /* \"#utility.yul\":3032:3033   */\n      0x08\n        /* \"#utility.yul\":3027:3030   */\n      dup4\n        /* \"#utility.yul\":2968:3034   */\n      tag_98\n      jump\t// in\n    tag_97:\n        /* \"#utility.yul\":2961:3034   */\n      swap2\n      pop\n        /* \"#utility.yul\":3043:3136   */\n      tag_99\n        /* \"#utility.yul\":3132:3135   */\n      dup3\n        /* \"#utility.yul\":3043:3136   */\n      tag_100\n      jump\t// in\n    tag_99:\n        /* \"#utility.yul\":3161:3163   */\n      0x20\n        /* \"#utility.yul\":3156:3159   */\n      dup3\n        /* \"#utility.yul\":3152:3164   */\n      add\n        /* \"#utility.yul\":3145:3164   */\n      swap1\n      pop\n        /* \"#utility.yul\":2805:3170   */\n      swap2\n      swap1\n      pop\n      jump\t// out\n        /* \"#utility.yul\":3176:3294   */\n    tag_101:\n        /* \"#utility.yul\":3263:3287   */\n      tag_103\n        /* \"#utility.yul\":3281:3286   */\n      dup2\n        /* \"#utility.yul\":3263:3287   */\n      tag_104\n      jump\t// in\n    tag_103:\n        /* \"#utility.yul\":3258:3261   */\n      dup3\n        /* \"#utility.yul\":3251:3288   */\n      mstore\n        /* \"#utility.yul\":3176:3294   */\n      pop\n      pop\n      jump\t// out\n        /* \"#utility.yul\":3300:3571   */\n    tag_35:\n        /* \"#utility.yul\":3430:3433   */\n      0x00\n        /* \"#utility.yul\":3452:3545   */\n      tag_106\n        /* \"#utility.yul\":3541:3544   */\n      dup3\n        /* \"#utility.yul\":3532:3538   */\n      dup5\n        /* \"#utility.yul\":3452:3545   */\n      tag_89\n      jump\t// in\n    tag_106:\n        /* \"#utility.yul\":3445:3545   */\n      swap2\n      pop\n        /* \"#utility.yul\":3562:3565   */\n      dup2\n        /* \"#utility.yul\":3555:3565   */\n      swap1\n      pop\n        /* \"#utility.yul\":3300:3571   */\n      swap3\n      swap2\n      pop\n      pop\n      jump\t// out\n        /* \"#utility.yul\":3577:3799   */\n    tag_14:\n        /* \"#utility.yul\":3670:3674   */\n      0x00\n        /* \"#utility.yul\":3708:3710   */\n      0x20\n        /* \"#utility.yul\":3697:3706   */\n      dup3\n        /* \"#utility.yul\":3693:3711   */\n      add\n        /* \"#utility.yul\":3685:3711   */\n      swap1\n      pop\n        /* \"#utility.yul\":3721:3792   */\n      tag_108\n        /* \"#utility.yul\":3789:3790   */\n      0x00\n        /* \"#utility.yul\":3778:3787   */\n      dup4\n        /* \"#utility.yul\":3774:3791   */\n      add\n        /* \"#utility.yul\":3765:3771   */\n      dup5\n        /* \"#utility.yul\":3721:3792   */\n      tag_71\n      jump\t// in\n    tag_108:\n        /* \"#utility.yul\":3577:3799   */\n      swap3\n      swap2\n      pop\n      pop\n      jump\t// out\n        /* \"#utility.yul\":3805:4212   */\n    tag_40:\n        /* \"#utility.yul\":3938:3942   */\n      0x00\n        /* \"#utility.yul\":3976:3978   */\n      0x40\n        /* \"#utility.yul\":3965:3974   */\n      dup3\n        /* \"#utility.yul\":3961:3979   */\n      add\n        /* \"#utility.yul\":3953:3979   */\n      swap1\n      pop\n        /* \"#utility.yul\":3989:4054   */\n      tag_110\n        /* \"#utility.yul\":4051:4052   */\n      0x00\n        /* \"#utility.yul\":4040:4049   */\n      dup4\n        /* \"#utility.yul\":4036:4053   */\n      add\n        /* \"#utility.yul\":4027:4033   */\n      dup6\n        /* \"#utility.yul\":3989:4054   */\n      tag_75\n      jump\t// in\n    tag_110:\n        /* \"#utility.yul\":4101:4110   */\n      dup2\n        /* \"#utility.yul\":4095:4099   */\n      dup2\n        /* \"#utility.yul\":4091:4111   */\n      sub\n        /* \"#utility.yul\":4086:4088   */\n      0x20\n        /* \"#utility.yul\":4075:4084   */\n      dup4\n        /* \"#utility.yul\":4071:4089   */\n      add\n        /* \"#utility.yul\":4064:4112   */\n      mstore\n        /* \"#utility.yul\":4129:4205   */\n      tag_111\n        /* \"#utility.yul\":4200:4204   */\n      dup2\n        /* \"#utility.yul\":4191:4197   */\n      dup5\n        /* \"#utility.yul\":4129:4205   */\n      tag_79\n      jump\t// in\n    tag_111:\n        /* \"#utility.yul\":4121:4205   */\n      swap1\n      pop\n        /* \"#utility.yul\":3805:4212   */\n      swap4\n      swap3\n      pop\n      pop\n      pop\n      jump\t// out\n        /* \"#utility.yul\":4218:4747   */\n    tag_33:\n        /* \"#utility.yul\":4412:4416   */\n      0x00\n        /* \"#utility.yul\":4450:4452   */\n      0x40\n        /* \"#utility.yul\":4439:4448   */\n      dup3\n        /* \"#utility.yul\":4435:4453   */\n      add\n        /* \"#utility.yul\":4427:4453   */\n      swap1\n      pop\n        /* \"#utility.yul\":4499:4508   */\n      dup2\n        /* \"#utility.yul\":4493:4497   */\n      dup2\n        /* \"#utility.yul\":4489:4509   */\n      sub\n        /* \"#utility.yul\":4485:4486   */\n      0x00\n        /* \"#utility.yul\":4474:4483   */\n      dup4\n        /* \"#utility.yul\":4470:4487   */\n      add\n        /* \"#utility.yul\":4463:4510   */\n      mstore\n        /* \"#utility.yul\":4527:4658   */\n      tag_113\n        /* \"#utility.yul\":4653:4657   */\n      dup2\n        /* \"#utility.yul\":4527:4658   */\n      tag_95\n      jump\t// in\n    tag_113:\n        /* \"#utility.yul\":4519:4658   */\n      swap1\n      pop\n        /* \"#utility.yul\":4668:4740   */\n      tag_114\n        /* \"#utility.yul\":4736:4738   */\n      0x20\n        /* \"#utility.yul\":4725:4734   */\n      dup4\n        /* \"#utility.yul\":4721:4739   */\n      add\n        /* \"#utility.yul\":4712:4718   */\n      dup5\n        /* \"#utility.yul\":4668:4740   */\n      tag_101\n      jump\t// in\n    tag_114:\n        /* \"#utility.yul\":4218:4747   */\n      swap3\n      swap2\n      pop\n      pop\n      jump\t// out\n        /* \"#utility.yul\":4753:4975   */\n    tag_9:\n        /* \"#utility.yul\":4846:4850   */\n      0x00\n        /* \"#utility.yul\":4884:4886   */\n      0x20\n        /* \"#utility.yul\":4873:4882   */\n      dup3\n        /* \"#utility.yul\":4869:4887   */\n      add\n        /* \"#utility.yul\":4861:4887   */\n      swap1\n      pop\n        /* \"#utility.yul\":4897:4968   */\n      tag_116\n        /* \"#utility.yul\":4965:4966   */\n      0x00\n        /* \"#utility.yul\":4954:4963   */\n      dup4\n        /* \"#utility.yul\":4950:4967   */\n      add\n        /* \"#utility.yul\":4941:4947   */\n      dup5\n        /* \"#utility.yul\":4897:4968   */\n      tag_101\n      jump\t// in\n    tag_116:\n        /* \"#utility.yul\":4753:4975   */\n      swap3\n      swap2\n      pop\n      pop\n      jump\t// out\n        /* \"#utility.yul\":5062:5160   */\n    tag_82:\n        /* \"#utility.yul\":5113:5119   */\n      0x00\n        /* \"#utility.yul\":5147:5152   */\n      dup2\n        /* \"#utility.yul\":5141:5153   */\n      mload\n        /* \"#utility.yul\":5131:5153   */\n      swap1\n      pop\n        /* \"#utility.yul\":5062:5160   */\n      swap2\n      swap1\n      pop\n      jump\t// out\n        /* \"#utility.yul\":5166:5334   */\n    tag_84:\n        /* \"#utility.yul\":5249:5260   */\n      0x00\n        /* \"#utility.yul\":5283:5289   */\n      dup3\n        /* \"#utility.yul\":5278:5281   */\n      dup3\n        /* \"#utility.yul\":5271:5290   */\n      mstore\n        /* \"#utility.yul\":5323:5327   */\n      0x20\n        /* \"#utility.yul\":5318:5321   */\n      dup3\n        /* \"#utility.yul\":5314:5328   */\n      add\n        /* \"#utility.yul\":5299:5328   */\n      swap1\n      pop\n        /* \"#utility.yul\":5166:5334   */\n      swap3\n      swap2\n      pop\n      pop\n      jump\t// out\n        /* \"#utility.yul\":5340:5487   */\n    tag_93:\n        /* \"#utility.yul\":5441:5452   */\n      0x00\n        /* \"#utility.yul\":5478:5481   */\n      dup2\n        /* \"#utility.yul\":5463:5481   */\n      swap1\n      pop\n        /* \"#utility.yul\":5340:5487   */\n      swap3\n      swap2\n      pop\n      pop\n      jump\t// out\n        /* \"#utility.yul\":5493:5662   */\n    tag_98:\n        /* \"#utility.yul\":5577:5588   */\n      0x00\n        /* \"#utility.yul\":5611:5617   */\n      dup3\n        /* \"#utility.yul\":5606:5609   */\n      dup3\n        /* \"#utility.yul\":5599:5618   */\n      mstore\n        /* \"#utility.yul\":5651:5655   */\n      0x20\n        /* \"#utility.yul\":5646:5649   */\n      dup3\n        /* \"#utility.yul\":5642:5656   */\n      add\n        /* \"#utility.yul\":5627:5656   */\n      swap1\n      pop\n        /* \"#utility.yul\":5493:5662   */\n      swap3\n      swap2\n      pop\n      pop\n      jump\t// out\n        /* \"#utility.yul\":5668:5764   */\n    tag_74:\n        /* \"#utility.yul\":5705:5712   */\n      0x00\n        /* \"#utility.yul\":5734:5758   */\n      tag_124\n        /* \"#utility.yul\":5752:5757   */\n      dup3\n        /* \"#utility.yul\":5734:5758   */\n      tag_125\n      jump\t// in\n    tag_124:\n        /* \"#utility.yul\":5723:5758   */\n      swap1\n      pop\n        /* \"#utility.yul\":5668:5764   */\n      swap2\n      swap1\n      pop\n      jump\t// out\n        /* \"#utility.yul\":5770:5874   */\n    tag_126:\n        /* \"#utility.yul\":5815:5822   */\n      0x00\n        /* \"#utility.yul\":5844:5868   */\n      tag_128\n        /* \"#utility.yul\":5862:5867   */\n      dup3\n        /* \"#utility.yul\":5844:5868   */\n      tag_125\n      jump\t// in\n    tag_128:\n        /* \"#utility.yul\":5833:5868   */\n      swap1\n      pop\n        /* \"#utility.yul\":5770:5874   */\n      swap2\n      swap1\n      pop\n      jump\t// out\n        /* \"#utility.yul\":5880:5970   */\n    tag_78:\n        /* \"#utility.yul\":5914:5921   */\n      0x00\n        /* \"#utility.yul\":5957:5962   */\n      dup2\n        /* \"#utility.yul\":5950:5963   */\n      iszero\n        /* \"#utility.yul\":5943:5964   */\n      iszero\n        /* \"#utility.yul\":5932:5964   */\n      swap1\n      pop\n        /* \"#utility.yul\":5880:5970   */\n      swap2\n      swap1\n      pop\n      jump\t// out\n        /* \"#utility.yul\":5976:6102   */\n    tag_125:\n        /* \"#utility.yul\":6013:6020   */\n      0x00\n        /* \"#utility.yul\":6053:6095   */\n      0xffffffffffffffffffffffffffffffffffffffff\n        /* \"#utility.yul\":6046:6051   */\n      dup3\n        /* \"#utility.yul\":6042:6096   */\n      and\n        /* \"#utility.yul\":6031:6096   */\n      swap1\n      pop\n        /* \"#utility.yul\":5976:6102   */\n      swap2\n      swap1\n      pop\n      jump\t// out\n        /* \"#utility.yul\":6108:6185   */\n    tag_104:\n        /* \"#utility.yul\":6145:6152   */\n      0x00\n        /* \"#utility.yul\":6174:6179   */\n      dup2\n        /* \"#utility.yul\":6163:6179   */\n      swap1\n      pop\n        /* \"#utility.yul\":6108:6185   */\n      swap2\n      swap1\n      pop\n      jump\t// out\n        /* \"#utility.yul\":6191:6498   */\n    tag_86:\n        /* \"#utility.yul\":6259:6260   */\n      0x00\n        /* \"#utility.yul\":6269:6382   */\n    tag_133:\n        /* \"#utility.yul\":6283:6289   */\n      dup4\n        /* \"#utility.yul\":6280:6281   */\n      dup2\n        /* \"#utility.yul\":6277:6290   */\n      lt\n        /* \"#utility.yul\":6269:6382   */\n      iszero\n      tag_135\n      jumpi\n        /* \"#utility.yul\":6368:6369   */\n      dup1\n        /* \"#utility.yul\":6363:6366   */\n      dup3\n        /* \"#utility.yul\":6359:6370   */\n      add\n        /* \"#utility.yul\":6353:6371   */\n      mload\n        /* \"#utility.yul\":6349:6350   */\n      dup2\n        /* \"#utility.yul\":6344:6347   */\n      dup5\n        /* \"#utility.yul\":6340:6351   */\n      add\n        /* \"#utility.yul\":6333:6372   */\n      mstore\n        /* \"#utility.yul\":6305:6307   */\n      0x20\n        /* \"#utility.yul\":6302:6303   */\n      dup2\n        /* \"#utility.yul\":6298:6308   */\n      add\n        /* \"#utility.yul\":6293:6308   */\n      swap1\n      pop\n        /* \"#utility.yul\":6269:6382   */\n      jump(tag_133)\n    tag_135:\n        /* \"#utility.yul\":6400:6406   */\n      dup4\n        /* \"#utility.yul\":6397:6398   */\n      dup2\n        /* \"#utility.yul\":6394:6407   */\n      gt\n        /* \"#utility.yul\":6391:6492   */\n      iszero\n      tag_136\n      jumpi\n        /* \"#utility.yul\":6480:6481   */\n      0x00\n        /* \"#utility.yul\":6471:6477   */\n      dup5\n        /* \"#utility.yul\":6466:6469   */\n      dup5\n        /* \"#utility.yul\":6462:6478   */\n      add\n        /* \"#utility.yul\":6455:6482   */\n      mstore\n        /* \"#utility.yul\":6391:6492   */\n    tag_136:\n        /* \"#utility.yul\":6240:6498   */\n      pop\n        /* \"#utility.yul\":6191:6498   */\n      pop\n      pop\n      pop\n      jump\t// out\n        /* \"#utility.yul\":6627:6744   */\n    tag_60:\n        /* \"#utility.yul\":6736:6737   */\n      0x00\n        /* \"#utility.yul\":6733:6734   */\n      dup1\n        /* \"#utility.yul\":6726:6738   */\n      revert\n        /* \"#utility.yul\":6750:6852   */\n    tag_88:\n        /* \"#utility.yul\":6791:6797   */\n      0x00\n        /* \"#utility.yul\":6842:6844   */\n      0x1f\n        /* \"#utility.yul\":6838:6845   */\n      not\n        /* \"#utility.yul\":6833:6835   */\n      0x1f\n        /* \"#utility.yul\":6826:6831   */\n      dup4\n        /* \"#utility.yul\":6822:6836   */\n      add\n        /* \"#utility.yul\":6818:6846   */\n      and\n        /* \"#utility.yul\":6808:6846   */\n      swap1\n      pop\n        /* \"#utility.yul\":6750:6852   */\n      swap2\n      swap1\n      pop\n      jump\t// out\n        /* \"#utility.yul\":6858:7016   */\n    tag_100:\n        /* \"#utility.yul\":6998:7008   */\n      0x63616c6c20666f6f000000000000000000000000000000000000000000000000\n        /* \"#utility.yul\":6994:6995   */\n      0x00\n        /* \"#utility.yul\":6986:6992   */\n      dup3\n        /* \"#utility.yul\":6982:6996   */\n      add\n        /* \"#utility.yul\":6975:7009   */\n      mstore\n        /* \"#utility.yul\":6858:7016   */\n      pop\n      jump\t// out\n        /* \"#utility.yul\":7022:7144   */\n    tag_45:\n        /* \"#utility.yul\":7095:7119   */\n      tag_143\n        /* \"#utility.yul\":7113:7118   */\n      dup2\n        /* \"#utility.yul\":7095:7119   */\n      tag_74\n      jump\t// in\n    tag_143:\n        /* \"#utility.yul\":7088:7093   */\n      dup2\n        /* \"#utility.yul\":7085:7120   */\n      eq\n        /* \"#utility.yul\":7075:7138   */\n      tag_144\n      jumpi\n        /* \"#utility.yul\":7134:7135   */\n      0x00\n        /* \"#utility.yul\":7131:7132   */\n      dup1\n        /* \"#utility.yul\":7124:7136   */\n      revert\n        /* \"#utility.yul\":7075:7138   */\n    tag_144:\n        /* \"#utility.yul\":7022:7144   */\n      pop\n      jump\t// out\n        /* \"#utility.yul\":7150:7288   */\n    tag_49:\n        /* \"#utility.yul\":7231:7263   */\n      tag_146\n        /* \"#utility.yul\":7257:7262   */\n      dup2\n        /* \"#utility.yul\":7231:7263   */\n      tag_126\n      jump\t// in\n    tag_146:\n        /* \"#utility.yul\":7224:7229   */\n      dup2\n        /* \"#utility.yul\":7221:7264   */\n      eq\n        /* \"#utility.yul\":7211:7282   */\n      tag_147\n      jumpi\n        /* \"#utility.yul\":7278:7279   */\n      0x00\n        /* \"#utility.yul\":7275:7276   */\n      dup1\n        /* \"#utility.yul\":7268:7280   */\n      revert\n        /* \"#utility.yul\":7211:7282   */\n    tag_147:\n        /* \"#utility.yul\":7150:7288   */\n      pop\n      jump\t// out\n        /* \"#utility.yul\":7294:7416   */\n    tag_53:\n        /* \"#utility.yul\":7367:7391   */\n      tag_149\n        /* \"#utility.yul\":7385:7390   */\n      dup2\n        /* \"#utility.yul\":7367:7391   */\n      tag_104\n      jump\t// in\n    tag_149:\n        /* \"#utility.yul\":7360:7365   */\n      dup2\n        /* \"#utility.yul\":7357:7392   */\n      eq\n        /* \"#utility.yul\":7347:7410   */\n      tag_150\n      jumpi\n        /* \"#utility.yul\":7406:7407   */\n      0x00\n        /* \"#utility.yul\":7403:7404   */\n      dup1\n        /* \"#utility.yul\":7396:7408   */\n      revert\n        /* \"#utility.yul\":7347:7410   */\n    tag_150:\n        /* \"#utility.yul\":7294:7416   */\n      pop\n      jump\t// out\n\n    auxdata: 0xa2646970667358221220106a914080cb5fc067c8842a11db717cd167db08a3298f1b4515bebd999cc93264736f6c63430008070033\n}\n\nsub_1: assembly {\n        /* \"contracts/11_CallContract.sol\":70:942  contract Receiver{... */\n      mstore(0x40, 0x80)\n      callvalue\n      dup1\n      iszero\n      tag_1\n      jumpi\n      0x00\n      dup1\n      revert\n    tag_1:\n      pop\n      dataSize(sub_0)\n      dup1\n      dataOffset(sub_0)\n      0x00\n      codecopy\n      0x00\n      return\n    stop\n\n    sub_0: assembly {\n            /* \"contracts/11_CallContract.sol\":70:942  contract Receiver{... */\n          mstore(0x40, 0x80)\n          jumpi(tag_1, lt(calldatasize, 0x04))\n          shr(0xe0, calldataload(0x00))\n          dup1\n          0x12065fe0\n          eq\n          tag_3\n          jumpi\n          dup1\n          0x24ccab8f\n          eq\n          tag_4\n          jumpi\n          dup1\n          0x38cc4831\n          eq\n          tag_5\n          jumpi\n          jump(tag_2)\n        tag_1:\n          jumpi(tag_2, calldatasize)\n            /* \"contracts/11_CallContract.sol\":321:374  Received(msg.sender,msg.value, \"Received was called\") */\n          0x59e04c3f0d44b7caf6e8ef854b61d9a51cf1960d7a88ff6356cc5e946b4b5832\n            /* \"contracts/11_CallContract.sol\":330:340  msg.sender */\n          caller\n            /* \"contracts/11_CallContract.sol\":341:350  msg.value */\n          callvalue\n            /* \"contracts/11_CallContract.sol\":321:374  Received(msg.sender,msg.value, \"Received was called\") */\n          mload(0x40)\n          tag_8\n          swap3\n          swap2\n          swap1\n          tag_9\n          jump\t// in\n        tag_8:\n          mload(0x40)\n          dup1\n          swap2\n          sub\n          swap1\n          log1\n            /* \"contracts/11_CallContract.sol\":70:942  contract Receiver{... */\n          stop\n        tag_2:\n            /* \"contracts/11_CallContract.sol\":526:579  Received(msg.sender,msg.value, \"Fallback was called\") */\n          0x59e04c3f0d44b7caf6e8ef854b61d9a51cf1960d7a88ff6356cc5e946b4b5832\n            /* \"contracts/11_CallContract.sol\":535:545  msg.sender */\n          caller\n            /* \"contracts/11_CallContract.sol\":546:555  msg.value */\n          callvalue\n            /* \"contracts/11_CallContract.sol\":526:579  Received(msg.sender,msg.value, \"Fallback was called\") */\n          mload(0x40)\n          tag_12\n          swap3\n          swap2\n          swap1\n          tag_13\n          jump\t// in\n        tag_12:\n          mload(0x40)\n          dup1\n          swap2\n          sub\n          swap1\n          log1\n            /* \"contracts/11_CallContract.sol\":70:942  contract Receiver{... */\n          stop\n            /* \"contracts/11_CallContract.sol\":847:939  function getBalance() public view returns(uint){... */\n        tag_3:\n          callvalue\n          dup1\n          iszero\n          tag_14\n          jumpi\n          0x00\n          dup1\n          revert\n        tag_14:\n          pop\n          tag_15\n          tag_16\n          jump\t// in\n        tag_15:\n          mload(0x40)\n          tag_17\n          swap2\n          swap1\n          tag_18\n          jump\t// in\n        tag_17:\n          mload(0x40)\n          dup1\n          swap2\n          sub\n          swap1\n          return\n            /* \"contracts/11_CallContract.sol\":592:747  function foo(string memory _message, uint _y) public payable returns(uint){... */\n        tag_4:\n          tag_19\n          0x04\n          dup1\n          calldatasize\n          sub\n          dup2\n          add\n          swap1\n          tag_20\n          swap2\n          swap1\n          tag_21\n          jump\t// in\n        tag_20:\n          tag_22\n          jump\t// in\n        tag_19:\n          mload(0x40)\n          tag_23\n          swap2\n          swap1\n          tag_18\n          jump\t// in\n        tag_23:\n          mload(0x40)\n          dup1\n          swap2\n          sub\n          swap1\n          return\n            /* \"contracts/11_CallContract.sol\":754:841  function getAddress() public view returns(address){... */\n        tag_5:\n          callvalue\n          dup1\n          iszero\n          tag_24\n          jumpi\n          0x00\n          dup1\n          revert\n        tag_24:\n          pop\n          tag_25\n          tag_26\n          jump\t// in\n        tag_25:\n          mload(0x40)\n          tag_27\n          swap2\n          swap1\n          tag_28\n          jump\t// in\n        tag_27:\n          mload(0x40)\n          dup1\n          swap2\n          sub\n          swap1\n          return\n            /* \"contracts/11_CallContract.sol\":847:939  function getBalance() public view returns(uint){... */\n        tag_16:\n            /* \"contracts/11_CallContract.sol\":889:893  uint */\n          0x00\n            /* \"contracts/11_CallContract.sol\":911:932  address(this).balance */\n          selfbalance\n            /* \"contracts/11_CallContract.sol\":904:932  return address(this).balance */\n          swap1\n          pop\n            /* \"contracts/11_CallContract.sol\":847:939  function getBalance() public view returns(uint){... */\n          swap1\n          jump\t// out\n            /* \"contracts/11_CallContract.sol\":592:747  function foo(string memory _message, uint _y) public payable returns(uint){... */\n        tag_22:\n            /* \"contracts/11_CallContract.sol\":661:665  uint */\n          0x00\n            /* \"contracts/11_CallContract.sol\":681:721  Received(msg.sender,msg.value, _message) */\n          0x59e04c3f0d44b7caf6e8ef854b61d9a51cf1960d7a88ff6356cc5e946b4b5832\n            /* \"contracts/11_CallContract.sol\":690:700  msg.sender */\n          caller\n            /* \"contracts/11_CallContract.sol\":701:710  msg.value */\n          callvalue\n            /* \"contracts/11_CallContract.sol\":712:720  _message */\n          dup6\n            /* \"contracts/11_CallContract.sol\":681:721  Received(msg.sender,msg.value, _message) */\n          mload(0x40)\n          tag_31\n          swap4\n          swap3\n          swap2\n          swap1\n          tag_32\n          jump\t// in\n        tag_31:\n          mload(0x40)\n          dup1\n          swap2\n          sub\n          swap1\n          log1\n            /* \"contracts/11_CallContract.sol\":738:740  _y */\n          dup2\n            /* \"contracts/11_CallContract.sol\":731:740  return _y */\n          swap1\n          pop\n            /* \"contracts/11_CallContract.sol\":592:747  function foo(string memory _message, uint _y) public payable returns(uint){... */\n          swap3\n          swap2\n          pop\n          pop\n          jump\t// out\n            /* \"contracts/11_CallContract.sol\":754:841  function getAddress() public view returns(address){... */\n        tag_26:\n            /* \"contracts/11_CallContract.sol\":796:803  address */\n          0x00\n            /* \"contracts/11_CallContract.sol\":829:833  this */\n          address\n            /* \"contracts/11_CallContract.sol\":814:834  return address(this) */\n          swap1\n          pop\n            /* \"contracts/11_CallContract.sol\":754:841  function getAddress() public view returns(address){... */\n          swap1\n          jump\t// out\n            /* \"#utility.yul\":7:419   */\n        tag_35:\n            /* \"#utility.yul\":85:90   */\n          0x00\n            /* \"#utility.yul\":110:176   */\n          tag_37\n            /* \"#utility.yul\":126:175   */\n          tag_38\n            /* \"#utility.yul\":168:174   */\n          dup5\n            /* \"#utility.yul\":126:175   */\n          tag_39\n          jump\t// in\n        tag_38:\n            /* \"#utility.yul\":110:176   */\n          tag_40\n          jump\t// in\n        tag_37:\n            /* \"#utility.yul\":101:176   */\n          swap1\n          pop\n            /* \"#utility.yul\":199:205   */\n          dup3\n            /* \"#utility.yul\":192:197   */\n          dup2\n            /* \"#utility.yul\":185:206   */\n          mstore\n            /* \"#utility.yul\":237:241   */\n          0x20\n            /* \"#utility.yul\":230:235   */\n          dup2\n            /* \"#utility.yul\":226:242   */\n          add\n            /* \"#utility.yul\":275:278   */\n          dup5\n            /* \"#utility.yul\":266:272   */\n          dup5\n            /* \"#utility.yul\":261:264   */\n          dup5\n            /* \"#utility.yul\":257:273   */\n          add\n            /* \"#utility.yul\":254:279   */\n          gt\n            /* \"#utility.yul\":251:363   */\n          iszero\n          tag_41\n          jumpi\n            /* \"#utility.yul\":282:361   */\n          tag_42\n          tag_43\n          jump\t// in\n        tag_42:\n            /* \"#utility.yul\":251:363   */\n        tag_41:\n            /* \"#utility.yul\":372:413   */\n          tag_44\n            /* \"#utility.yul\":406:412   */\n          dup5\n            /* \"#utility.yul\":401:404   */\n          dup3\n            /* \"#utility.yul\":396:399   */\n          dup6\n            /* \"#utility.yul\":372:413   */\n          tag_45\n          jump\t// in\n        tag_44:\n            /* \"#utility.yul\":91:419   */\n          pop\n            /* \"#utility.yul\":7:419   */\n          swap4\n          swap3\n          pop\n          pop\n          pop\n          jump\t// out\n            /* \"#utility.yul\":439:779   */\n        tag_46:\n            /* \"#utility.yul\":495:500   */\n          0x00\n            /* \"#utility.yul\":544:547   */\n          dup3\n            /* \"#utility.yul\":537:541   */\n          0x1f\n            /* \"#utility.yul\":529:535   */\n          dup4\n            /* \"#utility.yul\":525:542   */\n          add\n            /* \"#utility.yul\":521:548   */\n          slt\n            /* \"#utility.yul\":511:633   */\n          tag_48\n          jumpi\n            /* \"#utility.yul\":552:631   */\n          tag_49\n          tag_50\n          jump\t// in\n        tag_49:\n            /* \"#utility.yul\":511:633   */\n        tag_48:\n            /* \"#utility.yul\":669:675   */\n          dup2\n            /* \"#utility.yul\":656:676   */\n          calldataload\n            /* \"#utility.yul\":694:773   */\n          tag_51\n            /* \"#utility.yul\":769:772   */\n          dup5\n            /* \"#utility.yul\":761:767   */\n          dup3\n            /* \"#utility.yul\":754:758   */\n          0x20\n            /* \"#utility.yul\":746:752   */\n          dup7\n            /* \"#utility.yul\":742:759   */\n          add\n            /* \"#utility.yul\":694:773   */\n          tag_35\n          jump\t// in\n        tag_51:\n            /* \"#utility.yul\":685:773   */\n          swap2\n          pop\n            /* \"#utility.yul\":501:779   */\n          pop\n            /* \"#utility.yul\":439:779   */\n          swap3\n          swap2\n          pop\n          pop\n          jump\t// out\n            /* \"#utility.yul\":785:924   */\n        tag_52:\n            /* \"#utility.yul\":831:836   */\n          0x00\n            /* \"#utility.yul\":869:875   */\n          dup2\n            /* \"#utility.yul\":856:876   */\n          calldataload\n            /* \"#utility.yul\":847:876   */\n          swap1\n          pop\n            /* \"#utility.yul\":885:918   */\n          tag_54\n            /* \"#utility.yul\":912:917   */\n          dup2\n            /* \"#utility.yul\":885:918   */\n          tag_55\n          jump\t// in\n        tag_54:\n            /* \"#utility.yul\":785:924   */\n          swap3\n          swap2\n          pop\n          pop\n          jump\t// out\n            /* \"#utility.yul\":930:1584   */\n        tag_21:\n            /* \"#utility.yul\":1008:1014   */\n          0x00\n            /* \"#utility.yul\":1016:1022   */\n          dup1\n            /* \"#utility.yul\":1065:1067   */\n          0x40\n            /* \"#utility.yul\":1053:1062   */\n          dup4\n            /* \"#utility.yul\":1044:1051   */\n          dup6\n            /* \"#utility.yul\":1040:1063   */\n          sub\n            /* \"#utility.yul\":1036:1068   */\n          slt\n            /* \"#utility.yul\":1033:1152   */\n          iszero\n          tag_57\n          jumpi\n            /* \"#utility.yul\":1071:1150   */\n          tag_58\n          tag_59\n          jump\t// in\n        tag_58:\n            /* \"#utility.yul\":1033:1152   */\n        tag_57:\n            /* \"#utility.yul\":1219:1220   */\n          0x00\n            /* \"#utility.yul\":1208:1217   */\n          dup4\n            /* \"#utility.yul\":1204:1221   */\n          add\n            /* \"#utility.yul\":1191:1222   */\n          calldataload\n            /* \"#utility.yul\":1249:1267   */\n          0xffffffffffffffff\n            /* \"#utility.yul\":1241:1247   */\n          dup2\n            /* \"#utility.yul\":1238:1268   */\n          gt\n            /* \"#utility.yul\":1235:1352   */\n          iszero\n          tag_60\n          jumpi\n            /* \"#utility.yul\":1271:1350   */\n          tag_61\n          tag_62\n          jump\t// in\n        tag_61:\n            /* \"#utility.yul\":1235:1352   */\n        tag_60:\n            /* \"#utility.yul\":1376:1439   */\n          tag_63\n            /* \"#utility.yul\":1431:1438   */\n          dup6\n            /* \"#utility.yul\":1422:1428   */\n          dup3\n            /* \"#utility.yul\":1411:1420   */\n          dup7\n            /* \"#utility.yul\":1407:1429   */\n          add\n            /* \"#utility.yul\":1376:1439   */\n          tag_46\n          jump\t// in\n        tag_63:\n            /* \"#utility.yul\":1366:1439   */\n          swap3\n          pop\n            /* \"#utility.yul\":1162:1449   */\n          pop\n            /* \"#utility.yul\":1488:1490   */\n          0x20\n            /* \"#utility.yul\":1514:1567   */\n          tag_64\n            /* \"#utility.yul\":1559:1566   */\n          dup6\n            /* \"#utility.yul\":1550:1556   */\n          dup3\n            /* \"#utility.yul\":1539:1548   */\n          dup7\n            /* \"#utility.yul\":1535:1557   */\n          add\n            /* \"#utility.yul\":1514:1567   */\n          tag_52\n          jump\t// in\n        tag_64:\n            /* \"#utility.yul\":1504:1567   */\n          swap2\n          pop\n            /* \"#utility.yul\":1459:1577   */\n          pop\n            /* \"#utility.yul\":930:1584   */\n          swap3\n          pop\n          swap3\n          swap1\n          pop\n          jump\t// out\n            /* \"#utility.yul\":1590:1708   */\n        tag_65:\n            /* \"#utility.yul\":1677:1701   */\n          tag_67\n            /* \"#utility.yul\":1695:1700   */\n          dup2\n            /* \"#utility.yul\":1677:1701   */\n          tag_68\n          jump\t// in\n        tag_67:\n            /* \"#utility.yul\":1672:1675   */\n          dup3\n            /* \"#utility.yul\":1665:1702   */\n          mstore\n            /* \"#utility.yul\":1590:1708   */\n          pop\n          pop\n          jump\t// out\n            /* \"#utility.yul\":1714:2078   */\n        tag_69:\n            /* \"#utility.yul\":1802:1805   */\n          0x00\n            /* \"#utility.yul\":1830:1869   */\n          tag_71\n            /* \"#utility.yul\":1863:1868   */\n          dup3\n            /* \"#utility.yul\":1830:1869   */\n          tag_72\n          jump\t// in\n        tag_71:\n            /* \"#utility.yul\":1885:1956   */\n          tag_73\n            /* \"#utility.yul\":1949:1955   */\n          dup2\n            /* \"#utility.yul\":1944:1947   */\n          dup6\n            /* \"#utility.yul\":1885:1956   */\n          tag_74\n          jump\t// in\n        tag_73:\n            /* \"#utility.yul\":1878:1956   */\n          swap4\n          pop\n            /* \"#utility.yul\":1965:2017   */\n          tag_75\n            /* \"#utility.yul\":2010:2016   */\n          dup2\n            /* \"#utility.yul\":2005:2008   */\n          dup6\n            /* \"#utility.yul\":1998:2002   */\n          0x20\n            /* \"#utility.yul\":1991:1996   */\n          dup7\n            /* \"#utility.yul\":1987:2003   */\n          add\n            /* \"#utility.yul\":1965:2017   */\n          tag_76\n          jump\t// in\n        tag_75:\n            /* \"#utility.yul\":2042:2071   */\n          tag_77\n            /* \"#utility.yul\":2064:2070   */\n          dup2\n            /* \"#utility.yul\":2042:2071   */\n          tag_78\n          jump\t// in\n        tag_77:\n            /* \"#utility.yul\":2037:2040   */\n          dup5\n            /* \"#utility.yul\":2033:2072   */\n          add\n            /* \"#utility.yul\":2026:2072   */\n          swap2\n          pop\n            /* \"#utility.yul\":1806:2078   */\n          pop\n            /* \"#utility.yul\":1714:2078   */\n          swap3\n          swap2\n          pop\n          pop\n          jump\t// out\n            /* \"#utility.yul\":2084:2450   */\n        tag_79:\n            /* \"#utility.yul\":2226:2229   */\n          0x00\n            /* \"#utility.yul\":2247:2314   */\n          tag_81\n            /* \"#utility.yul\":2311:2313   */\n          0x13\n            /* \"#utility.yul\":2306:2309   */\n          dup4\n            /* \"#utility.yul\":2247:2314   */\n          tag_74\n          jump\t// in\n        tag_81:\n            /* \"#utility.yul\":2240:2314   */\n          swap2\n          pop\n            /* \"#utility.yul\":2323:2416   */\n          tag_82\n            /* \"#utility.yul\":2412:2415   */\n          dup3\n            /* \"#utility.yul\":2323:2416   */\n          tag_83\n          jump\t// in\n        tag_82:\n            /* \"#utility.yul\":2441:2443   */\n          0x20\n            /* \"#utility.yul\":2436:2439   */\n          dup3\n            /* \"#utility.yul\":2432:2444   */\n          add\n            /* \"#utility.yul\":2425:2444   */\n          swap1\n          pop\n            /* \"#utility.yul\":2084:2450   */\n          swap2\n          swap1\n          pop\n          jump\t// out\n            /* \"#utility.yul\":2456:2822   */\n        tag_84:\n            /* \"#utility.yul\":2598:2601   */\n          0x00\n            /* \"#utility.yul\":2619:2686   */\n          tag_86\n            /* \"#utility.yul\":2683:2685   */\n          0x13\n            /* \"#utility.yul\":2678:2681   */\n          dup4\n            /* \"#utility.yul\":2619:2686   */\n          tag_74\n          jump\t// in\n        tag_86:\n            /* \"#utility.yul\":2612:2686   */\n          swap2\n          pop\n            /* \"#utility.yul\":2695:2788   */\n          tag_87\n            /* \"#utility.yul\":2784:2787   */\n          dup3\n            /* \"#utility.yul\":2695:2788   */\n          tag_88\n          jump\t// in\n        tag_87:\n            /* \"#utility.yul\":2813:2815   */\n          0x20\n            /* \"#utility.yul\":2808:2811   */\n          dup3\n            /* \"#utility.yul\":2804:2816   */\n          add\n            /* \"#utility.yul\":2797:2816   */\n          swap1\n          pop\n            /* \"#utility.yul\":2456:2822   */\n          swap2\n          swap1\n          pop\n          jump\t// out\n            /* \"#utility.yul\":2828:2946   */\n        tag_89:\n            /* \"#utility.yul\":2915:2939   */\n          tag_91\n            /* \"#utility.yul\":2933:2938   */\n          dup2\n            /* \"#utility.yul\":2915:2939   */\n          tag_92\n          jump\t// in\n        tag_91:\n            /* \"#utility.yul\":2910:2913   */\n          dup3\n            /* \"#utility.yul\":2903:2940   */\n          mstore\n            /* \"#utility.yul\":2828:2946   */\n          pop\n          pop\n          jump\t// out\n            /* \"#utility.yul\":2952:3174   */\n        tag_28:\n            /* \"#utility.yul\":3045:3049   */\n          0x00\n            /* \"#utility.yul\":3083:3085   */\n          0x20\n            /* \"#utility.yul\":3072:3081   */\n          dup3\n            /* \"#utility.yul\":3068:3086   */\n          add\n            /* \"#utility.yul\":3060:3086   */\n          swap1\n          pop\n            /* \"#utility.yul\":3096:3167   */\n          tag_94\n            /* \"#utility.yul\":3164:3165   */\n          0x00\n            /* \"#utility.yul\":3153:3162   */\n          dup4\n            /* \"#utility.yul\":3149:3166   */\n          add\n            /* \"#utility.yul\":3140:3146   */\n          dup5\n            /* \"#utility.yul\":3096:3167   */\n          tag_65\n          jump\t// in\n        tag_94:\n            /* \"#utility.yul\":2952:3174   */\n          swap3\n          swap2\n          pop\n          pop\n          jump\t// out\n            /* \"#utility.yul\":3180:3713   */\n        tag_32:\n            /* \"#utility.yul\":3349:3353   */\n          0x00\n            /* \"#utility.yul\":3387:3389   */\n          0x60\n            /* \"#utility.yul\":3376:3385   */\n          dup3\n            /* \"#utility.yul\":3372:3390   */\n          add\n            /* \"#utility.yul\":3364:3390   */\n          swap1\n          pop\n            /* \"#utility.yul\":3400:3471   */\n          tag_96\n            /* \"#utility.yul\":3468:3469   */\n          0x00\n            /* \"#utility.yul\":3457:3466   */\n          dup4\n            /* \"#utility.yul\":3453:3470   */\n          add\n            /* \"#utility.yul\":3444:3450   */\n          dup7\n            /* \"#utility.yul\":3400:3471   */\n          tag_65\n          jump\t// in\n        tag_96:\n            /* \"#utility.yul\":3481:3553   */\n          tag_97\n            /* \"#utility.yul\":3549:3551   */\n          0x20\n            /* \"#utility.yul\":3538:3547   */\n          dup4\n            /* \"#utility.yul\":3534:3552   */\n          add\n            /* \"#utility.yul\":3525:3531   */\n          dup6\n            /* \"#utility.yul\":3481:3553   */\n          tag_89\n          jump\t// in\n        tag_97:\n            /* \"#utility.yul\":3600:3609   */\n          dup2\n            /* \"#utility.yul\":3594:3598   */\n          dup2\n            /* \"#utility.yul\":3590:3610   */\n          sub\n            /* \"#utility.yul\":3585:3587   */\n          0x40\n            /* \"#utility.yul\":3574:3583   */\n          dup4\n            /* \"#utility.yul\":3570:3588   */\n          add\n            /* \"#utility.yul\":3563:3611   */\n          mstore\n            /* \"#utility.yul\":3628:3706   */\n          tag_98\n            /* \"#utility.yul\":3701:3705   */\n          dup2\n            /* \"#utility.yul\":3692:3698   */\n          dup5\n            /* \"#utility.yul\":3628:3706   */\n          tag_69\n          jump\t// in\n        tag_98:\n            /* \"#utility.yul\":3620:3706   */\n          swap1\n          pop\n            /* \"#utility.yul\":3180:3713   */\n          swap5\n          swap4\n          pop\n          pop\n          pop\n          pop\n          jump\t// out\n            /* \"#utility.yul\":3719:4358   */\n        tag_13:\n            /* \"#utility.yul\":3941:3945   */\n          0x00\n            /* \"#utility.yul\":3979:3981   */\n          0x60\n            /* \"#utility.yul\":3968:3977   */\n          dup3\n            /* \"#utility.yul\":3964:3982   */\n          add\n            /* \"#utility.yul\":3956:3982   */\n          swap1\n          pop\n            /* \"#utility.yul\":3992:4063   */\n          tag_100\n            /* \"#utility.yul\":4060:4061   */\n          0x00\n            /* \"#utility.yul\":4049:4058   */\n          dup4\n            /* \"#utility.yul\":4045:4062   */\n          add\n            /* \"#utility.yul\":4036:4042   */\n          dup6\n            /* \"#utility.yul\":3992:4063   */\n          tag_65\n          jump\t// in\n        tag_100:\n            /* \"#utility.yul\":4073:4145   */\n          tag_101\n            /* \"#utility.yul\":4141:4143   */\n          0x20\n            /* \"#utility.yul\":4130:4139   */\n          dup4\n            /* \"#utility.yul\":4126:4144   */\n          add\n            /* \"#utility.yul\":4117:4123   */\n          dup5\n            /* \"#utility.yul\":4073:4145   */\n          tag_89\n          jump\t// in\n        tag_101:\n            /* \"#utility.yul\":4192:4201   */\n          dup2\n            /* \"#utility.yul\":4186:4190   */\n          dup2\n            /* \"#utility.yul\":4182:4202   */\n          sub\n            /* \"#utility.yul\":4177:4179   */\n          0x40\n            /* \"#utility.yul\":4166:4175   */\n          dup4\n            /* \"#utility.yul\":4162:4180   */\n          add\n            /* \"#utility.yul\":4155:4203   */\n          mstore\n            /* \"#utility.yul\":4220:4351   */\n          tag_102\n            /* \"#utility.yul\":4346:4350   */\n          dup2\n            /* \"#utility.yul\":4220:4351   */\n          tag_79\n          jump\t// in\n        tag_102:\n            /* \"#utility.yul\":4212:4351   */\n          swap1\n          pop\n            /* \"#utility.yul\":3719:4358   */\n          swap4\n          swap3\n          pop\n          pop\n          pop\n          jump\t// out\n            /* \"#utility.yul\":4364:5003   */\n        tag_9:\n            /* \"#utility.yul\":4586:4590   */\n          0x00\n            /* \"#utility.yul\":4624:4626   */\n          0x60\n            /* \"#utility.yul\":4613:4622   */\n          dup3\n            /* \"#utility.yul\":4609:4627   */\n          add\n            /* \"#utility.yul\":4601:4627   */\n          swap1\n          pop\n            /* \"#utility.yul\":4637:4708   */\n          tag_104\n            /* \"#utility.yul\":4705:4706   */\n          0x00\n            /* \"#utility.yul\":4694:4703   */\n          dup4\n            /* \"#utility.yul\":4690:4707   */\n          add\n            /* \"#utility.yul\":4681:4687   */\n          dup6\n            /* \"#utility.yul\":4637:4708   */\n          tag_65\n          jump\t// in\n        tag_104:\n            /* \"#utility.yul\":4718:4790   */\n          tag_105\n            /* \"#utility.yul\":4786:4788   */\n          0x20\n            /* \"#utility.yul\":4775:4784   */\n          dup4\n            /* \"#utility.yul\":4771:4789   */\n          add\n            /* \"#utility.yul\":4762:4768   */\n          dup5\n            /* \"#utility.yul\":4718:4790   */\n          tag_89\n          jump\t// in\n        tag_105:\n            /* \"#utility.yul\":4837:4846   */\n          dup2\n            /* \"#utility.yul\":4831:4835   */\n          dup2\n            /* \"#utility.yul\":4827:4847   */\n          sub\n            /* \"#utility.yul\":4822:4824   */\n          0x40\n            /* \"#utility.yul\":4811:4820   */\n          dup4\n            /* \"#utility.yul\":4807:4825   */\n          add\n            /* \"#utility.yul\":4800:4848   */\n          mstore\n            /* \"#utility.yul\":4865:4996   */\n          tag_106\n            /* \"#utility.yul\":4991:4995   */\n          dup2\n            /* \"#utility.yul\":4865:4996   */\n          tag_84\n          jump\t// in\n        tag_106:\n            /* \"#utility.yul\":4857:4996   */\n          swap1\n          pop\n            /* \"#utility.yul\":4364:5003   */\n          swap4\n          swap3\n          pop\n          pop\n          pop\n          jump\t// out\n            /* \"#utility.yul\":5009:5231   */\n        tag_18:\n            /* \"#utility.yul\":5102:5106   */\n          0x00\n            /* \"#utility.yul\":5140:5142   */\n          0x20\n            /* \"#utility.yul\":5129:5138   */\n          dup3\n            /* \"#utility.yul\":5125:5143   */\n          add\n            /* \"#utility.yul\":5117:5143   */\n          swap1\n          pop\n            /* \"#utility.yul\":5153:5224   */\n          tag_108\n            /* \"#utility.yul\":5221:5222   */\n          0x00\n            /* \"#utility.yul\":5210:5219   */\n          dup4\n            /* \"#utility.yul\":5206:5223   */\n          add\n            /* \"#utility.yul\":5197:5203   */\n          dup5\n            /* \"#utility.yul\":5153:5224   */\n          tag_89\n          jump\t// in\n        tag_108:\n            /* \"#utility.yul\":5009:5231   */\n          swap3\n          swap2\n          pop\n          pop\n          jump\t// out\n            /* \"#utility.yul\":5237:5366   */\n        tag_40:\n            /* \"#utility.yul\":5271:5277   */\n          0x00\n            /* \"#utility.yul\":5298:5318   */\n          tag_110\n          tag_111\n          jump\t// in\n        tag_110:\n            /* \"#utility.yul\":5288:5318   */\n          swap1\n          pop\n            /* \"#utility.yul\":5327:5360   */\n          tag_112\n            /* \"#utility.yul\":5355:5359   */\n          dup3\n            /* \"#utility.yul\":5347:5353   */\n          dup3\n            /* \"#utility.yul\":5327:5360   */\n          tag_113\n          jump\t// in\n        tag_112:\n            /* \"#utility.yul\":5237:5366   */\n          swap2\n          swap1\n          pop\n          jump\t// out\n            /* \"#utility.yul\":5372:5447   */\n        tag_111:\n            /* \"#utility.yul\":5405:5411   */\n          0x00\n            /* \"#utility.yul\":5438:5440   */\n          0x40\n            /* \"#utility.yul\":5432:5441   */\n          mload\n            /* \"#utility.yul\":5422:5441   */\n          swap1\n          pop\n            /* \"#utility.yul\":5372:5447   */\n          swap1\n          jump\t// out\n            /* \"#utility.yul\":5453:5761   */\n        tag_39:\n            /* \"#utility.yul\":5515:5519   */\n          0x00\n            /* \"#utility.yul\":5605:5623   */\n          0xffffffffffffffff\n            /* \"#utility.yul\":5597:5603   */\n          dup3\n            /* \"#utility.yul\":5594:5624   */\n          gt\n            /* \"#utility.yul\":5591:5647   */\n          iszero\n          tag_116\n          jumpi\n            /* \"#utility.yul\":5627:5645   */\n          tag_117\n          tag_118\n          jump\t// in\n        tag_117:\n            /* \"#utility.yul\":5591:5647   */\n        tag_116:\n            /* \"#utility.yul\":5665:5694   */\n          tag_119\n            /* \"#utility.yul\":5687:5693   */\n          dup3\n            /* \"#utility.yul\":5665:5694   */\n          tag_78\n          jump\t// in\n        tag_119:\n            /* \"#utility.yul\":5657:5694   */\n          swap1\n          pop\n            /* \"#utility.yul\":5749:5753   */\n          0x20\n            /* \"#utility.yul\":5743:5747   */\n          dup2\n            /* \"#utility.yul\":5739:5754   */\n          add\n            /* \"#utility.yul\":5731:5754   */\n          swap1\n          pop\n            /* \"#utility.yul\":5453:5761   */\n          swap2\n          swap1\n          pop\n          jump\t// out\n            /* \"#utility.yul\":5767:5866   */\n        tag_72:\n            /* \"#utility.yul\":5819:5825   */\n          0x00\n            /* \"#utility.yul\":5853:5858   */\n          dup2\n            /* \"#utility.yul\":5847:5859   */\n          mload\n            /* \"#utility.yul\":5837:5859   */\n          swap1\n          pop\n            /* \"#utility.yul\":5767:5866   */\n          swap2\n          swap1\n          pop\n          jump\t// out\n            /* \"#utility.yul\":5872:6041   */\n        tag_74:\n            /* \"#utility.yul\":5956:5967   */\n          0x00\n            /* \"#utility.yul\":5990:5996   */\n          dup3\n            /* \"#utility.yul\":5985:5988   */\n          dup3\n            /* \"#utility.yul\":5978:5997   */\n          mstore\n            /* \"#utility.yul\":6030:6034   */\n          0x20\n            /* \"#utility.yul\":6025:6028   */\n          dup3\n            /* \"#utility.yul\":6021:6035   */\n          add\n            /* \"#utility.yul\":6006:6035   */\n          swap1\n          pop\n            /* \"#utility.yul\":5872:6041   */\n          swap3\n          swap2\n          pop\n          pop\n          jump\t// out\n            /* \"#utility.yul\":6047:6143   */\n        tag_68:\n            /* \"#utility.yul\":6084:6091   */\n          0x00\n            /* \"#utility.yul\":6113:6137   */\n          tag_123\n            /* \"#utility.yul\":6131:6136   */\n          dup3\n            /* \"#utility.yul\":6113:6137   */\n          tag_124\n          jump\t// in\n        tag_123:\n            /* \"#utility.yul\":6102:6137   */\n          swap1\n          pop\n            /* \"#utility.yul\":6047:6143   */\n          swap2\n          swap1\n          pop\n          jump\t// out\n            /* \"#utility.yul\":6149:6275   */\n        tag_124:\n            /* \"#utility.yul\":6186:6193   */\n          0x00\n            /* \"#utility.yul\":6226:6268   */\n          0xffffffffffffffffffffffffffffffffffffffff\n            /* \"#utility.yul\":6219:6224   */\n          dup3\n            /* \"#utility.yul\":6215:6269   */\n          and\n            /* \"#utility.yul\":6204:6269   */\n          swap1\n          pop\n            /* \"#utility.yul\":6149:6275   */\n          swap2\n          swap1\n          pop\n          jump\t// out\n            /* \"#utility.yul\":6281:6358   */\n        tag_92:\n            /* \"#utility.yul\":6318:6325   */\n          0x00\n            /* \"#utility.yul\":6347:6352   */\n          dup2\n            /* \"#utility.yul\":6336:6352   */\n          swap1\n          pop\n            /* \"#utility.yul\":6281:6358   */\n          swap2\n          swap1\n          pop\n          jump\t// out\n            /* \"#utility.yul\":6364:6518   */\n        tag_45:\n            /* \"#utility.yul\":6448:6454   */\n          dup3\n            /* \"#utility.yul\":6443:6446   */\n          dup2\n            /* \"#utility.yul\":6438:6441   */\n          dup4\n            /* \"#utility.yul\":6425:6455   */\n          calldatacopy\n            /* \"#utility.yul\":6510:6511   */\n          0x00\n            /* \"#utility.yul\":6501:6507   */\n          dup4\n            /* \"#utility.yul\":6496:6499   */\n          dup4\n            /* \"#utility.yul\":6492:6508   */\n          add\n            /* \"#utility.yul\":6485:6512   */\n          mstore\n            /* \"#utility.yul\":6364:6518   */\n          pop\n          pop\n          pop\n          jump\t// out\n            /* \"#utility.yul\":6524:6831   */\n        tag_76:\n            /* \"#utility.yul\":6592:6593   */\n          0x00\n            /* \"#utility.yul\":6602:6715   */\n        tag_129:\n            /* \"#utility.yul\":6616:6622   */\n          dup4\n            /* \"#utility.yul\":6613:6614   */\n          dup2\n            /* \"#utility.yul\":6610:6623   */\n          lt\n            /* \"#utility.yul\":6602:6715   */\n          iszero\n          tag_131\n          jumpi\n            /* \"#utility.yul\":6701:6702   */\n          dup1\n            /* \"#utility.yul\":6696:6699   */\n          dup3\n            /* \"#utility.yul\":6692:6703   */\n          add\n            /* \"#utility.yul\":6686:6704   */\n          mload\n            /* \"#utility.yul\":6682:6683   */\n          dup2\n            /* \"#utility.yul\":6677:6680   */\n          dup5\n            /* \"#utility.yul\":6673:6684   */\n          add\n            /* \"#utility.yul\":6666:6705   */\n          mstore\n            /* \"#utility.yul\":6638:6640   */\n          0x20\n            /* \"#utility.yul\":6635:6636   */\n          dup2\n            /* \"#utility.yul\":6631:6641   */\n          add\n            /* \"#utility.yul\":6626:6641   */\n          swap1\n          pop\n            /* \"#utility.yul\":6602:6715   */\n          jump(tag_129)\n        tag_131:\n            /* \"#utility.yul\":6733:6739   */\n          dup4\n            /* \"#utility.yul\":6730:6731   */\n          dup2\n            /* \"#utility.yul\":6727:6740   */\n          gt\n            /* \"#utility.yul\":6724:6825   */\n          iszero\n          tag_132\n          jumpi\n            /* \"#utility.yul\":6813:6814   */\n          0x00\n            /* \"#utility.yul\":6804:6810   */\n          dup5\n            /* \"#utility.yul\":6799:6802   */\n          dup5\n            /* \"#utility.yul\":6795:6811   */\n          add\n            /* \"#utility.yul\":6788:6815   */\n          mstore\n            /* \"#utility.yul\":6724:6825   */\n        tag_132:\n            /* \"#utility.yul\":6573:6831   */\n          pop\n            /* \"#utility.yul\":6524:6831   */\n          pop\n          pop\n          pop\n          jump\t// out\n            /* \"#utility.yul\":6837:7118   */\n        tag_113:\n            /* \"#utility.yul\":6920:6947   */\n          tag_134\n            /* \"#utility.yul\":6942:6946   */\n          dup3\n            /* \"#utility.yul\":6920:6947   */\n          tag_78\n          jump\t// in\n        tag_134:\n            /* \"#utility.yul\":6912:6918   */\n          dup2\n            /* \"#utility.yul\":6908:6948   */\n          add\n            /* \"#utility.yul\":7050:7056   */\n          dup2\n            /* \"#utility.yul\":7038:7048   */\n          dup2\n            /* \"#utility.yul\":7035:7057   */\n          lt\n            /* \"#utility.yul\":7014:7032   */\n          0xffffffffffffffff\n            /* \"#utility.yul\":7002:7012   */\n          dup3\n            /* \"#utility.yul\":6999:7033   */\n          gt\n            /* \"#utility.yul\":6996:7058   */\n          or\n            /* \"#utility.yul\":6993:7081   */\n          iszero\n          tag_135\n          jumpi\n            /* \"#utility.yul\":7061:7079   */\n          tag_136\n          tag_118\n          jump\t// in\n        tag_136:\n            /* \"#utility.yul\":6993:7081   */\n        tag_135:\n            /* \"#utility.yul\":7101:7111   */\n          dup1\n            /* \"#utility.yul\":7097:7099   */\n          0x40\n            /* \"#utility.yul\":7090:7112   */\n          mstore\n            /* \"#utility.yul\":6880:7118   */\n          pop\n            /* \"#utility.yul\":6837:7118   */\n          pop\n          pop\n          jump\t// out\n            /* \"#utility.yul\":7124:7304   */\n        tag_118:\n            /* \"#utility.yul\":7172:7249   */\n          0x4e487b7100000000000000000000000000000000000000000000000000000000\n            /* \"#utility.yul\":7169:7170   */\n          0x00\n            /* \"#utility.yul\":7162:7250   */\n          mstore\n            /* \"#utility.yul\":7269:7273   */\n          0x41\n            /* \"#utility.yul\":7266:7267   */\n          0x04\n            /* \"#utility.yul\":7259:7274   */\n          mstore\n            /* \"#utility.yul\":7293:7297   */\n          0x24\n            /* \"#utility.yul\":7290:7291   */\n          0x00\n            /* \"#utility.yul\":7283:7298   */\n          revert\n            /* \"#utility.yul\":7310:7427   */\n        tag_50:\n            /* \"#utility.yul\":7419:7420   */\n          0x00\n            /* \"#utility.yul\":7416:7417   */\n          dup1\n            /* \"#utility.yul\":7409:7421   */\n          revert\n            /* \"#utility.yul\":7433:7550   */\n        tag_43:\n            /* \"#utility.yul\":7542:7543   */\n          0x00\n            /* \"#utility.yul\":7539:7540   */\n          dup1\n            /* \"#utility.yul\":7532:7544   */\n          revert\n            /* \"#utility.yul\":7556:7673   */\n        tag_62:\n            /* \"#utility.yul\":7665:7666   */\n          0x00\n            /* \"#utility.yul\":7662:7663   */\n          dup1\n            /* \"#utility.yul\":7655:7667   */\n          revert\n            /* \"#utility.yul\":7679:7796   */\n        tag_59:\n            /* \"#utility.yul\":7788:7789   */\n          0x00\n            /* \"#utility.yul\":7785:7786   */\n          dup1\n            /* \"#utility.yul\":7778:7790   */\n          revert\n            /* \"#utility.yul\":7802:7904   */\n        tag_78:\n            /* \"#utility.yul\":7843:7849   */\n          0x00\n            /* \"#utility.yul\":7894:7896   */\n          0x1f\n            /* \"#utility.yul\":7890:7897   */\n          not\n            /* \"#utility.yul\":7885:7887   */\n          0x1f\n            /* \"#utility.yul\":7878:7883   */\n          dup4\n            /* \"#utility.yul\":7874:7888   */\n          add\n            /* \"#utility.yul\":7870:7898   */\n          and\n            /* \"#utility.yul\":7860:7898   */\n          swap1\n          pop\n            /* \"#utility.yul\":7802:7904   */\n          swap2\n          swap1\n          pop\n          jump\t// out\n            /* \"#utility.yul\":7910:8079   */\n        tag_83:\n            /* \"#utility.yul\":8050:8071   */\n          0x46616c6c6261636b207761732063616c6c656400000000000000000000000000\n            /* \"#utility.yul\":8046:8047   */\n          0x00\n            /* \"#utility.yul\":8038:8044   */\n          dup3\n            /* \"#utility.yul\":8034:8048   */\n          add\n            /* \"#utility.yul\":8027:8072   */\n          mstore\n            /* \"#utility.yul\":7910:8079   */\n          pop\n          jump\t// out\n            /* \"#utility.yul\":8085:8254   */\n        tag_88:\n            /* \"#utility.yul\":8225:8246   */\n          0x5265636569766564207761732063616c6c656400000000000000000000000000\n            /* \"#utility.yul\":8221:8222   */\n          0x00\n            /* \"#utility.yul\":8213:8219   */\n          dup3\n            /* \"#utility.yul\":8209:8223   */\n          add\n            /* \"#utility.yul\":8202:8247   */\n          mstore\n            /* \"#utility.yul\":8085:8254   */\n          pop\n          jump\t// out\n            /* \"#utility.yul\":8260:8382   */\n        tag_55:\n            /* \"#utility.yul\":8333:8357   */\n          tag_146\n            /* \"#utility.yul\":8351:8356   */\n          dup2\n            /* \"#utility.yul\":8333:8357   */\n          tag_92\n          jump\t// in\n        tag_146:\n            /* \"#utility.yul\":8326:8331   */\n          dup2\n            /* \"#utility.yul\":8323:8358   */\n          eq\n            /* \"#utility.yul\":8313:8376   */\n          tag_147\n          jumpi\n            /* \"#utility.yul\":8372:8373   */\n          0x00\n            /* \"#utility.yul\":8369:8370   */\n          dup1\n            /* \"#utility.yul\":8362:8374   */\n          revert\n            /* \"#utility.yul\":8313:8376   */\n        tag_147:\n            /* \"#utility.yul\":8260:8382   */\n          pop\n          jump\t// out\n\n        auxdata: 0xa2646970667358221220062e54ed3b84925d72ac3a4071dab08d4ca43d38943d845abee17731c10d4d1764736f6c63430008070033\n    }\n}\n",
				"bytecode": {
					"linkReferences": {},
					"object": "608060405234801561001057600080fd5b5060405161001d9061007e565b604051809103906000f080158015610039573d6000803e3d6000fd5b506000806101000a81548173ffffffffffffffffffffffffffffffffffffffff021916908373ffffffffffffffffffffffffffffffffffffffff16021790555061008b565b61062d8061079f83390190565b6107058061009a6000396000f3fe6080604052600436106100345760003560e01c806312065fe01461003957806338cc48311461006457806359c75ada1461008f575b600080fd5b34801561004557600080fd5b5061004e6100ab565b60405161005b919061056b565b60405180910390f35b34801561007057600080fd5b50610079610151565b60405161008691906104f2565b60405180910390f35b6100a960048036038101906100a491906103b4565b6101f7565b005b60008060009054906101000a900473ffffffffffffffffffffffffffffffffffffffff1673ffffffffffffffffffffffffffffffffffffffff166312065fe06040518163ffffffff1660e01b815260040160206040518083038186803b15801561011457600080fd5b505afa158015610128573d6000803e3d6000fd5b505050506040513d601f19601f8201168201806040525081019061014c91906103f4565b905090565b60008060009054906101000a900473ffffffffffffffffffffffffffffffffffffffff1673ffffffffffffffffffffffffffffffffffffffff166338cc48316040518163ffffffff1660e01b815260040160206040518083038186803b1580156101ba57600080fd5b505afa1580156101ce573d6000803e3d6000fd5b505050506040513d601f19601f820116820180604052508101906101f29190610387565b905090565b6000808373ffffffffffffffffffffffffffffffffffffffff163484604051602401610223919061053d565b6040516020818303038152906040527f24ccab8f000000000000000000000000000000000000000000000000000000007bffffffffffffffffffffffffffffffffffffffffffffffffffffffff19166020820180517bffffffffffffffffffffffffffffffffffffffffffffffffffffffff83818316178352505050506040516102ad91906104db565b60006040518083038185875af1925050503d80600081146102ea576040519150601f19603f3d011682016040523d82523d6000602084013e6102ef565b606091505b50915091507f13848c3e38f8886f3f5d2ad9dff80d8092c2bbb8efd5b887a99c2c6cfc09ac2a828260405161032592919061050d565b60405180910390a150505050565b6000815190506103428161068a565b92915050565b600081359050610357816106a1565b92915050565b60008135905061036c816106b8565b92915050565b600081519050610381816106b8565b92915050565b60006020828403121561039d5761039c61064b565b5b60006103ab84828501610333565b91505092915050565b600080604083850312156103cb576103ca61064b565b5b60006103d985828601610348565b92505060206103ea8582860161035d565b9150509250929050565b60006020828403121561040a5761040961064b565b5b600061041884828501610372565b91505092915050565b61042a816105be565b82525050565b610439816105e2565b82525050565b600061044a82610586565b6104548185610591565b9350610464818560208601610618565b61046d81610650565b840191505092915050565b600061048382610586565b61048d81856105a2565b935061049d818560208601610618565b80840191505092915050565b60006104b66008836105ad565b91506104c182610661565b602082019050919050565b6104d58161060e565b82525050565b60006104e78284610478565b915081905092915050565b60006020820190506105076000830184610421565b92915050565b60006040820190506105226000830185610430565b8181036020830152610534818461043f565b90509392505050565b60006040820190508181036000830152610556816104a9565b905061056560208301846104cc565b92915050565b600060208201905061058060008301846104cc565b92915050565b600081519050919050565b600082825260208201905092915050565b600081905092915050565b600082825260208201905092915050565b60006105c9826105ee565b9050919050565b60006105db826105ee565b9050919050565b60008115159050919050565b600073ffffffffffffffffffffffffffffffffffffffff82169050919050565b6000819050919050565b60005b8381101561063657808201518184015260208101905061061b565b83811115610645576000848401525b50505050565b600080fd5b6000601f19601f8301169050919050565b7f63616c6c20666f6f000000000000000000000000000000000000000000000000600082015250565b610693816105be565b811461069e57600080fd5b50565b6106aa816105d0565b81146106b557600080fd5b50565b6106c18161060e565b81146106cc57600080fd5b5056fea2646970667358221220106a914080cb5fc067c8842a11db717cd167db08a3298f1b4515bebd999cc93264736f6c63430008070033608060405234801561001057600080fd5b5061060d806100206000396000f3fe6080604052600436106100385760003560e01c806312065fe0146100b357806324ccab8f146100de57806338cc48311461010e57610078565b36610078577f59e04c3f0d44b7caf6e8ef854b61d9a51cf1960d7a88ff6356cc5e946b4b5832333460405161006e9291906103a2565b60405180910390a1005b7f59e04c3f0d44b7caf6e8ef854b61d9a51cf1960d7a88ff6356cc5e946b4b583233346040516100a9929190610366565b60405180910390a1005b3480156100bf57600080fd5b506100c8610139565b6040516100d591906103de565b60405180910390f35b6100f860048036038101906100f39190610214565b610141565b60405161010591906103de565b60405180910390f35b34801561011a57600080fd5b50610123610187565b604051610130919061030d565b60405180910390f35b600047905090565b60007f59e04c3f0d44b7caf6e8ef854b61d9a51cf1960d7a88ff6356cc5e946b4b583233348560405161017693929190610328565b60405180910390a181905092915050565b600030905090565b60006101a261019d8461041e565b6103f9565b9050828152602081018484840111156101be576101bd61054e565b5b6101c98482856104a7565b509392505050565b600082601f8301126101e6576101e5610549565b5b81356101f684826020860161018f565b91505092915050565b60008135905061020e816105c0565b92915050565b6000806040838503121561022b5761022a610558565b5b600083013567ffffffffffffffff81111561024957610248610553565b5b610255858286016101d1565b9250506020610266858286016101ff565b9150509250929050565b6102798161046b565b82525050565b600061028a8261044f565b610294818561045a565b93506102a48185602086016104b6565b6102ad8161055d565b840191505092915050565b60006102c560138361045a565b91506102d08261056e565b602082019050919050565b60006102e860138361045a565b91506102f382610597565b602082019050919050565b6103078161049d565b82525050565b60006020820190506103226000830184610270565b92915050565b600060608201905061033d6000830186610270565b61034a60208301856102fe565b818103604083015261035c818461027f565b9050949350505050565b600060608201905061037b6000830185610270565b61038860208301846102fe565b8181036040830152610399816102b8565b90509392505050565b60006060820190506103b76000830185610270565b6103c460208301846102fe565b81810360408301526103d5816102db565b90509392505050565b60006020820190506103f360008301846102fe565b92915050565b6000610403610414565b905061040f82826104e9565b919050565b6000604051905090565b600067ffffffffffffffff8211156104395761043861051a565b5b6104428261055d565b9050602081019050919050565b600081519050919050565b600082825260208201905092915050565b60006104768261047d565b9050919050565b600073ffffffffffffffffffffffffffffffffffffffff82169050919050565b6000819050919050565b82818337600083830152505050565b60005b838110156104d45780820151818401526020810190506104b9565b838111156104e3576000848401525b50505050565b6104f28261055d565b810181811067ffffffffffffffff821117156105115761051061051a565b5b80604052505050565b7f4e487b7100000000000000000000000000000000000000000000000000000000600052604160045260246000fd5b600080fd5b600080fd5b600080fd5b600080fd5b6000601f19601f8301169050919050565b7f46616c6c6261636b207761732063616c6c656400000000000000000000000000600082015250565b7f5265636569766564207761732063616c6c656400000000000000000000000000600082015250565b6105c98161049d565b81146105d457600080fd5b5056fea2646970667358221220062e54ed3b84925d72ac3a4071dab08d4ca43d38943d845abee17731c10d4d1764736f6c63430008070033",
					"opcodes": "PUSH1 0x80 PUSH1 0x40 MSTORE CALLVALUE DUP1 ISZERO PUSH2 0x10 JUMPI PUSH1 0x0 DUP1 REVERT JUMPDEST POP PUSH1 0x40 MLOAD PUSH2 0x1D SWAP1 PUSH2 0x7E JUMP JUMPDEST PUSH1 0x40 MLOAD DUP1 SWAP2 SUB SWAP1 PUSH1 0x0 CREATE DUP1 ISZERO DUP1 ISZERO PUSH2 0x39 JUMPI RETURNDATASIZE PUSH1 0x0 DUP1 RETURNDATACOPY RETURNDATASIZE PUSH1 0x0 REVERT JUMPDEST POP PUSH1 0x0 DUP1 PUSH2 0x100 EXP DUP2 SLOAD DUP2 PUSH20 0xFFFFFFFFFFFFFFFFFFFFFFFFFFFFFFFFFFFFFFFF MUL NOT AND SWAP1 DUP4 PUSH20 0xFFFFFFFFFFFFFFFFFFFFFFFFFFFFFFFFFFFFFFFF AND MUL OR SWAP1 SSTORE POP PUSH2 0x8B JUMP JUMPDEST PUSH2 0x62D DUP1 PUSH2 0x79F DUP4 CODECOPY ADD SWAP1 JUMP JUMPDEST PUSH2 0x705 DUP1 PUSH2 0x9A PUSH1 0x0 CODECOPY PUSH1 0x0 RETURN INVALID PUSH1 0x80 PUSH1 0x40 MSTORE PUSH1 0x4 CALLDATASIZE LT PUSH2 0x34 JUMPI PUSH1 0x0 CALLDATALOAD PUSH1 0xE0 SHR DUP1 PUSH4 0x12065FE0 EQ PUSH2 0x39 JUMPI DUP1 PUSH4 0x38CC4831 EQ PUSH2 0x64 JUMPI DUP1 PUSH4 0x59C75ADA EQ PUSH2 0x8F JUMPI JUMPDEST PUSH1 0x0 DUP1 REVERT JUMPDEST CALLVALUE DUP1 ISZERO PUSH2 0x45 JUMPI PUSH1 0x0 DUP1 REVERT JUMPDEST POP PUSH2 0x4E PUSH2 0xAB JUMP JUMPDEST PUSH1 0x40 MLOAD PUSH2 0x5B SWAP2 SWAP1 PUSH2 0x56B JUMP JUMPDEST PUSH1 0x40 MLOAD DUP1 SWAP2 SUB SWAP1 RETURN JUMPDEST CALLVALUE DUP1 ISZERO PUSH2 0x70 JUMPI PUSH1 0x0 DUP1 REVERT JUMPDEST POP PUSH2 0x79 PUSH2 0x151 JUMP JUMPDEST PUSH1 0x40 MLOAD PUSH2 0x86 SWAP2 SWAP1 PUSH2 0x4F2 JUMP JUMPDEST PUSH1 0x40 MLOAD DUP1 SWAP2 SUB SWAP1 RETURN JUMPDEST PUSH2 0xA9 PUSH1 0x4 DUP1 CALLDATASIZE SUB DUP2 ADD SWAP1 PUSH2 0xA4 SWAP2 SWAP1 PUSH2 0x3B4 JUMP JUMPDEST PUSH2 0x1F7 JUMP JUMPDEST STOP JUMPDEST PUSH1 0x0 DUP1 PUSH1 0x0 SWAP1 SLOAD SWAP1 PUSH2 0x100 EXP SWAP1 DIV PUSH20 0xFFFFFFFFFFFFFFFFFFFFFFFFFFFFFFFFFFFFFFFF AND PUSH20 0xFFFFFFFFFFFFFFFFFFFFFFFFFFFFFFFFFFFFFFFF AND PUSH4 0x12065FE0 PUSH1 0x40 MLOAD DUP2 PUSH4 0xFFFFFFFF AND PUSH1 0xE0 SHL DUP2 MSTORE PUSH1 0x4 ADD PUSH1 0x20 PUSH1 0x40 MLOAD DUP1 DUP4 SUB DUP2 DUP7 DUP1 EXTCODESIZE ISZERO DUP1 ISZERO PUSH2 0x114 JUMPI PUSH1 0x0 DUP1 REVERT JUMPDEST POP GAS STATICCALL ISZERO DUP1 ISZERO PUSH2 0x128 JUMPI RETURNDATASIZE PUSH1 0x0 DUP1 RETURNDATACOPY RETURNDATASIZE PUSH1 0x0 REVERT JUMPDEST POP POP POP POP PUSH1 0x40 MLOAD RETURNDATASIZE PUSH1 0x1F NOT PUSH1 0x1F DUP3 ADD AND DUP3 ADD DUP1 PUSH1 0x40 MSTORE POP DUP2 ADD SWAP1 PUSH2 0x14C SWAP2 SWAP1 PUSH2 0x3F4 JUMP JUMPDEST SWAP1 POP SWAP1 JUMP JUMPDEST PUSH1 0x0 DUP1 PUSH1 0x0 SWAP1 SLOAD SWAP1 PUSH2 0x100 EXP SWAP1 DIV PUSH20 0xFFFFFFFFFFFFFFFFFFFFFFFFFFFFFFFFFFFFFFFF AND PUSH20 0xFFFFFFFFFFFFFFFFFFFFFFFFFFFFFFFFFFFFFFFF AND PUSH4 0x38CC4831 PUSH1 0x40 MLOAD DUP2 PUSH4 0xFFFFFFFF AND PUSH1 0xE0 SHL DUP2 MSTORE PUSH1 0x4 ADD PUSH1 0x20 PUSH1 0x40 MLOAD DUP1 DUP4 SUB DUP2 DUP7 DUP1 EXTCODESIZE ISZERO DUP1 ISZERO PUSH2 0x1BA JUMPI PUSH1 0x0 DUP1 REVERT JUMPDEST POP GAS STATICCALL ISZERO DUP1 ISZERO PUSH2 0x1CE JUMPI RETURNDATASIZE PUSH1 0x0 DUP1 RETURNDATACOPY RETURNDATASIZE PUSH1 0x0 REVERT JUMPDEST POP POP POP POP PUSH1 0x40 MLOAD RETURNDATASIZE PUSH1 0x1F NOT PUSH1 0x1F DUP3 ADD AND DUP3 ADD DUP1 PUSH1 0x40 MSTORE POP DUP2 ADD SWAP1 PUSH2 0x1F2 SWAP2 SWAP1 PUSH2 0x387 JUMP JUMPDEST SWAP1 POP SWAP1 JUMP JUMPDEST PUSH1 0x0 DUP1 DUP4 PUSH20 0xFFFFFFFFFFFFFFFFFFFFFFFFFFFFFFFFFFFFFFFF AND CALLVALUE DUP5 PUSH1 0x40 MLOAD PUSH1 0x24 ADD PUSH2 0x223 SWAP2 SWAP1 PUSH2 0x53D JUMP JUMPDEST PUSH1 0x40 MLOAD PUSH1 0x20 DUP2 DUP4 SUB SUB DUP2 MSTORE SWAP1 PUSH1 0x40 MSTORE PUSH32 0x24CCAB8F00000000000000000000000000000000000000000000000000000000 PUSH28 0xFFFFFFFFFFFFFFFFFFFFFFFFFFFFFFFFFFFFFFFFFFFFFFFFFFFFFFFF NOT AND PUSH1 0x20 DUP3 ADD DUP1 MLOAD PUSH28 0xFFFFFFFFFFFFFFFFFFFFFFFFFFFFFFFFFFFFFFFFFFFFFFFFFFFFFFFF DUP4 DUP2 DUP4 AND OR DUP4 MSTORE POP POP POP POP PUSH1 0x40 MLOAD PUSH2 0x2AD SWAP2 SWAP1 PUSH2 0x4DB JUMP JUMPDEST PUSH1 0x0 PUSH1 0x40 MLOAD DUP1 DUP4 SUB DUP2 DUP6 DUP8 GAS CALL SWAP3 POP POP POP RETURNDATASIZE DUP1 PUSH1 0x0 DUP2 EQ PUSH2 0x2EA JUMPI PUSH1 0x40 MLOAD SWAP2 POP PUSH1 0x1F NOT PUSH1 0x3F RETURNDATASIZE ADD AND DUP3 ADD PUSH1 0x40 MSTORE RETURNDATASIZE DUP3 MSTORE RETURNDATASIZE PUSH1 0x0 PUSH1 0x20 DUP5 ADD RETURNDATACOPY PUSH2 0x2EF JUMP JUMPDEST PUSH1 0x60 SWAP2 POP JUMPDEST POP SWAP2 POP SWAP2 POP PUSH32 0x13848C3E38F8886F3F5D2AD9DFF80D8092C2BBB8EFD5B887A99C2C6CFC09AC2A DUP3 DUP3 PUSH1 0x40 MLOAD PUSH2 0x325 SWAP3 SWAP2 SWAP1 PUSH2 0x50D JUMP JUMPDEST PUSH1 0x40 MLOAD DUP1 SWAP2 SUB SWAP1 LOG1 POP POP POP POP JUMP JUMPDEST PUSH1 0x0 DUP2 MLOAD SWAP1 POP PUSH2 0x342 DUP2 PUSH2 0x68A JUMP JUMPDEST SWAP3 SWAP2 POP POP JUMP JUMPDEST PUSH1 0x0 DUP2 CALLDATALOAD SWAP1 POP PUSH2 0x357 DUP2 PUSH2 0x6A1 JUMP JUMPDEST SWAP3 SWAP2 POP POP JUMP JUMPDEST PUSH1 0x0 DUP2 CALLDATALOAD SWAP1 POP PUSH2 0x36C DUP2 PUSH2 0x6B8 JUMP JUMPDEST SWAP3 SWAP2 POP POP JUMP JUMPDEST PUSH1 0x0 DUP2 MLOAD SWAP1 POP PUSH2 0x381 DUP2 PUSH2 0x6B8 JUMP JUMPDEST SWAP3 SWAP2 POP POP JUMP JUMPDEST PUSH1 0x0 PUSH1 0x20 DUP3 DUP5 SUB SLT ISZERO PUSH2 0x39D JUMPI PUSH2 0x39C PUSH2 0x64B JUMP JUMPDEST JUMPDEST PUSH1 0x0 PUSH2 0x3AB DUP5 DUP3 DUP6 ADD PUSH2 0x333 JUMP JUMPDEST SWAP2 POP POP SWAP3 SWAP2 POP POP JUMP JUMPDEST PUSH1 0x0 DUP1 PUSH1 0x40 DUP4 DUP6 SUB SLT ISZERO PUSH2 0x3CB JUMPI PUSH2 0x3CA PUSH2 0x64B JUMP JUMPDEST JUMPDEST PUSH1 0x0 PUSH2 0x3D9 DUP6 DUP3 DUP7 ADD PUSH2 0x348 JUMP JUMPDEST SWAP3 POP POP PUSH1 0x20 PUSH2 0x3EA DUP6 DUP3 DUP7 ADD PUSH2 0x35D JUMP JUMPDEST SWAP2 POP POP SWAP3 POP SWAP3 SWAP1 POP JUMP JUMPDEST PUSH1 0x0 PUSH1 0x20 DUP3 DUP5 SUB SLT ISZERO PUSH2 0x40A JUMPI PUSH2 0x409 PUSH2 0x64B JUMP JUMPDEST JUMPDEST PUSH1 0x0 PUSH2 0x418 DUP5 DUP3 DUP6 ADD PUSH2 0x372 JUMP JUMPDEST SWAP2 POP POP SWAP3 SWAP2 POP POP JUMP JUMPDEST PUSH2 0x42A DUP2 PUSH2 0x5BE JUMP JUMPDEST DUP3 MSTORE POP POP JUMP JUMPDEST PUSH2 0x439 DUP2 PUSH2 0x5E2 JUMP JUMPDEST DUP3 MSTORE POP POP JUMP JUMPDEST PUSH1 0x0 PUSH2 0x44A DUP3 PUSH2 0x586 JUMP JUMPDEST PUSH2 0x454 DUP2 DUP6 PUSH2 0x591 JUMP JUMPDEST SWAP4 POP PUSH2 0x464 DUP2 DUP6 PUSH1 0x20 DUP7 ADD PUSH2 0x618 JUMP JUMPDEST PUSH2 0x46D DUP2 PUSH2 0x650 JUMP JUMPDEST DUP5 ADD SWAP2 POP POP SWAP3 SWAP2 POP POP JUMP JUMPDEST PUSH1 0x0 PUSH2 0x483 DUP3 PUSH2 0x586 JUMP JUMPDEST PUSH2 0x48D DUP2 DUP6 PUSH2 0x5A2 JUMP JUMPDEST SWAP4 POP PUSH2 0x49D DUP2 DUP6 PUSH1 0x20 DUP7 ADD PUSH2 0x618 JUMP JUMPDEST DUP1 DUP5 ADD SWAP2 POP POP SWAP3 SWAP2 POP POP JUMP JUMPDEST PUSH1 0x0 PUSH2 0x4B6 PUSH1 0x8 DUP4 PUSH2 0x5AD JUMP JUMPDEST SWAP2 POP PUSH2 0x4C1 DUP3 PUSH2 0x661 JUMP JUMPDEST PUSH1 0x20 DUP3 ADD SWAP1 POP SWAP2 SWAP1 POP JUMP JUMPDEST PUSH2 0x4D5 DUP2 PUSH2 0x60E JUMP JUMPDEST DUP3 MSTORE POP POP JUMP JUMPDEST PUSH1 0x0 PUSH2 0x4E7 DUP3 DUP5 PUSH2 0x478 JUMP JUMPDEST SWAP2 POP DUP2 SWAP1 POP SWAP3 SWAP2 POP POP JUMP JUMPDEST PUSH1 0x0 PUSH1 0x20 DUP3 ADD SWAP1 POP PUSH2 0x507 PUSH1 0x0 DUP4 ADD DUP5 PUSH2 0x421 JUMP JUMPDEST SWAP3 SWAP2 POP POP JUMP JUMPDEST PUSH1 0x0 PUSH1 0x40 DUP3 ADD SWAP1 POP PUSH2 0x522 PUSH1 0x0 DUP4 ADD DUP6 PUSH2 0x430 JUMP JUMPDEST DUP2 DUP2 SUB PUSH1 0x20 DUP4 ADD MSTORE PUSH2 0x534 DUP2 DUP5 PUSH2 0x43F JUMP JUMPDEST SWAP1 POP SWAP4 SWAP3 POP POP POP JUMP JUMPDEST PUSH1 0x0 PUSH1 0x40 DUP3 ADD SWAP1 POP DUP2 DUP2 SUB PUSH1 0x0 DUP4 ADD MSTORE PUSH2 0x556 DUP2 PUSH2 0x4A9 JUMP JUMPDEST SWAP1 POP PUSH2 0x565 PUSH1 0x20 DUP4 ADD DUP5 PUSH2 0x4CC JUMP JUMPDEST SWAP3 SWAP2 POP POP JUMP JUMPDEST PUSH1 0x0 PUSH1 0x20 DUP3 ADD SWAP1 POP PUSH2 0x580 PUSH1 0x0 DUP4 ADD DUP5 PUSH2 0x4CC JUMP JUMPDEST SWAP3 SWAP2 POP POP JUMP JUMPDEST PUSH1 0x0 DUP2 MLOAD SWAP1 POP SWAP2 SWAP1 POP JUMP JUMPDEST PUSH1 0x0 DUP3 DUP3 MSTORE PUSH1 0x20 DUP3 ADD SWAP1 POP SWAP3 SWAP2 POP POP JUMP JUMPDEST PUSH1 0x0 DUP2 SWAP1 POP SWAP3 SWAP2 POP POP JUMP JUMPDEST PUSH1 0x0 DUP3 DUP3 MSTORE PUSH1 0x20 DUP3 ADD SWAP1 POP SWAP3 SWAP2 POP POP JUMP JUMPDEST PUSH1 0x0 PUSH2 0x5C9 DUP3 PUSH2 0x5EE JUMP JUMPDEST SWAP1 POP SWAP2 SWAP1 POP JUMP JUMPDEST PUSH1 0x0 PUSH2 0x5DB DUP3 PUSH2 0x5EE JUMP JUMPDEST SWAP1 POP SWAP2 SWAP1 POP JUMP JUMPDEST PUSH1 0x0 DUP2 ISZERO ISZERO SWAP1 POP SWAP2 SWAP1 POP JUMP JUMPDEST PUSH1 0x0 PUSH20 0xFFFFFFFFFFFFFFFFFFFFFFFFFFFFFFFFFFFFFFFF DUP3 AND SWAP1 POP SWAP2 SWAP1 POP JUMP JUMPDEST PUSH1 0x0 DUP2 SWAP1 POP SWAP2 SWAP1 POP JUMP JUMPDEST PUSH1 0x0 JUMPDEST DUP4 DUP2 LT ISZERO PUSH2 0x636 JUMPI DUP1 DUP3 ADD MLOAD DUP2 DUP5 ADD MSTORE PUSH1 0x20 DUP2 ADD SWAP1 POP PUSH2 0x61B JUMP JUMPDEST DUP4 DUP2 GT ISZERO PUSH2 0x645 JUMPI PUSH1 0x0 DUP5 DUP5 ADD MSTORE JUMPDEST POP POP POP POP JUMP JUMPDEST PUSH1 0x0 DUP1 REVERT JUMPDEST PUSH1 0x0 PUSH1 0x1F NOT PUSH1 0x1F DUP4 ADD AND SWAP1 POP SWAP2 SWAP1 POP JUMP JUMPDEST PUSH32 0x63616C6C20666F6F000000000000000000000000000000000000000000000000 PUSH1 0x0 DUP3 ADD MSTORE POP JUMP JUMPDEST PUSH2 0x693 DUP2 PUSH2 0x5BE JUMP JUMPDEST DUP2 EQ PUSH2 0x69E JUMPI PUSH1 0x0 DUP1 REVERT JUMPDEST POP JUMP JUMPDEST PUSH2 0x6AA DUP2 PUSH2 0x5D0 JUMP JUMPDEST DUP2 EQ PUSH2 0x6B5 JUMPI PUSH1 0x0 DUP1 REVERT JUMPDEST POP JUMP JUMPDEST PUSH2 0x6C1 DUP2 PUSH2 0x60E JUMP JUMPDEST DUP2 EQ PUSH2 0x6CC JUMPI PUSH1 0x0 DUP1 REVERT JUMPDEST POP JUMP INVALID LOG2 PUSH5 0x6970667358 0x22 SLT KECCAK256 LT PUSH11 0x914080CB5FC067C8842A11 0xDB PUSH18 0x7CD167DB08A3298F1B4515BEBD999CC93264 PUSH20 0x6F6C634300080700336080604052348015610010 JUMPI PUSH1 0x0 DUP1 REVERT JUMPDEST POP PUSH2 0x60D DUP1 PUSH2 0x20 PUSH1 0x0 CODECOPY PUSH1 0x0 RETURN INVALID PUSH1 0x80 PUSH1 0x40 MSTORE PUSH1 0x4 CALLDATASIZE LT PUSH2 0x38 JUMPI PUSH1 0x0 CALLDATALOAD PUSH1 0xE0 SHR DUP1 PUSH4 0x12065FE0 EQ PUSH2 0xB3 JUMPI DUP1 PUSH4 0x24CCAB8F EQ PUSH2 0xDE JUMPI DUP1 PUSH4 0x38CC4831 EQ PUSH2 0x10E JUMPI PUSH2 0x78 JUMP JUMPDEST CALLDATASIZE PUSH2 0x78 JUMPI PUSH32 0x59E04C3F0D44B7CAF6E8EF854B61D9A51CF1960D7A88FF6356CC5E946B4B5832 CALLER CALLVALUE PUSH1 0x40 MLOAD PUSH2 0x6E SWAP3 SWAP2 SWAP1 PUSH2 0x3A2 JUMP JUMPDEST PUSH1 0x40 MLOAD DUP1 SWAP2 SUB SWAP1 LOG1 STOP JUMPDEST PUSH32 0x59E04C3F0D44B7CAF6E8EF854B61D9A51CF1960D7A88FF6356CC5E946B4B5832 CALLER CALLVALUE PUSH1 0x40 MLOAD PUSH2 0xA9 SWAP3 SWAP2 SWAP1 PUSH2 0x366 JUMP JUMPDEST PUSH1 0x40 MLOAD DUP1 SWAP2 SUB SWAP1 LOG1 STOP JUMPDEST CALLVALUE DUP1 ISZERO PUSH2 0xBF JUMPI PUSH1 0x0 DUP1 REVERT JUMPDEST POP PUSH2 0xC8 PUSH2 0x139 JUMP JUMPDEST PUSH1 0x40 MLOAD PUSH2 0xD5 SWAP2 SWAP1 PUSH2 0x3DE JUMP JUMPDEST PUSH1 0x40 MLOAD DUP1 SWAP2 SUB SWAP1 RETURN JUMPDEST PUSH2 0xF8 PUSH1 0x4 DUP1 CALLDATASIZE SUB DUP2 ADD SWAP1 PUSH2 0xF3 SWAP2 SWAP1 PUSH2 0x214 JUMP JUMPDEST PUSH2 0x141 JUMP JUMPDEST PUSH1 0x40 MLOAD PUSH2 0x105 SWAP2 SWAP1 PUSH2 0x3DE JUMP JUMPDEST PUSH1 0x40 MLOAD DUP1 SWAP2 SUB SWAP1 RETURN JUMPDEST CALLVALUE DUP1 ISZERO PUSH2 0x11A JUMPI PUSH1 0x0 DUP1 REVERT JUMPDEST POP PUSH2 0x123 PUSH2 0x187 JUMP JUMPDEST PUSH1 0x40 MLOAD PUSH2 0x130 SWAP2 SWAP1 PUSH2 0x30D JUMP JUMPDEST PUSH1 0x40 MLOAD DUP1 SWAP2 SUB SWAP1 RETURN JUMPDEST PUSH1 0x0 SELFBALANCE SWAP1 POP SWAP1 JUMP JUMPDEST PUSH1 0x0 PUSH32 0x59E04C3F0D44B7CAF6E8EF854B61D9A51CF1960D7A88FF6356CC5E946B4B5832 CALLER CALLVALUE DUP6 PUSH1 0x40 MLOAD PUSH2 0x176 SWAP4 SWAP3 SWAP2 SWAP1 PUSH2 0x328 JUMP JUMPDEST PUSH1 0x40 MLOAD DUP1 SWAP2 SUB SWAP1 LOG1 DUP2 SWAP1 POP SWAP3 SWAP2 POP POP JUMP JUMPDEST PUSH1 0x0 ADDRESS SWAP1 POP SWAP1 JUMP JUMPDEST PUSH1 0x0 PUSH2 0x1A2 PUSH2 0x19D DUP5 PUSH2 0x41E JUMP JUMPDEST PUSH2 0x3F9 JUMP JUMPDEST SWAP1 POP DUP3 DUP2 MSTORE PUSH1 0x20 DUP2 ADD DUP5 DUP5 DUP5 ADD GT ISZERO PUSH2 0x1BE JUMPI PUSH2 0x1BD PUSH2 0x54E JUMP JUMPDEST JUMPDEST PUSH2 0x1C9 DUP5 DUP3 DUP6 PUSH2 0x4A7 JUMP JUMPDEST POP SWAP4 SWAP3 POP POP POP JUMP JUMPDEST PUSH1 0x0 DUP3 PUSH1 0x1F DUP4 ADD SLT PUSH2 0x1E6 JUMPI PUSH2 0x1E5 PUSH2 0x549 JUMP JUMPDEST JUMPDEST DUP2 CALLDATALOAD PUSH2 0x1F6 DUP5 DUP3 PUSH1 0x20 DUP7 ADD PUSH2 0x18F JUMP JUMPDEST SWAP2 POP POP SWAP3 SWAP2 POP POP JUMP JUMPDEST PUSH1 0x0 DUP2 CALLDATALOAD SWAP1 POP PUSH2 0x20E DUP2 PUSH2 0x5C0 JUMP JUMPDEST SWAP3 SWAP2 POP POP JUMP JUMPDEST PUSH1 0x0 DUP1 PUSH1 0x40 DUP4 DUP6 SUB SLT ISZERO PUSH2 0x22B JUMPI PUSH2 0x22A PUSH2 0x558 JUMP JUMPDEST JUMPDEST PUSH1 0x0 DUP4 ADD CALLDATALOAD PUSH8 0xFFFFFFFFFFFFFFFF DUP2 GT ISZERO PUSH2 0x249 JUMPI PUSH2 0x248 PUSH2 0x553 JUMP JUMPDEST JUMPDEST PUSH2 0x255 DUP6 DUP3 DUP7 ADD PUSH2 0x1D1 JUMP JUMPDEST SWAP3 POP POP PUSH1 0x20 PUSH2 0x266 DUP6 DUP3 DUP7 ADD PUSH2 0x1FF JUMP JUMPDEST SWAP2 POP POP SWAP3 POP SWAP3 SWAP1 POP JUMP JUMPDEST PUSH2 0x279 DUP2 PUSH2 0x46B JUMP JUMPDEST DUP3 MSTORE POP POP JUMP JUMPDEST PUSH1 0x0 PUSH2 0x28A DUP3 PUSH2 0x44F JUMP JUMPDEST PUSH2 0x294 DUP2 DUP6 PUSH2 0x45A JUMP JUMPDEST SWAP4 POP PUSH2 0x2A4 DUP2 DUP6 PUSH1 0x20 DUP7 ADD PUSH2 0x4B6 JUMP JUMPDEST PUSH2 0x2AD DUP2 PUSH2 0x55D JUMP JUMPDEST DUP5 ADD SWAP2 POP POP SWAP3 SWAP2 POP POP JUMP JUMPDEST PUSH1 0x0 PUSH2 0x2C5 PUSH1 0x13 DUP4 PUSH2 0x45A JUMP JUMPDEST SWAP2 POP PUSH2 0x2D0 DUP3 PUSH2 0x56E JUMP JUMPDEST PUSH1 0x20 DUP3 ADD SWAP1 POP SWAP2 SWAP1 POP JUMP JUMPDEST PUSH1 0x0 PUSH2 0x2E8 PUSH1 0x13 DUP4 PUSH2 0x45A JUMP JUMPDEST SWAP2 POP PUSH2 0x2F3 DUP3 PUSH2 0x597 JUMP JUMPDEST PUSH1 0x20 DUP3 ADD SWAP1 POP SWAP2 SWAP1 POP JUMP JUMPDEST PUSH2 0x307 DUP2 PUSH2 0x49D JUMP JUMPDEST DUP3 MSTORE POP POP JUMP JUMPDEST PUSH1 0x0 PUSH1 0x20 DUP3 ADD SWAP1 POP PUSH2 0x322 PUSH1 0x0 DUP4 ADD DUP5 PUSH2 0x270 JUMP JUMPDEST SWAP3 SWAP2 POP POP JUMP JUMPDEST PUSH1 0x0 PUSH1 0x60 DUP3 ADD SWAP1 POP PUSH2 0x33D PUSH1 0x0 DUP4 ADD DUP7 PUSH2 0x270 JUMP JUMPDEST PUSH2 0x34A PUSH1 0x20 DUP4 ADD DUP6 PUSH2 0x2FE JUMP JUMPDEST DUP2 DUP2 SUB PUSH1 0x40 DUP4 ADD MSTORE PUSH2 0x35C DUP2 DUP5 PUSH2 0x27F JUMP JUMPDEST SWAP1 POP SWAP5 SWAP4 POP POP POP POP JUMP JUMPDEST PUSH1 0x0 PUSH1 0x60 DUP3 ADD SWAP1 POP PUSH2 0x37B PUSH1 0x0 DUP4 ADD DUP6 PUSH2 0x270 JUMP JUMPDEST PUSH2 0x388 PUSH1 0x20 DUP4 ADD DUP5 PUSH2 0x2FE JUMP JUMPDEST DUP2 DUP2 SUB PUSH1 0x40 DUP4 ADD MSTORE PUSH2 0x399 DUP2 PUSH2 0x2B8 JUMP JUMPDEST SWAP1 POP SWAP4 SWAP3 POP POP POP JUMP JUMPDEST PUSH1 0x0 PUSH1 0x60 DUP3 ADD SWAP1 POP PUSH2 0x3B7 PUSH1 0x0 DUP4 ADD DUP6 PUSH2 0x270 JUMP JUMPDEST PUSH2 0x3C4 PUSH1 0x20 DUP4 ADD DUP5 PUSH2 0x2FE JUMP JUMPDEST DUP2 DUP2 SUB PUSH1 0x40 DUP4 ADD MSTORE PUSH2 0x3D5 DUP2 PUSH2 0x2DB JUMP JUMPDEST SWAP1 POP SWAP4 SWAP3 POP POP POP JUMP JUMPDEST PUSH1 0x0 PUSH1 0x20 DUP3 ADD SWAP1 POP PUSH2 0x3F3 PUSH1 0x0 DUP4 ADD DUP5 PUSH2 0x2FE JUMP JUMPDEST SWAP3 SWAP2 POP POP JUMP JUMPDEST PUSH1 0x0 PUSH2 0x403 PUSH2 0x414 JUMP JUMPDEST SWAP1 POP PUSH2 0x40F DUP3 DUP3 PUSH2 0x4E9 JUMP JUMPDEST SWAP2 SWAP1 POP JUMP JUMPDEST PUSH1 0x0 PUSH1 0x40 MLOAD SWAP1 POP SWAP1 JUMP JUMPDEST PUSH1 0x0 PUSH8 0xFFFFFFFFFFFFFFFF DUP3 GT ISZERO PUSH2 0x439 JUMPI PUSH2 0x438 PUSH2 0x51A JUMP JUMPDEST JUMPDEST PUSH2 0x442 DUP3 PUSH2 0x55D JUMP JUMPDEST SWAP1 POP PUSH1 0x20 DUP2 ADD SWAP1 POP SWAP2 SWAP1 POP JUMP JUMPDEST PUSH1 0x0 DUP2 MLOAD SWAP1 POP SWAP2 SWAP1 POP JUMP JUMPDEST PUSH1 0x0 DUP3 DUP3 MSTORE PUSH1 0x20 DUP3 ADD SWAP1 POP SWAP3 SWAP2 POP POP JUMP JUMPDEST PUSH1 0x0 PUSH2 0x476 DUP3 PUSH2 0x47D JUMP JUMPDEST SWAP1 POP SWAP2 SWAP1 POP JUMP JUMPDEST PUSH1 0x0 PUSH20 0xFFFFFFFFFFFFFFFFFFFFFFFFFFFFFFFFFFFFFFFF DUP3 AND SWAP1 POP SWAP2 SWAP1 POP JUMP JUMPDEST PUSH1 0x0 DUP2 SWAP1 POP SWAP2 SWAP1 POP JUMP JUMPDEST DUP3 DUP2 DUP4 CALLDATACOPY PUSH1 0x0 DUP4 DUP4 ADD MSTORE POP POP POP JUMP JUMPDEST PUSH1 0x0 JUMPDEST DUP4 DUP2 LT ISZERO PUSH2 0x4D4 JUMPI DUP1 DUP3 ADD MLOAD DUP2 DUP5 ADD MSTORE PUSH1 0x20 DUP2 ADD SWAP1 POP PUSH2 0x4B9 JUMP JUMPDEST DUP4 DUP2 GT ISZERO PUSH2 0x4E3 JUMPI PUSH1 0x0 DUP5 DUP5 ADD MSTORE JUMPDEST POP POP POP POP JUMP JUMPDEST PUSH2 0x4F2 DUP3 PUSH2 0x55D JUMP JUMPDEST DUP2 ADD DUP2 DUP2 LT PUSH8 0xFFFFFFFFFFFFFFFF DUP3 GT OR ISZERO PUSH2 0x511 JUMPI PUSH2 0x510 PUSH2 0x51A JUMP JUMPDEST JUMPDEST DUP1 PUSH1 0x40 MSTORE POP POP POP JUMP JUMPDEST PUSH32 0x4E487B7100000000000000000000000000000000000000000000000000000000 PUSH1 0x0 MSTORE PUSH1 0x41 PUSH1 0x4 MSTORE PUSH1 0x24 PUSH1 0x0 REVERT JUMPDEST PUSH1 0x0 DUP1 REVERT JUMPDEST PUSH1 0x0 DUP1 REVERT JUMPDEST PUSH1 0x0 DUP1 REVERT JUMPDEST PUSH1 0x0 DUP1 REVERT JUMPDEST PUSH1 0x0 PUSH1 0x1F NOT PUSH1 0x1F DUP4 ADD AND SWAP1 POP SWAP2 SWAP1 POP JUMP JUMPDEST PUSH32 0x46616C6C6261636B207761732063616C6C656400000000000000000000000000 PUSH1 0x0 DUP3 ADD MSTORE POP JUMP JUMPDEST PUSH32 0x5265636569766564207761732063616C6C656400000000000000000000000000 PUSH1 0x0 DUP3 ADD MSTORE POP JUMP JUMPDEST PUSH2 0x5C9 DUP2 PUSH2 0x49D JUMP JUMPDEST DUP2 EQ PUSH2 0x5D4 JUMPI PUSH1 0x0 DUP1 REVERT JUMPDEST POP JUMP INVALID LOG2 PUSH5 0x6970667358 0x22 SLT KECCAK256 MOD 0x2E SLOAD 0xED EXTCODESIZE DUP5 SWAP3 0x5D PUSH19 0xAC3A4071DAB08D4CA43D38943D845ABEE17731 0xC1 0xD 0x4D OR PUSH5 0x736F6C6343 STOP ADDMOD SMOD STOP CALLER "
				},
				"gasEstimates": {
					"creation": {
						"codeDepositCost": "359400",
						"executionCost": "infinite",
						"totalCost": "infinite"
					},
					"external": {
						"getAddress()": "infinite",
						"getBalance()": "infinite",
						"testCall(address,uint256)": "infinite"
					}
				},
				"methodIdentifiers": {
					"getAddress()": "38cc4831",
					"getBalance()": "12065fe0",
					"testCall(address,uint256)": "59c75ada"
				}
			},
			"storageLayout": {
				"storage": [
					{
						"astId": 80,
						"contract": "contracts/11_CallContract.sol:Caller",
						"label": "receiver",
						"offset": 0,
						"slot": "0",
						"type": "t_contract(Receiver)77"
					}
				],
				"types": {
					"t_contract(Receiver)77": {
						"encoding": "inplace",
						"label": "contract Receiver",
						"numberOfBytes": "20"
					}
				}
			},
			"userdoc": {
				"kind": "user",
				"methods": {},
				"version": 1
			}
		}
	}
}