{
	"data": {
		"bytecode": {
			"linkReferences": {},
			"object": "608060405234801561001057600080fd5b506101e9806100206000396000f3fe608060405234801561001057600080fd5b50600436106100365760003560e01c80632b0969261461003b578063771602f71461006b575b600080fd5b610055600480360381019061005091906100f6565b61009b565b6040516100629190610172565b60405180910390f35b61008560048036038101906100809190610123565b6100d2565b6040516100929190610172565b60405180910390f35b6000807f3fe6f4f76c7eebcad2c55331438cb22c4b29299885f3791d0543b9db673a2ead9050806000526004600001838152602081f35b60008183018060005260206000f35b6000813590506100f08161019c565b92915050565b60006020828403121561010c5761010b610197565b5b600061011a848285016100e1565b91505092915050565b6000806040838503121561013a57610139610197565b5b6000610148858286016100e1565b9250506020610159858286016100e1565b9150509250929050565b61016c8161018d565b82525050565b60006020820190506101876000830184610163565b92915050565b6000819050919050565b600080fd5b6101a58161018d565b81146101b057600080fd5b5056fea26469706673582212207fa6c73acf67d0c57e3b006e1a83fe6492e0abcd846533a4cac8ae63603f136a64736f6c63430008070033",
			"opcodes": "PUSH1 0x80 PUSH1 0x40 MSTORE CALLVALUE DUP1 ISZERO PUSH2 0x10 JUMPI PUSH1 0x0 DUP1 REVERT JUMPDEST POP PUSH2 0x1E9 DUP1 PUSH2 0x20 PUSH1 0x0 CODECOPY PUSH1 0x0 RETURN INVALID PUSH1 0x80 PUSH1 0x40 MSTORE CALLVALUE DUP1 ISZERO PUSH2 0x10 JUMPI PUSH1 0x0 DUP1 REVERT JUMPDEST POP PUSH1 0x4 CALLDATASIZE LT PUSH2 0x36 JUMPI PUSH1 0x0 CALLDATALOAD PUSH1 0xE0 SHR DUP1 PUSH4 0x2B096926 EQ PUSH2 0x3B JUMPI DUP1 PUSH4 0x771602F7 EQ PUSH2 0x6B JUMPI JUMPDEST PUSH1 0x0 DUP1 REVERT JUMPDEST PUSH2 0x55 PUSH1 0x4 DUP1 CALLDATASIZE SUB DUP2 ADD SWAP1 PUSH2 0x50 SWAP2 SWAP1 PUSH2 0xF6 JUMP JUMPDEST PUSH2 0x9B JUMP JUMPDEST PUSH1 0x40 MLOAD PUSH2 0x62 SWAP2 SWAP1 PUSH2 0x172 JUMP JUMPDEST PUSH1 0x40 MLOAD DUP1 SWAP2 SUB SWAP1 RETURN JUMPDEST PUSH2 0x85 PUSH1 0x4 DUP1 CALLDATASIZE SUB DUP2 ADD SWAP1 PUSH2 0x80 SWAP2 SWAP1 PUSH2 0x123 JUMP JUMPDEST PUSH2 0xD2 JUMP JUMPDEST PUSH1 0x40 MLOAD PUSH2 0x92 SWAP2 SWAP1 PUSH2 0x172 JUMP JUMPDEST PUSH1 0x40 MLOAD DUP1 SWAP2 SUB SWAP1 RETURN JUMPDEST PUSH1 0x0 DUP1 PUSH32 0x3FE6F4F76C7EEBCAD2C55331438CB22C4B29299885F3791D0543B9DB673A2EAD SWAP1 POP DUP1 PUSH1 0x0 MSTORE PUSH1 0x4 PUSH1 0x0 ADD DUP4 DUP2 MSTORE PUSH1 0x20 DUP2 RETURN JUMPDEST PUSH1 0x0 DUP2 DUP4 ADD DUP1 PUSH1 0x0 MSTORE PUSH1 0x20 PUSH1 0x0 RETURN JUMPDEST PUSH1 0x0 DUP2 CALLDATALOAD SWAP1 POP PUSH2 0xF0 DUP2 PUSH2 0x19C JUMP JUMPDEST SWAP3 SWAP2 POP POP JUMP JUMPDEST PUSH1 0x0 PUSH1 0x20 DUP3 DUP5 SUB SLT ISZERO PUSH2 0x10C JUMPI PUSH2 0x10B PUSH2 0x197 JUMP JUMPDEST JUMPDEST PUSH1 0x0 PUSH2 0x11A DUP5 DUP3 DUP6 ADD PUSH2 0xE1 JUMP JUMPDEST SWAP2 POP POP SWAP3 SWAP2 POP POP JUMP JUMPDEST PUSH1 0x0 DUP1 PUSH1 0x40 DUP4 DUP6 SUB SLT ISZERO PUSH2 0x13A JUMPI PUSH2 0x139 PUSH2 0x197 JUMP JUMPDEST JUMPDEST PUSH1 0x0 PUSH2 0x148 DUP6 DUP3 DUP7 ADD PUSH2 0xE1 JUMP JUMPDEST SWAP3 POP POP PUSH1 0x20 PUSH2 0x159 DUP6 DUP3 DUP7 ADD PUSH2 0xE1 JUMP JUMPDEST SWAP2 POP POP SWAP3 POP SWAP3 SWAP1 POP JUMP JUMPDEST PUSH2 0x16C DUP2 PUSH2 0x18D JUMP JUMPDEST DUP3 MSTORE POP POP JUMP JUMPDEST PUSH1 0x0 PUSH1 0x20 DUP3 ADD SWAP1 POP PUSH2 0x187 PUSH1 0x0 DUP4 ADD DUP5 PUSH2 0x163 JUMP JUMPDEST SWAP3 SWAP2 POP POP JUMP JUMPDEST PUSH1 0x0 DUP2 SWAP1 POP SWAP2 SWAP1 POP JUMP JUMPDEST PUSH1 0x0 DUP1 REVERT JUMPDEST PUSH2 0x1A5 DUP2 PUSH2 0x18D JUMP JUMPDEST DUP2 EQ PUSH2 0x1B0 JUMPI PUSH1 0x0 DUP1 REVERT JUMPDEST POP JUMP INVALID LOG2 PUSH5 0x6970667358 0x22 SLT KECCAK256 PUSH32 0xA6C73ACF67D0C57E3B006E1A83FE6492E0ABCD846533A4CAC8AE63603F136A64 PUSH20 0x6F6C634300080700330000000000000000000000 "
		},
		"gasEstimates": {
			"creation": {
				"codeDepositCost": "97800",
				"executionCost": "147",
				"totalCost": "97947"
			},
			"external": {
				"add(uint256,uint256)": "infinite",
				"call(uint256)": "420"
			}
		},
		"methodIdentifiers": {
			"add(uint256,uint256)": "771602f7",
			"call(uint256)": "2b096926"
		}
	},
	"abi": [
		{
			"inputs": [
				{
					"internalType": "uint256",
					"name": "a",
					"type": "uint256"
				},
				{
					"internalType": "uint256",
					"name": "b",
					"type": "uint256"
				}
			],
			"name": "add",
			"outputs": [
				{
					"internalType": "uint256",
					"name": "",
					"type": "uint256"
				}
			],
			"stateMutability": "pure",
			"type": "function"
		},
		{
			"inputs": [
				{
					"internalType": "uint256",
					"name": "a",
					"type": "uint256"
				}
			],
			"name": "call",
			"outputs": [
				{
					"internalType": "uint256",
					"name": "",
					"type": "uint256"
				}
			],
			"stateMutability": "pure",
			"type": "function"
		}
	]
}