{
	"data": {
		"bytecode": {
			"linkReferences": {},
			"object": "608060405234801561001057600080fd5b5060405161001d9061007e565b604051809103906000f080158015610039573d6000803e3d6000fd5b506000806101000a81548173ffffffffffffffffffffffffffffffffffffffff021916908373ffffffffffffffffffffffffffffffffffffffff16021790555061008b565b610ec8806110d383390190565b6110398061009a6000396000f3fe60806040526004361061009c5760003560e01c8063973e9b8b11610064578063973e9b8b14610178578063a6f2ae3a146101a3578063b759f954146101ad578063c4e41b22146101ea578063e4849b3214610215578063fc0c546a146102315761009c565b806310fe9ae8146100a157806338cc4831146100cc57806342948e18146100f7578063430f480114610122578063590791f21461014d575b600080fd5b3480156100ad57600080fd5b506100b661025c565b6040516100c39190610cc5565b60405180910390f35b3480156100d857600080fd5b506100e1610302565b6040516100ee9190610cc5565b60405180910390f35b34801561010357600080fd5b5061010c61030a565b6040516101199190610cc5565b60405180910390f35b34801561012e57600080fd5b50610137610312565b6040516101449190610e1f565b60405180910390f35b34801561015957600080fd5b506101626103c3565b60405161016f9190610e1f565b60405180910390f35b34801561018457600080fd5b5061018d610474565b60405161019a9190610e1f565b60405180910390f35b6101ab61052b565b005b3480156101b957600080fd5b506101d460048036038101906101cf9190610ba3565b61074d565b6040516101e19190610d69565b60405180910390f35b3480156101f657600080fd5b506101ff61080a565b60405161020c9190610e1f565b60405180910390f35b61022f600480360381019061022a9190610ba3565b6108b0565b005b34801561023d57600080fd5b50610246610ad1565b6040516102539190610d84565b60405180910390f35b60008060009054906101000a900473ffffffffffffffffffffffffffffffffffffffff1673ffffffffffffffffffffffffffffffffffffffff166338cc48316040518163ffffffff1660e01b815260040160206040518083038186803b1580156102c557600080fd5b505afa1580156102d9573d6000803e3d6000fd5b505050506040513d601f19601f820116820180604052508101906102fd9190610b49565b905090565b600030905090565b600033905090565b60008060009054906101000a900473ffffffffffffffffffffffffffffffffffffffff1673ffffffffffffffffffffffffffffffffffffffff166370a08231306040518263ffffffff1660e01b815260040161036e9190610cc5565b60206040518083038186803b15801561038657600080fd5b505afa15801561039a573d6000803e3d6000fd5b505050506040513d601f19601f820116820180604052508101906103be9190610bd0565b905090565b60008060009054906101000a900473ffffffffffffffffffffffffffffffffffffffff1673ffffffffffffffffffffffffffffffffffffffff166370a08231336040518263ffffffff1660e01b815260040161041f9190610cc5565b60206040518083038186803b15801561043757600080fd5b505afa15801561044b573d6000803e3d6000fd5b505050506040513d601f19601f8201168201806040525081019061046f9190610bd0565b905090565b60008060008054906101000a900473ffffffffffffffffffffffffffffffffffffffff1673ffffffffffffffffffffffffffffffffffffffff1663dd62ed3e33306040518363ffffffff1660e01b81526004016104d2929190610ce0565b60206040518083038186803b1580156104ea57600080fd5b505afa1580156104fe573d6000803e3d6000fd5b505050506040513d601f19601f820116820180604052508101906105229190610bd0565b90508091505090565b600034905060008060009054906101000a900473ffffffffffffffffffffffffffffffffffffffff1673ffffffffffffffffffffffffffffffffffffffff166370a08231306040518263ffffffff1660e01b815260040161058c9190610cc5565b60206040518083038186803b1580156105a457600080fd5b505afa1580156105b8573d6000803e3d6000fd5b505050506040513d601f19601f820116820180604052508101906105dc9190610bd0565b905060008211610621576040517f08c379a000000000000000000000000000000000000000000000000000000000815260040161061890610ddf565b60405180910390fd5b80821115610664576040517f08c379a000000000000000000000000000000000000000000000000000000000815260040161065b90610dbf565b60405180910390fd5b60008054906101000a900473ffffffffffffffffffffffffffffffffffffffff1673ffffffffffffffffffffffffffffffffffffffff1663a9059cbb33846040518363ffffffff1660e01b81526004016106bf929190610d40565b602060405180830381600087803b1580156106d957600080fd5b505af11580156106ed573d6000803e3d6000fd5b505050506040513d601f19601f820116820180604052508101906107119190610b76565b507f4e08ba899977cf7d4c2964bce71c6b9a7ef76ee5166a4c1249a1e08016e33ef1826040516107419190610e1f565b60405180910390a15050565b60008060008054906101000a900473ffffffffffffffffffffffffffffffffffffffff1673ffffffffffffffffffffffffffffffffffffffff1663e1f21c673330866040518463ffffffff1660e01b81526004016107ad93929190610d09565b602060405180830381600087803b1580156107c757600080fd5b505af11580156107db573d6000803e3d6000fd5b505050506040513d601f19601f820116820180604052508101906107ff9190610b76565b905080915050919050565b60008060009054906101000a900473ffffffffffffffffffffffffffffffffffffffff1673ffffffffffffffffffffffffffffffffffffffff166318160ddd6040518163ffffffff1660e01b815260040160206040518083038186803b15801561087357600080fd5b505afa158015610887573d6000803e3d6000fd5b505050506040513d601f19601f820116820180604052508101906108ab9190610bd0565b905090565b600081116108f3576040517f08c379a00000000000000000000000000000000000000000000000000000000081526004016108ea90610d9f565b60405180910390fd5b60008060009054906101000a900473ffffffffffffffffffffffffffffffffffffffff1673ffffffffffffffffffffffffffffffffffffffff1663dd62ed3e33306040518363ffffffff1660e01b8152600401610951929190610ce0565b60206040518083038186803b15801561096957600080fd5b505afa15801561097d573d6000803e3d6000fd5b505050506040513d601f19601f820116820180604052508101906109a19190610bd0565b9050818110156109e6576040517f08c379a00000000000000000000000000000000000000000000000000000000081526004016109dd90610dff565b60405180910390fd5b60008054906101000a900473ffffffffffffffffffffffffffffffffffffffff1673ffffffffffffffffffffffffffffffffffffffff166323b872dd3330856040518463ffffffff1660e01b8152600401610a4393929190610d09565b602060405180830381600087803b158015610a5d57600080fd5b505af1158015610a71573d6000803e3d6000fd5b505050506040513d601f19601f82011682018060405250810190610a959190610b76565b507f92f64ca637d023f354075a4be751b169c1a8a9ccb6d33cdd0cb352054399572782604051610ac59190610e1f565b60405180910390a15050565b60008054906101000a900473ffffffffffffffffffffffffffffffffffffffff1681565b600081519050610b0481610fbe565b92915050565b600081519050610b1981610fd5565b92915050565b600081359050610b2e81610fec565b92915050565b600081519050610b4381610fec565b92915050565b600060208284031215610b5f57610b5e610ec9565b5b6000610b6d84828501610af5565b91505092915050565b600060208284031215610b8c57610b8b610ec9565b5b6000610b9a84828501610b0a565b91505092915050565b600060208284031215610bb957610bb8610ec9565b5b6000610bc784828501610b1f565b91505092915050565b600060208284031215610be657610be5610ec9565b5b6000610bf484828501610b34565b91505092915050565b610c0681610e4b565b82525050565b610c1581610e5d565b82525050565b610c2481610e93565b82525050565b6000610c37602283610e3a565b9150610c4282610ece565b604082019050919050565b6000610c5a602183610e3a565b9150610c6582610f1d565b604082019050919050565b6000610c7d601c83610e3a565b9150610c8882610f6c565b602082019050919050565b6000610ca0601a83610e3a565b9150610cab82610f95565b602082019050919050565b610cbf81610e89565b82525050565b6000602082019050610cda6000830184610bfd565b92915050565b6000604082019050610cf56000830185610bfd565b610d026020830184610bfd565b9392505050565b6000606082019050610d1e6000830186610bfd565b610d2b6020830185610bfd565b610d386040830184610cb6565b949350505050565b6000604082019050610d556000830185610bfd565b610d626020830184610cb6565b9392505050565b6000602082019050610d7e6000830184610c0c565b92915050565b6000602082019050610d996000830184610c1b565b92915050565b60006020820190508181036000830152610db881610c2a565b9050919050565b60006020820190508181036000830152610dd881610c4d565b9050919050565b60006020820190508181036000830152610df881610c70565b9050919050565b60006020820190508181036000830152610e1881610c93565b9050919050565b6000602082019050610e346000830184610cb6565b92915050565b600082825260208201905092915050565b6000610e5682610e69565b9050919050565b60008115159050919050565b600073ffffffffffffffffffffffffffffffffffffffff82169050919050565b6000819050919050565b6000610e9e82610ea5565b9050919050565b6000610eb082610eb7565b9050919050565b6000610ec282610e69565b9050919050565b600080fd5b7f596f75206e65656420746f2073656c6c206174206c65617374203120746f6b6560008201527f6e21000000000000000000000000000000000000000000000000000000000000602082015250565b7f4e6f7420656e6f75676820746f6b656e7320696e20746865207265766572736560008201527f2100000000000000000000000000000000000000000000000000000000000000602082015250565b7f596f75206e65656420746f2073656e6420736f6d652065746865722100000000600082015250565b7f436865636b2074686520746f6b656e20616c6c6f77616e636521000000000000600082015250565b610fc781610e4b565b8114610fd257600080fd5b50565b610fde81610e5d565b8114610fe957600080fd5b50565b610ff581610e89565b811461100057600080fd5b5056fea2646970667358221220f2ec8da370f9da5ce95b6dbce9438dca81bf95423e9033f9b8962bbce59fec7a64736f6c634300080700336080604052678ac7230489e8000060025534801561001c57600080fd5b506002546000803373ffffffffffffffffffffffffffffffffffffffff1673ffffffffffffffffffffffffffffffffffffffff16815260200190815260200160002081905550610e57806100716000396000f3fe608060405234801561001057600080fd5b506004361061009e5760003560e01c806370a082311161006657806370a082311461014b57806395d89b411461017b578063a9059cbb14610199578063dd62ed3e146101c9578063e1f21c67146101f95761009e565b806306fdde03146100a357806318160ddd146100c157806323b872dd146100df578063313ce5671461010f57806338cc48311461012d575b600080fd5b6100ab610229565b6040516100b89190610bf9565b60405180910390f35b6100c9610262565b6040516100d69190610c1b565b60405180910390f35b6100f960048036038101906100f49190610abb565b61026c565b6040516101069190610bde565b60405180910390f35b6101176105e7565b6040516101249190610c36565b60405180910390f35b6101356105ec565b6040516101429190610bc3565b60405180910390f35b61016560048036038101906101609190610a4e565b6105f4565b6040516101729190610c1b565b60405180910390f35b61018361063c565b6040516101909190610bf9565b60405180910390f35b6101b360048036038101906101ae9190610b0e565b610675565b6040516101c09190610bde565b60405180910390f35b6101e360048036038101906101de9190610a7b565b610857565b6040516101f09190610c1b565b60405180910390f35b610213600480360381019061020e9190610abb565b6108de565b6040516102209190610bde565b60405180910390f35b6040518060400160405280601281526020017f45524332302d5869616f6368756e436f696e000000000000000000000000000081525081565b6000600254905090565b60008060008573ffffffffffffffffffffffffffffffffffffffff1673ffffffffffffffffffffffffffffffffffffffff168152602001908152602001600020548211156102b957600080fd5b600160008573ffffffffffffffffffffffffffffffffffffffff1673ffffffffffffffffffffffffffffffffffffffff16815260200190815260200160002060003373ffffffffffffffffffffffffffffffffffffffff1673ffffffffffffffffffffffffffffffffffffffff1681526020019081526020016000205482111561034257600080fd5b610393826000808773ffffffffffffffffffffffffffffffffffffffff1673ffffffffffffffffffffffffffffffffffffffff168152602001908152602001600020546109d190919063ffffffff16565b6000808673ffffffffffffffffffffffffffffffffffffffff1673ffffffffffffffffffffffffffffffffffffffff1681526020019081526020016000208190555061046482600160008773ffffffffffffffffffffffffffffffffffffffff1673ffffffffffffffffffffffffffffffffffffffff16815260200190815260200160002060008673ffffffffffffffffffffffffffffffffffffffff1673ffffffffffffffffffffffffffffffffffffffff168152602001908152602001600020546109d190919063ffffffff16565b600160008673ffffffffffffffffffffffffffffffffffffffff1673ffffffffffffffffffffffffffffffffffffffff16815260200190815260200160002060008573ffffffffffffffffffffffffffffffffffffffff1673ffffffffffffffffffffffffffffffffffffffff16815260200190815260200160002081905550610535826000808673ffffffffffffffffffffffffffffffffffffffff1673ffffffffffffffffffffffffffffffffffffffff168152602001908152602001600020546109f890919063ffffffff16565b6000808573ffffffffffffffffffffffffffffffffffffffff1673ffffffffffffffffffffffffffffffffffffffff168152602001908152602001600020819055508273ffffffffffffffffffffffffffffffffffffffff168473ffffffffffffffffffffffffffffffffffffffff167f5225eac2a7facfbeb099c00a4cc7c457701324f1fd84b84b14033f9e911374a4846040516105d49190610c1b565b60405180910390a3600190509392505050565b601281565b600030905090565b60008060008373ffffffffffffffffffffffffffffffffffffffff1673ffffffffffffffffffffffffffffffffffffffff168152602001908152602001600020549050919050565b6040518060400160405280600781526020017f4552432d5843430000000000000000000000000000000000000000000000000081525081565b60008060003373ffffffffffffffffffffffffffffffffffffffff1673ffffffffffffffffffffffffffffffffffffffff168152602001908152602001600020548211156106c257600080fd5b610713826000803373ffffffffffffffffffffffffffffffffffffffff1673ffffffffffffffffffffffffffffffffffffffff168152602001908152602001600020546109d190919063ffffffff16565b6000803373ffffffffffffffffffffffffffffffffffffffff1673ffffffffffffffffffffffffffffffffffffffff168152602001908152602001600020819055506107a6826000808673ffffffffffffffffffffffffffffffffffffffff1673ffffffffffffffffffffffffffffffffffffffff168152602001908152602001600020546109f890919063ffffffff16565b6000808573ffffffffffffffffffffffffffffffffffffffff1673ffffffffffffffffffffffffffffffffffffffff168152602001908152602001600020819055508273ffffffffffffffffffffffffffffffffffffffff163373ffffffffffffffffffffffffffffffffffffffff167f5225eac2a7facfbeb099c00a4cc7c457701324f1fd84b84b14033f9e911374a4846040516108459190610c1b565b60405180910390a36001905092915050565b6000600160008473ffffffffffffffffffffffffffffffffffffffff1673ffffffffffffffffffffffffffffffffffffffff16815260200190815260200160002060008373ffffffffffffffffffffffffffffffffffffffff1673ffffffffffffffffffffffffffffffffffffffff16815260200190815260200160002054905092915050565b600081600160008673ffffffffffffffffffffffffffffffffffffffff1673ffffffffffffffffffffffffffffffffffffffff16815260200190815260200160002060008573ffffffffffffffffffffffffffffffffffffffff1673ffffffffffffffffffffffffffffffffffffffff168152602001908152602001600020819055508273ffffffffffffffffffffffffffffffffffffffff168473ffffffffffffffffffffffffffffffffffffffff167f8c5be1e5ebec7d5bd14f71427d1e84f3dd0314c0f7b2291e5b200ac8c7c3b925846040516109be9190610c1b565b60405180910390a3600190509392505050565b6000828211156109e4576109e3610d7f565b5b81836109f09190610cc3565b905092915050565b6000808284610a079190610c6d565b905083811015610a1a57610a19610d7f565b5b8091505092915050565b600081359050610a3381610df3565b92915050565b600081359050610a4881610e0a565b92915050565b600060208284031215610a6457610a63610ddd565b5b6000610a7284828501610a24565b91505092915050565b60008060408385031215610a9257610a91610ddd565b5b6000610aa085828601610a24565b9250506020610ab185828601610a24565b9150509250929050565b600080600060608486031215610ad457610ad3610ddd565b5b6000610ae286828701610a24565b9350506020610af386828701610a24565b9250506040610b0486828701610a39565b9150509250925092565b60008060408385031215610b2557610b24610ddd565b5b6000610b3385828601610a24565b9250506020610b4485828601610a39565b9150509250929050565b610b5781610cf7565b82525050565b610b6681610d09565b82525050565b6000610b7782610c51565b610b818185610c5c565b9350610b91818560208601610d4c565b610b9a81610de2565b840191505092915050565b610bae81610d35565b82525050565b610bbd81610d3f565b82525050565b6000602082019050610bd86000830184610b4e565b92915050565b6000602082019050610bf36000830184610b5d565b92915050565b60006020820190508181036000830152610c138184610b6c565b905092915050565b6000602082019050610c306000830184610ba5565b92915050565b6000602082019050610c4b6000830184610bb4565b92915050565b600081519050919050565b600082825260208201905092915050565b6000610c7882610d35565b9150610c8383610d35565b9250827fffffffffffffffffffffffffffffffffffffffffffffffffffffffffffffffff03821115610cb857610cb7610dae565b5b828201905092915050565b6000610cce82610d35565b9150610cd983610d35565b925082821015610cec57610ceb610dae565b5b828203905092915050565b6000610d0282610d15565b9050919050565b60008115159050919050565b600073ffffffffffffffffffffffffffffffffffffffff82169050919050565b6000819050919050565b600060ff82169050919050565b60005b83811015610d6a578082015181840152602081019050610d4f565b83811115610d79576000848401525b50505050565b7f4e487b7100000000000000000000000000000000000000000000000000000000600052600160045260246000fd5b7f4e487b7100000000000000000000000000000000000000000000000000000000600052601160045260246000fd5b600080fd5b6000601f19601f8301169050919050565b610dfc81610cf7565b8114610e0757600080fd5b50565b610e1381610d35565b8114610e1e57600080fd5b5056fea2646970667358221220fc1f7a11181e89b8f836ab022a7ac4df36dd30686d4c5476ef0faa01836c628e64736f6c63430008070033",
			"opcodes": "PUSH1 0x80 PUSH1 0x40 MSTORE CALLVALUE DUP1 ISZERO PUSH2 0x10 JUMPI PUSH1 0x0 DUP1 REVERT JUMPDEST POP PUSH1 0x40 MLOAD PUSH2 0x1D SWAP1 PUSH2 0x7E JUMP JUMPDEST PUSH1 0x40 MLOAD DUP1 SWAP2 SUB SWAP1 PUSH1 0x0 CREATE DUP1 ISZERO DUP1 ISZERO PUSH2 0x39 JUMPI RETURNDATASIZE PUSH1 0x0 DUP1 RETURNDATACOPY RETURNDATASIZE PUSH1 0x0 REVERT JUMPDEST POP PUSH1 0x0 DUP1 PUSH2 0x100 EXP DUP2 SLOAD DUP2 PUSH20 0xFFFFFFFFFFFFFFFFFFFFFFFFFFFFFFFFFFFFFFFF MUL NOT AND SWAP1 DUP4 PUSH20 0xFFFFFFFFFFFFFFFFFFFFFFFFFFFFFFFFFFFFFFFF AND MUL OR SWAP1 SSTORE POP PUSH2 0x8B JUMP JUMPDEST PUSH2 0xEC8 DUP1 PUSH2 0x10D3 DUP4 CODECOPY ADD SWAP1 JUMP JUMPDEST PUSH2 0x1039 DUP1 PUSH2 0x9A PUSH1 0x0 CODECOPY PUSH1 0x0 RETURN INVALID PUSH1 0x80 PUSH1 0x40 MSTORE PUSH1 0x4 CALLDATASIZE LT PUSH2 0x9C JUMPI PUSH1 0x0 CALLDATALOAD PUSH1 0xE0 SHR DUP1 PUSH4 0x973E9B8B GT PUSH2 0x64 JUMPI DUP1 PUSH4 0x973E9B8B EQ PUSH2 0x178 JUMPI DUP1 PUSH4 0xA6F2AE3A EQ PUSH2 0x1A3 JUMPI DUP1 PUSH4 0xB759F954 EQ PUSH2 0x1AD JUMPI DUP1 PUSH4 0xC4E41B22 EQ PUSH2 0x1EA JUMPI DUP1 PUSH4 0xE4849B32 EQ PUSH2 0x215 JUMPI DUP1 PUSH4 0xFC0C546A EQ PUSH2 0x231 JUMPI PUSH2 0x9C JUMP JUMPDEST DUP1 PUSH4 0x10FE9AE8 EQ PUSH2 0xA1 JUMPI DUP1 PUSH4 0x38CC4831 EQ PUSH2 0xCC JUMPI DUP1 PUSH4 0x42948E18 EQ PUSH2 0xF7 JUMPI DUP1 PUSH4 0x430F4801 EQ PUSH2 0x122 JUMPI DUP1 PUSH4 0x590791F2 EQ PUSH2 0x14D JUMPI JUMPDEST PUSH1 0x0 DUP1 REVERT JUMPDEST CALLVALUE DUP1 ISZERO PUSH2 0xAD JUMPI PUSH1 0x0 DUP1 REVERT JUMPDEST POP PUSH2 0xB6 PUSH2 0x25C JUMP JUMPDEST PUSH1 0x40 MLOAD PUSH2 0xC3 SWAP2 SWAP1 PUSH2 0xCC5 JUMP JUMPDEST PUSH1 0x40 MLOAD DUP1 SWAP2 SUB SWAP1 RETURN JUMPDEST CALLVALUE DUP1 ISZERO PUSH2 0xD8 JUMPI PUSH1 0x0 DUP1 REVERT JUMPDEST POP PUSH2 0xE1 PUSH2 0x302 JUMP JUMPDEST PUSH1 0x40 MLOAD PUSH2 0xEE SWAP2 SWAP1 PUSH2 0xCC5 JUMP JUMPDEST PUSH1 0x40 MLOAD DUP1 SWAP2 SUB SWAP1 RETURN JUMPDEST CALLVALUE DUP1 ISZERO PUSH2 0x103 JUMPI PUSH1 0x0 DUP1 REVERT JUMPDEST POP PUSH2 0x10C PUSH2 0x30A JUMP JUMPDEST PUSH1 0x40 MLOAD PUSH2 0x119 SWAP2 SWAP1 PUSH2 0xCC5 JUMP JUMPDEST PUSH1 0x40 MLOAD DUP1 SWAP2 SUB SWAP1 RETURN JUMPDEST CALLVALUE DUP1 ISZERO PUSH2 0x12E JUMPI PUSH1 0x0 DUP1 REVERT JUMPDEST POP PUSH2 0x137 PUSH2 0x312 JUMP JUMPDEST PUSH1 0x40 MLOAD PUSH2 0x144 SWAP2 SWAP1 PUSH2 0xE1F JUMP JUMPDEST PUSH1 0x40 MLOAD DUP1 SWAP2 SUB SWAP1 RETURN JUMPDEST CALLVALUE DUP1 ISZERO PUSH2 0x159 JUMPI PUSH1 0x0 DUP1 REVERT JUMPDEST POP PUSH2 0x162 PUSH2 0x3C3 JUMP JUMPDEST PUSH1 0x40 MLOAD PUSH2 0x16F SWAP2 SWAP1 PUSH2 0xE1F JUMP JUMPDEST PUSH1 0x40 MLOAD DUP1 SWAP2 SUB SWAP1 RETURN JUMPDEST CALLVALUE DUP1 ISZERO PUSH2 0x184 JUMPI PUSH1 0x0 DUP1 REVERT JUMPDEST POP PUSH2 0x18D PUSH2 0x474 JUMP JUMPDEST PUSH1 0x40 MLOAD PUSH2 0x19A SWAP2 SWAP1 PUSH2 0xE1F JUMP JUMPDEST PUSH1 0x40 MLOAD DUP1 SWAP2 SUB SWAP1 RETURN JUMPDEST PUSH2 0x1AB PUSH2 0x52B JUMP JUMPDEST STOP JUMPDEST CALLVALUE DUP1 ISZERO PUSH2 0x1B9 JUMPI PUSH1 0x0 DUP1 REVERT JUMPDEST POP PUSH2 0x1D4 PUSH1 0x4 DUP1 CALLDATASIZE SUB DUP2 ADD SWAP1 PUSH2 0x1CF SWAP2 SWAP1 PUSH2 0xBA3 JUMP JUMPDEST PUSH2 0x74D JUMP JUMPDEST PUSH1 0x40 MLOAD PUSH2 0x1E1 SWAP2 SWAP1 PUSH2 0xD69 JUMP JUMPDEST PUSH1 0x40 MLOAD DUP1 SWAP2 SUB SWAP1 RETURN JUMPDEST CALLVALUE DUP1 ISZERO PUSH2 0x1F6 JUMPI PUSH1 0x0 DUP1 REVERT JUMPDEST POP PUSH2 0x1FF PUSH2 0x80A JUMP JUMPDEST PUSH1 0x40 MLOAD PUSH2 0x20C SWAP2 SWAP1 PUSH2 0xE1F JUMP JUMPDEST PUSH1 0x40 MLOAD DUP1 SWAP2 SUB SWAP1 RETURN JUMPDEST PUSH2 0x22F PUSH1 0x4 DUP1 CALLDATASIZE SUB DUP2 ADD SWAP1 PUSH2 0x22A SWAP2 SWAP1 PUSH2 0xBA3 JUMP JUMPDEST PUSH2 0x8B0 JUMP JUMPDEST STOP JUMPDEST CALLVALUE DUP1 ISZERO PUSH2 0x23D JUMPI PUSH1 0x0 DUP1 REVERT JUMPDEST POP PUSH2 0x246 PUSH2 0xAD1 JUMP JUMPDEST PUSH1 0x40 MLOAD PUSH2 0x253 SWAP2 SWAP1 PUSH2 0xD84 JUMP JUMPDEST PUSH1 0x40 MLOAD DUP1 SWAP2 SUB SWAP1 RETURN JUMPDEST PUSH1 0x0 DUP1 PUSH1 0x0 SWAP1 SLOAD SWAP1 PUSH2 0x100 EXP SWAP1 DIV PUSH20 0xFFFFFFFFFFFFFFFFFFFFFFFFFFFFFFFFFFFFFFFF AND PUSH20 0xFFFFFFFFFFFFFFFFFFFFFFFFFFFFFFFFFFFFFFFF AND PUSH4 0x38CC4831 PUSH1 0x40 MLOAD DUP2 PUSH4 0xFFFFFFFF AND PUSH1 0xE0 SHL DUP2 MSTORE PUSH1 0x4 ADD PUSH1 0x20 PUSH1 0x40 MLOAD DUP1 DUP4 SUB DUP2 DUP7 DUP1 EXTCODESIZE ISZERO DUP1 ISZERO PUSH2 0x2C5 JUMPI PUSH1 0x0 DUP1 REVERT JUMPDEST POP GAS STATICCALL ISZERO DUP1 ISZERO PUSH2 0x2D9 JUMPI RETURNDATASIZE PUSH1 0x0 DUP1 RETURNDATACOPY RETURNDATASIZE PUSH1 0x0 REVERT JUMPDEST POP POP POP POP PUSH1 0x40 MLOAD RETURNDATASIZE PUSH1 0x1F NOT PUSH1 0x1F DUP3 ADD AND DUP3 ADD DUP1 PUSH1 0x40 MSTORE POP DUP2 ADD SWAP1 PUSH2 0x2FD SWAP2 SWAP1 PUSH2 0xB49 JUMP JUMPDEST SWAP1 POP SWAP1 JUMP JUMPDEST PUSH1 0x0 ADDRESS SWAP1 POP SWAP1 JUMP JUMPDEST PUSH1 0x0 CALLER SWAP1 POP SWAP1 JUMP JUMPDEST PUSH1 0x0 DUP1 PUSH1 0x0 SWAP1 SLOAD SWAP1 PUSH2 0x100 EXP SWAP1 DIV PUSH20 0xFFFFFFFFFFFFFFFFFFFFFFFFFFFFFFFFFFFFFFFF AND PUSH20 0xFFFFFFFFFFFFFFFFFFFFFFFFFFFFFFFFFFFFFFFF AND PUSH4 0x70A08231 ADDRESS PUSH1 0x40 MLOAD DUP3 PUSH4 0xFFFFFFFF AND PUSH1 0xE0 SHL DUP2 MSTORE PUSH1 0x4 ADD PUSH2 0x36E SWAP2 SWAP1 PUSH2 0xCC5 JUMP JUMPDEST PUSH1 0x20 PUSH1 0x40 MLOAD DUP1 DUP4 SUB DUP2 DUP7 DUP1 EXTCODESIZE ISZERO DUP1 ISZERO PUSH2 0x386 JUMPI PUSH1 0x0 DUP1 REVERT JUMPDEST POP GAS STATICCALL ISZERO DUP1 ISZERO PUSH2 0x39A JUMPI RETURNDATASIZE PUSH1 0x0 DUP1 RETURNDATACOPY RETURNDATASIZE PUSH1 0x0 REVERT JUMPDEST POP POP POP POP PUSH1 0x40 MLOAD RETURNDATASIZE PUSH1 0x1F NOT PUSH1 0x1F DUP3 ADD AND DUP3 ADD DUP1 PUSH1 0x40 MSTORE POP DUP2 ADD SWAP1 PUSH2 0x3BE SWAP2 SWAP1 PUSH2 0xBD0 JUMP JUMPDEST SWAP1 POP SWAP1 JUMP JUMPDEST PUSH1 0x0 DUP1 PUSH1 0x0 SWAP1 SLOAD SWAP1 PUSH2 0x100 EXP SWAP1 DIV PUSH20 0xFFFFFFFFFFFFFFFFFFFFFFFFFFFFFFFFFFFFFFFF AND PUSH20 0xFFFFFFFFFFFFFFFFFFFFFFFFFFFFFFFFFFFFFFFF AND PUSH4 0x70A08231 CALLER PUSH1 0x40 MLOAD DUP3 PUSH4 0xFFFFFFFF AND PUSH1 0xE0 SHL DUP2 MSTORE PUSH1 0x4 ADD PUSH2 0x41F SWAP2 SWAP1 PUSH2 0xCC5 JUMP JUMPDEST PUSH1 0x20 PUSH1 0x40 MLOAD DUP1 DUP4 SUB DUP2 DUP7 DUP1 EXTCODESIZE ISZERO DUP1 ISZERO PUSH2 0x437 JUMPI PUSH1 0x0 DUP1 REVERT JUMPDEST POP GAS STATICCALL ISZERO DUP1 ISZERO PUSH2 0x44B JUMPI RETURNDATASIZE PUSH1 0x0 DUP1 RETURNDATACOPY RETURNDATASIZE PUSH1 0x0 REVERT JUMPDEST POP POP POP POP PUSH1 0x40 MLOAD RETURNDATASIZE PUSH1 0x1F NOT PUSH1 0x1F DUP3 ADD AND DUP3 ADD DUP1 PUSH1 0x40 MSTORE POP DUP2 ADD SWAP1 PUSH2 0x46F SWAP2 SWAP1 PUSH2 0xBD0 JUMP JUMPDEST SWAP1 POP SWAP1 JUMP JUMPDEST PUSH1 0x0 DUP1 PUSH1 0x0 DUP1 SLOAD SWAP1 PUSH2 0x100 EXP SWAP1 DIV PUSH20 0xFFFFFFFFFFFFFFFFFFFFFFFFFFFFFFFFFFFFFFFF AND PUSH20 0xFFFFFFFFFFFFFFFFFFFFFFFFFFFFFFFFFFFFFFFF AND PUSH4 0xDD62ED3E CALLER ADDRESS PUSH1 0x40 MLOAD DUP4 PUSH4 0xFFFFFFFF AND PUSH1 0xE0 SHL DUP2 MSTORE PUSH1 0x4 ADD PUSH2 0x4D2 SWAP3 SWAP2 SWAP1 PUSH2 0xCE0 JUMP JUMPDEST PUSH1 0x20 PUSH1 0x40 MLOAD DUP1 DUP4 SUB DUP2 DUP7 DUP1 EXTCODESIZE ISZERO DUP1 ISZERO PUSH2 0x4EA JUMPI PUSH1 0x0 DUP1 REVERT JUMPDEST POP GAS STATICCALL ISZERO DUP1 ISZERO PUSH2 0x4FE JUMPI RETURNDATASIZE PUSH1 0x0 DUP1 RETURNDATACOPY RETURNDATASIZE PUSH1 0x0 REVERT JUMPDEST POP POP POP POP PUSH1 0x40 MLOAD RETURNDATASIZE PUSH1 0x1F NOT PUSH1 0x1F DUP3 ADD AND DUP3 ADD DUP1 PUSH1 0x40 MSTORE POP DUP2 ADD SWAP1 PUSH2 0x522 SWAP2 SWAP1 PUSH2 0xBD0 JUMP JUMPDEST SWAP1 POP DUP1 SWAP2 POP POP SWAP1 JUMP JUMPDEST PUSH1 0x0 CALLVALUE SWAP1 POP PUSH1 0x0 DUP1 PUSH1 0x0 SWAP1 SLOAD SWAP1 PUSH2 0x100 EXP SWAP1 DIV PUSH20 0xFFFFFFFFFFFFFFFFFFFFFFFFFFFFFFFFFFFFFFFF AND PUSH20 0xFFFFFFFFFFFFFFFFFFFFFFFFFFFFFFFFFFFFFFFF AND PUSH4 0x70A08231 ADDRESS PUSH1 0x40 MLOAD DUP3 PUSH4 0xFFFFFFFF AND PUSH1 0xE0 SHL DUP2 MSTORE PUSH1 0x4 ADD PUSH2 0x58C SWAP2 SWAP1 PUSH2 0xCC5 JUMP JUMPDEST PUSH1 0x20 PUSH1 0x40 MLOAD DUP1 DUP4 SUB DUP2 DUP7 DUP1 EXTCODESIZE ISZERO DUP1 ISZERO PUSH2 0x5A4 JUMPI PUSH1 0x0 DUP1 REVERT JUMPDEST POP GAS STATICCALL ISZERO DUP1 ISZERO PUSH2 0x5B8 JUMPI RETURNDATASIZE PUSH1 0x0 DUP1 RETURNDATACOPY RETURNDATASIZE PUSH1 0x0 REVERT JUMPDEST POP POP POP POP PUSH1 0x40 MLOAD RETURNDATASIZE PUSH1 0x1F NOT PUSH1 0x1F DUP3 ADD AND DUP3 ADD DUP1 PUSH1 0x40 MSTORE POP DUP2 ADD SWAP1 PUSH2 0x5DC SWAP2 SWAP1 PUSH2 0xBD0 JUMP JUMPDEST SWAP1 POP PUSH1 0x0 DUP3 GT PUSH2 0x621 JUMPI PUSH1 0x40 MLOAD PUSH32 0x8C379A000000000000000000000000000000000000000000000000000000000 DUP2 MSTORE PUSH1 0x4 ADD PUSH2 0x618 SWAP1 PUSH2 0xDDF JUMP JUMPDEST PUSH1 0x40 MLOAD DUP1 SWAP2 SUB SWAP1 REVERT JUMPDEST DUP1 DUP3 GT ISZERO PUSH2 0x664 JUMPI PUSH1 0x40 MLOAD PUSH32 0x8C379A000000000000000000000000000000000000000000000000000000000 DUP2 MSTORE PUSH1 0x4 ADD PUSH2 0x65B SWAP1 PUSH2 0xDBF JUMP JUMPDEST PUSH1 0x40 MLOAD DUP1 SWAP2 SUB SWAP1 REVERT JUMPDEST PUSH1 0x0 DUP1 SLOAD SWAP1 PUSH2 0x100 EXP SWAP1 DIV PUSH20 0xFFFFFFFFFFFFFFFFFFFFFFFFFFFFFFFFFFFFFFFF AND PUSH20 0xFFFFFFFFFFFFFFFFFFFFFFFFFFFFFFFFFFFFFFFF AND PUSH4 0xA9059CBB CALLER DUP5 PUSH1 0x40 MLOAD DUP4 PUSH4 0xFFFFFFFF AND PUSH1 0xE0 SHL DUP2 MSTORE PUSH1 0x4 ADD PUSH2 0x6BF SWAP3 SWAP2 SWAP1 PUSH2 0xD40 JUMP JUMPDEST PUSH1 0x20 PUSH1 0x40 MLOAD DUP1 DUP4 SUB DUP2 PUSH1 0x0 DUP8 DUP1 EXTCODESIZE ISZERO DUP1 ISZERO PUSH2 0x6D9 JUMPI PUSH1 0x0 DUP1 REVERT JUMPDEST POP GAS CALL ISZERO DUP1 ISZERO PUSH2 0x6ED JUMPI RETURNDATASIZE PUSH1 0x0 DUP1 RETURNDATACOPY RETURNDATASIZE PUSH1 0x0 REVERT JUMPDEST POP POP POP POP PUSH1 0x40 MLOAD RETURNDATASIZE PUSH1 0x1F NOT PUSH1 0x1F DUP3 ADD AND DUP3 ADD DUP1 PUSH1 0x40 MSTORE POP DUP2 ADD SWAP1 PUSH2 0x711 SWAP2 SWAP1 PUSH2 0xB76 JUMP JUMPDEST POP PUSH32 0x4E08BA899977CF7D4C2964BCE71C6B9A7EF76EE5166A4C1249A1E08016E33EF1 DUP3 PUSH1 0x40 MLOAD PUSH2 0x741 SWAP2 SWAP1 PUSH2 0xE1F JUMP JUMPDEST PUSH1 0x40 MLOAD DUP1 SWAP2 SUB SWAP1 LOG1 POP POP JUMP JUMPDEST PUSH1 0x0 DUP1 PUSH1 0x0 DUP1 SLOAD SWAP1 PUSH2 0x100 EXP SWAP1 DIV PUSH20 0xFFFFFFFFFFFFFFFFFFFFFFFFFFFFFFFFFFFFFFFF AND PUSH20 0xFFFFFFFFFFFFFFFFFFFFFFFFFFFFFFFFFFFFFFFF AND PUSH4 0xE1F21C67 CALLER ADDRESS DUP7 PUSH1 0x40 MLOAD DUP5 PUSH4 0xFFFFFFFF AND PUSH1 0xE0 SHL DUP2 MSTORE PUSH1 0x4 ADD PUSH2 0x7AD SWAP4 SWAP3 SWAP2 SWAP1 PUSH2 0xD09 JUMP JUMPDEST PUSH1 0x20 PUSH1 0x40 MLOAD DUP1 DUP4 SUB DUP2 PUSH1 0x0 DUP8 DUP1 EXTCODESIZE ISZERO DUP1 ISZERO PUSH2 0x7C7 JUMPI PUSH1 0x0 DUP1 REVERT JUMPDEST POP GAS CALL ISZERO DUP1 ISZERO PUSH2 0x7DB JUMPI RETURNDATASIZE PUSH1 0x0 DUP1 RETURNDATACOPY RETURNDATASIZE PUSH1 0x0 REVERT JUMPDEST POP POP POP POP PUSH1 0x40 MLOAD RETURNDATASIZE PUSH1 0x1F NOT PUSH1 0x1F DUP3 ADD AND DUP3 ADD DUP1 PUSH1 0x40 MSTORE POP DUP2 ADD SWAP1 PUSH2 0x7FF SWAP2 SWAP1 PUSH2 0xB76 JUMP JUMPDEST SWAP1 POP DUP1 SWAP2 POP POP SWAP2 SWAP1 POP JUMP JUMPDEST PUSH1 0x0 DUP1 PUSH1 0x0 SWAP1 SLOAD SWAP1 PUSH2 0x100 EXP SWAP1 DIV PUSH20 0xFFFFFFFFFFFFFFFFFFFFFFFFFFFFFFFFFFFFFFFF AND PUSH20 0xFFFFFFFFFFFFFFFFFFFFFFFFFFFFFFFFFFFFFFFF AND PUSH4 0x18160DDD PUSH1 0x40 MLOAD DUP2 PUSH4 0xFFFFFFFF AND PUSH1 0xE0 SHL DUP2 MSTORE PUSH1 0x4 ADD PUSH1 0x20 PUSH1 0x40 MLOAD DUP1 DUP4 SUB DUP2 DUP7 DUP1 EXTCODESIZE ISZERO DUP1 ISZERO PUSH2 0x873 JUMPI PUSH1 0x0 DUP1 REVERT JUMPDEST POP GAS STATICCALL ISZERO DUP1 ISZERO PUSH2 0x887 JUMPI RETURNDATASIZE PUSH1 0x0 DUP1 RETURNDATACOPY RETURNDATASIZE PUSH1 0x0 REVERT JUMPDEST POP POP POP POP PUSH1 0x40 MLOAD RETURNDATASIZE PUSH1 0x1F NOT PUSH1 0x1F DUP3 ADD AND DUP3 ADD DUP1 PUSH1 0x40 MSTORE POP DUP2 ADD SWAP1 PUSH2 0x8AB SWAP2 SWAP1 PUSH2 0xBD0 JUMP JUMPDEST SWAP1 POP SWAP1 JUMP JUMPDEST PUSH1 0x0 DUP2 GT PUSH2 0x8F3 JUMPI PUSH1 0x40 MLOAD PUSH32 0x8C379A000000000000000000000000000000000000000000000000000000000 DUP2 MSTORE PUSH1 0x4 ADD PUSH2 0x8EA SWAP1 PUSH2 0xD9F JUMP JUMPDEST PUSH1 0x40 MLOAD DUP1 SWAP2 SUB SWAP1 REVERT JUMPDEST PUSH1 0x0 DUP1 PUSH1 0x0 SWAP1 SLOAD SWAP1 PUSH2 0x100 EXP SWAP1 DIV PUSH20 0xFFFFFFFFFFFFFFFFFFFFFFFFFFFFFFFFFFFFFFFF AND PUSH20 0xFFFFFFFFFFFFFFFFFFFFFFFFFFFFFFFFFFFFFFFF AND PUSH4 0xDD62ED3E CALLER ADDRESS PUSH1 0x40 MLOAD DUP4 PUSH4 0xFFFFFFFF AND PUSH1 0xE0 SHL DUP2 MSTORE PUSH1 0x4 ADD PUSH2 0x951 SWAP3 SWAP2 SWAP1 PUSH2 0xCE0 JUMP JUMPDEST PUSH1 0x20 PUSH1 0x40 MLOAD DUP1 DUP4 SUB DUP2 DUP7 DUP1 EXTCODESIZE ISZERO DUP1 ISZERO PUSH2 0x969 JUMPI PUSH1 0x0 DUP1 REVERT JUMPDEST POP GAS STATICCALL ISZERO DUP1 ISZERO PUSH2 0x97D JUMPI RETURNDATASIZE PUSH1 0x0 DUP1 RETURNDATACOPY RETURNDATASIZE PUSH1 0x0 REVERT JUMPDEST POP POP POP POP PUSH1 0x40 MLOAD RETURNDATASIZE PUSH1 0x1F NOT PUSH1 0x1F DUP3 ADD AND DUP3 ADD DUP1 PUSH1 0x40 MSTORE POP DUP2 ADD SWAP1 PUSH2 0x9A1 SWAP2 SWAP1 PUSH2 0xBD0 JUMP JUMPDEST SWAP1 POP DUP2 DUP2 LT ISZERO PUSH2 0x9E6 JUMPI PUSH1 0x40 MLOAD PUSH32 0x8C379A000000000000000000000000000000000000000000000000000000000 DUP2 MSTORE PUSH1 0x4 ADD PUSH2 0x9DD SWAP1 PUSH2 0xDFF JUMP JUMPDEST PUSH1 0x40 MLOAD DUP1 SWAP2 SUB SWAP1 REVERT JUMPDEST PUSH1 0x0 DUP1 SLOAD SWAP1 PUSH2 0x100 EXP SWAP1 DIV PUSH20 0xFFFFFFFFFFFFFFFFFFFFFFFFFFFFFFFFFFFFFFFF AND PUSH20 0xFFFFFFFFFFFFFFFFFFFFFFFFFFFFFFFFFFFFFFFF AND PUSH4 0x23B872DD CALLER ADDRESS DUP6 PUSH1 0x40 MLOAD DUP5 PUSH4 0xFFFFFFFF AND PUSH1 0xE0 SHL DUP2 MSTORE PUSH1 0x4 ADD PUSH2 0xA43 SWAP4 SWAP3 SWAP2 SWAP1 PUSH2 0xD09 JUMP JUMPDEST PUSH1 0x20 PUSH1 0x40 MLOAD DUP1 DUP4 SUB DUP2 PUSH1 0x0 DUP8 DUP1 EXTCODESIZE ISZERO DUP1 ISZERO PUSH2 0xA5D JUMPI PUSH1 0x0 DUP1 REVERT JUMPDEST POP GAS CALL ISZERO DUP1 ISZERO PUSH2 0xA71 JUMPI RETURNDATASIZE PUSH1 0x0 DUP1 RETURNDATACOPY RETURNDATASIZE PUSH1 0x0 REVERT JUMPDEST POP POP POP POP PUSH1 0x40 MLOAD RETURNDATASIZE PUSH1 0x1F NOT PUSH1 0x1F DUP3 ADD AND DUP3 ADD DUP1 PUSH1 0x40 MSTORE POP DUP2 ADD SWAP1 PUSH2 0xA95 SWAP2 SWAP1 PUSH2 0xB76 JUMP JUMPDEST POP PUSH32 0x92F64CA637D023F354075A4BE751B169C1A8A9CCB6D33CDD0CB3520543995727 DUP3 PUSH1 0x40 MLOAD PUSH2 0xAC5 SWAP2 SWAP1 PUSH2 0xE1F JUMP JUMPDEST PUSH1 0x40 MLOAD DUP1 SWAP2 SUB SWAP1 LOG1 POP POP JUMP JUMPDEST PUSH1 0x0 DUP1 SLOAD SWAP1 PUSH2 0x100 EXP SWAP1 DIV PUSH20 0xFFFFFFFFFFFFFFFFFFFFFFFFFFFFFFFFFFFFFFFF AND DUP2 JUMP JUMPDEST PUSH1 0x0 DUP2 MLOAD SWAP1 POP PUSH2 0xB04 DUP2 PUSH2 0xFBE JUMP JUMPDEST SWAP3 SWAP2 POP POP JUMP JUMPDEST PUSH1 0x0 DUP2 MLOAD SWAP1 POP PUSH2 0xB19 DUP2 PUSH2 0xFD5 JUMP JUMPDEST SWAP3 SWAP2 POP POP JUMP JUMPDEST PUSH1 0x0 DUP2 CALLDATALOAD SWAP1 POP PUSH2 0xB2E DUP2 PUSH2 0xFEC JUMP JUMPDEST SWAP3 SWAP2 POP POP JUMP JUMPDEST PUSH1 0x0 DUP2 MLOAD SWAP1 POP PUSH2 0xB43 DUP2 PUSH2 0xFEC JUMP JUMPDEST SWAP3 SWAP2 POP POP JUMP JUMPDEST PUSH1 0x0 PUSH1 0x20 DUP3 DUP5 SUB SLT ISZERO PUSH2 0xB5F JUMPI PUSH2 0xB5E PUSH2 0xEC9 JUMP JUMPDEST JUMPDEST PUSH1 0x0 PUSH2 0xB6D DUP5 DUP3 DUP6 ADD PUSH2 0xAF5 JUMP JUMPDEST SWAP2 POP POP SWAP3 SWAP2 POP POP JUMP JUMPDEST PUSH1 0x0 PUSH1 0x20 DUP3 DUP5 SUB SLT ISZERO PUSH2 0xB8C JUMPI PUSH2 0xB8B PUSH2 0xEC9 JUMP JUMPDEST JUMPDEST PUSH1 0x0 PUSH2 0xB9A DUP5 DUP3 DUP6 ADD PUSH2 0xB0A JUMP JUMPDEST SWAP2 POP POP SWAP3 SWAP2 POP POP JUMP JUMPDEST PUSH1 0x0 PUSH1 0x20 DUP3 DUP5 SUB SLT ISZERO PUSH2 0xBB9 JUMPI PUSH2 0xBB8 PUSH2 0xEC9 JUMP JUMPDEST JUMPDEST PUSH1 0x0 PUSH2 0xBC7 DUP5 DUP3 DUP6 ADD PUSH2 0xB1F JUMP JUMPDEST SWAP2 POP POP SWAP3 SWAP2 POP POP JUMP JUMPDEST PUSH1 0x0 PUSH1 0x20 DUP3 DUP5 SUB SLT ISZERO PUSH2 0xBE6 JUMPI PUSH2 0xBE5 PUSH2 0xEC9 JUMP JUMPDEST JUMPDEST PUSH1 0x0 PUSH2 0xBF4 DUP5 DUP3 DUP6 ADD PUSH2 0xB34 JUMP JUMPDEST SWAP2 POP POP SWAP3 SWAP2 POP POP JUMP JUMPDEST PUSH2 0xC06 DUP2 PUSH2 0xE4B JUMP JUMPDEST DUP3 MSTORE POP POP JUMP JUMPDEST PUSH2 0xC15 DUP2 PUSH2 0xE5D JUMP JUMPDEST DUP3 MSTORE POP POP JUMP JUMPDEST PUSH2 0xC24 DUP2 PUSH2 0xE93 JUMP JUMPDEST DUP3 MSTORE POP POP JUMP JUMPDEST PUSH1 0x0 PUSH2 0xC37 PUSH1 0x22 DUP4 PUSH2 0xE3A JUMP JUMPDEST SWAP2 POP PUSH2 0xC42 DUP3 PUSH2 0xECE JUMP JUMPDEST PUSH1 0x40 DUP3 ADD SWAP1 POP SWAP2 SWAP1 POP JUMP JUMPDEST PUSH1 0x0 PUSH2 0xC5A PUSH1 0x21 DUP4 PUSH2 0xE3A JUMP JUMPDEST SWAP2 POP PUSH2 0xC65 DUP3 PUSH2 0xF1D JUMP JUMPDEST PUSH1 0x40 DUP3 ADD SWAP1 POP SWAP2 SWAP1 POP JUMP JUMPDEST PUSH1 0x0 PUSH2 0xC7D PUSH1 0x1C DUP4 PUSH2 0xE3A JUMP JUMPDEST SWAP2 POP PUSH2 0xC88 DUP3 PUSH2 0xF6C JUMP JUMPDEST PUSH1 0x20 DUP3 ADD SWAP1 POP SWAP2 SWAP1 POP JUMP JUMPDEST PUSH1 0x0 PUSH2 0xCA0 PUSH1 0x1A DUP4 PUSH2 0xE3A JUMP JUMPDEST SWAP2 POP PUSH2 0xCAB DUP3 PUSH2 0xF95 JUMP JUMPDEST PUSH1 0x20 DUP3 ADD SWAP1 POP SWAP2 SWAP1 POP JUMP JUMPDEST PUSH2 0xCBF DUP2 PUSH2 0xE89 JUMP JUMPDEST DUP3 MSTORE POP POP JUMP JUMPDEST PUSH1 0x0 PUSH1 0x20 DUP3 ADD SWAP1 POP PUSH2 0xCDA PUSH1 0x0 DUP4 ADD DUP5 PUSH2 0xBFD JUMP JUMPDEST SWAP3 SWAP2 POP POP JUMP JUMPDEST PUSH1 0x0 PUSH1 0x40 DUP3 ADD SWAP1 POP PUSH2 0xCF5 PUSH1 0x0 DUP4 ADD DUP6 PUSH2 0xBFD JUMP JUMPDEST PUSH2 0xD02 PUSH1 0x20 DUP4 ADD DUP5 PUSH2 0xBFD JUMP JUMPDEST SWAP4 SWAP3 POP POP POP JUMP JUMPDEST PUSH1 0x0 PUSH1 0x60 DUP3 ADD SWAP1 POP PUSH2 0xD1E PUSH1 0x0 DUP4 ADD DUP7 PUSH2 0xBFD JUMP JUMPDEST PUSH2 0xD2B PUSH1 0x20 DUP4 ADD DUP6 PUSH2 0xBFD JUMP JUMPDEST PUSH2 0xD38 PUSH1 0x40 DUP4 ADD DUP5 PUSH2 0xCB6 JUMP JUMPDEST SWAP5 SWAP4 POP POP POP POP JUMP JUMPDEST PUSH1 0x0 PUSH1 0x40 DUP3 ADD SWAP1 POP PUSH2 0xD55 PUSH1 0x0 DUP4 ADD DUP6 PUSH2 0xBFD JUMP JUMPDEST PUSH2 0xD62 PUSH1 0x20 DUP4 ADD DUP5 PUSH2 0xCB6 JUMP JUMPDEST SWAP4 SWAP3 POP POP POP JUMP JUMPDEST PUSH1 0x0 PUSH1 0x20 DUP3 ADD SWAP1 POP PUSH2 0xD7E PUSH1 0x0 DUP4 ADD DUP5 PUSH2 0xC0C JUMP JUMPDEST SWAP3 SWAP2 POP POP JUMP JUMPDEST PUSH1 0x0 PUSH1 0x20 DUP3 ADD SWAP1 POP PUSH2 0xD99 PUSH1 0x0 DUP4 ADD DUP5 PUSH2 0xC1B JUMP JUMPDEST SWAP3 SWAP2 POP POP JUMP JUMPDEST PUSH1 0x0 PUSH1 0x20 DUP3 ADD SWAP1 POP DUP2 DUP2 SUB PUSH1 0x0 DUP4 ADD MSTORE PUSH2 0xDB8 DUP2 PUSH2 0xC2A JUMP JUMPDEST SWAP1 POP SWAP2 SWAP1 POP JUMP JUMPDEST PUSH1 0x0 PUSH1 0x20 DUP3 ADD SWAP1 POP DUP2 DUP2 SUB PUSH1 0x0 DUP4 ADD MSTORE PUSH2 0xDD8 DUP2 PUSH2 0xC4D JUMP JUMPDEST SWAP1 POP SWAP2 SWAP1 POP JUMP JUMPDEST PUSH1 0x0 PUSH1 0x20 DUP3 ADD SWAP1 POP DUP2 DUP2 SUB PUSH1 0x0 DUP4 ADD MSTORE PUSH2 0xDF8 DUP2 PUSH2 0xC70 JUMP JUMPDEST SWAP1 POP SWAP2 SWAP1 POP JUMP JUMPDEST PUSH1 0x0 PUSH1 0x20 DUP3 ADD SWAP1 POP DUP2 DUP2 SUB PUSH1 0x0 DUP4 ADD MSTORE PUSH2 0xE18 DUP2 PUSH2 0xC93 JUMP JUMPDEST SWAP1 POP SWAP2 SWAP1 POP JUMP JUMPDEST PUSH1 0x0 PUSH1 0x20 DUP3 ADD SWAP1 POP PUSH2 0xE34 PUSH1 0x0 DUP4 ADD DUP5 PUSH2 0xCB6 JUMP JUMPDEST SWAP3 SWAP2 POP POP JUMP JUMPDEST PUSH1 0x0 DUP3 DUP3 MSTORE PUSH1 0x20 DUP3 ADD SWAP1 POP SWAP3 SWAP2 POP POP JUMP JUMPDEST PUSH1 0x0 PUSH2 0xE56 DUP3 PUSH2 0xE69 JUMP JUMPDEST SWAP1 POP SWAP2 SWAP1 POP JUMP JUMPDEST PUSH1 0x0 DUP2 ISZERO ISZERO SWAP1 POP SWAP2 SWAP1 POP JUMP JUMPDEST PUSH1 0x0 PUSH20 0xFFFFFFFFFFFFFFFFFFFFFFFFFFFFFFFFFFFFFFFF DUP3 AND SWAP1 POP SWAP2 SWAP1 POP JUMP JUMPDEST PUSH1 0x0 DUP2 SWAP1 POP SWAP2 SWAP1 POP JUMP JUMPDEST PUSH1 0x0 PUSH2 0xE9E DUP3 PUSH2 0xEA5 JUMP JUMPDEST SWAP1 POP SWAP2 SWAP1 POP JUMP JUMPDEST PUSH1 0x0 PUSH2 0xEB0 DUP3 PUSH2 0xEB7 JUMP JUMPDEST SWAP1 POP SWAP2 SWAP1 POP JUMP JUMPDEST PUSH1 0x0 PUSH2 0xEC2 DUP3 PUSH2 0xE69 JUMP JUMPDEST SWAP1 POP SWAP2 SWAP1 POP JUMP JUMPDEST PUSH1 0x0 DUP1 REVERT JUMPDEST PUSH32 0x596F75206E65656420746F2073656C6C206174206C65617374203120746F6B65 PUSH1 0x0 DUP3 ADD MSTORE PUSH32 0x6E21000000000000000000000000000000000000000000000000000000000000 PUSH1 0x20 DUP3 ADD MSTORE POP JUMP JUMPDEST PUSH32 0x4E6F7420656E6F75676820746F6B656E7320696E207468652072657665727365 PUSH1 0x0 DUP3 ADD MSTORE PUSH32 0x2100000000000000000000000000000000000000000000000000000000000000 PUSH1 0x20 DUP3 ADD MSTORE POP JUMP JUMPDEST PUSH32 0x596F75206E65656420746F2073656E6420736F6D652065746865722100000000 PUSH1 0x0 DUP3 ADD MSTORE POP JUMP JUMPDEST PUSH32 0x436865636B2074686520746F6B656E20616C6C6F77616E636521000000000000 PUSH1 0x0 DUP3 ADD MSTORE POP JUMP JUMPDEST PUSH2 0xFC7 DUP2 PUSH2 0xE4B JUMP JUMPDEST DUP2 EQ PUSH2 0xFD2 JUMPI PUSH1 0x0 DUP1 REVERT JUMPDEST POP JUMP JUMPDEST PUSH2 0xFDE DUP2 PUSH2 0xE5D JUMP JUMPDEST DUP2 EQ PUSH2 0xFE9 JUMPI PUSH1 0x0 DUP1 REVERT JUMPDEST POP JUMP JUMPDEST PUSH2 0xFF5 DUP2 PUSH2 0xE89 JUMP JUMPDEST DUP2 EQ PUSH2 0x1000 JUMPI PUSH1 0x0 DUP1 REVERT JUMPDEST POP JUMP INVALID LOG2 PUSH5 0x6970667358 0x22 SLT KECCAK256 CALLCODE 0xEC DUP14 LOG3 PUSH17 0xF9DA5CE95B6DBCE9438DCA81BF95423E90 CALLER 0xF9 0xB8 SWAP7 0x2B 0xBC 0xE5 SWAP16 0xEC PUSH27 0x64736F6C634300080700336080604052678AC7230489E800006002 SSTORE CALLVALUE DUP1 ISZERO PUSH2 0x1C JUMPI PUSH1 0x0 DUP1 REVERT JUMPDEST POP PUSH1 0x2 SLOAD PUSH1 0x0 DUP1 CALLER PUSH20 0xFFFFFFFFFFFFFFFFFFFFFFFFFFFFFFFFFFFFFFFF AND PUSH20 0xFFFFFFFFFFFFFFFFFFFFFFFFFFFFFFFFFFFFFFFF AND DUP2 MSTORE PUSH1 0x20 ADD SWAP1 DUP2 MSTORE PUSH1 0x20 ADD PUSH1 0x0 KECCAK256 DUP2 SWAP1 SSTORE POP PUSH2 0xE57 DUP1 PUSH2 0x71 PUSH1 0x0 CODECOPY PUSH1 0x0 RETURN INVALID PUSH1 0x80 PUSH1 0x40 MSTORE CALLVALUE DUP1 ISZERO PUSH2 0x10 JUMPI PUSH1 0x0 DUP1 REVERT JUMPDEST POP PUSH1 0x4 CALLDATASIZE LT PUSH2 0x9E JUMPI PUSH1 0x0 CALLDATALOAD PUSH1 0xE0 SHR DUP1 PUSH4 0x70A08231 GT PUSH2 0x66 JUMPI DUP1 PUSH4 0x70A08231 EQ PUSH2 0x14B JUMPI DUP1 PUSH4 0x95D89B41 EQ PUSH2 0x17B JUMPI DUP1 PUSH4 0xA9059CBB EQ PUSH2 0x199 JUMPI DUP1 PUSH4 0xDD62ED3E EQ PUSH2 0x1C9 JUMPI DUP1 PUSH4 0xE1F21C67 EQ PUSH2 0x1F9 JUMPI PUSH2 0x9E JUMP JUMPDEST DUP1 PUSH4 0x6FDDE03 EQ PUSH2 0xA3 JUMPI DUP1 PUSH4 0x18160DDD EQ PUSH2 0xC1 JUMPI DUP1 PUSH4 0x23B872DD EQ PUSH2 0xDF JUMPI DUP1 PUSH4 0x313CE567 EQ PUSH2 0x10F JUMPI DUP1 PUSH4 0x38CC4831 EQ PUSH2 0x12D JUMPI JUMPDEST PUSH1 0x0 DUP1 REVERT JUMPDEST PUSH2 0xAB PUSH2 0x229 JUMP JUMPDEST PUSH1 0x40 MLOAD PUSH2 0xB8 SWAP2 SWAP1 PUSH2 0xBF9 JUMP JUMPDEST PUSH1 0x40 MLOAD DUP1 SWAP2 SUB SWAP1 RETURN JUMPDEST PUSH2 0xC9 PUSH2 0x262 JUMP JUMPDEST PUSH1 0x40 MLOAD PUSH2 0xD6 SWAP2 SWAP1 PUSH2 0xC1B JUMP JUMPDEST PUSH1 0x40 MLOAD DUP1 SWAP2 SUB SWAP1 RETURN JUMPDEST PUSH2 0xF9 PUSH1 0x4 DUP1 CALLDATASIZE SUB DUP2 ADD SWAP1 PUSH2 0xF4 SWAP2 SWAP1 PUSH2 0xABB JUMP JUMPDEST PUSH2 0x26C JUMP JUMPDEST PUSH1 0x40 MLOAD PUSH2 0x106 SWAP2 SWAP1 PUSH2 0xBDE JUMP JUMPDEST PUSH1 0x40 MLOAD DUP1 SWAP2 SUB SWAP1 RETURN JUMPDEST PUSH2 0x117 PUSH2 0x5E7 JUMP JUMPDEST PUSH1 0x40 MLOAD PUSH2 0x124 SWAP2 SWAP1 PUSH2 0xC36 JUMP JUMPDEST PUSH1 0x40 MLOAD DUP1 SWAP2 SUB SWAP1 RETURN JUMPDEST PUSH2 0x135 PUSH2 0x5EC JUMP JUMPDEST PUSH1 0x40 MLOAD PUSH2 0x142 SWAP2 SWAP1 PUSH2 0xBC3 JUMP JUMPDEST PUSH1 0x40 MLOAD DUP1 SWAP2 SUB SWAP1 RETURN JUMPDEST PUSH2 0x165 PUSH1 0x4 DUP1 CALLDATASIZE SUB DUP2 ADD SWAP1 PUSH2 0x160 SWAP2 SWAP1 PUSH2 0xA4E JUMP JUMPDEST PUSH2 0x5F4 JUMP JUMPDEST PUSH1 0x40 MLOAD PUSH2 0x172 SWAP2 SWAP1 PUSH2 0xC1B JUMP JUMPDEST PUSH1 0x40 MLOAD DUP1 SWAP2 SUB SWAP1 RETURN JUMPDEST PUSH2 0x183 PUSH2 0x63C JUMP JUMPDEST PUSH1 0x40 MLOAD PUSH2 0x190 SWAP2 SWAP1 PUSH2 0xBF9 JUMP JUMPDEST PUSH1 0x40 MLOAD DUP1 SWAP2 SUB SWAP1 RETURN JUMPDEST PUSH2 0x1B3 PUSH1 0x4 DUP1 CALLDATASIZE SUB DUP2 ADD SWAP1 PUSH2 0x1AE SWAP2 SWAP1 PUSH2 0xB0E JUMP JUMPDEST PUSH2 0x675 JUMP JUMPDEST PUSH1 0x40 MLOAD PUSH2 0x1C0 SWAP2 SWAP1 PUSH2 0xBDE JUMP JUMPDEST PUSH1 0x40 MLOAD DUP1 SWAP2 SUB SWAP1 RETURN JUMPDEST PUSH2 0x1E3 PUSH1 0x4 DUP1 CALLDATASIZE SUB DUP2 ADD SWAP1 PUSH2 0x1DE SWAP2 SWAP1 PUSH2 0xA7B JUMP JUMPDEST PUSH2 0x857 JUMP JUMPDEST PUSH1 0x40 MLOAD PUSH2 0x1F0 SWAP2 SWAP1 PUSH2 0xC1B JUMP JUMPDEST PUSH1 0x40 MLOAD DUP1 SWAP2 SUB SWAP1 RETURN JUMPDEST PUSH2 0x213 PUSH1 0x4 DUP1 CALLDATASIZE SUB DUP2 ADD SWAP1 PUSH2 0x20E SWAP2 SWAP1 PUSH2 0xABB JUMP JUMPDEST PUSH2 0x8DE JUMP JUMPDEST PUSH1 0x40 MLOAD PUSH2 0x220 SWAP2 SWAP1 PUSH2 0xBDE JUMP JUMPDEST PUSH1 0x40 MLOAD DUP1 SWAP2 SUB SWAP1 RETURN JUMPDEST PUSH1 0x40 MLOAD DUP1 PUSH1 0x40 ADD PUSH1 0x40 MSTORE DUP1 PUSH1 0x12 DUP2 MSTORE PUSH1 0x20 ADD PUSH32 0x45524332302D5869616F6368756E436F696E0000000000000000000000000000 DUP2 MSTORE POP DUP2 JUMP JUMPDEST PUSH1 0x0 PUSH1 0x2 SLOAD SWAP1 POP SWAP1 JUMP JUMPDEST PUSH1 0x0 DUP1 PUSH1 0x0 DUP6 PUSH20 0xFFFFFFFFFFFFFFFFFFFFFFFFFFFFFFFFFFFFFFFF AND PUSH20 0xFFFFFFFFFFFFFFFFFFFFFFFFFFFFFFFFFFFFFFFF AND DUP2 MSTORE PUSH1 0x20 ADD SWAP1 DUP2 MSTORE PUSH1 0x20 ADD PUSH1 0x0 KECCAK256 SLOAD DUP3 GT ISZERO PUSH2 0x2B9 JUMPI PUSH1 0x0 DUP1 REVERT JUMPDEST PUSH1 0x1 PUSH1 0x0 DUP6 PUSH20 0xFFFFFFFFFFFFFFFFFFFFFFFFFFFFFFFFFFFFFFFF AND PUSH20 0xFFFFFFFFFFFFFFFFFFFFFFFFFFFFFFFFFFFFFFFF AND DUP2 MSTORE PUSH1 0x20 ADD SWAP1 DUP2 MSTORE PUSH1 0x20 ADD PUSH1 0x0 KECCAK256 PUSH1 0x0 CALLER PUSH20 0xFFFFFFFFFFFFFFFFFFFFFFFFFFFFFFFFFFFFFFFF AND PUSH20 0xFFFFFFFFFFFFFFFFFFFFFFFFFFFFFFFFFFFFFFFF AND DUP2 MSTORE PUSH1 0x20 ADD SWAP1 DUP2 MSTORE PUSH1 0x20 ADD PUSH1 0x0 KECCAK256 SLOAD DUP3 GT ISZERO PUSH2 0x342 JUMPI PUSH1 0x0 DUP1 REVERT JUMPDEST PUSH2 0x393 DUP3 PUSH1 0x0 DUP1 DUP8 PUSH20 0xFFFFFFFFFFFFFFFFFFFFFFFFFFFFFFFFFFFFFFFF AND PUSH20 0xFFFFFFFFFFFFFFFFFFFFFFFFFFFFFFFFFFFFFFFF AND DUP2 MSTORE PUSH1 0x20 ADD SWAP1 DUP2 MSTORE PUSH1 0x20 ADD PUSH1 0x0 KECCAK256 SLOAD PUSH2 0x9D1 SWAP1 SWAP2 SWAP1 PUSH4 0xFFFFFFFF AND JUMP JUMPDEST PUSH1 0x0 DUP1 DUP7 PUSH20 0xFFFFFFFFFFFFFFFFFFFFFFFFFFFFFFFFFFFFFFFF AND PUSH20 0xFFFFFFFFFFFFFFFFFFFFFFFFFFFFFFFFFFFFFFFF AND DUP2 MSTORE PUSH1 0x20 ADD SWAP1 DUP2 MSTORE PUSH1 0x20 ADD PUSH1 0x0 KECCAK256 DUP2 SWAP1 SSTORE POP PUSH2 0x464 DUP3 PUSH1 0x1 PUSH1 0x0 DUP8 PUSH20 0xFFFFFFFFFFFFFFFFFFFFFFFFFFFFFFFFFFFFFFFF AND PUSH20 0xFFFFFFFFFFFFFFFFFFFFFFFFFFFFFFFFFFFFFFFF AND DUP2 MSTORE PUSH1 0x20 ADD SWAP1 DUP2 MSTORE PUSH1 0x20 ADD PUSH1 0x0 KECCAK256 PUSH1 0x0 DUP7 PUSH20 0xFFFFFFFFFFFFFFFFFFFFFFFFFFFFFFFFFFFFFFFF AND PUSH20 0xFFFFFFFFFFFFFFFFFFFFFFFFFFFFFFFFFFFFFFFF AND DUP2 MSTORE PUSH1 0x20 ADD SWAP1 DUP2 MSTORE PUSH1 0x20 ADD PUSH1 0x0 KECCAK256 SLOAD PUSH2 0x9D1 SWAP1 SWAP2 SWAP1 PUSH4 0xFFFFFFFF AND JUMP JUMPDEST PUSH1 0x1 PUSH1 0x0 DUP7 PUSH20 0xFFFFFFFFFFFFFFFFFFFFFFFFFFFFFFFFFFFFFFFF AND PUSH20 0xFFFFFFFFFFFFFFFFFFFFFFFFFFFFFFFFFFFFFFFF AND DUP2 MSTORE PUSH1 0x20 ADD SWAP1 DUP2 MSTORE PUSH1 0x20 ADD PUSH1 0x0 KECCAK256 PUSH1 0x0 DUP6 PUSH20 0xFFFFFFFFFFFFFFFFFFFFFFFFFFFFFFFFFFFFFFFF AND PUSH20 0xFFFFFFFFFFFFFFFFFFFFFFFFFFFFFFFFFFFFFFFF AND DUP2 MSTORE PUSH1 0x20 ADD SWAP1 DUP2 MSTORE PUSH1 0x20 ADD PUSH1 0x0 KECCAK256 DUP2 SWAP1 SSTORE POP PUSH2 0x535 DUP3 PUSH1 0x0 DUP1 DUP7 PUSH20 0xFFFFFFFFFFFFFFFFFFFFFFFFFFFFFFFFFFFFFFFF AND PUSH20 0xFFFFFFFFFFFFFFFFFFFFFFFFFFFFFFFFFFFFFFFF AND DUP2 MSTORE PUSH1 0x20 ADD SWAP1 DUP2 MSTORE PUSH1 0x20 ADD PUSH1 0x0 KECCAK256 SLOAD PUSH2 0x9F8 SWAP1 SWAP2 SWAP1 PUSH4 0xFFFFFFFF AND JUMP JUMPDEST PUSH1 0x0 DUP1 DUP6 PUSH20 0xFFFFFFFFFFFFFFFFFFFFFFFFFFFFFFFFFFFFFFFF AND PUSH20 0xFFFFFFFFFFFFFFFFFFFFFFFFFFFFFFFFFFFFFFFF AND DUP2 MSTORE PUSH1 0x20 ADD SWAP1 DUP2 MSTORE PUSH1 0x20 ADD PUSH1 0x0 KECCAK256 DUP2 SWAP1 SSTORE POP DUP3 PUSH20 0xFFFFFFFFFFFFFFFFFFFFFFFFFFFFFFFFFFFFFFFF AND DUP5 PUSH20 0xFFFFFFFFFFFFFFFFFFFFFFFFFFFFFFFFFFFFFFFF AND PUSH32 0x5225EAC2A7FACFBEB099C00A4CC7C457701324F1FD84B84B14033F9E911374A4 DUP5 PUSH1 0x40 MLOAD PUSH2 0x5D4 SWAP2 SWAP1 PUSH2 0xC1B JUMP JUMPDEST PUSH1 0x40 MLOAD DUP1 SWAP2 SUB SWAP1 LOG3 PUSH1 0x1 SWAP1 POP SWAP4 SWAP3 POP POP POP JUMP JUMPDEST PUSH1 0x12 DUP2 JUMP JUMPDEST PUSH1 0x0 ADDRESS SWAP1 POP SWAP1 JUMP JUMPDEST PUSH1 0x0 DUP1 PUSH1 0x0 DUP4 PUSH20 0xFFFFFFFFFFFFFFFFFFFFFFFFFFFFFFFFFFFFFFFF AND PUSH20 0xFFFFFFFFFFFFFFFFFFFFFFFFFFFFFFFFFFFFFFFF AND DUP2 MSTORE PUSH1 0x20 ADD SWAP1 DUP2 MSTORE PUSH1 0x20 ADD PUSH1 0x0 KECCAK256 SLOAD SWAP1 POP SWAP2 SWAP1 POP JUMP JUMPDEST PUSH1 0x40 MLOAD DUP1 PUSH1 0x40 ADD PUSH1 0x40 MSTORE DUP1 PUSH1 0x7 DUP2 MSTORE PUSH1 0x20 ADD PUSH32 0x4552432D58434300000000000000000000000000000000000000000000000000 DUP2 MSTORE POP DUP2 JUMP JUMPDEST PUSH1 0x0 DUP1 PUSH1 0x0 CALLER PUSH20 0xFFFFFFFFFFFFFFFFFFFFFFFFFFFFFFFFFFFFFFFF AND PUSH20 0xFFFFFFFFFFFFFFFFFFFFFFFFFFFFFFFFFFFFFFFF AND DUP2 MSTORE PUSH1 0x20 ADD SWAP1 DUP2 MSTORE PUSH1 0x20 ADD PUSH1 0x0 KECCAK256 SLOAD DUP3 GT ISZERO PUSH2 0x6C2 JUMPI PUSH1 0x0 DUP1 REVERT JUMPDEST PUSH2 0x713 DUP3 PUSH1 0x0 DUP1 CALLER PUSH20 0xFFFFFFFFFFFFFFFFFFFFFFFFFFFFFFFFFFFFFFFF AND PUSH20 0xFFFFFFFFFFFFFFFFFFFFFFFFFFFFFFFFFFFFFFFF AND DUP2 MSTORE PUSH1 0x20 ADD SWAP1 DUP2 MSTORE PUSH1 0x20 ADD PUSH1 0x0 KECCAK256 SLOAD PUSH2 0x9D1 SWAP1 SWAP2 SWAP1 PUSH4 0xFFFFFFFF AND JUMP JUMPDEST PUSH1 0x0 DUP1 CALLER PUSH20 0xFFFFFFFFFFFFFFFFFFFFFFFFFFFFFFFFFFFFFFFF AND PUSH20 0xFFFFFFFFFFFFFFFFFFFFFFFFFFFFFFFFFFFFFFFF AND DUP2 MSTORE PUSH1 0x20 ADD SWAP1 DUP2 MSTORE PUSH1 0x20 ADD PUSH1 0x0 KECCAK256 DUP2 SWAP1 SSTORE POP PUSH2 0x7A6 DUP3 PUSH1 0x0 DUP1 DUP7 PUSH20 0xFFFFFFFFFFFFFFFFFFFFFFFFFFFFFFFFFFFFFFFF AND PUSH20 0xFFFFFFFFFFFFFFFFFFFFFFFFFFFFFFFFFFFFFFFF AND DUP2 MSTORE PUSH1 0x20 ADD SWAP1 DUP2 MSTORE PUSH1 0x20 ADD PUSH1 0x0 KECCAK256 SLOAD PUSH2 0x9F8 SWAP1 SWAP2 SWAP1 PUSH4 0xFFFFFFFF AND JUMP JUMPDEST PUSH1 0x0 DUP1 DUP6 PUSH20 0xFFFFFFFFFFFFFFFFFFFFFFFFFFFFFFFFFFFFFFFF AND PUSH20 0xFFFFFFFFFFFFFFFFFFFFFFFFFFFFFFFFFFFFFFFF AND DUP2 MSTORE PUSH1 0x20 ADD SWAP1 DUP2 MSTORE PUSH1 0x20 ADD PUSH1 0x0 KECCAK256 DUP2 SWAP1 SSTORE POP DUP3 PUSH20 0xFFFFFFFFFFFFFFFFFFFFFFFFFFFFFFFFFFFFFFFF AND CALLER PUSH20 0xFFFFFFFFFFFFFFFFFFFFFFFFFFFFFFFFFFFFFFFF AND PUSH32 0x5225EAC2A7FACFBEB099C00A4CC7C457701324F1FD84B84B14033F9E911374A4 DUP5 PUSH1 0x40 MLOAD PUSH2 0x845 SWAP2 SWAP1 PUSH2 0xC1B JUMP JUMPDEST PUSH1 0x40 MLOAD DUP1 SWAP2 SUB SWAP1 LOG3 PUSH1 0x1 SWAP1 POP SWAP3 SWAP2 POP POP JUMP JUMPDEST PUSH1 0x0 PUSH1 0x1 PUSH1 0x0 DUP5 PUSH20 0xFFFFFFFFFFFFFFFFFFFFFFFFFFFFFFFFFFFFFFFF AND PUSH20 0xFFFFFFFFFFFFFFFFFFFFFFFFFFFFFFFFFFFFFFFF AND DUP2 MSTORE PUSH1 0x20 ADD SWAP1 DUP2 MSTORE PUSH1 0x20 ADD PUSH1 0x0 KECCAK256 PUSH1 0x0 DUP4 PUSH20 0xFFFFFFFFFFFFFFFFFFFFFFFFFFFFFFFFFFFFFFFF AND PUSH20 0xFFFFFFFFFFFFFFFFFFFFFFFFFFFFFFFFFFFFFFFF AND DUP2 MSTORE PUSH1 0x20 ADD SWAP1 DUP2 MSTORE PUSH1 0x20 ADD PUSH1 0x0 KECCAK256 SLOAD SWAP1 POP SWAP3 SWAP2 POP POP JUMP JUMPDEST PUSH1 0x0 DUP2 PUSH1 0x1 PUSH1 0x0 DUP7 PUSH20 0xFFFFFFFFFFFFFFFFFFFFFFFFFFFFFFFFFFFFFFFF AND PUSH20 0xFFFFFFFFFFFFFFFFFFFFFFFFFFFFFFFFFFFFFFFF AND DUP2 MSTORE PUSH1 0x20 ADD SWAP1 DUP2 MSTORE PUSH1 0x20 ADD PUSH1 0x0 KECCAK256 PUSH1 0x0 DUP6 PUSH20 0xFFFFFFFFFFFFFFFFFFFFFFFFFFFFFFFFFFFFFFFF AND PUSH20 0xFFFFFFFFFFFFFFFFFFFFFFFFFFFFFFFFFFFFFFFF AND DUP2 MSTORE PUSH1 0x20 ADD SWAP1 DUP2 MSTORE PUSH1 0x20 ADD PUSH1 0x0 KECCAK256 DUP2 SWAP1 SSTORE POP DUP3 PUSH20 0xFFFFFFFFFFFFFFFFFFFFFFFFFFFFFFFFFFFFFFFF AND DUP5 PUSH20 0xFFFFFFFFFFFFFFFFFFFFFFFFFFFFFFFFFFFFFFFF AND PUSH32 0x8C5BE1E5EBEC7D5BD14F71427D1E84F3DD0314C0F7B2291E5B200AC8C7C3B925 DUP5 PUSH1 0x40 MLOAD PUSH2 0x9BE SWAP2 SWAP1 PUSH2 0xC1B JUMP JUMPDEST PUSH1 0x40 MLOAD DUP1 SWAP2 SUB SWAP1 LOG3 PUSH1 0x1 SWAP1 POP SWAP4 SWAP3 POP POP POP JUMP JUMPDEST PUSH1 0x0 DUP3 DUP3 GT ISZERO PUSH2 0x9E4 JUMPI PUSH2 0x9E3 PUSH2 0xD7F JUMP JUMPDEST JUMPDEST DUP2 DUP4 PUSH2 0x9F0 SWAP2 SWAP1 PUSH2 0xCC3 JUMP JUMPDEST SWAP1 POP SWAP3 SWAP2 POP POP JUMP JUMPDEST PUSH1 0x0 DUP1 DUP3 DUP5 PUSH2 0xA07 SWAP2 SWAP1 PUSH2 0xC6D JUMP JUMPDEST SWAP1 POP DUP4 DUP2 LT ISZERO PUSH2 0xA1A JUMPI PUSH2 0xA19 PUSH2 0xD7F JUMP JUMPDEST JUMPDEST DUP1 SWAP2 POP POP SWAP3 SWAP2 POP POP JUMP JUMPDEST PUSH1 0x0 DUP2 CALLDATALOAD SWAP1 POP PUSH2 0xA33 DUP2 PUSH2 0xDF3 JUMP JUMPDEST SWAP3 SWAP2 POP POP JUMP JUMPDEST PUSH1 0x0 DUP2 CALLDATALOAD SWAP1 POP PUSH2 0xA48 DUP2 PUSH2 0xE0A JUMP JUMPDEST SWAP3 SWAP2 POP POP JUMP JUMPDEST PUSH1 0x0 PUSH1 0x20 DUP3 DUP5 SUB SLT ISZERO PUSH2 0xA64 JUMPI PUSH2 0xA63 PUSH2 0xDDD JUMP JUMPDEST JUMPDEST PUSH1 0x0 PUSH2 0xA72 DUP5 DUP3 DUP6 ADD PUSH2 0xA24 JUMP JUMPDEST SWAP2 POP POP SWAP3 SWAP2 POP POP JUMP JUMPDEST PUSH1 0x0 DUP1 PUSH1 0x40 DUP4 DUP6 SUB SLT ISZERO PUSH2 0xA92 JUMPI PUSH2 0xA91 PUSH2 0xDDD JUMP JUMPDEST JUMPDEST PUSH1 0x0 PUSH2 0xAA0 DUP6 DUP3 DUP7 ADD PUSH2 0xA24 JUMP JUMPDEST SWAP3 POP POP PUSH1 0x20 PUSH2 0xAB1 DUP6 DUP3 DUP7 ADD PUSH2 0xA24 JUMP JUMPDEST SWAP2 POP POP SWAP3 POP SWAP3 SWAP1 POP JUMP JUMPDEST PUSH1 0x0 DUP1 PUSH1 0x0 PUSH1 0x60 DUP5 DUP7 SUB SLT ISZERO PUSH2 0xAD4 JUMPI PUSH2 0xAD3 PUSH2 0xDDD JUMP JUMPDEST JUMPDEST PUSH1 0x0 PUSH2 0xAE2 DUP7 DUP3 DUP8 ADD PUSH2 0xA24 JUMP JUMPDEST SWAP4 POP POP PUSH1 0x20 PUSH2 0xAF3 DUP7 DUP3 DUP8 ADD PUSH2 0xA24 JUMP JUMPDEST SWAP3 POP POP PUSH1 0x40 PUSH2 0xB04 DUP7 DUP3 DUP8 ADD PUSH2 0xA39 JUMP JUMPDEST SWAP2 POP POP SWAP3 POP SWAP3 POP SWAP3 JUMP JUMPDEST PUSH1 0x0 DUP1 PUSH1 0x40 DUP4 DUP6 SUB SLT ISZERO PUSH2 0xB25 JUMPI PUSH2 0xB24 PUSH2 0xDDD JUMP JUMPDEST JUMPDEST PUSH1 0x0 PUSH2 0xB33 DUP6 DUP3 DUP7 ADD PUSH2 0xA24 JUMP JUMPDEST SWAP3 POP POP PUSH1 0x20 PUSH2 0xB44 DUP6 DUP3 DUP7 ADD PUSH2 0xA39 JUMP JUMPDEST SWAP2 POP POP SWAP3 POP SWAP3 SWAP1 POP JUMP JUMPDEST PUSH2 0xB57 DUP2 PUSH2 0xCF7 JUMP JUMPDEST DUP3 MSTORE POP POP JUMP JUMPDEST PUSH2 0xB66 DUP2 PUSH2 0xD09 JUMP JUMPDEST DUP3 MSTORE POP POP JUMP JUMPDEST PUSH1 0x0 PUSH2 0xB77 DUP3 PUSH2 0xC51 JUMP JUMPDEST PUSH2 0xB81 DUP2 DUP6 PUSH2 0xC5C JUMP JUMPDEST SWAP4 POP PUSH2 0xB91 DUP2 DUP6 PUSH1 0x20 DUP7 ADD PUSH2 0xD4C JUMP JUMPDEST PUSH2 0xB9A DUP2 PUSH2 0xDE2 JUMP JUMPDEST DUP5 ADD SWAP2 POP POP SWAP3 SWAP2 POP POP JUMP JUMPDEST PUSH2 0xBAE DUP2 PUSH2 0xD35 JUMP JUMPDEST DUP3 MSTORE POP POP JUMP JUMPDEST PUSH2 0xBBD DUP2 PUSH2 0xD3F JUMP JUMPDEST DUP3 MSTORE POP POP JUMP JUMPDEST PUSH1 0x0 PUSH1 0x20 DUP3 ADD SWAP1 POP PUSH2 0xBD8 PUSH1 0x0 DUP4 ADD DUP5 PUSH2 0xB4E JUMP JUMPDEST SWAP3 SWAP2 POP POP JUMP JUMPDEST PUSH1 0x0 PUSH1 0x20 DUP3 ADD SWAP1 POP PUSH2 0xBF3 PUSH1 0x0 DUP4 ADD DUP5 PUSH2 0xB5D JUMP JUMPDEST SWAP3 SWAP2 POP POP JUMP JUMPDEST PUSH1 0x0 PUSH1 0x20 DUP3 ADD SWAP1 POP DUP2 DUP2 SUB PUSH1 0x0 DUP4 ADD MSTORE PUSH2 0xC13 DUP2 DUP5 PUSH2 0xB6C JUMP JUMPDEST SWAP1 POP SWAP3 SWAP2 POP POP JUMP JUMPDEST PUSH1 0x0 PUSH1 0x20 DUP3 ADD SWAP1 POP PUSH2 0xC30 PUSH1 0x0 DUP4 ADD DUP5 PUSH2 0xBA5 JUMP JUMPDEST SWAP3 SWAP2 POP POP JUMP JUMPDEST PUSH1 0x0 PUSH1 0x20 DUP3 ADD SWAP1 POP PUSH2 0xC4B PUSH1 0x0 DUP4 ADD DUP5 PUSH2 0xBB4 JUMP JUMPDEST SWAP3 SWAP2 POP POP JUMP JUMPDEST PUSH1 0x0 DUP2 MLOAD SWAP1 POP SWAP2 SWAP1 POP JUMP JUMPDEST PUSH1 0x0 DUP3 DUP3 MSTORE PUSH1 0x20 DUP3 ADD SWAP1 POP SWAP3 SWAP2 POP POP JUMP JUMPDEST PUSH1 0x0 PUSH2 0xC78 DUP3 PUSH2 0xD35 JUMP JUMPDEST SWAP2 POP PUSH2 0xC83 DUP4 PUSH2 0xD35 JUMP JUMPDEST SWAP3 POP DUP3 PUSH32 0xFFFFFFFFFFFFFFFFFFFFFFFFFFFFFFFFFFFFFFFFFFFFFFFFFFFFFFFFFFFFFFFF SUB DUP3 GT ISZERO PUSH2 0xCB8 JUMPI PUSH2 0xCB7 PUSH2 0xDAE JUMP JUMPDEST JUMPDEST DUP3 DUP3 ADD SWAP1 POP SWAP3 SWAP2 POP POP JUMP JUMPDEST PUSH1 0x0 PUSH2 0xCCE DUP3 PUSH2 0xD35 JUMP JUMPDEST SWAP2 POP PUSH2 0xCD9 DUP4 PUSH2 0xD35 JUMP JUMPDEST SWAP3 POP DUP3 DUP3 LT ISZERO PUSH2 0xCEC JUMPI PUSH2 0xCEB PUSH2 0xDAE JUMP JUMPDEST JUMPDEST DUP3 DUP3 SUB SWAP1 POP SWAP3 SWAP2 POP POP JUMP JUMPDEST PUSH1 0x0 PUSH2 0xD02 DUP3 PUSH2 0xD15 JUMP JUMPDEST SWAP1 POP SWAP2 SWAP1 POP JUMP JUMPDEST PUSH1 0x0 DUP2 ISZERO ISZERO SWAP1 POP SWAP2 SWAP1 POP JUMP JUMPDEST PUSH1 0x0 PUSH20 0xFFFFFFFFFFFFFFFFFFFFFFFFFFFFFFFFFFFFFFFF DUP3 AND SWAP1 POP SWAP2 SWAP1 POP JUMP JUMPDEST PUSH1 0x0 DUP2 SWAP1 POP SWAP2 SWAP1 POP JUMP JUMPDEST PUSH1 0x0 PUSH1 0xFF DUP3 AND SWAP1 POP SWAP2 SWAP1 POP JUMP JUMPDEST PUSH1 0x0 JUMPDEST DUP4 DUP2 LT ISZERO PUSH2 0xD6A JUMPI DUP1 DUP3 ADD MLOAD DUP2 DUP5 ADD MSTORE PUSH1 0x20 DUP2 ADD SWAP1 POP PUSH2 0xD4F JUMP JUMPDEST DUP4 DUP2 GT ISZERO PUSH2 0xD79 JUMPI PUSH1 0x0 DUP5 DUP5 ADD MSTORE JUMPDEST POP POP POP POP JUMP JUMPDEST PUSH32 0x4E487B7100000000000000000000000000000000000000000000000000000000 PUSH1 0x0 MSTORE PUSH1 0x1 PUSH1 0x4 MSTORE PUSH1 0x24 PUSH1 0x0 REVERT JUMPDEST PUSH32 0x4E487B7100000000000000000000000000000000000000000000000000000000 PUSH1 0x0 MSTORE PUSH1 0x11 PUSH1 0x4 MSTORE PUSH1 0x24 PUSH1 0x0 REVERT JUMPDEST PUSH1 0x0 DUP1 REVERT JUMPDEST PUSH1 0x0 PUSH1 0x1F NOT PUSH1 0x1F DUP4 ADD AND SWAP1 POP SWAP2 SWAP1 POP JUMP JUMPDEST PUSH2 0xDFC DUP2 PUSH2 0xCF7 JUMP JUMPDEST DUP2 EQ PUSH2 0xE07 JUMPI PUSH1 0x0 DUP1 REVERT JUMPDEST POP JUMP JUMPDEST PUSH2 0xE13 DUP2 PUSH2 0xD35 JUMP JUMPDEST DUP2 EQ PUSH2 0xE1E JUMPI PUSH1 0x0 DUP1 REVERT JUMPDEST POP JUMP INVALID LOG2 PUSH5 0x6970667358 0x22 SLT KECCAK256 0xFC 0x1F PUSH27 0x11181E89B8F836AB022A7AC4DF36DD30686D4C5476EF0FAA01836C PUSH3 0x8E6473 PUSH16 0x6C634300080700330000000000000000 "
		},
		"gasEstimates": {
			"creation": {
				"codeDepositCost": "830600",
				"executionCost": "infinite",
				"totalCost": "infinite"
			},
			"external": {
				"approve(uint256)": "infinite",
				"buy()": "infinite",
				"getAddress()": "408",
				"getAllowance()": "infinite",
				"getDexBalance()": "infinite",
				"getOwnerBalance()": "infinite",
				"getSenderAddress()": "430",
				"getTokenAddress()": "infinite",
				"getTotalSupply()": "infinite",
				"sell(uint256)": "infinite",
				"token()": "2707"
			}
		},
		"methodIdentifiers": {
			"approve(uint256)": "b759f954",
			"buy()": "a6f2ae3a",
			"getAddress()": "38cc4831",
			"getAllowance()": "973e9b8b",
			"getDexBalance()": "430f4801",
			"getOwnerBalance()": "590791f2",
			"getSenderAddress()": "42948e18",
			"getTokenAddress()": "10fe9ae8",
			"getTotalSupply()": "c4e41b22",
			"sell(uint256)": "e4849b32",
			"token()": "fc0c546a"
		}
	},
	"abi": [
		{
			"inputs": [],
			"stateMutability": "nonpayable",
			"type": "constructor"
		},
		{
			"anonymous": false,
			"inputs": [
				{
					"indexed": false,
					"internalType": "uint256",
					"name": "amount",
					"type": "uint256"
				}
			],
			"name": "Bought",
			"type": "event"
		},
		{
			"anonymous": false,
			"inputs": [
				{
					"indexed": false,
					"internalType": "uint256",
					"name": "amount",
					"type": "uint256"
				}
			],
			"name": "Sold",
			"type": "event"
		},
		{
			"inputs": [
				{
					"internalType": "uint256",
					"name": "amount",
					"type": "uint256"
				}
			],
			"name": "approve",
			"outputs": [
				{
					"internalType": "bool",
					"name": "",
					"type": "bool"
				}
			],
			"stateMutability": "nonpayable",
			"type": "function"
		},
		{
			"inputs": [],
			"name": "buy",
			"outputs": [],
			"stateMutability": "payable",
			"type": "function"
		},
		{
			"inputs": [],
			"name": "getAddress",
			"outputs": [
				{
					"internalType": "address",
					"name": "",
					"type": "address"
				}
			],
			"stateMutability": "view",
			"type": "function"
		},
		{
			"inputs": [],
			"name": "getAllowance",
			"outputs": [
				{
					"internalType": "uint256",
					"name": "",
					"type": "uint256"
				}
			],
			"stateMutability": "view",
			"type": "function"
		},
		{
			"inputs": [],
			"name": "getDexBalance",
			"outputs": [
				{
					"internalType": "uint256",
					"name": "",
					"type": "uint256"
				}
			],
			"stateMutability": "view",
			"type": "function"
		},
		{
			"inputs": [],
			"name": "getOwnerBalance",
			"outputs": [
				{
					"internalType": "uint256",
					"name": "",
					"type": "uint256"
				}
			],
			"stateMutability": "view",
			"type": "function"
		},
		{
			"inputs": [],
			"name": "getSenderAddress",
			"outputs": [
				{
					"internalType": "address",
					"name": "",
					"type": "address"
				}
			],
			"stateMutability": "view",
			"type": "function"
		},
		{
			"inputs": [],
			"name": "getTokenAddress",
			"outputs": [
				{
					"internalType": "address",
					"name": "",
					"type": "address"
				}
			],
			"stateMutability": "view",
			"type": "function"
		},
		{
			"inputs": [],
			"name": "getTotalSupply",
			"outputs": [
				{
					"internalType": "uint256",
					"name": "",
					"type": "uint256"
				}
			],
			"stateMutability": "view",
			"type": "function"
		},
		{
			"inputs": [
				{
					"internalType": "uint256",
					"name": "amount",
					"type": "uint256"
				}
			],
			"name": "sell",
			"outputs": [],
			"stateMutability": "payable",
			"type": "function"
		},
		{
			"inputs": [],
			"name": "token",
			"outputs": [
				{
					"internalType": "contract IERC20",
					"name": "",
					"type": "address"
				}
			],
			"stateMutability": "view",
			"type": "function"
		}
	]
}