{
	"contracts/Proxy/Logic1.sol": {
		"Logic1": {
			"abi": [
				{
					"inputs": [
						{
							"internalType": "uint256",
							"name": "_number",
							"type": "uint256"
						}
					],
					"name": "setNumber",
					"outputs": [],
					"stateMutability": "nonpayable",
					"type": "function"
				}
			],
			"devdoc": {
				"kind": "dev",
				"methods": {},
				"version": 1
			},
			"evm": {
				"assembly": "    /* \"contracts/Proxy/Logic1.sol\":70:195  contract Logic1{... */\n  mstore(0x40, 0x80)\n  callvalue\n  dup1\n  iszero\n  tag_1\n  jumpi\n  0x00\n  dup1\n  revert\ntag_1:\n  pop\n  dataSize(sub_0)\n  dup1\n  dataOffset(sub_0)\n  0x00\n  codecopy\n  0x00\n  return\nstop\n\nsub_0: assembly {\n        /* \"contracts/Proxy/Logic1.sol\":70:195  contract Logic1{... */\n      mstore(0x40, 0x80)\n      callvalue\n      dup1\n      iszero\n      tag_1\n      jumpi\n      0x00\n      dup1\n      revert\n    tag_1:\n      pop\n      jumpi(tag_2, lt(calldatasize, 0x04))\n      shr(0xe0, calldataload(0x00))\n      dup1\n      0x3fb5c1cb\n      eq\n      tag_3\n      jumpi\n    tag_2:\n      0x00\n      dup1\n      revert\n        /* \"contracts/Proxy/Logic1.sol\":117:193  function setNumber(uint _number) public {... */\n    tag_3:\n      tag_4\n      0x04\n      dup1\n      calldatasize\n      sub\n      dup2\n      add\n      swap1\n      tag_5\n      swap2\n      swap1\n      tag_6\n      jump\t// in\n    tag_5:\n      tag_7\n      jump\t// in\n    tag_4:\n      stop\n    tag_7:\n        /* \"contracts/Proxy/Logic1.sol\":185:186  1 */\n      0x01\n        /* \"contracts/Proxy/Logic1.sol\":176:182  number */\n      sload(0x00)\n        /* \"contracts/Proxy/Logic1.sol\":176:186  number + 1 */\n      tag_9\n      swap2\n      swap1\n      tag_10\n      jump\t// in\n    tag_9:\n        /* \"contracts/Proxy/Logic1.sol\":167:173  number */\n      0x00\n        /* \"contracts/Proxy/Logic1.sol\":167:186  number = number + 1 */\n      dup2\n      swap1\n      sstore\n      pop\n        /* \"contracts/Proxy/Logic1.sol\":117:193  function setNumber(uint _number) public {... */\n      pop\n      jump\t// out\n        /* \"#utility.yul\":7:146   */\n    tag_12:\n        /* \"#utility.yul\":53:58   */\n      0x00\n        /* \"#utility.yul\":91:97   */\n      dup2\n        /* \"#utility.yul\":78:98   */\n      calldataload\n        /* \"#utility.yul\":69:98   */\n      swap1\n      pop\n        /* \"#utility.yul\":107:140   */\n      tag_14\n        /* \"#utility.yul\":134:139   */\n      dup2\n        /* \"#utility.yul\":107:140   */\n      tag_15\n      jump\t// in\n    tag_14:\n        /* \"#utility.yul\":7:146   */\n      swap3\n      swap2\n      pop\n      pop\n      jump\t// out\n        /* \"#utility.yul\":152:481   */\n    tag_6:\n        /* \"#utility.yul\":211:217   */\n      0x00\n        /* \"#utility.yul\":260:262   */\n      0x20\n        /* \"#utility.yul\":248:257   */\n      dup3\n        /* \"#utility.yul\":239:246   */\n      dup5\n        /* \"#utility.yul\":235:258   */\n      sub\n        /* \"#utility.yul\":231:263   */\n      slt\n        /* \"#utility.yul\":228:347   */\n      iszero\n      tag_17\n      jumpi\n        /* \"#utility.yul\":266:345   */\n      tag_18\n      tag_19\n      jump\t// in\n    tag_18:\n        /* \"#utility.yul\":228:347   */\n    tag_17:\n        /* \"#utility.yul\":386:387   */\n      0x00\n        /* \"#utility.yul\":411:464   */\n      tag_20\n        /* \"#utility.yul\":456:463   */\n      dup5\n        /* \"#utility.yul\":447:453   */\n      dup3\n        /* \"#utility.yul\":436:445   */\n      dup6\n        /* \"#utility.yul\":432:454   */\n      add\n        /* \"#utility.yul\":411:464   */\n      tag_12\n      jump\t// in\n    tag_20:\n        /* \"#utility.yul\":401:464   */\n      swap2\n      pop\n        /* \"#utility.yul\":357:474   */\n      pop\n        /* \"#utility.yul\":152:481   */\n      swap3\n      swap2\n      pop\n      pop\n      jump\t// out\n        /* \"#utility.yul\":568:873   */\n    tag_10:\n        /* \"#utility.yul\":608:611   */\n      0x00\n        /* \"#utility.yul\":627:647   */\n      tag_24\n        /* \"#utility.yul\":645:646   */\n      dup3\n        /* \"#utility.yul\":627:647   */\n      tag_25\n      jump\t// in\n    tag_24:\n        /* \"#utility.yul\":622:647   */\n      swap2\n      pop\n        /* \"#utility.yul\":661:681   */\n      tag_26\n        /* \"#utility.yul\":679:680   */\n      dup4\n        /* \"#utility.yul\":661:681   */\n      tag_25\n      jump\t// in\n    tag_26:\n        /* \"#utility.yul\":656:681   */\n      swap3\n      pop\n        /* \"#utility.yul\":815:816   */\n      dup3\n        /* \"#utility.yul\":747:813   */\n      0xffffffffffffffffffffffffffffffffffffffffffffffffffffffffffffffff\n        /* \"#utility.yul\":743:817   */\n      sub\n        /* \"#utility.yul\":740:741   */\n      dup3\n        /* \"#utility.yul\":737:818   */\n      gt\n        /* \"#utility.yul\":734:841   */\n      iszero\n      tag_27\n      jumpi\n        /* \"#utility.yul\":821:839   */\n      tag_28\n      tag_29\n      jump\t// in\n    tag_28:\n        /* \"#utility.yul\":734:841   */\n    tag_27:\n        /* \"#utility.yul\":865:866   */\n      dup3\n        /* \"#utility.yul\":862:863   */\n      dup3\n        /* \"#utility.yul\":858:867   */\n      add\n        /* \"#utility.yul\":851:867   */\n      swap1\n      pop\n        /* \"#utility.yul\":568:873   */\n      swap3\n      swap2\n      pop\n      pop\n      jump\t// out\n        /* \"#utility.yul\":879:956   */\n    tag_25:\n        /* \"#utility.yul\":916:923   */\n      0x00\n        /* \"#utility.yul\":945:950   */\n      dup2\n        /* \"#utility.yul\":934:950   */\n      swap1\n      pop\n        /* \"#utility.yul\":879:956   */\n      swap2\n      swap1\n      pop\n      jump\t// out\n        /* \"#utility.yul\":962:1142   */\n    tag_29:\n        /* \"#utility.yul\":1010:1087   */\n      0x4e487b7100000000000000000000000000000000000000000000000000000000\n        /* \"#utility.yul\":1007:1008   */\n      0x00\n        /* \"#utility.yul\":1000:1088   */\n      mstore\n        /* \"#utility.yul\":1107:1111   */\n      0x11\n        /* \"#utility.yul\":1104:1105   */\n      0x04\n        /* \"#utility.yul\":1097:1112   */\n      mstore\n        /* \"#utility.yul\":1131:1135   */\n      0x24\n        /* \"#utility.yul\":1128:1129   */\n      0x00\n        /* \"#utility.yul\":1121:1136   */\n      revert\n        /* \"#utility.yul\":1271:1388   */\n    tag_19:\n        /* \"#utility.yul\":1380:1381   */\n      0x00\n        /* \"#utility.yul\":1377:1378   */\n      dup1\n        /* \"#utility.yul\":1370:1382   */\n      revert\n        /* \"#utility.yul\":1394:1516   */\n    tag_15:\n        /* \"#utility.yul\":1467:1491   */\n      tag_36\n        /* \"#utility.yul\":1485:1490   */\n      dup2\n        /* \"#utility.yul\":1467:1491   */\n      tag_25\n      jump\t// in\n    tag_36:\n        /* \"#utility.yul\":1460:1465   */\n      dup2\n        /* \"#utility.yul\":1457:1492   */\n      eq\n        /* \"#utility.yul\":1447:1510   */\n      tag_37\n      jumpi\n        /* \"#utility.yul\":1506:1507   */\n      0x00\n        /* \"#utility.yul\":1503:1504   */\n      dup1\n        /* \"#utility.yul\":1496:1508   */\n      revert\n        /* \"#utility.yul\":1447:1510   */\n    tag_37:\n        /* \"#utility.yul\":1394:1516   */\n      pop\n      jump\t// out\n\n    auxdata: 0xa26469706673582212208d331536c12ad25d9c1c9123f3f55ef863673adb4a060825ff9048a7f6ddcda164736f6c63430008070033\n}\n",
				"bytecode": {
					"linkReferences": {},
					"object": "608060405234801561001057600080fd5b50610187806100206000396000f3fe608060405234801561001057600080fd5b506004361061002b5760003560e01c80633fb5c1cb14610030575b600080fd5b61004a60048036038101906100459190610079565b61004c565b005b600160005461005b91906100a6565b60008190555050565b6000813590506100738161013a565b92915050565b60006020828403121561008f5761008e610135565b5b600061009d84828501610064565b91505092915050565b60006100b1826100fc565b91506100bc836100fc565b9250827fffffffffffffffffffffffffffffffffffffffffffffffffffffffffffffffff038211156100f1576100f0610106565b5b828201905092915050565b6000819050919050565b7f4e487b7100000000000000000000000000000000000000000000000000000000600052601160045260246000fd5b600080fd5b610143816100fc565b811461014e57600080fd5b5056fea26469706673582212208d331536c12ad25d9c1c9123f3f55ef863673adb4a060825ff9048a7f6ddcda164736f6c63430008070033",
					"opcodes": "PUSH1 0x80 PUSH1 0x40 MSTORE CALLVALUE DUP1 ISZERO PUSH2 0x10 JUMPI PUSH1 0x0 DUP1 REVERT JUMPDEST POP PUSH2 0x187 DUP1 PUSH2 0x20 PUSH1 0x0 CODECOPY PUSH1 0x0 RETURN INVALID PUSH1 0x80 PUSH1 0x40 MSTORE CALLVALUE DUP1 ISZERO PUSH2 0x10 JUMPI PUSH1 0x0 DUP1 REVERT JUMPDEST POP PUSH1 0x4 CALLDATASIZE LT PUSH2 0x2B JUMPI PUSH1 0x0 CALLDATALOAD PUSH1 0xE0 SHR DUP1 PUSH4 0x3FB5C1CB EQ PUSH2 0x30 JUMPI JUMPDEST PUSH1 0x0 DUP1 REVERT JUMPDEST PUSH2 0x4A PUSH1 0x4 DUP1 CALLDATASIZE SUB DUP2 ADD SWAP1 PUSH2 0x45 SWAP2 SWAP1 PUSH2 0x79 JUMP JUMPDEST PUSH2 0x4C JUMP JUMPDEST STOP JUMPDEST PUSH1 0x1 PUSH1 0x0 SLOAD PUSH2 0x5B SWAP2 SWAP1 PUSH2 0xA6 JUMP JUMPDEST PUSH1 0x0 DUP2 SWAP1 SSTORE POP POP JUMP JUMPDEST PUSH1 0x0 DUP2 CALLDATALOAD SWAP1 POP PUSH2 0x73 DUP2 PUSH2 0x13A JUMP JUMPDEST SWAP3 SWAP2 POP POP JUMP JUMPDEST PUSH1 0x0 PUSH1 0x20 DUP3 DUP5 SUB SLT ISZERO PUSH2 0x8F JUMPI PUSH2 0x8E PUSH2 0x135 JUMP JUMPDEST JUMPDEST PUSH1 0x0 PUSH2 0x9D DUP5 DUP3 DUP6 ADD PUSH2 0x64 JUMP JUMPDEST SWAP2 POP POP SWAP3 SWAP2 POP POP JUMP JUMPDEST PUSH1 0x0 PUSH2 0xB1 DUP3 PUSH2 0xFC JUMP JUMPDEST SWAP2 POP PUSH2 0xBC DUP4 PUSH2 0xFC JUMP JUMPDEST SWAP3 POP DUP3 PUSH32 0xFFFFFFFFFFFFFFFFFFFFFFFFFFFFFFFFFFFFFFFFFFFFFFFFFFFFFFFFFFFFFFFF SUB DUP3 GT ISZERO PUSH2 0xF1 JUMPI PUSH2 0xF0 PUSH2 0x106 JUMP JUMPDEST JUMPDEST DUP3 DUP3 ADD SWAP1 POP SWAP3 SWAP2 POP POP JUMP JUMPDEST PUSH1 0x0 DUP2 SWAP1 POP SWAP2 SWAP1 POP JUMP JUMPDEST PUSH32 0x4E487B7100000000000000000000000000000000000000000000000000000000 PUSH1 0x0 MSTORE PUSH1 0x11 PUSH1 0x4 MSTORE PUSH1 0x24 PUSH1 0x0 REVERT JUMPDEST PUSH1 0x0 DUP1 REVERT JUMPDEST PUSH2 0x143 DUP2 PUSH2 0xFC JUMP JUMPDEST DUP2 EQ PUSH2 0x14E JUMPI PUSH1 0x0 DUP1 REVERT JUMPDEST POP JUMP INVALID LOG2 PUSH5 0x6970667358 0x22 SLT KECCAK256 DUP14 CALLER ISZERO CALLDATASIZE 0xC1 0x2A 0xD2 0x5D SWAP13 SHR SWAP2 0x23 RETURN CREATE2 0x5E 0xF8 PUSH4 0x673ADB4A MOD ADDMOD 0x25 SELFDESTRUCT SWAP1 BASEFEE 0xA7 0xF6 0xDD 0xCD LOG1 PUSH5 0x736F6C6343 STOP ADDMOD SMOD STOP CALLER "
				},
				"gasEstimates": {
					"creation": {
						"codeDepositCost": "78200",
						"executionCost": "129",
						"totalCost": "78329"
					},
					"external": {
						"setNumber(uint256)": "infinite"
					}
				},
				"methodIdentifiers": {
					"setNumber(uint256)": "3fb5c1cb"
				}
			},
			"storageLayout": {
				"storage": [
					{
						"astId": 3,
						"contract": "contracts/Proxy/Logic1.sol:Logic1",
						"label": "number",
						"offset": 0,
						"slot": "0",
						"type": "t_uint256"
					}
				],
				"types": {
					"t_uint256": {
						"encoding": "inplace",
						"label": "uint256",
						"numberOfBytes": "32"
					}
				}
			},
			"userdoc": {
				"kind": "user",
				"methods": {},
				"version": 1
			}
		}
	}
}