{
	"contracts/Proxy/Proxy.sol": {
		"Proxy": {
			"abi": [
				{
					"inputs": [],
					"name": "logic",
					"outputs": [
						{
							"internalType": "contract ILogic",
							"name": "",
							"type": "address"
						}
					],
					"stateMutability": "view",
					"type": "function"
				},
				{
					"inputs": [
						{
							"internalType": "address",
							"name": "_logicAddress",
							"type": "address"
						}
					],
					"name": "setLogicAddress",
					"outputs": [],
					"stateMutability": "nonpayable",
					"type": "function"
				}
			],
			"devdoc": {
				"kind": "dev",
				"methods": {},
				"version": 1
			},
			"evm": {
				"assembly": "    /* \"contracts/Proxy/Proxy.sol\":180:335  contract Proxy{... */\n  mstore(0x40, 0x80)\n  callvalue\n  dup1\n  iszero\n  tag_1\n  jumpi\n  0x00\n  dup1\n  revert\ntag_1:\n  pop\n  dataSize(sub_0)\n  dup1\n  dataOffset(sub_0)\n  0x00\n  codecopy\n  0x00\n  return\nstop\n\nsub_0: assembly {\n        /* \"contracts/Proxy/Proxy.sol\":180:335  contract Proxy{... */\n      mstore(0x40, 0x80)\n      callvalue\n      dup1\n      iszero\n      tag_1\n      jumpi\n      0x00\n      dup1\n      revert\n    tag_1:\n      pop\n      jumpi(tag_2, lt(calldatasize, 0x04))\n      shr(0xe0, calldataload(0x00))\n      dup1\n      0xd7dfa0dd\n      eq\n      tag_3\n      jumpi\n      dup1\n      0xfdcfc3ef\n      eq\n      tag_4\n      jumpi\n    tag_2:\n      0x00\n      dup1\n      revert\n        /* \"contracts/Proxy/Proxy.sol\":200:219  ILogic public logic */\n    tag_3:\n      tag_5\n      tag_6\n      jump\t// in\n    tag_5:\n      mload(0x40)\n      tag_7\n      swap2\n      swap1\n      tag_8\n      jump\t// in\n    tag_7:\n      mload(0x40)\n      dup1\n      swap2\n      sub\n      swap1\n      return\n        /* \"contracts/Proxy/Proxy.sol\":226:327  function setLogicAddress(address _logicAddress) public {... */\n    tag_4:\n      tag_9\n      0x04\n      dup1\n      calldatasize\n      sub\n      dup2\n      add\n      swap1\n      tag_10\n      swap2\n      swap1\n      tag_11\n      jump\t// in\n    tag_10:\n      tag_12\n      jump\t// in\n    tag_9:\n      stop\n        /* \"contracts/Proxy/Proxy.sol\":200:219  ILogic public logic */\n    tag_6:\n      0x00\n      dup1\n      sload\n      swap1\n      0x0100\n      exp\n      swap1\n      div\n      0xffffffffffffffffffffffffffffffffffffffff\n      and\n      dup2\n      jump\t// out\n        /* \"contracts/Proxy/Proxy.sol\":226:327  function setLogicAddress(address _logicAddress) public {... */\n    tag_12:\n        /* \"contracts/Proxy/Proxy.sol\":306:319  _logicAddress */\n      dup1\n        /* \"contracts/Proxy/Proxy.sol\":291:296  logic */\n      0x00\n      dup1\n        /* \"contracts/Proxy/Proxy.sol\":291:320  logic = ILogic(_logicAddress) */\n      0x0100\n      exp\n      dup2\n      sload\n      dup2\n      0xffffffffffffffffffffffffffffffffffffffff\n      mul\n      not\n      and\n      swap1\n      dup4\n      0xffffffffffffffffffffffffffffffffffffffff\n      and\n      mul\n      or\n      swap1\n      sstore\n      pop\n        /* \"contracts/Proxy/Proxy.sol\":226:327  function setLogicAddress(address _logicAddress) public {... */\n      pop\n      jump\t// out\n        /* \"#utility.yul\":7:146   */\n    tag_15:\n        /* \"#utility.yul\":53:58   */\n      0x00\n        /* \"#utility.yul\":91:97   */\n      dup2\n        /* \"#utility.yul\":78:98   */\n      calldataload\n        /* \"#utility.yul\":69:98   */\n      swap1\n      pop\n        /* \"#utility.yul\":107:140   */\n      tag_17\n        /* \"#utility.yul\":134:139   */\n      dup2\n        /* \"#utility.yul\":107:140   */\n      tag_18\n      jump\t// in\n    tag_17:\n        /* \"#utility.yul\":7:146   */\n      swap3\n      swap2\n      pop\n      pop\n      jump\t// out\n        /* \"#utility.yul\":152:481   */\n    tag_11:\n        /* \"#utility.yul\":211:217   */\n      0x00\n        /* \"#utility.yul\":260:262   */\n      0x20\n        /* \"#utility.yul\":248:257   */\n      dup3\n        /* \"#utility.yul\":239:246   */\n      dup5\n        /* \"#utility.yul\":235:258   */\n      sub\n        /* \"#utility.yul\":231:263   */\n      slt\n        /* \"#utility.yul\":228:347   */\n      iszero\n      tag_20\n      jumpi\n        /* \"#utility.yul\":266:345   */\n      tag_21\n      tag_22\n      jump\t// in\n    tag_21:\n        /* \"#utility.yul\":228:347   */\n    tag_20:\n        /* \"#utility.yul\":386:387   */\n      0x00\n        /* \"#utility.yul\":411:464   */\n      tag_23\n        /* \"#utility.yul\":456:463   */\n      dup5\n        /* \"#utility.yul\":447:453   */\n      dup3\n        /* \"#utility.yul\":436:445   */\n      dup6\n        /* \"#utility.yul\":432:454   */\n      add\n        /* \"#utility.yul\":411:464   */\n      tag_15\n      jump\t// in\n    tag_23:\n        /* \"#utility.yul\":401:464   */\n      swap2\n      pop\n        /* \"#utility.yul\":357:474   */\n      pop\n        /* \"#utility.yul\":152:481   */\n      swap3\n      swap2\n      pop\n      pop\n      jump\t// out\n        /* \"#utility.yul\":487:644   */\n    tag_24:\n        /* \"#utility.yul\":587:637   */\n      tag_26\n        /* \"#utility.yul\":631:636   */\n      dup2\n        /* \"#utility.yul\":587:637   */\n      tag_27\n      jump\t// in\n    tag_26:\n        /* \"#utility.yul\":582:585   */\n      dup3\n        /* \"#utility.yul\":575:638   */\n      mstore\n        /* \"#utility.yul\":487:644   */\n      pop\n      pop\n      jump\t// out\n        /* \"#utility.yul\":650:898   */\n    tag_8:\n        /* \"#utility.yul\":756:760   */\n      0x00\n        /* \"#utility.yul\":794:796   */\n      0x20\n        /* \"#utility.yul\":783:792   */\n      dup3\n        /* \"#utility.yul\":779:797   */\n      add\n        /* \"#utility.yul\":771:797   */\n      swap1\n      pop\n        /* \"#utility.yul\":807:891   */\n      tag_29\n        /* \"#utility.yul\":888:889   */\n      0x00\n        /* \"#utility.yul\":877:886   */\n      dup4\n        /* \"#utility.yul\":873:890   */\n      add\n        /* \"#utility.yul\":864:870   */\n      dup5\n        /* \"#utility.yul\":807:891   */\n      tag_24\n      jump\t// in\n    tag_29:\n        /* \"#utility.yul\":650:898   */\n      swap3\n      swap2\n      pop\n      pop\n      jump\t// out\n        /* \"#utility.yul\":985:1081   */\n    tag_32:\n        /* \"#utility.yul\":1022:1029   */\n      0x00\n        /* \"#utility.yul\":1051:1075   */\n      tag_34\n        /* \"#utility.yul\":1069:1074   */\n      dup3\n        /* \"#utility.yul\":1051:1075   */\n      tag_35\n      jump\t// in\n    tag_34:\n        /* \"#utility.yul\":1040:1075   */\n      swap1\n      pop\n        /* \"#utility.yul\":985:1081   */\n      swap2\n      swap1\n      pop\n      jump\t// out\n        /* \"#utility.yul\":1087:1213   */\n    tag_35:\n        /* \"#utility.yul\":1124:1131   */\n      0x00\n        /* \"#utility.yul\":1164:1206   */\n      0xffffffffffffffffffffffffffffffffffffffff\n        /* \"#utility.yul\":1157:1162   */\n      dup3\n        /* \"#utility.yul\":1153:1207   */\n      and\n        /* \"#utility.yul\":1142:1207   */\n      swap1\n      pop\n        /* \"#utility.yul\":1087:1213   */\n      swap2\n      swap1\n      pop\n      jump\t// out\n        /* \"#utility.yul\":1219:1358   */\n    tag_27:\n        /* \"#utility.yul\":1282:1291   */\n      0x00\n        /* \"#utility.yul\":1315:1352   */\n      tag_38\n        /* \"#utility.yul\":1346:1351   */\n      dup3\n        /* \"#utility.yul\":1315:1352   */\n      tag_39\n      jump\t// in\n    tag_38:\n        /* \"#utility.yul\":1302:1352   */\n      swap1\n      pop\n        /* \"#utility.yul\":1219:1358   */\n      swap2\n      swap1\n      pop\n      jump\t// out\n        /* \"#utility.yul\":1364:1490   */\n    tag_39:\n        /* \"#utility.yul\":1414:1423   */\n      0x00\n        /* \"#utility.yul\":1447:1484   */\n      tag_41\n        /* \"#utility.yul\":1478:1483   */\n      dup3\n        /* \"#utility.yul\":1447:1484   */\n      tag_42\n      jump\t// in\n    tag_41:\n        /* \"#utility.yul\":1434:1484   */\n      swap1\n      pop\n        /* \"#utility.yul\":1364:1490   */\n      swap2\n      swap1\n      pop\n      jump\t// out\n        /* \"#utility.yul\":1496:1609   */\n    tag_42:\n        /* \"#utility.yul\":1546:1555   */\n      0x00\n        /* \"#utility.yul\":1579:1603   */\n      tag_44\n        /* \"#utility.yul\":1597:1602   */\n      dup3\n        /* \"#utility.yul\":1579:1603   */\n      tag_35\n      jump\t// in\n    tag_44:\n        /* \"#utility.yul\":1566:1603   */\n      swap1\n      pop\n        /* \"#utility.yul\":1496:1609   */\n      swap2\n      swap1\n      pop\n      jump\t// out\n        /* \"#utility.yul\":1738:1855   */\n    tag_22:\n        /* \"#utility.yul\":1847:1848   */\n      0x00\n        /* \"#utility.yul\":1844:1845   */\n      dup1\n        /* \"#utility.yul\":1837:1849   */\n      revert\n        /* \"#utility.yul\":1861:1983   */\n    tag_18:\n        /* \"#utility.yul\":1934:1958   */\n      tag_49\n        /* \"#utility.yul\":1952:1957   */\n      dup2\n        /* \"#utility.yul\":1934:1958   */\n      tag_32\n      jump\t// in\n    tag_49:\n        /* \"#utility.yul\":1927:1932   */\n      dup2\n        /* \"#utility.yul\":1924:1959   */\n      eq\n        /* \"#utility.yul\":1914:1977   */\n      tag_50\n      jumpi\n        /* \"#utility.yul\":1973:1974   */\n      0x00\n        /* \"#utility.yul\":1970:1971   */\n      dup1\n        /* \"#utility.yul\":1963:1975   */\n      revert\n        /* \"#utility.yul\":1914:1977   */\n    tag_50:\n        /* \"#utility.yul\":1861:1983   */\n      pop\n      jump\t// out\n\n    auxdata: 0xa26469706673582212207dc86eaafacb7df24bbaf6c8607a9caff072c0bd49c66a6317c519df1f3afc5d64736f6c63430008070033\n}\n",
				"bytecode": {
					"linkReferences": {},
					"object": "608060405234801561001057600080fd5b50610202806100206000396000f3fe608060405234801561001057600080fd5b50600436106100365760003560e01c8063d7dfa0dd1461003b578063fdcfc3ef14610059575b600080fd5b610043610075565b604051610050919061012d565b60405180910390f35b610073600480360381019061006e91906100f1565b610099565b005b60008054906101000a900473ffffffffffffffffffffffffffffffffffffffff1681565b806000806101000a81548173ffffffffffffffffffffffffffffffffffffffff021916908373ffffffffffffffffffffffffffffffffffffffff16021790555050565b6000813590506100eb816101b5565b92915050565b600060208284031215610107576101066101b0565b5b6000610115848285016100dc565b91505092915050565b6101278161017a565b82525050565b6000602082019050610142600083018461011e565b92915050565b60006101538261015a565b9050919050565b600073ffffffffffffffffffffffffffffffffffffffff82169050919050565b60006101858261018c565b9050919050565b60006101978261019e565b9050919050565b60006101a98261015a565b9050919050565b600080fd5b6101be81610148565b81146101c957600080fd5b5056fea26469706673582212207dc86eaafacb7df24bbaf6c8607a9caff072c0bd49c66a6317c519df1f3afc5d64736f6c63430008070033",
					"opcodes": "PUSH1 0x80 PUSH1 0x40 MSTORE CALLVALUE DUP1 ISZERO PUSH2 0x10 JUMPI PUSH1 0x0 DUP1 REVERT JUMPDEST POP PUSH2 0x202 DUP1 PUSH2 0x20 PUSH1 0x0 CODECOPY PUSH1 0x0 RETURN INVALID PUSH1 0x80 PUSH1 0x40 MSTORE CALLVALUE DUP1 ISZERO PUSH2 0x10 JUMPI PUSH1 0x0 DUP1 REVERT JUMPDEST POP PUSH1 0x4 CALLDATASIZE LT PUSH2 0x36 JUMPI PUSH1 0x0 CALLDATALOAD PUSH1 0xE0 SHR DUP1 PUSH4 0xD7DFA0DD EQ PUSH2 0x3B JUMPI DUP1 PUSH4 0xFDCFC3EF EQ PUSH2 0x59 JUMPI JUMPDEST PUSH1 0x0 DUP1 REVERT JUMPDEST PUSH2 0x43 PUSH2 0x75 JUMP JUMPDEST PUSH1 0x40 MLOAD PUSH2 0x50 SWAP2 SWAP1 PUSH2 0x12D JUMP JUMPDEST PUSH1 0x40 MLOAD DUP1 SWAP2 SUB SWAP1 RETURN JUMPDEST PUSH2 0x73 PUSH1 0x4 DUP1 CALLDATASIZE SUB DUP2 ADD SWAP1 PUSH2 0x6E SWAP2 SWAP1 PUSH2 0xF1 JUMP JUMPDEST PUSH2 0x99 JUMP JUMPDEST STOP JUMPDEST PUSH1 0x0 DUP1 SLOAD SWAP1 PUSH2 0x100 EXP SWAP1 DIV PUSH20 0xFFFFFFFFFFFFFFFFFFFFFFFFFFFFFFFFFFFFFFFF AND DUP2 JUMP JUMPDEST DUP1 PUSH1 0x0 DUP1 PUSH2 0x100 EXP DUP2 SLOAD DUP2 PUSH20 0xFFFFFFFFFFFFFFFFFFFFFFFFFFFFFFFFFFFFFFFF MUL NOT AND SWAP1 DUP4 PUSH20 0xFFFFFFFFFFFFFFFFFFFFFFFFFFFFFFFFFFFFFFFF AND MUL OR SWAP1 SSTORE POP POP JUMP JUMPDEST PUSH1 0x0 DUP2 CALLDATALOAD SWAP1 POP PUSH2 0xEB DUP2 PUSH2 0x1B5 JUMP JUMPDEST SWAP3 SWAP2 POP POP JUMP JUMPDEST PUSH1 0x0 PUSH1 0x20 DUP3 DUP5 SUB SLT ISZERO PUSH2 0x107 JUMPI PUSH2 0x106 PUSH2 0x1B0 JUMP JUMPDEST JUMPDEST PUSH1 0x0 PUSH2 0x115 DUP5 DUP3 DUP6 ADD PUSH2 0xDC JUMP JUMPDEST SWAP2 POP POP SWAP3 SWAP2 POP POP JUMP JUMPDEST PUSH2 0x127 DUP2 PUSH2 0x17A JUMP JUMPDEST DUP3 MSTORE POP POP JUMP JUMPDEST PUSH1 0x0 PUSH1 0x20 DUP3 ADD SWAP1 POP PUSH2 0x142 PUSH1 0x0 DUP4 ADD DUP5 PUSH2 0x11E JUMP JUMPDEST SWAP3 SWAP2 POP POP JUMP JUMPDEST PUSH1 0x0 PUSH2 0x153 DUP3 PUSH2 0x15A JUMP JUMPDEST SWAP1 POP SWAP2 SWAP1 POP JUMP JUMPDEST PUSH1 0x0 PUSH20 0xFFFFFFFFFFFFFFFFFFFFFFFFFFFFFFFFFFFFFFFF DUP3 AND SWAP1 POP SWAP2 SWAP1 POP JUMP JUMPDEST PUSH1 0x0 PUSH2 0x185 DUP3 PUSH2 0x18C JUMP JUMPDEST SWAP1 POP SWAP2 SWAP1 POP JUMP JUMPDEST PUSH1 0x0 PUSH2 0x197 DUP3 PUSH2 0x19E JUMP JUMPDEST SWAP1 POP SWAP2 SWAP1 POP JUMP JUMPDEST PUSH1 0x0 PUSH2 0x1A9 DUP3 PUSH2 0x15A JUMP JUMPDEST SWAP1 POP SWAP2 SWAP1 POP JUMP JUMPDEST PUSH1 0x0 DUP1 REVERT JUMPDEST PUSH2 0x1BE DUP2 PUSH2 0x148 JUMP JUMPDEST DUP2 EQ PUSH2 0x1C9 JUMPI PUSH1 0x0 DUP1 REVERT JUMPDEST POP JUMP INVALID LOG2 PUSH5 0x6970667358 0x22 SLT KECCAK256 PUSH30 0xC86EAAFACB7DF24BBAF6C8607A9CAFF072C0BD49C66A6317C519DF1F3AFC 0x5D PUSH5 0x736F6C6343 STOP ADDMOD SMOD STOP CALLER "
				},
				"gasEstimates": {
					"creation": {
						"codeDepositCost": "102800",
						"executionCost": "153",
						"totalCost": "102953"
					},
					"external": {
						"logic()": "2575",
						"setLogicAddress(address)": "24722"
					}
				},
				"methodIdentifiers": {
					"logic()": "d7dfa0dd",
					"setLogicAddress(address)": "fdcfc3ef"
				}
			},
			"storageLayout": {
				"storage": [
					{
						"astId": 13,
						"contract": "contracts/Proxy/Proxy.sol:Proxy",
						"label": "logic",
						"offset": 0,
						"slot": "0",
						"type": "t_contract(ILogic)10"
					}
				],
				"types": {
					"t_contract(ILogic)10": {
						"encoding": "inplace",
						"label": "contract ILogic",
						"numberOfBytes": "20"
					}
				}
			},
			"userdoc": {
				"kind": "user",
				"methods": {},
				"version": 1
			}
		}
	}
}