{
	"contracts/Proxy/Proxy.sol": {
		"Proxy": {
			"abi": [
				{
					"inputs": [],
					"name": "getLogicAddress",
					"outputs": [
						{
							"internalType": "address",
							"name": "",
							"type": "address"
						}
					],
					"stateMutability": "view",
					"type": "function"
				},
				{
					"inputs": [],
					"name": "logic",
					"outputs": [
						{
							"internalType": "contract ILogic",
							"name": "",
							"type": "address"
						}
					],
					"stateMutability": "view",
					"type": "function"
				},
				{
					"inputs": [
						{
							"internalType": "address",
							"name": "_logicAddress",
							"type": "address"
						}
					],
					"name": "setLogicAddress",
					"outputs": [],
					"stateMutability": "nonpayable",
					"type": "function"
				}
			],
			"devdoc": {
				"kind": "dev",
				"methods": {},
				"version": 1
			},
			"evm": {
				"assembly": "    /* \"contracts/Proxy/Proxy.sol\":180:428  contract Proxy{... */\n  mstore(0x40, 0x80)\n  callvalue\n  dup1\n  iszero\n  tag_1\n  jumpi\n  0x00\n  dup1\n  revert\ntag_1:\n  pop\n  dataSize(sub_0)\n  dup1\n  dataOffset(sub_0)\n  0x00\n  codecopy\n  0x00\n  return\nstop\n\nsub_0: assembly {\n        /* \"contracts/Proxy/Proxy.sol\":180:428  contract Proxy{... */\n      mstore(0x40, 0x80)\n      callvalue\n      dup1\n      iszero\n      tag_1\n      jumpi\n      0x00\n      dup1\n      revert\n    tag_1:\n      pop\n      jumpi(tag_2, lt(calldatasize, 0x04))\n      shr(0xe0, calldataload(0x00))\n      dup1\n      0xabd108ba\n      eq\n      tag_3\n      jumpi\n      dup1\n      0xd7dfa0dd\n      eq\n      tag_4\n      jumpi\n      dup1\n      0xfdcfc3ef\n      eq\n      tag_5\n      jumpi\n    tag_2:\n      0x00\n      dup1\n      revert\n        /* \"contracts/Proxy/Proxy.sol\":333:426  function getLogicAddress() public view returns(address){... */\n    tag_3:\n      tag_6\n      tag_7\n      jump\t// in\n    tag_6:\n      mload(0x40)\n      tag_8\n      swap2\n      swap1\n      tag_9\n      jump\t// in\n    tag_8:\n      mload(0x40)\n      dup1\n      swap2\n      sub\n      swap1\n      return\n        /* \"contracts/Proxy/Proxy.sol\":200:219  ILogic public logic */\n    tag_4:\n      tag_10\n      tag_11\n      jump\t// in\n    tag_10:\n      mload(0x40)\n      tag_12\n      swap2\n      swap1\n      tag_13\n      jump\t// in\n    tag_12:\n      mload(0x40)\n      dup1\n      swap2\n      sub\n      swap1\n      return\n        /* \"contracts/Proxy/Proxy.sol\":226:327  function setLogicAddress(address _logicAddress) public {... */\n    tag_5:\n      tag_14\n      0x04\n      dup1\n      calldatasize\n      sub\n      dup2\n      add\n      swap1\n      tag_15\n      swap2\n      swap1\n      tag_16\n      jump\t// in\n    tag_15:\n      tag_17\n      jump\t// in\n    tag_14:\n      stop\n        /* \"contracts/Proxy/Proxy.sol\":333:426  function getLogicAddress() public view returns(address){... */\n    tag_7:\n        /* \"contracts/Proxy/Proxy.sol\":380:387  address */\n      0x00\n        /* \"contracts/Proxy/Proxy.sol\":413:418  logic */\n      dup1\n      0x00\n      swap1\n      sload\n      swap1\n      0x0100\n      exp\n      swap1\n      div\n      0xffffffffffffffffffffffffffffffffffffffff\n      and\n        /* \"contracts/Proxy/Proxy.sol\":398:419  return address(logic) */\n      swap1\n      pop\n        /* \"contracts/Proxy/Proxy.sol\":333:426  function getLogicAddress() public view returns(address){... */\n      swap1\n      jump\t// out\n        /* \"contracts/Proxy/Proxy.sol\":200:219  ILogic public logic */\n    tag_11:\n      0x00\n      dup1\n      sload\n      swap1\n      0x0100\n      exp\n      swap1\n      div\n      0xffffffffffffffffffffffffffffffffffffffff\n      and\n      dup2\n      jump\t// out\n        /* \"contracts/Proxy/Proxy.sol\":226:327  function setLogicAddress(address _logicAddress) public {... */\n    tag_17:\n        /* \"contracts/Proxy/Proxy.sol\":306:319  _logicAddress */\n      dup1\n        /* \"contracts/Proxy/Proxy.sol\":291:296  logic */\n      0x00\n      dup1\n        /* \"contracts/Proxy/Proxy.sol\":291:320  logic = ILogic(_logicAddress) */\n      0x0100\n      exp\n      dup2\n      sload\n      dup2\n      0xffffffffffffffffffffffffffffffffffffffff\n      mul\n      not\n      and\n      swap1\n      dup4\n      0xffffffffffffffffffffffffffffffffffffffff\n      and\n      mul\n      or\n      swap1\n      sstore\n      pop\n        /* \"contracts/Proxy/Proxy.sol\":226:327  function setLogicAddress(address _logicAddress) public {... */\n      pop\n      jump\t// out\n        /* \"#utility.yul\":7:146   */\n    tag_21:\n        /* \"#utility.yul\":53:58   */\n      0x00\n        /* \"#utility.yul\":91:97   */\n      dup2\n        /* \"#utility.yul\":78:98   */\n      calldataload\n        /* \"#utility.yul\":69:98   */\n      swap1\n      pop\n        /* \"#utility.yul\":107:140   */\n      tag_23\n        /* \"#utility.yul\":134:139   */\n      dup2\n        /* \"#utility.yul\":107:140   */\n      tag_24\n      jump\t// in\n    tag_23:\n        /* \"#utility.yul\":7:146   */\n      swap3\n      swap2\n      pop\n      pop\n      jump\t// out\n        /* \"#utility.yul\":152:481   */\n    tag_16:\n        /* \"#utility.yul\":211:217   */\n      0x00\n        /* \"#utility.yul\":260:262   */\n      0x20\n        /* \"#utility.yul\":248:257   */\n      dup3\n        /* \"#utility.yul\":239:246   */\n      dup5\n        /* \"#utility.yul\":235:258   */\n      sub\n        /* \"#utility.yul\":231:263   */\n      slt\n        /* \"#utility.yul\":228:347   */\n      iszero\n      tag_26\n      jumpi\n        /* \"#utility.yul\":266:345   */\n      tag_27\n      tag_28\n      jump\t// in\n    tag_27:\n        /* \"#utility.yul\":228:347   */\n    tag_26:\n        /* \"#utility.yul\":386:387   */\n      0x00\n        /* \"#utility.yul\":411:464   */\n      tag_29\n        /* \"#utility.yul\":456:463   */\n      dup5\n        /* \"#utility.yul\":447:453   */\n      dup3\n        /* \"#utility.yul\":436:445   */\n      dup6\n        /* \"#utility.yul\":432:454   */\n      add\n        /* \"#utility.yul\":411:464   */\n      tag_21\n      jump\t// in\n    tag_29:\n        /* \"#utility.yul\":401:464   */\n      swap2\n      pop\n        /* \"#utility.yul\":357:474   */\n      pop\n        /* \"#utility.yul\":152:481   */\n      swap3\n      swap2\n      pop\n      pop\n      jump\t// out\n        /* \"#utility.yul\":487:605   */\n    tag_30:\n        /* \"#utility.yul\":574:598   */\n      tag_32\n        /* \"#utility.yul\":592:597   */\n      dup2\n        /* \"#utility.yul\":574:598   */\n      tag_33\n      jump\t// in\n    tag_32:\n        /* \"#utility.yul\":569:572   */\n      dup3\n        /* \"#utility.yul\":562:599   */\n      mstore\n        /* \"#utility.yul\":487:605   */\n      pop\n      pop\n      jump\t// out\n        /* \"#utility.yul\":611:768   */\n    tag_34:\n        /* \"#utility.yul\":711:761   */\n      tag_36\n        /* \"#utility.yul\":755:760   */\n      dup2\n        /* \"#utility.yul\":711:761   */\n      tag_37\n      jump\t// in\n    tag_36:\n        /* \"#utility.yul\":706:709   */\n      dup3\n        /* \"#utility.yul\":699:762   */\n      mstore\n        /* \"#utility.yul\":611:768   */\n      pop\n      pop\n      jump\t// out\n        /* \"#utility.yul\":774:996   */\n    tag_9:\n        /* \"#utility.yul\":867:871   */\n      0x00\n        /* \"#utility.yul\":905:907   */\n      0x20\n        /* \"#utility.yul\":894:903   */\n      dup3\n        /* \"#utility.yul\":890:908   */\n      add\n        /* \"#utility.yul\":882:908   */\n      swap1\n      pop\n        /* \"#utility.yul\":918:989   */\n      tag_39\n        /* \"#utility.yul\":986:987   */\n      0x00\n        /* \"#utility.yul\":975:984   */\n      dup4\n        /* \"#utility.yul\":971:988   */\n      add\n        /* \"#utility.yul\":962:968   */\n      dup5\n        /* \"#utility.yul\":918:989   */\n      tag_30\n      jump\t// in\n    tag_39:\n        /* \"#utility.yul\":774:996   */\n      swap3\n      swap2\n      pop\n      pop\n      jump\t// out\n        /* \"#utility.yul\":1002:1250   */\n    tag_13:\n        /* \"#utility.yul\":1108:1112   */\n      0x00\n        /* \"#utility.yul\":1146:1148   */\n      0x20\n        /* \"#utility.yul\":1135:1144   */\n      dup3\n        /* \"#utility.yul\":1131:1149   */\n      add\n        /* \"#utility.yul\":1123:1149   */\n      swap1\n      pop\n        /* \"#utility.yul\":1159:1243   */\n      tag_41\n        /* \"#utility.yul\":1240:1241   */\n      0x00\n        /* \"#utility.yul\":1229:1238   */\n      dup4\n        /* \"#utility.yul\":1225:1242   */\n      add\n        /* \"#utility.yul\":1216:1222   */\n      dup5\n        /* \"#utility.yul\":1159:1243   */\n      tag_34\n      jump\t// in\n    tag_41:\n        /* \"#utility.yul\":1002:1250   */\n      swap3\n      swap2\n      pop\n      pop\n      jump\t// out\n        /* \"#utility.yul\":1337:1433   */\n    tag_33:\n        /* \"#utility.yul\":1374:1381   */\n      0x00\n        /* \"#utility.yul\":1403:1427   */\n      tag_45\n        /* \"#utility.yul\":1421:1426   */\n      dup3\n        /* \"#utility.yul\":1403:1427   */\n      tag_46\n      jump\t// in\n    tag_45:\n        /* \"#utility.yul\":1392:1427   */\n      swap1\n      pop\n        /* \"#utility.yul\":1337:1433   */\n      swap2\n      swap1\n      pop\n      jump\t// out\n        /* \"#utility.yul\":1439:1565   */\n    tag_46:\n        /* \"#utility.yul\":1476:1483   */\n      0x00\n        /* \"#utility.yul\":1516:1558   */\n      0xffffffffffffffffffffffffffffffffffffffff\n        /* \"#utility.yul\":1509:1514   */\n      dup3\n        /* \"#utility.yul\":1505:1559   */\n      and\n        /* \"#utility.yul\":1494:1559   */\n      swap1\n      pop\n        /* \"#utility.yul\":1439:1565   */\n      swap2\n      swap1\n      pop\n      jump\t// out\n        /* \"#utility.yul\":1571:1710   */\n    tag_37:\n        /* \"#utility.yul\":1634:1643   */\n      0x00\n        /* \"#utility.yul\":1667:1704   */\n      tag_49\n        /* \"#utility.yul\":1698:1703   */\n      dup3\n        /* \"#utility.yul\":1667:1704   */\n      tag_50\n      jump\t// in\n    tag_49:\n        /* \"#utility.yul\":1654:1704   */\n      swap1\n      pop\n        /* \"#utility.yul\":1571:1710   */\n      swap2\n      swap1\n      pop\n      jump\t// out\n        /* \"#utility.yul\":1716:1842   */\n    tag_50:\n        /* \"#utility.yul\":1766:1775   */\n      0x00\n        /* \"#utility.yul\":1799:1836   */\n      tag_52\n        /* \"#utility.yul\":1830:1835   */\n      dup3\n        /* \"#utility.yul\":1799:1836   */\n      tag_53\n      jump\t// in\n    tag_52:\n        /* \"#utility.yul\":1786:1836   */\n      swap1\n      pop\n        /* \"#utility.yul\":1716:1842   */\n      swap2\n      swap1\n      pop\n      jump\t// out\n        /* \"#utility.yul\":1848:1961   */\n    tag_53:\n        /* \"#utility.yul\":1898:1907   */\n      0x00\n        /* \"#utility.yul\":1931:1955   */\n      tag_55\n        /* \"#utility.yul\":1949:1954   */\n      dup3\n        /* \"#utility.yul\":1931:1955   */\n      tag_46\n      jump\t// in\n    tag_55:\n        /* \"#utility.yul\":1918:1955   */\n      swap1\n      pop\n        /* \"#utility.yul\":1848:1961   */\n      swap2\n      swap1\n      pop\n      jump\t// out\n        /* \"#utility.yul\":2090:2207   */\n    tag_28:\n        /* \"#utility.yul\":2199:2200   */\n      0x00\n        /* \"#utility.yul\":2196:2197   */\n      dup1\n        /* \"#utility.yul\":2189:2201   */\n      revert\n        /* \"#utility.yul\":2213:2335   */\n    tag_24:\n        /* \"#utility.yul\":2286:2310   */\n      tag_60\n        /* \"#utility.yul\":2304:2309   */\n      dup2\n        /* \"#utility.yul\":2286:2310   */\n      tag_33\n      jump\t// in\n    tag_60:\n        /* \"#utility.yul\":2279:2284   */\n      dup2\n        /* \"#utility.yul\":2276:2311   */\n      eq\n        /* \"#utility.yul\":2266:2329   */\n      tag_61\n      jumpi\n        /* \"#utility.yul\":2325:2326   */\n      0x00\n        /* \"#utility.yul\":2322:2323   */\n      dup1\n        /* \"#utility.yul\":2315:2327   */\n      revert\n        /* \"#utility.yul\":2266:2329   */\n    tag_61:\n        /* \"#utility.yul\":2213:2335   */\n      pop\n      jump\t// out\n\n    auxdata: 0xa264697066735822122050f531f9f08e470024128374c5ce41fb926025147746533b970ae8ba45f1ec8a64736f6c63430008070033\n}\n",
				"bytecode": {
					"linkReferences": {},
					"object": "608060405234801561001057600080fd5b5061027e806100206000396000f3fe608060405234801561001057600080fd5b50600436106100415760003560e01c8063abd108ba14610046578063d7dfa0dd14610064578063fdcfc3ef14610082575b600080fd5b61004e61009e565b60405161005b919061018e565b60405180910390f35b61006c6100c7565b60405161007991906101a9565b60405180910390f35b61009c60048036038101906100979190610143565b6100eb565b005b60008060009054906101000a900473ffffffffffffffffffffffffffffffffffffffff16905090565b60008054906101000a900473ffffffffffffffffffffffffffffffffffffffff1681565b806000806101000a81548173ffffffffffffffffffffffffffffffffffffffff021916908373ffffffffffffffffffffffffffffffffffffffff16021790555050565b60008135905061013d81610231565b92915050565b6000602082840312156101595761015861022c565b5b60006101678482850161012e565b91505092915050565b610179816101c4565b82525050565b610188816101f6565b82525050565b60006020820190506101a36000830184610170565b92915050565b60006020820190506101be600083018461017f565b92915050565b60006101cf826101d6565b9050919050565b600073ffffffffffffffffffffffffffffffffffffffff82169050919050565b600061020182610208565b9050919050565b60006102138261021a565b9050919050565b6000610225826101d6565b9050919050565b600080fd5b61023a816101c4565b811461024557600080fd5b5056fea264697066735822122050f531f9f08e470024128374c5ce41fb926025147746533b970ae8ba45f1ec8a64736f6c63430008070033",
					"opcodes": "PUSH1 0x80 PUSH1 0x40 MSTORE CALLVALUE DUP1 ISZERO PUSH2 0x10 JUMPI PUSH1 0x0 DUP1 REVERT JUMPDEST POP PUSH2 0x27E DUP1 PUSH2 0x20 PUSH1 0x0 CODECOPY PUSH1 0x0 RETURN INVALID PUSH1 0x80 PUSH1 0x40 MSTORE CALLVALUE DUP1 ISZERO PUSH2 0x10 JUMPI PUSH1 0x0 DUP1 REVERT JUMPDEST POP PUSH1 0x4 CALLDATASIZE LT PUSH2 0x41 JUMPI PUSH1 0x0 CALLDATALOAD PUSH1 0xE0 SHR DUP1 PUSH4 0xABD108BA EQ PUSH2 0x46 JUMPI DUP1 PUSH4 0xD7DFA0DD EQ PUSH2 0x64 JUMPI DUP1 PUSH4 0xFDCFC3EF EQ PUSH2 0x82 JUMPI JUMPDEST PUSH1 0x0 DUP1 REVERT JUMPDEST PUSH2 0x4E PUSH2 0x9E JUMP JUMPDEST PUSH1 0x40 MLOAD PUSH2 0x5B SWAP2 SWAP1 PUSH2 0x18E JUMP JUMPDEST PUSH1 0x40 MLOAD DUP1 SWAP2 SUB SWAP1 RETURN JUMPDEST PUSH2 0x6C PUSH2 0xC7 JUMP JUMPDEST PUSH1 0x40 MLOAD PUSH2 0x79 SWAP2 SWAP1 PUSH2 0x1A9 JUMP JUMPDEST PUSH1 0x40 MLOAD DUP1 SWAP2 SUB SWAP1 RETURN JUMPDEST PUSH2 0x9C PUSH1 0x4 DUP1 CALLDATASIZE SUB DUP2 ADD SWAP1 PUSH2 0x97 SWAP2 SWAP1 PUSH2 0x143 JUMP JUMPDEST PUSH2 0xEB JUMP JUMPDEST STOP JUMPDEST PUSH1 0x0 DUP1 PUSH1 0x0 SWAP1 SLOAD SWAP1 PUSH2 0x100 EXP SWAP1 DIV PUSH20 0xFFFFFFFFFFFFFFFFFFFFFFFFFFFFFFFFFFFFFFFF AND SWAP1 POP SWAP1 JUMP JUMPDEST PUSH1 0x0 DUP1 SLOAD SWAP1 PUSH2 0x100 EXP SWAP1 DIV PUSH20 0xFFFFFFFFFFFFFFFFFFFFFFFFFFFFFFFFFFFFFFFF AND DUP2 JUMP JUMPDEST DUP1 PUSH1 0x0 DUP1 PUSH2 0x100 EXP DUP2 SLOAD DUP2 PUSH20 0xFFFFFFFFFFFFFFFFFFFFFFFFFFFFFFFFFFFFFFFF MUL NOT AND SWAP1 DUP4 PUSH20 0xFFFFFFFFFFFFFFFFFFFFFFFFFFFFFFFFFFFFFFFF AND MUL OR SWAP1 SSTORE POP POP JUMP JUMPDEST PUSH1 0x0 DUP2 CALLDATALOAD SWAP1 POP PUSH2 0x13D DUP2 PUSH2 0x231 JUMP JUMPDEST SWAP3 SWAP2 POP POP JUMP JUMPDEST PUSH1 0x0 PUSH1 0x20 DUP3 DUP5 SUB SLT ISZERO PUSH2 0x159 JUMPI PUSH2 0x158 PUSH2 0x22C JUMP JUMPDEST JUMPDEST PUSH1 0x0 PUSH2 0x167 DUP5 DUP3 DUP6 ADD PUSH2 0x12E JUMP JUMPDEST SWAP2 POP POP SWAP3 SWAP2 POP POP JUMP JUMPDEST PUSH2 0x179 DUP2 PUSH2 0x1C4 JUMP JUMPDEST DUP3 MSTORE POP POP JUMP JUMPDEST PUSH2 0x188 DUP2 PUSH2 0x1F6 JUMP JUMPDEST DUP3 MSTORE POP POP JUMP JUMPDEST PUSH1 0x0 PUSH1 0x20 DUP3 ADD SWAP1 POP PUSH2 0x1A3 PUSH1 0x0 DUP4 ADD DUP5 PUSH2 0x170 JUMP JUMPDEST SWAP3 SWAP2 POP POP JUMP JUMPDEST PUSH1 0x0 PUSH1 0x20 DUP3 ADD SWAP1 POP PUSH2 0x1BE PUSH1 0x0 DUP4 ADD DUP5 PUSH2 0x17F JUMP JUMPDEST SWAP3 SWAP2 POP POP JUMP JUMPDEST PUSH1 0x0 PUSH2 0x1CF DUP3 PUSH2 0x1D6 JUMP JUMPDEST SWAP1 POP SWAP2 SWAP1 POP JUMP JUMPDEST PUSH1 0x0 PUSH20 0xFFFFFFFFFFFFFFFFFFFFFFFFFFFFFFFFFFFFFFFF DUP3 AND SWAP1 POP SWAP2 SWAP1 POP JUMP JUMPDEST PUSH1 0x0 PUSH2 0x201 DUP3 PUSH2 0x208 JUMP JUMPDEST SWAP1 POP SWAP2 SWAP1 POP JUMP JUMPDEST PUSH1 0x0 PUSH2 0x213 DUP3 PUSH2 0x21A JUMP JUMPDEST SWAP1 POP SWAP2 SWAP1 POP JUMP JUMPDEST PUSH1 0x0 PUSH2 0x225 DUP3 PUSH2 0x1D6 JUMP JUMPDEST SWAP1 POP SWAP2 SWAP1 POP JUMP JUMPDEST PUSH1 0x0 DUP1 REVERT JUMPDEST PUSH2 0x23A DUP2 PUSH2 0x1C4 JUMP JUMPDEST DUP2 EQ PUSH2 0x245 JUMPI PUSH1 0x0 DUP1 REVERT JUMPDEST POP JUMP INVALID LOG2 PUSH5 0x6970667358 0x22 SLT KECCAK256 POP CREATE2 BALANCE 0xF9 CREATE DUP15 SELFBALANCE STOP 0x24 SLT DUP4 PUSH21 0xC5CE41FB926025147746533B970AE8BA45F1EC8A64 PUSH20 0x6F6C634300080700330000000000000000000000 "
				},
				"gasEstimates": {
					"creation": {
						"codeDepositCost": "127600",
						"executionCost": "171",
						"totalCost": "127771"
					},
					"external": {
						"getLogicAddress()": "2500",
						"logic()": "2597",
						"setLogicAddress(address)": "24744"
					}
				},
				"methodIdentifiers": {
					"getLogicAddress()": "abd108ba",
					"logic()": "d7dfa0dd",
					"setLogicAddress(address)": "fdcfc3ef"
				}
			},
			"storageLayout": {
				"storage": [
					{
						"astId": 13,
						"contract": "contracts/Proxy/Proxy.sol:Proxy",
						"label": "logic",
						"offset": 0,
						"slot": "0",
						"type": "t_contract(ILogic)10"
					}
				],
				"types": {
					"t_contract(ILogic)10": {
						"encoding": "inplace",
						"label": "contract ILogic",
						"numberOfBytes": "20"
					}
				}
			},
			"userdoc": {
				"kind": "user",
				"methods": {},
				"version": 1
			}
		}
	}
}