{
	"contracts/Proxy/Proxy.sol": {
		"Proxy": {
			"abi": [
				{
					"inputs": [],
					"name": "getLogicAddress",
					"outputs": [
						{
							"internalType": "address",
							"name": "",
							"type": "address"
						}
					],
					"stateMutability": "view",
					"type": "function"
				},
				{
					"inputs": [],
					"name": "getNumber",
					"outputs": [
						{
							"internalType": "uint256",
							"name": "",
							"type": "uint256"
						}
					],
					"stateMutability": "view",
					"type": "function"
				},
				{
					"inputs": [],
					"name": "logic",
					"outputs": [
						{
							"internalType": "contract ILogic",
							"name": "",
							"type": "address"
						}
					],
					"stateMutability": "view",
					"type": "function"
				},
				{
					"inputs": [
						{
							"internalType": "address",
							"name": "_logicAddress",
							"type": "address"
						}
					],
					"name": "setLogicAddress",
					"outputs": [],
					"stateMutability": "nonpayable",
					"type": "function"
				},
				{
					"inputs": [],
					"name": "setNumber",
					"outputs": [],
					"stateMutability": "nonpayable",
					"type": "function"
				}
			],
			"devdoc": {
				"kind": "dev",
				"methods": {},
				"version": 1
			},
			"evm": {
				"assembly": "    /* \"contracts/Proxy/Proxy.sol\":180:589  contract Proxy{... */\n  mstore(0x40, 0x80)\n  callvalue\n  dup1\n  iszero\n  tag_1\n  jumpi\n  0x00\n  dup1\n  revert\ntag_1:\n  pop\n  dataSize(sub_0)\n  dup1\n  dataOffset(sub_0)\n  0x00\n  codecopy\n  0x00\n  return\nstop\n\nsub_0: assembly {\n        /* \"contracts/Proxy/Proxy.sol\":180:589  contract Proxy{... */\n      mstore(0x40, 0x80)\n      callvalue\n      dup1\n      iszero\n      tag_1\n      jumpi\n      0x00\n      dup1\n      revert\n    tag_1:\n      pop\n      jumpi(tag_2, lt(calldatasize, 0x04))\n      shr(0xe0, calldataload(0x00))\n      dup1\n      0x4154b243\n      eq\n      tag_3\n      jumpi\n      dup1\n      0xabd108ba\n      eq\n      tag_4\n      jumpi\n      dup1\n      0xd7dfa0dd\n      eq\n      tag_5\n      jumpi\n      dup1\n      0xf2c9ecd8\n      eq\n      tag_6\n      jumpi\n      dup1\n      0xfdcfc3ef\n      eq\n      tag_7\n      jumpi\n    tag_2:\n      0x00\n      dup1\n      revert\n        /* \"contracts/Proxy/Proxy.sol\":432:494  function setNumber() public {... */\n    tag_3:\n      tag_8\n      tag_9\n      jump\t// in\n    tag_8:\n      stop\n        /* \"contracts/Proxy/Proxy.sol\":333:426  function getLogicAddress() public view returns(address){... */\n    tag_4:\n      tag_10\n      tag_11\n      jump\t// in\n    tag_10:\n      mload(0x40)\n      tag_12\n      swap2\n      swap1\n      tag_13\n      jump\t// in\n    tag_12:\n      mload(0x40)\n      dup1\n      swap2\n      sub\n      swap1\n      return\n        /* \"contracts/Proxy/Proxy.sol\":200:219  ILogic public logic */\n    tag_5:\n      tag_14\n      tag_15\n      jump\t// in\n    tag_14:\n      mload(0x40)\n      tag_16\n      swap2\n      swap1\n      tag_17\n      jump\t// in\n    tag_16:\n      mload(0x40)\n      dup1\n      swap2\n      sub\n      swap1\n      return\n        /* \"contracts/Proxy/Proxy.sol\":500:587  function getNumber() public view returns(uint){... */\n    tag_6:\n      tag_18\n      tag_19\n      jump\t// in\n    tag_18:\n      mload(0x40)\n      tag_20\n      swap2\n      swap1\n      tag_21\n      jump\t// in\n    tag_20:\n      mload(0x40)\n      dup1\n      swap2\n      sub\n      swap1\n      return\n        /* \"contracts/Proxy/Proxy.sol\":226:327  function setLogicAddress(address _logicAddress) public {... */\n    tag_7:\n      tag_22\n      0x04\n      dup1\n      calldatasize\n      sub\n      dup2\n      add\n      swap1\n      tag_23\n      swap2\n      swap1\n      tag_24\n      jump\t// in\n    tag_23:\n      tag_25\n      jump\t// in\n    tag_22:\n      stop\n        /* \"contracts/Proxy/Proxy.sol\":432:494  function setNumber() public {... */\n    tag_9:\n        /* \"contracts/Proxy/Proxy.sol\":470:475  logic */\n      0x00\n      dup1\n      sload\n      swap1\n      0x0100\n      exp\n      swap1\n      div\n      0xffffffffffffffffffffffffffffffffffffffff\n      and\n        /* \"contracts/Proxy/Proxy.sol\":470:485  logic.setNumber */\n      0xffffffffffffffffffffffffffffffffffffffff\n      and\n      0x4154b243\n        /* \"contracts/Proxy/Proxy.sol\":470:487  logic.setNumber() */\n      mload(0x40)\n      dup2\n      0xffffffff\n      and\n      0xe0\n      shl\n      dup2\n      mstore\n      0x04\n      add\n      0x00\n      mload(0x40)\n      dup1\n      dup4\n      sub\n      dup2\n      0x00\n      dup8\n      dup1\n      extcodesize\n      iszero\n      dup1\n      iszero\n      tag_27\n      jumpi\n      0x00\n      dup1\n      revert\n    tag_27:\n      pop\n      gas\n      call\n      iszero\n      dup1\n      iszero\n      tag_29\n      jumpi\n      returndatasize\n      0x00\n      dup1\n      returndatacopy\n      revert(0x00, returndatasize)\n    tag_29:\n      pop\n      pop\n      pop\n      pop\n        /* \"contracts/Proxy/Proxy.sol\":432:494  function setNumber() public {... */\n      jump\t// out\n        /* \"contracts/Proxy/Proxy.sol\":333:426  function getLogicAddress() public view returns(address){... */\n    tag_11:\n        /* \"contracts/Proxy/Proxy.sol\":380:387  address */\n      0x00\n        /* \"contracts/Proxy/Proxy.sol\":413:418  logic */\n      dup1\n      0x00\n      swap1\n      sload\n      swap1\n      0x0100\n      exp\n      swap1\n      div\n      0xffffffffffffffffffffffffffffffffffffffff\n      and\n        /* \"contracts/Proxy/Proxy.sol\":398:419  return address(logic) */\n      swap1\n      pop\n        /* \"contracts/Proxy/Proxy.sol\":333:426  function getLogicAddress() public view returns(address){... */\n      swap1\n      jump\t// out\n        /* \"contracts/Proxy/Proxy.sol\":200:219  ILogic public logic */\n    tag_15:\n      0x00\n      dup1\n      sload\n      swap1\n      0x0100\n      exp\n      swap1\n      div\n      0xffffffffffffffffffffffffffffffffffffffff\n      and\n      dup2\n      jump\t// out\n        /* \"contracts/Proxy/Proxy.sol\":500:587  function getNumber() public view returns(uint){... */\n    tag_19:\n        /* \"contracts/Proxy/Proxy.sol\":541:545  uint */\n      0x00\n        /* \"contracts/Proxy/Proxy.sol\":563:568  logic */\n      dup1\n      0x00\n      swap1\n      sload\n      swap1\n      0x0100\n      exp\n      swap1\n      div\n      0xffffffffffffffffffffffffffffffffffffffff\n      and\n        /* \"contracts/Proxy/Proxy.sol\":563:578  logic.getNumber */\n      0xffffffffffffffffffffffffffffffffffffffff\n      and\n      0xf2c9ecd8\n        /* \"contracts/Proxy/Proxy.sol\":563:580  logic.getNumber() */\n      mload(0x40)\n      dup2\n      0xffffffff\n      and\n      0xe0\n      shl\n      dup2\n      mstore\n      0x04\n      add\n      0x20\n      mload(0x40)\n      dup1\n      dup4\n      sub\n      dup2\n      dup7\n      dup1\n      extcodesize\n      iszero\n      dup1\n      iszero\n      tag_32\n      jumpi\n      0x00\n      dup1\n      revert\n    tag_32:\n      pop\n      gas\n      staticcall\n      iszero\n      dup1\n      iszero\n      tag_34\n      jumpi\n      returndatasize\n      0x00\n      dup1\n      returndatacopy\n      revert(0x00, returndatasize)\n    tag_34:\n      pop\n      pop\n      pop\n      pop\n      mload(0x40)\n      returndatasize\n      not(0x1f)\n      0x1f\n      dup3\n      add\n      and\n      dup3\n      add\n      dup1\n      0x40\n      mstore\n      pop\n      dup2\n      add\n      swap1\n      tag_35\n      swap2\n      swap1\n      tag_36\n      jump\t// in\n    tag_35:\n        /* \"contracts/Proxy/Proxy.sol\":556:580  return logic.getNumber() */\n      swap1\n      pop\n        /* \"contracts/Proxy/Proxy.sol\":500:587  function getNumber() public view returns(uint){... */\n      swap1\n      jump\t// out\n        /* \"contracts/Proxy/Proxy.sol\":226:327  function setLogicAddress(address _logicAddress) public {... */\n    tag_25:\n        /* \"contracts/Proxy/Proxy.sol\":306:319  _logicAddress */\n      dup1\n        /* \"contracts/Proxy/Proxy.sol\":291:296  logic */\n      0x00\n      dup1\n        /* \"contracts/Proxy/Proxy.sol\":291:320  logic = ILogic(_logicAddress) */\n      0x0100\n      exp\n      dup2\n      sload\n      dup2\n      0xffffffffffffffffffffffffffffffffffffffff\n      mul\n      not\n      and\n      swap1\n      dup4\n      0xffffffffffffffffffffffffffffffffffffffff\n      and\n      mul\n      or\n      swap1\n      sstore\n      pop\n        /* \"contracts/Proxy/Proxy.sol\":226:327  function setLogicAddress(address _logicAddress) public {... */\n      pop\n      jump\t// out\n        /* \"#utility.yul\":7:146   */\n    tag_39:\n        /* \"#utility.yul\":53:58   */\n      0x00\n        /* \"#utility.yul\":91:97   */\n      dup2\n        /* \"#utility.yul\":78:98   */\n      calldataload\n        /* \"#utility.yul\":69:98   */\n      swap1\n      pop\n        /* \"#utility.yul\":107:140   */\n      tag_41\n        /* \"#utility.yul\":134:139   */\n      dup2\n        /* \"#utility.yul\":107:140   */\n      tag_42\n      jump\t// in\n    tag_41:\n        /* \"#utility.yul\":7:146   */\n      swap3\n      swap2\n      pop\n      pop\n      jump\t// out\n        /* \"#utility.yul\":152:295   */\n    tag_43:\n        /* \"#utility.yul\":209:214   */\n      0x00\n        /* \"#utility.yul\":240:246   */\n      dup2\n        /* \"#utility.yul\":234:247   */\n      mload\n        /* \"#utility.yul\":225:247   */\n      swap1\n      pop\n        /* \"#utility.yul\":256:289   */\n      tag_45\n        /* \"#utility.yul\":283:288   */\n      dup2\n        /* \"#utility.yul\":256:289   */\n      tag_46\n      jump\t// in\n    tag_45:\n        /* \"#utility.yul\":152:295   */\n      swap3\n      swap2\n      pop\n      pop\n      jump\t// out\n        /* \"#utility.yul\":301:630   */\n    tag_24:\n        /* \"#utility.yul\":360:366   */\n      0x00\n        /* \"#utility.yul\":409:411   */\n      0x20\n        /* \"#utility.yul\":397:406   */\n      dup3\n        /* \"#utility.yul\":388:395   */\n      dup5\n        /* \"#utility.yul\":384:407   */\n      sub\n        /* \"#utility.yul\":380:412   */\n      slt\n        /* \"#utility.yul\":377:496   */\n      iszero\n      tag_48\n      jumpi\n        /* \"#utility.yul\":415:494   */\n      tag_49\n      tag_50\n      jump\t// in\n    tag_49:\n        /* \"#utility.yul\":377:496   */\n    tag_48:\n        /* \"#utility.yul\":535:536   */\n      0x00\n        /* \"#utility.yul\":560:613   */\n      tag_51\n        /* \"#utility.yul\":605:612   */\n      dup5\n        /* \"#utility.yul\":596:602   */\n      dup3\n        /* \"#utility.yul\":585:594   */\n      dup6\n        /* \"#utility.yul\":581:603   */\n      add\n        /* \"#utility.yul\":560:613   */\n      tag_39\n      jump\t// in\n    tag_51:\n        /* \"#utility.yul\":550:613   */\n      swap2\n      pop\n        /* \"#utility.yul\":506:623   */\n      pop\n        /* \"#utility.yul\":301:630   */\n      swap3\n      swap2\n      pop\n      pop\n      jump\t// out\n        /* \"#utility.yul\":636:987   */\n    tag_36:\n        /* \"#utility.yul\":706:712   */\n      0x00\n        /* \"#utility.yul\":755:757   */\n      0x20\n        /* \"#utility.yul\":743:752   */\n      dup3\n        /* \"#utility.yul\":734:741   */\n      dup5\n        /* \"#utility.yul\":730:753   */\n      sub\n        /* \"#utility.yul\":726:758   */\n      slt\n        /* \"#utility.yul\":723:842   */\n      iszero\n      tag_53\n      jumpi\n        /* \"#utility.yul\":761:840   */\n      tag_54\n      tag_50\n      jump\t// in\n    tag_54:\n        /* \"#utility.yul\":723:842   */\n    tag_53:\n        /* \"#utility.yul\":881:882   */\n      0x00\n        /* \"#utility.yul\":906:970   */\n      tag_55\n        /* \"#utility.yul\":962:969   */\n      dup5\n        /* \"#utility.yul\":953:959   */\n      dup3\n        /* \"#utility.yul\":942:951   */\n      dup6\n        /* \"#utility.yul\":938:960   */\n      add\n        /* \"#utility.yul\":906:970   */\n      tag_43\n      jump\t// in\n    tag_55:\n        /* \"#utility.yul\":896:970   */\n      swap2\n      pop\n        /* \"#utility.yul\":852:980   */\n      pop\n        /* \"#utility.yul\":636:987   */\n      swap3\n      swap2\n      pop\n      pop\n      jump\t// out\n        /* \"#utility.yul\":993:1111   */\n    tag_56:\n        /* \"#utility.yul\":1080:1104   */\n      tag_58\n        /* \"#utility.yul\":1098:1103   */\n      dup2\n        /* \"#utility.yul\":1080:1104   */\n      tag_59\n      jump\t// in\n    tag_58:\n        /* \"#utility.yul\":1075:1078   */\n      dup3\n        /* \"#utility.yul\":1068:1105   */\n      mstore\n        /* \"#utility.yul\":993:1111   */\n      pop\n      pop\n      jump\t// out\n        /* \"#utility.yul\":1117:1274   */\n    tag_60:\n        /* \"#utility.yul\":1217:1267   */\n      tag_62\n        /* \"#utility.yul\":1261:1266   */\n      dup2\n        /* \"#utility.yul\":1217:1267   */\n      tag_63\n      jump\t// in\n    tag_62:\n        /* \"#utility.yul\":1212:1215   */\n      dup3\n        /* \"#utility.yul\":1205:1268   */\n      mstore\n        /* \"#utility.yul\":1117:1274   */\n      pop\n      pop\n      jump\t// out\n        /* \"#utility.yul\":1280:1398   */\n    tag_64:\n        /* \"#utility.yul\":1367:1391   */\n      tag_66\n        /* \"#utility.yul\":1385:1390   */\n      dup2\n        /* \"#utility.yul\":1367:1391   */\n      tag_67\n      jump\t// in\n    tag_66:\n        /* \"#utility.yul\":1362:1365   */\n      dup3\n        /* \"#utility.yul\":1355:1392   */\n      mstore\n        /* \"#utility.yul\":1280:1398   */\n      pop\n      pop\n      jump\t// out\n        /* \"#utility.yul\":1404:1626   */\n    tag_13:\n        /* \"#utility.yul\":1497:1501   */\n      0x00\n        /* \"#utility.yul\":1535:1537   */\n      0x20\n        /* \"#utility.yul\":1524:1533   */\n      dup3\n        /* \"#utility.yul\":1520:1538   */\n      add\n        /* \"#utility.yul\":1512:1538   */\n      swap1\n      pop\n        /* \"#utility.yul\":1548:1619   */\n      tag_69\n        /* \"#utility.yul\":1616:1617   */\n      0x00\n        /* \"#utility.yul\":1605:1614   */\n      dup4\n        /* \"#utility.yul\":1601:1618   */\n      add\n        /* \"#utility.yul\":1592:1598   */\n      dup5\n        /* \"#utility.yul\":1548:1619   */\n      tag_56\n      jump\t// in\n    tag_69:\n        /* \"#utility.yul\":1404:1626   */\n      swap3\n      swap2\n      pop\n      pop\n      jump\t// out\n        /* \"#utility.yul\":1632:1880   */\n    tag_17:\n        /* \"#utility.yul\":1738:1742   */\n      0x00\n        /* \"#utility.yul\":1776:1778   */\n      0x20\n        /* \"#utility.yul\":1765:1774   */\n      dup3\n        /* \"#utility.yul\":1761:1779   */\n      add\n        /* \"#utility.yul\":1753:1779   */\n      swap1\n      pop\n        /* \"#utility.yul\":1789:1873   */\n      tag_71\n        /* \"#utility.yul\":1870:1871   */\n      0x00\n        /* \"#utility.yul\":1859:1868   */\n      dup4\n        /* \"#utility.yul\":1855:1872   */\n      add\n        /* \"#utility.yul\":1846:1852   */\n      dup5\n        /* \"#utility.yul\":1789:1873   */\n      tag_60\n      jump\t// in\n    tag_71:\n        /* \"#utility.yul\":1632:1880   */\n      swap3\n      swap2\n      pop\n      pop\n      jump\t// out\n        /* \"#utility.yul\":1886:2108   */\n    tag_21:\n        /* \"#utility.yul\":1979:1983   */\n      0x00\n        /* \"#utility.yul\":2017:2019   */\n      0x20\n        /* \"#utility.yul\":2006:2015   */\n      dup3\n        /* \"#utility.yul\":2002:2020   */\n      add\n        /* \"#utility.yul\":1994:2020   */\n      swap1\n      pop\n        /* \"#utility.yul\":2030:2101   */\n      tag_73\n        /* \"#utility.yul\":2098:2099   */\n      0x00\n        /* \"#utility.yul\":2087:2096   */\n      dup4\n        /* \"#utility.yul\":2083:2100   */\n      add\n        /* \"#utility.yul\":2074:2080   */\n      dup5\n        /* \"#utility.yul\":2030:2101   */\n      tag_64\n      jump\t// in\n    tag_73:\n        /* \"#utility.yul\":1886:2108   */\n      swap3\n      swap2\n      pop\n      pop\n      jump\t// out\n        /* \"#utility.yul\":2195:2291   */\n    tag_59:\n        /* \"#utility.yul\":2232:2239   */\n      0x00\n        /* \"#utility.yul\":2261:2285   */\n      tag_77\n        /* \"#utility.yul\":2279:2284   */\n      dup3\n        /* \"#utility.yul\":2261:2285   */\n      tag_78\n      jump\t// in\n    tag_77:\n        /* \"#utility.yul\":2250:2285   */\n      swap1\n      pop\n        /* \"#utility.yul\":2195:2291   */\n      swap2\n      swap1\n      pop\n      jump\t// out\n        /* \"#utility.yul\":2297:2423   */\n    tag_78:\n        /* \"#utility.yul\":2334:2341   */\n      0x00\n        /* \"#utility.yul\":2374:2416   */\n      0xffffffffffffffffffffffffffffffffffffffff\n        /* \"#utility.yul\":2367:2372   */\n      dup3\n        /* \"#utility.yul\":2363:2417   */\n      and\n        /* \"#utility.yul\":2352:2417   */\n      swap1\n      pop\n        /* \"#utility.yul\":2297:2423   */\n      swap2\n      swap1\n      pop\n      jump\t// out\n        /* \"#utility.yul\":2429:2506   */\n    tag_67:\n        /* \"#utility.yul\":2466:2473   */\n      0x00\n        /* \"#utility.yul\":2495:2500   */\n      dup2\n        /* \"#utility.yul\":2484:2500   */\n      swap1\n      pop\n        /* \"#utility.yul\":2429:2506   */\n      swap2\n      swap1\n      pop\n      jump\t// out\n        /* \"#utility.yul\":2512:2651   */\n    tag_63:\n        /* \"#utility.yul\":2575:2584   */\n      0x00\n        /* \"#utility.yul\":2608:2645   */\n      tag_82\n        /* \"#utility.yul\":2639:2644   */\n      dup3\n        /* \"#utility.yul\":2608:2645   */\n      tag_83\n      jump\t// in\n    tag_82:\n        /* \"#utility.yul\":2595:2645   */\n      swap1\n      pop\n        /* \"#utility.yul\":2512:2651   */\n      swap2\n      swap1\n      pop\n      jump\t// out\n        /* \"#utility.yul\":2657:2783   */\n    tag_83:\n        /* \"#utility.yul\":2707:2716   */\n      0x00\n        /* \"#utility.yul\":2740:2777   */\n      tag_85\n        /* \"#utility.yul\":2771:2776   */\n      dup3\n        /* \"#utility.yul\":2740:2777   */\n      tag_86\n      jump\t// in\n    tag_85:\n        /* \"#utility.yul\":2727:2777   */\n      swap1\n      pop\n        /* \"#utility.yul\":2657:2783   */\n      swap2\n      swap1\n      pop\n      jump\t// out\n        /* \"#utility.yul\":2789:2902   */\n    tag_86:\n        /* \"#utility.yul\":2839:2848   */\n      0x00\n        /* \"#utility.yul\":2872:2896   */\n      tag_88\n        /* \"#utility.yul\":2890:2895   */\n      dup3\n        /* \"#utility.yul\":2872:2896   */\n      tag_78\n      jump\t// in\n    tag_88:\n        /* \"#utility.yul\":2859:2896   */\n      swap1\n      pop\n        /* \"#utility.yul\":2789:2902   */\n      swap2\n      swap1\n      pop\n      jump\t// out\n        /* \"#utility.yul\":3031:3148   */\n    tag_50:\n        /* \"#utility.yul\":3140:3141   */\n      0x00\n        /* \"#utility.yul\":3137:3138   */\n      dup1\n        /* \"#utility.yul\":3130:3142   */\n      revert\n        /* \"#utility.yul\":3154:3276   */\n    tag_42:\n        /* \"#utility.yul\":3227:3251   */\n      tag_93\n        /* \"#utility.yul\":3245:3250   */\n      dup2\n        /* \"#utility.yul\":3227:3251   */\n      tag_59\n      jump\t// in\n    tag_93:\n        /* \"#utility.yul\":3220:3225   */\n      dup2\n        /* \"#utility.yul\":3217:3252   */\n      eq\n        /* \"#utility.yul\":3207:3270   */\n      tag_94\n      jumpi\n        /* \"#utility.yul\":3266:3267   */\n      0x00\n        /* \"#utility.yul\":3263:3264   */\n      dup1\n        /* \"#utility.yul\":3256:3268   */\n      revert\n        /* \"#utility.yul\":3207:3270   */\n    tag_94:\n        /* \"#utility.yul\":3154:3276   */\n      pop\n      jump\t// out\n        /* \"#utility.yul\":3282:3404   */\n    tag_46:\n        /* \"#utility.yul\":3355:3379   */\n      tag_96\n        /* \"#utility.yul\":3373:3378   */\n      dup2\n        /* \"#utility.yul\":3355:3379   */\n      tag_67\n      jump\t// in\n    tag_96:\n        /* \"#utility.yul\":3348:3353   */\n      dup2\n        /* \"#utility.yul\":3345:3380   */\n      eq\n        /* \"#utility.yul\":3335:3398   */\n      tag_97\n      jumpi\n        /* \"#utility.yul\":3394:3395   */\n      0x00\n        /* \"#utility.yul\":3391:3392   */\n      dup1\n        /* \"#utility.yul\":3384:3396   */\n      revert\n        /* \"#utility.yul\":3335:3398   */\n    tag_97:\n        /* \"#utility.yul\":3282:3404   */\n      pop\n      jump\t// out\n\n    auxdata: 0xa2646970667358221220a27e3885095b65114129d47b6af61dcfb7d9ad3c87ae12fe8bf81ecdc66e368a64736f6c63430008070033\n}\n",
				"bytecode": {
					"linkReferences": {},
					"object": "608060405234801561001057600080fd5b50610471806100206000396000f3fe608060405234801561001057600080fd5b50600436106100575760003560e01c80634154b2431461005c578063abd108ba14610066578063d7dfa0dd14610084578063f2c9ecd8146100a2578063fdcfc3ef146100c0575b600080fd5b6100646100dc565b005b61006e61015e565b60405161007b9190610345565b60405180910390f35b61008c610187565b6040516100999190610360565b60405180910390f35b6100aa6101ab565b6040516100b7919061037b565b60405180910390f35b6100da60048036038101906100d591906102be565b610251565b005b60008054906101000a900473ffffffffffffffffffffffffffffffffffffffff1673ffffffffffffffffffffffffffffffffffffffff16634154b2436040518163ffffffff1660e01b8152600401600060405180830381600087803b15801561014457600080fd5b505af1158015610158573d6000803e3d6000fd5b50505050565b60008060009054906101000a900473ffffffffffffffffffffffffffffffffffffffff16905090565b60008054906101000a900473ffffffffffffffffffffffffffffffffffffffff1681565b60008060009054906101000a900473ffffffffffffffffffffffffffffffffffffffff1673ffffffffffffffffffffffffffffffffffffffff1663f2c9ecd86040518163ffffffff1660e01b815260040160206040518083038186803b15801561021457600080fd5b505afa158015610228573d6000803e3d6000fd5b505050506040513d601f19601f8201168201806040525081019061024c91906102eb565b905090565b806000806101000a81548173ffffffffffffffffffffffffffffffffffffffff021916908373ffffffffffffffffffffffffffffffffffffffff16021790555050565b6000813590506102a38161040d565b92915050565b6000815190506102b881610424565b92915050565b6000602082840312156102d4576102d3610408565b5b60006102e284828501610294565b91505092915050565b60006020828403121561030157610300610408565b5b600061030f848285016102a9565b91505092915050565b61032181610396565b82525050565b610330816103d2565b82525050565b61033f816103c8565b82525050565b600060208201905061035a6000830184610318565b92915050565b60006020820190506103756000830184610327565b92915050565b60006020820190506103906000830184610336565b92915050565b60006103a1826103a8565b9050919050565b600073ffffffffffffffffffffffffffffffffffffffff82169050919050565b6000819050919050565b60006103dd826103e4565b9050919050565b60006103ef826103f6565b9050919050565b6000610401826103a8565b9050919050565b600080fd5b61041681610396565b811461042157600080fd5b50565b61042d816103c8565b811461043857600080fd5b5056fea2646970667358221220a27e3885095b65114129d47b6af61dcfb7d9ad3c87ae12fe8bf81ecdc66e368a64736f6c63430008070033",
					"opcodes": "PUSH1 0x80 PUSH1 0x40 MSTORE CALLVALUE DUP1 ISZERO PUSH2 0x10 JUMPI PUSH1 0x0 DUP1 REVERT JUMPDEST POP PUSH2 0x471 DUP1 PUSH2 0x20 PUSH1 0x0 CODECOPY PUSH1 0x0 RETURN INVALID PUSH1 0x80 PUSH1 0x40 MSTORE CALLVALUE DUP1 ISZERO PUSH2 0x10 JUMPI PUSH1 0x0 DUP1 REVERT JUMPDEST POP PUSH1 0x4 CALLDATASIZE LT PUSH2 0x57 JUMPI PUSH1 0x0 CALLDATALOAD PUSH1 0xE0 SHR DUP1 PUSH4 0x4154B243 EQ PUSH2 0x5C JUMPI DUP1 PUSH4 0xABD108BA EQ PUSH2 0x66 JUMPI DUP1 PUSH4 0xD7DFA0DD EQ PUSH2 0x84 JUMPI DUP1 PUSH4 0xF2C9ECD8 EQ PUSH2 0xA2 JUMPI DUP1 PUSH4 0xFDCFC3EF EQ PUSH2 0xC0 JUMPI JUMPDEST PUSH1 0x0 DUP1 REVERT JUMPDEST PUSH2 0x64 PUSH2 0xDC JUMP JUMPDEST STOP JUMPDEST PUSH2 0x6E PUSH2 0x15E JUMP JUMPDEST PUSH1 0x40 MLOAD PUSH2 0x7B SWAP2 SWAP1 PUSH2 0x345 JUMP JUMPDEST PUSH1 0x40 MLOAD DUP1 SWAP2 SUB SWAP1 RETURN JUMPDEST PUSH2 0x8C PUSH2 0x187 JUMP JUMPDEST PUSH1 0x40 MLOAD PUSH2 0x99 SWAP2 SWAP1 PUSH2 0x360 JUMP JUMPDEST PUSH1 0x40 MLOAD DUP1 SWAP2 SUB SWAP1 RETURN JUMPDEST PUSH2 0xAA PUSH2 0x1AB JUMP JUMPDEST PUSH1 0x40 MLOAD PUSH2 0xB7 SWAP2 SWAP1 PUSH2 0x37B JUMP JUMPDEST PUSH1 0x40 MLOAD DUP1 SWAP2 SUB SWAP1 RETURN JUMPDEST PUSH2 0xDA PUSH1 0x4 DUP1 CALLDATASIZE SUB DUP2 ADD SWAP1 PUSH2 0xD5 SWAP2 SWAP1 PUSH2 0x2BE JUMP JUMPDEST PUSH2 0x251 JUMP JUMPDEST STOP JUMPDEST PUSH1 0x0 DUP1 SLOAD SWAP1 PUSH2 0x100 EXP SWAP1 DIV PUSH20 0xFFFFFFFFFFFFFFFFFFFFFFFFFFFFFFFFFFFFFFFF AND PUSH20 0xFFFFFFFFFFFFFFFFFFFFFFFFFFFFFFFFFFFFFFFF AND PUSH4 0x4154B243 PUSH1 0x40 MLOAD DUP2 PUSH4 0xFFFFFFFF AND PUSH1 0xE0 SHL DUP2 MSTORE PUSH1 0x4 ADD PUSH1 0x0 PUSH1 0x40 MLOAD DUP1 DUP4 SUB DUP2 PUSH1 0x0 DUP8 DUP1 EXTCODESIZE ISZERO DUP1 ISZERO PUSH2 0x144 JUMPI PUSH1 0x0 DUP1 REVERT JUMPDEST POP GAS CALL ISZERO DUP1 ISZERO PUSH2 0x158 JUMPI RETURNDATASIZE PUSH1 0x0 DUP1 RETURNDATACOPY RETURNDATASIZE PUSH1 0x0 REVERT JUMPDEST POP POP POP POP JUMP JUMPDEST PUSH1 0x0 DUP1 PUSH1 0x0 SWAP1 SLOAD SWAP1 PUSH2 0x100 EXP SWAP1 DIV PUSH20 0xFFFFFFFFFFFFFFFFFFFFFFFFFFFFFFFFFFFFFFFF AND SWAP1 POP SWAP1 JUMP JUMPDEST PUSH1 0x0 DUP1 SLOAD SWAP1 PUSH2 0x100 EXP SWAP1 DIV PUSH20 0xFFFFFFFFFFFFFFFFFFFFFFFFFFFFFFFFFFFFFFFF AND DUP2 JUMP JUMPDEST PUSH1 0x0 DUP1 PUSH1 0x0 SWAP1 SLOAD SWAP1 PUSH2 0x100 EXP SWAP1 DIV PUSH20 0xFFFFFFFFFFFFFFFFFFFFFFFFFFFFFFFFFFFFFFFF AND PUSH20 0xFFFFFFFFFFFFFFFFFFFFFFFFFFFFFFFFFFFFFFFF AND PUSH4 0xF2C9ECD8 PUSH1 0x40 MLOAD DUP2 PUSH4 0xFFFFFFFF AND PUSH1 0xE0 SHL DUP2 MSTORE PUSH1 0x4 ADD PUSH1 0x20 PUSH1 0x40 MLOAD DUP1 DUP4 SUB DUP2 DUP7 DUP1 EXTCODESIZE ISZERO DUP1 ISZERO PUSH2 0x214 JUMPI PUSH1 0x0 DUP1 REVERT JUMPDEST POP GAS STATICCALL ISZERO DUP1 ISZERO PUSH2 0x228 JUMPI RETURNDATASIZE PUSH1 0x0 DUP1 RETURNDATACOPY RETURNDATASIZE PUSH1 0x0 REVERT JUMPDEST POP POP POP POP PUSH1 0x40 MLOAD RETURNDATASIZE PUSH1 0x1F NOT PUSH1 0x1F DUP3 ADD AND DUP3 ADD DUP1 PUSH1 0x40 MSTORE POP DUP2 ADD SWAP1 PUSH2 0x24C SWAP2 SWAP1 PUSH2 0x2EB JUMP JUMPDEST SWAP1 POP SWAP1 JUMP JUMPDEST DUP1 PUSH1 0x0 DUP1 PUSH2 0x100 EXP DUP2 SLOAD DUP2 PUSH20 0xFFFFFFFFFFFFFFFFFFFFFFFFFFFFFFFFFFFFFFFF MUL NOT AND SWAP1 DUP4 PUSH20 0xFFFFFFFFFFFFFFFFFFFFFFFFFFFFFFFFFFFFFFFF AND MUL OR SWAP1 SSTORE POP POP JUMP JUMPDEST PUSH1 0x0 DUP2 CALLDATALOAD SWAP1 POP PUSH2 0x2A3 DUP2 PUSH2 0x40D JUMP JUMPDEST SWAP3 SWAP2 POP POP JUMP JUMPDEST PUSH1 0x0 DUP2 MLOAD SWAP1 POP PUSH2 0x2B8 DUP2 PUSH2 0x424 JUMP JUMPDEST SWAP3 SWAP2 POP POP JUMP JUMPDEST PUSH1 0x0 PUSH1 0x20 DUP3 DUP5 SUB SLT ISZERO PUSH2 0x2D4 JUMPI PUSH2 0x2D3 PUSH2 0x408 JUMP JUMPDEST JUMPDEST PUSH1 0x0 PUSH2 0x2E2 DUP5 DUP3 DUP6 ADD PUSH2 0x294 JUMP JUMPDEST SWAP2 POP POP SWAP3 SWAP2 POP POP JUMP JUMPDEST PUSH1 0x0 PUSH1 0x20 DUP3 DUP5 SUB SLT ISZERO PUSH2 0x301 JUMPI PUSH2 0x300 PUSH2 0x408 JUMP JUMPDEST JUMPDEST PUSH1 0x0 PUSH2 0x30F DUP5 DUP3 DUP6 ADD PUSH2 0x2A9 JUMP JUMPDEST SWAP2 POP POP SWAP3 SWAP2 POP POP JUMP JUMPDEST PUSH2 0x321 DUP2 PUSH2 0x396 JUMP JUMPDEST DUP3 MSTORE POP POP JUMP JUMPDEST PUSH2 0x330 DUP2 PUSH2 0x3D2 JUMP JUMPDEST DUP3 MSTORE POP POP JUMP JUMPDEST PUSH2 0x33F DUP2 PUSH2 0x3C8 JUMP JUMPDEST DUP3 MSTORE POP POP JUMP JUMPDEST PUSH1 0x0 PUSH1 0x20 DUP3 ADD SWAP1 POP PUSH2 0x35A PUSH1 0x0 DUP4 ADD DUP5 PUSH2 0x318 JUMP JUMPDEST SWAP3 SWAP2 POP POP JUMP JUMPDEST PUSH1 0x0 PUSH1 0x20 DUP3 ADD SWAP1 POP PUSH2 0x375 PUSH1 0x0 DUP4 ADD DUP5 PUSH2 0x327 JUMP JUMPDEST SWAP3 SWAP2 POP POP JUMP JUMPDEST PUSH1 0x0 PUSH1 0x20 DUP3 ADD SWAP1 POP PUSH2 0x390 PUSH1 0x0 DUP4 ADD DUP5 PUSH2 0x336 JUMP JUMPDEST SWAP3 SWAP2 POP POP JUMP JUMPDEST PUSH1 0x0 PUSH2 0x3A1 DUP3 PUSH2 0x3A8 JUMP JUMPDEST SWAP1 POP SWAP2 SWAP1 POP JUMP JUMPDEST PUSH1 0x0 PUSH20 0xFFFFFFFFFFFFFFFFFFFFFFFFFFFFFFFFFFFFFFFF DUP3 AND SWAP1 POP SWAP2 SWAP1 POP JUMP JUMPDEST PUSH1 0x0 DUP2 SWAP1 POP SWAP2 SWAP1 POP JUMP JUMPDEST PUSH1 0x0 PUSH2 0x3DD DUP3 PUSH2 0x3E4 JUMP JUMPDEST SWAP1 POP SWAP2 SWAP1 POP JUMP JUMPDEST PUSH1 0x0 PUSH2 0x3EF DUP3 PUSH2 0x3F6 JUMP JUMPDEST SWAP1 POP SWAP2 SWAP1 POP JUMP JUMPDEST PUSH1 0x0 PUSH2 0x401 DUP3 PUSH2 0x3A8 JUMP JUMPDEST SWAP1 POP SWAP2 SWAP1 POP JUMP JUMPDEST PUSH1 0x0 DUP1 REVERT JUMPDEST PUSH2 0x416 DUP2 PUSH2 0x396 JUMP JUMPDEST DUP2 EQ PUSH2 0x421 JUMPI PUSH1 0x0 DUP1 REVERT JUMPDEST POP JUMP JUMPDEST PUSH2 0x42D DUP2 PUSH2 0x3C8 JUMP JUMPDEST DUP2 EQ PUSH2 0x438 JUMPI PUSH1 0x0 DUP1 REVERT JUMPDEST POP JUMP INVALID LOG2 PUSH5 0x6970667358 0x22 SLT KECCAK256 LOG2 PUSH31 0x3885095B65114129D47B6AF61DCFB7D9AD3C87AE12FE8BF81ECDC66E368A64 PUSH20 0x6F6C634300080700330000000000000000000000 "
				},
				"gasEstimates": {
					"creation": {
						"codeDepositCost": "227400",
						"executionCost": "269",
						"totalCost": "227669"
					},
					"external": {
						"getLogicAddress()": "2522",
						"getNumber()": "infinite",
						"logic()": "2619",
						"setLogicAddress(address)": "24788",
						"setNumber()": "infinite"
					}
				},
				"methodIdentifiers": {
					"getLogicAddress()": "abd108ba",
					"getNumber()": "f2c9ecd8",
					"logic()": "d7dfa0dd",
					"setLogicAddress(address)": "fdcfc3ef",
					"setNumber()": "4154b243"
				}
			},
			"storageLayout": {
				"storage": [
					{
						"astId": 13,
						"contract": "contracts/Proxy/Proxy.sol:Proxy",
						"label": "logic",
						"offset": 0,
						"slot": "0",
						"type": "t_contract(ILogic)10"
					}
				],
				"types": {
					"t_contract(ILogic)10": {
						"encoding": "inplace",
						"label": "contract ILogic",
						"numberOfBytes": "20"
					}
				}
			},
			"userdoc": {
				"kind": "user",
				"methods": {},
				"version": 1
			}
		}
	}
}